{"contracts/PizzaParty.sol":{"PizzaParty":{"abi":[{"inputs":[{"internalType":"address","name":"_vmfToken","type":"address"},{"internalType":"address","name":"_randomnessContract","type":"address"},{"internalType":"address","name":"_priceOracle","type":"address"}],"stateMutability":"nonpayable","type":"constructor"},{"inputs":[],"name":"EnforcedPause","type":"error"},{"inputs":[],"name":"ExpectedPause","type":"error"},{"inputs":[{"internalType":"address","name":"owner","type":"address"}],"name":"OwnableInvalidOwner","type":"error"},{"inputs":[{"internalType":"address","name":"account","type":"address"}],"name":"OwnableUnauthorizedAccount","type":"error"},{"inputs":[],"name":"ReentrancyGuardReentrantCall","type":"error"},{"anonymous":false,"inputs":[{"indexed":true,"internalType":"uint256","name":"blockNumber","type":"uint256"},{"indexed":false,"internalType":"uint256","name":"totalProcessed","type":"uint256"},{"indexed":false,"internalType":"uint256","name":"totalPlayers","type":"uint256"}],"name":"BatchPlayersProcessed","type":"event"},{"anonymous":false,"inputs":[{"indexed":false,"internalType":"uint256","name":"gameId","type":"uint256"},{"indexed":false,"internalType":"address[]","name":"winners","type":"address[]"},{"indexed":false,"internalType":"uint256","name":"jackpot","type":"uint256"}],"name":"DailyWinnersSelected","type":"event"},{"anonymous":false,"inputs":[{"indexed":false,"internalType":"uint256","name":"vmfPrice","type":"uint256"},{"indexed":false,"internalType":"uint256","name":"requiredVMF","type":"uint256"},{"indexed":false,"internalType":"uint256","name":"timestamp","type":"uint256"}],"name":"DynamicEntryFeeCalculated","type":"event"},{"anonymous":false,"inputs":[{"indexed":false,"internalType":"bool","name":"paused","type":"bool"}],"name":"EmergencyPause","type":"event"},{"anonymous":false,"inputs":[{"indexed":true,"internalType":"address","name":"contributor","type":"address"},{"indexed":false,"internalType":"bytes32","name":"entropy","type":"bytes32"},{"indexed":false,"internalType":"uint256","name":"roundId","type":"uint256"}],"name":"EntropyContributed","type":"event"},{"anonymous":false,"inputs":[{"indexed":true,"internalType":"address","name":"player","type":"address"},{"indexed":false,"internalType":"uint256","name":"amount","type":"uint256"}],"name":"FirstOrderRewardClaimed","type":"event"},{"anonymous":false,"inputs":[{"indexed":true,"internalType":"uint256","name":"gameId","type":"uint256"},{"indexed":true,"internalType":"address","name":"sender","type":"address"}],"name":"GameStateUnlocked","type":"event"},{"anonymous":false,"inputs":[{"indexed":false,"internalType":"uint256","name":"timestamp","type":"uint256"},{"indexed":false,"internalType":"uint256","name":"threshold","type":"uint256"}],"name":"GasOptimizationCompleted","type":"event"},{"anonymous":false,"inputs":[{"indexed":true,"internalType":"address","name":"player","type":"address"},{"indexed":false,"internalType":"uint256","name":"amount","type":"uint256"}],"name":"JackpotEntryAdded","type":"event"},{"anonymous":false,"inputs":[{"indexed":false,"internalType":"uint256","name":"cooldown","type":"uint256"}],"name":"JackpotUpdateCooldownSet","type":"event"},{"anonymous":false,"inputs":[{"indexed":false,"internalType":"uint256","name":"dailyJackpot","type":"uint256"},{"indexed":false,"internalType":"uint256","name":"weeklyJackpot","type":"uint256"}],"name":"JackpotUpdated","type":"event"},{"anonymous":false,"inputs":[{"indexed":true,"internalType":"uint256","name":"gameId","type":"uint256"},{"indexed":false,"internalType":"uint256","name":"oldAmount","type":"uint256"},{"indexed":false,"internalType":"uint256","name":"newAmount","type":"uint256"},{"indexed":false,"internalType":"uint256","name":"nonce","type":"uint256"}],"name":"JackpotUpdatedAtomic","type":"event"},{"anonymous":false,"inputs":[{"indexed":true,"internalType":"address","name":"player","type":"address"},{"indexed":false,"internalType":"uint256","name":"points","type":"uint256"},{"indexed":false,"internalType":"string","name":"reason","type":"string"}],"name":"LoyaltyPointsAwarded","type":"event"},{"anonymous":false,"inputs":[{"indexed":true,"internalType":"address","name":"previousOwner","type":"address"},{"indexed":true,"internalType":"address","name":"newOwner","type":"address"}],"name":"OwnershipTransferred","type":"event"},{"anonymous":false,"inputs":[{"indexed":false,"internalType":"address","name":"account","type":"address"}],"name":"Paused","type":"event"},{"anonymous":false,"inputs":[{"indexed":true,"internalType":"address","name":"player","type":"address"},{"indexed":false,"internalType":"bool","name":"blacklisted","type":"bool"}],"name":"PlayerBlacklisted","type":"event"},{"anonymous":false,"inputs":[{"indexed":true,"internalType":"address","name":"player","type":"address"},{"indexed":true,"internalType":"uint256","name":"gameId","type":"uint256"},{"indexed":false,"internalType":"uint256","name":"amount","type":"uint256"}],"name":"PlayerEntered","type":"event"},{"anonymous":false,"inputs":[{"indexed":false,"internalType":"uint256","name":"gameId","type":"uint256"},{"indexed":false,"internalType":"uint256","name":"randomnessRoundId","type":"uint256"}],"name":"RandomnessRequested","type":"event"},{"anonymous":false,"inputs":[{"indexed":true,"internalType":"address","name":"user","type":"address"},{"indexed":false,"internalType":"uint256","name":"cooldownEnd","type":"uint256"}],"name":"RateLimitTriggered","type":"event"},{"anonymous":false,"inputs":[{"indexed":true,"internalType":"address","name":"player","type":"address"},{"indexed":false,"internalType":"string","name":"code","type":"string"}],"name":"ReferralCreated","type":"event"},{"anonymous":false,"inputs":[{"indexed":false,"internalType":"string","name":"code","type":"string"},{"indexed":false,"internalType":"address","name":"player","type":"address"}],"name":"ReferralProcessed","type":"event"},{"anonymous":false,"inputs":[{"indexed":true,"internalType":"bytes32","name":"role","type":"bytes32"},{"indexed":true,"internalType":"address","name":"admin","type":"address"}],"name":"RoleAdminSet","type":"event"},{"anonymous":false,"inputs":[{"indexed":true,"internalType":"bytes32","name":"role","type":"bytes32"},{"indexed":true,"internalType":"address","name":"account","type":"address"},{"indexed":true,"internalType":"address","name":"sender","type":"address"}],"name":"RoleGranted","type":"event"},{"anonymous":false,"inputs":[{"indexed":true,"internalType":"bytes32","name":"role","type":"bytes32"},{"indexed":true,"internalType":"address","name":"account","type":"address"},{"indexed":true,"internalType":"address","name":"sender","type":"address"}],"name":"RoleRevoked","type":"event"},{"anonymous":false,"inputs":[{"indexed":true,"internalType":"uint256","name":"roundId","type":"uint256"},{"indexed":false,"internalType":"bytes32","name":"seed","type":"bytes32"}],"name":"SecureRandomnessGenerated","type":"event"},{"anonymous":false,"inputs":[{"indexed":true,"internalType":"address","name":"player","type":"address"},{"indexed":false,"internalType":"uint256","name":"amount","type":"uint256"},{"indexed":false,"internalType":"string","name":"reason","type":"string"}],"name":"ToppingsAwarded","type":"event"},{"anonymous":false,"inputs":[{"indexed":false,"internalType":"address","name":"account","type":"address"}],"name":"Unpaused","type":"event"},{"anonymous":false,"inputs":[{"indexed":true,"internalType":"address","name":"player","type":"address"},{"indexed":false,"internalType":"uint256","name":"challengeId","type":"uint256"},{"indexed":false,"internalType":"uint256","name":"reward","type":"uint256"}],"name":"WeeklyChallengeCompleted","type":"event"},{"anonymous":false,"inputs":[{"indexed":false,"internalType":"uint256","name":"gameId","type":"uint256"},{"indexed":false,"internalType":"address[]","name":"winners","type":"address[]"},{"indexed":false,"internalType":"uint256","name":"jackpot","type":"uint256"}],"name":"WeeklyWinnersSelected","type":"event"},{"anonymous":false,"inputs":[{"indexed":false,"internalType":"uint256","name":"gameId","type":"uint256"},{"indexed":false,"internalType":"uint256","name":"randomNumber","type":"uint256"},{"indexed":false,"internalType":"address[]","name":"winners","type":"address[]"}],"name":"WinnersSelectedWithRandomness","type":"event"},{"inputs":[],"name":"ADMIN_ROLE","outputs":[{"internalType":"bytes32","name":"","type":"bytes32"}],"stateMutability":"view","type":"function"},{"inputs":[],"name":"AUDITOR_ROLE","outputs":[{"internalType":"bytes32","name":"","type":"bytes32"}],"stateMutability":"view","type":"function"},{"inputs":[],"name":"BATCH_SIZE","outputs":[{"internalType":"uint256","name":"","type":"uint256"}],"stateMutability":"view","type":"function"},{"inputs":[],"name":"DAILY_PLAY_REWARD","outputs":[{"internalType":"uint256","name":"","type":"uint256"}],"stateMutability":"view","type":"function"},{"inputs":[],"name":"DAILY_WINNERS_COUNT","outputs":[{"internalType":"uint256","name":"","type":"uint256"}],"stateMutability":"view","type":"function"},{"inputs":[],"name":"DOLLAR_ENTRY_FEE","outputs":[{"internalType":"uint256","name":"","type":"uint256"}],"stateMutability":"view","type":"function"},{"inputs":[],"name":"EMERGENCY_ROLE","outputs":[{"internalType":"bytes32","name":"","type":"bytes32"}],"stateMutability":"view","type":"function"},{"inputs":[],"name":"ENTRY_COOLDOWN","outputs":[{"internalType":"uint256","name":"","type":"uint256"}],"stateMutability":"view","type":"function"},{"inputs":[],"name":"FIRST_ORDER_REWARD","outputs":[{"internalType":"uint256","name":"","type":"uint256"}],"stateMutability":"view","type":"function"},{"inputs":[],"name":"GAS_OPTIMIZATION_INTERVAL","outputs":[{"internalType":"uint256","name":"","type":"uint256"}],"stateMutability":"view","type":"function"},{"inputs":[],"name":"JACKPOT_ENTRY_COST","outputs":[{"internalType":"uint256","name":"","type":"uint256"}],"stateMutability":"view","type":"function"},{"inputs":[],"name":"JACKPOT_MULTIPLIER","outputs":[{"internalType":"uint256","name":"","type":"uint256"}],"stateMutability":"view","type":"function"},{"inputs":[],"name":"LOYALTY_POINTS_PER_DOLLAR","outputs":[{"internalType":"uint256","name":"","type":"uint256"}],"stateMutability":"view","type":"function"},{"inputs":[],"name":"MAX_DAILY_ENTRIES","outputs":[{"internalType":"uint256","name":"","type":"uint256"}],"stateMutability":"view","type":"function"},{"inputs":[],"name":"MAX_DAILY_REWARDS","outputs":[{"internalType":"uint256","name":"","type":"uint256"}],"stateMutability":"view","type":"function"},{"inputs":[],"name":"MAX_JACKPOT_ENTRIES","outputs":[{"internalType":"uint256","name":"","type":"uint256"}],"stateMutability":"view","type":"function"},{"inputs":[],"name":"MAX_PRICE_DEVIATION","outputs":[{"internalType":"uint256","name":"","type":"uint256"}],"stateMutability":"view","type":"function"},{"inputs":[],"name":"MAX_REFERRAL_CODE_LENGTH","outputs":[{"internalType":"uint256","name":"","type":"uint256"}],"stateMutability":"view","type":"function"},{"inputs":[],"name":"MAX_REWARD_AMOUNT","outputs":[{"internalType":"uint256","name":"","type":"uint256"}],"stateMutability":"view","type":"function"},{"inputs":[],"name":"MIN_REFERRAL_CODE_LENGTH","outputs":[{"internalType":"uint256","name":"","type":"uint256"}],"stateMutability":"view","type":"function"},{"inputs":[],"name":"MIN_VMF_HOLDING","outputs":[{"internalType":"uint256","name":"","type":"uint256"}],"stateMutability":"view","type":"function"},{"inputs":[],"name":"OPERATOR_ROLE","outputs":[{"internalType":"bytes32","name":"","type":"bytes32"}],"stateMutability":"view","type":"function"},{"inputs":[],"name":"PRICE_UPDATE_THRESHOLD","outputs":[{"internalType":"uint256","name":"","type":"uint256"}],"stateMutability":"view","type":"function"},{"inputs":[],"name":"REFERRAL_REWARD","outputs":[{"internalType":"uint256","name":"","type":"uint256"}],"stateMutability":"view","type":"function"},{"inputs":[],"name":"STREAK_BONUS","outputs":[{"internalType":"uint256","name":"","type":"uint256"}],"stateMutability":"view","type":"function"},{"inputs":[],"name":"VMF_HOLDING_REWARD","outputs":[{"internalType":"uint256","name":"","type":"uint256"}],"stateMutability":"view","type":"function"},{"inputs":[],"name":"WEEKLY_WINNERS_COUNT","outputs":[{"internalType":"uint256","name":"","type":"uint256"}],"stateMutability":"view","type":"function"},{"inputs":[],"name":"addJackpotEntry","outputs":[],"stateMutability":"nonpayable","type":"function"},{"inputs":[],"name":"awardLoyaltyPoints","outputs":[],"stateMutability":"nonpayable","type":"function"},{"inputs":[],"name":"awardStreakBonus","outputs":[],"stateMutability":"nonpayable","type":"function"},{"inputs":[],"name":"awardVMFHoldingsToppings","outputs":[],"stateMutability":"nonpayable","type":"function"},{"inputs":[{"internalType":"uint256","name":"","type":"uint256"}],"name":"batchProcessingActive","outputs":[{"internalType":"bool","name":"","type":"bool"}],"stateMutability":"view","type":"function"},{"inputs":[{"internalType":"uint256","name":"","type":"uint256"}],"name":"batchProcessingNonce","outputs":[{"internalType":"uint256","name":"","type":"uint256"}],"stateMutability":"view","type":"function"},{"inputs":[{"internalType":"address","name":"","type":"address"}],"name":"blacklistedAddresses","outputs":[{"internalType":"bool","name":"","type":"bool"}],"stateMutability":"view","type":"function"},{"inputs":[],"name":"claimFirstOrderReward","outputs":[],"stateMutability":"nonpayable","type":"function"},{"inputs":[{"internalType":"uint256","name":"challengeId","type":"uint256"}],"name":"claimWeeklyChallengeReward","outputs":[],"stateMutability":"nonpayable","type":"function"},{"inputs":[{"internalType":"bytes32","name":"entropy","type":"bytes32"}],"name":"contributeEntropy","outputs":[],"stateMutability":"nonpayable","type":"function"},{"inputs":[],"name":"createReferralCode","outputs":[],"stateMutability":"nonpayable","type":"function"},{"inputs":[],"name":"currentDailyJackpot","outputs":[{"internalType":"uint256","name":"","type":"uint256"}],"stateMutability":"view","type":"function"},{"inputs":[],"name":"currentRandomnessRound","outputs":[{"internalType":"uint256","name":"","type":"uint256"}],"stateMutability":"view","type":"function"},{"inputs":[],"name":"currentWeeklyJackpot","outputs":[{"internalType":"uint256","name":"","type":"uint256"}],"stateMutability":"view","type":"function"},{"inputs":[{"internalType":"uint256","name":"","type":"uint256"}],"name":"dailyPlayerCount","outputs":[{"internalType":"uint256","name":"","type":"uint256"}],"stateMutability":"view","type":"function"},{"inputs":[{"internalType":"uint256","name":"","type":"uint256"},{"internalType":"uint256","name":"","type":"uint256"}],"name":"dailyPlayers","outputs":[{"internalType":"address","name":"","type":"address"}],"stateMutability":"view","type":"function"},{"inputs":[],"name":"drawDailyWinners","outputs":[],"stateMutability":"nonpayable","type":"function"},{"inputs":[],"name":"drawWeeklyWinners","outputs":[],"stateMutability":"nonpayable","type":"function"},{"inputs":[{"internalType":"bool","name":"pause","type":"bool"}],"name":"emergencyPause","outputs":[],"stateMutability":"nonpayable","type":"function"},{"inputs":[{"internalType":"uint256","name":"gameId","type":"uint256"}],"name":"emergencyUnlockGame","outputs":[],"stateMutability":"nonpayable","type":"function"},{"inputs":[],"name":"emergencyWithdraw","outputs":[],"stateMutability":"nonpayable","type":"function"},{"inputs":[{"internalType":"string","name":"referralCode","type":"string"}],"name":"enterDailyGame","outputs":[],"stateMutability":"nonpayable","type":"function"},{"inputs":[{"internalType":"uint256","name":"","type":"uint256"}],"name":"entropyContributions","outputs":[{"internalType":"uint256","name":"","type":"uint256"}],"stateMutability":"view","type":"function"},{"inputs":[{"internalType":"uint256","name":"","type":"uint256"},{"internalType":"uint256","name":"","type":"uint256"}],"name":"entropyContributors","outputs":[{"internalType":"address","name":"","type":"address"}],"stateMutability":"view","type":"function"},{"inputs":[],"name":"entropyRoundId","outputs":[{"internalType":"uint256","name":"","type":"uint256"}],"stateMutability":"view","type":"function"},{"inputs":[{"internalType":"uint256","name":"","type":"uint256"}],"name":"gameStateLocked","outputs":[{"internalType":"bool","name":"","type":"bool"}],"stateMutability":"view","type":"function"},{"inputs":[{"internalType":"uint256","name":"","type":"uint256"}],"name":"games","outputs":[{"internalType":"uint256","name":"gameId","type":"uint256"},{"internalType":"uint256","name":"startTime","type":"uint256"},{"internalType":"uint256","name":"endTime","type":"uint256"},{"internalType":"uint256","name":"totalEntries","type":"uint256"},{"internalType":"uint256","name":"jackpotAmount","type":"uint256"},{"internalType":"bool","name":"isCompleted","type":"bool"},{"internalType":"uint256","name":"randomnessRoundId","type":"uint256"}],"stateMutability":"view","type":"function"},{"inputs":[],"name":"gasOptimizationThreshold","outputs":[{"internalType":"uint256","name":"","type":"uint256"}],"stateMutability":"view","type":"function"},{"inputs":[],"name":"generateSecureRandomness","outputs":[{"internalType":"uint256","name":"","type":"uint256"}],"stateMutability":"nonpayable","type":"function"},{"inputs":[],"name":"getCurrentEntryFee","outputs":[{"internalType":"uint256","name":"","type":"uint256"}],"stateMutability":"view","type":"function"},{"inputs":[],"name":"getCurrentGame","outputs":[{"components":[{"internalType":"uint256","name":"gameId","type":"uint256"},{"internalType":"uint256","name":"startTime","type":"uint256"},{"internalType":"uint256","name":"endTime","type":"uint256"},{"internalType":"uint256","name":"totalEntries","type":"uint256"},{"internalType":"uint256","name":"jackpotAmount","type":"uint256"},{"internalType":"address[]","name":"winners","type":"address[]"},{"internalType":"bool","name":"isCompleted","type":"bool"},{"internalType":"uint256","name":"randomnessRoundId","type":"uint256"}],"internalType":"struct PizzaParty.Game","name":"","type":"tuple"}],"stateMutability":"view","type":"function"},{"inputs":[],"name":"getCurrentVMFPrice","outputs":[{"internalType":"uint256","name":"","type":"uint256"}],"stateMutability":"view","type":"function"},{"inputs":[{"internalType":"uint256","name":"gameId","type":"uint256"}],"name":"getGame","outputs":[{"components":[{"internalType":"uint256","name":"gameId","type":"uint256"},{"internalType":"uint256","name":"startTime","type":"uint256"},{"internalType":"uint256","name":"endTime","type":"uint256"},{"internalType":"uint256","name":"totalEntries","type":"uint256"},{"internalType":"uint256","name":"jackpotAmount","type":"uint256"},{"internalType":"address[]","name":"winners","type":"address[]"},{"internalType":"bool","name":"isCompleted","type":"bool"},{"internalType":"uint256","name":"randomnessRoundId","type":"uint256"}],"internalType":"struct PizzaParty.Game","name":"","type":"tuple"}],"stateMutability":"view","type":"function"},{"inputs":[],"name":"getGasUsageStats","outputs":[{"internalType":"uint256","name":"threshold","type":"uint256"},{"internalType":"uint256","name":"lastOptimization","type":"uint256"},{"internalType":"uint256","name":"batchNonce","type":"uint256"}],"stateMutability":"view","type":"function"},{"inputs":[{"internalType":"uint256","name":"gameId","type":"uint256"}],"name":"getJackpotState","outputs":[{"internalType":"uint256","name":"amount","type":"uint256"},{"internalType":"bytes32","name":"stateHash","type":"bytes32"},{"internalType":"uint256","name":"nonce","type":"uint256"}],"stateMutability":"view","type":"function"},{"inputs":[{"internalType":"address","name":"player","type":"address"}],"name":"getPlayerInfo","outputs":[{"components":[{"internalType":"uint256","name":"totalToppings","type":"uint256"},{"internalType":"uint256","name":"dailyEntries","type":"uint256"},{"internalType":"uint256","name":"weeklyEntries","type":"uint256"},{"internalType":"uint256","name":"lastEntryTime","type":"uint256"},{"internalType":"uint256","name":"streakDays","type":"uint256"},{"internalType":"uint256","name":"lastStreakUpdate","type":"uint256"},{"internalType":"bool","name":"isBlacklisted","type":"bool"},{"internalType":"uint256","name":"lastVMFHoldingsCheck","type":"uint256"},{"internalType":"uint256","name":"loyaltyPoints","type":"uint256"},{"internalType":"uint256","name":"totalOrders","type":"uint256"},{"internalType":"uint256","name":"weeklyChallengesCompleted","type":"uint256"},{"internalType":"uint256","name":"jackpotEntries","type":"uint256"},{"internalType":"uint256","name":"lastRewardClaim","type":"uint256"},{"internalType":"bool","name":"hasCompletedFirstOrder","type":"bool"},{"internalType":"uint256","name":"dailyRewardsClaimed","type":"uint256"},{"internalType":"uint256","name":"lastSecurityCheck","type":"uint256"},{"internalType":"bool","name":"isRateLimited","type":"bool"}],"internalType":"struct PizzaParty.Player","name":"","type":"tuple"}],"stateMutability":"view","type":"function"},{"inputs":[{"internalType":"address","name":"player","type":"address"}],"name":"getReferralInfo","outputs":[{"components":[{"internalType":"address","name":"referrer","type":"address"},{"internalType":"uint256","name":"totalReferrals","type":"uint256"},{"internalType":"uint256","name":"totalRewards","type":"uint256"},{"internalType":"bool","name":"isActive","type":"bool"}],"internalType":"struct PizzaParty.Referral","name":"","type":"tuple"}],"stateMutability":"view","type":"function"},{"inputs":[{"internalType":"bytes32","name":"role","type":"bytes32"},{"internalType":"address","name":"account","type":"address"}],"name":"grantRole","outputs":[],"stateMutability":"nonpayable","type":"function"},{"inputs":[{"internalType":"address","name":"player","type":"address"}],"name":"hasEnteredToday","outputs":[{"internalType":"bool","name":"","type":"bool"}],"stateMutability":"view","type":"function"},{"inputs":[{"internalType":"bytes32","name":"role","type":"bytes32"},{"internalType":"address","name":"account","type":"address"}],"name":"hasRole","outputs":[{"internalType":"bool","name":"","type":"bool"}],"stateMutability":"view","type":"function"},{"inputs":[{"internalType":"uint256","name":"","type":"uint256"}],"name":"jackpotStateHash","outputs":[{"internalType":"bytes32","name":"","type":"bytes32"}],"stateMutability":"view","type":"function"},{"inputs":[],"name":"jackpotUpdateCooldown","outputs":[{"internalType":"uint256","name":"","type":"uint256"}],"stateMutability":"view","type":"function"},{"inputs":[{"internalType":"uint256","name":"","type":"uint256"}],"name":"jackpotUpdateNonce","outputs":[{"internalType":"uint256","name":"","type":"uint256"}],"stateMutability":"view","type":"function"},{"inputs":[],"name":"lastDailyDraw","outputs":[{"internalType":"uint256","name":"","type":"uint256"}],"stateMutability":"view","type":"function"},{"inputs":[],"name":"lastEntropyUpdate","outputs":[{"internalType":"uint256","name":"","type":"uint256"}],"stateMutability":"view","type":"function"},{"inputs":[],"name":"lastGasOptimization","outputs":[{"internalType":"uint256","name":"","type":"uint256"}],"stateMutability":"view","type":"function"},{"inputs":[],"name":"lastJackpotUpdate","outputs":[{"internalType":"uint256","name":"","type":"uint256"}],"stateMutability":"view","type":"function"},{"inputs":[],"name":"lastWeeklyDraw","outputs":[{"internalType":"uint256","name":"","type":"uint256"}],"stateMutability":"view","type":"function"},{"inputs":[],"name":"optimizeGasUsage","outputs":[],"stateMutability":"nonpayable","type":"function"},{"inputs":[],"name":"owner","outputs":[{"internalType":"address","name":"","type":"address"}],"stateMutability":"view","type":"function"},{"inputs":[],"name":"paused","outputs":[{"internalType":"bool","name":"","type":"bool"}],"stateMutability":"view","type":"function"},{"inputs":[{"internalType":"address","name":"","type":"address"}],"name":"players","outputs":[{"internalType":"uint256","name":"totalToppings","type":"uint256"},{"internalType":"uint256","name":"dailyEntries","type":"uint256"},{"internalType":"uint256","name":"weeklyEntries","type":"uint256"},{"internalType":"uint256","name":"lastEntryTime","type":"uint256"},{"internalType":"uint256","name":"streakDays","type":"uint256"},{"internalType":"uint256","name":"lastStreakUpdate","type":"uint256"},{"internalType":"bool","name":"isBlacklisted","type":"bool"},{"internalType":"uint256","name":"lastVMFHoldingsCheck","type":"uint256"},{"internalType":"uint256","name":"loyaltyPoints","type":"uint256"},{"internalType":"uint256","name":"totalOrders","type":"uint256"},{"internalType":"uint256","name":"weeklyChallengesCompleted","type":"uint256"},{"internalType":"uint256","name":"jackpotEntries","type":"uint256"},{"internalType":"uint256","name":"lastRewardClaim","type":"uint256"},{"internalType":"bool","name":"hasCompletedFirstOrder","type":"bool"},{"internalType":"uint256","name":"dailyRewardsClaimed","type":"uint256"},{"internalType":"uint256","name":"lastSecurityCheck","type":"uint256"},{"internalType":"bool","name":"isRateLimited","type":"bool"}],"stateMutability":"view","type":"function"},{"inputs":[],"name":"priceOracle","outputs":[{"internalType":"contract FreePriceOracle","name":"","type":"address"}],"stateMutability":"view","type":"function"},{"inputs":[{"internalType":"address[]","name":"players","type":"address[]"},{"internalType":"uint256[]","name":"amounts","type":"uint256[]"}],"name":"processBatchPlayers","outputs":[],"stateMutability":"nonpayable","type":"function"},{"inputs":[],"name":"randomnessContract","outputs":[{"internalType":"contract FreeRandomness","name":"","type":"address"}],"stateMutability":"view","type":"function"},{"inputs":[{"internalType":"uint256","name":"","type":"uint256"}],"name":"randomnessSeeds","outputs":[{"internalType":"bytes32","name":"","type":"bytes32"}],"stateMutability":"view","type":"function"},{"inputs":[{"internalType":"string","name":"","type":"string"}],"name":"referralCodes","outputs":[{"internalType":"address","name":"","type":"address"}],"stateMutability":"view","type":"function"},{"inputs":[{"internalType":"address","name":"","type":"address"}],"name":"referrals","outputs":[{"internalType":"address","name":"referrer","type":"address"},{"internalType":"uint256","name":"totalReferrals","type":"uint256"},{"internalType":"uint256","name":"totalRewards","type":"uint256"},{"internalType":"bool","name":"isActive","type":"bool"}],"stateMutability":"view","type":"function"},{"inputs":[],"name":"renounceOwnership","outputs":[],"stateMutability":"nonpayable","type":"function"},{"inputs":[],"name":"requestDailyRandomness","outputs":[],"stateMutability":"nonpayable","type":"function"},{"inputs":[{"internalType":"uint256","name":"roundId","type":"uint256"},{"internalType":"uint256","name":"randomValue","type":"uint256"},{"internalType":"bytes32","name":"salt","type":"bytes32"}],"name":"revealRandomness","outputs":[],"stateMutability":"nonpayable","type":"function"},{"inputs":[{"internalType":"bytes32","name":"role","type":"bytes32"},{"internalType":"address","name":"account","type":"address"}],"name":"revokeRole","outputs":[],"stateMutability":"nonpayable","type":"function"},{"inputs":[{"internalType":"bytes32","name":"","type":"bytes32"}],"name":"roleAdmins","outputs":[{"internalType":"address","name":"","type":"address"}],"stateMutability":"view","type":"function"},{"inputs":[{"internalType":"bytes32","name":"","type":"bytes32"},{"internalType":"address","name":"","type":"address"}],"name":"roles","outputs":[{"internalType":"bool","name":"","type":"bool"}],"stateMutability":"view","type":"function"},{"inputs":[],"name":"selectDailyWinners","outputs":[],"stateMutability":"nonpayable","type":"function"},{"inputs":[{"internalType":"uint256","name":"cooldown","type":"uint256"}],"name":"setJackpotUpdateCooldown","outputs":[],"stateMutability":"nonpayable","type":"function"},{"inputs":[{"internalType":"address","name":"player","type":"address"},{"internalType":"bool","name":"blacklisted","type":"bool"}],"name":"setPlayerBlacklist","outputs":[],"stateMutability":"nonpayable","type":"function"},{"inputs":[{"internalType":"bytes32","name":"role","type":"bytes32"},{"internalType":"address","name":"admin","type":"address"}],"name":"setRoleAdmin","outputs":[],"stateMutability":"nonpayable","type":"function"},{"inputs":[{"internalType":"uint256","name":"roundId","type":"uint256"},{"internalType":"bytes32","name":"commitment","type":"bytes32"}],"name":"submitRandomnessCommitment","outputs":[],"stateMutability":"nonpayable","type":"function"},{"inputs":[{"internalType":"address","name":"newOwner","type":"address"}],"name":"transferOwnership","outputs":[],"stateMutability":"nonpayable","type":"function"},{"inputs":[{"internalType":"uint256","name":"gameId","type":"uint256"},{"internalType":"uint256","name":"newAmount","type":"uint256"},{"internalType":"bytes32","name":"expectedStateHash","type":"bytes32"}],"name":"updateJackpotAtomic","outputs":[],"stateMutability":"nonpayable","type":"function"},{"inputs":[{"internalType":"address","name":"","type":"address"}],"name":"userDailyRewards","outputs":[{"internalType":"uint256","name":"","type":"uint256"}],"stateMutability":"view","type":"function"},{"inputs":[{"internalType":"address","name":"","type":"address"}],"name":"userLastActivity","outputs":[{"internalType":"uint256","name":"","type":"uint256"}],"stateMutability":"view","type":"function"},{"inputs":[{"internalType":"address","name":"","type":"address"}],"name":"userRateLimitEnd","outputs":[{"internalType":"uint256","name":"","type":"uint256"}],"stateMutability":"view","type":"function"},{"inputs":[],"name":"vmfToken","outputs":[{"internalType":"contract IERC20","name":"","type":"address"}],"stateMutability":"view","type":"function"},{"inputs":[{"internalType":"uint256","name":"","type":"uint256"}],"name":"weeklyChallenges","outputs":[{"internalType":"uint256","name":"challengeId","type":"uint256"},{"internalType":"string","name":"challengeName","type":"string"},{"internalType":"uint256","name":"rewardAmount","type":"uint256"},{"internalType":"uint256","name":"completionRequirement","type":"uint256"},{"internalType":"bool","name":"isActive","type":"bool"}],"stateMutability":"view","type":"function"},{"inputs":[{"internalType":"uint256","name":"","type":"uint256"}],"name":"weeklyPlayerCount","outputs":[{"internalType":"uint256","name":"","type":"uint256"}],"stateMutability":"view","type":"function"},{"inputs":[{"internalType":"uint256","name":"","type":"uint256"},{"internalType":"uint256","name":"","type":"uint256"}],"name":"weeklyPlayers","outputs":[{"internalType":"address","name":"","type":"address"}],"stateMutability":"view","type":"function"}],"evm":{"bytecode":{"linkReferences":{},"object":"60a034620005b757601f6200678338819003918201601f191683019291906001600160401b03841183851017620005bc578160609284926040968752833981010312620005b7576200005181620005d2565b906200006d836200006560208401620005d2565b9201620005d2565b600160005533156200059f5760018054336001600160a01b0319808316821790935586519295929492916001600160a01b03167f8be0079c531659141344cd1fd0a4f28419497f9722a3daafe3b4186f6b6457e0600080a36001600160a01b03169283156200055d57506001600160a01b03169081156200050d576001600160a01b0316918215620004c9576080528260025416176002558160035416176003557fa49807205ce4d355092ef5a8a18f56e8913cf4a201fbe287825b095693c21775806000526018602052826000203360005260205282600020600160ff198254161790557f97667070c54ef182b0f5858b034beac1b6f3089aa2d3188bb1e8929f4fa9b929806000526018602052836000203360005260205283600020600160ff198254161790557fbf233dd2aafeb4d50879c4aa5c81e96d92f6e6945c906a58f9f2d1c1631b4b2690816000526018602052846000203360005260205284600020600160ff198254161790557f59a1c48e5837ad7a7f3dcedcbe129bf3249ec4fbf651fd4f5e2600ead39fe2f593846000526018602052856000203360005260205285600020600160ff19825416179055836000526019602052856000203382825416179055816000528560002033828254161790558260005285600020338282541617905584600052856000209033908254161790557f2f8788117e7eff1d82e926ec794901d17c78024a50270940304540a733656f0d923390339085600080a43390339084600080a43390339083600080a433913391600080a4600460028155620151804201804211620004b4578251602081016001600160401b038111828210176200049f5784526000815283519161010083016001600160401b038111848210176200048a5785526002835242602084015284830152600060608301526000608083015260a0820152600060c0820152600060e08201526002600052601d60205282600020918151835560208201516001840155838201516002840155606082015160038401556080820151818401556005830160a083015180519260018060401b0384116200047557680100000000000000008411620004755750815483835580841062000449575b5060200190600052602060002060005b8381106200042b578686600760e0886006840160c0820151151560ff801983541691161790550151910155426007555161619b9081620005e8823960805181818161072701528181610ff00152818161168201528181611dd8015281816121db01528181612955015281816136cf01528181613a370152614a280152f35b82516001600160a01b031681830155602090920191600101620003ad565b8260005283602060002091820191015b8181106200046857506200039d565b6000815560010162000459565b604190634e487b7160e01b6000525260246000fd5b604185634e487b7160e01b6000525260246000fd5b604184634e487b7160e01b6000525260246000fd5b601182634e487b7160e01b6000525260246000fd5b845162461bcd60e51b815260206004820152601c60248201527f496e76616c6964207072696365206f7261636c652061646472657373000000006044820152606490fd5b845162461bcd60e51b815260206004820152602360248201527f496e76616c69642072616e646f6d6e65737320636f6e7472616374206164647260448201526265737360e81b6064820152608490fd5b62461bcd60e51b815260206004820152601960248201527f496e76616c696420564d4620746f6b656e2061646472657373000000000000006044820152606490fd5b8351631e4fbdf760e01b815260006004820152602490fd5b600080fd5b634e487b7160e01b600052604160045260246000fd5b51906001600160a01b0382168203620005b75756fe60e080604052600436101561001357600080fd5b600090813560e01c90816303fa2c6314614d7757508063098655d914614d5a5780630aa0169514614d0b5780630b00a5db14614c465780630c89d12714614c145780630d9f92ca1461051c578063117a5b9014614ba35780631472cbe314614a9157806316fa108614614a7557806319bf155d14614a575780632086eefa14614a1257806320df4359146149d757806321874ae21461492d57806325b7f3881461470f5780632618cafd146144605780632630c12f146144375780632655e840146143f057806328100aca146143d25780632a243f19146143a35780632e108d1c146141365780632ee8b778146141185780632f2ff15d1461406d5780632ff7a52d1461403557806339d8ea42146112b65780633a65126a14613c505780633bb4f63814613c325780633f78141214613bee5780633fb83a541461396657806341fe39ec1461393d57806343f2a0801461389d57806349faa4d41461051c5780634b75344e146115205780634eb692a51461386b5780634f55e8ad146137e757806352861f7f146135e657806359328401146133bd57806359a9867e1461324957806359db6fe61461322b5780635c27b2e4146127ae5780635c975abb1461278857806367cafabb1461275e57806369396e88146127425780636ce497b2146126a05780636e1d616e14612665578063715018a61461260857806371e4206d146123c457806374631fd71461216b5780637550b84f1461214d5780637568e8261461202057806375b238fc1461211257806377ce2992146120d9578063786a78c61461204f57806379675127146120255780637a7eb1f41461202057806384a3a0f3146120205780638543210d14611fed5780638da5cb5b14611fc457806390e4068714611d0657806391d1485414611ca1578063920736e514611c56578063968d901b14611b9857806396f277b714611b935780639b95f1fc14611b935780639ca423b314611b2e578063a04f6b4b14611b11578063a154fc6b14611aa1578063a2f77bcc146119c0578063a37c157214611991578063a88066f714611996578063a9b8b45114611991578063ad7631921461191c578063aea664a5146118d4578063b87fc22d146115fd578063b8caead6146115df578063ba53ba2414611590578063bb6bf0f014611572578063bbc3ced71461051c578063bcf6447514610b01578063bf75762414611543578063c14e1e0514611525578063c5d3215714611520578063cb955e6b146112e5578063cf376677146112bb578063d136a94d146112b6578063d21117911461128c578063d547741f146111e2578063d5749d42146111a3578063d61b86bb14611179578063da9bbe1114611156578063db2e21bc14610fb7578063dd23b9cb14610f9b578063e22cb9c914610cd5578063e2eb41ff14610ba6578063e3505b1414610b24578063e3d440a714610b06578063e443e27914610b01578063e82aefc714610a4f578063e8f6940e14610928578063eb0fb2c8146105f3578063ee892e64146105d5578063f2fde38b1461054a578063f5b541a614610521578063f8172fe31461051c578063f8fc08b9146104d05763ffc39504146104a457600080fd5b346104cd5760203660031901126104cd5760406020916004358152600b83522054604051908152f35b80fd5b50346104cd5760403660031901126104cd5760406104ec614dc3565b9160043581526018602052209060018060a01b0316600052602052602060ff604060002054166040519015158152f35b614e1d565b50346104cd57806003193601126104cd5760206040516000805160206161268339815191528152f35b50346104cd5760203660031901126104cd57610564614dad565b61056c61564a565b6001600160a01b039081169081156105bc57600154826001600160601b0360a01b821617600155167f8be0079c531659141344cd1fd0a4f28419497f9722a3daafe3b4186f6b6457e0600080a380f35b604051631e4fbdf760e01b815260048101849052602490fd5b50346104cd57806003193601126104cd576020602554604051908152f35b50346104cd57806003193601126104cd576000805160206161268339815191528152602090601882526040812033600052825260ff604060002054168015610914575b61063f9061541d565b610647615676565b600954156108cf576000194301914383116108bb5760129160125493604051838101904282524460408201526060924060608201526080963360601b608083015260948201526094815261069a81614f06565b519020936106aa85600454615d9b565b60055460031c90845b815181101561082d576001600160a01b03806106cf83856154c7565b51166106df575b506001016106b3565b6107218885836106ef86886154c7565b5160405163a9059cbb60e01b815291166001600160a01b03166004820152602481019190915291829081906044820190565b03818b867f0000000000000000000000000000000000000000000000000000000000000000165af190811561082257906107629189916107f5575b506155c3565b8061076d83856154c7565b51168752601a885260408720908154600a928382018092116107e1576001949392600080516020616146833981519152928e92556107ab85886154c7565b51169260405190815260408c820152886040820152714461696c792077696e6e657220626f6e757360701b8a820152a2906106d6565b634e487b7160e01b8a52601160045260248afd5b61081591508a3d8c1161081b575b61080d8183614f3d565b8101906154fb565b3861075c565b503d610803565b6040513d8a823e3d90fd5b857f9f22d2b65d1e9bef93da4067644e4ead3bd41c9d3fc8568887cc572b482e6cb7888a6108ad86600454927fdd1c72fcda97fcfc2fe124c4aa194986caca752d3769c00a6495659509d7b19b61088e600554604051918291868984615594565b0390a16040519485948552840152606060408401526060830190615557565b0390a16108b861596b565b80f35b634e487b7160e01b82526011600452602482fd5b60405162461bcd60e51b815260048101839052601d60248201527f4e6f2072616e646f6d6e65737320726f756e64207265717565737465640000006044820152606490fd5b506001546001600160a01b03163314610636565b50346104cd5760203660031901126104cd5760043580151590818103610a4a5761095061564a565b156109ca5760207fb80d1ae5628c2af91424c54c87acfd15016be4bebeef0425b328238702f3483191610981615676565b6001805460ff60a01b1916600160a01b1790556040513381527f62e78cea01bee320cd4e420270b5ea74000d11b0c9f74754ebdbfc544b05a258908390a15b604051908152a180f35b60015460ff8160a01c1615610a385760ff60a01b19166001556040513381527fb80d1ae5628c2af91424c54c87acfd15016be4bebeef0425b328238702f34831916020917f5db9ee0a495bf2e6ff9c91a7834c1ba4fdd244a5e8aa4e537bd38aeae4b073aa908390a16109c0565b604051638dfc202b60e01b8152600490fd5b600080fd5b50346104cd5760203660031901126104cd576004357fbf233dd2aafeb4d50879c4aa5c81e96d92f6e6945c906a58f9f2d1c1631b4b2682526018602052604082203360005260205260ff604060002054168015610aed575b610ab09061541d565b808252601360205260408220805460ff1916905533907f6d01469f672cd6cb0434a128cac9b91dc60a83e67a56be9fb5f265c18d29c7c58380a380f35b506001546001600160a01b03163314610aa7565b615243565b50346104cd57806003193601126104cd576020600554604051908152f35b50346104cd5760403660031901126104cd57610b3e615676565b60025481906001600160a01b0316803b15610ba3578180916044604051809481936339a8f67760e21b8352600435600484015260243560248401525af18015610b9857610b885750f35b610b9190614ea2565b6104cd5780f35b6040513d84823e3d90fd5b50fd5b50346104cd5760203660031901126104cd576001600160a01b03610bc8614dad565b168152601a6020526040902080808054600182015460c0526002820154600383015460048401546005850154600686015460ff16600787015490600888015492600989015494600a8a015496600b8b015498600c8c01549a600d8d015460ff169c600e01549d600f01549e6010015460ff1660805260405160a05260a0515260c05160a0516020015260a0516040015260a0516060015260a0516080015260a05160a00152151560a05160c0015260a05160e0015260a051610100015260a051610120015260a051610140015260a051610160015260a0516101800152151560a0516101a0015260a0516101c0015260a0516101e00152608051151560a051610200015260a05161022090f35b50346104cd57806003193601126104cd57610cee6156f4565b610cf6615676565b3381526020601e8152610d1060ff604084205416156152a7565b338252601a808252610d2c60ff600660408620015416156152a7565b338352808252600c604084200154620151808101809111610e9757610d53904210156152eb565b338352808252610d6c6064600e60408620015410615337565b33835280825260ff600d60408520015416610f4b573383528082526001600960408520015410610f06573360005281805260406000205460058101809111610eab5760648111610ec15733600052828052604060002055808252600e6040600020015460058101809111610eab5733600052818352600e6040600020015533835280825260408320600d8101600160ff19825416179055549060058201809211610e9757338452825260408320908155600c42910155604051600581527f666ff46b6b5a0789c7d628ecfa8a5975b192b7d3541fc30b22da07a9b3d4ddbc823392a26040805191600583528201526012604082015271119a5c9cdd081bdc99195c881c995dd85c9960721b606082015260008051602061614683398151915260803392a26001815580f35b634e487b7160e01b84526011600452602484fd5b634e487b7160e01b600052601160045260246000fd5b60405162461bcd60e51b815260048101849052601b60248201527f4461696c7920726577617264206c696d697420657863656564656400000000006044820152606490fd5b60405162461bcd60e51b815260048101839052601860248201527f4e6f206669727374206f7264657220636f6d706c6574656400000000000000006044820152606490fd5b60405162461bcd60e51b815260048101839052602260248201527f4669727374206f726465722072657761726420616c726561647920636c61696d604482015261195960f21b6064820152608490fd5b50346104cd57806003193601126104cd57602060405160018152f35b50346104cd57806003193601126104cd57610fd061564a565b6040516370a0823160e01b81523060048201526020906001600160a01b037f00000000000000000000000000000000000000000000000000000000000000008116908383602481855afa92831561114b57859361111c575b5082156110de5760015460405163a9059cbb60e01b815291166001600160a01b031660048201526024810192909252829082908186816044810103925af19081156110d35783916110b6575b501561107e575080f35b6064906040519062461bcd60e51b82526004820152601160248201527015da5d1a191c985dd85b0819985a5b1959607a1b6044820152fd5b6110cd9150823d841161081b5761080d8183614f3d565b38611074565b6040513d85823e3d90fd5b60405162461bcd60e51b81526004810185905260166024820152754e6f2062616c616e636520746f20776974686472617760501b6044820152606490fd5b9092508381813d8311611144575b6111348183614f3d565b81010312610a4a57519138611028565b503d61112a565b6040513d87823e3d90fd5b50346104cd57806003193601126104cd576020604051678ac7230489e800008152f35b50346104cd5760203660031901126104cd5760406020916004358152600d83522054604051908152f35b50346104cd5760203660031901126104cd5760209060ff906040906001600160a01b036111ce614dad565b168152601e84522054166040519015158152f35b50346104cd5760403660031901126104cd576004356111ff614dc3565b818352601960205260408320546001600160a01b03919082163314801561127f575b61122a90615383565b166112368115156153df565b81835260186020526040832081600052602052604060002060ff19815416905533917ff6391f5c32d9c69d2a47ea670b442974b53935d1edc7fd64eb21e047a839171b8480a480f35b5060015482163314611221565b50346104cd5760203660031901126104cd5760406020916004358152601483522054604051908152f35b615004565b50346104cd5760203660031901126104cd5760406020916004358152600f83522054604051908152f35b50346104cd57806003193601126104cd576112fe615676565b60118054610e10810180911161150c5742106114c7576000194301914383116114b55760011943014381116114a2576012549360018060a01b036002541691604051809363c142e49560e01b825281600460209687935afa90811561114b578591611475575b5060405190848201924284524460408401526060944060608401524060808301523360601b60a08301528760b483015260d482015260d481526113a681614e86565b51902083905b8682526010845260408220805486101561140857906113cd86600193614def565b905490604051918783019384526001600160601b03199160031b1c861b166040820152603481526113fd81614eeb565b5190209401936113ac565b50915084868252600e84528260408320554281556012549160018301918284116114625750506012557f716aeb9158d0411549d0ea0300d76e79332e89ec7eb7b7c475efa863e7b9d00f83604051848152a2604051908152f35b634e487b7160e01b825260045260249150fd5b90508381813d831161149b575b61148c8183614f3d565b81010312610a4a575138611364565b503d611482565b50602491634e487b7160e01b8252600452fd5b602491634e487b7160e01b8252600452fd5b60405162461bcd60e51b815260206004820152601b60248201527f456e74726f70792075706461746520746f6f206672657175656e7400000000006044820152606490fd5b634e487b7160e01b83526004829052602483fd5b615037565b50346104cd57806003193601126104cd576020600854604051908152f35b50346104cd5760203660031901126104cd5760ff60406020926004358152602484522054166040519015158152f35b50346104cd57806003193601126104cd576020600954604051908152f35b50346104cd5760203660031901126104cd57602090600360406115b1614dad565b926115c1620151804206426155b6565b6001600160a01b039094168152601a85522001546040519111158152f35b50346104cd57806003193601126104cd576020601754604051908152f35b50346104cd57806003193601126104cd576116166156f4565b61161e615676565b3381526020601e815261163860ff604084205416156152a7565b338252601a815261165360ff600660408520015416156152a7565b338252601a81526064600b6040842001541015611890576040516370a0823160e01b81523360048201529060247f00000000000000000000000000000000000000000000000000000000000000006001600160a01b031682848381845afa93841561114b578594611861575b50670de0b6b3a764000080941061180a578285916064604051809481936323b872dd60e01b835233600484015230888401528960448401525af190811561114b5785916117ed575b50156117aa57338452601a8252600b6040852001546001810180911161179757338552601a8352600b60408620015560065490671bc16d674ec8000082018092116117835750907f6a85014765ce1728a69f3d14127cc749d140ba142c380ef69ca533189dbfa360916006556040519283523392a26001815580f35b634e487b7160e01b60009081526011600452fd5b50634e487b7160e01b8452601160045283fd5b90601d6064926040519262461bcd60e51b845260048401528201527f4a61636b706f7420656e747279207472616e73666572206661696c65640000006044820152fd5b6118049150833d851161081b5761080d8183614f3d565b38611707565b60405162461bcd60e51b815260048101849052602a818401527f496e73756666696369656e7420564d462062616c616e636520666f72206a61636044820152696b706f7420656e74727960b01b6064820152608490fd5b9093508281813d8311611889575b6118798183614f3d565b81010312610a4a575192386116bf565b503d61186f565b6064906040519062461bcd60e51b82526004820152601b60248201527f4d6178206a61636b706f7420656e7472696573207265616368656400000000006044820152fd5b50346104cd57806003193601126104cd5760255461191860406026549343815260236020522054604051938493846040919493926060820195825260208201520152565b0390f35b50346104cd5760403660031901126104cd57600435611939614dc3565b9061194261564a565b80835260196020526040832080546001600160a01b0319166001600160a01b0390931692831790557fca1453e2085a936ea52e0049e559e235e08fe8678e165a7eb63f4568098706ad8380a380f35b615226565b50346104cd5760203660031901126104cd5760406020916004358152600e83522054604051908152f35b50346104cd57602090816003193601126104cd576119dc615601565b506004358152601d82526040812091604051916119f883614e86565b8354835260019060018501548385015260028501546040850152600385015460608501526004850154608085015260058501916040518094808554928381520194845280842093905b828210611a83576119188860078b8a611a5c818c0382614f3d565b60a084015260ff600682015416151560c0840152015460e082015260405191829182615172565b84546001600160a01b03168652948501949383019390830190611a41565b50346104cd5780611ab13661513c565b9291611abb615676565b6002546001600160a01b031690813b15611b0d5783606492604051968795869463a154fc6b60e01b86526004860152602485015260448401525af18015610b9857611b04575080f35b6108b890614ea2565b8380fd5b50346104cd57806003193601126104cd5760206040516103e88152f35b50346104cd5760203660031901126104cd576080906001600160a01b039060409082611b58614dad565b168152601c60205220908154169060018101549060ff6003600283015492015416916040519384526020840152604083015215156060820152f35b61520a565b50346104cd57806003193601126104cd57611bb1615601565b506004548152602090601d602052604081209160405191611bd183614e86565b8354835260019060018501546020850152600285015460408501526003850154606085015260048501546080850152600585019160405180946020855492838152019484526020842093905b828210611c38576119188860078b8a611a5c818c0382614f3d565b84546001600160a01b03168652948501949383019390830190611c1d565b50346104cd57611c6536614dd9565b91908152600c602052604081209081548310156104cd576020611c888484614def565b905460405160039290921b1c6001600160a01b03168152f35b50346104cd5760403660031901126104cd57602090611cbe614dc3565b60043582526018835260408083206001600160a01b0392831680855290855292205460ff1691908215611cf8575b50506040519015158152f35b600154161490503880611cec565b50346104cd57806003193601126104cd57611d1f6156f4565b611d27615676565b3381526020601e8152611d4160ff604084205416156152a7565b338252601a90818152611d5e60ff600660408620015416156152a7565b338352818152600c6040842001546201518090818101809111611fb057611d87904210156152eb565b338452828252611da06064600e60408720015410615337565b3384528282526007604085200154908101809111610e97574210611f74576040516370a0823160e01b815233600482015281816024817f00000000000000000000000000000000000000000000000000000000000000006001600160a01b03165afa908115611f69578491611f3c575b50678ac7230489e8000090818110611ef75704918260011b9280840460021490151715610e97578215611ebc5790604091611e4b8433615717565b338552808252611e5e848487205461529a565b903386528252828520908155426007820155600c4291015581519283528201526013604082015272159351881a1bdb191a5b99dcc81c995dd85c99606a1b606082015260008051602061614683398151915260803392a26001815580f35b60405162461bcd60e51b81526004810183905260136024820152724e6f2072657761726420617661696c61626c6560681b6044820152606490fd5b60405162461bcd60e51b815260048101849052601960248201527f496e73756666696369656e7420564d4620686f6c64696e6773000000000000006044820152606490fd5b90508181813d8311611f62575b611f538183614f3d565b81010312611b0d575138611e10565b503d611f49565b6040513d86823e3d90fd5b6064906040519062461bcd60e51b825260048201526015602482015274416c726561647920636865636b656420746f64617960581b6044820152fd5b634e487b7160e01b85526011600452602485fd5b50346104cd57806003193601126104cd576001546040516001600160a01b039091168152602090f35b50346104cd5760203660031901126104cd57602090600435815260198252604060018060a01b0391205416604051908152f35b615156565b50346104cd5760203660031901126104cd5760406020916004358152602383522054604051908152f35b50346104cd57806003193601126104cd57600354604051638f09c85760e01b815290602090829060049082906001600160a01b03165afa908115610b9857829161209f575b602082604051908152f35b90506020813d6020116120d1575b816120ba60209383614f3d565b810103126120cd57602091505138612094565b5080fd5b3d91506120ad565b50346104cd5760203660031901126104cd576020906040906001600160a01b03612101614dad565b168152602283522054604051908152f35b50346104cd57806003193601126104cd5760206040517fa49807205ce4d355092ef5a8a18f56e8913cf4a201fbe287825b095693c217758152f35b50346104cd57806003193601126104cd576020600754604051908152f35b50346104cd57806003193601126104cd576121846156f4565b61218c615676565b3381526020601e81526121a660ff604084205416156152a7565b338252601a81526121c160ff600660408520015416156152a7565b6040516370a0823160e01b815233600482015281816024817f00000000000000000000000000000000000000000000000000000000000000006001600160a01b03165afa9081156110d3578391612393575b50801561235d57670de0b6b3a7640000900490600a820291808304600a14901517156123495781156123055761271082116122c157604090338452601a8152612262836008848720015461529a565b338552601a8252600883862001558151928352820152600c60408201526b564d4620686f6c64696e677360a01b60608201527fa6064b0de95f7cda15129e7c36146c8accf65abb7a3639d800a445fa55023a1760803392a26001815580f35b6064906040519062461bcd60e51b82526004820152601760248201527f4c6f79616c747920706f696e747320746f6f20686967680000000000000000006044820152fd5b6064906040519062461bcd60e51b82526004820152601a60248201527f4e6f206c6f79616c747920706f696e747320746f2061776172640000000000006044820152fd5b634e487b7160e01b83526011600452602483fd5b60405162461bcd60e51b815260048101839052600e60248201526d4e6f20564d462062616c616e636560901b6044820152606490fd5b90508181813d83116123bd575b6123aa8183614f3d565b810103126123b9575138612213565b8280fd5b503d6123a0565b50346104cd576123d33661513c565b60008051602061612683398151915284526020906018825260408520338652825260ff60408620541680156125f4575b61240c9061541d565b612414615676565b8385526013825260ff6040862054166125b8576124366016546017549061529a565b421061257357838552601582526040852054036125395782845260138152604084209060ff199160018382541617905560055491836005556014825260408620546001810180911161252557916014917f42d4a2476a82a032f615547e73391179c379c1eb26fb0bd034f43131ae2bc15d9594938789528383528060408a2055604051838101918783526040820152426060820152606081526124d881614e39565b5190208789526015835260408920554260165560138252604088209081541690555261251f6040862054604051938493846040919493926060820195825260208201520152565b0390a280f35b634e487b7160e01b87526011600452602487fd5b6064906040519062461bcd60e51b8252600482015260136024820152720a6e8c2e8ca40d0c2e6d040dad2e6dac2e8c6d606b1b6044820152fd5b60405162461bcd60e51b815260048101839052601b60248201527f4a61636b706f742075706461746520746f6f206672657175656e7400000000006044820152606490fd5b60405162461bcd60e51b815260048101839052601460248201527311d85b59481cdd185d19481a5cc81b1bd8dad95960621b6044820152606490fd5b506001546001600160a01b03163314612403565b50346104cd57806003193601126104cd5761262161564a565b600180546001600160a01b0319811690915581906001600160a01b03167f8be0079c531659141344cd1fd0a4f28419497f9722a3daafe3b4186f6b6457e08280a380f35b50346104cd57806003193601126104cd5760206040517f59a1c48e5837ad7a7f3dcedcbe129bf3249ec4fbf651fd4f5e2600ead39fe2f58152f35b50346104cd5760203660031901126104cd577f37aa3048a2b523e3218796793d7c9283cbd45124c62254c97febfc129252429460206004357fa49807205ce4d355092ef5a8a18f56e8913cf4a201fbe287825b095693c2177584526018825260408420338552825260ff604085205416801561272e575b6127209061541d565b80601755604051908152a180f35b506001546001600160a01b03163314612717565b50346104cd57806003193601126104cd57602060405160058152f35b50346104cd5760203660031901126104cd5760406020916004358152601583522054604051908152f35b50346104cd57806003193601126104cd57602060ff60015460a01c166040519015158152f35b50346104cd576127bd36614f79565b6127c56156f4565b6127cd615676565b338252602090601e82526127e860ff604085205416156152a7565b338352601a9182815261280560ff600660408720015416156152a7565b33845282815260ff6010604086200154166131f0573384528281526003604085200154610e109081810180911161315e5742106131b557338552602182526040852054421061317257338552838252600f60408620015481810180911161315e574210613119573385526022825242604086205583825242600f604087200155600454156130e25761289633615ae7565b61309d57600354604051638f09c85760e01b80825295916001600160a01b03919082168582600481845afa918215612ce957899261306e575b50604051630d73ebb560e01b8152978689600481855afa988915613063578a99613030575b50869060046040518094819382525afa908115612ce9578991613003575b5080612fa7575b50604080519182526020820188905242908201527fd275f5de1f47f481706cbb99406816bcc17cd387167d5de15596c1a2fb47ad8690606090a17f00000000000000000000000000000000000000000000000000000000000000001694604051946370a0823160e01b8652336004870152602495858188818b5afa8015612ce95783918a91612f72575b5010612f2e57338852828552600196600a8860408b2001541015612eea578589916040516129d081614ed0565b838152938051158015612cf4575b50506064604051809481936323b872dd60e01b8352336004840152308d8401528860448401525af18015612ce957612a1c918a91612cd257506155c3565b33885282855286604089200154878101809111612cbf5733895283865260408920908882015542600382015554878101809111612cbf5733895283865260408920556004548852600a8552612a743360408a2061525f565b600454808952600b8652604089205490888201809211612cac578952600b86526040892055612aa58260055461529a565b6005558051612c65575b503387528380526040872054868101809111612c0e5760648111612c21573388528480526040882055818452600e604088200154868101809111612c0e57338852828552600e604089200155604051868152604085820152601160408201527011185a5b1e481c1b185e481c995dd85c99607a1b606082015260008051602061614683398151915260803392a2600454906040519081527f480a6daea81f2af589e1959da1f1719512392ec551e8966266ee820f1c1f72ea853392a37f404449b42e86f8716dd5ac141731fb164fe1f76d7e4039fdd16c7b3b48f96a4e6040600554600654825191825286820152a13386528252601060408620018460ff19825416179055420191824211612bfc57507f2f9a50b0843b7d2d827707c950209b525673c306d684446f6c4b1b748a4ed9ee90338552602181528260408620556040519283523392a2815580f35b634e487b7160e01b8552601160045284fd5b634e487b7160e01b885260116004528588fd5b60405162461bcd60e51b815260048101869052601b818801527f4461696c7920726577617264206c696d697420657863656564656400000000006044820152606490fd5b612c9e7f64274d45e838268efe3b4fa5586a29791f42c0f3f9a6422424c424401bf3958991604051918291604083526040830190615117565b33888301520390a138612aaf565b634e487b7160e01b8a526011600452878afd5b634e487b7160e01b895260116004528689fd5b6108159150873d891161081b5761080d8183614f3d565b6040513d8b823e3d90fd5b925093509150612eae576064825111612e7957612d118251615b45565b91888a91818c905b612e09575b5050508015612dc557612d3081615b45565b92898b5b838110612d9b5750505050612d4882615b88565b15612d575785899138806129de565b60405162461bcd60e51b815260048101879052601c818901527f496e76616c696420726566657272616c20636f646520666f726d6174000000006044820152606490fd5b6001600160f81b0319612dae8285615b77565b51168d1a612dbc8288615b77565b53018a90612d34565b60405162461bcd60e51b815260048101889052601c818a01527f4e6f2076616c6964206368617261637465727320696e20696e707574000000006044820152606490fd5b8151811015612e74576001600160f81b0319612e258284615b77565b51168d600160fd1b82101580612e66575b612e45575b5050820182612d19565b94612e5e918593961a612e58828a615b77565b53615802565b93908d612e3b565b50603f60f91b821115612e36565b612d1e565b60405162461bcd60e51b815260048101879052600e818901526d496e70757420746f6f206c6f6e6760901b6044820152606490fd5b60405162461bcd60e51b81526004810187905260158189015274496e7075742063616e6e6f7420626520656d70747960581b6044820152606490fd5b60405162461bcd60e51b8152600481018790526019818901527f4d6178206461696c7920656e74726965732072656163686564000000000000006044820152606490fd5b60405162461bcd60e51b8152600481018690526018818801527f496e73756666696369656e7420564d462062616c616e636500000000000000006044820152606490fd5b809250878092503d8311612fa0575b612f8b8183614f3d565b81010312612f9c57829051386129a3565b8880fd5b503d612f81565b612fb36032918361604e565b11612fbe5738612919565b60405162461bcd60e51b815260048101869052601860248201527f507269636520646576696174696f6e20746f6f206869676800000000000000006044820152606490fd5b90508581813d8311613029575b61301a8183614f3d565b81010312612f9c575138612912565b503d613010565b9098508681813d831161305c575b6130488183614f3d565b81010312613058575197866128f4565b8980fd5b503d61303e565b6040513d8c823e3d90fd5b9091508581813d8311613096575b6130868183614f3d565b81010312612f9c575190386128cf565b503d61307c565b60405162461bcd60e51b815260048101839052601c60248201527f537573706963696f7573206163746976697479206465746563746564000000006044820152606490fd5b60405162461bcd60e51b815260048101839052600f60248201526e125b9d985b1a590819d85b59481251608a1b6044820152606490fd5b60405162461bcd60e51b815260048101839052601b60248201527f536563757269747920636865636b20746f6f206672657175656e7400000000006044820152606490fd5b634e487b7160e01b86526011600452602486fd5b606482856040519162461bcd60e51b8352600483015260248201527f52617465206c696d697420636f6f6c646f776e206163746976650000000000006044820152fd5b60405162461bcd60e51b815260048101839052601360248201527214985d19481b1a5b5a5d08195e18d959591959606a1b6044820152606490fd5b6064906040519062461bcd60e51b825260048201526014602482015273155cd95c881a5cc81c985d19481b1a5b5a5d195960621b6044820152fd5b50346104cd57806003193601126104cd576020601254604051908152f35b50346104cd57806003193601126104cd577fa49807205ce4d355092ef5a8a18f56e8913cf4a201fbe287825b095693c2177581526020906018825260408120338252825260ff9160ff60408320541680156133a9575b6132a89061541d565b602654610e10810180911161234957421061336557815b6064811061331057504260265560255460018101809111612349577f1b9b06155f0da9bce83c4a8a54dcca59cdf479249ceb43679c0bd7fa67b2f1889181604092602555825191428352820152a180f35b80600191431180613348575b613327575b016132bf565b61333181436155b6565b84526024835260408420805460ff19169055613321565b5061335381436155b6565b8452602483528460408520541661331c565b6064906040519062461bcd60e51b82526004820152601960248201527f4f7074696d697a6174696f6e20746f6f206672657175656e74000000000000006044820152fd5b506001546001600160a01b0316331461329f565b50346104cd5760203660031901126104cd576040610220916133dd614dad565b8161020084516133ec81614e6a565b82815282602082015282868201528260608201528260808201528260a08201528260c08201528260e08201528261010082015282610120820152826101408201528261016082015282610180820152826101a0820152826101c0820152826101e0820152015260018060a01b03168152601a6020522061020060405161347181614e6a565b60ff601084549485845260018101546020850152600281015460408501526003810154606085015260048101546080850152600581015460a085015282600682015416151560c0850152600781015460e085015260088101546101008501526009810154610120850152600a810154610140850152600b810154610160850152600c81015461018085015282600d8201541615156101a0850152600e8101546101c0850152600f8101546101e08501520154161515828201526040519283526020810151602084015260408101516040840152606081015160608401526080810151608084015260a081015160a084015260c0810151151560c084015260e081015160e08401526101008101516101008401526101208101516101208401526101408101516101408401526101608101516101608401526101808101516101808401526101a081015115156101a08401526101c08101516101c08401526101e08101516101e084015201511515610200820152f35b50346104cd57806003193601126104cd576135ff61564a565b60085462093a8081018091116108bb5742106137aa5760405161016081018181106001600160401b0382111761379657604052600a808252602090610140366020850137835b818110613781575050600a60065404835b835181101561373b576001600160a01b039083838361367584896154c7565b5116613688575b50506001915001613656565b836136cb94613697858a6154c7565b51168960405180978195829463a9059cbb60e01b84526004840160209093929193604081019460018060a01b031681520152565b03927f0000000000000000000000000000000000000000000000000000000000000000165af19182156137305760019261370c918891613713575b50615513565b838361367c565b61372a9150863d881161081b5761080d8183614f3d565b38613706565b6040513d88823e3d90fd5b847f266eab4e9078d52ec3f1266d5b3619a11040584ef2997fdea8afa3c03fa559778560045461377360065460405193849384615594565b0390a1806006554260085580f35b808561378f600193876154c7565b5201613645565b634e487b7160e01b83526041600452602483fd5b60405162461bcd60e51b81526020600482015260156024820152745765656b6c792064726177206e6f7420726561647960581b6044820152606490fd5b50346104cd5760203660031901126104cd576040906004358152601f602052208054604051916138258361381e816001850161505a565b0384614f3d565b60028101549060ff600460038301549201541690613855604051958695865260a0602087015260a0860190615117565b9260408501526060840152151560808301520390f35b50346104cd5761387a36614dd9565b91908152600a602052604081209081548310156104cd576020611c888484614def565b50346104cd5760403660031901126104cd576138b7614dad565b6024359081151590818303611b0d577f7c6a5677e7a854a53d06c412e00ebe65535f5343566ca7939ac7c7f6b0b00c16916139336020926138f661564a565b6001600160a01b0316808752601e84526040808820805497151560ff1660ff199889168117909155601a8652908820600601805490971617909555565b604051908152a280f35b50346104cd57806003193601126104cd576002546040516001600160a01b039091168152602090f35b50346104cd57806003193601126104cd5761397f61564a565b60045481526020601d81526040822090600682019160ff835416613bb05760028101544210613b77576139b56003820154615811565b60055460031c91855b8251811015613a91576001600160a01b03908585836139dd84886154c7565b51166139f0575b505060019150016139be565b83613a33946139ff85896154c7565b51168b60405180978195829463a9059cbb60e01b84526004840160209093929193604081019460018060a01b031681520152565b03927f0000000000000000000000000000000000000000000000000000000000000000165af191821561082257600192613a73918a91613a7a5750615513565b85856139e4565b61372a9150883d8a1161081b5761080d8183614f3d565b8683838888600583018451916001600160401b038311613b6357600160401b8311613b63578154838355808410613b3e575b5080860191875280872090875b848110613b2357855460ff191660011786556005546004888101829055546040518b927fdd1c72fcda97fcfc2fe124c4aa194986caca752d3769c00a6495659509d7b19b9282916108ad918e9084615594565b83516001600160a01b03168382015592810192600101613ad0565b8288528382892091820191015b818110613b585750613ac3565b888155600101613b4b565b634e487b7160e01b87526041600452602487fd5b60405162461bcd60e51b815260048101839052601160248201527011d85b59481b9bdd08199a5b9a5cda1959607a1b6044820152606490fd5b60405162461bcd60e51b815260048101839052601660248201527511d85b5948185b1c9958591e4818dbdb5c1b195d195960521b6044820152606490fd5b50346104cd5760203660031901126104cd57606090600554906004358152601560205260408082205491601460205220549060405192835260208301526040820152f35b50346104cd57806003193601126104cd576020600654604051908152f35b50346104cd5760403660031901126104cd576004356001600160401b038082116123b957366023830112156123b9578160040135613c8d81615020565b92613c9b6040519485614f3d565b8184526024602085019260051b8201019036821161400d57602401915b818310614011575050506024359081116123b957366023820112156123b957806004013590613ce682615020565b91613cf46040519384614f3d565b8083526024602084019160051b8301019136831161400d57602401905b828210613ffd57505050600080516020616126833981519152835260186020526040832033845260205260ff6040842054168015613fe9575b613d539061541d565b613d5b615676565b8151815103613fac57600a825111613f7057438352602460205260ff604084205416613f2b57438352602460205260408320600160ff198254161790556023602052604083205460018101809111610e9757438452602360205260408420558290835b8351811015613edf576001600160a01b0380613dda83876154c7565b5116151580613ecc575b613df2575b50600101613dbe565b613dff82869593956154c7565b5116613e0b84846154c7565b5190808752601a602052600160408820613e2684825461529a565b81554260038201550180549060018201809211613eb857556004548752600a60205260408720613e56919061525f565b600454808752600b602052604087205490600182018211613ea457613e8e92916001918952600b60205201604088205560055461529a565b60055560018101809111611fb057916001613de9565b634e487b7160e01b88526011600452602488fd5b634e487b7160e01b89526011600452602489fd5b50613ed782846154c7565b511515613de4565b50509043835260246020526040832060ff1981541690555160405191825260208201527fc8a16388af0851bdc51694269f90c12af519cfbd71e7ab51d304b3be25d1118460404392a280f35b60405162461bcd60e51b815260206004820152601f60248201527f42617463682070726f63657373696e6720616c726561647920616374697665006044820152606490fd5b60405162461bcd60e51b815260206004820152601460248201527342617463682073697a6520746f6f206c6172676560601b6044820152606490fd5b60405162461bcd60e51b8152602060048201526015602482015274082e4e4c2f240d8cadccee8d040dad2e6dac2e8c6d605b1b6044820152606490fd5b506001546001600160a01b03163314613d4a565b8135815260209182019101613d11565b8580fd5b82356001600160a01b038116810361403157815260209283019201613cb8565b8680fd5b50346104cd5760203660031901126104cd576020906040906001600160a01b0361405d614dad565b1681528280522054604051908152f35b50346104cd5760403660031901126104cd5760043561408a614dc3565b818352601960205260408320546001600160a01b03919082163314801561410b575b6140b590615383565b166140c18115156153df565b81835260186020526040832081845260205260408320600160ff1982541617905533917f2f8788117e7eff1d82e926ec794901d17c78024a50270940304540a733656f0d8480a480f35b50600154821633146140ac565b50346104cd57806003193601126104cd576020601154604051908152f35b50346104cd57806003193601126104cd5761414f6156f4565b614157615676565b3381526020601e815260ff61417360ff604085205416156152a7565b338352601a825261418e60ff600660408620015416156152a7565b338352601c825260408320546001600160a01b0390811661435e57826040516141b681614eb5565b60148082528282019483368737875b828110614300575050506142f69260036142667f9aba81a9970f49adfcb9191b4663d4a18a3a6236fbbef5e36c5478a55fd4a03a96946142e394614255602561420d42615e5a565b98604051998a91614232878401966450495a5a4160d81b885251809286860190614fe1565b820161424682518093898785019101614fe1565b0103600581018a520188614f3d565b604051809381928951928391614fe1565b8101601b815203019020916001600160601b0360a01b9233848254161790556040519261429284614e39565b3384528884018a815260408501918b8352606086019360018552338d52601c8c5260408d209651169086541617855551600185015551600284015551151591019060ff801983541691151516179055565b6040519182918583523395830190615117565b0390a26001815580f35b90919293506013818103908111613eb857600381901b906001600160fd1b03811603613eb857828111613eb857906001916143428360ff60f81b921b336154db565b60f81b16891a6143528287615b77565b530190869392916141c5565b60405162461bcd60e51b815260048101849052601c60248201527f526566657272616c20636f646520616c726561647920657869737473000000006044820152606490fd5b50346104cd5760203660031901126104cd5760ff60406020926004358152601384522054166040519015158152f35b50346104cd57806003193601126104cd576020602654604051908152f35b50346104cd57602061440136614f79565b816144156040519283815193849201614fe1565b601b90820190815281900382019020546040516001600160a01b039091168152f35b50346104cd57806003193601126104cd576003546040516001600160a01b039091168152602090f35b50346104cd576020806003193601126120cd5760043561447e6156f4565b614486615676565b338352601e825261449e60ff604085205416156152a7565b338352601a918281526144bb60ff600660408720015416156152a7565b338452828152600c604085200154620151808101809111611fb0576144e2904210156152eb565b3384528281526144fb6064600e60408720015410615337565b818452601f8152604084209260ff600485015416156146d357600584019033865281835260ff60408720541661468e57600285019182548015614649576103e881116146045761454b9033615717565b338752835260408620600160ff19825416179055808352600a6040872001546001810180911161252557916000805160206161468339815191529493916145a6604094338a52828552858a2090600a8201555483549061529a565b903389528352838820908155600c429101555492825190815283828201527f20861823fa14b60d3f02cc6e48b647ac592dd27e39a78f278df5c918dabb8b2c833392a28151928352820152806142f63394600160408401910161505a565b60405162461bcd60e51b815260048101869052601960248201527f4368616c6c656e67652072657761726420746f6f2068696768000000000000006044820152606490fd5b60405162461bcd60e51b815260048101869052601860248201527f496e76616c6964206368616c6c656e67652072657761726400000000000000006044820152606490fd5b60405162461bcd60e51b815260048101849052601b60248201527f4368616c6c656e676520616c726561647920636f6d706c6574656400000000006044820152606490fd5b60405162461bcd60e51b81526004810183905260146024820152734368616c6c656e6765206e6f742061637469766560601b6044820152606490fd5b50346104cd57806003193601126104cd576147286156f4565b614730615676565b3381526020601e815261474a60ff604084205416156152a7565b338252601a80825261476660ff600660408620015416156152a7565b338352808252600c6040842001546201518090818101809111611fb05761478f904210156152eb565b3384528183526147a86064600e60408720015410615337565b33845281835260076004604086200154106148e8573384528183526005604085200154908101809111610e9757421061489857338352818052604083205460038101809111610e975760648111610ec1573384528280526040842055808252600e60408420015460038101809111610e97573384528183526040842090600e820155549060038201809211610e9757338452825260408320908155426005820155600c429101556040805191600383528201526012604082015271372d6461792073747265616b20626f6e757360701b606082015260008051602061614683398151915260803392a26001815580f35b60405162461bcd60e51b815260048101839052602260248201527f53747265616b20626f6e757320616c726561647920636c61696d656420746f64604482015261617960f01b6064820152608490fd5b60405162461bcd60e51b815260048101849052601860248201527f372d6461792073747265616b206e6f74207265616368656400000000000000006044820152606490fd5b50346104cd5760203660031901126104cd57608090604061494c614dad565b91806060835161495b81614e39565b8281528260208201528285820152015260018060a01b038093168152601c60205220906040519061498b82614e39565b82541691828252600181015460208301908152606060ff600360028501549460408701958652015416930192151583526040519384525160208401525160408301525115156060820152f35b50346104cd57806003193601126104cd5760206040517fbf233dd2aafeb4d50879c4aa5c81e96d92f6e6945c906a58f9f2d1c1631b4b268152f35b50346104cd57806003193601126104cd576040517f00000000000000000000000000000000000000000000000000000000000000006001600160a01b03168152602090f35b50346104cd57806003193601126104cd576020601654604051908152f35b50346104cd57806003193601126104cd57602060405160088152f35b50346104cd576020806003193601126120cd5760043590614ab0615676565b8115614b6d57614abf33615697565b614b3357601254835260108152614ad9336040852061525f565b601254808452600f8252614af183604086205461529a565b908452600f82526040842055601254906040519283528201527fefe539503e4a6bc6d750abe6f7471ea59543ad95e1757fcd02ecb9a6c212e92060403392a280f35b6064906040519062461bcd60e51b825260048201526013602482015272105b1c9958591e4818dbdb9d1c9a589d5d1959606a1b6044820152fd5b6064906040519062461bcd60e51b82526004820152600f60248201526e496e76616c696420656e74726f707960881b6044820152fd5b50346104cd5760203660031901126104cd57604060e0916004358152601d6020522080549060018101549060028101546003820154600483015491600760ff600686015416940154946040519687526020870152604086015260608501526080840152151560a083015260c0820152f35b50346104cd57614c2336614dd9565b919081526010602052604081209081548310156104cd576020611c888484614def565b50346104cd57806003193601126104cd57614c5f61564a565b614c67615676565b60025460405163f8413b0760e01b8152906020908290600490829086906001600160a01b03165af1908115610b98578291614cd8575b506040817f3d94fecedaa4f90b8bd459797adb95f5bb11426025c5541390d9ccc1ad1b60a1926009556004549082519182526020820152a180f35b90506020813d602011614d03575b81614cf360209383614f3d565b810103126120cd57516040614c9d565b3d9150614ce6565b50346104cd57806003193601126104cd57600354604051630d73ebb560e01b815290602090829060049082906001600160a01b03165afa908115610b9857829161209f57602082604051908152f35b50346104cd57806003193601126104cd57602060405161012c8152f35b9050346120cd5760203660031901126120cd576020916040906001600160a01b03614da0614dad565b1681526021845220548152f35b600435906001600160a01b0382168203610a4a57565b602435906001600160a01b0382168203610a4a57565b6040906003190112610a4a576004359060243590565b8054821015614e075760005260206000200190600090565b634e487b7160e01b600052603260045260246000fd5b34610a4a576000366003190112610a4a576020604051600a8152f35b608081019081106001600160401b03821117614e5457604052565b634e487b7160e01b600052604160045260246000fd5b61022081019081106001600160401b03821117614e5457604052565b61010081019081106001600160401b03821117614e5457604052565b6001600160401b038111614e5457604052565b604081019081106001600160401b03821117614e5457604052565b602081019081106001600160401b03821117614e5457604052565b606081019081106001600160401b03821117614e5457604052565b60c081019081106001600160401b03821117614e5457604052565b61012081019081106001600160401b03821117614e5457604052565b90601f801991011681019081106001600160401b03821117614e5457604052565b6001600160401b038111614e5457601f01601f191660200190565b6020600319820112610a4a576004356001600160401b038111610a4a5781602382011215610a4a57806004013590614fb082614f5e565b92614fbe6040519485614f3d565b82845260248383010111610a4a5781600092602460209301838601378301015290565b60005b838110614ff45750506000910152565b8181015183820152602001614fe4565b34610a4a576000366003190112610a4a57602060405160648152f35b6001600160401b038111614e545760051b60200190565b34610a4a576000366003190112610a4a576020604051670de0b6b3a76400008152f35b80546000939260018083169383821c93851561510d575b60209586861081146150f7578585529081156150d85750600114615097575b5050505050565b90939495506000929192528360002092846000945b8386106150c457505050500101903880808080615090565b8054858701830152940193859082016150ac565b60ff19168685015250505090151560051b010191503880808080615090565b634e487b7160e01b600052602260045260246000fd5b93607f1693615071565b9060209161513081518092818552858086019101614fe1565b601f01601f1916010190565b6060906003190112610a4a57600435906024359060443590565b34610a4a576000366003190112610a4a57602060405160028152f35b6020918282526101208201908051848401528381015160408401526040810151606084015260608101516080840152608081015160a084015260a081015193610100928360c0860152855180915281610140860196019160005b8281106151ed57505050508060c060e0920151151582850152015191015290565b83516001600160a01b0316885296810196928101926001016151cc565b34610a4a576000366003190112610a4a57602060405160328152f35b34610a4a576000366003190112610a4a576020604051610e108152f35b34610a4a576000366003190112610a4a57602060405160038152f35b8054600160401b811015614e545761527c91600182018155614def565b60018060a09493941b038084549260031b9316831b921b1916179055565b91908201809211610eab57565b156152ae57565b60405162461bcd60e51b8152602060048201526015602482015274141b185e595c881a5cc8189b1858dadb1a5cdd1959605a1b6044820152606490fd5b156152f257565b60405162461bcd60e51b815260206004820152601c60248201527f52657761726420616c726561647920636c61696d656420746f646179000000006044820152606490fd5b1561533e57565b60405162461bcd60e51b815260206004820152601a60248201527f4461696c7920726577617264206c696d697420726561636865640000000000006044820152606490fd5b1561538a57565b60405162461bcd60e51b815260206004820152602760248201527f416363657373436f6e74726f6c3a2063616c6c6572206973206e6f7420726f6c604482015266329030b236b4b760c91b6064820152608490fd5b156153e657565b60405162461bcd60e51b815260206004820152600f60248201526e496e76616c6964206164647265737360881b6044820152606490fd5b1561542457565b60405162461bcd60e51b815260206004820152602860248201527f416363657373436f6e74726f6c3a2063616c6c657220646f6573206e6f74206860448201526761766520726f6c6560c01b6064820152608490fd5b805115614e075760200190565b805160011015614e075760400190565b805160021015614e075760600190565b805160031015614e075760800190565b805160041015614e075760a00190565b8051821015614e075760209160051b010190565b81156154e5570490565b634e487b7160e01b600052601260045260246000fd5b90816020910312610a4a57518015158103610a4a5790565b1561551a57565b60405162461bcd60e51b8152602060048201526015602482015274141c9a5e99481d1c985b9cd9995c8819985a5b1959605a1b6044820152606490fd5b90815180825260208080930193019160005b828110615577575050505090565b83516001600160a01b031685529381019392810192600101615569565b9392916155b1906040928652606060208701526060860190615557565b930152565b91908203918211610eab57565b156155ca57565b60405162461bcd60e51b815260206004820152600f60248201526e151c985b9cd9995c8819985a5b1959608a1b6044820152606490fd5b6040519061560e82614e86565b8160e0600091828152826020820152826040820152826060820152826080820152606060a08201528260c08201520152565b81156154e5570690565b6001546001600160a01b0316330361565e57565b60405163118cdaa760e01b8152336004820152602490fd5b60ff60015460a01c1661568557565b60405163d93c066560e01b8152600490fd5b6012549060005b826000526010602052604060002080548210156156eb57816156bf91614def565b905460039190911b1c6001600160a01b03908116908316146156e35760010161569e565b505050600190565b50505050600090565b600260005414615705576002600055565b604051633ee5aeb560e01b8152600490fd5b81156157bd576103e8821161577f5760018060a01b03169060009082825260209081805261574981604085205461529a565b60648111610ec1576040926157768593601a9388600e98528380528686205583835286868620015461529a565b95835252200155565b60405162461bcd60e51b81526020600482015260166024820152750a4caeec2e4c840c2dadeeadce840e8dede40d0d2ced60531b6044820152606490fd5b60405162461bcd60e51b815260206004820152601e60248201527f52657761726420616d6f756e74206d75737420626520706f73697469766500006044820152606490fd5b6000198114610eab5760010190565b9060409081519061582182614f21565b600892600883526020906101003683860137600091868352601d815260078284200154918215615960576002548151631daaf1b160e11b815260048101949094526001600160a01b0398908390859060249082908d165afa938415615956578594615923575b508315615917578452600a8252808420948554948515615901575b8881108061590e575b15615901576158fc908a6158e46158de898751898101908b8252868a8201528981526158d681614eeb565b519020615640565b8a614def565b90549060031b1c166158f6828b6154c7565b52615802565b6158a2565b5097505050505050905090565b508581106158ab565b50505050509250905090565b9093508281813d831161594f575b61593b8183614f3d565b8101031261594b57519238615887565b8480fd5b503d615931565b82513d87823e3d90fd5b505050509250905090565b60046159778154615802565b808255620151804201804211615ad2576040519261599484614ed0565b600090818552604051946159a786614e86565b848652602092838701934285526040880195865260608801828152608089019083825260a08a0194855260c08a019784895260e08b0199858b528552601d8452604085209a518b556001975160018c01555160028b01555160038a015551848901556005880192518051946001600160401b038611615abf57600160401b8611615abf575081908454868655808710615a95575b5001928252808220915b848110615a7b5750505050505090615a71600792511515600685019060ff801983541691151516179055565b5191015542600755565b83516001600160a01b031683820155928101928501615a45565b858552878784872092830192015b828110615ab1575050615a3b565b868155859450899101615aa3565b634e487b7160e01b845260419052602483fd5b601183634e487b7160e01b6000525260246000fd5b60018060a01b03166000908082526022602052601e615b0a6040842054426155b6565b10615b3e578152601a602052600a600160408320015411615b3857602080526064604082205411615b385790565b50600190565b5050600190565b90615b4f82614f5e565b615b5c6040519182614f3d565b8281528092615b6d601f1991614f5e565b0190602036910137565b908151811015614e07570160200190565b805160038110908115615d90575b50615d8a5760005b8151811015615c5a576001600160f81b0319615bba8284615b77565b5116600360fc1b8110159081615c4b575b8115615c27575b8115615c03575b8115615bf5575b5015615bee57600101615b9e565b5050600090565b605f60f81b14905038615be0565b9050606160f81b81101580615c19575b90615bd9565b50603d60f91b811115615c13565b9050604160f81b81101580615c3d575b90615bd2565b50602d60f91b811115615c37565b603960f81b8111159150615bcb565b5060015b8151811015615cbc576001600160f81b0319605f60f81b8082615c818587615b77565b5116149182615c99575b5050615bee57600101615c5e565b9091506000198301838111610eab57615cb29085615b77565b5116143880615c8b565b5090615cc88251615b45565b60005b8351811015615d70576001600160f81b031990606160f81b82615cee8388615b77565b5116101580615d56575b15615d3457615d078186615b77565b5160f89290831c601f190160ff8111610eab576001931b1660001a615d2c8285615b77565b535b01615ccb565b600191615d418287615b77565b511660001a615d508285615b77565b53615d2e565b50603d60f91b82615d678388615b77565b51161115615cf8565b50615d7c919250615ef8565b615d8557600190565b600090565b50600090565b603291501138615b96565b9060409160405192615dac84614f21565b60089260088552602061010036602088013760009184600052600b602052604060002054908115615e505760005b878110615dec57505050505050505090565b600190615e31615e2285895188810190878252858c82015242606082015244608082015260a08d8183015281526158d681614f06565b898852600a8752888820614def565b838060a01b0391549060031b1c16615e49828c6154c7565b5201615dda565b5050505050505090565b8015615eda5780600081805b615ec25750615e7481615b45565b925b615e7f57505090565b6000198101908111610eab578091600a9160308383068101809111610eab5760f81b6001600160f81b03191660001a90615eb99086615b77565b53049081615e76565b9150615ecf600a91615802565b910480839291615e66565b50604051615ee781614eb5565b60018152600360fc1b602082015290565b6040805190615f0682614f06565b6005825260005b60a0811061603d57508051615f2181614eb5565b600581526420a226a4a760d91b6020820152615f3c8361547a565b52615f468261547a565b508051615f5281614eb5565b600581526427aba722a960d91b6020820152615f6d83615487565b52615f7782615487565b508051615f8381614eb5565b600681526553595354454d60d01b6020820152615f9f83615497565b52615fa982615497565b508051615fb581614eb5565b60048152631395531360e21b6020820152615fcf836154a7565b52615fd9826154a7565b5051615fe481614eb5565b6004815263151154d560e21b6020820152615ffe826154b7565b52616008816154b7565b5060005b81518110156160355761602961602282846154c7565b5184616098565b6156e35760010161600c565b505050600090565b806060602080938601015201615f0d565b818114615bee57818082111561608857616067916155b6565b905b606482029180830460641490151715610eab57616085916154db565b90565b90616092916155b6565b90616069565b908051825110615bee576000905b6160b383518251906155b6565b82116160355760019260005b825181101561611b576001600160f81b0319806160e56160df848861529a565b85615b77565b5116906160f28386615b77565b511603616101576001016160bf565b5092509060005b6156e35761611590615802565b906160a6565b509291909161610856fe97667070c54ef182b0f5858b034beac1b6f3089aa2d3188bb1e8929f4fa9b929195188e7e2a9c946c91317946030490c3ba48a5b7f867101928826fa4cc609c5a2646970667358221220427bdef766d21c55fb26b01146a0eed4950450b44de74dd9a2fa23678a28da2564736f6c63430008180033","opcodes":"PUSH1 0xA0 CALLVALUE PUSH3 0x5B7 JUMPI PUSH1 0x1F PUSH3 0x6783 CODESIZE DUP2 SWAP1 SUB SWAP2 DUP3 ADD PUSH1 0x1F NOT AND DUP4 ADD SWAP3 SWAP2 SWAP1 PUSH1 0x1 PUSH1 0x1 PUSH1 0x40 SHL SUB DUP5 GT DUP4 DUP6 LT OR PUSH3 0x5BC JUMPI DUP2 PUSH1 0x60 SWAP3 DUP5 SWAP3 PUSH1 0x40 SWAP7 DUP8 MSTORE DUP4 CODECOPY DUP2 ADD SUB SLT PUSH3 0x5B7 JUMPI PUSH3 0x51 DUP2 PUSH3 0x5D2 JUMP JUMPDEST SWAP1 PUSH3 0x6D DUP4 PUSH3 0x65 PUSH1 0x20 DUP5 ADD PUSH3 0x5D2 JUMP JUMPDEST SWAP3 ADD PUSH3 0x5D2 JUMP JUMPDEST PUSH1 0x1 PUSH1 0x0 SSTORE CALLER ISZERO PUSH3 0x59F JUMPI PUSH1 0x1 DUP1 SLOAD CALLER PUSH1 0x1 PUSH1 0x1 PUSH1 0xA0 SHL SUB NOT DUP1 DUP4 AND DUP3 OR SWAP1 SWAP4 SSTORE DUP7 MLOAD SWAP3 SWAP6 SWAP3 SWAP5 SWAP3 SWAP2 PUSH1 0x1 PUSH1 0x1 PUSH1 0xA0 SHL SUB AND PUSH32 0x8BE0079C531659141344CD1FD0A4F28419497F9722A3DAAFE3B4186F6B6457E0 PUSH1 0x0 DUP1 LOG3 PUSH1 0x1 PUSH1 0x1 PUSH1 0xA0 SHL SUB AND SWAP3 DUP4 ISZERO PUSH3 0x55D JUMPI POP PUSH1 0x1 PUSH1 0x1 PUSH1 0xA0 SHL SUB AND SWAP1 DUP2 ISZERO PUSH3 0x50D JUMPI PUSH1 0x1 PUSH1 0x1 PUSH1 0xA0 SHL SUB AND SWAP2 DUP3 ISZERO PUSH3 0x4C9 JUMPI PUSH1 0x80 MSTORE DUP3 PUSH1 0x2 SLOAD AND OR PUSH1 0x2 SSTORE DUP2 PUSH1 0x3 SLOAD AND OR PUSH1 0x3 SSTORE PUSH32 0xA49807205CE4D355092EF5A8A18F56E8913CF4A201FBE287825B095693C21775 DUP1 PUSH1 0x0 MSTORE PUSH1 0x18 PUSH1 0x20 MSTORE DUP3 PUSH1 0x0 KECCAK256 CALLER PUSH1 0x0 MSTORE PUSH1 0x20 MSTORE DUP3 PUSH1 0x0 KECCAK256 PUSH1 0x1 PUSH1 0xFF NOT DUP3 SLOAD AND OR SWAP1 SSTORE PUSH32 0x97667070C54EF182B0F5858B034BEAC1B6F3089AA2D3188BB1E8929F4FA9B929 DUP1 PUSH1 0x0 MSTORE PUSH1 0x18 PUSH1 0x20 MSTORE DUP4 PUSH1 0x0 KECCAK256 CALLER PUSH1 0x0 MSTORE PUSH1 0x20 MSTORE DUP4 PUSH1 0x0 KECCAK256 PUSH1 0x1 PUSH1 0xFF NOT DUP3 SLOAD AND OR SWAP1 SSTORE PUSH32 0xBF233DD2AAFEB4D50879C4AA5C81E96D92F6E6945C906A58F9F2D1C1631B4B26 SWAP1 DUP2 PUSH1 0x0 MSTORE PUSH1 0x18 PUSH1 0x20 MSTORE DUP5 PUSH1 0x0 KECCAK256 CALLER PUSH1 0x0 MSTORE PUSH1 0x20 MSTORE DUP5 PUSH1 0x0 KECCAK256 PUSH1 0x1 PUSH1 0xFF NOT DUP3 SLOAD AND OR SWAP1 SSTORE PUSH32 0x59A1C48E5837AD7A7F3DCEDCBE129BF3249EC4FBF651FD4F5E2600EAD39FE2F5 SWAP4 DUP5 PUSH1 0x0 MSTORE PUSH1 0x18 PUSH1 0x20 MSTORE DUP6 PUSH1 0x0 KECCAK256 CALLER PUSH1 0x0 MSTORE PUSH1 0x20 MSTORE DUP6 PUSH1 0x0 KECCAK256 PUSH1 0x1 PUSH1 0xFF NOT DUP3 SLOAD AND OR SWAP1 SSTORE DUP4 PUSH1 0x0 MSTORE PUSH1 0x19 PUSH1 0x20 MSTORE DUP6 PUSH1 0x0 KECCAK256 CALLER DUP3 DUP3 SLOAD AND OR SWAP1 SSTORE DUP2 PUSH1 0x0 MSTORE DUP6 PUSH1 0x0 KECCAK256 CALLER DUP3 DUP3 SLOAD AND OR SWAP1 SSTORE DUP3 PUSH1 0x0 MSTORE DUP6 PUSH1 0x0 KECCAK256 CALLER DUP3 DUP3 SLOAD AND OR SWAP1 SSTORE DUP5 PUSH1 0x0 MSTORE DUP6 PUSH1 0x0 KECCAK256 SWAP1 CALLER SWAP1 DUP3 SLOAD AND OR SWAP1 SSTORE PUSH32 0x2F8788117E7EFF1D82E926EC794901D17C78024A50270940304540A733656F0D SWAP3 CALLER SWAP1 CALLER SWAP1 DUP6 PUSH1 0x0 DUP1 LOG4 CALLER SWAP1 CALLER SWAP1 DUP5 PUSH1 0x0 DUP1 LOG4 CALLER SWAP1 CALLER SWAP1 DUP4 PUSH1 0x0 DUP1 LOG4 CALLER SWAP2 CALLER SWAP2 PUSH1 0x0 DUP1 LOG4 PUSH1 0x4 PUSH1 0x2 DUP2 SSTORE PUSH3 0x15180 TIMESTAMP ADD DUP1 TIMESTAMP GT PUSH3 0x4B4 JUMPI DUP3 MLOAD PUSH1 0x20 DUP2 ADD PUSH1 0x1 PUSH1 0x1 PUSH1 0x40 SHL SUB DUP2 GT DUP3 DUP3 LT OR PUSH3 0x49F JUMPI DUP5 MSTORE PUSH1 0x0 DUP2 MSTORE DUP4 MLOAD SWAP2 PUSH2 0x100 DUP4 ADD PUSH1 0x1 PUSH1 0x1 PUSH1 0x40 SHL SUB DUP2 GT DUP5 DUP3 LT OR PUSH3 0x48A JUMPI DUP6 MSTORE PUSH1 0x2 DUP4 MSTORE TIMESTAMP PUSH1 0x20 DUP5 ADD MSTORE DUP5 DUP4 ADD MSTORE PUSH1 0x0 PUSH1 0x60 DUP4 ADD MSTORE PUSH1 0x0 PUSH1 0x80 DUP4 ADD MSTORE PUSH1 0xA0 DUP3 ADD MSTORE PUSH1 0x0 PUSH1 0xC0 DUP3 ADD MSTORE PUSH1 0x0 PUSH1 0xE0 DUP3 ADD MSTORE PUSH1 0x2 PUSH1 0x0 MSTORE PUSH1 0x1D PUSH1 0x20 MSTORE DUP3 PUSH1 0x0 KECCAK256 SWAP2 DUP2 MLOAD DUP4 SSTORE PUSH1 0x20 DUP3 ADD MLOAD PUSH1 0x1 DUP5 ADD SSTORE DUP4 DUP3 ADD MLOAD PUSH1 0x2 DUP5 ADD SSTORE PUSH1 0x60 DUP3 ADD MLOAD PUSH1 0x3 DUP5 ADD SSTORE PUSH1 0x80 DUP3 ADD MLOAD DUP2 DUP5 ADD SSTORE PUSH1 0x5 DUP4 ADD PUSH1 0xA0 DUP4 ADD MLOAD DUP1 MLOAD SWAP3 PUSH1 0x1 DUP1 PUSH1 0x40 SHL SUB DUP5 GT PUSH3 0x475 JUMPI PUSH9 0x10000000000000000 DUP5 GT PUSH3 0x475 JUMPI POP DUP2 SLOAD DUP4 DUP4 SSTORE DUP1 DUP5 LT PUSH3 0x449 JUMPI JUMPDEST POP PUSH1 0x20 ADD SWAP1 PUSH1 0x0 MSTORE PUSH1 0x20 PUSH1 0x0 KECCAK256 PUSH1 0x0 JUMPDEST DUP4 DUP2 LT PUSH3 0x42B JUMPI DUP7 DUP7 PUSH1 0x7 PUSH1 0xE0 DUP9 PUSH1 0x6 DUP5 ADD PUSH1 0xC0 DUP3 ADD MLOAD ISZERO ISZERO PUSH1 0xFF DUP1 NOT DUP4 SLOAD AND SWAP2 AND OR SWAP1 SSTORE ADD MLOAD SWAP2 ADD SSTORE TIMESTAMP PUSH1 0x7 SSTORE MLOAD PUSH2 0x619B SWAP1 DUP2 PUSH3 0x5E8 DUP3 CODECOPY PUSH1 0x80 MLOAD DUP2 DUP2 DUP2 PUSH2 0x727 ADD MSTORE DUP2 DUP2 PUSH2 0xFF0 ADD MSTORE DUP2 DUP2 PUSH2 0x1682 ADD MSTORE DUP2 DUP2 PUSH2 0x1DD8 ADD MSTORE DUP2 DUP2 PUSH2 0x21DB ADD MSTORE DUP2 DUP2 PUSH2 0x2955 ADD MSTORE DUP2 DUP2 PUSH2 0x36CF ADD MSTORE DUP2 DUP2 PUSH2 0x3A37 ADD MSTORE PUSH2 0x4A28 ADD MSTORE RETURN JUMPDEST DUP3 MLOAD PUSH1 0x1 PUSH1 0x1 PUSH1 0xA0 SHL SUB AND DUP2 DUP4 ADD SSTORE PUSH1 0x20 SWAP1 SWAP3 ADD SWAP2 PUSH1 0x1 ADD PUSH3 0x3AD JUMP JUMPDEST DUP3 PUSH1 0x0 MSTORE DUP4 PUSH1 0x20 PUSH1 0x0 KECCAK256 SWAP2 DUP3 ADD SWAP2 ADD JUMPDEST DUP2 DUP2 LT PUSH3 0x468 JUMPI POP PUSH3 0x39D JUMP JUMPDEST PUSH1 0x0 DUP2 SSTORE PUSH1 0x1 ADD PUSH3 0x459 JUMP JUMPDEST PUSH1 0x41 SWAP1 PUSH4 0x4E487B71 PUSH1 0xE0 SHL PUSH1 0x0 MSTORE MSTORE PUSH1 0x24 PUSH1 0x0 REVERT JUMPDEST PUSH1 0x41 DUP6 PUSH4 0x4E487B71 PUSH1 0xE0 SHL PUSH1 0x0 MSTORE MSTORE PUSH1 0x24 PUSH1 0x0 REVERT JUMPDEST PUSH1 0x41 DUP5 PUSH4 0x4E487B71 PUSH1 0xE0 SHL PUSH1 0x0 MSTORE MSTORE PUSH1 0x24 PUSH1 0x0 REVERT JUMPDEST PUSH1 0x11 DUP3 PUSH4 0x4E487B71 PUSH1 0xE0 SHL PUSH1 0x0 MSTORE MSTORE PUSH1 0x24 PUSH1 0x0 REVERT JUMPDEST DUP5 MLOAD PUSH3 0x461BCD PUSH1 0xE5 SHL DUP2 MSTORE PUSH1 0x20 PUSH1 0x4 DUP3 ADD MSTORE PUSH1 0x1C PUSH1 0x24 DUP3 ADD MSTORE PUSH32 0x496E76616C6964207072696365206F7261636C65206164647265737300000000 PUSH1 0x44 DUP3 ADD MSTORE PUSH1 0x64 SWAP1 REVERT JUMPDEST DUP5 MLOAD PUSH3 0x461BCD PUSH1 0xE5 SHL DUP2 MSTORE PUSH1 0x20 PUSH1 0x4 DUP3 ADD MSTORE PUSH1 0x23 PUSH1 0x24 DUP3 ADD MSTORE PUSH32 0x496E76616C69642072616E646F6D6E65737320636F6E74726163742061646472 PUSH1 0x44 DUP3 ADD MSTORE PUSH3 0x657373 PUSH1 0xE8 SHL PUSH1 0x64 DUP3 ADD MSTORE PUSH1 0x84 SWAP1 REVERT JUMPDEST PUSH3 0x461BCD PUSH1 0xE5 SHL DUP2 MSTORE PUSH1 0x20 PUSH1 0x4 DUP3 ADD MSTORE PUSH1 0x19 PUSH1 0x24 DUP3 ADD MSTORE PUSH32 0x496E76616C696420564D4620746F6B656E206164647265737300000000000000 PUSH1 0x44 DUP3 ADD MSTORE PUSH1 0x64 SWAP1 REVERT JUMPDEST DUP4 MLOAD PUSH4 0x1E4FBDF7 PUSH1 0xE0 SHL DUP2 MSTORE PUSH1 0x0 PUSH1 0x4 DUP3 ADD MSTORE PUSH1 0x24 SWAP1 REVERT JUMPDEST PUSH1 0x0 DUP1 REVERT JUMPDEST PUSH4 0x4E487B71 PUSH1 0xE0 SHL PUSH1 0x0 MSTORE PUSH1 0x41 PUSH1 0x4 MSTORE PUSH1 0x24 PUSH1 0x0 REVERT JUMPDEST MLOAD SWAP1 PUSH1 0x1 PUSH1 0x1 PUSH1 0xA0 SHL SUB DUP3 AND DUP3 SUB PUSH3 0x5B7 JUMPI JUMP INVALID PUSH1 0xE0 DUP1 PUSH1 0x40 MSTORE PUSH1 0x4 CALLDATASIZE LT ISZERO PUSH2 0x13 JUMPI PUSH1 0x0 DUP1 REVERT JUMPDEST PUSH1 0x0 SWAP1 DUP2 CALLDATALOAD PUSH1 0xE0 SHR SWAP1 DUP2 PUSH4 0x3FA2C63 EQ PUSH2 0x4D77 JUMPI POP DUP1 PUSH4 0x98655D9 EQ PUSH2 0x4D5A JUMPI DUP1 PUSH4 0xAA01695 EQ PUSH2 0x4D0B JUMPI DUP1 PUSH4 0xB00A5DB EQ PUSH2 0x4C46 JUMPI DUP1 PUSH4 0xC89D127 EQ PUSH2 0x4C14 JUMPI DUP1 PUSH4 0xD9F92CA EQ PUSH2 0x51C JUMPI DUP1 PUSH4 0x117A5B90 EQ PUSH2 0x4BA3 JUMPI DUP1 PUSH4 0x1472CBE3 EQ PUSH2 0x4A91 JUMPI DUP1 PUSH4 0x16FA1086 EQ PUSH2 0x4A75 JUMPI DUP1 PUSH4 0x19BF155D EQ PUSH2 0x4A57 JUMPI DUP1 PUSH4 0x2086EEFA EQ PUSH2 0x4A12 JUMPI DUP1 PUSH4 0x20DF4359 EQ PUSH2 0x49D7 JUMPI DUP1 PUSH4 0x21874AE2 EQ PUSH2 0x492D JUMPI DUP1 PUSH4 0x25B7F388 EQ PUSH2 0x470F JUMPI DUP1 PUSH4 0x2618CAFD EQ PUSH2 0x4460 JUMPI DUP1 PUSH4 0x2630C12F EQ PUSH2 0x4437 JUMPI DUP1 PUSH4 0x2655E840 EQ PUSH2 0x43F0 JUMPI DUP1 PUSH4 0x28100ACA EQ PUSH2 0x43D2 JUMPI DUP1 PUSH4 0x2A243F19 EQ PUSH2 0x43A3 JUMPI DUP1 PUSH4 0x2E108D1C EQ PUSH2 0x4136 JUMPI DUP1 PUSH4 0x2EE8B778 EQ PUSH2 0x4118 JUMPI DUP1 PUSH4 0x2F2FF15D EQ PUSH2 0x406D JUMPI DUP1 PUSH4 0x2FF7A52D EQ PUSH2 0x4035 JUMPI DUP1 PUSH4 0x39D8EA42 EQ PUSH2 0x12B6 JUMPI DUP1 PUSH4 0x3A65126A EQ PUSH2 0x3C50 JUMPI DUP1 PUSH4 0x3BB4F638 EQ PUSH2 0x3C32 JUMPI DUP1 PUSH4 0x3F781412 EQ PUSH2 0x3BEE JUMPI DUP1 PUSH4 0x3FB83A54 EQ PUSH2 0x3966 JUMPI DUP1 PUSH4 0x41FE39EC EQ PUSH2 0x393D JUMPI DUP1 PUSH4 0x43F2A080 EQ PUSH2 0x389D JUMPI DUP1 PUSH4 0x49FAA4D4 EQ PUSH2 0x51C JUMPI DUP1 PUSH4 0x4B75344E EQ PUSH2 0x1520 JUMPI DUP1 PUSH4 0x4EB692A5 EQ PUSH2 0x386B JUMPI DUP1 PUSH4 0x4F55E8AD EQ PUSH2 0x37E7 JUMPI DUP1 PUSH4 0x52861F7F EQ PUSH2 0x35E6 JUMPI DUP1 PUSH4 0x59328401 EQ PUSH2 0x33BD JUMPI DUP1 PUSH4 0x59A9867E EQ PUSH2 0x3249 JUMPI DUP1 PUSH4 0x59DB6FE6 EQ PUSH2 0x322B JUMPI DUP1 PUSH4 0x5C27B2E4 EQ PUSH2 0x27AE JUMPI DUP1 PUSH4 0x5C975ABB EQ PUSH2 0x2788 JUMPI DUP1 PUSH4 0x67CAFABB EQ PUSH2 0x275E JUMPI DUP1 PUSH4 0x69396E88 EQ PUSH2 0x2742 JUMPI DUP1 PUSH4 0x6CE497B2 EQ PUSH2 0x26A0 JUMPI DUP1 PUSH4 0x6E1D616E EQ PUSH2 0x2665 JUMPI DUP1 PUSH4 0x715018A6 EQ PUSH2 0x2608 JUMPI DUP1 PUSH4 0x71E4206D EQ PUSH2 0x23C4 JUMPI DUP1 PUSH4 0x74631FD7 EQ PUSH2 0x216B JUMPI DUP1 PUSH4 0x7550B84F EQ PUSH2 0x214D JUMPI DUP1 PUSH4 0x7568E826 EQ PUSH2 0x2020 JUMPI DUP1 PUSH4 0x75B238FC EQ PUSH2 0x2112 JUMPI DUP1 PUSH4 0x77CE2992 EQ PUSH2 0x20D9 JUMPI DUP1 PUSH4 0x786A78C6 EQ PUSH2 0x204F JUMPI DUP1 PUSH4 0x79675127 EQ PUSH2 0x2025 JUMPI DUP1 PUSH4 0x7A7EB1F4 EQ PUSH2 0x2020 JUMPI DUP1 PUSH4 0x84A3A0F3 EQ PUSH2 0x2020 JUMPI DUP1 PUSH4 0x8543210D EQ PUSH2 0x1FED JUMPI DUP1 PUSH4 0x8DA5CB5B EQ PUSH2 0x1FC4 JUMPI DUP1 PUSH4 0x90E40687 EQ PUSH2 0x1D06 JUMPI DUP1 PUSH4 0x91D14854 EQ PUSH2 0x1CA1 JUMPI DUP1 PUSH4 0x920736E5 EQ PUSH2 0x1C56 JUMPI DUP1 PUSH4 0x968D901B EQ PUSH2 0x1B98 JUMPI DUP1 PUSH4 0x96F277B7 EQ PUSH2 0x1B93 JUMPI DUP1 PUSH4 0x9B95F1FC EQ PUSH2 0x1B93 JUMPI DUP1 PUSH4 0x9CA423B3 EQ PUSH2 0x1B2E JUMPI DUP1 PUSH4 0xA04F6B4B EQ PUSH2 0x1B11 JUMPI DUP1 PUSH4 0xA154FC6B EQ PUSH2 0x1AA1 JUMPI DUP1 PUSH4 0xA2F77BCC EQ PUSH2 0x19C0 JUMPI DUP1 PUSH4 0xA37C1572 EQ PUSH2 0x1991 JUMPI DUP1 PUSH4 0xA88066F7 EQ PUSH2 0x1996 JUMPI DUP1 PUSH4 0xA9B8B451 EQ PUSH2 0x1991 JUMPI DUP1 PUSH4 0xAD763192 EQ PUSH2 0x191C JUMPI DUP1 PUSH4 0xAEA664A5 EQ PUSH2 0x18D4 JUMPI DUP1 PUSH4 0xB87FC22D EQ PUSH2 0x15FD JUMPI DUP1 PUSH4 0xB8CAEAD6 EQ PUSH2 0x15DF JUMPI DUP1 PUSH4 0xBA53BA24 EQ PUSH2 0x1590 JUMPI DUP1 PUSH4 0xBB6BF0F0 EQ PUSH2 0x1572 JUMPI DUP1 PUSH4 0xBBC3CED7 EQ PUSH2 0x51C JUMPI DUP1 PUSH4 0xBCF64475 EQ PUSH2 0xB01 JUMPI DUP1 PUSH4 0xBF757624 EQ PUSH2 0x1543 JUMPI DUP1 PUSH4 0xC14E1E05 EQ PUSH2 0x1525 JUMPI DUP1 PUSH4 0xC5D32157 EQ PUSH2 0x1520 JUMPI DUP1 PUSH4 0xCB955E6B EQ PUSH2 0x12E5 JUMPI DUP1 PUSH4 0xCF376677 EQ PUSH2 0x12BB JUMPI DUP1 PUSH4 0xD136A94D EQ PUSH2 0x12B6 JUMPI DUP1 PUSH4 0xD2111791 EQ PUSH2 0x128C JUMPI DUP1 PUSH4 0xD547741F EQ PUSH2 0x11E2 JUMPI DUP1 PUSH4 0xD5749D42 EQ PUSH2 0x11A3 JUMPI DUP1 PUSH4 0xD61B86BB EQ PUSH2 0x1179 JUMPI DUP1 PUSH4 0xDA9BBE11 EQ PUSH2 0x1156 JUMPI DUP1 PUSH4 0xDB2E21BC EQ PUSH2 0xFB7 JUMPI DUP1 PUSH4 0xDD23B9CB EQ PUSH2 0xF9B JUMPI DUP1 PUSH4 0xE22CB9C9 EQ PUSH2 0xCD5 JUMPI DUP1 PUSH4 0xE2EB41FF EQ PUSH2 0xBA6 JUMPI DUP1 PUSH4 0xE3505B14 EQ PUSH2 0xB24 JUMPI DUP1 PUSH4 0xE3D440A7 EQ PUSH2 0xB06 JUMPI DUP1 PUSH4 0xE443E279 EQ PUSH2 0xB01 JUMPI DUP1 PUSH4 0xE82AEFC7 EQ PUSH2 0xA4F JUMPI DUP1 PUSH4 0xE8F6940E EQ PUSH2 0x928 JUMPI DUP1 PUSH4 0xEB0FB2C8 EQ PUSH2 0x5F3 JUMPI DUP1 PUSH4 0xEE892E64 EQ PUSH2 0x5D5 JUMPI DUP1 PUSH4 0xF2FDE38B EQ PUSH2 0x54A JUMPI DUP1 PUSH4 0xF5B541A6 EQ PUSH2 0x521 JUMPI DUP1 PUSH4 0xF8172FE3 EQ PUSH2 0x51C JUMPI DUP1 PUSH4 0xF8FC08B9 EQ PUSH2 0x4D0 JUMPI PUSH4 0xFFC39504 EQ PUSH2 0x4A4 JUMPI PUSH1 0x0 DUP1 REVERT JUMPDEST CALLVALUE PUSH2 0x4CD JUMPI PUSH1 0x20 CALLDATASIZE PUSH1 0x3 NOT ADD SLT PUSH2 0x4CD JUMPI PUSH1 0x40 PUSH1 0x20 SWAP2 PUSH1 0x4 CALLDATALOAD DUP2 MSTORE PUSH1 0xB DUP4 MSTORE KECCAK256 SLOAD PUSH1 0x40 MLOAD SWAP1 DUP2 MSTORE RETURN JUMPDEST DUP1 REVERT JUMPDEST POP CALLVALUE PUSH2 0x4CD JUMPI PUSH1 0x40 CALLDATASIZE PUSH1 0x3 NOT ADD SLT PUSH2 0x4CD JUMPI PUSH1 0x40 PUSH2 0x4EC PUSH2 0x4DC3 JUMP JUMPDEST SWAP2 PUSH1 0x4 CALLDATALOAD DUP2 MSTORE PUSH1 0x18 PUSH1 0x20 MSTORE KECCAK256 SWAP1 PUSH1 0x1 DUP1 PUSH1 0xA0 SHL SUB AND PUSH1 0x0 MSTORE PUSH1 0x20 MSTORE PUSH1 0x20 PUSH1 0xFF PUSH1 0x40 PUSH1 0x0 KECCAK256 SLOAD AND PUSH1 0x40 MLOAD SWAP1 ISZERO ISZERO DUP2 MSTORE RETURN JUMPDEST PUSH2 0x4E1D JUMP JUMPDEST POP CALLVALUE PUSH2 0x4CD JUMPI DUP1 PUSH1 0x3 NOT CALLDATASIZE ADD SLT PUSH2 0x4CD JUMPI PUSH1 0x20 PUSH1 0x40 MLOAD PUSH1 0x0 DUP1 MLOAD PUSH1 0x20 PUSH2 0x6126 DUP4 CODECOPY DUP2 MLOAD SWAP2 MSTORE DUP2 MSTORE RETURN JUMPDEST POP CALLVALUE PUSH2 0x4CD JUMPI PUSH1 0x20 CALLDATASIZE PUSH1 0x3 NOT ADD SLT PUSH2 0x4CD JUMPI PUSH2 0x564 PUSH2 0x4DAD JUMP JUMPDEST PUSH2 0x56C PUSH2 0x564A JUMP JUMPDEST PUSH1 0x1 PUSH1 0x1 PUSH1 0xA0 SHL SUB SWAP1 DUP2 AND SWAP1 DUP2 ISZERO PUSH2 0x5BC JUMPI PUSH1 0x1 SLOAD DUP3 PUSH1 0x1 PUSH1 0x1 PUSH1 0x60 SHL SUB PUSH1 0xA0 SHL DUP3 AND OR PUSH1 0x1 SSTORE AND PUSH32 0x8BE0079C531659141344CD1FD0A4F28419497F9722A3DAAFE3B4186F6B6457E0 PUSH1 0x0 DUP1 LOG3 DUP1 RETURN JUMPDEST PUSH1 0x40 MLOAD PUSH4 0x1E4FBDF7 PUSH1 0xE0 SHL DUP2 MSTORE PUSH1 0x4 DUP2 ADD DUP5 SWAP1 MSTORE PUSH1 0x24 SWAP1 REVERT JUMPDEST POP CALLVALUE PUSH2 0x4CD JUMPI DUP1 PUSH1 0x3 NOT CALLDATASIZE ADD SLT PUSH2 0x4CD JUMPI PUSH1 0x20 PUSH1 0x25 SLOAD PUSH1 0x40 MLOAD SWAP1 DUP2 MSTORE RETURN JUMPDEST POP CALLVALUE PUSH2 0x4CD JUMPI DUP1 PUSH1 0x3 NOT CALLDATASIZE ADD SLT PUSH2 0x4CD JUMPI PUSH1 0x0 DUP1 MLOAD PUSH1 0x20 PUSH2 0x6126 DUP4 CODECOPY DUP2 MLOAD SWAP2 MSTORE DUP2 MSTORE PUSH1 0x20 SWAP1 PUSH1 0x18 DUP3 MSTORE PUSH1 0x40 DUP2 KECCAK256 CALLER PUSH1 0x0 MSTORE DUP3 MSTORE PUSH1 0xFF PUSH1 0x40 PUSH1 0x0 KECCAK256 SLOAD AND DUP1 ISZERO PUSH2 0x914 JUMPI JUMPDEST PUSH2 0x63F SWAP1 PUSH2 0x541D JUMP JUMPDEST PUSH2 0x647 PUSH2 0x5676 JUMP JUMPDEST PUSH1 0x9 SLOAD ISZERO PUSH2 0x8CF JUMPI PUSH1 0x0 NOT NUMBER ADD SWAP2 NUMBER DUP4 GT PUSH2 0x8BB JUMPI PUSH1 0x12 SWAP2 PUSH1 0x12 SLOAD SWAP4 PUSH1 0x40 MLOAD DUP4 DUP2 ADD SWAP1 TIMESTAMP DUP3 MSTORE PREVRANDAO PUSH1 0x40 DUP3 ADD MSTORE PUSH1 0x60 SWAP3 BLOCKHASH PUSH1 0x60 DUP3 ADD MSTORE PUSH1 0x80 SWAP7 CALLER PUSH1 0x60 SHL PUSH1 0x80 DUP4 ADD MSTORE PUSH1 0x94 DUP3 ADD MSTORE PUSH1 0x94 DUP2 MSTORE PUSH2 0x69A DUP2 PUSH2 0x4F06 JUMP JUMPDEST MLOAD SWAP1 KECCAK256 SWAP4 PUSH2 0x6AA DUP6 PUSH1 0x4 SLOAD PUSH2 0x5D9B JUMP JUMPDEST PUSH1 0x5 SLOAD PUSH1 0x3 SHR SWAP1 DUP5 JUMPDEST DUP2 MLOAD DUP2 LT ISZERO PUSH2 0x82D JUMPI PUSH1 0x1 PUSH1 0x1 PUSH1 0xA0 SHL SUB DUP1 PUSH2 0x6CF DUP4 DUP6 PUSH2 0x54C7 JUMP JUMPDEST MLOAD AND PUSH2 0x6DF JUMPI JUMPDEST POP PUSH1 0x1 ADD PUSH2 0x6B3 JUMP JUMPDEST PUSH2 0x721 DUP9 DUP6 DUP4 PUSH2 0x6EF DUP7 DUP9 PUSH2 0x54C7 JUMP JUMPDEST MLOAD PUSH1 0x40 MLOAD PUSH4 0xA9059CBB PUSH1 0xE0 SHL DUP2 MSTORE SWAP2 AND PUSH1 0x1 PUSH1 0x1 PUSH1 0xA0 SHL SUB AND PUSH1 0x4 DUP3 ADD MSTORE PUSH1 0x24 DUP2 ADD SWAP2 SWAP1 SWAP2 MSTORE SWAP2 DUP3 SWAP1 DUP2 SWAP1 PUSH1 0x44 DUP3 ADD SWAP1 JUMP JUMPDEST SUB DUP2 DUP12 DUP7 PUSH32 0x0 AND GAS CALL SWAP1 DUP2 ISZERO PUSH2 0x822 JUMPI SWAP1 PUSH2 0x762 SWAP2 DUP10 SWAP2 PUSH2 0x7F5 JUMPI JUMPDEST POP PUSH2 0x55C3 JUMP JUMPDEST DUP1 PUSH2 0x76D DUP4 DUP6 PUSH2 0x54C7 JUMP JUMPDEST MLOAD AND DUP8 MSTORE PUSH1 0x1A DUP9 MSTORE PUSH1 0x40 DUP8 KECCAK256 SWAP1 DUP2 SLOAD PUSH1 0xA SWAP3 DUP4 DUP3 ADD DUP1 SWAP3 GT PUSH2 0x7E1 JUMPI PUSH1 0x1 SWAP5 SWAP4 SWAP3 PUSH1 0x0 DUP1 MLOAD PUSH1 0x20 PUSH2 0x6146 DUP4 CODECOPY DUP2 MLOAD SWAP2 MSTORE SWAP3 DUP15 SWAP3 SSTORE PUSH2 0x7AB DUP6 DUP9 PUSH2 0x54C7 JUMP JUMPDEST MLOAD AND SWAP3 PUSH1 0x40 MLOAD SWAP1 DUP2 MSTORE PUSH1 0x40 DUP13 DUP3 ADD MSTORE DUP9 PUSH1 0x40 DUP3 ADD MSTORE PUSH18 0x4461696C792077696E6E657220626F6E7573 PUSH1 0x70 SHL DUP11 DUP3 ADD MSTORE LOG2 SWAP1 PUSH2 0x6D6 JUMP JUMPDEST PUSH4 0x4E487B71 PUSH1 0xE0 SHL DUP11 MSTORE PUSH1 0x11 PUSH1 0x4 MSTORE PUSH1 0x24 DUP11 REVERT JUMPDEST PUSH2 0x815 SWAP2 POP DUP11 RETURNDATASIZE DUP13 GT PUSH2 0x81B JUMPI JUMPDEST PUSH2 0x80D DUP2 DUP4 PUSH2 0x4F3D JUMP JUMPDEST DUP2 ADD SWAP1 PUSH2 0x54FB JUMP JUMPDEST CODESIZE PUSH2 0x75C JUMP JUMPDEST POP RETURNDATASIZE PUSH2 0x803 JUMP JUMPDEST PUSH1 0x40 MLOAD RETURNDATASIZE DUP11 DUP3 RETURNDATACOPY RETURNDATASIZE SWAP1 REVERT JUMPDEST DUP6 PUSH32 0x9F22D2B65D1E9BEF93DA4067644E4EAD3BD41C9D3FC8568887CC572B482E6CB7 DUP9 DUP11 PUSH2 0x8AD DUP7 PUSH1 0x4 SLOAD SWAP3 PUSH32 0xDD1C72FCDA97FCFC2FE124C4AA194986CACA752D3769C00A6495659509D7B19B PUSH2 0x88E PUSH1 0x5 SLOAD PUSH1 0x40 MLOAD SWAP2 DUP3 SWAP2 DUP7 DUP10 DUP5 PUSH2 0x5594 JUMP JUMPDEST SUB SWAP1 LOG1 PUSH1 0x40 MLOAD SWAP5 DUP6 SWAP5 DUP6 MSTORE DUP5 ADD MSTORE PUSH1 0x60 PUSH1 0x40 DUP5 ADD MSTORE PUSH1 0x60 DUP4 ADD SWAP1 PUSH2 0x5557 JUMP JUMPDEST SUB SWAP1 LOG1 PUSH2 0x8B8 PUSH2 0x596B JUMP JUMPDEST DUP1 RETURN JUMPDEST PUSH4 0x4E487B71 PUSH1 0xE0 SHL DUP3 MSTORE PUSH1 0x11 PUSH1 0x4 MSTORE PUSH1 0x24 DUP3 REVERT JUMPDEST PUSH1 0x40 MLOAD PUSH3 0x461BCD PUSH1 0xE5 SHL DUP2 MSTORE PUSH1 0x4 DUP2 ADD DUP4 SWAP1 MSTORE PUSH1 0x1D PUSH1 0x24 DUP3 ADD MSTORE PUSH32 0x4E6F2072616E646F6D6E65737320726F756E6420726571756573746564000000 PUSH1 0x44 DUP3 ADD MSTORE PUSH1 0x64 SWAP1 REVERT JUMPDEST POP PUSH1 0x1 SLOAD PUSH1 0x1 PUSH1 0x1 PUSH1 0xA0 SHL SUB AND CALLER EQ PUSH2 0x636 JUMP JUMPDEST POP CALLVALUE PUSH2 0x4CD JUMPI PUSH1 0x20 CALLDATASIZE PUSH1 0x3 NOT ADD SLT PUSH2 0x4CD JUMPI PUSH1 0x4 CALLDATALOAD DUP1 ISZERO ISZERO SWAP1 DUP2 DUP2 SUB PUSH2 0xA4A JUMPI PUSH2 0x950 PUSH2 0x564A JUMP JUMPDEST ISZERO PUSH2 0x9CA JUMPI PUSH1 0x20 PUSH32 0xB80D1AE5628C2AF91424C54C87ACFD15016BE4BEBEEF0425B328238702F34831 SWAP2 PUSH2 0x981 PUSH2 0x5676 JUMP JUMPDEST PUSH1 0x1 DUP1 SLOAD PUSH1 0xFF PUSH1 0xA0 SHL NOT AND PUSH1 0x1 PUSH1 0xA0 SHL OR SWAP1 SSTORE PUSH1 0x40 MLOAD CALLER DUP2 MSTORE PUSH32 0x62E78CEA01BEE320CD4E420270B5EA74000D11B0C9F74754EBDBFC544B05A258 SWAP1 DUP4 SWAP1 LOG1 JUMPDEST PUSH1 0x40 MLOAD SWAP1 DUP2 MSTORE LOG1 DUP1 RETURN JUMPDEST PUSH1 0x1 SLOAD PUSH1 0xFF DUP2 PUSH1 0xA0 SHR AND ISZERO PUSH2 0xA38 JUMPI PUSH1 0xFF PUSH1 0xA0 SHL NOT AND PUSH1 0x1 SSTORE PUSH1 0x40 MLOAD CALLER DUP2 MSTORE PUSH32 0xB80D1AE5628C2AF91424C54C87ACFD15016BE4BEBEEF0425B328238702F34831 SWAP2 PUSH1 0x20 SWAP2 PUSH32 0x5DB9EE0A495BF2E6FF9C91A7834C1BA4FDD244A5E8AA4E537BD38AEAE4B073AA SWAP1 DUP4 SWAP1 LOG1 PUSH2 0x9C0 JUMP JUMPDEST PUSH1 0x40 MLOAD PUSH4 0x8DFC202B PUSH1 0xE0 SHL DUP2 MSTORE PUSH1 0x4 SWAP1 REVERT JUMPDEST PUSH1 0x0 DUP1 REVERT JUMPDEST POP CALLVALUE PUSH2 0x4CD JUMPI PUSH1 0x20 CALLDATASIZE PUSH1 0x3 NOT ADD SLT PUSH2 0x4CD JUMPI PUSH1 0x4 CALLDATALOAD PUSH32 0xBF233DD2AAFEB4D50879C4AA5C81E96D92F6E6945C906A58F9F2D1C1631B4B26 DUP3 MSTORE PUSH1 0x18 PUSH1 0x20 MSTORE PUSH1 0x40 DUP3 KECCAK256 CALLER PUSH1 0x0 MSTORE PUSH1 0x20 MSTORE PUSH1 0xFF PUSH1 0x40 PUSH1 0x0 KECCAK256 SLOAD AND DUP1 ISZERO PUSH2 0xAED JUMPI JUMPDEST PUSH2 0xAB0 SWAP1 PUSH2 0x541D JUMP JUMPDEST DUP1 DUP3 MSTORE PUSH1 0x13 PUSH1 0x20 MSTORE PUSH1 0x40 DUP3 KECCAK256 DUP1 SLOAD PUSH1 0xFF NOT AND SWAP1 SSTORE CALLER SWAP1 PUSH32 0x6D01469F672CD6CB0434A128CAC9B91DC60A83E67A56BE9FB5F265C18D29C7C5 DUP4 DUP1 LOG3 DUP1 RETURN JUMPDEST POP PUSH1 0x1 SLOAD PUSH1 0x1 PUSH1 0x1 PUSH1 0xA0 SHL SUB AND CALLER EQ PUSH2 0xAA7 JUMP JUMPDEST PUSH2 0x5243 JUMP JUMPDEST POP CALLVALUE PUSH2 0x4CD JUMPI DUP1 PUSH1 0x3 NOT CALLDATASIZE ADD SLT PUSH2 0x4CD JUMPI PUSH1 0x20 PUSH1 0x5 SLOAD PUSH1 0x40 MLOAD SWAP1 DUP2 MSTORE RETURN JUMPDEST POP CALLVALUE PUSH2 0x4CD JUMPI PUSH1 0x40 CALLDATASIZE PUSH1 0x3 NOT ADD SLT PUSH2 0x4CD JUMPI PUSH2 0xB3E PUSH2 0x5676 JUMP JUMPDEST PUSH1 0x2 SLOAD DUP2 SWAP1 PUSH1 0x1 PUSH1 0x1 PUSH1 0xA0 SHL SUB AND DUP1 EXTCODESIZE ISZERO PUSH2 0xBA3 JUMPI DUP2 DUP1 SWAP2 PUSH1 0x44 PUSH1 0x40 MLOAD DUP1 SWAP5 DUP2 SWAP4 PUSH4 0x39A8F677 PUSH1 0xE2 SHL DUP4 MSTORE PUSH1 0x4 CALLDATALOAD PUSH1 0x4 DUP5 ADD MSTORE PUSH1 0x24 CALLDATALOAD PUSH1 0x24 DUP5 ADD MSTORE GAS CALL DUP1 ISZERO PUSH2 0xB98 JUMPI PUSH2 0xB88 JUMPI POP RETURN JUMPDEST PUSH2 0xB91 SWAP1 PUSH2 0x4EA2 JUMP JUMPDEST PUSH2 0x4CD JUMPI DUP1 RETURN JUMPDEST PUSH1 0x40 MLOAD RETURNDATASIZE DUP5 DUP3 RETURNDATACOPY RETURNDATASIZE SWAP1 REVERT JUMPDEST POP REVERT JUMPDEST POP CALLVALUE PUSH2 0x4CD JUMPI PUSH1 0x20 CALLDATASIZE PUSH1 0x3 NOT ADD SLT PUSH2 0x4CD JUMPI PUSH1 0x1 PUSH1 0x1 PUSH1 0xA0 SHL SUB PUSH2 0xBC8 PUSH2 0x4DAD JUMP JUMPDEST AND DUP2 MSTORE PUSH1 0x1A PUSH1 0x20 MSTORE PUSH1 0x40 SWAP1 KECCAK256 DUP1 DUP1 DUP1 SLOAD PUSH1 0x1 DUP3 ADD SLOAD PUSH1 0xC0 MSTORE PUSH1 0x2 DUP3 ADD SLOAD PUSH1 0x3 DUP4 ADD SLOAD PUSH1 0x4 DUP5 ADD SLOAD PUSH1 0x5 DUP6 ADD SLOAD PUSH1 0x6 DUP7 ADD SLOAD PUSH1 0xFF AND PUSH1 0x7 DUP8 ADD SLOAD SWAP1 PUSH1 0x8 DUP9 ADD SLOAD SWAP3 PUSH1 0x9 DUP10 ADD SLOAD SWAP5 PUSH1 0xA DUP11 ADD SLOAD SWAP7 PUSH1 0xB DUP12 ADD SLOAD SWAP9 PUSH1 0xC DUP13 ADD SLOAD SWAP11 PUSH1 0xD DUP14 ADD SLOAD PUSH1 0xFF AND SWAP13 PUSH1 0xE ADD SLOAD SWAP14 PUSH1 0xF ADD SLOAD SWAP15 PUSH1 0x10 ADD SLOAD PUSH1 0xFF AND PUSH1 0x80 MSTORE PUSH1 0x40 MLOAD PUSH1 0xA0 MSTORE PUSH1 0xA0 MLOAD MSTORE PUSH1 0xC0 MLOAD PUSH1 0xA0 MLOAD PUSH1 0x20 ADD MSTORE PUSH1 0xA0 MLOAD PUSH1 0x40 ADD MSTORE PUSH1 0xA0 MLOAD PUSH1 0x60 ADD MSTORE PUSH1 0xA0 MLOAD PUSH1 0x80 ADD MSTORE PUSH1 0xA0 MLOAD PUSH1 0xA0 ADD MSTORE ISZERO ISZERO PUSH1 0xA0 MLOAD PUSH1 0xC0 ADD MSTORE PUSH1 0xA0 MLOAD PUSH1 0xE0 ADD MSTORE PUSH1 0xA0 MLOAD PUSH2 0x100 ADD MSTORE PUSH1 0xA0 MLOAD PUSH2 0x120 ADD MSTORE PUSH1 0xA0 MLOAD PUSH2 0x140 ADD MSTORE PUSH1 0xA0 MLOAD PUSH2 0x160 ADD MSTORE PUSH1 0xA0 MLOAD PUSH2 0x180 ADD MSTORE ISZERO ISZERO PUSH1 0xA0 MLOAD PUSH2 0x1A0 ADD MSTORE PUSH1 0xA0 MLOAD PUSH2 0x1C0 ADD MSTORE PUSH1 0xA0 MLOAD PUSH2 0x1E0 ADD MSTORE PUSH1 0x80 MLOAD ISZERO ISZERO PUSH1 0xA0 MLOAD PUSH2 0x200 ADD MSTORE PUSH1 0xA0 MLOAD PUSH2 0x220 SWAP1 RETURN JUMPDEST POP CALLVALUE PUSH2 0x4CD JUMPI DUP1 PUSH1 0x3 NOT CALLDATASIZE ADD SLT PUSH2 0x4CD JUMPI PUSH2 0xCEE PUSH2 0x56F4 JUMP JUMPDEST PUSH2 0xCF6 PUSH2 0x5676 JUMP JUMPDEST CALLER DUP2 MSTORE PUSH1 0x20 PUSH1 0x1E DUP2 MSTORE PUSH2 0xD10 PUSH1 0xFF PUSH1 0x40 DUP5 KECCAK256 SLOAD AND ISZERO PUSH2 0x52A7 JUMP JUMPDEST CALLER DUP3 MSTORE PUSH1 0x1A DUP1 DUP3 MSTORE PUSH2 0xD2C PUSH1 0xFF PUSH1 0x6 PUSH1 0x40 DUP7 KECCAK256 ADD SLOAD AND ISZERO PUSH2 0x52A7 JUMP JUMPDEST CALLER DUP4 MSTORE DUP1 DUP3 MSTORE PUSH1 0xC PUSH1 0x40 DUP5 KECCAK256 ADD SLOAD PUSH3 0x15180 DUP2 ADD DUP1 SWAP2 GT PUSH2 0xE97 JUMPI PUSH2 0xD53 SWAP1 TIMESTAMP LT ISZERO PUSH2 0x52EB JUMP JUMPDEST CALLER DUP4 MSTORE DUP1 DUP3 MSTORE PUSH2 0xD6C PUSH1 0x64 PUSH1 0xE PUSH1 0x40 DUP7 KECCAK256 ADD SLOAD LT PUSH2 0x5337 JUMP JUMPDEST CALLER DUP4 MSTORE DUP1 DUP3 MSTORE PUSH1 0xFF PUSH1 0xD PUSH1 0x40 DUP6 KECCAK256 ADD SLOAD AND PUSH2 0xF4B JUMPI CALLER DUP4 MSTORE DUP1 DUP3 MSTORE PUSH1 0x1 PUSH1 0x9 PUSH1 0x40 DUP6 KECCAK256 ADD SLOAD LT PUSH2 0xF06 JUMPI CALLER PUSH1 0x0 MSTORE DUP2 DUP1 MSTORE PUSH1 0x40 PUSH1 0x0 KECCAK256 SLOAD PUSH1 0x5 DUP2 ADD DUP1 SWAP2 GT PUSH2 0xEAB JUMPI PUSH1 0x64 DUP2 GT PUSH2 0xEC1 JUMPI CALLER PUSH1 0x0 MSTORE DUP3 DUP1 MSTORE PUSH1 0x40 PUSH1 0x0 KECCAK256 SSTORE DUP1 DUP3 MSTORE PUSH1 0xE PUSH1 0x40 PUSH1 0x0 KECCAK256 ADD SLOAD PUSH1 0x5 DUP2 ADD DUP1 SWAP2 GT PUSH2 0xEAB JUMPI CALLER PUSH1 0x0 MSTORE DUP2 DUP4 MSTORE PUSH1 0xE PUSH1 0x40 PUSH1 0x0 KECCAK256 ADD SSTORE CALLER DUP4 MSTORE DUP1 DUP3 MSTORE PUSH1 0x40 DUP4 KECCAK256 PUSH1 0xD DUP2 ADD PUSH1 0x1 PUSH1 0xFF NOT DUP3 SLOAD AND OR SWAP1 SSTORE SLOAD SWAP1 PUSH1 0x5 DUP3 ADD DUP1 SWAP3 GT PUSH2 0xE97 JUMPI CALLER DUP5 MSTORE DUP3 MSTORE PUSH1 0x40 DUP4 KECCAK256 SWAP1 DUP2 SSTORE PUSH1 0xC TIMESTAMP SWAP2 ADD SSTORE PUSH1 0x40 MLOAD PUSH1 0x5 DUP2 MSTORE PUSH32 0x666FF46B6B5A0789C7D628ECFA8A5975B192B7D3541FC30B22DA07A9B3D4DDBC DUP3 CALLER SWAP3 LOG2 PUSH1 0x40 DUP1 MLOAD SWAP2 PUSH1 0x5 DUP4 MSTORE DUP3 ADD MSTORE PUSH1 0x12 PUSH1 0x40 DUP3 ADD MSTORE PUSH18 0x119A5C9CDD081BDC99195C881C995DD85C99 PUSH1 0x72 SHL PUSH1 0x60 DUP3 ADD MSTORE PUSH1 0x0 DUP1 MLOAD PUSH1 0x20 PUSH2 0x6146 DUP4 CODECOPY DUP2 MLOAD SWAP2 MSTORE PUSH1 0x80 CALLER SWAP3 LOG2 PUSH1 0x1 DUP2 SSTORE DUP1 RETURN JUMPDEST PUSH4 0x4E487B71 PUSH1 0xE0 SHL DUP5 MSTORE PUSH1 0x11 PUSH1 0x4 MSTORE PUSH1 0x24 DUP5 REVERT JUMPDEST PUSH4 0x4E487B71 PUSH1 0xE0 SHL PUSH1 0x0 MSTORE PUSH1 0x11 PUSH1 0x4 MSTORE PUSH1 0x24 PUSH1 0x0 REVERT JUMPDEST PUSH1 0x40 MLOAD PUSH3 0x461BCD PUSH1 0xE5 SHL DUP2 MSTORE PUSH1 0x4 DUP2 ADD DUP5 SWAP1 MSTORE PUSH1 0x1B PUSH1 0x24 DUP3 ADD MSTORE PUSH32 0x4461696C7920726577617264206C696D69742065786365656465640000000000 PUSH1 0x44 DUP3 ADD MSTORE PUSH1 0x64 SWAP1 REVERT JUMPDEST PUSH1 0x40 MLOAD PUSH3 0x461BCD PUSH1 0xE5 SHL DUP2 MSTORE PUSH1 0x4 DUP2 ADD DUP4 SWAP1 MSTORE PUSH1 0x18 PUSH1 0x24 DUP3 ADD MSTORE PUSH32 0x4E6F206669727374206F7264657220636F6D706C657465640000000000000000 PUSH1 0x44 DUP3 ADD MSTORE PUSH1 0x64 SWAP1 REVERT JUMPDEST PUSH1 0x40 MLOAD PUSH3 0x461BCD PUSH1 0xE5 SHL DUP2 MSTORE PUSH1 0x4 DUP2 ADD DUP4 SWAP1 MSTORE PUSH1 0x22 PUSH1 0x24 DUP3 ADD MSTORE PUSH32 0x4669727374206F726465722072657761726420616C726561647920636C61696D PUSH1 0x44 DUP3 ADD MSTORE PUSH2 0x1959 PUSH1 0xF2 SHL PUSH1 0x64 DUP3 ADD MSTORE PUSH1 0x84 SWAP1 REVERT JUMPDEST POP CALLVALUE PUSH2 0x4CD JUMPI DUP1 PUSH1 0x3 NOT CALLDATASIZE ADD SLT PUSH2 0x4CD JUMPI PUSH1 0x20 PUSH1 0x40 MLOAD PUSH1 0x1 DUP2 MSTORE RETURN JUMPDEST POP CALLVALUE PUSH2 0x4CD JUMPI DUP1 PUSH1 0x3 NOT CALLDATASIZE ADD SLT PUSH2 0x4CD JUMPI PUSH2 0xFD0 PUSH2 0x564A JUMP JUMPDEST PUSH1 0x40 MLOAD PUSH4 0x70A08231 PUSH1 0xE0 SHL DUP2 MSTORE ADDRESS PUSH1 0x4 DUP3 ADD MSTORE PUSH1 0x20 SWAP1 PUSH1 0x1 PUSH1 0x1 PUSH1 0xA0 SHL SUB PUSH32 0x0 DUP2 AND SWAP1 DUP4 DUP4 PUSH1 0x24 DUP2 DUP6 GAS STATICCALL SWAP3 DUP4 ISZERO PUSH2 0x114B JUMPI DUP6 SWAP4 PUSH2 0x111C JUMPI JUMPDEST POP DUP3 ISZERO PUSH2 0x10DE JUMPI PUSH1 0x1 SLOAD PUSH1 0x40 MLOAD PUSH4 0xA9059CBB PUSH1 0xE0 SHL DUP2 MSTORE SWAP2 AND PUSH1 0x1 PUSH1 0x1 PUSH1 0xA0 SHL SUB AND PUSH1 0x4 DUP3 ADD MSTORE PUSH1 0x24 DUP2 ADD SWAP3 SWAP1 SWAP3 MSTORE DUP3 SWAP1 DUP3 SWAP1 DUP2 DUP7 DUP2 PUSH1 0x44 DUP2 ADD SUB SWAP3 GAS CALL SWAP1 DUP2 ISZERO PUSH2 0x10D3 JUMPI DUP4 SWAP2 PUSH2 0x10B6 JUMPI JUMPDEST POP ISZERO PUSH2 0x107E JUMPI POP DUP1 RETURN JUMPDEST PUSH1 0x64 SWAP1 PUSH1 0x40 MLOAD SWAP1 PUSH3 0x461BCD PUSH1 0xE5 SHL DUP3 MSTORE PUSH1 0x4 DUP3 ADD MSTORE PUSH1 0x11 PUSH1 0x24 DUP3 ADD MSTORE PUSH17 0x15DA5D1A191C985DD85B0819985A5B1959 PUSH1 0x7A SHL PUSH1 0x44 DUP3 ADD MSTORE REVERT JUMPDEST PUSH2 0x10CD SWAP2 POP DUP3 RETURNDATASIZE DUP5 GT PUSH2 0x81B JUMPI PUSH2 0x80D DUP2 DUP4 PUSH2 0x4F3D JUMP JUMPDEST CODESIZE PUSH2 0x1074 JUMP JUMPDEST PUSH1 0x40 MLOAD RETURNDATASIZE DUP6 DUP3 RETURNDATACOPY RETURNDATASIZE SWAP1 REVERT JUMPDEST PUSH1 0x40 MLOAD PUSH3 0x461BCD PUSH1 0xE5 SHL DUP2 MSTORE PUSH1 0x4 DUP2 ADD DUP6 SWAP1 MSTORE PUSH1 0x16 PUSH1 0x24 DUP3 ADD MSTORE PUSH22 0x4E6F2062616C616E636520746F207769746864726177 PUSH1 0x50 SHL PUSH1 0x44 DUP3 ADD MSTORE PUSH1 0x64 SWAP1 REVERT JUMPDEST SWAP1 SWAP3 POP DUP4 DUP2 DUP2 RETURNDATASIZE DUP4 GT PUSH2 0x1144 JUMPI JUMPDEST PUSH2 0x1134 DUP2 DUP4 PUSH2 0x4F3D JUMP JUMPDEST DUP2 ADD SUB SLT PUSH2 0xA4A JUMPI MLOAD SWAP2 CODESIZE PUSH2 0x1028 JUMP JUMPDEST POP RETURNDATASIZE PUSH2 0x112A JUMP JUMPDEST PUSH1 0x40 MLOAD RETURNDATASIZE DUP8 DUP3 RETURNDATACOPY RETURNDATASIZE SWAP1 REVERT JUMPDEST POP CALLVALUE PUSH2 0x4CD JUMPI DUP1 PUSH1 0x3 NOT CALLDATASIZE ADD SLT PUSH2 0x4CD JUMPI PUSH1 0x20 PUSH1 0x40 MLOAD PUSH8 0x8AC7230489E80000 DUP2 MSTORE RETURN JUMPDEST POP CALLVALUE PUSH2 0x4CD JUMPI PUSH1 0x20 CALLDATASIZE PUSH1 0x3 NOT ADD SLT PUSH2 0x4CD JUMPI PUSH1 0x40 PUSH1 0x20 SWAP2 PUSH1 0x4 CALLDATALOAD DUP2 MSTORE PUSH1 0xD DUP4 MSTORE KECCAK256 SLOAD PUSH1 0x40 MLOAD SWAP1 DUP2 MSTORE RETURN JUMPDEST POP CALLVALUE PUSH2 0x4CD JUMPI PUSH1 0x20 CALLDATASIZE PUSH1 0x3 NOT ADD SLT PUSH2 0x4CD JUMPI PUSH1 0x20 SWAP1 PUSH1 0xFF SWAP1 PUSH1 0x40 SWAP1 PUSH1 0x1 PUSH1 0x1 PUSH1 0xA0 SHL SUB PUSH2 0x11CE PUSH2 0x4DAD JUMP JUMPDEST AND DUP2 MSTORE PUSH1 0x1E DUP5 MSTORE KECCAK256 SLOAD AND PUSH1 0x40 MLOAD SWAP1 ISZERO ISZERO DUP2 MSTORE RETURN JUMPDEST POP CALLVALUE PUSH2 0x4CD JUMPI PUSH1 0x40 CALLDATASIZE PUSH1 0x3 NOT ADD SLT PUSH2 0x4CD JUMPI PUSH1 0x4 CALLDATALOAD PUSH2 0x11FF PUSH2 0x4DC3 JUMP JUMPDEST DUP2 DUP4 MSTORE PUSH1 0x19 PUSH1 0x20 MSTORE PUSH1 0x40 DUP4 KECCAK256 SLOAD PUSH1 0x1 PUSH1 0x1 PUSH1 0xA0 SHL SUB SWAP2 SWAP1 DUP3 AND CALLER EQ DUP1 ISZERO PUSH2 0x127F JUMPI JUMPDEST PUSH2 0x122A SWAP1 PUSH2 0x5383 JUMP JUMPDEST AND PUSH2 0x1236 DUP2 ISZERO ISZERO PUSH2 0x53DF JUMP JUMPDEST DUP2 DUP4 MSTORE PUSH1 0x18 PUSH1 0x20 MSTORE PUSH1 0x40 DUP4 KECCAK256 DUP2 PUSH1 0x0 MSTORE PUSH1 0x20 MSTORE PUSH1 0x40 PUSH1 0x0 KECCAK256 PUSH1 0xFF NOT DUP2 SLOAD AND SWAP1 SSTORE CALLER SWAP2 PUSH32 0xF6391F5C32D9C69D2A47EA670B442974B53935D1EDC7FD64EB21E047A839171B DUP5 DUP1 LOG4 DUP1 RETURN JUMPDEST POP PUSH1 0x1 SLOAD DUP3 AND CALLER EQ PUSH2 0x1221 JUMP JUMPDEST POP CALLVALUE PUSH2 0x4CD JUMPI PUSH1 0x20 CALLDATASIZE PUSH1 0x3 NOT ADD SLT PUSH2 0x4CD JUMPI PUSH1 0x40 PUSH1 0x20 SWAP2 PUSH1 0x4 CALLDATALOAD DUP2 MSTORE PUSH1 0x14 DUP4 MSTORE KECCAK256 SLOAD PUSH1 0x40 MLOAD SWAP1 DUP2 MSTORE RETURN JUMPDEST PUSH2 0x5004 JUMP JUMPDEST POP CALLVALUE PUSH2 0x4CD JUMPI PUSH1 0x20 CALLDATASIZE PUSH1 0x3 NOT ADD SLT PUSH2 0x4CD JUMPI PUSH1 0x40 PUSH1 0x20 SWAP2 PUSH1 0x4 CALLDATALOAD DUP2 MSTORE PUSH1 0xF DUP4 MSTORE KECCAK256 SLOAD PUSH1 0x40 MLOAD SWAP1 DUP2 MSTORE RETURN JUMPDEST POP CALLVALUE PUSH2 0x4CD JUMPI DUP1 PUSH1 0x3 NOT CALLDATASIZE ADD SLT PUSH2 0x4CD JUMPI PUSH2 0x12FE PUSH2 0x5676 JUMP JUMPDEST PUSH1 0x11 DUP1 SLOAD PUSH2 0xE10 DUP2 ADD DUP1 SWAP2 GT PUSH2 0x150C JUMPI TIMESTAMP LT PUSH2 0x14C7 JUMPI PUSH1 0x0 NOT NUMBER ADD SWAP2 NUMBER DUP4 GT PUSH2 0x14B5 JUMPI PUSH1 0x1 NOT NUMBER ADD NUMBER DUP2 GT PUSH2 0x14A2 JUMPI PUSH1 0x12 SLOAD SWAP4 PUSH1 0x1 DUP1 PUSH1 0xA0 SHL SUB PUSH1 0x2 SLOAD AND SWAP2 PUSH1 0x40 MLOAD DUP1 SWAP4 PUSH4 0xC142E495 PUSH1 0xE0 SHL DUP3 MSTORE DUP2 PUSH1 0x4 PUSH1 0x20 SWAP7 DUP8 SWAP4 GAS STATICCALL SWAP1 DUP2 ISZERO PUSH2 0x114B JUMPI DUP6 SWAP2 PUSH2 0x1475 JUMPI JUMPDEST POP PUSH1 0x40 MLOAD SWAP1 DUP5 DUP3 ADD SWAP3 TIMESTAMP DUP5 MSTORE PREVRANDAO PUSH1 0x40 DUP5 ADD MSTORE PUSH1 0x60 SWAP5 BLOCKHASH PUSH1 0x60 DUP5 ADD MSTORE BLOCKHASH PUSH1 0x80 DUP4 ADD MSTORE CALLER PUSH1 0x60 SHL PUSH1 0xA0 DUP4 ADD MSTORE DUP8 PUSH1 0xB4 DUP4 ADD MSTORE PUSH1 0xD4 DUP3 ADD MSTORE PUSH1 0xD4 DUP2 MSTORE PUSH2 0x13A6 DUP2 PUSH2 0x4E86 JUMP JUMPDEST MLOAD SWAP1 KECCAK256 DUP4 SWAP1 JUMPDEST DUP7 DUP3 MSTORE PUSH1 0x10 DUP5 MSTORE PUSH1 0x40 DUP3 KECCAK256 DUP1 SLOAD DUP7 LT ISZERO PUSH2 0x1408 JUMPI SWAP1 PUSH2 0x13CD DUP7 PUSH1 0x1 SWAP4 PUSH2 0x4DEF JUMP JUMPDEST SWAP1 SLOAD SWAP1 PUSH1 0x40 MLOAD SWAP2 DUP8 DUP4 ADD SWAP4 DUP5 MSTORE PUSH1 0x1 PUSH1 0x1 PUSH1 0x60 SHL SUB NOT SWAP2 PUSH1 0x3 SHL SHR DUP7 SHL AND PUSH1 0x40 DUP3 ADD MSTORE PUSH1 0x34 DUP2 MSTORE PUSH2 0x13FD DUP2 PUSH2 0x4EEB JUMP JUMPDEST MLOAD SWAP1 KECCAK256 SWAP5 ADD SWAP4 PUSH2 0x13AC JUMP JUMPDEST POP SWAP2 POP DUP5 DUP7 DUP3 MSTORE PUSH1 0xE DUP5 MSTORE DUP3 PUSH1 0x40 DUP4 KECCAK256 SSTORE TIMESTAMP DUP2 SSTORE PUSH1 0x12 SLOAD SWAP2 PUSH1 0x1 DUP4 ADD SWAP2 DUP3 DUP5 GT PUSH2 0x1462 JUMPI POP POP PUSH1 0x12 SSTORE PUSH32 0x716AEB9158D0411549D0EA0300D76E79332E89EC7EB7B7C475EFA863E7B9D00F DUP4 PUSH1 0x40 MLOAD DUP5 DUP2 MSTORE LOG2 PUSH1 0x40 MLOAD SWAP1 DUP2 MSTORE RETURN JUMPDEST PUSH4 0x4E487B71 PUSH1 0xE0 SHL DUP3 MSTORE PUSH1 0x4 MSTORE PUSH1 0x24 SWAP2 POP REVERT JUMPDEST SWAP1 POP DUP4 DUP2 DUP2 RETURNDATASIZE DUP4 GT PUSH2 0x149B JUMPI JUMPDEST PUSH2 0x148C DUP2 DUP4 PUSH2 0x4F3D JUMP JUMPDEST DUP2 ADD SUB SLT PUSH2 0xA4A JUMPI MLOAD CODESIZE PUSH2 0x1364 JUMP JUMPDEST POP RETURNDATASIZE PUSH2 0x1482 JUMP JUMPDEST POP PUSH1 0x24 SWAP2 PUSH4 0x4E487B71 PUSH1 0xE0 SHL DUP3 MSTORE PUSH1 0x4 MSTORE REVERT JUMPDEST PUSH1 0x24 SWAP2 PUSH4 0x4E487B71 PUSH1 0xE0 SHL DUP3 MSTORE PUSH1 0x4 MSTORE REVERT JUMPDEST PUSH1 0x40 MLOAD PUSH3 0x461BCD PUSH1 0xE5 SHL DUP2 MSTORE PUSH1 0x20 PUSH1 0x4 DUP3 ADD MSTORE PUSH1 0x1B PUSH1 0x24 DUP3 ADD MSTORE PUSH32 0x456E74726F70792075706461746520746F6F206672657175656E740000000000 PUSH1 0x44 DUP3 ADD MSTORE PUSH1 0x64 SWAP1 REVERT JUMPDEST PUSH4 0x4E487B71 PUSH1 0xE0 SHL DUP4 MSTORE PUSH1 0x4 DUP3 SWAP1 MSTORE PUSH1 0x24 DUP4 REVERT JUMPDEST PUSH2 0x5037 JUMP JUMPDEST POP CALLVALUE PUSH2 0x4CD JUMPI DUP1 PUSH1 0x3 NOT CALLDATASIZE ADD SLT PUSH2 0x4CD JUMPI PUSH1 0x20 PUSH1 0x8 SLOAD PUSH1 0x40 MLOAD SWAP1 DUP2 MSTORE RETURN JUMPDEST POP CALLVALUE PUSH2 0x4CD JUMPI PUSH1 0x20 CALLDATASIZE PUSH1 0x3 NOT ADD SLT PUSH2 0x4CD JUMPI PUSH1 0xFF PUSH1 0x40 PUSH1 0x20 SWAP3 PUSH1 0x4 CALLDATALOAD DUP2 MSTORE PUSH1 0x24 DUP5 MSTORE KECCAK256 SLOAD AND PUSH1 0x40 MLOAD SWAP1 ISZERO ISZERO DUP2 MSTORE RETURN JUMPDEST POP CALLVALUE PUSH2 0x4CD JUMPI DUP1 PUSH1 0x3 NOT CALLDATASIZE ADD SLT PUSH2 0x4CD JUMPI PUSH1 0x20 PUSH1 0x9 SLOAD PUSH1 0x40 MLOAD SWAP1 DUP2 MSTORE RETURN JUMPDEST POP CALLVALUE PUSH2 0x4CD JUMPI PUSH1 0x20 CALLDATASIZE PUSH1 0x3 NOT ADD SLT PUSH2 0x4CD JUMPI PUSH1 0x20 SWAP1 PUSH1 0x3 PUSH1 0x40 PUSH2 0x15B1 PUSH2 0x4DAD JUMP JUMPDEST SWAP3 PUSH2 0x15C1 PUSH3 0x15180 TIMESTAMP MOD TIMESTAMP PUSH2 0x55B6 JUMP JUMPDEST PUSH1 0x1 PUSH1 0x1 PUSH1 0xA0 SHL SUB SWAP1 SWAP5 AND DUP2 MSTORE PUSH1 0x1A DUP6 MSTORE KECCAK256 ADD SLOAD PUSH1 0x40 MLOAD SWAP2 GT ISZERO DUP2 MSTORE RETURN JUMPDEST POP CALLVALUE PUSH2 0x4CD JUMPI DUP1 PUSH1 0x3 NOT CALLDATASIZE ADD SLT PUSH2 0x4CD JUMPI PUSH1 0x20 PUSH1 0x17 SLOAD PUSH1 0x40 MLOAD SWAP1 DUP2 MSTORE RETURN JUMPDEST POP CALLVALUE PUSH2 0x4CD JUMPI DUP1 PUSH1 0x3 NOT CALLDATASIZE ADD SLT PUSH2 0x4CD JUMPI PUSH2 0x1616 PUSH2 0x56F4 JUMP JUMPDEST PUSH2 0x161E PUSH2 0x5676 JUMP JUMPDEST CALLER DUP2 MSTORE PUSH1 0x20 PUSH1 0x1E DUP2 MSTORE PUSH2 0x1638 PUSH1 0xFF PUSH1 0x40 DUP5 KECCAK256 SLOAD AND ISZERO PUSH2 0x52A7 JUMP JUMPDEST CALLER DUP3 MSTORE PUSH1 0x1A DUP2 MSTORE PUSH2 0x1653 PUSH1 0xFF PUSH1 0x6 PUSH1 0x40 DUP6 KECCAK256 ADD SLOAD AND ISZERO PUSH2 0x52A7 JUMP JUMPDEST CALLER DUP3 MSTORE PUSH1 0x1A DUP2 MSTORE PUSH1 0x64 PUSH1 0xB PUSH1 0x40 DUP5 KECCAK256 ADD SLOAD LT ISZERO PUSH2 0x1890 JUMPI PUSH1 0x40 MLOAD PUSH4 0x70A08231 PUSH1 0xE0 SHL DUP2 MSTORE CALLER PUSH1 0x4 DUP3 ADD MSTORE SWAP1 PUSH1 0x24 PUSH32 0x0 PUSH1 0x1 PUSH1 0x1 PUSH1 0xA0 SHL SUB AND DUP3 DUP5 DUP4 DUP2 DUP5 GAS STATICCALL SWAP4 DUP5 ISZERO PUSH2 0x114B JUMPI DUP6 SWAP5 PUSH2 0x1861 JUMPI JUMPDEST POP PUSH8 0xDE0B6B3A7640000 DUP1 SWAP5 LT PUSH2 0x180A JUMPI DUP3 DUP6 SWAP2 PUSH1 0x64 PUSH1 0x40 MLOAD DUP1 SWAP5 DUP2 SWAP4 PUSH4 0x23B872DD PUSH1 0xE0 SHL DUP4 MSTORE CALLER PUSH1 0x4 DUP5 ADD MSTORE ADDRESS DUP9 DUP5 ADD MSTORE DUP10 PUSH1 0x44 DUP5 ADD MSTORE GAS CALL SWAP1 DUP2 ISZERO PUSH2 0x114B JUMPI DUP6 SWAP2 PUSH2 0x17ED JUMPI JUMPDEST POP ISZERO PUSH2 0x17AA JUMPI CALLER DUP5 MSTORE PUSH1 0x1A DUP3 MSTORE PUSH1 0xB PUSH1 0x40 DUP6 KECCAK256 ADD SLOAD PUSH1 0x1 DUP2 ADD DUP1 SWAP2 GT PUSH2 0x1797 JUMPI CALLER DUP6 MSTORE PUSH1 0x1A DUP4 MSTORE PUSH1 0xB PUSH1 0x40 DUP7 KECCAK256 ADD SSTORE PUSH1 0x6 SLOAD SWAP1 PUSH8 0x1BC16D674EC80000 DUP3 ADD DUP1 SWAP3 GT PUSH2 0x1783 JUMPI POP SWAP1 PUSH32 0x6A85014765CE1728A69F3D14127CC749D140BA142C380EF69CA533189DBFA360 SWAP2 PUSH1 0x6 SSTORE PUSH1 0x40 MLOAD SWAP3 DUP4 MSTORE CALLER SWAP3 LOG2 PUSH1 0x1 DUP2 SSTORE DUP1 RETURN JUMPDEST PUSH4 0x4E487B71 PUSH1 0xE0 SHL PUSH1 0x0 SWAP1 DUP2 MSTORE PUSH1 0x11 PUSH1 0x4 MSTORE REVERT JUMPDEST POP PUSH4 0x4E487B71 PUSH1 0xE0 SHL DUP5 MSTORE PUSH1 0x11 PUSH1 0x4 MSTORE DUP4 REVERT JUMPDEST SWAP1 PUSH1 0x1D PUSH1 0x64 SWAP3 PUSH1 0x40 MLOAD SWAP3 PUSH3 0x461BCD PUSH1 0xE5 SHL DUP5 MSTORE PUSH1 0x4 DUP5 ADD MSTORE DUP3 ADD MSTORE PUSH32 0x4A61636B706F7420656E747279207472616E73666572206661696C6564000000 PUSH1 0x44 DUP3 ADD MSTORE REVERT JUMPDEST PUSH2 0x1804 SWAP2 POP DUP4 RETURNDATASIZE DUP6 GT PUSH2 0x81B JUMPI PUSH2 0x80D DUP2 DUP4 PUSH2 0x4F3D JUMP JUMPDEST CODESIZE PUSH2 0x1707 JUMP JUMPDEST PUSH1 0x40 MLOAD PUSH3 0x461BCD PUSH1 0xE5 SHL DUP2 MSTORE PUSH1 0x4 DUP2 ADD DUP5 SWAP1 MSTORE PUSH1 0x2A DUP2 DUP5 ADD MSTORE PUSH32 0x496E73756666696369656E7420564D462062616C616E636520666F72206A6163 PUSH1 0x44 DUP3 ADD MSTORE PUSH10 0x6B706F7420656E747279 PUSH1 0xB0 SHL PUSH1 0x64 DUP3 ADD MSTORE PUSH1 0x84 SWAP1 REVERT JUMPDEST SWAP1 SWAP4 POP DUP3 DUP2 DUP2 RETURNDATASIZE DUP4 GT PUSH2 0x1889 JUMPI JUMPDEST PUSH2 0x1879 DUP2 DUP4 PUSH2 0x4F3D JUMP JUMPDEST DUP2 ADD SUB SLT PUSH2 0xA4A JUMPI MLOAD SWAP3 CODESIZE PUSH2 0x16BF JUMP JUMPDEST POP RETURNDATASIZE PUSH2 0x186F JUMP JUMPDEST PUSH1 0x64 SWAP1 PUSH1 0x40 MLOAD SWAP1 PUSH3 0x461BCD PUSH1 0xE5 SHL DUP3 MSTORE PUSH1 0x4 DUP3 ADD MSTORE PUSH1 0x1B PUSH1 0x24 DUP3 ADD MSTORE PUSH32 0x4D6178206A61636B706F7420656E747269657320726561636865640000000000 PUSH1 0x44 DUP3 ADD MSTORE REVERT JUMPDEST POP CALLVALUE PUSH2 0x4CD JUMPI DUP1 PUSH1 0x3 NOT CALLDATASIZE ADD SLT PUSH2 0x4CD JUMPI PUSH1 0x25 SLOAD PUSH2 0x1918 PUSH1 0x40 PUSH1 0x26 SLOAD SWAP4 NUMBER DUP2 MSTORE PUSH1 0x23 PUSH1 0x20 MSTORE KECCAK256 SLOAD PUSH1 0x40 MLOAD SWAP4 DUP5 SWAP4 DUP5 PUSH1 0x40 SWAP2 SWAP5 SWAP4 SWAP3 PUSH1 0x60 DUP3 ADD SWAP6 DUP3 MSTORE PUSH1 0x20 DUP3 ADD MSTORE ADD MSTORE JUMP JUMPDEST SUB SWAP1 RETURN JUMPDEST POP CALLVALUE PUSH2 0x4CD JUMPI PUSH1 0x40 CALLDATASIZE PUSH1 0x3 NOT ADD SLT PUSH2 0x4CD JUMPI PUSH1 0x4 CALLDATALOAD PUSH2 0x1939 PUSH2 0x4DC3 JUMP JUMPDEST SWAP1 PUSH2 0x1942 PUSH2 0x564A JUMP JUMPDEST DUP1 DUP4 MSTORE PUSH1 0x19 PUSH1 0x20 MSTORE PUSH1 0x40 DUP4 KECCAK256 DUP1 SLOAD PUSH1 0x1 PUSH1 0x1 PUSH1 0xA0 SHL SUB NOT AND PUSH1 0x1 PUSH1 0x1 PUSH1 0xA0 SHL SUB SWAP1 SWAP4 AND SWAP3 DUP4 OR SWAP1 SSTORE PUSH32 0xCA1453E2085A936EA52E0049E559E235E08FE8678E165A7EB63F4568098706AD DUP4 DUP1 LOG3 DUP1 RETURN JUMPDEST PUSH2 0x5226 JUMP JUMPDEST POP CALLVALUE PUSH2 0x4CD JUMPI PUSH1 0x20 CALLDATASIZE PUSH1 0x3 NOT ADD SLT PUSH2 0x4CD JUMPI PUSH1 0x40 PUSH1 0x20 SWAP2 PUSH1 0x4 CALLDATALOAD DUP2 MSTORE PUSH1 0xE DUP4 MSTORE KECCAK256 SLOAD PUSH1 0x40 MLOAD SWAP1 DUP2 MSTORE RETURN JUMPDEST POP CALLVALUE PUSH2 0x4CD JUMPI PUSH1 0x20 SWAP1 DUP2 PUSH1 0x3 NOT CALLDATASIZE ADD SLT PUSH2 0x4CD JUMPI PUSH2 0x19DC PUSH2 0x5601 JUMP JUMPDEST POP PUSH1 0x4 CALLDATALOAD DUP2 MSTORE PUSH1 0x1D DUP3 MSTORE PUSH1 0x40 DUP2 KECCAK256 SWAP2 PUSH1 0x40 MLOAD SWAP2 PUSH2 0x19F8 DUP4 PUSH2 0x4E86 JUMP JUMPDEST DUP4 SLOAD DUP4 MSTORE PUSH1 0x1 SWAP1 PUSH1 0x1 DUP6 ADD SLOAD DUP4 DUP6 ADD MSTORE PUSH1 0x2 DUP6 ADD SLOAD PUSH1 0x40 DUP6 ADD MSTORE PUSH1 0x3 DUP6 ADD SLOAD PUSH1 0x60 DUP6 ADD MSTORE PUSH1 0x4 DUP6 ADD SLOAD PUSH1 0x80 DUP6 ADD MSTORE PUSH1 0x5 DUP6 ADD SWAP2 PUSH1 0x40 MLOAD DUP1 SWAP5 DUP1 DUP6 SLOAD SWAP3 DUP4 DUP2 MSTORE ADD SWAP5 DUP5 MSTORE DUP1 DUP5 KECCAK256 SWAP4 SWAP1 JUMPDEST DUP3 DUP3 LT PUSH2 0x1A83 JUMPI PUSH2 0x1918 DUP9 PUSH1 0x7 DUP12 DUP11 PUSH2 0x1A5C DUP2 DUP13 SUB DUP3 PUSH2 0x4F3D JUMP JUMPDEST PUSH1 0xA0 DUP5 ADD MSTORE PUSH1 0xFF PUSH1 0x6 DUP3 ADD SLOAD AND ISZERO ISZERO PUSH1 0xC0 DUP5 ADD MSTORE ADD SLOAD PUSH1 0xE0 DUP3 ADD MSTORE PUSH1 0x40 MLOAD SWAP2 DUP3 SWAP2 DUP3 PUSH2 0x5172 JUMP JUMPDEST DUP5 SLOAD PUSH1 0x1 PUSH1 0x1 PUSH1 0xA0 SHL SUB AND DUP7 MSTORE SWAP5 DUP6 ADD SWAP5 SWAP4 DUP4 ADD SWAP4 SWAP1 DUP4 ADD SWAP1 PUSH2 0x1A41 JUMP JUMPDEST POP CALLVALUE PUSH2 0x4CD JUMPI DUP1 PUSH2 0x1AB1 CALLDATASIZE PUSH2 0x513C JUMP JUMPDEST SWAP3 SWAP2 PUSH2 0x1ABB PUSH2 0x5676 JUMP JUMPDEST PUSH1 0x2 SLOAD PUSH1 0x1 PUSH1 0x1 PUSH1 0xA0 SHL SUB AND SWAP1 DUP2 EXTCODESIZE ISZERO PUSH2 0x1B0D JUMPI DUP4 PUSH1 0x64 SWAP3 PUSH1 0x40 MLOAD SWAP7 DUP8 SWAP6 DUP7 SWAP5 PUSH4 0xA154FC6B PUSH1 0xE0 SHL DUP7 MSTORE PUSH1 0x4 DUP7 ADD MSTORE PUSH1 0x24 DUP6 ADD MSTORE PUSH1 0x44 DUP5 ADD MSTORE GAS CALL DUP1 ISZERO PUSH2 0xB98 JUMPI PUSH2 0x1B04 JUMPI POP DUP1 RETURN JUMPDEST PUSH2 0x8B8 SWAP1 PUSH2 0x4EA2 JUMP JUMPDEST DUP4 DUP1 REVERT JUMPDEST POP CALLVALUE PUSH2 0x4CD JUMPI DUP1 PUSH1 0x3 NOT CALLDATASIZE ADD SLT PUSH2 0x4CD JUMPI PUSH1 0x20 PUSH1 0x40 MLOAD PUSH2 0x3E8 DUP2 MSTORE RETURN JUMPDEST POP CALLVALUE PUSH2 0x4CD JUMPI PUSH1 0x20 CALLDATASIZE PUSH1 0x3 NOT ADD SLT PUSH2 0x4CD JUMPI PUSH1 0x80 SWAP1 PUSH1 0x1 PUSH1 0x1 PUSH1 0xA0 SHL SUB SWAP1 PUSH1 0x40 SWAP1 DUP3 PUSH2 0x1B58 PUSH2 0x4DAD JUMP JUMPDEST AND DUP2 MSTORE PUSH1 0x1C PUSH1 0x20 MSTORE KECCAK256 SWAP1 DUP2 SLOAD AND SWAP1 PUSH1 0x1 DUP2 ADD SLOAD SWAP1 PUSH1 0xFF PUSH1 0x3 PUSH1 0x2 DUP4 ADD SLOAD SWAP3 ADD SLOAD AND SWAP2 PUSH1 0x40 MLOAD SWAP4 DUP5 MSTORE PUSH1 0x20 DUP5 ADD MSTORE PUSH1 0x40 DUP4 ADD MSTORE ISZERO ISZERO PUSH1 0x60 DUP3 ADD MSTORE RETURN JUMPDEST PUSH2 0x520A JUMP JUMPDEST POP CALLVALUE PUSH2 0x4CD JUMPI DUP1 PUSH1 0x3 NOT CALLDATASIZE ADD SLT PUSH2 0x4CD JUMPI PUSH2 0x1BB1 PUSH2 0x5601 JUMP JUMPDEST POP PUSH1 0x4 SLOAD DUP2 MSTORE PUSH1 0x20 SWAP1 PUSH1 0x1D PUSH1 0x20 MSTORE PUSH1 0x40 DUP2 KECCAK256 SWAP2 PUSH1 0x40 MLOAD SWAP2 PUSH2 0x1BD1 DUP4 PUSH2 0x4E86 JUMP JUMPDEST DUP4 SLOAD DUP4 MSTORE PUSH1 0x1 SWAP1 PUSH1 0x1 DUP6 ADD SLOAD PUSH1 0x20 DUP6 ADD MSTORE PUSH1 0x2 DUP6 ADD SLOAD PUSH1 0x40 DUP6 ADD MSTORE PUSH1 0x3 DUP6 ADD SLOAD PUSH1 0x60 DUP6 ADD MSTORE PUSH1 0x4 DUP6 ADD SLOAD PUSH1 0x80 DUP6 ADD MSTORE PUSH1 0x5 DUP6 ADD SWAP2 PUSH1 0x40 MLOAD DUP1 SWAP5 PUSH1 0x20 DUP6 SLOAD SWAP3 DUP4 DUP2 MSTORE ADD SWAP5 DUP5 MSTORE PUSH1 0x20 DUP5 KECCAK256 SWAP4 SWAP1 JUMPDEST DUP3 DUP3 LT PUSH2 0x1C38 JUMPI PUSH2 0x1918 DUP9 PUSH1 0x7 DUP12 DUP11 PUSH2 0x1A5C DUP2 DUP13 SUB DUP3 PUSH2 0x4F3D JUMP JUMPDEST DUP5 SLOAD PUSH1 0x1 PUSH1 0x1 PUSH1 0xA0 SHL SUB AND DUP7 MSTORE SWAP5 DUP6 ADD SWAP5 SWAP4 DUP4 ADD SWAP4 SWAP1 DUP4 ADD SWAP1 PUSH2 0x1C1D JUMP JUMPDEST POP CALLVALUE PUSH2 0x4CD JUMPI PUSH2 0x1C65 CALLDATASIZE PUSH2 0x4DD9 JUMP JUMPDEST SWAP2 SWAP1 DUP2 MSTORE PUSH1 0xC PUSH1 0x20 MSTORE PUSH1 0x40 DUP2 KECCAK256 SWAP1 DUP2 SLOAD DUP4 LT ISZERO PUSH2 0x4CD JUMPI PUSH1 0x20 PUSH2 0x1C88 DUP5 DUP5 PUSH2 0x4DEF JUMP JUMPDEST SWAP1 SLOAD PUSH1 0x40 MLOAD PUSH1 0x3 SWAP3 SWAP1 SWAP3 SHL SHR PUSH1 0x1 PUSH1 0x1 PUSH1 0xA0 SHL SUB AND DUP2 MSTORE RETURN JUMPDEST POP CALLVALUE PUSH2 0x4CD JUMPI PUSH1 0x40 CALLDATASIZE PUSH1 0x3 NOT ADD SLT PUSH2 0x4CD JUMPI PUSH1 0x20 SWAP1 PUSH2 0x1CBE PUSH2 0x4DC3 JUMP JUMPDEST PUSH1 0x4 CALLDATALOAD DUP3 MSTORE PUSH1 0x18 DUP4 MSTORE PUSH1 0x40 DUP1 DUP4 KECCAK256 PUSH1 0x1 PUSH1 0x1 PUSH1 0xA0 SHL SUB SWAP3 DUP4 AND DUP1 DUP6 MSTORE SWAP1 DUP6 MSTORE SWAP3 KECCAK256 SLOAD PUSH1 0xFF AND SWAP2 SWAP1 DUP3 ISZERO PUSH2 0x1CF8 JUMPI JUMPDEST POP POP PUSH1 0x40 MLOAD SWAP1 ISZERO ISZERO DUP2 MSTORE RETURN JUMPDEST PUSH1 0x1 SLOAD AND EQ SWAP1 POP CODESIZE DUP1 PUSH2 0x1CEC JUMP JUMPDEST POP CALLVALUE PUSH2 0x4CD JUMPI DUP1 PUSH1 0x3 NOT CALLDATASIZE ADD SLT PUSH2 0x4CD JUMPI PUSH2 0x1D1F PUSH2 0x56F4 JUMP JUMPDEST PUSH2 0x1D27 PUSH2 0x5676 JUMP JUMPDEST CALLER DUP2 MSTORE PUSH1 0x20 PUSH1 0x1E DUP2 MSTORE PUSH2 0x1D41 PUSH1 0xFF PUSH1 0x40 DUP5 KECCAK256 SLOAD AND ISZERO PUSH2 0x52A7 JUMP JUMPDEST CALLER DUP3 MSTORE PUSH1 0x1A SWAP1 DUP2 DUP2 MSTORE PUSH2 0x1D5E PUSH1 0xFF PUSH1 0x6 PUSH1 0x40 DUP7 KECCAK256 ADD SLOAD AND ISZERO PUSH2 0x52A7 JUMP JUMPDEST CALLER DUP4 MSTORE DUP2 DUP2 MSTORE PUSH1 0xC PUSH1 0x40 DUP5 KECCAK256 ADD SLOAD PUSH3 0x15180 SWAP1 DUP2 DUP2 ADD DUP1 SWAP2 GT PUSH2 0x1FB0 JUMPI PUSH2 0x1D87 SWAP1 TIMESTAMP LT ISZERO PUSH2 0x52EB JUMP JUMPDEST CALLER DUP5 MSTORE DUP3 DUP3 MSTORE PUSH2 0x1DA0 PUSH1 0x64 PUSH1 0xE PUSH1 0x40 DUP8 KECCAK256 ADD SLOAD LT PUSH2 0x5337 JUMP JUMPDEST CALLER DUP5 MSTORE DUP3 DUP3 MSTORE PUSH1 0x7 PUSH1 0x40 DUP6 KECCAK256 ADD SLOAD SWAP1 DUP2 ADD DUP1 SWAP2 GT PUSH2 0xE97 JUMPI TIMESTAMP LT PUSH2 0x1F74 JUMPI PUSH1 0x40 MLOAD PUSH4 0x70A08231 PUSH1 0xE0 SHL DUP2 MSTORE CALLER PUSH1 0x4 DUP3 ADD MSTORE DUP2 DUP2 PUSH1 0x24 DUP2 PUSH32 0x0 PUSH1 0x1 PUSH1 0x1 PUSH1 0xA0 SHL SUB AND GAS STATICCALL SWAP1 DUP2 ISZERO PUSH2 0x1F69 JUMPI DUP5 SWAP2 PUSH2 0x1F3C JUMPI JUMPDEST POP PUSH8 0x8AC7230489E80000 SWAP1 DUP2 DUP2 LT PUSH2 0x1EF7 JUMPI DIV SWAP2 DUP3 PUSH1 0x1 SHL SWAP3 DUP1 DUP5 DIV PUSH1 0x2 EQ SWAP1 ISZERO OR ISZERO PUSH2 0xE97 JUMPI DUP3 ISZERO PUSH2 0x1EBC JUMPI SWAP1 PUSH1 0x40 SWAP2 PUSH2 0x1E4B DUP5 CALLER PUSH2 0x5717 JUMP JUMPDEST CALLER DUP6 MSTORE DUP1 DUP3 MSTORE PUSH2 0x1E5E DUP5 DUP5 DUP8 KECCAK256 SLOAD PUSH2 0x529A JUMP JUMPDEST SWAP1 CALLER DUP7 MSTORE DUP3 MSTORE DUP3 DUP6 KECCAK256 SWAP1 DUP2 SSTORE TIMESTAMP PUSH1 0x7 DUP3 ADD SSTORE PUSH1 0xC TIMESTAMP SWAP2 ADD SSTORE DUP2 MLOAD SWAP3 DUP4 MSTORE DUP3 ADD MSTORE PUSH1 0x13 PUSH1 0x40 DUP3 ADD MSTORE PUSH19 0x159351881A1BDB191A5B99DCC81C995DD85C99 PUSH1 0x6A SHL PUSH1 0x60 DUP3 ADD MSTORE PUSH1 0x0 DUP1 MLOAD PUSH1 0x20 PUSH2 0x6146 DUP4 CODECOPY DUP2 MLOAD SWAP2 MSTORE PUSH1 0x80 CALLER SWAP3 LOG2 PUSH1 0x1 DUP2 SSTORE DUP1 RETURN JUMPDEST PUSH1 0x40 MLOAD PUSH3 0x461BCD PUSH1 0xE5 SHL DUP2 MSTORE PUSH1 0x4 DUP2 ADD DUP4 SWAP1 MSTORE PUSH1 0x13 PUSH1 0x24 DUP3 ADD MSTORE PUSH19 0x4E6F2072657761726420617661696C61626C65 PUSH1 0x68 SHL PUSH1 0x44 DUP3 ADD MSTORE PUSH1 0x64 SWAP1 REVERT JUMPDEST PUSH1 0x40 MLOAD PUSH3 0x461BCD PUSH1 0xE5 SHL DUP2 MSTORE PUSH1 0x4 DUP2 ADD DUP5 SWAP1 MSTORE PUSH1 0x19 PUSH1 0x24 DUP3 ADD MSTORE PUSH32 0x496E73756666696369656E7420564D4620686F6C64696E677300000000000000 PUSH1 0x44 DUP3 ADD MSTORE PUSH1 0x64 SWAP1 REVERT JUMPDEST SWAP1 POP DUP2 DUP2 DUP2 RETURNDATASIZE DUP4 GT PUSH2 0x1F62 JUMPI JUMPDEST PUSH2 0x1F53 DUP2 DUP4 PUSH2 0x4F3D JUMP JUMPDEST DUP2 ADD SUB SLT PUSH2 0x1B0D JUMPI MLOAD CODESIZE PUSH2 0x1E10 JUMP JUMPDEST POP RETURNDATASIZE PUSH2 0x1F49 JUMP JUMPDEST PUSH1 0x40 MLOAD RETURNDATASIZE DUP7 DUP3 RETURNDATACOPY RETURNDATASIZE SWAP1 REVERT JUMPDEST PUSH1 0x64 SWAP1 PUSH1 0x40 MLOAD SWAP1 PUSH3 0x461BCD PUSH1 0xE5 SHL DUP3 MSTORE PUSH1 0x4 DUP3 ADD MSTORE PUSH1 0x15 PUSH1 0x24 DUP3 ADD MSTORE PUSH21 0x416C726561647920636865636B656420746F646179 PUSH1 0x58 SHL PUSH1 0x44 DUP3 ADD MSTORE REVERT JUMPDEST PUSH4 0x4E487B71 PUSH1 0xE0 SHL DUP6 MSTORE PUSH1 0x11 PUSH1 0x4 MSTORE PUSH1 0x24 DUP6 REVERT JUMPDEST POP CALLVALUE PUSH2 0x4CD JUMPI DUP1 PUSH1 0x3 NOT CALLDATASIZE ADD SLT PUSH2 0x4CD JUMPI PUSH1 0x1 SLOAD PUSH1 0x40 MLOAD PUSH1 0x1 PUSH1 0x1 PUSH1 0xA0 SHL SUB SWAP1 SWAP2 AND DUP2 MSTORE PUSH1 0x20 SWAP1 RETURN JUMPDEST POP CALLVALUE PUSH2 0x4CD JUMPI PUSH1 0x20 CALLDATASIZE PUSH1 0x3 NOT ADD SLT PUSH2 0x4CD JUMPI PUSH1 0x20 SWAP1 PUSH1 0x4 CALLDATALOAD DUP2 MSTORE PUSH1 0x19 DUP3 MSTORE PUSH1 0x40 PUSH1 0x1 DUP1 PUSH1 0xA0 SHL SUB SWAP2 KECCAK256 SLOAD AND PUSH1 0x40 MLOAD SWAP1 DUP2 MSTORE RETURN JUMPDEST PUSH2 0x5156 JUMP JUMPDEST POP CALLVALUE PUSH2 0x4CD JUMPI PUSH1 0x20 CALLDATASIZE PUSH1 0x3 NOT ADD SLT PUSH2 0x4CD JUMPI PUSH1 0x40 PUSH1 0x20 SWAP2 PUSH1 0x4 CALLDATALOAD DUP2 MSTORE PUSH1 0x23 DUP4 MSTORE KECCAK256 SLOAD PUSH1 0x40 MLOAD SWAP1 DUP2 MSTORE RETURN JUMPDEST POP CALLVALUE PUSH2 0x4CD JUMPI DUP1 PUSH1 0x3 NOT CALLDATASIZE ADD SLT PUSH2 0x4CD JUMPI PUSH1 0x3 SLOAD PUSH1 0x40 MLOAD PUSH4 0x8F09C857 PUSH1 0xE0 SHL DUP2 MSTORE SWAP1 PUSH1 0x20 SWAP1 DUP3 SWAP1 PUSH1 0x4 SWAP1 DUP3 SWAP1 PUSH1 0x1 PUSH1 0x1 PUSH1 0xA0 SHL SUB AND GAS STATICCALL SWAP1 DUP2 ISZERO PUSH2 0xB98 JUMPI DUP3 SWAP2 PUSH2 0x209F JUMPI JUMPDEST PUSH1 0x20 DUP3 PUSH1 0x40 MLOAD SWAP1 DUP2 MSTORE RETURN JUMPDEST SWAP1 POP PUSH1 0x20 DUP2 RETURNDATASIZE PUSH1 0x20 GT PUSH2 0x20D1 JUMPI JUMPDEST DUP2 PUSH2 0x20BA PUSH1 0x20 SWAP4 DUP4 PUSH2 0x4F3D JUMP JUMPDEST DUP2 ADD SUB SLT PUSH2 0x20CD JUMPI PUSH1 0x20 SWAP2 POP MLOAD CODESIZE PUSH2 0x2094 JUMP JUMPDEST POP DUP1 REVERT JUMPDEST RETURNDATASIZE SWAP2 POP PUSH2 0x20AD JUMP JUMPDEST POP CALLVALUE PUSH2 0x4CD JUMPI PUSH1 0x20 CALLDATASIZE PUSH1 0x3 NOT ADD SLT PUSH2 0x4CD JUMPI PUSH1 0x20 SWAP1 PUSH1 0x40 SWAP1 PUSH1 0x1 PUSH1 0x1 PUSH1 0xA0 SHL SUB PUSH2 0x2101 PUSH2 0x4DAD JUMP JUMPDEST AND DUP2 MSTORE PUSH1 0x22 DUP4 MSTORE KECCAK256 SLOAD PUSH1 0x40 MLOAD SWAP1 DUP2 MSTORE RETURN JUMPDEST POP CALLVALUE PUSH2 0x4CD JUMPI DUP1 PUSH1 0x3 NOT CALLDATASIZE ADD SLT PUSH2 0x4CD JUMPI PUSH1 0x20 PUSH1 0x40 MLOAD PUSH32 0xA49807205CE4D355092EF5A8A18F56E8913CF4A201FBE287825B095693C21775 DUP2 MSTORE RETURN JUMPDEST POP CALLVALUE PUSH2 0x4CD JUMPI DUP1 PUSH1 0x3 NOT CALLDATASIZE ADD SLT PUSH2 0x4CD JUMPI PUSH1 0x20 PUSH1 0x7 SLOAD PUSH1 0x40 MLOAD SWAP1 DUP2 MSTORE RETURN JUMPDEST POP CALLVALUE PUSH2 0x4CD JUMPI DUP1 PUSH1 0x3 NOT CALLDATASIZE ADD SLT PUSH2 0x4CD JUMPI PUSH2 0x2184 PUSH2 0x56F4 JUMP JUMPDEST PUSH2 0x218C PUSH2 0x5676 JUMP JUMPDEST CALLER DUP2 MSTORE PUSH1 0x20 PUSH1 0x1E DUP2 MSTORE PUSH2 0x21A6 PUSH1 0xFF PUSH1 0x40 DUP5 KECCAK256 SLOAD AND ISZERO PUSH2 0x52A7 JUMP JUMPDEST CALLER DUP3 MSTORE PUSH1 0x1A DUP2 MSTORE PUSH2 0x21C1 PUSH1 0xFF PUSH1 0x6 PUSH1 0x40 DUP6 KECCAK256 ADD SLOAD AND ISZERO PUSH2 0x52A7 JUMP JUMPDEST PUSH1 0x40 MLOAD PUSH4 0x70A08231 PUSH1 0xE0 SHL DUP2 MSTORE CALLER PUSH1 0x4 DUP3 ADD MSTORE DUP2 DUP2 PUSH1 0x24 DUP2 PUSH32 0x0 PUSH1 0x1 PUSH1 0x1 PUSH1 0xA0 SHL SUB AND GAS STATICCALL SWAP1 DUP2 ISZERO PUSH2 0x10D3 JUMPI DUP4 SWAP2 PUSH2 0x2393 JUMPI JUMPDEST POP DUP1 ISZERO PUSH2 0x235D JUMPI PUSH8 0xDE0B6B3A7640000 SWAP1 DIV SWAP1 PUSH1 0xA DUP3 MUL SWAP2 DUP1 DUP4 DIV PUSH1 0xA EQ SWAP1 ISZERO OR ISZERO PUSH2 0x2349 JUMPI DUP2 ISZERO PUSH2 0x2305 JUMPI PUSH2 0x2710 DUP3 GT PUSH2 0x22C1 JUMPI PUSH1 0x40 SWAP1 CALLER DUP5 MSTORE PUSH1 0x1A DUP2 MSTORE PUSH2 0x2262 DUP4 PUSH1 0x8 DUP5 DUP8 KECCAK256 ADD SLOAD PUSH2 0x529A JUMP JUMPDEST CALLER DUP6 MSTORE PUSH1 0x1A DUP3 MSTORE PUSH1 0x8 DUP4 DUP7 KECCAK256 ADD SSTORE DUP2 MLOAD SWAP3 DUP4 MSTORE DUP3 ADD MSTORE PUSH1 0xC PUSH1 0x40 DUP3 ADD MSTORE PUSH12 0x564D4620686F6C64696E6773 PUSH1 0xA0 SHL PUSH1 0x60 DUP3 ADD MSTORE PUSH32 0xA6064B0DE95F7CDA15129E7C36146C8ACCF65ABB7A3639D800A445FA55023A17 PUSH1 0x80 CALLER SWAP3 LOG2 PUSH1 0x1 DUP2 SSTORE DUP1 RETURN JUMPDEST PUSH1 0x64 SWAP1 PUSH1 0x40 MLOAD SWAP1 PUSH3 0x461BCD PUSH1 0xE5 SHL DUP3 MSTORE PUSH1 0x4 DUP3 ADD MSTORE PUSH1 0x17 PUSH1 0x24 DUP3 ADD MSTORE PUSH32 0x4C6F79616C747920706F696E747320746F6F2068696768000000000000000000 PUSH1 0x44 DUP3 ADD MSTORE REVERT JUMPDEST PUSH1 0x64 SWAP1 PUSH1 0x40 MLOAD SWAP1 PUSH3 0x461BCD PUSH1 0xE5 SHL DUP3 MSTORE PUSH1 0x4 DUP3 ADD MSTORE PUSH1 0x1A PUSH1 0x24 DUP3 ADD MSTORE PUSH32 0x4E6F206C6F79616C747920706F696E747320746F206177617264000000000000 PUSH1 0x44 DUP3 ADD MSTORE REVERT JUMPDEST PUSH4 0x4E487B71 PUSH1 0xE0 SHL DUP4 MSTORE PUSH1 0x11 PUSH1 0x4 MSTORE PUSH1 0x24 DUP4 REVERT JUMPDEST PUSH1 0x40 MLOAD PUSH3 0x461BCD PUSH1 0xE5 SHL DUP2 MSTORE PUSH1 0x4 DUP2 ADD DUP4 SWAP1 MSTORE PUSH1 0xE PUSH1 0x24 DUP3 ADD MSTORE PUSH14 0x4E6F20564D462062616C616E6365 PUSH1 0x90 SHL PUSH1 0x44 DUP3 ADD MSTORE PUSH1 0x64 SWAP1 REVERT JUMPDEST SWAP1 POP DUP2 DUP2 DUP2 RETURNDATASIZE DUP4 GT PUSH2 0x23BD JUMPI JUMPDEST PUSH2 0x23AA DUP2 DUP4 PUSH2 0x4F3D JUMP JUMPDEST DUP2 ADD SUB SLT PUSH2 0x23B9 JUMPI MLOAD CODESIZE PUSH2 0x2213 JUMP JUMPDEST DUP3 DUP1 REVERT JUMPDEST POP RETURNDATASIZE PUSH2 0x23A0 JUMP JUMPDEST POP CALLVALUE PUSH2 0x4CD JUMPI PUSH2 0x23D3 CALLDATASIZE PUSH2 0x513C JUMP JUMPDEST PUSH1 0x0 DUP1 MLOAD PUSH1 0x20 PUSH2 0x6126 DUP4 CODECOPY DUP2 MLOAD SWAP2 MSTORE DUP5 MSTORE PUSH1 0x20 SWAP1 PUSH1 0x18 DUP3 MSTORE PUSH1 0x40 DUP6 KECCAK256 CALLER DUP7 MSTORE DUP3 MSTORE PUSH1 0xFF PUSH1 0x40 DUP7 KECCAK256 SLOAD AND DUP1 ISZERO PUSH2 0x25F4 JUMPI JUMPDEST PUSH2 0x240C SWAP1 PUSH2 0x541D JUMP JUMPDEST PUSH2 0x2414 PUSH2 0x5676 JUMP JUMPDEST DUP4 DUP6 MSTORE PUSH1 0x13 DUP3 MSTORE PUSH1 0xFF PUSH1 0x40 DUP7 KECCAK256 SLOAD AND PUSH2 0x25B8 JUMPI PUSH2 0x2436 PUSH1 0x16 SLOAD PUSH1 0x17 SLOAD SWAP1 PUSH2 0x529A JUMP JUMPDEST TIMESTAMP LT PUSH2 0x2573 JUMPI DUP4 DUP6 MSTORE PUSH1 0x15 DUP3 MSTORE PUSH1 0x40 DUP6 KECCAK256 SLOAD SUB PUSH2 0x2539 JUMPI DUP3 DUP5 MSTORE PUSH1 0x13 DUP2 MSTORE PUSH1 0x40 DUP5 KECCAK256 SWAP1 PUSH1 0xFF NOT SWAP2 PUSH1 0x1 DUP4 DUP3 SLOAD AND OR SWAP1 SSTORE PUSH1 0x5 SLOAD SWAP2 DUP4 PUSH1 0x5 SSTORE PUSH1 0x14 DUP3 MSTORE PUSH1 0x40 DUP7 KECCAK256 SLOAD PUSH1 0x1 DUP2 ADD DUP1 SWAP2 GT PUSH2 0x2525 JUMPI SWAP2 PUSH1 0x14 SWAP2 PUSH32 0x42D4A2476A82A032F615547E73391179C379C1EB26FB0BD034F43131AE2BC15D SWAP6 SWAP5 SWAP4 DUP8 DUP10 MSTORE DUP4 DUP4 MSTORE DUP1 PUSH1 0x40 DUP11 KECCAK256 SSTORE PUSH1 0x40 MLOAD DUP4 DUP2 ADD SWAP2 DUP8 DUP4 MSTORE PUSH1 0x40 DUP3 ADD MSTORE TIMESTAMP PUSH1 0x60 DUP3 ADD MSTORE PUSH1 0x60 DUP2 MSTORE PUSH2 0x24D8 DUP2 PUSH2 0x4E39 JUMP JUMPDEST MLOAD SWAP1 KECCAK256 DUP8 DUP10 MSTORE PUSH1 0x15 DUP4 MSTORE PUSH1 0x40 DUP10 KECCAK256 SSTORE TIMESTAMP PUSH1 0x16 SSTORE PUSH1 0x13 DUP3 MSTORE PUSH1 0x40 DUP9 KECCAK256 SWAP1 DUP2 SLOAD AND SWAP1 SSTORE MSTORE PUSH2 0x251F PUSH1 0x40 DUP7 KECCAK256 SLOAD PUSH1 0x40 MLOAD SWAP4 DUP5 SWAP4 DUP5 PUSH1 0x40 SWAP2 SWAP5 SWAP4 SWAP3 PUSH1 0x60 DUP3 ADD SWAP6 DUP3 MSTORE PUSH1 0x20 DUP3 ADD MSTORE ADD MSTORE JUMP JUMPDEST SUB SWAP1 LOG2 DUP1 RETURN JUMPDEST PUSH4 0x4E487B71 PUSH1 0xE0 SHL DUP8 MSTORE PUSH1 0x11 PUSH1 0x4 MSTORE PUSH1 0x24 DUP8 REVERT JUMPDEST PUSH1 0x64 SWAP1 PUSH1 0x40 MLOAD SWAP1 PUSH3 0x461BCD PUSH1 0xE5 SHL DUP3 MSTORE PUSH1 0x4 DUP3 ADD MSTORE PUSH1 0x13 PUSH1 0x24 DUP3 ADD MSTORE PUSH19 0xA6E8C2E8CA40D0C2E6D040DAD2E6DAC2E8C6D PUSH1 0x6B SHL PUSH1 0x44 DUP3 ADD MSTORE REVERT JUMPDEST PUSH1 0x40 MLOAD PUSH3 0x461BCD PUSH1 0xE5 SHL DUP2 MSTORE PUSH1 0x4 DUP2 ADD DUP4 SWAP1 MSTORE PUSH1 0x1B PUSH1 0x24 DUP3 ADD MSTORE PUSH32 0x4A61636B706F742075706461746520746F6F206672657175656E740000000000 PUSH1 0x44 DUP3 ADD MSTORE PUSH1 0x64 SWAP1 REVERT JUMPDEST PUSH1 0x40 MLOAD PUSH3 0x461BCD PUSH1 0xE5 SHL DUP2 MSTORE PUSH1 0x4 DUP2 ADD DUP4 SWAP1 MSTORE PUSH1 0x14 PUSH1 0x24 DUP3 ADD MSTORE PUSH20 0x11D85B59481CDD185D19481A5CC81B1BD8DAD959 PUSH1 0x62 SHL PUSH1 0x44 DUP3 ADD MSTORE PUSH1 0x64 SWAP1 REVERT JUMPDEST POP PUSH1 0x1 SLOAD PUSH1 0x1 PUSH1 0x1 PUSH1 0xA0 SHL SUB AND CALLER EQ PUSH2 0x2403 JUMP JUMPDEST POP CALLVALUE PUSH2 0x4CD JUMPI DUP1 PUSH1 0x3 NOT CALLDATASIZE ADD SLT PUSH2 0x4CD JUMPI PUSH2 0x2621 PUSH2 0x564A JUMP JUMPDEST PUSH1 0x1 DUP1 SLOAD PUSH1 0x1 PUSH1 0x1 PUSH1 0xA0 SHL SUB NOT DUP2 AND SWAP1 SWAP2 SSTORE DUP2 SWAP1 PUSH1 0x1 PUSH1 0x1 PUSH1 0xA0 SHL SUB AND PUSH32 0x8BE0079C531659141344CD1FD0A4F28419497F9722A3DAAFE3B4186F6B6457E0 DUP3 DUP1 LOG3 DUP1 RETURN JUMPDEST POP CALLVALUE PUSH2 0x4CD JUMPI DUP1 PUSH1 0x3 NOT CALLDATASIZE ADD SLT PUSH2 0x4CD JUMPI PUSH1 0x20 PUSH1 0x40 MLOAD PUSH32 0x59A1C48E5837AD7A7F3DCEDCBE129BF3249EC4FBF651FD4F5E2600EAD39FE2F5 DUP2 MSTORE RETURN JUMPDEST POP CALLVALUE PUSH2 0x4CD JUMPI PUSH1 0x20 CALLDATASIZE PUSH1 0x3 NOT ADD SLT PUSH2 0x4CD JUMPI PUSH32 0x37AA3048A2B523E3218796793D7C9283CBD45124C62254C97FEBFC1292524294 PUSH1 0x20 PUSH1 0x4 CALLDATALOAD PUSH32 0xA49807205CE4D355092EF5A8A18F56E8913CF4A201FBE287825B095693C21775 DUP5 MSTORE PUSH1 0x18 DUP3 MSTORE PUSH1 0x40 DUP5 KECCAK256 CALLER DUP6 MSTORE DUP3 MSTORE PUSH1 0xFF PUSH1 0x40 DUP6 KECCAK256 SLOAD AND DUP1 ISZERO PUSH2 0x272E JUMPI JUMPDEST PUSH2 0x2720 SWAP1 PUSH2 0x541D JUMP JUMPDEST DUP1 PUSH1 0x17 SSTORE PUSH1 0x40 MLOAD SWAP1 DUP2 MSTORE LOG1 DUP1 RETURN JUMPDEST POP PUSH1 0x1 SLOAD PUSH1 0x1 PUSH1 0x1 PUSH1 0xA0 SHL SUB AND CALLER EQ PUSH2 0x2717 JUMP JUMPDEST POP CALLVALUE PUSH2 0x4CD JUMPI DUP1 PUSH1 0x3 NOT CALLDATASIZE ADD SLT PUSH2 0x4CD JUMPI PUSH1 0x20 PUSH1 0x40 MLOAD PUSH1 0x5 DUP2 MSTORE RETURN JUMPDEST POP CALLVALUE PUSH2 0x4CD JUMPI PUSH1 0x20 CALLDATASIZE PUSH1 0x3 NOT ADD SLT PUSH2 0x4CD JUMPI PUSH1 0x40 PUSH1 0x20 SWAP2 PUSH1 0x4 CALLDATALOAD DUP2 MSTORE PUSH1 0x15 DUP4 MSTORE KECCAK256 SLOAD PUSH1 0x40 MLOAD SWAP1 DUP2 MSTORE RETURN JUMPDEST POP CALLVALUE PUSH2 0x4CD JUMPI DUP1 PUSH1 0x3 NOT CALLDATASIZE ADD SLT PUSH2 0x4CD JUMPI PUSH1 0x20 PUSH1 0xFF PUSH1 0x1 SLOAD PUSH1 0xA0 SHR AND PUSH1 0x40 MLOAD SWAP1 ISZERO ISZERO DUP2 MSTORE RETURN JUMPDEST POP CALLVALUE PUSH2 0x4CD JUMPI PUSH2 0x27BD CALLDATASIZE PUSH2 0x4F79 JUMP JUMPDEST PUSH2 0x27C5 PUSH2 0x56F4 JUMP JUMPDEST PUSH2 0x27CD PUSH2 0x5676 JUMP JUMPDEST CALLER DUP3 MSTORE PUSH1 0x20 SWAP1 PUSH1 0x1E DUP3 MSTORE PUSH2 0x27E8 PUSH1 0xFF PUSH1 0x40 DUP6 KECCAK256 SLOAD AND ISZERO PUSH2 0x52A7 JUMP JUMPDEST CALLER DUP4 MSTORE PUSH1 0x1A SWAP2 DUP3 DUP2 MSTORE PUSH2 0x2805 PUSH1 0xFF PUSH1 0x6 PUSH1 0x40 DUP8 KECCAK256 ADD SLOAD AND ISZERO PUSH2 0x52A7 JUMP JUMPDEST CALLER DUP5 MSTORE DUP3 DUP2 MSTORE PUSH1 0xFF PUSH1 0x10 PUSH1 0x40 DUP7 KECCAK256 ADD SLOAD AND PUSH2 0x31F0 JUMPI CALLER DUP5 MSTORE DUP3 DUP2 MSTORE PUSH1 0x3 PUSH1 0x40 DUP6 KECCAK256 ADD SLOAD PUSH2 0xE10 SWAP1 DUP2 DUP2 ADD DUP1 SWAP2 GT PUSH2 0x315E JUMPI TIMESTAMP LT PUSH2 0x31B5 JUMPI CALLER DUP6 MSTORE PUSH1 0x21 DUP3 MSTORE PUSH1 0x40 DUP6 KECCAK256 SLOAD TIMESTAMP LT PUSH2 0x3172 JUMPI CALLER DUP6 MSTORE DUP4 DUP3 MSTORE PUSH1 0xF PUSH1 0x40 DUP7 KECCAK256 ADD SLOAD DUP2 DUP2 ADD DUP1 SWAP2 GT PUSH2 0x315E JUMPI TIMESTAMP LT PUSH2 0x3119 JUMPI CALLER DUP6 MSTORE PUSH1 0x22 DUP3 MSTORE TIMESTAMP PUSH1 0x40 DUP7 KECCAK256 SSTORE DUP4 DUP3 MSTORE TIMESTAMP PUSH1 0xF PUSH1 0x40 DUP8 KECCAK256 ADD SSTORE PUSH1 0x4 SLOAD ISZERO PUSH2 0x30E2 JUMPI PUSH2 0x2896 CALLER PUSH2 0x5AE7 JUMP JUMPDEST PUSH2 0x309D JUMPI PUSH1 0x3 SLOAD PUSH1 0x40 MLOAD PUSH4 0x8F09C857 PUSH1 0xE0 SHL DUP1 DUP3 MSTORE SWAP6 SWAP2 PUSH1 0x1 PUSH1 0x1 PUSH1 0xA0 SHL SUB SWAP2 SWAP1 DUP3 AND DUP6 DUP3 PUSH1 0x4 DUP2 DUP5 GAS STATICCALL SWAP2 DUP3 ISZERO PUSH2 0x2CE9 JUMPI DUP10 SWAP3 PUSH2 0x306E JUMPI JUMPDEST POP PUSH1 0x40 MLOAD PUSH4 0xD73EBB5 PUSH1 0xE0 SHL DUP2 MSTORE SWAP8 DUP7 DUP10 PUSH1 0x4 DUP2 DUP6 GAS STATICCALL SWAP9 DUP10 ISZERO PUSH2 0x3063 JUMPI DUP11 SWAP10 PUSH2 0x3030 JUMPI JUMPDEST POP DUP7 SWAP1 PUSH1 0x4 PUSH1 0x40 MLOAD DUP1 SWAP5 DUP2 SWAP4 DUP3 MSTORE GAS STATICCALL SWAP1 DUP2 ISZERO PUSH2 0x2CE9 JUMPI DUP10 SWAP2 PUSH2 0x3003 JUMPI JUMPDEST POP DUP1 PUSH2 0x2FA7 JUMPI JUMPDEST POP PUSH1 0x40 DUP1 MLOAD SWAP2 DUP3 MSTORE PUSH1 0x20 DUP3 ADD DUP9 SWAP1 MSTORE TIMESTAMP SWAP1 DUP3 ADD MSTORE PUSH32 0xD275F5DE1F47F481706CBB99406816BCC17CD387167D5DE15596C1A2FB47AD86 SWAP1 PUSH1 0x60 SWAP1 LOG1 PUSH32 0x0 AND SWAP5 PUSH1 0x40 MLOAD SWAP5 PUSH4 0x70A08231 PUSH1 0xE0 SHL DUP7 MSTORE CALLER PUSH1 0x4 DUP8 ADD MSTORE PUSH1 0x24 SWAP6 DUP6 DUP2 DUP9 DUP2 DUP12 GAS STATICCALL DUP1 ISZERO PUSH2 0x2CE9 JUMPI DUP4 SWAP2 DUP11 SWAP2 PUSH2 0x2F72 JUMPI JUMPDEST POP LT PUSH2 0x2F2E JUMPI CALLER DUP9 MSTORE DUP3 DUP6 MSTORE PUSH1 0x1 SWAP7 PUSH1 0xA DUP9 PUSH1 0x40 DUP12 KECCAK256 ADD SLOAD LT ISZERO PUSH2 0x2EEA JUMPI DUP6 DUP10 SWAP2 PUSH1 0x40 MLOAD PUSH2 0x29D0 DUP2 PUSH2 0x4ED0 JUMP JUMPDEST DUP4 DUP2 MSTORE SWAP4 DUP1 MLOAD ISZERO DUP1 ISZERO PUSH2 0x2CF4 JUMPI JUMPDEST POP POP PUSH1 0x64 PUSH1 0x40 MLOAD DUP1 SWAP5 DUP2 SWAP4 PUSH4 0x23B872DD PUSH1 0xE0 SHL DUP4 MSTORE CALLER PUSH1 0x4 DUP5 ADD MSTORE ADDRESS DUP14 DUP5 ADD MSTORE DUP9 PUSH1 0x44 DUP5 ADD MSTORE GAS CALL DUP1 ISZERO PUSH2 0x2CE9 JUMPI PUSH2 0x2A1C SWAP2 DUP11 SWAP2 PUSH2 0x2CD2 JUMPI POP PUSH2 0x55C3 JUMP JUMPDEST CALLER DUP9 MSTORE DUP3 DUP6 MSTORE DUP7 PUSH1 0x40 DUP10 KECCAK256 ADD SLOAD DUP8 DUP2 ADD DUP1 SWAP2 GT PUSH2 0x2CBF JUMPI CALLER DUP10 MSTORE DUP4 DUP7 MSTORE PUSH1 0x40 DUP10 KECCAK256 SWAP1 DUP9 DUP3 ADD SSTORE TIMESTAMP PUSH1 0x3 DUP3 ADD SSTORE SLOAD DUP8 DUP2 ADD DUP1 SWAP2 GT PUSH2 0x2CBF JUMPI CALLER DUP10 MSTORE DUP4 DUP7 MSTORE PUSH1 0x40 DUP10 KECCAK256 SSTORE PUSH1 0x4 SLOAD DUP9 MSTORE PUSH1 0xA DUP6 MSTORE PUSH2 0x2A74 CALLER PUSH1 0x40 DUP11 KECCAK256 PUSH2 0x525F JUMP JUMPDEST PUSH1 0x4 SLOAD DUP1 DUP10 MSTORE PUSH1 0xB DUP7 MSTORE PUSH1 0x40 DUP10 KECCAK256 SLOAD SWAP1 DUP9 DUP3 ADD DUP1 SWAP3 GT PUSH2 0x2CAC JUMPI DUP10 MSTORE PUSH1 0xB DUP7 MSTORE PUSH1 0x40 DUP10 KECCAK256 SSTORE PUSH2 0x2AA5 DUP3 PUSH1 0x5 SLOAD PUSH2 0x529A JUMP JUMPDEST PUSH1 0x5 SSTORE DUP1 MLOAD PUSH2 0x2C65 JUMPI JUMPDEST POP CALLER DUP8 MSTORE DUP4 DUP1 MSTORE PUSH1 0x40 DUP8 KECCAK256 SLOAD DUP7 DUP2 ADD DUP1 SWAP2 GT PUSH2 0x2C0E JUMPI PUSH1 0x64 DUP2 GT PUSH2 0x2C21 JUMPI CALLER DUP9 MSTORE DUP5 DUP1 MSTORE PUSH1 0x40 DUP9 KECCAK256 SSTORE DUP2 DUP5 MSTORE PUSH1 0xE PUSH1 0x40 DUP9 KECCAK256 ADD SLOAD DUP7 DUP2 ADD DUP1 SWAP2 GT PUSH2 0x2C0E JUMPI CALLER DUP9 MSTORE DUP3 DUP6 MSTORE PUSH1 0xE PUSH1 0x40 DUP10 KECCAK256 ADD SSTORE PUSH1 0x40 MLOAD DUP7 DUP2 MSTORE PUSH1 0x40 DUP6 DUP3 ADD MSTORE PUSH1 0x11 PUSH1 0x40 DUP3 ADD MSTORE PUSH17 0x11185A5B1E481C1B185E481C995DD85C99 PUSH1 0x7A SHL PUSH1 0x60 DUP3 ADD MSTORE PUSH1 0x0 DUP1 MLOAD PUSH1 0x20 PUSH2 0x6146 DUP4 CODECOPY DUP2 MLOAD SWAP2 MSTORE PUSH1 0x80 CALLER SWAP3 LOG2 PUSH1 0x4 SLOAD SWAP1 PUSH1 0x40 MLOAD SWAP1 DUP2 MSTORE PUSH32 0x480A6DAEA81F2AF589E1959DA1F1719512392EC551E8966266EE820F1C1F72EA DUP6 CALLER SWAP3 LOG3 PUSH32 0x404449B42E86F8716DD5AC141731FB164FE1F76D7E4039FDD16C7B3B48F96A4E PUSH1 0x40 PUSH1 0x5 SLOAD PUSH1 0x6 SLOAD DUP3 MLOAD SWAP2 DUP3 MSTORE DUP7 DUP3 ADD MSTORE LOG1 CALLER DUP7 MSTORE DUP3 MSTORE PUSH1 0x10 PUSH1 0x40 DUP7 KECCAK256 ADD DUP5 PUSH1 0xFF NOT DUP3 SLOAD AND OR SWAP1 SSTORE TIMESTAMP ADD SWAP2 DUP3 TIMESTAMP GT PUSH2 0x2BFC JUMPI POP PUSH32 0x2F9A50B0843B7D2D827707C950209B525673C306D684446F6C4B1B748A4ED9EE SWAP1 CALLER DUP6 MSTORE PUSH1 0x21 DUP2 MSTORE DUP3 PUSH1 0x40 DUP7 KECCAK256 SSTORE PUSH1 0x40 MLOAD SWAP3 DUP4 MSTORE CALLER SWAP3 LOG2 DUP2 SSTORE DUP1 RETURN JUMPDEST PUSH4 0x4E487B71 PUSH1 0xE0 SHL DUP6 MSTORE PUSH1 0x11 PUSH1 0x4 MSTORE DUP5 REVERT JUMPDEST PUSH4 0x4E487B71 PUSH1 0xE0 SHL DUP9 MSTORE PUSH1 0x11 PUSH1 0x4 MSTORE DUP6 DUP9 REVERT JUMPDEST PUSH1 0x40 MLOAD PUSH3 0x461BCD PUSH1 0xE5 SHL DUP2 MSTORE PUSH1 0x4 DUP2 ADD DUP7 SWAP1 MSTORE PUSH1 0x1B DUP2 DUP9 ADD MSTORE PUSH32 0x4461696C7920726577617264206C696D69742065786365656465640000000000 PUSH1 0x44 DUP3 ADD MSTORE PUSH1 0x64 SWAP1 REVERT JUMPDEST PUSH2 0x2C9E PUSH32 0x64274D45E838268EFE3B4FA5586A29791F42C0F3F9A6422424C424401BF39589 SWAP2 PUSH1 0x40 MLOAD SWAP2 DUP3 SWAP2 PUSH1 0x40 DUP4 MSTORE PUSH1 0x40 DUP4 ADD SWAP1 PUSH2 0x5117 JUMP JUMPDEST CALLER DUP9 DUP4 ADD MSTORE SUB SWAP1 LOG1 CODESIZE PUSH2 0x2AAF JUMP JUMPDEST PUSH4 0x4E487B71 PUSH1 0xE0 SHL DUP11 MSTORE PUSH1 0x11 PUSH1 0x4 MSTORE DUP8 DUP11 REVERT JUMPDEST PUSH4 0x4E487B71 PUSH1 0xE0 SHL DUP10 MSTORE PUSH1 0x11 PUSH1 0x4 MSTORE DUP7 DUP10 REVERT JUMPDEST PUSH2 0x815 SWAP2 POP DUP8 RETURNDATASIZE DUP10 GT PUSH2 0x81B JUMPI PUSH2 0x80D DUP2 DUP4 PUSH2 0x4F3D JUMP JUMPDEST PUSH1 0x40 MLOAD RETURNDATASIZE DUP12 DUP3 RETURNDATACOPY RETURNDATASIZE SWAP1 REVERT JUMPDEST SWAP3 POP SWAP4 POP SWAP2 POP PUSH2 0x2EAE JUMPI PUSH1 0x64 DUP3 MLOAD GT PUSH2 0x2E79 JUMPI PUSH2 0x2D11 DUP3 MLOAD PUSH2 0x5B45 JUMP JUMPDEST SWAP2 DUP9 DUP11 SWAP2 DUP2 DUP13 SWAP1 JUMPDEST PUSH2 0x2E09 JUMPI JUMPDEST POP POP POP DUP1 ISZERO PUSH2 0x2DC5 JUMPI PUSH2 0x2D30 DUP2 PUSH2 0x5B45 JUMP JUMPDEST SWAP3 DUP10 DUP12 JUMPDEST DUP4 DUP2 LT PUSH2 0x2D9B JUMPI POP POP POP POP PUSH2 0x2D48 DUP3 PUSH2 0x5B88 JUMP JUMPDEST ISZERO PUSH2 0x2D57 JUMPI DUP6 DUP10 SWAP2 CODESIZE DUP1 PUSH2 0x29DE JUMP JUMPDEST PUSH1 0x40 MLOAD PUSH3 0x461BCD PUSH1 0xE5 SHL DUP2 MSTORE PUSH1 0x4 DUP2 ADD DUP8 SWAP1 MSTORE PUSH1 0x1C DUP2 DUP10 ADD MSTORE PUSH32 0x496E76616C696420726566657272616C20636F646520666F726D617400000000 PUSH1 0x44 DUP3 ADD MSTORE PUSH1 0x64 SWAP1 REVERT JUMPDEST PUSH1 0x1 PUSH1 0x1 PUSH1 0xF8 SHL SUB NOT PUSH2 0x2DAE DUP3 DUP6 PUSH2 0x5B77 JUMP JUMPDEST MLOAD AND DUP14 BYTE PUSH2 0x2DBC DUP3 DUP9 PUSH2 0x5B77 JUMP JUMPDEST MSTORE8 ADD DUP11 SWAP1 PUSH2 0x2D34 JUMP JUMPDEST PUSH1 0x40 MLOAD PUSH3 0x461BCD PUSH1 0xE5 SHL DUP2 MSTORE PUSH1 0x4 DUP2 ADD DUP9 SWAP1 MSTORE PUSH1 0x1C DUP2 DUP11 ADD MSTORE PUSH32 0x4E6F2076616C6964206368617261637465727320696E20696E70757400000000 PUSH1 0x44 DUP3 ADD MSTORE PUSH1 0x64 SWAP1 REVERT JUMPDEST DUP2 MLOAD DUP2 LT ISZERO PUSH2 0x2E74 JUMPI PUSH1 0x1 PUSH1 0x1 PUSH1 0xF8 SHL SUB NOT PUSH2 0x2E25 DUP3 DUP5 PUSH2 0x5B77 JUMP JUMPDEST MLOAD AND DUP14 PUSH1 0x1 PUSH1 0xFD SHL DUP3 LT ISZERO DUP1 PUSH2 0x2E66 JUMPI JUMPDEST PUSH2 0x2E45 JUMPI JUMPDEST POP POP DUP3 ADD DUP3 PUSH2 0x2D19 JUMP JUMPDEST SWAP5 PUSH2 0x2E5E SWAP2 DUP6 SWAP4 SWAP7 BYTE PUSH2 0x2E58 DUP3 DUP11 PUSH2 0x5B77 JUMP JUMPDEST MSTORE8 PUSH2 0x5802 JUMP JUMPDEST SWAP4 SWAP1 DUP14 PUSH2 0x2E3B JUMP JUMPDEST POP PUSH1 0x3F PUSH1 0xF9 SHL DUP3 GT ISZERO PUSH2 0x2E36 JUMP JUMPDEST PUSH2 0x2D1E JUMP JUMPDEST PUSH1 0x40 MLOAD PUSH3 0x461BCD PUSH1 0xE5 SHL DUP2 MSTORE PUSH1 0x4 DUP2 ADD DUP8 SWAP1 MSTORE PUSH1 0xE DUP2 DUP10 ADD MSTORE PUSH14 0x496E70757420746F6F206C6F6E67 PUSH1 0x90 SHL PUSH1 0x44 DUP3 ADD MSTORE PUSH1 0x64 SWAP1 REVERT JUMPDEST PUSH1 0x40 MLOAD PUSH3 0x461BCD PUSH1 0xE5 SHL DUP2 MSTORE PUSH1 0x4 DUP2 ADD DUP8 SWAP1 MSTORE PUSH1 0x15 DUP2 DUP10 ADD MSTORE PUSH21 0x496E7075742063616E6E6F7420626520656D707479 PUSH1 0x58 SHL PUSH1 0x44 DUP3 ADD MSTORE PUSH1 0x64 SWAP1 REVERT JUMPDEST PUSH1 0x40 MLOAD PUSH3 0x461BCD PUSH1 0xE5 SHL DUP2 MSTORE PUSH1 0x4 DUP2 ADD DUP8 SWAP1 MSTORE PUSH1 0x19 DUP2 DUP10 ADD MSTORE PUSH32 0x4D6178206461696C7920656E7472696573207265616368656400000000000000 PUSH1 0x44 DUP3 ADD MSTORE PUSH1 0x64 SWAP1 REVERT JUMPDEST PUSH1 0x40 MLOAD PUSH3 0x461BCD PUSH1 0xE5 SHL DUP2 MSTORE PUSH1 0x4 DUP2 ADD DUP7 SWAP1 MSTORE PUSH1 0x18 DUP2 DUP9 ADD MSTORE PUSH32 0x496E73756666696369656E7420564D462062616C616E63650000000000000000 PUSH1 0x44 DUP3 ADD MSTORE PUSH1 0x64 SWAP1 REVERT JUMPDEST DUP1 SWAP3 POP DUP8 DUP1 SWAP3 POP RETURNDATASIZE DUP4 GT PUSH2 0x2FA0 JUMPI JUMPDEST PUSH2 0x2F8B DUP2 DUP4 PUSH2 0x4F3D JUMP JUMPDEST DUP2 ADD SUB SLT PUSH2 0x2F9C JUMPI DUP3 SWAP1 MLOAD CODESIZE PUSH2 0x29A3 JUMP JUMPDEST DUP9 DUP1 REVERT JUMPDEST POP RETURNDATASIZE PUSH2 0x2F81 JUMP JUMPDEST PUSH2 0x2FB3 PUSH1 0x32 SWAP2 DUP4 PUSH2 0x604E JUMP JUMPDEST GT PUSH2 0x2FBE JUMPI CODESIZE PUSH2 0x2919 JUMP JUMPDEST PUSH1 0x40 MLOAD PUSH3 0x461BCD PUSH1 0xE5 SHL DUP2 MSTORE PUSH1 0x4 DUP2 ADD DUP7 SWAP1 MSTORE PUSH1 0x18 PUSH1 0x24 DUP3 ADD MSTORE PUSH32 0x507269636520646576696174696F6E20746F6F20686967680000000000000000 PUSH1 0x44 DUP3 ADD MSTORE PUSH1 0x64 SWAP1 REVERT JUMPDEST SWAP1 POP DUP6 DUP2 DUP2 RETURNDATASIZE DUP4 GT PUSH2 0x3029 JUMPI JUMPDEST PUSH2 0x301A DUP2 DUP4 PUSH2 0x4F3D JUMP JUMPDEST DUP2 ADD SUB SLT PUSH2 0x2F9C JUMPI MLOAD CODESIZE PUSH2 0x2912 JUMP JUMPDEST POP RETURNDATASIZE PUSH2 0x3010 JUMP JUMPDEST SWAP1 SWAP9 POP DUP7 DUP2 DUP2 RETURNDATASIZE DUP4 GT PUSH2 0x305C JUMPI JUMPDEST PUSH2 0x3048 DUP2 DUP4 PUSH2 0x4F3D JUMP JUMPDEST DUP2 ADD SUB SLT PUSH2 0x3058 JUMPI MLOAD SWAP8 DUP7 PUSH2 0x28F4 JUMP JUMPDEST DUP10 DUP1 REVERT JUMPDEST POP RETURNDATASIZE PUSH2 0x303E JUMP JUMPDEST PUSH1 0x40 MLOAD RETURNDATASIZE DUP13 DUP3 RETURNDATACOPY RETURNDATASIZE SWAP1 REVERT JUMPDEST SWAP1 SWAP2 POP DUP6 DUP2 DUP2 RETURNDATASIZE DUP4 GT PUSH2 0x3096 JUMPI JUMPDEST PUSH2 0x3086 DUP2 DUP4 PUSH2 0x4F3D JUMP JUMPDEST DUP2 ADD SUB SLT PUSH2 0x2F9C JUMPI MLOAD SWAP1 CODESIZE PUSH2 0x28CF JUMP JUMPDEST POP RETURNDATASIZE PUSH2 0x307C JUMP JUMPDEST PUSH1 0x40 MLOAD PUSH3 0x461BCD PUSH1 0xE5 SHL DUP2 MSTORE PUSH1 0x4 DUP2 ADD DUP4 SWAP1 MSTORE PUSH1 0x1C PUSH1 0x24 DUP3 ADD MSTORE PUSH32 0x537573706963696F757320616374697669747920646574656374656400000000 PUSH1 0x44 DUP3 ADD MSTORE PUSH1 0x64 SWAP1 REVERT JUMPDEST PUSH1 0x40 MLOAD PUSH3 0x461BCD PUSH1 0xE5 SHL DUP2 MSTORE PUSH1 0x4 DUP2 ADD DUP4 SWAP1 MSTORE PUSH1 0xF PUSH1 0x24 DUP3 ADD MSTORE PUSH15 0x125B9D985B1A590819D85B59481251 PUSH1 0x8A SHL PUSH1 0x44 DUP3 ADD MSTORE PUSH1 0x64 SWAP1 REVERT JUMPDEST PUSH1 0x40 MLOAD PUSH3 0x461BCD PUSH1 0xE5 SHL DUP2 MSTORE PUSH1 0x4 DUP2 ADD DUP4 SWAP1 MSTORE PUSH1 0x1B PUSH1 0x24 DUP3 ADD MSTORE PUSH32 0x536563757269747920636865636B20746F6F206672657175656E740000000000 PUSH1 0x44 DUP3 ADD MSTORE PUSH1 0x64 SWAP1 REVERT JUMPDEST PUSH4 0x4E487B71 PUSH1 0xE0 SHL DUP7 MSTORE PUSH1 0x11 PUSH1 0x4 MSTORE PUSH1 0x24 DUP7 REVERT JUMPDEST PUSH1 0x64 DUP3 DUP6 PUSH1 0x40 MLOAD SWAP2 PUSH3 0x461BCD PUSH1 0xE5 SHL DUP4 MSTORE PUSH1 0x4 DUP4 ADD MSTORE PUSH1 0x24 DUP3 ADD MSTORE PUSH32 0x52617465206C696D697420636F6F6C646F776E20616374697665000000000000 PUSH1 0x44 DUP3 ADD MSTORE REVERT JUMPDEST PUSH1 0x40 MLOAD PUSH3 0x461BCD PUSH1 0xE5 SHL DUP2 MSTORE PUSH1 0x4 DUP2 ADD DUP4 SWAP1 MSTORE PUSH1 0x13 PUSH1 0x24 DUP3 ADD MSTORE PUSH19 0x14985D19481B1A5B5A5D08195E18D959591959 PUSH1 0x6A SHL PUSH1 0x44 DUP3 ADD MSTORE PUSH1 0x64 SWAP1 REVERT JUMPDEST PUSH1 0x64 SWAP1 PUSH1 0x40 MLOAD SWAP1 PUSH3 0x461BCD PUSH1 0xE5 SHL DUP3 MSTORE PUSH1 0x4 DUP3 ADD MSTORE PUSH1 0x14 PUSH1 0x24 DUP3 ADD MSTORE PUSH20 0x155CD95C881A5CC81C985D19481B1A5B5A5D1959 PUSH1 0x62 SHL PUSH1 0x44 DUP3 ADD MSTORE REVERT JUMPDEST POP CALLVALUE PUSH2 0x4CD JUMPI DUP1 PUSH1 0x3 NOT CALLDATASIZE ADD SLT PUSH2 0x4CD JUMPI PUSH1 0x20 PUSH1 0x12 SLOAD PUSH1 0x40 MLOAD SWAP1 DUP2 MSTORE RETURN JUMPDEST POP CALLVALUE PUSH2 0x4CD JUMPI DUP1 PUSH1 0x3 NOT CALLDATASIZE ADD SLT PUSH2 0x4CD JUMPI PUSH32 0xA49807205CE4D355092EF5A8A18F56E8913CF4A201FBE287825B095693C21775 DUP2 MSTORE PUSH1 0x20 SWAP1 PUSH1 0x18 DUP3 MSTORE PUSH1 0x40 DUP2 KECCAK256 CALLER DUP3 MSTORE DUP3 MSTORE PUSH1 0xFF SWAP2 PUSH1 0xFF PUSH1 0x40 DUP4 KECCAK256 SLOAD AND DUP1 ISZERO PUSH2 0x33A9 JUMPI JUMPDEST PUSH2 0x32A8 SWAP1 PUSH2 0x541D JUMP JUMPDEST PUSH1 0x26 SLOAD PUSH2 0xE10 DUP2 ADD DUP1 SWAP2 GT PUSH2 0x2349 JUMPI TIMESTAMP LT PUSH2 0x3365 JUMPI DUP2 JUMPDEST PUSH1 0x64 DUP2 LT PUSH2 0x3310 JUMPI POP TIMESTAMP PUSH1 0x26 SSTORE PUSH1 0x25 SLOAD PUSH1 0x1 DUP2 ADD DUP1 SWAP2 GT PUSH2 0x2349 JUMPI PUSH32 0x1B9B06155F0DA9BCE83C4A8A54DCCA59CDF479249CEB43679C0BD7FA67B2F188 SWAP2 DUP2 PUSH1 0x40 SWAP3 PUSH1 0x25 SSTORE DUP3 MLOAD SWAP2 TIMESTAMP DUP4 MSTORE DUP3 ADD MSTORE LOG1 DUP1 RETURN JUMPDEST DUP1 PUSH1 0x1 SWAP2 NUMBER GT DUP1 PUSH2 0x3348 JUMPI JUMPDEST PUSH2 0x3327 JUMPI JUMPDEST ADD PUSH2 0x32BF JUMP JUMPDEST PUSH2 0x3331 DUP2 NUMBER PUSH2 0x55B6 JUMP JUMPDEST DUP5 MSTORE PUSH1 0x24 DUP4 MSTORE PUSH1 0x40 DUP5 KECCAK256 DUP1 SLOAD PUSH1 0xFF NOT AND SWAP1 SSTORE PUSH2 0x3321 JUMP JUMPDEST POP PUSH2 0x3353 DUP2 NUMBER PUSH2 0x55B6 JUMP JUMPDEST DUP5 MSTORE PUSH1 0x24 DUP4 MSTORE DUP5 PUSH1 0x40 DUP6 KECCAK256 SLOAD AND PUSH2 0x331C JUMP JUMPDEST PUSH1 0x64 SWAP1 PUSH1 0x40 MLOAD SWAP1 PUSH3 0x461BCD PUSH1 0xE5 SHL DUP3 MSTORE PUSH1 0x4 DUP3 ADD MSTORE PUSH1 0x19 PUSH1 0x24 DUP3 ADD MSTORE PUSH32 0x4F7074696D697A6174696F6E20746F6F206672657175656E7400000000000000 PUSH1 0x44 DUP3 ADD MSTORE REVERT JUMPDEST POP PUSH1 0x1 SLOAD PUSH1 0x1 PUSH1 0x1 PUSH1 0xA0 SHL SUB AND CALLER EQ PUSH2 0x329F JUMP JUMPDEST POP CALLVALUE PUSH2 0x4CD JUMPI PUSH1 0x20 CALLDATASIZE PUSH1 0x3 NOT ADD SLT PUSH2 0x4CD JUMPI PUSH1 0x40 PUSH2 0x220 SWAP2 PUSH2 0x33DD PUSH2 0x4DAD JUMP JUMPDEST DUP2 PUSH2 0x200 DUP5 MLOAD PUSH2 0x33EC DUP2 PUSH2 0x4E6A JUMP JUMPDEST DUP3 DUP2 MSTORE DUP3 PUSH1 0x20 DUP3 ADD MSTORE DUP3 DUP7 DUP3 ADD MSTORE DUP3 PUSH1 0x60 DUP3 ADD MSTORE DUP3 PUSH1 0x80 DUP3 ADD MSTORE DUP3 PUSH1 0xA0 DUP3 ADD MSTORE DUP3 PUSH1 0xC0 DUP3 ADD MSTORE DUP3 PUSH1 0xE0 DUP3 ADD MSTORE DUP3 PUSH2 0x100 DUP3 ADD MSTORE DUP3 PUSH2 0x120 DUP3 ADD MSTORE DUP3 PUSH2 0x140 DUP3 ADD MSTORE DUP3 PUSH2 0x160 DUP3 ADD MSTORE DUP3 PUSH2 0x180 DUP3 ADD MSTORE DUP3 PUSH2 0x1A0 DUP3 ADD MSTORE DUP3 PUSH2 0x1C0 DUP3 ADD MSTORE DUP3 PUSH2 0x1E0 DUP3 ADD MSTORE ADD MSTORE PUSH1 0x1 DUP1 PUSH1 0xA0 SHL SUB AND DUP2 MSTORE PUSH1 0x1A PUSH1 0x20 MSTORE KECCAK256 PUSH2 0x200 PUSH1 0x40 MLOAD PUSH2 0x3471 DUP2 PUSH2 0x4E6A JUMP JUMPDEST PUSH1 0xFF PUSH1 0x10 DUP5 SLOAD SWAP5 DUP6 DUP5 MSTORE PUSH1 0x1 DUP2 ADD SLOAD PUSH1 0x20 DUP6 ADD MSTORE PUSH1 0x2 DUP2 ADD SLOAD PUSH1 0x40 DUP6 ADD MSTORE PUSH1 0x3 DUP2 ADD SLOAD PUSH1 0x60 DUP6 ADD MSTORE PUSH1 0x4 DUP2 ADD SLOAD PUSH1 0x80 DUP6 ADD MSTORE PUSH1 0x5 DUP2 ADD SLOAD PUSH1 0xA0 DUP6 ADD MSTORE DUP3 PUSH1 0x6 DUP3 ADD SLOAD AND ISZERO ISZERO PUSH1 0xC0 DUP6 ADD MSTORE PUSH1 0x7 DUP2 ADD SLOAD PUSH1 0xE0 DUP6 ADD MSTORE PUSH1 0x8 DUP2 ADD SLOAD PUSH2 0x100 DUP6 ADD MSTORE PUSH1 0x9 DUP2 ADD SLOAD PUSH2 0x120 DUP6 ADD MSTORE PUSH1 0xA DUP2 ADD SLOAD PUSH2 0x140 DUP6 ADD MSTORE PUSH1 0xB DUP2 ADD SLOAD PUSH2 0x160 DUP6 ADD MSTORE PUSH1 0xC DUP2 ADD SLOAD PUSH2 0x180 DUP6 ADD MSTORE DUP3 PUSH1 0xD DUP3 ADD SLOAD AND ISZERO ISZERO PUSH2 0x1A0 DUP6 ADD MSTORE PUSH1 0xE DUP2 ADD SLOAD PUSH2 0x1C0 DUP6 ADD MSTORE PUSH1 0xF DUP2 ADD SLOAD PUSH2 0x1E0 DUP6 ADD MSTORE ADD SLOAD AND ISZERO ISZERO DUP3 DUP3 ADD MSTORE PUSH1 0x40 MLOAD SWAP3 DUP4 MSTORE PUSH1 0x20 DUP2 ADD MLOAD PUSH1 0x20 DUP5 ADD MSTORE PUSH1 0x40 DUP2 ADD MLOAD PUSH1 0x40 DUP5 ADD MSTORE PUSH1 0x60 DUP2 ADD MLOAD PUSH1 0x60 DUP5 ADD MSTORE PUSH1 0x80 DUP2 ADD MLOAD PUSH1 0x80 DUP5 ADD MSTORE PUSH1 0xA0 DUP2 ADD MLOAD PUSH1 0xA0 DUP5 ADD MSTORE PUSH1 0xC0 DUP2 ADD MLOAD ISZERO ISZERO PUSH1 0xC0 DUP5 ADD MSTORE PUSH1 0xE0 DUP2 ADD MLOAD PUSH1 0xE0 DUP5 ADD MSTORE PUSH2 0x100 DUP2 ADD MLOAD PUSH2 0x100 DUP5 ADD MSTORE PUSH2 0x120 DUP2 ADD MLOAD PUSH2 0x120 DUP5 ADD MSTORE PUSH2 0x140 DUP2 ADD MLOAD PUSH2 0x140 DUP5 ADD MSTORE PUSH2 0x160 DUP2 ADD MLOAD PUSH2 0x160 DUP5 ADD MSTORE PUSH2 0x180 DUP2 ADD MLOAD PUSH2 0x180 DUP5 ADD MSTORE PUSH2 0x1A0 DUP2 ADD MLOAD ISZERO ISZERO PUSH2 0x1A0 DUP5 ADD MSTORE PUSH2 0x1C0 DUP2 ADD MLOAD PUSH2 0x1C0 DUP5 ADD MSTORE PUSH2 0x1E0 DUP2 ADD MLOAD PUSH2 0x1E0 DUP5 ADD MSTORE ADD MLOAD ISZERO ISZERO PUSH2 0x200 DUP3 ADD MSTORE RETURN JUMPDEST POP CALLVALUE PUSH2 0x4CD JUMPI DUP1 PUSH1 0x3 NOT CALLDATASIZE ADD SLT PUSH2 0x4CD JUMPI PUSH2 0x35FF PUSH2 0x564A JUMP JUMPDEST PUSH1 0x8 SLOAD PUSH3 0x93A80 DUP2 ADD DUP1 SWAP2 GT PUSH2 0x8BB JUMPI TIMESTAMP LT PUSH2 0x37AA JUMPI PUSH1 0x40 MLOAD PUSH2 0x160 DUP2 ADD DUP2 DUP2 LT PUSH1 0x1 PUSH1 0x1 PUSH1 0x40 SHL SUB DUP3 GT OR PUSH2 0x3796 JUMPI PUSH1 0x40 MSTORE PUSH1 0xA DUP1 DUP3 MSTORE PUSH1 0x20 SWAP1 PUSH2 0x140 CALLDATASIZE PUSH1 0x20 DUP6 ADD CALLDATACOPY DUP4 JUMPDEST DUP2 DUP2 LT PUSH2 0x3781 JUMPI POP POP PUSH1 0xA PUSH1 0x6 SLOAD DIV DUP4 JUMPDEST DUP4 MLOAD DUP2 LT ISZERO PUSH2 0x373B JUMPI PUSH1 0x1 PUSH1 0x1 PUSH1 0xA0 SHL SUB SWAP1 DUP4 DUP4 DUP4 PUSH2 0x3675 DUP5 DUP10 PUSH2 0x54C7 JUMP JUMPDEST MLOAD AND PUSH2 0x3688 JUMPI JUMPDEST POP POP PUSH1 0x1 SWAP2 POP ADD PUSH2 0x3656 JUMP JUMPDEST DUP4 PUSH2 0x36CB SWAP5 PUSH2 0x3697 DUP6 DUP11 PUSH2 0x54C7 JUMP JUMPDEST MLOAD AND DUP10 PUSH1 0x40 MLOAD DUP1 SWAP8 DUP2 SWAP6 DUP3 SWAP5 PUSH4 0xA9059CBB PUSH1 0xE0 SHL DUP5 MSTORE PUSH1 0x4 DUP5 ADD PUSH1 0x20 SWAP1 SWAP4 SWAP3 SWAP2 SWAP4 PUSH1 0x40 DUP2 ADD SWAP5 PUSH1 0x1 DUP1 PUSH1 0xA0 SHL SUB AND DUP2 MSTORE ADD MSTORE JUMP JUMPDEST SUB SWAP3 PUSH32 0x0 AND GAS CALL SWAP2 DUP3 ISZERO PUSH2 0x3730 JUMPI PUSH1 0x1 SWAP3 PUSH2 0x370C SWAP2 DUP9 SWAP2 PUSH2 0x3713 JUMPI JUMPDEST POP PUSH2 0x5513 JUMP JUMPDEST DUP4 DUP4 PUSH2 0x367C JUMP JUMPDEST PUSH2 0x372A SWAP2 POP DUP7 RETURNDATASIZE DUP9 GT PUSH2 0x81B JUMPI PUSH2 0x80D DUP2 DUP4 PUSH2 0x4F3D JUMP JUMPDEST CODESIZE PUSH2 0x3706 JUMP JUMPDEST PUSH1 0x40 MLOAD RETURNDATASIZE DUP9 DUP3 RETURNDATACOPY RETURNDATASIZE SWAP1 REVERT JUMPDEST DUP5 PUSH32 0x266EAB4E9078D52EC3F1266D5B3619A11040584EF2997FDEA8AFA3C03FA55977 DUP6 PUSH1 0x4 SLOAD PUSH2 0x3773 PUSH1 0x6 SLOAD PUSH1 0x40 MLOAD SWAP4 DUP5 SWAP4 DUP5 PUSH2 0x5594 JUMP JUMPDEST SUB SWAP1 LOG1 DUP1 PUSH1 0x6 SSTORE TIMESTAMP PUSH1 0x8 SSTORE DUP1 RETURN JUMPDEST DUP1 DUP6 PUSH2 0x378F PUSH1 0x1 SWAP4 DUP8 PUSH2 0x54C7 JUMP JUMPDEST MSTORE ADD PUSH2 0x3645 JUMP JUMPDEST PUSH4 0x4E487B71 PUSH1 0xE0 SHL DUP4 MSTORE PUSH1 0x41 PUSH1 0x4 MSTORE PUSH1 0x24 DUP4 REVERT JUMPDEST PUSH1 0x40 MLOAD PUSH3 0x461BCD PUSH1 0xE5 SHL DUP2 MSTORE PUSH1 0x20 PUSH1 0x4 DUP3 ADD MSTORE PUSH1 0x15 PUSH1 0x24 DUP3 ADD MSTORE PUSH21 0x5765656B6C792064726177206E6F74207265616479 PUSH1 0x58 SHL PUSH1 0x44 DUP3 ADD MSTORE PUSH1 0x64 SWAP1 REVERT JUMPDEST POP CALLVALUE PUSH2 0x4CD JUMPI PUSH1 0x20 CALLDATASIZE PUSH1 0x3 NOT ADD SLT PUSH2 0x4CD JUMPI PUSH1 0x40 SWAP1 PUSH1 0x4 CALLDATALOAD DUP2 MSTORE PUSH1 0x1F PUSH1 0x20 MSTORE KECCAK256 DUP1 SLOAD PUSH1 0x40 MLOAD SWAP2 PUSH2 0x3825 DUP4 PUSH2 0x381E DUP2 PUSH1 0x1 DUP6 ADD PUSH2 0x505A JUMP JUMPDEST SUB DUP5 PUSH2 0x4F3D JUMP JUMPDEST PUSH1 0x2 DUP2 ADD SLOAD SWAP1 PUSH1 0xFF PUSH1 0x4 PUSH1 0x3 DUP4 ADD SLOAD SWAP3 ADD SLOAD AND SWAP1 PUSH2 0x3855 PUSH1 0x40 MLOAD SWAP6 DUP7 SWAP6 DUP7 MSTORE PUSH1 0xA0 PUSH1 0x20 DUP8 ADD MSTORE PUSH1 0xA0 DUP7 ADD SWAP1 PUSH2 0x5117 JUMP JUMPDEST SWAP3 PUSH1 0x40 DUP6 ADD MSTORE PUSH1 0x60 DUP5 ADD MSTORE ISZERO ISZERO PUSH1 0x80 DUP4 ADD MSTORE SUB SWAP1 RETURN JUMPDEST POP CALLVALUE PUSH2 0x4CD JUMPI PUSH2 0x387A CALLDATASIZE PUSH2 0x4DD9 JUMP JUMPDEST SWAP2 SWAP1 DUP2 MSTORE PUSH1 0xA PUSH1 0x20 MSTORE PUSH1 0x40 DUP2 KECCAK256 SWAP1 DUP2 SLOAD DUP4 LT ISZERO PUSH2 0x4CD JUMPI PUSH1 0x20 PUSH2 0x1C88 DUP5 DUP5 PUSH2 0x4DEF JUMP JUMPDEST POP CALLVALUE PUSH2 0x4CD JUMPI PUSH1 0x40 CALLDATASIZE PUSH1 0x3 NOT ADD SLT PUSH2 0x4CD JUMPI PUSH2 0x38B7 PUSH2 0x4DAD JUMP JUMPDEST PUSH1 0x24 CALLDATALOAD SWAP1 DUP2 ISZERO ISZERO SWAP1 DUP2 DUP4 SUB PUSH2 0x1B0D JUMPI PUSH32 0x7C6A5677E7A854A53D06C412E00EBE65535F5343566CA7939AC7C7F6B0B00C16 SWAP2 PUSH2 0x3933 PUSH1 0x20 SWAP3 PUSH2 0x38F6 PUSH2 0x564A JUMP JUMPDEST PUSH1 0x1 PUSH1 0x1 PUSH1 0xA0 SHL SUB AND DUP1 DUP8 MSTORE PUSH1 0x1E DUP5 MSTORE PUSH1 0x40 DUP1 DUP9 KECCAK256 DUP1 SLOAD SWAP8 ISZERO ISZERO PUSH1 0xFF AND PUSH1 0xFF NOT SWAP9 DUP10 AND DUP2 OR SWAP1 SWAP2 SSTORE PUSH1 0x1A DUP7 MSTORE SWAP1 DUP9 KECCAK256 PUSH1 0x6 ADD DUP1 SLOAD SWAP1 SWAP8 AND OR SWAP1 SWAP6 SSTORE JUMP JUMPDEST PUSH1 0x40 MLOAD SWAP1 DUP2 MSTORE LOG2 DUP1 RETURN JUMPDEST POP CALLVALUE PUSH2 0x4CD JUMPI DUP1 PUSH1 0x3 NOT CALLDATASIZE ADD SLT PUSH2 0x4CD JUMPI PUSH1 0x2 SLOAD PUSH1 0x40 MLOAD PUSH1 0x1 PUSH1 0x1 PUSH1 0xA0 SHL SUB SWAP1 SWAP2 AND DUP2 MSTORE PUSH1 0x20 SWAP1 RETURN JUMPDEST POP CALLVALUE PUSH2 0x4CD JUMPI DUP1 PUSH1 0x3 NOT CALLDATASIZE ADD SLT PUSH2 0x4CD JUMPI PUSH2 0x397F PUSH2 0x564A JUMP JUMPDEST PUSH1 0x4 SLOAD DUP2 MSTORE PUSH1 0x20 PUSH1 0x1D DUP2 MSTORE PUSH1 0x40 DUP3 KECCAK256 SWAP1 PUSH1 0x6 DUP3 ADD SWAP2 PUSH1 0xFF DUP4 SLOAD AND PUSH2 0x3BB0 JUMPI PUSH1 0x2 DUP2 ADD SLOAD TIMESTAMP LT PUSH2 0x3B77 JUMPI PUSH2 0x39B5 PUSH1 0x3 DUP3 ADD SLOAD PUSH2 0x5811 JUMP JUMPDEST PUSH1 0x5 SLOAD PUSH1 0x3 SHR SWAP2 DUP6 JUMPDEST DUP3 MLOAD DUP2 LT ISZERO PUSH2 0x3A91 JUMPI PUSH1 0x1 PUSH1 0x1 PUSH1 0xA0 SHL SUB SWAP1 DUP6 DUP6 DUP4 PUSH2 0x39DD DUP5 DUP9 PUSH2 0x54C7 JUMP JUMPDEST MLOAD AND PUSH2 0x39F0 JUMPI JUMPDEST POP POP PUSH1 0x1 SWAP2 POP ADD PUSH2 0x39BE JUMP JUMPDEST DUP4 PUSH2 0x3A33 SWAP5 PUSH2 0x39FF DUP6 DUP10 PUSH2 0x54C7 JUMP JUMPDEST MLOAD AND DUP12 PUSH1 0x40 MLOAD DUP1 SWAP8 DUP2 SWAP6 DUP3 SWAP5 PUSH4 0xA9059CBB PUSH1 0xE0 SHL DUP5 MSTORE PUSH1 0x4 DUP5 ADD PUSH1 0x20 SWAP1 SWAP4 SWAP3 SWAP2 SWAP4 PUSH1 0x40 DUP2 ADD SWAP5 PUSH1 0x1 DUP1 PUSH1 0xA0 SHL SUB AND DUP2 MSTORE ADD MSTORE JUMP JUMPDEST SUB SWAP3 PUSH32 0x0 AND GAS CALL SWAP2 DUP3 ISZERO PUSH2 0x822 JUMPI PUSH1 0x1 SWAP3 PUSH2 0x3A73 SWAP2 DUP11 SWAP2 PUSH2 0x3A7A JUMPI POP PUSH2 0x5513 JUMP JUMPDEST DUP6 DUP6 PUSH2 0x39E4 JUMP JUMPDEST PUSH2 0x372A SWAP2 POP DUP9 RETURNDATASIZE DUP11 GT PUSH2 0x81B JUMPI PUSH2 0x80D DUP2 DUP4 PUSH2 0x4F3D JUMP JUMPDEST DUP7 DUP4 DUP4 DUP9 DUP9 PUSH1 0x5 DUP4 ADD DUP5 MLOAD SWAP2 PUSH1 0x1 PUSH1 0x1 PUSH1 0x40 SHL SUB DUP4 GT PUSH2 0x3B63 JUMPI PUSH1 0x1 PUSH1 0x40 SHL DUP4 GT PUSH2 0x3B63 JUMPI DUP2 SLOAD DUP4 DUP4 SSTORE DUP1 DUP5 LT PUSH2 0x3B3E JUMPI JUMPDEST POP DUP1 DUP7 ADD SWAP2 DUP8 MSTORE DUP1 DUP8 KECCAK256 SWAP1 DUP8 JUMPDEST DUP5 DUP2 LT PUSH2 0x3B23 JUMPI DUP6 SLOAD PUSH1 0xFF NOT AND PUSH1 0x1 OR DUP7 SSTORE PUSH1 0x5 SLOAD PUSH1 0x4 DUP9 DUP2 ADD DUP3 SWAP1 SSTORE SLOAD PUSH1 0x40 MLOAD DUP12 SWAP3 PUSH32 0xDD1C72FCDA97FCFC2FE124C4AA194986CACA752D3769C00A6495659509D7B19B SWAP3 DUP3 SWAP2 PUSH2 0x8AD SWAP2 DUP15 SWAP1 DUP5 PUSH2 0x5594 JUMP JUMPDEST DUP4 MLOAD PUSH1 0x1 PUSH1 0x1 PUSH1 0xA0 SHL SUB AND DUP4 DUP3 ADD SSTORE SWAP3 DUP2 ADD SWAP3 PUSH1 0x1 ADD PUSH2 0x3AD0 JUMP JUMPDEST DUP3 DUP9 MSTORE DUP4 DUP3 DUP10 KECCAK256 SWAP2 DUP3 ADD SWAP2 ADD JUMPDEST DUP2 DUP2 LT PUSH2 0x3B58 JUMPI POP PUSH2 0x3AC3 JUMP JUMPDEST DUP9 DUP2 SSTORE PUSH1 0x1 ADD PUSH2 0x3B4B JUMP JUMPDEST PUSH4 0x4E487B71 PUSH1 0xE0 SHL DUP8 MSTORE PUSH1 0x41 PUSH1 0x4 MSTORE PUSH1 0x24 DUP8 REVERT JUMPDEST PUSH1 0x40 MLOAD PUSH3 0x461BCD PUSH1 0xE5 SHL DUP2 MSTORE PUSH1 0x4 DUP2 ADD DUP4 SWAP1 MSTORE PUSH1 0x11 PUSH1 0x24 DUP3 ADD MSTORE PUSH17 0x11D85B59481B9BDD08199A5B9A5CDA1959 PUSH1 0x7A SHL PUSH1 0x44 DUP3 ADD MSTORE PUSH1 0x64 SWAP1 REVERT JUMPDEST PUSH1 0x40 MLOAD PUSH3 0x461BCD PUSH1 0xE5 SHL DUP2 MSTORE PUSH1 0x4 DUP2 ADD DUP4 SWAP1 MSTORE PUSH1 0x16 PUSH1 0x24 DUP3 ADD MSTORE PUSH22 0x11D85B5948185B1C9958591E4818DBDB5C1B195D1959 PUSH1 0x52 SHL PUSH1 0x44 DUP3 ADD MSTORE PUSH1 0x64 SWAP1 REVERT JUMPDEST POP CALLVALUE PUSH2 0x4CD JUMPI PUSH1 0x20 CALLDATASIZE PUSH1 0x3 NOT ADD SLT PUSH2 0x4CD JUMPI PUSH1 0x60 SWAP1 PUSH1 0x5 SLOAD SWAP1 PUSH1 0x4 CALLDATALOAD DUP2 MSTORE PUSH1 0x15 PUSH1 0x20 MSTORE PUSH1 0x40 DUP1 DUP3 KECCAK256 SLOAD SWAP2 PUSH1 0x14 PUSH1 0x20 MSTORE KECCAK256 SLOAD SWAP1 PUSH1 0x40 MLOAD SWAP3 DUP4 MSTORE PUSH1 0x20 DUP4 ADD MSTORE PUSH1 0x40 DUP3 ADD MSTORE RETURN JUMPDEST POP CALLVALUE PUSH2 0x4CD JUMPI DUP1 PUSH1 0x3 NOT CALLDATASIZE ADD SLT PUSH2 0x4CD JUMPI PUSH1 0x20 PUSH1 0x6 SLOAD PUSH1 0x40 MLOAD SWAP1 DUP2 MSTORE RETURN JUMPDEST POP CALLVALUE PUSH2 0x4CD JUMPI PUSH1 0x40 CALLDATASIZE PUSH1 0x3 NOT ADD SLT PUSH2 0x4CD JUMPI PUSH1 0x4 CALLDATALOAD PUSH1 0x1 PUSH1 0x1 PUSH1 0x40 SHL SUB DUP1 DUP3 GT PUSH2 0x23B9 JUMPI CALLDATASIZE PUSH1 0x23 DUP4 ADD SLT ISZERO PUSH2 0x23B9 JUMPI DUP2 PUSH1 0x4 ADD CALLDATALOAD PUSH2 0x3C8D DUP2 PUSH2 0x5020 JUMP JUMPDEST SWAP3 PUSH2 0x3C9B PUSH1 0x40 MLOAD SWAP5 DUP6 PUSH2 0x4F3D JUMP JUMPDEST DUP2 DUP5 MSTORE PUSH1 0x24 PUSH1 0x20 DUP6 ADD SWAP3 PUSH1 0x5 SHL DUP3 ADD ADD SWAP1 CALLDATASIZE DUP3 GT PUSH2 0x400D JUMPI PUSH1 0x24 ADD SWAP2 JUMPDEST DUP2 DUP4 LT PUSH2 0x4011 JUMPI POP POP POP PUSH1 0x24 CALLDATALOAD SWAP1 DUP2 GT PUSH2 0x23B9 JUMPI CALLDATASIZE PUSH1 0x23 DUP3 ADD SLT ISZERO PUSH2 0x23B9 JUMPI DUP1 PUSH1 0x4 ADD CALLDATALOAD SWAP1 PUSH2 0x3CE6 DUP3 PUSH2 0x5020 JUMP JUMPDEST SWAP2 PUSH2 0x3CF4 PUSH1 0x40 MLOAD SWAP4 DUP5 PUSH2 0x4F3D JUMP JUMPDEST DUP1 DUP4 MSTORE PUSH1 0x24 PUSH1 0x20 DUP5 ADD SWAP2 PUSH1 0x5 SHL DUP4 ADD ADD SWAP2 CALLDATASIZE DUP4 GT PUSH2 0x400D JUMPI PUSH1 0x24 ADD SWAP1 JUMPDEST DUP3 DUP3 LT PUSH2 0x3FFD JUMPI POP POP POP PUSH1 0x0 DUP1 MLOAD PUSH1 0x20 PUSH2 0x6126 DUP4 CODECOPY DUP2 MLOAD SWAP2 MSTORE DUP4 MSTORE PUSH1 0x18 PUSH1 0x20 MSTORE PUSH1 0x40 DUP4 KECCAK256 CALLER DUP5 MSTORE PUSH1 0x20 MSTORE PUSH1 0xFF PUSH1 0x40 DUP5 KECCAK256 SLOAD AND DUP1 ISZERO PUSH2 0x3FE9 JUMPI JUMPDEST PUSH2 0x3D53 SWAP1 PUSH2 0x541D JUMP JUMPDEST PUSH2 0x3D5B PUSH2 0x5676 JUMP JUMPDEST DUP2 MLOAD DUP2 MLOAD SUB PUSH2 0x3FAC JUMPI PUSH1 0xA DUP3 MLOAD GT PUSH2 0x3F70 JUMPI NUMBER DUP4 MSTORE PUSH1 0x24 PUSH1 0x20 MSTORE PUSH1 0xFF PUSH1 0x40 DUP5 KECCAK256 SLOAD AND PUSH2 0x3F2B JUMPI NUMBER DUP4 MSTORE PUSH1 0x24 PUSH1 0x20 MSTORE PUSH1 0x40 DUP4 KECCAK256 PUSH1 0x1 PUSH1 0xFF NOT DUP3 SLOAD AND OR SWAP1 SSTORE PUSH1 0x23 PUSH1 0x20 MSTORE PUSH1 0x40 DUP4 KECCAK256 SLOAD PUSH1 0x1 DUP2 ADD DUP1 SWAP2 GT PUSH2 0xE97 JUMPI NUMBER DUP5 MSTORE PUSH1 0x23 PUSH1 0x20 MSTORE PUSH1 0x40 DUP5 KECCAK256 SSTORE DUP3 SWAP1 DUP4 JUMPDEST DUP4 MLOAD DUP2 LT ISZERO PUSH2 0x3EDF JUMPI PUSH1 0x1 PUSH1 0x1 PUSH1 0xA0 SHL SUB DUP1 PUSH2 0x3DDA DUP4 DUP8 PUSH2 0x54C7 JUMP JUMPDEST MLOAD AND ISZERO ISZERO DUP1 PUSH2 0x3ECC JUMPI JUMPDEST PUSH2 0x3DF2 JUMPI JUMPDEST POP PUSH1 0x1 ADD PUSH2 0x3DBE JUMP JUMPDEST PUSH2 0x3DFF DUP3 DUP7 SWAP6 SWAP4 SWAP6 PUSH2 0x54C7 JUMP JUMPDEST MLOAD AND PUSH2 0x3E0B DUP5 DUP5 PUSH2 0x54C7 JUMP JUMPDEST MLOAD SWAP1 DUP1 DUP8 MSTORE PUSH1 0x1A PUSH1 0x20 MSTORE PUSH1 0x1 PUSH1 0x40 DUP9 KECCAK256 PUSH2 0x3E26 DUP5 DUP3 SLOAD PUSH2 0x529A JUMP JUMPDEST DUP2 SSTORE TIMESTAMP PUSH1 0x3 DUP3 ADD SSTORE ADD DUP1 SLOAD SWAP1 PUSH1 0x1 DUP3 ADD DUP1 SWAP3 GT PUSH2 0x3EB8 JUMPI SSTORE PUSH1 0x4 SLOAD DUP8 MSTORE PUSH1 0xA PUSH1 0x20 MSTORE PUSH1 0x40 DUP8 KECCAK256 PUSH2 0x3E56 SWAP2 SWAP1 PUSH2 0x525F JUMP JUMPDEST PUSH1 0x4 SLOAD DUP1 DUP8 MSTORE PUSH1 0xB PUSH1 0x20 MSTORE PUSH1 0x40 DUP8 KECCAK256 SLOAD SWAP1 PUSH1 0x1 DUP3 ADD DUP3 GT PUSH2 0x3EA4 JUMPI PUSH2 0x3E8E SWAP3 SWAP2 PUSH1 0x1 SWAP2 DUP10 MSTORE PUSH1 0xB PUSH1 0x20 MSTORE ADD PUSH1 0x40 DUP9 KECCAK256 SSTORE PUSH1 0x5 SLOAD PUSH2 0x529A JUMP JUMPDEST PUSH1 0x5 SSTORE PUSH1 0x1 DUP2 ADD DUP1 SWAP2 GT PUSH2 0x1FB0 JUMPI SWAP2 PUSH1 0x1 PUSH2 0x3DE9 JUMP JUMPDEST PUSH4 0x4E487B71 PUSH1 0xE0 SHL DUP9 MSTORE PUSH1 0x11 PUSH1 0x4 MSTORE PUSH1 0x24 DUP9 REVERT JUMPDEST PUSH4 0x4E487B71 PUSH1 0xE0 SHL DUP10 MSTORE PUSH1 0x11 PUSH1 0x4 MSTORE PUSH1 0x24 DUP10 REVERT JUMPDEST POP PUSH2 0x3ED7 DUP3 DUP5 PUSH2 0x54C7 JUMP JUMPDEST MLOAD ISZERO ISZERO PUSH2 0x3DE4 JUMP JUMPDEST POP POP SWAP1 NUMBER DUP4 MSTORE PUSH1 0x24 PUSH1 0x20 MSTORE PUSH1 0x40 DUP4 KECCAK256 PUSH1 0xFF NOT DUP2 SLOAD AND SWAP1 SSTORE MLOAD PUSH1 0x40 MLOAD SWAP2 DUP3 MSTORE PUSH1 0x20 DUP3 ADD MSTORE PUSH32 0xC8A16388AF0851BDC51694269F90C12AF519CFBD71E7AB51D304B3BE25D11184 PUSH1 0x40 NUMBER SWAP3 LOG2 DUP1 RETURN JUMPDEST PUSH1 0x40 MLOAD PUSH3 0x461BCD PUSH1 0xE5 SHL DUP2 MSTORE PUSH1 0x20 PUSH1 0x4 DUP3 ADD MSTORE PUSH1 0x1F PUSH1 0x24 DUP3 ADD MSTORE PUSH32 0x42617463682070726F63657373696E6720616C72656164792061637469766500 PUSH1 0x44 DUP3 ADD MSTORE PUSH1 0x64 SWAP1 REVERT JUMPDEST PUSH1 0x40 MLOAD PUSH3 0x461BCD PUSH1 0xE5 SHL DUP2 MSTORE PUSH1 0x20 PUSH1 0x4 DUP3 ADD MSTORE PUSH1 0x14 PUSH1 0x24 DUP3 ADD MSTORE PUSH20 0x42617463682073697A6520746F6F206C61726765 PUSH1 0x60 SHL PUSH1 0x44 DUP3 ADD MSTORE PUSH1 0x64 SWAP1 REVERT JUMPDEST PUSH1 0x40 MLOAD PUSH3 0x461BCD PUSH1 0xE5 SHL DUP2 MSTORE PUSH1 0x20 PUSH1 0x4 DUP3 ADD MSTORE PUSH1 0x15 PUSH1 0x24 DUP3 ADD MSTORE PUSH21 0x82E4E4C2F240D8CADCCEE8D040DAD2E6DAC2E8C6D PUSH1 0x5B SHL PUSH1 0x44 DUP3 ADD MSTORE PUSH1 0x64 SWAP1 REVERT JUMPDEST POP PUSH1 0x1 SLOAD PUSH1 0x1 PUSH1 0x1 PUSH1 0xA0 SHL SUB AND CALLER EQ PUSH2 0x3D4A JUMP JUMPDEST DUP2 CALLDATALOAD DUP2 MSTORE PUSH1 0x20 SWAP2 DUP3 ADD SWAP2 ADD PUSH2 0x3D11 JUMP JUMPDEST DUP6 DUP1 REVERT JUMPDEST DUP3 CALLDATALOAD PUSH1 0x1 PUSH1 0x1 PUSH1 0xA0 SHL SUB DUP2 AND DUP2 SUB PUSH2 0x4031 JUMPI DUP2 MSTORE PUSH1 0x20 SWAP3 DUP4 ADD SWAP3 ADD PUSH2 0x3CB8 JUMP JUMPDEST DUP7 DUP1 REVERT JUMPDEST POP CALLVALUE PUSH2 0x4CD JUMPI PUSH1 0x20 CALLDATASIZE PUSH1 0x3 NOT ADD SLT PUSH2 0x4CD JUMPI PUSH1 0x20 SWAP1 PUSH1 0x40 SWAP1 PUSH1 0x1 PUSH1 0x1 PUSH1 0xA0 SHL SUB PUSH2 0x405D PUSH2 0x4DAD JUMP JUMPDEST AND DUP2 MSTORE DUP3 DUP1 MSTORE KECCAK256 SLOAD PUSH1 0x40 MLOAD SWAP1 DUP2 MSTORE RETURN JUMPDEST POP CALLVALUE PUSH2 0x4CD JUMPI PUSH1 0x40 CALLDATASIZE PUSH1 0x3 NOT ADD SLT PUSH2 0x4CD JUMPI PUSH1 0x4 CALLDATALOAD PUSH2 0x408A PUSH2 0x4DC3 JUMP JUMPDEST DUP2 DUP4 MSTORE PUSH1 0x19 PUSH1 0x20 MSTORE PUSH1 0x40 DUP4 KECCAK256 SLOAD PUSH1 0x1 PUSH1 0x1 PUSH1 0xA0 SHL SUB SWAP2 SWAP1 DUP3 AND CALLER EQ DUP1 ISZERO PUSH2 0x410B JUMPI JUMPDEST PUSH2 0x40B5 SWAP1 PUSH2 0x5383 JUMP JUMPDEST AND PUSH2 0x40C1 DUP2 ISZERO ISZERO PUSH2 0x53DF JUMP JUMPDEST DUP2 DUP4 MSTORE PUSH1 0x18 PUSH1 0x20 MSTORE PUSH1 0x40 DUP4 KECCAK256 DUP2 DUP5 MSTORE PUSH1 0x20 MSTORE PUSH1 0x40 DUP4 KECCAK256 PUSH1 0x1 PUSH1 0xFF NOT DUP3 SLOAD AND OR SWAP1 SSTORE CALLER SWAP2 PUSH32 0x2F8788117E7EFF1D82E926EC794901D17C78024A50270940304540A733656F0D DUP5 DUP1 LOG4 DUP1 RETURN JUMPDEST POP PUSH1 0x1 SLOAD DUP3 AND CALLER EQ PUSH2 0x40AC JUMP JUMPDEST POP CALLVALUE PUSH2 0x4CD JUMPI DUP1 PUSH1 0x3 NOT CALLDATASIZE ADD SLT PUSH2 0x4CD JUMPI PUSH1 0x20 PUSH1 0x11 SLOAD PUSH1 0x40 MLOAD SWAP1 DUP2 MSTORE RETURN JUMPDEST POP CALLVALUE PUSH2 0x4CD JUMPI DUP1 PUSH1 0x3 NOT CALLDATASIZE ADD SLT PUSH2 0x4CD JUMPI PUSH2 0x414F PUSH2 0x56F4 JUMP JUMPDEST PUSH2 0x4157 PUSH2 0x5676 JUMP JUMPDEST CALLER DUP2 MSTORE PUSH1 0x20 PUSH1 0x1E DUP2 MSTORE PUSH1 0xFF PUSH2 0x4173 PUSH1 0xFF PUSH1 0x40 DUP6 KECCAK256 SLOAD AND ISZERO PUSH2 0x52A7 JUMP JUMPDEST CALLER DUP4 MSTORE PUSH1 0x1A DUP3 MSTORE PUSH2 0x418E PUSH1 0xFF PUSH1 0x6 PUSH1 0x40 DUP7 KECCAK256 ADD SLOAD AND ISZERO PUSH2 0x52A7 JUMP JUMPDEST CALLER DUP4 MSTORE PUSH1 0x1C DUP3 MSTORE PUSH1 0x40 DUP4 KECCAK256 SLOAD PUSH1 0x1 PUSH1 0x1 PUSH1 0xA0 SHL SUB SWAP1 DUP2 AND PUSH2 0x435E JUMPI DUP3 PUSH1 0x40 MLOAD PUSH2 0x41B6 DUP2 PUSH2 0x4EB5 JUMP JUMPDEST PUSH1 0x14 DUP1 DUP3 MSTORE DUP3 DUP3 ADD SWAP5 DUP4 CALLDATASIZE DUP8 CALLDATACOPY DUP8 JUMPDEST DUP3 DUP2 LT PUSH2 0x4300 JUMPI POP POP POP PUSH2 0x42F6 SWAP3 PUSH1 0x3 PUSH2 0x4266 PUSH32 0x9ABA81A9970F49ADFCB9191B4663D4A18A3A6236FBBEF5E36C5478A55FD4A03A SWAP7 SWAP5 PUSH2 0x42E3 SWAP5 PUSH2 0x4255 PUSH1 0x25 PUSH2 0x420D TIMESTAMP PUSH2 0x5E5A JUMP JUMPDEST SWAP9 PUSH1 0x40 MLOAD SWAP10 DUP11 SWAP2 PUSH2 0x4232 DUP8 DUP5 ADD SWAP7 PUSH5 0x50495A5A41 PUSH1 0xD8 SHL DUP9 MSTORE MLOAD DUP1 SWAP3 DUP7 DUP7 ADD SWAP1 PUSH2 0x4FE1 JUMP JUMPDEST DUP3 ADD PUSH2 0x4246 DUP3 MLOAD DUP1 SWAP4 DUP10 DUP8 DUP6 ADD SWAP2 ADD PUSH2 0x4FE1 JUMP JUMPDEST ADD SUB PUSH1 0x5 DUP2 ADD DUP11 MSTORE ADD DUP9 PUSH2 0x4F3D JUMP JUMPDEST PUSH1 0x40 MLOAD DUP1 SWAP4 DUP2 SWAP3 DUP10 MLOAD SWAP3 DUP4 SWAP2 PUSH2 0x4FE1 JUMP JUMPDEST DUP2 ADD PUSH1 0x1B DUP2 MSTORE SUB ADD SWAP1 KECCAK256 SWAP2 PUSH1 0x1 PUSH1 0x1 PUSH1 0x60 SHL SUB PUSH1 0xA0 SHL SWAP3 CALLER DUP5 DUP3 SLOAD AND OR SWAP1 SSTORE PUSH1 0x40 MLOAD SWAP3 PUSH2 0x4292 DUP5 PUSH2 0x4E39 JUMP JUMPDEST CALLER DUP5 MSTORE DUP9 DUP5 ADD DUP11 DUP2 MSTORE PUSH1 0x40 DUP6 ADD SWAP2 DUP12 DUP4 MSTORE PUSH1 0x60 DUP7 ADD SWAP4 PUSH1 0x1 DUP6 MSTORE CALLER DUP14 MSTORE PUSH1 0x1C DUP13 MSTORE PUSH1 0x40 DUP14 KECCAK256 SWAP7 MLOAD AND SWAP1 DUP7 SLOAD AND OR DUP6 SSTORE MLOAD PUSH1 0x1 DUP6 ADD SSTORE MLOAD PUSH1 0x2 DUP5 ADD SSTORE MLOAD ISZERO ISZERO SWAP2 ADD SWAP1 PUSH1 0xFF DUP1 NOT DUP4 SLOAD AND SWAP2 ISZERO ISZERO AND OR SWAP1 SSTORE JUMP JUMPDEST PUSH1 0x40 MLOAD SWAP2 DUP3 SWAP2 DUP6 DUP4 MSTORE CALLER SWAP6 DUP4 ADD SWAP1 PUSH2 0x5117 JUMP JUMPDEST SUB SWAP1 LOG2 PUSH1 0x1 DUP2 SSTORE DUP1 RETURN JUMPDEST SWAP1 SWAP2 SWAP3 SWAP4 POP PUSH1 0x13 DUP2 DUP2 SUB SWAP1 DUP2 GT PUSH2 0x3EB8 JUMPI PUSH1 0x3 DUP2 SWAP1 SHL SWAP1 PUSH1 0x1 PUSH1 0x1 PUSH1 0xFD SHL SUB DUP2 AND SUB PUSH2 0x3EB8 JUMPI DUP3 DUP2 GT PUSH2 0x3EB8 JUMPI SWAP1 PUSH1 0x1 SWAP2 PUSH2 0x4342 DUP4 PUSH1 0xFF PUSH1 0xF8 SHL SWAP3 SHL CALLER PUSH2 0x54DB JUMP JUMPDEST PUSH1 0xF8 SHL AND DUP10 BYTE PUSH2 0x4352 DUP3 DUP8 PUSH2 0x5B77 JUMP JUMPDEST MSTORE8 ADD SWAP1 DUP7 SWAP4 SWAP3 SWAP2 PUSH2 0x41C5 JUMP JUMPDEST PUSH1 0x40 MLOAD PUSH3 0x461BCD PUSH1 0xE5 SHL DUP2 MSTORE PUSH1 0x4 DUP2 ADD DUP5 SWAP1 MSTORE PUSH1 0x1C PUSH1 0x24 DUP3 ADD MSTORE PUSH32 0x526566657272616C20636F646520616C72656164792065786973747300000000 PUSH1 0x44 DUP3 ADD MSTORE PUSH1 0x64 SWAP1 REVERT JUMPDEST POP CALLVALUE PUSH2 0x4CD JUMPI PUSH1 0x20 CALLDATASIZE PUSH1 0x3 NOT ADD SLT PUSH2 0x4CD JUMPI PUSH1 0xFF PUSH1 0x40 PUSH1 0x20 SWAP3 PUSH1 0x4 CALLDATALOAD DUP2 MSTORE PUSH1 0x13 DUP5 MSTORE KECCAK256 SLOAD AND PUSH1 0x40 MLOAD SWAP1 ISZERO ISZERO DUP2 MSTORE RETURN JUMPDEST POP CALLVALUE PUSH2 0x4CD JUMPI DUP1 PUSH1 0x3 NOT CALLDATASIZE ADD SLT PUSH2 0x4CD JUMPI PUSH1 0x20 PUSH1 0x26 SLOAD PUSH1 0x40 MLOAD SWAP1 DUP2 MSTORE RETURN JUMPDEST POP CALLVALUE PUSH2 0x4CD JUMPI PUSH1 0x20 PUSH2 0x4401 CALLDATASIZE PUSH2 0x4F79 JUMP JUMPDEST DUP2 PUSH2 0x4415 PUSH1 0x40 MLOAD SWAP3 DUP4 DUP2 MLOAD SWAP4 DUP5 SWAP3 ADD PUSH2 0x4FE1 JUMP JUMPDEST PUSH1 0x1B SWAP1 DUP3 ADD SWAP1 DUP2 MSTORE DUP2 SWAP1 SUB DUP3 ADD SWAP1 KECCAK256 SLOAD PUSH1 0x40 MLOAD PUSH1 0x1 PUSH1 0x1 PUSH1 0xA0 SHL SUB SWAP1 SWAP2 AND DUP2 MSTORE RETURN JUMPDEST POP CALLVALUE PUSH2 0x4CD JUMPI DUP1 PUSH1 0x3 NOT CALLDATASIZE ADD SLT PUSH2 0x4CD JUMPI PUSH1 0x3 SLOAD PUSH1 0x40 MLOAD PUSH1 0x1 PUSH1 0x1 PUSH1 0xA0 SHL SUB SWAP1 SWAP2 AND DUP2 MSTORE PUSH1 0x20 SWAP1 RETURN JUMPDEST POP CALLVALUE PUSH2 0x4CD JUMPI PUSH1 0x20 DUP1 PUSH1 0x3 NOT CALLDATASIZE ADD SLT PUSH2 0x20CD JUMPI PUSH1 0x4 CALLDATALOAD PUSH2 0x447E PUSH2 0x56F4 JUMP JUMPDEST PUSH2 0x4486 PUSH2 0x5676 JUMP JUMPDEST CALLER DUP4 MSTORE PUSH1 0x1E DUP3 MSTORE PUSH2 0x449E PUSH1 0xFF PUSH1 0x40 DUP6 KECCAK256 SLOAD AND ISZERO PUSH2 0x52A7 JUMP JUMPDEST CALLER DUP4 MSTORE PUSH1 0x1A SWAP2 DUP3 DUP2 MSTORE PUSH2 0x44BB PUSH1 0xFF PUSH1 0x6 PUSH1 0x40 DUP8 KECCAK256 ADD SLOAD AND ISZERO PUSH2 0x52A7 JUMP JUMPDEST CALLER DUP5 MSTORE DUP3 DUP2 MSTORE PUSH1 0xC PUSH1 0x40 DUP6 KECCAK256 ADD SLOAD PUSH3 0x15180 DUP2 ADD DUP1 SWAP2 GT PUSH2 0x1FB0 JUMPI PUSH2 0x44E2 SWAP1 TIMESTAMP LT ISZERO PUSH2 0x52EB JUMP JUMPDEST CALLER DUP5 MSTORE DUP3 DUP2 MSTORE PUSH2 0x44FB PUSH1 0x64 PUSH1 0xE PUSH1 0x40 DUP8 KECCAK256 ADD SLOAD LT PUSH2 0x5337 JUMP JUMPDEST DUP2 DUP5 MSTORE PUSH1 0x1F DUP2 MSTORE PUSH1 0x40 DUP5 KECCAK256 SWAP3 PUSH1 0xFF PUSH1 0x4 DUP6 ADD SLOAD AND ISZERO PUSH2 0x46D3 JUMPI PUSH1 0x5 DUP5 ADD SWAP1 CALLER DUP7 MSTORE DUP2 DUP4 MSTORE PUSH1 0xFF PUSH1 0x40 DUP8 KECCAK256 SLOAD AND PUSH2 0x468E JUMPI PUSH1 0x2 DUP6 ADD SWAP2 DUP3 SLOAD DUP1 ISZERO PUSH2 0x4649 JUMPI PUSH2 0x3E8 DUP2 GT PUSH2 0x4604 JUMPI PUSH2 0x454B SWAP1 CALLER PUSH2 0x5717 JUMP JUMPDEST CALLER DUP8 MSTORE DUP4 MSTORE PUSH1 0x40 DUP7 KECCAK256 PUSH1 0x1 PUSH1 0xFF NOT DUP3 SLOAD AND OR SWAP1 SSTORE DUP1 DUP4 MSTORE PUSH1 0xA PUSH1 0x40 DUP8 KECCAK256 ADD SLOAD PUSH1 0x1 DUP2 ADD DUP1 SWAP2 GT PUSH2 0x2525 JUMPI SWAP2 PUSH1 0x0 DUP1 MLOAD PUSH1 0x20 PUSH2 0x6146 DUP4 CODECOPY DUP2 MLOAD SWAP2 MSTORE SWAP5 SWAP4 SWAP2 PUSH2 0x45A6 PUSH1 0x40 SWAP5 CALLER DUP11 MSTORE DUP3 DUP6 MSTORE DUP6 DUP11 KECCAK256 SWAP1 PUSH1 0xA DUP3 ADD SSTORE SLOAD DUP4 SLOAD SWAP1 PUSH2 0x529A JUMP JUMPDEST SWAP1 CALLER DUP10 MSTORE DUP4 MSTORE DUP4 DUP9 KECCAK256 SWAP1 DUP2 SSTORE PUSH1 0xC TIMESTAMP SWAP2 ADD SSTORE SLOAD SWAP3 DUP3 MLOAD SWAP1 DUP2 MSTORE DUP4 DUP3 DUP3 ADD MSTORE PUSH32 0x20861823FA14B60D3F02CC6E48B647AC592DD27E39A78F278DF5C918DABB8B2C DUP4 CALLER SWAP3 LOG2 DUP2 MLOAD SWAP3 DUP4 MSTORE DUP3 ADD MSTORE DUP1 PUSH2 0x42F6 CALLER SWAP5 PUSH1 0x1 PUSH1 0x40 DUP5 ADD SWAP2 ADD PUSH2 0x505A JUMP JUMPDEST PUSH1 0x40 MLOAD PUSH3 0x461BCD PUSH1 0xE5 SHL DUP2 MSTORE PUSH1 0x4 DUP2 ADD DUP7 SWAP1 MSTORE PUSH1 0x19 PUSH1 0x24 DUP3 ADD MSTORE PUSH32 0x4368616C6C656E67652072657761726420746F6F206869676800000000000000 PUSH1 0x44 DUP3 ADD MSTORE PUSH1 0x64 SWAP1 REVERT JUMPDEST PUSH1 0x40 MLOAD PUSH3 0x461BCD PUSH1 0xE5 SHL DUP2 MSTORE PUSH1 0x4 DUP2 ADD DUP7 SWAP1 MSTORE PUSH1 0x18 PUSH1 0x24 DUP3 ADD MSTORE PUSH32 0x496E76616C6964206368616C6C656E6765207265776172640000000000000000 PUSH1 0x44 DUP3 ADD MSTORE PUSH1 0x64 SWAP1 REVERT JUMPDEST PUSH1 0x40 MLOAD PUSH3 0x461BCD PUSH1 0xE5 SHL DUP2 MSTORE PUSH1 0x4 DUP2 ADD DUP5 SWAP1 MSTORE PUSH1 0x1B PUSH1 0x24 DUP3 ADD MSTORE PUSH32 0x4368616C6C656E676520616C726561647920636F6D706C657465640000000000 PUSH1 0x44 DUP3 ADD MSTORE PUSH1 0x64 SWAP1 REVERT JUMPDEST PUSH1 0x40 MLOAD PUSH3 0x461BCD PUSH1 0xE5 SHL DUP2 MSTORE PUSH1 0x4 DUP2 ADD DUP4 SWAP1 MSTORE PUSH1 0x14 PUSH1 0x24 DUP3 ADD MSTORE PUSH20 0x4368616C6C656E6765206E6F7420616374697665 PUSH1 0x60 SHL PUSH1 0x44 DUP3 ADD MSTORE PUSH1 0x64 SWAP1 REVERT JUMPDEST POP CALLVALUE PUSH2 0x4CD JUMPI DUP1 PUSH1 0x3 NOT CALLDATASIZE ADD SLT PUSH2 0x4CD JUMPI PUSH2 0x4728 PUSH2 0x56F4 JUMP JUMPDEST PUSH2 0x4730 PUSH2 0x5676 JUMP JUMPDEST CALLER DUP2 MSTORE PUSH1 0x20 PUSH1 0x1E DUP2 MSTORE PUSH2 0x474A PUSH1 0xFF PUSH1 0x40 DUP5 KECCAK256 SLOAD AND ISZERO PUSH2 0x52A7 JUMP JUMPDEST CALLER DUP3 MSTORE PUSH1 0x1A DUP1 DUP3 MSTORE PUSH2 0x4766 PUSH1 0xFF PUSH1 0x6 PUSH1 0x40 DUP7 KECCAK256 ADD SLOAD AND ISZERO PUSH2 0x52A7 JUMP JUMPDEST CALLER DUP4 MSTORE DUP1 DUP3 MSTORE PUSH1 0xC PUSH1 0x40 DUP5 KECCAK256 ADD SLOAD PUSH3 0x15180 SWAP1 DUP2 DUP2 ADD DUP1 SWAP2 GT PUSH2 0x1FB0 JUMPI PUSH2 0x478F SWAP1 TIMESTAMP LT ISZERO PUSH2 0x52EB JUMP JUMPDEST CALLER DUP5 MSTORE DUP2 DUP4 MSTORE PUSH2 0x47A8 PUSH1 0x64 PUSH1 0xE PUSH1 0x40 DUP8 KECCAK256 ADD SLOAD LT PUSH2 0x5337 JUMP JUMPDEST CALLER DUP5 MSTORE DUP2 DUP4 MSTORE PUSH1 0x7 PUSH1 0x4 PUSH1 0x40 DUP7 KECCAK256 ADD SLOAD LT PUSH2 0x48E8 JUMPI CALLER DUP5 MSTORE DUP2 DUP4 MSTORE PUSH1 0x5 PUSH1 0x40 DUP6 KECCAK256 ADD SLOAD SWAP1 DUP2 ADD DUP1 SWAP2 GT PUSH2 0xE97 JUMPI TIMESTAMP LT PUSH2 0x4898 JUMPI CALLER DUP4 MSTORE DUP2 DUP1 MSTORE PUSH1 0x40 DUP4 KECCAK256 SLOAD PUSH1 0x3 DUP2 ADD DUP1 SWAP2 GT PUSH2 0xE97 JUMPI PUSH1 0x64 DUP2 GT PUSH2 0xEC1 JUMPI CALLER DUP5 MSTORE DUP3 DUP1 MSTORE PUSH1 0x40 DUP5 KECCAK256 SSTORE DUP1 DUP3 MSTORE PUSH1 0xE PUSH1 0x40 DUP5 KECCAK256 ADD SLOAD PUSH1 0x3 DUP2 ADD DUP1 SWAP2 GT PUSH2 0xE97 JUMPI CALLER DUP5 MSTORE DUP2 DUP4 MSTORE PUSH1 0x40 DUP5 KECCAK256 SWAP1 PUSH1 0xE DUP3 ADD SSTORE SLOAD SWAP1 PUSH1 0x3 DUP3 ADD DUP1 SWAP3 GT PUSH2 0xE97 JUMPI CALLER DUP5 MSTORE DUP3 MSTORE PUSH1 0x40 DUP4 KECCAK256 SWAP1 DUP2 SSTORE TIMESTAMP PUSH1 0x5 DUP3 ADD SSTORE PUSH1 0xC TIMESTAMP SWAP2 ADD SSTORE PUSH1 0x40 DUP1 MLOAD SWAP2 PUSH1 0x3 DUP4 MSTORE DUP3 ADD MSTORE PUSH1 0x12 PUSH1 0x40 DUP3 ADD MSTORE PUSH18 0x372D6461792073747265616B20626F6E7573 PUSH1 0x70 SHL PUSH1 0x60 DUP3 ADD MSTORE PUSH1 0x0 DUP1 MLOAD PUSH1 0x20 PUSH2 0x6146 DUP4 CODECOPY DUP2 MLOAD SWAP2 MSTORE PUSH1 0x80 CALLER SWAP3 LOG2 PUSH1 0x1 DUP2 SSTORE DUP1 RETURN JUMPDEST PUSH1 0x40 MLOAD PUSH3 0x461BCD PUSH1 0xE5 SHL DUP2 MSTORE PUSH1 0x4 DUP2 ADD DUP4 SWAP1 MSTORE PUSH1 0x22 PUSH1 0x24 DUP3 ADD MSTORE PUSH32 0x53747265616B20626F6E757320616C726561647920636C61696D656420746F64 PUSH1 0x44 DUP3 ADD MSTORE PUSH2 0x6179 PUSH1 0xF0 SHL PUSH1 0x64 DUP3 ADD MSTORE PUSH1 0x84 SWAP1 REVERT JUMPDEST PUSH1 0x40 MLOAD PUSH3 0x461BCD PUSH1 0xE5 SHL DUP2 MSTORE PUSH1 0x4 DUP2 ADD DUP5 SWAP1 MSTORE PUSH1 0x18 PUSH1 0x24 DUP3 ADD MSTORE PUSH32 0x372D6461792073747265616B206E6F7420726561636865640000000000000000 PUSH1 0x44 DUP3 ADD MSTORE PUSH1 0x64 SWAP1 REVERT JUMPDEST POP CALLVALUE PUSH2 0x4CD JUMPI PUSH1 0x20 CALLDATASIZE PUSH1 0x3 NOT ADD SLT PUSH2 0x4CD JUMPI PUSH1 0x80 SWAP1 PUSH1 0x40 PUSH2 0x494C PUSH2 0x4DAD JUMP JUMPDEST SWAP2 DUP1 PUSH1 0x60 DUP4 MLOAD PUSH2 0x495B DUP2 PUSH2 0x4E39 JUMP JUMPDEST DUP3 DUP2 MSTORE DUP3 PUSH1 0x20 DUP3 ADD MSTORE DUP3 DUP6 DUP3 ADD MSTORE ADD MSTORE PUSH1 0x1 DUP1 PUSH1 0xA0 SHL SUB DUP1 SWAP4 AND DUP2 MSTORE PUSH1 0x1C PUSH1 0x20 MSTORE KECCAK256 SWAP1 PUSH1 0x40 MLOAD SWAP1 PUSH2 0x498B DUP3 PUSH2 0x4E39 JUMP JUMPDEST DUP3 SLOAD AND SWAP2 DUP3 DUP3 MSTORE PUSH1 0x1 DUP2 ADD SLOAD PUSH1 0x20 DUP4 ADD SWAP1 DUP2 MSTORE PUSH1 0x60 PUSH1 0xFF PUSH1 0x3 PUSH1 0x2 DUP6 ADD SLOAD SWAP5 PUSH1 0x40 DUP8 ADD SWAP6 DUP7 MSTORE ADD SLOAD AND SWAP4 ADD SWAP3 ISZERO ISZERO DUP4 MSTORE PUSH1 0x40 MLOAD SWAP4 DUP5 MSTORE MLOAD PUSH1 0x20 DUP5 ADD MSTORE MLOAD PUSH1 0x40 DUP4 ADD MSTORE MLOAD ISZERO ISZERO PUSH1 0x60 DUP3 ADD MSTORE RETURN JUMPDEST POP CALLVALUE PUSH2 0x4CD JUMPI DUP1 PUSH1 0x3 NOT CALLDATASIZE ADD SLT PUSH2 0x4CD JUMPI PUSH1 0x20 PUSH1 0x40 MLOAD PUSH32 0xBF233DD2AAFEB4D50879C4AA5C81E96D92F6E6945C906A58F9F2D1C1631B4B26 DUP2 MSTORE RETURN JUMPDEST POP CALLVALUE PUSH2 0x4CD JUMPI DUP1 PUSH1 0x3 NOT CALLDATASIZE ADD SLT PUSH2 0x4CD JUMPI PUSH1 0x40 MLOAD PUSH32 0x0 PUSH1 0x1 PUSH1 0x1 PUSH1 0xA0 SHL SUB AND DUP2 MSTORE PUSH1 0x20 SWAP1 RETURN JUMPDEST POP CALLVALUE PUSH2 0x4CD JUMPI DUP1 PUSH1 0x3 NOT CALLDATASIZE ADD SLT PUSH2 0x4CD JUMPI PUSH1 0x20 PUSH1 0x16 SLOAD PUSH1 0x40 MLOAD SWAP1 DUP2 MSTORE RETURN JUMPDEST POP CALLVALUE PUSH2 0x4CD JUMPI DUP1 PUSH1 0x3 NOT CALLDATASIZE ADD SLT PUSH2 0x4CD JUMPI PUSH1 0x20 PUSH1 0x40 MLOAD PUSH1 0x8 DUP2 MSTORE RETURN JUMPDEST POP CALLVALUE PUSH2 0x4CD JUMPI PUSH1 0x20 DUP1 PUSH1 0x3 NOT CALLDATASIZE ADD SLT PUSH2 0x20CD JUMPI PUSH1 0x4 CALLDATALOAD SWAP1 PUSH2 0x4AB0 PUSH2 0x5676 JUMP JUMPDEST DUP2 ISZERO PUSH2 0x4B6D JUMPI PUSH2 0x4ABF CALLER PUSH2 0x5697 JUMP JUMPDEST PUSH2 0x4B33 JUMPI PUSH1 0x12 SLOAD DUP4 MSTORE PUSH1 0x10 DUP2 MSTORE PUSH2 0x4AD9 CALLER PUSH1 0x40 DUP6 KECCAK256 PUSH2 0x525F JUMP JUMPDEST PUSH1 0x12 SLOAD DUP1 DUP5 MSTORE PUSH1 0xF DUP3 MSTORE PUSH2 0x4AF1 DUP4 PUSH1 0x40 DUP7 KECCAK256 SLOAD PUSH2 0x529A JUMP JUMPDEST SWAP1 DUP5 MSTORE PUSH1 0xF DUP3 MSTORE PUSH1 0x40 DUP5 KECCAK256 SSTORE PUSH1 0x12 SLOAD SWAP1 PUSH1 0x40 MLOAD SWAP3 DUP4 MSTORE DUP3 ADD MSTORE PUSH32 0xEFE539503E4A6BC6D750ABE6F7471EA59543AD95E1757FCD02ECB9A6C212E920 PUSH1 0x40 CALLER SWAP3 LOG2 DUP1 RETURN JUMPDEST PUSH1 0x64 SWAP1 PUSH1 0x40 MLOAD SWAP1 PUSH3 0x461BCD PUSH1 0xE5 SHL DUP3 MSTORE PUSH1 0x4 DUP3 ADD MSTORE PUSH1 0x13 PUSH1 0x24 DUP3 ADD MSTORE PUSH19 0x105B1C9958591E4818DBDB9D1C9A589D5D1959 PUSH1 0x6A SHL PUSH1 0x44 DUP3 ADD MSTORE REVERT JUMPDEST PUSH1 0x64 SWAP1 PUSH1 0x40 MLOAD SWAP1 PUSH3 0x461BCD PUSH1 0xE5 SHL DUP3 MSTORE PUSH1 0x4 DUP3 ADD MSTORE PUSH1 0xF PUSH1 0x24 DUP3 ADD MSTORE PUSH15 0x496E76616C696420656E74726F7079 PUSH1 0x88 SHL PUSH1 0x44 DUP3 ADD MSTORE REVERT JUMPDEST POP CALLVALUE PUSH2 0x4CD JUMPI PUSH1 0x20 CALLDATASIZE PUSH1 0x3 NOT ADD SLT PUSH2 0x4CD JUMPI PUSH1 0x40 PUSH1 0xE0 SWAP2 PUSH1 0x4 CALLDATALOAD DUP2 MSTORE PUSH1 0x1D PUSH1 0x20 MSTORE KECCAK256 DUP1 SLOAD SWAP1 PUSH1 0x1 DUP2 ADD SLOAD SWAP1 PUSH1 0x2 DUP2 ADD SLOAD PUSH1 0x3 DUP3 ADD SLOAD PUSH1 0x4 DUP4 ADD SLOAD SWAP2 PUSH1 0x7 PUSH1 0xFF PUSH1 0x6 DUP7 ADD SLOAD AND SWAP5 ADD SLOAD SWAP5 PUSH1 0x40 MLOAD SWAP7 DUP8 MSTORE PUSH1 0x20 DUP8 ADD MSTORE PUSH1 0x40 DUP7 ADD MSTORE PUSH1 0x60 DUP6 ADD MSTORE PUSH1 0x80 DUP5 ADD MSTORE ISZERO ISZERO PUSH1 0xA0 DUP4 ADD MSTORE PUSH1 0xC0 DUP3 ADD MSTORE RETURN JUMPDEST POP CALLVALUE PUSH2 0x4CD JUMPI PUSH2 0x4C23 CALLDATASIZE PUSH2 0x4DD9 JUMP JUMPDEST SWAP2 SWAP1 DUP2 MSTORE PUSH1 0x10 PUSH1 0x20 MSTORE PUSH1 0x40 DUP2 KECCAK256 SWAP1 DUP2 SLOAD DUP4 LT ISZERO PUSH2 0x4CD JUMPI PUSH1 0x20 PUSH2 0x1C88 DUP5 DUP5 PUSH2 0x4DEF JUMP JUMPDEST POP CALLVALUE PUSH2 0x4CD JUMPI DUP1 PUSH1 0x3 NOT CALLDATASIZE ADD SLT PUSH2 0x4CD JUMPI PUSH2 0x4C5F PUSH2 0x564A JUMP JUMPDEST PUSH2 0x4C67 PUSH2 0x5676 JUMP JUMPDEST PUSH1 0x2 SLOAD PUSH1 0x40 MLOAD PUSH4 0xF8413B07 PUSH1 0xE0 SHL DUP2 MSTORE SWAP1 PUSH1 0x20 SWAP1 DUP3 SWAP1 PUSH1 0x4 SWAP1 DUP3 SWAP1 DUP7 SWAP1 PUSH1 0x1 PUSH1 0x1 PUSH1 0xA0 SHL SUB AND GAS CALL SWAP1 DUP2 ISZERO PUSH2 0xB98 JUMPI DUP3 SWAP2 PUSH2 0x4CD8 JUMPI JUMPDEST POP PUSH1 0x40 DUP2 PUSH32 0x3D94FECEDAA4F90B8BD459797ADB95F5BB11426025C5541390D9CCC1AD1B60A1 SWAP3 PUSH1 0x9 SSTORE PUSH1 0x4 SLOAD SWAP1 DUP3 MLOAD SWAP2 DUP3 MSTORE PUSH1 0x20 DUP3 ADD MSTORE LOG1 DUP1 RETURN JUMPDEST SWAP1 POP PUSH1 0x20 DUP2 RETURNDATASIZE PUSH1 0x20 GT PUSH2 0x4D03 JUMPI JUMPDEST DUP2 PUSH2 0x4CF3 PUSH1 0x20 SWAP4 DUP4 PUSH2 0x4F3D JUMP JUMPDEST DUP2 ADD SUB SLT PUSH2 0x20CD JUMPI MLOAD PUSH1 0x40 PUSH2 0x4C9D JUMP JUMPDEST RETURNDATASIZE SWAP2 POP PUSH2 0x4CE6 JUMP JUMPDEST POP CALLVALUE PUSH2 0x4CD JUMPI DUP1 PUSH1 0x3 NOT CALLDATASIZE ADD SLT PUSH2 0x4CD JUMPI PUSH1 0x3 SLOAD PUSH1 0x40 MLOAD PUSH4 0xD73EBB5 PUSH1 0xE0 SHL DUP2 MSTORE SWAP1 PUSH1 0x20 SWAP1 DUP3 SWAP1 PUSH1 0x4 SWAP1 DUP3 SWAP1 PUSH1 0x1 PUSH1 0x1 PUSH1 0xA0 SHL SUB AND GAS STATICCALL SWAP1 DUP2 ISZERO PUSH2 0xB98 JUMPI DUP3 SWAP2 PUSH2 0x209F JUMPI PUSH1 0x20 DUP3 PUSH1 0x40 MLOAD SWAP1 DUP2 MSTORE RETURN JUMPDEST POP CALLVALUE PUSH2 0x4CD JUMPI DUP1 PUSH1 0x3 NOT CALLDATASIZE ADD SLT PUSH2 0x4CD JUMPI PUSH1 0x20 PUSH1 0x40 MLOAD PUSH2 0x12C DUP2 MSTORE RETURN JUMPDEST SWAP1 POP CALLVALUE PUSH2 0x20CD JUMPI PUSH1 0x20 CALLDATASIZE PUSH1 0x3 NOT ADD SLT PUSH2 0x20CD JUMPI PUSH1 0x20 SWAP2 PUSH1 0x40 SWAP1 PUSH1 0x1 PUSH1 0x1 PUSH1 0xA0 SHL SUB PUSH2 0x4DA0 PUSH2 0x4DAD JUMP JUMPDEST AND DUP2 MSTORE PUSH1 0x21 DUP5 MSTORE KECCAK256 SLOAD DUP2 MSTORE RETURN JUMPDEST PUSH1 0x4 CALLDATALOAD SWAP1 PUSH1 0x1 PUSH1 0x1 PUSH1 0xA0 SHL SUB DUP3 AND DUP3 SUB PUSH2 0xA4A JUMPI JUMP JUMPDEST PUSH1 0x24 CALLDATALOAD SWAP1 PUSH1 0x1 PUSH1 0x1 PUSH1 0xA0 SHL SUB DUP3 AND DUP3 SUB PUSH2 0xA4A JUMPI JUMP JUMPDEST PUSH1 0x40 SWAP1 PUSH1 0x3 NOT ADD SLT PUSH2 0xA4A JUMPI PUSH1 0x4 CALLDATALOAD SWAP1 PUSH1 0x24 CALLDATALOAD SWAP1 JUMP JUMPDEST DUP1 SLOAD DUP3 LT ISZERO PUSH2 0x4E07 JUMPI PUSH1 0x0 MSTORE PUSH1 0x20 PUSH1 0x0 KECCAK256 ADD SWAP1 PUSH1 0x0 SWAP1 JUMP JUMPDEST PUSH4 0x4E487B71 PUSH1 0xE0 SHL PUSH1 0x0 MSTORE PUSH1 0x32 PUSH1 0x4 MSTORE PUSH1 0x24 PUSH1 0x0 REVERT JUMPDEST CALLVALUE PUSH2 0xA4A JUMPI PUSH1 0x0 CALLDATASIZE PUSH1 0x3 NOT ADD SLT PUSH2 0xA4A JUMPI PUSH1 0x20 PUSH1 0x40 MLOAD PUSH1 0xA DUP2 MSTORE RETURN JUMPDEST PUSH1 0x80 DUP2 ADD SWAP1 DUP2 LT PUSH1 0x1 PUSH1 0x1 PUSH1 0x40 SHL SUB DUP3 GT OR PUSH2 0x4E54 JUMPI PUSH1 0x40 MSTORE JUMP JUMPDEST PUSH4 0x4E487B71 PUSH1 0xE0 SHL PUSH1 0x0 MSTORE PUSH1 0x41 PUSH1 0x4 MSTORE PUSH1 0x24 PUSH1 0x0 REVERT JUMPDEST PUSH2 0x220 DUP2 ADD SWAP1 DUP2 LT PUSH1 0x1 PUSH1 0x1 PUSH1 0x40 SHL SUB DUP3 GT OR PUSH2 0x4E54 JUMPI PUSH1 0x40 MSTORE JUMP JUMPDEST PUSH2 0x100 DUP2 ADD SWAP1 DUP2 LT PUSH1 0x1 PUSH1 0x1 PUSH1 0x40 SHL SUB DUP3 GT OR PUSH2 0x4E54 JUMPI PUSH1 0x40 MSTORE JUMP JUMPDEST PUSH1 0x1 PUSH1 0x1 PUSH1 0x40 SHL SUB DUP2 GT PUSH2 0x4E54 JUMPI PUSH1 0x40 MSTORE JUMP JUMPDEST PUSH1 0x40 DUP2 ADD SWAP1 DUP2 LT PUSH1 0x1 PUSH1 0x1 PUSH1 0x40 SHL SUB DUP3 GT OR PUSH2 0x4E54 JUMPI PUSH1 0x40 MSTORE JUMP JUMPDEST PUSH1 0x20 DUP2 ADD SWAP1 DUP2 LT PUSH1 0x1 PUSH1 0x1 PUSH1 0x40 SHL SUB DUP3 GT OR PUSH2 0x4E54 JUMPI PUSH1 0x40 MSTORE JUMP JUMPDEST PUSH1 0x60 DUP2 ADD SWAP1 DUP2 LT PUSH1 0x1 PUSH1 0x1 PUSH1 0x40 SHL SUB DUP3 GT OR PUSH2 0x4E54 JUMPI PUSH1 0x40 MSTORE JUMP JUMPDEST PUSH1 0xC0 DUP2 ADD SWAP1 DUP2 LT PUSH1 0x1 PUSH1 0x1 PUSH1 0x40 SHL SUB DUP3 GT OR PUSH2 0x4E54 JUMPI PUSH1 0x40 MSTORE JUMP JUMPDEST PUSH2 0x120 DUP2 ADD SWAP1 DUP2 LT PUSH1 0x1 PUSH1 0x1 PUSH1 0x40 SHL SUB DUP3 GT OR PUSH2 0x4E54 JUMPI PUSH1 0x40 MSTORE JUMP JUMPDEST SWAP1 PUSH1 0x1F DUP1 NOT SWAP2 ADD AND DUP2 ADD SWAP1 DUP2 LT PUSH1 0x1 PUSH1 0x1 PUSH1 0x40 SHL SUB DUP3 GT OR PUSH2 0x4E54 JUMPI PUSH1 0x40 MSTORE JUMP JUMPDEST PUSH1 0x1 PUSH1 0x1 PUSH1 0x40 SHL SUB DUP2 GT PUSH2 0x4E54 JUMPI PUSH1 0x1F ADD PUSH1 0x1F NOT AND PUSH1 0x20 ADD SWAP1 JUMP JUMPDEST PUSH1 0x20 PUSH1 0x3 NOT DUP3 ADD SLT PUSH2 0xA4A JUMPI PUSH1 0x4 CALLDATALOAD PUSH1 0x1 PUSH1 0x1 PUSH1 0x40 SHL SUB DUP2 GT PUSH2 0xA4A JUMPI DUP2 PUSH1 0x23 DUP3 ADD SLT ISZERO PUSH2 0xA4A JUMPI DUP1 PUSH1 0x4 ADD CALLDATALOAD SWAP1 PUSH2 0x4FB0 DUP3 PUSH2 0x4F5E JUMP JUMPDEST SWAP3 PUSH2 0x4FBE PUSH1 0x40 MLOAD SWAP5 DUP6 PUSH2 0x4F3D JUMP JUMPDEST DUP3 DUP5 MSTORE PUSH1 0x24 DUP4 DUP4 ADD ADD GT PUSH2 0xA4A JUMPI DUP2 PUSH1 0x0 SWAP3 PUSH1 0x24 PUSH1 0x20 SWAP4 ADD DUP4 DUP7 ADD CALLDATACOPY DUP4 ADD ADD MSTORE SWAP1 JUMP JUMPDEST PUSH1 0x0 JUMPDEST DUP4 DUP2 LT PUSH2 0x4FF4 JUMPI POP POP PUSH1 0x0 SWAP2 ADD MSTORE JUMP JUMPDEST DUP2 DUP2 ADD MLOAD DUP4 DUP3 ADD MSTORE PUSH1 0x20 ADD PUSH2 0x4FE4 JUMP JUMPDEST CALLVALUE PUSH2 0xA4A JUMPI PUSH1 0x0 CALLDATASIZE PUSH1 0x3 NOT ADD SLT PUSH2 0xA4A JUMPI PUSH1 0x20 PUSH1 0x40 MLOAD PUSH1 0x64 DUP2 MSTORE RETURN JUMPDEST PUSH1 0x1 PUSH1 0x1 PUSH1 0x40 SHL SUB DUP2 GT PUSH2 0x4E54 JUMPI PUSH1 0x5 SHL PUSH1 0x20 ADD SWAP1 JUMP JUMPDEST CALLVALUE PUSH2 0xA4A JUMPI PUSH1 0x0 CALLDATASIZE PUSH1 0x3 NOT ADD SLT PUSH2 0xA4A JUMPI PUSH1 0x20 PUSH1 0x40 MLOAD PUSH8 0xDE0B6B3A7640000 DUP2 MSTORE RETURN JUMPDEST DUP1 SLOAD PUSH1 0x0 SWAP4 SWAP3 PUSH1 0x1 DUP1 DUP4 AND SWAP4 DUP4 DUP3 SHR SWAP4 DUP6 ISZERO PUSH2 0x510D JUMPI JUMPDEST PUSH1 0x20 SWAP6 DUP7 DUP7 LT DUP2 EQ PUSH2 0x50F7 JUMPI DUP6 DUP6 MSTORE SWAP1 DUP2 ISZERO PUSH2 0x50D8 JUMPI POP PUSH1 0x1 EQ PUSH2 0x5097 JUMPI JUMPDEST POP POP POP POP POP JUMP JUMPDEST SWAP1 SWAP4 SWAP5 SWAP6 POP PUSH1 0x0 SWAP3 SWAP2 SWAP3 MSTORE DUP4 PUSH1 0x0 KECCAK256 SWAP3 DUP5 PUSH1 0x0 SWAP5 JUMPDEST DUP4 DUP7 LT PUSH2 0x50C4 JUMPI POP POP POP POP ADD ADD SWAP1 CODESIZE DUP1 DUP1 DUP1 DUP1 PUSH2 0x5090 JUMP JUMPDEST DUP1 SLOAD DUP6 DUP8 ADD DUP4 ADD MSTORE SWAP5 ADD SWAP4 DUP6 SWAP1 DUP3 ADD PUSH2 0x50AC JUMP JUMPDEST PUSH1 0xFF NOT AND DUP7 DUP6 ADD MSTORE POP POP POP SWAP1 ISZERO ISZERO PUSH1 0x5 SHL ADD ADD SWAP2 POP CODESIZE DUP1 DUP1 DUP1 DUP1 PUSH2 0x5090 JUMP JUMPDEST PUSH4 0x4E487B71 PUSH1 0xE0 SHL PUSH1 0x0 MSTORE PUSH1 0x22 PUSH1 0x4 MSTORE PUSH1 0x24 PUSH1 0x0 REVERT JUMPDEST SWAP4 PUSH1 0x7F AND SWAP4 PUSH2 0x5071 JUMP JUMPDEST SWAP1 PUSH1 0x20 SWAP2 PUSH2 0x5130 DUP2 MLOAD DUP1 SWAP3 DUP2 DUP6 MSTORE DUP6 DUP1 DUP7 ADD SWAP2 ADD PUSH2 0x4FE1 JUMP JUMPDEST PUSH1 0x1F ADD PUSH1 0x1F NOT AND ADD ADD SWAP1 JUMP JUMPDEST PUSH1 0x60 SWAP1 PUSH1 0x3 NOT ADD SLT PUSH2 0xA4A JUMPI PUSH1 0x4 CALLDATALOAD SWAP1 PUSH1 0x24 CALLDATALOAD SWAP1 PUSH1 0x44 CALLDATALOAD SWAP1 JUMP JUMPDEST CALLVALUE PUSH2 0xA4A JUMPI PUSH1 0x0 CALLDATASIZE PUSH1 0x3 NOT ADD SLT PUSH2 0xA4A JUMPI PUSH1 0x20 PUSH1 0x40 MLOAD PUSH1 0x2 DUP2 MSTORE RETURN JUMPDEST PUSH1 0x20 SWAP2 DUP3 DUP3 MSTORE PUSH2 0x120 DUP3 ADD SWAP1 DUP1 MLOAD DUP5 DUP5 ADD MSTORE DUP4 DUP2 ADD MLOAD PUSH1 0x40 DUP5 ADD MSTORE PUSH1 0x40 DUP2 ADD MLOAD PUSH1 0x60 DUP5 ADD MSTORE PUSH1 0x60 DUP2 ADD MLOAD PUSH1 0x80 DUP5 ADD MSTORE PUSH1 0x80 DUP2 ADD MLOAD PUSH1 0xA0 DUP5 ADD MSTORE PUSH1 0xA0 DUP2 ADD MLOAD SWAP4 PUSH2 0x100 SWAP3 DUP4 PUSH1 0xC0 DUP7 ADD MSTORE DUP6 MLOAD DUP1 SWAP2 MSTORE DUP2 PUSH2 0x140 DUP7 ADD SWAP7 ADD SWAP2 PUSH1 0x0 JUMPDEST DUP3 DUP2 LT PUSH2 0x51ED JUMPI POP POP POP POP DUP1 PUSH1 0xC0 PUSH1 0xE0 SWAP3 ADD MLOAD ISZERO ISZERO DUP3 DUP6 ADD MSTORE ADD MLOAD SWAP2 ADD MSTORE SWAP1 JUMP JUMPDEST DUP4 MLOAD PUSH1 0x1 PUSH1 0x1 PUSH1 0xA0 SHL SUB AND DUP9 MSTORE SWAP7 DUP2 ADD SWAP7 SWAP3 DUP2 ADD SWAP3 PUSH1 0x1 ADD PUSH2 0x51CC JUMP JUMPDEST CALLVALUE PUSH2 0xA4A JUMPI PUSH1 0x0 CALLDATASIZE PUSH1 0x3 NOT ADD SLT PUSH2 0xA4A JUMPI PUSH1 0x20 PUSH1 0x40 MLOAD PUSH1 0x32 DUP2 MSTORE RETURN JUMPDEST CALLVALUE PUSH2 0xA4A JUMPI PUSH1 0x0 CALLDATASIZE PUSH1 0x3 NOT ADD SLT PUSH2 0xA4A JUMPI PUSH1 0x20 PUSH1 0x40 MLOAD PUSH2 0xE10 DUP2 MSTORE RETURN JUMPDEST CALLVALUE PUSH2 0xA4A JUMPI PUSH1 0x0 CALLDATASIZE PUSH1 0x3 NOT ADD SLT PUSH2 0xA4A JUMPI PUSH1 0x20 PUSH1 0x40 MLOAD PUSH1 0x3 DUP2 MSTORE RETURN JUMPDEST DUP1 SLOAD PUSH1 0x1 PUSH1 0x40 SHL DUP2 LT ISZERO PUSH2 0x4E54 JUMPI PUSH2 0x527C SWAP2 PUSH1 0x1 DUP3 ADD DUP2 SSTORE PUSH2 0x4DEF JUMP JUMPDEST PUSH1 0x1 DUP1 PUSH1 0xA0 SWAP5 SWAP4 SWAP5 SHL SUB DUP1 DUP5 SLOAD SWAP3 PUSH1 0x3 SHL SWAP4 AND DUP4 SHL SWAP3 SHL NOT AND OR SWAP1 SSTORE JUMP JUMPDEST SWAP2 SWAP1 DUP3 ADD DUP1 SWAP3 GT PUSH2 0xEAB JUMPI JUMP JUMPDEST ISZERO PUSH2 0x52AE JUMPI JUMP JUMPDEST PUSH1 0x40 MLOAD PUSH3 0x461BCD PUSH1 0xE5 SHL DUP2 MSTORE PUSH1 0x20 PUSH1 0x4 DUP3 ADD MSTORE PUSH1 0x15 PUSH1 0x24 DUP3 ADD MSTORE PUSH21 0x141B185E595C881A5CC8189B1858DADB1A5CDD1959 PUSH1 0x5A SHL PUSH1 0x44 DUP3 ADD MSTORE PUSH1 0x64 SWAP1 REVERT JUMPDEST ISZERO PUSH2 0x52F2 JUMPI JUMP JUMPDEST PUSH1 0x40 MLOAD PUSH3 0x461BCD PUSH1 0xE5 SHL DUP2 MSTORE PUSH1 0x20 PUSH1 0x4 DUP3 ADD MSTORE PUSH1 0x1C PUSH1 0x24 DUP3 ADD MSTORE PUSH32 0x52657761726420616C726561647920636C61696D656420746F64617900000000 PUSH1 0x44 DUP3 ADD MSTORE PUSH1 0x64 SWAP1 REVERT JUMPDEST ISZERO PUSH2 0x533E JUMPI JUMP JUMPDEST PUSH1 0x40 MLOAD PUSH3 0x461BCD PUSH1 0xE5 SHL DUP2 MSTORE PUSH1 0x20 PUSH1 0x4 DUP3 ADD MSTORE PUSH1 0x1A PUSH1 0x24 DUP3 ADD MSTORE PUSH32 0x4461696C7920726577617264206C696D69742072656163686564000000000000 PUSH1 0x44 DUP3 ADD MSTORE PUSH1 0x64 SWAP1 REVERT JUMPDEST ISZERO PUSH2 0x538A JUMPI JUMP JUMPDEST PUSH1 0x40 MLOAD PUSH3 0x461BCD PUSH1 0xE5 SHL DUP2 MSTORE PUSH1 0x20 PUSH1 0x4 DUP3 ADD MSTORE PUSH1 0x27 PUSH1 0x24 DUP3 ADD MSTORE PUSH32 0x416363657373436F6E74726F6C3A2063616C6C6572206973206E6F7420726F6C PUSH1 0x44 DUP3 ADD MSTORE PUSH7 0x329030B236B4B7 PUSH1 0xC9 SHL PUSH1 0x64 DUP3 ADD MSTORE PUSH1 0x84 SWAP1 REVERT JUMPDEST ISZERO PUSH2 0x53E6 JUMPI JUMP JUMPDEST PUSH1 0x40 MLOAD PUSH3 0x461BCD PUSH1 0xE5 SHL DUP2 MSTORE PUSH1 0x20 PUSH1 0x4 DUP3 ADD MSTORE PUSH1 0xF PUSH1 0x24 DUP3 ADD MSTORE PUSH15 0x496E76616C69642061646472657373 PUSH1 0x88 SHL PUSH1 0x44 DUP3 ADD MSTORE PUSH1 0x64 SWAP1 REVERT JUMPDEST ISZERO PUSH2 0x5424 JUMPI JUMP JUMPDEST PUSH1 0x40 MLOAD PUSH3 0x461BCD PUSH1 0xE5 SHL DUP2 MSTORE PUSH1 0x20 PUSH1 0x4 DUP3 ADD MSTORE PUSH1 0x28 PUSH1 0x24 DUP3 ADD MSTORE PUSH32 0x416363657373436F6E74726F6C3A2063616C6C657220646F6573206E6F742068 PUSH1 0x44 DUP3 ADD MSTORE PUSH8 0x61766520726F6C65 PUSH1 0xC0 SHL PUSH1 0x64 DUP3 ADD MSTORE PUSH1 0x84 SWAP1 REVERT JUMPDEST DUP1 MLOAD ISZERO PUSH2 0x4E07 JUMPI PUSH1 0x20 ADD SWAP1 JUMP JUMPDEST DUP1 MLOAD PUSH1 0x1 LT ISZERO PUSH2 0x4E07 JUMPI PUSH1 0x40 ADD SWAP1 JUMP JUMPDEST DUP1 MLOAD PUSH1 0x2 LT ISZERO PUSH2 0x4E07 JUMPI PUSH1 0x60 ADD SWAP1 JUMP JUMPDEST DUP1 MLOAD PUSH1 0x3 LT ISZERO PUSH2 0x4E07 JUMPI PUSH1 0x80 ADD SWAP1 JUMP JUMPDEST DUP1 MLOAD PUSH1 0x4 LT ISZERO PUSH2 0x4E07 JUMPI PUSH1 0xA0 ADD SWAP1 JUMP JUMPDEST DUP1 MLOAD DUP3 LT ISZERO PUSH2 0x4E07 JUMPI PUSH1 0x20 SWAP2 PUSH1 0x5 SHL ADD ADD SWAP1 JUMP JUMPDEST DUP2 ISZERO PUSH2 0x54E5 JUMPI DIV SWAP1 JUMP JUMPDEST PUSH4 0x4E487B71 PUSH1 0xE0 SHL PUSH1 0x0 MSTORE PUSH1 0x12 PUSH1 0x4 MSTORE PUSH1 0x24 PUSH1 0x0 REVERT JUMPDEST SWAP1 DUP2 PUSH1 0x20 SWAP2 SUB SLT PUSH2 0xA4A JUMPI MLOAD DUP1 ISZERO ISZERO DUP2 SUB PUSH2 0xA4A JUMPI SWAP1 JUMP JUMPDEST ISZERO PUSH2 0x551A JUMPI JUMP JUMPDEST PUSH1 0x40 MLOAD PUSH3 0x461BCD PUSH1 0xE5 SHL DUP2 MSTORE PUSH1 0x20 PUSH1 0x4 DUP3 ADD MSTORE PUSH1 0x15 PUSH1 0x24 DUP3 ADD MSTORE PUSH21 0x141C9A5E99481D1C985B9CD9995C8819985A5B1959 PUSH1 0x5A SHL PUSH1 0x44 DUP3 ADD MSTORE PUSH1 0x64 SWAP1 REVERT JUMPDEST SWAP1 DUP2 MLOAD DUP1 DUP3 MSTORE PUSH1 0x20 DUP1 DUP1 SWAP4 ADD SWAP4 ADD SWAP2 PUSH1 0x0 JUMPDEST DUP3 DUP2 LT PUSH2 0x5577 JUMPI POP POP POP POP SWAP1 JUMP JUMPDEST DUP4 MLOAD PUSH1 0x1 PUSH1 0x1 PUSH1 0xA0 SHL SUB AND DUP6 MSTORE SWAP4 DUP2 ADD SWAP4 SWAP3 DUP2 ADD SWAP3 PUSH1 0x1 ADD PUSH2 0x5569 JUMP JUMPDEST SWAP4 SWAP3 SWAP2 PUSH2 0x55B1 SWAP1 PUSH1 0x40 SWAP3 DUP7 MSTORE PUSH1 0x60 PUSH1 0x20 DUP8 ADD MSTORE PUSH1 0x60 DUP7 ADD SWAP1 PUSH2 0x5557 JUMP JUMPDEST SWAP4 ADD MSTORE JUMP JUMPDEST SWAP2 SWAP1 DUP3 SUB SWAP2 DUP3 GT PUSH2 0xEAB JUMPI JUMP JUMPDEST ISZERO PUSH2 0x55CA JUMPI JUMP JUMPDEST PUSH1 0x40 MLOAD PUSH3 0x461BCD PUSH1 0xE5 SHL DUP2 MSTORE PUSH1 0x20 PUSH1 0x4 DUP3 ADD MSTORE PUSH1 0xF PUSH1 0x24 DUP3 ADD MSTORE PUSH15 0x151C985B9CD9995C8819985A5B1959 PUSH1 0x8A SHL PUSH1 0x44 DUP3 ADD MSTORE PUSH1 0x64 SWAP1 REVERT JUMPDEST PUSH1 0x40 MLOAD SWAP1 PUSH2 0x560E DUP3 PUSH2 0x4E86 JUMP JUMPDEST DUP2 PUSH1 0xE0 PUSH1 0x0 SWAP2 DUP3 DUP2 MSTORE DUP3 PUSH1 0x20 DUP3 ADD MSTORE DUP3 PUSH1 0x40 DUP3 ADD MSTORE DUP3 PUSH1 0x60 DUP3 ADD MSTORE DUP3 PUSH1 0x80 DUP3 ADD MSTORE PUSH1 0x60 PUSH1 0xA0 DUP3 ADD MSTORE DUP3 PUSH1 0xC0 DUP3 ADD MSTORE ADD MSTORE JUMP JUMPDEST DUP2 ISZERO PUSH2 0x54E5 JUMPI MOD SWAP1 JUMP JUMPDEST PUSH1 0x1 SLOAD PUSH1 0x1 PUSH1 0x1 PUSH1 0xA0 SHL SUB AND CALLER SUB PUSH2 0x565E JUMPI JUMP JUMPDEST PUSH1 0x40 MLOAD PUSH4 0x118CDAA7 PUSH1 0xE0 SHL DUP2 MSTORE CALLER PUSH1 0x4 DUP3 ADD MSTORE PUSH1 0x24 SWAP1 REVERT JUMPDEST PUSH1 0xFF PUSH1 0x1 SLOAD PUSH1 0xA0 SHR AND PUSH2 0x5685 JUMPI JUMP JUMPDEST PUSH1 0x40 MLOAD PUSH4 0xD93C0665 PUSH1 0xE0 SHL DUP2 MSTORE PUSH1 0x4 SWAP1 REVERT JUMPDEST PUSH1 0x12 SLOAD SWAP1 PUSH1 0x0 JUMPDEST DUP3 PUSH1 0x0 MSTORE PUSH1 0x10 PUSH1 0x20 MSTORE PUSH1 0x40 PUSH1 0x0 KECCAK256 DUP1 SLOAD DUP3 LT ISZERO PUSH2 0x56EB JUMPI DUP2 PUSH2 0x56BF SWAP2 PUSH2 0x4DEF JUMP JUMPDEST SWAP1 SLOAD PUSH1 0x3 SWAP2 SWAP1 SWAP2 SHL SHR PUSH1 0x1 PUSH1 0x1 PUSH1 0xA0 SHL SUB SWAP1 DUP2 AND SWAP1 DUP4 AND EQ PUSH2 0x56E3 JUMPI PUSH1 0x1 ADD PUSH2 0x569E JUMP JUMPDEST POP POP POP PUSH1 0x1 SWAP1 JUMP JUMPDEST POP POP POP POP PUSH1 0x0 SWAP1 JUMP JUMPDEST PUSH1 0x2 PUSH1 0x0 SLOAD EQ PUSH2 0x5705 JUMPI PUSH1 0x2 PUSH1 0x0 SSTORE JUMP JUMPDEST PUSH1 0x40 MLOAD PUSH4 0x3EE5AEB5 PUSH1 0xE0 SHL DUP2 MSTORE PUSH1 0x4 SWAP1 REVERT JUMPDEST DUP2 ISZERO PUSH2 0x57BD JUMPI PUSH2 0x3E8 DUP3 GT PUSH2 0x577F JUMPI PUSH1 0x1 DUP1 PUSH1 0xA0 SHL SUB AND SWAP1 PUSH1 0x0 SWAP1 DUP3 DUP3 MSTORE PUSH1 0x20 SWAP1 DUP2 DUP1 MSTORE PUSH2 0x5749 DUP2 PUSH1 0x40 DUP6 KECCAK256 SLOAD PUSH2 0x529A JUMP JUMPDEST PUSH1 0x64 DUP2 GT PUSH2 0xEC1 JUMPI PUSH1 0x40 SWAP3 PUSH2 0x5776 DUP6 SWAP4 PUSH1 0x1A SWAP4 DUP9 PUSH1 0xE SWAP9 MSTORE DUP4 DUP1 MSTORE DUP7 DUP7 KECCAK256 SSTORE DUP4 DUP4 MSTORE DUP7 DUP7 DUP7 KECCAK256 ADD SLOAD PUSH2 0x529A JUMP JUMPDEST SWAP6 DUP4 MSTORE MSTORE KECCAK256 ADD SSTORE JUMP JUMPDEST PUSH1 0x40 MLOAD PUSH3 0x461BCD PUSH1 0xE5 SHL DUP2 MSTORE PUSH1 0x20 PUSH1 0x4 DUP3 ADD MSTORE PUSH1 0x16 PUSH1 0x24 DUP3 ADD MSTORE PUSH22 0xA4CAEEC2E4C840C2DADEEADCE840E8DEDE40D0D2CED PUSH1 0x53 SHL PUSH1 0x44 DUP3 ADD MSTORE PUSH1 0x64 SWAP1 REVERT JUMPDEST PUSH1 0x40 MLOAD PUSH3 0x461BCD PUSH1 0xE5 SHL DUP2 MSTORE PUSH1 0x20 PUSH1 0x4 DUP3 ADD MSTORE PUSH1 0x1E PUSH1 0x24 DUP3 ADD MSTORE PUSH32 0x52657761726420616D6F756E74206D75737420626520706F7369746976650000 PUSH1 0x44 DUP3 ADD MSTORE PUSH1 0x64 SWAP1 REVERT JUMPDEST PUSH1 0x0 NOT DUP2 EQ PUSH2 0xEAB JUMPI PUSH1 0x1 ADD SWAP1 JUMP JUMPDEST SWAP1 PUSH1 0x40 SWAP1 DUP2 MLOAD SWAP1 PUSH2 0x5821 DUP3 PUSH2 0x4F21 JUMP JUMPDEST PUSH1 0x8 SWAP3 PUSH1 0x8 DUP4 MSTORE PUSH1 0x20 SWAP1 PUSH2 0x100 CALLDATASIZE DUP4 DUP7 ADD CALLDATACOPY PUSH1 0x0 SWAP2 DUP7 DUP4 MSTORE PUSH1 0x1D DUP2 MSTORE PUSH1 0x7 DUP3 DUP5 KECCAK256 ADD SLOAD SWAP2 DUP3 ISZERO PUSH2 0x5960 JUMPI PUSH1 0x2 SLOAD DUP2 MLOAD PUSH4 0x1DAAF1B1 PUSH1 0xE1 SHL DUP2 MSTORE PUSH1 0x4 DUP2 ADD SWAP5 SWAP1 SWAP5 MSTORE PUSH1 0x1 PUSH1 0x1 PUSH1 0xA0 SHL SUB SWAP9 SWAP1 DUP4 SWAP1 DUP6 SWAP1 PUSH1 0x24 SWAP1 DUP3 SWAP1 DUP14 AND GAS STATICCALL SWAP4 DUP5 ISZERO PUSH2 0x5956 JUMPI DUP6 SWAP5 PUSH2 0x5923 JUMPI JUMPDEST POP DUP4 ISZERO PUSH2 0x5917 JUMPI DUP5 MSTORE PUSH1 0xA DUP3 MSTORE DUP1 DUP5 KECCAK256 SWAP5 DUP6 SLOAD SWAP5 DUP6 ISZERO PUSH2 0x5901 JUMPI JUMPDEST DUP9 DUP2 LT DUP1 PUSH2 0x590E JUMPI JUMPDEST ISZERO PUSH2 0x5901 JUMPI PUSH2 0x58FC SWAP1 DUP11 PUSH2 0x58E4 PUSH2 0x58DE DUP10 DUP8 MLOAD DUP10 DUP2 ADD SWAP1 DUP12 DUP3 MSTORE DUP7 DUP11 DUP3 ADD MSTORE DUP10 DUP2 MSTORE PUSH2 0x58D6 DUP2 PUSH2 0x4EEB JUMP JUMPDEST MLOAD SWAP1 KECCAK256 PUSH2 0x5640 JUMP JUMPDEST DUP11 PUSH2 0x4DEF JUMP JUMPDEST SWAP1 SLOAD SWAP1 PUSH1 0x3 SHL SHR AND PUSH2 0x58F6 DUP3 DUP12 PUSH2 0x54C7 JUMP JUMPDEST MSTORE PUSH2 0x5802 JUMP JUMPDEST PUSH2 0x58A2 JUMP JUMPDEST POP SWAP8 POP POP POP POP POP POP SWAP1 POP SWAP1 JUMP JUMPDEST POP DUP6 DUP2 LT PUSH2 0x58AB JUMP JUMPDEST POP POP POP POP POP SWAP3 POP SWAP1 POP SWAP1 JUMP JUMPDEST SWAP1 SWAP4 POP DUP3 DUP2 DUP2 RETURNDATASIZE DUP4 GT PUSH2 0x594F JUMPI JUMPDEST PUSH2 0x593B DUP2 DUP4 PUSH2 0x4F3D JUMP JUMPDEST DUP2 ADD SUB SLT PUSH2 0x594B JUMPI MLOAD SWAP3 CODESIZE PUSH2 0x5887 JUMP JUMPDEST DUP5 DUP1 REVERT JUMPDEST POP RETURNDATASIZE PUSH2 0x5931 JUMP JUMPDEST DUP3 MLOAD RETURNDATASIZE DUP8 DUP3 RETURNDATACOPY RETURNDATASIZE SWAP1 REVERT JUMPDEST POP POP POP POP SWAP3 POP SWAP1 POP SWAP1 JUMP JUMPDEST PUSH1 0x4 PUSH2 0x5977 DUP2 SLOAD PUSH2 0x5802 JUMP JUMPDEST DUP1 DUP3 SSTORE PUSH3 0x15180 TIMESTAMP ADD DUP1 TIMESTAMP GT PUSH2 0x5AD2 JUMPI PUSH1 0x40 MLOAD SWAP3 PUSH2 0x5994 DUP5 PUSH2 0x4ED0 JUMP JUMPDEST PUSH1 0x0 SWAP1 DUP2 DUP6 MSTORE PUSH1 0x40 MLOAD SWAP5 PUSH2 0x59A7 DUP7 PUSH2 0x4E86 JUMP JUMPDEST DUP5 DUP7 MSTORE PUSH1 0x20 SWAP3 DUP4 DUP8 ADD SWAP4 TIMESTAMP DUP6 MSTORE PUSH1 0x40 DUP9 ADD SWAP6 DUP7 MSTORE PUSH1 0x60 DUP9 ADD DUP3 DUP2 MSTORE PUSH1 0x80 DUP10 ADD SWAP1 DUP4 DUP3 MSTORE PUSH1 0xA0 DUP11 ADD SWAP5 DUP6 MSTORE PUSH1 0xC0 DUP11 ADD SWAP8 DUP5 DUP10 MSTORE PUSH1 0xE0 DUP12 ADD SWAP10 DUP6 DUP12 MSTORE DUP6 MSTORE PUSH1 0x1D DUP5 MSTORE PUSH1 0x40 DUP6 KECCAK256 SWAP11 MLOAD DUP12 SSTORE PUSH1 0x1 SWAP8 MLOAD PUSH1 0x1 DUP13 ADD SSTORE MLOAD PUSH1 0x2 DUP12 ADD SSTORE MLOAD PUSH1 0x3 DUP11 ADD SSTORE MLOAD DUP5 DUP10 ADD SSTORE PUSH1 0x5 DUP9 ADD SWAP3 MLOAD DUP1 MLOAD SWAP5 PUSH1 0x1 PUSH1 0x1 PUSH1 0x40 SHL SUB DUP7 GT PUSH2 0x5ABF JUMPI PUSH1 0x1 PUSH1 0x40 SHL DUP7 GT PUSH2 0x5ABF JUMPI POP DUP2 SWAP1 DUP5 SLOAD DUP7 DUP7 SSTORE DUP1 DUP8 LT PUSH2 0x5A95 JUMPI JUMPDEST POP ADD SWAP3 DUP3 MSTORE DUP1 DUP3 KECCAK256 SWAP2 JUMPDEST DUP5 DUP2 LT PUSH2 0x5A7B JUMPI POP POP POP POP POP POP SWAP1 PUSH2 0x5A71 PUSH1 0x7 SWAP3 MLOAD ISZERO ISZERO PUSH1 0x6 DUP6 ADD SWAP1 PUSH1 0xFF DUP1 NOT DUP4 SLOAD AND SWAP2 ISZERO ISZERO AND OR SWAP1 SSTORE JUMP JUMPDEST MLOAD SWAP2 ADD SSTORE TIMESTAMP PUSH1 0x7 SSTORE JUMP JUMPDEST DUP4 MLOAD PUSH1 0x1 PUSH1 0x1 PUSH1 0xA0 SHL SUB AND DUP4 DUP3 ADD SSTORE SWAP3 DUP2 ADD SWAP3 DUP6 ADD PUSH2 0x5A45 JUMP JUMPDEST DUP6 DUP6 MSTORE DUP8 DUP8 DUP5 DUP8 KECCAK256 SWAP3 DUP4 ADD SWAP3 ADD JUMPDEST DUP3 DUP2 LT PUSH2 0x5AB1 JUMPI POP POP PUSH2 0x5A3B JUMP JUMPDEST DUP7 DUP2 SSTORE DUP6 SWAP5 POP DUP10 SWAP2 ADD PUSH2 0x5AA3 JUMP JUMPDEST PUSH4 0x4E487B71 PUSH1 0xE0 SHL DUP5 MSTORE PUSH1 0x41 SWAP1 MSTORE PUSH1 0x24 DUP4 REVERT JUMPDEST PUSH1 0x11 DUP4 PUSH4 0x4E487B71 PUSH1 0xE0 SHL PUSH1 0x0 MSTORE MSTORE PUSH1 0x24 PUSH1 0x0 REVERT JUMPDEST PUSH1 0x1 DUP1 PUSH1 0xA0 SHL SUB AND PUSH1 0x0 SWAP1 DUP1 DUP3 MSTORE PUSH1 0x22 PUSH1 0x20 MSTORE PUSH1 0x1E PUSH2 0x5B0A PUSH1 0x40 DUP5 KECCAK256 SLOAD TIMESTAMP PUSH2 0x55B6 JUMP JUMPDEST LT PUSH2 0x5B3E JUMPI DUP2 MSTORE PUSH1 0x1A PUSH1 0x20 MSTORE PUSH1 0xA PUSH1 0x1 PUSH1 0x40 DUP4 KECCAK256 ADD SLOAD GT PUSH2 0x5B38 JUMPI PUSH1 0x20 DUP1 MSTORE PUSH1 0x64 PUSH1 0x40 DUP3 KECCAK256 SLOAD GT PUSH2 0x5B38 JUMPI SWAP1 JUMP JUMPDEST POP PUSH1 0x1 SWAP1 JUMP JUMPDEST POP POP PUSH1 0x1 SWAP1 JUMP JUMPDEST SWAP1 PUSH2 0x5B4F DUP3 PUSH2 0x4F5E JUMP JUMPDEST PUSH2 0x5B5C PUSH1 0x40 MLOAD SWAP2 DUP3 PUSH2 0x4F3D JUMP JUMPDEST DUP3 DUP2 MSTORE DUP1 SWAP3 PUSH2 0x5B6D PUSH1 0x1F NOT SWAP2 PUSH2 0x4F5E JUMP JUMPDEST ADD SWAP1 PUSH1 0x20 CALLDATASIZE SWAP2 ADD CALLDATACOPY JUMP JUMPDEST SWAP1 DUP2 MLOAD DUP2 LT ISZERO PUSH2 0x4E07 JUMPI ADD PUSH1 0x20 ADD SWAP1 JUMP JUMPDEST DUP1 MLOAD PUSH1 0x3 DUP2 LT SWAP1 DUP2 ISZERO PUSH2 0x5D90 JUMPI JUMPDEST POP PUSH2 0x5D8A JUMPI PUSH1 0x0 JUMPDEST DUP2 MLOAD DUP2 LT ISZERO PUSH2 0x5C5A JUMPI PUSH1 0x1 PUSH1 0x1 PUSH1 0xF8 SHL SUB NOT PUSH2 0x5BBA DUP3 DUP5 PUSH2 0x5B77 JUMP JUMPDEST MLOAD AND PUSH1 0x3 PUSH1 0xFC SHL DUP2 LT ISZERO SWAP1 DUP2 PUSH2 0x5C4B JUMPI JUMPDEST DUP2 ISZERO PUSH2 0x5C27 JUMPI JUMPDEST DUP2 ISZERO PUSH2 0x5C03 JUMPI JUMPDEST DUP2 ISZERO PUSH2 0x5BF5 JUMPI JUMPDEST POP ISZERO PUSH2 0x5BEE JUMPI PUSH1 0x1 ADD PUSH2 0x5B9E JUMP JUMPDEST POP POP PUSH1 0x0 SWAP1 JUMP JUMPDEST PUSH1 0x5F PUSH1 0xF8 SHL EQ SWAP1 POP CODESIZE PUSH2 0x5BE0 JUMP JUMPDEST SWAP1 POP PUSH1 0x61 PUSH1 0xF8 SHL DUP2 LT ISZERO DUP1 PUSH2 0x5C19 JUMPI JUMPDEST SWAP1 PUSH2 0x5BD9 JUMP JUMPDEST POP PUSH1 0x3D PUSH1 0xF9 SHL DUP2 GT ISZERO PUSH2 0x5C13 JUMP JUMPDEST SWAP1 POP PUSH1 0x41 PUSH1 0xF8 SHL DUP2 LT ISZERO DUP1 PUSH2 0x5C3D JUMPI JUMPDEST SWAP1 PUSH2 0x5BD2 JUMP JUMPDEST POP PUSH1 0x2D PUSH1 0xF9 SHL DUP2 GT ISZERO PUSH2 0x5C37 JUMP JUMPDEST PUSH1 0x39 PUSH1 0xF8 SHL DUP2 GT ISZERO SWAP2 POP PUSH2 0x5BCB JUMP JUMPDEST POP PUSH1 0x1 JUMPDEST DUP2 MLOAD DUP2 LT ISZERO PUSH2 0x5CBC JUMPI PUSH1 0x1 PUSH1 0x1 PUSH1 0xF8 SHL SUB NOT PUSH1 0x5F PUSH1 0xF8 SHL DUP1 DUP3 PUSH2 0x5C81 DUP6 DUP8 PUSH2 0x5B77 JUMP JUMPDEST MLOAD AND EQ SWAP2 DUP3 PUSH2 0x5C99 JUMPI JUMPDEST POP POP PUSH2 0x5BEE JUMPI PUSH1 0x1 ADD PUSH2 0x5C5E JUMP JUMPDEST SWAP1 SWAP2 POP PUSH1 0x0 NOT DUP4 ADD DUP4 DUP2 GT PUSH2 0xEAB JUMPI PUSH2 0x5CB2 SWAP1 DUP6 PUSH2 0x5B77 JUMP JUMPDEST MLOAD AND EQ CODESIZE DUP1 PUSH2 0x5C8B JUMP JUMPDEST POP SWAP1 PUSH2 0x5CC8 DUP3 MLOAD PUSH2 0x5B45 JUMP JUMPDEST PUSH1 0x0 JUMPDEST DUP4 MLOAD DUP2 LT ISZERO PUSH2 0x5D70 JUMPI PUSH1 0x1 PUSH1 0x1 PUSH1 0xF8 SHL SUB NOT SWAP1 PUSH1 0x61 PUSH1 0xF8 SHL DUP3 PUSH2 0x5CEE DUP4 DUP9 PUSH2 0x5B77 JUMP JUMPDEST MLOAD AND LT ISZERO DUP1 PUSH2 0x5D56 JUMPI JUMPDEST ISZERO PUSH2 0x5D34 JUMPI PUSH2 0x5D07 DUP2 DUP7 PUSH2 0x5B77 JUMP JUMPDEST MLOAD PUSH1 0xF8 SWAP3 SWAP1 DUP4 SHR PUSH1 0x1F NOT ADD PUSH1 0xFF DUP2 GT PUSH2 0xEAB JUMPI PUSH1 0x1 SWAP4 SHL AND PUSH1 0x0 BYTE PUSH2 0x5D2C DUP3 DUP6 PUSH2 0x5B77 JUMP JUMPDEST MSTORE8 JUMPDEST ADD PUSH2 0x5CCB JUMP JUMPDEST PUSH1 0x1 SWAP2 PUSH2 0x5D41 DUP3 DUP8 PUSH2 0x5B77 JUMP JUMPDEST MLOAD AND PUSH1 0x0 BYTE PUSH2 0x5D50 DUP3 DUP6 PUSH2 0x5B77 JUMP JUMPDEST MSTORE8 PUSH2 0x5D2E JUMP JUMPDEST POP PUSH1 0x3D PUSH1 0xF9 SHL DUP3 PUSH2 0x5D67 DUP4 DUP9 PUSH2 0x5B77 JUMP JUMPDEST MLOAD AND GT ISZERO PUSH2 0x5CF8 JUMP JUMPDEST POP PUSH2 0x5D7C SWAP2 SWAP3 POP PUSH2 0x5EF8 JUMP JUMPDEST PUSH2 0x5D85 JUMPI PUSH1 0x1 SWAP1 JUMP JUMPDEST PUSH1 0x0 SWAP1 JUMP JUMPDEST POP PUSH1 0x0 SWAP1 JUMP JUMPDEST PUSH1 0x32 SWAP2 POP GT CODESIZE PUSH2 0x5B96 JUMP JUMPDEST SWAP1 PUSH1 0x40 SWAP2 PUSH1 0x40 MLOAD SWAP3 PUSH2 0x5DAC DUP5 PUSH2 0x4F21 JUMP JUMPDEST PUSH1 0x8 SWAP3 PUSH1 0x8 DUP6 MSTORE PUSH1 0x20 PUSH2 0x100 CALLDATASIZE PUSH1 0x20 DUP9 ADD CALLDATACOPY PUSH1 0x0 SWAP2 DUP5 PUSH1 0x0 MSTORE PUSH1 0xB PUSH1 0x20 MSTORE PUSH1 0x40 PUSH1 0x0 KECCAK256 SLOAD SWAP1 DUP2 ISZERO PUSH2 0x5E50 JUMPI PUSH1 0x0 JUMPDEST DUP8 DUP2 LT PUSH2 0x5DEC JUMPI POP POP POP POP POP POP POP POP SWAP1 JUMP JUMPDEST PUSH1 0x1 SWAP1 PUSH2 0x5E31 PUSH2 0x5E22 DUP6 DUP10 MLOAD DUP9 DUP2 ADD SWAP1 DUP8 DUP3 MSTORE DUP6 DUP13 DUP3 ADD MSTORE TIMESTAMP PUSH1 0x60 DUP3 ADD MSTORE PREVRANDAO PUSH1 0x80 DUP3 ADD MSTORE PUSH1 0xA0 DUP14 DUP2 DUP4 ADD MSTORE DUP2 MSTORE PUSH2 0x58D6 DUP2 PUSH2 0x4F06 JUMP JUMPDEST DUP10 DUP9 MSTORE PUSH1 0xA DUP8 MSTORE DUP9 DUP9 KECCAK256 PUSH2 0x4DEF JUMP JUMPDEST DUP4 DUP1 PUSH1 0xA0 SHL SUB SWAP2 SLOAD SWAP1 PUSH1 0x3 SHL SHR AND PUSH2 0x5E49 DUP3 DUP13 PUSH2 0x54C7 JUMP JUMPDEST MSTORE ADD PUSH2 0x5DDA JUMP JUMPDEST POP POP POP POP POP POP POP SWAP1 JUMP JUMPDEST DUP1 ISZERO PUSH2 0x5EDA JUMPI DUP1 PUSH1 0x0 DUP2 DUP1 JUMPDEST PUSH2 0x5EC2 JUMPI POP PUSH2 0x5E74 DUP2 PUSH2 0x5B45 JUMP JUMPDEST SWAP3 JUMPDEST PUSH2 0x5E7F JUMPI POP POP SWAP1 JUMP JUMPDEST PUSH1 0x0 NOT DUP2 ADD SWAP1 DUP2 GT PUSH2 0xEAB JUMPI DUP1 SWAP2 PUSH1 0xA SWAP2 PUSH1 0x30 DUP4 DUP4 MOD DUP2 ADD DUP1 SWAP2 GT PUSH2 0xEAB JUMPI PUSH1 0xF8 SHL PUSH1 0x1 PUSH1 0x1 PUSH1 0xF8 SHL SUB NOT AND PUSH1 0x0 BYTE SWAP1 PUSH2 0x5EB9 SWAP1 DUP7 PUSH2 0x5B77 JUMP JUMPDEST MSTORE8 DIV SWAP1 DUP2 PUSH2 0x5E76 JUMP JUMPDEST SWAP2 POP PUSH2 0x5ECF PUSH1 0xA SWAP2 PUSH2 0x5802 JUMP JUMPDEST SWAP2 DIV DUP1 DUP4 SWAP3 SWAP2 PUSH2 0x5E66 JUMP JUMPDEST POP PUSH1 0x40 MLOAD PUSH2 0x5EE7 DUP2 PUSH2 0x4EB5 JUMP JUMPDEST PUSH1 0x1 DUP2 MSTORE PUSH1 0x3 PUSH1 0xFC SHL PUSH1 0x20 DUP3 ADD MSTORE SWAP1 JUMP JUMPDEST PUSH1 0x40 DUP1 MLOAD SWAP1 PUSH2 0x5F06 DUP3 PUSH2 0x4F06 JUMP JUMPDEST PUSH1 0x5 DUP3 MSTORE PUSH1 0x0 JUMPDEST PUSH1 0xA0 DUP2 LT PUSH2 0x603D JUMPI POP DUP1 MLOAD PUSH2 0x5F21 DUP2 PUSH2 0x4EB5 JUMP JUMPDEST PUSH1 0x5 DUP2 MSTORE PUSH5 0x20A226A4A7 PUSH1 0xD9 SHL PUSH1 0x20 DUP3 ADD MSTORE PUSH2 0x5F3C DUP4 PUSH2 0x547A JUMP JUMPDEST MSTORE PUSH2 0x5F46 DUP3 PUSH2 0x547A JUMP JUMPDEST POP DUP1 MLOAD PUSH2 0x5F52 DUP2 PUSH2 0x4EB5 JUMP JUMPDEST PUSH1 0x5 DUP2 MSTORE PUSH5 0x27ABA722A9 PUSH1 0xD9 SHL PUSH1 0x20 DUP3 ADD MSTORE PUSH2 0x5F6D DUP4 PUSH2 0x5487 JUMP JUMPDEST MSTORE PUSH2 0x5F77 DUP3 PUSH2 0x5487 JUMP JUMPDEST POP DUP1 MLOAD PUSH2 0x5F83 DUP2 PUSH2 0x4EB5 JUMP JUMPDEST PUSH1 0x6 DUP2 MSTORE PUSH6 0x53595354454D PUSH1 0xD0 SHL PUSH1 0x20 DUP3 ADD MSTORE PUSH2 0x5F9F DUP4 PUSH2 0x5497 JUMP JUMPDEST MSTORE PUSH2 0x5FA9 DUP3 PUSH2 0x5497 JUMP JUMPDEST POP DUP1 MLOAD PUSH2 0x5FB5 DUP2 PUSH2 0x4EB5 JUMP JUMPDEST PUSH1 0x4 DUP2 MSTORE PUSH4 0x13955313 PUSH1 0xE2 SHL PUSH1 0x20 DUP3 ADD MSTORE PUSH2 0x5FCF DUP4 PUSH2 0x54A7 JUMP JUMPDEST MSTORE PUSH2 0x5FD9 DUP3 PUSH2 0x54A7 JUMP JUMPDEST POP MLOAD PUSH2 0x5FE4 DUP2 PUSH2 0x4EB5 JUMP JUMPDEST PUSH1 0x4 DUP2 MSTORE PUSH4 0x151154D5 PUSH1 0xE2 SHL PUSH1 0x20 DUP3 ADD MSTORE PUSH2 0x5FFE DUP3 PUSH2 0x54B7 JUMP JUMPDEST MSTORE PUSH2 0x6008 DUP2 PUSH2 0x54B7 JUMP JUMPDEST POP PUSH1 0x0 JUMPDEST DUP2 MLOAD DUP2 LT ISZERO PUSH2 0x6035 JUMPI PUSH2 0x6029 PUSH2 0x6022 DUP3 DUP5 PUSH2 0x54C7 JUMP JUMPDEST MLOAD DUP5 PUSH2 0x6098 JUMP JUMPDEST PUSH2 0x56E3 JUMPI PUSH1 0x1 ADD PUSH2 0x600C JUMP JUMPDEST POP POP POP PUSH1 0x0 SWAP1 JUMP JUMPDEST DUP1 PUSH1 0x60 PUSH1 0x20 DUP1 SWAP4 DUP7 ADD ADD MSTORE ADD PUSH2 0x5F0D JUMP JUMPDEST DUP2 DUP2 EQ PUSH2 0x5BEE JUMPI DUP2 DUP1 DUP3 GT ISZERO PUSH2 0x6088 JUMPI PUSH2 0x6067 SWAP2 PUSH2 0x55B6 JUMP JUMPDEST SWAP1 JUMPDEST PUSH1 0x64 DUP3 MUL SWAP2 DUP1 DUP4 DIV PUSH1 0x64 EQ SWAP1 ISZERO OR ISZERO PUSH2 0xEAB JUMPI PUSH2 0x6085 SWAP2 PUSH2 0x54DB JUMP JUMPDEST SWAP1 JUMP JUMPDEST SWAP1 PUSH2 0x6092 SWAP2 PUSH2 0x55B6 JUMP JUMPDEST SWAP1 PUSH2 0x6069 JUMP JUMPDEST SWAP1 DUP1 MLOAD DUP3 MLOAD LT PUSH2 0x5BEE JUMPI PUSH1 0x0 SWAP1 JUMPDEST PUSH2 0x60B3 DUP4 MLOAD DUP3 MLOAD SWAP1 PUSH2 0x55B6 JUMP JUMPDEST DUP3 GT PUSH2 0x6035 JUMPI PUSH1 0x1 SWAP3 PUSH1 0x0 JUMPDEST DUP3 MLOAD DUP2 LT ISZERO PUSH2 0x611B JUMPI PUSH1 0x1 PUSH1 0x1 PUSH1 0xF8 SHL SUB NOT DUP1 PUSH2 0x60E5 PUSH2 0x60DF DUP5 DUP9 PUSH2 0x529A JUMP JUMPDEST DUP6 PUSH2 0x5B77 JUMP JUMPDEST MLOAD AND SWAP1 PUSH2 0x60F2 DUP4 DUP7 PUSH2 0x5B77 JUMP JUMPDEST MLOAD AND SUB PUSH2 0x6101 JUMPI PUSH1 0x1 ADD PUSH2 0x60BF JUMP JUMPDEST POP SWAP3 POP SWAP1 PUSH1 0x0 JUMPDEST PUSH2 0x56E3 JUMPI PUSH2 0x6115 SWAP1 PUSH2 0x5802 JUMP JUMPDEST SWAP1 PUSH2 0x60A6 JUMP JUMPDEST POP SWAP3 SWAP2 SWAP1 SWAP2 PUSH2 0x6108 JUMP INVALID SWAP8 PUSH7 0x7070C54EF182B0 CREATE2 DUP6 DUP12 SUB 0x4B 0xEA 0xC1 0xB6 RETURN ADDMOD SWAP11 LOG2 0xD3 XOR DUP12 0xB1 0xE8 SWAP3 SWAP16 0x4F 0xA9 0xB9 0x29 NOT MLOAD DUP9 0xE7 0xE2 0xA9 0xC9 CHAINID 0xC9 SGT OR SWAP5 PUSH1 0x30 BLOBHASH 0xC EXTCODESIZE LOG4 DUP11 JUMPDEST PUSH32 0x867101928826FA4CC609C5A2646970667358221220427BDEF766D21C55FB26B0 GT CHAINID LOG0 0xEE 0xD4 SWAP6 DIV POP 0xB4 0x4D 0xE7 0x4D 0xD9 LOG2 STATICCALL 0x23 PUSH8 0x8A28DA2564736F6C PUSH4 0x43000818 STOP CALLER "},"methodIdentifiers":{"ADMIN_ROLE()":"75b238fc","AUDITOR_ROLE()":"6e1d616e","BATCH_SIZE()":"49faa4d4","DAILY_PLAY_REWARD()":"dd23b9cb","DAILY_WINNERS_COUNT()":"16fa1086","DOLLAR_ENTRY_FEE()":"c5d32157","EMERGENCY_ROLE()":"20df4359","ENTRY_COOLDOWN()":"a9b8b451","FIRST_ORDER_REWARD()":"69396e88","GAS_OPTIMIZATION_INTERVAL()":"a37c1572","JACKPOT_ENTRY_COST()":"4b75344e","JACKPOT_MULTIPLIER()":"7a7eb1f4","LOYALTY_POINTS_PER_DOLLAR()":"f8172fe3","MAX_DAILY_ENTRIES()":"bbc3ced7","MAX_DAILY_REWARDS()":"d136a94d","MAX_JACKPOT_ENTRIES()":"39d8ea42","MAX_PRICE_DEVIATION()":"96f277b7","MAX_REFERRAL_CODE_LENGTH()":"9b95f1fc","MAX_REWARD_AMOUNT()":"a04f6b4b","MIN_REFERRAL_CODE_LENGTH()":"e443e279","MIN_VMF_HOLDING()":"da9bbe11","OPERATOR_ROLE()":"f5b541a6","PRICE_UPDATE_THRESHOLD()":"098655d9","REFERRAL_REWARD()":"84a3a0f3","STREAK_BONUS()":"bcf64475","VMF_HOLDING_REWARD()":"7568e826","WEEKLY_WINNERS_COUNT()":"0d9f92ca","addJackpotEntry()":"b87fc22d","awardLoyaltyPoints()":"74631fd7","awardStreakBonus()":"25b7f388","awardVMFHoldingsToppings()":"90e40687","batchProcessingActive(uint256)":"bf757624","batchProcessingNonce(uint256)":"79675127","blacklistedAddresses(address)":"d5749d42","claimFirstOrderReward()":"e22cb9c9","claimWeeklyChallengeReward(uint256)":"2618cafd","contributeEntropy(bytes32)":"1472cbe3","createReferralCode()":"2e108d1c","currentDailyJackpot()":"e3d440a7","currentRandomnessRound()":"bb6bf0f0","currentWeeklyJackpot()":"3bb4f638","dailyPlayerCount(uint256)":"ffc39504","dailyPlayers(uint256,uint256)":"4eb692a5","drawDailyWinners()":"3fb83a54","drawWeeklyWinners()":"52861f7f","emergencyPause(bool)":"e8f6940e","emergencyUnlockGame(uint256)":"e82aefc7","emergencyWithdraw()":"db2e21bc","enterDailyGame(string)":"5c27b2e4","entropyContributions(uint256)":"cf376677","entropyContributors(uint256,uint256)":"0c89d127","entropyRoundId()":"59db6fe6","gameStateLocked(uint256)":"2a243f19","games(uint256)":"117a5b90","gasOptimizationThreshold()":"ee892e64","generateSecureRandomness()":"cb955e6b","getCurrentEntryFee()":"0aa01695","getCurrentGame()":"968d901b","getCurrentVMFPrice()":"786a78c6","getGame(uint256)":"a2f77bcc","getGasUsageStats()":"aea664a5","getJackpotState(uint256)":"3f781412","getPlayerInfo(address)":"59328401","getReferralInfo(address)":"21874ae2","grantRole(bytes32,address)":"2f2ff15d","hasEnteredToday(address)":"ba53ba24","hasRole(bytes32,address)":"91d14854","jackpotStateHash(uint256)":"67cafabb","jackpotUpdateCooldown()":"b8caead6","jackpotUpdateNonce(uint256)":"d2111791","lastDailyDraw()":"7550b84f","lastEntropyUpdate()":"2ee8b778","lastGasOptimization()":"28100aca","lastJackpotUpdate()":"19bf155d","lastWeeklyDraw()":"c14e1e05","optimizeGasUsage()":"59a9867e","owner()":"8da5cb5b","paused()":"5c975abb","players(address)":"e2eb41ff","priceOracle()":"2630c12f","processBatchPlayers(address[],uint256[])":"3a65126a","randomnessContract()":"41fe39ec","randomnessSeeds(uint256)":"a88066f7","referralCodes(string)":"2655e840","referrals(address)":"9ca423b3","renounceOwnership()":"715018a6","requestDailyRandomness()":"0b00a5db","revealRandomness(uint256,uint256,bytes32)":"a154fc6b","revokeRole(bytes32,address)":"d547741f","roleAdmins(bytes32)":"8543210d","roles(bytes32,address)":"f8fc08b9","selectDailyWinners()":"eb0fb2c8","setJackpotUpdateCooldown(uint256)":"6ce497b2","setPlayerBlacklist(address,bool)":"43f2a080","setRoleAdmin(bytes32,address)":"ad763192","submitRandomnessCommitment(uint256,bytes32)":"e3505b14","transferOwnership(address)":"f2fde38b","updateJackpotAtomic(uint256,uint256,bytes32)":"71e4206d","userDailyRewards(address)":"2ff7a52d","userLastActivity(address)":"77ce2992","userRateLimitEnd(address)":"03fa2c63","vmfToken()":"2086eefa","weeklyChallenges(uint256)":"4f55e8ad","weeklyPlayerCount(uint256)":"d61b86bb","weeklyPlayers(uint256,uint256)":"920736e5"}}}}}