{"contracts/PizzaParty.sol":{"PizzaParty":{"abi":[{"inputs":[{"internalType":"address","name":"_vmfToken","type":"address"},{"internalType":"address","name":"_randomnessContract","type":"address"},{"internalType":"address","name":"_priceOracle","type":"address"},{"internalType":"address","name":"_vrfContract","type":"address"}],"stateMutability":"nonpayable","type":"constructor"},{"inputs":[],"name":"EnforcedPause","type":"error"},{"inputs":[],"name":"ExpectedPause","type":"error"},{"inputs":[{"internalType":"address","name":"owner","type":"address"}],"name":"OwnableInvalidOwner","type":"error"},{"inputs":[{"internalType":"address","name":"account","type":"address"}],"name":"OwnableUnauthorizedAccount","type":"error"},{"inputs":[],"name":"ReentrancyGuardReentrantCall","type":"error"},{"anonymous":false,"inputs":[{"indexed":true,"internalType":"uint256","name":"blockNumber","type":"uint256"},{"indexed":false,"internalType":"uint256","name":"totalProcessed","type":"uint256"},{"indexed":false,"internalType":"uint256","name":"totalPlayers","type":"uint256"}],"name":"BatchPlayersProcessed","type":"event"},{"anonymous":false,"inputs":[{"indexed":false,"internalType":"uint256","name":"gameId","type":"uint256"},{"indexed":false,"internalType":"address[]","name":"winners","type":"address[]"},{"indexed":false,"internalType":"uint256","name":"jackpot","type":"uint256"}],"name":"DailyWinnersSelected","type":"event"},{"anonymous":false,"inputs":[{"indexed":false,"internalType":"uint256","name":"vmfPrice","type":"uint256"},{"indexed":false,"internalType":"uint256","name":"requiredVMF","type":"uint256"},{"indexed":false,"internalType":"uint256","name":"timestamp","type":"uint256"}],"name":"DynamicEntryFeeCalculated","type":"event"},{"anonymous":false,"inputs":[{"indexed":false,"internalType":"bool","name":"paused","type":"bool"}],"name":"EmergencyPause","type":"event"},{"anonymous":false,"inputs":[{"indexed":true,"internalType":"address","name":"contributor","type":"address"},{"indexed":false,"internalType":"bytes32","name":"entropy","type":"bytes32"},{"indexed":false,"internalType":"uint256","name":"roundId","type":"uint256"}],"name":"EntropyContributed","type":"event"},{"anonymous":false,"inputs":[{"indexed":true,"internalType":"address","name":"player","type":"address"},{"indexed":false,"internalType":"uint256","name":"amount","type":"uint256"}],"name":"FirstOrderRewardClaimed","type":"event"},{"anonymous":false,"inputs":[{"indexed":true,"internalType":"uint256","name":"gameId","type":"uint256"},{"indexed":true,"internalType":"address","name":"sender","type":"address"}],"name":"GameStateUnlocked","type":"event"},{"anonymous":false,"inputs":[{"indexed":false,"internalType":"uint256","name":"timestamp","type":"uint256"},{"indexed":false,"internalType":"uint256","name":"threshold","type":"uint256"}],"name":"GasOptimizationCompleted","type":"event"},{"anonymous":false,"inputs":[{"indexed":true,"internalType":"address","name":"player","type":"address"},{"indexed":false,"internalType":"uint256","name":"amount","type":"uint256"}],"name":"JackpotEntryAdded","type":"event"},{"anonymous":false,"inputs":[{"indexed":false,"internalType":"uint256","name":"cooldown","type":"uint256"}],"name":"JackpotUpdateCooldownSet","type":"event"},{"anonymous":false,"inputs":[{"indexed":false,"internalType":"uint256","name":"dailyJackpot","type":"uint256"},{"indexed":false,"internalType":"uint256","name":"weeklyJackpot","type":"uint256"}],"name":"JackpotUpdated","type":"event"},{"anonymous":false,"inputs":[{"indexed":true,"internalType":"uint256","name":"gameId","type":"uint256"},{"indexed":false,"internalType":"uint256","name":"oldAmount","type":"uint256"},{"indexed":false,"internalType":"uint256","name":"newAmount","type":"uint256"},{"indexed":false,"internalType":"uint256","name":"nonce","type":"uint256"}],"name":"JackpotUpdatedAtomic","type":"event"},{"anonymous":false,"inputs":[{"indexed":true,"internalType":"address","name":"player","type":"address"},{"indexed":false,"internalType":"uint256","name":"points","type":"uint256"},{"indexed":false,"internalType":"string","name":"reason","type":"string"}],"name":"LoyaltyPointsAwarded","type":"event"},{"anonymous":false,"inputs":[{"indexed":true,"internalType":"address","name":"previousOwner","type":"address"},{"indexed":true,"internalType":"address","name":"newOwner","type":"address"}],"name":"OwnershipTransferred","type":"event"},{"anonymous":false,"inputs":[{"indexed":false,"internalType":"address","name":"account","type":"address"}],"name":"Paused","type":"event"},{"anonymous":false,"inputs":[{"indexed":true,"internalType":"address","name":"player","type":"address"},{"indexed":false,"internalType":"bool","name":"blacklisted","type":"bool"}],"name":"PlayerBlacklisted","type":"event"},{"anonymous":false,"inputs":[{"indexed":true,"internalType":"address","name":"player","type":"address"},{"indexed":true,"internalType":"uint256","name":"gameId","type":"uint256"},{"indexed":false,"internalType":"uint256","name":"amount","type":"uint256"}],"name":"PlayerEntered","type":"event"},{"anonymous":false,"inputs":[{"indexed":false,"internalType":"uint256","name":"gameId","type":"uint256"},{"indexed":false,"internalType":"uint256","name":"randomnessRoundId","type":"uint256"}],"name":"RandomnessRequested","type":"event"},{"anonymous":false,"inputs":[{"indexed":true,"internalType":"address","name":"user","type":"address"},{"indexed":false,"internalType":"uint256","name":"cooldownEnd","type":"uint256"}],"name":"RateLimitTriggered","type":"event"},{"anonymous":false,"inputs":[{"indexed":true,"internalType":"address","name":"player","type":"address"},{"indexed":false,"internalType":"string","name":"code","type":"string"}],"name":"ReferralCreated","type":"event"},{"anonymous":false,"inputs":[{"indexed":false,"internalType":"string","name":"code","type":"string"},{"indexed":false,"internalType":"address","name":"player","type":"address"}],"name":"ReferralProcessed","type":"event"},{"anonymous":false,"inputs":[{"indexed":true,"internalType":"bytes32","name":"role","type":"bytes32"},{"indexed":true,"internalType":"address","name":"admin","type":"address"}],"name":"RoleAdminSet","type":"event"},{"anonymous":false,"inputs":[{"indexed":true,"internalType":"bytes32","name":"role","type":"bytes32"},{"indexed":true,"internalType":"address","name":"account","type":"address"},{"indexed":true,"internalType":"address","name":"sender","type":"address"}],"name":"RoleGranted","type":"event"},{"anonymous":false,"inputs":[{"indexed":true,"internalType":"bytes32","name":"role","type":"bytes32"},{"indexed":true,"internalType":"address","name":"account","type":"address"},{"indexed":true,"internalType":"address","name":"sender","type":"address"}],"name":"RoleRevoked","type":"event"},{"anonymous":false,"inputs":[{"indexed":true,"internalType":"uint256","name":"roundId","type":"uint256"},{"indexed":false,"internalType":"bytes32","name":"seed","type":"bytes32"}],"name":"SecureRandomnessGenerated","type":"event"},{"anonymous":false,"inputs":[{"indexed":true,"internalType":"address","name":"player","type":"address"},{"indexed":false,"internalType":"uint256","name":"amount","type":"uint256"},{"indexed":false,"internalType":"string","name":"reason","type":"string"}],"name":"ToppingsAwarded","type":"event"},{"anonymous":false,"inputs":[{"indexed":false,"internalType":"address","name":"account","type":"address"}],"name":"Unpaused","type":"event"},{"anonymous":false,"inputs":[{"indexed":true,"internalType":"uint256","name":"requestId","type":"uint256"},{"indexed":true,"internalType":"uint256","name":"gameId","type":"uint256"},{"indexed":false,"internalType":"string","name":"gameType","type":"string"}],"name":"VRFRequestSubmitted","type":"event"},{"anonymous":false,"inputs":[{"indexed":true,"internalType":"address","name":"player","type":"address"},{"indexed":false,"internalType":"uint256","name":"challengeId","type":"uint256"},{"indexed":false,"internalType":"uint256","name":"reward","type":"uint256"}],"name":"WeeklyChallengeCompleted","type":"event"},{"anonymous":false,"inputs":[{"indexed":false,"internalType":"uint256","name":"gameId","type":"uint256"},{"indexed":false,"internalType":"address[]","name":"winners","type":"address[]"},{"indexed":false,"internalType":"uint256","name":"jackpot","type":"uint256"}],"name":"WeeklyWinnersSelected","type":"event"},{"anonymous":false,"inputs":[{"indexed":false,"internalType":"uint256","name":"gameId","type":"uint256"},{"indexed":false,"internalType":"uint256","name":"randomNumber","type":"uint256"},{"indexed":false,"internalType":"address[]","name":"winners","type":"address[]"}],"name":"WinnersSelectedWithRandomness","type":"event"},{"inputs":[],"name":"ADMIN_ROLE","outputs":[{"internalType":"bytes32","name":"","type":"bytes32"}],"stateMutability":"view","type":"function"},{"inputs":[],"name":"AUDITOR_ROLE","outputs":[{"internalType":"bytes32","name":"","type":"bytes32"}],"stateMutability":"view","type":"function"},{"inputs":[],"name":"BASE_SEPOLIA_HOLDING_REWARD","outputs":[{"internalType":"uint256","name":"","type":"uint256"}],"stateMutability":"view","type":"function"},{"inputs":[],"name":"BATCH_SIZE","outputs":[{"internalType":"uint256","name":"","type":"uint256"}],"stateMutability":"view","type":"function"},{"inputs":[],"name":"DAILY_PLAY_REWARD","outputs":[{"internalType":"uint256","name":"","type":"uint256"}],"stateMutability":"view","type":"function"},{"inputs":[],"name":"DAILY_WINNERS_COUNT","outputs":[{"internalType":"uint256","name":"","type":"uint256"}],"stateMutability":"view","type":"function"},{"inputs":[],"name":"DOLLAR_ENTRY_FEE","outputs":[{"internalType":"uint256","name":"","type":"uint256"}],"stateMutability":"view","type":"function"},{"inputs":[],"name":"EMERGENCY_ROLE","outputs":[{"internalType":"bytes32","name":"","type":"bytes32"}],"stateMutability":"view","type":"function"},{"inputs":[],"name":"ENTRY_COOLDOWN","outputs":[{"internalType":"uint256","name":"","type":"uint256"}],"stateMutability":"view","type":"function"},{"inputs":[],"name":"FIRST_ORDER_REWARD","outputs":[{"internalType":"uint256","name":"","type":"uint256"}],"stateMutability":"view","type":"function"},{"inputs":[],"name":"GAS_OPTIMIZATION_INTERVAL","outputs":[{"internalType":"uint256","name":"","type":"uint256"}],"stateMutability":"view","type":"function"},{"inputs":[],"name":"JACKPOT_ENTRY_COST","outputs":[{"internalType":"uint256","name":"","type":"uint256"}],"stateMutability":"view","type":"function"},{"inputs":[],"name":"JACKPOT_MULTIPLIER","outputs":[{"internalType":"uint256","name":"","type":"uint256"}],"stateMutability":"view","type":"function"},{"inputs":[],"name":"LOYALTY_POINTS_PER_DOLLAR","outputs":[{"internalType":"uint256","name":"","type":"uint256"}],"stateMutability":"view","type":"function"},{"inputs":[],"name":"MAX_DAILY_ENTRIES","outputs":[{"internalType":"uint256","name":"","type":"uint256"}],"stateMutability":"view","type":"function"},{"inputs":[],"name":"MAX_DAILY_REWARDS","outputs":[{"internalType":"uint256","name":"","type":"uint256"}],"stateMutability":"view","type":"function"},{"inputs":[],"name":"MAX_JACKPOT_ENTRIES","outputs":[{"internalType":"uint256","name":"","type":"uint256"}],"stateMutability":"view","type":"function"},{"inputs":[],"name":"MAX_PRICE_DEVIATION","outputs":[{"internalType":"uint256","name":"","type":"uint256"}],"stateMutability":"view","type":"function"},{"inputs":[],"name":"MAX_REFERRAL_CODE_LENGTH","outputs":[{"internalType":"uint256","name":"","type":"uint256"}],"stateMutability":"view","type":"function"},{"inputs":[],"name":"MAX_REWARD_AMOUNT","outputs":[{"internalType":"uint256","name":"","type":"uint256"}],"stateMutability":"view","type":"function"},{"inputs":[],"name":"MIN_BASE_SEPOLIA_HOLDING","outputs":[{"internalType":"uint256","name":"","type":"uint256"}],"stateMutability":"view","type":"function"},{"inputs":[],"name":"MIN_REFERRAL_CODE_LENGTH","outputs":[{"internalType":"uint256","name":"","type":"uint256"}],"stateMutability":"view","type":"function"},{"inputs":[],"name":"OPERATOR_ROLE","outputs":[{"internalType":"bytes32","name":"","type":"bytes32"}],"stateMutability":"view","type":"function"},{"inputs":[],"name":"PRICE_UPDATE_THRESHOLD","outputs":[{"internalType":"uint256","name":"","type":"uint256"}],"stateMutability":"view","type":"function"},{"inputs":[],"name":"REFERRAL_REWARD","outputs":[{"internalType":"uint256","name":"","type":"uint256"}],"stateMutability":"view","type":"function"},{"inputs":[],"name":"STREAK_BONUS","outputs":[{"internalType":"uint256","name":"","type":"uint256"}],"stateMutability":"view","type":"function"},{"inputs":[],"name":"WEEKLY_WINNERS_COUNT","outputs":[{"internalType":"uint256","name":"","type":"uint256"}],"stateMutability":"view","type":"function"},{"inputs":[],"name":"addJackpotEntry","outputs":[],"stateMutability":"nonpayable","type":"function"},{"inputs":[],"name":"awardBaseSepoliaHoldingsToppings","outputs":[],"stateMutability":"nonpayable","type":"function"},{"inputs":[],"name":"awardLoyaltyPoints","outputs":[],"stateMutability":"nonpayable","type":"function"},{"inputs":[],"name":"awardStreakBonus","outputs":[],"stateMutability":"nonpayable","type":"function"},{"inputs":[{"internalType":"uint256","name":"","type":"uint256"}],"name":"batchProcessingActive","outputs":[{"internalType":"bool","name":"","type":"bool"}],"stateMutability":"view","type":"function"},{"inputs":[{"internalType":"uint256","name":"","type":"uint256"}],"name":"batchProcessingNonce","outputs":[{"internalType":"uint256","name":"","type":"uint256"}],"stateMutability":"view","type":"function"},{"inputs":[{"internalType":"address","name":"","type":"address"}],"name":"blacklistedAddresses","outputs":[{"internalType":"bool","name":"","type":"bool"}],"stateMutability":"view","type":"function"},{"inputs":[],"name":"claimFirstOrderReward","outputs":[],"stateMutability":"nonpayable","type":"function"},{"inputs":[{"internalType":"uint256","name":"challengeId","type":"uint256"}],"name":"claimWeeklyChallengeReward","outputs":[],"stateMutability":"nonpayable","type":"function"},{"inputs":[{"internalType":"bytes32","name":"entropy","type":"bytes32"}],"name":"contributeEntropy","outputs":[],"stateMutability":"nonpayable","type":"function"},{"inputs":[],"name":"createReferralCode","outputs":[],"stateMutability":"nonpayable","type":"function"},{"inputs":[],"name":"currentDailyJackpot","outputs":[{"internalType":"uint256","name":"","type":"uint256"}],"stateMutability":"view","type":"function"},{"inputs":[],"name":"currentRandomnessRound","outputs":[{"internalType":"uint256","name":"","type":"uint256"}],"stateMutability":"view","type":"function"},{"inputs":[],"name":"currentWeeklyJackpot","outputs":[{"internalType":"uint256","name":"","type":"uint256"}],"stateMutability":"view","type":"function"},{"inputs":[{"internalType":"uint256","name":"","type":"uint256"}],"name":"dailyPlayerCount","outputs":[{"internalType":"uint256","name":"","type":"uint256"}],"stateMutability":"view","type":"function"},{"inputs":[{"internalType":"uint256","name":"","type":"uint256"},{"internalType":"uint256","name":"","type":"uint256"}],"name":"dailyPlayers","outputs":[{"internalType":"address","name":"","type":"address"}],"stateMutability":"view","type":"function"},{"inputs":[],"name":"drawDailyWinners","outputs":[],"stateMutability":"nonpayable","type":"function"},{"inputs":[],"name":"drawWeeklyWinners","outputs":[],"stateMutability":"nonpayable","type":"function"},{"inputs":[{"internalType":"bool","name":"pause","type":"bool"}],"name":"emergencyPause","outputs":[],"stateMutability":"nonpayable","type":"function"},{"inputs":[{"internalType":"uint256","name":"gameId","type":"uint256"}],"name":"emergencyUnlockGame","outputs":[],"stateMutability":"nonpayable","type":"function"},{"inputs":[],"name":"emergencyWithdraw","outputs":[],"stateMutability":"nonpayable","type":"function"},{"inputs":[{"internalType":"string","name":"referralCode","type":"string"}],"name":"enterDailyGame","outputs":[],"stateMutability":"nonpayable","type":"function"},{"inputs":[{"internalType":"uint256","name":"","type":"uint256"}],"name":"entropyContributions","outputs":[{"internalType":"uint256","name":"","type":"uint256"}],"stateMutability":"view","type":"function"},{"inputs":[{"internalType":"uint256","name":"","type":"uint256"},{"internalType":"uint256","name":"","type":"uint256"}],"name":"entropyContributors","outputs":[{"internalType":"address","name":"","type":"address"}],"stateMutability":"view","type":"function"},{"inputs":[],"name":"entropyRoundId","outputs":[{"internalType":"uint256","name":"","type":"uint256"}],"stateMutability":"view","type":"function"},{"inputs":[{"internalType":"uint256","name":"","type":"uint256"}],"name":"gameStateLocked","outputs":[{"internalType":"bool","name":"","type":"bool"}],"stateMutability":"view","type":"function"},{"inputs":[{"internalType":"uint256","name":"","type":"uint256"}],"name":"games","outputs":[{"internalType":"uint256","name":"gameId","type":"uint256"},{"internalType":"uint256","name":"startTime","type":"uint256"},{"internalType":"uint256","name":"endTime","type":"uint256"},{"internalType":"uint256","name":"totalEntries","type":"uint256"},{"internalType":"uint256","name":"jackpotAmount","type":"uint256"},{"internalType":"bool","name":"isCompleted","type":"bool"},{"internalType":"uint256","name":"randomnessRoundId","type":"uint256"}],"stateMutability":"view","type":"function"},{"inputs":[],"name":"gasOptimizationThreshold","outputs":[{"internalType":"uint256","name":"","type":"uint256"}],"stateMutability":"view","type":"function"},{"inputs":[],"name":"generateSecureRandomness","outputs":[{"internalType":"uint256","name":"","type":"uint256"}],"stateMutability":"nonpayable","type":"function"},{"inputs":[],"name":"getCurrentEntryFee","outputs":[{"internalType":"uint256","name":"","type":"uint256"}],"stateMutability":"view","type":"function"},{"inputs":[],"name":"getCurrentGame","outputs":[{"components":[{"internalType":"uint256","name":"gameId","type":"uint256"},{"internalType":"uint256","name":"startTime","type":"uint256"},{"internalType":"uint256","name":"endTime","type":"uint256"},{"internalType":"uint256","name":"totalEntries","type":"uint256"},{"internalType":"uint256","name":"jackpotAmount","type":"uint256"},{"internalType":"address[]","name":"winners","type":"address[]"},{"internalType":"bool","name":"isCompleted","type":"bool"},{"internalType":"uint256","name":"randomnessRoundId","type":"uint256"}],"internalType":"struct PizzaParty.Game","name":"","type":"tuple"}],"stateMutability":"view","type":"function"},{"inputs":[],"name":"getCurrentGameId","outputs":[{"internalType":"uint256","name":"gameId","type":"uint256"}],"stateMutability":"view","type":"function"},{"inputs":[],"name":"getCurrentVMFPrice","outputs":[{"internalType":"uint256","name":"","type":"uint256"}],"stateMutability":"view","type":"function"},{"inputs":[{"internalType":"uint256","name":"gameId","type":"uint256"}],"name":"getEligibleDailyPlayers","outputs":[{"internalType":"address[]","name":"eligiblePlayers","type":"address[]"}],"stateMutability":"view","type":"function"},{"inputs":[{"internalType":"uint256","name":"gameId","type":"uint256"}],"name":"getEligibleWeeklyPlayers","outputs":[{"internalType":"address[]","name":"eligiblePlayers","type":"address[]"}],"stateMutability":"view","type":"function"},{"inputs":[{"internalType":"uint256","name":"gameId","type":"uint256"}],"name":"getGame","outputs":[{"components":[{"internalType":"uint256","name":"gameId","type":"uint256"},{"internalType":"uint256","name":"startTime","type":"uint256"},{"internalType":"uint256","name":"endTime","type":"uint256"},{"internalType":"uint256","name":"totalEntries","type":"uint256"},{"internalType":"uint256","name":"jackpotAmount","type":"uint256"},{"internalType":"address[]","name":"winners","type":"address[]"},{"internalType":"bool","name":"isCompleted","type":"bool"},{"internalType":"uint256","name":"randomnessRoundId","type":"uint256"}],"internalType":"struct PizzaParty.Game","name":"","type":"tuple"}],"stateMutability":"view","type":"function"},{"inputs":[],"name":"getGasUsageStats","outputs":[{"internalType":"uint256","name":"threshold","type":"uint256"},{"internalType":"uint256","name":"lastOptimization","type":"uint256"},{"internalType":"uint256","name":"batchNonce","type":"uint256"}],"stateMutability":"view","type":"function"},{"inputs":[{"internalType":"uint256","name":"gameId","type":"uint256"}],"name":"getJackpotState","outputs":[{"internalType":"uint256","name":"amount","type":"uint256"},{"internalType":"bytes32","name":"stateHash","type":"bytes32"},{"internalType":"uint256","name":"nonce","type":"uint256"}],"stateMutability":"view","type":"function"},{"inputs":[{"internalType":"address","name":"player","type":"address"}],"name":"getPlayerInfo","outputs":[{"components":[{"internalType":"uint256","name":"totalToppings","type":"uint256"},{"internalType":"uint256","name":"dailyEntries","type":"uint256"},{"internalType":"uint256","name":"weeklyEntries","type":"uint256"},{"internalType":"uint256","name":"lastEntryTime","type":"uint256"},{"internalType":"uint256","name":"streakDays","type":"uint256"},{"internalType":"uint256","name":"lastStreakUpdate","type":"uint256"},{"internalType":"bool","name":"isBlacklisted","type":"bool"},{"internalType":"uint256","name":"lastVMFHoldingsCheck","type":"uint256"},{"internalType":"uint256","name":"loyaltyPoints","type":"uint256"},{"internalType":"uint256","name":"totalOrders","type":"uint256"},{"internalType":"uint256","name":"weeklyChallengesCompleted","type":"uint256"},{"internalType":"uint256","name":"jackpotEntries","type":"uint256"},{"internalType":"uint256","name":"lastRewardClaim","type":"uint256"},{"internalType":"bool","name":"hasCompletedFirstOrder","type":"bool"},{"internalType":"uint256","name":"dailyRewardsClaimed","type":"uint256"},{"internalType":"uint256","name":"lastSecurityCheck","type":"uint256"},{"internalType":"bool","name":"isRateLimited","type":"bool"}],"internalType":"struct PizzaParty.Player","name":"","type":"tuple"}],"stateMutability":"view","type":"function"},{"inputs":[{"internalType":"address","name":"player","type":"address"}],"name":"getReferralInfo","outputs":[{"components":[{"internalType":"address","name":"referrer","type":"address"},{"internalType":"uint256","name":"totalReferrals","type":"uint256"},{"internalType":"uint256","name":"totalRewards","type":"uint256"},{"internalType":"bool","name":"isActive","type":"bool"}],"internalType":"struct PizzaParty.Referral","name":"","type":"tuple"}],"stateMutability":"view","type":"function"},{"inputs":[{"internalType":"bytes32","name":"role","type":"bytes32"},{"internalType":"address","name":"account","type":"address"}],"name":"grantRole","outputs":[],"stateMutability":"nonpayable","type":"function"},{"inputs":[{"internalType":"address","name":"player","type":"address"}],"name":"hasEnteredToday","outputs":[{"internalType":"bool","name":"","type":"bool"}],"stateMutability":"view","type":"function"},{"inputs":[{"internalType":"bytes32","name":"role","type":"bytes32"},{"internalType":"address","name":"account","type":"address"}],"name":"hasRole","outputs":[{"internalType":"bool","name":"","type":"bool"}],"stateMutability":"view","type":"function"},{"inputs":[],"name":"isDailyDrawReady","outputs":[{"internalType":"bool","name":"ready","type":"bool"}],"stateMutability":"view","type":"function"},{"inputs":[],"name":"isWeeklyDrawReady","outputs":[{"internalType":"bool","name":"ready","type":"bool"}],"stateMutability":"view","type":"function"},{"inputs":[{"internalType":"uint256","name":"","type":"uint256"}],"name":"jackpotStateHash","outputs":[{"internalType":"bytes32","name":"","type":"bytes32"}],"stateMutability":"view","type":"function"},{"inputs":[],"name":"jackpotUpdateCooldown","outputs":[{"internalType":"uint256","name":"","type":"uint256"}],"stateMutability":"view","type":"function"},{"inputs":[{"internalType":"uint256","name":"","type":"uint256"}],"name":"jackpotUpdateNonce","outputs":[{"internalType":"uint256","name":"","type":"uint256"}],"stateMutability":"view","type":"function"},{"inputs":[],"name":"lastDailyDraw","outputs":[{"internalType":"uint256","name":"","type":"uint256"}],"stateMutability":"view","type":"function"},{"inputs":[],"name":"lastEntropyUpdate","outputs":[{"internalType":"uint256","name":"","type":"uint256"}],"stateMutability":"view","type":"function"},{"inputs":[],"name":"lastGasOptimization","outputs":[{"internalType":"uint256","name":"","type":"uint256"}],"stateMutability":"view","type":"function"},{"inputs":[],"name":"lastJackpotUpdate","outputs":[{"internalType":"uint256","name":"","type":"uint256"}],"stateMutability":"view","type":"function"},{"inputs":[],"name":"lastWeeklyDraw","outputs":[{"internalType":"uint256","name":"","type":"uint256"}],"stateMutability":"view","type":"function"},{"inputs":[],"name":"optimizeGasUsage","outputs":[],"stateMutability":"nonpayable","type":"function"},{"inputs":[],"name":"owner","outputs":[{"internalType":"address","name":"","type":"address"}],"stateMutability":"view","type":"function"},{"inputs":[],"name":"paused","outputs":[{"internalType":"bool","name":"","type":"bool"}],"stateMutability":"view","type":"function"},{"inputs":[{"internalType":"uint256","name":"","type":"uint256"},{"internalType":"uint256","name":"","type":"uint256"}],"name":"pendingWinners","outputs":[{"internalType":"address","name":"","type":"address"}],"stateMutability":"view","type":"function"},{"inputs":[{"internalType":"address","name":"","type":"address"}],"name":"players","outputs":[{"internalType":"uint256","name":"totalToppings","type":"uint256"},{"internalType":"uint256","name":"dailyEntries","type":"uint256"},{"internalType":"uint256","name":"weeklyEntries","type":"uint256"},{"internalType":"uint256","name":"lastEntryTime","type":"uint256"},{"internalType":"uint256","name":"streakDays","type":"uint256"},{"internalType":"uint256","name":"lastStreakUpdate","type":"uint256"},{"internalType":"bool","name":"isBlacklisted","type":"bool"},{"internalType":"uint256","name":"lastVMFHoldingsCheck","type":"uint256"},{"internalType":"uint256","name":"loyaltyPoints","type":"uint256"},{"internalType":"uint256","name":"totalOrders","type":"uint256"},{"internalType":"uint256","name":"weeklyChallengesCompleted","type":"uint256"},{"internalType":"uint256","name":"jackpotEntries","type":"uint256"},{"internalType":"uint256","name":"lastRewardClaim","type":"uint256"},{"internalType":"bool","name":"hasCompletedFirstOrder","type":"bool"},{"internalType":"uint256","name":"dailyRewardsClaimed","type":"uint256"},{"internalType":"uint256","name":"lastSecurityCheck","type":"uint256"},{"internalType":"bool","name":"isRateLimited","type":"bool"}],"stateMutability":"view","type":"function"},{"inputs":[],"name":"priceOracle","outputs":[{"internalType":"contract FreePriceOracle","name":"","type":"address"}],"stateMutability":"view","type":"function"},{"inputs":[{"internalType":"address[]","name":"players","type":"address[]"},{"internalType":"uint256[]","name":"amounts","type":"uint256[]"}],"name":"processBatchPlayers","outputs":[],"stateMutability":"nonpayable","type":"function"},{"inputs":[{"internalType":"uint256","name":"gameId","type":"uint256"},{"internalType":"address[]","name":"winners","type":"address[]"}],"name":"processDailyWinners","outputs":[],"stateMutability":"nonpayable","type":"function"},{"inputs":[{"internalType":"uint256","name":"gameId","type":"uint256"},{"internalType":"address[]","name":"winners","type":"address[]"}],"name":"processWeeklyWinners","outputs":[],"stateMutability":"nonpayable","type":"function"},{"inputs":[],"name":"randomnessContract","outputs":[{"internalType":"contract FreeRandomness","name":"","type":"address"}],"stateMutability":"view","type":"function"},{"inputs":[{"internalType":"uint256","name":"","type":"uint256"}],"name":"randomnessSeeds","outputs":[{"internalType":"bytes32","name":"","type":"bytes32"}],"stateMutability":"view","type":"function"},{"inputs":[{"internalType":"string","name":"","type":"string"}],"name":"referralCodes","outputs":[{"internalType":"address","name":"","type":"address"}],"stateMutability":"view","type":"function"},{"inputs":[{"internalType":"address","name":"","type":"address"}],"name":"referrals","outputs":[{"internalType":"address","name":"referrer","type":"address"},{"internalType":"uint256","name":"totalReferrals","type":"uint256"},{"internalType":"uint256","name":"totalRewards","type":"uint256"},{"internalType":"bool","name":"isActive","type":"bool"}],"stateMutability":"view","type":"function"},{"inputs":[],"name":"renounceOwnership","outputs":[],"stateMutability":"nonpayable","type":"function"},{"inputs":[],"name":"requestDailyRandomness","outputs":[],"stateMutability":"nonpayable","type":"function"},{"inputs":[],"name":"requestDailyVRF","outputs":[],"stateMutability":"nonpayable","type":"function"},{"inputs":[],"name":"requestWeeklyVRF","outputs":[],"stateMutability":"nonpayable","type":"function"},{"inputs":[{"internalType":"uint256","name":"roundId","type":"uint256"},{"internalType":"uint256","name":"randomValue","type":"uint256"},{"internalType":"bytes32","name":"salt","type":"bytes32"}],"name":"revealRandomness","outputs":[],"stateMutability":"nonpayable","type":"function"},{"inputs":[{"internalType":"bytes32","name":"role","type":"bytes32"},{"internalType":"address","name":"account","type":"address"}],"name":"revokeRole","outputs":[],"stateMutability":"nonpayable","type":"function"},{"inputs":[{"internalType":"bytes32","name":"","type":"bytes32"}],"name":"roleAdmins","outputs":[{"internalType":"address","name":"","type":"address"}],"stateMutability":"view","type":"function"},{"inputs":[{"internalType":"bytes32","name":"","type":"bytes32"},{"internalType":"address","name":"","type":"address"}],"name":"roles","outputs":[{"internalType":"bool","name":"","type":"bool"}],"stateMutability":"view","type":"function"},{"inputs":[],"name":"selectDailyWinners","outputs":[],"stateMutability":"nonpayable","type":"function"},{"inputs":[{"internalType":"uint256","name":"cooldown","type":"uint256"}],"name":"setJackpotUpdateCooldown","outputs":[],"stateMutability":"nonpayable","type":"function"},{"inputs":[{"internalType":"address","name":"player","type":"address"},{"internalType":"bool","name":"blacklisted","type":"bool"}],"name":"setPlayerBlacklist","outputs":[],"stateMutability":"nonpayable","type":"function"},{"inputs":[{"internalType":"bytes32","name":"role","type":"bytes32"},{"internalType":"address","name":"admin","type":"address"}],"name":"setRoleAdmin","outputs":[],"stateMutability":"nonpayable","type":"function"},{"inputs":[{"internalType":"bool","name":"_useVRF","type":"bool"}],"name":"setUseVRF","outputs":[],"stateMutability":"nonpayable","type":"function"},{"inputs":[{"internalType":"address","name":"_vrfContract","type":"address"}],"name":"setVRFContract","outputs":[],"stateMutability":"nonpayable","type":"function"},{"inputs":[{"internalType":"uint256","name":"roundId","type":"uint256"},{"internalType":"bytes32","name":"commitment","type":"bytes32"}],"name":"submitRandomnessCommitment","outputs":[],"stateMutability":"nonpayable","type":"function"},{"inputs":[{"internalType":"address","name":"newOwner","type":"address"}],"name":"transferOwnership","outputs":[],"stateMutability":"nonpayable","type":"function"},{"inputs":[{"internalType":"uint256","name":"gameId","type":"uint256"},{"internalType":"uint256","name":"newAmount","type":"uint256"},{"internalType":"bytes32","name":"expectedStateHash","type":"bytes32"}],"name":"updateJackpotAtomic","outputs":[],"stateMutability":"nonpayable","type":"function"},{"inputs":[],"name":"useVRF","outputs":[{"internalType":"bool","name":"","type":"bool"}],"stateMutability":"view","type":"function"},{"inputs":[{"internalType":"address","name":"","type":"address"}],"name":"userDailyRewards","outputs":[{"internalType":"uint256","name":"","type":"uint256"}],"stateMutability":"view","type":"function"},{"inputs":[{"internalType":"address","name":"","type":"address"}],"name":"userLastActivity","outputs":[{"internalType":"uint256","name":"","type":"uint256"}],"stateMutability":"view","type":"function"},{"inputs":[{"internalType":"address","name":"","type":"address"}],"name":"userRateLimitEnd","outputs":[{"internalType":"uint256","name":"","type":"uint256"}],"stateMutability":"view","type":"function"},{"inputs":[],"name":"vmfToken","outputs":[{"internalType":"contract IERC20","name":"","type":"address"}],"stateMutability":"view","type":"function"},{"inputs":[],"name":"vrfContract","outputs":[{"internalType":"contract ChainlinkVRF","name":"","type":"address"}],"stateMutability":"view","type":"function"},{"inputs":[{"internalType":"uint256","name":"","type":"uint256"}],"name":"vrfRequests","outputs":[{"internalType":"bool","name":"","type":"bool"}],"stateMutability":"view","type":"function"},{"inputs":[{"internalType":"uint256","name":"","type":"uint256"}],"name":"weeklyChallenges","outputs":[{"internalType":"uint256","name":"challengeId","type":"uint256"},{"internalType":"string","name":"challengeName","type":"string"},{"internalType":"uint256","name":"rewardAmount","type":"uint256"},{"internalType":"uint256","name":"completionRequirement","type":"uint256"},{"internalType":"bool","name":"isActive","type":"bool"}],"stateMutability":"view","type":"function"},{"inputs":[{"internalType":"uint256","name":"","type":"uint256"}],"name":"weeklyPlayerCount","outputs":[{"internalType":"uint256","name":"","type":"uint256"}],"stateMutability":"view","type":"function"},{"inputs":[{"internalType":"uint256","name":"","type":"uint256"},{"internalType":"uint256","name":"","type":"uint256"}],"name":"weeklyPlayers","outputs":[{"internalType":"address","name":"","type":"address"}],"stateMutability":"view","type":"function"}],"evm":{"bytecode":{"linkReferences":{},"object":"60a034620005b257601f6200777138819003918201601f1916830191906001600160401b03831184841017620005b7578160809285926040958652833981010312620005b2576200005082620005cd565b6200005e60208401620005cd565b926200007a606062000072858401620005cd565b9201620005cd565b90600160005533156200059a5760018054336001600160a01b031980831682179093558651979295916001600160a01b03167f8be0079c531659141344cd1fd0a4f28419497f9722a3daafe3b4186f6b6457e0600080a36016805460ff191660011790556001600160a01b03168062000590575b506001600160a01b03169485156200054257506001600160a01b0316938415620004fe578260025416176002556004938285541617845560018060a01b031680620004ee575b507fa49807205ce4d355092ef5a8a18f56e8913cf4a201fbe287825b095693c2177580600052601c602052826000203360005260205282600020600160ff198254161790557f97667070c54ef182b0f5858b034beac1b6f3089aa2d3188bb1e8929f4fa9b92980600052601c602052836000203360005260205283600020600160ff198254161790557fbf233dd2aafeb4d50879c4aa5c81e96d92f6e6945c906a58f9f2d1c1631b4b269081600052601c602052846000203360005260205284600020600160ff198254161790557f59a1c48e5837ad7a7f3dcedcbe129bf3249ec4fbf651fd4f5e2600ead39fe2f59384600052601c602052856000203360005260205285600020600160ff1982541617905583600052601d602052856000203382825416179055816000528560002033828254161790558260005285600020338282541617905584600052856000209033908254161790557f2f8788117e7eff1d82e926ec794901d17c78024a50270940304540a733656f0d923390339085600080a43390339084600080a43390339083600080a433913391600080a46002600555620151804201804211620004d957815192602084016001600160401b03811185821017620004c45783526000845282519161010083016001600160401b03811184821017620004af578452600283526020830191428352848401918252606084016000815260808501906000825260a0860197885260c08601936000855260e087019560008752600260005260216020528860002097518855516001880155516002870155516003860155518185015560058401955180519160018060401b0383116200049a576801000000000000000083116200049a575086548288558083106200046e575b506020019560005260206000209560005b828110620004505750505090600791600684019051151560ff8019835416911617905551910155426008555161718e9081620005e38239608051818181610a950152818161131701528181611cc6015281816122b601528181612a390152818161314101528181613e0d01528181614ec201528181615c430152615fcd0152f35b81516001600160a01b031681890155602090910190600101620003cf565b8760005282602060002091820191015b8181106200048d5750620003be565b600081556001016200047e565b604190634e487b7160e01b6000525260246000fd5b604183634e487b7160e01b6000525260246000fd5b604182634e487b7160e01b6000525260246000fd5b601183634e487b7160e01b6000525260246000fd5b8160035416176003553862000134565b835162461bcd60e51b815260206004820152601c60248201527f496e76616c6964207072696365206f7261636c652061646472657373000000006044820152606490fd5b62461bcd60e51b815260206004820152602360248201527f496e76616c69642072616e646f6d6e65737320636f6e7472616374206164647260448201526265737360e81b6064820152608490fd5b60805238620000ee565b8351631e4fbdf760e01b815260006004820152602490fd5b600080fd5b634e487b7160e01b600052604160045260246000fd5b51906001600160a01b0382168203620005b25756fe60e080604052600436101561001357600080fd5b600090813560e01c90816303fa2c631461526257508063060383411461523f578063098655d9146152225780630aa01695146151d45780630b00a5db1461510f5780630c89d127146150dd5780630d9f92ca146105f6578063117a5b901461506c5780631472cbe314614f5a57806316fa108614614f3e57806319bf155d14614f205780631a1d925214614ef15780632086eefa14614eac57806320df435914614e7157806321874ae214614dc957806325b7f38814614b945780632618cafd146148e55780632630c12f146148bc5780632655e8401461487557806328100aca146148575780632a243f19146148285780632e108d1c146145a95780632ee8b7781461458b5780632efb53da1461455b5780632f2ff15d146144b05780632ff7a52d1461447757806339d8ea42146117ea5780633a65126a146140925780633bb4f638146140745780633f781412146140305780633fb83a541461400f57806341fe39ec14613fe657806343f2a08014613f4657806349faa4d4146105f65780634b75344e14611aa25780634eb692a514613f145780634f55e8ad14613e9057806352861f7f14613e6f57806356768b5e14613d215780635932840114613af857806359a9867e1461398457806359db6fe6146139665780635c27b2e4146130315780635c975abb1461300b57806367cafabb14612fe15780636858a3f314612fb857806369396e8814612f9c5780636ce497b214612efa5780636e1d616e14612ebf578063715018a614612e6257806371e4206d14612c1e57806374631fd7146129c95780637550b84f146129ab57806375b238fc1461297057806377ce299214612937578063786a78c6146128b257806379675127146128885780637a7eb1f41461288357806384a3a0f314612883578063853b2b88146128435780638543210d146128105780638c267e0d146112d95780638da5cb5b146127e757806391d1485414612782578063920736e514612750578063968d901b1461269257806396f277b71461241c5780639b5a139a146126705780639b6ccde2146124215780639b95f1fc1461241c5780639ca423b3146123b85780639e9e4056146121e5578063a04f6b4b146121c8578063a154fc6b14612158578063a26354011461213a578063a2f77bcc14612059578063a37c15721461202a578063a88066f71461202f578063a9b8b4511461202a578063ad76319214611fb5578063aea664a514611f71578063b87fc22d14611c25578063b8caead614611c07578063ba53ba2414611bb8578063bacf46f314611b12578063bb6bf0f014611af4578063bbc3ced7146105f6578063bcf6447514610e3f578063bf75762414611ac5578063c14e1e0514611aa7578063c5d3215714611aa2578063c65a856814611a72578063cb955e6b14611856578063ccb60e0114611819578063cf376677146117ef578063d136a94d146117ea578063d2111791146117c0578063d547741f14611716578063d5749d42146116d7578063d5fa40e314611491578063d61b86bb14611467578063db2e21bc146112de578063dd23b9cb146112d9578063e22cb9c914611013578063e2eb41ff14610ee4578063e3505b1414610e62578063e3d440a714610e44578063e443e27914610e3f578063e82aefc714610d8d578063e8f6940e14610c6e578063eb0fb2c814610968578063ecb6159e14610718578063ee892e64146106fa578063f2fde38b1461066f578063f5b541a614610646578063f711dca4146105fb578063f8172fe3146105f6578063f877a8af146105c1578063f8fc08b9146105755763ffc395041461054957600080fd5b346105725760203660031901126105725760406020916004358152600c83522054604051908152f35b80fd5b50346105725760403660031901126105725760406105916152ae565b916004358152601c602052209060018060a01b0316600052602052602060ff604060002054166040519015158152f35b5034610572576020366003190112610572576105db615536565b6105e361643f565b60ff801960165416911515161760165580f35b61531c565b50346105725761060a366152d8565b9190815260156020526040812090815483101561057257602061062d84846152ee565b905460405160039290921b1c6001600160a01b03168152f35b503461057257806003193601126105725760206040516000805160206170f98339815191528152f35b503461057257602036600319011261057257610689615298565b61069161643f565b6001600160a01b039081169081156106e157600154826001600160601b0360a01b821617600155167f8be0079c531659141344cd1fd0a4f28419497f9722a3daafe3b4186f6b6457e0600080a380f35b604051631e4fbdf760e01b815260048101849052602490fd5b50346105725780600319360112610572576020602954604051908152f35b50346105725780600319360112610572576000805160206170f983398151915281526020601c81526040822033600052815260ff604060002054168015610954575b610763906159b7565b61076b61646b565b61077960ff601654166162ed565b6003546001600160a01b031661079081151561632b565b60095462093a808101809111610940576107ac90421015615e40565b60055460405163ccb60e0160e01b81526004810182905291908483602481305afa928315610935578593610911575b508251156108c0579183916108149386604051809681958294631b9540cf60e21b845260048401526040602484015260448301906156eb565b03925af19081156108b5578391610883575b508083526014825260408320600160ff198254161790557f1d1a4959f28ecf85850610491c8f5914a90bd2caa95e91257b24b2511d715f7a606060055493600660405191808352820152657765656b6c7960d01b6040820152a380f35b90508181813d83116108ae575b61089a818361543c565b810103126108a9575138610826565b600080fd5b503d610890565b6040513d85823e3d90fd5b60405162461bcd60e51b815260048101859052602360248201527f4e6f20656c696769626c6520706c617965727320666f72207765656b6c79206460448201526272617760e81b6064820152608490fd5b61092e9193503d8087833e610926818361543c565b81019061636e565b91386107db565b6040513d87823e3d90fd5b634e487b7160e01b84526011600452602484fd5b506001546001600160a01b0316331461075a565b50346105725780600319360112610572576000805160206170f983398151915281526020601c81526040822033600052815260ff604060002054168015610c5a575b6109b3906159b7565b6109bb61646b565b600a90600a5415610c165760001943014381116109405760135460405190838201924284524460408401524060608301523360601b6080830152609482015260948152610a0781615405565b51902091610a1783600554616d6e565b9360065460031c92815b8651811015610b9a576001600160a01b0380610a3d838a615a61565b5116610a4d575b50600101610a21565b610a8f838783610a5d868d615a61565b5160405163a9059cbb60e01b815291166001600160a01b03166004820152602481019190915291829081906044820190565b038188867f0000000000000000000000000000000000000000000000000000000000000000165af19081156109355790610ad0918691610b6d575b506163f7565b80610adb838a615a61565b51168452601e835260408420805490868201809211610b59575560019190610b03828a615a61565b511660008051602061713983398151915260405180610b5081608090600a81526040602082015260126040820152714461696c792077696e6e657220626f6e757360701b60608201520190565b0390a290610a44565b634e487b7160e01b86526011600452602486fd5b610b8d9150853d8711610b93575b610b85818361543c565b810190615ac6565b38610aca565b503d610b7b565b507f9f22d2b65d1e9bef93da4067644e4ead3bd41c9d3fc8568887cc572b482e6cb79085610c088860055492600080516020617119833981519152610be9600654604051918291868984615a84565b0390a160405194859485528401526060604084015260608301906156eb565b0390a1610c1361679a565b80f35b6064906040519062461bcd60e51b82526004820152601d60248201527f4e6f2072616e646f6d6e65737320726f756e64207265717565737465640000006044820152fd5b506001546001600160a01b031633146109aa565b503461057257602036600319011261057257610c88615536565b610c9061643f565b8015610d0d5760207fb80d1ae5628c2af91424c54c87acfd15016be4bebeef0425b328238702f3483191610cc261646b565b6001805460ff60a01b1916600160a01b1790556040513381527f62e78cea01bee320cd4e420270b5ea74000d11b0c9f74754ebdbfc544b05a258908390a15b6040519015158152a180f35b60015460ff8160a01c1615610d7b5760ff60a01b19166001556040513381527fb80d1ae5628c2af91424c54c87acfd15016be4bebeef0425b328238702f34831916020917f5db9ee0a495bf2e6ff9c91a7834c1ba4fdd244a5e8aa4e537bd38aeae4b073aa908390a1610d01565b604051638dfc202b60e01b8152600490fd5b5034610572576020366003190112610572576004357fbf233dd2aafeb4d50879c4aa5c81e96d92f6e6945c906a58f9f2d1c1631b4b268252601c602052604082203360005260205260ff604060002054168015610e2b575b610dee906159b7565b808252601760205260408220805460ff1916905533907f6d01469f672cd6cb0434a128cac9b91dc60a83e67a56be9fb5f265c18d29c7c58380a380f35b506001546001600160a01b03163314610de5565b6157c7565b50346105725780600319360112610572576020600654604051908152f35b503461057257604036600319011261057257610e7c61646b565b60025481906001600160a01b0316803b15610ee1578180916044604051809481936339a8f67760e21b8352600435600484015260243560248401525af18015610ed657610ec65750f35b610ecf906153a1565b6105725780f35b6040513d84823e3d90fd5b50fd5b5034610572576020366003190112610572576001600160a01b03610f06615298565b168152601e6020526040902080808054600182015460c0526002820154600383015460048401546005850154600686015460ff16600787015490600888015492600989015494600a8a015496600b8b015498600c8c01549a600d8d015460ff169c600e01549d600f01549e6010015460ff1660805260405160a05260a0515260c05160a0516020015260a0516040015260a0516060015260a0516080015260a05160a00152151560a05160c0015260a05160e0015260a051610100015260a051610120015260a051610140015260a051610160015260a0516101800152151560a0516101a0015260a0516101c0015260a0516101e00152608051151560a051610200015260a05161022090f35b503461057257806003193601126105725761102c6164e9565b61103461646b565b33815260206022815261104e60ff60408420541615615841565b338252601e80825261106a60ff60066040862001541615615841565b338352808252600c6040842001546201518081018091116109405761109190421015615885565b3383528082526110aa6064600e604086200154106158d1565b33835280825260ff600d604085200154166112895733835280825260016009604085200154106112445733600052602490818352604060002054600581018091116111eb57606481116112005733600052828452604060002055808352600e60406000200154600581018091116111eb5733600052818452600e6040600020015533845280835260408420600d8101600160ff198254161790555491600583018093116111d95750338452825260408320908155600c42910155604051600581527f666ff46b6b5a0789c7d628ecfa8a5975b192b7d3541fc30b22da07a9b3d4ddbc823392a26040805191600583528201526012604082015271119a5c9cdd081bdc99195c881c995dd85c9960721b606082015260008051602061713983398151915260803392a26001815580f35b634e487b7160e01b8552601160045284fd5b82634e487b7160e01b60005260116004526000fd5b60405162461bcd60e51b815260048101859052601b818501527f4461696c7920726577617264206c696d697420657863656564656400000000006044820152606490fd5b60405162461bcd60e51b815260048101839052601860248201527f4e6f206669727374206f7264657220636f6d706c6574656400000000000000006044820152606490fd5b60405162461bcd60e51b815260048101839052602260248201527f4669727374206f726465722072657761726420616c726561647920636c61696d604482015261195960f21b6064820152608490fd5b6156cf565b50346105725780600319360112610572576112f761643f565b6040516370a0823160e01b81523060048201526020906001600160a01b037f00000000000000000000000000000000000000000000000000000000000000008116908383602481855afa928315610935578593611438575b5082156113fa5760015460405163a9059cbb60e01b815291166001600160a01b031660048201526024810192909252829082908186816044810103925af19081156108b55783916113dd575b50156113a5575080f35b6064906040519062461bcd60e51b82526004820152601160248201527015da5d1a191c985dd85b0819985a5b1959607a1b6044820152fd5b6113f49150823d8411610b9357610b85818361543c565b3861139b565b60405162461bcd60e51b81526004810185905260166024820152754e6f2062616c616e636520746f20776974686472617760501b6044820152606490fd5b9092508381813d8311611460575b611450818361543c565b810103126108a95751913861134f565b503d611446565b50346105725760203660031901126105725760406020916004358152600e83522054604051908152f35b50346105725780600319360112610572576114aa6164e9565b6114b261646b565b3381526020602281526114cc60ff60408420541615615841565b338252601e908181526114e960ff60066040862001541615615841565b338352818152600c60408420015462015180908181018091116116335761151290421015615885565b33845282825261152b6064600e604087200154106158d1565b338452828252600760408520015490810180911161094057421061169b5766038d7ea4c6800033318181106116475704918215838004600114811715611633576115f8579060409161157d843361650c565b338552808252611590848487205461581e565b903386528252828520908155426007820155600c429101558151928352820152601c60408201527f42617365205365706f6c696120686f6c64696e67732072657761726400000000606082015260008051602061713983398151915260803392a26001815580f35b60405162461bcd60e51b81526004810183905260136024820152724e6f2072657761726420617661696c61626c6560681b6044820152606490fd5b634e487b7160e01b85526011600452602485fd5b60405162461bcd60e51b815260048101849052602660248201527f496e73756666696369656e742042617365205365706f6c69612045544820686f6044820152656c64696e677360d01b6064820152608490fd5b6064906040519062461bcd60e51b825260048201526015602482015274416c726561647920636865636b656420746f64617960581b6044820152fd5b50346105725760203660031901126105725760209060ff906040906001600160a01b03611702615298565b168152602284522054166040519015158152f35b5034610572576040366003190112610572576004356117336152ae565b818352601d60205260408320546001600160a01b0391908216331480156117b3575b61175e9061591d565b1661176a811515615979565b818352601c6020526040832081600052602052604060002060ff19815416905533917ff6391f5c32d9c69d2a47ea670b442974b53935d1edc7fd64eb21e047a839171b8480a480f35b5060015482163314611755565b50346105725760203660031901126105725760406020916004358152601883522054604051908152f35b615503565b50346105725760203660031901126105725760406020916004358152601083522054604051908152f35b50346105725760203660031901126105725761185260405161183a816153cf565b600081526040519182916020835260208301906156eb565b0390f35b503461057257806003193601126105725761186f61646b565b601254610e108101809111611a19574210611a2d576000194301904382116119d857600119430191438311611a195760135460025460405163c142e49560e01b8152919460209290918390829060049082906001600160a01b03165afa9081156109355785916119ec575b5060405190838201924284524460408401526060954060608401524060808301523360601b60a08301528660b483015260d482015260d4815261191c81615385565b5190209183925b8585526011835260408520805485101561197f5790611944856001936152ee565b905490604051918683019384526001600160601b03199160031b1c851b16604082015260348152611974816153ea565b519020930192611923565b838287898152600f8352816040822055426012556013549060018201908183116119d857506013557f716aeb9158d0411549d0ea0300d76e79332e89ec7eb7b7c475efa863e7b9d00f83604051848152a2604051908152f35b634e487b7160e01b81526011600452602490fd5b90508281813d8311611a12575b611a03818361543c565b810103126108a95751386118da565b503d6119f9565b634e487b7160e01b82526011600452602482fd5b60405162461bcd60e51b815260206004820152601b60248201527f456e74726f70792075706461746520746f6f206672657175656e7400000000006044820152606490fd5b50346105725780600319360112610572576009549062093a8082018092116119d857602082604051904210158152f35b615545565b50346105725780600319360112610572576020600954604051908152f35b50346105725760203660031901126105725760ff60406020926004358152602884522054166040519015158152f35b50346105725780600319360112610572576020600a54604051908152f35b503461057257602080600319360112611bb45760043591828152600c8252604081205490611b3f8261551f565b93611b4d604051958661543c565b828552601f19611b5c8461551f565b013685870137815b838110611b7e5760405185815280611852818801896156eb565b600190828452600b8652611b9581604086206152ee565b838060a01b0391549060031b1c16611bad8289615a61565b5201611b64565b5080fd5b50346105725760203660031901126105725760209060036040611bd9615298565b92611be9620151804206426161c7565b6001600160a01b039094168152601e85522001546040519111158152f35b50346105725780600319360112610572576020601b54604051908152f35b5034610572578060031936011261057257611c3e6164e9565b611c4661646b565b338152602060228152611c6060ff60408420541615615841565b338252601e8152611c7b60ff60066040852001541615615841565b338252601e81526064600b6040842001541015611f2d57611c9a616962565b908115611edb57683635c9adc5dea000008211611e97576040516370a0823160e01b81523360048201527f00000000000000000000000000000000000000000000000000000000000000006001600160a01b0316908281602481855afa80156109355784908690611e66575b611d12925010156161d4565b604051636eb1769f60e11b81523360048201523060248201528281604481855afa80156109355784908690611e35575b611d4e92501015616220565b6040516323b872dd60e01b8152336004820152306024820152604481018490529082908290606490829088905af18015611e2a57611d93918591611e0d575b5061626c565b338352601e8152600b6040842001546001810180911161094057338452601e8252600b6040852001556007548260011b90838204600203611633577f6a85014765ce1728a69f3d14127cc749d140ba142c380ef69ca533189dbfa3609291611dfa9161581e565b6007556040519283523392a26001815580f35b611e249150833d8511610b9357610b85818361543c565b38611d8d565b6040513d86823e3d90fd5b50508281813d8311611e5f575b611e4c818361543c565b810103126108a95783611d4e9151611d42565b503d611e42565b50508281813d8311611e90575b611e7d818361543c565b810103126108a95783611d129151611d06565b503d611e73565b6064906040519062461bcd60e51b82526004820152601b60248201527f4a61636b706f7420656e74727920636f737420746f6f206869676800000000006044820152fd5b6084906040519062461bcd60e51b82526004820152602560248201527f496e76616c6964206a61636b706f7420656e74727920636f73742063616c63756044820152641b185d195960da1b6064820152fd5b6064906040519062461bcd60e51b82526004820152601b60248201527f4d6178206a61636b706f7420656e7472696573207265616368656400000000006044820152fd5b50346105725780600319360112610572576029546118526040602a549343815260276020522054604051938493846040919493926060820195825260208201520152565b503461057257604036600319011261057257600435611fd26152ae565b90611fdb61643f565b808352601d6020526040832080546001600160a01b0319166001600160a01b0390931692831790557fca1453e2085a936ea52e0049e559e235e08fe8678e165a7eb63f4568098706ad8380a380f35b6157aa565b50346105725760203660031901126105725760406020916004358152600f83522054604051908152f35b50346105725760209081600319360112610572576120756162ae565b5060043581526021825260408120916040519161209183615385565b8354835260019060018501548385015260028501546040850152600385015460608501526004850154608085015260058501916040518094808554928381520194845280842093905b82821061211c576118528860078b8a6120f5818c038261543c565b60a084015260ff600682015416151560c0840152015460e082015260405191829182615728565b84546001600160a01b031686529485019493830193908301906120da565b50346105725780600319360112610572576020600554604051908152f35b5034610572578061216836615699565b929161217261646b565b6002546001600160a01b031690813b156121c45783606492604051968795869463a154fc6b60e01b86526004860152602485015260448401525af18015610ed6576121bb575080f35b610c13906153a1565b8380fd5b503461057257806003193601126105725760206040516103e88152f35b5034610572576121f43661564a565b929160018060a01b0361220c816003541633146160ba565b612217851515616106565b61222385600654615aa6565b90845b86811061225457505050610c086000805160206171198339815191529394600654906040519485948561616c565b81612268612263838a89616148565b616158565b16612276575b600101612226565b82612285612263838a89616148565b60405163a9059cbb60e01b81526001600160a01b03919091166004820152602481019190915260209081816044818b7f000000000000000000000000000000000000000000000000000000000000000089165af19081156123ad57601e92916122f4918a9161239657506163f7565b83612303612263858c8b616148565b1688525260408620805490600a820180921161238257556001908261232c612263838b8a616148565b166000805160206171398339815191526040518061237881608090600a81526040602082015260126040820152714461696c792077696e6e657220626f6e757360701b60608201520190565b0390a2905061226e565b634e487b7160e01b88526011600452602488fd5b610b8d9150833d8511610b9357610b85818361543c565b6040513d8a823e3d90fd5b5034610572576020366003190112610572576080906001600160a01b0390604090826123e2615298565b1681526020805220908154169060018101549060ff6003600283015492015416916040519384526020840152604083015215156060820152f35b61578e565b50346105725780600319360112610572576000805160206170f983398151915281526020601c815260408220338352815260ff604083205416801561265c575b61246a906159b7565b61247261646b565b61248060ff601654166162ed565b6003546001600160a01b031661249781151561632b565b6008546201518081018091116109405742106126205760055460405163bacf46f360e01b81526004810182905291908483602481305afa928315610935578593612604575b508251156125b457918391612515938660405180968195829463cff47cb160e01b845260048401526040602484015260448301906156eb565b03925af19081156108b5578391612583575b508083526014825260408320600160ff198254161790557f1d1a4959f28ecf85850610491c8f5914a90bd2caa95e91257b24b2511d715f7a606060055493600560405191808352820152646461696c7960d81b6040820152a380f35b90508181813d83116125ad575b61259a818361543c565b810103126125a9575138612527565b8280fd5b503d612590565b60405162461bcd60e51b815260048101859052602260248201527f4e6f20656c696769626c6520706c617965727320666f72206461696c79206472604482015261617760f01b6064820152608490fd5b6126199193503d8087833e610926818361543c565b91386124dc565b60405162461bcd60e51b81526004810183905260146024820152734461696c792064726177206e6f7420726561647960601b6044820152606490fd5b506001546001600160a01b03163314612461565b5034610572578060031936011261057257602060405166038d7ea4c680008152f35b50346105725780600319360112610572576126ab6162ae565b50600554815260209060216020526040812091604051916126cb83615385565b8354835260019060018501546020850152600285015460408501526003850154606085015260048501546080850152600585019160405180946020855492838152019484526020842093905b828210612732576118528860078b8a6120f5818c038261543c565b84546001600160a01b03168652948501949383019390830190612717565b50346105725761275f366152d8565b91908152600d6020526040812090815483101561057257602061062d84846152ee565b50346105725760403660031901126105725760209061279f6152ae565b6004358252601c835260408083206001600160a01b0392831680855290855292205460ff16919082156127d9575b50506040519015158152f35b6001541614905038806127cd565b50346105725780600319360112610572576001546040516001600160a01b039091168152602090f35b5034610572576020366003190112610572576020906004358152601d8252604060018060a01b0391205416604051908152f35b50346105725760203660031901126105725761285d615298565b61286561643f565b60018060a01b03166001600160601b0360a01b600354161760035580f35b6156b3565b50346105725760203660031901126105725760406020916004358152602783522054604051908152f35b503461057257806003193601126105725760048054604051638f09c85760e01b81529160209183919082906001600160a01b03165afa908115610ed6578291612901575b602082604051908152f35b90506020813d60201161292f575b8161291c6020938361543c565b81010312611bb4576020915051386128f6565b3d915061290f565b5034610572576020366003190112610572576020906040906001600160a01b0361295f615298565b168152602683522054604051908152f35b503461057257806003193601126105725760206040517fa49807205ce4d355092ef5a8a18f56e8913cf4a201fbe287825b095693c217758152f35b50346105725780600319360112610572576020600854604051908152f35b50346105725780600319360112610572576129e26164e9565b6129ea61646b565b338152602060228152612a0460ff60408420541615615841565b338252601e8152612a1f60ff60066040852001541615615841565b6040516370a0823160e01b815233600482015281816024817f00000000000000000000000000000000000000000000000000000000000000006001600160a01b03165afa9081156108b5578391612bf1575b508015612bbb57670de0b6b3a7640000900490600a820291808304600a1490151715612ba7578115612b63576127108211612b1f57604090338452601e8152612ac0836008848720015461581e565b338552601e8252600883862001558151928352820152600c60408201526b564d4620686f6c64696e677360a01b60608201527fa6064b0de95f7cda15129e7c36146c8accf65abb7a3639d800a445fa55023a1760803392a26001815580f35b6064906040519062461bcd60e51b82526004820152601760248201527f4c6f79616c747920706f696e747320746f6f20686967680000000000000000006044820152fd5b6064906040519062461bcd60e51b82526004820152601a60248201527f4e6f206c6f79616c747920706f696e747320746f2061776172640000000000006044820152fd5b634e487b7160e01b83526011600452602483fd5b60405162461bcd60e51b815260048101839052600e60248201526d4e6f20564d462062616c616e636560901b6044820152606490fd5b90508181813d8311612c17575b612c08818361543c565b810103126125a9575138612a71565b503d612bfe565b503461057257612c2d36615699565b6000805160206170f98339815191528452602090601c825260408520338652825260ff6040862054168015612e4e575b612c66906159b7565b612c6e61646b565b8385526017825260ff604086205416612e1257612c90601a54601b549061581e565b4210612dcd5783855260198252604085205403612d935782845260178152604084209060ff1991600183825416179055600654918360065560188252604086205460018101809111612d7f57916018917f42d4a2476a82a032f615547e73391179c379c1eb26fb0bd034f43131ae2bc15d9594938789528383528060408a205560405183810191878352604082015242606082015260608152612d3281615338565b51902087895260198352604089205542601a55601782526040882090815416905552612d796040862054604051938493846040919493926060820195825260208201520152565b0390a280f35b634e487b7160e01b87526011600452602487fd5b6064906040519062461bcd60e51b8252600482015260136024820152720a6e8c2e8ca40d0c2e6d040dad2e6dac2e8c6d606b1b6044820152fd5b60405162461bcd60e51b815260048101839052601b60248201527f4a61636b706f742075706461746520746f6f206672657175656e7400000000006044820152606490fd5b60405162461bcd60e51b815260048101839052601460248201527311d85b59481cdd185d19481a5cc81b1bd8dad95960621b6044820152606490fd5b506001546001600160a01b03163314612c5d565b5034610572578060031936011261057257612e7b61643f565b600180546001600160a01b0319811690915581906001600160a01b03167f8be0079c531659141344cd1fd0a4f28419497f9722a3daafe3b4186f6b6457e08280a380f35b503461057257806003193601126105725760206040517f59a1c48e5837ad7a7f3dcedcbe129bf3249ec4fbf651fd4f5e2600ead39fe2f58152f35b5034610572576020366003190112610572577f37aa3048a2b523e3218796793d7c9283cbd45124c62254c97febfc129252429460206004357fa49807205ce4d355092ef5a8a18f56e8913cf4a201fbe287825b095693c217758452601c825260408420338552825260ff6040852054168015612f88575b612f7a906159b7565b80601b55604051908152a180f35b506001546001600160a01b03163314612f71565b5034610572578060031936011261057257602060405160058152f35b50346105725780600319360112610572576003546040516001600160a01b039091168152602090f35b50346105725760203660031901126105725760406020916004358152601983522054604051908152f35b5034610572578060031936011261057257602060ff60015460a01c166040519015158152f35b50346105725761304036615478565b6130486164e9565b61305061646b565b3382526020906022825261306b60ff60408520541615615841565b338352601e9182815261308860ff60066040872001541615615841565b33845282815260ff60106040862001541661392b573384528281526003604085200154610e1090818101809111610b595742106138f05733855260258252604085205442106138ab57338552838252600f604086200154818101809111610b59574210613866573385526026825242604086205583825242600f6040872001556005541561382f5761311933616903565b6137ea57613125616962565b9384156137a5576040516370a0823160e01b81523360048201527f00000000000000000000000000000000000000000000000000000000000000006001600160a01b0316956024959091858188818b5afa80156135005783908a90613774575b613191925010156161d4565b604051636eb1769f60e11b815233600482015230602482015285816044818b5afa80156135005783908a9061373f575b6131cd92501015616220565b338852828552600196600a8860408b20015410156136fb576040516131f1816153cf565b89815291805115801561350b575b50506040516323b872dd60e01b815233600482015230602482015260448101849052908690829060649082908d905af1801561350057613245918a916134e9575061626c565b338852828552866040892001548781018091116134d657338952838652604089209088820155426003820155548781018091116134d65733895283865260408920556005548852600b855261329d3360408a206157e3565b600554808952600c86526040892054908882018092116134c3578952600c865260408920556132ce8260065461581e565b600655805161347c575b5033875284845260408720548681018091116134255760648111613438573388528585526040882055818452600e60408820015486810180911161342557338852828552600e604089200155604051868152604085820152601160408201527011185a5b1e481c1b185e481c995dd85c99607a1b606082015260008051602061713983398151915260803392a2600554906040519081527f480a6daea81f2af589e1959da1f1719512392ec551e8966266ee820f1c1f72ea853392a37f404449b42e86f8716dd5ac141731fb164fe1f76d7e4039fdd16c7b3b48f96a4e6040600654600754825191825286820152a13386528252601060408620018460ff198254161790554201918242116111d957507f2f9a50b0843b7d2d827707c950209b525673c306d684446f6c4b1b748a4ed9ee90338552602581528260408620556040519283523392a2815580f35b634e487b7160e01b885260116004528588fd5b60405162461bcd60e51b815260048101869052601b818801527f4461696c7920726577617264206c696d697420657863656564656400000000006044820152606490fd5b6134b57f64274d45e838268efe3b4fa5586a29791f42c0f3f9a6422424c424401bf3958991604051918291604083526040830190615625565b33888301520390a1386132d8565b634e487b7160e01b8a526011600452878afd5b634e487b7160e01b895260116004528689fd5b611e249150873d8911610b9357610b85818361543c565b6040513d8b823e3d90fd5b9092506136bf57606482511161368a576135258251616b18565b91888a91818c905b61361a575b50505080156135d65761354481616b18565b92898b5b8381106135ac575050505061355c82616b5b565b156135685738806131ff565b60405162461bcd60e51b815260048101879052601c818901527f496e76616c696420726566657272616c20636f646520666f726d6174000000006044820152606490fd5b6001600160f81b03196135bf8285616b4a565b51168d1a6135cd8288616b4a565b53018a90613548565b60405162461bcd60e51b815260048101889052601c818a01527f4e6f2076616c6964206368617261637465727320696e20696e707574000000006044820152606490fd5b8151811015613685576001600160f81b03196136368284616b4a565b51168d600160fd1b82101580613677575b613656575b505082018261352d565b9461366f918593961a613669828a616b4a565b53615a75565b93908d61364c565b50603f60f91b821115613647565b613532565b60405162461bcd60e51b815260048101879052600e818901526d496e70757420746f6f206c6f6e6760901b6044820152606490fd5b60405162461bcd60e51b81526004810187905260158189015274496e7075742063616e6e6f7420626520656d70747960581b6044820152606490fd5b60405162461bcd60e51b8152600481018790526019818901527f4d6178206461696c7920656e74726965732072656163686564000000000000006044820152606490fd5b50508581813d831161376d575b613756818361543c565b8101031261376957826131cd91516131c1565b8880fd5b503d61374c565b50508581813d831161379e575b61378b818361543c565b8101031261376957826131919151613185565b503d613781565b60405162461bcd60e51b815260048101849052601c60248201527f496e76616c696420656e747279206665652063616c63756c61746564000000006044820152606490fd5b60405162461bcd60e51b815260048101839052601c60248201527f537573706963696f7573206163746976697479206465746563746564000000006044820152606490fd5b60405162461bcd60e51b815260048101839052600f60248201526e125b9d985b1a590819d85b59481251608a1b6044820152606490fd5b60405162461bcd60e51b815260048101839052601b60248201527f536563757269747920636865636b20746f6f206672657175656e7400000000006044820152606490fd5b60405162461bcd60e51b815260048101839052601a60248201527f52617465206c696d697420636f6f6c646f776e206163746976650000000000006044820152606490fd5b60405162461bcd60e51b815260048101839052601360248201527214985d19481b1a5b5a5d08195e18d959591959606a1b6044820152606490fd5b6064906040519062461bcd60e51b825260048201526014602482015273155cd95c881a5cc81c985d19481b1a5b5a5d195960621b6044820152fd5b50346105725780600319360112610572576020601354604051908152f35b50346105725780600319360112610572577fa49807205ce4d355092ef5a8a18f56e8913cf4a201fbe287825b095693c217758152602090601c825260408120338252825260ff9160ff6040832054168015613ae4575b6139e3906159b7565b602a54610e108101809111612ba7574210613aa057815b60648110613a4b575042602a5560295460018101809111612ba7577f1b9b06155f0da9bce83c4a8a54dcca59cdf479249ceb43679c0bd7fa67b2f1889181604092602955825191428352820152a180f35b80600191431180613a83575b613a62575b016139fa565b613a6c81436161c7565b84526028835260408420805460ff19169055613a5c565b50613a8e81436161c7565b84526028835284604085205416613a57565b6064906040519062461bcd60e51b82526004820152601960248201527f4f7074696d697a6174696f6e20746f6f206672657175656e74000000000000006044820152fd5b506001546001600160a01b031633146139da565b503461057257602036600319011261057257604061022091613b18615298565b816102008451613b2781615369565b82815282602082015282868201528260608201528260808201528260a08201528260c08201528260e08201528261010082015282610120820152826101408201528261016082015282610180820152826101a0820152826101c0820152826101e0820152015260018060a01b03168152601e60205220610200604051613bac81615369565b60ff601084549485845260018101546020850152600281015460408501526003810154606085015260048101546080850152600581015460a085015282600682015416151560c0850152600781015460e085015260088101546101008501526009810154610120850152600a810154610140850152600b810154610160850152600c81015461018085015282600d8201541615156101a0850152600e8101546101c0850152600f8101546101e08501520154161515828201526040519283526020810151602084015260408101516040840152606081015160608401526080810151608084015260a081015160a084015260c0810151151560c084015260e081015160e08401526101008101516101008401526101208101516101208401526101408101516101408401526101608101516101608401526101808101516101808401526101a081015115156101a08401526101c08101516101c08401526101e08101516101e084015201511515610200820152f35b503461057257613d303661564a565b6003546001600160a01b03939190613d4b90851633146160ba565b613d56811515616106565b613d6281600754615aa6565b855b828110613db25750507f266eab4e9078d52ec3f1266d5b3619a11040584ef2997fdea8afa3c03fa559779350613da490600754906040519485948561616c565b0390a1806007554260095580f35b85613dc1612263838689616148565b16613dcf575b600101613d64565b613ddd612263828588616148565b60405163a9059cbb60e01b81526001600160a01b039190911660048201526024810183905290602080836044818c7f00000000000000000000000000000000000000000000000000000000000000008d165af1801561350057600193613e4b928b92613e52575b5050615ade565b9050613dc7565b613e689250803d10610b9357610b85818361543c565b3880613e44565b5034610572578060031936011261057257613e8861643f565b610c13615e84565b5034610572576020366003190112610572576040906004358152602360205220805460405191613ece83613ec78160018501615568565b038461543c565b60028101549060ff600460038301549201541690613efe604051958695865260a0602087015260a0860190615625565b9260408501526060840152151560808301520390f35b503461057257613f23366152d8565b91908152600b6020526040812090815483101561057257602061062d84846152ee565b503461057257604036600319011261057257613f60615298565b60243590811515908183036121c4577f7c6a5677e7a854a53d06c412e00ebe65535f5343566ca7939ac7c7f6b0b00c1691613fdc602092613f9f61643f565b6001600160a01b0316808752602284526040808820805497151560ff1660ff199889168117909155601e8652908820600601805490971617909555565b604051908152a280f35b50346105725780600319360112610572576002546040516001600160a01b039091168152602090f35b503461057257806003193601126105725761402861643f565b610c13615b2a565b503461057257602036600319011261057257606090600654906004358152601960205260408082205491601860205220549060405192835260208301526040820152f35b50346105725780600319360112610572576020600754604051908152f35b5034610572576040366003190112610572576001600160401b036004358181116125a957366023820112156125a95780600401359160246140d28461551f565b916140e0604051938461543c565b8483526020938484018360059760051b830101913683116137695784879101915b83831061445f5750505050813590811161445b573660238201121561445b5780600401359061412f8261551f565b9161413d604051938461543c565b808352838684019160051b830101913683116137695784879101915b83831061444b57505050506000805160206170f98339815191528652601c845260408620338752845260ff6040872054168015614437575b61419a906159b7565b6141a261646b565b82518151036143fb57600a8351116143c0574386526028845260ff60408720541661437c5743865260288452604086209160019160ff1993838582541617905560278652604088205483810180911161436957438952602787526040892055879687845b614255575b5050505050438552602883526040852090815416905551906040519283528201527fc8a16388af0851bdc51694269f90c12af519cfbd71e7ab51d304b3be25d1118460404392a280f35b8651811015614364576001600160a01b0380614271838a615a61565b5116151580614351575b614289575b50840184614206565b61429682899b939b615a61565b51166142a28a85615a61565b5190808c52601e8a528660408d206142bb84825461581e565b81554260038201550180549088820180921161433e575583548c52600b8a5260408c206142e891906157e3565b8254808c52600c808b5260408d20549188830180931161433e578d528a5260408c2055614318600691825461581e565b905584810180911161432b579784614280565b634e487b7160e01b8a526011600452838afd5b634e487b7160e01b8e526011600452878efd5b5061435c8285615a61565b51151561427b565b61420b565b634e487b7160e01b895260116004528289fd5b60405162461bcd60e51b815260048101859052601f818401527f42617463682070726f63657373696e6720616c726561647920616374697665006044820152606490fd5b60405162461bcd60e51b8152600481018590526014818401527342617463682073697a6520746f6f206c6172676560601b6044820152606490fd5b60405162461bcd60e51b81526004810185905260158184015274082e4e4c2f240d8cadccee8d040dad2e6dac2e8c6d605b1b6044820152606490fd5b506001546001600160a01b03163314614191565b8235815291810191879101614159565b8580fd5b819061446a846152c4565b8152019101908690614101565b5034610572576020366003190112610572576020906040906001600160a01b0361449f615298565b168152602483522054604051908152f35b5034610572576040366003190112610572576004356144cd6152ae565b818352601d60205260408320546001600160a01b03919082163314801561454e575b6144f89061591d565b16614504811515615979565b818352601c6020526040832081845260205260408320600160ff1982541617905533917f2f8788117e7eff1d82e926ec794901d17c78024a50270940304540a733656f0d8480a480f35b50600154821633146144ef565b5034610572578060031936011261057257600854906201518082018092116119d857602082604051904210158152f35b50346105725780600319360112610572576020601254604051908152f35b50346105725780600319360112610572576145c26164e9565b6145ca61646b565b33815260206022815260ff6145e660ff60408520541615615841565b338352601e825261460160ff60066040862001541615615841565b33835281805260408320546001600160a01b039081166147e35782604051614628816153b4565b60148082528282019483368737875b828110614771575050506147679260036146d87f9aba81a9970f49adfcb9191b4663d4a18a3a6236fbbef5e36c5478a55fd4a03a9694614754946146c7602561467f42616e2d565b98604051998a916146a4878401966450495a5a4160d81b8852518092868601906154e0565b82016146b8825180938987850191016154e0565b0103600581018a52018861543c565b6040518093819289519283916154e0565b8101601f815203019020916001600160601b0360a01b9233848254161790556040519261470484615338565b3384528884018a815260408501918b8352606086019360018552338d528b805260408d209651169086541617855551600185015551600284015551151591019060ff801983541691151516179055565b6040519182918583523395830190615625565b0390a26001815580f35b909192935060138181039081116147cf57600381901b906001600160fd1b038116036147cf578281116147cf57906001916147b38360ff60f81b921b33615aa6565b60f81b16891a6147c38287616b4a565b53019086939291614637565b634e487b7160e01b89526011600452602489fd5b60405162461bcd60e51b815260048101849052601c60248201527f526566657272616c20636f646520616c726561647920657869737473000000006044820152606490fd5b50346105725760203660031901126105725760ff60406020926004358152601784522054166040519015158152f35b50346105725780600319360112610572576020602a54604051908152f35b503461057257602061488636615478565b8161489a60405192838151938492016154e0565b601f90820190815281900382019020546040516001600160a01b039091168152f35b50346105725780600319360112610572576004546040516001600160a01b039091168152602090f35b503461057257602080600319360112611bb4576004356149036164e9565b61490b61646b565b3383526022825261492360ff60408520541615615841565b338352601e9182815261494060ff60066040872001541615615841565b338452828152600c6040852001546201518081018091116116335761496790421015615885565b3384528281526149806064600e604087200154106158d1565b81845260238152604084209260ff60048501541615614b5857600584019033865281835260ff604087205416614b1357600285019182548015614ace576103e88111614a89576149d0903361650c565b338752835260408620600160ff19825416179055808352600a60408720015460018101809111612d7f5791600080516020617139833981519152949391614a2b604094338a52828552858a2090600a8201555483549061581e565b903389528352838820908155600c429101555492825190815283828201527f20861823fa14b60d3f02cc6e48b647ac592dd27e39a78f278df5c918dabb8b2c833392a281519283528201528061476733946001604084019101615568565b60405162461bcd60e51b815260048101869052601960248201527f4368616c6c656e67652072657761726420746f6f2068696768000000000000006044820152606490fd5b60405162461bcd60e51b815260048101869052601860248201527f496e76616c6964206368616c6c656e67652072657761726400000000000000006044820152606490fd5b60405162461bcd60e51b815260048101849052601b60248201527f4368616c6c656e676520616c726561647920636f6d706c6574656400000000006044820152606490fd5b60405162461bcd60e51b81526004810183905260146024820152734368616c6c656e6765206e6f742061637469766560601b6044820152606490fd5b5034610572578060031936011261057257614bad6164e9565b614bb561646b565b338152602060228152614bcf60ff60408420541615615841565b338252601e808252614beb60ff60066040862001541615615841565b338352808252600c604084200154620151809081810180911161163357614c1490421015615885565b338452818352614c2d6064600e604087200154106158d1565b3384528183526007600460408620015410614d84573384528183526005604085200154908101809111610940574210614d3457338352602490818352604084205460038101809111614d215760648111611200573385528284526040852055808352600e60408520015460038101809111614d21573385528184526040852090600e8201555491600383018093116111d95750338452825260408320908155426005820155600c429101556040805191600383528201526012604082015271372d6461792073747265616b20626f6e757360701b606082015260008051602061713983398151915260803392a26001815580f35b634e487b7160e01b855260116004528285fd5b60405162461bcd60e51b815260048101839052602260248201527f53747265616b20626f6e757320616c726561647920636c61696d656420746f64604482015261617960f01b6064820152608490fd5b60405162461bcd60e51b815260048101849052601860248201527f372d6461792073747265616b206e6f74207265616368656400000000000000006044820152606490fd5b503461057257602080600319360112611bb4576080916040614de9615298565b918060608351614df881615338565b82815286810183905284810183905201526001600160a01b0392831681528380522060405191614e2783615338565b815416928383526001820154818401908152606060ff6003600286015495604088019687520154169401931515845260405194855251908401525160408301525115156060820152f35b503461057257806003193601126105725760206040517fbf233dd2aafeb4d50879c4aa5c81e96d92f6e6945c906a58f9f2d1c1631b4b268152f35b50346105725780600319360112610572576040517f00000000000000000000000000000000000000000000000000000000000000006001600160a01b03168152602090f35b50346105725760203660031901126105725760ff60406020926004358152601484522054166040519015158152f35b50346105725780600319360112610572576020601a54604051908152f35b5034610572578060031936011261057257602060405160088152f35b503461057257602080600319360112611bb45760043590614f7961646b565b811561503657614f883361648c565b614ffc57601354835260118152614fa233604085206157e3565b60135480845260108252614fba83604086205461581e565b908452601082526040842055601354906040519283528201527fefe539503e4a6bc6d750abe6f7471ea59543ad95e1757fcd02ecb9a6c212e92060403392a280f35b6064906040519062461bcd60e51b825260048201526013602482015272105b1c9958591e4818dbdb9d1c9a589d5d1959606a1b6044820152fd5b6064906040519062461bcd60e51b82526004820152600f60248201526e496e76616c696420656e74726f707960881b6044820152fd5b503461057257602036600319011261057257604060e091600435815260216020522080549060018101549060028101546003820154600483015491600760ff600686015416940154946040519687526020870152604086015260608501526080840152151560a083015260c0820152f35b5034610572576150ec366152d8565b9190815260116020526040812090815483101561057257602061062d84846152ee565b503461057257806003193601126105725761512861643f565b61513061646b565b60025460405163f8413b0760e01b8152906020908290600490829086906001600160a01b03165af1908115610ed65782916151a1575b506040817f3d94fecedaa4f90b8bd459797adb95f5bb11426025c5541390d9ccc1ad1b60a192600a556005549082519182526020820152a180f35b90506020813d6020116151cc575b816151bc6020938361543c565b81010312611bb457516040615166565b3d91506151af565b503461057257806003193601126105725760048054604051630d73ebb560e01b81529160209183919082906001600160a01b03165afa908115610ed657829161290157602082604051908152f35b5034610572578060031936011261057257602060405161012c8152f35b5034610572578060031936011261057257602060ff601654166040519015158152f35b905034611bb4576020366003190112611bb4576020916040906001600160a01b0361528b615298565b1681526025845220548152f35b600435906001600160a01b03821682036108a957565b602435906001600160a01b03821682036108a957565b35906001600160a01b03821682036108a957565b60409060031901126108a9576004359060243590565b80548210156153065760005260206000200190600090565b634e487b7160e01b600052603260045260246000fd5b346108a95760003660031901126108a9576020604051600a8152f35b608081019081106001600160401b0382111761535357604052565b634e487b7160e01b600052604160045260246000fd5b61022081019081106001600160401b0382111761535357604052565b61010081019081106001600160401b0382111761535357604052565b6001600160401b03811161535357604052565b604081019081106001600160401b0382111761535357604052565b602081019081106001600160401b0382111761535357604052565b606081019081106001600160401b0382111761535357604052565b60c081019081106001600160401b0382111761535357604052565b61012081019081106001600160401b0382111761535357604052565b90601f801991011681019081106001600160401b0382111761535357604052565b6001600160401b03811161535357601f01601f191660200190565b60206003198201126108a9576004356001600160401b0381116108a957816023820112156108a9578060040135906154af8261545d565b926154bd604051948561543c565b828452602483830101116108a95781600092602460209301838601378301015290565b60005b8381106154f35750506000910152565b81810151838201526020016154e3565b346108a95760003660031901126108a957602060405160648152f35b6001600160401b0381116153535760051b60200190565b6004359081151582036108a957565b346108a95760003660031901126108a9576020604051670de0b6b3a76400008152f35b80546000939260018083169383821c93851561561b575b6020958686108114615605578585529081156155e657506001146155a5575b5050505050565b90939495506000929192528360002092846000945b8386106155d25750505050010190388080808061559e565b8054858701830152940193859082016155ba565b60ff19168685015250505090151560051b01019150388080808061559e565b634e487b7160e01b600052602260045260246000fd5b93607f169361557f565b9060209161563e815180928185528580860191016154e0565b601f01601f1916010190565b60406003198201126108a957600435916024356001600160401b03928382116108a957806023830112156108a95781600401359384116108a95760248460051b830101116108a9576024019190565b60609060031901126108a957600435906024359060443590565b346108a95760003660031901126108a957602060405160028152f35b346108a95760003660031901126108a957602060405160018152f35b90815180825260208080930193019160005b82811061570b575050505090565b83516001600160a01b0316855293810193928101926001016156fd565b6020815281516020820152602082015160408201526040820151606082015260608201516080820152608082015160a082015260a082015160e061577a610100928360c08601526101208501906156eb565b9360c0810151151582850152015191015290565b346108a95760003660031901126108a957602060405160328152f35b346108a95760003660031901126108a9576020604051610e108152f35b346108a95760003660031901126108a957602060405160038152f35b8054600160401b81101561535357615800916001820181556152ee565b60018060a09493941b038084549260031b9316831b921b1916179055565b9190820180921161582b57565b634e487b7160e01b600052601160045260246000fd5b1561584857565b60405162461bcd60e51b8152602060048201526015602482015274141b185e595c881a5cc8189b1858dadb1a5cdd1959605a1b6044820152606490fd5b1561588c57565b60405162461bcd60e51b815260206004820152601c60248201527f52657761726420616c726561647920636c61696d656420746f646179000000006044820152606490fd5b156158d857565b60405162461bcd60e51b815260206004820152601a60248201527f4461696c7920726577617264206c696d697420726561636865640000000000006044820152606490fd5b1561592457565b60405162461bcd60e51b815260206004820152602760248201527f416363657373436f6e74726f6c3a2063616c6c6572206973206e6f7420726f6c604482015266329030b236b4b760c91b6064820152608490fd5b1561598057565b60405162461bcd60e51b815260206004820152600f60248201526e496e76616c6964206164647265737360881b6044820152606490fd5b156159be57565b60405162461bcd60e51b815260206004820152602860248201527f416363657373436f6e74726f6c3a2063616c6c657220646f6573206e6f74206860448201526761766520726f6c6560c01b6064820152608490fd5b8051156153065760200190565b8051600110156153065760400190565b8051600210156153065760600190565b8051600310156153065760800190565b8051600410156153065760a00190565b80518210156153065760209160051b010190565b600019811461582b5760010190565b939291615aa19060409286526060602087015260608601906156eb565b930152565b8115615ab0570490565b634e487b7160e01b600052601260045260246000fd5b908160209103126108a9575180151581036108a95790565b15615ae557565b60405162461bcd60e51b815260206004820152601960248201527f564d46207072697a65207472616e73666572206661696c6564000000000000006044820152606490fd5b6005549060009182526020906021825260409081842091600683019081549460ff8616615e055760028501544210615dcf57615b696003860154616640565b938795885b8651811015615bac576001600160a01b03615b898289615a61565b5116615b98575b600101615b6e565b96615ba4600191615a75565b979050615b90565b50919492959093968115615d975750615bc790600654615aa6565b92875b8351811015615caf576001600160a01b0390868683615be98489615a61565b5116615bfc575b50506001915001615bca565b838394615c0c615c3f958a615a61565b51168d8c5180968195829463a9059cbb60e01b84526004840160209093929193604081019460018060a01b031681520152565b03927f0000000000000000000000000000000000000000000000000000000000000000165af1908115615ca55760019291615c81918c91615c88575b50615ade565b8686615bf0565b615c9f9150893d8b11610b9357610b85818361543c565b38615c7b565b88513d8c823e3d90fd5b50959250959392909360058701908551926001600160401b038411615d8357600160401b8411615d83578254848455808510615d5e575b50808701928252808220915b848110615d4357505050505060046000805160206171198339815191529495615d3692600160ff198254161790556006549182910155600554925193849384615a84565b0390a1615d4161679a565b565b83516001600160a01b03168382015592810192600101615cf2565b8383528482842091820191015b818110615d785750615ce6565b838155600101615d6b565b634e487b7160e01b82526041600452602482fd5b9150506000805160206171198339815191529592965060019194935060ff1916179055615d3660055491600654905193849384615a84565b606491519062461bcd60e51b82526004820152601160248201527011d85b59481b9bdd08199a5b9a5cda1959607a1b6044820152fd5b606491519062461bcd60e51b82526004820152601660248201527511d85b5948185b1c9958591e4818dbdb5c1b195d195960521b6044820152fd5b15615e4757565b60405162461bcd60e51b81526020600482015260156024820152745765656b6c792064726177206e6f7420726561647960581b6044820152606490fd5b60095462093a80810180911161582b57615ea090421015615e40565b60408051916001600160401b039190610160840183811185821017615353578252600a84526020926101403660208701378251617d2081019182118183101761535357617d009184526103e8815260203691013760009160005b8551811015615f38576001600160a01b03615f158288615a61565b5116615f24575b600101615efa565b92615f30600191615a75565b939050615f1c565b5091929092801561607f57615f4f90600754615aa6565b9360005b8151811015616034576001600160a01b0390838783615f728487615a61565b5116615f85575b50506001915001615f53565b838394615f95615fc99588615a61565b51166000895180968195829463a9059cbb60e01b84526004840160209093929193604081019460018060a01b031681520152565b03927f0000000000000000000000000000000000000000000000000000000000000000165af1908115616029576001929161600b916000916160125750615ade565b8387615f79565b615c9f9150863d8811610b9357610b85818361543c565b85513d6000823e3d90fd5b509190507f266eab4e9078d52ec3f1266d5b3619a11040584ef2997fdea8afa3c03fa5597792935061607160055491600754905193849384615a84565b0390a1600060075542600955565b5050917f266eab4e9078d52ec3f1266d5b3619a11040584ef2997fdea8afa3c03fa55977919261607160055491600754905193849384615a84565b156160c157565b60405162461bcd60e51b815260206004820152601f60248201527f4f6e6c792056524620636f6e74726163742063616e2063616c6c2074686973006044820152606490fd5b1561610d57565b60405162461bcd60e51b8152602060048201526013602482015272139bc81dda5b9b995c9cc81c1c9bdd9a591959606a1b6044820152606490fd5b91908110156153065760051b0190565b356001600160a01b03811681036108a95790565b9081526060602080830182905290820184905290949392608086019160005b82811061619e5750505060409150930152565b9091928280600192838060a01b036161b5896152c4565b1681520195019101939291909361618b565b9190820391821161582b57565b156161db57565b60405162461bcd60e51b815260206004820152601860248201527f496e73756666696369656e7420564d462062616c616e636500000000000000006044820152606490fd5b1561622757565b60405162461bcd60e51b815260206004820152601a60248201527f496e73756666696369656e7420564d4620616c6c6f77616e63650000000000006044820152606490fd5b1561627357565b60405162461bcd60e51b8152602060048201526013602482015272159351881d1c985b9cd9995c8819985a5b1959606a1b6044820152606490fd5b604051906162bb82615385565b8160e0600091828152826020820152826040820152826060820152826080820152606060a08201528260c08201520152565b156162f457565b60405162461bcd60e51b815260206004820152600f60248201526e159491881b9bdd08195b98589b1959608a1b6044820152606490fd5b1561633257565b60405162461bcd60e51b81526020600482015260146024820152731594918818dbdb9d1c9858dd081b9bdd081cd95d60621b6044820152606490fd5b60209081818403126108a9578051906001600160401b0382116108a957019180601f840112156108a95782516163a38161551f565b936163b1604051958661543c565b818552838086019260051b8201019283116108a9578301905b8282106163d8575050505090565b81516001600160a01b03811681036108a95781529083019083016163ca565b156163fe57565b60405162461bcd60e51b815260206004820152600f60248201526e151c985b9cd9995c8819985a5b1959608a1b6044820152606490fd5b8115615ab0570690565b6001546001600160a01b0316330361645357565b60405163118cdaa760e01b8152336004820152602490fd5b60ff60015460a01c1661647a57565b60405163d93c066560e01b8152600490fd5b6013549060005b826000526011602052604060002080548210156164e057816164b4916152ee565b905460039190911b1c6001600160a01b03908116908316146164d857600101616493565b505050600190565b50505050600090565b6002600054146164fa576002600055565b604051633ee5aeb560e01b8152600490fd5b81156165fb576103e882116165bd5760018060a01b031690600090828252602460205261653d81604084205461581e565b91606483116165785761656b604092600e94868452602460205284842055601e60205284848420015461581e565b938152601e602052200155565b60405162461bcd60e51b815260206004820152601b60248201527f4461696c7920726577617264206c696d697420657863656564656400000000006044820152606490fd5b60405162461bcd60e51b81526020600482015260166024820152750a4caeec2e4c840c2dadeeadce840e8dede40d0d2ced60531b6044820152606490fd5b60405162461bcd60e51b815260206004820152601e60248201527f52657761726420616d6f756e74206d75737420626520706f73697469766500006044820152606490fd5b9060409081519061665082615420565b600892600883526020906101003683860137600091868352602181526007828420015491821561678f576002548151631daaf1b160e11b815260048101949094526001600160a01b0398908390859060249082908d165afa938415616785578594616752575b508315616746578452600b8252808420948554948515616730575b8881108061673d575b156167305761672b908a61671361670d898751898101908b8252868a820152898152616705816153ea565b519020616435565b8a6152ee565b90549060031b1c16616725828b615a61565b52615a75565b6166d1565b5097505050505050905090565b508581106166da565b50505050509250905090565b9093508281813d831161677e575b61676a818361543c565b8101031261677a575192386166b6565b8480fd5b503d616760565b82513d87823e3d90fd5b505050509250905090565b6167a5600554615a75565b806005556201518042019081421161582b57604051916167c4836153cf565b6000808452604051936167d685615385565b838552602090818601924284526040870194855260608701818152608088019082825260a0890193845260c089019683885260e08a0198848a528452602186526040842099518a556001965160018b01555160028a0155516003890155516004880155600587019151928351936001600160401b0385116168ef57600160401b85116168ef57819084548686558087106168c5575b5001928252808220915b8481106168ab57505050505050906168a1600792511515600685019060ff801983541691151516179055565b5191015542600855565b83516001600160a01b031683820155928101928501616875565b858552878784872092830192015b8281106168e157505061686b565b8681558594508991016168d3565b634e487b7160e01b83526041600452602483fd5b60018060a01b03166000908082526026602052601e6169266040842054426161c7565b1061695b578152601e602052600a60016040832001541161695557602460205260646040822054116169555790565b50600190565b5050600190565b60018060a01b03600454166040805190638f09c85760e01b928383526020908184600481845afa938415616aa457600094616ae9575b508251630d73ebb560e01b8152948286600481855afa958615616ade57600096616aaf575b508290600485518094819382525afa908115616aa457600091616a77575b5080616a1e575b505051908152602081018290524260408201527fd275f5de1f47f481706cbb99406816bcc17cd387167d5de15596c1a2fb47ad8690606090a190565b616a2a60329185617021565b11616a3557806169e2565b606491519062461bcd60e51b82526004820152601860248201527f507269636520646576696174696f6e20746f6f206869676800000000000000006044820152fd5b90508181813d8311616a9d575b616a8e818361543c565b810103126108a95751386169db565b503d616a84565b83513d6000823e3d90fd5b9095508281813d8311616ad7575b616ac7818361543c565b810103126108a9575194826169bd565b503d616abd565b84513d6000823e3d90fd5b9093508181813d8311616b11575b616b01818361543c565b810103126108a957519238616998565b503d616af7565b90616b228261545d565b616b2f604051918261543c565b8281528092616b40601f199161545d565b0190602036910137565b908151811015615306570160200190565b805160038110908115616d63575b50616d5d5760005b8151811015616c2d576001600160f81b0319616b8d8284616b4a565b5116600360fc1b8110159081616c1e575b8115616bfa575b8115616bd6575b8115616bc8575b5015616bc157600101616b71565b5050600090565b605f60f81b14905038616bb3565b9050606160f81b81101580616bec575b90616bac565b50603d60f91b811115616be6565b9050604160f81b81101580616c10575b90616ba5565b50602d60f91b811115616c0a565b603960f81b8111159150616b9e565b5060015b8151811015616c8f576001600160f81b0319605f60f81b8082616c548587616b4a565b5116149182616c6c575b5050616bc157600101616c31565b909150600019830183811161582b57616c859085616b4a565b5116143880616c5e565b5090616c9b8251616b18565b60005b8351811015616d43576001600160f81b031990606160f81b82616cc18388616b4a565b5116101580616d29575b15616d0757616cda8186616b4a565b5160f89290831c601f190160ff811161582b576001931b1660001a616cff8285616b4a565b535b01616c9e565b600191616d148287616b4a565b511660001a616d238285616b4a565b53616d01565b50603d60f91b82616d3a8388616b4a565b51161115616ccb565b50616d4f919250616ecb565b616d5857600190565b600090565b50600090565b603291501138616b69565b9060409160405192616d7f84615420565b60089260088552602061010036602088013760009184600052600c602052604060002054908115616e235760005b878110616dbf57505050505050505090565b600190616e04616df585895188810190878252858c82015242606082015244608082015260a08d81830152815261670581615405565b898852600b87528888206152ee565b838060a01b0391549060031b1c16616e1c828c615a61565b5201616dad565b5050505050505090565b8015616ead5780600081805b616e955750616e4781616b18565b925b616e5257505090565b600019810190811161582b578091600a916030838306810180911161582b5760f81b6001600160f81b03191660001a90616e8c9086616b4a565b53049081616e49565b9150616ea2600a91615a75565b910480839291616e39565b50604051616eba816153b4565b60018152600360fc1b602082015290565b6040805190616ed982615405565b6005825260005b60a0811061701057508051616ef4816153b4565b600581526420a226a4a760d91b6020820152616f0f83615a14565b52616f1982615a14565b508051616f25816153b4565b600581526427aba722a960d91b6020820152616f4083615a21565b52616f4a82615a21565b508051616f56816153b4565b600681526553595354454d60d01b6020820152616f7283615a31565b52616f7c82615a31565b508051616f88816153b4565b60048152631395531360e21b6020820152616fa283615a41565b52616fac82615a41565b5051616fb7816153b4565b6004815263151154d560e21b6020820152616fd182615a51565b52616fdb81615a51565b5060005b815181101561700857616ffc616ff58284615a61565b518461706b565b6164d857600101616fdf565b505050600090565b806060602080938601015201616ee0565b818114616bc157818082111561705b5761703a916161c7565b905b60648202918083046064149015171561582b5761705891615aa6565b90565b90617065916161c7565b9061703c565b908051825110616bc1576000905b61708683518251906161c7565b82116170085760019260005b82518110156170ee576001600160f81b0319806170b86170b2848861581e565b85616b4a565b5116906170c58386616b4a565b5116036170d457600101617092565b5092509060005b6164d8576170e890615a75565b90617079565b50929190916170db56fe97667070c54ef182b0f5858b034beac1b6f3089aa2d3188bb1e8929f4fa9b929dd1c72fcda97fcfc2fe124c4aa194986caca752d3769c00a6495659509d7b19b195188e7e2a9c946c91317946030490c3ba48a5b7f867101928826fa4cc609c5a2646970667358221220105e263fa562cf916e4eac6a44c9a021b1139dd6ec46ce792be061f4899ea7db64736f6c63430008180033","opcodes":"PUSH1 0xA0 CALLVALUE PUSH3 0x5B2 JUMPI PUSH1 0x1F PUSH3 0x7771 CODESIZE DUP2 SWAP1 SUB SWAP2 DUP3 ADD PUSH1 0x1F NOT AND DUP4 ADD SWAP2 SWAP1 PUSH1 0x1 PUSH1 0x1 PUSH1 0x40 SHL SUB DUP4 GT DUP5 DUP5 LT OR PUSH3 0x5B7 JUMPI DUP2 PUSH1 0x80 SWAP3 DUP6 SWAP3 PUSH1 0x40 SWAP6 DUP7 MSTORE DUP4 CODECOPY DUP2 ADD SUB SLT PUSH3 0x5B2 JUMPI PUSH3 0x50 DUP3 PUSH3 0x5CD JUMP JUMPDEST PUSH3 0x5E PUSH1 0x20 DUP5 ADD PUSH3 0x5CD JUMP JUMPDEST SWAP3 PUSH3 0x7A PUSH1 0x60 PUSH3 0x72 DUP6 DUP5 ADD PUSH3 0x5CD JUMP JUMPDEST SWAP3 ADD PUSH3 0x5CD JUMP JUMPDEST SWAP1 PUSH1 0x1 PUSH1 0x0 SSTORE CALLER ISZERO PUSH3 0x59A JUMPI PUSH1 0x1 DUP1 SLOAD CALLER PUSH1 0x1 PUSH1 0x1 PUSH1 0xA0 SHL SUB NOT DUP1 DUP4 AND DUP3 OR SWAP1 SWAP4 SSTORE DUP7 MLOAD SWAP8 SWAP3 SWAP6 SWAP2 PUSH1 0x1 PUSH1 0x1 PUSH1 0xA0 SHL SUB AND PUSH32 0x8BE0079C531659141344CD1FD0A4F28419497F9722A3DAAFE3B4186F6B6457E0 PUSH1 0x0 DUP1 LOG3 PUSH1 0x16 DUP1 SLOAD PUSH1 0xFF NOT AND PUSH1 0x1 OR SWAP1 SSTORE PUSH1 0x1 PUSH1 0x1 PUSH1 0xA0 SHL SUB AND DUP1 PUSH3 0x590 JUMPI JUMPDEST POP PUSH1 0x1 PUSH1 0x1 PUSH1 0xA0 SHL SUB AND SWAP5 DUP6 ISZERO PUSH3 0x542 JUMPI POP PUSH1 0x1 PUSH1 0x1 PUSH1 0xA0 SHL SUB AND SWAP4 DUP5 ISZERO PUSH3 0x4FE JUMPI DUP3 PUSH1 0x2 SLOAD AND OR PUSH1 0x2 SSTORE PUSH1 0x4 SWAP4 DUP3 DUP6 SLOAD AND OR DUP5 SSTORE PUSH1 0x1 DUP1 PUSH1 0xA0 SHL SUB AND DUP1 PUSH3 0x4EE JUMPI JUMPDEST POP PUSH32 0xA49807205CE4D355092EF5A8A18F56E8913CF4A201FBE287825B095693C21775 DUP1 PUSH1 0x0 MSTORE PUSH1 0x1C PUSH1 0x20 MSTORE DUP3 PUSH1 0x0 KECCAK256 CALLER PUSH1 0x0 MSTORE PUSH1 0x20 MSTORE DUP3 PUSH1 0x0 KECCAK256 PUSH1 0x1 PUSH1 0xFF NOT DUP3 SLOAD AND OR SWAP1 SSTORE PUSH32 0x97667070C54EF182B0F5858B034BEAC1B6F3089AA2D3188BB1E8929F4FA9B929 DUP1 PUSH1 0x0 MSTORE PUSH1 0x1C PUSH1 0x20 MSTORE DUP4 PUSH1 0x0 KECCAK256 CALLER PUSH1 0x0 MSTORE PUSH1 0x20 MSTORE DUP4 PUSH1 0x0 KECCAK256 PUSH1 0x1 PUSH1 0xFF NOT DUP3 SLOAD AND OR SWAP1 SSTORE PUSH32 0xBF233DD2AAFEB4D50879C4AA5C81E96D92F6E6945C906A58F9F2D1C1631B4B26 SWAP1 DUP2 PUSH1 0x0 MSTORE PUSH1 0x1C PUSH1 0x20 MSTORE DUP5 PUSH1 0x0 KECCAK256 CALLER PUSH1 0x0 MSTORE PUSH1 0x20 MSTORE DUP5 PUSH1 0x0 KECCAK256 PUSH1 0x1 PUSH1 0xFF NOT DUP3 SLOAD AND OR SWAP1 SSTORE PUSH32 0x59A1C48E5837AD7A7F3DCEDCBE129BF3249EC4FBF651FD4F5E2600EAD39FE2F5 SWAP4 DUP5 PUSH1 0x0 MSTORE PUSH1 0x1C PUSH1 0x20 MSTORE DUP6 PUSH1 0x0 KECCAK256 CALLER PUSH1 0x0 MSTORE PUSH1 0x20 MSTORE DUP6 PUSH1 0x0 KECCAK256 PUSH1 0x1 PUSH1 0xFF NOT DUP3 SLOAD AND OR SWAP1 SSTORE DUP4 PUSH1 0x0 MSTORE PUSH1 0x1D PUSH1 0x20 MSTORE DUP6 PUSH1 0x0 KECCAK256 CALLER DUP3 DUP3 SLOAD AND OR SWAP1 SSTORE DUP2 PUSH1 0x0 MSTORE DUP6 PUSH1 0x0 KECCAK256 CALLER DUP3 DUP3 SLOAD AND OR SWAP1 SSTORE DUP3 PUSH1 0x0 MSTORE DUP6 PUSH1 0x0 KECCAK256 CALLER DUP3 DUP3 SLOAD AND OR SWAP1 SSTORE DUP5 PUSH1 0x0 MSTORE DUP6 PUSH1 0x0 KECCAK256 SWAP1 CALLER SWAP1 DUP3 SLOAD AND OR SWAP1 SSTORE PUSH32 0x2F8788117E7EFF1D82E926EC794901D17C78024A50270940304540A733656F0D SWAP3 CALLER SWAP1 CALLER SWAP1 DUP6 PUSH1 0x0 DUP1 LOG4 CALLER SWAP1 CALLER SWAP1 DUP5 PUSH1 0x0 DUP1 LOG4 CALLER SWAP1 CALLER SWAP1 DUP4 PUSH1 0x0 DUP1 LOG4 CALLER SWAP2 CALLER SWAP2 PUSH1 0x0 DUP1 LOG4 PUSH1 0x2 PUSH1 0x5 SSTORE PUSH3 0x15180 TIMESTAMP ADD DUP1 TIMESTAMP GT PUSH3 0x4D9 JUMPI DUP2 MLOAD SWAP3 PUSH1 0x20 DUP5 ADD PUSH1 0x1 PUSH1 0x1 PUSH1 0x40 SHL SUB DUP2 GT DUP6 DUP3 LT OR PUSH3 0x4C4 JUMPI DUP4 MSTORE PUSH1 0x0 DUP5 MSTORE DUP3 MLOAD SWAP2 PUSH2 0x100 DUP4 ADD PUSH1 0x1 PUSH1 0x1 PUSH1 0x40 SHL SUB DUP2 GT DUP5 DUP3 LT OR PUSH3 0x4AF JUMPI DUP5 MSTORE PUSH1 0x2 DUP4 MSTORE PUSH1 0x20 DUP4 ADD SWAP2 TIMESTAMP DUP4 MSTORE DUP5 DUP5 ADD SWAP2 DUP3 MSTORE PUSH1 0x60 DUP5 ADD PUSH1 0x0 DUP2 MSTORE PUSH1 0x80 DUP6 ADD SWAP1 PUSH1 0x0 DUP3 MSTORE PUSH1 0xA0 DUP7 ADD SWAP8 DUP9 MSTORE PUSH1 0xC0 DUP7 ADD SWAP4 PUSH1 0x0 DUP6 MSTORE PUSH1 0xE0 DUP8 ADD SWAP6 PUSH1 0x0 DUP8 MSTORE PUSH1 0x2 PUSH1 0x0 MSTORE PUSH1 0x21 PUSH1 0x20 MSTORE DUP9 PUSH1 0x0 KECCAK256 SWAP8 MLOAD DUP9 SSTORE MLOAD PUSH1 0x1 DUP9 ADD SSTORE MLOAD PUSH1 0x2 DUP8 ADD SSTORE MLOAD PUSH1 0x3 DUP7 ADD SSTORE MLOAD DUP2 DUP6 ADD SSTORE PUSH1 0x5 DUP5 ADD SWAP6 MLOAD DUP1 MLOAD SWAP2 PUSH1 0x1 DUP1 PUSH1 0x40 SHL SUB DUP4 GT PUSH3 0x49A JUMPI PUSH9 0x10000000000000000 DUP4 GT PUSH3 0x49A JUMPI POP DUP7 SLOAD DUP3 DUP9 SSTORE DUP1 DUP4 LT PUSH3 0x46E JUMPI JUMPDEST POP PUSH1 0x20 ADD SWAP6 PUSH1 0x0 MSTORE PUSH1 0x20 PUSH1 0x0 KECCAK256 SWAP6 PUSH1 0x0 JUMPDEST DUP3 DUP2 LT PUSH3 0x450 JUMPI POP POP POP SWAP1 PUSH1 0x7 SWAP2 PUSH1 0x6 DUP5 ADD SWAP1 MLOAD ISZERO ISZERO PUSH1 0xFF DUP1 NOT DUP4 SLOAD AND SWAP2 AND OR SWAP1 SSTORE MLOAD SWAP2 ADD SSTORE TIMESTAMP PUSH1 0x8 SSTORE MLOAD PUSH2 0x718E SWAP1 DUP2 PUSH3 0x5E3 DUP3 CODECOPY PUSH1 0x80 MLOAD DUP2 DUP2 DUP2 PUSH2 0xA95 ADD MSTORE DUP2 DUP2 PUSH2 0x1317 ADD MSTORE DUP2 DUP2 PUSH2 0x1CC6 ADD MSTORE DUP2 DUP2 PUSH2 0x22B6 ADD MSTORE DUP2 DUP2 PUSH2 0x2A39 ADD MSTORE DUP2 DUP2 PUSH2 0x3141 ADD MSTORE DUP2 DUP2 PUSH2 0x3E0D ADD MSTORE DUP2 DUP2 PUSH2 0x4EC2 ADD MSTORE DUP2 DUP2 PUSH2 0x5C43 ADD MSTORE PUSH2 0x5FCD ADD MSTORE RETURN JUMPDEST DUP2 MLOAD PUSH1 0x1 PUSH1 0x1 PUSH1 0xA0 SHL SUB AND DUP2 DUP10 ADD SSTORE PUSH1 0x20 SWAP1 SWAP2 ADD SWAP1 PUSH1 0x1 ADD PUSH3 0x3CF JUMP JUMPDEST DUP8 PUSH1 0x0 MSTORE DUP3 PUSH1 0x20 PUSH1 0x0 KECCAK256 SWAP2 DUP3 ADD SWAP2 ADD JUMPDEST DUP2 DUP2 LT PUSH3 0x48D JUMPI POP PUSH3 0x3BE JUMP JUMPDEST PUSH1 0x0 DUP2 SSTORE PUSH1 0x1 ADD PUSH3 0x47E JUMP JUMPDEST PUSH1 0x41 SWAP1 PUSH4 0x4E487B71 PUSH1 0xE0 SHL PUSH1 0x0 MSTORE MSTORE PUSH1 0x24 PUSH1 0x0 REVERT JUMPDEST PUSH1 0x41 DUP4 PUSH4 0x4E487B71 PUSH1 0xE0 SHL PUSH1 0x0 MSTORE MSTORE PUSH1 0x24 PUSH1 0x0 REVERT JUMPDEST PUSH1 0x41 DUP3 PUSH4 0x4E487B71 PUSH1 0xE0 SHL PUSH1 0x0 MSTORE MSTORE PUSH1 0x24 PUSH1 0x0 REVERT JUMPDEST PUSH1 0x11 DUP4 PUSH4 0x4E487B71 PUSH1 0xE0 SHL PUSH1 0x0 MSTORE MSTORE PUSH1 0x24 PUSH1 0x0 REVERT JUMPDEST DUP2 PUSH1 0x3 SLOAD AND OR PUSH1 0x3 SSTORE CODESIZE PUSH3 0x134 JUMP JUMPDEST DUP4 MLOAD PUSH3 0x461BCD PUSH1 0xE5 SHL DUP2 MSTORE PUSH1 0x20 PUSH1 0x4 DUP3 ADD MSTORE PUSH1 0x1C PUSH1 0x24 DUP3 ADD MSTORE PUSH32 0x496E76616C6964207072696365206F7261636C65206164647265737300000000 PUSH1 0x44 DUP3 ADD MSTORE PUSH1 0x64 SWAP1 REVERT JUMPDEST PUSH3 0x461BCD PUSH1 0xE5 SHL DUP2 MSTORE PUSH1 0x20 PUSH1 0x4 DUP3 ADD MSTORE PUSH1 0x23 PUSH1 0x24 DUP3 ADD MSTORE PUSH32 0x496E76616C69642072616E646F6D6E65737320636F6E74726163742061646472 PUSH1 0x44 DUP3 ADD MSTORE PUSH3 0x657373 PUSH1 0xE8 SHL PUSH1 0x64 DUP3 ADD MSTORE PUSH1 0x84 SWAP1 REVERT JUMPDEST PUSH1 0x80 MSTORE CODESIZE PUSH3 0xEE JUMP JUMPDEST DUP4 MLOAD PUSH4 0x1E4FBDF7 PUSH1 0xE0 SHL DUP2 MSTORE PUSH1 0x0 PUSH1 0x4 DUP3 ADD MSTORE PUSH1 0x24 SWAP1 REVERT JUMPDEST PUSH1 0x0 DUP1 REVERT JUMPDEST PUSH4 0x4E487B71 PUSH1 0xE0 SHL PUSH1 0x0 MSTORE PUSH1 0x41 PUSH1 0x4 MSTORE PUSH1 0x24 PUSH1 0x0 REVERT JUMPDEST MLOAD SWAP1 PUSH1 0x1 PUSH1 0x1 PUSH1 0xA0 SHL SUB DUP3 AND DUP3 SUB PUSH3 0x5B2 JUMPI JUMP INVALID PUSH1 0xE0 DUP1 PUSH1 0x40 MSTORE PUSH1 0x4 CALLDATASIZE LT ISZERO PUSH2 0x13 JUMPI PUSH1 0x0 DUP1 REVERT JUMPDEST PUSH1 0x0 SWAP1 DUP2 CALLDATALOAD PUSH1 0xE0 SHR SWAP1 DUP2 PUSH4 0x3FA2C63 EQ PUSH2 0x5262 JUMPI POP DUP1 PUSH4 0x6038341 EQ PUSH2 0x523F JUMPI DUP1 PUSH4 0x98655D9 EQ PUSH2 0x5222 JUMPI DUP1 PUSH4 0xAA01695 EQ PUSH2 0x51D4 JUMPI DUP1 PUSH4 0xB00A5DB EQ PUSH2 0x510F JUMPI DUP1 PUSH4 0xC89D127 EQ PUSH2 0x50DD JUMPI DUP1 PUSH4 0xD9F92CA EQ PUSH2 0x5F6 JUMPI DUP1 PUSH4 0x117A5B90 EQ PUSH2 0x506C JUMPI DUP1 PUSH4 0x1472CBE3 EQ PUSH2 0x4F5A JUMPI DUP1 PUSH4 0x16FA1086 EQ PUSH2 0x4F3E JUMPI DUP1 PUSH4 0x19BF155D EQ PUSH2 0x4F20 JUMPI DUP1 PUSH4 0x1A1D9252 EQ PUSH2 0x4EF1 JUMPI DUP1 PUSH4 0x2086EEFA EQ PUSH2 0x4EAC JUMPI DUP1 PUSH4 0x20DF4359 EQ PUSH2 0x4E71 JUMPI DUP1 PUSH4 0x21874AE2 EQ PUSH2 0x4DC9 JUMPI DUP1 PUSH4 0x25B7F388 EQ PUSH2 0x4B94 JUMPI DUP1 PUSH4 0x2618CAFD EQ PUSH2 0x48E5 JUMPI DUP1 PUSH4 0x2630C12F EQ PUSH2 0x48BC JUMPI DUP1 PUSH4 0x2655E840 EQ PUSH2 0x4875 JUMPI DUP1 PUSH4 0x28100ACA EQ PUSH2 0x4857 JUMPI DUP1 PUSH4 0x2A243F19 EQ PUSH2 0x4828 JUMPI DUP1 PUSH4 0x2E108D1C EQ PUSH2 0x45A9 JUMPI DUP1 PUSH4 0x2EE8B778 EQ PUSH2 0x458B JUMPI DUP1 PUSH4 0x2EFB53DA EQ PUSH2 0x455B JUMPI DUP1 PUSH4 0x2F2FF15D EQ PUSH2 0x44B0 JUMPI DUP1 PUSH4 0x2FF7A52D EQ PUSH2 0x4477 JUMPI DUP1 PUSH4 0x39D8EA42 EQ PUSH2 0x17EA JUMPI DUP1 PUSH4 0x3A65126A EQ PUSH2 0x4092 JUMPI DUP1 PUSH4 0x3BB4F638 EQ PUSH2 0x4074 JUMPI DUP1 PUSH4 0x3F781412 EQ PUSH2 0x4030 JUMPI DUP1 PUSH4 0x3FB83A54 EQ PUSH2 0x400F JUMPI DUP1 PUSH4 0x41FE39EC EQ PUSH2 0x3FE6 JUMPI DUP1 PUSH4 0x43F2A080 EQ PUSH2 0x3F46 JUMPI DUP1 PUSH4 0x49FAA4D4 EQ PUSH2 0x5F6 JUMPI DUP1 PUSH4 0x4B75344E EQ PUSH2 0x1AA2 JUMPI DUP1 PUSH4 0x4EB692A5 EQ PUSH2 0x3F14 JUMPI DUP1 PUSH4 0x4F55E8AD EQ PUSH2 0x3E90 JUMPI DUP1 PUSH4 0x52861F7F EQ PUSH2 0x3E6F JUMPI DUP1 PUSH4 0x56768B5E EQ PUSH2 0x3D21 JUMPI DUP1 PUSH4 0x59328401 EQ PUSH2 0x3AF8 JUMPI DUP1 PUSH4 0x59A9867E EQ PUSH2 0x3984 JUMPI DUP1 PUSH4 0x59DB6FE6 EQ PUSH2 0x3966 JUMPI DUP1 PUSH4 0x5C27B2E4 EQ PUSH2 0x3031 JUMPI DUP1 PUSH4 0x5C975ABB EQ PUSH2 0x300B JUMPI DUP1 PUSH4 0x67CAFABB EQ PUSH2 0x2FE1 JUMPI DUP1 PUSH4 0x6858A3F3 EQ PUSH2 0x2FB8 JUMPI DUP1 PUSH4 0x69396E88 EQ PUSH2 0x2F9C JUMPI DUP1 PUSH4 0x6CE497B2 EQ PUSH2 0x2EFA JUMPI DUP1 PUSH4 0x6E1D616E EQ PUSH2 0x2EBF JUMPI DUP1 PUSH4 0x715018A6 EQ PUSH2 0x2E62 JUMPI DUP1 PUSH4 0x71E4206D EQ PUSH2 0x2C1E JUMPI DUP1 PUSH4 0x74631FD7 EQ PUSH2 0x29C9 JUMPI DUP1 PUSH4 0x7550B84F EQ PUSH2 0x29AB JUMPI DUP1 PUSH4 0x75B238FC EQ PUSH2 0x2970 JUMPI DUP1 PUSH4 0x77CE2992 EQ PUSH2 0x2937 JUMPI DUP1 PUSH4 0x786A78C6 EQ PUSH2 0x28B2 JUMPI DUP1 PUSH4 0x79675127 EQ PUSH2 0x2888 JUMPI DUP1 PUSH4 0x7A7EB1F4 EQ PUSH2 0x2883 JUMPI DUP1 PUSH4 0x84A3A0F3 EQ PUSH2 0x2883 JUMPI DUP1 PUSH4 0x853B2B88 EQ PUSH2 0x2843 JUMPI DUP1 PUSH4 0x8543210D EQ PUSH2 0x2810 JUMPI DUP1 PUSH4 0x8C267E0D EQ PUSH2 0x12D9 JUMPI DUP1 PUSH4 0x8DA5CB5B EQ PUSH2 0x27E7 JUMPI DUP1 PUSH4 0x91D14854 EQ PUSH2 0x2782 JUMPI DUP1 PUSH4 0x920736E5 EQ PUSH2 0x2750 JUMPI DUP1 PUSH4 0x968D901B EQ PUSH2 0x2692 JUMPI DUP1 PUSH4 0x96F277B7 EQ PUSH2 0x241C JUMPI DUP1 PUSH4 0x9B5A139A EQ PUSH2 0x2670 JUMPI DUP1 PUSH4 0x9B6CCDE2 EQ PUSH2 0x2421 JUMPI DUP1 PUSH4 0x9B95F1FC EQ PUSH2 0x241C JUMPI DUP1 PUSH4 0x9CA423B3 EQ PUSH2 0x23B8 JUMPI DUP1 PUSH4 0x9E9E4056 EQ PUSH2 0x21E5 JUMPI DUP1 PUSH4 0xA04F6B4B EQ PUSH2 0x21C8 JUMPI DUP1 PUSH4 0xA154FC6B EQ PUSH2 0x2158 JUMPI DUP1 PUSH4 0xA2635401 EQ PUSH2 0x213A JUMPI DUP1 PUSH4 0xA2F77BCC EQ PUSH2 0x2059 JUMPI DUP1 PUSH4 0xA37C1572 EQ PUSH2 0x202A JUMPI DUP1 PUSH4 0xA88066F7 EQ PUSH2 0x202F JUMPI DUP1 PUSH4 0xA9B8B451 EQ PUSH2 0x202A JUMPI DUP1 PUSH4 0xAD763192 EQ PUSH2 0x1FB5 JUMPI DUP1 PUSH4 0xAEA664A5 EQ PUSH2 0x1F71 JUMPI DUP1 PUSH4 0xB87FC22D EQ PUSH2 0x1C25 JUMPI DUP1 PUSH4 0xB8CAEAD6 EQ PUSH2 0x1C07 JUMPI DUP1 PUSH4 0xBA53BA24 EQ PUSH2 0x1BB8 JUMPI DUP1 PUSH4 0xBACF46F3 EQ PUSH2 0x1B12 JUMPI DUP1 PUSH4 0xBB6BF0F0 EQ PUSH2 0x1AF4 JUMPI DUP1 PUSH4 0xBBC3CED7 EQ PUSH2 0x5F6 JUMPI DUP1 PUSH4 0xBCF64475 EQ PUSH2 0xE3F JUMPI DUP1 PUSH4 0xBF757624 EQ PUSH2 0x1AC5 JUMPI DUP1 PUSH4 0xC14E1E05 EQ PUSH2 0x1AA7 JUMPI DUP1 PUSH4 0xC5D32157 EQ PUSH2 0x1AA2 JUMPI DUP1 PUSH4 0xC65A8568 EQ PUSH2 0x1A72 JUMPI DUP1 PUSH4 0xCB955E6B EQ PUSH2 0x1856 JUMPI DUP1 PUSH4 0xCCB60E01 EQ PUSH2 0x1819 JUMPI DUP1 PUSH4 0xCF376677 EQ PUSH2 0x17EF JUMPI DUP1 PUSH4 0xD136A94D EQ PUSH2 0x17EA JUMPI DUP1 PUSH4 0xD2111791 EQ PUSH2 0x17C0 JUMPI DUP1 PUSH4 0xD547741F EQ PUSH2 0x1716 JUMPI DUP1 PUSH4 0xD5749D42 EQ PUSH2 0x16D7 JUMPI DUP1 PUSH4 0xD5FA40E3 EQ PUSH2 0x1491 JUMPI DUP1 PUSH4 0xD61B86BB EQ PUSH2 0x1467 JUMPI DUP1 PUSH4 0xDB2E21BC EQ PUSH2 0x12DE JUMPI DUP1 PUSH4 0xDD23B9CB EQ PUSH2 0x12D9 JUMPI DUP1 PUSH4 0xE22CB9C9 EQ PUSH2 0x1013 JUMPI DUP1 PUSH4 0xE2EB41FF EQ PUSH2 0xEE4 JUMPI DUP1 PUSH4 0xE3505B14 EQ PUSH2 0xE62 JUMPI DUP1 PUSH4 0xE3D440A7 EQ PUSH2 0xE44 JUMPI DUP1 PUSH4 0xE443E279 EQ PUSH2 0xE3F JUMPI DUP1 PUSH4 0xE82AEFC7 EQ PUSH2 0xD8D JUMPI DUP1 PUSH4 0xE8F6940E EQ PUSH2 0xC6E JUMPI DUP1 PUSH4 0xEB0FB2C8 EQ PUSH2 0x968 JUMPI DUP1 PUSH4 0xECB6159E EQ PUSH2 0x718 JUMPI DUP1 PUSH4 0xEE892E64 EQ PUSH2 0x6FA JUMPI DUP1 PUSH4 0xF2FDE38B EQ PUSH2 0x66F JUMPI DUP1 PUSH4 0xF5B541A6 EQ PUSH2 0x646 JUMPI DUP1 PUSH4 0xF711DCA4 EQ PUSH2 0x5FB JUMPI DUP1 PUSH4 0xF8172FE3 EQ PUSH2 0x5F6 JUMPI DUP1 PUSH4 0xF877A8AF EQ PUSH2 0x5C1 JUMPI DUP1 PUSH4 0xF8FC08B9 EQ PUSH2 0x575 JUMPI PUSH4 0xFFC39504 EQ PUSH2 0x549 JUMPI PUSH1 0x0 DUP1 REVERT JUMPDEST CALLVALUE PUSH2 0x572 JUMPI PUSH1 0x20 CALLDATASIZE PUSH1 0x3 NOT ADD SLT PUSH2 0x572 JUMPI PUSH1 0x40 PUSH1 0x20 SWAP2 PUSH1 0x4 CALLDATALOAD DUP2 MSTORE PUSH1 0xC DUP4 MSTORE KECCAK256 SLOAD PUSH1 0x40 MLOAD SWAP1 DUP2 MSTORE RETURN JUMPDEST DUP1 REVERT JUMPDEST POP CALLVALUE PUSH2 0x572 JUMPI PUSH1 0x40 CALLDATASIZE PUSH1 0x3 NOT ADD SLT PUSH2 0x572 JUMPI PUSH1 0x40 PUSH2 0x591 PUSH2 0x52AE JUMP JUMPDEST SWAP2 PUSH1 0x4 CALLDATALOAD DUP2 MSTORE PUSH1 0x1C PUSH1 0x20 MSTORE KECCAK256 SWAP1 PUSH1 0x1 DUP1 PUSH1 0xA0 SHL SUB AND PUSH1 0x0 MSTORE PUSH1 0x20 MSTORE PUSH1 0x20 PUSH1 0xFF PUSH1 0x40 PUSH1 0x0 KECCAK256 SLOAD AND PUSH1 0x40 MLOAD SWAP1 ISZERO ISZERO DUP2 MSTORE RETURN JUMPDEST POP CALLVALUE PUSH2 0x572 JUMPI PUSH1 0x20 CALLDATASIZE PUSH1 0x3 NOT ADD SLT PUSH2 0x572 JUMPI PUSH2 0x5DB PUSH2 0x5536 JUMP JUMPDEST PUSH2 0x5E3 PUSH2 0x643F JUMP JUMPDEST PUSH1 0xFF DUP1 NOT PUSH1 0x16 SLOAD AND SWAP2 ISZERO ISZERO AND OR PUSH1 0x16 SSTORE DUP1 RETURN JUMPDEST PUSH2 0x531C JUMP JUMPDEST POP CALLVALUE PUSH2 0x572 JUMPI PUSH2 0x60A CALLDATASIZE PUSH2 0x52D8 JUMP JUMPDEST SWAP2 SWAP1 DUP2 MSTORE PUSH1 0x15 PUSH1 0x20 MSTORE PUSH1 0x40 DUP2 KECCAK256 SWAP1 DUP2 SLOAD DUP4 LT ISZERO PUSH2 0x572 JUMPI PUSH1 0x20 PUSH2 0x62D DUP5 DUP5 PUSH2 0x52EE JUMP JUMPDEST SWAP1 SLOAD PUSH1 0x40 MLOAD PUSH1 0x3 SWAP3 SWAP1 SWAP3 SHL SHR PUSH1 0x1 PUSH1 0x1 PUSH1 0xA0 SHL SUB AND DUP2 MSTORE RETURN JUMPDEST POP CALLVALUE PUSH2 0x572 JUMPI DUP1 PUSH1 0x3 NOT CALLDATASIZE ADD SLT PUSH2 0x572 JUMPI PUSH1 0x20 PUSH1 0x40 MLOAD PUSH1 0x0 DUP1 MLOAD PUSH1 0x20 PUSH2 0x70F9 DUP4 CODECOPY DUP2 MLOAD SWAP2 MSTORE DUP2 MSTORE RETURN JUMPDEST POP CALLVALUE PUSH2 0x572 JUMPI PUSH1 0x20 CALLDATASIZE PUSH1 0x3 NOT ADD SLT PUSH2 0x572 JUMPI PUSH2 0x689 PUSH2 0x5298 JUMP JUMPDEST PUSH2 0x691 PUSH2 0x643F JUMP JUMPDEST PUSH1 0x1 PUSH1 0x1 PUSH1 0xA0 SHL SUB SWAP1 DUP2 AND SWAP1 DUP2 ISZERO PUSH2 0x6E1 JUMPI PUSH1 0x1 SLOAD DUP3 PUSH1 0x1 PUSH1 0x1 PUSH1 0x60 SHL SUB PUSH1 0xA0 SHL DUP3 AND OR PUSH1 0x1 SSTORE AND PUSH32 0x8BE0079C531659141344CD1FD0A4F28419497F9722A3DAAFE3B4186F6B6457E0 PUSH1 0x0 DUP1 LOG3 DUP1 RETURN JUMPDEST PUSH1 0x40 MLOAD PUSH4 0x1E4FBDF7 PUSH1 0xE0 SHL DUP2 MSTORE PUSH1 0x4 DUP2 ADD DUP5 SWAP1 MSTORE PUSH1 0x24 SWAP1 REVERT JUMPDEST POP CALLVALUE PUSH2 0x572 JUMPI DUP1 PUSH1 0x3 NOT CALLDATASIZE ADD SLT PUSH2 0x572 JUMPI PUSH1 0x20 PUSH1 0x29 SLOAD PUSH1 0x40 MLOAD SWAP1 DUP2 MSTORE RETURN JUMPDEST POP CALLVALUE PUSH2 0x572 JUMPI DUP1 PUSH1 0x3 NOT CALLDATASIZE ADD SLT PUSH2 0x572 JUMPI PUSH1 0x0 DUP1 MLOAD PUSH1 0x20 PUSH2 0x70F9 DUP4 CODECOPY DUP2 MLOAD SWAP2 MSTORE DUP2 MSTORE PUSH1 0x20 PUSH1 0x1C DUP2 MSTORE PUSH1 0x40 DUP3 KECCAK256 CALLER PUSH1 0x0 MSTORE DUP2 MSTORE PUSH1 0xFF PUSH1 0x40 PUSH1 0x0 KECCAK256 SLOAD AND DUP1 ISZERO PUSH2 0x954 JUMPI JUMPDEST PUSH2 0x763 SWAP1 PUSH2 0x59B7 JUMP JUMPDEST PUSH2 0x76B PUSH2 0x646B JUMP JUMPDEST PUSH2 0x779 PUSH1 0xFF PUSH1 0x16 SLOAD AND PUSH2 0x62ED JUMP JUMPDEST PUSH1 0x3 SLOAD PUSH1 0x1 PUSH1 0x1 PUSH1 0xA0 SHL SUB AND PUSH2 0x790 DUP2 ISZERO ISZERO PUSH2 0x632B JUMP JUMPDEST PUSH1 0x9 SLOAD PUSH3 0x93A80 DUP2 ADD DUP1 SWAP2 GT PUSH2 0x940 JUMPI PUSH2 0x7AC SWAP1 TIMESTAMP LT ISZERO PUSH2 0x5E40 JUMP JUMPDEST PUSH1 0x5 SLOAD PUSH1 0x40 MLOAD PUSH4 0xCCB60E01 PUSH1 0xE0 SHL DUP2 MSTORE PUSH1 0x4 DUP2 ADD DUP3 SWAP1 MSTORE SWAP2 SWAP1 DUP5 DUP4 PUSH1 0x24 DUP2 ADDRESS GAS STATICCALL SWAP3 DUP4 ISZERO PUSH2 0x935 JUMPI DUP6 SWAP4 PUSH2 0x911 JUMPI JUMPDEST POP DUP3 MLOAD ISZERO PUSH2 0x8C0 JUMPI SWAP2 DUP4 SWAP2 PUSH2 0x814 SWAP4 DUP7 PUSH1 0x40 MLOAD DUP1 SWAP7 DUP2 SWAP6 DUP3 SWAP5 PUSH4 0x1B9540CF PUSH1 0xE2 SHL DUP5 MSTORE PUSH1 0x4 DUP5 ADD MSTORE PUSH1 0x40 PUSH1 0x24 DUP5 ADD MSTORE PUSH1 0x44 DUP4 ADD SWAP1 PUSH2 0x56EB JUMP JUMPDEST SUB SWAP3 GAS CALL SWAP1 DUP2 ISZERO PUSH2 0x8B5 JUMPI DUP4 SWAP2 PUSH2 0x883 JUMPI JUMPDEST POP DUP1 DUP4 MSTORE PUSH1 0x14 DUP3 MSTORE PUSH1 0x40 DUP4 KECCAK256 PUSH1 0x1 PUSH1 0xFF NOT DUP3 SLOAD AND OR SWAP1 SSTORE PUSH32 0x1D1A4959F28ECF85850610491C8F5914A90BD2CAA95E91257B24B2511D715F7A PUSH1 0x60 PUSH1 0x5 SLOAD SWAP4 PUSH1 0x6 PUSH1 0x40 MLOAD SWAP2 DUP1 DUP4 MSTORE DUP3 ADD MSTORE PUSH6 0x7765656B6C79 PUSH1 0xD0 SHL PUSH1 0x40 DUP3 ADD MSTORE LOG3 DUP1 RETURN JUMPDEST SWAP1 POP DUP2 DUP2 DUP2 RETURNDATASIZE DUP4 GT PUSH2 0x8AE JUMPI JUMPDEST PUSH2 0x89A DUP2 DUP4 PUSH2 0x543C JUMP JUMPDEST DUP2 ADD SUB SLT PUSH2 0x8A9 JUMPI MLOAD CODESIZE PUSH2 0x826 JUMP JUMPDEST PUSH1 0x0 DUP1 REVERT JUMPDEST POP RETURNDATASIZE PUSH2 0x890 JUMP JUMPDEST PUSH1 0x40 MLOAD RETURNDATASIZE DUP6 DUP3 RETURNDATACOPY RETURNDATASIZE SWAP1 REVERT JUMPDEST PUSH1 0x40 MLOAD PUSH3 0x461BCD PUSH1 0xE5 SHL DUP2 MSTORE PUSH1 0x4 DUP2 ADD DUP6 SWAP1 MSTORE PUSH1 0x23 PUSH1 0x24 DUP3 ADD MSTORE PUSH32 0x4E6F20656C696769626C6520706C617965727320666F72207765656B6C792064 PUSH1 0x44 DUP3 ADD MSTORE PUSH3 0x726177 PUSH1 0xE8 SHL PUSH1 0x64 DUP3 ADD MSTORE PUSH1 0x84 SWAP1 REVERT JUMPDEST PUSH2 0x92E SWAP2 SWAP4 POP RETURNDATASIZE DUP1 DUP8 DUP4 RETURNDATACOPY PUSH2 0x926 DUP2 DUP4 PUSH2 0x543C JUMP JUMPDEST DUP2 ADD SWAP1 PUSH2 0x636E JUMP JUMPDEST SWAP2 CODESIZE PUSH2 0x7DB JUMP JUMPDEST PUSH1 0x40 MLOAD RETURNDATASIZE DUP8 DUP3 RETURNDATACOPY RETURNDATASIZE SWAP1 REVERT JUMPDEST PUSH4 0x4E487B71 PUSH1 0xE0 SHL DUP5 MSTORE PUSH1 0x11 PUSH1 0x4 MSTORE PUSH1 0x24 DUP5 REVERT JUMPDEST POP PUSH1 0x1 SLOAD PUSH1 0x1 PUSH1 0x1 PUSH1 0xA0 SHL SUB AND CALLER EQ PUSH2 0x75A JUMP JUMPDEST POP CALLVALUE PUSH2 0x572 JUMPI DUP1 PUSH1 0x3 NOT CALLDATASIZE ADD SLT PUSH2 0x572 JUMPI PUSH1 0x0 DUP1 MLOAD PUSH1 0x20 PUSH2 0x70F9 DUP4 CODECOPY DUP2 MLOAD SWAP2 MSTORE DUP2 MSTORE PUSH1 0x20 PUSH1 0x1C DUP2 MSTORE PUSH1 0x40 DUP3 KECCAK256 CALLER PUSH1 0x0 MSTORE DUP2 MSTORE PUSH1 0xFF PUSH1 0x40 PUSH1 0x0 KECCAK256 SLOAD AND DUP1 ISZERO PUSH2 0xC5A JUMPI JUMPDEST PUSH2 0x9B3 SWAP1 PUSH2 0x59B7 JUMP JUMPDEST PUSH2 0x9BB PUSH2 0x646B JUMP JUMPDEST PUSH1 0xA SWAP1 PUSH1 0xA SLOAD ISZERO PUSH2 0xC16 JUMPI PUSH1 0x0 NOT NUMBER ADD NUMBER DUP2 GT PUSH2 0x940 JUMPI PUSH1 0x13 SLOAD PUSH1 0x40 MLOAD SWAP1 DUP4 DUP3 ADD SWAP3 TIMESTAMP DUP5 MSTORE PREVRANDAO PUSH1 0x40 DUP5 ADD MSTORE BLOCKHASH PUSH1 0x60 DUP4 ADD MSTORE CALLER PUSH1 0x60 SHL PUSH1 0x80 DUP4 ADD MSTORE PUSH1 0x94 DUP3 ADD MSTORE PUSH1 0x94 DUP2 MSTORE PUSH2 0xA07 DUP2 PUSH2 0x5405 JUMP JUMPDEST MLOAD SWAP1 KECCAK256 SWAP2 PUSH2 0xA17 DUP4 PUSH1 0x5 SLOAD PUSH2 0x6D6E JUMP JUMPDEST SWAP4 PUSH1 0x6 SLOAD PUSH1 0x3 SHR SWAP3 DUP2 JUMPDEST DUP7 MLOAD DUP2 LT ISZERO PUSH2 0xB9A JUMPI PUSH1 0x1 PUSH1 0x1 PUSH1 0xA0 SHL SUB DUP1 PUSH2 0xA3D DUP4 DUP11 PUSH2 0x5A61 JUMP JUMPDEST MLOAD AND PUSH2 0xA4D JUMPI JUMPDEST POP PUSH1 0x1 ADD PUSH2 0xA21 JUMP JUMPDEST PUSH2 0xA8F DUP4 DUP8 DUP4 PUSH2 0xA5D DUP7 DUP14 PUSH2 0x5A61 JUMP JUMPDEST MLOAD PUSH1 0x40 MLOAD PUSH4 0xA9059CBB PUSH1 0xE0 SHL DUP2 MSTORE SWAP2 AND PUSH1 0x1 PUSH1 0x1 PUSH1 0xA0 SHL SUB AND PUSH1 0x4 DUP3 ADD MSTORE PUSH1 0x24 DUP2 ADD SWAP2 SWAP1 SWAP2 MSTORE SWAP2 DUP3 SWAP1 DUP2 SWAP1 PUSH1 0x44 DUP3 ADD SWAP1 JUMP JUMPDEST SUB DUP2 DUP9 DUP7 PUSH32 0x0 AND GAS CALL SWAP1 DUP2 ISZERO PUSH2 0x935 JUMPI SWAP1 PUSH2 0xAD0 SWAP2 DUP7 SWAP2 PUSH2 0xB6D JUMPI JUMPDEST POP PUSH2 0x63F7 JUMP JUMPDEST DUP1 PUSH2 0xADB DUP4 DUP11 PUSH2 0x5A61 JUMP JUMPDEST MLOAD AND DUP5 MSTORE PUSH1 0x1E DUP4 MSTORE PUSH1 0x40 DUP5 KECCAK256 DUP1 SLOAD SWAP1 DUP7 DUP3 ADD DUP1 SWAP3 GT PUSH2 0xB59 JUMPI SSTORE PUSH1 0x1 SWAP2 SWAP1 PUSH2 0xB03 DUP3 DUP11 PUSH2 0x5A61 JUMP JUMPDEST MLOAD AND PUSH1 0x0 DUP1 MLOAD PUSH1 0x20 PUSH2 0x7139 DUP4 CODECOPY DUP2 MLOAD SWAP2 MSTORE PUSH1 0x40 MLOAD DUP1 PUSH2 0xB50 DUP2 PUSH1 0x80 SWAP1 PUSH1 0xA DUP2 MSTORE PUSH1 0x40 PUSH1 0x20 DUP3 ADD MSTORE PUSH1 0x12 PUSH1 0x40 DUP3 ADD MSTORE PUSH18 0x4461696C792077696E6E657220626F6E7573 PUSH1 0x70 SHL PUSH1 0x60 DUP3 ADD MSTORE ADD SWAP1 JUMP JUMPDEST SUB SWAP1 LOG2 SWAP1 PUSH2 0xA44 JUMP JUMPDEST PUSH4 0x4E487B71 PUSH1 0xE0 SHL DUP7 MSTORE PUSH1 0x11 PUSH1 0x4 MSTORE PUSH1 0x24 DUP7 REVERT JUMPDEST PUSH2 0xB8D SWAP2 POP DUP6 RETURNDATASIZE DUP8 GT PUSH2 0xB93 JUMPI JUMPDEST PUSH2 0xB85 DUP2 DUP4 PUSH2 0x543C JUMP JUMPDEST DUP2 ADD SWAP1 PUSH2 0x5AC6 JUMP JUMPDEST CODESIZE PUSH2 0xACA JUMP JUMPDEST POP RETURNDATASIZE PUSH2 0xB7B JUMP JUMPDEST POP PUSH32 0x9F22D2B65D1E9BEF93DA4067644E4EAD3BD41C9D3FC8568887CC572B482E6CB7 SWAP1 DUP6 PUSH2 0xC08 DUP9 PUSH1 0x5 SLOAD SWAP3 PUSH1 0x0 DUP1 MLOAD PUSH1 0x20 PUSH2 0x7119 DUP4 CODECOPY DUP2 MLOAD SWAP2 MSTORE PUSH2 0xBE9 PUSH1 0x6 SLOAD PUSH1 0x40 MLOAD SWAP2 DUP3 SWAP2 DUP7 DUP10 DUP5 PUSH2 0x5A84 JUMP JUMPDEST SUB SWAP1 LOG1 PUSH1 0x40 MLOAD SWAP5 DUP6 SWAP5 DUP6 MSTORE DUP5 ADD MSTORE PUSH1 0x60 PUSH1 0x40 DUP5 ADD MSTORE PUSH1 0x60 DUP4 ADD SWAP1 PUSH2 0x56EB JUMP JUMPDEST SUB SWAP1 LOG1 PUSH2 0xC13 PUSH2 0x679A JUMP JUMPDEST DUP1 RETURN JUMPDEST PUSH1 0x64 SWAP1 PUSH1 0x40 MLOAD SWAP1 PUSH3 0x461BCD PUSH1 0xE5 SHL DUP3 MSTORE PUSH1 0x4 DUP3 ADD MSTORE PUSH1 0x1D PUSH1 0x24 DUP3 ADD MSTORE PUSH32 0x4E6F2072616E646F6D6E65737320726F756E6420726571756573746564000000 PUSH1 0x44 DUP3 ADD MSTORE REVERT JUMPDEST POP PUSH1 0x1 SLOAD PUSH1 0x1 PUSH1 0x1 PUSH1 0xA0 SHL SUB AND CALLER EQ PUSH2 0x9AA JUMP JUMPDEST POP CALLVALUE PUSH2 0x572 JUMPI PUSH1 0x20 CALLDATASIZE PUSH1 0x3 NOT ADD SLT PUSH2 0x572 JUMPI PUSH2 0xC88 PUSH2 0x5536 JUMP JUMPDEST PUSH2 0xC90 PUSH2 0x643F JUMP JUMPDEST DUP1 ISZERO PUSH2 0xD0D JUMPI PUSH1 0x20 PUSH32 0xB80D1AE5628C2AF91424C54C87ACFD15016BE4BEBEEF0425B328238702F34831 SWAP2 PUSH2 0xCC2 PUSH2 0x646B JUMP JUMPDEST PUSH1 0x1 DUP1 SLOAD PUSH1 0xFF PUSH1 0xA0 SHL NOT AND PUSH1 0x1 PUSH1 0xA0 SHL OR SWAP1 SSTORE PUSH1 0x40 MLOAD CALLER DUP2 MSTORE PUSH32 0x62E78CEA01BEE320CD4E420270B5EA74000D11B0C9F74754EBDBFC544B05A258 SWAP1 DUP4 SWAP1 LOG1 JUMPDEST PUSH1 0x40 MLOAD SWAP1 ISZERO ISZERO DUP2 MSTORE LOG1 DUP1 RETURN JUMPDEST PUSH1 0x1 SLOAD PUSH1 0xFF DUP2 PUSH1 0xA0 SHR AND ISZERO PUSH2 0xD7B JUMPI PUSH1 0xFF PUSH1 0xA0 SHL NOT AND PUSH1 0x1 SSTORE PUSH1 0x40 MLOAD CALLER DUP2 MSTORE PUSH32 0xB80D1AE5628C2AF91424C54C87ACFD15016BE4BEBEEF0425B328238702F34831 SWAP2 PUSH1 0x20 SWAP2 PUSH32 0x5DB9EE0A495BF2E6FF9C91A7834C1BA4FDD244A5E8AA4E537BD38AEAE4B073AA SWAP1 DUP4 SWAP1 LOG1 PUSH2 0xD01 JUMP JUMPDEST PUSH1 0x40 MLOAD PUSH4 0x8DFC202B PUSH1 0xE0 SHL DUP2 MSTORE PUSH1 0x4 SWAP1 REVERT JUMPDEST POP CALLVALUE PUSH2 0x572 JUMPI PUSH1 0x20 CALLDATASIZE PUSH1 0x3 NOT ADD SLT PUSH2 0x572 JUMPI PUSH1 0x4 CALLDATALOAD PUSH32 0xBF233DD2AAFEB4D50879C4AA5C81E96D92F6E6945C906A58F9F2D1C1631B4B26 DUP3 MSTORE PUSH1 0x1C PUSH1 0x20 MSTORE PUSH1 0x40 DUP3 KECCAK256 CALLER PUSH1 0x0 MSTORE PUSH1 0x20 MSTORE PUSH1 0xFF PUSH1 0x40 PUSH1 0x0 KECCAK256 SLOAD AND DUP1 ISZERO PUSH2 0xE2B JUMPI JUMPDEST PUSH2 0xDEE SWAP1 PUSH2 0x59B7 JUMP JUMPDEST DUP1 DUP3 MSTORE PUSH1 0x17 PUSH1 0x20 MSTORE PUSH1 0x40 DUP3 KECCAK256 DUP1 SLOAD PUSH1 0xFF NOT AND SWAP1 SSTORE CALLER SWAP1 PUSH32 0x6D01469F672CD6CB0434A128CAC9B91DC60A83E67A56BE9FB5F265C18D29C7C5 DUP4 DUP1 LOG3 DUP1 RETURN JUMPDEST POP PUSH1 0x1 SLOAD PUSH1 0x1 PUSH1 0x1 PUSH1 0xA0 SHL SUB AND CALLER EQ PUSH2 0xDE5 JUMP JUMPDEST PUSH2 0x57C7 JUMP JUMPDEST POP CALLVALUE PUSH2 0x572 JUMPI DUP1 PUSH1 0x3 NOT CALLDATASIZE ADD SLT PUSH2 0x572 JUMPI PUSH1 0x20 PUSH1 0x6 SLOAD PUSH1 0x40 MLOAD SWAP1 DUP2 MSTORE RETURN JUMPDEST POP CALLVALUE PUSH2 0x572 JUMPI PUSH1 0x40 CALLDATASIZE PUSH1 0x3 NOT ADD SLT PUSH2 0x572 JUMPI PUSH2 0xE7C PUSH2 0x646B JUMP JUMPDEST PUSH1 0x2 SLOAD DUP2 SWAP1 PUSH1 0x1 PUSH1 0x1 PUSH1 0xA0 SHL SUB AND DUP1 EXTCODESIZE ISZERO PUSH2 0xEE1 JUMPI DUP2 DUP1 SWAP2 PUSH1 0x44 PUSH1 0x40 MLOAD DUP1 SWAP5 DUP2 SWAP4 PUSH4 0x39A8F677 PUSH1 0xE2 SHL DUP4 MSTORE PUSH1 0x4 CALLDATALOAD PUSH1 0x4 DUP5 ADD MSTORE PUSH1 0x24 CALLDATALOAD PUSH1 0x24 DUP5 ADD MSTORE GAS CALL DUP1 ISZERO PUSH2 0xED6 JUMPI PUSH2 0xEC6 JUMPI POP RETURN JUMPDEST PUSH2 0xECF SWAP1 PUSH2 0x53A1 JUMP JUMPDEST PUSH2 0x572 JUMPI DUP1 RETURN JUMPDEST PUSH1 0x40 MLOAD RETURNDATASIZE DUP5 DUP3 RETURNDATACOPY RETURNDATASIZE SWAP1 REVERT JUMPDEST POP REVERT JUMPDEST POP CALLVALUE PUSH2 0x572 JUMPI PUSH1 0x20 CALLDATASIZE PUSH1 0x3 NOT ADD SLT PUSH2 0x572 JUMPI PUSH1 0x1 PUSH1 0x1 PUSH1 0xA0 SHL SUB PUSH2 0xF06 PUSH2 0x5298 JUMP JUMPDEST AND DUP2 MSTORE PUSH1 0x1E PUSH1 0x20 MSTORE PUSH1 0x40 SWAP1 KECCAK256 DUP1 DUP1 DUP1 SLOAD PUSH1 0x1 DUP3 ADD SLOAD PUSH1 0xC0 MSTORE PUSH1 0x2 DUP3 ADD SLOAD PUSH1 0x3 DUP4 ADD SLOAD PUSH1 0x4 DUP5 ADD SLOAD PUSH1 0x5 DUP6 ADD SLOAD PUSH1 0x6 DUP7 ADD SLOAD PUSH1 0xFF AND PUSH1 0x7 DUP8 ADD SLOAD SWAP1 PUSH1 0x8 DUP9 ADD SLOAD SWAP3 PUSH1 0x9 DUP10 ADD SLOAD SWAP5 PUSH1 0xA DUP11 ADD SLOAD SWAP7 PUSH1 0xB DUP12 ADD SLOAD SWAP9 PUSH1 0xC DUP13 ADD SLOAD SWAP11 PUSH1 0xD DUP14 ADD SLOAD PUSH1 0xFF AND SWAP13 PUSH1 0xE ADD SLOAD SWAP14 PUSH1 0xF ADD SLOAD SWAP15 PUSH1 0x10 ADD SLOAD PUSH1 0xFF AND PUSH1 0x80 MSTORE PUSH1 0x40 MLOAD PUSH1 0xA0 MSTORE PUSH1 0xA0 MLOAD MSTORE PUSH1 0xC0 MLOAD PUSH1 0xA0 MLOAD PUSH1 0x20 ADD MSTORE PUSH1 0xA0 MLOAD PUSH1 0x40 ADD MSTORE PUSH1 0xA0 MLOAD PUSH1 0x60 ADD MSTORE PUSH1 0xA0 MLOAD PUSH1 0x80 ADD MSTORE PUSH1 0xA0 MLOAD PUSH1 0xA0 ADD MSTORE ISZERO ISZERO PUSH1 0xA0 MLOAD PUSH1 0xC0 ADD MSTORE PUSH1 0xA0 MLOAD PUSH1 0xE0 ADD MSTORE PUSH1 0xA0 MLOAD PUSH2 0x100 ADD MSTORE PUSH1 0xA0 MLOAD PUSH2 0x120 ADD MSTORE PUSH1 0xA0 MLOAD PUSH2 0x140 ADD MSTORE PUSH1 0xA0 MLOAD PUSH2 0x160 ADD MSTORE PUSH1 0xA0 MLOAD PUSH2 0x180 ADD MSTORE ISZERO ISZERO PUSH1 0xA0 MLOAD PUSH2 0x1A0 ADD MSTORE PUSH1 0xA0 MLOAD PUSH2 0x1C0 ADD MSTORE PUSH1 0xA0 MLOAD PUSH2 0x1E0 ADD MSTORE PUSH1 0x80 MLOAD ISZERO ISZERO PUSH1 0xA0 MLOAD PUSH2 0x200 ADD MSTORE PUSH1 0xA0 MLOAD PUSH2 0x220 SWAP1 RETURN JUMPDEST POP CALLVALUE PUSH2 0x572 JUMPI DUP1 PUSH1 0x3 NOT CALLDATASIZE ADD SLT PUSH2 0x572 JUMPI PUSH2 0x102C PUSH2 0x64E9 JUMP JUMPDEST PUSH2 0x1034 PUSH2 0x646B JUMP JUMPDEST CALLER DUP2 MSTORE PUSH1 0x20 PUSH1 0x22 DUP2 MSTORE PUSH2 0x104E PUSH1 0xFF PUSH1 0x40 DUP5 KECCAK256 SLOAD AND ISZERO PUSH2 0x5841 JUMP JUMPDEST CALLER DUP3 MSTORE PUSH1 0x1E DUP1 DUP3 MSTORE PUSH2 0x106A PUSH1 0xFF PUSH1 0x6 PUSH1 0x40 DUP7 KECCAK256 ADD SLOAD AND ISZERO PUSH2 0x5841 JUMP JUMPDEST CALLER DUP4 MSTORE DUP1 DUP3 MSTORE PUSH1 0xC PUSH1 0x40 DUP5 KECCAK256 ADD SLOAD PUSH3 0x15180 DUP2 ADD DUP1 SWAP2 GT PUSH2 0x940 JUMPI PUSH2 0x1091 SWAP1 TIMESTAMP LT ISZERO PUSH2 0x5885 JUMP JUMPDEST CALLER DUP4 MSTORE DUP1 DUP3 MSTORE PUSH2 0x10AA PUSH1 0x64 PUSH1 0xE PUSH1 0x40 DUP7 KECCAK256 ADD SLOAD LT PUSH2 0x58D1 JUMP JUMPDEST CALLER DUP4 MSTORE DUP1 DUP3 MSTORE PUSH1 0xFF PUSH1 0xD PUSH1 0x40 DUP6 KECCAK256 ADD SLOAD AND PUSH2 0x1289 JUMPI CALLER DUP4 MSTORE DUP1 DUP3 MSTORE PUSH1 0x1 PUSH1 0x9 PUSH1 0x40 DUP6 KECCAK256 ADD SLOAD LT PUSH2 0x1244 JUMPI CALLER PUSH1 0x0 MSTORE PUSH1 0x24 SWAP1 DUP2 DUP4 MSTORE PUSH1 0x40 PUSH1 0x0 KECCAK256 SLOAD PUSH1 0x5 DUP2 ADD DUP1 SWAP2 GT PUSH2 0x11EB JUMPI PUSH1 0x64 DUP2 GT PUSH2 0x1200 JUMPI CALLER PUSH1 0x0 MSTORE DUP3 DUP5 MSTORE PUSH1 0x40 PUSH1 0x0 KECCAK256 SSTORE DUP1 DUP4 MSTORE PUSH1 0xE PUSH1 0x40 PUSH1 0x0 KECCAK256 ADD SLOAD PUSH1 0x5 DUP2 ADD DUP1 SWAP2 GT PUSH2 0x11EB JUMPI CALLER PUSH1 0x0 MSTORE DUP2 DUP5 MSTORE PUSH1 0xE PUSH1 0x40 PUSH1 0x0 KECCAK256 ADD SSTORE CALLER DUP5 MSTORE DUP1 DUP4 MSTORE PUSH1 0x40 DUP5 KECCAK256 PUSH1 0xD DUP2 ADD PUSH1 0x1 PUSH1 0xFF NOT DUP3 SLOAD AND OR SWAP1 SSTORE SLOAD SWAP2 PUSH1 0x5 DUP4 ADD DUP1 SWAP4 GT PUSH2 0x11D9 JUMPI POP CALLER DUP5 MSTORE DUP3 MSTORE PUSH1 0x40 DUP4 KECCAK256 SWAP1 DUP2 SSTORE PUSH1 0xC TIMESTAMP SWAP2 ADD SSTORE PUSH1 0x40 MLOAD PUSH1 0x5 DUP2 MSTORE PUSH32 0x666FF46B6B5A0789C7D628ECFA8A5975B192B7D3541FC30B22DA07A9B3D4DDBC DUP3 CALLER SWAP3 LOG2 PUSH1 0x40 DUP1 MLOAD SWAP2 PUSH1 0x5 DUP4 MSTORE DUP3 ADD MSTORE PUSH1 0x12 PUSH1 0x40 DUP3 ADD MSTORE PUSH18 0x119A5C9CDD081BDC99195C881C995DD85C99 PUSH1 0x72 SHL PUSH1 0x60 DUP3 ADD MSTORE PUSH1 0x0 DUP1 MLOAD PUSH1 0x20 PUSH2 0x7139 DUP4 CODECOPY DUP2 MLOAD SWAP2 MSTORE PUSH1 0x80 CALLER SWAP3 LOG2 PUSH1 0x1 DUP2 SSTORE DUP1 RETURN JUMPDEST PUSH4 0x4E487B71 PUSH1 0xE0 SHL DUP6 MSTORE PUSH1 0x11 PUSH1 0x4 MSTORE DUP5 REVERT JUMPDEST DUP3 PUSH4 0x4E487B71 PUSH1 0xE0 SHL PUSH1 0x0 MSTORE PUSH1 0x11 PUSH1 0x4 MSTORE PUSH1 0x0 REVERT JUMPDEST PUSH1 0x40 MLOAD PUSH3 0x461BCD PUSH1 0xE5 SHL DUP2 MSTORE PUSH1 0x4 DUP2 ADD DUP6 SWAP1 MSTORE PUSH1 0x1B DUP2 DUP6 ADD MSTORE PUSH32 0x4461696C7920726577617264206C696D69742065786365656465640000000000 PUSH1 0x44 DUP3 ADD MSTORE PUSH1 0x64 SWAP1 REVERT JUMPDEST PUSH1 0x40 MLOAD PUSH3 0x461BCD PUSH1 0xE5 SHL DUP2 MSTORE PUSH1 0x4 DUP2 ADD DUP4 SWAP1 MSTORE PUSH1 0x18 PUSH1 0x24 DUP3 ADD MSTORE PUSH32 0x4E6F206669727374206F7264657220636F6D706C657465640000000000000000 PUSH1 0x44 DUP3 ADD MSTORE PUSH1 0x64 SWAP1 REVERT JUMPDEST PUSH1 0x40 MLOAD PUSH3 0x461BCD PUSH1 0xE5 SHL DUP2 MSTORE PUSH1 0x4 DUP2 ADD DUP4 SWAP1 MSTORE PUSH1 0x22 PUSH1 0x24 DUP3 ADD MSTORE PUSH32 0x4669727374206F726465722072657761726420616C726561647920636C61696D PUSH1 0x44 DUP3 ADD MSTORE PUSH2 0x1959 PUSH1 0xF2 SHL PUSH1 0x64 DUP3 ADD MSTORE PUSH1 0x84 SWAP1 REVERT JUMPDEST PUSH2 0x56CF JUMP JUMPDEST POP CALLVALUE PUSH2 0x572 JUMPI DUP1 PUSH1 0x3 NOT CALLDATASIZE ADD SLT PUSH2 0x572 JUMPI PUSH2 0x12F7 PUSH2 0x643F JUMP JUMPDEST PUSH1 0x40 MLOAD PUSH4 0x70A08231 PUSH1 0xE0 SHL DUP2 MSTORE ADDRESS PUSH1 0x4 DUP3 ADD MSTORE PUSH1 0x20 SWAP1 PUSH1 0x1 PUSH1 0x1 PUSH1 0xA0 SHL SUB PUSH32 0x0 DUP2 AND SWAP1 DUP4 DUP4 PUSH1 0x24 DUP2 DUP6 GAS STATICCALL SWAP3 DUP4 ISZERO PUSH2 0x935 JUMPI DUP6 SWAP4 PUSH2 0x1438 JUMPI JUMPDEST POP DUP3 ISZERO PUSH2 0x13FA JUMPI PUSH1 0x1 SLOAD PUSH1 0x40 MLOAD PUSH4 0xA9059CBB PUSH1 0xE0 SHL DUP2 MSTORE SWAP2 AND PUSH1 0x1 PUSH1 0x1 PUSH1 0xA0 SHL SUB AND PUSH1 0x4 DUP3 ADD MSTORE PUSH1 0x24 DUP2 ADD SWAP3 SWAP1 SWAP3 MSTORE DUP3 SWAP1 DUP3 SWAP1 DUP2 DUP7 DUP2 PUSH1 0x44 DUP2 ADD SUB SWAP3 GAS CALL SWAP1 DUP2 ISZERO PUSH2 0x8B5 JUMPI DUP4 SWAP2 PUSH2 0x13DD JUMPI JUMPDEST POP ISZERO PUSH2 0x13A5 JUMPI POP DUP1 RETURN JUMPDEST PUSH1 0x64 SWAP1 PUSH1 0x40 MLOAD SWAP1 PUSH3 0x461BCD PUSH1 0xE5 SHL DUP3 MSTORE PUSH1 0x4 DUP3 ADD MSTORE PUSH1 0x11 PUSH1 0x24 DUP3 ADD MSTORE PUSH17 0x15DA5D1A191C985DD85B0819985A5B1959 PUSH1 0x7A SHL PUSH1 0x44 DUP3 ADD MSTORE REVERT JUMPDEST PUSH2 0x13F4 SWAP2 POP DUP3 RETURNDATASIZE DUP5 GT PUSH2 0xB93 JUMPI PUSH2 0xB85 DUP2 DUP4 PUSH2 0x543C JUMP JUMPDEST CODESIZE PUSH2 0x139B JUMP JUMPDEST PUSH1 0x40 MLOAD PUSH3 0x461BCD PUSH1 0xE5 SHL DUP2 MSTORE PUSH1 0x4 DUP2 ADD DUP6 SWAP1 MSTORE PUSH1 0x16 PUSH1 0x24 DUP3 ADD MSTORE PUSH22 0x4E6F2062616C616E636520746F207769746864726177 PUSH1 0x50 SHL PUSH1 0x44 DUP3 ADD MSTORE PUSH1 0x64 SWAP1 REVERT JUMPDEST SWAP1 SWAP3 POP DUP4 DUP2 DUP2 RETURNDATASIZE DUP4 GT PUSH2 0x1460 JUMPI JUMPDEST PUSH2 0x1450 DUP2 DUP4 PUSH2 0x543C JUMP JUMPDEST DUP2 ADD SUB SLT PUSH2 0x8A9 JUMPI MLOAD SWAP2 CODESIZE PUSH2 0x134F JUMP JUMPDEST POP RETURNDATASIZE PUSH2 0x1446 JUMP JUMPDEST POP CALLVALUE PUSH2 0x572 JUMPI PUSH1 0x20 CALLDATASIZE PUSH1 0x3 NOT ADD SLT PUSH2 0x572 JUMPI PUSH1 0x40 PUSH1 0x20 SWAP2 PUSH1 0x4 CALLDATALOAD DUP2 MSTORE PUSH1 0xE DUP4 MSTORE KECCAK256 SLOAD PUSH1 0x40 MLOAD SWAP1 DUP2 MSTORE RETURN JUMPDEST POP CALLVALUE PUSH2 0x572 JUMPI DUP1 PUSH1 0x3 NOT CALLDATASIZE ADD SLT PUSH2 0x572 JUMPI PUSH2 0x14AA PUSH2 0x64E9 JUMP JUMPDEST PUSH2 0x14B2 PUSH2 0x646B JUMP JUMPDEST CALLER DUP2 MSTORE PUSH1 0x20 PUSH1 0x22 DUP2 MSTORE PUSH2 0x14CC PUSH1 0xFF PUSH1 0x40 DUP5 KECCAK256 SLOAD AND ISZERO PUSH2 0x5841 JUMP JUMPDEST CALLER DUP3 MSTORE PUSH1 0x1E SWAP1 DUP2 DUP2 MSTORE PUSH2 0x14E9 PUSH1 0xFF PUSH1 0x6 PUSH1 0x40 DUP7 KECCAK256 ADD SLOAD AND ISZERO PUSH2 0x5841 JUMP JUMPDEST CALLER DUP4 MSTORE DUP2 DUP2 MSTORE PUSH1 0xC PUSH1 0x40 DUP5 KECCAK256 ADD SLOAD PUSH3 0x15180 SWAP1 DUP2 DUP2 ADD DUP1 SWAP2 GT PUSH2 0x1633 JUMPI PUSH2 0x1512 SWAP1 TIMESTAMP LT ISZERO PUSH2 0x5885 JUMP JUMPDEST CALLER DUP5 MSTORE DUP3 DUP3 MSTORE PUSH2 0x152B PUSH1 0x64 PUSH1 0xE PUSH1 0x40 DUP8 KECCAK256 ADD SLOAD LT PUSH2 0x58D1 JUMP JUMPDEST CALLER DUP5 MSTORE DUP3 DUP3 MSTORE PUSH1 0x7 PUSH1 0x40 DUP6 KECCAK256 ADD SLOAD SWAP1 DUP2 ADD DUP1 SWAP2 GT PUSH2 0x940 JUMPI TIMESTAMP LT PUSH2 0x169B JUMPI PUSH7 0x38D7EA4C68000 CALLER BALANCE DUP2 DUP2 LT PUSH2 0x1647 JUMPI DIV SWAP2 DUP3 ISZERO DUP4 DUP1 DIV PUSH1 0x1 EQ DUP2 OR ISZERO PUSH2 0x1633 JUMPI PUSH2 0x15F8 JUMPI SWAP1 PUSH1 0x40 SWAP2 PUSH2 0x157D DUP5 CALLER PUSH2 0x650C JUMP JUMPDEST CALLER DUP6 MSTORE DUP1 DUP3 MSTORE PUSH2 0x1590 DUP5 DUP5 DUP8 KECCAK256 SLOAD PUSH2 0x581E JUMP JUMPDEST SWAP1 CALLER DUP7 MSTORE DUP3 MSTORE DUP3 DUP6 KECCAK256 SWAP1 DUP2 SSTORE TIMESTAMP PUSH1 0x7 DUP3 ADD SSTORE PUSH1 0xC TIMESTAMP SWAP2 ADD SSTORE DUP2 MLOAD SWAP3 DUP4 MSTORE DUP3 ADD MSTORE PUSH1 0x1C PUSH1 0x40 DUP3 ADD MSTORE PUSH32 0x42617365205365706F6C696120686F6C64696E67732072657761726400000000 PUSH1 0x60 DUP3 ADD MSTORE PUSH1 0x0 DUP1 MLOAD PUSH1 0x20 PUSH2 0x7139 DUP4 CODECOPY DUP2 MLOAD SWAP2 MSTORE PUSH1 0x80 CALLER SWAP3 LOG2 PUSH1 0x1 DUP2 SSTORE DUP1 RETURN JUMPDEST PUSH1 0x40 MLOAD PUSH3 0x461BCD PUSH1 0xE5 SHL DUP2 MSTORE PUSH1 0x4 DUP2 ADD DUP4 SWAP1 MSTORE PUSH1 0x13 PUSH1 0x24 DUP3 ADD MSTORE PUSH19 0x4E6F2072657761726420617661696C61626C65 PUSH1 0x68 SHL PUSH1 0x44 DUP3 ADD MSTORE PUSH1 0x64 SWAP1 REVERT JUMPDEST PUSH4 0x4E487B71 PUSH1 0xE0 SHL DUP6 MSTORE PUSH1 0x11 PUSH1 0x4 MSTORE PUSH1 0x24 DUP6 REVERT JUMPDEST PUSH1 0x40 MLOAD PUSH3 0x461BCD PUSH1 0xE5 SHL DUP2 MSTORE PUSH1 0x4 DUP2 ADD DUP5 SWAP1 MSTORE PUSH1 0x26 PUSH1 0x24 DUP3 ADD MSTORE PUSH32 0x496E73756666696369656E742042617365205365706F6C69612045544820686F PUSH1 0x44 DUP3 ADD MSTORE PUSH6 0x6C64696E6773 PUSH1 0xD0 SHL PUSH1 0x64 DUP3 ADD MSTORE PUSH1 0x84 SWAP1 REVERT JUMPDEST PUSH1 0x64 SWAP1 PUSH1 0x40 MLOAD SWAP1 PUSH3 0x461BCD PUSH1 0xE5 SHL DUP3 MSTORE PUSH1 0x4 DUP3 ADD MSTORE PUSH1 0x15 PUSH1 0x24 DUP3 ADD MSTORE PUSH21 0x416C726561647920636865636B656420746F646179 PUSH1 0x58 SHL PUSH1 0x44 DUP3 ADD MSTORE REVERT JUMPDEST POP CALLVALUE PUSH2 0x572 JUMPI PUSH1 0x20 CALLDATASIZE PUSH1 0x3 NOT ADD SLT PUSH2 0x572 JUMPI PUSH1 0x20 SWAP1 PUSH1 0xFF SWAP1 PUSH1 0x40 SWAP1 PUSH1 0x1 PUSH1 0x1 PUSH1 0xA0 SHL SUB PUSH2 0x1702 PUSH2 0x5298 JUMP JUMPDEST AND DUP2 MSTORE PUSH1 0x22 DUP5 MSTORE KECCAK256 SLOAD AND PUSH1 0x40 MLOAD SWAP1 ISZERO ISZERO DUP2 MSTORE RETURN JUMPDEST POP CALLVALUE PUSH2 0x572 JUMPI PUSH1 0x40 CALLDATASIZE PUSH1 0x3 NOT ADD SLT PUSH2 0x572 JUMPI PUSH1 0x4 CALLDATALOAD PUSH2 0x1733 PUSH2 0x52AE JUMP JUMPDEST DUP2 DUP4 MSTORE PUSH1 0x1D PUSH1 0x20 MSTORE PUSH1 0x40 DUP4 KECCAK256 SLOAD PUSH1 0x1 PUSH1 0x1 PUSH1 0xA0 SHL SUB SWAP2 SWAP1 DUP3 AND CALLER EQ DUP1 ISZERO PUSH2 0x17B3 JUMPI JUMPDEST PUSH2 0x175E SWAP1 PUSH2 0x591D JUMP JUMPDEST AND PUSH2 0x176A DUP2 ISZERO ISZERO PUSH2 0x5979 JUMP JUMPDEST DUP2 DUP4 MSTORE PUSH1 0x1C PUSH1 0x20 MSTORE PUSH1 0x40 DUP4 KECCAK256 DUP2 PUSH1 0x0 MSTORE PUSH1 0x20 MSTORE PUSH1 0x40 PUSH1 0x0 KECCAK256 PUSH1 0xFF NOT DUP2 SLOAD AND SWAP1 SSTORE CALLER SWAP2 PUSH32 0xF6391F5C32D9C69D2A47EA670B442974B53935D1EDC7FD64EB21E047A839171B DUP5 DUP1 LOG4 DUP1 RETURN JUMPDEST POP PUSH1 0x1 SLOAD DUP3 AND CALLER EQ PUSH2 0x1755 JUMP JUMPDEST POP CALLVALUE PUSH2 0x572 JUMPI PUSH1 0x20 CALLDATASIZE PUSH1 0x3 NOT ADD SLT PUSH2 0x572 JUMPI PUSH1 0x40 PUSH1 0x20 SWAP2 PUSH1 0x4 CALLDATALOAD DUP2 MSTORE PUSH1 0x18 DUP4 MSTORE KECCAK256 SLOAD PUSH1 0x40 MLOAD SWAP1 DUP2 MSTORE RETURN JUMPDEST PUSH2 0x5503 JUMP JUMPDEST POP CALLVALUE PUSH2 0x572 JUMPI PUSH1 0x20 CALLDATASIZE PUSH1 0x3 NOT ADD SLT PUSH2 0x572 JUMPI PUSH1 0x40 PUSH1 0x20 SWAP2 PUSH1 0x4 CALLDATALOAD DUP2 MSTORE PUSH1 0x10 DUP4 MSTORE KECCAK256 SLOAD PUSH1 0x40 MLOAD SWAP1 DUP2 MSTORE RETURN JUMPDEST POP CALLVALUE PUSH2 0x572 JUMPI PUSH1 0x20 CALLDATASIZE PUSH1 0x3 NOT ADD SLT PUSH2 0x572 JUMPI PUSH2 0x1852 PUSH1 0x40 MLOAD PUSH2 0x183A DUP2 PUSH2 0x53CF JUMP JUMPDEST PUSH1 0x0 DUP2 MSTORE PUSH1 0x40 MLOAD SWAP2 DUP3 SWAP2 PUSH1 0x20 DUP4 MSTORE PUSH1 0x20 DUP4 ADD SWAP1 PUSH2 0x56EB JUMP JUMPDEST SUB SWAP1 RETURN JUMPDEST POP CALLVALUE PUSH2 0x572 JUMPI DUP1 PUSH1 0x3 NOT CALLDATASIZE ADD SLT PUSH2 0x572 JUMPI PUSH2 0x186F PUSH2 0x646B JUMP JUMPDEST PUSH1 0x12 SLOAD PUSH2 0xE10 DUP2 ADD DUP1 SWAP2 GT PUSH2 0x1A19 JUMPI TIMESTAMP LT PUSH2 0x1A2D JUMPI PUSH1 0x0 NOT NUMBER ADD SWAP1 NUMBER DUP3 GT PUSH2 0x19D8 JUMPI PUSH1 0x1 NOT NUMBER ADD SWAP2 NUMBER DUP4 GT PUSH2 0x1A19 JUMPI PUSH1 0x13 SLOAD PUSH1 0x2 SLOAD PUSH1 0x40 MLOAD PUSH4 0xC142E495 PUSH1 0xE0 SHL DUP2 MSTORE SWAP2 SWAP5 PUSH1 0x20 SWAP3 SWAP1 SWAP2 DUP4 SWAP1 DUP3 SWAP1 PUSH1 0x4 SWAP1 DUP3 SWAP1 PUSH1 0x1 PUSH1 0x1 PUSH1 0xA0 SHL SUB AND GAS STATICCALL SWAP1 DUP2 ISZERO PUSH2 0x935 JUMPI DUP6 SWAP2 PUSH2 0x19EC JUMPI JUMPDEST POP PUSH1 0x40 MLOAD SWAP1 DUP4 DUP3 ADD SWAP3 TIMESTAMP DUP5 MSTORE PREVRANDAO PUSH1 0x40 DUP5 ADD MSTORE PUSH1 0x60 SWAP6 BLOCKHASH PUSH1 0x60 DUP5 ADD MSTORE BLOCKHASH PUSH1 0x80 DUP4 ADD MSTORE CALLER PUSH1 0x60 SHL PUSH1 0xA0 DUP4 ADD MSTORE DUP7 PUSH1 0xB4 DUP4 ADD MSTORE PUSH1 0xD4 DUP3 ADD MSTORE PUSH1 0xD4 DUP2 MSTORE PUSH2 0x191C DUP2 PUSH2 0x5385 JUMP JUMPDEST MLOAD SWAP1 KECCAK256 SWAP2 DUP4 SWAP3 JUMPDEST DUP6 DUP6 MSTORE PUSH1 0x11 DUP4 MSTORE PUSH1 0x40 DUP6 KECCAK256 DUP1 SLOAD DUP6 LT ISZERO PUSH2 0x197F JUMPI SWAP1 PUSH2 0x1944 DUP6 PUSH1 0x1 SWAP4 PUSH2 0x52EE JUMP JUMPDEST SWAP1 SLOAD SWAP1 PUSH1 0x40 MLOAD SWAP2 DUP7 DUP4 ADD SWAP4 DUP5 MSTORE PUSH1 0x1 PUSH1 0x1 PUSH1 0x60 SHL SUB NOT SWAP2 PUSH1 0x3 SHL SHR DUP6 SHL AND PUSH1 0x40 DUP3 ADD MSTORE PUSH1 0x34 DUP2 MSTORE PUSH2 0x1974 DUP2 PUSH2 0x53EA JUMP JUMPDEST MLOAD SWAP1 KECCAK256 SWAP4 ADD SWAP3 PUSH2 0x1923 JUMP JUMPDEST DUP4 DUP3 DUP8 DUP10 DUP2 MSTORE PUSH1 0xF DUP4 MSTORE DUP2 PUSH1 0x40 DUP3 KECCAK256 SSTORE TIMESTAMP PUSH1 0x12 SSTORE PUSH1 0x13 SLOAD SWAP1 PUSH1 0x1 DUP3 ADD SWAP1 DUP2 DUP4 GT PUSH2 0x19D8 JUMPI POP PUSH1 0x13 SSTORE PUSH32 0x716AEB9158D0411549D0EA0300D76E79332E89EC7EB7B7C475EFA863E7B9D00F DUP4 PUSH1 0x40 MLOAD DUP5 DUP2 MSTORE LOG2 PUSH1 0x40 MLOAD SWAP1 DUP2 MSTORE RETURN JUMPDEST PUSH4 0x4E487B71 PUSH1 0xE0 SHL DUP2 MSTORE PUSH1 0x11 PUSH1 0x4 MSTORE PUSH1 0x24 SWAP1 REVERT JUMPDEST SWAP1 POP DUP3 DUP2 DUP2 RETURNDATASIZE DUP4 GT PUSH2 0x1A12 JUMPI JUMPDEST PUSH2 0x1A03 DUP2 DUP4 PUSH2 0x543C JUMP JUMPDEST DUP2 ADD SUB SLT PUSH2 0x8A9 JUMPI MLOAD CODESIZE PUSH2 0x18DA JUMP JUMPDEST POP RETURNDATASIZE PUSH2 0x19F9 JUMP JUMPDEST PUSH4 0x4E487B71 PUSH1 0xE0 SHL DUP3 MSTORE PUSH1 0x11 PUSH1 0x4 MSTORE PUSH1 0x24 DUP3 REVERT JUMPDEST PUSH1 0x40 MLOAD PUSH3 0x461BCD PUSH1 0xE5 SHL DUP2 MSTORE PUSH1 0x20 PUSH1 0x4 DUP3 ADD MSTORE PUSH1 0x1B PUSH1 0x24 DUP3 ADD MSTORE PUSH32 0x456E74726F70792075706461746520746F6F206672657175656E740000000000 PUSH1 0x44 DUP3 ADD MSTORE PUSH1 0x64 SWAP1 REVERT JUMPDEST POP CALLVALUE PUSH2 0x572 JUMPI DUP1 PUSH1 0x3 NOT CALLDATASIZE ADD SLT PUSH2 0x572 JUMPI PUSH1 0x9 SLOAD SWAP1 PUSH3 0x93A80 DUP3 ADD DUP1 SWAP3 GT PUSH2 0x19D8 JUMPI PUSH1 0x20 DUP3 PUSH1 0x40 MLOAD SWAP1 TIMESTAMP LT ISZERO DUP2 MSTORE RETURN JUMPDEST PUSH2 0x5545 JUMP JUMPDEST POP CALLVALUE PUSH2 0x572 JUMPI DUP1 PUSH1 0x3 NOT CALLDATASIZE ADD SLT PUSH2 0x572 JUMPI PUSH1 0x20 PUSH1 0x9 SLOAD PUSH1 0x40 MLOAD SWAP1 DUP2 MSTORE RETURN JUMPDEST POP CALLVALUE PUSH2 0x572 JUMPI PUSH1 0x20 CALLDATASIZE PUSH1 0x3 NOT ADD SLT PUSH2 0x572 JUMPI PUSH1 0xFF PUSH1 0x40 PUSH1 0x20 SWAP3 PUSH1 0x4 CALLDATALOAD DUP2 MSTORE PUSH1 0x28 DUP5 MSTORE KECCAK256 SLOAD AND PUSH1 0x40 MLOAD SWAP1 ISZERO ISZERO DUP2 MSTORE RETURN JUMPDEST POP CALLVALUE PUSH2 0x572 JUMPI DUP1 PUSH1 0x3 NOT CALLDATASIZE ADD SLT PUSH2 0x572 JUMPI PUSH1 0x20 PUSH1 0xA SLOAD PUSH1 0x40 MLOAD SWAP1 DUP2 MSTORE RETURN JUMPDEST POP CALLVALUE PUSH2 0x572 JUMPI PUSH1 0x20 DUP1 PUSH1 0x3 NOT CALLDATASIZE ADD SLT PUSH2 0x1BB4 JUMPI PUSH1 0x4 CALLDATALOAD SWAP2 DUP3 DUP2 MSTORE PUSH1 0xC DUP3 MSTORE PUSH1 0x40 DUP2 KECCAK256 SLOAD SWAP1 PUSH2 0x1B3F DUP3 PUSH2 0x551F JUMP JUMPDEST SWAP4 PUSH2 0x1B4D PUSH1 0x40 MLOAD SWAP6 DUP7 PUSH2 0x543C JUMP JUMPDEST DUP3 DUP6 MSTORE PUSH1 0x1F NOT PUSH2 0x1B5C DUP5 PUSH2 0x551F JUMP JUMPDEST ADD CALLDATASIZE DUP6 DUP8 ADD CALLDATACOPY DUP2 JUMPDEST DUP4 DUP2 LT PUSH2 0x1B7E JUMPI PUSH1 0x40 MLOAD DUP6 DUP2 MSTORE DUP1 PUSH2 0x1852 DUP2 DUP9 ADD DUP10 PUSH2 0x56EB JUMP JUMPDEST PUSH1 0x1 SWAP1 DUP3 DUP5 MSTORE PUSH1 0xB DUP7 MSTORE PUSH2 0x1B95 DUP2 PUSH1 0x40 DUP7 KECCAK256 PUSH2 0x52EE JUMP JUMPDEST DUP4 DUP1 PUSH1 0xA0 SHL SUB SWAP2 SLOAD SWAP1 PUSH1 0x3 SHL SHR AND PUSH2 0x1BAD DUP3 DUP10 PUSH2 0x5A61 JUMP JUMPDEST MSTORE ADD PUSH2 0x1B64 JUMP JUMPDEST POP DUP1 REVERT JUMPDEST POP CALLVALUE PUSH2 0x572 JUMPI PUSH1 0x20 CALLDATASIZE PUSH1 0x3 NOT ADD SLT PUSH2 0x572 JUMPI PUSH1 0x20 SWAP1 PUSH1 0x3 PUSH1 0x40 PUSH2 0x1BD9 PUSH2 0x5298 JUMP JUMPDEST SWAP3 PUSH2 0x1BE9 PUSH3 0x15180 TIMESTAMP MOD TIMESTAMP PUSH2 0x61C7 JUMP JUMPDEST PUSH1 0x1 PUSH1 0x1 PUSH1 0xA0 SHL SUB SWAP1 SWAP5 AND DUP2 MSTORE PUSH1 0x1E DUP6 MSTORE KECCAK256 ADD SLOAD PUSH1 0x40 MLOAD SWAP2 GT ISZERO DUP2 MSTORE RETURN JUMPDEST POP CALLVALUE PUSH2 0x572 JUMPI DUP1 PUSH1 0x3 NOT CALLDATASIZE ADD SLT PUSH2 0x572 JUMPI PUSH1 0x20 PUSH1 0x1B SLOAD PUSH1 0x40 MLOAD SWAP1 DUP2 MSTORE RETURN JUMPDEST POP CALLVALUE PUSH2 0x572 JUMPI DUP1 PUSH1 0x3 NOT CALLDATASIZE ADD SLT PUSH2 0x572 JUMPI PUSH2 0x1C3E PUSH2 0x64E9 JUMP JUMPDEST PUSH2 0x1C46 PUSH2 0x646B JUMP JUMPDEST CALLER DUP2 MSTORE PUSH1 0x20 PUSH1 0x22 DUP2 MSTORE PUSH2 0x1C60 PUSH1 0xFF PUSH1 0x40 DUP5 KECCAK256 SLOAD AND ISZERO PUSH2 0x5841 JUMP JUMPDEST CALLER DUP3 MSTORE PUSH1 0x1E DUP2 MSTORE PUSH2 0x1C7B PUSH1 0xFF PUSH1 0x6 PUSH1 0x40 DUP6 KECCAK256 ADD SLOAD AND ISZERO PUSH2 0x5841 JUMP JUMPDEST CALLER DUP3 MSTORE PUSH1 0x1E DUP2 MSTORE PUSH1 0x64 PUSH1 0xB PUSH1 0x40 DUP5 KECCAK256 ADD SLOAD LT ISZERO PUSH2 0x1F2D JUMPI PUSH2 0x1C9A PUSH2 0x6962 JUMP JUMPDEST SWAP1 DUP2 ISZERO PUSH2 0x1EDB JUMPI PUSH9 0x3635C9ADC5DEA00000 DUP3 GT PUSH2 0x1E97 JUMPI PUSH1 0x40 MLOAD PUSH4 0x70A08231 PUSH1 0xE0 SHL DUP2 MSTORE CALLER PUSH1 0x4 DUP3 ADD MSTORE PUSH32 0x0 PUSH1 0x1 PUSH1 0x1 PUSH1 0xA0 SHL SUB AND SWAP1 DUP3 DUP2 PUSH1 0x24 DUP2 DUP6 GAS STATICCALL DUP1 ISZERO PUSH2 0x935 JUMPI DUP5 SWAP1 DUP7 SWAP1 PUSH2 0x1E66 JUMPI JUMPDEST PUSH2 0x1D12 SWAP3 POP LT ISZERO PUSH2 0x61D4 JUMP JUMPDEST PUSH1 0x40 MLOAD PUSH4 0x6EB1769F PUSH1 0xE1 SHL DUP2 MSTORE CALLER PUSH1 0x4 DUP3 ADD MSTORE ADDRESS PUSH1 0x24 DUP3 ADD MSTORE DUP3 DUP2 PUSH1 0x44 DUP2 DUP6 GAS STATICCALL DUP1 ISZERO PUSH2 0x935 JUMPI DUP5 SWAP1 DUP7 SWAP1 PUSH2 0x1E35 JUMPI JUMPDEST PUSH2 0x1D4E SWAP3 POP LT ISZERO PUSH2 0x6220 JUMP JUMPDEST PUSH1 0x40 MLOAD PUSH4 0x23B872DD PUSH1 0xE0 SHL DUP2 MSTORE CALLER PUSH1 0x4 DUP3 ADD MSTORE ADDRESS PUSH1 0x24 DUP3 ADD MSTORE PUSH1 0x44 DUP2 ADD DUP5 SWAP1 MSTORE SWAP1 DUP3 SWAP1 DUP3 SWAP1 PUSH1 0x64 SWAP1 DUP3 SWAP1 DUP9 SWAP1 GAS CALL DUP1 ISZERO PUSH2 0x1E2A JUMPI PUSH2 0x1D93 SWAP2 DUP6 SWAP2 PUSH2 0x1E0D JUMPI JUMPDEST POP PUSH2 0x626C JUMP JUMPDEST CALLER DUP4 MSTORE PUSH1 0x1E DUP2 MSTORE PUSH1 0xB PUSH1 0x40 DUP5 KECCAK256 ADD SLOAD PUSH1 0x1 DUP2 ADD DUP1 SWAP2 GT PUSH2 0x940 JUMPI CALLER DUP5 MSTORE PUSH1 0x1E DUP3 MSTORE PUSH1 0xB PUSH1 0x40 DUP6 KECCAK256 ADD SSTORE PUSH1 0x7 SLOAD DUP3 PUSH1 0x1 SHL SWAP1 DUP4 DUP3 DIV PUSH1 0x2 SUB PUSH2 0x1633 JUMPI PUSH32 0x6A85014765CE1728A69F3D14127CC749D140BA142C380EF69CA533189DBFA360 SWAP3 SWAP2 PUSH2 0x1DFA SWAP2 PUSH2 0x581E JUMP JUMPDEST PUSH1 0x7 SSTORE PUSH1 0x40 MLOAD SWAP3 DUP4 MSTORE CALLER SWAP3 LOG2 PUSH1 0x1 DUP2 SSTORE DUP1 RETURN JUMPDEST PUSH2 0x1E24 SWAP2 POP DUP4 RETURNDATASIZE DUP6 GT PUSH2 0xB93 JUMPI PUSH2 0xB85 DUP2 DUP4 PUSH2 0x543C JUMP JUMPDEST CODESIZE PUSH2 0x1D8D JUMP JUMPDEST PUSH1 0x40 MLOAD RETURNDATASIZE DUP7 DUP3 RETURNDATACOPY RETURNDATASIZE SWAP1 REVERT JUMPDEST POP POP DUP3 DUP2 DUP2 RETURNDATASIZE DUP4 GT PUSH2 0x1E5F JUMPI JUMPDEST PUSH2 0x1E4C DUP2 DUP4 PUSH2 0x543C JUMP JUMPDEST DUP2 ADD SUB SLT PUSH2 0x8A9 JUMPI DUP4 PUSH2 0x1D4E SWAP2 MLOAD PUSH2 0x1D42 JUMP JUMPDEST POP RETURNDATASIZE PUSH2 0x1E42 JUMP JUMPDEST POP POP DUP3 DUP2 DUP2 RETURNDATASIZE DUP4 GT PUSH2 0x1E90 JUMPI JUMPDEST PUSH2 0x1E7D DUP2 DUP4 PUSH2 0x543C JUMP JUMPDEST DUP2 ADD SUB SLT PUSH2 0x8A9 JUMPI DUP4 PUSH2 0x1D12 SWAP2 MLOAD PUSH2 0x1D06 JUMP JUMPDEST POP RETURNDATASIZE PUSH2 0x1E73 JUMP JUMPDEST PUSH1 0x64 SWAP1 PUSH1 0x40 MLOAD SWAP1 PUSH3 0x461BCD PUSH1 0xE5 SHL DUP3 MSTORE PUSH1 0x4 DUP3 ADD MSTORE PUSH1 0x1B PUSH1 0x24 DUP3 ADD MSTORE PUSH32 0x4A61636B706F7420656E74727920636F737420746F6F20686967680000000000 PUSH1 0x44 DUP3 ADD MSTORE REVERT JUMPDEST PUSH1 0x84 SWAP1 PUSH1 0x40 MLOAD SWAP1 PUSH3 0x461BCD PUSH1 0xE5 SHL DUP3 MSTORE PUSH1 0x4 DUP3 ADD MSTORE PUSH1 0x25 PUSH1 0x24 DUP3 ADD MSTORE PUSH32 0x496E76616C6964206A61636B706F7420656E74727920636F73742063616C6375 PUSH1 0x44 DUP3 ADD MSTORE PUSH5 0x1B185D1959 PUSH1 0xDA SHL PUSH1 0x64 DUP3 ADD MSTORE REVERT JUMPDEST PUSH1 0x64 SWAP1 PUSH1 0x40 MLOAD SWAP1 PUSH3 0x461BCD PUSH1 0xE5 SHL DUP3 MSTORE PUSH1 0x4 DUP3 ADD MSTORE PUSH1 0x1B PUSH1 0x24 DUP3 ADD MSTORE PUSH32 0x4D6178206A61636B706F7420656E747269657320726561636865640000000000 PUSH1 0x44 DUP3 ADD MSTORE REVERT JUMPDEST POP CALLVALUE PUSH2 0x572 JUMPI DUP1 PUSH1 0x3 NOT CALLDATASIZE ADD SLT PUSH2 0x572 JUMPI PUSH1 0x29 SLOAD PUSH2 0x1852 PUSH1 0x40 PUSH1 0x2A SLOAD SWAP4 NUMBER DUP2 MSTORE PUSH1 0x27 PUSH1 0x20 MSTORE KECCAK256 SLOAD PUSH1 0x40 MLOAD SWAP4 DUP5 SWAP4 DUP5 PUSH1 0x40 SWAP2 SWAP5 SWAP4 SWAP3 PUSH1 0x60 DUP3 ADD SWAP6 DUP3 MSTORE PUSH1 0x20 DUP3 ADD MSTORE ADD MSTORE JUMP JUMPDEST POP CALLVALUE PUSH2 0x572 JUMPI PUSH1 0x40 CALLDATASIZE PUSH1 0x3 NOT ADD SLT PUSH2 0x572 JUMPI PUSH1 0x4 CALLDATALOAD PUSH2 0x1FD2 PUSH2 0x52AE JUMP JUMPDEST SWAP1 PUSH2 0x1FDB PUSH2 0x643F JUMP JUMPDEST DUP1 DUP4 MSTORE PUSH1 0x1D PUSH1 0x20 MSTORE PUSH1 0x40 DUP4 KECCAK256 DUP1 SLOAD PUSH1 0x1 PUSH1 0x1 PUSH1 0xA0 SHL SUB NOT AND PUSH1 0x1 PUSH1 0x1 PUSH1 0xA0 SHL SUB SWAP1 SWAP4 AND SWAP3 DUP4 OR SWAP1 SSTORE PUSH32 0xCA1453E2085A936EA52E0049E559E235E08FE8678E165A7EB63F4568098706AD DUP4 DUP1 LOG3 DUP1 RETURN JUMPDEST PUSH2 0x57AA JUMP JUMPDEST POP CALLVALUE PUSH2 0x572 JUMPI PUSH1 0x20 CALLDATASIZE PUSH1 0x3 NOT ADD SLT PUSH2 0x572 JUMPI PUSH1 0x40 PUSH1 0x20 SWAP2 PUSH1 0x4 CALLDATALOAD DUP2 MSTORE PUSH1 0xF DUP4 MSTORE KECCAK256 SLOAD PUSH1 0x40 MLOAD SWAP1 DUP2 MSTORE RETURN JUMPDEST POP CALLVALUE PUSH2 0x572 JUMPI PUSH1 0x20 SWAP1 DUP2 PUSH1 0x3 NOT CALLDATASIZE ADD SLT PUSH2 0x572 JUMPI PUSH2 0x2075 PUSH2 0x62AE JUMP JUMPDEST POP PUSH1 0x4 CALLDATALOAD DUP2 MSTORE PUSH1 0x21 DUP3 MSTORE PUSH1 0x40 DUP2 KECCAK256 SWAP2 PUSH1 0x40 MLOAD SWAP2 PUSH2 0x2091 DUP4 PUSH2 0x5385 JUMP JUMPDEST DUP4 SLOAD DUP4 MSTORE PUSH1 0x1 SWAP1 PUSH1 0x1 DUP6 ADD SLOAD DUP4 DUP6 ADD MSTORE PUSH1 0x2 DUP6 ADD SLOAD PUSH1 0x40 DUP6 ADD MSTORE PUSH1 0x3 DUP6 ADD SLOAD PUSH1 0x60 DUP6 ADD MSTORE PUSH1 0x4 DUP6 ADD SLOAD PUSH1 0x80 DUP6 ADD MSTORE PUSH1 0x5 DUP6 ADD SWAP2 PUSH1 0x40 MLOAD DUP1 SWAP5 DUP1 DUP6 SLOAD SWAP3 DUP4 DUP2 MSTORE ADD SWAP5 DUP5 MSTORE DUP1 DUP5 KECCAK256 SWAP4 SWAP1 JUMPDEST DUP3 DUP3 LT PUSH2 0x211C JUMPI PUSH2 0x1852 DUP9 PUSH1 0x7 DUP12 DUP11 PUSH2 0x20F5 DUP2 DUP13 SUB DUP3 PUSH2 0x543C JUMP JUMPDEST PUSH1 0xA0 DUP5 ADD MSTORE PUSH1 0xFF PUSH1 0x6 DUP3 ADD SLOAD AND ISZERO ISZERO PUSH1 0xC0 DUP5 ADD MSTORE ADD SLOAD PUSH1 0xE0 DUP3 ADD MSTORE PUSH1 0x40 MLOAD SWAP2 DUP3 SWAP2 DUP3 PUSH2 0x5728 JUMP JUMPDEST DUP5 SLOAD PUSH1 0x1 PUSH1 0x1 PUSH1 0xA0 SHL SUB AND DUP7 MSTORE SWAP5 DUP6 ADD SWAP5 SWAP4 DUP4 ADD SWAP4 SWAP1 DUP4 ADD SWAP1 PUSH2 0x20DA JUMP JUMPDEST POP CALLVALUE PUSH2 0x572 JUMPI DUP1 PUSH1 0x3 NOT CALLDATASIZE ADD SLT PUSH2 0x572 JUMPI PUSH1 0x20 PUSH1 0x5 SLOAD PUSH1 0x40 MLOAD SWAP1 DUP2 MSTORE RETURN JUMPDEST POP CALLVALUE PUSH2 0x572 JUMPI DUP1 PUSH2 0x2168 CALLDATASIZE PUSH2 0x5699 JUMP JUMPDEST SWAP3 SWAP2 PUSH2 0x2172 PUSH2 0x646B JUMP JUMPDEST PUSH1 0x2 SLOAD PUSH1 0x1 PUSH1 0x1 PUSH1 0xA0 SHL SUB AND SWAP1 DUP2 EXTCODESIZE ISZERO PUSH2 0x21C4 JUMPI DUP4 PUSH1 0x64 SWAP3 PUSH1 0x40 MLOAD SWAP7 DUP8 SWAP6 DUP7 SWAP5 PUSH4 0xA154FC6B PUSH1 0xE0 SHL DUP7 MSTORE PUSH1 0x4 DUP7 ADD MSTORE PUSH1 0x24 DUP6 ADD MSTORE PUSH1 0x44 DUP5 ADD MSTORE GAS CALL DUP1 ISZERO PUSH2 0xED6 JUMPI PUSH2 0x21BB JUMPI POP DUP1 RETURN JUMPDEST PUSH2 0xC13 SWAP1 PUSH2 0x53A1 JUMP JUMPDEST DUP4 DUP1 REVERT JUMPDEST POP CALLVALUE PUSH2 0x572 JUMPI DUP1 PUSH1 0x3 NOT CALLDATASIZE ADD SLT PUSH2 0x572 JUMPI PUSH1 0x20 PUSH1 0x40 MLOAD PUSH2 0x3E8 DUP2 MSTORE RETURN JUMPDEST POP CALLVALUE PUSH2 0x572 JUMPI PUSH2 0x21F4 CALLDATASIZE PUSH2 0x564A JUMP JUMPDEST SWAP3 SWAP2 PUSH1 0x1 DUP1 PUSH1 0xA0 SHL SUB PUSH2 0x220C DUP2 PUSH1 0x3 SLOAD AND CALLER EQ PUSH2 0x60BA JUMP JUMPDEST PUSH2 0x2217 DUP6 ISZERO ISZERO PUSH2 0x6106 JUMP JUMPDEST PUSH2 0x2223 DUP6 PUSH1 0x6 SLOAD PUSH2 0x5AA6 JUMP JUMPDEST SWAP1 DUP5 JUMPDEST DUP7 DUP2 LT PUSH2 0x2254 JUMPI POP POP POP PUSH2 0xC08 PUSH1 0x0 DUP1 MLOAD PUSH1 0x20 PUSH2 0x7119 DUP4 CODECOPY DUP2 MLOAD SWAP2 MSTORE SWAP4 SWAP5 PUSH1 0x6 SLOAD SWAP1 PUSH1 0x40 MLOAD SWAP5 DUP6 SWAP5 DUP6 PUSH2 0x616C JUMP JUMPDEST DUP2 PUSH2 0x2268 PUSH2 0x2263 DUP4 DUP11 DUP10 PUSH2 0x6148 JUMP JUMPDEST PUSH2 0x6158 JUMP JUMPDEST AND PUSH2 0x2276 JUMPI JUMPDEST PUSH1 0x1 ADD PUSH2 0x2226 JUMP JUMPDEST DUP3 PUSH2 0x2285 PUSH2 0x2263 DUP4 DUP11 DUP10 PUSH2 0x6148 JUMP JUMPDEST PUSH1 0x40 MLOAD PUSH4 0xA9059CBB PUSH1 0xE0 SHL DUP2 MSTORE PUSH1 0x1 PUSH1 0x1 PUSH1 0xA0 SHL SUB SWAP2 SWAP1 SWAP2 AND PUSH1 0x4 DUP3 ADD MSTORE PUSH1 0x24 DUP2 ADD SWAP2 SWAP1 SWAP2 MSTORE PUSH1 0x20 SWAP1 DUP2 DUP2 PUSH1 0x44 DUP2 DUP12 PUSH32 0x0 DUP10 AND GAS CALL SWAP1 DUP2 ISZERO PUSH2 0x23AD JUMPI PUSH1 0x1E SWAP3 SWAP2 PUSH2 0x22F4 SWAP2 DUP11 SWAP2 PUSH2 0x2396 JUMPI POP PUSH2 0x63F7 JUMP JUMPDEST DUP4 PUSH2 0x2303 PUSH2 0x2263 DUP6 DUP13 DUP12 PUSH2 0x6148 JUMP JUMPDEST AND DUP9 MSTORE MSTORE PUSH1 0x40 DUP7 KECCAK256 DUP1 SLOAD SWAP1 PUSH1 0xA DUP3 ADD DUP1 SWAP3 GT PUSH2 0x2382 JUMPI SSTORE PUSH1 0x1 SWAP1 DUP3 PUSH2 0x232C PUSH2 0x2263 DUP4 DUP12 DUP11 PUSH2 0x6148 JUMP JUMPDEST AND PUSH1 0x0 DUP1 MLOAD PUSH1 0x20 PUSH2 0x7139 DUP4 CODECOPY DUP2 MLOAD SWAP2 MSTORE PUSH1 0x40 MLOAD DUP1 PUSH2 0x2378 DUP2 PUSH1 0x80 SWAP1 PUSH1 0xA DUP2 MSTORE PUSH1 0x40 PUSH1 0x20 DUP3 ADD MSTORE PUSH1 0x12 PUSH1 0x40 DUP3 ADD MSTORE PUSH18 0x4461696C792077696E6E657220626F6E7573 PUSH1 0x70 SHL PUSH1 0x60 DUP3 ADD MSTORE ADD SWAP1 JUMP JUMPDEST SUB SWAP1 LOG2 SWAP1 POP PUSH2 0x226E JUMP JUMPDEST PUSH4 0x4E487B71 PUSH1 0xE0 SHL DUP9 MSTORE PUSH1 0x11 PUSH1 0x4 MSTORE PUSH1 0x24 DUP9 REVERT JUMPDEST PUSH2 0xB8D SWAP2 POP DUP4 RETURNDATASIZE DUP6 GT PUSH2 0xB93 JUMPI PUSH2 0xB85 DUP2 DUP4 PUSH2 0x543C JUMP JUMPDEST PUSH1 0x40 MLOAD RETURNDATASIZE DUP11 DUP3 RETURNDATACOPY RETURNDATASIZE SWAP1 REVERT JUMPDEST POP CALLVALUE PUSH2 0x572 JUMPI PUSH1 0x20 CALLDATASIZE PUSH1 0x3 NOT ADD SLT PUSH2 0x572 JUMPI PUSH1 0x80 SWAP1 PUSH1 0x1 PUSH1 0x1 PUSH1 0xA0 SHL SUB SWAP1 PUSH1 0x40 SWAP1 DUP3 PUSH2 0x23E2 PUSH2 0x5298 JUMP JUMPDEST AND DUP2 MSTORE PUSH1 0x20 DUP1 MSTORE KECCAK256 SWAP1 DUP2 SLOAD AND SWAP1 PUSH1 0x1 DUP2 ADD SLOAD SWAP1 PUSH1 0xFF PUSH1 0x3 PUSH1 0x2 DUP4 ADD SLOAD SWAP3 ADD SLOAD AND SWAP2 PUSH1 0x40 MLOAD SWAP4 DUP5 MSTORE PUSH1 0x20 DUP5 ADD MSTORE PUSH1 0x40 DUP4 ADD MSTORE ISZERO ISZERO PUSH1 0x60 DUP3 ADD MSTORE RETURN JUMPDEST PUSH2 0x578E JUMP JUMPDEST POP CALLVALUE PUSH2 0x572 JUMPI DUP1 PUSH1 0x3 NOT CALLDATASIZE ADD SLT PUSH2 0x572 JUMPI PUSH1 0x0 DUP1 MLOAD PUSH1 0x20 PUSH2 0x70F9 DUP4 CODECOPY DUP2 MLOAD SWAP2 MSTORE DUP2 MSTORE PUSH1 0x20 PUSH1 0x1C DUP2 MSTORE PUSH1 0x40 DUP3 KECCAK256 CALLER DUP4 MSTORE DUP2 MSTORE PUSH1 0xFF PUSH1 0x40 DUP4 KECCAK256 SLOAD AND DUP1 ISZERO PUSH2 0x265C JUMPI JUMPDEST PUSH2 0x246A SWAP1 PUSH2 0x59B7 JUMP JUMPDEST PUSH2 0x2472 PUSH2 0x646B JUMP JUMPDEST PUSH2 0x2480 PUSH1 0xFF PUSH1 0x16 SLOAD AND PUSH2 0x62ED JUMP JUMPDEST PUSH1 0x3 SLOAD PUSH1 0x1 PUSH1 0x1 PUSH1 0xA0 SHL SUB AND PUSH2 0x2497 DUP2 ISZERO ISZERO PUSH2 0x632B JUMP JUMPDEST PUSH1 0x8 SLOAD PUSH3 0x15180 DUP2 ADD DUP1 SWAP2 GT PUSH2 0x940 JUMPI TIMESTAMP LT PUSH2 0x2620 JUMPI PUSH1 0x5 SLOAD PUSH1 0x40 MLOAD PUSH4 0xBACF46F3 PUSH1 0xE0 SHL DUP2 MSTORE PUSH1 0x4 DUP2 ADD DUP3 SWAP1 MSTORE SWAP2 SWAP1 DUP5 DUP4 PUSH1 0x24 DUP2 ADDRESS GAS STATICCALL SWAP3 DUP4 ISZERO PUSH2 0x935 JUMPI DUP6 SWAP4 PUSH2 0x2604 JUMPI JUMPDEST POP DUP3 MLOAD ISZERO PUSH2 0x25B4 JUMPI SWAP2 DUP4 SWAP2 PUSH2 0x2515 SWAP4 DUP7 PUSH1 0x40 MLOAD DUP1 SWAP7 DUP2 SWAP6 DUP3 SWAP5 PUSH4 0xCFF47CB1 PUSH1 0xE0 SHL DUP5 MSTORE PUSH1 0x4 DUP5 ADD MSTORE PUSH1 0x40 PUSH1 0x24 DUP5 ADD MSTORE PUSH1 0x44 DUP4 ADD SWAP1 PUSH2 0x56EB JUMP JUMPDEST SUB SWAP3 GAS CALL SWAP1 DUP2 ISZERO PUSH2 0x8B5 JUMPI DUP4 SWAP2 PUSH2 0x2583 JUMPI JUMPDEST POP DUP1 DUP4 MSTORE PUSH1 0x14 DUP3 MSTORE PUSH1 0x40 DUP4 KECCAK256 PUSH1 0x1 PUSH1 0xFF NOT DUP3 SLOAD AND OR SWAP1 SSTORE PUSH32 0x1D1A4959F28ECF85850610491C8F5914A90BD2CAA95E91257B24B2511D715F7A PUSH1 0x60 PUSH1 0x5 SLOAD SWAP4 PUSH1 0x5 PUSH1 0x40 MLOAD SWAP2 DUP1 DUP4 MSTORE DUP3 ADD MSTORE PUSH5 0x6461696C79 PUSH1 0xD8 SHL PUSH1 0x40 DUP3 ADD MSTORE LOG3 DUP1 RETURN JUMPDEST SWAP1 POP DUP2 DUP2 DUP2 RETURNDATASIZE DUP4 GT PUSH2 0x25AD JUMPI JUMPDEST PUSH2 0x259A DUP2 DUP4 PUSH2 0x543C JUMP JUMPDEST DUP2 ADD SUB SLT PUSH2 0x25A9 JUMPI MLOAD CODESIZE PUSH2 0x2527 JUMP JUMPDEST DUP3 DUP1 REVERT JUMPDEST POP RETURNDATASIZE PUSH2 0x2590 JUMP JUMPDEST PUSH1 0x40 MLOAD PUSH3 0x461BCD PUSH1 0xE5 SHL DUP2 MSTORE PUSH1 0x4 DUP2 ADD DUP6 SWAP1 MSTORE PUSH1 0x22 PUSH1 0x24 DUP3 ADD MSTORE PUSH32 0x4E6F20656C696769626C6520706C617965727320666F72206461696C79206472 PUSH1 0x44 DUP3 ADD MSTORE PUSH2 0x6177 PUSH1 0xF0 SHL PUSH1 0x64 DUP3 ADD MSTORE PUSH1 0x84 SWAP1 REVERT JUMPDEST PUSH2 0x2619 SWAP2 SWAP4 POP RETURNDATASIZE DUP1 DUP8 DUP4 RETURNDATACOPY PUSH2 0x926 DUP2 DUP4 PUSH2 0x543C JUMP JUMPDEST SWAP2 CODESIZE PUSH2 0x24DC JUMP JUMPDEST PUSH1 0x40 MLOAD PUSH3 0x461BCD PUSH1 0xE5 SHL DUP2 MSTORE PUSH1 0x4 DUP2 ADD DUP4 SWAP1 MSTORE PUSH1 0x14 PUSH1 0x24 DUP3 ADD MSTORE PUSH20 0x4461696C792064726177206E6F74207265616479 PUSH1 0x60 SHL PUSH1 0x44 DUP3 ADD MSTORE PUSH1 0x64 SWAP1 REVERT JUMPDEST POP PUSH1 0x1 SLOAD PUSH1 0x1 PUSH1 0x1 PUSH1 0xA0 SHL SUB AND CALLER EQ PUSH2 0x2461 JUMP JUMPDEST POP CALLVALUE PUSH2 0x572 JUMPI DUP1 PUSH1 0x3 NOT CALLDATASIZE ADD SLT PUSH2 0x572 JUMPI PUSH1 0x20 PUSH1 0x40 MLOAD PUSH7 0x38D7EA4C68000 DUP2 MSTORE RETURN JUMPDEST POP CALLVALUE PUSH2 0x572 JUMPI DUP1 PUSH1 0x3 NOT CALLDATASIZE ADD SLT PUSH2 0x572 JUMPI PUSH2 0x26AB PUSH2 0x62AE JUMP JUMPDEST POP PUSH1 0x5 SLOAD DUP2 MSTORE PUSH1 0x20 SWAP1 PUSH1 0x21 PUSH1 0x20 MSTORE PUSH1 0x40 DUP2 KECCAK256 SWAP2 PUSH1 0x40 MLOAD SWAP2 PUSH2 0x26CB DUP4 PUSH2 0x5385 JUMP JUMPDEST DUP4 SLOAD DUP4 MSTORE PUSH1 0x1 SWAP1 PUSH1 0x1 DUP6 ADD SLOAD PUSH1 0x20 DUP6 ADD MSTORE PUSH1 0x2 DUP6 ADD SLOAD PUSH1 0x40 DUP6 ADD MSTORE PUSH1 0x3 DUP6 ADD SLOAD PUSH1 0x60 DUP6 ADD MSTORE PUSH1 0x4 DUP6 ADD SLOAD PUSH1 0x80 DUP6 ADD MSTORE PUSH1 0x5 DUP6 ADD SWAP2 PUSH1 0x40 MLOAD DUP1 SWAP5 PUSH1 0x20 DUP6 SLOAD SWAP3 DUP4 DUP2 MSTORE ADD SWAP5 DUP5 MSTORE PUSH1 0x20 DUP5 KECCAK256 SWAP4 SWAP1 JUMPDEST DUP3 DUP3 LT PUSH2 0x2732 JUMPI PUSH2 0x1852 DUP9 PUSH1 0x7 DUP12 DUP11 PUSH2 0x20F5 DUP2 DUP13 SUB DUP3 PUSH2 0x543C JUMP JUMPDEST DUP5 SLOAD PUSH1 0x1 PUSH1 0x1 PUSH1 0xA0 SHL SUB AND DUP7 MSTORE SWAP5 DUP6 ADD SWAP5 SWAP4 DUP4 ADD SWAP4 SWAP1 DUP4 ADD SWAP1 PUSH2 0x2717 JUMP JUMPDEST POP CALLVALUE PUSH2 0x572 JUMPI PUSH2 0x275F CALLDATASIZE PUSH2 0x52D8 JUMP JUMPDEST SWAP2 SWAP1 DUP2 MSTORE PUSH1 0xD PUSH1 0x20 MSTORE PUSH1 0x40 DUP2 KECCAK256 SWAP1 DUP2 SLOAD DUP4 LT ISZERO PUSH2 0x572 JUMPI PUSH1 0x20 PUSH2 0x62D DUP5 DUP5 PUSH2 0x52EE JUMP JUMPDEST POP CALLVALUE PUSH2 0x572 JUMPI PUSH1 0x40 CALLDATASIZE PUSH1 0x3 NOT ADD SLT PUSH2 0x572 JUMPI PUSH1 0x20 SWAP1 PUSH2 0x279F PUSH2 0x52AE JUMP JUMPDEST PUSH1 0x4 CALLDATALOAD DUP3 MSTORE PUSH1 0x1C DUP4 MSTORE PUSH1 0x40 DUP1 DUP4 KECCAK256 PUSH1 0x1 PUSH1 0x1 PUSH1 0xA0 SHL SUB SWAP3 DUP4 AND DUP1 DUP6 MSTORE SWAP1 DUP6 MSTORE SWAP3 KECCAK256 SLOAD PUSH1 0xFF AND SWAP2 SWAP1 DUP3 ISZERO PUSH2 0x27D9 JUMPI JUMPDEST POP POP PUSH1 0x40 MLOAD SWAP1 ISZERO ISZERO DUP2 MSTORE RETURN JUMPDEST PUSH1 0x1 SLOAD AND EQ SWAP1 POP CODESIZE DUP1 PUSH2 0x27CD JUMP JUMPDEST POP CALLVALUE PUSH2 0x572 JUMPI DUP1 PUSH1 0x3 NOT CALLDATASIZE ADD SLT PUSH2 0x572 JUMPI PUSH1 0x1 SLOAD PUSH1 0x40 MLOAD PUSH1 0x1 PUSH1 0x1 PUSH1 0xA0 SHL SUB SWAP1 SWAP2 AND DUP2 MSTORE PUSH1 0x20 SWAP1 RETURN JUMPDEST POP CALLVALUE PUSH2 0x572 JUMPI PUSH1 0x20 CALLDATASIZE PUSH1 0x3 NOT ADD SLT PUSH2 0x572 JUMPI PUSH1 0x20 SWAP1 PUSH1 0x4 CALLDATALOAD DUP2 MSTORE PUSH1 0x1D DUP3 MSTORE PUSH1 0x40 PUSH1 0x1 DUP1 PUSH1 0xA0 SHL SUB SWAP2 KECCAK256 SLOAD AND PUSH1 0x40 MLOAD SWAP1 DUP2 MSTORE RETURN JUMPDEST POP CALLVALUE PUSH2 0x572 JUMPI PUSH1 0x20 CALLDATASIZE PUSH1 0x3 NOT ADD SLT PUSH2 0x572 JUMPI PUSH2 0x285D PUSH2 0x5298 JUMP JUMPDEST PUSH2 0x2865 PUSH2 0x643F JUMP JUMPDEST PUSH1 0x1 DUP1 PUSH1 0xA0 SHL SUB AND PUSH1 0x1 PUSH1 0x1 PUSH1 0x60 SHL SUB PUSH1 0xA0 SHL PUSH1 0x3 SLOAD AND OR PUSH1 0x3 SSTORE DUP1 RETURN JUMPDEST PUSH2 0x56B3 JUMP JUMPDEST POP CALLVALUE PUSH2 0x572 JUMPI PUSH1 0x20 CALLDATASIZE PUSH1 0x3 NOT ADD SLT PUSH2 0x572 JUMPI PUSH1 0x40 PUSH1 0x20 SWAP2 PUSH1 0x4 CALLDATALOAD DUP2 MSTORE PUSH1 0x27 DUP4 MSTORE KECCAK256 SLOAD PUSH1 0x40 MLOAD SWAP1 DUP2 MSTORE RETURN JUMPDEST POP CALLVALUE PUSH2 0x572 JUMPI DUP1 PUSH1 0x3 NOT CALLDATASIZE ADD SLT PUSH2 0x572 JUMPI PUSH1 0x4 DUP1 SLOAD PUSH1 0x40 MLOAD PUSH4 0x8F09C857 PUSH1 0xE0 SHL DUP2 MSTORE SWAP2 PUSH1 0x20 SWAP2 DUP4 SWAP2 SWAP1 DUP3 SWAP1 PUSH1 0x1 PUSH1 0x1 PUSH1 0xA0 SHL SUB AND GAS STATICCALL SWAP1 DUP2 ISZERO PUSH2 0xED6 JUMPI DUP3 SWAP2 PUSH2 0x2901 JUMPI JUMPDEST PUSH1 0x20 DUP3 PUSH1 0x40 MLOAD SWAP1 DUP2 MSTORE RETURN JUMPDEST SWAP1 POP PUSH1 0x20 DUP2 RETURNDATASIZE PUSH1 0x20 GT PUSH2 0x292F JUMPI JUMPDEST DUP2 PUSH2 0x291C PUSH1 0x20 SWAP4 DUP4 PUSH2 0x543C JUMP JUMPDEST DUP2 ADD SUB SLT PUSH2 0x1BB4 JUMPI PUSH1 0x20 SWAP2 POP MLOAD CODESIZE PUSH2 0x28F6 JUMP JUMPDEST RETURNDATASIZE SWAP2 POP PUSH2 0x290F JUMP JUMPDEST POP CALLVALUE PUSH2 0x572 JUMPI PUSH1 0x20 CALLDATASIZE PUSH1 0x3 NOT ADD SLT PUSH2 0x572 JUMPI PUSH1 0x20 SWAP1 PUSH1 0x40 SWAP1 PUSH1 0x1 PUSH1 0x1 PUSH1 0xA0 SHL SUB PUSH2 0x295F PUSH2 0x5298 JUMP JUMPDEST AND DUP2 MSTORE PUSH1 0x26 DUP4 MSTORE KECCAK256 SLOAD PUSH1 0x40 MLOAD SWAP1 DUP2 MSTORE RETURN JUMPDEST POP CALLVALUE PUSH2 0x572 JUMPI DUP1 PUSH1 0x3 NOT CALLDATASIZE ADD SLT PUSH2 0x572 JUMPI PUSH1 0x20 PUSH1 0x40 MLOAD PUSH32 0xA49807205CE4D355092EF5A8A18F56E8913CF4A201FBE287825B095693C21775 DUP2 MSTORE RETURN JUMPDEST POP CALLVALUE PUSH2 0x572 JUMPI DUP1 PUSH1 0x3 NOT CALLDATASIZE ADD SLT PUSH2 0x572 JUMPI PUSH1 0x20 PUSH1 0x8 SLOAD PUSH1 0x40 MLOAD SWAP1 DUP2 MSTORE RETURN JUMPDEST POP CALLVALUE PUSH2 0x572 JUMPI DUP1 PUSH1 0x3 NOT CALLDATASIZE ADD SLT PUSH2 0x572 JUMPI PUSH2 0x29E2 PUSH2 0x64E9 JUMP JUMPDEST PUSH2 0x29EA PUSH2 0x646B JUMP JUMPDEST CALLER DUP2 MSTORE PUSH1 0x20 PUSH1 0x22 DUP2 MSTORE PUSH2 0x2A04 PUSH1 0xFF PUSH1 0x40 DUP5 KECCAK256 SLOAD AND ISZERO PUSH2 0x5841 JUMP JUMPDEST CALLER DUP3 MSTORE PUSH1 0x1E DUP2 MSTORE PUSH2 0x2A1F PUSH1 0xFF PUSH1 0x6 PUSH1 0x40 DUP6 KECCAK256 ADD SLOAD AND ISZERO PUSH2 0x5841 JUMP JUMPDEST PUSH1 0x40 MLOAD PUSH4 0x70A08231 PUSH1 0xE0 SHL DUP2 MSTORE CALLER PUSH1 0x4 DUP3 ADD MSTORE DUP2 DUP2 PUSH1 0x24 DUP2 PUSH32 0x0 PUSH1 0x1 PUSH1 0x1 PUSH1 0xA0 SHL SUB AND GAS STATICCALL SWAP1 DUP2 ISZERO PUSH2 0x8B5 JUMPI DUP4 SWAP2 PUSH2 0x2BF1 JUMPI JUMPDEST POP DUP1 ISZERO PUSH2 0x2BBB JUMPI PUSH8 0xDE0B6B3A7640000 SWAP1 DIV SWAP1 PUSH1 0xA DUP3 MUL SWAP2 DUP1 DUP4 DIV PUSH1 0xA EQ SWAP1 ISZERO OR ISZERO PUSH2 0x2BA7 JUMPI DUP2 ISZERO PUSH2 0x2B63 JUMPI PUSH2 0x2710 DUP3 GT PUSH2 0x2B1F JUMPI PUSH1 0x40 SWAP1 CALLER DUP5 MSTORE PUSH1 0x1E DUP2 MSTORE PUSH2 0x2AC0 DUP4 PUSH1 0x8 DUP5 DUP8 KECCAK256 ADD SLOAD PUSH2 0x581E JUMP JUMPDEST CALLER DUP6 MSTORE PUSH1 0x1E DUP3 MSTORE PUSH1 0x8 DUP4 DUP7 KECCAK256 ADD SSTORE DUP2 MLOAD SWAP3 DUP4 MSTORE DUP3 ADD MSTORE PUSH1 0xC PUSH1 0x40 DUP3 ADD MSTORE PUSH12 0x564D4620686F6C64696E6773 PUSH1 0xA0 SHL PUSH1 0x60 DUP3 ADD MSTORE PUSH32 0xA6064B0DE95F7CDA15129E7C36146C8ACCF65ABB7A3639D800A445FA55023A17 PUSH1 0x80 CALLER SWAP3 LOG2 PUSH1 0x1 DUP2 SSTORE DUP1 RETURN JUMPDEST PUSH1 0x64 SWAP1 PUSH1 0x40 MLOAD SWAP1 PUSH3 0x461BCD PUSH1 0xE5 SHL DUP3 MSTORE PUSH1 0x4 DUP3 ADD MSTORE PUSH1 0x17 PUSH1 0x24 DUP3 ADD MSTORE PUSH32 0x4C6F79616C747920706F696E747320746F6F2068696768000000000000000000 PUSH1 0x44 DUP3 ADD MSTORE REVERT JUMPDEST PUSH1 0x64 SWAP1 PUSH1 0x40 MLOAD SWAP1 PUSH3 0x461BCD PUSH1 0xE5 SHL DUP3 MSTORE PUSH1 0x4 DUP3 ADD MSTORE PUSH1 0x1A PUSH1 0x24 DUP3 ADD MSTORE PUSH32 0x4E6F206C6F79616C747920706F696E747320746F206177617264000000000000 PUSH1 0x44 DUP3 ADD MSTORE REVERT JUMPDEST PUSH4 0x4E487B71 PUSH1 0xE0 SHL DUP4 MSTORE PUSH1 0x11 PUSH1 0x4 MSTORE PUSH1 0x24 DUP4 REVERT JUMPDEST PUSH1 0x40 MLOAD PUSH3 0x461BCD PUSH1 0xE5 SHL DUP2 MSTORE PUSH1 0x4 DUP2 ADD DUP4 SWAP1 MSTORE PUSH1 0xE PUSH1 0x24 DUP3 ADD MSTORE PUSH14 0x4E6F20564D462062616C616E6365 PUSH1 0x90 SHL PUSH1 0x44 DUP3 ADD MSTORE PUSH1 0x64 SWAP1 REVERT JUMPDEST SWAP1 POP DUP2 DUP2 DUP2 RETURNDATASIZE DUP4 GT PUSH2 0x2C17 JUMPI JUMPDEST PUSH2 0x2C08 DUP2 DUP4 PUSH2 0x543C JUMP JUMPDEST DUP2 ADD SUB SLT PUSH2 0x25A9 JUMPI MLOAD CODESIZE PUSH2 0x2A71 JUMP JUMPDEST POP RETURNDATASIZE PUSH2 0x2BFE JUMP JUMPDEST POP CALLVALUE PUSH2 0x572 JUMPI PUSH2 0x2C2D CALLDATASIZE PUSH2 0x5699 JUMP JUMPDEST PUSH1 0x0 DUP1 MLOAD PUSH1 0x20 PUSH2 0x70F9 DUP4 CODECOPY DUP2 MLOAD SWAP2 MSTORE DUP5 MSTORE PUSH1 0x20 SWAP1 PUSH1 0x1C DUP3 MSTORE PUSH1 0x40 DUP6 KECCAK256 CALLER DUP7 MSTORE DUP3 MSTORE PUSH1 0xFF PUSH1 0x40 DUP7 KECCAK256 SLOAD AND DUP1 ISZERO PUSH2 0x2E4E JUMPI JUMPDEST PUSH2 0x2C66 SWAP1 PUSH2 0x59B7 JUMP JUMPDEST PUSH2 0x2C6E PUSH2 0x646B JUMP JUMPDEST DUP4 DUP6 MSTORE PUSH1 0x17 DUP3 MSTORE PUSH1 0xFF PUSH1 0x40 DUP7 KECCAK256 SLOAD AND PUSH2 0x2E12 JUMPI PUSH2 0x2C90 PUSH1 0x1A SLOAD PUSH1 0x1B SLOAD SWAP1 PUSH2 0x581E JUMP JUMPDEST TIMESTAMP LT PUSH2 0x2DCD JUMPI DUP4 DUP6 MSTORE PUSH1 0x19 DUP3 MSTORE PUSH1 0x40 DUP6 KECCAK256 SLOAD SUB PUSH2 0x2D93 JUMPI DUP3 DUP5 MSTORE PUSH1 0x17 DUP2 MSTORE PUSH1 0x40 DUP5 KECCAK256 SWAP1 PUSH1 0xFF NOT SWAP2 PUSH1 0x1 DUP4 DUP3 SLOAD AND OR SWAP1 SSTORE PUSH1 0x6 SLOAD SWAP2 DUP4 PUSH1 0x6 SSTORE PUSH1 0x18 DUP3 MSTORE PUSH1 0x40 DUP7 KECCAK256 SLOAD PUSH1 0x1 DUP2 ADD DUP1 SWAP2 GT PUSH2 0x2D7F JUMPI SWAP2 PUSH1 0x18 SWAP2 PUSH32 0x42D4A2476A82A032F615547E73391179C379C1EB26FB0BD034F43131AE2BC15D SWAP6 SWAP5 SWAP4 DUP8 DUP10 MSTORE DUP4 DUP4 MSTORE DUP1 PUSH1 0x40 DUP11 KECCAK256 SSTORE PUSH1 0x40 MLOAD DUP4 DUP2 ADD SWAP2 DUP8 DUP4 MSTORE PUSH1 0x40 DUP3 ADD MSTORE TIMESTAMP PUSH1 0x60 DUP3 ADD MSTORE PUSH1 0x60 DUP2 MSTORE PUSH2 0x2D32 DUP2 PUSH2 0x5338 JUMP JUMPDEST MLOAD SWAP1 KECCAK256 DUP8 DUP10 MSTORE PUSH1 0x19 DUP4 MSTORE PUSH1 0x40 DUP10 KECCAK256 SSTORE TIMESTAMP PUSH1 0x1A SSTORE PUSH1 0x17 DUP3 MSTORE PUSH1 0x40 DUP9 KECCAK256 SWAP1 DUP2 SLOAD AND SWAP1 SSTORE MSTORE PUSH2 0x2D79 PUSH1 0x40 DUP7 KECCAK256 SLOAD PUSH1 0x40 MLOAD SWAP4 DUP5 SWAP4 DUP5 PUSH1 0x40 SWAP2 SWAP5 SWAP4 SWAP3 PUSH1 0x60 DUP3 ADD SWAP6 DUP3 MSTORE PUSH1 0x20 DUP3 ADD MSTORE ADD MSTORE JUMP JUMPDEST SUB SWAP1 LOG2 DUP1 RETURN JUMPDEST PUSH4 0x4E487B71 PUSH1 0xE0 SHL DUP8 MSTORE PUSH1 0x11 PUSH1 0x4 MSTORE PUSH1 0x24 DUP8 REVERT JUMPDEST PUSH1 0x64 SWAP1 PUSH1 0x40 MLOAD SWAP1 PUSH3 0x461BCD PUSH1 0xE5 SHL DUP3 MSTORE PUSH1 0x4 DUP3 ADD MSTORE PUSH1 0x13 PUSH1 0x24 DUP3 ADD MSTORE PUSH19 0xA6E8C2E8CA40D0C2E6D040DAD2E6DAC2E8C6D PUSH1 0x6B SHL PUSH1 0x44 DUP3 ADD MSTORE REVERT JUMPDEST PUSH1 0x40 MLOAD PUSH3 0x461BCD PUSH1 0xE5 SHL DUP2 MSTORE PUSH1 0x4 DUP2 ADD DUP4 SWAP1 MSTORE PUSH1 0x1B PUSH1 0x24 DUP3 ADD MSTORE PUSH32 0x4A61636B706F742075706461746520746F6F206672657175656E740000000000 PUSH1 0x44 DUP3 ADD MSTORE PUSH1 0x64 SWAP1 REVERT JUMPDEST PUSH1 0x40 MLOAD PUSH3 0x461BCD PUSH1 0xE5 SHL DUP2 MSTORE PUSH1 0x4 DUP2 ADD DUP4 SWAP1 MSTORE PUSH1 0x14 PUSH1 0x24 DUP3 ADD MSTORE PUSH20 0x11D85B59481CDD185D19481A5CC81B1BD8DAD959 PUSH1 0x62 SHL PUSH1 0x44 DUP3 ADD MSTORE PUSH1 0x64 SWAP1 REVERT JUMPDEST POP PUSH1 0x1 SLOAD PUSH1 0x1 PUSH1 0x1 PUSH1 0xA0 SHL SUB AND CALLER EQ PUSH2 0x2C5D JUMP JUMPDEST POP CALLVALUE PUSH2 0x572 JUMPI DUP1 PUSH1 0x3 NOT CALLDATASIZE ADD SLT PUSH2 0x572 JUMPI PUSH2 0x2E7B PUSH2 0x643F JUMP JUMPDEST PUSH1 0x1 DUP1 SLOAD PUSH1 0x1 PUSH1 0x1 PUSH1 0xA0 SHL SUB NOT DUP2 AND SWAP1 SWAP2 SSTORE DUP2 SWAP1 PUSH1 0x1 PUSH1 0x1 PUSH1 0xA0 SHL SUB AND PUSH32 0x8BE0079C531659141344CD1FD0A4F28419497F9722A3DAAFE3B4186F6B6457E0 DUP3 DUP1 LOG3 DUP1 RETURN JUMPDEST POP CALLVALUE PUSH2 0x572 JUMPI DUP1 PUSH1 0x3 NOT CALLDATASIZE ADD SLT PUSH2 0x572 JUMPI PUSH1 0x20 PUSH1 0x40 MLOAD PUSH32 0x59A1C48E5837AD7A7F3DCEDCBE129BF3249EC4FBF651FD4F5E2600EAD39FE2F5 DUP2 MSTORE RETURN JUMPDEST POP CALLVALUE PUSH2 0x572 JUMPI PUSH1 0x20 CALLDATASIZE PUSH1 0x3 NOT ADD SLT PUSH2 0x572 JUMPI PUSH32 0x37AA3048A2B523E3218796793D7C9283CBD45124C62254C97FEBFC1292524294 PUSH1 0x20 PUSH1 0x4 CALLDATALOAD PUSH32 0xA49807205CE4D355092EF5A8A18F56E8913CF4A201FBE287825B095693C21775 DUP5 MSTORE PUSH1 0x1C DUP3 MSTORE PUSH1 0x40 DUP5 KECCAK256 CALLER DUP6 MSTORE DUP3 MSTORE PUSH1 0xFF PUSH1 0x40 DUP6 KECCAK256 SLOAD AND DUP1 ISZERO PUSH2 0x2F88 JUMPI JUMPDEST PUSH2 0x2F7A SWAP1 PUSH2 0x59B7 JUMP JUMPDEST DUP1 PUSH1 0x1B SSTORE PUSH1 0x40 MLOAD SWAP1 DUP2 MSTORE LOG1 DUP1 RETURN JUMPDEST POP PUSH1 0x1 SLOAD PUSH1 0x1 PUSH1 0x1 PUSH1 0xA0 SHL SUB AND CALLER EQ PUSH2 0x2F71 JUMP JUMPDEST POP CALLVALUE PUSH2 0x572 JUMPI DUP1 PUSH1 0x3 NOT CALLDATASIZE ADD SLT PUSH2 0x572 JUMPI PUSH1 0x20 PUSH1 0x40 MLOAD PUSH1 0x5 DUP2 MSTORE RETURN JUMPDEST POP CALLVALUE PUSH2 0x572 JUMPI DUP1 PUSH1 0x3 NOT CALLDATASIZE ADD SLT PUSH2 0x572 JUMPI PUSH1 0x3 SLOAD PUSH1 0x40 MLOAD PUSH1 0x1 PUSH1 0x1 PUSH1 0xA0 SHL SUB SWAP1 SWAP2 AND DUP2 MSTORE PUSH1 0x20 SWAP1 RETURN JUMPDEST POP CALLVALUE PUSH2 0x572 JUMPI PUSH1 0x20 CALLDATASIZE PUSH1 0x3 NOT ADD SLT PUSH2 0x572 JUMPI PUSH1 0x40 PUSH1 0x20 SWAP2 PUSH1 0x4 CALLDATALOAD DUP2 MSTORE PUSH1 0x19 DUP4 MSTORE KECCAK256 SLOAD PUSH1 0x40 MLOAD SWAP1 DUP2 MSTORE RETURN JUMPDEST POP CALLVALUE PUSH2 0x572 JUMPI DUP1 PUSH1 0x3 NOT CALLDATASIZE ADD SLT PUSH2 0x572 JUMPI PUSH1 0x20 PUSH1 0xFF PUSH1 0x1 SLOAD PUSH1 0xA0 SHR AND PUSH1 0x40 MLOAD SWAP1 ISZERO ISZERO DUP2 MSTORE RETURN JUMPDEST POP CALLVALUE PUSH2 0x572 JUMPI PUSH2 0x3040 CALLDATASIZE PUSH2 0x5478 JUMP JUMPDEST PUSH2 0x3048 PUSH2 0x64E9 JUMP JUMPDEST PUSH2 0x3050 PUSH2 0x646B JUMP JUMPDEST CALLER DUP3 MSTORE PUSH1 0x20 SWAP1 PUSH1 0x22 DUP3 MSTORE PUSH2 0x306B PUSH1 0xFF PUSH1 0x40 DUP6 KECCAK256 SLOAD AND ISZERO PUSH2 0x5841 JUMP JUMPDEST CALLER DUP4 MSTORE PUSH1 0x1E SWAP2 DUP3 DUP2 MSTORE PUSH2 0x3088 PUSH1 0xFF PUSH1 0x6 PUSH1 0x40 DUP8 KECCAK256 ADD SLOAD AND ISZERO PUSH2 0x5841 JUMP JUMPDEST CALLER DUP5 MSTORE DUP3 DUP2 MSTORE PUSH1 0xFF PUSH1 0x10 PUSH1 0x40 DUP7 KECCAK256 ADD SLOAD AND PUSH2 0x392B JUMPI CALLER DUP5 MSTORE DUP3 DUP2 MSTORE PUSH1 0x3 PUSH1 0x40 DUP6 KECCAK256 ADD SLOAD PUSH2 0xE10 SWAP1 DUP2 DUP2 ADD DUP1 SWAP2 GT PUSH2 0xB59 JUMPI TIMESTAMP LT PUSH2 0x38F0 JUMPI CALLER DUP6 MSTORE PUSH1 0x25 DUP3 MSTORE PUSH1 0x40 DUP6 KECCAK256 SLOAD TIMESTAMP LT PUSH2 0x38AB JUMPI CALLER DUP6 MSTORE DUP4 DUP3 MSTORE PUSH1 0xF PUSH1 0x40 DUP7 KECCAK256 ADD SLOAD DUP2 DUP2 ADD DUP1 SWAP2 GT PUSH2 0xB59 JUMPI TIMESTAMP LT PUSH2 0x3866 JUMPI CALLER DUP6 MSTORE PUSH1 0x26 DUP3 MSTORE TIMESTAMP PUSH1 0x40 DUP7 KECCAK256 SSTORE DUP4 DUP3 MSTORE TIMESTAMP PUSH1 0xF PUSH1 0x40 DUP8 KECCAK256 ADD SSTORE PUSH1 0x5 SLOAD ISZERO PUSH2 0x382F JUMPI PUSH2 0x3119 CALLER PUSH2 0x6903 JUMP JUMPDEST PUSH2 0x37EA JUMPI PUSH2 0x3125 PUSH2 0x6962 JUMP JUMPDEST SWAP4 DUP5 ISZERO PUSH2 0x37A5 JUMPI PUSH1 0x40 MLOAD PUSH4 0x70A08231 PUSH1 0xE0 SHL DUP2 MSTORE CALLER PUSH1 0x4 DUP3 ADD MSTORE PUSH32 0x0 PUSH1 0x1 PUSH1 0x1 PUSH1 0xA0 SHL SUB AND SWAP6 PUSH1 0x24 SWAP6 SWAP1 SWAP2 DUP6 DUP2 DUP9 DUP2 DUP12 GAS STATICCALL DUP1 ISZERO PUSH2 0x3500 JUMPI DUP4 SWAP1 DUP11 SWAP1 PUSH2 0x3774 JUMPI JUMPDEST PUSH2 0x3191 SWAP3 POP LT ISZERO PUSH2 0x61D4 JUMP JUMPDEST PUSH1 0x40 MLOAD PUSH4 0x6EB1769F PUSH1 0xE1 SHL DUP2 MSTORE CALLER PUSH1 0x4 DUP3 ADD MSTORE ADDRESS PUSH1 0x24 DUP3 ADD MSTORE DUP6 DUP2 PUSH1 0x44 DUP2 DUP12 GAS STATICCALL DUP1 ISZERO PUSH2 0x3500 JUMPI DUP4 SWAP1 DUP11 SWAP1 PUSH2 0x373F JUMPI JUMPDEST PUSH2 0x31CD SWAP3 POP LT ISZERO PUSH2 0x6220 JUMP JUMPDEST CALLER DUP9 MSTORE DUP3 DUP6 MSTORE PUSH1 0x1 SWAP7 PUSH1 0xA DUP9 PUSH1 0x40 DUP12 KECCAK256 ADD SLOAD LT ISZERO PUSH2 0x36FB JUMPI PUSH1 0x40 MLOAD PUSH2 0x31F1 DUP2 PUSH2 0x53CF JUMP JUMPDEST DUP10 DUP2 MSTORE SWAP2 DUP1 MLOAD ISZERO DUP1 ISZERO PUSH2 0x350B JUMPI JUMPDEST POP POP PUSH1 0x40 MLOAD PUSH4 0x23B872DD PUSH1 0xE0 SHL DUP2 MSTORE CALLER PUSH1 0x4 DUP3 ADD MSTORE ADDRESS PUSH1 0x24 DUP3 ADD MSTORE PUSH1 0x44 DUP2 ADD DUP5 SWAP1 MSTORE SWAP1 DUP7 SWAP1 DUP3 SWAP1 PUSH1 0x64 SWAP1 DUP3 SWAP1 DUP14 SWAP1 GAS CALL DUP1 ISZERO PUSH2 0x3500 JUMPI PUSH2 0x3245 SWAP2 DUP11 SWAP2 PUSH2 0x34E9 JUMPI POP PUSH2 0x626C JUMP JUMPDEST CALLER DUP9 MSTORE DUP3 DUP6 MSTORE DUP7 PUSH1 0x40 DUP10 KECCAK256 ADD SLOAD DUP8 DUP2 ADD DUP1 SWAP2 GT PUSH2 0x34D6 JUMPI CALLER DUP10 MSTORE DUP4 DUP7 MSTORE PUSH1 0x40 DUP10 KECCAK256 SWAP1 DUP9 DUP3 ADD SSTORE TIMESTAMP PUSH1 0x3 DUP3 ADD SSTORE SLOAD DUP8 DUP2 ADD DUP1 SWAP2 GT PUSH2 0x34D6 JUMPI CALLER DUP10 MSTORE DUP4 DUP7 MSTORE PUSH1 0x40 DUP10 KECCAK256 SSTORE PUSH1 0x5 SLOAD DUP9 MSTORE PUSH1 0xB DUP6 MSTORE PUSH2 0x329D CALLER PUSH1 0x40 DUP11 KECCAK256 PUSH2 0x57E3 JUMP JUMPDEST PUSH1 0x5 SLOAD DUP1 DUP10 MSTORE PUSH1 0xC DUP7 MSTORE PUSH1 0x40 DUP10 KECCAK256 SLOAD SWAP1 DUP9 DUP3 ADD DUP1 SWAP3 GT PUSH2 0x34C3 JUMPI DUP10 MSTORE PUSH1 0xC DUP7 MSTORE PUSH1 0x40 DUP10 KECCAK256 SSTORE PUSH2 0x32CE DUP3 PUSH1 0x6 SLOAD PUSH2 0x581E JUMP JUMPDEST PUSH1 0x6 SSTORE DUP1 MLOAD PUSH2 0x347C JUMPI JUMPDEST POP CALLER DUP8 MSTORE DUP5 DUP5 MSTORE PUSH1 0x40 DUP8 KECCAK256 SLOAD DUP7 DUP2 ADD DUP1 SWAP2 GT PUSH2 0x3425 JUMPI PUSH1 0x64 DUP2 GT PUSH2 0x3438 JUMPI CALLER DUP9 MSTORE DUP6 DUP6 MSTORE PUSH1 0x40 DUP9 KECCAK256 SSTORE DUP2 DUP5 MSTORE PUSH1 0xE PUSH1 0x40 DUP9 KECCAK256 ADD SLOAD DUP7 DUP2 ADD DUP1 SWAP2 GT PUSH2 0x3425 JUMPI CALLER DUP9 MSTORE DUP3 DUP6 MSTORE PUSH1 0xE PUSH1 0x40 DUP10 KECCAK256 ADD SSTORE PUSH1 0x40 MLOAD DUP7 DUP2 MSTORE PUSH1 0x40 DUP6 DUP3 ADD MSTORE PUSH1 0x11 PUSH1 0x40 DUP3 ADD MSTORE PUSH17 0x11185A5B1E481C1B185E481C995DD85C99 PUSH1 0x7A SHL PUSH1 0x60 DUP3 ADD MSTORE PUSH1 0x0 DUP1 MLOAD PUSH1 0x20 PUSH2 0x7139 DUP4 CODECOPY DUP2 MLOAD SWAP2 MSTORE PUSH1 0x80 CALLER SWAP3 LOG2 PUSH1 0x5 SLOAD SWAP1 PUSH1 0x40 MLOAD SWAP1 DUP2 MSTORE PUSH32 0x480A6DAEA81F2AF589E1959DA1F1719512392EC551E8966266EE820F1C1F72EA DUP6 CALLER SWAP3 LOG3 PUSH32 0x404449B42E86F8716DD5AC141731FB164FE1F76D7E4039FDD16C7B3B48F96A4E PUSH1 0x40 PUSH1 0x6 SLOAD PUSH1 0x7 SLOAD DUP3 MLOAD SWAP2 DUP3 MSTORE DUP7 DUP3 ADD MSTORE LOG1 CALLER DUP7 MSTORE DUP3 MSTORE PUSH1 0x10 PUSH1 0x40 DUP7 KECCAK256 ADD DUP5 PUSH1 0xFF NOT DUP3 SLOAD AND OR SWAP1 SSTORE TIMESTAMP ADD SWAP2 DUP3 TIMESTAMP GT PUSH2 0x11D9 JUMPI POP PUSH32 0x2F9A50B0843B7D2D827707C950209B525673C306D684446F6C4B1B748A4ED9EE SWAP1 CALLER DUP6 MSTORE PUSH1 0x25 DUP2 MSTORE DUP3 PUSH1 0x40 DUP7 KECCAK256 SSTORE PUSH1 0x40 MLOAD SWAP3 DUP4 MSTORE CALLER SWAP3 LOG2 DUP2 SSTORE DUP1 RETURN JUMPDEST PUSH4 0x4E487B71 PUSH1 0xE0 SHL DUP9 MSTORE PUSH1 0x11 PUSH1 0x4 MSTORE DUP6 DUP9 REVERT JUMPDEST PUSH1 0x40 MLOAD PUSH3 0x461BCD PUSH1 0xE5 SHL DUP2 MSTORE PUSH1 0x4 DUP2 ADD DUP7 SWAP1 MSTORE PUSH1 0x1B DUP2 DUP9 ADD MSTORE PUSH32 0x4461696C7920726577617264206C696D69742065786365656465640000000000 PUSH1 0x44 DUP3 ADD MSTORE PUSH1 0x64 SWAP1 REVERT JUMPDEST PUSH2 0x34B5 PUSH32 0x64274D45E838268EFE3B4FA5586A29791F42C0F3F9A6422424C424401BF39589 SWAP2 PUSH1 0x40 MLOAD SWAP2 DUP3 SWAP2 PUSH1 0x40 DUP4 MSTORE PUSH1 0x40 DUP4 ADD SWAP1 PUSH2 0x5625 JUMP JUMPDEST CALLER DUP9 DUP4 ADD MSTORE SUB SWAP1 LOG1 CODESIZE PUSH2 0x32D8 JUMP JUMPDEST PUSH4 0x4E487B71 PUSH1 0xE0 SHL DUP11 MSTORE PUSH1 0x11 PUSH1 0x4 MSTORE DUP8 DUP11 REVERT JUMPDEST PUSH4 0x4E487B71 PUSH1 0xE0 SHL DUP10 MSTORE PUSH1 0x11 PUSH1 0x4 MSTORE DUP7 DUP10 REVERT JUMPDEST PUSH2 0x1E24 SWAP2 POP DUP8 RETURNDATASIZE DUP10 GT PUSH2 0xB93 JUMPI PUSH2 0xB85 DUP2 DUP4 PUSH2 0x543C JUMP JUMPDEST PUSH1 0x40 MLOAD RETURNDATASIZE DUP12 DUP3 RETURNDATACOPY RETURNDATASIZE SWAP1 REVERT JUMPDEST SWAP1 SWAP3 POP PUSH2 0x36BF JUMPI PUSH1 0x64 DUP3 MLOAD GT PUSH2 0x368A JUMPI PUSH2 0x3525 DUP3 MLOAD PUSH2 0x6B18 JUMP JUMPDEST SWAP2 DUP9 DUP11 SWAP2 DUP2 DUP13 SWAP1 JUMPDEST PUSH2 0x361A JUMPI JUMPDEST POP POP POP DUP1 ISZERO PUSH2 0x35D6 JUMPI PUSH2 0x3544 DUP2 PUSH2 0x6B18 JUMP JUMPDEST SWAP3 DUP10 DUP12 JUMPDEST DUP4 DUP2 LT PUSH2 0x35AC JUMPI POP POP POP POP PUSH2 0x355C DUP3 PUSH2 0x6B5B JUMP JUMPDEST ISZERO PUSH2 0x3568 JUMPI CODESIZE DUP1 PUSH2 0x31FF JUMP JUMPDEST PUSH1 0x40 MLOAD PUSH3 0x461BCD PUSH1 0xE5 SHL DUP2 MSTORE PUSH1 0x4 DUP2 ADD DUP8 SWAP1 MSTORE PUSH1 0x1C DUP2 DUP10 ADD MSTORE PUSH32 0x496E76616C696420726566657272616C20636F646520666F726D617400000000 PUSH1 0x44 DUP3 ADD MSTORE PUSH1 0x64 SWAP1 REVERT JUMPDEST PUSH1 0x1 PUSH1 0x1 PUSH1 0xF8 SHL SUB NOT PUSH2 0x35BF DUP3 DUP6 PUSH2 0x6B4A JUMP JUMPDEST MLOAD AND DUP14 BYTE PUSH2 0x35CD DUP3 DUP9 PUSH2 0x6B4A JUMP JUMPDEST MSTORE8 ADD DUP11 SWAP1 PUSH2 0x3548 JUMP JUMPDEST PUSH1 0x40 MLOAD PUSH3 0x461BCD PUSH1 0xE5 SHL DUP2 MSTORE PUSH1 0x4 DUP2 ADD DUP9 SWAP1 MSTORE PUSH1 0x1C DUP2 DUP11 ADD MSTORE PUSH32 0x4E6F2076616C6964206368617261637465727320696E20696E70757400000000 PUSH1 0x44 DUP3 ADD MSTORE PUSH1 0x64 SWAP1 REVERT JUMPDEST DUP2 MLOAD DUP2 LT ISZERO PUSH2 0x3685 JUMPI PUSH1 0x1 PUSH1 0x1 PUSH1 0xF8 SHL SUB NOT PUSH2 0x3636 DUP3 DUP5 PUSH2 0x6B4A JUMP JUMPDEST MLOAD AND DUP14 PUSH1 0x1 PUSH1 0xFD SHL DUP3 LT ISZERO DUP1 PUSH2 0x3677 JUMPI JUMPDEST PUSH2 0x3656 JUMPI JUMPDEST POP POP DUP3 ADD DUP3 PUSH2 0x352D JUMP JUMPDEST SWAP5 PUSH2 0x366F SWAP2 DUP6 SWAP4 SWAP7 BYTE PUSH2 0x3669 DUP3 DUP11 PUSH2 0x6B4A JUMP JUMPDEST MSTORE8 PUSH2 0x5A75 JUMP JUMPDEST SWAP4 SWAP1 DUP14 PUSH2 0x364C JUMP JUMPDEST POP PUSH1 0x3F PUSH1 0xF9 SHL DUP3 GT ISZERO PUSH2 0x3647 JUMP JUMPDEST PUSH2 0x3532 JUMP JUMPDEST PUSH1 0x40 MLOAD PUSH3 0x461BCD PUSH1 0xE5 SHL DUP2 MSTORE PUSH1 0x4 DUP2 ADD DUP8 SWAP1 MSTORE PUSH1 0xE DUP2 DUP10 ADD MSTORE PUSH14 0x496E70757420746F6F206C6F6E67 PUSH1 0x90 SHL PUSH1 0x44 DUP3 ADD MSTORE PUSH1 0x64 SWAP1 REVERT JUMPDEST PUSH1 0x40 MLOAD PUSH3 0x461BCD PUSH1 0xE5 SHL DUP2 MSTORE PUSH1 0x4 DUP2 ADD DUP8 SWAP1 MSTORE PUSH1 0x15 DUP2 DUP10 ADD MSTORE PUSH21 0x496E7075742063616E6E6F7420626520656D707479 PUSH1 0x58 SHL PUSH1 0x44 DUP3 ADD MSTORE PUSH1 0x64 SWAP1 REVERT JUMPDEST PUSH1 0x40 MLOAD PUSH3 0x461BCD PUSH1 0xE5 SHL DUP2 MSTORE PUSH1 0x4 DUP2 ADD DUP8 SWAP1 MSTORE PUSH1 0x19 DUP2 DUP10 ADD MSTORE PUSH32 0x4D6178206461696C7920656E7472696573207265616368656400000000000000 PUSH1 0x44 DUP3 ADD MSTORE PUSH1 0x64 SWAP1 REVERT JUMPDEST POP POP DUP6 DUP2 DUP2 RETURNDATASIZE DUP4 GT PUSH2 0x376D JUMPI JUMPDEST PUSH2 0x3756 DUP2 DUP4 PUSH2 0x543C JUMP JUMPDEST DUP2 ADD SUB SLT PUSH2 0x3769 JUMPI DUP3 PUSH2 0x31CD SWAP2 MLOAD PUSH2 0x31C1 JUMP JUMPDEST DUP9 DUP1 REVERT JUMPDEST POP RETURNDATASIZE PUSH2 0x374C JUMP JUMPDEST POP POP DUP6 DUP2 DUP2 RETURNDATASIZE DUP4 GT PUSH2 0x379E JUMPI JUMPDEST PUSH2 0x378B DUP2 DUP4 PUSH2 0x543C JUMP JUMPDEST DUP2 ADD SUB SLT PUSH2 0x3769 JUMPI DUP3 PUSH2 0x3191 SWAP2 MLOAD PUSH2 0x3185 JUMP JUMPDEST POP RETURNDATASIZE PUSH2 0x3781 JUMP JUMPDEST PUSH1 0x40 MLOAD PUSH3 0x461BCD PUSH1 0xE5 SHL DUP2 MSTORE PUSH1 0x4 DUP2 ADD DUP5 SWAP1 MSTORE PUSH1 0x1C PUSH1 0x24 DUP3 ADD MSTORE PUSH32 0x496E76616C696420656E747279206665652063616C63756C6174656400000000 PUSH1 0x44 DUP3 ADD MSTORE PUSH1 0x64 SWAP1 REVERT JUMPDEST PUSH1 0x40 MLOAD PUSH3 0x461BCD PUSH1 0xE5 SHL DUP2 MSTORE PUSH1 0x4 DUP2 ADD DUP4 SWAP1 MSTORE PUSH1 0x1C PUSH1 0x24 DUP3 ADD MSTORE PUSH32 0x537573706963696F757320616374697669747920646574656374656400000000 PUSH1 0x44 DUP3 ADD MSTORE PUSH1 0x64 SWAP1 REVERT JUMPDEST PUSH1 0x40 MLOAD PUSH3 0x461BCD PUSH1 0xE5 SHL DUP2 MSTORE PUSH1 0x4 DUP2 ADD DUP4 SWAP1 MSTORE PUSH1 0xF PUSH1 0x24 DUP3 ADD MSTORE PUSH15 0x125B9D985B1A590819D85B59481251 PUSH1 0x8A SHL PUSH1 0x44 DUP3 ADD MSTORE PUSH1 0x64 SWAP1 REVERT JUMPDEST PUSH1 0x40 MLOAD PUSH3 0x461BCD PUSH1 0xE5 SHL DUP2 MSTORE PUSH1 0x4 DUP2 ADD DUP4 SWAP1 MSTORE PUSH1 0x1B PUSH1 0x24 DUP3 ADD MSTORE PUSH32 0x536563757269747920636865636B20746F6F206672657175656E740000000000 PUSH1 0x44 DUP3 ADD MSTORE PUSH1 0x64 SWAP1 REVERT JUMPDEST PUSH1 0x40 MLOAD PUSH3 0x461BCD PUSH1 0xE5 SHL DUP2 MSTORE PUSH1 0x4 DUP2 ADD DUP4 SWAP1 MSTORE PUSH1 0x1A PUSH1 0x24 DUP3 ADD MSTORE PUSH32 0x52617465206C696D697420636F6F6C646F776E20616374697665000000000000 PUSH1 0x44 DUP3 ADD MSTORE PUSH1 0x64 SWAP1 REVERT JUMPDEST PUSH1 0x40 MLOAD PUSH3 0x461BCD PUSH1 0xE5 SHL DUP2 MSTORE PUSH1 0x4 DUP2 ADD DUP4 SWAP1 MSTORE PUSH1 0x13 PUSH1 0x24 DUP3 ADD MSTORE PUSH19 0x14985D19481B1A5B5A5D08195E18D959591959 PUSH1 0x6A SHL PUSH1 0x44 DUP3 ADD MSTORE PUSH1 0x64 SWAP1 REVERT JUMPDEST PUSH1 0x64 SWAP1 PUSH1 0x40 MLOAD SWAP1 PUSH3 0x461BCD PUSH1 0xE5 SHL DUP3 MSTORE PUSH1 0x4 DUP3 ADD MSTORE PUSH1 0x14 PUSH1 0x24 DUP3 ADD MSTORE PUSH20 0x155CD95C881A5CC81C985D19481B1A5B5A5D1959 PUSH1 0x62 SHL PUSH1 0x44 DUP3 ADD MSTORE REVERT JUMPDEST POP CALLVALUE PUSH2 0x572 JUMPI DUP1 PUSH1 0x3 NOT CALLDATASIZE ADD SLT PUSH2 0x572 JUMPI PUSH1 0x20 PUSH1 0x13 SLOAD PUSH1 0x40 MLOAD SWAP1 DUP2 MSTORE RETURN JUMPDEST POP CALLVALUE PUSH2 0x572 JUMPI DUP1 PUSH1 0x3 NOT CALLDATASIZE ADD SLT PUSH2 0x572 JUMPI PUSH32 0xA49807205CE4D355092EF5A8A18F56E8913CF4A201FBE287825B095693C21775 DUP2 MSTORE PUSH1 0x20 SWAP1 PUSH1 0x1C DUP3 MSTORE PUSH1 0x40 DUP2 KECCAK256 CALLER DUP3 MSTORE DUP3 MSTORE PUSH1 0xFF SWAP2 PUSH1 0xFF PUSH1 0x40 DUP4 KECCAK256 SLOAD AND DUP1 ISZERO PUSH2 0x3AE4 JUMPI JUMPDEST PUSH2 0x39E3 SWAP1 PUSH2 0x59B7 JUMP JUMPDEST PUSH1 0x2A SLOAD PUSH2 0xE10 DUP2 ADD DUP1 SWAP2 GT PUSH2 0x2BA7 JUMPI TIMESTAMP LT PUSH2 0x3AA0 JUMPI DUP2 JUMPDEST PUSH1 0x64 DUP2 LT PUSH2 0x3A4B JUMPI POP TIMESTAMP PUSH1 0x2A SSTORE PUSH1 0x29 SLOAD PUSH1 0x1 DUP2 ADD DUP1 SWAP2 GT PUSH2 0x2BA7 JUMPI PUSH32 0x1B9B06155F0DA9BCE83C4A8A54DCCA59CDF479249CEB43679C0BD7FA67B2F188 SWAP2 DUP2 PUSH1 0x40 SWAP3 PUSH1 0x29 SSTORE DUP3 MLOAD SWAP2 TIMESTAMP DUP4 MSTORE DUP3 ADD MSTORE LOG1 DUP1 RETURN JUMPDEST DUP1 PUSH1 0x1 SWAP2 NUMBER GT DUP1 PUSH2 0x3A83 JUMPI JUMPDEST PUSH2 0x3A62 JUMPI JUMPDEST ADD PUSH2 0x39FA JUMP JUMPDEST PUSH2 0x3A6C DUP2 NUMBER PUSH2 0x61C7 JUMP JUMPDEST DUP5 MSTORE PUSH1 0x28 DUP4 MSTORE PUSH1 0x40 DUP5 KECCAK256 DUP1 SLOAD PUSH1 0xFF NOT AND SWAP1 SSTORE PUSH2 0x3A5C JUMP JUMPDEST POP PUSH2 0x3A8E DUP2 NUMBER PUSH2 0x61C7 JUMP JUMPDEST DUP5 MSTORE PUSH1 0x28 DUP4 MSTORE DUP5 PUSH1 0x40 DUP6 KECCAK256 SLOAD AND PUSH2 0x3A57 JUMP JUMPDEST PUSH1 0x64 SWAP1 PUSH1 0x40 MLOAD SWAP1 PUSH3 0x461BCD PUSH1 0xE5 SHL DUP3 MSTORE PUSH1 0x4 DUP3 ADD MSTORE PUSH1 0x19 PUSH1 0x24 DUP3 ADD MSTORE PUSH32 0x4F7074696D697A6174696F6E20746F6F206672657175656E7400000000000000 PUSH1 0x44 DUP3 ADD MSTORE REVERT JUMPDEST POP PUSH1 0x1 SLOAD PUSH1 0x1 PUSH1 0x1 PUSH1 0xA0 SHL SUB AND CALLER EQ PUSH2 0x39DA JUMP JUMPDEST POP CALLVALUE PUSH2 0x572 JUMPI PUSH1 0x20 CALLDATASIZE PUSH1 0x3 NOT ADD SLT PUSH2 0x572 JUMPI PUSH1 0x40 PUSH2 0x220 SWAP2 PUSH2 0x3B18 PUSH2 0x5298 JUMP JUMPDEST DUP2 PUSH2 0x200 DUP5 MLOAD PUSH2 0x3B27 DUP2 PUSH2 0x5369 JUMP JUMPDEST DUP3 DUP2 MSTORE DUP3 PUSH1 0x20 DUP3 ADD MSTORE DUP3 DUP7 DUP3 ADD MSTORE DUP3 PUSH1 0x60 DUP3 ADD MSTORE DUP3 PUSH1 0x80 DUP3 ADD MSTORE DUP3 PUSH1 0xA0 DUP3 ADD MSTORE DUP3 PUSH1 0xC0 DUP3 ADD MSTORE DUP3 PUSH1 0xE0 DUP3 ADD MSTORE DUP3 PUSH2 0x100 DUP3 ADD MSTORE DUP3 PUSH2 0x120 DUP3 ADD MSTORE DUP3 PUSH2 0x140 DUP3 ADD MSTORE DUP3 PUSH2 0x160 DUP3 ADD MSTORE DUP3 PUSH2 0x180 DUP3 ADD MSTORE DUP3 PUSH2 0x1A0 DUP3 ADD MSTORE DUP3 PUSH2 0x1C0 DUP3 ADD MSTORE DUP3 PUSH2 0x1E0 DUP3 ADD MSTORE ADD MSTORE PUSH1 0x1 DUP1 PUSH1 0xA0 SHL SUB AND DUP2 MSTORE PUSH1 0x1E PUSH1 0x20 MSTORE KECCAK256 PUSH2 0x200 PUSH1 0x40 MLOAD PUSH2 0x3BAC DUP2 PUSH2 0x5369 JUMP JUMPDEST PUSH1 0xFF PUSH1 0x10 DUP5 SLOAD SWAP5 DUP6 DUP5 MSTORE PUSH1 0x1 DUP2 ADD SLOAD PUSH1 0x20 DUP6 ADD MSTORE PUSH1 0x2 DUP2 ADD SLOAD PUSH1 0x40 DUP6 ADD MSTORE PUSH1 0x3 DUP2 ADD SLOAD PUSH1 0x60 DUP6 ADD MSTORE PUSH1 0x4 DUP2 ADD SLOAD PUSH1 0x80 DUP6 ADD MSTORE PUSH1 0x5 DUP2 ADD SLOAD PUSH1 0xA0 DUP6 ADD MSTORE DUP3 PUSH1 0x6 DUP3 ADD SLOAD AND ISZERO ISZERO PUSH1 0xC0 DUP6 ADD MSTORE PUSH1 0x7 DUP2 ADD SLOAD PUSH1 0xE0 DUP6 ADD MSTORE PUSH1 0x8 DUP2 ADD SLOAD PUSH2 0x100 DUP6 ADD MSTORE PUSH1 0x9 DUP2 ADD SLOAD PUSH2 0x120 DUP6 ADD MSTORE PUSH1 0xA DUP2 ADD SLOAD PUSH2 0x140 DUP6 ADD MSTORE PUSH1 0xB DUP2 ADD SLOAD PUSH2 0x160 DUP6 ADD MSTORE PUSH1 0xC DUP2 ADD SLOAD PUSH2 0x180 DUP6 ADD MSTORE DUP3 PUSH1 0xD DUP3 ADD SLOAD AND ISZERO ISZERO PUSH2 0x1A0 DUP6 ADD MSTORE PUSH1 0xE DUP2 ADD SLOAD PUSH2 0x1C0 DUP6 ADD MSTORE PUSH1 0xF DUP2 ADD SLOAD PUSH2 0x1E0 DUP6 ADD MSTORE ADD SLOAD AND ISZERO ISZERO DUP3 DUP3 ADD MSTORE PUSH1 0x40 MLOAD SWAP3 DUP4 MSTORE PUSH1 0x20 DUP2 ADD MLOAD PUSH1 0x20 DUP5 ADD MSTORE PUSH1 0x40 DUP2 ADD MLOAD PUSH1 0x40 DUP5 ADD MSTORE PUSH1 0x60 DUP2 ADD MLOAD PUSH1 0x60 DUP5 ADD MSTORE PUSH1 0x80 DUP2 ADD MLOAD PUSH1 0x80 DUP5 ADD MSTORE PUSH1 0xA0 DUP2 ADD MLOAD PUSH1 0xA0 DUP5 ADD MSTORE PUSH1 0xC0 DUP2 ADD MLOAD ISZERO ISZERO PUSH1 0xC0 DUP5 ADD MSTORE PUSH1 0xE0 DUP2 ADD MLOAD PUSH1 0xE0 DUP5 ADD MSTORE PUSH2 0x100 DUP2 ADD MLOAD PUSH2 0x100 DUP5 ADD MSTORE PUSH2 0x120 DUP2 ADD MLOAD PUSH2 0x120 DUP5 ADD MSTORE PUSH2 0x140 DUP2 ADD MLOAD PUSH2 0x140 DUP5 ADD MSTORE PUSH2 0x160 DUP2 ADD MLOAD PUSH2 0x160 DUP5 ADD MSTORE PUSH2 0x180 DUP2 ADD MLOAD PUSH2 0x180 DUP5 ADD MSTORE PUSH2 0x1A0 DUP2 ADD MLOAD ISZERO ISZERO PUSH2 0x1A0 DUP5 ADD MSTORE PUSH2 0x1C0 DUP2 ADD MLOAD PUSH2 0x1C0 DUP5 ADD MSTORE PUSH2 0x1E0 DUP2 ADD MLOAD PUSH2 0x1E0 DUP5 ADD MSTORE ADD MLOAD ISZERO ISZERO PUSH2 0x200 DUP3 ADD MSTORE RETURN JUMPDEST POP CALLVALUE PUSH2 0x572 JUMPI PUSH2 0x3D30 CALLDATASIZE PUSH2 0x564A JUMP JUMPDEST PUSH1 0x3 SLOAD PUSH1 0x1 PUSH1 0x1 PUSH1 0xA0 SHL SUB SWAP4 SWAP2 SWAP1 PUSH2 0x3D4B SWAP1 DUP6 AND CALLER EQ PUSH2 0x60BA JUMP JUMPDEST PUSH2 0x3D56 DUP2 ISZERO ISZERO PUSH2 0x6106 JUMP JUMPDEST PUSH2 0x3D62 DUP2 PUSH1 0x7 SLOAD PUSH2 0x5AA6 JUMP JUMPDEST DUP6 JUMPDEST DUP3 DUP2 LT PUSH2 0x3DB2 JUMPI POP POP PUSH32 0x266EAB4E9078D52EC3F1266D5B3619A11040584EF2997FDEA8AFA3C03FA55977 SWAP4 POP PUSH2 0x3DA4 SWAP1 PUSH1 0x7 SLOAD SWAP1 PUSH1 0x40 MLOAD SWAP5 DUP6 SWAP5 DUP6 PUSH2 0x616C JUMP JUMPDEST SUB SWAP1 LOG1 DUP1 PUSH1 0x7 SSTORE TIMESTAMP PUSH1 0x9 SSTORE DUP1 RETURN JUMPDEST DUP6 PUSH2 0x3DC1 PUSH2 0x2263 DUP4 DUP7 DUP10 PUSH2 0x6148 JUMP JUMPDEST AND PUSH2 0x3DCF JUMPI JUMPDEST PUSH1 0x1 ADD PUSH2 0x3D64 JUMP JUMPDEST PUSH2 0x3DDD PUSH2 0x2263 DUP3 DUP6 DUP9 PUSH2 0x6148 JUMP JUMPDEST PUSH1 0x40 MLOAD PUSH4 0xA9059CBB PUSH1 0xE0 SHL DUP2 MSTORE PUSH1 0x1 PUSH1 0x1 PUSH1 0xA0 SHL SUB SWAP2 SWAP1 SWAP2 AND PUSH1 0x4 DUP3 ADD MSTORE PUSH1 0x24 DUP2 ADD DUP4 SWAP1 MSTORE SWAP1 PUSH1 0x20 DUP1 DUP4 PUSH1 0x44 DUP2 DUP13 PUSH32 0x0 DUP14 AND GAS CALL DUP1 ISZERO PUSH2 0x3500 JUMPI PUSH1 0x1 SWAP4 PUSH2 0x3E4B SWAP3 DUP12 SWAP3 PUSH2 0x3E52 JUMPI JUMPDEST POP POP PUSH2 0x5ADE JUMP JUMPDEST SWAP1 POP PUSH2 0x3DC7 JUMP JUMPDEST PUSH2 0x3E68 SWAP3 POP DUP1 RETURNDATASIZE LT PUSH2 0xB93 JUMPI PUSH2 0xB85 DUP2 DUP4 PUSH2 0x543C JUMP JUMPDEST CODESIZE DUP1 PUSH2 0x3E44 JUMP JUMPDEST POP CALLVALUE PUSH2 0x572 JUMPI DUP1 PUSH1 0x3 NOT CALLDATASIZE ADD SLT PUSH2 0x572 JUMPI PUSH2 0x3E88 PUSH2 0x643F JUMP JUMPDEST PUSH2 0xC13 PUSH2 0x5E84 JUMP JUMPDEST POP CALLVALUE PUSH2 0x572 JUMPI PUSH1 0x20 CALLDATASIZE PUSH1 0x3 NOT ADD SLT PUSH2 0x572 JUMPI PUSH1 0x40 SWAP1 PUSH1 0x4 CALLDATALOAD DUP2 MSTORE PUSH1 0x23 PUSH1 0x20 MSTORE KECCAK256 DUP1 SLOAD PUSH1 0x40 MLOAD SWAP2 PUSH2 0x3ECE DUP4 PUSH2 0x3EC7 DUP2 PUSH1 0x1 DUP6 ADD PUSH2 0x5568 JUMP JUMPDEST SUB DUP5 PUSH2 0x543C JUMP JUMPDEST PUSH1 0x2 DUP2 ADD SLOAD SWAP1 PUSH1 0xFF PUSH1 0x4 PUSH1 0x3 DUP4 ADD SLOAD SWAP3 ADD SLOAD AND SWAP1 PUSH2 0x3EFE PUSH1 0x40 MLOAD SWAP6 DUP7 SWAP6 DUP7 MSTORE PUSH1 0xA0 PUSH1 0x20 DUP8 ADD MSTORE PUSH1 0xA0 DUP7 ADD SWAP1 PUSH2 0x5625 JUMP JUMPDEST SWAP3 PUSH1 0x40 DUP6 ADD MSTORE PUSH1 0x60 DUP5 ADD MSTORE ISZERO ISZERO PUSH1 0x80 DUP4 ADD MSTORE SUB SWAP1 RETURN JUMPDEST POP CALLVALUE PUSH2 0x572 JUMPI PUSH2 0x3F23 CALLDATASIZE PUSH2 0x52D8 JUMP JUMPDEST SWAP2 SWAP1 DUP2 MSTORE PUSH1 0xB PUSH1 0x20 MSTORE PUSH1 0x40 DUP2 KECCAK256 SWAP1 DUP2 SLOAD DUP4 LT ISZERO PUSH2 0x572 JUMPI PUSH1 0x20 PUSH2 0x62D DUP5 DUP5 PUSH2 0x52EE JUMP JUMPDEST POP CALLVALUE PUSH2 0x572 JUMPI PUSH1 0x40 CALLDATASIZE PUSH1 0x3 NOT ADD SLT PUSH2 0x572 JUMPI PUSH2 0x3F60 PUSH2 0x5298 JUMP JUMPDEST PUSH1 0x24 CALLDATALOAD SWAP1 DUP2 ISZERO ISZERO SWAP1 DUP2 DUP4 SUB PUSH2 0x21C4 JUMPI PUSH32 0x7C6A5677E7A854A53D06C412E00EBE65535F5343566CA7939AC7C7F6B0B00C16 SWAP2 PUSH2 0x3FDC PUSH1 0x20 SWAP3 PUSH2 0x3F9F PUSH2 0x643F JUMP JUMPDEST PUSH1 0x1 PUSH1 0x1 PUSH1 0xA0 SHL SUB AND DUP1 DUP8 MSTORE PUSH1 0x22 DUP5 MSTORE PUSH1 0x40 DUP1 DUP9 KECCAK256 DUP1 SLOAD SWAP8 ISZERO ISZERO PUSH1 0xFF AND PUSH1 0xFF NOT SWAP9 DUP10 AND DUP2 OR SWAP1 SWAP2 SSTORE PUSH1 0x1E DUP7 MSTORE SWAP1 DUP9 KECCAK256 PUSH1 0x6 ADD DUP1 SLOAD SWAP1 SWAP8 AND OR SWAP1 SWAP6 SSTORE JUMP JUMPDEST PUSH1 0x40 MLOAD SWAP1 DUP2 MSTORE LOG2 DUP1 RETURN JUMPDEST POP CALLVALUE PUSH2 0x572 JUMPI DUP1 PUSH1 0x3 NOT CALLDATASIZE ADD SLT PUSH2 0x572 JUMPI PUSH1 0x2 SLOAD PUSH1 0x40 MLOAD PUSH1 0x1 PUSH1 0x1 PUSH1 0xA0 SHL SUB SWAP1 SWAP2 AND DUP2 MSTORE PUSH1 0x20 SWAP1 RETURN JUMPDEST POP CALLVALUE PUSH2 0x572 JUMPI DUP1 PUSH1 0x3 NOT CALLDATASIZE ADD SLT PUSH2 0x572 JUMPI PUSH2 0x4028 PUSH2 0x643F JUMP JUMPDEST PUSH2 0xC13 PUSH2 0x5B2A JUMP JUMPDEST POP CALLVALUE PUSH2 0x572 JUMPI PUSH1 0x20 CALLDATASIZE PUSH1 0x3 NOT ADD SLT PUSH2 0x572 JUMPI PUSH1 0x60 SWAP1 PUSH1 0x6 SLOAD SWAP1 PUSH1 0x4 CALLDATALOAD DUP2 MSTORE PUSH1 0x19 PUSH1 0x20 MSTORE PUSH1 0x40 DUP1 DUP3 KECCAK256 SLOAD SWAP2 PUSH1 0x18 PUSH1 0x20 MSTORE KECCAK256 SLOAD SWAP1 PUSH1 0x40 MLOAD SWAP3 DUP4 MSTORE PUSH1 0x20 DUP4 ADD MSTORE PUSH1 0x40 DUP3 ADD MSTORE RETURN JUMPDEST POP CALLVALUE PUSH2 0x572 JUMPI DUP1 PUSH1 0x3 NOT CALLDATASIZE ADD SLT PUSH2 0x572 JUMPI PUSH1 0x20 PUSH1 0x7 SLOAD PUSH1 0x40 MLOAD SWAP1 DUP2 MSTORE RETURN JUMPDEST POP CALLVALUE PUSH2 0x572 JUMPI PUSH1 0x40 CALLDATASIZE PUSH1 0x3 NOT ADD SLT PUSH2 0x572 JUMPI PUSH1 0x1 PUSH1 0x1 PUSH1 0x40 SHL SUB PUSH1 0x4 CALLDATALOAD DUP2 DUP2 GT PUSH2 0x25A9 JUMPI CALLDATASIZE PUSH1 0x23 DUP3 ADD SLT ISZERO PUSH2 0x25A9 JUMPI DUP1 PUSH1 0x4 ADD CALLDATALOAD SWAP2 PUSH1 0x24 PUSH2 0x40D2 DUP5 PUSH2 0x551F JUMP JUMPDEST SWAP2 PUSH2 0x40E0 PUSH1 0x40 MLOAD SWAP4 DUP5 PUSH2 0x543C JUMP JUMPDEST DUP5 DUP4 MSTORE PUSH1 0x20 SWAP4 DUP5 DUP5 ADD DUP4 PUSH1 0x5 SWAP8 PUSH1 0x5 SHL DUP4 ADD ADD SWAP2 CALLDATASIZE DUP4 GT PUSH2 0x3769 JUMPI DUP5 DUP8 SWAP2 ADD SWAP2 JUMPDEST DUP4 DUP4 LT PUSH2 0x445F JUMPI POP POP POP POP DUP2 CALLDATALOAD SWAP1 DUP2 GT PUSH2 0x445B JUMPI CALLDATASIZE PUSH1 0x23 DUP3 ADD SLT ISZERO PUSH2 0x445B JUMPI DUP1 PUSH1 0x4 ADD CALLDATALOAD SWAP1 PUSH2 0x412F DUP3 PUSH2 0x551F JUMP JUMPDEST SWAP2 PUSH2 0x413D PUSH1 0x40 MLOAD SWAP4 DUP5 PUSH2 0x543C JUMP JUMPDEST DUP1 DUP4 MSTORE DUP4 DUP7 DUP5 ADD SWAP2 PUSH1 0x5 SHL DUP4 ADD ADD SWAP2 CALLDATASIZE DUP4 GT PUSH2 0x3769 JUMPI DUP5 DUP8 SWAP2 ADD SWAP2 JUMPDEST DUP4 DUP4 LT PUSH2 0x444B JUMPI POP POP POP POP PUSH1 0x0 DUP1 MLOAD PUSH1 0x20 PUSH2 0x70F9 DUP4 CODECOPY DUP2 MLOAD SWAP2 MSTORE DUP7 MSTORE PUSH1 0x1C DUP5 MSTORE PUSH1 0x40 DUP7 KECCAK256 CALLER DUP8 MSTORE DUP5 MSTORE PUSH1 0xFF PUSH1 0x40 DUP8 KECCAK256 SLOAD AND DUP1 ISZERO PUSH2 0x4437 JUMPI JUMPDEST PUSH2 0x419A SWAP1 PUSH2 0x59B7 JUMP JUMPDEST PUSH2 0x41A2 PUSH2 0x646B JUMP JUMPDEST DUP3 MLOAD DUP2 MLOAD SUB PUSH2 0x43FB JUMPI PUSH1 0xA DUP4 MLOAD GT PUSH2 0x43C0 JUMPI NUMBER DUP7 MSTORE PUSH1 0x28 DUP5 MSTORE PUSH1 0xFF PUSH1 0x40 DUP8 KECCAK256 SLOAD AND PUSH2 0x437C JUMPI NUMBER DUP7 MSTORE PUSH1 0x28 DUP5 MSTORE PUSH1 0x40 DUP7 KECCAK256 SWAP2 PUSH1 0x1 SWAP2 PUSH1 0xFF NOT SWAP4 DUP4 DUP6 DUP3 SLOAD AND OR SWAP1 SSTORE PUSH1 0x27 DUP7 MSTORE PUSH1 0x40 DUP9 KECCAK256 SLOAD DUP4 DUP2 ADD DUP1 SWAP2 GT PUSH2 0x4369 JUMPI NUMBER DUP10 MSTORE PUSH1 0x27 DUP8 MSTORE PUSH1 0x40 DUP10 KECCAK256 SSTORE DUP8 SWAP7 DUP8 DUP5 JUMPDEST PUSH2 0x4255 JUMPI JUMPDEST POP POP POP POP POP NUMBER DUP6 MSTORE PUSH1 0x28 DUP4 MSTORE PUSH1 0x40 DUP6 KECCAK256 SWAP1 DUP2 SLOAD AND SWAP1 SSTORE MLOAD SWAP1 PUSH1 0x40 MLOAD SWAP3 DUP4 MSTORE DUP3 ADD MSTORE PUSH32 0xC8A16388AF0851BDC51694269F90C12AF519CFBD71E7AB51D304B3BE25D11184 PUSH1 0x40 NUMBER SWAP3 LOG2 DUP1 RETURN JUMPDEST DUP7 MLOAD DUP2 LT ISZERO PUSH2 0x4364 JUMPI PUSH1 0x1 PUSH1 0x1 PUSH1 0xA0 SHL SUB DUP1 PUSH2 0x4271 DUP4 DUP11 PUSH2 0x5A61 JUMP JUMPDEST MLOAD AND ISZERO ISZERO DUP1 PUSH2 0x4351 JUMPI JUMPDEST PUSH2 0x4289 JUMPI JUMPDEST POP DUP5 ADD DUP5 PUSH2 0x4206 JUMP JUMPDEST PUSH2 0x4296 DUP3 DUP10 SWAP12 SWAP4 SWAP12 PUSH2 0x5A61 JUMP JUMPDEST MLOAD AND PUSH2 0x42A2 DUP11 DUP6 PUSH2 0x5A61 JUMP JUMPDEST MLOAD SWAP1 DUP1 DUP13 MSTORE PUSH1 0x1E DUP11 MSTORE DUP7 PUSH1 0x40 DUP14 KECCAK256 PUSH2 0x42BB DUP5 DUP3 SLOAD PUSH2 0x581E JUMP JUMPDEST DUP2 SSTORE TIMESTAMP PUSH1 0x3 DUP3 ADD SSTORE ADD DUP1 SLOAD SWAP1 DUP9 DUP3 ADD DUP1 SWAP3 GT PUSH2 0x433E JUMPI SSTORE DUP4 SLOAD DUP13 MSTORE PUSH1 0xB DUP11 MSTORE PUSH1 0x40 DUP13 KECCAK256 PUSH2 0x42E8 SWAP2 SWAP1 PUSH2 0x57E3 JUMP JUMPDEST DUP3 SLOAD DUP1 DUP13 MSTORE PUSH1 0xC DUP1 DUP12 MSTORE PUSH1 0x40 DUP14 KECCAK256 SLOAD SWAP2 DUP9 DUP4 ADD DUP1 SWAP4 GT PUSH2 0x433E JUMPI DUP14 MSTORE DUP11 MSTORE PUSH1 0x40 DUP13 KECCAK256 SSTORE PUSH2 0x4318 PUSH1 0x6 SWAP2 DUP3 SLOAD PUSH2 0x581E JUMP JUMPDEST SWAP1 SSTORE DUP5 DUP2 ADD DUP1 SWAP2 GT PUSH2 0x432B JUMPI SWAP8 DUP5 PUSH2 0x4280 JUMP JUMPDEST PUSH4 0x4E487B71 PUSH1 0xE0 SHL DUP11 MSTORE PUSH1 0x11 PUSH1 0x4 MSTORE DUP4 DUP11 REVERT JUMPDEST PUSH4 0x4E487B71 PUSH1 0xE0 SHL DUP15 MSTORE PUSH1 0x11 PUSH1 0x4 MSTORE DUP8 DUP15 REVERT JUMPDEST POP PUSH2 0x435C DUP3 DUP6 PUSH2 0x5A61 JUMP JUMPDEST MLOAD ISZERO ISZERO PUSH2 0x427B JUMP JUMPDEST PUSH2 0x420B JUMP JUMPDEST PUSH4 0x4E487B71 PUSH1 0xE0 SHL DUP10 MSTORE PUSH1 0x11 PUSH1 0x4 MSTORE DUP3 DUP10 REVERT JUMPDEST PUSH1 0x40 MLOAD PUSH3 0x461BCD PUSH1 0xE5 SHL DUP2 MSTORE PUSH1 0x4 DUP2 ADD DUP6 SWAP1 MSTORE PUSH1 0x1F DUP2 DUP5 ADD MSTORE PUSH32 0x42617463682070726F63657373696E6720616C72656164792061637469766500 PUSH1 0x44 DUP3 ADD MSTORE PUSH1 0x64 SWAP1 REVERT JUMPDEST PUSH1 0x40 MLOAD PUSH3 0x461BCD PUSH1 0xE5 SHL DUP2 MSTORE PUSH1 0x4 DUP2 ADD DUP6 SWAP1 MSTORE PUSH1 0x14 DUP2 DUP5 ADD MSTORE PUSH20 0x42617463682073697A6520746F6F206C61726765 PUSH1 0x60 SHL PUSH1 0x44 DUP3 ADD MSTORE PUSH1 0x64 SWAP1 REVERT JUMPDEST PUSH1 0x40 MLOAD PUSH3 0x461BCD PUSH1 0xE5 SHL DUP2 MSTORE PUSH1 0x4 DUP2 ADD DUP6 SWAP1 MSTORE PUSH1 0x15 DUP2 DUP5 ADD MSTORE PUSH21 0x82E4E4C2F240D8CADCCEE8D040DAD2E6DAC2E8C6D PUSH1 0x5B SHL PUSH1 0x44 DUP3 ADD MSTORE PUSH1 0x64 SWAP1 REVERT JUMPDEST POP PUSH1 0x1 SLOAD PUSH1 0x1 PUSH1 0x1 PUSH1 0xA0 SHL SUB AND CALLER EQ PUSH2 0x4191 JUMP JUMPDEST DUP3 CALLDATALOAD DUP2 MSTORE SWAP2 DUP2 ADD SWAP2 DUP8 SWAP2 ADD PUSH2 0x4159 JUMP JUMPDEST DUP6 DUP1 REVERT JUMPDEST DUP2 SWAP1 PUSH2 0x446A DUP5 PUSH2 0x52C4 JUMP JUMPDEST DUP2 MSTORE ADD SWAP2 ADD SWAP1 DUP7 SWAP1 PUSH2 0x4101 JUMP JUMPDEST POP CALLVALUE PUSH2 0x572 JUMPI PUSH1 0x20 CALLDATASIZE PUSH1 0x3 NOT ADD SLT PUSH2 0x572 JUMPI PUSH1 0x20 SWAP1 PUSH1 0x40 SWAP1 PUSH1 0x1 PUSH1 0x1 PUSH1 0xA0 SHL SUB PUSH2 0x449F PUSH2 0x5298 JUMP JUMPDEST AND DUP2 MSTORE PUSH1 0x24 DUP4 MSTORE KECCAK256 SLOAD PUSH1 0x40 MLOAD SWAP1 DUP2 MSTORE RETURN JUMPDEST POP CALLVALUE PUSH2 0x572 JUMPI PUSH1 0x40 CALLDATASIZE PUSH1 0x3 NOT ADD SLT PUSH2 0x572 JUMPI PUSH1 0x4 CALLDATALOAD PUSH2 0x44CD PUSH2 0x52AE JUMP JUMPDEST DUP2 DUP4 MSTORE PUSH1 0x1D PUSH1 0x20 MSTORE PUSH1 0x40 DUP4 KECCAK256 SLOAD PUSH1 0x1 PUSH1 0x1 PUSH1 0xA0 SHL SUB SWAP2 SWAP1 DUP3 AND CALLER EQ DUP1 ISZERO PUSH2 0x454E JUMPI JUMPDEST PUSH2 0x44F8 SWAP1 PUSH2 0x591D JUMP JUMPDEST AND PUSH2 0x4504 DUP2 ISZERO ISZERO PUSH2 0x5979 JUMP JUMPDEST DUP2 DUP4 MSTORE PUSH1 0x1C PUSH1 0x20 MSTORE PUSH1 0x40 DUP4 KECCAK256 DUP2 DUP5 MSTORE PUSH1 0x20 MSTORE PUSH1 0x40 DUP4 KECCAK256 PUSH1 0x1 PUSH1 0xFF NOT DUP3 SLOAD AND OR SWAP1 SSTORE CALLER SWAP2 PUSH32 0x2F8788117E7EFF1D82E926EC794901D17C78024A50270940304540A733656F0D DUP5 DUP1 LOG4 DUP1 RETURN JUMPDEST POP PUSH1 0x1 SLOAD DUP3 AND CALLER EQ PUSH2 0x44EF JUMP JUMPDEST POP CALLVALUE PUSH2 0x572 JUMPI DUP1 PUSH1 0x3 NOT CALLDATASIZE ADD SLT PUSH2 0x572 JUMPI PUSH1 0x8 SLOAD SWAP1 PUSH3 0x15180 DUP3 ADD DUP1 SWAP3 GT PUSH2 0x19D8 JUMPI PUSH1 0x20 DUP3 PUSH1 0x40 MLOAD SWAP1 TIMESTAMP LT ISZERO DUP2 MSTORE RETURN JUMPDEST POP CALLVALUE PUSH2 0x572 JUMPI DUP1 PUSH1 0x3 NOT CALLDATASIZE ADD SLT PUSH2 0x572 JUMPI PUSH1 0x20 PUSH1 0x12 SLOAD PUSH1 0x40 MLOAD SWAP1 DUP2 MSTORE RETURN JUMPDEST POP CALLVALUE PUSH2 0x572 JUMPI DUP1 PUSH1 0x3 NOT CALLDATASIZE ADD SLT PUSH2 0x572 JUMPI PUSH2 0x45C2 PUSH2 0x64E9 JUMP JUMPDEST PUSH2 0x45CA PUSH2 0x646B JUMP JUMPDEST CALLER DUP2 MSTORE PUSH1 0x20 PUSH1 0x22 DUP2 MSTORE PUSH1 0xFF PUSH2 0x45E6 PUSH1 0xFF PUSH1 0x40 DUP6 KECCAK256 SLOAD AND ISZERO PUSH2 0x5841 JUMP JUMPDEST CALLER DUP4 MSTORE PUSH1 0x1E DUP3 MSTORE PUSH2 0x4601 PUSH1 0xFF PUSH1 0x6 PUSH1 0x40 DUP7 KECCAK256 ADD SLOAD AND ISZERO PUSH2 0x5841 JUMP JUMPDEST CALLER DUP4 MSTORE DUP2 DUP1 MSTORE PUSH1 0x40 DUP4 KECCAK256 SLOAD PUSH1 0x1 PUSH1 0x1 PUSH1 0xA0 SHL SUB SWAP1 DUP2 AND PUSH2 0x47E3 JUMPI DUP3 PUSH1 0x40 MLOAD PUSH2 0x4628 DUP2 PUSH2 0x53B4 JUMP JUMPDEST PUSH1 0x14 DUP1 DUP3 MSTORE DUP3 DUP3 ADD SWAP5 DUP4 CALLDATASIZE DUP8 CALLDATACOPY DUP8 JUMPDEST DUP3 DUP2 LT PUSH2 0x4771 JUMPI POP POP POP PUSH2 0x4767 SWAP3 PUSH1 0x3 PUSH2 0x46D8 PUSH32 0x9ABA81A9970F49ADFCB9191B4663D4A18A3A6236FBBEF5E36C5478A55FD4A03A SWAP7 SWAP5 PUSH2 0x4754 SWAP5 PUSH2 0x46C7 PUSH1 0x25 PUSH2 0x467F TIMESTAMP PUSH2 0x6E2D JUMP JUMPDEST SWAP9 PUSH1 0x40 MLOAD SWAP10 DUP11 SWAP2 PUSH2 0x46A4 DUP8 DUP5 ADD SWAP7 PUSH5 0x50495A5A41 PUSH1 0xD8 SHL DUP9 MSTORE MLOAD DUP1 SWAP3 DUP7 DUP7 ADD SWAP1 PUSH2 0x54E0 JUMP JUMPDEST DUP3 ADD PUSH2 0x46B8 DUP3 MLOAD DUP1 SWAP4 DUP10 DUP8 DUP6 ADD SWAP2 ADD PUSH2 0x54E0 JUMP JUMPDEST ADD SUB PUSH1 0x5 DUP2 ADD DUP11 MSTORE ADD DUP9 PUSH2 0x543C JUMP JUMPDEST PUSH1 0x40 MLOAD DUP1 SWAP4 DUP2 SWAP3 DUP10 MLOAD SWAP3 DUP4 SWAP2 PUSH2 0x54E0 JUMP JUMPDEST DUP2 ADD PUSH1 0x1F DUP2 MSTORE SUB ADD SWAP1 KECCAK256 SWAP2 PUSH1 0x1 PUSH1 0x1 PUSH1 0x60 SHL SUB PUSH1 0xA0 SHL SWAP3 CALLER DUP5 DUP3 SLOAD AND OR SWAP1 SSTORE PUSH1 0x40 MLOAD SWAP3 PUSH2 0x4704 DUP5 PUSH2 0x5338 JUMP JUMPDEST CALLER DUP5 MSTORE DUP9 DUP5 ADD DUP11 DUP2 MSTORE PUSH1 0x40 DUP6 ADD SWAP2 DUP12 DUP4 MSTORE PUSH1 0x60 DUP7 ADD SWAP4 PUSH1 0x1 DUP6 MSTORE CALLER DUP14 MSTORE DUP12 DUP1 MSTORE PUSH1 0x40 DUP14 KECCAK256 SWAP7 MLOAD AND SWAP1 DUP7 SLOAD AND OR DUP6 SSTORE MLOAD PUSH1 0x1 DUP6 ADD SSTORE MLOAD PUSH1 0x2 DUP5 ADD SSTORE MLOAD ISZERO ISZERO SWAP2 ADD SWAP1 PUSH1 0xFF DUP1 NOT DUP4 SLOAD AND SWAP2 ISZERO ISZERO AND OR SWAP1 SSTORE JUMP JUMPDEST PUSH1 0x40 MLOAD SWAP2 DUP3 SWAP2 DUP6 DUP4 MSTORE CALLER SWAP6 DUP4 ADD SWAP1 PUSH2 0x5625 JUMP JUMPDEST SUB SWAP1 LOG2 PUSH1 0x1 DUP2 SSTORE DUP1 RETURN JUMPDEST SWAP1 SWAP2 SWAP3 SWAP4 POP PUSH1 0x13 DUP2 DUP2 SUB SWAP1 DUP2 GT PUSH2 0x47CF JUMPI PUSH1 0x3 DUP2 SWAP1 SHL SWAP1 PUSH1 0x1 PUSH1 0x1 PUSH1 0xFD SHL SUB DUP2 AND SUB PUSH2 0x47CF JUMPI DUP3 DUP2 GT PUSH2 0x47CF JUMPI SWAP1 PUSH1 0x1 SWAP2 PUSH2 0x47B3 DUP4 PUSH1 0xFF PUSH1 0xF8 SHL SWAP3 SHL CALLER PUSH2 0x5AA6 JUMP JUMPDEST PUSH1 0xF8 SHL AND DUP10 BYTE PUSH2 0x47C3 DUP3 DUP8 PUSH2 0x6B4A JUMP JUMPDEST MSTORE8 ADD SWAP1 DUP7 SWAP4 SWAP3 SWAP2 PUSH2 0x4637 JUMP JUMPDEST PUSH4 0x4E487B71 PUSH1 0xE0 SHL DUP10 MSTORE PUSH1 0x11 PUSH1 0x4 MSTORE PUSH1 0x24 DUP10 REVERT JUMPDEST PUSH1 0x40 MLOAD PUSH3 0x461BCD PUSH1 0xE5 SHL DUP2 MSTORE PUSH1 0x4 DUP2 ADD DUP5 SWAP1 MSTORE PUSH1 0x1C PUSH1 0x24 DUP3 ADD MSTORE PUSH32 0x526566657272616C20636F646520616C72656164792065786973747300000000 PUSH1 0x44 DUP3 ADD MSTORE PUSH1 0x64 SWAP1 REVERT JUMPDEST POP CALLVALUE PUSH2 0x572 JUMPI PUSH1 0x20 CALLDATASIZE PUSH1 0x3 NOT ADD SLT PUSH2 0x572 JUMPI PUSH1 0xFF PUSH1 0x40 PUSH1 0x20 SWAP3 PUSH1 0x4 CALLDATALOAD DUP2 MSTORE PUSH1 0x17 DUP5 MSTORE KECCAK256 SLOAD AND PUSH1 0x40 MLOAD SWAP1 ISZERO ISZERO DUP2 MSTORE RETURN JUMPDEST POP CALLVALUE PUSH2 0x572 JUMPI DUP1 PUSH1 0x3 NOT CALLDATASIZE ADD SLT PUSH2 0x572 JUMPI PUSH1 0x20 PUSH1 0x2A SLOAD PUSH1 0x40 MLOAD SWAP1 DUP2 MSTORE RETURN JUMPDEST POP CALLVALUE PUSH2 0x572 JUMPI PUSH1 0x20 PUSH2 0x4886 CALLDATASIZE PUSH2 0x5478 JUMP JUMPDEST DUP2 PUSH2 0x489A PUSH1 0x40 MLOAD SWAP3 DUP4 DUP2 MLOAD SWAP4 DUP5 SWAP3 ADD PUSH2 0x54E0 JUMP JUMPDEST PUSH1 0x1F SWAP1 DUP3 ADD SWAP1 DUP2 MSTORE DUP2 SWAP1 SUB DUP3 ADD SWAP1 KECCAK256 SLOAD PUSH1 0x40 MLOAD PUSH1 0x1 PUSH1 0x1 PUSH1 0xA0 SHL SUB SWAP1 SWAP2 AND DUP2 MSTORE RETURN JUMPDEST POP CALLVALUE PUSH2 0x572 JUMPI DUP1 PUSH1 0x3 NOT CALLDATASIZE ADD SLT PUSH2 0x572 JUMPI PUSH1 0x4 SLOAD PUSH1 0x40 MLOAD PUSH1 0x1 PUSH1 0x1 PUSH1 0xA0 SHL SUB SWAP1 SWAP2 AND DUP2 MSTORE PUSH1 0x20 SWAP1 RETURN JUMPDEST POP CALLVALUE PUSH2 0x572 JUMPI PUSH1 0x20 DUP1 PUSH1 0x3 NOT CALLDATASIZE ADD SLT PUSH2 0x1BB4 JUMPI PUSH1 0x4 CALLDATALOAD PUSH2 0x4903 PUSH2 0x64E9 JUMP JUMPDEST PUSH2 0x490B PUSH2 0x646B JUMP JUMPDEST CALLER DUP4 MSTORE PUSH1 0x22 DUP3 MSTORE PUSH2 0x4923 PUSH1 0xFF PUSH1 0x40 DUP6 KECCAK256 SLOAD AND ISZERO PUSH2 0x5841 JUMP JUMPDEST CALLER DUP4 MSTORE PUSH1 0x1E SWAP2 DUP3 DUP2 MSTORE PUSH2 0x4940 PUSH1 0xFF PUSH1 0x6 PUSH1 0x40 DUP8 KECCAK256 ADD SLOAD AND ISZERO PUSH2 0x5841 JUMP JUMPDEST CALLER DUP5 MSTORE DUP3 DUP2 MSTORE PUSH1 0xC PUSH1 0x40 DUP6 KECCAK256 ADD SLOAD PUSH3 0x15180 DUP2 ADD DUP1 SWAP2 GT PUSH2 0x1633 JUMPI PUSH2 0x4967 SWAP1 TIMESTAMP LT ISZERO PUSH2 0x5885 JUMP JUMPDEST CALLER DUP5 MSTORE DUP3 DUP2 MSTORE PUSH2 0x4980 PUSH1 0x64 PUSH1 0xE PUSH1 0x40 DUP8 KECCAK256 ADD SLOAD LT PUSH2 0x58D1 JUMP JUMPDEST DUP2 DUP5 MSTORE PUSH1 0x23 DUP2 MSTORE PUSH1 0x40 DUP5 KECCAK256 SWAP3 PUSH1 0xFF PUSH1 0x4 DUP6 ADD SLOAD AND ISZERO PUSH2 0x4B58 JUMPI PUSH1 0x5 DUP5 ADD SWAP1 CALLER DUP7 MSTORE DUP2 DUP4 MSTORE PUSH1 0xFF PUSH1 0x40 DUP8 KECCAK256 SLOAD AND PUSH2 0x4B13 JUMPI PUSH1 0x2 DUP6 ADD SWAP2 DUP3 SLOAD DUP1 ISZERO PUSH2 0x4ACE JUMPI PUSH2 0x3E8 DUP2 GT PUSH2 0x4A89 JUMPI PUSH2 0x49D0 SWAP1 CALLER PUSH2 0x650C JUMP JUMPDEST CALLER DUP8 MSTORE DUP4 MSTORE PUSH1 0x40 DUP7 KECCAK256 PUSH1 0x1 PUSH1 0xFF NOT DUP3 SLOAD AND OR SWAP1 SSTORE DUP1 DUP4 MSTORE PUSH1 0xA PUSH1 0x40 DUP8 KECCAK256 ADD SLOAD PUSH1 0x1 DUP2 ADD DUP1 SWAP2 GT PUSH2 0x2D7F JUMPI SWAP2 PUSH1 0x0 DUP1 MLOAD PUSH1 0x20 PUSH2 0x7139 DUP4 CODECOPY DUP2 MLOAD SWAP2 MSTORE SWAP5 SWAP4 SWAP2 PUSH2 0x4A2B PUSH1 0x40 SWAP5 CALLER DUP11 MSTORE DUP3 DUP6 MSTORE DUP6 DUP11 KECCAK256 SWAP1 PUSH1 0xA DUP3 ADD SSTORE SLOAD DUP4 SLOAD SWAP1 PUSH2 0x581E JUMP JUMPDEST SWAP1 CALLER DUP10 MSTORE DUP4 MSTORE DUP4 DUP9 KECCAK256 SWAP1 DUP2 SSTORE PUSH1 0xC TIMESTAMP SWAP2 ADD SSTORE SLOAD SWAP3 DUP3 MLOAD SWAP1 DUP2 MSTORE DUP4 DUP3 DUP3 ADD MSTORE PUSH32 0x20861823FA14B60D3F02CC6E48B647AC592DD27E39A78F278DF5C918DABB8B2C DUP4 CALLER SWAP3 LOG2 DUP2 MLOAD SWAP3 DUP4 MSTORE DUP3 ADD MSTORE DUP1 PUSH2 0x4767 CALLER SWAP5 PUSH1 0x1 PUSH1 0x40 DUP5 ADD SWAP2 ADD PUSH2 0x5568 JUMP JUMPDEST PUSH1 0x40 MLOAD PUSH3 0x461BCD PUSH1 0xE5 SHL DUP2 MSTORE PUSH1 0x4 DUP2 ADD DUP7 SWAP1 MSTORE PUSH1 0x19 PUSH1 0x24 DUP3 ADD MSTORE PUSH32 0x4368616C6C656E67652072657761726420746F6F206869676800000000000000 PUSH1 0x44 DUP3 ADD MSTORE PUSH1 0x64 SWAP1 REVERT JUMPDEST PUSH1 0x40 MLOAD PUSH3 0x461BCD PUSH1 0xE5 SHL DUP2 MSTORE PUSH1 0x4 DUP2 ADD DUP7 SWAP1 MSTORE PUSH1 0x18 PUSH1 0x24 DUP3 ADD MSTORE PUSH32 0x496E76616C6964206368616C6C656E6765207265776172640000000000000000 PUSH1 0x44 DUP3 ADD MSTORE PUSH1 0x64 SWAP1 REVERT JUMPDEST PUSH1 0x40 MLOAD PUSH3 0x461BCD PUSH1 0xE5 SHL DUP2 MSTORE PUSH1 0x4 DUP2 ADD DUP5 SWAP1 MSTORE PUSH1 0x1B PUSH1 0x24 DUP3 ADD MSTORE PUSH32 0x4368616C6C656E676520616C726561647920636F6D706C657465640000000000 PUSH1 0x44 DUP3 ADD MSTORE PUSH1 0x64 SWAP1 REVERT JUMPDEST PUSH1 0x40 MLOAD PUSH3 0x461BCD PUSH1 0xE5 SHL DUP2 MSTORE PUSH1 0x4 DUP2 ADD DUP4 SWAP1 MSTORE PUSH1 0x14 PUSH1 0x24 DUP3 ADD MSTORE PUSH20 0x4368616C6C656E6765206E6F7420616374697665 PUSH1 0x60 SHL PUSH1 0x44 DUP3 ADD MSTORE PUSH1 0x64 SWAP1 REVERT JUMPDEST POP CALLVALUE PUSH2 0x572 JUMPI DUP1 PUSH1 0x3 NOT CALLDATASIZE ADD SLT PUSH2 0x572 JUMPI PUSH2 0x4BAD PUSH2 0x64E9 JUMP JUMPDEST PUSH2 0x4BB5 PUSH2 0x646B JUMP JUMPDEST CALLER DUP2 MSTORE PUSH1 0x20 PUSH1 0x22 DUP2 MSTORE PUSH2 0x4BCF PUSH1 0xFF PUSH1 0x40 DUP5 KECCAK256 SLOAD AND ISZERO PUSH2 0x5841 JUMP JUMPDEST CALLER DUP3 MSTORE PUSH1 0x1E DUP1 DUP3 MSTORE PUSH2 0x4BEB PUSH1 0xFF PUSH1 0x6 PUSH1 0x40 DUP7 KECCAK256 ADD SLOAD AND ISZERO PUSH2 0x5841 JUMP JUMPDEST CALLER DUP4 MSTORE DUP1 DUP3 MSTORE PUSH1 0xC PUSH1 0x40 DUP5 KECCAK256 ADD SLOAD PUSH3 0x15180 SWAP1 DUP2 DUP2 ADD DUP1 SWAP2 GT PUSH2 0x1633 JUMPI PUSH2 0x4C14 SWAP1 TIMESTAMP LT ISZERO PUSH2 0x5885 JUMP JUMPDEST CALLER DUP5 MSTORE DUP2 DUP4 MSTORE PUSH2 0x4C2D PUSH1 0x64 PUSH1 0xE PUSH1 0x40 DUP8 KECCAK256 ADD SLOAD LT PUSH2 0x58D1 JUMP JUMPDEST CALLER DUP5 MSTORE DUP2 DUP4 MSTORE PUSH1 0x7 PUSH1 0x4 PUSH1 0x40 DUP7 KECCAK256 ADD SLOAD LT PUSH2 0x4D84 JUMPI CALLER DUP5 MSTORE DUP2 DUP4 MSTORE PUSH1 0x5 PUSH1 0x40 DUP6 KECCAK256 ADD SLOAD SWAP1 DUP2 ADD DUP1 SWAP2 GT PUSH2 0x940 JUMPI TIMESTAMP LT PUSH2 0x4D34 JUMPI CALLER DUP4 MSTORE PUSH1 0x24 SWAP1 DUP2 DUP4 MSTORE PUSH1 0x40 DUP5 KECCAK256 SLOAD PUSH1 0x3 DUP2 ADD DUP1 SWAP2 GT PUSH2 0x4D21 JUMPI PUSH1 0x64 DUP2 GT PUSH2 0x1200 JUMPI CALLER DUP6 MSTORE DUP3 DUP5 MSTORE PUSH1 0x40 DUP6 KECCAK256 SSTORE DUP1 DUP4 MSTORE PUSH1 0xE PUSH1 0x40 DUP6 KECCAK256 ADD SLOAD PUSH1 0x3 DUP2 ADD DUP1 SWAP2 GT PUSH2 0x4D21 JUMPI CALLER DUP6 MSTORE DUP2 DUP5 MSTORE PUSH1 0x40 DUP6 KECCAK256 SWAP1 PUSH1 0xE DUP3 ADD SSTORE SLOAD SWAP2 PUSH1 0x3 DUP4 ADD DUP1 SWAP4 GT PUSH2 0x11D9 JUMPI POP CALLER DUP5 MSTORE DUP3 MSTORE PUSH1 0x40 DUP4 KECCAK256 SWAP1 DUP2 SSTORE TIMESTAMP PUSH1 0x5 DUP3 ADD SSTORE PUSH1 0xC TIMESTAMP SWAP2 ADD SSTORE PUSH1 0x40 DUP1 MLOAD SWAP2 PUSH1 0x3 DUP4 MSTORE DUP3 ADD MSTORE PUSH1 0x12 PUSH1 0x40 DUP3 ADD MSTORE PUSH18 0x372D6461792073747265616B20626F6E7573 PUSH1 0x70 SHL PUSH1 0x60 DUP3 ADD MSTORE PUSH1 0x0 DUP1 MLOAD PUSH1 0x20 PUSH2 0x7139 DUP4 CODECOPY DUP2 MLOAD SWAP2 MSTORE PUSH1 0x80 CALLER SWAP3 LOG2 PUSH1 0x1 DUP2 SSTORE DUP1 RETURN JUMPDEST PUSH4 0x4E487B71 PUSH1 0xE0 SHL DUP6 MSTORE PUSH1 0x11 PUSH1 0x4 MSTORE DUP3 DUP6 REVERT JUMPDEST PUSH1 0x40 MLOAD PUSH3 0x461BCD PUSH1 0xE5 SHL DUP2 MSTORE PUSH1 0x4 DUP2 ADD DUP4 SWAP1 MSTORE PUSH1 0x22 PUSH1 0x24 DUP3 ADD MSTORE PUSH32 0x53747265616B20626F6E757320616C726561647920636C61696D656420746F64 PUSH1 0x44 DUP3 ADD MSTORE PUSH2 0x6179 PUSH1 0xF0 SHL PUSH1 0x64 DUP3 ADD MSTORE PUSH1 0x84 SWAP1 REVERT JUMPDEST PUSH1 0x40 MLOAD PUSH3 0x461BCD PUSH1 0xE5 SHL DUP2 MSTORE PUSH1 0x4 DUP2 ADD DUP5 SWAP1 MSTORE PUSH1 0x18 PUSH1 0x24 DUP3 ADD MSTORE PUSH32 0x372D6461792073747265616B206E6F7420726561636865640000000000000000 PUSH1 0x44 DUP3 ADD MSTORE PUSH1 0x64 SWAP1 REVERT JUMPDEST POP CALLVALUE PUSH2 0x572 JUMPI PUSH1 0x20 DUP1 PUSH1 0x3 NOT CALLDATASIZE ADD SLT PUSH2 0x1BB4 JUMPI PUSH1 0x80 SWAP2 PUSH1 0x40 PUSH2 0x4DE9 PUSH2 0x5298 JUMP JUMPDEST SWAP2 DUP1 PUSH1 0x60 DUP4 MLOAD PUSH2 0x4DF8 DUP2 PUSH2 0x5338 JUMP JUMPDEST DUP3 DUP2 MSTORE DUP7 DUP2 ADD DUP4 SWAP1 MSTORE DUP5 DUP2 ADD DUP4 SWAP1 MSTORE ADD MSTORE PUSH1 0x1 PUSH1 0x1 PUSH1 0xA0 SHL SUB SWAP3 DUP4 AND DUP2 MSTORE DUP4 DUP1 MSTORE KECCAK256 PUSH1 0x40 MLOAD SWAP2 PUSH2 0x4E27 DUP4 PUSH2 0x5338 JUMP JUMPDEST DUP2 SLOAD AND SWAP3 DUP4 DUP4 MSTORE PUSH1 0x1 DUP3 ADD SLOAD DUP2 DUP5 ADD SWAP1 DUP2 MSTORE PUSH1 0x60 PUSH1 0xFF PUSH1 0x3 PUSH1 0x2 DUP7 ADD SLOAD SWAP6 PUSH1 0x40 DUP9 ADD SWAP7 DUP8 MSTORE ADD SLOAD AND SWAP5 ADD SWAP4 ISZERO ISZERO DUP5 MSTORE PUSH1 0x40 MLOAD SWAP5 DUP6 MSTORE MLOAD SWAP1 DUP5 ADD MSTORE MLOAD PUSH1 0x40 DUP4 ADD MSTORE MLOAD ISZERO ISZERO PUSH1 0x60 DUP3 ADD MSTORE RETURN JUMPDEST POP CALLVALUE PUSH2 0x572 JUMPI DUP1 PUSH1 0x3 NOT CALLDATASIZE ADD SLT PUSH2 0x572 JUMPI PUSH1 0x20 PUSH1 0x40 MLOAD PUSH32 0xBF233DD2AAFEB4D50879C4AA5C81E96D92F6E6945C906A58F9F2D1C1631B4B26 DUP2 MSTORE RETURN JUMPDEST POP CALLVALUE PUSH2 0x572 JUMPI DUP1 PUSH1 0x3 NOT CALLDATASIZE ADD SLT PUSH2 0x572 JUMPI PUSH1 0x40 MLOAD PUSH32 0x0 PUSH1 0x1 PUSH1 0x1 PUSH1 0xA0 SHL SUB AND DUP2 MSTORE PUSH1 0x20 SWAP1 RETURN JUMPDEST POP CALLVALUE PUSH2 0x572 JUMPI PUSH1 0x20 CALLDATASIZE PUSH1 0x3 NOT ADD SLT PUSH2 0x572 JUMPI PUSH1 0xFF PUSH1 0x40 PUSH1 0x20 SWAP3 PUSH1 0x4 CALLDATALOAD DUP2 MSTORE PUSH1 0x14 DUP5 MSTORE KECCAK256 SLOAD AND PUSH1 0x40 MLOAD SWAP1 ISZERO ISZERO DUP2 MSTORE RETURN JUMPDEST POP CALLVALUE PUSH2 0x572 JUMPI DUP1 PUSH1 0x3 NOT CALLDATASIZE ADD SLT PUSH2 0x572 JUMPI PUSH1 0x20 PUSH1 0x1A SLOAD PUSH1 0x40 MLOAD SWAP1 DUP2 MSTORE RETURN JUMPDEST POP CALLVALUE PUSH2 0x572 JUMPI DUP1 PUSH1 0x3 NOT CALLDATASIZE ADD SLT PUSH2 0x572 JUMPI PUSH1 0x20 PUSH1 0x40 MLOAD PUSH1 0x8 DUP2 MSTORE RETURN JUMPDEST POP CALLVALUE PUSH2 0x572 JUMPI PUSH1 0x20 DUP1 PUSH1 0x3 NOT CALLDATASIZE ADD SLT PUSH2 0x1BB4 JUMPI PUSH1 0x4 CALLDATALOAD SWAP1 PUSH2 0x4F79 PUSH2 0x646B JUMP JUMPDEST DUP2 ISZERO PUSH2 0x5036 JUMPI PUSH2 0x4F88 CALLER PUSH2 0x648C JUMP JUMPDEST PUSH2 0x4FFC JUMPI PUSH1 0x13 SLOAD DUP4 MSTORE PUSH1 0x11 DUP2 MSTORE PUSH2 0x4FA2 CALLER PUSH1 0x40 DUP6 KECCAK256 PUSH2 0x57E3 JUMP JUMPDEST PUSH1 0x13 SLOAD DUP1 DUP5 MSTORE PUSH1 0x10 DUP3 MSTORE PUSH2 0x4FBA DUP4 PUSH1 0x40 DUP7 KECCAK256 SLOAD PUSH2 0x581E JUMP JUMPDEST SWAP1 DUP5 MSTORE PUSH1 0x10 DUP3 MSTORE PUSH1 0x40 DUP5 KECCAK256 SSTORE PUSH1 0x13 SLOAD SWAP1 PUSH1 0x40 MLOAD SWAP3 DUP4 MSTORE DUP3 ADD MSTORE PUSH32 0xEFE539503E4A6BC6D750ABE6F7471EA59543AD95E1757FCD02ECB9A6C212E920 PUSH1 0x40 CALLER SWAP3 LOG2 DUP1 RETURN JUMPDEST PUSH1 0x64 SWAP1 PUSH1 0x40 MLOAD SWAP1 PUSH3 0x461BCD PUSH1 0xE5 SHL DUP3 MSTORE PUSH1 0x4 DUP3 ADD MSTORE PUSH1 0x13 PUSH1 0x24 DUP3 ADD MSTORE PUSH19 0x105B1C9958591E4818DBDB9D1C9A589D5D1959 PUSH1 0x6A SHL PUSH1 0x44 DUP3 ADD MSTORE REVERT JUMPDEST PUSH1 0x64 SWAP1 PUSH1 0x40 MLOAD SWAP1 PUSH3 0x461BCD PUSH1 0xE5 SHL DUP3 MSTORE PUSH1 0x4 DUP3 ADD MSTORE PUSH1 0xF PUSH1 0x24 DUP3 ADD MSTORE PUSH15 0x496E76616C696420656E74726F7079 PUSH1 0x88 SHL PUSH1 0x44 DUP3 ADD MSTORE REVERT JUMPDEST POP CALLVALUE PUSH2 0x572 JUMPI PUSH1 0x20 CALLDATASIZE PUSH1 0x3 NOT ADD SLT PUSH2 0x572 JUMPI PUSH1 0x40 PUSH1 0xE0 SWAP2 PUSH1 0x4 CALLDATALOAD DUP2 MSTORE PUSH1 0x21 PUSH1 0x20 MSTORE KECCAK256 DUP1 SLOAD SWAP1 PUSH1 0x1 DUP2 ADD SLOAD SWAP1 PUSH1 0x2 DUP2 ADD SLOAD PUSH1 0x3 DUP3 ADD SLOAD PUSH1 0x4 DUP4 ADD SLOAD SWAP2 PUSH1 0x7 PUSH1 0xFF PUSH1 0x6 DUP7 ADD SLOAD AND SWAP5 ADD SLOAD SWAP5 PUSH1 0x40 MLOAD SWAP7 DUP8 MSTORE PUSH1 0x20 DUP8 ADD MSTORE PUSH1 0x40 DUP7 ADD MSTORE PUSH1 0x60 DUP6 ADD MSTORE PUSH1 0x80 DUP5 ADD MSTORE ISZERO ISZERO PUSH1 0xA0 DUP4 ADD MSTORE PUSH1 0xC0 DUP3 ADD MSTORE RETURN JUMPDEST POP CALLVALUE PUSH2 0x572 JUMPI PUSH2 0x50EC CALLDATASIZE PUSH2 0x52D8 JUMP JUMPDEST SWAP2 SWAP1 DUP2 MSTORE PUSH1 0x11 PUSH1 0x20 MSTORE PUSH1 0x40 DUP2 KECCAK256 SWAP1 DUP2 SLOAD DUP4 LT ISZERO PUSH2 0x572 JUMPI PUSH1 0x20 PUSH2 0x62D DUP5 DUP5 PUSH2 0x52EE JUMP JUMPDEST POP CALLVALUE PUSH2 0x572 JUMPI DUP1 PUSH1 0x3 NOT CALLDATASIZE ADD SLT PUSH2 0x572 JUMPI PUSH2 0x5128 PUSH2 0x643F JUMP JUMPDEST PUSH2 0x5130 PUSH2 0x646B JUMP JUMPDEST PUSH1 0x2 SLOAD PUSH1 0x40 MLOAD PUSH4 0xF8413B07 PUSH1 0xE0 SHL DUP2 MSTORE SWAP1 PUSH1 0x20 SWAP1 DUP3 SWAP1 PUSH1 0x4 SWAP1 DUP3 SWAP1 DUP7 SWAP1 PUSH1 0x1 PUSH1 0x1 PUSH1 0xA0 SHL SUB AND GAS CALL SWAP1 DUP2 ISZERO PUSH2 0xED6 JUMPI DUP3 SWAP2 PUSH2 0x51A1 JUMPI JUMPDEST POP PUSH1 0x40 DUP2 PUSH32 0x3D94FECEDAA4F90B8BD459797ADB95F5BB11426025C5541390D9CCC1AD1B60A1 SWAP3 PUSH1 0xA SSTORE PUSH1 0x5 SLOAD SWAP1 DUP3 MLOAD SWAP2 DUP3 MSTORE PUSH1 0x20 DUP3 ADD MSTORE LOG1 DUP1 RETURN JUMPDEST SWAP1 POP PUSH1 0x20 DUP2 RETURNDATASIZE PUSH1 0x20 GT PUSH2 0x51CC JUMPI JUMPDEST DUP2 PUSH2 0x51BC PUSH1 0x20 SWAP4 DUP4 PUSH2 0x543C JUMP JUMPDEST DUP2 ADD SUB SLT PUSH2 0x1BB4 JUMPI MLOAD PUSH1 0x40 PUSH2 0x5166 JUMP JUMPDEST RETURNDATASIZE SWAP2 POP PUSH2 0x51AF JUMP JUMPDEST POP CALLVALUE PUSH2 0x572 JUMPI DUP1 PUSH1 0x3 NOT CALLDATASIZE ADD SLT PUSH2 0x572 JUMPI PUSH1 0x4 DUP1 SLOAD PUSH1 0x40 MLOAD PUSH4 0xD73EBB5 PUSH1 0xE0 SHL DUP2 MSTORE SWAP2 PUSH1 0x20 SWAP2 DUP4 SWAP2 SWAP1 DUP3 SWAP1 PUSH1 0x1 PUSH1 0x1 PUSH1 0xA0 SHL SUB AND GAS STATICCALL SWAP1 DUP2 ISZERO PUSH2 0xED6 JUMPI DUP3 SWAP2 PUSH2 0x2901 JUMPI PUSH1 0x20 DUP3 PUSH1 0x40 MLOAD SWAP1 DUP2 MSTORE RETURN JUMPDEST POP CALLVALUE PUSH2 0x572 JUMPI DUP1 PUSH1 0x3 NOT CALLDATASIZE ADD SLT PUSH2 0x572 JUMPI PUSH1 0x20 PUSH1 0x40 MLOAD PUSH2 0x12C DUP2 MSTORE RETURN JUMPDEST POP CALLVALUE PUSH2 0x572 JUMPI DUP1 PUSH1 0x3 NOT CALLDATASIZE ADD SLT PUSH2 0x572 JUMPI PUSH1 0x20 PUSH1 0xFF PUSH1 0x16 SLOAD AND PUSH1 0x40 MLOAD SWAP1 ISZERO ISZERO DUP2 MSTORE RETURN JUMPDEST SWAP1 POP CALLVALUE PUSH2 0x1BB4 JUMPI PUSH1 0x20 CALLDATASIZE PUSH1 0x3 NOT ADD SLT PUSH2 0x1BB4 JUMPI PUSH1 0x20 SWAP2 PUSH1 0x40 SWAP1 PUSH1 0x1 PUSH1 0x1 PUSH1 0xA0 SHL SUB PUSH2 0x528B PUSH2 0x5298 JUMP JUMPDEST AND DUP2 MSTORE PUSH1 0x25 DUP5 MSTORE KECCAK256 SLOAD DUP2 MSTORE RETURN JUMPDEST PUSH1 0x4 CALLDATALOAD SWAP1 PUSH1 0x1 PUSH1 0x1 PUSH1 0xA0 SHL SUB DUP3 AND DUP3 SUB PUSH2 0x8A9 JUMPI JUMP JUMPDEST PUSH1 0x24 CALLDATALOAD SWAP1 PUSH1 0x1 PUSH1 0x1 PUSH1 0xA0 SHL SUB DUP3 AND DUP3 SUB PUSH2 0x8A9 JUMPI JUMP JUMPDEST CALLDATALOAD SWAP1 PUSH1 0x1 PUSH1 0x1 PUSH1 0xA0 SHL SUB DUP3 AND DUP3 SUB PUSH2 0x8A9 JUMPI JUMP JUMPDEST PUSH1 0x40 SWAP1 PUSH1 0x3 NOT ADD SLT PUSH2 0x8A9 JUMPI PUSH1 0x4 CALLDATALOAD SWAP1 PUSH1 0x24 CALLDATALOAD SWAP1 JUMP JUMPDEST DUP1 SLOAD DUP3 LT ISZERO PUSH2 0x5306 JUMPI PUSH1 0x0 MSTORE PUSH1 0x20 PUSH1 0x0 KECCAK256 ADD SWAP1 PUSH1 0x0 SWAP1 JUMP JUMPDEST PUSH4 0x4E487B71 PUSH1 0xE0 SHL PUSH1 0x0 MSTORE PUSH1 0x32 PUSH1 0x4 MSTORE PUSH1 0x24 PUSH1 0x0 REVERT JUMPDEST CALLVALUE PUSH2 0x8A9 JUMPI PUSH1 0x0 CALLDATASIZE PUSH1 0x3 NOT ADD SLT PUSH2 0x8A9 JUMPI PUSH1 0x20 PUSH1 0x40 MLOAD PUSH1 0xA DUP2 MSTORE RETURN JUMPDEST PUSH1 0x80 DUP2 ADD SWAP1 DUP2 LT PUSH1 0x1 PUSH1 0x1 PUSH1 0x40 SHL SUB DUP3 GT OR PUSH2 0x5353 JUMPI PUSH1 0x40 MSTORE JUMP JUMPDEST PUSH4 0x4E487B71 PUSH1 0xE0 SHL PUSH1 0x0 MSTORE PUSH1 0x41 PUSH1 0x4 MSTORE PUSH1 0x24 PUSH1 0x0 REVERT JUMPDEST PUSH2 0x220 DUP2 ADD SWAP1 DUP2 LT PUSH1 0x1 PUSH1 0x1 PUSH1 0x40 SHL SUB DUP3 GT OR PUSH2 0x5353 JUMPI PUSH1 0x40 MSTORE JUMP JUMPDEST PUSH2 0x100 DUP2 ADD SWAP1 DUP2 LT PUSH1 0x1 PUSH1 0x1 PUSH1 0x40 SHL SUB DUP3 GT OR PUSH2 0x5353 JUMPI PUSH1 0x40 MSTORE JUMP JUMPDEST PUSH1 0x1 PUSH1 0x1 PUSH1 0x40 SHL SUB DUP2 GT PUSH2 0x5353 JUMPI PUSH1 0x40 MSTORE JUMP JUMPDEST PUSH1 0x40 DUP2 ADD SWAP1 DUP2 LT PUSH1 0x1 PUSH1 0x1 PUSH1 0x40 SHL SUB DUP3 GT OR PUSH2 0x5353 JUMPI PUSH1 0x40 MSTORE JUMP JUMPDEST PUSH1 0x20 DUP2 ADD SWAP1 DUP2 LT PUSH1 0x1 PUSH1 0x1 PUSH1 0x40 SHL SUB DUP3 GT OR PUSH2 0x5353 JUMPI PUSH1 0x40 MSTORE JUMP JUMPDEST PUSH1 0x60 DUP2 ADD SWAP1 DUP2 LT PUSH1 0x1 PUSH1 0x1 PUSH1 0x40 SHL SUB DUP3 GT OR PUSH2 0x5353 JUMPI PUSH1 0x40 MSTORE JUMP JUMPDEST PUSH1 0xC0 DUP2 ADD SWAP1 DUP2 LT PUSH1 0x1 PUSH1 0x1 PUSH1 0x40 SHL SUB DUP3 GT OR PUSH2 0x5353 JUMPI PUSH1 0x40 MSTORE JUMP JUMPDEST PUSH2 0x120 DUP2 ADD SWAP1 DUP2 LT PUSH1 0x1 PUSH1 0x1 PUSH1 0x40 SHL SUB DUP3 GT OR PUSH2 0x5353 JUMPI PUSH1 0x40 MSTORE JUMP JUMPDEST SWAP1 PUSH1 0x1F DUP1 NOT SWAP2 ADD AND DUP2 ADD SWAP1 DUP2 LT PUSH1 0x1 PUSH1 0x1 PUSH1 0x40 SHL SUB DUP3 GT OR PUSH2 0x5353 JUMPI PUSH1 0x40 MSTORE JUMP JUMPDEST PUSH1 0x1 PUSH1 0x1 PUSH1 0x40 SHL SUB DUP2 GT PUSH2 0x5353 JUMPI PUSH1 0x1F ADD PUSH1 0x1F NOT AND PUSH1 0x20 ADD SWAP1 JUMP JUMPDEST PUSH1 0x20 PUSH1 0x3 NOT DUP3 ADD SLT PUSH2 0x8A9 JUMPI PUSH1 0x4 CALLDATALOAD PUSH1 0x1 PUSH1 0x1 PUSH1 0x40 SHL SUB DUP2 GT PUSH2 0x8A9 JUMPI DUP2 PUSH1 0x23 DUP3 ADD SLT ISZERO PUSH2 0x8A9 JUMPI DUP1 PUSH1 0x4 ADD CALLDATALOAD SWAP1 PUSH2 0x54AF DUP3 PUSH2 0x545D JUMP JUMPDEST SWAP3 PUSH2 0x54BD PUSH1 0x40 MLOAD SWAP5 DUP6 PUSH2 0x543C JUMP JUMPDEST DUP3 DUP5 MSTORE PUSH1 0x24 DUP4 DUP4 ADD ADD GT PUSH2 0x8A9 JUMPI DUP2 PUSH1 0x0 SWAP3 PUSH1 0x24 PUSH1 0x20 SWAP4 ADD DUP4 DUP7 ADD CALLDATACOPY DUP4 ADD ADD MSTORE SWAP1 JUMP JUMPDEST PUSH1 0x0 JUMPDEST DUP4 DUP2 LT PUSH2 0x54F3 JUMPI POP POP PUSH1 0x0 SWAP2 ADD MSTORE JUMP JUMPDEST DUP2 DUP2 ADD MLOAD DUP4 DUP3 ADD MSTORE PUSH1 0x20 ADD PUSH2 0x54E3 JUMP JUMPDEST CALLVALUE PUSH2 0x8A9 JUMPI PUSH1 0x0 CALLDATASIZE PUSH1 0x3 NOT ADD SLT PUSH2 0x8A9 JUMPI PUSH1 0x20 PUSH1 0x40 MLOAD PUSH1 0x64 DUP2 MSTORE RETURN JUMPDEST PUSH1 0x1 PUSH1 0x1 PUSH1 0x40 SHL SUB DUP2 GT PUSH2 0x5353 JUMPI PUSH1 0x5 SHL PUSH1 0x20 ADD SWAP1 JUMP JUMPDEST PUSH1 0x4 CALLDATALOAD SWAP1 DUP2 ISZERO ISZERO DUP3 SUB PUSH2 0x8A9 JUMPI JUMP JUMPDEST CALLVALUE PUSH2 0x8A9 JUMPI PUSH1 0x0 CALLDATASIZE PUSH1 0x3 NOT ADD SLT PUSH2 0x8A9 JUMPI PUSH1 0x20 PUSH1 0x40 MLOAD PUSH8 0xDE0B6B3A7640000 DUP2 MSTORE RETURN JUMPDEST DUP1 SLOAD PUSH1 0x0 SWAP4 SWAP3 PUSH1 0x1 DUP1 DUP4 AND SWAP4 DUP4 DUP3 SHR SWAP4 DUP6 ISZERO PUSH2 0x561B JUMPI JUMPDEST PUSH1 0x20 SWAP6 DUP7 DUP7 LT DUP2 EQ PUSH2 0x5605 JUMPI DUP6 DUP6 MSTORE SWAP1 DUP2 ISZERO PUSH2 0x55E6 JUMPI POP PUSH1 0x1 EQ PUSH2 0x55A5 JUMPI JUMPDEST POP POP POP POP POP JUMP JUMPDEST SWAP1 SWAP4 SWAP5 SWAP6 POP PUSH1 0x0 SWAP3 SWAP2 SWAP3 MSTORE DUP4 PUSH1 0x0 KECCAK256 SWAP3 DUP5 PUSH1 0x0 SWAP5 JUMPDEST DUP4 DUP7 LT PUSH2 0x55D2 JUMPI POP POP POP POP ADD ADD SWAP1 CODESIZE DUP1 DUP1 DUP1 DUP1 PUSH2 0x559E JUMP JUMPDEST DUP1 SLOAD DUP6 DUP8 ADD DUP4 ADD MSTORE SWAP5 ADD SWAP4 DUP6 SWAP1 DUP3 ADD PUSH2 0x55BA JUMP JUMPDEST PUSH1 0xFF NOT AND DUP7 DUP6 ADD MSTORE POP POP POP SWAP1 ISZERO ISZERO PUSH1 0x5 SHL ADD ADD SWAP2 POP CODESIZE DUP1 DUP1 DUP1 DUP1 PUSH2 0x559E JUMP JUMPDEST PUSH4 0x4E487B71 PUSH1 0xE0 SHL PUSH1 0x0 MSTORE PUSH1 0x22 PUSH1 0x4 MSTORE PUSH1 0x24 PUSH1 0x0 REVERT JUMPDEST SWAP4 PUSH1 0x7F AND SWAP4 PUSH2 0x557F JUMP JUMPDEST SWAP1 PUSH1 0x20 SWAP2 PUSH2 0x563E DUP2 MLOAD DUP1 SWAP3 DUP2 DUP6 MSTORE DUP6 DUP1 DUP7 ADD SWAP2 ADD PUSH2 0x54E0 JUMP JUMPDEST PUSH1 0x1F ADD PUSH1 0x1F NOT AND ADD ADD SWAP1 JUMP JUMPDEST PUSH1 0x40 PUSH1 0x3 NOT DUP3 ADD SLT PUSH2 0x8A9 JUMPI PUSH1 0x4 CALLDATALOAD SWAP2 PUSH1 0x24 CALLDATALOAD PUSH1 0x1 PUSH1 0x1 PUSH1 0x40 SHL SUB SWAP3 DUP4 DUP3 GT PUSH2 0x8A9 JUMPI DUP1 PUSH1 0x23 DUP4 ADD SLT ISZERO PUSH2 0x8A9 JUMPI DUP2 PUSH1 0x4 ADD CALLDATALOAD SWAP4 DUP5 GT PUSH2 0x8A9 JUMPI PUSH1 0x24 DUP5 PUSH1 0x5 SHL DUP4 ADD ADD GT PUSH2 0x8A9 JUMPI PUSH1 0x24 ADD SWAP2 SWAP1 JUMP JUMPDEST PUSH1 0x60 SWAP1 PUSH1 0x3 NOT ADD SLT PUSH2 0x8A9 JUMPI PUSH1 0x4 CALLDATALOAD SWAP1 PUSH1 0x24 CALLDATALOAD SWAP1 PUSH1 0x44 CALLDATALOAD SWAP1 JUMP JUMPDEST CALLVALUE PUSH2 0x8A9 JUMPI PUSH1 0x0 CALLDATASIZE PUSH1 0x3 NOT ADD SLT PUSH2 0x8A9 JUMPI PUSH1 0x20 PUSH1 0x40 MLOAD PUSH1 0x2 DUP2 MSTORE RETURN JUMPDEST CALLVALUE PUSH2 0x8A9 JUMPI PUSH1 0x0 CALLDATASIZE PUSH1 0x3 NOT ADD SLT PUSH2 0x8A9 JUMPI PUSH1 0x20 PUSH1 0x40 MLOAD PUSH1 0x1 DUP2 MSTORE RETURN JUMPDEST SWAP1 DUP2 MLOAD DUP1 DUP3 MSTORE PUSH1 0x20 DUP1 DUP1 SWAP4 ADD SWAP4 ADD SWAP2 PUSH1 0x0 JUMPDEST DUP3 DUP2 LT PUSH2 0x570B JUMPI POP POP POP POP SWAP1 JUMP JUMPDEST DUP4 MLOAD PUSH1 0x1 PUSH1 0x1 PUSH1 0xA0 SHL SUB AND DUP6 MSTORE SWAP4 DUP2 ADD SWAP4 SWAP3 DUP2 ADD SWAP3 PUSH1 0x1 ADD PUSH2 0x56FD JUMP JUMPDEST PUSH1 0x20 DUP2 MSTORE DUP2 MLOAD PUSH1 0x20 DUP3 ADD MSTORE PUSH1 0x20 DUP3 ADD MLOAD PUSH1 0x40 DUP3 ADD MSTORE PUSH1 0x40 DUP3 ADD MLOAD PUSH1 0x60 DUP3 ADD MSTORE PUSH1 0x60 DUP3 ADD MLOAD PUSH1 0x80 DUP3 ADD MSTORE PUSH1 0x80 DUP3 ADD MLOAD PUSH1 0xA0 DUP3 ADD MSTORE PUSH1 0xA0 DUP3 ADD MLOAD PUSH1 0xE0 PUSH2 0x577A PUSH2 0x100 SWAP3 DUP4 PUSH1 0xC0 DUP7 ADD MSTORE PUSH2 0x120 DUP6 ADD SWAP1 PUSH2 0x56EB JUMP JUMPDEST SWAP4 PUSH1 0xC0 DUP2 ADD MLOAD ISZERO ISZERO DUP3 DUP6 ADD MSTORE ADD MLOAD SWAP2 ADD MSTORE SWAP1 JUMP JUMPDEST CALLVALUE PUSH2 0x8A9 JUMPI PUSH1 0x0 CALLDATASIZE PUSH1 0x3 NOT ADD SLT PUSH2 0x8A9 JUMPI PUSH1 0x20 PUSH1 0x40 MLOAD PUSH1 0x32 DUP2 MSTORE RETURN JUMPDEST CALLVALUE PUSH2 0x8A9 JUMPI PUSH1 0x0 CALLDATASIZE PUSH1 0x3 NOT ADD SLT PUSH2 0x8A9 JUMPI PUSH1 0x20 PUSH1 0x40 MLOAD PUSH2 0xE10 DUP2 MSTORE RETURN JUMPDEST CALLVALUE PUSH2 0x8A9 JUMPI PUSH1 0x0 CALLDATASIZE PUSH1 0x3 NOT ADD SLT PUSH2 0x8A9 JUMPI PUSH1 0x20 PUSH1 0x40 MLOAD PUSH1 0x3 DUP2 MSTORE RETURN JUMPDEST DUP1 SLOAD PUSH1 0x1 PUSH1 0x40 SHL DUP2 LT ISZERO PUSH2 0x5353 JUMPI PUSH2 0x5800 SWAP2 PUSH1 0x1 DUP3 ADD DUP2 SSTORE PUSH2 0x52EE JUMP JUMPDEST PUSH1 0x1 DUP1 PUSH1 0xA0 SWAP5 SWAP4 SWAP5 SHL SUB DUP1 DUP5 SLOAD SWAP3 PUSH1 0x3 SHL SWAP4 AND DUP4 SHL SWAP3 SHL NOT AND OR SWAP1 SSTORE JUMP JUMPDEST SWAP2 SWAP1 DUP3 ADD DUP1 SWAP3 GT PUSH2 0x582B JUMPI JUMP JUMPDEST PUSH4 0x4E487B71 PUSH1 0xE0 SHL PUSH1 0x0 MSTORE PUSH1 0x11 PUSH1 0x4 MSTORE PUSH1 0x24 PUSH1 0x0 REVERT JUMPDEST ISZERO PUSH2 0x5848 JUMPI JUMP JUMPDEST PUSH1 0x40 MLOAD PUSH3 0x461BCD PUSH1 0xE5 SHL DUP2 MSTORE PUSH1 0x20 PUSH1 0x4 DUP3 ADD MSTORE PUSH1 0x15 PUSH1 0x24 DUP3 ADD MSTORE PUSH21 0x141B185E595C881A5CC8189B1858DADB1A5CDD1959 PUSH1 0x5A SHL PUSH1 0x44 DUP3 ADD MSTORE PUSH1 0x64 SWAP1 REVERT JUMPDEST ISZERO PUSH2 0x588C JUMPI JUMP JUMPDEST PUSH1 0x40 MLOAD PUSH3 0x461BCD PUSH1 0xE5 SHL DUP2 MSTORE PUSH1 0x20 PUSH1 0x4 DUP3 ADD MSTORE PUSH1 0x1C PUSH1 0x24 DUP3 ADD MSTORE PUSH32 0x52657761726420616C726561647920636C61696D656420746F64617900000000 PUSH1 0x44 DUP3 ADD MSTORE PUSH1 0x64 SWAP1 REVERT JUMPDEST ISZERO PUSH2 0x58D8 JUMPI JUMP JUMPDEST PUSH1 0x40 MLOAD PUSH3 0x461BCD PUSH1 0xE5 SHL DUP2 MSTORE PUSH1 0x20 PUSH1 0x4 DUP3 ADD MSTORE PUSH1 0x1A PUSH1 0x24 DUP3 ADD MSTORE PUSH32 0x4461696C7920726577617264206C696D69742072656163686564000000000000 PUSH1 0x44 DUP3 ADD MSTORE PUSH1 0x64 SWAP1 REVERT JUMPDEST ISZERO PUSH2 0x5924 JUMPI JUMP JUMPDEST PUSH1 0x40 MLOAD PUSH3 0x461BCD PUSH1 0xE5 SHL DUP2 MSTORE PUSH1 0x20 PUSH1 0x4 DUP3 ADD MSTORE PUSH1 0x27 PUSH1 0x24 DUP3 ADD MSTORE PUSH32 0x416363657373436F6E74726F6C3A2063616C6C6572206973206E6F7420726F6C PUSH1 0x44 DUP3 ADD MSTORE PUSH7 0x329030B236B4B7 PUSH1 0xC9 SHL PUSH1 0x64 DUP3 ADD MSTORE PUSH1 0x84 SWAP1 REVERT JUMPDEST ISZERO PUSH2 0x5980 JUMPI JUMP JUMPDEST PUSH1 0x40 MLOAD PUSH3 0x461BCD PUSH1 0xE5 SHL DUP2 MSTORE PUSH1 0x20 PUSH1 0x4 DUP3 ADD MSTORE PUSH1 0xF PUSH1 0x24 DUP3 ADD MSTORE PUSH15 0x496E76616C69642061646472657373 PUSH1 0x88 SHL PUSH1 0x44 DUP3 ADD MSTORE PUSH1 0x64 SWAP1 REVERT JUMPDEST ISZERO PUSH2 0x59BE JUMPI JUMP JUMPDEST PUSH1 0x40 MLOAD PUSH3 0x461BCD PUSH1 0xE5 SHL DUP2 MSTORE PUSH1 0x20 PUSH1 0x4 DUP3 ADD MSTORE PUSH1 0x28 PUSH1 0x24 DUP3 ADD MSTORE PUSH32 0x416363657373436F6E74726F6C3A2063616C6C657220646F6573206E6F742068 PUSH1 0x44 DUP3 ADD MSTORE PUSH8 0x61766520726F6C65 PUSH1 0xC0 SHL PUSH1 0x64 DUP3 ADD MSTORE PUSH1 0x84 SWAP1 REVERT JUMPDEST DUP1 MLOAD ISZERO PUSH2 0x5306 JUMPI PUSH1 0x20 ADD SWAP1 JUMP JUMPDEST DUP1 MLOAD PUSH1 0x1 LT ISZERO PUSH2 0x5306 JUMPI PUSH1 0x40 ADD SWAP1 JUMP JUMPDEST DUP1 MLOAD PUSH1 0x2 LT ISZERO PUSH2 0x5306 JUMPI PUSH1 0x60 ADD SWAP1 JUMP JUMPDEST DUP1 MLOAD PUSH1 0x3 LT ISZERO PUSH2 0x5306 JUMPI PUSH1 0x80 ADD SWAP1 JUMP JUMPDEST DUP1 MLOAD PUSH1 0x4 LT ISZERO PUSH2 0x5306 JUMPI PUSH1 0xA0 ADD SWAP1 JUMP JUMPDEST DUP1 MLOAD DUP3 LT ISZERO PUSH2 0x5306 JUMPI PUSH1 0x20 SWAP2 PUSH1 0x5 SHL ADD ADD SWAP1 JUMP JUMPDEST PUSH1 0x0 NOT DUP2 EQ PUSH2 0x582B JUMPI PUSH1 0x1 ADD SWAP1 JUMP JUMPDEST SWAP4 SWAP3 SWAP2 PUSH2 0x5AA1 SWAP1 PUSH1 0x40 SWAP3 DUP7 MSTORE PUSH1 0x60 PUSH1 0x20 DUP8 ADD MSTORE PUSH1 0x60 DUP7 ADD SWAP1 PUSH2 0x56EB JUMP JUMPDEST SWAP4 ADD MSTORE JUMP JUMPDEST DUP2 ISZERO PUSH2 0x5AB0 JUMPI DIV SWAP1 JUMP JUMPDEST PUSH4 0x4E487B71 PUSH1 0xE0 SHL PUSH1 0x0 MSTORE PUSH1 0x12 PUSH1 0x4 MSTORE PUSH1 0x24 PUSH1 0x0 REVERT JUMPDEST SWAP1 DUP2 PUSH1 0x20 SWAP2 SUB SLT PUSH2 0x8A9 JUMPI MLOAD DUP1 ISZERO ISZERO DUP2 SUB PUSH2 0x8A9 JUMPI SWAP1 JUMP JUMPDEST ISZERO PUSH2 0x5AE5 JUMPI JUMP JUMPDEST PUSH1 0x40 MLOAD PUSH3 0x461BCD PUSH1 0xE5 SHL DUP2 MSTORE PUSH1 0x20 PUSH1 0x4 DUP3 ADD MSTORE PUSH1 0x19 PUSH1 0x24 DUP3 ADD MSTORE PUSH32 0x564D46207072697A65207472616E73666572206661696C656400000000000000 PUSH1 0x44 DUP3 ADD MSTORE PUSH1 0x64 SWAP1 REVERT JUMPDEST PUSH1 0x5 SLOAD SWAP1 PUSH1 0x0 SWAP2 DUP3 MSTORE PUSH1 0x20 SWAP1 PUSH1 0x21 DUP3 MSTORE PUSH1 0x40 SWAP1 DUP2 DUP5 KECCAK256 SWAP2 PUSH1 0x6 DUP4 ADD SWAP1 DUP2 SLOAD SWAP5 PUSH1 0xFF DUP7 AND PUSH2 0x5E05 JUMPI PUSH1 0x2 DUP6 ADD SLOAD TIMESTAMP LT PUSH2 0x5DCF JUMPI PUSH2 0x5B69 PUSH1 0x3 DUP7 ADD SLOAD PUSH2 0x6640 JUMP JUMPDEST SWAP4 DUP8 SWAP6 DUP9 JUMPDEST DUP7 MLOAD DUP2 LT ISZERO PUSH2 0x5BAC JUMPI PUSH1 0x1 PUSH1 0x1 PUSH1 0xA0 SHL SUB PUSH2 0x5B89 DUP3 DUP10 PUSH2 0x5A61 JUMP JUMPDEST MLOAD AND PUSH2 0x5B98 JUMPI JUMPDEST PUSH1 0x1 ADD PUSH2 0x5B6E JUMP JUMPDEST SWAP7 PUSH2 0x5BA4 PUSH1 0x1 SWAP2 PUSH2 0x5A75 JUMP JUMPDEST SWAP8 SWAP1 POP PUSH2 0x5B90 JUMP JUMPDEST POP SWAP2 SWAP5 SWAP3 SWAP6 SWAP1 SWAP4 SWAP7 DUP2 ISZERO PUSH2 0x5D97 JUMPI POP PUSH2 0x5BC7 SWAP1 PUSH1 0x6 SLOAD PUSH2 0x5AA6 JUMP JUMPDEST SWAP3 DUP8 JUMPDEST DUP4 MLOAD DUP2 LT ISZERO PUSH2 0x5CAF JUMPI PUSH1 0x1 PUSH1 0x1 PUSH1 0xA0 SHL SUB SWAP1 DUP7 DUP7 DUP4 PUSH2 0x5BE9 DUP5 DUP10 PUSH2 0x5A61 JUMP JUMPDEST MLOAD AND PUSH2 0x5BFC JUMPI JUMPDEST POP POP PUSH1 0x1 SWAP2 POP ADD PUSH2 0x5BCA JUMP JUMPDEST DUP4 DUP4 SWAP5 PUSH2 0x5C0C PUSH2 0x5C3F SWAP6 DUP11 PUSH2 0x5A61 JUMP JUMPDEST MLOAD AND DUP14 DUP13 MLOAD DUP1 SWAP7 DUP2 SWAP6 DUP3 SWAP5 PUSH4 0xA9059CBB PUSH1 0xE0 SHL DUP5 MSTORE PUSH1 0x4 DUP5 ADD PUSH1 0x20 SWAP1 SWAP4 SWAP3 SWAP2 SWAP4 PUSH1 0x40 DUP2 ADD SWAP5 PUSH1 0x1 DUP1 PUSH1 0xA0 SHL SUB AND DUP2 MSTORE ADD MSTORE JUMP JUMPDEST SUB SWAP3 PUSH32 0x0 AND GAS CALL SWAP1 DUP2 ISZERO PUSH2 0x5CA5 JUMPI PUSH1 0x1 SWAP3 SWAP2 PUSH2 0x5C81 SWAP2 DUP13 SWAP2 PUSH2 0x5C88 JUMPI JUMPDEST POP PUSH2 0x5ADE JUMP JUMPDEST DUP7 DUP7 PUSH2 0x5BF0 JUMP JUMPDEST PUSH2 0x5C9F SWAP2 POP DUP10 RETURNDATASIZE DUP12 GT PUSH2 0xB93 JUMPI PUSH2 0xB85 DUP2 DUP4 PUSH2 0x543C JUMP JUMPDEST CODESIZE PUSH2 0x5C7B JUMP JUMPDEST DUP9 MLOAD RETURNDATASIZE DUP13 DUP3 RETURNDATACOPY RETURNDATASIZE SWAP1 REVERT JUMPDEST POP SWAP6 SWAP3 POP SWAP6 SWAP4 SWAP3 SWAP1 SWAP4 PUSH1 0x5 DUP8 ADD SWAP1 DUP6 MLOAD SWAP3 PUSH1 0x1 PUSH1 0x1 PUSH1 0x40 SHL SUB DUP5 GT PUSH2 0x5D83 JUMPI PUSH1 0x1 PUSH1 0x40 SHL DUP5 GT PUSH2 0x5D83 JUMPI DUP3 SLOAD DUP5 DUP5 SSTORE DUP1 DUP6 LT PUSH2 0x5D5E JUMPI JUMPDEST POP DUP1 DUP8 ADD SWAP3 DUP3 MSTORE DUP1 DUP3 KECCAK256 SWAP2 JUMPDEST DUP5 DUP2 LT PUSH2 0x5D43 JUMPI POP POP POP POP POP PUSH1 0x4 PUSH1 0x0 DUP1 MLOAD PUSH1 0x20 PUSH2 0x7119 DUP4 CODECOPY DUP2 MLOAD SWAP2 MSTORE SWAP5 SWAP6 PUSH2 0x5D36 SWAP3 PUSH1 0x1 PUSH1 0xFF NOT DUP3 SLOAD AND OR SWAP1 SSTORE PUSH1 0x6 SLOAD SWAP2 DUP3 SWAP2 ADD SSTORE PUSH1 0x5 SLOAD SWAP3 MLOAD SWAP4 DUP5 SWAP4 DUP5 PUSH2 0x5A84 JUMP JUMPDEST SUB SWAP1 LOG1 PUSH2 0x5D41 PUSH2 0x679A JUMP JUMPDEST JUMP JUMPDEST DUP4 MLOAD PUSH1 0x1 PUSH1 0x1 PUSH1 0xA0 SHL SUB AND DUP4 DUP3 ADD SSTORE SWAP3 DUP2 ADD SWAP3 PUSH1 0x1 ADD PUSH2 0x5CF2 JUMP JUMPDEST DUP4 DUP4 MSTORE DUP5 DUP3 DUP5 KECCAK256 SWAP2 DUP3 ADD SWAP2 ADD JUMPDEST DUP2 DUP2 LT PUSH2 0x5D78 JUMPI POP PUSH2 0x5CE6 JUMP JUMPDEST DUP4 DUP2 SSTORE PUSH1 0x1 ADD PUSH2 0x5D6B JUMP JUMPDEST PUSH4 0x4E487B71 PUSH1 0xE0 SHL DUP3 MSTORE PUSH1 0x41 PUSH1 0x4 MSTORE PUSH1 0x24 DUP3 REVERT JUMPDEST SWAP2 POP POP PUSH1 0x0 DUP1 MLOAD PUSH1 0x20 PUSH2 0x7119 DUP4 CODECOPY DUP2 MLOAD SWAP2 MSTORE SWAP6 SWAP3 SWAP7 POP PUSH1 0x1 SWAP2 SWAP5 SWAP4 POP PUSH1 0xFF NOT AND OR SWAP1 SSTORE PUSH2 0x5D36 PUSH1 0x5 SLOAD SWAP2 PUSH1 0x6 SLOAD SWAP1 MLOAD SWAP4 DUP5 SWAP4 DUP5 PUSH2 0x5A84 JUMP JUMPDEST PUSH1 0x64 SWAP2 MLOAD SWAP1 PUSH3 0x461BCD PUSH1 0xE5 SHL DUP3 MSTORE PUSH1 0x4 DUP3 ADD MSTORE PUSH1 0x11 PUSH1 0x24 DUP3 ADD MSTORE PUSH17 0x11D85B59481B9BDD08199A5B9A5CDA1959 PUSH1 0x7A SHL PUSH1 0x44 DUP3 ADD MSTORE REVERT JUMPDEST PUSH1 0x64 SWAP2 MLOAD SWAP1 PUSH3 0x461BCD PUSH1 0xE5 SHL DUP3 MSTORE PUSH1 0x4 DUP3 ADD MSTORE PUSH1 0x16 PUSH1 0x24 DUP3 ADD MSTORE PUSH22 0x11D85B5948185B1C9958591E4818DBDB5C1B195D1959 PUSH1 0x52 SHL PUSH1 0x44 DUP3 ADD MSTORE REVERT JUMPDEST ISZERO PUSH2 0x5E47 JUMPI JUMP JUMPDEST PUSH1 0x40 MLOAD PUSH3 0x461BCD PUSH1 0xE5 SHL DUP2 MSTORE PUSH1 0x20 PUSH1 0x4 DUP3 ADD MSTORE PUSH1 0x15 PUSH1 0x24 DUP3 ADD MSTORE PUSH21 0x5765656B6C792064726177206E6F74207265616479 PUSH1 0x58 SHL PUSH1 0x44 DUP3 ADD MSTORE PUSH1 0x64 SWAP1 REVERT JUMPDEST PUSH1 0x9 SLOAD PUSH3 0x93A80 DUP2 ADD DUP1 SWAP2 GT PUSH2 0x582B JUMPI PUSH2 0x5EA0 SWAP1 TIMESTAMP LT ISZERO PUSH2 0x5E40 JUMP JUMPDEST PUSH1 0x40 DUP1 MLOAD SWAP2 PUSH1 0x1 PUSH1 0x1 PUSH1 0x40 SHL SUB SWAP2 SWAP1 PUSH2 0x160 DUP5 ADD DUP4 DUP2 GT DUP6 DUP3 LT OR PUSH2 0x5353 JUMPI DUP3 MSTORE PUSH1 0xA DUP5 MSTORE PUSH1 0x20 SWAP3 PUSH2 0x140 CALLDATASIZE PUSH1 0x20 DUP8 ADD CALLDATACOPY DUP3 MLOAD PUSH2 0x7D20 DUP2 ADD SWAP2 DUP3 GT DUP2 DUP4 LT OR PUSH2 0x5353 JUMPI PUSH2 0x7D00 SWAP2 DUP5 MSTORE PUSH2 0x3E8 DUP2 MSTORE PUSH1 0x20 CALLDATASIZE SWAP2 ADD CALLDATACOPY PUSH1 0x0 SWAP2 PUSH1 0x0 JUMPDEST DUP6 MLOAD DUP2 LT ISZERO PUSH2 0x5F38 JUMPI PUSH1 0x1 PUSH1 0x1 PUSH1 0xA0 SHL SUB PUSH2 0x5F15 DUP3 DUP9 PUSH2 0x5A61 JUMP JUMPDEST MLOAD AND PUSH2 0x5F24 JUMPI JUMPDEST PUSH1 0x1 ADD PUSH2 0x5EFA JUMP JUMPDEST SWAP3 PUSH2 0x5F30 PUSH1 0x1 SWAP2 PUSH2 0x5A75 JUMP JUMPDEST SWAP4 SWAP1 POP PUSH2 0x5F1C JUMP JUMPDEST POP SWAP2 SWAP3 SWAP1 SWAP3 DUP1 ISZERO PUSH2 0x607F JUMPI PUSH2 0x5F4F SWAP1 PUSH1 0x7 SLOAD PUSH2 0x5AA6 JUMP JUMPDEST SWAP4 PUSH1 0x0 JUMPDEST DUP2 MLOAD DUP2 LT ISZERO PUSH2 0x6034 JUMPI PUSH1 0x1 PUSH1 0x1 PUSH1 0xA0 SHL SUB SWAP1 DUP4 DUP8 DUP4 PUSH2 0x5F72 DUP5 DUP8 PUSH2 0x5A61 JUMP JUMPDEST MLOAD AND PUSH2 0x5F85 JUMPI JUMPDEST POP POP PUSH1 0x1 SWAP2 POP ADD PUSH2 0x5F53 JUMP JUMPDEST DUP4 DUP4 SWAP5 PUSH2 0x5F95 PUSH2 0x5FC9 SWAP6 DUP9 PUSH2 0x5A61 JUMP JUMPDEST MLOAD AND PUSH1 0x0 DUP10 MLOAD DUP1 SWAP7 DUP2 SWAP6 DUP3 SWAP5 PUSH4 0xA9059CBB PUSH1 0xE0 SHL DUP5 MSTORE PUSH1 0x4 DUP5 ADD PUSH1 0x20 SWAP1 SWAP4 SWAP3 SWAP2 SWAP4 PUSH1 0x40 DUP2 ADD SWAP5 PUSH1 0x1 DUP1 PUSH1 0xA0 SHL SUB AND DUP2 MSTORE ADD MSTORE JUMP JUMPDEST SUB SWAP3 PUSH32 0x0 AND GAS CALL SWAP1 DUP2 ISZERO PUSH2 0x6029 JUMPI PUSH1 0x1 SWAP3 SWAP2 PUSH2 0x600B SWAP2 PUSH1 0x0 SWAP2 PUSH2 0x6012 JUMPI POP PUSH2 0x5ADE JUMP JUMPDEST DUP4 DUP8 PUSH2 0x5F79 JUMP JUMPDEST PUSH2 0x5C9F SWAP2 POP DUP7 RETURNDATASIZE DUP9 GT PUSH2 0xB93 JUMPI PUSH2 0xB85 DUP2 DUP4 PUSH2 0x543C JUMP JUMPDEST DUP6 MLOAD RETURNDATASIZE PUSH1 0x0 DUP3 RETURNDATACOPY RETURNDATASIZE SWAP1 REVERT JUMPDEST POP SWAP2 SWAP1 POP PUSH32 0x266EAB4E9078D52EC3F1266D5B3619A11040584EF2997FDEA8AFA3C03FA55977 SWAP3 SWAP4 POP PUSH2 0x6071 PUSH1 0x5 SLOAD SWAP2 PUSH1 0x7 SLOAD SWAP1 MLOAD SWAP4 DUP5 SWAP4 DUP5 PUSH2 0x5A84 JUMP JUMPDEST SUB SWAP1 LOG1 PUSH1 0x0 PUSH1 0x7 SSTORE TIMESTAMP PUSH1 0x9 SSTORE JUMP JUMPDEST POP POP SWAP2 PUSH32 0x266EAB4E9078D52EC3F1266D5B3619A11040584EF2997FDEA8AFA3C03FA55977 SWAP2 SWAP3 PUSH2 0x6071 PUSH1 0x5 SLOAD SWAP2 PUSH1 0x7 SLOAD SWAP1 MLOAD SWAP4 DUP5 SWAP4 DUP5 PUSH2 0x5A84 JUMP JUMPDEST ISZERO PUSH2 0x60C1 JUMPI JUMP JUMPDEST PUSH1 0x40 MLOAD PUSH3 0x461BCD PUSH1 0xE5 SHL DUP2 MSTORE PUSH1 0x20 PUSH1 0x4 DUP3 ADD MSTORE PUSH1 0x1F PUSH1 0x24 DUP3 ADD MSTORE PUSH32 0x4F6E6C792056524620636F6E74726163742063616E2063616C6C207468697300 PUSH1 0x44 DUP3 ADD MSTORE PUSH1 0x64 SWAP1 REVERT JUMPDEST ISZERO PUSH2 0x610D JUMPI JUMP JUMPDEST PUSH1 0x40 MLOAD PUSH3 0x461BCD PUSH1 0xE5 SHL DUP2 MSTORE PUSH1 0x20 PUSH1 0x4 DUP3 ADD MSTORE PUSH1 0x13 PUSH1 0x24 DUP3 ADD MSTORE PUSH19 0x139BC81DDA5B9B995C9CC81C1C9BDD9A591959 PUSH1 0x6A SHL PUSH1 0x44 DUP3 ADD MSTORE PUSH1 0x64 SWAP1 REVERT JUMPDEST SWAP2 SWAP1 DUP2 LT ISZERO PUSH2 0x5306 JUMPI PUSH1 0x5 SHL ADD SWAP1 JUMP JUMPDEST CALLDATALOAD PUSH1 0x1 PUSH1 0x1 PUSH1 0xA0 SHL SUB DUP2 AND DUP2 SUB PUSH2 0x8A9 JUMPI SWAP1 JUMP JUMPDEST SWAP1 DUP2 MSTORE PUSH1 0x60 PUSH1 0x20 DUP1 DUP4 ADD DUP3 SWAP1 MSTORE SWAP1 DUP3 ADD DUP5 SWAP1 MSTORE SWAP1 SWAP5 SWAP4 SWAP3 PUSH1 0x80 DUP7 ADD SWAP2 PUSH1 0x0 JUMPDEST DUP3 DUP2 LT PUSH2 0x619E JUMPI POP POP POP PUSH1 0x40 SWAP2 POP SWAP4 ADD MSTORE JUMP JUMPDEST SWAP1 SWAP2 SWAP3 DUP3 DUP1 PUSH1 0x1 SWAP3 DUP4 DUP1 PUSH1 0xA0 SHL SUB PUSH2 0x61B5 DUP10 PUSH2 0x52C4 JUMP JUMPDEST AND DUP2 MSTORE ADD SWAP6 ADD SWAP2 ADD SWAP4 SWAP3 SWAP2 SWAP1 SWAP4 PUSH2 0x618B JUMP JUMPDEST SWAP2 SWAP1 DUP3 SUB SWAP2 DUP3 GT PUSH2 0x582B JUMPI JUMP JUMPDEST ISZERO PUSH2 0x61DB JUMPI JUMP JUMPDEST PUSH1 0x40 MLOAD PUSH3 0x461BCD PUSH1 0xE5 SHL DUP2 MSTORE PUSH1 0x20 PUSH1 0x4 DUP3 ADD MSTORE PUSH1 0x18 PUSH1 0x24 DUP3 ADD MSTORE PUSH32 0x496E73756666696369656E7420564D462062616C616E63650000000000000000 PUSH1 0x44 DUP3 ADD MSTORE PUSH1 0x64 SWAP1 REVERT JUMPDEST ISZERO PUSH2 0x6227 JUMPI JUMP JUMPDEST PUSH1 0x40 MLOAD PUSH3 0x461BCD PUSH1 0xE5 SHL DUP2 MSTORE PUSH1 0x20 PUSH1 0x4 DUP3 ADD MSTORE PUSH1 0x1A PUSH1 0x24 DUP3 ADD MSTORE PUSH32 0x496E73756666696369656E7420564D4620616C6C6F77616E6365000000000000 PUSH1 0x44 DUP3 ADD MSTORE PUSH1 0x64 SWAP1 REVERT JUMPDEST ISZERO PUSH2 0x6273 JUMPI JUMP JUMPDEST PUSH1 0x40 MLOAD PUSH3 0x461BCD PUSH1 0xE5 SHL DUP2 MSTORE PUSH1 0x20 PUSH1 0x4 DUP3 ADD MSTORE PUSH1 0x13 PUSH1 0x24 DUP3 ADD MSTORE PUSH19 0x159351881D1C985B9CD9995C8819985A5B1959 PUSH1 0x6A SHL PUSH1 0x44 DUP3 ADD MSTORE PUSH1 0x64 SWAP1 REVERT JUMPDEST PUSH1 0x40 MLOAD SWAP1 PUSH2 0x62BB DUP3 PUSH2 0x5385 JUMP JUMPDEST DUP2 PUSH1 0xE0 PUSH1 0x0 SWAP2 DUP3 DUP2 MSTORE DUP3 PUSH1 0x20 DUP3 ADD MSTORE DUP3 PUSH1 0x40 DUP3 ADD MSTORE DUP3 PUSH1 0x60 DUP3 ADD MSTORE DUP3 PUSH1 0x80 DUP3 ADD MSTORE PUSH1 0x60 PUSH1 0xA0 DUP3 ADD MSTORE DUP3 PUSH1 0xC0 DUP3 ADD MSTORE ADD MSTORE JUMP JUMPDEST ISZERO PUSH2 0x62F4 JUMPI JUMP JUMPDEST PUSH1 0x40 MLOAD PUSH3 0x461BCD PUSH1 0xE5 SHL DUP2 MSTORE PUSH1 0x20 PUSH1 0x4 DUP3 ADD MSTORE PUSH1 0xF PUSH1 0x24 DUP3 ADD MSTORE PUSH15 0x159491881B9BDD08195B98589B1959 PUSH1 0x8A SHL PUSH1 0x44 DUP3 ADD MSTORE PUSH1 0x64 SWAP1 REVERT JUMPDEST ISZERO PUSH2 0x6332 JUMPI JUMP JUMPDEST PUSH1 0x40 MLOAD PUSH3 0x461BCD PUSH1 0xE5 SHL DUP2 MSTORE PUSH1 0x20 PUSH1 0x4 DUP3 ADD MSTORE PUSH1 0x14 PUSH1 0x24 DUP3 ADD MSTORE PUSH20 0x1594918818DBDB9D1C9858DD081B9BDD081CD95D PUSH1 0x62 SHL PUSH1 0x44 DUP3 ADD MSTORE PUSH1 0x64 SWAP1 REVERT JUMPDEST PUSH1 0x20 SWAP1 DUP2 DUP2 DUP5 SUB SLT PUSH2 0x8A9 JUMPI DUP1 MLOAD SWAP1 PUSH1 0x1 PUSH1 0x1 PUSH1 0x40 SHL SUB DUP3 GT PUSH2 0x8A9 JUMPI ADD SWAP2 DUP1 PUSH1 0x1F DUP5 ADD SLT ISZERO PUSH2 0x8A9 JUMPI DUP3 MLOAD PUSH2 0x63A3 DUP2 PUSH2 0x551F JUMP JUMPDEST SWAP4 PUSH2 0x63B1 PUSH1 0x40 MLOAD SWAP6 DUP7 PUSH2 0x543C JUMP JUMPDEST DUP2 DUP6 MSTORE DUP4 DUP1 DUP7 ADD SWAP3 PUSH1 0x5 SHL DUP3 ADD ADD SWAP3 DUP4 GT PUSH2 0x8A9 JUMPI DUP4 ADD SWAP1 JUMPDEST DUP3 DUP3 LT PUSH2 0x63D8 JUMPI POP POP POP POP SWAP1 JUMP JUMPDEST DUP2 MLOAD PUSH1 0x1 PUSH1 0x1 PUSH1 0xA0 SHL SUB DUP2 AND DUP2 SUB PUSH2 0x8A9 JUMPI DUP2 MSTORE SWAP1 DUP4 ADD SWAP1 DUP4 ADD PUSH2 0x63CA JUMP JUMPDEST ISZERO PUSH2 0x63FE JUMPI JUMP JUMPDEST PUSH1 0x40 MLOAD PUSH3 0x461BCD PUSH1 0xE5 SHL DUP2 MSTORE PUSH1 0x20 PUSH1 0x4 DUP3 ADD MSTORE PUSH1 0xF PUSH1 0x24 DUP3 ADD MSTORE PUSH15 0x151C985B9CD9995C8819985A5B1959 PUSH1 0x8A SHL PUSH1 0x44 DUP3 ADD MSTORE PUSH1 0x64 SWAP1 REVERT JUMPDEST DUP2 ISZERO PUSH2 0x5AB0 JUMPI MOD SWAP1 JUMP JUMPDEST PUSH1 0x1 SLOAD PUSH1 0x1 PUSH1 0x1 PUSH1 0xA0 SHL SUB AND CALLER SUB PUSH2 0x6453 JUMPI JUMP JUMPDEST PUSH1 0x40 MLOAD PUSH4 0x118CDAA7 PUSH1 0xE0 SHL DUP2 MSTORE CALLER PUSH1 0x4 DUP3 ADD MSTORE PUSH1 0x24 SWAP1 REVERT JUMPDEST PUSH1 0xFF PUSH1 0x1 SLOAD PUSH1 0xA0 SHR AND PUSH2 0x647A JUMPI JUMP JUMPDEST PUSH1 0x40 MLOAD PUSH4 0xD93C0665 PUSH1 0xE0 SHL DUP2 MSTORE PUSH1 0x4 SWAP1 REVERT JUMPDEST PUSH1 0x13 SLOAD SWAP1 PUSH1 0x0 JUMPDEST DUP3 PUSH1 0x0 MSTORE PUSH1 0x11 PUSH1 0x20 MSTORE PUSH1 0x40 PUSH1 0x0 KECCAK256 DUP1 SLOAD DUP3 LT ISZERO PUSH2 0x64E0 JUMPI DUP2 PUSH2 0x64B4 SWAP2 PUSH2 0x52EE JUMP JUMPDEST SWAP1 SLOAD PUSH1 0x3 SWAP2 SWAP1 SWAP2 SHL SHR PUSH1 0x1 PUSH1 0x1 PUSH1 0xA0 SHL SUB SWAP1 DUP2 AND SWAP1 DUP4 AND EQ PUSH2 0x64D8 JUMPI PUSH1 0x1 ADD PUSH2 0x6493 JUMP JUMPDEST POP POP POP PUSH1 0x1 SWAP1 JUMP JUMPDEST POP POP POP POP PUSH1 0x0 SWAP1 JUMP JUMPDEST PUSH1 0x2 PUSH1 0x0 SLOAD EQ PUSH2 0x64FA JUMPI PUSH1 0x2 PUSH1 0x0 SSTORE JUMP JUMPDEST PUSH1 0x40 MLOAD PUSH4 0x3EE5AEB5 PUSH1 0xE0 SHL DUP2 MSTORE PUSH1 0x4 SWAP1 REVERT JUMPDEST DUP2 ISZERO PUSH2 0x65FB JUMPI PUSH2 0x3E8 DUP3 GT PUSH2 0x65BD JUMPI PUSH1 0x1 DUP1 PUSH1 0xA0 SHL SUB AND SWAP1 PUSH1 0x0 SWAP1 DUP3 DUP3 MSTORE PUSH1 0x24 PUSH1 0x20 MSTORE PUSH2 0x653D DUP2 PUSH1 0x40 DUP5 KECCAK256 SLOAD PUSH2 0x581E JUMP JUMPDEST SWAP2 PUSH1 0x64 DUP4 GT PUSH2 0x6578 JUMPI PUSH2 0x656B PUSH1 0x40 SWAP3 PUSH1 0xE SWAP5 DUP7 DUP5 MSTORE PUSH1 0x24 PUSH1 0x20 MSTORE DUP5 DUP5 KECCAK256 SSTORE PUSH1 0x1E PUSH1 0x20 MSTORE DUP5 DUP5 DUP5 KECCAK256 ADD SLOAD PUSH2 0x581E JUMP JUMPDEST SWAP4 DUP2 MSTORE PUSH1 0x1E PUSH1 0x20 MSTORE KECCAK256 ADD SSTORE JUMP JUMPDEST PUSH1 0x40 MLOAD PUSH3 0x461BCD PUSH1 0xE5 SHL DUP2 MSTORE PUSH1 0x20 PUSH1 0x4 DUP3 ADD MSTORE PUSH1 0x1B PUSH1 0x24 DUP3 ADD MSTORE PUSH32 0x4461696C7920726577617264206C696D69742065786365656465640000000000 PUSH1 0x44 DUP3 ADD MSTORE PUSH1 0x64 SWAP1 REVERT JUMPDEST PUSH1 0x40 MLOAD PUSH3 0x461BCD PUSH1 0xE5 SHL DUP2 MSTORE PUSH1 0x20 PUSH1 0x4 DUP3 ADD MSTORE PUSH1 0x16 PUSH1 0x24 DUP3 ADD MSTORE PUSH22 0xA4CAEEC2E4C840C2DADEEADCE840E8DEDE40D0D2CED PUSH1 0x53 SHL PUSH1 0x44 DUP3 ADD MSTORE PUSH1 0x64 SWAP1 REVERT JUMPDEST PUSH1 0x40 MLOAD PUSH3 0x461BCD PUSH1 0xE5 SHL DUP2 MSTORE PUSH1 0x20 PUSH1 0x4 DUP3 ADD MSTORE PUSH1 0x1E PUSH1 0x24 DUP3 ADD MSTORE PUSH32 0x52657761726420616D6F756E74206D75737420626520706F7369746976650000 PUSH1 0x44 DUP3 ADD MSTORE PUSH1 0x64 SWAP1 REVERT JUMPDEST SWAP1 PUSH1 0x40 SWAP1 DUP2 MLOAD SWAP1 PUSH2 0x6650 DUP3 PUSH2 0x5420 JUMP JUMPDEST PUSH1 0x8 SWAP3 PUSH1 0x8 DUP4 MSTORE PUSH1 0x20 SWAP1 PUSH2 0x100 CALLDATASIZE DUP4 DUP7 ADD CALLDATACOPY PUSH1 0x0 SWAP2 DUP7 DUP4 MSTORE PUSH1 0x21 DUP2 MSTORE PUSH1 0x7 DUP3 DUP5 KECCAK256 ADD SLOAD SWAP2 DUP3 ISZERO PUSH2 0x678F JUMPI PUSH1 0x2 SLOAD DUP2 MLOAD PUSH4 0x1DAAF1B1 PUSH1 0xE1 SHL DUP2 MSTORE PUSH1 0x4 DUP2 ADD SWAP5 SWAP1 SWAP5 MSTORE PUSH1 0x1 PUSH1 0x1 PUSH1 0xA0 SHL SUB SWAP9 SWAP1 DUP4 SWAP1 DUP6 SWAP1 PUSH1 0x24 SWAP1 DUP3 SWAP1 DUP14 AND GAS STATICCALL SWAP4 DUP5 ISZERO PUSH2 0x6785 JUMPI DUP6 SWAP5 PUSH2 0x6752 JUMPI JUMPDEST POP DUP4 ISZERO PUSH2 0x6746 JUMPI DUP5 MSTORE PUSH1 0xB DUP3 MSTORE DUP1 DUP5 KECCAK256 SWAP5 DUP6 SLOAD SWAP5 DUP6 ISZERO PUSH2 0x6730 JUMPI JUMPDEST DUP9 DUP2 LT DUP1 PUSH2 0x673D JUMPI JUMPDEST ISZERO PUSH2 0x6730 JUMPI PUSH2 0x672B SWAP1 DUP11 PUSH2 0x6713 PUSH2 0x670D DUP10 DUP8 MLOAD DUP10 DUP2 ADD SWAP1 DUP12 DUP3 MSTORE DUP7 DUP11 DUP3 ADD MSTORE DUP10 DUP2 MSTORE PUSH2 0x6705 DUP2 PUSH2 0x53EA JUMP JUMPDEST MLOAD SWAP1 KECCAK256 PUSH2 0x6435 JUMP JUMPDEST DUP11 PUSH2 0x52EE JUMP JUMPDEST SWAP1 SLOAD SWAP1 PUSH1 0x3 SHL SHR AND PUSH2 0x6725 DUP3 DUP12 PUSH2 0x5A61 JUMP JUMPDEST MSTORE PUSH2 0x5A75 JUMP JUMPDEST PUSH2 0x66D1 JUMP JUMPDEST POP SWAP8 POP POP POP POP POP POP SWAP1 POP SWAP1 JUMP JUMPDEST POP DUP6 DUP2 LT PUSH2 0x66DA JUMP JUMPDEST POP POP POP POP POP SWAP3 POP SWAP1 POP SWAP1 JUMP JUMPDEST SWAP1 SWAP4 POP DUP3 DUP2 DUP2 RETURNDATASIZE DUP4 GT PUSH2 0x677E JUMPI JUMPDEST PUSH2 0x676A DUP2 DUP4 PUSH2 0x543C JUMP JUMPDEST DUP2 ADD SUB SLT PUSH2 0x677A JUMPI MLOAD SWAP3 CODESIZE PUSH2 0x66B6 JUMP JUMPDEST DUP5 DUP1 REVERT JUMPDEST POP RETURNDATASIZE PUSH2 0x6760 JUMP JUMPDEST DUP3 MLOAD RETURNDATASIZE DUP8 DUP3 RETURNDATACOPY RETURNDATASIZE SWAP1 REVERT JUMPDEST POP POP POP POP SWAP3 POP SWAP1 POP SWAP1 JUMP JUMPDEST PUSH2 0x67A5 PUSH1 0x5 SLOAD PUSH2 0x5A75 JUMP JUMPDEST DUP1 PUSH1 0x5 SSTORE PUSH3 0x15180 TIMESTAMP ADD SWAP1 DUP2 TIMESTAMP GT PUSH2 0x582B JUMPI PUSH1 0x40 MLOAD SWAP2 PUSH2 0x67C4 DUP4 PUSH2 0x53CF JUMP JUMPDEST PUSH1 0x0 DUP1 DUP5 MSTORE PUSH1 0x40 MLOAD SWAP4 PUSH2 0x67D6 DUP6 PUSH2 0x5385 JUMP JUMPDEST DUP4 DUP6 MSTORE PUSH1 0x20 SWAP1 DUP2 DUP7 ADD SWAP3 TIMESTAMP DUP5 MSTORE PUSH1 0x40 DUP8 ADD SWAP5 DUP6 MSTORE PUSH1 0x60 DUP8 ADD DUP2 DUP2 MSTORE PUSH1 0x80 DUP9 ADD SWAP1 DUP3 DUP3 MSTORE PUSH1 0xA0 DUP10 ADD SWAP4 DUP5 MSTORE PUSH1 0xC0 DUP10 ADD SWAP7 DUP4 DUP9 MSTORE PUSH1 0xE0 DUP11 ADD SWAP9 DUP5 DUP11 MSTORE DUP5 MSTORE PUSH1 0x21 DUP7 MSTORE PUSH1 0x40 DUP5 KECCAK256 SWAP10 MLOAD DUP11 SSTORE PUSH1 0x1 SWAP7 MLOAD PUSH1 0x1 DUP12 ADD SSTORE MLOAD PUSH1 0x2 DUP11 ADD SSTORE MLOAD PUSH1 0x3 DUP10 ADD SSTORE MLOAD PUSH1 0x4 DUP9 ADD SSTORE PUSH1 0x5 DUP8 ADD SWAP2 MLOAD SWAP3 DUP4 MLOAD SWAP4 PUSH1 0x1 PUSH1 0x1 PUSH1 0x40 SHL SUB DUP6 GT PUSH2 0x68EF JUMPI PUSH1 0x1 PUSH1 0x40 SHL DUP6 GT PUSH2 0x68EF JUMPI DUP2 SWAP1 DUP5 SLOAD DUP7 DUP7 SSTORE DUP1 DUP8 LT PUSH2 0x68C5 JUMPI JUMPDEST POP ADD SWAP3 DUP3 MSTORE DUP1 DUP3 KECCAK256 SWAP2 JUMPDEST DUP5 DUP2 LT PUSH2 0x68AB JUMPI POP POP POP POP POP POP SWAP1 PUSH2 0x68A1 PUSH1 0x7 SWAP3 MLOAD ISZERO ISZERO PUSH1 0x6 DUP6 ADD SWAP1 PUSH1 0xFF DUP1 NOT DUP4 SLOAD AND SWAP2 ISZERO ISZERO AND OR SWAP1 SSTORE JUMP JUMPDEST MLOAD SWAP2 ADD SSTORE TIMESTAMP PUSH1 0x8 SSTORE JUMP JUMPDEST DUP4 MLOAD PUSH1 0x1 PUSH1 0x1 PUSH1 0xA0 SHL SUB AND DUP4 DUP3 ADD SSTORE SWAP3 DUP2 ADD SWAP3 DUP6 ADD PUSH2 0x6875 JUMP JUMPDEST DUP6 DUP6 MSTORE DUP8 DUP8 DUP5 DUP8 KECCAK256 SWAP3 DUP4 ADD SWAP3 ADD JUMPDEST DUP3 DUP2 LT PUSH2 0x68E1 JUMPI POP POP PUSH2 0x686B JUMP JUMPDEST DUP7 DUP2 SSTORE DUP6 SWAP5 POP DUP10 SWAP2 ADD PUSH2 0x68D3 JUMP JUMPDEST PUSH4 0x4E487B71 PUSH1 0xE0 SHL DUP4 MSTORE PUSH1 0x41 PUSH1 0x4 MSTORE PUSH1 0x24 DUP4 REVERT JUMPDEST PUSH1 0x1 DUP1 PUSH1 0xA0 SHL SUB AND PUSH1 0x0 SWAP1 DUP1 DUP3 MSTORE PUSH1 0x26 PUSH1 0x20 MSTORE PUSH1 0x1E PUSH2 0x6926 PUSH1 0x40 DUP5 KECCAK256 SLOAD TIMESTAMP PUSH2 0x61C7 JUMP JUMPDEST LT PUSH2 0x695B JUMPI DUP2 MSTORE PUSH1 0x1E PUSH1 0x20 MSTORE PUSH1 0xA PUSH1 0x1 PUSH1 0x40 DUP4 KECCAK256 ADD SLOAD GT PUSH2 0x6955 JUMPI PUSH1 0x24 PUSH1 0x20 MSTORE PUSH1 0x64 PUSH1 0x40 DUP3 KECCAK256 SLOAD GT PUSH2 0x6955 JUMPI SWAP1 JUMP JUMPDEST POP PUSH1 0x1 SWAP1 JUMP JUMPDEST POP POP PUSH1 0x1 SWAP1 JUMP JUMPDEST PUSH1 0x1 DUP1 PUSH1 0xA0 SHL SUB PUSH1 0x4 SLOAD AND PUSH1 0x40 DUP1 MLOAD SWAP1 PUSH4 0x8F09C857 PUSH1 0xE0 SHL SWAP3 DUP4 DUP4 MSTORE PUSH1 0x20 SWAP1 DUP2 DUP5 PUSH1 0x4 DUP2 DUP5 GAS STATICCALL SWAP4 DUP5 ISZERO PUSH2 0x6AA4 JUMPI PUSH1 0x0 SWAP5 PUSH2 0x6AE9 JUMPI JUMPDEST POP DUP3 MLOAD PUSH4 0xD73EBB5 PUSH1 0xE0 SHL DUP2 MSTORE SWAP5 DUP3 DUP7 PUSH1 0x4 DUP2 DUP6 GAS STATICCALL SWAP6 DUP7 ISZERO PUSH2 0x6ADE JUMPI PUSH1 0x0 SWAP7 PUSH2 0x6AAF JUMPI JUMPDEST POP DUP3 SWAP1 PUSH1 0x4 DUP6 MLOAD DUP1 SWAP5 DUP2 SWAP4 DUP3 MSTORE GAS STATICCALL SWAP1 DUP2 ISZERO PUSH2 0x6AA4 JUMPI PUSH1 0x0 SWAP2 PUSH2 0x6A77 JUMPI JUMPDEST POP DUP1 PUSH2 0x6A1E JUMPI JUMPDEST POP POP MLOAD SWAP1 DUP2 MSTORE PUSH1 0x20 DUP2 ADD DUP3 SWAP1 MSTORE TIMESTAMP PUSH1 0x40 DUP3 ADD MSTORE PUSH32 0xD275F5DE1F47F481706CBB99406816BCC17CD387167D5DE15596C1A2FB47AD86 SWAP1 PUSH1 0x60 SWAP1 LOG1 SWAP1 JUMP JUMPDEST PUSH2 0x6A2A PUSH1 0x32 SWAP2 DUP6 PUSH2 0x7021 JUMP JUMPDEST GT PUSH2 0x6A35 JUMPI DUP1 PUSH2 0x69E2 JUMP JUMPDEST PUSH1 0x64 SWAP2 MLOAD SWAP1 PUSH3 0x461BCD PUSH1 0xE5 SHL DUP3 MSTORE PUSH1 0x4 DUP3 ADD MSTORE PUSH1 0x18 PUSH1 0x24 DUP3 ADD MSTORE PUSH32 0x507269636520646576696174696F6E20746F6F20686967680000000000000000 PUSH1 0x44 DUP3 ADD MSTORE REVERT JUMPDEST SWAP1 POP DUP2 DUP2 DUP2 RETURNDATASIZE DUP4 GT PUSH2 0x6A9D JUMPI JUMPDEST PUSH2 0x6A8E DUP2 DUP4 PUSH2 0x543C JUMP JUMPDEST DUP2 ADD SUB SLT PUSH2 0x8A9 JUMPI MLOAD CODESIZE PUSH2 0x69DB JUMP JUMPDEST POP RETURNDATASIZE PUSH2 0x6A84 JUMP JUMPDEST DUP4 MLOAD RETURNDATASIZE PUSH1 0x0 DUP3 RETURNDATACOPY RETURNDATASIZE SWAP1 REVERT JUMPDEST SWAP1 SWAP6 POP DUP3 DUP2 DUP2 RETURNDATASIZE DUP4 GT PUSH2 0x6AD7 JUMPI JUMPDEST PUSH2 0x6AC7 DUP2 DUP4 PUSH2 0x543C JUMP JUMPDEST DUP2 ADD SUB SLT PUSH2 0x8A9 JUMPI MLOAD SWAP5 DUP3 PUSH2 0x69BD JUMP JUMPDEST POP RETURNDATASIZE PUSH2 0x6ABD JUMP JUMPDEST DUP5 MLOAD RETURNDATASIZE PUSH1 0x0 DUP3 RETURNDATACOPY RETURNDATASIZE SWAP1 REVERT JUMPDEST SWAP1 SWAP4 POP DUP2 DUP2 DUP2 RETURNDATASIZE DUP4 GT PUSH2 0x6B11 JUMPI JUMPDEST PUSH2 0x6B01 DUP2 DUP4 PUSH2 0x543C JUMP JUMPDEST DUP2 ADD SUB SLT PUSH2 0x8A9 JUMPI MLOAD SWAP3 CODESIZE PUSH2 0x6998 JUMP JUMPDEST POP RETURNDATASIZE PUSH2 0x6AF7 JUMP JUMPDEST SWAP1 PUSH2 0x6B22 DUP3 PUSH2 0x545D JUMP JUMPDEST PUSH2 0x6B2F PUSH1 0x40 MLOAD SWAP2 DUP3 PUSH2 0x543C JUMP JUMPDEST DUP3 DUP2 MSTORE DUP1 SWAP3 PUSH2 0x6B40 PUSH1 0x1F NOT SWAP2 PUSH2 0x545D JUMP JUMPDEST ADD SWAP1 PUSH1 0x20 CALLDATASIZE SWAP2 ADD CALLDATACOPY JUMP JUMPDEST SWAP1 DUP2 MLOAD DUP2 LT ISZERO PUSH2 0x5306 JUMPI ADD PUSH1 0x20 ADD SWAP1 JUMP JUMPDEST DUP1 MLOAD PUSH1 0x3 DUP2 LT SWAP1 DUP2 ISZERO PUSH2 0x6D63 JUMPI JUMPDEST POP PUSH2 0x6D5D JUMPI PUSH1 0x0 JUMPDEST DUP2 MLOAD DUP2 LT ISZERO PUSH2 0x6C2D JUMPI PUSH1 0x1 PUSH1 0x1 PUSH1 0xF8 SHL SUB NOT PUSH2 0x6B8D DUP3 DUP5 PUSH2 0x6B4A JUMP JUMPDEST MLOAD AND PUSH1 0x3 PUSH1 0xFC SHL DUP2 LT ISZERO SWAP1 DUP2 PUSH2 0x6C1E JUMPI JUMPDEST DUP2 ISZERO PUSH2 0x6BFA JUMPI JUMPDEST DUP2 ISZERO PUSH2 0x6BD6 JUMPI JUMPDEST DUP2 ISZERO PUSH2 0x6BC8 JUMPI JUMPDEST POP ISZERO PUSH2 0x6BC1 JUMPI PUSH1 0x1 ADD PUSH2 0x6B71 JUMP JUMPDEST POP POP PUSH1 0x0 SWAP1 JUMP JUMPDEST PUSH1 0x5F PUSH1 0xF8 SHL EQ SWAP1 POP CODESIZE PUSH2 0x6BB3 JUMP JUMPDEST SWAP1 POP PUSH1 0x61 PUSH1 0xF8 SHL DUP2 LT ISZERO DUP1 PUSH2 0x6BEC JUMPI JUMPDEST SWAP1 PUSH2 0x6BAC JUMP JUMPDEST POP PUSH1 0x3D PUSH1 0xF9 SHL DUP2 GT ISZERO PUSH2 0x6BE6 JUMP JUMPDEST SWAP1 POP PUSH1 0x41 PUSH1 0xF8 SHL DUP2 LT ISZERO DUP1 PUSH2 0x6C10 JUMPI JUMPDEST SWAP1 PUSH2 0x6BA5 JUMP JUMPDEST POP PUSH1 0x2D PUSH1 0xF9 SHL DUP2 GT ISZERO PUSH2 0x6C0A JUMP JUMPDEST PUSH1 0x39 PUSH1 0xF8 SHL DUP2 GT ISZERO SWAP2 POP PUSH2 0x6B9E JUMP JUMPDEST POP PUSH1 0x1 JUMPDEST DUP2 MLOAD DUP2 LT ISZERO PUSH2 0x6C8F JUMPI PUSH1 0x1 PUSH1 0x1 PUSH1 0xF8 SHL SUB NOT PUSH1 0x5F PUSH1 0xF8 SHL DUP1 DUP3 PUSH2 0x6C54 DUP6 DUP8 PUSH2 0x6B4A JUMP JUMPDEST MLOAD AND EQ SWAP2 DUP3 PUSH2 0x6C6C JUMPI JUMPDEST POP POP PUSH2 0x6BC1 JUMPI PUSH1 0x1 ADD PUSH2 0x6C31 JUMP JUMPDEST SWAP1 SWAP2 POP PUSH1 0x0 NOT DUP4 ADD DUP4 DUP2 GT PUSH2 0x582B JUMPI PUSH2 0x6C85 SWAP1 DUP6 PUSH2 0x6B4A JUMP JUMPDEST MLOAD AND EQ CODESIZE DUP1 PUSH2 0x6C5E JUMP JUMPDEST POP SWAP1 PUSH2 0x6C9B DUP3 MLOAD PUSH2 0x6B18 JUMP JUMPDEST PUSH1 0x0 JUMPDEST DUP4 MLOAD DUP2 LT ISZERO PUSH2 0x6D43 JUMPI PUSH1 0x1 PUSH1 0x1 PUSH1 0xF8 SHL SUB NOT SWAP1 PUSH1 0x61 PUSH1 0xF8 SHL DUP3 PUSH2 0x6CC1 DUP4 DUP9 PUSH2 0x6B4A JUMP JUMPDEST MLOAD AND LT ISZERO DUP1 PUSH2 0x6D29 JUMPI JUMPDEST ISZERO PUSH2 0x6D07 JUMPI PUSH2 0x6CDA DUP2 DUP7 PUSH2 0x6B4A JUMP JUMPDEST MLOAD PUSH1 0xF8 SWAP3 SWAP1 DUP4 SHR PUSH1 0x1F NOT ADD PUSH1 0xFF DUP2 GT PUSH2 0x582B JUMPI PUSH1 0x1 SWAP4 SHL AND PUSH1 0x0 BYTE PUSH2 0x6CFF DUP3 DUP6 PUSH2 0x6B4A JUMP JUMPDEST MSTORE8 JUMPDEST ADD PUSH2 0x6C9E JUMP JUMPDEST PUSH1 0x1 SWAP2 PUSH2 0x6D14 DUP3 DUP8 PUSH2 0x6B4A JUMP JUMPDEST MLOAD AND PUSH1 0x0 BYTE PUSH2 0x6D23 DUP3 DUP6 PUSH2 0x6B4A JUMP JUMPDEST MSTORE8 PUSH2 0x6D01 JUMP JUMPDEST POP PUSH1 0x3D PUSH1 0xF9 SHL DUP3 PUSH2 0x6D3A DUP4 DUP9 PUSH2 0x6B4A JUMP JUMPDEST MLOAD AND GT ISZERO PUSH2 0x6CCB JUMP JUMPDEST POP PUSH2 0x6D4F SWAP2 SWAP3 POP PUSH2 0x6ECB JUMP JUMPDEST PUSH2 0x6D58 JUMPI PUSH1 0x1 SWAP1 JUMP JUMPDEST PUSH1 0x0 SWAP1 JUMP JUMPDEST POP PUSH1 0x0 SWAP1 JUMP JUMPDEST PUSH1 0x32 SWAP2 POP GT CODESIZE PUSH2 0x6B69 JUMP JUMPDEST SWAP1 PUSH1 0x40 SWAP2 PUSH1 0x40 MLOAD SWAP3 PUSH2 0x6D7F DUP5 PUSH2 0x5420 JUMP JUMPDEST PUSH1 0x8 SWAP3 PUSH1 0x8 DUP6 MSTORE PUSH1 0x20 PUSH2 0x100 CALLDATASIZE PUSH1 0x20 DUP9 ADD CALLDATACOPY PUSH1 0x0 SWAP2 DUP5 PUSH1 0x0 MSTORE PUSH1 0xC PUSH1 0x20 MSTORE PUSH1 0x40 PUSH1 0x0 KECCAK256 SLOAD SWAP1 DUP2 ISZERO PUSH2 0x6E23 JUMPI PUSH1 0x0 JUMPDEST DUP8 DUP2 LT PUSH2 0x6DBF JUMPI POP POP POP POP POP POP POP POP SWAP1 JUMP JUMPDEST PUSH1 0x1 SWAP1 PUSH2 0x6E04 PUSH2 0x6DF5 DUP6 DUP10 MLOAD DUP9 DUP2 ADD SWAP1 DUP8 DUP3 MSTORE DUP6 DUP13 DUP3 ADD MSTORE TIMESTAMP PUSH1 0x60 DUP3 ADD MSTORE PREVRANDAO PUSH1 0x80 DUP3 ADD MSTORE PUSH1 0xA0 DUP14 DUP2 DUP4 ADD MSTORE DUP2 MSTORE PUSH2 0x6705 DUP2 PUSH2 0x5405 JUMP JUMPDEST DUP10 DUP9 MSTORE PUSH1 0xB DUP8 MSTORE DUP9 DUP9 KECCAK256 PUSH2 0x52EE JUMP JUMPDEST DUP4 DUP1 PUSH1 0xA0 SHL SUB SWAP2 SLOAD SWAP1 PUSH1 0x3 SHL SHR AND PUSH2 0x6E1C DUP3 DUP13 PUSH2 0x5A61 JUMP JUMPDEST MSTORE ADD PUSH2 0x6DAD JUMP JUMPDEST POP POP POP POP POP POP POP SWAP1 JUMP JUMPDEST DUP1 ISZERO PUSH2 0x6EAD JUMPI DUP1 PUSH1 0x0 DUP2 DUP1 JUMPDEST PUSH2 0x6E95 JUMPI POP PUSH2 0x6E47 DUP2 PUSH2 0x6B18 JUMP JUMPDEST SWAP3 JUMPDEST PUSH2 0x6E52 JUMPI POP POP SWAP1 JUMP JUMPDEST PUSH1 0x0 NOT DUP2 ADD SWAP1 DUP2 GT PUSH2 0x582B JUMPI DUP1 SWAP2 PUSH1 0xA SWAP2 PUSH1 0x30 DUP4 DUP4 MOD DUP2 ADD DUP1 SWAP2 GT PUSH2 0x582B JUMPI PUSH1 0xF8 SHL PUSH1 0x1 PUSH1 0x1 PUSH1 0xF8 SHL SUB NOT AND PUSH1 0x0 BYTE SWAP1 PUSH2 0x6E8C SWAP1 DUP7 PUSH2 0x6B4A JUMP JUMPDEST MSTORE8 DIV SWAP1 DUP2 PUSH2 0x6E49 JUMP JUMPDEST SWAP2 POP PUSH2 0x6EA2 PUSH1 0xA SWAP2 PUSH2 0x5A75 JUMP JUMPDEST SWAP2 DIV DUP1 DUP4 SWAP3 SWAP2 PUSH2 0x6E39 JUMP JUMPDEST POP PUSH1 0x40 MLOAD PUSH2 0x6EBA DUP2 PUSH2 0x53B4 JUMP JUMPDEST PUSH1 0x1 DUP2 MSTORE PUSH1 0x3 PUSH1 0xFC SHL PUSH1 0x20 DUP3 ADD MSTORE SWAP1 JUMP JUMPDEST PUSH1 0x40 DUP1 MLOAD SWAP1 PUSH2 0x6ED9 DUP3 PUSH2 0x5405 JUMP JUMPDEST PUSH1 0x5 DUP3 MSTORE PUSH1 0x0 JUMPDEST PUSH1 0xA0 DUP2 LT PUSH2 0x7010 JUMPI POP DUP1 MLOAD PUSH2 0x6EF4 DUP2 PUSH2 0x53B4 JUMP JUMPDEST PUSH1 0x5 DUP2 MSTORE PUSH5 0x20A226A4A7 PUSH1 0xD9 SHL PUSH1 0x20 DUP3 ADD MSTORE PUSH2 0x6F0F DUP4 PUSH2 0x5A14 JUMP JUMPDEST MSTORE PUSH2 0x6F19 DUP3 PUSH2 0x5A14 JUMP JUMPDEST POP DUP1 MLOAD PUSH2 0x6F25 DUP2 PUSH2 0x53B4 JUMP JUMPDEST PUSH1 0x5 DUP2 MSTORE PUSH5 0x27ABA722A9 PUSH1 0xD9 SHL PUSH1 0x20 DUP3 ADD MSTORE PUSH2 0x6F40 DUP4 PUSH2 0x5A21 JUMP JUMPDEST MSTORE PUSH2 0x6F4A DUP3 PUSH2 0x5A21 JUMP JUMPDEST POP DUP1 MLOAD PUSH2 0x6F56 DUP2 PUSH2 0x53B4 JUMP JUMPDEST PUSH1 0x6 DUP2 MSTORE PUSH6 0x53595354454D PUSH1 0xD0 SHL PUSH1 0x20 DUP3 ADD MSTORE PUSH2 0x6F72 DUP4 PUSH2 0x5A31 JUMP JUMPDEST MSTORE PUSH2 0x6F7C DUP3 PUSH2 0x5A31 JUMP JUMPDEST POP DUP1 MLOAD PUSH2 0x6F88 DUP2 PUSH2 0x53B4 JUMP JUMPDEST PUSH1 0x4 DUP2 MSTORE PUSH4 0x13955313 PUSH1 0xE2 SHL PUSH1 0x20 DUP3 ADD MSTORE PUSH2 0x6FA2 DUP4 PUSH2 0x5A41 JUMP JUMPDEST MSTORE PUSH2 0x6FAC DUP3 PUSH2 0x5A41 JUMP JUMPDEST POP MLOAD PUSH2 0x6FB7 DUP2 PUSH2 0x53B4 JUMP JUMPDEST PUSH1 0x4 DUP2 MSTORE PUSH4 0x151154D5 PUSH1 0xE2 SHL PUSH1 0x20 DUP3 ADD MSTORE PUSH2 0x6FD1 DUP3 PUSH2 0x5A51 JUMP JUMPDEST MSTORE PUSH2 0x6FDB DUP2 PUSH2 0x5A51 JUMP JUMPDEST POP PUSH1 0x0 JUMPDEST DUP2 MLOAD DUP2 LT ISZERO PUSH2 0x7008 JUMPI PUSH2 0x6FFC PUSH2 0x6FF5 DUP3 DUP5 PUSH2 0x5A61 JUMP JUMPDEST MLOAD DUP5 PUSH2 0x706B JUMP JUMPDEST PUSH2 0x64D8 JUMPI PUSH1 0x1 ADD PUSH2 0x6FDF JUMP JUMPDEST POP POP POP PUSH1 0x0 SWAP1 JUMP JUMPDEST DUP1 PUSH1 0x60 PUSH1 0x20 DUP1 SWAP4 DUP7 ADD ADD MSTORE ADD PUSH2 0x6EE0 JUMP JUMPDEST DUP2 DUP2 EQ PUSH2 0x6BC1 JUMPI DUP2 DUP1 DUP3 GT ISZERO PUSH2 0x705B JUMPI PUSH2 0x703A SWAP2 PUSH2 0x61C7 JUMP JUMPDEST SWAP1 JUMPDEST PUSH1 0x64 DUP3 MUL SWAP2 DUP1 DUP4 DIV PUSH1 0x64 EQ SWAP1 ISZERO OR ISZERO PUSH2 0x582B JUMPI PUSH2 0x7058 SWAP2 PUSH2 0x5AA6 JUMP JUMPDEST SWAP1 JUMP JUMPDEST SWAP1 PUSH2 0x7065 SWAP2 PUSH2 0x61C7 JUMP JUMPDEST SWAP1 PUSH2 0x703C JUMP JUMPDEST SWAP1 DUP1 MLOAD DUP3 MLOAD LT PUSH2 0x6BC1 JUMPI PUSH1 0x0 SWAP1 JUMPDEST PUSH2 0x7086 DUP4 MLOAD DUP3 MLOAD SWAP1 PUSH2 0x61C7 JUMP JUMPDEST DUP3 GT PUSH2 0x7008 JUMPI PUSH1 0x1 SWAP3 PUSH1 0x0 JUMPDEST DUP3 MLOAD DUP2 LT ISZERO PUSH2 0x70EE JUMPI PUSH1 0x1 PUSH1 0x1 PUSH1 0xF8 SHL SUB NOT DUP1 PUSH2 0x70B8 PUSH2 0x70B2 DUP5 DUP9 PUSH2 0x581E JUMP JUMPDEST DUP6 PUSH2 0x6B4A JUMP JUMPDEST MLOAD AND SWAP1 PUSH2 0x70C5 DUP4 DUP7 PUSH2 0x6B4A JUMP JUMPDEST MLOAD AND SUB PUSH2 0x70D4 JUMPI PUSH1 0x1 ADD PUSH2 0x7092 JUMP JUMPDEST POP SWAP3 POP SWAP1 PUSH1 0x0 JUMPDEST PUSH2 0x64D8 JUMPI PUSH2 0x70E8 SWAP1 PUSH2 0x5A75 JUMP JUMPDEST SWAP1 PUSH2 0x7079 JUMP JUMPDEST POP SWAP3 SWAP2 SWAP1 SWAP2 PUSH2 0x70DB JUMP INVALID SWAP8 PUSH7 0x7070C54EF182B0 CREATE2 DUP6 DUP12 SUB 0x4B 0xEA 0xC1 0xB6 RETURN ADDMOD SWAP11 LOG2 0xD3 XOR DUP12 0xB1 0xE8 SWAP3 SWAP16 0x4F 0xA9 0xB9 0x29 0xDD SHR PUSH19 0xFCDA97FCFC2FE124C4AA194986CACA752D3769 0xC0 EXP PUSH5 0x95659509D7 0xB1 SWAP12 NOT MLOAD DUP9 0xE7 0xE2 0xA9 0xC9 CHAINID 0xC9 SGT OR SWAP5 PUSH1 0x30 BLOBHASH 0xC EXTCODESIZE LOG4 DUP11 JUMPDEST PUSH32 0x867101928826FA4CC609C5A2646970667358221220105E263FA562CF916E4EAC PUSH11 0x44C9A021B1139DD6EC46CE PUSH26 0x2BE061F4899EA7DB64736F6C6343000818003300000000000000 "},"methodIdentifiers":{"ADMIN_ROLE()":"75b238fc","AUDITOR_ROLE()":"6e1d616e","BASE_SEPOLIA_HOLDING_REWARD()":"8c267e0d","BATCH_SIZE()":"49faa4d4","DAILY_PLAY_REWARD()":"dd23b9cb","DAILY_WINNERS_COUNT()":"16fa1086","DOLLAR_ENTRY_FEE()":"c5d32157","EMERGENCY_ROLE()":"20df4359","ENTRY_COOLDOWN()":"a9b8b451","FIRST_ORDER_REWARD()":"69396e88","GAS_OPTIMIZATION_INTERVAL()":"a37c1572","JACKPOT_ENTRY_COST()":"4b75344e","JACKPOT_MULTIPLIER()":"7a7eb1f4","LOYALTY_POINTS_PER_DOLLAR()":"f8172fe3","MAX_DAILY_ENTRIES()":"bbc3ced7","MAX_DAILY_REWARDS()":"d136a94d","MAX_JACKPOT_ENTRIES()":"39d8ea42","MAX_PRICE_DEVIATION()":"96f277b7","MAX_REFERRAL_CODE_LENGTH()":"9b95f1fc","MAX_REWARD_AMOUNT()":"a04f6b4b","MIN_BASE_SEPOLIA_HOLDING()":"9b5a139a","MIN_REFERRAL_CODE_LENGTH()":"e443e279","OPERATOR_ROLE()":"f5b541a6","PRICE_UPDATE_THRESHOLD()":"098655d9","REFERRAL_REWARD()":"84a3a0f3","STREAK_BONUS()":"bcf64475","WEEKLY_WINNERS_COUNT()":"0d9f92ca","addJackpotEntry()":"b87fc22d","awardBaseSepoliaHoldingsToppings()":"d5fa40e3","awardLoyaltyPoints()":"74631fd7","awardStreakBonus()":"25b7f388","batchProcessingActive(uint256)":"bf757624","batchProcessingNonce(uint256)":"79675127","blacklistedAddresses(address)":"d5749d42","claimFirstOrderReward()":"e22cb9c9","claimWeeklyChallengeReward(uint256)":"2618cafd","contributeEntropy(bytes32)":"1472cbe3","createReferralCode()":"2e108d1c","currentDailyJackpot()":"e3d440a7","currentRandomnessRound()":"bb6bf0f0","currentWeeklyJackpot()":"3bb4f638","dailyPlayerCount(uint256)":"ffc39504","dailyPlayers(uint256,uint256)":"4eb692a5","drawDailyWinners()":"3fb83a54","drawWeeklyWinners()":"52861f7f","emergencyPause(bool)":"e8f6940e","emergencyUnlockGame(uint256)":"e82aefc7","emergencyWithdraw()":"db2e21bc","enterDailyGame(string)":"5c27b2e4","entropyContributions(uint256)":"cf376677","entropyContributors(uint256,uint256)":"0c89d127","entropyRoundId()":"59db6fe6","gameStateLocked(uint256)":"2a243f19","games(uint256)":"117a5b90","gasOptimizationThreshold()":"ee892e64","generateSecureRandomness()":"cb955e6b","getCurrentEntryFee()":"0aa01695","getCurrentGame()":"968d901b","getCurrentGameId()":"a2635401","getCurrentVMFPrice()":"786a78c6","getEligibleDailyPlayers(uint256)":"bacf46f3","getEligibleWeeklyPlayers(uint256)":"ccb60e01","getGame(uint256)":"a2f77bcc","getGasUsageStats()":"aea664a5","getJackpotState(uint256)":"3f781412","getPlayerInfo(address)":"59328401","getReferralInfo(address)":"21874ae2","grantRole(bytes32,address)":"2f2ff15d","hasEnteredToday(address)":"ba53ba24","hasRole(bytes32,address)":"91d14854","isDailyDrawReady()":"2efb53da","isWeeklyDrawReady()":"c65a8568","jackpotStateHash(uint256)":"67cafabb","jackpotUpdateCooldown()":"b8caead6","jackpotUpdateNonce(uint256)":"d2111791","lastDailyDraw()":"7550b84f","lastEntropyUpdate()":"2ee8b778","lastGasOptimization()":"28100aca","lastJackpotUpdate()":"19bf155d","lastWeeklyDraw()":"c14e1e05","optimizeGasUsage()":"59a9867e","owner()":"8da5cb5b","paused()":"5c975abb","pendingWinners(uint256,uint256)":"f711dca4","players(address)":"e2eb41ff","priceOracle()":"2630c12f","processBatchPlayers(address[],uint256[])":"3a65126a","processDailyWinners(uint256,address[])":"9e9e4056","processWeeklyWinners(uint256,address[])":"56768b5e","randomnessContract()":"41fe39ec","randomnessSeeds(uint256)":"a88066f7","referralCodes(string)":"2655e840","referrals(address)":"9ca423b3","renounceOwnership()":"715018a6","requestDailyRandomness()":"0b00a5db","requestDailyVRF()":"9b6ccde2","requestWeeklyVRF()":"ecb6159e","revealRandomness(uint256,uint256,bytes32)":"a154fc6b","revokeRole(bytes32,address)":"d547741f","roleAdmins(bytes32)":"8543210d","roles(bytes32,address)":"f8fc08b9","selectDailyWinners()":"eb0fb2c8","setJackpotUpdateCooldown(uint256)":"6ce497b2","setPlayerBlacklist(address,bool)":"43f2a080","setRoleAdmin(bytes32,address)":"ad763192","setUseVRF(bool)":"f877a8af","setVRFContract(address)":"853b2b88","submitRandomnessCommitment(uint256,bytes32)":"e3505b14","transferOwnership(address)":"f2fde38b","updateJackpotAtomic(uint256,uint256,bytes32)":"71e4206d","useVRF()":"06038341","userDailyRewards(address)":"2ff7a52d","userLastActivity(address)":"77ce2992","userRateLimitEnd(address)":"03fa2c63","vmfToken()":"2086eefa","vrfContract()":"6858a3f3","vrfRequests(uint256)":"1a1d9252","weeklyChallenges(uint256)":"4f55e8ad","weeklyPlayerCount(uint256)":"d61b86bb","weeklyPlayers(uint256,uint256)":"920736e5"}}}}}