{"contracts/PizzaPartyCore.sol":{"PizzaPartyCore":{"abi":[{"inputs":[{"internalType":"address","name":"_vmfToken","type":"address"}],"stateMutability":"nonpayable","type":"constructor"},{"inputs":[],"name":"EnforcedPause","type":"error"},{"inputs":[],"name":"ExpectedPause","type":"error"},{"inputs":[{"internalType":"address","name":"owner","type":"address"}],"name":"OwnableInvalidOwner","type":"error"},{"inputs":[{"internalType":"address","name":"account","type":"address"}],"name":"OwnableUnauthorizedAccount","type":"error"},{"inputs":[],"name":"ReentrancyGuardReentrantCall","type":"error"},{"anonymous":false,"inputs":[{"indexed":false,"internalType":"uint256","name":"gameId","type":"uint256"},{"indexed":false,"internalType":"address[]","name":"winners","type":"address[]"},{"indexed":false,"internalType":"uint256","name":"jackpot","type":"uint256"}],"name":"DailyWinnersSelected","type":"event"},{"anonymous":false,"inputs":[{"indexed":false,"internalType":"uint256","name":"dailyJackpot","type":"uint256"},{"indexed":false,"internalType":"uint256","name":"weeklyJackpot","type":"uint256"}],"name":"JackpotUpdated","type":"event"},{"anonymous":false,"inputs":[{"indexed":true,"internalType":"address","name":"previousOwner","type":"address"},{"indexed":true,"internalType":"address","name":"newOwner","type":"address"}],"name":"OwnershipTransferred","type":"event"},{"anonymous":false,"inputs":[{"indexed":false,"internalType":"address","name":"account","type":"address"}],"name":"Paused","type":"event"},{"anonymous":false,"inputs":[{"indexed":true,"internalType":"address","name":"player","type":"address"},{"indexed":false,"internalType":"bool","name":"blacklisted","type":"bool"}],"name":"PlayerBlacklisted","type":"event"},{"anonymous":false,"inputs":[{"indexed":true,"internalType":"address","name":"player","type":"address"},{"indexed":true,"internalType":"uint256","name":"gameId","type":"uint256"},{"indexed":false,"internalType":"uint256","name":"amount","type":"uint256"}],"name":"PlayerEntered","type":"event"},{"anonymous":false,"inputs":[{"indexed":true,"internalType":"address","name":"referrer","type":"address"},{"indexed":true,"internalType":"address","name":"referred","type":"address"}],"name":"ReferralRegistered","type":"event"},{"anonymous":false,"inputs":[{"indexed":true,"internalType":"address","name":"player","type":"address"},{"indexed":false,"internalType":"uint256","name":"amount","type":"uint256"},{"indexed":false,"internalType":"string","name":"reason","type":"string"}],"name":"ToppingsAwarded","type":"event"},{"anonymous":false,"inputs":[{"indexed":false,"internalType":"address","name":"account","type":"address"}],"name":"Unpaused","type":"event"},{"anonymous":false,"inputs":[{"indexed":false,"internalType":"uint256","name":"gameId","type":"uint256"},{"indexed":false,"internalType":"address[]","name":"winners","type":"address[]"},{"indexed":false,"internalType":"uint256","name":"jackpot","type":"uint256"}],"name":"WeeklyWinnersSelected","type":"event"},{"inputs":[],"name":"DAILY_PLAY_REWARD","outputs":[{"internalType":"uint256","name":"","type":"uint256"}],"stateMutability":"view","type":"function"},{"inputs":[],"name":"DAILY_WINNERS_COUNT","outputs":[{"internalType":"uint256","name":"","type":"uint256"}],"stateMutability":"view","type":"function"},{"inputs":[],"name":"ENTRY_COOLDOWN","outputs":[{"internalType":"uint256","name":"","type":"uint256"}],"stateMutability":"view","type":"function"},{"inputs":[],"name":"MAX_DAILY_ENTRIES","outputs":[{"internalType":"uint256","name":"","type":"uint256"}],"stateMutability":"view","type":"function"},{"inputs":[],"name":"MIN_VMF_REQUIRED","outputs":[{"internalType":"uint256","name":"","type":"uint256"}],"stateMutability":"view","type":"function"},{"inputs":[],"name":"REFERRAL_REWARD","outputs":[{"internalType":"uint256","name":"","type":"uint256"}],"stateMutability":"view","type":"function"},{"inputs":[],"name":"VMF_HOLDING_REWARD","outputs":[{"internalType":"uint256","name":"","type":"uint256"}],"stateMutability":"view","type":"function"},{"inputs":[],"name":"VMF_HOLDING_THRESHOLD","outputs":[{"internalType":"uint256","name":"","type":"uint256"}],"stateMutability":"view","type":"function"},{"inputs":[],"name":"VMF_PER_TOPPING","outputs":[{"internalType":"uint256","name":"","type":"uint256"}],"stateMutability":"view","type":"function"},{"inputs":[],"name":"WEEKLY_WINNERS_COUNT","outputs":[{"internalType":"uint256","name":"","type":"uint256"}],"stateMutability":"view","type":"function"},{"inputs":[{"internalType":"uint256","name":"amount","type":"uint256"}],"name":"addToDailyJackpot","outputs":[],"stateMutability":"nonpayable","type":"function"},{"inputs":[{"internalType":"address","name":"","type":"address"}],"name":"blacklistedAddresses","outputs":[{"internalType":"bool","name":"","type":"bool"}],"stateMutability":"view","type":"function"},{"inputs":[],"name":"currentDailyJackpot","outputs":[{"internalType":"uint256","name":"","type":"uint256"}],"stateMutability":"view","type":"function"},{"inputs":[{"internalType":"uint256","name":"","type":"uint256"}],"name":"dailyPlayerCount","outputs":[{"internalType":"uint256","name":"","type":"uint256"}],"stateMutability":"view","type":"function"},{"inputs":[{"internalType":"uint256","name":"","type":"uint256"},{"internalType":"uint256","name":"","type":"uint256"}],"name":"dailyPlayers","outputs":[{"internalType":"address","name":"","type":"address"}],"stateMutability":"view","type":"function"},{"inputs":[{"internalType":"bool","name":"pause","type":"bool"}],"name":"emergencyPause","outputs":[],"stateMutability":"nonpayable","type":"function"},{"inputs":[],"name":"emergencyWithdraw","outputs":[],"stateMutability":"nonpayable","type":"function"},{"inputs":[{"internalType":"address","name":"referrer","type":"address"}],"name":"enterDailyGame","outputs":[],"stateMutability":"nonpayable","type":"function"},{"inputs":[],"name":"getCurrentGameId","outputs":[{"internalType":"uint256","name":"gameId","type":"uint256"}],"stateMutability":"view","type":"function"},{"inputs":[],"name":"getDailyJackpot","outputs":[{"internalType":"uint256","name":"","type":"uint256"}],"stateMutability":"view","type":"function"},{"inputs":[{"internalType":"uint256","name":"gameId","type":"uint256"}],"name":"getEligibleDailyPlayers","outputs":[{"internalType":"address[]","name":"eligiblePlayers","type":"address[]"}],"stateMutability":"view","type":"function"},{"inputs":[{"internalType":"uint256","name":"gameId","type":"uint256"}],"name":"getEligibleWeeklyPlayers","outputs":[{"internalType":"address[]","name":"eligiblePlayers","type":"address[]"}],"stateMutability":"view","type":"function"},{"inputs":[],"name":"getMinimumVMFRequired","outputs":[{"internalType":"uint256","name":"","type":"uint256"}],"stateMutability":"view","type":"function"},{"inputs":[{"internalType":"address","name":"player","type":"address"}],"name":"getPlayerInfo","outputs":[{"components":[{"internalType":"uint256","name":"totalToppings","type":"uint256"},{"internalType":"uint256","name":"dailyEntries","type":"uint256"},{"internalType":"uint256","name":"weeklyEntries","type":"uint256"},{"internalType":"uint256","name":"lastEntryTime","type":"uint256"},{"internalType":"uint256","name":"vmfBalance","type":"uint256"},{"internalType":"uint256","name":"lastVmfBalanceCheck","type":"uint256"},{"internalType":"uint256","name":"referrals","type":"uint256"},{"internalType":"bool","name":"isBlacklisted","type":"bool"}],"internalType":"struct PizzaPartyCore.Player","name":"","type":"tuple"}],"stateMutability":"view","type":"function"},{"inputs":[{"internalType":"address","name":"player","type":"address"}],"name":"getPlayerReferralInfo","outputs":[{"internalType":"uint256","name":"referrals","type":"uint256"},{"internalType":"address","name":"referrer","type":"address"}],"stateMutability":"view","type":"function"},{"inputs":[{"internalType":"address","name":"player","type":"address"}],"name":"getPlayerToppings","outputs":[{"internalType":"uint256","name":"","type":"uint256"}],"stateMutability":"view","type":"function"},{"inputs":[{"internalType":"address","name":"player","type":"address"}],"name":"getPlayerVMFBalance","outputs":[{"internalType":"uint256","name":"","type":"uint256"}],"stateMutability":"view","type":"function"},{"inputs":[],"name":"getTotalToppingsClaimed","outputs":[{"internalType":"uint256","name":"","type":"uint256"}],"stateMutability":"view","type":"function"},{"inputs":[],"name":"getWeeklyJackpot","outputs":[{"internalType":"uint256","name":"","type":"uint256"}],"stateMutability":"view","type":"function"},{"inputs":[],"name":"getWeeklyToppingsPool","outputs":[{"internalType":"uint256","name":"","type":"uint256"}],"stateMutability":"view","type":"function"},{"inputs":[],"name":"isDailyDrawReady","outputs":[{"internalType":"bool","name":"ready","type":"bool"}],"stateMutability":"view","type":"function"},{"inputs":[],"name":"isWeeklyDrawReady","outputs":[{"internalType":"bool","name":"ready","type":"bool"}],"stateMutability":"view","type":"function"},{"inputs":[],"name":"lastDailyDraw","outputs":[{"internalType":"uint256","name":"","type":"uint256"}],"stateMutability":"view","type":"function"},{"inputs":[],"name":"lastWeeklyDraw","outputs":[{"internalType":"uint256","name":"","type":"uint256"}],"stateMutability":"view","type":"function"},{"inputs":[],"name":"owner","outputs":[{"internalType":"address","name":"","type":"address"}],"stateMutability":"view","type":"function"},{"inputs":[],"name":"paused","outputs":[{"internalType":"bool","name":"","type":"bool"}],"stateMutability":"view","type":"function"},{"inputs":[{"internalType":"address","name":"","type":"address"}],"name":"players","outputs":[{"internalType":"uint256","name":"totalToppings","type":"uint256"},{"internalType":"uint256","name":"dailyEntries","type":"uint256"},{"internalType":"uint256","name":"weeklyEntries","type":"uint256"},{"internalType":"uint256","name":"lastEntryTime","type":"uint256"},{"internalType":"uint256","name":"vmfBalance","type":"uint256"},{"internalType":"uint256","name":"lastVmfBalanceCheck","type":"uint256"},{"internalType":"uint256","name":"referrals","type":"uint256"},{"internalType":"bool","name":"isBlacklisted","type":"bool"}],"stateMutability":"view","type":"function"},{"inputs":[{"internalType":"uint256","name":"gameId","type":"uint256"},{"internalType":"address[]","name":"winners","type":"address[]"}],"name":"processDailyWinners","outputs":[],"stateMutability":"nonpayable","type":"function"},{"inputs":[{"internalType":"uint256","name":"gameId","type":"uint256"},{"internalType":"address[]","name":"winners","type":"address[]"}],"name":"processWeeklyWinners","outputs":[],"stateMutability":"nonpayable","type":"function"},{"inputs":[{"internalType":"address","name":"","type":"address"}],"name":"referralCount","outputs":[{"internalType":"uint256","name":"","type":"uint256"}],"stateMutability":"view","type":"function"},{"inputs":[{"internalType":"address","name":"","type":"address"}],"name":"referrers","outputs":[{"internalType":"address","name":"","type":"address"}],"stateMutability":"view","type":"function"},{"inputs":[],"name":"renounceOwnership","outputs":[],"stateMutability":"nonpayable","type":"function"},{"inputs":[{"internalType":"address","name":"player","type":"address"},{"internalType":"bool","name":"blacklisted","type":"bool"}],"name":"setPlayerBlacklist","outputs":[],"stateMutability":"nonpayable","type":"function"},{"inputs":[],"name":"totalToppingsClaimed","outputs":[{"internalType":"uint256","name":"","type":"uint256"}],"stateMutability":"view","type":"function"},{"inputs":[{"internalType":"address","name":"newOwner","type":"address"}],"name":"transferOwnership","outputs":[],"stateMutability":"nonpayable","type":"function"},{"inputs":[],"name":"vmfToken","outputs":[{"internalType":"contract IERC20","name":"","type":"address"}],"stateMutability":"view","type":"function"},{"inputs":[{"internalType":"uint256","name":"","type":"uint256"}],"name":"weeklyPlayerCount","outputs":[{"internalType":"uint256","name":"","type":"uint256"}],"stateMutability":"view","type":"function"},{"inputs":[{"internalType":"uint256","name":"","type":"uint256"},{"internalType":"uint256","name":"","type":"uint256"}],"name":"weeklyPlayers","outputs":[{"internalType":"address","name":"","type":"address"}],"stateMutability":"view","type":"function"},{"inputs":[],"name":"weeklyToppingsPool","outputs":[{"internalType":"uint256","name":"","type":"uint256"}],"stateMutability":"view","type":"function"}],"evm":{"bytecode":{"linkReferences":{},"object":"60a03461013d57601f611fd638819003918201601f19168301916001600160401b038311848410176101425780849260209460405283398101031261013d57516001600160a01b038082169182900361013d57600160005533156101245760018054336001600160a01b03198216811790925560405192167f8be0079c531659141344cd1fd0a4f28419497f9722a3daafe3b4186f6b6457e0600080a381156100e257506080526002805542600455604051611e7d9081610159823960805181818161055c015281816109d401528181610f94015281816111f801526112d50152f35b62461bcd60e51b815260206004820152601960248201527f496e76616c696420564d4620746f6b656e2061646472657373000000000000006044820152606490fd5b604051631e4fbdf760e01b815260006004820152602490fd5b600080fd5b634e487b7160e01b600052604160045260246000fdfe6040608081526004908136101561001557600080fd5b600091823560e01c80630d9f92ca146119d85780631303b3c814610d59578063137c221a1461031957806316fa1086146119bc5780631a266a72146112275780632086eefa146111e35780632dc1001f1461119a5780632efb53da1461116a57806343f2a080146110ca5780634a3b68cc1461108f5780634e3c97381461106c5780634eb692a51461103957806356768b5e14610ea35780635932840114610d9f5780635c975abb14610d785780636460332814610d59578063715018a614610d0e5780637550b84f14610cf15780637568e82614610cd557806379f329d914610cb1578063821c27ad14610c7957806384a3a0f314610c5d5780638a37da1f14610c3a5780638b0a234c146103385780638c5747af14610be95780638da5cb5b14610bc0578063920736e514610b745780639e9e4056146108c5578063a2635401146108a6578063a9b8b45114610889578063aab40f3114610428578063bacf46f31461080e578063bbc3ced714610809578063c14e1e05146107ea578063c65a8568146107a6578063ccb60e0114610727578063d5749d42146106e9578063d61b86bb146106c2578063db2e21bc14610523578063db74559b146104eb578063dd23b9cb146104cf578063e2eb41ff14610447578063e3d440a714610428578063e8f6940e1461035c578063eac9f12414610338578063f09a0ac414610319578063f2fde38b146102a2578063fc564514146102665763ffc395041461023c57600080fd5b346102625760203660031901126102625760209282913581526009845220549051908152f35b8280fd5b50503461029e57602036600319011261029e5760209181906001600160a01b0361028e6119f9565b168152600c845220549051908152f35b5080fd5b5034610262576020366003190112610262576102bc6119f9565b906102c5611dbb565b6001600160a01b03918216928315610303575050600180546001600160a01b03198116841790915516600080516020611e088339815191528380a380f35b51631e4fbdf760e01b8152908101849052602490fd5b50503461029e578160031936011261029e576020906007549051908152f35b50503461029e578160031936011261029e576020905168056bc75e2d631000008152f35b5034610262576020366003190112610262578035801515810361042457610381611dbb565b156103ce575060207f62e78cea01bee320cd4e420270b5ea74000d11b0c9f74754ebdbfc544b05a258916103b3611d9a565b6001805460ff60a01b1916600160a01b17905551338152a180f35b6001549060ff8260a01c1615610416575060ff60a01b1916600155513381527f5db9ee0a495bf2e6ff9c91a7834c1ba4fdd244a5e8aa4e537bd38aeae4b073aa90602090a180f35b8251638dfc202b60e01b8152fd5b8380fd5b50503461029e578160031936011261029e576020906003549051908152f35b5034610262576020366003190112610262576101009282906001600160a01b0361046f6119f9565b168152600c602052208054926001820154926002830154906003840154908401549160058501549360ff600760068801549701541696815198895260208901528701526060860152608085015260a084015260c0830152151560e0820152f35b50503461029e578160031936011261029e576020905160018152f35b50503461029e57602036600319011261029e5760209181906001600160a01b036105136119f9565b168152600f845220549051908152f35b50903461026257826003193601126102625761053d611dbb565b80516370a0823160e01b81523083820152602091906001600160a01b037f00000000000000000000000000000000000000000000000000000000000000008116908483602481855afa9283156106b8578793610685575b508215610649579184916105c1936001541688865180968195829463a9059cbb60e01b84528c8401611ca4565b03925af190811561063f578591610612575b50156105dd578380f35b5162461bcd60e51b815291820152601160248201527015da5d1a191c985dd85b0819985a5b1959607a1b604482015260649150fd5b6106329150833d8511610638575b61062a8183611b9c565b810190611c8c565b386105d3565b503d610620565b82513d87823e3d90fd5b835162461bcd60e51b815280870186905260166024820152754e6f2062616c616e636520746f20776974686472617760501b6044820152606490fd5b9092508481813d83116106b1575b61069d8183611b9c565b810103126106ad57519138610594565b8680fd5b503d610693565b84513d89823e3d90fd5b5034610262576020366003190112610262576020928291358152600b845220549051908152f35b50503461029e57602036600319011261029e5760209160ff9082906001600160a01b036107146119f9565b168152600d855220541690519015158152f35b5082903461029e576020906020600319360112610262573591828152600b602052838120549161075683611d54565b93825b8481106107715786518061076d8882611aa3565b0390f35b600190828552600a845261078781898720611a25565b838060a01b0391549060031b1c1661079f8289611d86565b5201610759565b5091903461029e578160031936011261029e576005549162093a8083018093116107d7576020838351904210158152f35b634e487b7160e01b815260118452602490fd5b50503461029e578160031936011261029e576020906005549051908152f35b6119d8565b5082903461029e5760209060206003193601126102625735918281526009602052838120549161083d83611d54565b93825b8481106108545786518061076d8882611aa3565b6001908285526008845261086a81898720611a25565b838060a01b0391549060031b1c166108828289611d86565b5201610840565b50503461029e578160031936011261029e5760209051610e108152f35b50503461029e578160031936011261029e576020906002549051908152f35b5082903461029e576108d636611a53565b9460018060a09493941b036001906108f381600154163314611bbf565b6108fe881515611c06565b61090a88600354611c48565b90875b89811061097c575050505061094e907fdd1c72fcda97fcfc2fe124c4aa194986caca752d3769c00a6495659509d7b19b949596600354915194859485611cbf565b0390a160025460001981146109695760010160025542905580f35b634e487b7160e01b835260118252602483fd5b808261099261098d87948e8c611c68565b611c78565b1661099e575b0161090d565b90506109ae61098d828c8a611c68565b855163a9059cbb60e01b815289818c81806109cf8a60209889978401611ca4565b0391887f0000000000000000000000000000000000000000000000000000000000000000165af1908115610b6a578b91610b4d575b5015610b1957610a1861098d838d8b611c68565b9083875192610a2684611b81565b60128452714461696c792077696e6e657220626f6e757360701b838501521691828c52600c91828152888d2054600a93848201809211610b05578e8b91878252845220556006805490848201809211610b0557556007805490848201809211610b0557918996959493918f93558a519384528a81850152815191828c860152835b838110610adf575050509082600080516020611e288339815191529392606092838284010152601f80199101168101030190a2610998565b909294959697508180945081840101516060828801015201918996959493918f93610aa7565b50634e487b7160e01b8e5260118d5260248efd5b8860649187519162461bcd60e51b8352820152600f60248201526e151c985b9cd9995c8819985a5b1959608a1b6044820152fd5b610b649150823d84116106385761062a8183611b9c565b8c610a04565b87513d8d823e3d90fd5b50503461029e57610b8436611a0f565b92908152600a602052818120908154841015610bbd5750602092610ba791611a25565b905491519160018060a01b039160031b1c168152f35b80fd5b50503461029e578160031936011261029e5760015490516001600160a01b039091168152602090f35b50903461026257602036600319011261026257610c20600080516020611de883398151915292610c17611dbb565b35600354611b2c565b80600355610c2c611d1d565b82519182526020820152a180f35b50503461029e578160031936011261029e5760209051670de0b6b3a76400008152f35b50503461029e578160031936011261029e576020905160028152f35b50346102625760203660031901126102625760209282906001600160a01b03610ca06119f9565b168152600c85522001549051908152f35b50503461029e578160031936011261029e57602090610cce611d1d565b9051908152f35b50503461029e578160031936011261029e576020905160038152f35b503461026257826003193601126102625760209250549051908152f35b8334610bbd5780600319360112610bbd57610d27611dbb565b600180546001600160a01b0319811690915581906001600160a01b0316600080516020611e088339815191528280a380f35b50503461029e578160031936011261029e576020906006549051908152f35b50503461029e578160031936011261029e5760209060ff60015460a01c1690519015158152f35b5034610262576020366003190112610262578161010093610dbe6119f9565b8160e08451610dcc81611b4f565b82815282602082015282868201528260608201528260808201528260a08201528260c0820152015260018060a01b03168152600c60205220825191610e1083611b4f565b8154938484526001830154916020850192835260028401549180860192835260038501549160608701928352850154926080870193845260058601549460a0880195865260e060ff600760068a01549960c08c019a8b5201541698019715158852825198895251602089015251908701525160608601525160808501525160a08401525160c083015251151560e0820152f35b5091903461029e57610eb436611a53565b94909260018060a01b03600190610ed081600154163314611bbf565b610edb881515611c06565b610ee3611d1d565b93610eee8986611c48565b885b8a8110610f3a5750887f266eab4e9078d52ec3f1266d5b3619a11040584ef2997fdea8afa3c03fa559778989610f2c8a8f8b5194859485611cbf565b0390a1806007554260055580f35b80828c86610f4e61098d8a968f8590611c68565b16610f5c575b505001610ef0565b82610f6e9293945061098d918d611c68565b87519063a9059cbb60e01b8252818d8180610f8f60209788968c8401611ca4565b03918a7f0000000000000000000000000000000000000000000000000000000000000000165af190811561102f578c91611012575b5015610fd457508490828c610f54565b8360649188519162461bcd60e51b83528201526019602482015278159351881c1c9a5e99481d1c985b9cd9995c8819985a5b1959603a1b6044820152fd5b6110299150823d84116106385761062a8183611b9c565b38610fc4565b88513d8e823e3d90fd5b50503461029e5761104936611a0f565b929081526008602052818120908154841015610bbd5750602092610ba791611a25565b50503461029e578160031936011261029e5760209051678ac7230489e800008152f35b50503461029e57602036600319011261029e576020916001600160a01b03908290826110b96119f9565b168152600e85522054169051908152f35b50503461029e578060031936011261029e576110e46119f9565b9060243591821515808403611166577f7c6a5677e7a854a53d06c412e00ebe65535f5343566ca7939ac7c7f6b0b00c169261115e602093611123611dbb565b6001600160a01b0316808852600d8552828820805497151560ff1660ff199889168117909155600c8652838920600701805490981617909655565b51908152a280f35b8480fd5b5091903461029e578160031936011261029e578254916201518083018093116107d7576020838351904210158152f35b828434610bbd576020366003190112610bbd576001600160a01b03806111be6119f9565b168252600c602052826006818420015492600e60205220541682519182526020820152f35b50503461029e578160031936011261029e57517f00000000000000000000000000000000000000000000000000000000000000006001600160a01b03168152602090f35b508234610bbd576020928360031936011261029e576112446119f9565b936002808454146119ac5780845561125a611d9a565b338452600d825261127160ff848620541615611ae8565b338452600c9081835260079561128f60ff8887892001541615611ae8565b338652828452600392838688200154610e1081018091116119995742106119605785516370a0823160e01b8152338382015260249890916001600160a01b039187848c817f000000000000000000000000000000000000000000000000000000000000000087165afa938415611956578a94611923575b5068056bc75e2d6310000084106118e65788999a9b338c52828952600a8c60019c8d9120015410156118a85783168015158061189e575b8061188a575b6116b5575b50338b5281885289898c2001548b8b82018092116116a35785918b8892338152868d5220908d820155428a820155015588519361138485611b81565b6011948581527011185a5b1e481c1b185e481c995dd85c99607a1b8a820152338d52838a528a8d20548d8d8201809211611692578c90338152868d5220556006548c8101809111611681576006558c83548d810180911161164057928d9285948e96558551938452858d850152805180968501528c835b878110611663575050508160608685010152600080516020611e288339815191529485601f199460608187601f339601168101030190a2338252858c5260058d8320015462015180810180911161165157421015611532575b505087548d525050600888525050868920805490600160401b8210156115205790611483918a82018155611a25565b8192915490871b9133831b921b191617905582549081895260098652868920549288840180941161151157505087600080516020611de8833981519152979899505260098452848820555483518781527f480a6daea81f2af589e1959da1f1719512392ec551e8966266ee820f1c1f72ea843392a35490611502611d1d565b908351928352820152a1815580f35b634e487b7160e01b8a52528888fd5b634e487b7160e01b8b52604185528b8bfd5b678ac7230489e800009004928a8402938085048c1490151715611640578392918c918e969561157b575b50505050505050338a528652426005888b2001558a8080808c81611454565b86949294519061158a82611b81565b6012825271159351881a1bdb191a5b99c81c995dd85c9960721b868301523383528886526115bb8489852054611b2c565b338452898752888420556115d184600654611b2c565b6006556115df848254611b2c565b90558680519586948552840152805180978401528d825b8881106116225750505091606092838784010152601f339601168101030190a2878c80808a8e8261155c565b828193955082945001015160608287010152018f90918d85936115f6565b634e487b7160e01b82528789528f82fd5b50634e487b7160e01b82528789528f82fd5b90829394508181930101516060828701015201908f92918d906113fb565b634e487b7160e01b8e528688528e8efd5b634e487b7160e01b81528789528f90fd5b634e487b7160e01b8152601187528d90fd5b808c528289528a8a8d2001541561185557338c52600e8952898c2080546001600160a01b03191682179055808c52600f8952898c20548b810190811061184357818d52600f8a528a8d205582895260068a8d2001548c8c8201809211611831578b818460069352868d522001558b8a5161172e81611b81565b600f81526e149959995c9c985b081c995dd85c99608a1b8b820152828252848b528b82205489810180911161181f57838352858c528c83205560065489810180911161181f57600655835489810180911161181f5783928c928e928755828051948d8652850152805180938501528d825b8481106117fd575050508282606092838395600080516020611e2883398151915297010152601f80199101168101030190a233907f5f1ca2fcc108b751843a763e60d2201f593516109d7dbb1b700468f2d4190bb78d80a38c611348565b8281939596975082945001015160608287010152018f90918d8695949361179f565b634e487b7160e01b8352601189528f83fd5b634e487b7160e01b8152601188528e90fd5b634e487b7160e01b8d52601187528d8dfd5b895162461bcd60e51b81528087018a90526010818f01526f24b73b30b634b2103932b332b93932b960811b6044820152606490fd5b50338c52600e8952838a8d20541615611343565b503381141561133d565b895162461bcd60e51b81528087018a90526019818f01527813585e0819185a5b1e48195b9d1c9a595cc81c995858da1959603a1b6044820152606490fd5b885162461bcd60e51b81528086018990526018818d015277496e73756666696369656e7420564d462062616c616e636560401b6044820152606490fd5b9093508781813d831161194f575b61193b8183611b9c565b8101031261194b5751928c611306565b8980fd5b503d611931565b89513d8c823e3d90fd5b855162461bcd60e51b8152808301869052601360248201527214985d19481b1a5b5a5d08195e18d959591959606a1b6044820152606490fd5b634e487b7160e01b885260118352602488fd5b8251633ee5aeb560e01b81528590fd5b50503461029e578160031936011261029e576020905160088152f35b346119f45760003660031901126119f4576020604051600a8152f35b600080fd5b600435906001600160a01b03821682036119f457565b60409060031901126119f4576004359060243590565b8054821015611a3d5760005260206000200190600090565b634e487b7160e01b600052603260045260246000fd5b60406003198201126119f457600435916001600160401b0391602435908382116119f457806023830112156119f45781600401359384116119f45760248460051b830101116119f4576024019190565b602090602060408183019282815285518094520193019160005b828110611acb575050505090565b83516001600160a01b031685529381019392810192600101611abd565b15611aef57565b60405162461bcd60e51b8152602060048201526015602482015274141b185e595c881a5cc8189b1858dadb1a5cdd1959605a1b6044820152606490fd5b91908201809211611b3957565b634e487b7160e01b600052601160045260246000fd5b61010081019081106001600160401b03821117611b6b57604052565b634e487b7160e01b600052604160045260246000fd5b604081019081106001600160401b03821117611b6b57604052565b601f909101601f19168101906001600160401b03821190821017611b6b57604052565b15611bc657565b60405162461bcd60e51b81526020600482015260186024820152774f6e6c79206f776e65722063616e2063616c6c207468697360401b6044820152606490fd5b15611c0d57565b60405162461bcd60e51b8152602060048201526013602482015272139bc81dda5b9b995c9cc81c1c9bdd9a591959606a1b6044820152606490fd5b8115611c52570490565b634e487b7160e01b600052601260045260246000fd5b9190811015611a3d5760051b0190565b356001600160a01b03811681036119f45790565b908160209103126119f4575180151581036119f45790565b6001600160a01b039091168152602081019190915260400190565b908152606060208083018290529082018490529094939260808601916000805b838210611cf3575050505060409150930152565b90919293853560018060a01b03811680910361026257815294830194830193929160010190611cdf565b600754670de0b6b3a764000090818102918183041490151715611b395790565b6001600160401b038111611b6b5760051b60200190565b90611d5e82611d3d565b611d6b6040519182611b9c565b8281528092611d7c601f1991611d3d565b0190602036910137565b8051821015611a3d5760209160051b010190565b60ff60015460a01c16611da957565b60405163d93c066560e01b8152600490fd5b6001546001600160a01b03163303611dcf57565b60405163118cdaa760e01b8152336004820152602490fdfe404449b42e86f8716dd5ac141731fb164fe1f76d7e4039fdd16c7b3b48f96a4e8be0079c531659141344cd1fd0a4f28419497f9722a3daafe3b4186f6b6457e0195188e7e2a9c946c91317946030490c3ba48a5b7f867101928826fa4cc609c5a2646970667358221220443ae3fdf2f9a461625bad0bdf80726292a395d8362c16f28142b25e5483afbf64736f6c63430008180033","opcodes":"PUSH1 0xA0 CALLVALUE PUSH2 0x13D JUMPI PUSH1 0x1F PUSH2 0x1FD6 CODESIZE DUP2 SWAP1 SUB SWAP2 DUP3 ADD PUSH1 0x1F NOT AND DUP4 ADD SWAP2 PUSH1 0x1 PUSH1 0x1 PUSH1 0x40 SHL SUB DUP4 GT DUP5 DUP5 LT OR PUSH2 0x142 JUMPI DUP1 DUP5 SWAP3 PUSH1 0x20 SWAP5 PUSH1 0x40 MSTORE DUP4 CODECOPY DUP2 ADD SUB SLT PUSH2 0x13D JUMPI MLOAD PUSH1 0x1 PUSH1 0x1 PUSH1 0xA0 SHL SUB DUP1 DUP3 AND SWAP2 DUP3 SWAP1 SUB PUSH2 0x13D JUMPI PUSH1 0x1 PUSH1 0x0 SSTORE CALLER ISZERO PUSH2 0x124 JUMPI PUSH1 0x1 DUP1 SLOAD CALLER PUSH1 0x1 PUSH1 0x1 PUSH1 0xA0 SHL SUB NOT DUP3 AND DUP2 OR SWAP1 SWAP3 SSTORE PUSH1 0x40 MLOAD SWAP3 AND PUSH32 0x8BE0079C531659141344CD1FD0A4F28419497F9722A3DAAFE3B4186F6B6457E0 PUSH1 0x0 DUP1 LOG3 DUP2 ISZERO PUSH2 0xE2 JUMPI POP PUSH1 0x80 MSTORE PUSH1 0x2 DUP1 SSTORE TIMESTAMP PUSH1 0x4 SSTORE PUSH1 0x40 MLOAD PUSH2 0x1E7D SWAP1 DUP2 PUSH2 0x159 DUP3 CODECOPY PUSH1 0x80 MLOAD DUP2 DUP2 DUP2 PUSH2 0x55C ADD MSTORE DUP2 DUP2 PUSH2 0x9D4 ADD MSTORE DUP2 DUP2 PUSH2 0xF94 ADD MSTORE DUP2 DUP2 PUSH2 0x11F8 ADD MSTORE PUSH2 0x12D5 ADD MSTORE RETURN JUMPDEST PUSH3 0x461BCD PUSH1 0xE5 SHL DUP2 MSTORE PUSH1 0x20 PUSH1 0x4 DUP3 ADD MSTORE PUSH1 0x19 PUSH1 0x24 DUP3 ADD MSTORE PUSH32 0x496E76616C696420564D4620746F6B656E206164647265737300000000000000 PUSH1 0x44 DUP3 ADD MSTORE PUSH1 0x64 SWAP1 REVERT JUMPDEST PUSH1 0x40 MLOAD PUSH4 0x1E4FBDF7 PUSH1 0xE0 SHL DUP2 MSTORE PUSH1 0x0 PUSH1 0x4 DUP3 ADD MSTORE PUSH1 0x24 SWAP1 REVERT JUMPDEST PUSH1 0x0 DUP1 REVERT JUMPDEST PUSH4 0x4E487B71 PUSH1 0xE0 SHL PUSH1 0x0 MSTORE PUSH1 0x41 PUSH1 0x4 MSTORE PUSH1 0x24 PUSH1 0x0 REVERT INVALID PUSH1 0x40 PUSH1 0x80 DUP2 MSTORE PUSH1 0x4 SWAP1 DUP2 CALLDATASIZE LT ISZERO PUSH2 0x15 JUMPI PUSH1 0x0 DUP1 REVERT JUMPDEST PUSH1 0x0 SWAP2 DUP3 CALLDATALOAD PUSH1 0xE0 SHR DUP1 PUSH4 0xD9F92CA EQ PUSH2 0x19D8 JUMPI DUP1 PUSH4 0x1303B3C8 EQ PUSH2 0xD59 JUMPI DUP1 PUSH4 0x137C221A EQ PUSH2 0x319 JUMPI DUP1 PUSH4 0x16FA1086 EQ PUSH2 0x19BC JUMPI DUP1 PUSH4 0x1A266A72 EQ PUSH2 0x1227 JUMPI DUP1 PUSH4 0x2086EEFA EQ PUSH2 0x11E3 JUMPI DUP1 PUSH4 0x2DC1001F EQ PUSH2 0x119A JUMPI DUP1 PUSH4 0x2EFB53DA EQ PUSH2 0x116A JUMPI DUP1 PUSH4 0x43F2A080 EQ PUSH2 0x10CA JUMPI DUP1 PUSH4 0x4A3B68CC EQ PUSH2 0x108F JUMPI DUP1 PUSH4 0x4E3C9738 EQ PUSH2 0x106C JUMPI DUP1 PUSH4 0x4EB692A5 EQ PUSH2 0x1039 JUMPI DUP1 PUSH4 0x56768B5E EQ PUSH2 0xEA3 JUMPI DUP1 PUSH4 0x59328401 EQ PUSH2 0xD9F JUMPI DUP1 PUSH4 0x5C975ABB EQ PUSH2 0xD78 JUMPI DUP1 PUSH4 0x64603328 EQ PUSH2 0xD59 JUMPI DUP1 PUSH4 0x715018A6 EQ PUSH2 0xD0E JUMPI DUP1 PUSH4 0x7550B84F EQ PUSH2 0xCF1 JUMPI DUP1 PUSH4 0x7568E826 EQ PUSH2 0xCD5 JUMPI DUP1 PUSH4 0x79F329D9 EQ PUSH2 0xCB1 JUMPI DUP1 PUSH4 0x821C27AD EQ PUSH2 0xC79 JUMPI DUP1 PUSH4 0x84A3A0F3 EQ PUSH2 0xC5D JUMPI DUP1 PUSH4 0x8A37DA1F EQ PUSH2 0xC3A JUMPI DUP1 PUSH4 0x8B0A234C EQ PUSH2 0x338 JUMPI DUP1 PUSH4 0x8C5747AF EQ PUSH2 0xBE9 JUMPI DUP1 PUSH4 0x8DA5CB5B EQ PUSH2 0xBC0 JUMPI DUP1 PUSH4 0x920736E5 EQ PUSH2 0xB74 JUMPI DUP1 PUSH4 0x9E9E4056 EQ PUSH2 0x8C5 JUMPI DUP1 PUSH4 0xA2635401 EQ PUSH2 0x8A6 JUMPI DUP1 PUSH4 0xA9B8B451 EQ PUSH2 0x889 JUMPI DUP1 PUSH4 0xAAB40F31 EQ PUSH2 0x428 JUMPI DUP1 PUSH4 0xBACF46F3 EQ PUSH2 0x80E JUMPI DUP1 PUSH4 0xBBC3CED7 EQ PUSH2 0x809 JUMPI DUP1 PUSH4 0xC14E1E05 EQ PUSH2 0x7EA JUMPI DUP1 PUSH4 0xC65A8568 EQ PUSH2 0x7A6 JUMPI DUP1 PUSH4 0xCCB60E01 EQ PUSH2 0x727 JUMPI DUP1 PUSH4 0xD5749D42 EQ PUSH2 0x6E9 JUMPI DUP1 PUSH4 0xD61B86BB EQ PUSH2 0x6C2 JUMPI DUP1 PUSH4 0xDB2E21BC EQ PUSH2 0x523 JUMPI DUP1 PUSH4 0xDB74559B EQ PUSH2 0x4EB JUMPI DUP1 PUSH4 0xDD23B9CB EQ PUSH2 0x4CF JUMPI DUP1 PUSH4 0xE2EB41FF EQ PUSH2 0x447 JUMPI DUP1 PUSH4 0xE3D440A7 EQ PUSH2 0x428 JUMPI DUP1 PUSH4 0xE8F6940E EQ PUSH2 0x35C JUMPI DUP1 PUSH4 0xEAC9F124 EQ PUSH2 0x338 JUMPI DUP1 PUSH4 0xF09A0AC4 EQ PUSH2 0x319 JUMPI DUP1 PUSH4 0xF2FDE38B EQ PUSH2 0x2A2 JUMPI DUP1 PUSH4 0xFC564514 EQ PUSH2 0x266 JUMPI PUSH4 0xFFC39504 EQ PUSH2 0x23C JUMPI PUSH1 0x0 DUP1 REVERT JUMPDEST CALLVALUE PUSH2 0x262 JUMPI PUSH1 0x20 CALLDATASIZE PUSH1 0x3 NOT ADD SLT PUSH2 0x262 JUMPI PUSH1 0x20 SWAP3 DUP3 SWAP2 CALLDATALOAD DUP2 MSTORE PUSH1 0x9 DUP5 MSTORE KECCAK256 SLOAD SWAP1 MLOAD SWAP1 DUP2 MSTORE RETURN JUMPDEST DUP3 DUP1 REVERT JUMPDEST POP POP CALLVALUE PUSH2 0x29E JUMPI PUSH1 0x20 CALLDATASIZE PUSH1 0x3 NOT ADD SLT PUSH2 0x29E JUMPI PUSH1 0x20 SWAP2 DUP2 SWAP1 PUSH1 0x1 PUSH1 0x1 PUSH1 0xA0 SHL SUB PUSH2 0x28E PUSH2 0x19F9 JUMP JUMPDEST AND DUP2 MSTORE PUSH1 0xC DUP5 MSTORE KECCAK256 SLOAD SWAP1 MLOAD SWAP1 DUP2 MSTORE RETURN JUMPDEST POP DUP1 REVERT JUMPDEST POP CALLVALUE PUSH2 0x262 JUMPI PUSH1 0x20 CALLDATASIZE PUSH1 0x3 NOT ADD SLT PUSH2 0x262 JUMPI PUSH2 0x2BC PUSH2 0x19F9 JUMP JUMPDEST SWAP1 PUSH2 0x2C5 PUSH2 0x1DBB JUMP JUMPDEST PUSH1 0x1 PUSH1 0x1 PUSH1 0xA0 SHL SUB SWAP2 DUP3 AND SWAP3 DUP4 ISZERO PUSH2 0x303 JUMPI POP POP PUSH1 0x1 DUP1 SLOAD PUSH1 0x1 PUSH1 0x1 PUSH1 0xA0 SHL SUB NOT DUP2 AND DUP5 OR SWAP1 SWAP2 SSTORE AND PUSH1 0x0 DUP1 MLOAD PUSH1 0x20 PUSH2 0x1E08 DUP4 CODECOPY DUP2 MLOAD SWAP2 MSTORE DUP4 DUP1 LOG3 DUP1 RETURN JUMPDEST MLOAD PUSH4 0x1E4FBDF7 PUSH1 0xE0 SHL DUP2 MSTORE SWAP1 DUP2 ADD DUP5 SWAP1 MSTORE PUSH1 0x24 SWAP1 REVERT JUMPDEST POP POP CALLVALUE PUSH2 0x29E JUMPI DUP2 PUSH1 0x3 NOT CALLDATASIZE ADD SLT PUSH2 0x29E JUMPI PUSH1 0x20 SWAP1 PUSH1 0x7 SLOAD SWAP1 MLOAD SWAP1 DUP2 MSTORE RETURN JUMPDEST POP POP CALLVALUE PUSH2 0x29E JUMPI DUP2 PUSH1 0x3 NOT CALLDATASIZE ADD SLT PUSH2 0x29E JUMPI PUSH1 0x20 SWAP1 MLOAD PUSH9 0x56BC75E2D63100000 DUP2 MSTORE RETURN JUMPDEST POP CALLVALUE PUSH2 0x262 JUMPI PUSH1 0x20 CALLDATASIZE PUSH1 0x3 NOT ADD SLT PUSH2 0x262 JUMPI DUP1 CALLDATALOAD DUP1 ISZERO ISZERO DUP2 SUB PUSH2 0x424 JUMPI PUSH2 0x381 PUSH2 0x1DBB JUMP JUMPDEST ISZERO PUSH2 0x3CE JUMPI POP PUSH1 0x20 PUSH32 0x62E78CEA01BEE320CD4E420270B5EA74000D11B0C9F74754EBDBFC544B05A258 SWAP2 PUSH2 0x3B3 PUSH2 0x1D9A JUMP JUMPDEST PUSH1 0x1 DUP1 SLOAD PUSH1 0xFF PUSH1 0xA0 SHL NOT AND PUSH1 0x1 PUSH1 0xA0 SHL OR SWAP1 SSTORE MLOAD CALLER DUP2 MSTORE LOG1 DUP1 RETURN JUMPDEST PUSH1 0x1 SLOAD SWAP1 PUSH1 0xFF DUP3 PUSH1 0xA0 SHR AND ISZERO PUSH2 0x416 JUMPI POP PUSH1 0xFF PUSH1 0xA0 SHL NOT AND PUSH1 0x1 SSTORE MLOAD CALLER DUP2 MSTORE PUSH32 0x5DB9EE0A495BF2E6FF9C91A7834C1BA4FDD244A5E8AA4E537BD38AEAE4B073AA SWAP1 PUSH1 0x20 SWAP1 LOG1 DUP1 RETURN JUMPDEST DUP3 MLOAD PUSH4 0x8DFC202B PUSH1 0xE0 SHL DUP2 MSTORE REVERT JUMPDEST DUP4 DUP1 REVERT JUMPDEST POP POP CALLVALUE PUSH2 0x29E JUMPI DUP2 PUSH1 0x3 NOT CALLDATASIZE ADD SLT PUSH2 0x29E JUMPI PUSH1 0x20 SWAP1 PUSH1 0x3 SLOAD SWAP1 MLOAD SWAP1 DUP2 MSTORE RETURN JUMPDEST POP CALLVALUE PUSH2 0x262 JUMPI PUSH1 0x20 CALLDATASIZE PUSH1 0x3 NOT ADD SLT PUSH2 0x262 JUMPI PUSH2 0x100 SWAP3 DUP3 SWAP1 PUSH1 0x1 PUSH1 0x1 PUSH1 0xA0 SHL SUB PUSH2 0x46F PUSH2 0x19F9 JUMP JUMPDEST AND DUP2 MSTORE PUSH1 0xC PUSH1 0x20 MSTORE KECCAK256 DUP1 SLOAD SWAP3 PUSH1 0x1 DUP3 ADD SLOAD SWAP3 PUSH1 0x2 DUP4 ADD SLOAD SWAP1 PUSH1 0x3 DUP5 ADD SLOAD SWAP1 DUP5 ADD SLOAD SWAP2 PUSH1 0x5 DUP6 ADD SLOAD SWAP4 PUSH1 0xFF PUSH1 0x7 PUSH1 0x6 DUP9 ADD SLOAD SWAP8 ADD SLOAD AND SWAP7 DUP2 MLOAD SWAP9 DUP10 MSTORE PUSH1 0x20 DUP10 ADD MSTORE DUP8 ADD MSTORE PUSH1 0x60 DUP7 ADD MSTORE PUSH1 0x80 DUP6 ADD MSTORE PUSH1 0xA0 DUP5 ADD MSTORE PUSH1 0xC0 DUP4 ADD MSTORE ISZERO ISZERO PUSH1 0xE0 DUP3 ADD MSTORE RETURN JUMPDEST POP POP CALLVALUE PUSH2 0x29E JUMPI DUP2 PUSH1 0x3 NOT CALLDATASIZE ADD SLT PUSH2 0x29E JUMPI PUSH1 0x20 SWAP1 MLOAD PUSH1 0x1 DUP2 MSTORE RETURN JUMPDEST POP POP CALLVALUE PUSH2 0x29E JUMPI PUSH1 0x20 CALLDATASIZE PUSH1 0x3 NOT ADD SLT PUSH2 0x29E JUMPI PUSH1 0x20 SWAP2 DUP2 SWAP1 PUSH1 0x1 PUSH1 0x1 PUSH1 0xA0 SHL SUB PUSH2 0x513 PUSH2 0x19F9 JUMP JUMPDEST AND DUP2 MSTORE PUSH1 0xF DUP5 MSTORE KECCAK256 SLOAD SWAP1 MLOAD SWAP1 DUP2 MSTORE RETURN JUMPDEST POP SWAP1 CALLVALUE PUSH2 0x262 JUMPI DUP3 PUSH1 0x3 NOT CALLDATASIZE ADD SLT PUSH2 0x262 JUMPI PUSH2 0x53D PUSH2 0x1DBB JUMP JUMPDEST DUP1 MLOAD PUSH4 0x70A08231 PUSH1 0xE0 SHL DUP2 MSTORE ADDRESS DUP4 DUP3 ADD MSTORE PUSH1 0x20 SWAP2 SWAP1 PUSH1 0x1 PUSH1 0x1 PUSH1 0xA0 SHL SUB PUSH32 0x0 DUP2 AND SWAP1 DUP5 DUP4 PUSH1 0x24 DUP2 DUP6 GAS STATICCALL SWAP3 DUP4 ISZERO PUSH2 0x6B8 JUMPI DUP8 SWAP4 PUSH2 0x685 JUMPI JUMPDEST POP DUP3 ISZERO PUSH2 0x649 JUMPI SWAP2 DUP5 SWAP2 PUSH2 0x5C1 SWAP4 PUSH1 0x1 SLOAD AND DUP9 DUP7 MLOAD DUP1 SWAP7 DUP2 SWAP6 DUP3 SWAP5 PUSH4 0xA9059CBB PUSH1 0xE0 SHL DUP5 MSTORE DUP13 DUP5 ADD PUSH2 0x1CA4 JUMP JUMPDEST SUB SWAP3 GAS CALL SWAP1 DUP2 ISZERO PUSH2 0x63F JUMPI DUP6 SWAP2 PUSH2 0x612 JUMPI JUMPDEST POP ISZERO PUSH2 0x5DD JUMPI DUP4 DUP1 RETURN JUMPDEST MLOAD PUSH3 0x461BCD PUSH1 0xE5 SHL DUP2 MSTORE SWAP2 DUP3 ADD MSTORE PUSH1 0x11 PUSH1 0x24 DUP3 ADD MSTORE PUSH17 0x15DA5D1A191C985DD85B0819985A5B1959 PUSH1 0x7A SHL PUSH1 0x44 DUP3 ADD MSTORE PUSH1 0x64 SWAP2 POP REVERT JUMPDEST PUSH2 0x632 SWAP2 POP DUP4 RETURNDATASIZE DUP6 GT PUSH2 0x638 JUMPI JUMPDEST PUSH2 0x62A DUP2 DUP4 PUSH2 0x1B9C JUMP JUMPDEST DUP2 ADD SWAP1 PUSH2 0x1C8C JUMP JUMPDEST CODESIZE PUSH2 0x5D3 JUMP JUMPDEST POP RETURNDATASIZE PUSH2 0x620 JUMP JUMPDEST DUP3 MLOAD RETURNDATASIZE DUP8 DUP3 RETURNDATACOPY RETURNDATASIZE SWAP1 REVERT JUMPDEST DUP4 MLOAD PUSH3 0x461BCD PUSH1 0xE5 SHL DUP2 MSTORE DUP1 DUP8 ADD DUP7 SWAP1 MSTORE PUSH1 0x16 PUSH1 0x24 DUP3 ADD MSTORE PUSH22 0x4E6F2062616C616E636520746F207769746864726177 PUSH1 0x50 SHL PUSH1 0x44 DUP3 ADD MSTORE PUSH1 0x64 SWAP1 REVERT JUMPDEST SWAP1 SWAP3 POP DUP5 DUP2 DUP2 RETURNDATASIZE DUP4 GT PUSH2 0x6B1 JUMPI JUMPDEST PUSH2 0x69D DUP2 DUP4 PUSH2 0x1B9C JUMP JUMPDEST DUP2 ADD SUB SLT PUSH2 0x6AD JUMPI MLOAD SWAP2 CODESIZE PUSH2 0x594 JUMP JUMPDEST DUP7 DUP1 REVERT JUMPDEST POP RETURNDATASIZE PUSH2 0x693 JUMP JUMPDEST DUP5 MLOAD RETURNDATASIZE DUP10 DUP3 RETURNDATACOPY RETURNDATASIZE SWAP1 REVERT JUMPDEST POP CALLVALUE PUSH2 0x262 JUMPI PUSH1 0x20 CALLDATASIZE PUSH1 0x3 NOT ADD SLT PUSH2 0x262 JUMPI PUSH1 0x20 SWAP3 DUP3 SWAP2 CALLDATALOAD DUP2 MSTORE PUSH1 0xB DUP5 MSTORE KECCAK256 SLOAD SWAP1 MLOAD SWAP1 DUP2 MSTORE RETURN JUMPDEST POP POP CALLVALUE PUSH2 0x29E JUMPI PUSH1 0x20 CALLDATASIZE PUSH1 0x3 NOT ADD SLT PUSH2 0x29E JUMPI PUSH1 0x20 SWAP2 PUSH1 0xFF SWAP1 DUP3 SWAP1 PUSH1 0x1 PUSH1 0x1 PUSH1 0xA0 SHL SUB PUSH2 0x714 PUSH2 0x19F9 JUMP JUMPDEST AND DUP2 MSTORE PUSH1 0xD DUP6 MSTORE KECCAK256 SLOAD AND SWAP1 MLOAD SWAP1 ISZERO ISZERO DUP2 MSTORE RETURN JUMPDEST POP DUP3 SWAP1 CALLVALUE PUSH2 0x29E JUMPI PUSH1 0x20 SWAP1 PUSH1 0x20 PUSH1 0x3 NOT CALLDATASIZE ADD SLT PUSH2 0x262 JUMPI CALLDATALOAD SWAP2 DUP3 DUP2 MSTORE PUSH1 0xB PUSH1 0x20 MSTORE DUP4 DUP2 KECCAK256 SLOAD SWAP2 PUSH2 0x756 DUP4 PUSH2 0x1D54 JUMP JUMPDEST SWAP4 DUP3 JUMPDEST DUP5 DUP2 LT PUSH2 0x771 JUMPI DUP7 MLOAD DUP1 PUSH2 0x76D DUP9 DUP3 PUSH2 0x1AA3 JUMP JUMPDEST SUB SWAP1 RETURN JUMPDEST PUSH1 0x1 SWAP1 DUP3 DUP6 MSTORE PUSH1 0xA DUP5 MSTORE PUSH2 0x787 DUP2 DUP10 DUP8 KECCAK256 PUSH2 0x1A25 JUMP JUMPDEST DUP4 DUP1 PUSH1 0xA0 SHL SUB SWAP2 SLOAD SWAP1 PUSH1 0x3 SHL SHR AND PUSH2 0x79F DUP3 DUP10 PUSH2 0x1D86 JUMP JUMPDEST MSTORE ADD PUSH2 0x759 JUMP JUMPDEST POP SWAP2 SWAP1 CALLVALUE PUSH2 0x29E JUMPI DUP2 PUSH1 0x3 NOT CALLDATASIZE ADD SLT PUSH2 0x29E JUMPI PUSH1 0x5 SLOAD SWAP2 PUSH3 0x93A80 DUP4 ADD DUP1 SWAP4 GT PUSH2 0x7D7 JUMPI PUSH1 0x20 DUP4 DUP4 MLOAD SWAP1 TIMESTAMP LT ISZERO DUP2 MSTORE RETURN JUMPDEST PUSH4 0x4E487B71 PUSH1 0xE0 SHL DUP2 MSTORE PUSH1 0x11 DUP5 MSTORE PUSH1 0x24 SWAP1 REVERT JUMPDEST POP POP CALLVALUE PUSH2 0x29E JUMPI DUP2 PUSH1 0x3 NOT CALLDATASIZE ADD SLT PUSH2 0x29E JUMPI PUSH1 0x20 SWAP1 PUSH1 0x5 SLOAD SWAP1 MLOAD SWAP1 DUP2 MSTORE RETURN JUMPDEST PUSH2 0x19D8 JUMP JUMPDEST POP DUP3 SWAP1 CALLVALUE PUSH2 0x29E JUMPI PUSH1 0x20 SWAP1 PUSH1 0x20 PUSH1 0x3 NOT CALLDATASIZE ADD SLT PUSH2 0x262 JUMPI CALLDATALOAD SWAP2 DUP3 DUP2 MSTORE PUSH1 0x9 PUSH1 0x20 MSTORE DUP4 DUP2 KECCAK256 SLOAD SWAP2 PUSH2 0x83D DUP4 PUSH2 0x1D54 JUMP JUMPDEST SWAP4 DUP3 JUMPDEST DUP5 DUP2 LT PUSH2 0x854 JUMPI DUP7 MLOAD DUP1 PUSH2 0x76D DUP9 DUP3 PUSH2 0x1AA3 JUMP JUMPDEST PUSH1 0x1 SWAP1 DUP3 DUP6 MSTORE PUSH1 0x8 DUP5 MSTORE PUSH2 0x86A DUP2 DUP10 DUP8 KECCAK256 PUSH2 0x1A25 JUMP JUMPDEST DUP4 DUP1 PUSH1 0xA0 SHL SUB SWAP2 SLOAD SWAP1 PUSH1 0x3 SHL SHR AND PUSH2 0x882 DUP3 DUP10 PUSH2 0x1D86 JUMP JUMPDEST MSTORE ADD PUSH2 0x840 JUMP JUMPDEST POP POP CALLVALUE PUSH2 0x29E JUMPI DUP2 PUSH1 0x3 NOT CALLDATASIZE ADD SLT PUSH2 0x29E JUMPI PUSH1 0x20 SWAP1 MLOAD PUSH2 0xE10 DUP2 MSTORE RETURN JUMPDEST POP POP CALLVALUE PUSH2 0x29E JUMPI DUP2 PUSH1 0x3 NOT CALLDATASIZE ADD SLT PUSH2 0x29E JUMPI PUSH1 0x20 SWAP1 PUSH1 0x2 SLOAD SWAP1 MLOAD SWAP1 DUP2 MSTORE RETURN JUMPDEST POP DUP3 SWAP1 CALLVALUE PUSH2 0x29E JUMPI PUSH2 0x8D6 CALLDATASIZE PUSH2 0x1A53 JUMP JUMPDEST SWAP5 PUSH1 0x1 DUP1 PUSH1 0xA0 SWAP5 SWAP4 SWAP5 SHL SUB PUSH1 0x1 SWAP1 PUSH2 0x8F3 DUP2 PUSH1 0x1 SLOAD AND CALLER EQ PUSH2 0x1BBF JUMP JUMPDEST PUSH2 0x8FE DUP9 ISZERO ISZERO PUSH2 0x1C06 JUMP JUMPDEST PUSH2 0x90A DUP9 PUSH1 0x3 SLOAD PUSH2 0x1C48 JUMP JUMPDEST SWAP1 DUP8 JUMPDEST DUP10 DUP2 LT PUSH2 0x97C JUMPI POP POP POP POP PUSH2 0x94E SWAP1 PUSH32 0xDD1C72FCDA97FCFC2FE124C4AA194986CACA752D3769C00A6495659509D7B19B SWAP5 SWAP6 SWAP7 PUSH1 0x3 SLOAD SWAP2 MLOAD SWAP5 DUP6 SWAP5 DUP6 PUSH2 0x1CBF JUMP JUMPDEST SUB SWAP1 LOG1 PUSH1 0x2 SLOAD PUSH1 0x0 NOT DUP2 EQ PUSH2 0x969 JUMPI PUSH1 0x1 ADD PUSH1 0x2 SSTORE TIMESTAMP SWAP1 SSTORE DUP1 RETURN JUMPDEST PUSH4 0x4E487B71 PUSH1 0xE0 SHL DUP4 MSTORE PUSH1 0x11 DUP3 MSTORE PUSH1 0x24 DUP4 REVERT JUMPDEST DUP1 DUP3 PUSH2 0x992 PUSH2 0x98D DUP8 SWAP5 DUP15 DUP13 PUSH2 0x1C68 JUMP JUMPDEST PUSH2 0x1C78 JUMP JUMPDEST AND PUSH2 0x99E JUMPI JUMPDEST ADD PUSH2 0x90D JUMP JUMPDEST SWAP1 POP PUSH2 0x9AE PUSH2 0x98D DUP3 DUP13 DUP11 PUSH2 0x1C68 JUMP JUMPDEST DUP6 MLOAD PUSH4 0xA9059CBB PUSH1 0xE0 SHL DUP2 MSTORE DUP10 DUP2 DUP13 DUP2 DUP1 PUSH2 0x9CF DUP11 PUSH1 0x20 SWAP9 DUP10 SWAP8 DUP5 ADD PUSH2 0x1CA4 JUMP JUMPDEST SUB SWAP2 DUP9 PUSH32 0x0 AND GAS CALL SWAP1 DUP2 ISZERO PUSH2 0xB6A JUMPI DUP12 SWAP2 PUSH2 0xB4D JUMPI JUMPDEST POP ISZERO PUSH2 0xB19 JUMPI PUSH2 0xA18 PUSH2 0x98D DUP4 DUP14 DUP12 PUSH2 0x1C68 JUMP JUMPDEST SWAP1 DUP4 DUP8 MLOAD SWAP3 PUSH2 0xA26 DUP5 PUSH2 0x1B81 JUMP JUMPDEST PUSH1 0x12 DUP5 MSTORE PUSH18 0x4461696C792077696E6E657220626F6E7573 PUSH1 0x70 SHL DUP4 DUP6 ADD MSTORE AND SWAP2 DUP3 DUP13 MSTORE PUSH1 0xC SWAP2 DUP3 DUP2 MSTORE DUP9 DUP14 KECCAK256 SLOAD PUSH1 0xA SWAP4 DUP5 DUP3 ADD DUP1 SWAP3 GT PUSH2 0xB05 JUMPI DUP15 DUP12 SWAP2 DUP8 DUP3 MSTORE DUP5 MSTORE KECCAK256 SSTORE PUSH1 0x6 DUP1 SLOAD SWAP1 DUP5 DUP3 ADD DUP1 SWAP3 GT PUSH2 0xB05 JUMPI SSTORE PUSH1 0x7 DUP1 SLOAD SWAP1 DUP5 DUP3 ADD DUP1 SWAP3 GT PUSH2 0xB05 JUMPI SWAP2 DUP10 SWAP7 SWAP6 SWAP5 SWAP4 SWAP2 DUP16 SWAP4 SSTORE DUP11 MLOAD SWAP4 DUP5 MSTORE DUP11 DUP2 DUP6 ADD MSTORE DUP2 MLOAD SWAP2 DUP3 DUP13 DUP7 ADD MSTORE DUP4 JUMPDEST DUP4 DUP2 LT PUSH2 0xADF JUMPI POP POP POP SWAP1 DUP3 PUSH1 0x0 DUP1 MLOAD PUSH1 0x20 PUSH2 0x1E28 DUP4 CODECOPY DUP2 MLOAD SWAP2 MSTORE SWAP4 SWAP3 PUSH1 0x60 SWAP3 DUP4 DUP3 DUP5 ADD ADD MSTORE PUSH1 0x1F DUP1 NOT SWAP2 ADD AND DUP2 ADD SUB ADD SWAP1 LOG2 PUSH2 0x998 JUMP JUMPDEST SWAP1 SWAP3 SWAP5 SWAP6 SWAP7 SWAP8 POP DUP2 DUP1 SWAP5 POP DUP2 DUP5 ADD ADD MLOAD PUSH1 0x60 DUP3 DUP9 ADD ADD MSTORE ADD SWAP2 DUP10 SWAP7 SWAP6 SWAP5 SWAP4 SWAP2 DUP16 SWAP4 PUSH2 0xAA7 JUMP JUMPDEST POP PUSH4 0x4E487B71 PUSH1 0xE0 SHL DUP15 MSTORE PUSH1 0x11 DUP14 MSTORE PUSH1 0x24 DUP15 REVERT JUMPDEST DUP9 PUSH1 0x64 SWAP2 DUP8 MLOAD SWAP2 PUSH3 0x461BCD PUSH1 0xE5 SHL DUP4 MSTORE DUP3 ADD MSTORE PUSH1 0xF PUSH1 0x24 DUP3 ADD MSTORE PUSH15 0x151C985B9CD9995C8819985A5B1959 PUSH1 0x8A SHL PUSH1 0x44 DUP3 ADD MSTORE REVERT JUMPDEST PUSH2 0xB64 SWAP2 POP DUP3 RETURNDATASIZE DUP5 GT PUSH2 0x638 JUMPI PUSH2 0x62A DUP2 DUP4 PUSH2 0x1B9C JUMP JUMPDEST DUP13 PUSH2 0xA04 JUMP JUMPDEST DUP8 MLOAD RETURNDATASIZE DUP14 DUP3 RETURNDATACOPY RETURNDATASIZE SWAP1 REVERT JUMPDEST POP POP CALLVALUE PUSH2 0x29E JUMPI PUSH2 0xB84 CALLDATASIZE PUSH2 0x1A0F JUMP JUMPDEST SWAP3 SWAP1 DUP2 MSTORE PUSH1 0xA PUSH1 0x20 MSTORE DUP2 DUP2 KECCAK256 SWAP1 DUP2 SLOAD DUP5 LT ISZERO PUSH2 0xBBD JUMPI POP PUSH1 0x20 SWAP3 PUSH2 0xBA7 SWAP2 PUSH2 0x1A25 JUMP JUMPDEST SWAP1 SLOAD SWAP2 MLOAD SWAP2 PUSH1 0x1 DUP1 PUSH1 0xA0 SHL SUB SWAP2 PUSH1 0x3 SHL SHR AND DUP2 MSTORE RETURN JUMPDEST DUP1 REVERT JUMPDEST POP POP CALLVALUE PUSH2 0x29E JUMPI DUP2 PUSH1 0x3 NOT CALLDATASIZE ADD SLT PUSH2 0x29E JUMPI PUSH1 0x1 SLOAD SWAP1 MLOAD PUSH1 0x1 PUSH1 0x1 PUSH1 0xA0 SHL SUB SWAP1 SWAP2 AND DUP2 MSTORE PUSH1 0x20 SWAP1 RETURN JUMPDEST POP SWAP1 CALLVALUE PUSH2 0x262 JUMPI PUSH1 0x20 CALLDATASIZE PUSH1 0x3 NOT ADD SLT PUSH2 0x262 JUMPI PUSH2 0xC20 PUSH1 0x0 DUP1 MLOAD PUSH1 0x20 PUSH2 0x1DE8 DUP4 CODECOPY DUP2 MLOAD SWAP2 MSTORE SWAP3 PUSH2 0xC17 PUSH2 0x1DBB JUMP JUMPDEST CALLDATALOAD PUSH1 0x3 SLOAD PUSH2 0x1B2C JUMP JUMPDEST DUP1 PUSH1 0x3 SSTORE PUSH2 0xC2C PUSH2 0x1D1D JUMP JUMPDEST DUP3 MLOAD SWAP2 DUP3 MSTORE PUSH1 0x20 DUP3 ADD MSTORE LOG1 DUP1 RETURN JUMPDEST POP POP CALLVALUE PUSH2 0x29E JUMPI DUP2 PUSH1 0x3 NOT CALLDATASIZE ADD SLT PUSH2 0x29E JUMPI PUSH1 0x20 SWAP1 MLOAD PUSH8 0xDE0B6B3A7640000 DUP2 MSTORE RETURN JUMPDEST POP POP CALLVALUE PUSH2 0x29E JUMPI DUP2 PUSH1 0x3 NOT CALLDATASIZE ADD SLT PUSH2 0x29E JUMPI PUSH1 0x20 SWAP1 MLOAD PUSH1 0x2 DUP2 MSTORE RETURN JUMPDEST POP CALLVALUE PUSH2 0x262 JUMPI PUSH1 0x20 CALLDATASIZE PUSH1 0x3 NOT ADD SLT PUSH2 0x262 JUMPI PUSH1 0x20 SWAP3 DUP3 SWAP1 PUSH1 0x1 PUSH1 0x1 PUSH1 0xA0 SHL SUB PUSH2 0xCA0 PUSH2 0x19F9 JUMP JUMPDEST AND DUP2 MSTORE PUSH1 0xC DUP6 MSTORE KECCAK256 ADD SLOAD SWAP1 MLOAD SWAP1 DUP2 MSTORE RETURN JUMPDEST POP POP CALLVALUE PUSH2 0x29E JUMPI DUP2 PUSH1 0x3 NOT CALLDATASIZE ADD SLT PUSH2 0x29E JUMPI PUSH1 0x20 SWAP1 PUSH2 0xCCE PUSH2 0x1D1D JUMP JUMPDEST SWAP1 MLOAD SWAP1 DUP2 MSTORE RETURN JUMPDEST POP POP CALLVALUE PUSH2 0x29E JUMPI DUP2 PUSH1 0x3 NOT CALLDATASIZE ADD SLT PUSH2 0x29E JUMPI PUSH1 0x20 SWAP1 MLOAD PUSH1 0x3 DUP2 MSTORE RETURN JUMPDEST POP CALLVALUE PUSH2 0x262 JUMPI DUP3 PUSH1 0x3 NOT CALLDATASIZE ADD SLT PUSH2 0x262 JUMPI PUSH1 0x20 SWAP3 POP SLOAD SWAP1 MLOAD SWAP1 DUP2 MSTORE RETURN JUMPDEST DUP4 CALLVALUE PUSH2 0xBBD JUMPI DUP1 PUSH1 0x3 NOT CALLDATASIZE ADD SLT PUSH2 0xBBD JUMPI PUSH2 0xD27 PUSH2 0x1DBB JUMP JUMPDEST PUSH1 0x1 DUP1 SLOAD PUSH1 0x1 PUSH1 0x1 PUSH1 0xA0 SHL SUB NOT DUP2 AND SWAP1 SWAP2 SSTORE DUP2 SWAP1 PUSH1 0x1 PUSH1 0x1 PUSH1 0xA0 SHL SUB AND PUSH1 0x0 DUP1 MLOAD PUSH1 0x20 PUSH2 0x1E08 DUP4 CODECOPY DUP2 MLOAD SWAP2 MSTORE DUP3 DUP1 LOG3 DUP1 RETURN JUMPDEST POP POP CALLVALUE PUSH2 0x29E JUMPI DUP2 PUSH1 0x3 NOT CALLDATASIZE ADD SLT PUSH2 0x29E JUMPI PUSH1 0x20 SWAP1 PUSH1 0x6 SLOAD SWAP1 MLOAD SWAP1 DUP2 MSTORE RETURN JUMPDEST POP POP CALLVALUE PUSH2 0x29E JUMPI DUP2 PUSH1 0x3 NOT CALLDATASIZE ADD SLT PUSH2 0x29E JUMPI PUSH1 0x20 SWAP1 PUSH1 0xFF PUSH1 0x1 SLOAD PUSH1 0xA0 SHR AND SWAP1 MLOAD SWAP1 ISZERO ISZERO DUP2 MSTORE RETURN JUMPDEST POP CALLVALUE PUSH2 0x262 JUMPI PUSH1 0x20 CALLDATASIZE PUSH1 0x3 NOT ADD SLT PUSH2 0x262 JUMPI DUP2 PUSH2 0x100 SWAP4 PUSH2 0xDBE PUSH2 0x19F9 JUMP JUMPDEST DUP2 PUSH1 0xE0 DUP5 MLOAD PUSH2 0xDCC DUP2 PUSH2 0x1B4F JUMP JUMPDEST DUP3 DUP2 MSTORE DUP3 PUSH1 0x20 DUP3 ADD MSTORE DUP3 DUP7 DUP3 ADD MSTORE DUP3 PUSH1 0x60 DUP3 ADD MSTORE DUP3 PUSH1 0x80 DUP3 ADD MSTORE DUP3 PUSH1 0xA0 DUP3 ADD MSTORE DUP3 PUSH1 0xC0 DUP3 ADD MSTORE ADD MSTORE PUSH1 0x1 DUP1 PUSH1 0xA0 SHL SUB AND DUP2 MSTORE PUSH1 0xC PUSH1 0x20 MSTORE KECCAK256 DUP3 MLOAD SWAP2 PUSH2 0xE10 DUP4 PUSH2 0x1B4F JUMP JUMPDEST DUP2 SLOAD SWAP4 DUP5 DUP5 MSTORE PUSH1 0x1 DUP4 ADD SLOAD SWAP2 PUSH1 0x20 DUP6 ADD SWAP3 DUP4 MSTORE PUSH1 0x2 DUP5 ADD SLOAD SWAP2 DUP1 DUP7 ADD SWAP3 DUP4 MSTORE PUSH1 0x3 DUP6 ADD SLOAD SWAP2 PUSH1 0x60 DUP8 ADD SWAP3 DUP4 MSTORE DUP6 ADD SLOAD SWAP3 PUSH1 0x80 DUP8 ADD SWAP4 DUP5 MSTORE PUSH1 0x5 DUP7 ADD SLOAD SWAP5 PUSH1 0xA0 DUP9 ADD SWAP6 DUP7 MSTORE PUSH1 0xE0 PUSH1 0xFF PUSH1 0x7 PUSH1 0x6 DUP11 ADD SLOAD SWAP10 PUSH1 0xC0 DUP13 ADD SWAP11 DUP12 MSTORE ADD SLOAD AND SWAP9 ADD SWAP8 ISZERO ISZERO DUP9 MSTORE DUP3 MLOAD SWAP9 DUP10 MSTORE MLOAD PUSH1 0x20 DUP10 ADD MSTORE MLOAD SWAP1 DUP8 ADD MSTORE MLOAD PUSH1 0x60 DUP7 ADD MSTORE MLOAD PUSH1 0x80 DUP6 ADD MSTORE MLOAD PUSH1 0xA0 DUP5 ADD MSTORE MLOAD PUSH1 0xC0 DUP4 ADD MSTORE MLOAD ISZERO ISZERO PUSH1 0xE0 DUP3 ADD MSTORE RETURN JUMPDEST POP SWAP2 SWAP1 CALLVALUE PUSH2 0x29E JUMPI PUSH2 0xEB4 CALLDATASIZE PUSH2 0x1A53 JUMP JUMPDEST SWAP5 SWAP1 SWAP3 PUSH1 0x1 DUP1 PUSH1 0xA0 SHL SUB PUSH1 0x1 SWAP1 PUSH2 0xED0 DUP2 PUSH1 0x1 SLOAD AND CALLER EQ PUSH2 0x1BBF JUMP JUMPDEST PUSH2 0xEDB DUP9 ISZERO ISZERO PUSH2 0x1C06 JUMP JUMPDEST PUSH2 0xEE3 PUSH2 0x1D1D JUMP JUMPDEST SWAP4 PUSH2 0xEEE DUP10 DUP7 PUSH2 0x1C48 JUMP JUMPDEST DUP9 JUMPDEST DUP11 DUP2 LT PUSH2 0xF3A JUMPI POP DUP9 PUSH32 0x266EAB4E9078D52EC3F1266D5B3619A11040584EF2997FDEA8AFA3C03FA55977 DUP10 DUP10 PUSH2 0xF2C DUP11 DUP16 DUP12 MLOAD SWAP5 DUP6 SWAP5 DUP6 PUSH2 0x1CBF JUMP JUMPDEST SUB SWAP1 LOG1 DUP1 PUSH1 0x7 SSTORE TIMESTAMP PUSH1 0x5 SSTORE DUP1 RETURN JUMPDEST DUP1 DUP3 DUP13 DUP7 PUSH2 0xF4E PUSH2 0x98D DUP11 SWAP7 DUP16 DUP6 SWAP1 PUSH2 0x1C68 JUMP JUMPDEST AND PUSH2 0xF5C JUMPI JUMPDEST POP POP ADD PUSH2 0xEF0 JUMP JUMPDEST DUP3 PUSH2 0xF6E SWAP3 SWAP4 SWAP5 POP PUSH2 0x98D SWAP2 DUP14 PUSH2 0x1C68 JUMP JUMPDEST DUP8 MLOAD SWAP1 PUSH4 0xA9059CBB PUSH1 0xE0 SHL DUP3 MSTORE DUP2 DUP14 DUP2 DUP1 PUSH2 0xF8F PUSH1 0x20 SWAP8 DUP9 SWAP7 DUP13 DUP5 ADD PUSH2 0x1CA4 JUMP JUMPDEST SUB SWAP2 DUP11 PUSH32 0x0 AND GAS CALL SWAP1 DUP2 ISZERO PUSH2 0x102F JUMPI DUP13 SWAP2 PUSH2 0x1012 JUMPI JUMPDEST POP ISZERO PUSH2 0xFD4 JUMPI POP DUP5 SWAP1 DUP3 DUP13 PUSH2 0xF54 JUMP JUMPDEST DUP4 PUSH1 0x64 SWAP2 DUP9 MLOAD SWAP2 PUSH3 0x461BCD PUSH1 0xE5 SHL DUP4 MSTORE DUP3 ADD MSTORE PUSH1 0x19 PUSH1 0x24 DUP3 ADD MSTORE PUSH25 0x159351881C1C9A5E99481D1C985B9CD9995C8819985A5B1959 PUSH1 0x3A SHL PUSH1 0x44 DUP3 ADD MSTORE REVERT JUMPDEST PUSH2 0x1029 SWAP2 POP DUP3 RETURNDATASIZE DUP5 GT PUSH2 0x638 JUMPI PUSH2 0x62A DUP2 DUP4 PUSH2 0x1B9C JUMP JUMPDEST CODESIZE PUSH2 0xFC4 JUMP JUMPDEST DUP9 MLOAD RETURNDATASIZE DUP15 DUP3 RETURNDATACOPY RETURNDATASIZE SWAP1 REVERT JUMPDEST POP POP CALLVALUE PUSH2 0x29E JUMPI PUSH2 0x1049 CALLDATASIZE PUSH2 0x1A0F JUMP JUMPDEST SWAP3 SWAP1 DUP2 MSTORE PUSH1 0x8 PUSH1 0x20 MSTORE DUP2 DUP2 KECCAK256 SWAP1 DUP2 SLOAD DUP5 LT ISZERO PUSH2 0xBBD JUMPI POP PUSH1 0x20 SWAP3 PUSH2 0xBA7 SWAP2 PUSH2 0x1A25 JUMP JUMPDEST POP POP CALLVALUE PUSH2 0x29E JUMPI DUP2 PUSH1 0x3 NOT CALLDATASIZE ADD SLT PUSH2 0x29E JUMPI PUSH1 0x20 SWAP1 MLOAD PUSH8 0x8AC7230489E80000 DUP2 MSTORE RETURN JUMPDEST POP POP CALLVALUE PUSH2 0x29E JUMPI PUSH1 0x20 CALLDATASIZE PUSH1 0x3 NOT ADD SLT PUSH2 0x29E JUMPI PUSH1 0x20 SWAP2 PUSH1 0x1 PUSH1 0x1 PUSH1 0xA0 SHL SUB SWAP1 DUP3 SWAP1 DUP3 PUSH2 0x10B9 PUSH2 0x19F9 JUMP JUMPDEST AND DUP2 MSTORE PUSH1 0xE DUP6 MSTORE KECCAK256 SLOAD AND SWAP1 MLOAD SWAP1 DUP2 MSTORE RETURN JUMPDEST POP POP CALLVALUE PUSH2 0x29E JUMPI DUP1 PUSH1 0x3 NOT CALLDATASIZE ADD SLT PUSH2 0x29E JUMPI PUSH2 0x10E4 PUSH2 0x19F9 JUMP JUMPDEST SWAP1 PUSH1 0x24 CALLDATALOAD SWAP2 DUP3 ISZERO ISZERO DUP1 DUP5 SUB PUSH2 0x1166 JUMPI PUSH32 0x7C6A5677E7A854A53D06C412E00EBE65535F5343566CA7939AC7C7F6B0B00C16 SWAP3 PUSH2 0x115E PUSH1 0x20 SWAP4 PUSH2 0x1123 PUSH2 0x1DBB JUMP JUMPDEST PUSH1 0x1 PUSH1 0x1 PUSH1 0xA0 SHL SUB AND DUP1 DUP9 MSTORE PUSH1 0xD DUP6 MSTORE DUP3 DUP9 KECCAK256 DUP1 SLOAD SWAP8 ISZERO ISZERO PUSH1 0xFF AND PUSH1 0xFF NOT SWAP9 DUP10 AND DUP2 OR SWAP1 SWAP2 SSTORE PUSH1 0xC DUP7 MSTORE DUP4 DUP10 KECCAK256 PUSH1 0x7 ADD DUP1 SLOAD SWAP1 SWAP9 AND OR SWAP1 SWAP7 SSTORE JUMP JUMPDEST MLOAD SWAP1 DUP2 MSTORE LOG2 DUP1 RETURN JUMPDEST DUP5 DUP1 REVERT JUMPDEST POP SWAP2 SWAP1 CALLVALUE PUSH2 0x29E JUMPI DUP2 PUSH1 0x3 NOT CALLDATASIZE ADD SLT PUSH2 0x29E JUMPI DUP3 SLOAD SWAP2 PUSH3 0x15180 DUP4 ADD DUP1 SWAP4 GT PUSH2 0x7D7 JUMPI PUSH1 0x20 DUP4 DUP4 MLOAD SWAP1 TIMESTAMP LT ISZERO DUP2 MSTORE RETURN JUMPDEST DUP3 DUP5 CALLVALUE PUSH2 0xBBD JUMPI PUSH1 0x20 CALLDATASIZE PUSH1 0x3 NOT ADD SLT PUSH2 0xBBD JUMPI PUSH1 0x1 PUSH1 0x1 PUSH1 0xA0 SHL SUB DUP1 PUSH2 0x11BE PUSH2 0x19F9 JUMP JUMPDEST AND DUP3 MSTORE PUSH1 0xC PUSH1 0x20 MSTORE DUP3 PUSH1 0x6 DUP2 DUP5 KECCAK256 ADD SLOAD SWAP3 PUSH1 0xE PUSH1 0x20 MSTORE KECCAK256 SLOAD AND DUP3 MLOAD SWAP2 DUP3 MSTORE PUSH1 0x20 DUP3 ADD MSTORE RETURN JUMPDEST POP POP CALLVALUE PUSH2 0x29E JUMPI DUP2 PUSH1 0x3 NOT CALLDATASIZE ADD SLT PUSH2 0x29E JUMPI MLOAD PUSH32 0x0 PUSH1 0x1 PUSH1 0x1 PUSH1 0xA0 SHL SUB AND DUP2 MSTORE PUSH1 0x20 SWAP1 RETURN JUMPDEST POP DUP3 CALLVALUE PUSH2 0xBBD JUMPI PUSH1 0x20 SWAP3 DUP4 PUSH1 0x3 NOT CALLDATASIZE ADD SLT PUSH2 0x29E JUMPI PUSH2 0x1244 PUSH2 0x19F9 JUMP JUMPDEST SWAP4 PUSH1 0x2 DUP1 DUP5 SLOAD EQ PUSH2 0x19AC JUMPI DUP1 DUP5 SSTORE PUSH2 0x125A PUSH2 0x1D9A JUMP JUMPDEST CALLER DUP5 MSTORE PUSH1 0xD DUP3 MSTORE PUSH2 0x1271 PUSH1 0xFF DUP5 DUP7 KECCAK256 SLOAD AND ISZERO PUSH2 0x1AE8 JUMP JUMPDEST CALLER DUP5 MSTORE PUSH1 0xC SWAP1 DUP2 DUP4 MSTORE PUSH1 0x7 SWAP6 PUSH2 0x128F PUSH1 0xFF DUP9 DUP8 DUP10 KECCAK256 ADD SLOAD AND ISZERO PUSH2 0x1AE8 JUMP JUMPDEST CALLER DUP7 MSTORE DUP3 DUP5 MSTORE PUSH1 0x3 SWAP3 DUP4 DUP7 DUP9 KECCAK256 ADD SLOAD PUSH2 0xE10 DUP2 ADD DUP1 SWAP2 GT PUSH2 0x1999 JUMPI TIMESTAMP LT PUSH2 0x1960 JUMPI DUP6 MLOAD PUSH4 0x70A08231 PUSH1 0xE0 SHL DUP2 MSTORE CALLER DUP4 DUP3 ADD MSTORE PUSH1 0x24 SWAP9 SWAP1 SWAP2 PUSH1 0x1 PUSH1 0x1 PUSH1 0xA0 SHL SUB SWAP2 DUP8 DUP5 DUP13 DUP2 PUSH32 0x0 DUP8 AND GAS STATICCALL SWAP4 DUP5 ISZERO PUSH2 0x1956 JUMPI DUP11 SWAP5 PUSH2 0x1923 JUMPI JUMPDEST POP PUSH9 0x56BC75E2D63100000 DUP5 LT PUSH2 0x18E6 JUMPI DUP9 SWAP10 SWAP11 SWAP12 CALLER DUP13 MSTORE DUP3 DUP10 MSTORE PUSH1 0xA DUP13 PUSH1 0x1 SWAP13 DUP14 SWAP2 KECCAK256 ADD SLOAD LT ISZERO PUSH2 0x18A8 JUMPI DUP4 AND DUP1 ISZERO ISZERO DUP1 PUSH2 0x189E JUMPI JUMPDEST DUP1 PUSH2 0x188A JUMPI JUMPDEST PUSH2 0x16B5 JUMPI JUMPDEST POP CALLER DUP12 MSTORE DUP2 DUP9 MSTORE DUP10 DUP10 DUP13 KECCAK256 ADD SLOAD DUP12 DUP12 DUP3 ADD DUP1 SWAP3 GT PUSH2 0x16A3 JUMPI DUP6 SWAP2 DUP12 DUP9 SWAP3 CALLER DUP2 MSTORE DUP7 DUP14 MSTORE KECCAK256 SWAP1 DUP14 DUP3 ADD SSTORE TIMESTAMP DUP11 DUP3 ADD SSTORE ADD SSTORE DUP9 MLOAD SWAP4 PUSH2 0x1384 DUP6 PUSH2 0x1B81 JUMP JUMPDEST PUSH1 0x11 SWAP5 DUP6 DUP2 MSTORE PUSH17 0x11185A5B1E481C1B185E481C995DD85C99 PUSH1 0x7A SHL DUP11 DUP3 ADD MSTORE CALLER DUP14 MSTORE DUP4 DUP11 MSTORE DUP11 DUP14 KECCAK256 SLOAD DUP14 DUP14 DUP3 ADD DUP1 SWAP3 GT PUSH2 0x1692 JUMPI DUP13 SWAP1 CALLER DUP2 MSTORE DUP7 DUP14 MSTORE KECCAK256 SSTORE PUSH1 0x6 SLOAD DUP13 DUP2 ADD DUP1 SWAP2 GT PUSH2 0x1681 JUMPI PUSH1 0x6 SSTORE DUP13 DUP4 SLOAD DUP14 DUP2 ADD DUP1 SWAP2 GT PUSH2 0x1640 JUMPI SWAP3 DUP14 SWAP3 DUP6 SWAP5 DUP15 SWAP7 SSTORE DUP6 MLOAD SWAP4 DUP5 MSTORE DUP6 DUP14 DUP6 ADD MSTORE DUP1 MLOAD DUP1 SWAP7 DUP6 ADD MSTORE DUP13 DUP4 JUMPDEST DUP8 DUP2 LT PUSH2 0x1663 JUMPI POP POP POP DUP2 PUSH1 0x60 DUP7 DUP6 ADD ADD MSTORE PUSH1 0x0 DUP1 MLOAD PUSH1 0x20 PUSH2 0x1E28 DUP4 CODECOPY DUP2 MLOAD SWAP2 MSTORE SWAP5 DUP6 PUSH1 0x1F NOT SWAP5 PUSH1 0x60 DUP2 DUP8 PUSH1 0x1F CALLER SWAP7 ADD AND DUP2 ADD SUB ADD SWAP1 LOG2 CALLER DUP3 MSTORE DUP6 DUP13 MSTORE PUSH1 0x5 DUP14 DUP4 KECCAK256 ADD SLOAD PUSH3 0x15180 DUP2 ADD DUP1 SWAP2 GT PUSH2 0x1651 JUMPI TIMESTAMP LT ISZERO PUSH2 0x1532 JUMPI JUMPDEST POP POP DUP8 SLOAD DUP14 MSTORE POP POP PUSH1 0x8 DUP9 MSTORE POP POP DUP7 DUP10 KECCAK256 DUP1 SLOAD SWAP1 PUSH1 0x1 PUSH1 0x40 SHL DUP3 LT ISZERO PUSH2 0x1520 JUMPI SWAP1 PUSH2 0x1483 SWAP2 DUP11 DUP3 ADD DUP2 SSTORE PUSH2 0x1A25 JUMP JUMPDEST DUP2 SWAP3 SWAP2 SLOAD SWAP1 DUP8 SHL SWAP2 CALLER DUP4 SHL SWAP3 SHL NOT AND OR SWAP1 SSTORE DUP3 SLOAD SWAP1 DUP2 DUP10 MSTORE PUSH1 0x9 DUP7 MSTORE DUP7 DUP10 KECCAK256 SLOAD SWAP3 DUP9 DUP5 ADD DUP1 SWAP5 GT PUSH2 0x1511 JUMPI POP POP DUP8 PUSH1 0x0 DUP1 MLOAD PUSH1 0x20 PUSH2 0x1DE8 DUP4 CODECOPY DUP2 MLOAD SWAP2 MSTORE SWAP8 SWAP9 SWAP10 POP MSTORE PUSH1 0x9 DUP5 MSTORE DUP5 DUP9 KECCAK256 SSTORE SLOAD DUP4 MLOAD DUP8 DUP2 MSTORE PUSH32 0x480A6DAEA81F2AF589E1959DA1F1719512392EC551E8966266EE820F1C1F72EA DUP5 CALLER SWAP3 LOG3 SLOAD SWAP1 PUSH2 0x1502 PUSH2 0x1D1D JUMP JUMPDEST SWAP1 DUP4 MLOAD SWAP3 DUP4 MSTORE DUP3 ADD MSTORE LOG1 DUP2 SSTORE DUP1 RETURN JUMPDEST PUSH4 0x4E487B71 PUSH1 0xE0 SHL DUP11 MSTORE MSTORE DUP9 DUP9 REVERT JUMPDEST PUSH4 0x4E487B71 PUSH1 0xE0 SHL DUP12 MSTORE PUSH1 0x41 DUP6 MSTORE DUP12 DUP12 REVERT JUMPDEST PUSH8 0x8AC7230489E80000 SWAP1 DIV SWAP3 DUP11 DUP5 MUL SWAP4 DUP1 DUP6 DIV DUP13 EQ SWAP1 ISZERO OR ISZERO PUSH2 0x1640 JUMPI DUP4 SWAP3 SWAP2 DUP13 SWAP2 DUP15 SWAP7 SWAP6 PUSH2 0x157B JUMPI JUMPDEST POP POP POP POP POP POP POP CALLER DUP11 MSTORE DUP7 MSTORE TIMESTAMP PUSH1 0x5 DUP9 DUP12 KECCAK256 ADD SSTORE DUP11 DUP1 DUP1 DUP1 DUP13 DUP2 PUSH2 0x1454 JUMP JUMPDEST DUP7 SWAP5 SWAP3 SWAP5 MLOAD SWAP1 PUSH2 0x158A DUP3 PUSH2 0x1B81 JUMP JUMPDEST PUSH1 0x12 DUP3 MSTORE PUSH18 0x159351881A1BDB191A5B99C81C995DD85C99 PUSH1 0x72 SHL DUP7 DUP4 ADD MSTORE CALLER DUP4 MSTORE DUP9 DUP7 MSTORE PUSH2 0x15BB DUP5 DUP10 DUP6 KECCAK256 SLOAD PUSH2 0x1B2C JUMP JUMPDEST CALLER DUP5 MSTORE DUP10 DUP8 MSTORE DUP9 DUP5 KECCAK256 SSTORE PUSH2 0x15D1 DUP5 PUSH1 0x6 SLOAD PUSH2 0x1B2C JUMP JUMPDEST PUSH1 0x6 SSTORE PUSH2 0x15DF DUP5 DUP3 SLOAD PUSH2 0x1B2C JUMP JUMPDEST SWAP1 SSTORE DUP7 DUP1 MLOAD SWAP6 DUP7 SWAP5 DUP6 MSTORE DUP5 ADD MSTORE DUP1 MLOAD DUP1 SWAP8 DUP5 ADD MSTORE DUP14 DUP3 JUMPDEST DUP9 DUP2 LT PUSH2 0x1622 JUMPI POP POP POP SWAP2 PUSH1 0x60 SWAP3 DUP4 DUP8 DUP5 ADD ADD MSTORE PUSH1 0x1F CALLER SWAP7 ADD AND DUP2 ADD SUB ADD SWAP1 LOG2 DUP8 DUP13 DUP1 DUP1 DUP11 DUP15 DUP3 PUSH2 0x155C JUMP JUMPDEST DUP3 DUP2 SWAP4 SWAP6 POP DUP3 SWAP5 POP ADD ADD MLOAD PUSH1 0x60 DUP3 DUP8 ADD ADD MSTORE ADD DUP16 SWAP1 SWAP2 DUP14 DUP6 SWAP4 PUSH2 0x15F6 JUMP JUMPDEST PUSH4 0x4E487B71 PUSH1 0xE0 SHL DUP3 MSTORE DUP8 DUP10 MSTORE DUP16 DUP3 REVERT JUMPDEST POP PUSH4 0x4E487B71 PUSH1 0xE0 SHL DUP3 MSTORE DUP8 DUP10 MSTORE DUP16 DUP3 REVERT JUMPDEST SWAP1 DUP3 SWAP4 SWAP5 POP DUP2 DUP2 SWAP4 ADD ADD MLOAD PUSH1 0x60 DUP3 DUP8 ADD ADD MSTORE ADD SWAP1 DUP16 SWAP3 SWAP2 DUP14 SWAP1 PUSH2 0x13FB JUMP JUMPDEST PUSH4 0x4E487B71 PUSH1 0xE0 SHL DUP15 MSTORE DUP7 DUP9 MSTORE DUP15 DUP15 REVERT JUMPDEST PUSH4 0x4E487B71 PUSH1 0xE0 SHL DUP2 MSTORE DUP8 DUP10 MSTORE DUP16 SWAP1 REVERT JUMPDEST PUSH4 0x4E487B71 PUSH1 0xE0 SHL DUP2 MSTORE PUSH1 0x11 DUP8 MSTORE DUP14 SWAP1 REVERT JUMPDEST DUP1 DUP13 MSTORE DUP3 DUP10 MSTORE DUP11 DUP11 DUP14 KECCAK256 ADD SLOAD ISZERO PUSH2 0x1855 JUMPI CALLER DUP13 MSTORE PUSH1 0xE DUP10 MSTORE DUP10 DUP13 KECCAK256 DUP1 SLOAD PUSH1 0x1 PUSH1 0x1 PUSH1 0xA0 SHL SUB NOT AND DUP3 OR SWAP1 SSTORE DUP1 DUP13 MSTORE PUSH1 0xF DUP10 MSTORE DUP10 DUP13 KECCAK256 SLOAD DUP12 DUP2 ADD SWAP1 DUP2 LT PUSH2 0x1843 JUMPI DUP2 DUP14 MSTORE PUSH1 0xF DUP11 MSTORE DUP11 DUP14 KECCAK256 SSTORE DUP3 DUP10 MSTORE PUSH1 0x6 DUP11 DUP14 KECCAK256 ADD SLOAD DUP13 DUP13 DUP3 ADD DUP1 SWAP3 GT PUSH2 0x1831 JUMPI DUP12 DUP2 DUP5 PUSH1 0x6 SWAP4 MSTORE DUP7 DUP14 MSTORE KECCAK256 ADD SSTORE DUP12 DUP11 MLOAD PUSH2 0x172E DUP2 PUSH2 0x1B81 JUMP JUMPDEST PUSH1 0xF DUP2 MSTORE PUSH15 0x149959995C9C985B081C995DD85C99 PUSH1 0x8A SHL DUP12 DUP3 ADD MSTORE DUP3 DUP3 MSTORE DUP5 DUP12 MSTORE DUP12 DUP3 KECCAK256 SLOAD DUP10 DUP2 ADD DUP1 SWAP2 GT PUSH2 0x181F JUMPI DUP4 DUP4 MSTORE DUP6 DUP13 MSTORE DUP13 DUP4 KECCAK256 SSTORE PUSH1 0x6 SLOAD DUP10 DUP2 ADD DUP1 SWAP2 GT PUSH2 0x181F JUMPI PUSH1 0x6 SSTORE DUP4 SLOAD DUP10 DUP2 ADD DUP1 SWAP2 GT PUSH2 0x181F JUMPI DUP4 SWAP3 DUP13 SWAP3 DUP15 SWAP3 DUP8 SSTORE DUP3 DUP1 MLOAD SWAP5 DUP14 DUP7 MSTORE DUP6 ADD MSTORE DUP1 MLOAD DUP1 SWAP4 DUP6 ADD MSTORE DUP14 DUP3 JUMPDEST DUP5 DUP2 LT PUSH2 0x17FD JUMPI POP POP POP DUP3 DUP3 PUSH1 0x60 SWAP3 DUP4 DUP4 SWAP6 PUSH1 0x0 DUP1 MLOAD PUSH1 0x20 PUSH2 0x1E28 DUP4 CODECOPY DUP2 MLOAD SWAP2 MSTORE SWAP8 ADD ADD MSTORE PUSH1 0x1F DUP1 NOT SWAP2 ADD AND DUP2 ADD SUB ADD SWAP1 LOG2 CALLER SWAP1 PUSH32 0x5F1CA2FCC108B751843A763E60D2201F593516109D7DBB1B700468F2D4190BB7 DUP14 DUP1 LOG3 DUP13 PUSH2 0x1348 JUMP JUMPDEST DUP3 DUP2 SWAP4 SWAP6 SWAP7 SWAP8 POP DUP3 SWAP5 POP ADD ADD MLOAD PUSH1 0x60 DUP3 DUP8 ADD ADD MSTORE ADD DUP16 SWAP1 SWAP2 DUP14 DUP7 SWAP6 SWAP5 SWAP4 PUSH2 0x179F JUMP JUMPDEST PUSH4 0x4E487B71 PUSH1 0xE0 SHL DUP4 MSTORE PUSH1 0x11 DUP10 MSTORE DUP16 DUP4 REVERT JUMPDEST PUSH4 0x4E487B71 PUSH1 0xE0 SHL DUP2 MSTORE PUSH1 0x11 DUP9 MSTORE DUP15 SWAP1 REVERT JUMPDEST PUSH4 0x4E487B71 PUSH1 0xE0 SHL DUP14 MSTORE PUSH1 0x11 DUP8 MSTORE DUP14 DUP14 REVERT JUMPDEST DUP10 MLOAD PUSH3 0x461BCD PUSH1 0xE5 SHL DUP2 MSTORE DUP1 DUP8 ADD DUP11 SWAP1 MSTORE PUSH1 0x10 DUP2 DUP16 ADD MSTORE PUSH16 0x24B73B30B634B2103932B332B93932B9 PUSH1 0x81 SHL PUSH1 0x44 DUP3 ADD MSTORE PUSH1 0x64 SWAP1 REVERT JUMPDEST POP CALLER DUP13 MSTORE PUSH1 0xE DUP10 MSTORE DUP4 DUP11 DUP14 KECCAK256 SLOAD AND ISZERO PUSH2 0x1343 JUMP JUMPDEST POP CALLER DUP2 EQ ISZERO PUSH2 0x133D JUMP JUMPDEST DUP10 MLOAD PUSH3 0x461BCD PUSH1 0xE5 SHL DUP2 MSTORE DUP1 DUP8 ADD DUP11 SWAP1 MSTORE PUSH1 0x19 DUP2 DUP16 ADD MSTORE PUSH25 0x13585E0819185A5B1E48195B9D1C9A595CC81C995858DA1959 PUSH1 0x3A SHL PUSH1 0x44 DUP3 ADD MSTORE PUSH1 0x64 SWAP1 REVERT JUMPDEST DUP9 MLOAD PUSH3 0x461BCD PUSH1 0xE5 SHL DUP2 MSTORE DUP1 DUP7 ADD DUP10 SWAP1 MSTORE PUSH1 0x18 DUP2 DUP14 ADD MSTORE PUSH24 0x496E73756666696369656E7420564D462062616C616E6365 PUSH1 0x40 SHL PUSH1 0x44 DUP3 ADD MSTORE PUSH1 0x64 SWAP1 REVERT JUMPDEST SWAP1 SWAP4 POP DUP8 DUP2 DUP2 RETURNDATASIZE DUP4 GT PUSH2 0x194F JUMPI JUMPDEST PUSH2 0x193B DUP2 DUP4 PUSH2 0x1B9C JUMP JUMPDEST DUP2 ADD SUB SLT PUSH2 0x194B JUMPI MLOAD SWAP3 DUP13 PUSH2 0x1306 JUMP JUMPDEST DUP10 DUP1 REVERT JUMPDEST POP RETURNDATASIZE PUSH2 0x1931 JUMP JUMPDEST DUP10 MLOAD RETURNDATASIZE DUP13 DUP3 RETURNDATACOPY RETURNDATASIZE SWAP1 REVERT JUMPDEST DUP6 MLOAD PUSH3 0x461BCD PUSH1 0xE5 SHL DUP2 MSTORE DUP1 DUP4 ADD DUP7 SWAP1 MSTORE PUSH1 0x13 PUSH1 0x24 DUP3 ADD MSTORE PUSH19 0x14985D19481B1A5B5A5D08195E18D959591959 PUSH1 0x6A SHL PUSH1 0x44 DUP3 ADD MSTORE PUSH1 0x64 SWAP1 REVERT JUMPDEST PUSH4 0x4E487B71 PUSH1 0xE0 SHL DUP9 MSTORE PUSH1 0x11 DUP4 MSTORE PUSH1 0x24 DUP9 REVERT JUMPDEST DUP3 MLOAD PUSH4 0x3EE5AEB5 PUSH1 0xE0 SHL DUP2 MSTORE DUP6 SWAP1 REVERT JUMPDEST POP POP CALLVALUE PUSH2 0x29E JUMPI DUP2 PUSH1 0x3 NOT CALLDATASIZE ADD SLT PUSH2 0x29E JUMPI PUSH1 0x20 SWAP1 MLOAD PUSH1 0x8 DUP2 MSTORE RETURN JUMPDEST CALLVALUE PUSH2 0x19F4 JUMPI PUSH1 0x0 CALLDATASIZE PUSH1 0x3 NOT ADD SLT PUSH2 0x19F4 JUMPI PUSH1 0x20 PUSH1 0x40 MLOAD PUSH1 0xA DUP2 MSTORE RETURN JUMPDEST PUSH1 0x0 DUP1 REVERT JUMPDEST PUSH1 0x4 CALLDATALOAD SWAP1 PUSH1 0x1 PUSH1 0x1 PUSH1 0xA0 SHL SUB DUP3 AND DUP3 SUB PUSH2 0x19F4 JUMPI JUMP JUMPDEST PUSH1 0x40 SWAP1 PUSH1 0x3 NOT ADD SLT PUSH2 0x19F4 JUMPI PUSH1 0x4 CALLDATALOAD SWAP1 PUSH1 0x24 CALLDATALOAD SWAP1 JUMP JUMPDEST DUP1 SLOAD DUP3 LT ISZERO PUSH2 0x1A3D JUMPI PUSH1 0x0 MSTORE PUSH1 0x20 PUSH1 0x0 KECCAK256 ADD SWAP1 PUSH1 0x0 SWAP1 JUMP JUMPDEST PUSH4 0x4E487B71 PUSH1 0xE0 SHL PUSH1 0x0 MSTORE PUSH1 0x32 PUSH1 0x4 MSTORE PUSH1 0x24 PUSH1 0x0 REVERT JUMPDEST PUSH1 0x40 PUSH1 0x3 NOT DUP3 ADD SLT PUSH2 0x19F4 JUMPI PUSH1 0x4 CALLDATALOAD SWAP2 PUSH1 0x1 PUSH1 0x1 PUSH1 0x40 SHL SUB SWAP2 PUSH1 0x24 CALLDATALOAD SWAP1 DUP4 DUP3 GT PUSH2 0x19F4 JUMPI DUP1 PUSH1 0x23 DUP4 ADD SLT ISZERO PUSH2 0x19F4 JUMPI DUP2 PUSH1 0x4 ADD CALLDATALOAD SWAP4 DUP5 GT PUSH2 0x19F4 JUMPI PUSH1 0x24 DUP5 PUSH1 0x5 SHL DUP4 ADD ADD GT PUSH2 0x19F4 JUMPI PUSH1 0x24 ADD SWAP2 SWAP1 JUMP JUMPDEST PUSH1 0x20 SWAP1 PUSH1 0x20 PUSH1 0x40 DUP2 DUP4 ADD SWAP3 DUP3 DUP2 MSTORE DUP6 MLOAD DUP1 SWAP5 MSTORE ADD SWAP4 ADD SWAP2 PUSH1 0x0 JUMPDEST DUP3 DUP2 LT PUSH2 0x1ACB JUMPI POP POP POP POP SWAP1 JUMP JUMPDEST DUP4 MLOAD PUSH1 0x1 PUSH1 0x1 PUSH1 0xA0 SHL SUB AND DUP6 MSTORE SWAP4 DUP2 ADD SWAP4 SWAP3 DUP2 ADD SWAP3 PUSH1 0x1 ADD PUSH2 0x1ABD JUMP JUMPDEST ISZERO PUSH2 0x1AEF JUMPI JUMP JUMPDEST PUSH1 0x40 MLOAD PUSH3 0x461BCD PUSH1 0xE5 SHL DUP2 MSTORE PUSH1 0x20 PUSH1 0x4 DUP3 ADD MSTORE PUSH1 0x15 PUSH1 0x24 DUP3 ADD MSTORE PUSH21 0x141B185E595C881A5CC8189B1858DADB1A5CDD1959 PUSH1 0x5A SHL PUSH1 0x44 DUP3 ADD MSTORE PUSH1 0x64 SWAP1 REVERT JUMPDEST SWAP2 SWAP1 DUP3 ADD DUP1 SWAP3 GT PUSH2 0x1B39 JUMPI JUMP JUMPDEST PUSH4 0x4E487B71 PUSH1 0xE0 SHL PUSH1 0x0 MSTORE PUSH1 0x11 PUSH1 0x4 MSTORE PUSH1 0x24 PUSH1 0x0 REVERT JUMPDEST PUSH2 0x100 DUP2 ADD SWAP1 DUP2 LT PUSH1 0x1 PUSH1 0x1 PUSH1 0x40 SHL SUB DUP3 GT OR PUSH2 0x1B6B JUMPI PUSH1 0x40 MSTORE JUMP JUMPDEST PUSH4 0x4E487B71 PUSH1 0xE0 SHL PUSH1 0x0 MSTORE PUSH1 0x41 PUSH1 0x4 MSTORE PUSH1 0x24 PUSH1 0x0 REVERT JUMPDEST PUSH1 0x40 DUP2 ADD SWAP1 DUP2 LT PUSH1 0x1 PUSH1 0x1 PUSH1 0x40 SHL SUB DUP3 GT OR PUSH2 0x1B6B JUMPI PUSH1 0x40 MSTORE JUMP JUMPDEST PUSH1 0x1F SWAP1 SWAP2 ADD PUSH1 0x1F NOT AND DUP2 ADD SWAP1 PUSH1 0x1 PUSH1 0x1 PUSH1 0x40 SHL SUB DUP3 GT SWAP1 DUP3 LT OR PUSH2 0x1B6B JUMPI PUSH1 0x40 MSTORE JUMP JUMPDEST ISZERO PUSH2 0x1BC6 JUMPI JUMP JUMPDEST PUSH1 0x40 MLOAD PUSH3 0x461BCD PUSH1 0xE5 SHL DUP2 MSTORE PUSH1 0x20 PUSH1 0x4 DUP3 ADD MSTORE PUSH1 0x18 PUSH1 0x24 DUP3 ADD MSTORE PUSH24 0x4F6E6C79206F776E65722063616E2063616C6C2074686973 PUSH1 0x40 SHL PUSH1 0x44 DUP3 ADD MSTORE PUSH1 0x64 SWAP1 REVERT JUMPDEST ISZERO PUSH2 0x1C0D JUMPI JUMP JUMPDEST PUSH1 0x40 MLOAD PUSH3 0x461BCD PUSH1 0xE5 SHL DUP2 MSTORE PUSH1 0x20 PUSH1 0x4 DUP3 ADD MSTORE PUSH1 0x13 PUSH1 0x24 DUP3 ADD MSTORE PUSH19 0x139BC81DDA5B9B995C9CC81C1C9BDD9A591959 PUSH1 0x6A SHL PUSH1 0x44 DUP3 ADD MSTORE PUSH1 0x64 SWAP1 REVERT JUMPDEST DUP2 ISZERO PUSH2 0x1C52 JUMPI DIV SWAP1 JUMP JUMPDEST PUSH4 0x4E487B71 PUSH1 0xE0 SHL PUSH1 0x0 MSTORE PUSH1 0x12 PUSH1 0x4 MSTORE PUSH1 0x24 PUSH1 0x0 REVERT JUMPDEST SWAP2 SWAP1 DUP2 LT ISZERO PUSH2 0x1A3D JUMPI PUSH1 0x5 SHL ADD SWAP1 JUMP JUMPDEST CALLDATALOAD PUSH1 0x1 PUSH1 0x1 PUSH1 0xA0 SHL SUB DUP2 AND DUP2 SUB PUSH2 0x19F4 JUMPI SWAP1 JUMP JUMPDEST SWAP1 DUP2 PUSH1 0x20 SWAP2 SUB SLT PUSH2 0x19F4 JUMPI MLOAD DUP1 ISZERO ISZERO DUP2 SUB PUSH2 0x19F4 JUMPI SWAP1 JUMP JUMPDEST PUSH1 0x1 PUSH1 0x1 PUSH1 0xA0 SHL SUB SWAP1 SWAP2 AND DUP2 MSTORE PUSH1 0x20 DUP2 ADD SWAP2 SWAP1 SWAP2 MSTORE PUSH1 0x40 ADD SWAP1 JUMP JUMPDEST SWAP1 DUP2 MSTORE PUSH1 0x60 PUSH1 0x20 DUP1 DUP4 ADD DUP3 SWAP1 MSTORE SWAP1 DUP3 ADD DUP5 SWAP1 MSTORE SWAP1 SWAP5 SWAP4 SWAP3 PUSH1 0x80 DUP7 ADD SWAP2 PUSH1 0x0 DUP1 JUMPDEST DUP4 DUP3 LT PUSH2 0x1CF3 JUMPI POP POP POP POP PUSH1 0x40 SWAP2 POP SWAP4 ADD MSTORE JUMP JUMPDEST SWAP1 SWAP2 SWAP3 SWAP4 DUP6 CALLDATALOAD PUSH1 0x1 DUP1 PUSH1 0xA0 SHL SUB DUP2 AND DUP1 SWAP2 SUB PUSH2 0x262 JUMPI DUP2 MSTORE SWAP5 DUP4 ADD SWAP5 DUP4 ADD SWAP4 SWAP3 SWAP2 PUSH1 0x1 ADD SWAP1 PUSH2 0x1CDF JUMP JUMPDEST PUSH1 0x7 SLOAD PUSH8 0xDE0B6B3A7640000 SWAP1 DUP2 DUP2 MUL SWAP2 DUP2 DUP4 DIV EQ SWAP1 ISZERO OR ISZERO PUSH2 0x1B39 JUMPI SWAP1 JUMP JUMPDEST PUSH1 0x1 PUSH1 0x1 PUSH1 0x40 SHL SUB DUP2 GT PUSH2 0x1B6B JUMPI PUSH1 0x5 SHL PUSH1 0x20 ADD SWAP1 JUMP JUMPDEST SWAP1 PUSH2 0x1D5E DUP3 PUSH2 0x1D3D JUMP JUMPDEST PUSH2 0x1D6B PUSH1 0x40 MLOAD SWAP2 DUP3 PUSH2 0x1B9C JUMP JUMPDEST DUP3 DUP2 MSTORE DUP1 SWAP3 PUSH2 0x1D7C PUSH1 0x1F NOT SWAP2 PUSH2 0x1D3D JUMP JUMPDEST ADD SWAP1 PUSH1 0x20 CALLDATASIZE SWAP2 ADD CALLDATACOPY JUMP JUMPDEST DUP1 MLOAD DUP3 LT ISZERO PUSH2 0x1A3D JUMPI PUSH1 0x20 SWAP2 PUSH1 0x5 SHL ADD ADD SWAP1 JUMP JUMPDEST PUSH1 0xFF PUSH1 0x1 SLOAD PUSH1 0xA0 SHR AND PUSH2 0x1DA9 JUMPI JUMP JUMPDEST PUSH1 0x40 MLOAD PUSH4 0xD93C0665 PUSH1 0xE0 SHL DUP2 MSTORE PUSH1 0x4 SWAP1 REVERT JUMPDEST PUSH1 0x1 SLOAD PUSH1 0x1 PUSH1 0x1 PUSH1 0xA0 SHL SUB AND CALLER SUB PUSH2 0x1DCF JUMPI JUMP JUMPDEST PUSH1 0x40 MLOAD PUSH4 0x118CDAA7 PUSH1 0xE0 SHL DUP2 MSTORE CALLER PUSH1 0x4 DUP3 ADD MSTORE PUSH1 0x24 SWAP1 REVERT INVALID BLOCKHASH PREVRANDAO BLOBHASH 0xB4 0x2E DUP7 0xF8 PUSH18 0x6DD5AC141731FB164FE1F76D7E4039FDD16C PUSH28 0x3B48F96A4E8BE0079C531659141344CD1FD0A4F28419497F9722A3DA 0xAF 0xE3 0xB4 XOR PUSH16 0x6B6457E0195188E7E2A9C946C9131794 PUSH1 0x30 BLOBHASH 0xC EXTCODESIZE LOG4 DUP11 JUMPDEST PUSH32 0x867101928826FA4CC609C5A2646970667358221220443AE3FDF2F9A461625BAD SIGNEXTEND 0xDF DUP1 PUSH19 0x6292A395D8362C16F28142B25E5483AFBF6473 PUSH16 0x6C634300081800330000000000000000 "},"methodIdentifiers":{"DAILY_PLAY_REWARD()":"dd23b9cb","DAILY_WINNERS_COUNT()":"16fa1086","ENTRY_COOLDOWN()":"a9b8b451","MAX_DAILY_ENTRIES()":"bbc3ced7","MIN_VMF_REQUIRED()":"eac9f124","REFERRAL_REWARD()":"84a3a0f3","VMF_HOLDING_REWARD()":"7568e826","VMF_HOLDING_THRESHOLD()":"4e3c9738","VMF_PER_TOPPING()":"8a37da1f","WEEKLY_WINNERS_COUNT()":"0d9f92ca","addToDailyJackpot(uint256)":"8c5747af","blacklistedAddresses(address)":"d5749d42","currentDailyJackpot()":"e3d440a7","dailyPlayerCount(uint256)":"ffc39504","dailyPlayers(uint256,uint256)":"4eb692a5","emergencyPause(bool)":"e8f6940e","emergencyWithdraw()":"db2e21bc","enterDailyGame(address)":"1a266a72","getCurrentGameId()":"a2635401","getDailyJackpot()":"aab40f31","getEligibleDailyPlayers(uint256)":"bacf46f3","getEligibleWeeklyPlayers(uint256)":"ccb60e01","getMinimumVMFRequired()":"8b0a234c","getPlayerInfo(address)":"59328401","getPlayerReferralInfo(address)":"2dc1001f","getPlayerToppings(address)":"fc564514","getPlayerVMFBalance(address)":"821c27ad","getTotalToppingsClaimed()":"1303b3c8","getWeeklyJackpot()":"79f329d9","getWeeklyToppingsPool()":"137c221a","isDailyDrawReady()":"2efb53da","isWeeklyDrawReady()":"c65a8568","lastDailyDraw()":"7550b84f","lastWeeklyDraw()":"c14e1e05","owner()":"8da5cb5b","paused()":"5c975abb","players(address)":"e2eb41ff","processDailyWinners(uint256,address[])":"9e9e4056","processWeeklyWinners(uint256,address[])":"56768b5e","referralCount(address)":"db74559b","referrers(address)":"4a3b68cc","renounceOwnership()":"715018a6","setPlayerBlacklist(address,bool)":"43f2a080","totalToppingsClaimed()":"64603328","transferOwnership(address)":"f2fde38b","vmfToken()":"2086eefa","weeklyPlayerCount(uint256)":"d61b86bb","weeklyPlayers(uint256,uint256)":"920736e5","weeklyToppingsPool()":"f09a0ac4"}}}}}