{"contracts/FreePriceOracle.sol":{"FreePriceOracle":{"abi":[{"inputs":[],"stateMutability":"nonpayable","type":"constructor"},{"inputs":[{"internalType":"address","name":"owner","type":"address"}],"name":"OwnableInvalidOwner","type":"error"},{"inputs":[{"internalType":"address","name":"account","type":"address"}],"name":"OwnableUnauthorizedAccount","type":"error"},{"anonymous":false,"inputs":[{"indexed":false,"internalType":"uint256","name":"price","type":"uint256"},{"indexed":false,"internalType":"address","name":"setter","type":"address"}],"name":"EmergencyPriceSet","type":"event"},{"anonymous":false,"inputs":[{"indexed":true,"internalType":"address","name":"previousOwner","type":"address"},{"indexed":true,"internalType":"address","name":"newOwner","type":"address"}],"name":"OwnershipTransferred","type":"event"},{"anonymous":false,"inputs":[{"indexed":false,"internalType":"uint256","name":"price","type":"uint256"},{"indexed":false,"internalType":"uint256","name":"timestamp","type":"uint256"},{"indexed":false,"internalType":"uint256","name":"sources","type":"uint256"}],"name":"PriceAggregated","type":"event"},{"anonymous":false,"inputs":[{"indexed":false,"internalType":"address","name":"source","type":"address"},{"indexed":false,"internalType":"uint256","name":"weight","type":"uint256"}],"name":"PriceSourceAdded","type":"event"},{"anonymous":false,"inputs":[{"indexed":false,"internalType":"address","name":"source","type":"address"},{"indexed":false,"internalType":"uint256","name":"price","type":"uint256"},{"indexed":false,"internalType":"uint256","name":"timestamp","type":"uint256"}],"name":"PriceSourceUpdated","type":"event"},{"inputs":[],"name":"MAX_PRICE_DEVIATION","outputs":[{"internalType":"uint256","name":"","type":"uint256"}],"stateMutability":"view","type":"function"},{"inputs":[],"name":"PRICE_PRECISION","outputs":[{"internalType":"uint256","name":"","type":"uint256"}],"stateMutability":"view","type":"function"},{"inputs":[],"name":"UPDATE_THRESHOLD","outputs":[{"internalType":"uint256","name":"","type":"uint256"}],"stateMutability":"view","type":"function"},{"inputs":[{"internalType":"uint256","name":"","type":"uint256"}],"name":"activeSources","outputs":[{"internalType":"address","name":"","type":"address"}],"stateMutability":"view","type":"function"},{"inputs":[{"internalType":"address","name":"source","type":"address"},{"internalType":"uint256","name":"weight","type":"uint256"}],"name":"addPriceSource","outputs":[],"stateMutability":"nonpayable","type":"function"},{"inputs":[],"name":"currentPrice","outputs":[{"internalType":"uint256","name":"aggregatedPrice","type":"uint256"},{"internalType":"uint256","name":"lastUpdate","type":"uint256"},{"internalType":"uint256","name":"totalSources","type":"uint256"},{"internalType":"bool","name":"isValid","type":"bool"}],"stateMutability":"view","type":"function"},{"inputs":[{"internalType":"address","name":"source","type":"address"}],"name":"deactivateSource","outputs":[],"stateMutability":"nonpayable","type":"function"},{"inputs":[],"name":"getActiveSources","outputs":[{"internalType":"address[]","name":"","type":"address[]"}],"stateMutability":"view","type":"function"},{"inputs":[],"name":"getRequiredVMFForDollar","outputs":[{"internalType":"uint256","name":"","type":"uint256"}],"stateMutability":"view","type":"function"},{"inputs":[{"internalType":"address","name":"source","type":"address"}],"name":"getSourceData","outputs":[{"internalType":"uint256","name":"price","type":"uint256"},{"internalType":"uint256","name":"timestamp","type":"uint256"},{"internalType":"bool","name":"isActive","type":"bool"},{"internalType":"uint256","name":"weight","type":"uint256"}],"stateMutability":"view","type":"function"},{"inputs":[],"name":"getVMFPrice","outputs":[{"internalType":"uint256","name":"","type":"uint256"}],"stateMutability":"view","type":"function"},{"inputs":[],"name":"owner","outputs":[{"internalType":"address","name":"","type":"address"}],"stateMutability":"view","type":"function"},{"inputs":[{"internalType":"address","name":"","type":"address"}],"name":"priceSources","outputs":[{"internalType":"address","name":"source","type":"address"},{"internalType":"uint256","name":"price","type":"uint256"},{"internalType":"uint256","name":"timestamp","type":"uint256"},{"internalType":"bool","name":"isActive","type":"bool"},{"internalType":"uint256","name":"weight","type":"uint256"}],"stateMutability":"view","type":"function"},{"inputs":[],"name":"renounceOwnership","outputs":[],"stateMutability":"nonpayable","type":"function"},{"inputs":[{"internalType":"uint256","name":"_price","type":"uint256"}],"name":"setEmergencyPrice","outputs":[],"stateMutability":"nonpayable","type":"function"},{"inputs":[{"internalType":"address","name":"newOwner","type":"address"}],"name":"transferOwnership","outputs":[],"stateMutability":"nonpayable","type":"function"},{"inputs":[{"internalType":"address","name":"source","type":"address"},{"internalType":"uint256","name":"price","type":"uint256"}],"name":"updatePriceFromSource","outputs":[],"stateMutability":"nonpayable","type":"function"}],"evm":{"bytecode":{"linkReferences":{},"object":"608080604052346100e25733156100cc5760008054336001600160a01b031982168117835560405192916001600160a01b03167f8be0079c531659141344cd1fd0a4f28419497f9722a3daafe3b4186f6b6457e08380a360808201906001600160401b038211838310176100b8575060405260016060670de0b6b3a7640000928381524260208201528260408201520152600355426004556001600555600160ff196006541617600655604051610df290816100e88239f35b634e487b7160e01b81526041600452602490fd5b631e4fbdf760e01b815260006004820152602490fd5b600080fdfe608060408181526004908136101561001657600080fd5b600092833560e01c9081630d4d47ea146108d6575080630d73ebb5146108865780632e17b8d61461081c57806338383028146107db578063715018a61461078157806378e23d3c146106f65780638da5cb5b146106ce5780638f09c857146106aa57806392551c6a146105b757806395082d251461059457806396f277b71461057857806399f91f4f1461055b5780639d1b464a1461051f578063cfa481741461037e578063d6c8d141146101f1578063f2fde38b1461016a5763f3038e74146100df57600080fd5b3461016657602036600319011261016657817fb0e99c124a03b374a88ef4b1e43ee72321daf2b9d6a80175cb987054d12db1d292359061011d610c39565b6002549060016060855161013081610b35565b8581524260208201528487820152015282600355429055600555600160ff1960065416176006558151908152336020820152a180f35b8280fd5b50903461016657602036600319011261016657610185610aad565b9061018e610c39565b6001600160a01b039182169283156101db57505082546001600160a01b0319811683178455167f8be0079c531659141344cd1fd0a4f28419497f9722a3daafe3b4186f6b6457e08380a380f35b51631e4fbdf760e01b8152908101849052602490fd5b5091903461037a57602036600319011261037a5761020d610aad565b90610216610c39565b60018060a01b0380921690818452600192600160205260039260ff600388882001541615610337578086526001602052958520600301805460ff1916905593949385845b610262578680f35b600280548083101561033157878461027985610ac8565b905490891b1c161461028f57505084018461025a565b939294965094506000199283810190811161031e57906102c2856102b56102e094610ac8565b9054908a1b1c1691610ac8565b90919060018060a01b038084549260031b9316831b921b1916179055565b835490811561030b575001926102f584610ac8565b81939154921b1b19169055553880808080808680f35b634e487b7160e01b875260319052602486fd5b634e487b7160e01b885260118352602488fd5b50508680f35b865162461bcd60e51b8152602081850152601760248201527f536f7572636520616c726561647920696e6163746976650000000000000000006044820152606490fd5b5080fd5b5082903461037a578060031936011261037a57610399610aad565b6024356103a4610c39565b6001600160a01b03828116929083156104e35782156104a057868551916103ca83610b67565b858352602083018881528784018981526060850191600183526080860193888552898c5260016020528a8c209651166bffffffffffffffffffffffff60a01b875416178655516001860155516002850155600384019051151560ff80198354169116179055519101556002546801000000000000000081101561048d577f3983bec53b05d9b1bbb58e41433b2efbdcc63d017e67a5403de9a6c6330cdaed959650906102c282600161047f9401600255610ac8565b82519182526020820152a180f35b634e487b7160e01b865260418752602486fd5b845162461bcd60e51b8152602081890152601760248201527f576569676874206d75737420626520706f7369746976650000000000000000006044820152606490fd5b845162461bcd60e51b81526020818901526016602482015275496e76616c696420736f75726365206164647265737360501b6044820152606490fd5b5034610166578260031936011261016657608092506003549154906005549060ff60065416928151948552602085015283015215156060820152f35b83823461037a578160031936011261037a576020905161012c8152f35b83823461037a578160031936011261037a576020905160328152f35b83823461037a578160031936011261037a5760209051670de0b6b3a76400008152f35b5082346106a757806003193601126106a757815180916002549384835260208093018095600284527f405787fa12a823e0f2b7631cc41b3ba8828b3321ca811111fa75cd3aa3bb5ace90845b8682821061068a5750505050849003601f01601f191684019567ffffffffffffffff871185881017610677575085815282865292518583018190528594938501939290915b82811061065757505050500390f35b83516001600160a01b031685528695509381019392810192600101610648565b634e487b7160e01b835260419052602482fd5b83546001600160a01b031685529093019260019283019201610603565b80fd5b83823461037a578160031936011261037a576020906106c7610ba6565b9051908152f35b83823461037a578160031936011261037a57905490516001600160a01b039091168152602090f35b5034610166576020366003190112610166576080926001600160a01b039284929091819085610723610aad565b1681526001602052209181519461073986610b67565b8354168552600183015494856020820152600284015491828483015260ff60038601541615159485606084015201549485910152815194855260208501528301526060820152f35b83346106a757806003193601126106a75761079a610c39565b80546001600160a01b03198116825581906001600160a01b03167f8be0079c531659141344cd1fd0a4f28419497f9722a3daafe3b4186f6b6457e08280a380f35b5090346101665760203660031901126101665735916002548310156106a75750610806602092610ac8565b905491519160018060a01b039160031b1c168152f35b50346101665760203660031901126101665760a0926001600160a01b0390829082610845610aad565b168152600160205220908154169260018201549260028301549160ff6003850154169301549381519586526020860152840152151560608301526080820152f35b5082903461037a578160031936011261037a576108a1610ba6565b9182156108c3576020838351906ec097ce7bc90715b34b9f1000000000048152f35b634e487b7160e01b815260128452602490fd5b90508391346101665780600319360112610166576108f2610aad565b6001600160a01b0316808452600160209081528285206003015490936024359160ff1615610a7857508015610a455760ff600654166109ee575b6060927f49f162bd762594346b701cfd5aa346562d454ccb224357be2ecd5ee7f4b26bc6848489947f7e9fd81f4a416989279df6f85d21e1ced31d67d4cb93ff83c2b9e07e8900ffe598968a5260018752848a208160018201556002429101558451918252868201524284820152a16109a3610c65565b926002549260018684516109b681610b35565b8781524285820152868682015201528460035542905582600555600160ff19600654161760065581519384524290840152820152a180f35b60326109fc60035483610beb565b111561092c57825162461bcd60e51b8152808701859052601860248201527f507269636520646576696174696f6e20746f6f206869676800000000000000006044820152606490fd5b825162461bcd60e51b8152808701859052600d60248201526c496e76616c696420707269636560981b6044820152606490fd5b62461bcd60e51b81528681018590526011602482015270536f75726365206e6f742061637469766560781b6044820152606490fd5b600435906001600160a01b0382168203610ac357565b600080fd5b600254811015610aff5760026000527f405787fa12a823e0f2b7631cc41b3ba8828b3321ca811111fa75cd3aa3bb5ace0190600090565b634e487b7160e01b600052603260045260246000fd5b8115610b1f570490565b634e487b7160e01b600052601260045260246000fd5b6080810190811067ffffffffffffffff821117610b5157604052565b634e487b7160e01b600052604160045260246000fd5b60a0810190811067ffffffffffffffff821117610b5157604052565b91908201809211610b9057565b634e487b7160e01b600052601160045260246000fd5b60ff6006541680610bc7575b610bc157610bbe610c65565b90565b60035490565b5060045461012c8101809111610b90574210610bb2565b91908203918211610b9057565b818114610c32578180821115610c2257610c0491610bde565b905b606482029180830460641490151715610b9057610bbe91610b15565b90610c2c91610bde565b90610c06565b5050600090565b6000546001600160a01b03163303610c4d57565b60405163118cdaa760e01b8152336004820152602490fd5b60028054908115610c915760009182918391845b818110610c995750505015610c9157610bbe91610b15565b505060035490565b610ca281610ac8565b60018060a01b03809254600392831b1c1660005260016020818152604060ff8160002094825196610cd288610b67565b865416875284860154938701938452898601548093880152850154161515908160608701526080600480960154960195865281610d91575b50610d1c575b50505050600101610c79565b9890939692989791975190895191828102928184041490151715610d7c57610d509291610d4891610b83565b985190610b83565b956000198214610d67575001926001388080610d10565b601190634e487b7160e01b6000525260246000fd5b601189634e487b7160e01b6000525260246000fd5b905061012c8101809111610da757421038610d0a565b601184634e487b7160e01b6000525260246000fdfea2646970667358221220b0088edaddb6da697eeca081720352a8ac1ec2dc2d54d85d9ae2f5464df3708a64736f6c63430008180033","opcodes":"PUSH1 0x80 DUP1 PUSH1 0x40 MSTORE CALLVALUE PUSH2 0xE2 JUMPI CALLER ISZERO PUSH2 0xCC JUMPI PUSH1 0x0 DUP1 SLOAD CALLER PUSH1 0x1 PUSH1 0x1 PUSH1 0xA0 SHL SUB NOT DUP3 AND DUP2 OR DUP4 SSTORE PUSH1 0x40 MLOAD SWAP3 SWAP2 PUSH1 0x1 PUSH1 0x1 PUSH1 0xA0 SHL SUB AND PUSH32 0x8BE0079C531659141344CD1FD0A4F28419497F9722A3DAAFE3B4186F6B6457E0 DUP4 DUP1 LOG3 PUSH1 0x80 DUP3 ADD SWAP1 PUSH1 0x1 PUSH1 0x1 PUSH1 0x40 SHL SUB DUP3 GT DUP4 DUP4 LT OR PUSH2 0xB8 JUMPI POP PUSH1 0x40 MSTORE PUSH1 0x1 PUSH1 0x60 PUSH8 0xDE0B6B3A7640000 SWAP3 DUP4 DUP2 MSTORE TIMESTAMP PUSH1 0x20 DUP3 ADD MSTORE DUP3 PUSH1 0x40 DUP3 ADD MSTORE ADD MSTORE PUSH1 0x3 SSTORE TIMESTAMP PUSH1 0x4 SSTORE PUSH1 0x1 PUSH1 0x5 SSTORE PUSH1 0x1 PUSH1 0xFF NOT PUSH1 0x6 SLOAD AND OR PUSH1 0x6 SSTORE PUSH1 0x40 MLOAD PUSH2 0xDF2 SWAP1 DUP2 PUSH2 0xE8 DUP3 CODECOPY RETURN JUMPDEST PUSH4 0x4E487B71 PUSH1 0xE0 SHL DUP2 MSTORE PUSH1 0x41 PUSH1 0x4 MSTORE PUSH1 0x24 SWAP1 REVERT JUMPDEST PUSH4 0x1E4FBDF7 PUSH1 0xE0 SHL DUP2 MSTORE PUSH1 0x0 PUSH1 0x4 DUP3 ADD MSTORE PUSH1 0x24 SWAP1 REVERT JUMPDEST PUSH1 0x0 DUP1 REVERT INVALID PUSH1 0x80 PUSH1 0x40 DUP2 DUP2 MSTORE PUSH1 0x4 SWAP1 DUP2 CALLDATASIZE LT ISZERO PUSH2 0x16 JUMPI PUSH1 0x0 DUP1 REVERT JUMPDEST PUSH1 0x0 SWAP3 DUP4 CALLDATALOAD PUSH1 0xE0 SHR SWAP1 DUP2 PUSH4 0xD4D47EA EQ PUSH2 0x8D6 JUMPI POP DUP1 PUSH4 0xD73EBB5 EQ PUSH2 0x886 JUMPI DUP1 PUSH4 0x2E17B8D6 EQ PUSH2 0x81C JUMPI DUP1 PUSH4 0x38383028 EQ PUSH2 0x7DB JUMPI DUP1 PUSH4 0x715018A6 EQ PUSH2 0x781 JUMPI DUP1 PUSH4 0x78E23D3C EQ PUSH2 0x6F6 JUMPI DUP1 PUSH4 0x8DA5CB5B EQ PUSH2 0x6CE JUMPI DUP1 PUSH4 0x8F09C857 EQ PUSH2 0x6AA JUMPI DUP1 PUSH4 0x92551C6A EQ PUSH2 0x5B7 JUMPI DUP1 PUSH4 0x95082D25 EQ PUSH2 0x594 JUMPI DUP1 PUSH4 0x96F277B7 EQ PUSH2 0x578 JUMPI DUP1 PUSH4 0x99F91F4F EQ PUSH2 0x55B JUMPI DUP1 PUSH4 0x9D1B464A EQ PUSH2 0x51F JUMPI DUP1 PUSH4 0xCFA48174 EQ PUSH2 0x37E JUMPI DUP1 PUSH4 0xD6C8D141 EQ PUSH2 0x1F1 JUMPI DUP1 PUSH4 0xF2FDE38B EQ PUSH2 0x16A JUMPI PUSH4 0xF3038E74 EQ PUSH2 0xDF JUMPI PUSH1 0x0 DUP1 REVERT JUMPDEST CALLVALUE PUSH2 0x166 JUMPI PUSH1 0x20 CALLDATASIZE PUSH1 0x3 NOT ADD SLT PUSH2 0x166 JUMPI DUP2 PUSH32 0xB0E99C124A03B374A88EF4B1E43EE72321DAF2B9D6A80175CB987054D12DB1D2 SWAP3 CALLDATALOAD SWAP1 PUSH2 0x11D PUSH2 0xC39 JUMP JUMPDEST PUSH1 0x2 SLOAD SWAP1 PUSH1 0x1 PUSH1 0x60 DUP6 MLOAD PUSH2 0x130 DUP2 PUSH2 0xB35 JUMP JUMPDEST DUP6 DUP2 MSTORE TIMESTAMP PUSH1 0x20 DUP3 ADD MSTORE DUP5 DUP8 DUP3 ADD MSTORE ADD MSTORE DUP3 PUSH1 0x3 SSTORE TIMESTAMP SWAP1 SSTORE PUSH1 0x5 SSTORE PUSH1 0x1 PUSH1 0xFF NOT PUSH1 0x6 SLOAD AND OR PUSH1 0x6 SSTORE DUP2 MLOAD SWAP1 DUP2 MSTORE CALLER PUSH1 0x20 DUP3 ADD MSTORE LOG1 DUP1 RETURN JUMPDEST DUP3 DUP1 REVERT JUMPDEST POP SWAP1 CALLVALUE PUSH2 0x166 JUMPI PUSH1 0x20 CALLDATASIZE PUSH1 0x3 NOT ADD SLT PUSH2 0x166 JUMPI PUSH2 0x185 PUSH2 0xAAD JUMP JUMPDEST SWAP1 PUSH2 0x18E PUSH2 0xC39 JUMP JUMPDEST PUSH1 0x1 PUSH1 0x1 PUSH1 0xA0 SHL SUB SWAP2 DUP3 AND SWAP3 DUP4 ISZERO PUSH2 0x1DB JUMPI POP POP DUP3 SLOAD PUSH1 0x1 PUSH1 0x1 PUSH1 0xA0 SHL SUB NOT DUP2 AND DUP4 OR DUP5 SSTORE AND PUSH32 0x8BE0079C531659141344CD1FD0A4F28419497F9722A3DAAFE3B4186F6B6457E0 DUP4 DUP1 LOG3 DUP1 RETURN JUMPDEST MLOAD PUSH4 0x1E4FBDF7 PUSH1 0xE0 SHL DUP2 MSTORE SWAP1 DUP2 ADD DUP5 SWAP1 MSTORE PUSH1 0x24 SWAP1 REVERT JUMPDEST POP SWAP2 SWAP1 CALLVALUE PUSH2 0x37A JUMPI PUSH1 0x20 CALLDATASIZE PUSH1 0x3 NOT ADD SLT PUSH2 0x37A JUMPI PUSH2 0x20D PUSH2 0xAAD JUMP JUMPDEST SWAP1 PUSH2 0x216 PUSH2 0xC39 JUMP JUMPDEST PUSH1 0x1 DUP1 PUSH1 0xA0 SHL SUB DUP1 SWAP3 AND SWAP1 DUP2 DUP5 MSTORE PUSH1 0x1 SWAP3 PUSH1 0x1 PUSH1 0x20 MSTORE PUSH1 0x3 SWAP3 PUSH1 0xFF PUSH1 0x3 DUP9 DUP9 KECCAK256 ADD SLOAD AND ISZERO PUSH2 0x337 JUMPI DUP1 DUP7 MSTORE PUSH1 0x1 PUSH1 0x20 MSTORE SWAP6 DUP6 KECCAK256 PUSH1 0x3 ADD DUP1 SLOAD PUSH1 0xFF NOT AND SWAP1 SSTORE SWAP4 SWAP5 SWAP4 DUP6 DUP5 JUMPDEST PUSH2 0x262 JUMPI DUP7 DUP1 RETURN JUMPDEST PUSH1 0x2 DUP1 SLOAD DUP1 DUP4 LT ISZERO PUSH2 0x331 JUMPI DUP8 DUP5 PUSH2 0x279 DUP6 PUSH2 0xAC8 JUMP JUMPDEST SWAP1 SLOAD SWAP1 DUP10 SHL SHR AND EQ PUSH2 0x28F JUMPI POP POP DUP5 ADD DUP5 PUSH2 0x25A JUMP JUMPDEST SWAP4 SWAP3 SWAP5 SWAP7 POP SWAP5 POP PUSH1 0x0 NOT SWAP3 DUP4 DUP2 ADD SWAP1 DUP2 GT PUSH2 0x31E JUMPI SWAP1 PUSH2 0x2C2 DUP6 PUSH2 0x2B5 PUSH2 0x2E0 SWAP5 PUSH2 0xAC8 JUMP JUMPDEST SWAP1 SLOAD SWAP1 DUP11 SHL SHR AND SWAP2 PUSH2 0xAC8 JUMP JUMPDEST SWAP1 SWAP2 SWAP1 PUSH1 0x1 DUP1 PUSH1 0xA0 SHL SUB DUP1 DUP5 SLOAD SWAP3 PUSH1 0x3 SHL SWAP4 AND DUP4 SHL SWAP3 SHL NOT AND OR SWAP1 SSTORE JUMP JUMPDEST DUP4 SLOAD SWAP1 DUP2 ISZERO PUSH2 0x30B JUMPI POP ADD SWAP3 PUSH2 0x2F5 DUP5 PUSH2 0xAC8 JUMP JUMPDEST DUP2 SWAP4 SWAP2 SLOAD SWAP3 SHL SHL NOT AND SWAP1 SSTORE SSTORE CODESIZE DUP1 DUP1 DUP1 DUP1 DUP1 DUP7 DUP1 RETURN JUMPDEST PUSH4 0x4E487B71 PUSH1 0xE0 SHL DUP8 MSTORE PUSH1 0x31 SWAP1 MSTORE PUSH1 0x24 DUP7 REVERT JUMPDEST PUSH4 0x4E487B71 PUSH1 0xE0 SHL DUP9 MSTORE PUSH1 0x11 DUP4 MSTORE PUSH1 0x24 DUP9 REVERT JUMPDEST POP POP DUP7 DUP1 RETURN JUMPDEST DUP7 MLOAD PUSH3 0x461BCD PUSH1 0xE5 SHL DUP2 MSTORE PUSH1 0x20 DUP2 DUP6 ADD MSTORE PUSH1 0x17 PUSH1 0x24 DUP3 ADD MSTORE PUSH32 0x536F7572636520616C726561647920696E616374697665000000000000000000 PUSH1 0x44 DUP3 ADD MSTORE PUSH1 0x64 SWAP1 REVERT JUMPDEST POP DUP1 REVERT JUMPDEST POP DUP3 SWAP1 CALLVALUE PUSH2 0x37A JUMPI DUP1 PUSH1 0x3 NOT CALLDATASIZE ADD SLT PUSH2 0x37A JUMPI PUSH2 0x399 PUSH2 0xAAD JUMP JUMPDEST PUSH1 0x24 CALLDATALOAD PUSH2 0x3A4 PUSH2 0xC39 JUMP JUMPDEST PUSH1 0x1 PUSH1 0x1 PUSH1 0xA0 SHL SUB DUP3 DUP2 AND SWAP3 SWAP1 DUP4 ISZERO PUSH2 0x4E3 JUMPI DUP3 ISZERO PUSH2 0x4A0 JUMPI DUP7 DUP6 MLOAD SWAP2 PUSH2 0x3CA DUP4 PUSH2 0xB67 JUMP JUMPDEST DUP6 DUP4 MSTORE PUSH1 0x20 DUP4 ADD DUP9 DUP2 MSTORE DUP8 DUP5 ADD DUP10 DUP2 MSTORE PUSH1 0x60 DUP6 ADD SWAP2 PUSH1 0x1 DUP4 MSTORE PUSH1 0x80 DUP7 ADD SWAP4 DUP9 DUP6 MSTORE DUP10 DUP13 MSTORE PUSH1 0x1 PUSH1 0x20 MSTORE DUP11 DUP13 KECCAK256 SWAP7 MLOAD AND PUSH12 0xFFFFFFFFFFFFFFFFFFFFFFFF PUSH1 0xA0 SHL DUP8 SLOAD AND OR DUP7 SSTORE MLOAD PUSH1 0x1 DUP7 ADD SSTORE MLOAD PUSH1 0x2 DUP6 ADD SSTORE PUSH1 0x3 DUP5 ADD SWAP1 MLOAD ISZERO ISZERO PUSH1 0xFF DUP1 NOT DUP4 SLOAD AND SWAP2 AND OR SWAP1 SSTORE MLOAD SWAP2 ADD SSTORE PUSH1 0x2 SLOAD PUSH9 0x10000000000000000 DUP2 LT ISZERO PUSH2 0x48D JUMPI PUSH32 0x3983BEC53B05D9B1BBB58E41433B2EFBDCC63D017E67A5403DE9A6C6330CDAED SWAP6 SWAP7 POP SWAP1 PUSH2 0x2C2 DUP3 PUSH1 0x1 PUSH2 0x47F SWAP5 ADD PUSH1 0x2 SSTORE PUSH2 0xAC8 JUMP JUMPDEST DUP3 MLOAD SWAP2 DUP3 MSTORE PUSH1 0x20 DUP3 ADD MSTORE LOG1 DUP1 RETURN JUMPDEST PUSH4 0x4E487B71 PUSH1 0xE0 SHL DUP7 MSTORE PUSH1 0x41 DUP8 MSTORE PUSH1 0x24 DUP7 REVERT JUMPDEST DUP5 MLOAD PUSH3 0x461BCD PUSH1 0xE5 SHL DUP2 MSTORE PUSH1 0x20 DUP2 DUP10 ADD MSTORE PUSH1 0x17 PUSH1 0x24 DUP3 ADD MSTORE PUSH32 0x576569676874206D75737420626520706F736974697665000000000000000000 PUSH1 0x44 DUP3 ADD MSTORE PUSH1 0x64 SWAP1 REVERT JUMPDEST DUP5 MLOAD PUSH3 0x461BCD PUSH1 0xE5 SHL DUP2 MSTORE PUSH1 0x20 DUP2 DUP10 ADD MSTORE PUSH1 0x16 PUSH1 0x24 DUP3 ADD MSTORE PUSH22 0x496E76616C696420736F757263652061646472657373 PUSH1 0x50 SHL PUSH1 0x44 DUP3 ADD MSTORE PUSH1 0x64 SWAP1 REVERT JUMPDEST POP CALLVALUE PUSH2 0x166 JUMPI DUP3 PUSH1 0x3 NOT CALLDATASIZE ADD SLT PUSH2 0x166 JUMPI PUSH1 0x80 SWAP3 POP PUSH1 0x3 SLOAD SWAP2 SLOAD SWAP1 PUSH1 0x5 SLOAD SWAP1 PUSH1 0xFF PUSH1 0x6 SLOAD AND SWAP3 DUP2 MLOAD SWAP5 DUP6 MSTORE PUSH1 0x20 DUP6 ADD MSTORE DUP4 ADD MSTORE ISZERO ISZERO PUSH1 0x60 DUP3 ADD MSTORE RETURN JUMPDEST DUP4 DUP3 CALLVALUE PUSH2 0x37A JUMPI DUP2 PUSH1 0x3 NOT CALLDATASIZE ADD SLT PUSH2 0x37A JUMPI PUSH1 0x20 SWAP1 MLOAD PUSH2 0x12C DUP2 MSTORE RETURN JUMPDEST DUP4 DUP3 CALLVALUE PUSH2 0x37A JUMPI DUP2 PUSH1 0x3 NOT CALLDATASIZE ADD SLT PUSH2 0x37A JUMPI PUSH1 0x20 SWAP1 MLOAD PUSH1 0x32 DUP2 MSTORE RETURN JUMPDEST DUP4 DUP3 CALLVALUE PUSH2 0x37A JUMPI DUP2 PUSH1 0x3 NOT CALLDATASIZE ADD SLT PUSH2 0x37A JUMPI PUSH1 0x20 SWAP1 MLOAD PUSH8 0xDE0B6B3A7640000 DUP2 MSTORE RETURN JUMPDEST POP DUP3 CALLVALUE PUSH2 0x6A7 JUMPI DUP1 PUSH1 0x3 NOT CALLDATASIZE ADD SLT PUSH2 0x6A7 JUMPI DUP2 MLOAD DUP1 SWAP2 PUSH1 0x2 SLOAD SWAP4 DUP5 DUP4 MSTORE PUSH1 0x20 DUP1 SWAP4 ADD DUP1 SWAP6 PUSH1 0x2 DUP5 MSTORE PUSH32 0x405787FA12A823E0F2B7631CC41B3BA8828B3321CA811111FA75CD3AA3BB5ACE SWAP1 DUP5 JUMPDEST DUP7 DUP3 DUP3 LT PUSH2 0x68A JUMPI POP POP POP POP DUP5 SWAP1 SUB PUSH1 0x1F ADD PUSH1 0x1F NOT AND DUP5 ADD SWAP6 PUSH8 0xFFFFFFFFFFFFFFFF DUP8 GT DUP6 DUP9 LT OR PUSH2 0x677 JUMPI POP DUP6 DUP2 MSTORE DUP3 DUP7 MSTORE SWAP3 MLOAD DUP6 DUP4 ADD DUP2 SWAP1 MSTORE DUP6 SWAP5 SWAP4 DUP6 ADD SWAP4 SWAP3 SWAP1 SWAP2 JUMPDEST DUP3 DUP2 LT PUSH2 0x657 JUMPI POP POP POP POP SUB SWAP1 RETURN JUMPDEST DUP4 MLOAD PUSH1 0x1 PUSH1 0x1 PUSH1 0xA0 SHL SUB AND DUP6 MSTORE DUP7 SWAP6 POP SWAP4 DUP2 ADD SWAP4 SWAP3 DUP2 ADD SWAP3 PUSH1 0x1 ADD PUSH2 0x648 JUMP JUMPDEST PUSH4 0x4E487B71 PUSH1 0xE0 SHL DUP4 MSTORE PUSH1 0x41 SWAP1 MSTORE PUSH1 0x24 DUP3 REVERT JUMPDEST DUP4 SLOAD PUSH1 0x1 PUSH1 0x1 PUSH1 0xA0 SHL SUB AND DUP6 MSTORE SWAP1 SWAP4 ADD SWAP3 PUSH1 0x1 SWAP3 DUP4 ADD SWAP3 ADD PUSH2 0x603 JUMP JUMPDEST DUP1 REVERT JUMPDEST DUP4 DUP3 CALLVALUE PUSH2 0x37A JUMPI DUP2 PUSH1 0x3 NOT CALLDATASIZE ADD SLT PUSH2 0x37A JUMPI PUSH1 0x20 SWAP1 PUSH2 0x6C7 PUSH2 0xBA6 JUMP JUMPDEST SWAP1 MLOAD SWAP1 DUP2 MSTORE RETURN JUMPDEST DUP4 DUP3 CALLVALUE PUSH2 0x37A JUMPI DUP2 PUSH1 0x3 NOT CALLDATASIZE ADD SLT PUSH2 0x37A JUMPI SWAP1 SLOAD SWAP1 MLOAD PUSH1 0x1 PUSH1 0x1 PUSH1 0xA0 SHL SUB SWAP1 SWAP2 AND DUP2 MSTORE PUSH1 0x20 SWAP1 RETURN JUMPDEST POP CALLVALUE PUSH2 0x166 JUMPI PUSH1 0x20 CALLDATASIZE PUSH1 0x3 NOT ADD SLT PUSH2 0x166 JUMPI PUSH1 0x80 SWAP3 PUSH1 0x1 PUSH1 0x1 PUSH1 0xA0 SHL SUB SWAP3 DUP5 SWAP3 SWAP1 SWAP2 DUP2 SWAP1 DUP6 PUSH2 0x723 PUSH2 0xAAD JUMP JUMPDEST AND DUP2 MSTORE PUSH1 0x1 PUSH1 0x20 MSTORE KECCAK256 SWAP2 DUP2 MLOAD SWAP5 PUSH2 0x739 DUP7 PUSH2 0xB67 JUMP JUMPDEST DUP4 SLOAD AND DUP6 MSTORE PUSH1 0x1 DUP4 ADD SLOAD SWAP5 DUP6 PUSH1 0x20 DUP3 ADD MSTORE PUSH1 0x2 DUP5 ADD SLOAD SWAP2 DUP3 DUP5 DUP4 ADD MSTORE PUSH1 0xFF PUSH1 0x3 DUP7 ADD SLOAD AND ISZERO ISZERO SWAP5 DUP6 PUSH1 0x60 DUP5 ADD MSTORE ADD SLOAD SWAP5 DUP6 SWAP2 ADD MSTORE DUP2 MLOAD SWAP5 DUP6 MSTORE PUSH1 0x20 DUP6 ADD MSTORE DUP4 ADD MSTORE PUSH1 0x60 DUP3 ADD MSTORE RETURN JUMPDEST DUP4 CALLVALUE PUSH2 0x6A7 JUMPI DUP1 PUSH1 0x3 NOT CALLDATASIZE ADD SLT PUSH2 0x6A7 JUMPI PUSH2 0x79A PUSH2 0xC39 JUMP JUMPDEST DUP1 SLOAD PUSH1 0x1 PUSH1 0x1 PUSH1 0xA0 SHL SUB NOT DUP2 AND DUP3 SSTORE DUP2 SWAP1 PUSH1 0x1 PUSH1 0x1 PUSH1 0xA0 SHL SUB AND PUSH32 0x8BE0079C531659141344CD1FD0A4F28419497F9722A3DAAFE3B4186F6B6457E0 DUP3 DUP1 LOG3 DUP1 RETURN JUMPDEST POP SWAP1 CALLVALUE PUSH2 0x166 JUMPI PUSH1 0x20 CALLDATASIZE PUSH1 0x3 NOT ADD SLT PUSH2 0x166 JUMPI CALLDATALOAD SWAP2 PUSH1 0x2 SLOAD DUP4 LT ISZERO PUSH2 0x6A7 JUMPI POP PUSH2 0x806 PUSH1 0x20 SWAP3 PUSH2 0xAC8 JUMP JUMPDEST SWAP1 SLOAD SWAP2 MLOAD SWAP2 PUSH1 0x1 DUP1 PUSH1 0xA0 SHL SUB SWAP2 PUSH1 0x3 SHL SHR AND DUP2 MSTORE RETURN JUMPDEST POP CALLVALUE PUSH2 0x166 JUMPI PUSH1 0x20 CALLDATASIZE PUSH1 0x3 NOT ADD SLT PUSH2 0x166 JUMPI PUSH1 0xA0 SWAP3 PUSH1 0x1 PUSH1 0x1 PUSH1 0xA0 SHL SUB SWAP1 DUP3 SWAP1 DUP3 PUSH2 0x845 PUSH2 0xAAD JUMP JUMPDEST AND DUP2 MSTORE PUSH1 0x1 PUSH1 0x20 MSTORE KECCAK256 SWAP1 DUP2 SLOAD AND SWAP3 PUSH1 0x1 DUP3 ADD SLOAD SWAP3 PUSH1 0x2 DUP4 ADD SLOAD SWAP2 PUSH1 0xFF PUSH1 0x3 DUP6 ADD SLOAD AND SWAP4 ADD SLOAD SWAP4 DUP2 MLOAD SWAP6 DUP7 MSTORE PUSH1 0x20 DUP7 ADD MSTORE DUP5 ADD MSTORE ISZERO ISZERO PUSH1 0x60 DUP4 ADD MSTORE PUSH1 0x80 DUP3 ADD MSTORE RETURN JUMPDEST POP DUP3 SWAP1 CALLVALUE PUSH2 0x37A JUMPI DUP2 PUSH1 0x3 NOT CALLDATASIZE ADD SLT PUSH2 0x37A JUMPI PUSH2 0x8A1 PUSH2 0xBA6 JUMP JUMPDEST SWAP2 DUP3 ISZERO PUSH2 0x8C3 JUMPI PUSH1 0x20 DUP4 DUP4 MLOAD SWAP1 PUSH15 0xC097CE7BC90715B34B9F1000000000 DIV DUP2 MSTORE RETURN JUMPDEST PUSH4 0x4E487B71 PUSH1 0xE0 SHL DUP2 MSTORE PUSH1 0x12 DUP5 MSTORE PUSH1 0x24 SWAP1 REVERT JUMPDEST SWAP1 POP DUP4 SWAP2 CALLVALUE PUSH2 0x166 JUMPI DUP1 PUSH1 0x3 NOT CALLDATASIZE ADD SLT PUSH2 0x166 JUMPI PUSH2 0x8F2 PUSH2 0xAAD JUMP JUMPDEST PUSH1 0x1 PUSH1 0x1 PUSH1 0xA0 SHL SUB AND DUP1 DUP5 MSTORE PUSH1 0x1 PUSH1 0x20 SWAP1 DUP2 MSTORE DUP3 DUP6 KECCAK256 PUSH1 0x3 ADD SLOAD SWAP1 SWAP4 PUSH1 0x24 CALLDATALOAD SWAP2 PUSH1 0xFF AND ISZERO PUSH2 0xA78 JUMPI POP DUP1 ISZERO PUSH2 0xA45 JUMPI PUSH1 0xFF PUSH1 0x6 SLOAD AND PUSH2 0x9EE JUMPI JUMPDEST PUSH1 0x60 SWAP3 PUSH32 0x49F162BD762594346B701CFD5AA346562D454CCB224357BE2ECD5EE7F4B26BC6 DUP5 DUP5 DUP10 SWAP5 PUSH32 0x7E9FD81F4A416989279DF6F85D21E1CED31D67D4CB93FF83C2B9E07E8900FFE5 SWAP9 SWAP7 DUP11 MSTORE PUSH1 0x1 DUP8 MSTORE DUP5 DUP11 KECCAK256 DUP2 PUSH1 0x1 DUP3 ADD SSTORE PUSH1 0x2 TIMESTAMP SWAP2 ADD SSTORE DUP5 MLOAD SWAP2 DUP3 MSTORE DUP7 DUP3 ADD MSTORE TIMESTAMP DUP5 DUP3 ADD MSTORE LOG1 PUSH2 0x9A3 PUSH2 0xC65 JUMP JUMPDEST SWAP3 PUSH1 0x2 SLOAD SWAP3 PUSH1 0x1 DUP7 DUP5 MLOAD PUSH2 0x9B6 DUP2 PUSH2 0xB35 JUMP JUMPDEST DUP8 DUP2 MSTORE TIMESTAMP DUP6 DUP3 ADD MSTORE DUP7 DUP7 DUP3 ADD MSTORE ADD MSTORE DUP5 PUSH1 0x3 SSTORE TIMESTAMP SWAP1 SSTORE DUP3 PUSH1 0x5 SSTORE PUSH1 0x1 PUSH1 0xFF NOT PUSH1 0x6 SLOAD AND OR PUSH1 0x6 SSTORE DUP2 MLOAD SWAP4 DUP5 MSTORE TIMESTAMP SWAP1 DUP5 ADD MSTORE DUP3 ADD MSTORE LOG1 DUP1 RETURN JUMPDEST PUSH1 0x32 PUSH2 0x9FC PUSH1 0x3 SLOAD DUP4 PUSH2 0xBEB JUMP JUMPDEST GT ISZERO PUSH2 0x92C JUMPI DUP3 MLOAD PUSH3 0x461BCD PUSH1 0xE5 SHL DUP2 MSTORE DUP1 DUP8 ADD DUP6 SWAP1 MSTORE PUSH1 0x18 PUSH1 0x24 DUP3 ADD MSTORE PUSH32 0x507269636520646576696174696F6E20746F6F20686967680000000000000000 PUSH1 0x44 DUP3 ADD MSTORE PUSH1 0x64 SWAP1 REVERT JUMPDEST DUP3 MLOAD PUSH3 0x461BCD PUSH1 0xE5 SHL DUP2 MSTORE DUP1 DUP8 ADD DUP6 SWAP1 MSTORE PUSH1 0xD PUSH1 0x24 DUP3 ADD MSTORE PUSH13 0x496E76616C6964207072696365 PUSH1 0x98 SHL PUSH1 0x44 DUP3 ADD MSTORE PUSH1 0x64 SWAP1 REVERT JUMPDEST PUSH3 0x461BCD PUSH1 0xE5 SHL DUP2 MSTORE DUP7 DUP2 ADD DUP6 SWAP1 MSTORE PUSH1 0x11 PUSH1 0x24 DUP3 ADD MSTORE PUSH17 0x536F75726365206E6F7420616374697665 PUSH1 0x78 SHL PUSH1 0x44 DUP3 ADD MSTORE PUSH1 0x64 SWAP1 REVERT JUMPDEST PUSH1 0x4 CALLDATALOAD SWAP1 PUSH1 0x1 PUSH1 0x1 PUSH1 0xA0 SHL SUB DUP3 AND DUP3 SUB PUSH2 0xAC3 JUMPI JUMP JUMPDEST PUSH1 0x0 DUP1 REVERT JUMPDEST PUSH1 0x2 SLOAD DUP2 LT ISZERO PUSH2 0xAFF JUMPI PUSH1 0x2 PUSH1 0x0 MSTORE PUSH32 0x405787FA12A823E0F2B7631CC41B3BA8828B3321CA811111FA75CD3AA3BB5ACE ADD SWAP1 PUSH1 0x0 SWAP1 JUMP JUMPDEST PUSH4 0x4E487B71 PUSH1 0xE0 SHL PUSH1 0x0 MSTORE PUSH1 0x32 PUSH1 0x4 MSTORE PUSH1 0x24 PUSH1 0x0 REVERT JUMPDEST DUP2 ISZERO PUSH2 0xB1F JUMPI DIV SWAP1 JUMP JUMPDEST PUSH4 0x4E487B71 PUSH1 0xE0 SHL PUSH1 0x0 MSTORE PUSH1 0x12 PUSH1 0x4 MSTORE PUSH1 0x24 PUSH1 0x0 REVERT JUMPDEST PUSH1 0x80 DUP2 ADD SWAP1 DUP2 LT PUSH8 0xFFFFFFFFFFFFFFFF DUP3 GT OR PUSH2 0xB51 JUMPI PUSH1 0x40 MSTORE JUMP JUMPDEST PUSH4 0x4E487B71 PUSH1 0xE0 SHL PUSH1 0x0 MSTORE PUSH1 0x41 PUSH1 0x4 MSTORE PUSH1 0x24 PUSH1 0x0 REVERT JUMPDEST PUSH1 0xA0 DUP2 ADD SWAP1 DUP2 LT PUSH8 0xFFFFFFFFFFFFFFFF DUP3 GT OR PUSH2 0xB51 JUMPI PUSH1 0x40 MSTORE JUMP JUMPDEST SWAP2 SWAP1 DUP3 ADD DUP1 SWAP3 GT PUSH2 0xB90 JUMPI JUMP JUMPDEST PUSH4 0x4E487B71 PUSH1 0xE0 SHL PUSH1 0x0 MSTORE PUSH1 0x11 PUSH1 0x4 MSTORE PUSH1 0x24 PUSH1 0x0 REVERT JUMPDEST PUSH1 0xFF PUSH1 0x6 SLOAD AND DUP1 PUSH2 0xBC7 JUMPI JUMPDEST PUSH2 0xBC1 JUMPI PUSH2 0xBBE PUSH2 0xC65 JUMP JUMPDEST SWAP1 JUMP JUMPDEST PUSH1 0x3 SLOAD SWAP1 JUMP JUMPDEST POP PUSH1 0x4 SLOAD PUSH2 0x12C DUP2 ADD DUP1 SWAP2 GT PUSH2 0xB90 JUMPI TIMESTAMP LT PUSH2 0xBB2 JUMP JUMPDEST SWAP2 SWAP1 DUP3 SUB SWAP2 DUP3 GT PUSH2 0xB90 JUMPI JUMP JUMPDEST DUP2 DUP2 EQ PUSH2 0xC32 JUMPI DUP2 DUP1 DUP3 GT ISZERO PUSH2 0xC22 JUMPI PUSH2 0xC04 SWAP2 PUSH2 0xBDE JUMP JUMPDEST SWAP1 JUMPDEST PUSH1 0x64 DUP3 MUL SWAP2 DUP1 DUP4 DIV PUSH1 0x64 EQ SWAP1 ISZERO OR ISZERO PUSH2 0xB90 JUMPI PUSH2 0xBBE SWAP2 PUSH2 0xB15 JUMP JUMPDEST SWAP1 PUSH2 0xC2C SWAP2 PUSH2 0xBDE JUMP JUMPDEST SWAP1 PUSH2 0xC06 JUMP JUMPDEST POP POP PUSH1 0x0 SWAP1 JUMP JUMPDEST PUSH1 0x0 SLOAD PUSH1 0x1 PUSH1 0x1 PUSH1 0xA0 SHL SUB AND CALLER SUB PUSH2 0xC4D JUMPI JUMP JUMPDEST PUSH1 0x40 MLOAD PUSH4 0x118CDAA7 PUSH1 0xE0 SHL DUP2 MSTORE CALLER PUSH1 0x4 DUP3 ADD MSTORE PUSH1 0x24 SWAP1 REVERT JUMPDEST PUSH1 0x2 DUP1 SLOAD SWAP1 DUP2 ISZERO PUSH2 0xC91 JUMPI PUSH1 0x0 SWAP2 DUP3 SWAP2 DUP4 SWAP2 DUP5 JUMPDEST DUP2 DUP2 LT PUSH2 0xC99 JUMPI POP POP POP ISZERO PUSH2 0xC91 JUMPI PUSH2 0xBBE SWAP2 PUSH2 0xB15 JUMP JUMPDEST POP POP PUSH1 0x3 SLOAD SWAP1 JUMP JUMPDEST PUSH2 0xCA2 DUP2 PUSH2 0xAC8 JUMP JUMPDEST PUSH1 0x1 DUP1 PUSH1 0xA0 SHL SUB DUP1 SWAP3 SLOAD PUSH1 0x3 SWAP3 DUP4 SHL SHR AND PUSH1 0x0 MSTORE PUSH1 0x1 PUSH1 0x20 DUP2 DUP2 MSTORE PUSH1 0x40 PUSH1 0xFF DUP2 PUSH1 0x0 KECCAK256 SWAP5 DUP3 MLOAD SWAP7 PUSH2 0xCD2 DUP9 PUSH2 0xB67 JUMP JUMPDEST DUP7 SLOAD AND DUP8 MSTORE DUP5 DUP7 ADD SLOAD SWAP4 DUP8 ADD SWAP4 DUP5 MSTORE DUP10 DUP7 ADD SLOAD DUP1 SWAP4 DUP9 ADD MSTORE DUP6 ADD SLOAD AND ISZERO ISZERO SWAP1 DUP2 PUSH1 0x60 DUP8 ADD MSTORE PUSH1 0x80 PUSH1 0x4 DUP1 SWAP7 ADD SLOAD SWAP7 ADD SWAP6 DUP7 MSTORE DUP2 PUSH2 0xD91 JUMPI JUMPDEST POP PUSH2 0xD1C JUMPI JUMPDEST POP POP POP POP PUSH1 0x1 ADD PUSH2 0xC79 JUMP JUMPDEST SWAP9 SWAP1 SWAP4 SWAP7 SWAP3 SWAP9 SWAP8 SWAP2 SWAP8 MLOAD SWAP1 DUP10 MLOAD SWAP2 DUP3 DUP2 MUL SWAP3 DUP2 DUP5 DIV EQ SWAP1 ISZERO OR ISZERO PUSH2 0xD7C JUMPI PUSH2 0xD50 SWAP3 SWAP2 PUSH2 0xD48 SWAP2 PUSH2 0xB83 JUMP JUMPDEST SWAP9 MLOAD SWAP1 PUSH2 0xB83 JUMP JUMPDEST SWAP6 PUSH1 0x0 NOT DUP3 EQ PUSH2 0xD67 JUMPI POP ADD SWAP3 PUSH1 0x1 CODESIZE DUP1 DUP1 PUSH2 0xD10 JUMP JUMPDEST PUSH1 0x11 SWAP1 PUSH4 0x4E487B71 PUSH1 0xE0 SHL PUSH1 0x0 MSTORE MSTORE PUSH1 0x24 PUSH1 0x0 REVERT JUMPDEST PUSH1 0x11 DUP10 PUSH4 0x4E487B71 PUSH1 0xE0 SHL PUSH1 0x0 MSTORE MSTORE PUSH1 0x24 PUSH1 0x0 REVERT JUMPDEST SWAP1 POP PUSH2 0x12C DUP2 ADD DUP1 SWAP2 GT PUSH2 0xDA7 JUMPI TIMESTAMP LT CODESIZE PUSH2 0xD0A JUMP JUMPDEST PUSH1 0x11 DUP5 PUSH4 0x4E487B71 PUSH1 0xE0 SHL PUSH1 0x0 MSTORE MSTORE PUSH1 0x24 PUSH1 0x0 REVERT INVALID LOG2 PUSH5 0x6970667358 0x22 SLT KECCAK256 0xB0 ADDMOD DUP15 0xDA 0xDD 0xB6 0xDA PUSH10 0x7EECA081720352A8AC1E 0xC2 0xDC 0x2D SLOAD 0xD8 TSTORE SWAP11 0xE2 CREATE2 CHAINID 0x4D RETURN PUSH17 0x8A64736F6C634300081800330000000000 "},"methodIdentifiers":{"MAX_PRICE_DEVIATION()":"96f277b7","PRICE_PRECISION()":"95082d25","UPDATE_THRESHOLD()":"99f91f4f","activeSources(uint256)":"38383028","addPriceSource(address,uint256)":"cfa48174","currentPrice()":"9d1b464a","deactivateSource(address)":"d6c8d141","getActiveSources()":"92551c6a","getRequiredVMFForDollar()":"0d73ebb5","getSourceData(address)":"78e23d3c","getVMFPrice()":"8f09c857","owner()":"8da5cb5b","priceSources(address)":"2e17b8d6","renounceOwnership()":"715018a6","setEmergencyPrice(uint256)":"f3038e74","transferOwnership(address)":"f2fde38b","updatePriceFromSource(address,uint256)":"0d4d47ea"}}}}}