{"contracts/PizzaParty.sol":{"PizzaParty":{"abi":[{"inputs":[{"internalType":"address","name":"_vmfToken","type":"address"},{"internalType":"address","name":"_randomnessContract","type":"address"},{"internalType":"address","name":"_priceOracle","type":"address"}],"stateMutability":"nonpayable","type":"constructor"},{"inputs":[],"name":"EnforcedPause","type":"error"},{"inputs":[],"name":"ExpectedPause","type":"error"},{"inputs":[{"internalType":"address","name":"owner","type":"address"}],"name":"OwnableInvalidOwner","type":"error"},{"inputs":[{"internalType":"address","name":"account","type":"address"}],"name":"OwnableUnauthorizedAccount","type":"error"},{"inputs":[],"name":"ReentrancyGuardReentrantCall","type":"error"},{"anonymous":false,"inputs":[{"indexed":true,"internalType":"uint256","name":"blockNumber","type":"uint256"},{"indexed":false,"internalType":"uint256","name":"totalProcessed","type":"uint256"},{"indexed":false,"internalType":"uint256","name":"totalPlayers","type":"uint256"}],"name":"BatchPlayersProcessed","type":"event"},{"anonymous":false,"inputs":[{"indexed":false,"internalType":"uint256","name":"gameId","type":"uint256"},{"indexed":false,"internalType":"address[]","name":"winners","type":"address[]"},{"indexed":false,"internalType":"uint256","name":"jackpot","type":"uint256"}],"name":"DailyWinnersSelected","type":"event"},{"anonymous":false,"inputs":[{"indexed":false,"internalType":"bool","name":"paused","type":"bool"}],"name":"EmergencyPause","type":"event"},{"anonymous":false,"inputs":[{"indexed":true,"internalType":"address","name":"contributor","type":"address"},{"indexed":false,"internalType":"bytes32","name":"entropy","type":"bytes32"},{"indexed":false,"internalType":"uint256","name":"roundId","type":"uint256"}],"name":"EntropyContributed","type":"event"},{"anonymous":false,"inputs":[{"indexed":true,"internalType":"address","name":"player","type":"address"},{"indexed":false,"internalType":"uint256","name":"amount","type":"uint256"}],"name":"FirstOrderRewardClaimed","type":"event"},{"anonymous":false,"inputs":[{"indexed":true,"internalType":"uint256","name":"gameId","type":"uint256"},{"indexed":true,"internalType":"address","name":"sender","type":"address"}],"name":"GameStateUnlocked","type":"event"},{"anonymous":false,"inputs":[{"indexed":false,"internalType":"uint256","name":"timestamp","type":"uint256"},{"indexed":false,"internalType":"uint256","name":"threshold","type":"uint256"}],"name":"GasOptimizationCompleted","type":"event"},{"anonymous":false,"inputs":[{"indexed":true,"internalType":"address","name":"player","type":"address"},{"indexed":false,"internalType":"uint256","name":"amount","type":"uint256"}],"name":"JackpotEntryAdded","type":"event"},{"anonymous":false,"inputs":[{"indexed":false,"internalType":"uint256","name":"cooldown","type":"uint256"}],"name":"JackpotUpdateCooldownSet","type":"event"},{"anonymous":false,"inputs":[{"indexed":false,"internalType":"uint256","name":"dailyJackpot","type":"uint256"},{"indexed":false,"internalType":"uint256","name":"weeklyJackpot","type":"uint256"}],"name":"JackpotUpdated","type":"event"},{"anonymous":false,"inputs":[{"indexed":true,"internalType":"uint256","name":"gameId","type":"uint256"},{"indexed":false,"internalType":"uint256","name":"oldAmount","type":"uint256"},{"indexed":false,"internalType":"uint256","name":"newAmount","type":"uint256"},{"indexed":false,"internalType":"uint256","name":"nonce","type":"uint256"}],"name":"JackpotUpdatedAtomic","type":"event"},{"anonymous":false,"inputs":[{"indexed":true,"internalType":"address","name":"player","type":"address"},{"indexed":false,"internalType":"uint256","name":"points","type":"uint256"},{"indexed":false,"internalType":"string","name":"reason","type":"string"}],"name":"LoyaltyPointsAwarded","type":"event"},{"anonymous":false,"inputs":[{"indexed":true,"internalType":"address","name":"previousOwner","type":"address"},{"indexed":true,"internalType":"address","name":"newOwner","type":"address"}],"name":"OwnershipTransferred","type":"event"},{"anonymous":false,"inputs":[{"indexed":false,"internalType":"address","name":"account","type":"address"}],"name":"Paused","type":"event"},{"anonymous":false,"inputs":[{"indexed":true,"internalType":"address","name":"player","type":"address"},{"indexed":false,"internalType":"bool","name":"blacklisted","type":"bool"}],"name":"PlayerBlacklisted","type":"event"},{"anonymous":false,"inputs":[{"indexed":true,"internalType":"address","name":"player","type":"address"},{"indexed":true,"internalType":"uint256","name":"gameId","type":"uint256"},{"indexed":false,"internalType":"uint256","name":"amount","type":"uint256"}],"name":"PlayerEntered","type":"event"},{"anonymous":false,"inputs":[{"indexed":false,"internalType":"uint256","name":"gameId","type":"uint256"},{"indexed":false,"internalType":"uint256","name":"randomnessRoundId","type":"uint256"}],"name":"RandomnessRequested","type":"event"},{"anonymous":false,"inputs":[{"indexed":true,"internalType":"address","name":"user","type":"address"},{"indexed":false,"internalType":"uint256","name":"cooldownEnd","type":"uint256"}],"name":"RateLimitTriggered","type":"event"},{"anonymous":false,"inputs":[{"indexed":true,"internalType":"address","name":"player","type":"address"},{"indexed":false,"internalType":"string","name":"code","type":"string"}],"name":"ReferralCreated","type":"event"},{"anonymous":false,"inputs":[{"indexed":false,"internalType":"string","name":"code","type":"string"},{"indexed":false,"internalType":"address","name":"player","type":"address"}],"name":"ReferralProcessed","type":"event"},{"anonymous":false,"inputs":[{"indexed":true,"internalType":"bytes32","name":"role","type":"bytes32"},{"indexed":true,"internalType":"address","name":"admin","type":"address"}],"name":"RoleAdminSet","type":"event"},{"anonymous":false,"inputs":[{"indexed":true,"internalType":"bytes32","name":"role","type":"bytes32"},{"indexed":true,"internalType":"address","name":"account","type":"address"},{"indexed":true,"internalType":"address","name":"sender","type":"address"}],"name":"RoleGranted","type":"event"},{"anonymous":false,"inputs":[{"indexed":true,"internalType":"bytes32","name":"role","type":"bytes32"},{"indexed":true,"internalType":"address","name":"account","type":"address"},{"indexed":true,"internalType":"address","name":"sender","type":"address"}],"name":"RoleRevoked","type":"event"},{"anonymous":false,"inputs":[{"indexed":true,"internalType":"uint256","name":"roundId","type":"uint256"},{"indexed":false,"internalType":"bytes32","name":"seed","type":"bytes32"}],"name":"SecureRandomnessGenerated","type":"event"},{"anonymous":false,"inputs":[{"indexed":true,"internalType":"address","name":"player","type":"address"},{"indexed":false,"internalType":"uint256","name":"amount","type":"uint256"},{"indexed":false,"internalType":"string","name":"reason","type":"string"}],"name":"ToppingsAwarded","type":"event"},{"anonymous":false,"inputs":[{"indexed":false,"internalType":"address","name":"account","type":"address"}],"name":"Unpaused","type":"event"},{"anonymous":false,"inputs":[{"indexed":true,"internalType":"address","name":"player","type":"address"},{"indexed":false,"internalType":"uint256","name":"challengeId","type":"uint256"},{"indexed":false,"internalType":"uint256","name":"reward","type":"uint256"}],"name":"WeeklyChallengeCompleted","type":"event"},{"anonymous":false,"inputs":[{"indexed":false,"internalType":"uint256","name":"gameId","type":"uint256"},{"indexed":false,"internalType":"address[]","name":"winners","type":"address[]"},{"indexed":false,"internalType":"uint256","name":"jackpot","type":"uint256"}],"name":"WeeklyWinnersSelected","type":"event"},{"anonymous":false,"inputs":[{"indexed":false,"internalType":"uint256","name":"gameId","type":"uint256"},{"indexed":false,"internalType":"uint256","name":"randomNumber","type":"uint256"},{"indexed":false,"internalType":"address[]","name":"winners","type":"address[]"}],"name":"WinnersSelectedWithRandomness","type":"event"},{"inputs":[],"name":"ADMIN_ROLE","outputs":[{"internalType":"bytes32","name":"","type":"bytes32"}],"stateMutability":"view","type":"function"},{"inputs":[],"name":"AUDITOR_ROLE","outputs":[{"internalType":"bytes32","name":"","type":"bytes32"}],"stateMutability":"view","type":"function"},{"inputs":[],"name":"BASE_SEPOLIA_HOLDING_REWARD","outputs":[{"internalType":"uint256","name":"","type":"uint256"}],"stateMutability":"view","type":"function"},{"inputs":[],"name":"BATCH_SIZE","outputs":[{"internalType":"uint256","name":"","type":"uint256"}],"stateMutability":"view","type":"function"},{"inputs":[],"name":"DAILY_PLAY_REWARD","outputs":[{"internalType":"uint256","name":"","type":"uint256"}],"stateMutability":"view","type":"function"},{"inputs":[],"name":"DAILY_WINNERS_COUNT","outputs":[{"internalType":"uint256","name":"","type":"uint256"}],"stateMutability":"view","type":"function"},{"inputs":[],"name":"DOLLAR_ENTRY_FEE","outputs":[{"internalType":"uint256","name":"","type":"uint256"}],"stateMutability":"view","type":"function"},{"inputs":[],"name":"EMERGENCY_ROLE","outputs":[{"internalType":"bytes32","name":"","type":"bytes32"}],"stateMutability":"view","type":"function"},{"inputs":[],"name":"ENTRY_COOLDOWN","outputs":[{"internalType":"uint256","name":"","type":"uint256"}],"stateMutability":"view","type":"function"},{"inputs":[],"name":"FIRST_ORDER_REWARD","outputs":[{"internalType":"uint256","name":"","type":"uint256"}],"stateMutability":"view","type":"function"},{"inputs":[],"name":"GAS_OPTIMIZATION_INTERVAL","outputs":[{"internalType":"uint256","name":"","type":"uint256"}],"stateMutability":"view","type":"function"},{"inputs":[],"name":"JACKPOT_ENTRY_COST","outputs":[{"internalType":"uint256","name":"","type":"uint256"}],"stateMutability":"view","type":"function"},{"inputs":[],"name":"JACKPOT_MULTIPLIER","outputs":[{"internalType":"uint256","name":"","type":"uint256"}],"stateMutability":"view","type":"function"},{"inputs":[],"name":"LOYALTY_POINTS_PER_DOLLAR","outputs":[{"internalType":"uint256","name":"","type":"uint256"}],"stateMutability":"view","type":"function"},{"inputs":[],"name":"MAX_DAILY_ENTRIES","outputs":[{"internalType":"uint256","name":"","type":"uint256"}],"stateMutability":"view","type":"function"},{"inputs":[],"name":"MAX_DAILY_REWARDS","outputs":[{"internalType":"uint256","name":"","type":"uint256"}],"stateMutability":"view","type":"function"},{"inputs":[],"name":"MAX_JACKPOT_ENTRIES","outputs":[{"internalType":"uint256","name":"","type":"uint256"}],"stateMutability":"view","type":"function"},{"inputs":[],"name":"MAX_PRICE_DEVIATION","outputs":[{"internalType":"uint256","name":"","type":"uint256"}],"stateMutability":"view","type":"function"},{"inputs":[],"name":"MAX_REFERRAL_CODE_LENGTH","outputs":[{"internalType":"uint256","name":"","type":"uint256"}],"stateMutability":"view","type":"function"},{"inputs":[],"name":"MAX_REWARD_AMOUNT","outputs":[{"internalType":"uint256","name":"","type":"uint256"}],"stateMutability":"view","type":"function"},{"inputs":[],"name":"MIN_BASE_SEPOLIA_HOLDING","outputs":[{"internalType":"uint256","name":"","type":"uint256"}],"stateMutability":"view","type":"function"},{"inputs":[],"name":"MIN_REFERRAL_CODE_LENGTH","outputs":[{"internalType":"uint256","name":"","type":"uint256"}],"stateMutability":"view","type":"function"},{"inputs":[],"name":"OPERATOR_ROLE","outputs":[{"internalType":"bytes32","name":"","type":"bytes32"}],"stateMutability":"view","type":"function"},{"inputs":[],"name":"PRICE_UPDATE_THRESHOLD","outputs":[{"internalType":"uint256","name":"","type":"uint256"}],"stateMutability":"view","type":"function"},{"inputs":[],"name":"REFERRAL_REWARD","outputs":[{"internalType":"uint256","name":"","type":"uint256"}],"stateMutability":"view","type":"function"},{"inputs":[],"name":"STREAK_BONUS","outputs":[{"internalType":"uint256","name":"","type":"uint256"}],"stateMutability":"view","type":"function"},{"inputs":[],"name":"WEEKLY_WINNERS_COUNT","outputs":[{"internalType":"uint256","name":"","type":"uint256"}],"stateMutability":"view","type":"function"},{"inputs":[],"name":"addJackpotEntry","outputs":[],"stateMutability":"payable","type":"function"},{"inputs":[],"name":"awardBaseSepoliaHoldingsToppings","outputs":[],"stateMutability":"nonpayable","type":"function"},{"inputs":[],"name":"awardLoyaltyPoints","outputs":[],"stateMutability":"nonpayable","type":"function"},{"inputs":[],"name":"awardStreakBonus","outputs":[],"stateMutability":"nonpayable","type":"function"},{"inputs":[{"internalType":"uint256","name":"","type":"uint256"}],"name":"batchProcessingActive","outputs":[{"internalType":"bool","name":"","type":"bool"}],"stateMutability":"view","type":"function"},{"inputs":[{"internalType":"uint256","name":"","type":"uint256"}],"name":"batchProcessingNonce","outputs":[{"internalType":"uint256","name":"","type":"uint256"}],"stateMutability":"view","type":"function"},{"inputs":[{"internalType":"address","name":"","type":"address"}],"name":"blacklistedAddresses","outputs":[{"internalType":"bool","name":"","type":"bool"}],"stateMutability":"view","type":"function"},{"inputs":[],"name":"claimFirstOrderReward","outputs":[],"stateMutability":"nonpayable","type":"function"},{"inputs":[{"internalType":"uint256","name":"challengeId","type":"uint256"}],"name":"claimWeeklyChallengeReward","outputs":[],"stateMutability":"nonpayable","type":"function"},{"inputs":[{"internalType":"bytes32","name":"entropy","type":"bytes32"}],"name":"contributeEntropy","outputs":[],"stateMutability":"nonpayable","type":"function"},{"inputs":[],"name":"createReferralCode","outputs":[],"stateMutability":"nonpayable","type":"function"},{"inputs":[],"name":"currentDailyJackpot","outputs":[{"internalType":"uint256","name":"","type":"uint256"}],"stateMutability":"view","type":"function"},{"inputs":[],"name":"currentRandomnessRound","outputs":[{"internalType":"uint256","name":"","type":"uint256"}],"stateMutability":"view","type":"function"},{"inputs":[],"name":"currentWeeklyJackpot","outputs":[{"internalType":"uint256","name":"","type":"uint256"}],"stateMutability":"view","type":"function"},{"inputs":[{"internalType":"uint256","name":"","type":"uint256"}],"name":"dailyPlayerCount","outputs":[{"internalType":"uint256","name":"","type":"uint256"}],"stateMutability":"view","type":"function"},{"inputs":[{"internalType":"uint256","name":"","type":"uint256"},{"internalType":"uint256","name":"","type":"uint256"}],"name":"dailyPlayers","outputs":[{"internalType":"address","name":"","type":"address"}],"stateMutability":"view","type":"function"},{"inputs":[],"name":"drawDailyWinners","outputs":[],"stateMutability":"nonpayable","type":"function"},{"inputs":[],"name":"drawWeeklyWinners","outputs":[],"stateMutability":"nonpayable","type":"function"},{"inputs":[{"internalType":"bool","name":"pause","type":"bool"}],"name":"emergencyPause","outputs":[],"stateMutability":"nonpayable","type":"function"},{"inputs":[{"internalType":"uint256","name":"gameId","type":"uint256"}],"name":"emergencyUnlockGame","outputs":[],"stateMutability":"nonpayable","type":"function"},{"inputs":[],"name":"emergencyWithdraw","outputs":[],"stateMutability":"nonpayable","type":"function"},{"inputs":[{"internalType":"string","name":"referralCode","type":"string"}],"name":"enterDailyGame","outputs":[],"stateMutability":"payable","type":"function"},{"inputs":[{"internalType":"uint256","name":"","type":"uint256"}],"name":"entropyContributions","outputs":[{"internalType":"uint256","name":"","type":"uint256"}],"stateMutability":"view","type":"function"},{"inputs":[{"internalType":"uint256","name":"","type":"uint256"},{"internalType":"uint256","name":"","type":"uint256"}],"name":"entropyContributors","outputs":[{"internalType":"address","name":"","type":"address"}],"stateMutability":"view","type":"function"},{"inputs":[],"name":"entropyRoundId","outputs":[{"internalType":"uint256","name":"","type":"uint256"}],"stateMutability":"view","type":"function"},{"inputs":[{"internalType":"uint256","name":"","type":"uint256"}],"name":"gameStateLocked","outputs":[{"internalType":"bool","name":"","type":"bool"}],"stateMutability":"view","type":"function"},{"inputs":[{"internalType":"uint256","name":"","type":"uint256"}],"name":"games","outputs":[{"internalType":"uint256","name":"gameId","type":"uint256"},{"internalType":"uint256","name":"startTime","type":"uint256"},{"internalType":"uint256","name":"endTime","type":"uint256"},{"internalType":"uint256","name":"totalEntries","type":"uint256"},{"internalType":"uint256","name":"jackpotAmount","type":"uint256"},{"internalType":"bool","name":"isCompleted","type":"bool"},{"internalType":"uint256","name":"randomnessRoundId","type":"uint256"}],"stateMutability":"view","type":"function"},{"inputs":[],"name":"gasOptimizationThreshold","outputs":[{"internalType":"uint256","name":"","type":"uint256"}],"stateMutability":"view","type":"function"},{"inputs":[],"name":"generateSecureRandomness","outputs":[{"internalType":"uint256","name":"","type":"uint256"}],"stateMutability":"nonpayable","type":"function"},{"inputs":[],"name":"getCurrentEntryFee","outputs":[{"internalType":"uint256","name":"","type":"uint256"}],"stateMutability":"view","type":"function"},{"inputs":[],"name":"getCurrentGame","outputs":[{"components":[{"internalType":"uint256","name":"gameId","type":"uint256"},{"internalType":"uint256","name":"startTime","type":"uint256"},{"internalType":"uint256","name":"endTime","type":"uint256"},{"internalType":"uint256","name":"totalEntries","type":"uint256"},{"internalType":"uint256","name":"jackpotAmount","type":"uint256"},{"internalType":"address[]","name":"winners","type":"address[]"},{"internalType":"bool","name":"isCompleted","type":"bool"},{"internalType":"uint256","name":"randomnessRoundId","type":"uint256"}],"internalType":"struct PizzaParty.Game","name":"","type":"tuple"}],"stateMutability":"view","type":"function"},{"inputs":[],"name":"getCurrentVMFPrice","outputs":[{"internalType":"uint256","name":"","type":"uint256"}],"stateMutability":"view","type":"function"},{"inputs":[{"internalType":"uint256","name":"gameId","type":"uint256"}],"name":"getGame","outputs":[{"components":[{"internalType":"uint256","name":"gameId","type":"uint256"},{"internalType":"uint256","name":"startTime","type":"uint256"},{"internalType":"uint256","name":"endTime","type":"uint256"},{"internalType":"uint256","name":"totalEntries","type":"uint256"},{"internalType":"uint256","name":"jackpotAmount","type":"uint256"},{"internalType":"address[]","name":"winners","type":"address[]"},{"internalType":"bool","name":"isCompleted","type":"bool"},{"internalType":"uint256","name":"randomnessRoundId","type":"uint256"}],"internalType":"struct PizzaParty.Game","name":"","type":"tuple"}],"stateMutability":"view","type":"function"},{"inputs":[],"name":"getGasUsageStats","outputs":[{"internalType":"uint256","name":"threshold","type":"uint256"},{"internalType":"uint256","name":"lastOptimization","type":"uint256"},{"internalType":"uint256","name":"batchNonce","type":"uint256"}],"stateMutability":"view","type":"function"},{"inputs":[{"internalType":"uint256","name":"gameId","type":"uint256"}],"name":"getJackpotState","outputs":[{"internalType":"uint256","name":"amount","type":"uint256"},{"internalType":"bytes32","name":"stateHash","type":"bytes32"},{"internalType":"uint256","name":"nonce","type":"uint256"}],"stateMutability":"view","type":"function"},{"inputs":[{"internalType":"address","name":"player","type":"address"}],"name":"getPlayerInfo","outputs":[{"components":[{"internalType":"uint256","name":"totalToppings","type":"uint256"},{"internalType":"uint256","name":"dailyEntries","type":"uint256"},{"internalType":"uint256","name":"weeklyEntries","type":"uint256"},{"internalType":"uint256","name":"lastEntryTime","type":"uint256"},{"internalType":"uint256","name":"streakDays","type":"uint256"},{"internalType":"uint256","name":"lastStreakUpdate","type":"uint256"},{"internalType":"bool","name":"isBlacklisted","type":"bool"},{"internalType":"uint256","name":"lastVMFHoldingsCheck","type":"uint256"},{"internalType":"uint256","name":"loyaltyPoints","type":"uint256"},{"internalType":"uint256","name":"totalOrders","type":"uint256"},{"internalType":"uint256","name":"weeklyChallengesCompleted","type":"uint256"},{"internalType":"uint256","name":"jackpotEntries","type":"uint256"},{"internalType":"uint256","name":"lastRewardClaim","type":"uint256"},{"internalType":"bool","name":"hasCompletedFirstOrder","type":"bool"},{"internalType":"uint256","name":"dailyRewardsClaimed","type":"uint256"},{"internalType":"uint256","name":"lastSecurityCheck","type":"uint256"},{"internalType":"bool","name":"isRateLimited","type":"bool"}],"internalType":"struct PizzaParty.Player","name":"","type":"tuple"}],"stateMutability":"view","type":"function"},{"inputs":[{"internalType":"address","name":"player","type":"address"}],"name":"getReferralInfo","outputs":[{"components":[{"internalType":"address","name":"referrer","type":"address"},{"internalType":"uint256","name":"totalReferrals","type":"uint256"},{"internalType":"uint256","name":"totalRewards","type":"uint256"},{"internalType":"bool","name":"isActive","type":"bool"}],"internalType":"struct PizzaParty.Referral","name":"","type":"tuple"}],"stateMutability":"view","type":"function"},{"inputs":[{"internalType":"bytes32","name":"role","type":"bytes32"},{"internalType":"address","name":"account","type":"address"}],"name":"grantRole","outputs":[],"stateMutability":"nonpayable","type":"function"},{"inputs":[{"internalType":"address","name":"player","type":"address"}],"name":"hasEnteredToday","outputs":[{"internalType":"bool","name":"","type":"bool"}],"stateMutability":"view","type":"function"},{"inputs":[{"internalType":"bytes32","name":"role","type":"bytes32"},{"internalType":"address","name":"account","type":"address"}],"name":"hasRole","outputs":[{"internalType":"bool","name":"","type":"bool"}],"stateMutability":"view","type":"function"},{"inputs":[{"internalType":"uint256","name":"","type":"uint256"}],"name":"jackpotStateHash","outputs":[{"internalType":"bytes32","name":"","type":"bytes32"}],"stateMutability":"view","type":"function"},{"inputs":[],"name":"jackpotUpdateCooldown","outputs":[{"internalType":"uint256","name":"","type":"uint256"}],"stateMutability":"view","type":"function"},{"inputs":[{"internalType":"uint256","name":"","type":"uint256"}],"name":"jackpotUpdateNonce","outputs":[{"internalType":"uint256","name":"","type":"uint256"}],"stateMutability":"view","type":"function"},{"inputs":[],"name":"lastDailyDraw","outputs":[{"internalType":"uint256","name":"","type":"uint256"}],"stateMutability":"view","type":"function"},{"inputs":[],"name":"lastEntropyUpdate","outputs":[{"internalType":"uint256","name":"","type":"uint256"}],"stateMutability":"view","type":"function"},{"inputs":[],"name":"lastGasOptimization","outputs":[{"internalType":"uint256","name":"","type":"uint256"}],"stateMutability":"view","type":"function"},{"inputs":[],"name":"lastJackpotUpdate","outputs":[{"internalType":"uint256","name":"","type":"uint256"}],"stateMutability":"view","type":"function"},{"inputs":[],"name":"lastWeeklyDraw","outputs":[{"internalType":"uint256","name":"","type":"uint256"}],"stateMutability":"view","type":"function"},{"inputs":[],"name":"optimizeGasUsage","outputs":[],"stateMutability":"nonpayable","type":"function"},{"inputs":[],"name":"owner","outputs":[{"internalType":"address","name":"","type":"address"}],"stateMutability":"view","type":"function"},{"inputs":[],"name":"paused","outputs":[{"internalType":"bool","name":"","type":"bool"}],"stateMutability":"view","type":"function"},{"inputs":[{"internalType":"address","name":"","type":"address"}],"name":"players","outputs":[{"internalType":"uint256","name":"totalToppings","type":"uint256"},{"internalType":"uint256","name":"dailyEntries","type":"uint256"},{"internalType":"uint256","name":"weeklyEntries","type":"uint256"},{"internalType":"uint256","name":"lastEntryTime","type":"uint256"},{"internalType":"uint256","name":"streakDays","type":"uint256"},{"internalType":"uint256","name":"lastStreakUpdate","type":"uint256"},{"internalType":"bool","name":"isBlacklisted","type":"bool"},{"internalType":"uint256","name":"lastVMFHoldingsCheck","type":"uint256"},{"internalType":"uint256","name":"loyaltyPoints","type":"uint256"},{"internalType":"uint256","name":"totalOrders","type":"uint256"},{"internalType":"uint256","name":"weeklyChallengesCompleted","type":"uint256"},{"internalType":"uint256","name":"jackpotEntries","type":"uint256"},{"internalType":"uint256","name":"lastRewardClaim","type":"uint256"},{"internalType":"bool","name":"hasCompletedFirstOrder","type":"bool"},{"internalType":"uint256","name":"dailyRewardsClaimed","type":"uint256"},{"internalType":"uint256","name":"lastSecurityCheck","type":"uint256"},{"internalType":"bool","name":"isRateLimited","type":"bool"}],"stateMutability":"view","type":"function"},{"inputs":[],"name":"priceOracle","outputs":[{"internalType":"contract FreePriceOracle","name":"","type":"address"}],"stateMutability":"view","type":"function"},{"inputs":[{"internalType":"address[]","name":"players","type":"address[]"},{"internalType":"uint256[]","name":"amounts","type":"uint256[]"}],"name":"processBatchPlayers","outputs":[],"stateMutability":"nonpayable","type":"function"},{"inputs":[],"name":"randomnessContract","outputs":[{"internalType":"contract FreeRandomness","name":"","type":"address"}],"stateMutability":"view","type":"function"},{"inputs":[{"internalType":"uint256","name":"","type":"uint256"}],"name":"randomnessSeeds","outputs":[{"internalType":"bytes32","name":"","type":"bytes32"}],"stateMutability":"view","type":"function"},{"inputs":[{"internalType":"string","name":"","type":"string"}],"name":"referralCodes","outputs":[{"internalType":"address","name":"","type":"address"}],"stateMutability":"view","type":"function"},{"inputs":[{"internalType":"address","name":"","type":"address"}],"name":"referrals","outputs":[{"internalType":"address","name":"referrer","type":"address"},{"internalType":"uint256","name":"totalReferrals","type":"uint256"},{"internalType":"uint256","name":"totalRewards","type":"uint256"},{"internalType":"bool","name":"isActive","type":"bool"}],"stateMutability":"view","type":"function"},{"inputs":[],"name":"renounceOwnership","outputs":[],"stateMutability":"nonpayable","type":"function"},{"inputs":[],"name":"requestDailyRandomness","outputs":[],"stateMutability":"nonpayable","type":"function"},{"inputs":[{"internalType":"uint256","name":"roundId","type":"uint256"},{"internalType":"uint256","name":"randomValue","type":"uint256"},{"internalType":"bytes32","name":"salt","type":"bytes32"}],"name":"revealRandomness","outputs":[],"stateMutability":"nonpayable","type":"function"},{"inputs":[{"internalType":"bytes32","name":"role","type":"bytes32"},{"internalType":"address","name":"account","type":"address"}],"name":"revokeRole","outputs":[],"stateMutability":"nonpayable","type":"function"},{"inputs":[{"internalType":"bytes32","name":"","type":"bytes32"}],"name":"roleAdmins","outputs":[{"internalType":"address","name":"","type":"address"}],"stateMutability":"view","type":"function"},{"inputs":[{"internalType":"bytes32","name":"","type":"bytes32"},{"internalType":"address","name":"","type":"address"}],"name":"roles","outputs":[{"internalType":"bool","name":"","type":"bool"}],"stateMutability":"view","type":"function"},{"inputs":[],"name":"selectDailyWinners","outputs":[],"stateMutability":"nonpayable","type":"function"},{"inputs":[{"internalType":"uint256","name":"cooldown","type":"uint256"}],"name":"setJackpotUpdateCooldown","outputs":[],"stateMutability":"nonpayable","type":"function"},{"inputs":[{"internalType":"address","name":"player","type":"address"},{"internalType":"bool","name":"blacklisted","type":"bool"}],"name":"setPlayerBlacklist","outputs":[],"stateMutability":"nonpayable","type":"function"},{"inputs":[{"internalType":"bytes32","name":"role","type":"bytes32"},{"internalType":"address","name":"admin","type":"address"}],"name":"setRoleAdmin","outputs":[],"stateMutability":"nonpayable","type":"function"},{"inputs":[{"internalType":"uint256","name":"roundId","type":"uint256"},{"internalType":"bytes32","name":"commitment","type":"bytes32"}],"name":"submitRandomnessCommitment","outputs":[],"stateMutability":"nonpayable","type":"function"},{"inputs":[{"internalType":"address","name":"newOwner","type":"address"}],"name":"transferOwnership","outputs":[],"stateMutability":"nonpayable","type":"function"},{"inputs":[{"internalType":"uint256","name":"gameId","type":"uint256"},{"internalType":"uint256","name":"newAmount","type":"uint256"},{"internalType":"bytes32","name":"expectedStateHash","type":"bytes32"}],"name":"updateJackpotAtomic","outputs":[],"stateMutability":"nonpayable","type":"function"},{"inputs":[{"internalType":"address","name":"","type":"address"}],"name":"userDailyRewards","outputs":[{"internalType":"uint256","name":"","type":"uint256"}],"stateMutability":"view","type":"function"},{"inputs":[{"internalType":"address","name":"","type":"address"}],"name":"userLastActivity","outputs":[{"internalType":"uint256","name":"","type":"uint256"}],"stateMutability":"view","type":"function"},{"inputs":[{"internalType":"address","name":"","type":"address"}],"name":"userRateLimitEnd","outputs":[{"internalType":"uint256","name":"","type":"uint256"}],"stateMutability":"view","type":"function"},{"inputs":[],"name":"vmfToken","outputs":[{"internalType":"contract IERC20","name":"","type":"address"}],"stateMutability":"view","type":"function"},{"inputs":[{"internalType":"uint256","name":"","type":"uint256"}],"name":"weeklyChallenges","outputs":[{"internalType":"uint256","name":"challengeId","type":"uint256"},{"internalType":"string","name":"challengeName","type":"string"},{"internalType":"uint256","name":"rewardAmount","type":"uint256"},{"internalType":"uint256","name":"completionRequirement","type":"uint256"},{"internalType":"bool","name":"isActive","type":"bool"}],"stateMutability":"view","type":"function"},{"inputs":[{"internalType":"uint256","name":"","type":"uint256"}],"name":"weeklyPlayerCount","outputs":[{"internalType":"uint256","name":"","type":"uint256"}],"stateMutability":"view","type":"function"},{"inputs":[{"internalType":"uint256","name":"","type":"uint256"},{"internalType":"uint256","name":"","type":"uint256"}],"name":"weeklyPlayers","outputs":[{"internalType":"address","name":"","type":"address"}],"stateMutability":"view","type":"function"}],"evm":{"bytecode":{"linkReferences":{},"object":"60a0346200055757601f6200616e38819003918201601f191683019291906001600160401b038411838510176200055c5781606092849260409687528339810103126200055757620000518162000572565b906200006d83620000656020840162000572565b920162000572565b600160005533156200053f5760018054336001600160a01b0319808316821790935586519295929492916001600160a01b03167f8be0079c531659141344cd1fd0a4f28419497f9722a3daafe3b4186f6b6457e0600080a36001600160a01b03168062000535575b506001600160a01b0316918215620004e757506001600160a01b0316908115620004a3578260025416176002558160035416176003557fa49807205ce4d355092ef5a8a18f56e8913cf4a201fbe287825b095693c21775806000526018602052826000203360005260205282600020600160ff198254161790557f97667070c54ef182b0f5858b034beac1b6f3089aa2d3188bb1e8929f4fa9b929806000526018602052836000203360005260205283600020600160ff198254161790557fbf233dd2aafeb4d50879c4aa5c81e96d92f6e6945c906a58f9f2d1c1631b4b2690816000526018602052846000203360005260205284600020600160ff198254161790557f59a1c48e5837ad7a7f3dcedcbe129bf3249ec4fbf651fd4f5e2600ead39fe2f593846000526018602052856000203360005260205285600020600160ff19825416179055836000526019602052856000203382825416179055816000528560002033828254161790558260005285600020338282541617905584600052856000209033908254161790557f2f8788117e7eff1d82e926ec794901d17c78024a50270940304540a733656f0d923390339085600080a43390339084600080a43390339083600080a433913391600080a46004600281556201518042018042116200048e578251602081016001600160401b03811182821017620004795784526000815283519161010083016001600160401b03811184821017620004645785526002835242602084015284830152600060608301526000608083015260a0820152600060c0820152600060e08201526002600052601d60205282600020918151835560208201516001840155838201516002840155606082015160038401556080820151818401556005830160a083015180519260018060401b0384116200044f576801000000000000000084116200044f5750815483835580841062000423575b5060200190600052602060002060005b83811062000405578686600760e0886006840160c0820151151560ff8019835416911617905501519101554260075551615be690816200058882396080518181816107270152818161100b0152818161204f01526144b90152f35b82516001600160a01b031681830155602090920191600101620003aa565b8260005283602060002091820191015b8181106200044257506200039a565b6000815560010162000433565b604190634e487b7160e01b6000525260246000fd5b604185634e487b7160e01b6000525260246000fd5b604184634e487b7160e01b6000525260246000fd5b601182634e487b7160e01b6000525260246000fd5b835162461bcd60e51b815260206004820152601c60248201527f496e76616c6964207072696365206f7261636c652061646472657373000000006044820152606490fd5b62461bcd60e51b815260206004820152602360248201527f496e76616c69642072616e646f6d6e65737320636f6e7472616374206164647260448201526265737360e81b6064820152608490fd5b60805238620000d5565b8351631e4fbdf760e01b815260006004820152602490fd5b600080fd5b634e487b7160e01b600052604160045260246000fd5b51906001600160a01b0382168203620005575756fe60e080604052600436101561001357600080fd5b600090813560e01c90816303fa2c631461480857508063098655d9146147eb5780630aa016951461479c5780630b00a5db146146d75780630c89d127146146a55780630d9f92ca1461051c578063117a5b90146146345780631472cbe31461452257806316fa10861461450657806319bf155d146144e85780632086eefa146144a357806320df43591461446857806321874ae2146143be57806325b7f388146141a05780632618cafd14613ef15780632630c12f14613ec85780632655e84014613e8157806328100aca14613e635780632a243f1914613e345780632e108d1c14613baf5780632ee8b77814613b915780632f2ff15d14613ae65780632ff7a52d14613aae57806339d8ea42146114f45780633a65126a146136dd5780633bb4f638146136bf5780633f7814121461367b5780633fb83a541461347c57806341fe39ec1461345357806343f2a080146133b357806349faa4d41461051c5780634b75344e1461175e5780634eb692a5146133815780634f55e8ad146132fd57806352861f7f146131875780635932840114612f5e57806359a9867e14612dea57806359db6fe614612dcc5780635c27b2e41461260e5780635c975abb146125e857806367cafabb146125be57806369396e88146125a25780636ce497b2146125005780636e1d616e146124c5578063715018a61461246857806371e4206d1461222457806374631fd714611fdf5780637550b84f14611fc157806375b238fc14611f8657806377ce299214611f4d578063786a78c614611ec35780637967512714611e995780637a7eb1f414611e9457806384a3a0f314611e945780638543210d14611e615780638c267e0d14610fcd5780638da5cb5b14611e3857806391d1485414611dd3578063920736e514611d88578063968d901b14611cca57806396f277b714611ca35780639b5a139a14611ca85780639b95f1fc14611ca35780639ca423b314611c3e578063a04f6b4b14611c21578063a154fc6b14611bb1578063a2f77bcc14611ad0578063a37c157214611aa1578063a88066f714611aa6578063a9b8b45114611aa1578063ad76319214611a2c578063aea664a5146119e4578063b87fc22d1461183b578063b8caead61461181d578063ba53ba24146117ce578063bb6bf0f0146117b0578063bbc3ced71461051c578063bcf6447514610b33578063bf75762414611781578063c14e1e0514611763578063c5d321571461175e578063cb955e6b14611523578063cf376677146114f9578063d136a94d146114f4578063d2111791146114ca578063d547741f14611420578063d5749d42146113e1578063d5fa40e31461119b578063d61b86bb14611171578063db2e21bc14610fd2578063dd23b9cb14610fcd578063e22cb9c914610d07578063e2eb41ff14610bd8578063e3505b1414610b56578063e3d440a714610b38578063e443e27914610b33578063e82aefc714610a81578063e8f6940e1461095a578063eb0fb2c8146105f3578063ee892e64146105d5578063f2fde38b1461054a578063f5b541a614610521578063f8172fe31461051c578063f8fc08b9146104d05763ffc39504146104a457600080fd5b346104cd5760203660031901126104cd5760406020916004358152600b83522054604051908152f35b80fd5b50346104cd5760403660031901126104cd5760406104ec614854565b9160043581526018602052209060018060a01b0316600052602052602060ff604060002054166040519015158152f35b6148ae565b50346104cd57806003193601126104cd576020604051600080516020615b718339815191528152f35b50346104cd5760203660031901126104cd5761056461483e565b61056c6150df565b6001600160a01b039081169081156105bc57600154826001600160601b0360a01b821617600155167f8be0079c531659141344cd1fd0a4f28419497f9722a3daafe3b4186f6b6457e0600080a380f35b604051631e4fbdf760e01b815260048101849052602490fd5b50346104cd57806003193601126104cd576020602554604051908152f35b50346104cd57806003193601126104cd57600080516020615b718339815191528152602090601882526040812033600052825260ff604060002054168015610946575b61063f90614eca565b61064761510b565b60095415610901576000194301914383116108ed5760129160125493604051838101904282524460408201526060924060608201526080963360601b608083015260948201526094815261069a81614997565b519020936106aa85600454615830565b60055460031c90845b815181101561085f576001600160a01b03806106cf8385614f74565b51166106df575b506001016106b3565b6107218885836106ef8688614f74565b5160405163a9059cbb60e01b815291166001600160a01b03166004820152602481019190915291829081906044820190565b03818b867f0000000000000000000000000000000000000000000000000000000000000000165af1908115610854578891610827575b50156107f057806107688385614f74565b51168752601a885260408720908154600a928382018092116107dc576001949392600080516020615b91833981519152928e92556107a68588614f74565b51169260405190815260408c820152886040820152714461696c792077696e6e657220626f6e757360701b8a820152a2906106d6565b634e487b7160e01b8a52601160045260248afd5b60405162461bcd60e51b815260048101899052600f60248201526e151c985b9cd9995c8819985a5b1959608a1b6044820152606490fd5b6108479150893d8b1161084d575b61083f81836149ce565b8101906150c7565b38610757565b503d610835565b6040513d8a823e3d90fd5b857f9f22d2b65d1e9bef93da4067644e4ead3bd41c9d3fc8568887cc572b482e6cb7888a6108df86600454927fdd1c72fcda97fcfc2fe124c4aa194986caca752d3769c00a6495659509d7b19b6108c0600554604051918291868984615039565b0390a16040519485948552840152606060408401526060830190614ffc565b0390a16108ea615400565b80f35b634e487b7160e01b82526011600452602482fd5b60405162461bcd60e51b815260048101839052601d60248201527f4e6f2072616e646f6d6e65737320726f756e64207265717565737465640000006044820152606490fd5b506001546001600160a01b03163314610636565b50346104cd5760203660031901126104cd5760043580151590818103610a7c576109826150df565b156109fc5760207fb80d1ae5628c2af91424c54c87acfd15016be4bebeef0425b328238702f34831916109b361510b565b6001805460ff60a01b1916600160a01b1790556040513381527f62e78cea01bee320cd4e420270b5ea74000d11b0c9f74754ebdbfc544b05a258908390a15b604051908152a180f35b60015460ff8160a01c1615610a6a5760ff60a01b19166001556040513381527fb80d1ae5628c2af91424c54c87acfd15016be4bebeef0425b328238702f34831916020917f5db9ee0a495bf2e6ff9c91a7834c1ba4fdd244a5e8aa4e537bd38aeae4b073aa908390a16109f2565b604051638dfc202b60e01b8152600490fd5b600080fd5b50346104cd5760203660031901126104cd576004357fbf233dd2aafeb4d50879c4aa5c81e96d92f6e6945c906a58f9f2d1c1631b4b2682526018602052604082203360005260205260ff604060002054168015610b1f575b610ae290614eca565b808252601360205260408220805460ff1916905533907f6d01469f672cd6cb0434a128cac9b91dc60a83e67a56be9fb5f265c18d29c7c58380a380f35b506001546001600160a01b03163314610ad9565b614cf0565b50346104cd57806003193601126104cd576020600554604051908152f35b50346104cd5760403660031901126104cd57610b7061510b565b60025481906001600160a01b0316803b15610bd5578180916044604051809481936339a8f67760e21b8352600435600484015260243560248401525af18015610bca57610bba5750f35b610bc390614933565b6104cd5780f35b6040513d84823e3d90fd5b50fd5b50346104cd5760203660031901126104cd576001600160a01b03610bfa61483e565b168152601a6020526040902080808054600182015460c0526002820154600383015460048401546005850154600686015460ff16600787015490600888015492600989015494600a8a015496600b8b015498600c8c01549a600d8d015460ff169c600e01549d600f01549e6010015460ff1660805260405160a05260a0515260c05160a0516020015260a0516040015260a0516060015260a0516080015260a05160a00152151560a05160c0015260a05160e0015260a051610100015260a051610120015260a051610140015260a051610160015260a0516101800152151560a0516101a0015260a0516101c0015260a0516101e00152608051151560a051610200015260a05161022090f35b50346104cd57806003193601126104cd57610d20615189565b610d2861510b565b3381526020601e8152610d4260ff60408420541615614d54565b338252601a808252610d5e60ff60066040862001541615614d54565b338352808252600c604084200154620151808101809111610ec957610d8590421015614d98565b338352808252610d9e6064600e60408620015410614de4565b33835280825260ff600d60408520015416610f7d573383528082526001600960408520015410610f38573360005281805260406000205460058101809111610edd5760648111610ef35733600052828052604060002055808252600e6040600020015460058101809111610edd5733600052818352600e6040600020015533835280825260408320600d8101600160ff19825416179055549060058201809211610ec957338452825260408320908155600c42910155604051600581527f666ff46b6b5a0789c7d628ecfa8a5975b192b7d3541fc30b22da07a9b3d4ddbc823392a26040805191600583528201526012604082015271119a5c9cdd081bdc99195c881c995dd85c9960721b6060820152600080516020615b9183398151915260803392a26001815580f35b634e487b7160e01b84526011600452602484fd5b634e487b7160e01b600052601160045260246000fd5b60405162461bcd60e51b815260048101849052601b60248201527f4461696c7920726577617264206c696d697420657863656564656400000000006044820152606490fd5b60405162461bcd60e51b815260048101839052601860248201527f4e6f206669727374206f7264657220636f6d706c6574656400000000000000006044820152606490fd5b60405162461bcd60e51b815260048101839052602260248201527f4669727374206f726465722072657761726420616c726561647920636c61696d604482015261195960f21b6064820152608490fd5b614c03565b50346104cd57806003193601126104cd57610feb6150df565b6040516370a0823160e01b81523060048201526020906001600160a01b037f00000000000000000000000000000000000000000000000000000000000000008116908383602481855afa928315611166578593611137575b5082156110f95760015460405163a9059cbb60e01b815291166001600160a01b031660048201526024810192909252829082908186816044810103925af19081156110ee5783916110d1575b5015611099575080f35b6064906040519062461bcd60e51b82526004820152601160248201527015da5d1a191c985dd85b0819985a5b1959607a1b6044820152fd5b6110e89150823d841161084d5761083f81836149ce565b3861108f565b6040513d85823e3d90fd5b60405162461bcd60e51b81526004810185905260166024820152754e6f2062616c616e636520746f20776974686472617760501b6044820152606490fd5b9092508381813d831161115f575b61114f81836149ce565b81010312610a7c57519138611043565b503d611145565b6040513d87823e3d90fd5b50346104cd5760203660031901126104cd5760406020916004358152600d83522054604051908152f35b50346104cd57806003193601126104cd576111b4615189565b6111bc61510b565b3381526020601e81526111d660ff60408420541615614d54565b338252601a908181526111f360ff60066040862001541615614d54565b338352818152600c604084200154620151809081810180911161133d5761121c90421015614d98565b3384528282526112356064600e60408720015410614de4565b3384528282526007604085200154908101809111610ec95742106113a55766038d7ea4c680003331818110611351570491821583800460011481171561133d57611302579060409161128784336151ac565b33855280825261129a8484872054614d47565b903386528252828520908155426007820155600c429101558151928352820152601c60408201527f42617365205365706f6c696120686f6c64696e677320726577617264000000006060820152600080516020615b9183398151915260803392a26001815580f35b60405162461bcd60e51b81526004810183905260136024820152724e6f2072657761726420617661696c61626c6560681b6044820152606490fd5b634e487b7160e01b85526011600452602485fd5b60405162461bcd60e51b815260048101849052602660248201527f496e73756666696369656e742042617365205365706f6c69612045544820686f6044820152656c64696e677360d01b6064820152608490fd5b6064906040519062461bcd60e51b825260048201526015602482015274416c726561647920636865636b656420746f64617960581b6044820152fd5b50346104cd5760203660031901126104cd5760209060ff906040906001600160a01b0361140c61483e565b168152601e84522054166040519015158152f35b50346104cd5760403660031901126104cd5760043561143d614854565b818352601960205260408320546001600160a01b0391908216331480156114bd575b61146890614e30565b16611474811515614e8c565b81835260186020526040832081600052602052604060002060ff19815416905533917ff6391f5c32d9c69d2a47ea670b442974b53935d1edc7fd64eb21e047a839171b8480a480f35b506001548216331461145f565b50346104cd5760203660031901126104cd5760406020916004358152601483522054604051908152f35b614a95565b50346104cd5760203660031901126104cd5760406020916004358152600f83522054604051908152f35b50346104cd57806003193601126104cd5761153c61510b565b60118054610e10810180911161174a574210611705576000194301914383116116f35760011943014381116116e0576012549360018060a01b036002541691604051809363c142e49560e01b825281600460209687935afa9081156111665785916116b3575b5060405190848201924284524460408401526060944060608401524060808301523360601b60a08301528760b483015260d482015260d481526115e481614917565b51902083905b86825260108452604082208054861015611646579061160b86600193614880565b905490604051918783019384526001600160601b03199160031b1c861b1660408201526034815261163b8161497c565b5190209401936115ea565b50915084868252600e84528260408320554281556012549160018301918284116116a05750506012557f716aeb9158d0411549d0ea0300d76e79332e89ec7eb7b7c475efa863e7b9d00f83604051848152a2604051908152f35b634e487b7160e01b825260045260249150fd5b90508381813d83116116d9575b6116ca81836149ce565b81010312610a7c5751386115a2565b503d6116c0565b50602491634e487b7160e01b8252600452fd5b602491634e487b7160e01b8252600452fd5b60405162461bcd60e51b815260206004820152601b60248201527f456e74726f70792075706461746520746f6f206672657175656e7400000000006044820152606490fd5b634e487b7160e01b83526004829052602483fd5b614ac8565b50346104cd57806003193601126104cd576020600854604051908152f35b50346104cd5760203660031901126104cd5760ff60406020926004358152602484522054166040519015158152f35b50346104cd57806003193601126104cd576020600954604051908152f35b50346104cd5760203660031901126104cd57602090600360406117ef61483e565b926117ff6201518042064261505b565b6001600160a01b039094168152601a85522001546040519111158152f35b50346104cd57806003193601126104cd576020601754604051908152f35b50806003193601126104cd5761184f615189565b61185761510b565b3381526020601e815261187160ff60408420541615614d54565b338252601a815261188c60ff60066040852001541615614d54565b338252601a81526064600b60408420015410156119a057670de0b6b3a7640000341061194457338252601a8152600b6040832001546001810180911161193057338352601a8252600b6040842001556006543460011b9034820460021434151715610ec957906118fb91614d47565b6006557f6a85014765ce1728a69f3d14127cc749d140ba142c380ef69ca533189dbfa360604051913483523392a26001815580f35b634e487b7160e01b83526011600452602483fd5b6084906040519062461bcd60e51b82526004820152602f60248201527f496e73756666696369656e742042617365205365706f6c69612045544820666f60448201526e72206a61636b706f7420656e74727960881b6064820152fd5b6064906040519062461bcd60e51b82526004820152601b60248201527f4d6178206a61636b706f7420656e7472696573207265616368656400000000006044820152fd5b50346104cd57806003193601126104cd57602554611a2860406026549343815260236020522054604051938493846040919493926060820195825260208201520152565b0390f35b50346104cd5760403660031901126104cd57600435611a49614854565b90611a526150df565b80835260196020526040832080546001600160a01b0319166001600160a01b0390931692831790557fca1453e2085a936ea52e0049e559e235e08fe8678e165a7eb63f4568098706ad8380a380f35b614cd3565b50346104cd5760203660031901126104cd5760406020916004358152600e83522054604051908152f35b50346104cd57602090816003193601126104cd57611aec615068565b506004358152601d8252604081209160405191611b0883614917565b8354835260019060018501548385015260028501546040850152600385015460608501526004850154608085015260058501916040518094808554928381520194845280842093905b828210611b9357611a288860078b8a611b6c818c03826149ce565b60a084015260ff600682015416151560c0840152015460e082015260405191829182614c1f565b84546001600160a01b03168652948501949383019390830190611b51565b50346104cd5780611bc136614bcd565b9291611bcb61510b565b6002546001600160a01b031690813b15611c1d5783606492604051968795869463a154fc6b60e01b86526004860152602485015260448401525af18015610bca57611c14575080f35b6108ea90614933565b8380fd5b50346104cd57806003193601126104cd5760206040516103e88152f35b50346104cd5760203660031901126104cd576080906001600160a01b039060409082611c6861483e565b168152601c60205220908154169060018101549060ff6003600283015492015416916040519384526020840152604083015215156060820152f35b614cb7565b50346104cd57806003193601126104cd57602060405166038d7ea4c680008152f35b50346104cd57806003193601126104cd57611ce3615068565b506004548152602090601d602052604081209160405191611d0383614917565b8354835260019060018501546020850152600285015460408501526003850154606085015260048501546080850152600585019160405180946020855492838152019484526020842093905b828210611d6a57611a288860078b8a611b6c818c03826149ce565b84546001600160a01b03168652948501949383019390830190611d4f565b50346104cd57611d973661486a565b91908152600c602052604081209081548310156104cd576020611dba8484614880565b905460405160039290921b1c6001600160a01b03168152f35b50346104cd5760403660031901126104cd57602090611df0614854565b60043582526018835260408083206001600160a01b0392831680855290855292205460ff1691908215611e2a575b50506040519015158152f35b600154161490503880611e1e565b50346104cd57806003193601126104cd576001546040516001600160a01b039091168152602090f35b50346104cd5760203660031901126104cd57602090600435815260198252604060018060a01b0391205416604051908152f35b614be7565b50346104cd5760203660031901126104cd5760406020916004358152602383522054604051908152f35b50346104cd57806003193601126104cd57600354604051638f09c85760e01b815290602090829060049082906001600160a01b03165afa908115610bca578291611f13575b602082604051908152f35b90506020813d602011611f45575b81611f2e602093836149ce565b81010312611f4157602091505138611f08565b5080fd5b3d9150611f21565b50346104cd5760203660031901126104cd576020906040906001600160a01b03611f7561483e565b168152602283522054604051908152f35b50346104cd57806003193601126104cd5760206040517fa49807205ce4d355092ef5a8a18f56e8913cf4a201fbe287825b095693c217758152f35b50346104cd57806003193601126104cd576020600754604051908152f35b50346104cd57806003193601126104cd57611ff8615189565b61200061510b565b3381526020601e815261201a60ff60408420541615614d54565b338252601a815261203560ff60066040852001541615614d54565b6040516370a0823160e01b815233600482015281816024817f00000000000000000000000000000000000000000000000000000000000000006001600160a01b03165afa9081156110ee5783916121f3575b5080156121bd57670de0b6b3a7640000900490600a820291808304600a149015171561193057811561217957612710821161213557604090338452601a81526120d68360088487200154614d47565b338552601a8252600883862001558151928352820152600c60408201526b564d4620686f6c64696e677360a01b60608201527fa6064b0de95f7cda15129e7c36146c8accf65abb7a3639d800a445fa55023a1760803392a26001815580f35b6064906040519062461bcd60e51b82526004820152601760248201527f4c6f79616c747920706f696e747320746f6f20686967680000000000000000006044820152fd5b6064906040519062461bcd60e51b82526004820152601a60248201527f4e6f206c6f79616c747920706f696e747320746f2061776172640000000000006044820152fd5b60405162461bcd60e51b815260048101839052600e60248201526d4e6f20564d462062616c616e636560901b6044820152606490fd5b90508181813d831161221d575b61220a81836149ce565b81010312612219575138612087565b8280fd5b503d612200565b50346104cd5761223336614bcd565b600080516020615b7183398151915284526020906018825260408520338652825260ff6040862054168015612454575b61226c90614eca565b61227461510b565b8385526013825260ff6040862054166124185761229660165460175490614d47565b42106123d357838552601582526040852054036123995782845260138152604084209060ff199160018382541617905560055491836005556014825260408620546001810180911161238557916014917f42d4a2476a82a032f615547e73391179c379c1eb26fb0bd034f43131ae2bc15d9594938789528383528060408a205560405183810191878352604082015242606082015260608152612338816148ca565b5190208789526015835260408920554260165560138252604088209081541690555261237f6040862054604051938493846040919493926060820195825260208201520152565b0390a280f35b634e487b7160e01b87526011600452602487fd5b6064906040519062461bcd60e51b8252600482015260136024820152720a6e8c2e8ca40d0c2e6d040dad2e6dac2e8c6d606b1b6044820152fd5b60405162461bcd60e51b815260048101839052601b60248201527f4a61636b706f742075706461746520746f6f206672657175656e7400000000006044820152606490fd5b60405162461bcd60e51b815260048101839052601460248201527311d85b59481cdd185d19481a5cc81b1bd8dad95960621b6044820152606490fd5b506001546001600160a01b03163314612263565b50346104cd57806003193601126104cd576124816150df565b600180546001600160a01b0319811690915581906001600160a01b03167f8be0079c531659141344cd1fd0a4f28419497f9722a3daafe3b4186f6b6457e08280a380f35b50346104cd57806003193601126104cd5760206040517f59a1c48e5837ad7a7f3dcedcbe129bf3249ec4fbf651fd4f5e2600ead39fe2f58152f35b50346104cd5760203660031901126104cd577f37aa3048a2b523e3218796793d7c9283cbd45124c62254c97febfc129252429460206004357fa49807205ce4d355092ef5a8a18f56e8913cf4a201fbe287825b095693c2177584526018825260408420338552825260ff604085205416801561258e575b61258090614eca565b80601755604051908152a180f35b506001546001600160a01b03163314612577565b50346104cd57806003193601126104cd57602060405160058152f35b50346104cd5760203660031901126104cd5760406020916004358152601583522054604051908152f35b50346104cd57806003193601126104cd57602060ff60015460a01c166040519015158152f35b5061261836614a0a565b612620615189565b61262861510b565b3382526020601e815261264260ff60408520541615614d54565b338352601a80825261265e60ff60066040872001541615614d54565b33845280825260ff601060408620015416612d9057338452808252600360408520015490610e1091828101809111612914574210612d55573385526021835260408520544210612d1257338552808352600f604086200154828101809111612914574210612ccd573385526022835242604086205580835242600f60408720015560045415612c96576126f03361557c565b612c515766038d7ea4c680003410612bfe57338552808352600193600a856040882001541015612bb95760405161272681614961565b8681529080511580156129c8575b50503386528184528460408720015485810180911161238557338752828552604087209086820155426003820155548581018091116123855733875282855260408720556004548652600a845261278e3360408820614d0c565b600454808752600b85526040872054908682018092116129b4578752600b855260408720556127bf34600554614d47565b600555805161296d575b5033855282805260408520548481018091116129145760648111612928573386528380526040862055808352600e60408620015484810180911161291457338652818452600e604087200155604051848152604084820152601160408201527011185a5b1e481c1b185e481c995dd85c99607a1b6060820152600080516020615b9183398151915260803392a26004546040513481527f480a6daea81f2af589e1959da1f1719512392ec551e8966266ee820f1c1f72ea853392a37f404449b42e86f8716dd5ac141731fb164fe1f76d7e4039fdd16c7b3b48f96a4e6040600554600654825191825286820152a13385528252601060408520018360ff19825416179055420190814211610ec9577f2f9a50b0843b7d2d827707c950209b525673c306d684446f6c4b1b748a4ed9ee90338552602181528260408620556040519283523392a2815580f35b634e487b7160e01b86526011600452602486fd5b60405162461bcd60e51b815260048101859052601b60248201527f4461696c7920726577617264206c696d697420657863656564656400000000006044820152606490fd5b6129a67f64274d45e838268efe3b4fa5586a29791f42c0f3f9a6422424c424401bf3958991604051918291604083526040830190614ba8565b33878301520390a1386127c9565b634e487b7160e01b88526011600452602488fd5b909150612b7c576064815111612b46576129e281516155da565b908587918189905b612ad9575b5050508015612a9457612a01816155da565b9186885b838110612a6a5750505050612a198161561d565b15612a25573880612734565b60405162461bcd60e51b815260048101859052601c60248201527f496e76616c696420726566657272616c20636f646520666f726d6174000000006044820152606490fd5b6001600160f81b0319612a7d828561560c565b51168a1a612a8b828761560c565b53018790612a05565b60405162461bcd60e51b815260048101869052601c60248201527f4e6f2076616c6964206368617261637465727320696e20696e707574000000006044820152606490fd5b8151811015612b41576001600160f81b0319612af5828461560c565b5116600160fd1b81101580612b33575b612b13575b508201826129ea565b839194612b2c918c1a612b26828961560c565b53615297565b9390612b0a565b50603f60f91b811115612b05565b6129ef565b60405162461bcd60e51b815260048101859052600e60248201526d496e70757420746f6f206c6f6e6760901b6044820152606490fd5b60405162461bcd60e51b8152600481018590526015602482015274496e7075742063616e6e6f7420626520656d70747960581b6044820152606490fd5b60405162461bcd60e51b815260048101859052601960248201527f4d6178206461696c7920656e74726965732072656163686564000000000000006044820152606490fd5b60405162461bcd60e51b815260048101849052602560248201527f496e73756666696369656e742042617365205365706f6c6961204554482062616044820152646c616e636560d81b6064820152608490fd5b60405162461bcd60e51b815260048101849052601c60248201527f537573706963696f7573206163746976697479206465746563746564000000006044820152606490fd5b60405162461bcd60e51b815260048101849052600f60248201526e125b9d985b1a590819d85b59481251608a1b6044820152606490fd5b60405162461bcd60e51b815260048101849052601b60248201527f536563757269747920636865636b20746f6f206672657175656e7400000000006044820152606490fd5b826064916040519162461bcd60e51b8352600483015260248201527f52617465206c696d697420636f6f6c646f776e206163746976650000000000006044820152fd5b60405162461bcd60e51b815260048101849052601360248201527214985d19481b1a5b5a5d08195e18d959591959606a1b6044820152606490fd5b60405162461bcd60e51b8152600481018390526014602482015273155cd95c881a5cc81c985d19481b1a5b5a5d195960621b6044820152606490fd5b50346104cd57806003193601126104cd576020601254604051908152f35b50346104cd57806003193601126104cd577fa49807205ce4d355092ef5a8a18f56e8913cf4a201fbe287825b095693c2177581526020906018825260408120338252825260ff9160ff6040832054168015612f4a575b612e4990614eca565b602654610e108101809111611930574210612f0657815b60648110612eb157504260265560255460018101809111611930577f1b9b06155f0da9bce83c4a8a54dcca59cdf479249ceb43679c0bd7fa67b2f1889181604092602555825191428352820152a180f35b80600191431180612ee9575b612ec8575b01612e60565b612ed2814361505b565b84526024835260408420805460ff19169055612ec2565b50612ef4814361505b565b84526024835284604085205416612ebd565b6064906040519062461bcd60e51b82526004820152601960248201527f4f7074696d697a6174696f6e20746f6f206672657175656e74000000000000006044820152fd5b506001546001600160a01b03163314612e40565b50346104cd5760203660031901126104cd57604061022091612f7e61483e565b816102008451612f8d816148fb565b82815282602082015282868201528260608201528260808201528260a08201528260c08201528260e08201528261010082015282610120820152826101408201528261016082015282610180820152826101a0820152826101c0820152826101e0820152015260018060a01b03168152601a60205220610200604051613012816148fb565b60ff601084549485845260018101546020850152600281015460408501526003810154606085015260048101546080850152600581015460a085015282600682015416151560c0850152600781015460e085015260088101546101008501526009810154610120850152600a810154610140850152600b810154610160850152600c81015461018085015282600d8201541615156101a0850152600e8101546101c0850152600f8101546101e08501520154161515828201526040519283526020810151602084015260408101516040840152606081015160608401526080810151608084015260a081015160a084015260c0810151151560c084015260e081015160e08401526101008101516101008401526101208101516101208401526101408101516101408401526101608101516101608401526101808101516101808401526101a081015115156101a08401526101c08101516101c08401526101e08101516101e084015201511515610200820152f35b50346104cd57806003193601126104cd576131a06150df565b60085462093a8081018091116108ed5742106132c05760405161016081018181106001600160401b038211176132ac57604052600a808252610140366020840137825b818110613297575050600a60065404825b82518110156132515760019082856001600160a01b03806132158589614f74565b5116613225575b505050016131f4565b8180613249948193613237888c614f74565b51165af1613243614f88565b50614fb8565b82853861321c565b837f266eab4e9078d52ec3f1266d5b3619a11040584ef2997fdea8afa3c03fa559778460045461328960065460405193849384615039565b0390a1806006554260085580f35b80846132a560019386614f74565b52016131e3565b634e487b7160e01b83526041600452602483fd5b60405162461bcd60e51b81526020600482015260156024820152745765656b6c792064726177206e6f7420726561647960581b6044820152606490fd5b50346104cd5760203660031901126104cd576040906004358152601f6020522080546040519161333b836133348160018501614aeb565b03846149ce565b60028101549060ff60046003830154920154169061336b604051958695865260a0602087015260a0860190614ba8565b9260408501526060840152151560808301520390f35b50346104cd576133903661486a565b91908152600a602052604081209081548310156104cd576020611dba8484614880565b50346104cd5760403660031901126104cd576133cd61483e565b6024359081151590818303611c1d577f7c6a5677e7a854a53d06c412e00ebe65535f5343566ca7939ac7c7f6b0b00c169161344960209261340c6150df565b6001600160a01b0316808752601e84526040808820805497151560ff1660ff199889168117909155601a8652908820600601805490971617909555565b604051908152a280f35b50346104cd57806003193601126104cd576002546040516001600160a01b039091168152602090f35b50346104cd57806003193601126104cd576134956150df565b60045481526020601d815260408220600681019060ff82541661363d5760028101544210613604576134ca60038201546152a6565b9060055460031c92855b835181101561351f5760019085886001600160a01b03806134f5858a614f74565b5116613505575b505050016134d4565b8180613517948193613237888d614f74565b8588386134fc565b50825186945060058301866001600160401b0383116135f057600160401b83116135f05781548383558084106135cb575b5080860191875280872090875b8481106135b057855460ff191660011786556005546004888101829055546040518b927fdd1c72fcda97fcfc2fe124c4aa194986caca752d3769c00a6495659509d7b19b9282916108df918e9084615039565b83516001600160a01b0316838201559281019260010161355d565b8288528382892091820191015b8181106135e55750613550565b8881556001016135d8565b634e487b7160e01b87526041600452602487fd5b60405162461bcd60e51b815260048101849052601160248201527011d85b59481b9bdd08199a5b9a5cda1959607a1b6044820152606490fd5b60405162461bcd60e51b815260048101849052601660248201527511d85b5948185b1c9958591e4818dbdb5c1b195d195960521b6044820152606490fd5b50346104cd5760203660031901126104cd57606090600554906004358152601560205260408082205491601460205220549060405192835260208301526040820152f35b50346104cd57806003193601126104cd576020600654604051908152f35b50346104cd5760403660031901126104cd576004356001600160401b03808211612219573660238301121561221957816004013561371a81614ab1565b9261372860405194856149ce565b8184526024602085019260051b82010190368211613a8657602401915b818310613a8a5750505060243590811161221957366023820112156122195780600401359061377382614ab1565b9161378160405193846149ce565b8083526024602084019160051b83010191368311613a8657602401905b828210613a7657505050600080516020615b71833981519152835260186020526040832033845260205260ff6040842054168015613a62575b6137e090614eca565b6137e861510b565b8151815103613a2557600a8251116139e957438352602460205260ff6040842054166139a457438352602460205260408320600160ff198254161790556023602052604083205460018101809111610ec957438452602360205260408420558290835b8351811015613958576001600160a01b03806138678387614f74565b5116151580613945575b61387f575b5060010161384b565b61388c8286959395614f74565b51166138988484614f74565b5190808752601a6020526001604088206138b3848254614d47565b8155426003820155018054906001820180921161393157556004548752600a602052604087206138e39190614d0c565b600454808752600b6020526040872054906001820182116129b45761391b92916001918952600b602052016040882055600554614d47565b6005556001810180911161133d57916001613876565b634e487b7160e01b89526011600452602489fd5b506139508284614f74565b511515613871565b50509043835260246020526040832060ff1981541690555160405191825260208201527fc8a16388af0851bdc51694269f90c12af519cfbd71e7ab51d304b3be25d1118460404392a280f35b60405162461bcd60e51b815260206004820152601f60248201527f42617463682070726f63657373696e6720616c726561647920616374697665006044820152606490fd5b60405162461bcd60e51b815260206004820152601460248201527342617463682073697a6520746f6f206c6172676560601b6044820152606490fd5b60405162461bcd60e51b8152602060048201526015602482015274082e4e4c2f240d8cadccee8d040dad2e6dac2e8c6d605b1b6044820152606490fd5b506001546001600160a01b031633146137d7565b813581526020918201910161379e565b8580fd5b82356001600160a01b0381168103613aaa57815260209283019201613745565b8680fd5b50346104cd5760203660031901126104cd576020906040906001600160a01b03613ad661483e565b1681528280522054604051908152f35b50346104cd5760403660031901126104cd57600435613b03614854565b818352601960205260408320546001600160a01b039190821633148015613b84575b613b2e90614e30565b16613b3a811515614e8c565b81835260186020526040832081845260205260408320600160ff1982541617905533917f2f8788117e7eff1d82e926ec794901d17c78024a50270940304540a733656f0d8480a480f35b5060015482163314613b25565b50346104cd57806003193601126104cd576020601154604051908152f35b50346104cd57806003193601126104cd57613bc8615189565b613bd061510b565b3381526020601e815260ff613bec60ff60408520541615614d54565b338352601a8252613c0760ff60066040862001541615614d54565b338352601c825260408320546001600160a01b03908116613def5782604051613c2f81614946565b60148082528282019483368737875b828110613d7957505050613d6f926003613cdf7f9aba81a9970f49adfcb9191b4663d4a18a3a6236fbbef5e36c5478a55fd4a03a9694613d5c94613cce6025613c86426158ef565b98604051998a91613cab878401966450495a5a4160d81b885251809286860190614a72565b8201613cbf82518093898785019101614a72565b0103600581018a5201886149ce565b604051809381928951928391614a72565b8101601b815203019020916001600160601b0360a01b92338482541617905560405192613d0b846148ca565b3384528884018a815260408501918b8352606086019360018552338d52601c8c5260408d209651169086541617855551600185015551600284015551151591019060ff801983541691151516179055565b6040519182918583523395830190614ba8565b0390a26001815580f35b9091929350601381810390811161393157600381901b906001600160fd1b0381160361393157828111613931576001811b15613ddb576001919033901c60f81b6001600160f81b031916891a613dcf828761560c565b53019086939291613c3e565b634e487b7160e01b89526012600452602489fd5b60405162461bcd60e51b815260048101849052601c60248201527f526566657272616c20636f646520616c726561647920657869737473000000006044820152606490fd5b50346104cd5760203660031901126104cd5760ff60406020926004358152601384522054166040519015158152f35b50346104cd57806003193601126104cd576020602654604051908152f35b50346104cd576020613e9236614a0a565b81613ea66040519283815193849201614a72565b601b90820190815281900382019020546040516001600160a01b039091168152f35b50346104cd57806003193601126104cd576003546040516001600160a01b039091168152602090f35b50346104cd57602080600319360112611f4157600435613f0f615189565b613f1761510b565b338352601e8252613f2f60ff60408520541615614d54565b338352601a91828152613f4c60ff60066040872001541615614d54565b338452828152600c60408520015462015180810180911161133d57613f7390421015614d98565b338452828152613f8c6064600e60408720015410614de4565b818452601f8152604084209260ff6004850154161561416457600584019033865281835260ff60408720541661411f576002850191825480156140da576103e8811161409557613fdc90336151ac565b338752835260408620600160ff19825416179055808352600a604087200154600181018091116123855791600080516020615b91833981519152949391614037604094338a52828552858a2090600a82015554835490614d47565b903389528352838820908155600c429101555492825190815283828201527f20861823fa14b60d3f02cc6e48b647ac592dd27e39a78f278df5c918dabb8b2c833392a2815192835282015280613d6f33946001604084019101614aeb565b60405162461bcd60e51b815260048101869052601960248201527f4368616c6c656e67652072657761726420746f6f2068696768000000000000006044820152606490fd5b60405162461bcd60e51b815260048101869052601860248201527f496e76616c6964206368616c6c656e67652072657761726400000000000000006044820152606490fd5b60405162461bcd60e51b815260048101849052601b60248201527f4368616c6c656e676520616c726561647920636f6d706c6574656400000000006044820152606490fd5b60405162461bcd60e51b81526004810183905260146024820152734368616c6c656e6765206e6f742061637469766560601b6044820152606490fd5b50346104cd57806003193601126104cd576141b9615189565b6141c161510b565b3381526020601e81526141db60ff60408420541615614d54565b338252601a8082526141f760ff60066040862001541615614d54565b338352808252600c604084200154620151809081810180911161133d5761422090421015614d98565b3384528183526142396064600e60408720015410614de4565b3384528183526007600460408620015410614379573384528183526005604085200154908101809111610ec957421061432957338352818052604083205460038101809111610ec95760648111610ef3573384528280526040842055808252600e60408420015460038101809111610ec9573384528183526040842090600e820155549060038201809211610ec957338452825260408320908155426005820155600c429101556040805191600383528201526012604082015271372d6461792073747265616b20626f6e757360701b6060820152600080516020615b9183398151915260803392a26001815580f35b60405162461bcd60e51b815260048101839052602260248201527f53747265616b20626f6e757320616c726561647920636c61696d656420746f64604482015261617960f01b6064820152608490fd5b60405162461bcd60e51b815260048101849052601860248201527f372d6461792073747265616b206e6f74207265616368656400000000000000006044820152606490fd5b50346104cd5760203660031901126104cd5760809060406143dd61483e565b9180606083516143ec816148ca565b8281528260208201528285820152015260018060a01b038093168152601c60205220906040519061441c826148ca565b82541691828252600181015460208301908152606060ff600360028501549460408701958652015416930192151583526040519384525160208401525160408301525115156060820152f35b50346104cd57806003193601126104cd5760206040517fbf233dd2aafeb4d50879c4aa5c81e96d92f6e6945c906a58f9f2d1c1631b4b268152f35b50346104cd57806003193601126104cd576040517f00000000000000000000000000000000000000000000000000000000000000006001600160a01b03168152602090f35b50346104cd57806003193601126104cd576020601654604051908152f35b50346104cd57806003193601126104cd57602060405160088152f35b50346104cd57602080600319360112611f41576004359061454161510b565b81156145fe576145503361512c565b6145c45760125483526010815261456a3360408520614d0c565b601254808452600f8252614582836040862054614d47565b908452600f82526040842055601254906040519283528201527fefe539503e4a6bc6d750abe6f7471ea59543ad95e1757fcd02ecb9a6c212e92060403392a280f35b6064906040519062461bcd60e51b825260048201526013602482015272105b1c9958591e4818dbdb9d1c9a589d5d1959606a1b6044820152fd5b6064906040519062461bcd60e51b82526004820152600f60248201526e496e76616c696420656e74726f707960881b6044820152fd5b50346104cd5760203660031901126104cd57604060e0916004358152601d6020522080549060018101549060028101546003820154600483015491600760ff600686015416940154946040519687526020870152604086015260608501526080840152151560a083015260c0820152f35b50346104cd576146b43661486a565b919081526010602052604081209081548310156104cd576020611dba8484614880565b50346104cd57806003193601126104cd576146f06150df565b6146f861510b565b60025460405163f8413b0760e01b8152906020908290600490829086906001600160a01b03165af1908115610bca578291614769575b506040817f3d94fecedaa4f90b8bd459797adb95f5bb11426025c5541390d9ccc1ad1b60a1926009556004549082519182526020820152a180f35b90506020813d602011614794575b81614784602093836149ce565b81010312611f415751604061472e565b3d9150614777565b50346104cd57806003193601126104cd57600354604051630d73ebb560e01b815290602090829060049082906001600160a01b03165afa908115610bca578291611f1357602082604051908152f35b50346104cd57806003193601126104cd57602060405161012c8152f35b905034611f41576020366003190112611f41576020916040906001600160a01b0361483161483e565b1681526021845220548152f35b600435906001600160a01b0382168203610a7c57565b602435906001600160a01b0382168203610a7c57565b6040906003190112610a7c576004359060243590565b80548210156148985760005260206000200190600090565b634e487b7160e01b600052603260045260246000fd5b34610a7c576000366003190112610a7c576020604051600a8152f35b608081019081106001600160401b038211176148e557604052565b634e487b7160e01b600052604160045260246000fd5b61022081019081106001600160401b038211176148e557604052565b61010081019081106001600160401b038211176148e557604052565b6001600160401b0381116148e557604052565b604081019081106001600160401b038211176148e557604052565b602081019081106001600160401b038211176148e557604052565b606081019081106001600160401b038211176148e557604052565b60c081019081106001600160401b038211176148e557604052565b61012081019081106001600160401b038211176148e557604052565b90601f801991011681019081106001600160401b038211176148e557604052565b6001600160401b0381116148e557601f01601f191660200190565b6020600319820112610a7c576004356001600160401b038111610a7c5781602382011215610a7c57806004013590614a41826149ef565b92614a4f60405194856149ce565b82845260248383010111610a7c5781600092602460209301838601378301015290565b60005b838110614a855750506000910152565b8181015183820152602001614a75565b34610a7c576000366003190112610a7c57602060405160648152f35b6001600160401b0381116148e55760051b60200190565b34610a7c576000366003190112610a7c576020604051670de0b6b3a76400008152f35b80546000939260018083169383821c938515614b9e575b6020958686108114614b8857858552908115614b695750600114614b28575b5050505050565b90939495506000929192528360002092846000945b838610614b5557505050500101903880808080614b21565b805485870183015294019385908201614b3d565b60ff19168685015250505090151560051b010191503880808080614b21565b634e487b7160e01b600052602260045260246000fd5b93607f1693614b02565b90602091614bc181518092818552858086019101614a72565b601f01601f1916010190565b6060906003190112610a7c57600435906024359060443590565b34610a7c576000366003190112610a7c57602060405160028152f35b34610a7c576000366003190112610a7c57602060405160018152f35b6020918282526101208201908051848401528381015160408401526040810151606084015260608101516080840152608081015160a084015260a081015193610100928360c0860152855180915281610140860196019160005b828110614c9a57505050508060c060e0920151151582850152015191015290565b83516001600160a01b031688529681019692810192600101614c79565b34610a7c576000366003190112610a7c57602060405160328152f35b34610a7c576000366003190112610a7c576020604051610e108152f35b34610a7c576000366003190112610a7c57602060405160038152f35b8054600160401b8110156148e557614d2991600182018155614880565b60018060a09493941b038084549260031b9316831b921b1916179055565b91908201809211610edd57565b15614d5b57565b60405162461bcd60e51b8152602060048201526015602482015274141b185e595c881a5cc8189b1858dadb1a5cdd1959605a1b6044820152606490fd5b15614d9f57565b60405162461bcd60e51b815260206004820152601c60248201527f52657761726420616c726561647920636c61696d656420746f646179000000006044820152606490fd5b15614deb57565b60405162461bcd60e51b815260206004820152601a60248201527f4461696c7920726577617264206c696d697420726561636865640000000000006044820152606490fd5b15614e3757565b60405162461bcd60e51b815260206004820152602760248201527f416363657373436f6e74726f6c3a2063616c6c6572206973206e6f7420726f6c604482015266329030b236b4b760c91b6064820152608490fd5b15614e9357565b60405162461bcd60e51b815260206004820152600f60248201526e496e76616c6964206164647265737360881b6044820152606490fd5b15614ed157565b60405162461bcd60e51b815260206004820152602860248201527f416363657373436f6e74726f6c3a2063616c6c657220646f6573206e6f74206860448201526761766520726f6c6560c01b6064820152608490fd5b8051156148985760200190565b8051600110156148985760400190565b8051600210156148985760600190565b8051600310156148985760800190565b8051600410156148985760a00190565b80518210156148985760209160051b010190565b3d15614fb3573d90614f99826149ef565b91614fa760405193846149ce565b82523d6000602084013e565b606090565b15614fbf57565b60405162461bcd60e51b8152602060048201526015602482015274141c9a5e99481d1c985b9cd9995c8819985a5b1959605a1b6044820152606490fd5b90815180825260208080930193019160005b82811061501c575050505090565b83516001600160a01b03168552938101939281019260010161500e565b939291615056906040928652606060208701526060860190614ffc565b930152565b91908203918211610edd57565b6040519061507582614917565b8160e0600091828152826020820152826040820152826060820152826080820152606060a08201528260c08201520152565b81156150b1570690565b634e487b7160e01b600052601260045260246000fd5b90816020910312610a7c57518015158103610a7c5790565b6001546001600160a01b031633036150f357565b60405163118cdaa760e01b8152336004820152602490fd5b60ff60015460a01c1661511a57565b60405163d93c066560e01b8152600490fd5b6012549060005b82600052601060205260406000208054821015615180578161515491614880565b905460039190911b1c6001600160a01b039081169083161461517857600101615133565b505050600190565b50505050600090565b60026000541461519a576002600055565b604051633ee5aeb560e01b8152600490fd5b8115615252576103e882116152145760018060a01b0316906000908282526020908180526151de816040852054614d47565b60648111610ef35760409261520b8593601a9388600e985283805286862055838352868686200154614d47565b95835252200155565b60405162461bcd60e51b81526020600482015260166024820152750a4caeec2e4c840c2dadeeadce840e8dede40d0d2ced60531b6044820152606490fd5b60405162461bcd60e51b815260206004820152601e60248201527f52657761726420616d6f756e74206d75737420626520706f73697469766500006044820152606490fd5b6000198114610edd5760010190565b906040908151906152b6826149b2565b600892600883526020906101003683860137600091868352601d8152600782842001549182156153f5576002548151631daaf1b160e11b815260048101949094526001600160a01b0398908390859060249082908d165afa9384156153eb5785946153b8575b5083156153ac578452600a8252808420948554948515615396575b888110806153a3575b1561539657615391908a615379615373898751898101908b8252868a82015289815261536b8161497c565b5190206150a7565b8a614880565b90549060031b1c1661538b828b614f74565b52615297565b615337565b5097505050505050905090565b50858110615340565b50505050509250905090565b9093508281813d83116153e4575b6153d081836149ce565b810103126153e05751923861531c565b8480fd5b503d6153c6565b82513d87823e3d90fd5b505050509250905090565b600461540c8154615297565b808255620151804201804211615567576040519261542984614961565b6000908185526040519461543c86614917565b848652602092838701934285526040880195865260608801828152608089019083825260a08a0194855260c08a019784895260e08b0199858b528552601d8452604085209a518b556001975160018c01555160028b01555160038a015551848901556005880192518051946001600160401b03861161555457600160401b861161555457508190845486865580871061552a575b5001928252808220915b8481106155105750505050505090615506600792511515600685019060ff801983541691151516179055565b5191015542600755565b83516001600160a01b0316838201559281019285016154da565b858552878784872092830192015b8281106155465750506154d0565b868155859450899101615538565b634e487b7160e01b845260419052602483fd5b601183634e487b7160e01b6000525260246000fd5b60018060a01b03166000908082526022602052601e61559f60408420544261505b565b106155d3578152601a602052600a6001604083200154116155cd576020805260646040822054116155cd5790565b50600190565b5050600190565b906155e4826149ef565b6155f160405191826149ce565b8281528092615602601f19916149ef565b0190602036910137565b908151811015614898570160200190565b805160038110908115615825575b5061581f5760005b81518110156156ef576001600160f81b031961564f828461560c565b5116600360fc1b81101590816156e0575b81156156bc575b8115615698575b811561568a575b501561568357600101615633565b5050600090565b605f60f81b14905038615675565b9050606160f81b811015806156ae575b9061566e565b50603d60f91b8111156156a8565b9050604160f81b811015806156d2575b90615667565b50602d60f91b8111156156cc565b603960f81b8111159150615660565b5060015b8151811015615751576001600160f81b0319605f60f81b8082615716858761560c565b511614918261572e575b5050615683576001016156f3565b9091506000198301838111610edd57615747908561560c565b5116143880615720565b509061575d82516155da565b60005b8351811015615805576001600160f81b031990606160f81b82615783838861560c565b51161015806157eb575b156157c95761579c818661560c565b5160f89290831c601f190160ff8111610edd576001931b1660001a6157c1828561560c565b535b01615760565b6001916157d6828761560c565b511660001a6157e5828561560c565b536157c3565b50603d60f91b826157fc838861560c565b5116111561578d565b5061581191925061598d565b61581a57600190565b600090565b50600090565b60329150113861562b565b9060409160405192615841846149b2565b60089260088552602061010036602088013760009184600052600b6020526040600020549081156158e55760005b87811061588157505050505050505090565b6001906158c66158b785895188810190878252858c82015242606082015244608082015260a08d81830152815261536b81614997565b898852600a8752888820614880565b838060a01b0391549060031b1c166158de828c614f74565b520161586f565b5050505050505090565b801561596f5780600081805b6159575750615909816155da565b925b61591457505090565b6000198101908111610edd578091600a9160308383068101809111610edd5760f81b6001600160f81b03191660001a9061594e908661560c565b5304908161590b565b9150615964600a91615297565b9104808392916158fb565b5060405161597c81614946565b60018152600360fc1b602082015290565b604080519061599b82614997565b6005825260005b60a08110615ad2575080516159b681614946565b600581526420a226a4a760d91b60208201526159d183614f27565b526159db82614f27565b5080516159e781614946565b600581526427aba722a960d91b6020820152615a0283614f34565b52615a0c82614f34565b508051615a1881614946565b600681526553595354454d60d01b6020820152615a3483614f44565b52615a3e82614f44565b508051615a4a81614946565b60048152631395531360e21b6020820152615a6483614f54565b52615a6e82614f54565b5051615a7981614946565b6004815263151154d560e21b6020820152615a9382614f64565b52615a9d81614f64565b5060005b8151811015615aca57615abe615ab78284614f74565b5184615ae3565b61517857600101615aa1565b505050600090565b8060606020809386010152016159a2565b908051825110615683576000905b615afe835182519061505b565b8211615aca5760019260005b8251811015615b66576001600160f81b031980615b30615b2a8488614d47565b8561560c565b511690615b3d838661560c565b511603615b4c57600101615b0a565b5092509060005b61517857615b6090615297565b90615af1565b5092919091615b5356fe97667070c54ef182b0f5858b034beac1b6f3089aa2d3188bb1e8929f4fa9b929195188e7e2a9c946c91317946030490c3ba48a5b7f867101928826fa4cc609c5a2646970667358221220fc425b506c5f22ded419fafe5a304a0bf3d99f7f01b4ef730dea272d33fb00ae64736f6c63430008180033","opcodes":"PUSH1 0xA0 CALLVALUE PUSH3 0x557 JUMPI PUSH1 0x1F PUSH3 0x616E CODESIZE DUP2 SWAP1 SUB SWAP2 DUP3 ADD PUSH1 0x1F NOT AND DUP4 ADD SWAP3 SWAP2 SWAP1 PUSH1 0x1 PUSH1 0x1 PUSH1 0x40 SHL SUB DUP5 GT DUP4 DUP6 LT OR PUSH3 0x55C JUMPI DUP2 PUSH1 0x60 SWAP3 DUP5 SWAP3 PUSH1 0x40 SWAP7 DUP8 MSTORE DUP4 CODECOPY DUP2 ADD SUB SLT PUSH3 0x557 JUMPI PUSH3 0x51 DUP2 PUSH3 0x572 JUMP JUMPDEST SWAP1 PUSH3 0x6D DUP4 PUSH3 0x65 PUSH1 0x20 DUP5 ADD PUSH3 0x572 JUMP JUMPDEST SWAP3 ADD PUSH3 0x572 JUMP JUMPDEST PUSH1 0x1 PUSH1 0x0 SSTORE CALLER ISZERO PUSH3 0x53F JUMPI PUSH1 0x1 DUP1 SLOAD CALLER PUSH1 0x1 PUSH1 0x1 PUSH1 0xA0 SHL SUB NOT DUP1 DUP4 AND DUP3 OR SWAP1 SWAP4 SSTORE DUP7 MLOAD SWAP3 SWAP6 SWAP3 SWAP5 SWAP3 SWAP2 PUSH1 0x1 PUSH1 0x1 PUSH1 0xA0 SHL SUB AND PUSH32 0x8BE0079C531659141344CD1FD0A4F28419497F9722A3DAAFE3B4186F6B6457E0 PUSH1 0x0 DUP1 LOG3 PUSH1 0x1 PUSH1 0x1 PUSH1 0xA0 SHL SUB AND DUP1 PUSH3 0x535 JUMPI JUMPDEST POP PUSH1 0x1 PUSH1 0x1 PUSH1 0xA0 SHL SUB AND SWAP2 DUP3 ISZERO PUSH3 0x4E7 JUMPI POP PUSH1 0x1 PUSH1 0x1 PUSH1 0xA0 SHL SUB AND SWAP1 DUP2 ISZERO PUSH3 0x4A3 JUMPI DUP3 PUSH1 0x2 SLOAD AND OR PUSH1 0x2 SSTORE DUP2 PUSH1 0x3 SLOAD AND OR PUSH1 0x3 SSTORE PUSH32 0xA49807205CE4D355092EF5A8A18F56E8913CF4A201FBE287825B095693C21775 DUP1 PUSH1 0x0 MSTORE PUSH1 0x18 PUSH1 0x20 MSTORE DUP3 PUSH1 0x0 KECCAK256 CALLER PUSH1 0x0 MSTORE PUSH1 0x20 MSTORE DUP3 PUSH1 0x0 KECCAK256 PUSH1 0x1 PUSH1 0xFF NOT DUP3 SLOAD AND OR SWAP1 SSTORE PUSH32 0x97667070C54EF182B0F5858B034BEAC1B6F3089AA2D3188BB1E8929F4FA9B929 DUP1 PUSH1 0x0 MSTORE PUSH1 0x18 PUSH1 0x20 MSTORE DUP4 PUSH1 0x0 KECCAK256 CALLER PUSH1 0x0 MSTORE PUSH1 0x20 MSTORE DUP4 PUSH1 0x0 KECCAK256 PUSH1 0x1 PUSH1 0xFF NOT DUP3 SLOAD AND OR SWAP1 SSTORE PUSH32 0xBF233DD2AAFEB4D50879C4AA5C81E96D92F6E6945C906A58F9F2D1C1631B4B26 SWAP1 DUP2 PUSH1 0x0 MSTORE PUSH1 0x18 PUSH1 0x20 MSTORE DUP5 PUSH1 0x0 KECCAK256 CALLER PUSH1 0x0 MSTORE PUSH1 0x20 MSTORE DUP5 PUSH1 0x0 KECCAK256 PUSH1 0x1 PUSH1 0xFF NOT DUP3 SLOAD AND OR SWAP1 SSTORE PUSH32 0x59A1C48E5837AD7A7F3DCEDCBE129BF3249EC4FBF651FD4F5E2600EAD39FE2F5 SWAP4 DUP5 PUSH1 0x0 MSTORE PUSH1 0x18 PUSH1 0x20 MSTORE DUP6 PUSH1 0x0 KECCAK256 CALLER PUSH1 0x0 MSTORE PUSH1 0x20 MSTORE DUP6 PUSH1 0x0 KECCAK256 PUSH1 0x1 PUSH1 0xFF NOT DUP3 SLOAD AND OR SWAP1 SSTORE DUP4 PUSH1 0x0 MSTORE PUSH1 0x19 PUSH1 0x20 MSTORE DUP6 PUSH1 0x0 KECCAK256 CALLER DUP3 DUP3 SLOAD AND OR SWAP1 SSTORE DUP2 PUSH1 0x0 MSTORE DUP6 PUSH1 0x0 KECCAK256 CALLER DUP3 DUP3 SLOAD AND OR SWAP1 SSTORE DUP3 PUSH1 0x0 MSTORE DUP6 PUSH1 0x0 KECCAK256 CALLER DUP3 DUP3 SLOAD AND OR SWAP1 SSTORE DUP5 PUSH1 0x0 MSTORE DUP6 PUSH1 0x0 KECCAK256 SWAP1 CALLER SWAP1 DUP3 SLOAD AND OR SWAP1 SSTORE PUSH32 0x2F8788117E7EFF1D82E926EC794901D17C78024A50270940304540A733656F0D SWAP3 CALLER SWAP1 CALLER SWAP1 DUP6 PUSH1 0x0 DUP1 LOG4 CALLER SWAP1 CALLER SWAP1 DUP5 PUSH1 0x0 DUP1 LOG4 CALLER SWAP1 CALLER SWAP1 DUP4 PUSH1 0x0 DUP1 LOG4 CALLER SWAP2 CALLER SWAP2 PUSH1 0x0 DUP1 LOG4 PUSH1 0x4 PUSH1 0x2 DUP2 SSTORE PUSH3 0x15180 TIMESTAMP ADD DUP1 TIMESTAMP GT PUSH3 0x48E JUMPI DUP3 MLOAD PUSH1 0x20 DUP2 ADD PUSH1 0x1 PUSH1 0x1 PUSH1 0x40 SHL SUB DUP2 GT DUP3 DUP3 LT OR PUSH3 0x479 JUMPI DUP5 MSTORE PUSH1 0x0 DUP2 MSTORE DUP4 MLOAD SWAP2 PUSH2 0x100 DUP4 ADD PUSH1 0x1 PUSH1 0x1 PUSH1 0x40 SHL SUB DUP2 GT DUP5 DUP3 LT OR PUSH3 0x464 JUMPI DUP6 MSTORE PUSH1 0x2 DUP4 MSTORE TIMESTAMP PUSH1 0x20 DUP5 ADD MSTORE DUP5 DUP4 ADD MSTORE PUSH1 0x0 PUSH1 0x60 DUP4 ADD MSTORE PUSH1 0x0 PUSH1 0x80 DUP4 ADD MSTORE PUSH1 0xA0 DUP3 ADD MSTORE PUSH1 0x0 PUSH1 0xC0 DUP3 ADD MSTORE PUSH1 0x0 PUSH1 0xE0 DUP3 ADD MSTORE PUSH1 0x2 PUSH1 0x0 MSTORE PUSH1 0x1D PUSH1 0x20 MSTORE DUP3 PUSH1 0x0 KECCAK256 SWAP2 DUP2 MLOAD DUP4 SSTORE PUSH1 0x20 DUP3 ADD MLOAD PUSH1 0x1 DUP5 ADD SSTORE DUP4 DUP3 ADD MLOAD PUSH1 0x2 DUP5 ADD SSTORE PUSH1 0x60 DUP3 ADD MLOAD PUSH1 0x3 DUP5 ADD SSTORE PUSH1 0x80 DUP3 ADD MLOAD DUP2 DUP5 ADD SSTORE PUSH1 0x5 DUP4 ADD PUSH1 0xA0 DUP4 ADD MLOAD DUP1 MLOAD SWAP3 PUSH1 0x1 DUP1 PUSH1 0x40 SHL SUB DUP5 GT PUSH3 0x44F JUMPI PUSH9 0x10000000000000000 DUP5 GT PUSH3 0x44F JUMPI POP DUP2 SLOAD DUP4 DUP4 SSTORE DUP1 DUP5 LT PUSH3 0x423 JUMPI JUMPDEST POP PUSH1 0x20 ADD SWAP1 PUSH1 0x0 MSTORE PUSH1 0x20 PUSH1 0x0 KECCAK256 PUSH1 0x0 JUMPDEST DUP4 DUP2 LT PUSH3 0x405 JUMPI DUP7 DUP7 PUSH1 0x7 PUSH1 0xE0 DUP9 PUSH1 0x6 DUP5 ADD PUSH1 0xC0 DUP3 ADD MLOAD ISZERO ISZERO PUSH1 0xFF DUP1 NOT DUP4 SLOAD AND SWAP2 AND OR SWAP1 SSTORE ADD MLOAD SWAP2 ADD SSTORE TIMESTAMP PUSH1 0x7 SSTORE MLOAD PUSH2 0x5BE6 SWAP1 DUP2 PUSH3 0x588 DUP3 CODECOPY PUSH1 0x80 MLOAD DUP2 DUP2 DUP2 PUSH2 0x727 ADD MSTORE DUP2 DUP2 PUSH2 0x100B ADD MSTORE DUP2 DUP2 PUSH2 0x204F ADD MSTORE PUSH2 0x44B9 ADD MSTORE RETURN JUMPDEST DUP3 MLOAD PUSH1 0x1 PUSH1 0x1 PUSH1 0xA0 SHL SUB AND DUP2 DUP4 ADD SSTORE PUSH1 0x20 SWAP1 SWAP3 ADD SWAP2 PUSH1 0x1 ADD PUSH3 0x3AA JUMP JUMPDEST DUP3 PUSH1 0x0 MSTORE DUP4 PUSH1 0x20 PUSH1 0x0 KECCAK256 SWAP2 DUP3 ADD SWAP2 ADD JUMPDEST DUP2 DUP2 LT PUSH3 0x442 JUMPI POP PUSH3 0x39A JUMP JUMPDEST PUSH1 0x0 DUP2 SSTORE PUSH1 0x1 ADD PUSH3 0x433 JUMP JUMPDEST PUSH1 0x41 SWAP1 PUSH4 0x4E487B71 PUSH1 0xE0 SHL PUSH1 0x0 MSTORE MSTORE PUSH1 0x24 PUSH1 0x0 REVERT JUMPDEST PUSH1 0x41 DUP6 PUSH4 0x4E487B71 PUSH1 0xE0 SHL PUSH1 0x0 MSTORE MSTORE PUSH1 0x24 PUSH1 0x0 REVERT JUMPDEST PUSH1 0x41 DUP5 PUSH4 0x4E487B71 PUSH1 0xE0 SHL PUSH1 0x0 MSTORE MSTORE PUSH1 0x24 PUSH1 0x0 REVERT JUMPDEST PUSH1 0x11 DUP3 PUSH4 0x4E487B71 PUSH1 0xE0 SHL PUSH1 0x0 MSTORE MSTORE PUSH1 0x24 PUSH1 0x0 REVERT JUMPDEST DUP4 MLOAD PUSH3 0x461BCD PUSH1 0xE5 SHL DUP2 MSTORE PUSH1 0x20 PUSH1 0x4 DUP3 ADD MSTORE PUSH1 0x1C PUSH1 0x24 DUP3 ADD MSTORE PUSH32 0x496E76616C6964207072696365206F7261636C65206164647265737300000000 PUSH1 0x44 DUP3 ADD MSTORE PUSH1 0x64 SWAP1 REVERT JUMPDEST PUSH3 0x461BCD PUSH1 0xE5 SHL DUP2 MSTORE PUSH1 0x20 PUSH1 0x4 DUP3 ADD MSTORE PUSH1 0x23 PUSH1 0x24 DUP3 ADD MSTORE PUSH32 0x496E76616C69642072616E646F6D6E65737320636F6E74726163742061646472 PUSH1 0x44 DUP3 ADD MSTORE PUSH3 0x657373 PUSH1 0xE8 SHL PUSH1 0x64 DUP3 ADD MSTORE PUSH1 0x84 SWAP1 REVERT JUMPDEST PUSH1 0x80 MSTORE CODESIZE PUSH3 0xD5 JUMP JUMPDEST DUP4 MLOAD PUSH4 0x1E4FBDF7 PUSH1 0xE0 SHL DUP2 MSTORE PUSH1 0x0 PUSH1 0x4 DUP3 ADD MSTORE PUSH1 0x24 SWAP1 REVERT JUMPDEST PUSH1 0x0 DUP1 REVERT JUMPDEST PUSH4 0x4E487B71 PUSH1 0xE0 SHL PUSH1 0x0 MSTORE PUSH1 0x41 PUSH1 0x4 MSTORE PUSH1 0x24 PUSH1 0x0 REVERT JUMPDEST MLOAD SWAP1 PUSH1 0x1 PUSH1 0x1 PUSH1 0xA0 SHL SUB DUP3 AND DUP3 SUB PUSH3 0x557 JUMPI JUMP INVALID PUSH1 0xE0 DUP1 PUSH1 0x40 MSTORE PUSH1 0x4 CALLDATASIZE LT ISZERO PUSH2 0x13 JUMPI PUSH1 0x0 DUP1 REVERT JUMPDEST PUSH1 0x0 SWAP1 DUP2 CALLDATALOAD PUSH1 0xE0 SHR SWAP1 DUP2 PUSH4 0x3FA2C63 EQ PUSH2 0x4808 JUMPI POP DUP1 PUSH4 0x98655D9 EQ PUSH2 0x47EB JUMPI DUP1 PUSH4 0xAA01695 EQ PUSH2 0x479C JUMPI DUP1 PUSH4 0xB00A5DB EQ PUSH2 0x46D7 JUMPI DUP1 PUSH4 0xC89D127 EQ PUSH2 0x46A5 JUMPI DUP1 PUSH4 0xD9F92CA EQ PUSH2 0x51C JUMPI DUP1 PUSH4 0x117A5B90 EQ PUSH2 0x4634 JUMPI DUP1 PUSH4 0x1472CBE3 EQ PUSH2 0x4522 JUMPI DUP1 PUSH4 0x16FA1086 EQ PUSH2 0x4506 JUMPI DUP1 PUSH4 0x19BF155D EQ PUSH2 0x44E8 JUMPI DUP1 PUSH4 0x2086EEFA EQ PUSH2 0x44A3 JUMPI DUP1 PUSH4 0x20DF4359 EQ PUSH2 0x4468 JUMPI DUP1 PUSH4 0x21874AE2 EQ PUSH2 0x43BE JUMPI DUP1 PUSH4 0x25B7F388 EQ PUSH2 0x41A0 JUMPI DUP1 PUSH4 0x2618CAFD EQ PUSH2 0x3EF1 JUMPI DUP1 PUSH4 0x2630C12F EQ PUSH2 0x3EC8 JUMPI DUP1 PUSH4 0x2655E840 EQ PUSH2 0x3E81 JUMPI DUP1 PUSH4 0x28100ACA EQ PUSH2 0x3E63 JUMPI DUP1 PUSH4 0x2A243F19 EQ PUSH2 0x3E34 JUMPI DUP1 PUSH4 0x2E108D1C EQ PUSH2 0x3BAF JUMPI DUP1 PUSH4 0x2EE8B778 EQ PUSH2 0x3B91 JUMPI DUP1 PUSH4 0x2F2FF15D EQ PUSH2 0x3AE6 JUMPI DUP1 PUSH4 0x2FF7A52D EQ PUSH2 0x3AAE JUMPI DUP1 PUSH4 0x39D8EA42 EQ PUSH2 0x14F4 JUMPI DUP1 PUSH4 0x3A65126A EQ PUSH2 0x36DD JUMPI DUP1 PUSH4 0x3BB4F638 EQ PUSH2 0x36BF JUMPI DUP1 PUSH4 0x3F781412 EQ PUSH2 0x367B JUMPI DUP1 PUSH4 0x3FB83A54 EQ PUSH2 0x347C JUMPI DUP1 PUSH4 0x41FE39EC EQ PUSH2 0x3453 JUMPI DUP1 PUSH4 0x43F2A080 EQ PUSH2 0x33B3 JUMPI DUP1 PUSH4 0x49FAA4D4 EQ PUSH2 0x51C JUMPI DUP1 PUSH4 0x4B75344E EQ PUSH2 0x175E JUMPI DUP1 PUSH4 0x4EB692A5 EQ PUSH2 0x3381 JUMPI DUP1 PUSH4 0x4F55E8AD EQ PUSH2 0x32FD JUMPI DUP1 PUSH4 0x52861F7F EQ PUSH2 0x3187 JUMPI DUP1 PUSH4 0x59328401 EQ PUSH2 0x2F5E JUMPI DUP1 PUSH4 0x59A9867E EQ PUSH2 0x2DEA JUMPI DUP1 PUSH4 0x59DB6FE6 EQ PUSH2 0x2DCC JUMPI DUP1 PUSH4 0x5C27B2E4 EQ PUSH2 0x260E JUMPI DUP1 PUSH4 0x5C975ABB EQ PUSH2 0x25E8 JUMPI DUP1 PUSH4 0x67CAFABB EQ PUSH2 0x25BE JUMPI DUP1 PUSH4 0x69396E88 EQ PUSH2 0x25A2 JUMPI DUP1 PUSH4 0x6CE497B2 EQ PUSH2 0x2500 JUMPI DUP1 PUSH4 0x6E1D616E EQ PUSH2 0x24C5 JUMPI DUP1 PUSH4 0x715018A6 EQ PUSH2 0x2468 JUMPI DUP1 PUSH4 0x71E4206D EQ PUSH2 0x2224 JUMPI DUP1 PUSH4 0x74631FD7 EQ PUSH2 0x1FDF JUMPI DUP1 PUSH4 0x7550B84F EQ PUSH2 0x1FC1 JUMPI DUP1 PUSH4 0x75B238FC EQ PUSH2 0x1F86 JUMPI DUP1 PUSH4 0x77CE2992 EQ PUSH2 0x1F4D JUMPI DUP1 PUSH4 0x786A78C6 EQ PUSH2 0x1EC3 JUMPI DUP1 PUSH4 0x79675127 EQ PUSH2 0x1E99 JUMPI DUP1 PUSH4 0x7A7EB1F4 EQ PUSH2 0x1E94 JUMPI DUP1 PUSH4 0x84A3A0F3 EQ PUSH2 0x1E94 JUMPI DUP1 PUSH4 0x8543210D EQ PUSH2 0x1E61 JUMPI DUP1 PUSH4 0x8C267E0D EQ PUSH2 0xFCD JUMPI DUP1 PUSH4 0x8DA5CB5B EQ PUSH2 0x1E38 JUMPI DUP1 PUSH4 0x91D14854 EQ PUSH2 0x1DD3 JUMPI DUP1 PUSH4 0x920736E5 EQ PUSH2 0x1D88 JUMPI DUP1 PUSH4 0x968D901B EQ PUSH2 0x1CCA JUMPI DUP1 PUSH4 0x96F277B7 EQ PUSH2 0x1CA3 JUMPI DUP1 PUSH4 0x9B5A139A EQ PUSH2 0x1CA8 JUMPI DUP1 PUSH4 0x9B95F1FC EQ PUSH2 0x1CA3 JUMPI DUP1 PUSH4 0x9CA423B3 EQ PUSH2 0x1C3E JUMPI DUP1 PUSH4 0xA04F6B4B EQ PUSH2 0x1C21 JUMPI DUP1 PUSH4 0xA154FC6B EQ PUSH2 0x1BB1 JUMPI DUP1 PUSH4 0xA2F77BCC EQ PUSH2 0x1AD0 JUMPI DUP1 PUSH4 0xA37C1572 EQ PUSH2 0x1AA1 JUMPI DUP1 PUSH4 0xA88066F7 EQ PUSH2 0x1AA6 JUMPI DUP1 PUSH4 0xA9B8B451 EQ PUSH2 0x1AA1 JUMPI DUP1 PUSH4 0xAD763192 EQ PUSH2 0x1A2C JUMPI DUP1 PUSH4 0xAEA664A5 EQ PUSH2 0x19E4 JUMPI DUP1 PUSH4 0xB87FC22D EQ PUSH2 0x183B JUMPI DUP1 PUSH4 0xB8CAEAD6 EQ PUSH2 0x181D JUMPI DUP1 PUSH4 0xBA53BA24 EQ PUSH2 0x17CE JUMPI DUP1 PUSH4 0xBB6BF0F0 EQ PUSH2 0x17B0 JUMPI DUP1 PUSH4 0xBBC3CED7 EQ PUSH2 0x51C JUMPI DUP1 PUSH4 0xBCF64475 EQ PUSH2 0xB33 JUMPI DUP1 PUSH4 0xBF757624 EQ PUSH2 0x1781 JUMPI DUP1 PUSH4 0xC14E1E05 EQ PUSH2 0x1763 JUMPI DUP1 PUSH4 0xC5D32157 EQ PUSH2 0x175E JUMPI DUP1 PUSH4 0xCB955E6B EQ PUSH2 0x1523 JUMPI DUP1 PUSH4 0xCF376677 EQ PUSH2 0x14F9 JUMPI DUP1 PUSH4 0xD136A94D EQ PUSH2 0x14F4 JUMPI DUP1 PUSH4 0xD2111791 EQ PUSH2 0x14CA JUMPI DUP1 PUSH4 0xD547741F EQ PUSH2 0x1420 JUMPI DUP1 PUSH4 0xD5749D42 EQ PUSH2 0x13E1 JUMPI DUP1 PUSH4 0xD5FA40E3 EQ PUSH2 0x119B JUMPI DUP1 PUSH4 0xD61B86BB EQ PUSH2 0x1171 JUMPI DUP1 PUSH4 0xDB2E21BC EQ PUSH2 0xFD2 JUMPI DUP1 PUSH4 0xDD23B9CB EQ PUSH2 0xFCD JUMPI DUP1 PUSH4 0xE22CB9C9 EQ PUSH2 0xD07 JUMPI DUP1 PUSH4 0xE2EB41FF EQ PUSH2 0xBD8 JUMPI DUP1 PUSH4 0xE3505B14 EQ PUSH2 0xB56 JUMPI DUP1 PUSH4 0xE3D440A7 EQ PUSH2 0xB38 JUMPI DUP1 PUSH4 0xE443E279 EQ PUSH2 0xB33 JUMPI DUP1 PUSH4 0xE82AEFC7 EQ PUSH2 0xA81 JUMPI DUP1 PUSH4 0xE8F6940E EQ PUSH2 0x95A JUMPI DUP1 PUSH4 0xEB0FB2C8 EQ PUSH2 0x5F3 JUMPI DUP1 PUSH4 0xEE892E64 EQ PUSH2 0x5D5 JUMPI DUP1 PUSH4 0xF2FDE38B EQ PUSH2 0x54A JUMPI DUP1 PUSH4 0xF5B541A6 EQ PUSH2 0x521 JUMPI DUP1 PUSH4 0xF8172FE3 EQ PUSH2 0x51C JUMPI DUP1 PUSH4 0xF8FC08B9 EQ PUSH2 0x4D0 JUMPI PUSH4 0xFFC39504 EQ PUSH2 0x4A4 JUMPI PUSH1 0x0 DUP1 REVERT JUMPDEST CALLVALUE PUSH2 0x4CD JUMPI PUSH1 0x20 CALLDATASIZE PUSH1 0x3 NOT ADD SLT PUSH2 0x4CD JUMPI PUSH1 0x40 PUSH1 0x20 SWAP2 PUSH1 0x4 CALLDATALOAD DUP2 MSTORE PUSH1 0xB DUP4 MSTORE KECCAK256 SLOAD PUSH1 0x40 MLOAD SWAP1 DUP2 MSTORE RETURN JUMPDEST DUP1 REVERT JUMPDEST POP CALLVALUE PUSH2 0x4CD JUMPI PUSH1 0x40 CALLDATASIZE PUSH1 0x3 NOT ADD SLT PUSH2 0x4CD JUMPI PUSH1 0x40 PUSH2 0x4EC PUSH2 0x4854 JUMP JUMPDEST SWAP2 PUSH1 0x4 CALLDATALOAD DUP2 MSTORE PUSH1 0x18 PUSH1 0x20 MSTORE KECCAK256 SWAP1 PUSH1 0x1 DUP1 PUSH1 0xA0 SHL SUB AND PUSH1 0x0 MSTORE PUSH1 0x20 MSTORE PUSH1 0x20 PUSH1 0xFF PUSH1 0x40 PUSH1 0x0 KECCAK256 SLOAD AND PUSH1 0x40 MLOAD SWAP1 ISZERO ISZERO DUP2 MSTORE RETURN JUMPDEST PUSH2 0x48AE JUMP JUMPDEST POP CALLVALUE PUSH2 0x4CD JUMPI DUP1 PUSH1 0x3 NOT CALLDATASIZE ADD SLT PUSH2 0x4CD JUMPI PUSH1 0x20 PUSH1 0x40 MLOAD PUSH1 0x0 DUP1 MLOAD PUSH1 0x20 PUSH2 0x5B71 DUP4 CODECOPY DUP2 MLOAD SWAP2 MSTORE DUP2 MSTORE RETURN JUMPDEST POP CALLVALUE PUSH2 0x4CD JUMPI PUSH1 0x20 CALLDATASIZE PUSH1 0x3 NOT ADD SLT PUSH2 0x4CD JUMPI PUSH2 0x564 PUSH2 0x483E JUMP JUMPDEST PUSH2 0x56C PUSH2 0x50DF JUMP JUMPDEST PUSH1 0x1 PUSH1 0x1 PUSH1 0xA0 SHL SUB SWAP1 DUP2 AND SWAP1 DUP2 ISZERO PUSH2 0x5BC JUMPI PUSH1 0x1 SLOAD DUP3 PUSH1 0x1 PUSH1 0x1 PUSH1 0x60 SHL SUB PUSH1 0xA0 SHL DUP3 AND OR PUSH1 0x1 SSTORE AND PUSH32 0x8BE0079C531659141344CD1FD0A4F28419497F9722A3DAAFE3B4186F6B6457E0 PUSH1 0x0 DUP1 LOG3 DUP1 RETURN JUMPDEST PUSH1 0x40 MLOAD PUSH4 0x1E4FBDF7 PUSH1 0xE0 SHL DUP2 MSTORE PUSH1 0x4 DUP2 ADD DUP5 SWAP1 MSTORE PUSH1 0x24 SWAP1 REVERT JUMPDEST POP CALLVALUE PUSH2 0x4CD JUMPI DUP1 PUSH1 0x3 NOT CALLDATASIZE ADD SLT PUSH2 0x4CD JUMPI PUSH1 0x20 PUSH1 0x25 SLOAD PUSH1 0x40 MLOAD SWAP1 DUP2 MSTORE RETURN JUMPDEST POP CALLVALUE PUSH2 0x4CD JUMPI DUP1 PUSH1 0x3 NOT CALLDATASIZE ADD SLT PUSH2 0x4CD JUMPI PUSH1 0x0 DUP1 MLOAD PUSH1 0x20 PUSH2 0x5B71 DUP4 CODECOPY DUP2 MLOAD SWAP2 MSTORE DUP2 MSTORE PUSH1 0x20 SWAP1 PUSH1 0x18 DUP3 MSTORE PUSH1 0x40 DUP2 KECCAK256 CALLER PUSH1 0x0 MSTORE DUP3 MSTORE PUSH1 0xFF PUSH1 0x40 PUSH1 0x0 KECCAK256 SLOAD AND DUP1 ISZERO PUSH2 0x946 JUMPI JUMPDEST PUSH2 0x63F SWAP1 PUSH2 0x4ECA JUMP JUMPDEST PUSH2 0x647 PUSH2 0x510B JUMP JUMPDEST PUSH1 0x9 SLOAD ISZERO PUSH2 0x901 JUMPI PUSH1 0x0 NOT NUMBER ADD SWAP2 NUMBER DUP4 GT PUSH2 0x8ED JUMPI PUSH1 0x12 SWAP2 PUSH1 0x12 SLOAD SWAP4 PUSH1 0x40 MLOAD DUP4 DUP2 ADD SWAP1 TIMESTAMP DUP3 MSTORE PREVRANDAO PUSH1 0x40 DUP3 ADD MSTORE PUSH1 0x60 SWAP3 BLOCKHASH PUSH1 0x60 DUP3 ADD MSTORE PUSH1 0x80 SWAP7 CALLER PUSH1 0x60 SHL PUSH1 0x80 DUP4 ADD MSTORE PUSH1 0x94 DUP3 ADD MSTORE PUSH1 0x94 DUP2 MSTORE PUSH2 0x69A DUP2 PUSH2 0x4997 JUMP JUMPDEST MLOAD SWAP1 KECCAK256 SWAP4 PUSH2 0x6AA DUP6 PUSH1 0x4 SLOAD PUSH2 0x5830 JUMP JUMPDEST PUSH1 0x5 SLOAD PUSH1 0x3 SHR SWAP1 DUP5 JUMPDEST DUP2 MLOAD DUP2 LT ISZERO PUSH2 0x85F JUMPI PUSH1 0x1 PUSH1 0x1 PUSH1 0xA0 SHL SUB DUP1 PUSH2 0x6CF DUP4 DUP6 PUSH2 0x4F74 JUMP JUMPDEST MLOAD AND PUSH2 0x6DF JUMPI JUMPDEST POP PUSH1 0x1 ADD PUSH2 0x6B3 JUMP JUMPDEST PUSH2 0x721 DUP9 DUP6 DUP4 PUSH2 0x6EF DUP7 DUP9 PUSH2 0x4F74 JUMP JUMPDEST MLOAD PUSH1 0x40 MLOAD PUSH4 0xA9059CBB PUSH1 0xE0 SHL DUP2 MSTORE SWAP2 AND PUSH1 0x1 PUSH1 0x1 PUSH1 0xA0 SHL SUB AND PUSH1 0x4 DUP3 ADD MSTORE PUSH1 0x24 DUP2 ADD SWAP2 SWAP1 SWAP2 MSTORE SWAP2 DUP3 SWAP1 DUP2 SWAP1 PUSH1 0x44 DUP3 ADD SWAP1 JUMP JUMPDEST SUB DUP2 DUP12 DUP7 PUSH32 0x0 AND GAS CALL SWAP1 DUP2 ISZERO PUSH2 0x854 JUMPI DUP9 SWAP2 PUSH2 0x827 JUMPI JUMPDEST POP ISZERO PUSH2 0x7F0 JUMPI DUP1 PUSH2 0x768 DUP4 DUP6 PUSH2 0x4F74 JUMP JUMPDEST MLOAD AND DUP8 MSTORE PUSH1 0x1A DUP9 MSTORE PUSH1 0x40 DUP8 KECCAK256 SWAP1 DUP2 SLOAD PUSH1 0xA SWAP3 DUP4 DUP3 ADD DUP1 SWAP3 GT PUSH2 0x7DC JUMPI PUSH1 0x1 SWAP5 SWAP4 SWAP3 PUSH1 0x0 DUP1 MLOAD PUSH1 0x20 PUSH2 0x5B91 DUP4 CODECOPY DUP2 MLOAD SWAP2 MSTORE SWAP3 DUP15 SWAP3 SSTORE PUSH2 0x7A6 DUP6 DUP9 PUSH2 0x4F74 JUMP JUMPDEST MLOAD AND SWAP3 PUSH1 0x40 MLOAD SWAP1 DUP2 MSTORE PUSH1 0x40 DUP13 DUP3 ADD MSTORE DUP9 PUSH1 0x40 DUP3 ADD MSTORE PUSH18 0x4461696C792077696E6E657220626F6E7573 PUSH1 0x70 SHL DUP11 DUP3 ADD MSTORE LOG2 SWAP1 PUSH2 0x6D6 JUMP JUMPDEST PUSH4 0x4E487B71 PUSH1 0xE0 SHL DUP11 MSTORE PUSH1 0x11 PUSH1 0x4 MSTORE PUSH1 0x24 DUP11 REVERT JUMPDEST PUSH1 0x40 MLOAD PUSH3 0x461BCD PUSH1 0xE5 SHL DUP2 MSTORE PUSH1 0x4 DUP2 ADD DUP10 SWAP1 MSTORE PUSH1 0xF PUSH1 0x24 DUP3 ADD MSTORE PUSH15 0x151C985B9CD9995C8819985A5B1959 PUSH1 0x8A SHL PUSH1 0x44 DUP3 ADD MSTORE PUSH1 0x64 SWAP1 REVERT JUMPDEST PUSH2 0x847 SWAP2 POP DUP10 RETURNDATASIZE DUP12 GT PUSH2 0x84D JUMPI JUMPDEST PUSH2 0x83F DUP2 DUP4 PUSH2 0x49CE JUMP JUMPDEST DUP2 ADD SWAP1 PUSH2 0x50C7 JUMP JUMPDEST CODESIZE PUSH2 0x757 JUMP JUMPDEST POP RETURNDATASIZE PUSH2 0x835 JUMP JUMPDEST PUSH1 0x40 MLOAD RETURNDATASIZE DUP11 DUP3 RETURNDATACOPY RETURNDATASIZE SWAP1 REVERT JUMPDEST DUP6 PUSH32 0x9F22D2B65D1E9BEF93DA4067644E4EAD3BD41C9D3FC8568887CC572B482E6CB7 DUP9 DUP11 PUSH2 0x8DF DUP7 PUSH1 0x4 SLOAD SWAP3 PUSH32 0xDD1C72FCDA97FCFC2FE124C4AA194986CACA752D3769C00A6495659509D7B19B PUSH2 0x8C0 PUSH1 0x5 SLOAD PUSH1 0x40 MLOAD SWAP2 DUP3 SWAP2 DUP7 DUP10 DUP5 PUSH2 0x5039 JUMP JUMPDEST SUB SWAP1 LOG1 PUSH1 0x40 MLOAD SWAP5 DUP6 SWAP5 DUP6 MSTORE DUP5 ADD MSTORE PUSH1 0x60 PUSH1 0x40 DUP5 ADD MSTORE PUSH1 0x60 DUP4 ADD SWAP1 PUSH2 0x4FFC JUMP JUMPDEST SUB SWAP1 LOG1 PUSH2 0x8EA PUSH2 0x5400 JUMP JUMPDEST DUP1 RETURN JUMPDEST PUSH4 0x4E487B71 PUSH1 0xE0 SHL DUP3 MSTORE PUSH1 0x11 PUSH1 0x4 MSTORE PUSH1 0x24 DUP3 REVERT JUMPDEST PUSH1 0x40 MLOAD PUSH3 0x461BCD PUSH1 0xE5 SHL DUP2 MSTORE PUSH1 0x4 DUP2 ADD DUP4 SWAP1 MSTORE PUSH1 0x1D PUSH1 0x24 DUP3 ADD MSTORE PUSH32 0x4E6F2072616E646F6D6E65737320726F756E6420726571756573746564000000 PUSH1 0x44 DUP3 ADD MSTORE PUSH1 0x64 SWAP1 REVERT JUMPDEST POP PUSH1 0x1 SLOAD PUSH1 0x1 PUSH1 0x1 PUSH1 0xA0 SHL SUB AND CALLER EQ PUSH2 0x636 JUMP JUMPDEST POP CALLVALUE PUSH2 0x4CD JUMPI PUSH1 0x20 CALLDATASIZE PUSH1 0x3 NOT ADD SLT PUSH2 0x4CD JUMPI PUSH1 0x4 CALLDATALOAD DUP1 ISZERO ISZERO SWAP1 DUP2 DUP2 SUB PUSH2 0xA7C JUMPI PUSH2 0x982 PUSH2 0x50DF JUMP JUMPDEST ISZERO PUSH2 0x9FC JUMPI PUSH1 0x20 PUSH32 0xB80D1AE5628C2AF91424C54C87ACFD15016BE4BEBEEF0425B328238702F34831 SWAP2 PUSH2 0x9B3 PUSH2 0x510B JUMP JUMPDEST PUSH1 0x1 DUP1 SLOAD PUSH1 0xFF PUSH1 0xA0 SHL NOT AND PUSH1 0x1 PUSH1 0xA0 SHL OR SWAP1 SSTORE PUSH1 0x40 MLOAD CALLER DUP2 MSTORE PUSH32 0x62E78CEA01BEE320CD4E420270B5EA74000D11B0C9F74754EBDBFC544B05A258 SWAP1 DUP4 SWAP1 LOG1 JUMPDEST PUSH1 0x40 MLOAD SWAP1 DUP2 MSTORE LOG1 DUP1 RETURN JUMPDEST PUSH1 0x1 SLOAD PUSH1 0xFF DUP2 PUSH1 0xA0 SHR AND ISZERO PUSH2 0xA6A JUMPI PUSH1 0xFF PUSH1 0xA0 SHL NOT AND PUSH1 0x1 SSTORE PUSH1 0x40 MLOAD CALLER DUP2 MSTORE PUSH32 0xB80D1AE5628C2AF91424C54C87ACFD15016BE4BEBEEF0425B328238702F34831 SWAP2 PUSH1 0x20 SWAP2 PUSH32 0x5DB9EE0A495BF2E6FF9C91A7834C1BA4FDD244A5E8AA4E537BD38AEAE4B073AA SWAP1 DUP4 SWAP1 LOG1 PUSH2 0x9F2 JUMP JUMPDEST PUSH1 0x40 MLOAD PUSH4 0x8DFC202B PUSH1 0xE0 SHL DUP2 MSTORE PUSH1 0x4 SWAP1 REVERT JUMPDEST PUSH1 0x0 DUP1 REVERT JUMPDEST POP CALLVALUE PUSH2 0x4CD JUMPI PUSH1 0x20 CALLDATASIZE PUSH1 0x3 NOT ADD SLT PUSH2 0x4CD JUMPI PUSH1 0x4 CALLDATALOAD PUSH32 0xBF233DD2AAFEB4D50879C4AA5C81E96D92F6E6945C906A58F9F2D1C1631B4B26 DUP3 MSTORE PUSH1 0x18 PUSH1 0x20 MSTORE PUSH1 0x40 DUP3 KECCAK256 CALLER PUSH1 0x0 MSTORE PUSH1 0x20 MSTORE PUSH1 0xFF PUSH1 0x40 PUSH1 0x0 KECCAK256 SLOAD AND DUP1 ISZERO PUSH2 0xB1F JUMPI JUMPDEST PUSH2 0xAE2 SWAP1 PUSH2 0x4ECA JUMP JUMPDEST DUP1 DUP3 MSTORE PUSH1 0x13 PUSH1 0x20 MSTORE PUSH1 0x40 DUP3 KECCAK256 DUP1 SLOAD PUSH1 0xFF NOT AND SWAP1 SSTORE CALLER SWAP1 PUSH32 0x6D01469F672CD6CB0434A128CAC9B91DC60A83E67A56BE9FB5F265C18D29C7C5 DUP4 DUP1 LOG3 DUP1 RETURN JUMPDEST POP PUSH1 0x1 SLOAD PUSH1 0x1 PUSH1 0x1 PUSH1 0xA0 SHL SUB AND CALLER EQ PUSH2 0xAD9 JUMP JUMPDEST PUSH2 0x4CF0 JUMP JUMPDEST POP CALLVALUE PUSH2 0x4CD JUMPI DUP1 PUSH1 0x3 NOT CALLDATASIZE ADD SLT PUSH2 0x4CD JUMPI PUSH1 0x20 PUSH1 0x5 SLOAD PUSH1 0x40 MLOAD SWAP1 DUP2 MSTORE RETURN JUMPDEST POP CALLVALUE PUSH2 0x4CD JUMPI PUSH1 0x40 CALLDATASIZE PUSH1 0x3 NOT ADD SLT PUSH2 0x4CD JUMPI PUSH2 0xB70 PUSH2 0x510B JUMP JUMPDEST PUSH1 0x2 SLOAD DUP2 SWAP1 PUSH1 0x1 PUSH1 0x1 PUSH1 0xA0 SHL SUB AND DUP1 EXTCODESIZE ISZERO PUSH2 0xBD5 JUMPI DUP2 DUP1 SWAP2 PUSH1 0x44 PUSH1 0x40 MLOAD DUP1 SWAP5 DUP2 SWAP4 PUSH4 0x39A8F677 PUSH1 0xE2 SHL DUP4 MSTORE PUSH1 0x4 CALLDATALOAD PUSH1 0x4 DUP5 ADD MSTORE PUSH1 0x24 CALLDATALOAD PUSH1 0x24 DUP5 ADD MSTORE GAS CALL DUP1 ISZERO PUSH2 0xBCA JUMPI PUSH2 0xBBA JUMPI POP RETURN JUMPDEST PUSH2 0xBC3 SWAP1 PUSH2 0x4933 JUMP JUMPDEST PUSH2 0x4CD JUMPI DUP1 RETURN JUMPDEST PUSH1 0x40 MLOAD RETURNDATASIZE DUP5 DUP3 RETURNDATACOPY RETURNDATASIZE SWAP1 REVERT JUMPDEST POP REVERT JUMPDEST POP CALLVALUE PUSH2 0x4CD JUMPI PUSH1 0x20 CALLDATASIZE PUSH1 0x3 NOT ADD SLT PUSH2 0x4CD JUMPI PUSH1 0x1 PUSH1 0x1 PUSH1 0xA0 SHL SUB PUSH2 0xBFA PUSH2 0x483E JUMP JUMPDEST AND DUP2 MSTORE PUSH1 0x1A PUSH1 0x20 MSTORE PUSH1 0x40 SWAP1 KECCAK256 DUP1 DUP1 DUP1 SLOAD PUSH1 0x1 DUP3 ADD SLOAD PUSH1 0xC0 MSTORE PUSH1 0x2 DUP3 ADD SLOAD PUSH1 0x3 DUP4 ADD SLOAD PUSH1 0x4 DUP5 ADD SLOAD PUSH1 0x5 DUP6 ADD SLOAD PUSH1 0x6 DUP7 ADD SLOAD PUSH1 0xFF AND PUSH1 0x7 DUP8 ADD SLOAD SWAP1 PUSH1 0x8 DUP9 ADD SLOAD SWAP3 PUSH1 0x9 DUP10 ADD SLOAD SWAP5 PUSH1 0xA DUP11 ADD SLOAD SWAP7 PUSH1 0xB DUP12 ADD SLOAD SWAP9 PUSH1 0xC DUP13 ADD SLOAD SWAP11 PUSH1 0xD DUP14 ADD SLOAD PUSH1 0xFF AND SWAP13 PUSH1 0xE ADD SLOAD SWAP14 PUSH1 0xF ADD SLOAD SWAP15 PUSH1 0x10 ADD SLOAD PUSH1 0xFF AND PUSH1 0x80 MSTORE PUSH1 0x40 MLOAD PUSH1 0xA0 MSTORE PUSH1 0xA0 MLOAD MSTORE PUSH1 0xC0 MLOAD PUSH1 0xA0 MLOAD PUSH1 0x20 ADD MSTORE PUSH1 0xA0 MLOAD PUSH1 0x40 ADD MSTORE PUSH1 0xA0 MLOAD PUSH1 0x60 ADD MSTORE PUSH1 0xA0 MLOAD PUSH1 0x80 ADD MSTORE PUSH1 0xA0 MLOAD PUSH1 0xA0 ADD MSTORE ISZERO ISZERO PUSH1 0xA0 MLOAD PUSH1 0xC0 ADD MSTORE PUSH1 0xA0 MLOAD PUSH1 0xE0 ADD MSTORE PUSH1 0xA0 MLOAD PUSH2 0x100 ADD MSTORE PUSH1 0xA0 MLOAD PUSH2 0x120 ADD MSTORE PUSH1 0xA0 MLOAD PUSH2 0x140 ADD MSTORE PUSH1 0xA0 MLOAD PUSH2 0x160 ADD MSTORE PUSH1 0xA0 MLOAD PUSH2 0x180 ADD MSTORE ISZERO ISZERO PUSH1 0xA0 MLOAD PUSH2 0x1A0 ADD MSTORE PUSH1 0xA0 MLOAD PUSH2 0x1C0 ADD MSTORE PUSH1 0xA0 MLOAD PUSH2 0x1E0 ADD MSTORE PUSH1 0x80 MLOAD ISZERO ISZERO PUSH1 0xA0 MLOAD PUSH2 0x200 ADD MSTORE PUSH1 0xA0 MLOAD PUSH2 0x220 SWAP1 RETURN JUMPDEST POP CALLVALUE PUSH2 0x4CD JUMPI DUP1 PUSH1 0x3 NOT CALLDATASIZE ADD SLT PUSH2 0x4CD JUMPI PUSH2 0xD20 PUSH2 0x5189 JUMP JUMPDEST PUSH2 0xD28 PUSH2 0x510B JUMP JUMPDEST CALLER DUP2 MSTORE PUSH1 0x20 PUSH1 0x1E DUP2 MSTORE PUSH2 0xD42 PUSH1 0xFF PUSH1 0x40 DUP5 KECCAK256 SLOAD AND ISZERO PUSH2 0x4D54 JUMP JUMPDEST CALLER DUP3 MSTORE PUSH1 0x1A DUP1 DUP3 MSTORE PUSH2 0xD5E PUSH1 0xFF PUSH1 0x6 PUSH1 0x40 DUP7 KECCAK256 ADD SLOAD AND ISZERO PUSH2 0x4D54 JUMP JUMPDEST CALLER DUP4 MSTORE DUP1 DUP3 MSTORE PUSH1 0xC PUSH1 0x40 DUP5 KECCAK256 ADD SLOAD PUSH3 0x15180 DUP2 ADD DUP1 SWAP2 GT PUSH2 0xEC9 JUMPI PUSH2 0xD85 SWAP1 TIMESTAMP LT ISZERO PUSH2 0x4D98 JUMP JUMPDEST CALLER DUP4 MSTORE DUP1 DUP3 MSTORE PUSH2 0xD9E PUSH1 0x64 PUSH1 0xE PUSH1 0x40 DUP7 KECCAK256 ADD SLOAD LT PUSH2 0x4DE4 JUMP JUMPDEST CALLER DUP4 MSTORE DUP1 DUP3 MSTORE PUSH1 0xFF PUSH1 0xD PUSH1 0x40 DUP6 KECCAK256 ADD SLOAD AND PUSH2 0xF7D JUMPI CALLER DUP4 MSTORE DUP1 DUP3 MSTORE PUSH1 0x1 PUSH1 0x9 PUSH1 0x40 DUP6 KECCAK256 ADD SLOAD LT PUSH2 0xF38 JUMPI CALLER PUSH1 0x0 MSTORE DUP2 DUP1 MSTORE PUSH1 0x40 PUSH1 0x0 KECCAK256 SLOAD PUSH1 0x5 DUP2 ADD DUP1 SWAP2 GT PUSH2 0xEDD JUMPI PUSH1 0x64 DUP2 GT PUSH2 0xEF3 JUMPI CALLER PUSH1 0x0 MSTORE DUP3 DUP1 MSTORE PUSH1 0x40 PUSH1 0x0 KECCAK256 SSTORE DUP1 DUP3 MSTORE PUSH1 0xE PUSH1 0x40 PUSH1 0x0 KECCAK256 ADD SLOAD PUSH1 0x5 DUP2 ADD DUP1 SWAP2 GT PUSH2 0xEDD JUMPI CALLER PUSH1 0x0 MSTORE DUP2 DUP4 MSTORE PUSH1 0xE PUSH1 0x40 PUSH1 0x0 KECCAK256 ADD SSTORE CALLER DUP4 MSTORE DUP1 DUP3 MSTORE PUSH1 0x40 DUP4 KECCAK256 PUSH1 0xD DUP2 ADD PUSH1 0x1 PUSH1 0xFF NOT DUP3 SLOAD AND OR SWAP1 SSTORE SLOAD SWAP1 PUSH1 0x5 DUP3 ADD DUP1 SWAP3 GT PUSH2 0xEC9 JUMPI CALLER DUP5 MSTORE DUP3 MSTORE PUSH1 0x40 DUP4 KECCAK256 SWAP1 DUP2 SSTORE PUSH1 0xC TIMESTAMP SWAP2 ADD SSTORE PUSH1 0x40 MLOAD PUSH1 0x5 DUP2 MSTORE PUSH32 0x666FF46B6B5A0789C7D628ECFA8A5975B192B7D3541FC30B22DA07A9B3D4DDBC DUP3 CALLER SWAP3 LOG2 PUSH1 0x40 DUP1 MLOAD SWAP2 PUSH1 0x5 DUP4 MSTORE DUP3 ADD MSTORE PUSH1 0x12 PUSH1 0x40 DUP3 ADD MSTORE PUSH18 0x119A5C9CDD081BDC99195C881C995DD85C99 PUSH1 0x72 SHL PUSH1 0x60 DUP3 ADD MSTORE PUSH1 0x0 DUP1 MLOAD PUSH1 0x20 PUSH2 0x5B91 DUP4 CODECOPY DUP2 MLOAD SWAP2 MSTORE PUSH1 0x80 CALLER SWAP3 LOG2 PUSH1 0x1 DUP2 SSTORE DUP1 RETURN JUMPDEST PUSH4 0x4E487B71 PUSH1 0xE0 SHL DUP5 MSTORE PUSH1 0x11 PUSH1 0x4 MSTORE PUSH1 0x24 DUP5 REVERT JUMPDEST PUSH4 0x4E487B71 PUSH1 0xE0 SHL PUSH1 0x0 MSTORE PUSH1 0x11 PUSH1 0x4 MSTORE PUSH1 0x24 PUSH1 0x0 REVERT JUMPDEST PUSH1 0x40 MLOAD PUSH3 0x461BCD PUSH1 0xE5 SHL DUP2 MSTORE PUSH1 0x4 DUP2 ADD DUP5 SWAP1 MSTORE PUSH1 0x1B PUSH1 0x24 DUP3 ADD MSTORE PUSH32 0x4461696C7920726577617264206C696D69742065786365656465640000000000 PUSH1 0x44 DUP3 ADD MSTORE PUSH1 0x64 SWAP1 REVERT JUMPDEST PUSH1 0x40 MLOAD PUSH3 0x461BCD PUSH1 0xE5 SHL DUP2 MSTORE PUSH1 0x4 DUP2 ADD DUP4 SWAP1 MSTORE PUSH1 0x18 PUSH1 0x24 DUP3 ADD MSTORE PUSH32 0x4E6F206669727374206F7264657220636F6D706C657465640000000000000000 PUSH1 0x44 DUP3 ADD MSTORE PUSH1 0x64 SWAP1 REVERT JUMPDEST PUSH1 0x40 MLOAD PUSH3 0x461BCD PUSH1 0xE5 SHL DUP2 MSTORE PUSH1 0x4 DUP2 ADD DUP4 SWAP1 MSTORE PUSH1 0x22 PUSH1 0x24 DUP3 ADD MSTORE PUSH32 0x4669727374206F726465722072657761726420616C726561647920636C61696D PUSH1 0x44 DUP3 ADD MSTORE PUSH2 0x1959 PUSH1 0xF2 SHL PUSH1 0x64 DUP3 ADD MSTORE PUSH1 0x84 SWAP1 REVERT JUMPDEST PUSH2 0x4C03 JUMP JUMPDEST POP CALLVALUE PUSH2 0x4CD JUMPI DUP1 PUSH1 0x3 NOT CALLDATASIZE ADD SLT PUSH2 0x4CD JUMPI PUSH2 0xFEB PUSH2 0x50DF JUMP JUMPDEST PUSH1 0x40 MLOAD PUSH4 0x70A08231 PUSH1 0xE0 SHL DUP2 MSTORE ADDRESS PUSH1 0x4 DUP3 ADD MSTORE PUSH1 0x20 SWAP1 PUSH1 0x1 PUSH1 0x1 PUSH1 0xA0 SHL SUB PUSH32 0x0 DUP2 AND SWAP1 DUP4 DUP4 PUSH1 0x24 DUP2 DUP6 GAS STATICCALL SWAP3 DUP4 ISZERO PUSH2 0x1166 JUMPI DUP6 SWAP4 PUSH2 0x1137 JUMPI JUMPDEST POP DUP3 ISZERO PUSH2 0x10F9 JUMPI PUSH1 0x1 SLOAD PUSH1 0x40 MLOAD PUSH4 0xA9059CBB PUSH1 0xE0 SHL DUP2 MSTORE SWAP2 AND PUSH1 0x1 PUSH1 0x1 PUSH1 0xA0 SHL SUB AND PUSH1 0x4 DUP3 ADD MSTORE PUSH1 0x24 DUP2 ADD SWAP3 SWAP1 SWAP3 MSTORE DUP3 SWAP1 DUP3 SWAP1 DUP2 DUP7 DUP2 PUSH1 0x44 DUP2 ADD SUB SWAP3 GAS CALL SWAP1 DUP2 ISZERO PUSH2 0x10EE JUMPI DUP4 SWAP2 PUSH2 0x10D1 JUMPI JUMPDEST POP ISZERO PUSH2 0x1099 JUMPI POP DUP1 RETURN JUMPDEST PUSH1 0x64 SWAP1 PUSH1 0x40 MLOAD SWAP1 PUSH3 0x461BCD PUSH1 0xE5 SHL DUP3 MSTORE PUSH1 0x4 DUP3 ADD MSTORE PUSH1 0x11 PUSH1 0x24 DUP3 ADD MSTORE PUSH17 0x15DA5D1A191C985DD85B0819985A5B1959 PUSH1 0x7A SHL PUSH1 0x44 DUP3 ADD MSTORE REVERT JUMPDEST PUSH2 0x10E8 SWAP2 POP DUP3 RETURNDATASIZE DUP5 GT PUSH2 0x84D JUMPI PUSH2 0x83F DUP2 DUP4 PUSH2 0x49CE JUMP JUMPDEST CODESIZE PUSH2 0x108F JUMP JUMPDEST PUSH1 0x40 MLOAD RETURNDATASIZE DUP6 DUP3 RETURNDATACOPY RETURNDATASIZE SWAP1 REVERT JUMPDEST PUSH1 0x40 MLOAD PUSH3 0x461BCD PUSH1 0xE5 SHL DUP2 MSTORE PUSH1 0x4 DUP2 ADD DUP6 SWAP1 MSTORE PUSH1 0x16 PUSH1 0x24 DUP3 ADD MSTORE PUSH22 0x4E6F2062616C616E636520746F207769746864726177 PUSH1 0x50 SHL PUSH1 0x44 DUP3 ADD MSTORE PUSH1 0x64 SWAP1 REVERT JUMPDEST SWAP1 SWAP3 POP DUP4 DUP2 DUP2 RETURNDATASIZE DUP4 GT PUSH2 0x115F JUMPI JUMPDEST PUSH2 0x114F DUP2 DUP4 PUSH2 0x49CE JUMP JUMPDEST DUP2 ADD SUB SLT PUSH2 0xA7C JUMPI MLOAD SWAP2 CODESIZE PUSH2 0x1043 JUMP JUMPDEST POP RETURNDATASIZE PUSH2 0x1145 JUMP JUMPDEST PUSH1 0x40 MLOAD RETURNDATASIZE DUP8 DUP3 RETURNDATACOPY RETURNDATASIZE SWAP1 REVERT JUMPDEST POP CALLVALUE PUSH2 0x4CD JUMPI PUSH1 0x20 CALLDATASIZE PUSH1 0x3 NOT ADD SLT PUSH2 0x4CD JUMPI PUSH1 0x40 PUSH1 0x20 SWAP2 PUSH1 0x4 CALLDATALOAD DUP2 MSTORE PUSH1 0xD DUP4 MSTORE KECCAK256 SLOAD PUSH1 0x40 MLOAD SWAP1 DUP2 MSTORE RETURN JUMPDEST POP CALLVALUE PUSH2 0x4CD JUMPI DUP1 PUSH1 0x3 NOT CALLDATASIZE ADD SLT PUSH2 0x4CD JUMPI PUSH2 0x11B4 PUSH2 0x5189 JUMP JUMPDEST PUSH2 0x11BC PUSH2 0x510B JUMP JUMPDEST CALLER DUP2 MSTORE PUSH1 0x20 PUSH1 0x1E DUP2 MSTORE PUSH2 0x11D6 PUSH1 0xFF PUSH1 0x40 DUP5 KECCAK256 SLOAD AND ISZERO PUSH2 0x4D54 JUMP JUMPDEST CALLER DUP3 MSTORE PUSH1 0x1A SWAP1 DUP2 DUP2 MSTORE PUSH2 0x11F3 PUSH1 0xFF PUSH1 0x6 PUSH1 0x40 DUP7 KECCAK256 ADD SLOAD AND ISZERO PUSH2 0x4D54 JUMP JUMPDEST CALLER DUP4 MSTORE DUP2 DUP2 MSTORE PUSH1 0xC PUSH1 0x40 DUP5 KECCAK256 ADD SLOAD PUSH3 0x15180 SWAP1 DUP2 DUP2 ADD DUP1 SWAP2 GT PUSH2 0x133D JUMPI PUSH2 0x121C SWAP1 TIMESTAMP LT ISZERO PUSH2 0x4D98 JUMP JUMPDEST CALLER DUP5 MSTORE DUP3 DUP3 MSTORE PUSH2 0x1235 PUSH1 0x64 PUSH1 0xE PUSH1 0x40 DUP8 KECCAK256 ADD SLOAD LT PUSH2 0x4DE4 JUMP JUMPDEST CALLER DUP5 MSTORE DUP3 DUP3 MSTORE PUSH1 0x7 PUSH1 0x40 DUP6 KECCAK256 ADD SLOAD SWAP1 DUP2 ADD DUP1 SWAP2 GT PUSH2 0xEC9 JUMPI TIMESTAMP LT PUSH2 0x13A5 JUMPI PUSH7 0x38D7EA4C68000 CALLER BALANCE DUP2 DUP2 LT PUSH2 0x1351 JUMPI DIV SWAP2 DUP3 ISZERO DUP4 DUP1 DIV PUSH1 0x1 EQ DUP2 OR ISZERO PUSH2 0x133D JUMPI PUSH2 0x1302 JUMPI SWAP1 PUSH1 0x40 SWAP2 PUSH2 0x1287 DUP5 CALLER PUSH2 0x51AC JUMP JUMPDEST CALLER DUP6 MSTORE DUP1 DUP3 MSTORE PUSH2 0x129A DUP5 DUP5 DUP8 KECCAK256 SLOAD PUSH2 0x4D47 JUMP JUMPDEST SWAP1 CALLER DUP7 MSTORE DUP3 MSTORE DUP3 DUP6 KECCAK256 SWAP1 DUP2 SSTORE TIMESTAMP PUSH1 0x7 DUP3 ADD SSTORE PUSH1 0xC TIMESTAMP SWAP2 ADD SSTORE DUP2 MLOAD SWAP3 DUP4 MSTORE DUP3 ADD MSTORE PUSH1 0x1C PUSH1 0x40 DUP3 ADD MSTORE PUSH32 0x42617365205365706F6C696120686F6C64696E67732072657761726400000000 PUSH1 0x60 DUP3 ADD MSTORE PUSH1 0x0 DUP1 MLOAD PUSH1 0x20 PUSH2 0x5B91 DUP4 CODECOPY DUP2 MLOAD SWAP2 MSTORE PUSH1 0x80 CALLER SWAP3 LOG2 PUSH1 0x1 DUP2 SSTORE DUP1 RETURN JUMPDEST PUSH1 0x40 MLOAD PUSH3 0x461BCD PUSH1 0xE5 SHL DUP2 MSTORE PUSH1 0x4 DUP2 ADD DUP4 SWAP1 MSTORE PUSH1 0x13 PUSH1 0x24 DUP3 ADD MSTORE PUSH19 0x4E6F2072657761726420617661696C61626C65 PUSH1 0x68 SHL PUSH1 0x44 DUP3 ADD MSTORE PUSH1 0x64 SWAP1 REVERT JUMPDEST PUSH4 0x4E487B71 PUSH1 0xE0 SHL DUP6 MSTORE PUSH1 0x11 PUSH1 0x4 MSTORE PUSH1 0x24 DUP6 REVERT JUMPDEST PUSH1 0x40 MLOAD PUSH3 0x461BCD PUSH1 0xE5 SHL DUP2 MSTORE PUSH1 0x4 DUP2 ADD DUP5 SWAP1 MSTORE PUSH1 0x26 PUSH1 0x24 DUP3 ADD MSTORE PUSH32 0x496E73756666696369656E742042617365205365706F6C69612045544820686F PUSH1 0x44 DUP3 ADD MSTORE PUSH6 0x6C64696E6773 PUSH1 0xD0 SHL PUSH1 0x64 DUP3 ADD MSTORE PUSH1 0x84 SWAP1 REVERT JUMPDEST PUSH1 0x64 SWAP1 PUSH1 0x40 MLOAD SWAP1 PUSH3 0x461BCD PUSH1 0xE5 SHL DUP3 MSTORE PUSH1 0x4 DUP3 ADD MSTORE PUSH1 0x15 PUSH1 0x24 DUP3 ADD MSTORE PUSH21 0x416C726561647920636865636B656420746F646179 PUSH1 0x58 SHL PUSH1 0x44 DUP3 ADD MSTORE REVERT JUMPDEST POP CALLVALUE PUSH2 0x4CD JUMPI PUSH1 0x20 CALLDATASIZE PUSH1 0x3 NOT ADD SLT PUSH2 0x4CD JUMPI PUSH1 0x20 SWAP1 PUSH1 0xFF SWAP1 PUSH1 0x40 SWAP1 PUSH1 0x1 PUSH1 0x1 PUSH1 0xA0 SHL SUB PUSH2 0x140C PUSH2 0x483E JUMP JUMPDEST AND DUP2 MSTORE PUSH1 0x1E DUP5 MSTORE KECCAK256 SLOAD AND PUSH1 0x40 MLOAD SWAP1 ISZERO ISZERO DUP2 MSTORE RETURN JUMPDEST POP CALLVALUE PUSH2 0x4CD JUMPI PUSH1 0x40 CALLDATASIZE PUSH1 0x3 NOT ADD SLT PUSH2 0x4CD JUMPI PUSH1 0x4 CALLDATALOAD PUSH2 0x143D PUSH2 0x4854 JUMP JUMPDEST DUP2 DUP4 MSTORE PUSH1 0x19 PUSH1 0x20 MSTORE PUSH1 0x40 DUP4 KECCAK256 SLOAD PUSH1 0x1 PUSH1 0x1 PUSH1 0xA0 SHL SUB SWAP2 SWAP1 DUP3 AND CALLER EQ DUP1 ISZERO PUSH2 0x14BD JUMPI JUMPDEST PUSH2 0x1468 SWAP1 PUSH2 0x4E30 JUMP JUMPDEST AND PUSH2 0x1474 DUP2 ISZERO ISZERO PUSH2 0x4E8C JUMP JUMPDEST DUP2 DUP4 MSTORE PUSH1 0x18 PUSH1 0x20 MSTORE PUSH1 0x40 DUP4 KECCAK256 DUP2 PUSH1 0x0 MSTORE PUSH1 0x20 MSTORE PUSH1 0x40 PUSH1 0x0 KECCAK256 PUSH1 0xFF NOT DUP2 SLOAD AND SWAP1 SSTORE CALLER SWAP2 PUSH32 0xF6391F5C32D9C69D2A47EA670B442974B53935D1EDC7FD64EB21E047A839171B DUP5 DUP1 LOG4 DUP1 RETURN JUMPDEST POP PUSH1 0x1 SLOAD DUP3 AND CALLER EQ PUSH2 0x145F JUMP JUMPDEST POP CALLVALUE PUSH2 0x4CD JUMPI PUSH1 0x20 CALLDATASIZE PUSH1 0x3 NOT ADD SLT PUSH2 0x4CD JUMPI PUSH1 0x40 PUSH1 0x20 SWAP2 PUSH1 0x4 CALLDATALOAD DUP2 MSTORE PUSH1 0x14 DUP4 MSTORE KECCAK256 SLOAD PUSH1 0x40 MLOAD SWAP1 DUP2 MSTORE RETURN JUMPDEST PUSH2 0x4A95 JUMP JUMPDEST POP CALLVALUE PUSH2 0x4CD JUMPI PUSH1 0x20 CALLDATASIZE PUSH1 0x3 NOT ADD SLT PUSH2 0x4CD JUMPI PUSH1 0x40 PUSH1 0x20 SWAP2 PUSH1 0x4 CALLDATALOAD DUP2 MSTORE PUSH1 0xF DUP4 MSTORE KECCAK256 SLOAD PUSH1 0x40 MLOAD SWAP1 DUP2 MSTORE RETURN JUMPDEST POP CALLVALUE PUSH2 0x4CD JUMPI DUP1 PUSH1 0x3 NOT CALLDATASIZE ADD SLT PUSH2 0x4CD JUMPI PUSH2 0x153C PUSH2 0x510B JUMP JUMPDEST PUSH1 0x11 DUP1 SLOAD PUSH2 0xE10 DUP2 ADD DUP1 SWAP2 GT PUSH2 0x174A JUMPI TIMESTAMP LT PUSH2 0x1705 JUMPI PUSH1 0x0 NOT NUMBER ADD SWAP2 NUMBER DUP4 GT PUSH2 0x16F3 JUMPI PUSH1 0x1 NOT NUMBER ADD NUMBER DUP2 GT PUSH2 0x16E0 JUMPI PUSH1 0x12 SLOAD SWAP4 PUSH1 0x1 DUP1 PUSH1 0xA0 SHL SUB PUSH1 0x2 SLOAD AND SWAP2 PUSH1 0x40 MLOAD DUP1 SWAP4 PUSH4 0xC142E495 PUSH1 0xE0 SHL DUP3 MSTORE DUP2 PUSH1 0x4 PUSH1 0x20 SWAP7 DUP8 SWAP4 GAS STATICCALL SWAP1 DUP2 ISZERO PUSH2 0x1166 JUMPI DUP6 SWAP2 PUSH2 0x16B3 JUMPI JUMPDEST POP PUSH1 0x40 MLOAD SWAP1 DUP5 DUP3 ADD SWAP3 TIMESTAMP DUP5 MSTORE PREVRANDAO PUSH1 0x40 DUP5 ADD MSTORE PUSH1 0x60 SWAP5 BLOCKHASH PUSH1 0x60 DUP5 ADD MSTORE BLOCKHASH PUSH1 0x80 DUP4 ADD MSTORE CALLER PUSH1 0x60 SHL PUSH1 0xA0 DUP4 ADD MSTORE DUP8 PUSH1 0xB4 DUP4 ADD MSTORE PUSH1 0xD4 DUP3 ADD MSTORE PUSH1 0xD4 DUP2 MSTORE PUSH2 0x15E4 DUP2 PUSH2 0x4917 JUMP JUMPDEST MLOAD SWAP1 KECCAK256 DUP4 SWAP1 JUMPDEST DUP7 DUP3 MSTORE PUSH1 0x10 DUP5 MSTORE PUSH1 0x40 DUP3 KECCAK256 DUP1 SLOAD DUP7 LT ISZERO PUSH2 0x1646 JUMPI SWAP1 PUSH2 0x160B DUP7 PUSH1 0x1 SWAP4 PUSH2 0x4880 JUMP JUMPDEST SWAP1 SLOAD SWAP1 PUSH1 0x40 MLOAD SWAP2 DUP8 DUP4 ADD SWAP4 DUP5 MSTORE PUSH1 0x1 PUSH1 0x1 PUSH1 0x60 SHL SUB NOT SWAP2 PUSH1 0x3 SHL SHR DUP7 SHL AND PUSH1 0x40 DUP3 ADD MSTORE PUSH1 0x34 DUP2 MSTORE PUSH2 0x163B DUP2 PUSH2 0x497C JUMP JUMPDEST MLOAD SWAP1 KECCAK256 SWAP5 ADD SWAP4 PUSH2 0x15EA JUMP JUMPDEST POP SWAP2 POP DUP5 DUP7 DUP3 MSTORE PUSH1 0xE DUP5 MSTORE DUP3 PUSH1 0x40 DUP4 KECCAK256 SSTORE TIMESTAMP DUP2 SSTORE PUSH1 0x12 SLOAD SWAP2 PUSH1 0x1 DUP4 ADD SWAP2 DUP3 DUP5 GT PUSH2 0x16A0 JUMPI POP POP PUSH1 0x12 SSTORE PUSH32 0x716AEB9158D0411549D0EA0300D76E79332E89EC7EB7B7C475EFA863E7B9D00F DUP4 PUSH1 0x40 MLOAD DUP5 DUP2 MSTORE LOG2 PUSH1 0x40 MLOAD SWAP1 DUP2 MSTORE RETURN JUMPDEST PUSH4 0x4E487B71 PUSH1 0xE0 SHL DUP3 MSTORE PUSH1 0x4 MSTORE PUSH1 0x24 SWAP2 POP REVERT JUMPDEST SWAP1 POP DUP4 DUP2 DUP2 RETURNDATASIZE DUP4 GT PUSH2 0x16D9 JUMPI JUMPDEST PUSH2 0x16CA DUP2 DUP4 PUSH2 0x49CE JUMP JUMPDEST DUP2 ADD SUB SLT PUSH2 0xA7C JUMPI MLOAD CODESIZE PUSH2 0x15A2 JUMP JUMPDEST POP RETURNDATASIZE PUSH2 0x16C0 JUMP JUMPDEST POP PUSH1 0x24 SWAP2 PUSH4 0x4E487B71 PUSH1 0xE0 SHL DUP3 MSTORE PUSH1 0x4 MSTORE REVERT JUMPDEST PUSH1 0x24 SWAP2 PUSH4 0x4E487B71 PUSH1 0xE0 SHL DUP3 MSTORE PUSH1 0x4 MSTORE REVERT JUMPDEST PUSH1 0x40 MLOAD PUSH3 0x461BCD PUSH1 0xE5 SHL DUP2 MSTORE PUSH1 0x20 PUSH1 0x4 DUP3 ADD MSTORE PUSH1 0x1B PUSH1 0x24 DUP3 ADD MSTORE PUSH32 0x456E74726F70792075706461746520746F6F206672657175656E740000000000 PUSH1 0x44 DUP3 ADD MSTORE PUSH1 0x64 SWAP1 REVERT JUMPDEST PUSH4 0x4E487B71 PUSH1 0xE0 SHL DUP4 MSTORE PUSH1 0x4 DUP3 SWAP1 MSTORE PUSH1 0x24 DUP4 REVERT JUMPDEST PUSH2 0x4AC8 JUMP JUMPDEST POP CALLVALUE PUSH2 0x4CD JUMPI DUP1 PUSH1 0x3 NOT CALLDATASIZE ADD SLT PUSH2 0x4CD JUMPI PUSH1 0x20 PUSH1 0x8 SLOAD PUSH1 0x40 MLOAD SWAP1 DUP2 MSTORE RETURN JUMPDEST POP CALLVALUE PUSH2 0x4CD JUMPI PUSH1 0x20 CALLDATASIZE PUSH1 0x3 NOT ADD SLT PUSH2 0x4CD JUMPI PUSH1 0xFF PUSH1 0x40 PUSH1 0x20 SWAP3 PUSH1 0x4 CALLDATALOAD DUP2 MSTORE PUSH1 0x24 DUP5 MSTORE KECCAK256 SLOAD AND PUSH1 0x40 MLOAD SWAP1 ISZERO ISZERO DUP2 MSTORE RETURN JUMPDEST POP CALLVALUE PUSH2 0x4CD JUMPI DUP1 PUSH1 0x3 NOT CALLDATASIZE ADD SLT PUSH2 0x4CD JUMPI PUSH1 0x20 PUSH1 0x9 SLOAD PUSH1 0x40 MLOAD SWAP1 DUP2 MSTORE RETURN JUMPDEST POP CALLVALUE PUSH2 0x4CD JUMPI PUSH1 0x20 CALLDATASIZE PUSH1 0x3 NOT ADD SLT PUSH2 0x4CD JUMPI PUSH1 0x20 SWAP1 PUSH1 0x3 PUSH1 0x40 PUSH2 0x17EF PUSH2 0x483E JUMP JUMPDEST SWAP3 PUSH2 0x17FF PUSH3 0x15180 TIMESTAMP MOD TIMESTAMP PUSH2 0x505B JUMP JUMPDEST PUSH1 0x1 PUSH1 0x1 PUSH1 0xA0 SHL SUB SWAP1 SWAP5 AND DUP2 MSTORE PUSH1 0x1A DUP6 MSTORE KECCAK256 ADD SLOAD PUSH1 0x40 MLOAD SWAP2 GT ISZERO DUP2 MSTORE RETURN JUMPDEST POP CALLVALUE PUSH2 0x4CD JUMPI DUP1 PUSH1 0x3 NOT CALLDATASIZE ADD SLT PUSH2 0x4CD JUMPI PUSH1 0x20 PUSH1 0x17 SLOAD PUSH1 0x40 MLOAD SWAP1 DUP2 MSTORE RETURN JUMPDEST POP DUP1 PUSH1 0x3 NOT CALLDATASIZE ADD SLT PUSH2 0x4CD JUMPI PUSH2 0x184F PUSH2 0x5189 JUMP JUMPDEST PUSH2 0x1857 PUSH2 0x510B JUMP JUMPDEST CALLER DUP2 MSTORE PUSH1 0x20 PUSH1 0x1E DUP2 MSTORE PUSH2 0x1871 PUSH1 0xFF PUSH1 0x40 DUP5 KECCAK256 SLOAD AND ISZERO PUSH2 0x4D54 JUMP JUMPDEST CALLER DUP3 MSTORE PUSH1 0x1A DUP2 MSTORE PUSH2 0x188C PUSH1 0xFF PUSH1 0x6 PUSH1 0x40 DUP6 KECCAK256 ADD SLOAD AND ISZERO PUSH2 0x4D54 JUMP JUMPDEST CALLER DUP3 MSTORE PUSH1 0x1A DUP2 MSTORE PUSH1 0x64 PUSH1 0xB PUSH1 0x40 DUP5 KECCAK256 ADD SLOAD LT ISZERO PUSH2 0x19A0 JUMPI PUSH8 0xDE0B6B3A7640000 CALLVALUE LT PUSH2 0x1944 JUMPI CALLER DUP3 MSTORE PUSH1 0x1A DUP2 MSTORE PUSH1 0xB PUSH1 0x40 DUP4 KECCAK256 ADD SLOAD PUSH1 0x1 DUP2 ADD DUP1 SWAP2 GT PUSH2 0x1930 JUMPI CALLER DUP4 MSTORE PUSH1 0x1A DUP3 MSTORE PUSH1 0xB PUSH1 0x40 DUP5 KECCAK256 ADD SSTORE PUSH1 0x6 SLOAD CALLVALUE PUSH1 0x1 SHL SWAP1 CALLVALUE DUP3 DIV PUSH1 0x2 EQ CALLVALUE ISZERO OR ISZERO PUSH2 0xEC9 JUMPI SWAP1 PUSH2 0x18FB SWAP2 PUSH2 0x4D47 JUMP JUMPDEST PUSH1 0x6 SSTORE PUSH32 0x6A85014765CE1728A69F3D14127CC749D140BA142C380EF69CA533189DBFA360 PUSH1 0x40 MLOAD SWAP2 CALLVALUE DUP4 MSTORE CALLER SWAP3 LOG2 PUSH1 0x1 DUP2 SSTORE DUP1 RETURN JUMPDEST PUSH4 0x4E487B71 PUSH1 0xE0 SHL DUP4 MSTORE PUSH1 0x11 PUSH1 0x4 MSTORE PUSH1 0x24 DUP4 REVERT JUMPDEST PUSH1 0x84 SWAP1 PUSH1 0x40 MLOAD SWAP1 PUSH3 0x461BCD PUSH1 0xE5 SHL DUP3 MSTORE PUSH1 0x4 DUP3 ADD MSTORE PUSH1 0x2F PUSH1 0x24 DUP3 ADD MSTORE PUSH32 0x496E73756666696369656E742042617365205365706F6C69612045544820666F PUSH1 0x44 DUP3 ADD MSTORE PUSH15 0x72206A61636B706F7420656E747279 PUSH1 0x88 SHL PUSH1 0x64 DUP3 ADD MSTORE REVERT JUMPDEST PUSH1 0x64 SWAP1 PUSH1 0x40 MLOAD SWAP1 PUSH3 0x461BCD PUSH1 0xE5 SHL DUP3 MSTORE PUSH1 0x4 DUP3 ADD MSTORE PUSH1 0x1B PUSH1 0x24 DUP3 ADD MSTORE PUSH32 0x4D6178206A61636B706F7420656E747269657320726561636865640000000000 PUSH1 0x44 DUP3 ADD MSTORE REVERT JUMPDEST POP CALLVALUE PUSH2 0x4CD JUMPI DUP1 PUSH1 0x3 NOT CALLDATASIZE ADD SLT PUSH2 0x4CD JUMPI PUSH1 0x25 SLOAD PUSH2 0x1A28 PUSH1 0x40 PUSH1 0x26 SLOAD SWAP4 NUMBER DUP2 MSTORE PUSH1 0x23 PUSH1 0x20 MSTORE KECCAK256 SLOAD PUSH1 0x40 MLOAD SWAP4 DUP5 SWAP4 DUP5 PUSH1 0x40 SWAP2 SWAP5 SWAP4 SWAP3 PUSH1 0x60 DUP3 ADD SWAP6 DUP3 MSTORE PUSH1 0x20 DUP3 ADD MSTORE ADD MSTORE JUMP JUMPDEST SUB SWAP1 RETURN JUMPDEST POP CALLVALUE PUSH2 0x4CD JUMPI PUSH1 0x40 CALLDATASIZE PUSH1 0x3 NOT ADD SLT PUSH2 0x4CD JUMPI PUSH1 0x4 CALLDATALOAD PUSH2 0x1A49 PUSH2 0x4854 JUMP JUMPDEST SWAP1 PUSH2 0x1A52 PUSH2 0x50DF JUMP JUMPDEST DUP1 DUP4 MSTORE PUSH1 0x19 PUSH1 0x20 MSTORE PUSH1 0x40 DUP4 KECCAK256 DUP1 SLOAD PUSH1 0x1 PUSH1 0x1 PUSH1 0xA0 SHL SUB NOT AND PUSH1 0x1 PUSH1 0x1 PUSH1 0xA0 SHL SUB SWAP1 SWAP4 AND SWAP3 DUP4 OR SWAP1 SSTORE PUSH32 0xCA1453E2085A936EA52E0049E559E235E08FE8678E165A7EB63F4568098706AD DUP4 DUP1 LOG3 DUP1 RETURN JUMPDEST PUSH2 0x4CD3 JUMP JUMPDEST POP CALLVALUE PUSH2 0x4CD JUMPI PUSH1 0x20 CALLDATASIZE PUSH1 0x3 NOT ADD SLT PUSH2 0x4CD JUMPI PUSH1 0x40 PUSH1 0x20 SWAP2 PUSH1 0x4 CALLDATALOAD DUP2 MSTORE PUSH1 0xE DUP4 MSTORE KECCAK256 SLOAD PUSH1 0x40 MLOAD SWAP1 DUP2 MSTORE RETURN JUMPDEST POP CALLVALUE PUSH2 0x4CD JUMPI PUSH1 0x20 SWAP1 DUP2 PUSH1 0x3 NOT CALLDATASIZE ADD SLT PUSH2 0x4CD JUMPI PUSH2 0x1AEC PUSH2 0x5068 JUMP JUMPDEST POP PUSH1 0x4 CALLDATALOAD DUP2 MSTORE PUSH1 0x1D DUP3 MSTORE PUSH1 0x40 DUP2 KECCAK256 SWAP2 PUSH1 0x40 MLOAD SWAP2 PUSH2 0x1B08 DUP4 PUSH2 0x4917 JUMP JUMPDEST DUP4 SLOAD DUP4 MSTORE PUSH1 0x1 SWAP1 PUSH1 0x1 DUP6 ADD SLOAD DUP4 DUP6 ADD MSTORE PUSH1 0x2 DUP6 ADD SLOAD PUSH1 0x40 DUP6 ADD MSTORE PUSH1 0x3 DUP6 ADD SLOAD PUSH1 0x60 DUP6 ADD MSTORE PUSH1 0x4 DUP6 ADD SLOAD PUSH1 0x80 DUP6 ADD MSTORE PUSH1 0x5 DUP6 ADD SWAP2 PUSH1 0x40 MLOAD DUP1 SWAP5 DUP1 DUP6 SLOAD SWAP3 DUP4 DUP2 MSTORE ADD SWAP5 DUP5 MSTORE DUP1 DUP5 KECCAK256 SWAP4 SWAP1 JUMPDEST DUP3 DUP3 LT PUSH2 0x1B93 JUMPI PUSH2 0x1A28 DUP9 PUSH1 0x7 DUP12 DUP11 PUSH2 0x1B6C DUP2 DUP13 SUB DUP3 PUSH2 0x49CE JUMP JUMPDEST PUSH1 0xA0 DUP5 ADD MSTORE PUSH1 0xFF PUSH1 0x6 DUP3 ADD SLOAD AND ISZERO ISZERO PUSH1 0xC0 DUP5 ADD MSTORE ADD SLOAD PUSH1 0xE0 DUP3 ADD MSTORE PUSH1 0x40 MLOAD SWAP2 DUP3 SWAP2 DUP3 PUSH2 0x4C1F JUMP JUMPDEST DUP5 SLOAD PUSH1 0x1 PUSH1 0x1 PUSH1 0xA0 SHL SUB AND DUP7 MSTORE SWAP5 DUP6 ADD SWAP5 SWAP4 DUP4 ADD SWAP4 SWAP1 DUP4 ADD SWAP1 PUSH2 0x1B51 JUMP JUMPDEST POP CALLVALUE PUSH2 0x4CD JUMPI DUP1 PUSH2 0x1BC1 CALLDATASIZE PUSH2 0x4BCD JUMP JUMPDEST SWAP3 SWAP2 PUSH2 0x1BCB PUSH2 0x510B JUMP JUMPDEST PUSH1 0x2 SLOAD PUSH1 0x1 PUSH1 0x1 PUSH1 0xA0 SHL SUB AND SWAP1 DUP2 EXTCODESIZE ISZERO PUSH2 0x1C1D JUMPI DUP4 PUSH1 0x64 SWAP3 PUSH1 0x40 MLOAD SWAP7 DUP8 SWAP6 DUP7 SWAP5 PUSH4 0xA154FC6B PUSH1 0xE0 SHL DUP7 MSTORE PUSH1 0x4 DUP7 ADD MSTORE PUSH1 0x24 DUP6 ADD MSTORE PUSH1 0x44 DUP5 ADD MSTORE GAS CALL DUP1 ISZERO PUSH2 0xBCA JUMPI PUSH2 0x1C14 JUMPI POP DUP1 RETURN JUMPDEST PUSH2 0x8EA SWAP1 PUSH2 0x4933 JUMP JUMPDEST DUP4 DUP1 REVERT JUMPDEST POP CALLVALUE PUSH2 0x4CD JUMPI DUP1 PUSH1 0x3 NOT CALLDATASIZE ADD SLT PUSH2 0x4CD JUMPI PUSH1 0x20 PUSH1 0x40 MLOAD PUSH2 0x3E8 DUP2 MSTORE RETURN JUMPDEST POP CALLVALUE PUSH2 0x4CD JUMPI PUSH1 0x20 CALLDATASIZE PUSH1 0x3 NOT ADD SLT PUSH2 0x4CD JUMPI PUSH1 0x80 SWAP1 PUSH1 0x1 PUSH1 0x1 PUSH1 0xA0 SHL SUB SWAP1 PUSH1 0x40 SWAP1 DUP3 PUSH2 0x1C68 PUSH2 0x483E JUMP JUMPDEST AND DUP2 MSTORE PUSH1 0x1C PUSH1 0x20 MSTORE KECCAK256 SWAP1 DUP2 SLOAD AND SWAP1 PUSH1 0x1 DUP2 ADD SLOAD SWAP1 PUSH1 0xFF PUSH1 0x3 PUSH1 0x2 DUP4 ADD SLOAD SWAP3 ADD SLOAD AND SWAP2 PUSH1 0x40 MLOAD SWAP4 DUP5 MSTORE PUSH1 0x20 DUP5 ADD MSTORE PUSH1 0x40 DUP4 ADD MSTORE ISZERO ISZERO PUSH1 0x60 DUP3 ADD MSTORE RETURN JUMPDEST PUSH2 0x4CB7 JUMP JUMPDEST POP CALLVALUE PUSH2 0x4CD JUMPI DUP1 PUSH1 0x3 NOT CALLDATASIZE ADD SLT PUSH2 0x4CD JUMPI PUSH1 0x20 PUSH1 0x40 MLOAD PUSH7 0x38D7EA4C68000 DUP2 MSTORE RETURN JUMPDEST POP CALLVALUE PUSH2 0x4CD JUMPI DUP1 PUSH1 0x3 NOT CALLDATASIZE ADD SLT PUSH2 0x4CD JUMPI PUSH2 0x1CE3 PUSH2 0x5068 JUMP JUMPDEST POP PUSH1 0x4 SLOAD DUP2 MSTORE PUSH1 0x20 SWAP1 PUSH1 0x1D PUSH1 0x20 MSTORE PUSH1 0x40 DUP2 KECCAK256 SWAP2 PUSH1 0x40 MLOAD SWAP2 PUSH2 0x1D03 DUP4 PUSH2 0x4917 JUMP JUMPDEST DUP4 SLOAD DUP4 MSTORE PUSH1 0x1 SWAP1 PUSH1 0x1 DUP6 ADD SLOAD PUSH1 0x20 DUP6 ADD MSTORE PUSH1 0x2 DUP6 ADD SLOAD PUSH1 0x40 DUP6 ADD MSTORE PUSH1 0x3 DUP6 ADD SLOAD PUSH1 0x60 DUP6 ADD MSTORE PUSH1 0x4 DUP6 ADD SLOAD PUSH1 0x80 DUP6 ADD MSTORE PUSH1 0x5 DUP6 ADD SWAP2 PUSH1 0x40 MLOAD DUP1 SWAP5 PUSH1 0x20 DUP6 SLOAD SWAP3 DUP4 DUP2 MSTORE ADD SWAP5 DUP5 MSTORE PUSH1 0x20 DUP5 KECCAK256 SWAP4 SWAP1 JUMPDEST DUP3 DUP3 LT PUSH2 0x1D6A JUMPI PUSH2 0x1A28 DUP9 PUSH1 0x7 DUP12 DUP11 PUSH2 0x1B6C DUP2 DUP13 SUB DUP3 PUSH2 0x49CE JUMP JUMPDEST DUP5 SLOAD PUSH1 0x1 PUSH1 0x1 PUSH1 0xA0 SHL SUB AND DUP7 MSTORE SWAP5 DUP6 ADD SWAP5 SWAP4 DUP4 ADD SWAP4 SWAP1 DUP4 ADD SWAP1 PUSH2 0x1D4F JUMP JUMPDEST POP CALLVALUE PUSH2 0x4CD JUMPI PUSH2 0x1D97 CALLDATASIZE PUSH2 0x486A JUMP JUMPDEST SWAP2 SWAP1 DUP2 MSTORE PUSH1 0xC PUSH1 0x20 MSTORE PUSH1 0x40 DUP2 KECCAK256 SWAP1 DUP2 SLOAD DUP4 LT ISZERO PUSH2 0x4CD JUMPI PUSH1 0x20 PUSH2 0x1DBA DUP5 DUP5 PUSH2 0x4880 JUMP JUMPDEST SWAP1 SLOAD PUSH1 0x40 MLOAD PUSH1 0x3 SWAP3 SWAP1 SWAP3 SHL SHR PUSH1 0x1 PUSH1 0x1 PUSH1 0xA0 SHL SUB AND DUP2 MSTORE RETURN JUMPDEST POP CALLVALUE PUSH2 0x4CD JUMPI PUSH1 0x40 CALLDATASIZE PUSH1 0x3 NOT ADD SLT PUSH2 0x4CD JUMPI PUSH1 0x20 SWAP1 PUSH2 0x1DF0 PUSH2 0x4854 JUMP JUMPDEST PUSH1 0x4 CALLDATALOAD DUP3 MSTORE PUSH1 0x18 DUP4 MSTORE PUSH1 0x40 DUP1 DUP4 KECCAK256 PUSH1 0x1 PUSH1 0x1 PUSH1 0xA0 SHL SUB SWAP3 DUP4 AND DUP1 DUP6 MSTORE SWAP1 DUP6 MSTORE SWAP3 KECCAK256 SLOAD PUSH1 0xFF AND SWAP2 SWAP1 DUP3 ISZERO PUSH2 0x1E2A JUMPI JUMPDEST POP POP PUSH1 0x40 MLOAD SWAP1 ISZERO ISZERO DUP2 MSTORE RETURN JUMPDEST PUSH1 0x1 SLOAD AND EQ SWAP1 POP CODESIZE DUP1 PUSH2 0x1E1E JUMP JUMPDEST POP CALLVALUE PUSH2 0x4CD JUMPI DUP1 PUSH1 0x3 NOT CALLDATASIZE ADD SLT PUSH2 0x4CD JUMPI PUSH1 0x1 SLOAD PUSH1 0x40 MLOAD PUSH1 0x1 PUSH1 0x1 PUSH1 0xA0 SHL SUB SWAP1 SWAP2 AND DUP2 MSTORE PUSH1 0x20 SWAP1 RETURN JUMPDEST POP CALLVALUE PUSH2 0x4CD JUMPI PUSH1 0x20 CALLDATASIZE PUSH1 0x3 NOT ADD SLT PUSH2 0x4CD JUMPI PUSH1 0x20 SWAP1 PUSH1 0x4 CALLDATALOAD DUP2 MSTORE PUSH1 0x19 DUP3 MSTORE PUSH1 0x40 PUSH1 0x1 DUP1 PUSH1 0xA0 SHL SUB SWAP2 KECCAK256 SLOAD AND PUSH1 0x40 MLOAD SWAP1 DUP2 MSTORE RETURN JUMPDEST PUSH2 0x4BE7 JUMP JUMPDEST POP CALLVALUE PUSH2 0x4CD JUMPI PUSH1 0x20 CALLDATASIZE PUSH1 0x3 NOT ADD SLT PUSH2 0x4CD JUMPI PUSH1 0x40 PUSH1 0x20 SWAP2 PUSH1 0x4 CALLDATALOAD DUP2 MSTORE PUSH1 0x23 DUP4 MSTORE KECCAK256 SLOAD PUSH1 0x40 MLOAD SWAP1 DUP2 MSTORE RETURN JUMPDEST POP CALLVALUE PUSH2 0x4CD JUMPI DUP1 PUSH1 0x3 NOT CALLDATASIZE ADD SLT PUSH2 0x4CD JUMPI PUSH1 0x3 SLOAD PUSH1 0x40 MLOAD PUSH4 0x8F09C857 PUSH1 0xE0 SHL DUP2 MSTORE SWAP1 PUSH1 0x20 SWAP1 DUP3 SWAP1 PUSH1 0x4 SWAP1 DUP3 SWAP1 PUSH1 0x1 PUSH1 0x1 PUSH1 0xA0 SHL SUB AND GAS STATICCALL SWAP1 DUP2 ISZERO PUSH2 0xBCA JUMPI DUP3 SWAP2 PUSH2 0x1F13 JUMPI JUMPDEST PUSH1 0x20 DUP3 PUSH1 0x40 MLOAD SWAP1 DUP2 MSTORE RETURN JUMPDEST SWAP1 POP PUSH1 0x20 DUP2 RETURNDATASIZE PUSH1 0x20 GT PUSH2 0x1F45 JUMPI JUMPDEST DUP2 PUSH2 0x1F2E PUSH1 0x20 SWAP4 DUP4 PUSH2 0x49CE JUMP JUMPDEST DUP2 ADD SUB SLT PUSH2 0x1F41 JUMPI PUSH1 0x20 SWAP2 POP MLOAD CODESIZE PUSH2 0x1F08 JUMP JUMPDEST POP DUP1 REVERT JUMPDEST RETURNDATASIZE SWAP2 POP PUSH2 0x1F21 JUMP JUMPDEST POP CALLVALUE PUSH2 0x4CD JUMPI PUSH1 0x20 CALLDATASIZE PUSH1 0x3 NOT ADD SLT PUSH2 0x4CD JUMPI PUSH1 0x20 SWAP1 PUSH1 0x40 SWAP1 PUSH1 0x1 PUSH1 0x1 PUSH1 0xA0 SHL SUB PUSH2 0x1F75 PUSH2 0x483E JUMP JUMPDEST AND DUP2 MSTORE PUSH1 0x22 DUP4 MSTORE KECCAK256 SLOAD PUSH1 0x40 MLOAD SWAP1 DUP2 MSTORE RETURN JUMPDEST POP CALLVALUE PUSH2 0x4CD JUMPI DUP1 PUSH1 0x3 NOT CALLDATASIZE ADD SLT PUSH2 0x4CD JUMPI PUSH1 0x20 PUSH1 0x40 MLOAD PUSH32 0xA49807205CE4D355092EF5A8A18F56E8913CF4A201FBE287825B095693C21775 DUP2 MSTORE RETURN JUMPDEST POP CALLVALUE PUSH2 0x4CD JUMPI DUP1 PUSH1 0x3 NOT CALLDATASIZE ADD SLT PUSH2 0x4CD JUMPI PUSH1 0x20 PUSH1 0x7 SLOAD PUSH1 0x40 MLOAD SWAP1 DUP2 MSTORE RETURN JUMPDEST POP CALLVALUE PUSH2 0x4CD JUMPI DUP1 PUSH1 0x3 NOT CALLDATASIZE ADD SLT PUSH2 0x4CD JUMPI PUSH2 0x1FF8 PUSH2 0x5189 JUMP JUMPDEST PUSH2 0x2000 PUSH2 0x510B JUMP JUMPDEST CALLER DUP2 MSTORE PUSH1 0x20 PUSH1 0x1E DUP2 MSTORE PUSH2 0x201A PUSH1 0xFF PUSH1 0x40 DUP5 KECCAK256 SLOAD AND ISZERO PUSH2 0x4D54 JUMP JUMPDEST CALLER DUP3 MSTORE PUSH1 0x1A DUP2 MSTORE PUSH2 0x2035 PUSH1 0xFF PUSH1 0x6 PUSH1 0x40 DUP6 KECCAK256 ADD SLOAD AND ISZERO PUSH2 0x4D54 JUMP JUMPDEST PUSH1 0x40 MLOAD PUSH4 0x70A08231 PUSH1 0xE0 SHL DUP2 MSTORE CALLER PUSH1 0x4 DUP3 ADD MSTORE DUP2 DUP2 PUSH1 0x24 DUP2 PUSH32 0x0 PUSH1 0x1 PUSH1 0x1 PUSH1 0xA0 SHL SUB AND GAS STATICCALL SWAP1 DUP2 ISZERO PUSH2 0x10EE JUMPI DUP4 SWAP2 PUSH2 0x21F3 JUMPI JUMPDEST POP DUP1 ISZERO PUSH2 0x21BD JUMPI PUSH8 0xDE0B6B3A7640000 SWAP1 DIV SWAP1 PUSH1 0xA DUP3 MUL SWAP2 DUP1 DUP4 DIV PUSH1 0xA EQ SWAP1 ISZERO OR ISZERO PUSH2 0x1930 JUMPI DUP2 ISZERO PUSH2 0x2179 JUMPI PUSH2 0x2710 DUP3 GT PUSH2 0x2135 JUMPI PUSH1 0x40 SWAP1 CALLER DUP5 MSTORE PUSH1 0x1A DUP2 MSTORE PUSH2 0x20D6 DUP4 PUSH1 0x8 DUP5 DUP8 KECCAK256 ADD SLOAD PUSH2 0x4D47 JUMP JUMPDEST CALLER DUP6 MSTORE PUSH1 0x1A DUP3 MSTORE PUSH1 0x8 DUP4 DUP7 KECCAK256 ADD SSTORE DUP2 MLOAD SWAP3 DUP4 MSTORE DUP3 ADD MSTORE PUSH1 0xC PUSH1 0x40 DUP3 ADD MSTORE PUSH12 0x564D4620686F6C64696E6773 PUSH1 0xA0 SHL PUSH1 0x60 DUP3 ADD MSTORE PUSH32 0xA6064B0DE95F7CDA15129E7C36146C8ACCF65ABB7A3639D800A445FA55023A17 PUSH1 0x80 CALLER SWAP3 LOG2 PUSH1 0x1 DUP2 SSTORE DUP1 RETURN JUMPDEST PUSH1 0x64 SWAP1 PUSH1 0x40 MLOAD SWAP1 PUSH3 0x461BCD PUSH1 0xE5 SHL DUP3 MSTORE PUSH1 0x4 DUP3 ADD MSTORE PUSH1 0x17 PUSH1 0x24 DUP3 ADD MSTORE PUSH32 0x4C6F79616C747920706F696E747320746F6F2068696768000000000000000000 PUSH1 0x44 DUP3 ADD MSTORE REVERT JUMPDEST PUSH1 0x64 SWAP1 PUSH1 0x40 MLOAD SWAP1 PUSH3 0x461BCD PUSH1 0xE5 SHL DUP3 MSTORE PUSH1 0x4 DUP3 ADD MSTORE PUSH1 0x1A PUSH1 0x24 DUP3 ADD MSTORE PUSH32 0x4E6F206C6F79616C747920706F696E747320746F206177617264000000000000 PUSH1 0x44 DUP3 ADD MSTORE REVERT JUMPDEST PUSH1 0x40 MLOAD PUSH3 0x461BCD PUSH1 0xE5 SHL DUP2 MSTORE PUSH1 0x4 DUP2 ADD DUP4 SWAP1 MSTORE PUSH1 0xE PUSH1 0x24 DUP3 ADD MSTORE PUSH14 0x4E6F20564D462062616C616E6365 PUSH1 0x90 SHL PUSH1 0x44 DUP3 ADD MSTORE PUSH1 0x64 SWAP1 REVERT JUMPDEST SWAP1 POP DUP2 DUP2 DUP2 RETURNDATASIZE DUP4 GT PUSH2 0x221D JUMPI JUMPDEST PUSH2 0x220A DUP2 DUP4 PUSH2 0x49CE JUMP JUMPDEST DUP2 ADD SUB SLT PUSH2 0x2219 JUMPI MLOAD CODESIZE PUSH2 0x2087 JUMP JUMPDEST DUP3 DUP1 REVERT JUMPDEST POP RETURNDATASIZE PUSH2 0x2200 JUMP JUMPDEST POP CALLVALUE PUSH2 0x4CD JUMPI PUSH2 0x2233 CALLDATASIZE PUSH2 0x4BCD JUMP JUMPDEST PUSH1 0x0 DUP1 MLOAD PUSH1 0x20 PUSH2 0x5B71 DUP4 CODECOPY DUP2 MLOAD SWAP2 MSTORE DUP5 MSTORE PUSH1 0x20 SWAP1 PUSH1 0x18 DUP3 MSTORE PUSH1 0x40 DUP6 KECCAK256 CALLER DUP7 MSTORE DUP3 MSTORE PUSH1 0xFF PUSH1 0x40 DUP7 KECCAK256 SLOAD AND DUP1 ISZERO PUSH2 0x2454 JUMPI JUMPDEST PUSH2 0x226C SWAP1 PUSH2 0x4ECA JUMP JUMPDEST PUSH2 0x2274 PUSH2 0x510B JUMP JUMPDEST DUP4 DUP6 MSTORE PUSH1 0x13 DUP3 MSTORE PUSH1 0xFF PUSH1 0x40 DUP7 KECCAK256 SLOAD AND PUSH2 0x2418 JUMPI PUSH2 0x2296 PUSH1 0x16 SLOAD PUSH1 0x17 SLOAD SWAP1 PUSH2 0x4D47 JUMP JUMPDEST TIMESTAMP LT PUSH2 0x23D3 JUMPI DUP4 DUP6 MSTORE PUSH1 0x15 DUP3 MSTORE PUSH1 0x40 DUP6 KECCAK256 SLOAD SUB PUSH2 0x2399 JUMPI DUP3 DUP5 MSTORE PUSH1 0x13 DUP2 MSTORE PUSH1 0x40 DUP5 KECCAK256 SWAP1 PUSH1 0xFF NOT SWAP2 PUSH1 0x1 DUP4 DUP3 SLOAD AND OR SWAP1 SSTORE PUSH1 0x5 SLOAD SWAP2 DUP4 PUSH1 0x5 SSTORE PUSH1 0x14 DUP3 MSTORE PUSH1 0x40 DUP7 KECCAK256 SLOAD PUSH1 0x1 DUP2 ADD DUP1 SWAP2 GT PUSH2 0x2385 JUMPI SWAP2 PUSH1 0x14 SWAP2 PUSH32 0x42D4A2476A82A032F615547E73391179C379C1EB26FB0BD034F43131AE2BC15D SWAP6 SWAP5 SWAP4 DUP8 DUP10 MSTORE DUP4 DUP4 MSTORE DUP1 PUSH1 0x40 DUP11 KECCAK256 SSTORE PUSH1 0x40 MLOAD DUP4 DUP2 ADD SWAP2 DUP8 DUP4 MSTORE PUSH1 0x40 DUP3 ADD MSTORE TIMESTAMP PUSH1 0x60 DUP3 ADD MSTORE PUSH1 0x60 DUP2 MSTORE PUSH2 0x2338 DUP2 PUSH2 0x48CA JUMP JUMPDEST MLOAD SWAP1 KECCAK256 DUP8 DUP10 MSTORE PUSH1 0x15 DUP4 MSTORE PUSH1 0x40 DUP10 KECCAK256 SSTORE TIMESTAMP PUSH1 0x16 SSTORE PUSH1 0x13 DUP3 MSTORE PUSH1 0x40 DUP9 KECCAK256 SWAP1 DUP2 SLOAD AND SWAP1 SSTORE MSTORE PUSH2 0x237F PUSH1 0x40 DUP7 KECCAK256 SLOAD PUSH1 0x40 MLOAD SWAP4 DUP5 SWAP4 DUP5 PUSH1 0x40 SWAP2 SWAP5 SWAP4 SWAP3 PUSH1 0x60 DUP3 ADD SWAP6 DUP3 MSTORE PUSH1 0x20 DUP3 ADD MSTORE ADD MSTORE JUMP JUMPDEST SUB SWAP1 LOG2 DUP1 RETURN JUMPDEST PUSH4 0x4E487B71 PUSH1 0xE0 SHL DUP8 MSTORE PUSH1 0x11 PUSH1 0x4 MSTORE PUSH1 0x24 DUP8 REVERT JUMPDEST PUSH1 0x64 SWAP1 PUSH1 0x40 MLOAD SWAP1 PUSH3 0x461BCD PUSH1 0xE5 SHL DUP3 MSTORE PUSH1 0x4 DUP3 ADD MSTORE PUSH1 0x13 PUSH1 0x24 DUP3 ADD MSTORE PUSH19 0xA6E8C2E8CA40D0C2E6D040DAD2E6DAC2E8C6D PUSH1 0x6B SHL PUSH1 0x44 DUP3 ADD MSTORE REVERT JUMPDEST PUSH1 0x40 MLOAD PUSH3 0x461BCD PUSH1 0xE5 SHL DUP2 MSTORE PUSH1 0x4 DUP2 ADD DUP4 SWAP1 MSTORE PUSH1 0x1B PUSH1 0x24 DUP3 ADD MSTORE PUSH32 0x4A61636B706F742075706461746520746F6F206672657175656E740000000000 PUSH1 0x44 DUP3 ADD MSTORE PUSH1 0x64 SWAP1 REVERT JUMPDEST PUSH1 0x40 MLOAD PUSH3 0x461BCD PUSH1 0xE5 SHL DUP2 MSTORE PUSH1 0x4 DUP2 ADD DUP4 SWAP1 MSTORE PUSH1 0x14 PUSH1 0x24 DUP3 ADD MSTORE PUSH20 0x11D85B59481CDD185D19481A5CC81B1BD8DAD959 PUSH1 0x62 SHL PUSH1 0x44 DUP3 ADD MSTORE PUSH1 0x64 SWAP1 REVERT JUMPDEST POP PUSH1 0x1 SLOAD PUSH1 0x1 PUSH1 0x1 PUSH1 0xA0 SHL SUB AND CALLER EQ PUSH2 0x2263 JUMP JUMPDEST POP CALLVALUE PUSH2 0x4CD JUMPI DUP1 PUSH1 0x3 NOT CALLDATASIZE ADD SLT PUSH2 0x4CD JUMPI PUSH2 0x2481 PUSH2 0x50DF JUMP JUMPDEST PUSH1 0x1 DUP1 SLOAD PUSH1 0x1 PUSH1 0x1 PUSH1 0xA0 SHL SUB NOT DUP2 AND SWAP1 SWAP2 SSTORE DUP2 SWAP1 PUSH1 0x1 PUSH1 0x1 PUSH1 0xA0 SHL SUB AND PUSH32 0x8BE0079C531659141344CD1FD0A4F28419497F9722A3DAAFE3B4186F6B6457E0 DUP3 DUP1 LOG3 DUP1 RETURN JUMPDEST POP CALLVALUE PUSH2 0x4CD JUMPI DUP1 PUSH1 0x3 NOT CALLDATASIZE ADD SLT PUSH2 0x4CD JUMPI PUSH1 0x20 PUSH1 0x40 MLOAD PUSH32 0x59A1C48E5837AD7A7F3DCEDCBE129BF3249EC4FBF651FD4F5E2600EAD39FE2F5 DUP2 MSTORE RETURN JUMPDEST POP CALLVALUE PUSH2 0x4CD JUMPI PUSH1 0x20 CALLDATASIZE PUSH1 0x3 NOT ADD SLT PUSH2 0x4CD JUMPI PUSH32 0x37AA3048A2B523E3218796793D7C9283CBD45124C62254C97FEBFC1292524294 PUSH1 0x20 PUSH1 0x4 CALLDATALOAD PUSH32 0xA49807205CE4D355092EF5A8A18F56E8913CF4A201FBE287825B095693C21775 DUP5 MSTORE PUSH1 0x18 DUP3 MSTORE PUSH1 0x40 DUP5 KECCAK256 CALLER DUP6 MSTORE DUP3 MSTORE PUSH1 0xFF PUSH1 0x40 DUP6 KECCAK256 SLOAD AND DUP1 ISZERO PUSH2 0x258E JUMPI JUMPDEST PUSH2 0x2580 SWAP1 PUSH2 0x4ECA JUMP JUMPDEST DUP1 PUSH1 0x17 SSTORE PUSH1 0x40 MLOAD SWAP1 DUP2 MSTORE LOG1 DUP1 RETURN JUMPDEST POP PUSH1 0x1 SLOAD PUSH1 0x1 PUSH1 0x1 PUSH1 0xA0 SHL SUB AND CALLER EQ PUSH2 0x2577 JUMP JUMPDEST POP CALLVALUE PUSH2 0x4CD JUMPI DUP1 PUSH1 0x3 NOT CALLDATASIZE ADD SLT PUSH2 0x4CD JUMPI PUSH1 0x20 PUSH1 0x40 MLOAD PUSH1 0x5 DUP2 MSTORE RETURN JUMPDEST POP CALLVALUE PUSH2 0x4CD JUMPI PUSH1 0x20 CALLDATASIZE PUSH1 0x3 NOT ADD SLT PUSH2 0x4CD JUMPI PUSH1 0x40 PUSH1 0x20 SWAP2 PUSH1 0x4 CALLDATALOAD DUP2 MSTORE PUSH1 0x15 DUP4 MSTORE KECCAK256 SLOAD PUSH1 0x40 MLOAD SWAP1 DUP2 MSTORE RETURN JUMPDEST POP CALLVALUE PUSH2 0x4CD JUMPI DUP1 PUSH1 0x3 NOT CALLDATASIZE ADD SLT PUSH2 0x4CD JUMPI PUSH1 0x20 PUSH1 0xFF PUSH1 0x1 SLOAD PUSH1 0xA0 SHR AND PUSH1 0x40 MLOAD SWAP1 ISZERO ISZERO DUP2 MSTORE RETURN JUMPDEST POP PUSH2 0x2618 CALLDATASIZE PUSH2 0x4A0A JUMP JUMPDEST PUSH2 0x2620 PUSH2 0x5189 JUMP JUMPDEST PUSH2 0x2628 PUSH2 0x510B JUMP JUMPDEST CALLER DUP3 MSTORE PUSH1 0x20 PUSH1 0x1E DUP2 MSTORE PUSH2 0x2642 PUSH1 0xFF PUSH1 0x40 DUP6 KECCAK256 SLOAD AND ISZERO PUSH2 0x4D54 JUMP JUMPDEST CALLER DUP4 MSTORE PUSH1 0x1A DUP1 DUP3 MSTORE PUSH2 0x265E PUSH1 0xFF PUSH1 0x6 PUSH1 0x40 DUP8 KECCAK256 ADD SLOAD AND ISZERO PUSH2 0x4D54 JUMP JUMPDEST CALLER DUP5 MSTORE DUP1 DUP3 MSTORE PUSH1 0xFF PUSH1 0x10 PUSH1 0x40 DUP7 KECCAK256 ADD SLOAD AND PUSH2 0x2D90 JUMPI CALLER DUP5 MSTORE DUP1 DUP3 MSTORE PUSH1 0x3 PUSH1 0x40 DUP6 KECCAK256 ADD SLOAD SWAP1 PUSH2 0xE10 SWAP2 DUP3 DUP2 ADD DUP1 SWAP2 GT PUSH2 0x2914 JUMPI TIMESTAMP LT PUSH2 0x2D55 JUMPI CALLER DUP6 MSTORE PUSH1 0x21 DUP4 MSTORE PUSH1 0x40 DUP6 KECCAK256 SLOAD TIMESTAMP LT PUSH2 0x2D12 JUMPI CALLER DUP6 MSTORE DUP1 DUP4 MSTORE PUSH1 0xF PUSH1 0x40 DUP7 KECCAK256 ADD SLOAD DUP3 DUP2 ADD DUP1 SWAP2 GT PUSH2 0x2914 JUMPI TIMESTAMP LT PUSH2 0x2CCD JUMPI CALLER DUP6 MSTORE PUSH1 0x22 DUP4 MSTORE TIMESTAMP PUSH1 0x40 DUP7 KECCAK256 SSTORE DUP1 DUP4 MSTORE TIMESTAMP PUSH1 0xF PUSH1 0x40 DUP8 KECCAK256 ADD SSTORE PUSH1 0x4 SLOAD ISZERO PUSH2 0x2C96 JUMPI PUSH2 0x26F0 CALLER PUSH2 0x557C JUMP JUMPDEST PUSH2 0x2C51 JUMPI PUSH7 0x38D7EA4C68000 CALLVALUE LT PUSH2 0x2BFE JUMPI CALLER DUP6 MSTORE DUP1 DUP4 MSTORE PUSH1 0x1 SWAP4 PUSH1 0xA DUP6 PUSH1 0x40 DUP9 KECCAK256 ADD SLOAD LT ISZERO PUSH2 0x2BB9 JUMPI PUSH1 0x40 MLOAD PUSH2 0x2726 DUP2 PUSH2 0x4961 JUMP JUMPDEST DUP7 DUP2 MSTORE SWAP1 DUP1 MLOAD ISZERO DUP1 ISZERO PUSH2 0x29C8 JUMPI JUMPDEST POP POP CALLER DUP7 MSTORE DUP2 DUP5 MSTORE DUP5 PUSH1 0x40 DUP8 KECCAK256 ADD SLOAD DUP6 DUP2 ADD DUP1 SWAP2 GT PUSH2 0x2385 JUMPI CALLER DUP8 MSTORE DUP3 DUP6 MSTORE PUSH1 0x40 DUP8 KECCAK256 SWAP1 DUP7 DUP3 ADD SSTORE TIMESTAMP PUSH1 0x3 DUP3 ADD SSTORE SLOAD DUP6 DUP2 ADD DUP1 SWAP2 GT PUSH2 0x2385 JUMPI CALLER DUP8 MSTORE DUP3 DUP6 MSTORE PUSH1 0x40 DUP8 KECCAK256 SSTORE PUSH1 0x4 SLOAD DUP7 MSTORE PUSH1 0xA DUP5 MSTORE PUSH2 0x278E CALLER PUSH1 0x40 DUP9 KECCAK256 PUSH2 0x4D0C JUMP JUMPDEST PUSH1 0x4 SLOAD DUP1 DUP8 MSTORE PUSH1 0xB DUP6 MSTORE PUSH1 0x40 DUP8 KECCAK256 SLOAD SWAP1 DUP7 DUP3 ADD DUP1 SWAP3 GT PUSH2 0x29B4 JUMPI DUP8 MSTORE PUSH1 0xB DUP6 MSTORE PUSH1 0x40 DUP8 KECCAK256 SSTORE PUSH2 0x27BF CALLVALUE PUSH1 0x5 SLOAD PUSH2 0x4D47 JUMP JUMPDEST PUSH1 0x5 SSTORE DUP1 MLOAD PUSH2 0x296D JUMPI JUMPDEST POP CALLER DUP6 MSTORE DUP3 DUP1 MSTORE PUSH1 0x40 DUP6 KECCAK256 SLOAD DUP5 DUP2 ADD DUP1 SWAP2 GT PUSH2 0x2914 JUMPI PUSH1 0x64 DUP2 GT PUSH2 0x2928 JUMPI CALLER DUP7 MSTORE DUP4 DUP1 MSTORE PUSH1 0x40 DUP7 KECCAK256 SSTORE DUP1 DUP4 MSTORE PUSH1 0xE PUSH1 0x40 DUP7 KECCAK256 ADD SLOAD DUP5 DUP2 ADD DUP1 SWAP2 GT PUSH2 0x2914 JUMPI CALLER DUP7 MSTORE DUP2 DUP5 MSTORE PUSH1 0xE PUSH1 0x40 DUP8 KECCAK256 ADD SSTORE PUSH1 0x40 MLOAD DUP5 DUP2 MSTORE PUSH1 0x40 DUP5 DUP3 ADD MSTORE PUSH1 0x11 PUSH1 0x40 DUP3 ADD MSTORE PUSH17 0x11185A5B1E481C1B185E481C995DD85C99 PUSH1 0x7A SHL PUSH1 0x60 DUP3 ADD MSTORE PUSH1 0x0 DUP1 MLOAD PUSH1 0x20 PUSH2 0x5B91 DUP4 CODECOPY DUP2 MLOAD SWAP2 MSTORE PUSH1 0x80 CALLER SWAP3 LOG2 PUSH1 0x4 SLOAD PUSH1 0x40 MLOAD CALLVALUE DUP2 MSTORE PUSH32 0x480A6DAEA81F2AF589E1959DA1F1719512392EC551E8966266EE820F1C1F72EA DUP6 CALLER SWAP3 LOG3 PUSH32 0x404449B42E86F8716DD5AC141731FB164FE1F76D7E4039FDD16C7B3B48F96A4E PUSH1 0x40 PUSH1 0x5 SLOAD PUSH1 0x6 SLOAD DUP3 MLOAD SWAP2 DUP3 MSTORE DUP7 DUP3 ADD MSTORE LOG1 CALLER DUP6 MSTORE DUP3 MSTORE PUSH1 0x10 PUSH1 0x40 DUP6 KECCAK256 ADD DUP4 PUSH1 0xFF NOT DUP3 SLOAD AND OR SWAP1 SSTORE TIMESTAMP ADD SWAP1 DUP2 TIMESTAMP GT PUSH2 0xEC9 JUMPI PUSH32 0x2F9A50B0843B7D2D827707C950209B525673C306D684446F6C4B1B748A4ED9EE SWAP1 CALLER DUP6 MSTORE PUSH1 0x21 DUP2 MSTORE DUP3 PUSH1 0x40 DUP7 KECCAK256 SSTORE PUSH1 0x40 MLOAD SWAP3 DUP4 MSTORE CALLER SWAP3 LOG2 DUP2 SSTORE DUP1 RETURN JUMPDEST PUSH4 0x4E487B71 PUSH1 0xE0 SHL DUP7 MSTORE PUSH1 0x11 PUSH1 0x4 MSTORE PUSH1 0x24 DUP7 REVERT JUMPDEST PUSH1 0x40 MLOAD PUSH3 0x461BCD PUSH1 0xE5 SHL DUP2 MSTORE PUSH1 0x4 DUP2 ADD DUP6 SWAP1 MSTORE PUSH1 0x1B PUSH1 0x24 DUP3 ADD MSTORE PUSH32 0x4461696C7920726577617264206C696D69742065786365656465640000000000 PUSH1 0x44 DUP3 ADD MSTORE PUSH1 0x64 SWAP1 REVERT JUMPDEST PUSH2 0x29A6 PUSH32 0x64274D45E838268EFE3B4FA5586A29791F42C0F3F9A6422424C424401BF39589 SWAP2 PUSH1 0x40 MLOAD SWAP2 DUP3 SWAP2 PUSH1 0x40 DUP4 MSTORE PUSH1 0x40 DUP4 ADD SWAP1 PUSH2 0x4BA8 JUMP JUMPDEST CALLER DUP8 DUP4 ADD MSTORE SUB SWAP1 LOG1 CODESIZE PUSH2 0x27C9 JUMP JUMPDEST PUSH4 0x4E487B71 PUSH1 0xE0 SHL DUP9 MSTORE PUSH1 0x11 PUSH1 0x4 MSTORE PUSH1 0x24 DUP9 REVERT JUMPDEST SWAP1 SWAP2 POP PUSH2 0x2B7C JUMPI PUSH1 0x64 DUP2 MLOAD GT PUSH2 0x2B46 JUMPI PUSH2 0x29E2 DUP2 MLOAD PUSH2 0x55DA JUMP JUMPDEST SWAP1 DUP6 DUP8 SWAP2 DUP2 DUP10 SWAP1 JUMPDEST PUSH2 0x2AD9 JUMPI JUMPDEST POP POP POP DUP1 ISZERO PUSH2 0x2A94 JUMPI PUSH2 0x2A01 DUP2 PUSH2 0x55DA JUMP JUMPDEST SWAP2 DUP7 DUP9 JUMPDEST DUP4 DUP2 LT PUSH2 0x2A6A JUMPI POP POP POP POP PUSH2 0x2A19 DUP2 PUSH2 0x561D JUMP JUMPDEST ISZERO PUSH2 0x2A25 JUMPI CODESIZE DUP1 PUSH2 0x2734 JUMP JUMPDEST PUSH1 0x40 MLOAD PUSH3 0x461BCD PUSH1 0xE5 SHL DUP2 MSTORE PUSH1 0x4 DUP2 ADD DUP6 SWAP1 MSTORE PUSH1 0x1C PUSH1 0x24 DUP3 ADD MSTORE PUSH32 0x496E76616C696420726566657272616C20636F646520666F726D617400000000 PUSH1 0x44 DUP3 ADD MSTORE PUSH1 0x64 SWAP1 REVERT JUMPDEST PUSH1 0x1 PUSH1 0x1 PUSH1 0xF8 SHL SUB NOT PUSH2 0x2A7D DUP3 DUP6 PUSH2 0x560C JUMP JUMPDEST MLOAD AND DUP11 BYTE PUSH2 0x2A8B DUP3 DUP8 PUSH2 0x560C JUMP JUMPDEST MSTORE8 ADD DUP8 SWAP1 PUSH2 0x2A05 JUMP JUMPDEST PUSH1 0x40 MLOAD PUSH3 0x461BCD PUSH1 0xE5 SHL DUP2 MSTORE PUSH1 0x4 DUP2 ADD DUP7 SWAP1 MSTORE PUSH1 0x1C PUSH1 0x24 DUP3 ADD MSTORE PUSH32 0x4E6F2076616C6964206368617261637465727320696E20696E70757400000000 PUSH1 0x44 DUP3 ADD MSTORE PUSH1 0x64 SWAP1 REVERT JUMPDEST DUP2 MLOAD DUP2 LT ISZERO PUSH2 0x2B41 JUMPI PUSH1 0x1 PUSH1 0x1 PUSH1 0xF8 SHL SUB NOT PUSH2 0x2AF5 DUP3 DUP5 PUSH2 0x560C JUMP JUMPDEST MLOAD AND PUSH1 0x1 PUSH1 0xFD SHL DUP2 LT ISZERO DUP1 PUSH2 0x2B33 JUMPI JUMPDEST PUSH2 0x2B13 JUMPI JUMPDEST POP DUP3 ADD DUP3 PUSH2 0x29EA JUMP JUMPDEST DUP4 SWAP2 SWAP5 PUSH2 0x2B2C SWAP2 DUP13 BYTE PUSH2 0x2B26 DUP3 DUP10 PUSH2 0x560C JUMP JUMPDEST MSTORE8 PUSH2 0x5297 JUMP JUMPDEST SWAP4 SWAP1 PUSH2 0x2B0A JUMP JUMPDEST POP PUSH1 0x3F PUSH1 0xF9 SHL DUP2 GT ISZERO PUSH2 0x2B05 JUMP JUMPDEST PUSH2 0x29EF JUMP JUMPDEST PUSH1 0x40 MLOAD PUSH3 0x461BCD PUSH1 0xE5 SHL DUP2 MSTORE PUSH1 0x4 DUP2 ADD DUP6 SWAP1 MSTORE PUSH1 0xE PUSH1 0x24 DUP3 ADD MSTORE PUSH14 0x496E70757420746F6F206C6F6E67 PUSH1 0x90 SHL PUSH1 0x44 DUP3 ADD MSTORE PUSH1 0x64 SWAP1 REVERT JUMPDEST PUSH1 0x40 MLOAD PUSH3 0x461BCD PUSH1 0xE5 SHL DUP2 MSTORE PUSH1 0x4 DUP2 ADD DUP6 SWAP1 MSTORE PUSH1 0x15 PUSH1 0x24 DUP3 ADD MSTORE PUSH21 0x496E7075742063616E6E6F7420626520656D707479 PUSH1 0x58 SHL PUSH1 0x44 DUP3 ADD MSTORE PUSH1 0x64 SWAP1 REVERT JUMPDEST PUSH1 0x40 MLOAD PUSH3 0x461BCD PUSH1 0xE5 SHL DUP2 MSTORE PUSH1 0x4 DUP2 ADD DUP6 SWAP1 MSTORE PUSH1 0x19 PUSH1 0x24 DUP3 ADD MSTORE PUSH32 0x4D6178206461696C7920656E7472696573207265616368656400000000000000 PUSH1 0x44 DUP3 ADD MSTORE PUSH1 0x64 SWAP1 REVERT JUMPDEST PUSH1 0x40 MLOAD PUSH3 0x461BCD PUSH1 0xE5 SHL DUP2 MSTORE PUSH1 0x4 DUP2 ADD DUP5 SWAP1 MSTORE PUSH1 0x25 PUSH1 0x24 DUP3 ADD MSTORE PUSH32 0x496E73756666696369656E742042617365205365706F6C696120455448206261 PUSH1 0x44 DUP3 ADD MSTORE PUSH5 0x6C616E6365 PUSH1 0xD8 SHL PUSH1 0x64 DUP3 ADD MSTORE PUSH1 0x84 SWAP1 REVERT JUMPDEST PUSH1 0x40 MLOAD PUSH3 0x461BCD PUSH1 0xE5 SHL DUP2 MSTORE PUSH1 0x4 DUP2 ADD DUP5 SWAP1 MSTORE PUSH1 0x1C PUSH1 0x24 DUP3 ADD MSTORE PUSH32 0x537573706963696F757320616374697669747920646574656374656400000000 PUSH1 0x44 DUP3 ADD MSTORE PUSH1 0x64 SWAP1 REVERT JUMPDEST PUSH1 0x40 MLOAD PUSH3 0x461BCD PUSH1 0xE5 SHL DUP2 MSTORE PUSH1 0x4 DUP2 ADD DUP5 SWAP1 MSTORE PUSH1 0xF PUSH1 0x24 DUP3 ADD MSTORE PUSH15 0x125B9D985B1A590819D85B59481251 PUSH1 0x8A SHL PUSH1 0x44 DUP3 ADD MSTORE PUSH1 0x64 SWAP1 REVERT JUMPDEST PUSH1 0x40 MLOAD PUSH3 0x461BCD PUSH1 0xE5 SHL DUP2 MSTORE PUSH1 0x4 DUP2 ADD DUP5 SWAP1 MSTORE PUSH1 0x1B PUSH1 0x24 DUP3 ADD MSTORE PUSH32 0x536563757269747920636865636B20746F6F206672657175656E740000000000 PUSH1 0x44 DUP3 ADD MSTORE PUSH1 0x64 SWAP1 REVERT JUMPDEST DUP3 PUSH1 0x64 SWAP2 PUSH1 0x40 MLOAD SWAP2 PUSH3 0x461BCD PUSH1 0xE5 SHL DUP4 MSTORE PUSH1 0x4 DUP4 ADD MSTORE PUSH1 0x24 DUP3 ADD MSTORE PUSH32 0x52617465206C696D697420636F6F6C646F776E20616374697665000000000000 PUSH1 0x44 DUP3 ADD MSTORE REVERT JUMPDEST PUSH1 0x40 MLOAD PUSH3 0x461BCD PUSH1 0xE5 SHL DUP2 MSTORE PUSH1 0x4 DUP2 ADD DUP5 SWAP1 MSTORE PUSH1 0x13 PUSH1 0x24 DUP3 ADD MSTORE PUSH19 0x14985D19481B1A5B5A5D08195E18D959591959 PUSH1 0x6A SHL PUSH1 0x44 DUP3 ADD MSTORE PUSH1 0x64 SWAP1 REVERT JUMPDEST PUSH1 0x40 MLOAD PUSH3 0x461BCD PUSH1 0xE5 SHL DUP2 MSTORE PUSH1 0x4 DUP2 ADD DUP4 SWAP1 MSTORE PUSH1 0x14 PUSH1 0x24 DUP3 ADD MSTORE PUSH20 0x155CD95C881A5CC81C985D19481B1A5B5A5D1959 PUSH1 0x62 SHL PUSH1 0x44 DUP3 ADD MSTORE PUSH1 0x64 SWAP1 REVERT JUMPDEST POP CALLVALUE PUSH2 0x4CD JUMPI DUP1 PUSH1 0x3 NOT CALLDATASIZE ADD SLT PUSH2 0x4CD JUMPI PUSH1 0x20 PUSH1 0x12 SLOAD PUSH1 0x40 MLOAD SWAP1 DUP2 MSTORE RETURN JUMPDEST POP CALLVALUE PUSH2 0x4CD JUMPI DUP1 PUSH1 0x3 NOT CALLDATASIZE ADD SLT PUSH2 0x4CD JUMPI PUSH32 0xA49807205CE4D355092EF5A8A18F56E8913CF4A201FBE287825B095693C21775 DUP2 MSTORE PUSH1 0x20 SWAP1 PUSH1 0x18 DUP3 MSTORE PUSH1 0x40 DUP2 KECCAK256 CALLER DUP3 MSTORE DUP3 MSTORE PUSH1 0xFF SWAP2 PUSH1 0xFF PUSH1 0x40 DUP4 KECCAK256 SLOAD AND DUP1 ISZERO PUSH2 0x2F4A JUMPI JUMPDEST PUSH2 0x2E49 SWAP1 PUSH2 0x4ECA JUMP JUMPDEST PUSH1 0x26 SLOAD PUSH2 0xE10 DUP2 ADD DUP1 SWAP2 GT PUSH2 0x1930 JUMPI TIMESTAMP LT PUSH2 0x2F06 JUMPI DUP2 JUMPDEST PUSH1 0x64 DUP2 LT PUSH2 0x2EB1 JUMPI POP TIMESTAMP PUSH1 0x26 SSTORE PUSH1 0x25 SLOAD PUSH1 0x1 DUP2 ADD DUP1 SWAP2 GT PUSH2 0x1930 JUMPI PUSH32 0x1B9B06155F0DA9BCE83C4A8A54DCCA59CDF479249CEB43679C0BD7FA67B2F188 SWAP2 DUP2 PUSH1 0x40 SWAP3 PUSH1 0x25 SSTORE DUP3 MLOAD SWAP2 TIMESTAMP DUP4 MSTORE DUP3 ADD MSTORE LOG1 DUP1 RETURN JUMPDEST DUP1 PUSH1 0x1 SWAP2 NUMBER GT DUP1 PUSH2 0x2EE9 JUMPI JUMPDEST PUSH2 0x2EC8 JUMPI JUMPDEST ADD PUSH2 0x2E60 JUMP JUMPDEST PUSH2 0x2ED2 DUP2 NUMBER PUSH2 0x505B JUMP JUMPDEST DUP5 MSTORE PUSH1 0x24 DUP4 MSTORE PUSH1 0x40 DUP5 KECCAK256 DUP1 SLOAD PUSH1 0xFF NOT AND SWAP1 SSTORE PUSH2 0x2EC2 JUMP JUMPDEST POP PUSH2 0x2EF4 DUP2 NUMBER PUSH2 0x505B JUMP JUMPDEST DUP5 MSTORE PUSH1 0x24 DUP4 MSTORE DUP5 PUSH1 0x40 DUP6 KECCAK256 SLOAD AND PUSH2 0x2EBD JUMP JUMPDEST PUSH1 0x64 SWAP1 PUSH1 0x40 MLOAD SWAP1 PUSH3 0x461BCD PUSH1 0xE5 SHL DUP3 MSTORE PUSH1 0x4 DUP3 ADD MSTORE PUSH1 0x19 PUSH1 0x24 DUP3 ADD MSTORE PUSH32 0x4F7074696D697A6174696F6E20746F6F206672657175656E7400000000000000 PUSH1 0x44 DUP3 ADD MSTORE REVERT JUMPDEST POP PUSH1 0x1 SLOAD PUSH1 0x1 PUSH1 0x1 PUSH1 0xA0 SHL SUB AND CALLER EQ PUSH2 0x2E40 JUMP JUMPDEST POP CALLVALUE PUSH2 0x4CD JUMPI PUSH1 0x20 CALLDATASIZE PUSH1 0x3 NOT ADD SLT PUSH2 0x4CD JUMPI PUSH1 0x40 PUSH2 0x220 SWAP2 PUSH2 0x2F7E PUSH2 0x483E JUMP JUMPDEST DUP2 PUSH2 0x200 DUP5 MLOAD PUSH2 0x2F8D DUP2 PUSH2 0x48FB JUMP JUMPDEST DUP3 DUP2 MSTORE DUP3 PUSH1 0x20 DUP3 ADD MSTORE DUP3 DUP7 DUP3 ADD MSTORE DUP3 PUSH1 0x60 DUP3 ADD MSTORE DUP3 PUSH1 0x80 DUP3 ADD MSTORE DUP3 PUSH1 0xA0 DUP3 ADD MSTORE DUP3 PUSH1 0xC0 DUP3 ADD MSTORE DUP3 PUSH1 0xE0 DUP3 ADD MSTORE DUP3 PUSH2 0x100 DUP3 ADD MSTORE DUP3 PUSH2 0x120 DUP3 ADD MSTORE DUP3 PUSH2 0x140 DUP3 ADD MSTORE DUP3 PUSH2 0x160 DUP3 ADD MSTORE DUP3 PUSH2 0x180 DUP3 ADD MSTORE DUP3 PUSH2 0x1A0 DUP3 ADD MSTORE DUP3 PUSH2 0x1C0 DUP3 ADD MSTORE DUP3 PUSH2 0x1E0 DUP3 ADD MSTORE ADD MSTORE PUSH1 0x1 DUP1 PUSH1 0xA0 SHL SUB AND DUP2 MSTORE PUSH1 0x1A PUSH1 0x20 MSTORE KECCAK256 PUSH2 0x200 PUSH1 0x40 MLOAD PUSH2 0x3012 DUP2 PUSH2 0x48FB JUMP JUMPDEST PUSH1 0xFF PUSH1 0x10 DUP5 SLOAD SWAP5 DUP6 DUP5 MSTORE PUSH1 0x1 DUP2 ADD SLOAD PUSH1 0x20 DUP6 ADD MSTORE PUSH1 0x2 DUP2 ADD SLOAD PUSH1 0x40 DUP6 ADD MSTORE PUSH1 0x3 DUP2 ADD SLOAD PUSH1 0x60 DUP6 ADD MSTORE PUSH1 0x4 DUP2 ADD SLOAD PUSH1 0x80 DUP6 ADD MSTORE PUSH1 0x5 DUP2 ADD SLOAD PUSH1 0xA0 DUP6 ADD MSTORE DUP3 PUSH1 0x6 DUP3 ADD SLOAD AND ISZERO ISZERO PUSH1 0xC0 DUP6 ADD MSTORE PUSH1 0x7 DUP2 ADD SLOAD PUSH1 0xE0 DUP6 ADD MSTORE PUSH1 0x8 DUP2 ADD SLOAD PUSH2 0x100 DUP6 ADD MSTORE PUSH1 0x9 DUP2 ADD SLOAD PUSH2 0x120 DUP6 ADD MSTORE PUSH1 0xA DUP2 ADD SLOAD PUSH2 0x140 DUP6 ADD MSTORE PUSH1 0xB DUP2 ADD SLOAD PUSH2 0x160 DUP6 ADD MSTORE PUSH1 0xC DUP2 ADD SLOAD PUSH2 0x180 DUP6 ADD MSTORE DUP3 PUSH1 0xD DUP3 ADD SLOAD AND ISZERO ISZERO PUSH2 0x1A0 DUP6 ADD MSTORE PUSH1 0xE DUP2 ADD SLOAD PUSH2 0x1C0 DUP6 ADD MSTORE PUSH1 0xF DUP2 ADD SLOAD PUSH2 0x1E0 DUP6 ADD MSTORE ADD SLOAD AND ISZERO ISZERO DUP3 DUP3 ADD MSTORE PUSH1 0x40 MLOAD SWAP3 DUP4 MSTORE PUSH1 0x20 DUP2 ADD MLOAD PUSH1 0x20 DUP5 ADD MSTORE PUSH1 0x40 DUP2 ADD MLOAD PUSH1 0x40 DUP5 ADD MSTORE PUSH1 0x60 DUP2 ADD MLOAD PUSH1 0x60 DUP5 ADD MSTORE PUSH1 0x80 DUP2 ADD MLOAD PUSH1 0x80 DUP5 ADD MSTORE PUSH1 0xA0 DUP2 ADD MLOAD PUSH1 0xA0 DUP5 ADD MSTORE PUSH1 0xC0 DUP2 ADD MLOAD ISZERO ISZERO PUSH1 0xC0 DUP5 ADD MSTORE PUSH1 0xE0 DUP2 ADD MLOAD PUSH1 0xE0 DUP5 ADD MSTORE PUSH2 0x100 DUP2 ADD MLOAD PUSH2 0x100 DUP5 ADD MSTORE PUSH2 0x120 DUP2 ADD MLOAD PUSH2 0x120 DUP5 ADD MSTORE PUSH2 0x140 DUP2 ADD MLOAD PUSH2 0x140 DUP5 ADD MSTORE PUSH2 0x160 DUP2 ADD MLOAD PUSH2 0x160 DUP5 ADD MSTORE PUSH2 0x180 DUP2 ADD MLOAD PUSH2 0x180 DUP5 ADD MSTORE PUSH2 0x1A0 DUP2 ADD MLOAD ISZERO ISZERO PUSH2 0x1A0 DUP5 ADD MSTORE PUSH2 0x1C0 DUP2 ADD MLOAD PUSH2 0x1C0 DUP5 ADD MSTORE PUSH2 0x1E0 DUP2 ADD MLOAD PUSH2 0x1E0 DUP5 ADD MSTORE ADD MLOAD ISZERO ISZERO PUSH2 0x200 DUP3 ADD MSTORE RETURN JUMPDEST POP CALLVALUE PUSH2 0x4CD JUMPI DUP1 PUSH1 0x3 NOT CALLDATASIZE ADD SLT PUSH2 0x4CD JUMPI PUSH2 0x31A0 PUSH2 0x50DF JUMP JUMPDEST PUSH1 0x8 SLOAD PUSH3 0x93A80 DUP2 ADD DUP1 SWAP2 GT PUSH2 0x8ED JUMPI TIMESTAMP LT PUSH2 0x32C0 JUMPI PUSH1 0x40 MLOAD PUSH2 0x160 DUP2 ADD DUP2 DUP2 LT PUSH1 0x1 PUSH1 0x1 PUSH1 0x40 SHL SUB DUP3 GT OR PUSH2 0x32AC JUMPI PUSH1 0x40 MSTORE PUSH1 0xA DUP1 DUP3 MSTORE PUSH2 0x140 CALLDATASIZE PUSH1 0x20 DUP5 ADD CALLDATACOPY DUP3 JUMPDEST DUP2 DUP2 LT PUSH2 0x3297 JUMPI POP POP PUSH1 0xA PUSH1 0x6 SLOAD DIV DUP3 JUMPDEST DUP3 MLOAD DUP2 LT ISZERO PUSH2 0x3251 JUMPI PUSH1 0x1 SWAP1 DUP3 DUP6 PUSH1 0x1 PUSH1 0x1 PUSH1 0xA0 SHL SUB DUP1 PUSH2 0x3215 DUP6 DUP10 PUSH2 0x4F74 JUMP JUMPDEST MLOAD AND PUSH2 0x3225 JUMPI JUMPDEST POP POP POP ADD PUSH2 0x31F4 JUMP JUMPDEST DUP2 DUP1 PUSH2 0x3249 SWAP5 DUP2 SWAP4 PUSH2 0x3237 DUP9 DUP13 PUSH2 0x4F74 JUMP JUMPDEST MLOAD AND GAS CALL PUSH2 0x3243 PUSH2 0x4F88 JUMP JUMPDEST POP PUSH2 0x4FB8 JUMP JUMPDEST DUP3 DUP6 CODESIZE PUSH2 0x321C JUMP JUMPDEST DUP4 PUSH32 0x266EAB4E9078D52EC3F1266D5B3619A11040584EF2997FDEA8AFA3C03FA55977 DUP5 PUSH1 0x4 SLOAD PUSH2 0x3289 PUSH1 0x6 SLOAD PUSH1 0x40 MLOAD SWAP4 DUP5 SWAP4 DUP5 PUSH2 0x5039 JUMP JUMPDEST SUB SWAP1 LOG1 DUP1 PUSH1 0x6 SSTORE TIMESTAMP PUSH1 0x8 SSTORE DUP1 RETURN JUMPDEST DUP1 DUP5 PUSH2 0x32A5 PUSH1 0x1 SWAP4 DUP7 PUSH2 0x4F74 JUMP JUMPDEST MSTORE ADD PUSH2 0x31E3 JUMP JUMPDEST PUSH4 0x4E487B71 PUSH1 0xE0 SHL DUP4 MSTORE PUSH1 0x41 PUSH1 0x4 MSTORE PUSH1 0x24 DUP4 REVERT JUMPDEST PUSH1 0x40 MLOAD PUSH3 0x461BCD PUSH1 0xE5 SHL DUP2 MSTORE PUSH1 0x20 PUSH1 0x4 DUP3 ADD MSTORE PUSH1 0x15 PUSH1 0x24 DUP3 ADD MSTORE PUSH21 0x5765656B6C792064726177206E6F74207265616479 PUSH1 0x58 SHL PUSH1 0x44 DUP3 ADD MSTORE PUSH1 0x64 SWAP1 REVERT JUMPDEST POP CALLVALUE PUSH2 0x4CD JUMPI PUSH1 0x20 CALLDATASIZE PUSH1 0x3 NOT ADD SLT PUSH2 0x4CD JUMPI PUSH1 0x40 SWAP1 PUSH1 0x4 CALLDATALOAD DUP2 MSTORE PUSH1 0x1F PUSH1 0x20 MSTORE KECCAK256 DUP1 SLOAD PUSH1 0x40 MLOAD SWAP2 PUSH2 0x333B DUP4 PUSH2 0x3334 DUP2 PUSH1 0x1 DUP6 ADD PUSH2 0x4AEB JUMP JUMPDEST SUB DUP5 PUSH2 0x49CE JUMP JUMPDEST PUSH1 0x2 DUP2 ADD SLOAD SWAP1 PUSH1 0xFF PUSH1 0x4 PUSH1 0x3 DUP4 ADD SLOAD SWAP3 ADD SLOAD AND SWAP1 PUSH2 0x336B PUSH1 0x40 MLOAD SWAP6 DUP7 SWAP6 DUP7 MSTORE PUSH1 0xA0 PUSH1 0x20 DUP8 ADD MSTORE PUSH1 0xA0 DUP7 ADD SWAP1 PUSH2 0x4BA8 JUMP JUMPDEST SWAP3 PUSH1 0x40 DUP6 ADD MSTORE PUSH1 0x60 DUP5 ADD MSTORE ISZERO ISZERO PUSH1 0x80 DUP4 ADD MSTORE SUB SWAP1 RETURN JUMPDEST POP CALLVALUE PUSH2 0x4CD JUMPI PUSH2 0x3390 CALLDATASIZE PUSH2 0x486A JUMP JUMPDEST SWAP2 SWAP1 DUP2 MSTORE PUSH1 0xA PUSH1 0x20 MSTORE PUSH1 0x40 DUP2 KECCAK256 SWAP1 DUP2 SLOAD DUP4 LT ISZERO PUSH2 0x4CD JUMPI PUSH1 0x20 PUSH2 0x1DBA DUP5 DUP5 PUSH2 0x4880 JUMP JUMPDEST POP CALLVALUE PUSH2 0x4CD JUMPI PUSH1 0x40 CALLDATASIZE PUSH1 0x3 NOT ADD SLT PUSH2 0x4CD JUMPI PUSH2 0x33CD PUSH2 0x483E JUMP JUMPDEST PUSH1 0x24 CALLDATALOAD SWAP1 DUP2 ISZERO ISZERO SWAP1 DUP2 DUP4 SUB PUSH2 0x1C1D JUMPI PUSH32 0x7C6A5677E7A854A53D06C412E00EBE65535F5343566CA7939AC7C7F6B0B00C16 SWAP2 PUSH2 0x3449 PUSH1 0x20 SWAP3 PUSH2 0x340C PUSH2 0x50DF JUMP JUMPDEST PUSH1 0x1 PUSH1 0x1 PUSH1 0xA0 SHL SUB AND DUP1 DUP8 MSTORE PUSH1 0x1E DUP5 MSTORE PUSH1 0x40 DUP1 DUP9 KECCAK256 DUP1 SLOAD SWAP8 ISZERO ISZERO PUSH1 0xFF AND PUSH1 0xFF NOT SWAP9 DUP10 AND DUP2 OR SWAP1 SWAP2 SSTORE PUSH1 0x1A DUP7 MSTORE SWAP1 DUP9 KECCAK256 PUSH1 0x6 ADD DUP1 SLOAD SWAP1 SWAP8 AND OR SWAP1 SWAP6 SSTORE JUMP JUMPDEST PUSH1 0x40 MLOAD SWAP1 DUP2 MSTORE LOG2 DUP1 RETURN JUMPDEST POP CALLVALUE PUSH2 0x4CD JUMPI DUP1 PUSH1 0x3 NOT CALLDATASIZE ADD SLT PUSH2 0x4CD JUMPI PUSH1 0x2 SLOAD PUSH1 0x40 MLOAD PUSH1 0x1 PUSH1 0x1 PUSH1 0xA0 SHL SUB SWAP1 SWAP2 AND DUP2 MSTORE PUSH1 0x20 SWAP1 RETURN JUMPDEST POP CALLVALUE PUSH2 0x4CD JUMPI DUP1 PUSH1 0x3 NOT CALLDATASIZE ADD SLT PUSH2 0x4CD JUMPI PUSH2 0x3495 PUSH2 0x50DF JUMP JUMPDEST PUSH1 0x4 SLOAD DUP2 MSTORE PUSH1 0x20 PUSH1 0x1D DUP2 MSTORE PUSH1 0x40 DUP3 KECCAK256 PUSH1 0x6 DUP2 ADD SWAP1 PUSH1 0xFF DUP3 SLOAD AND PUSH2 0x363D JUMPI PUSH1 0x2 DUP2 ADD SLOAD TIMESTAMP LT PUSH2 0x3604 JUMPI PUSH2 0x34CA PUSH1 0x3 DUP3 ADD SLOAD PUSH2 0x52A6 JUMP JUMPDEST SWAP1 PUSH1 0x5 SLOAD PUSH1 0x3 SHR SWAP3 DUP6 JUMPDEST DUP4 MLOAD DUP2 LT ISZERO PUSH2 0x351F JUMPI PUSH1 0x1 SWAP1 DUP6 DUP9 PUSH1 0x1 PUSH1 0x1 PUSH1 0xA0 SHL SUB DUP1 PUSH2 0x34F5 DUP6 DUP11 PUSH2 0x4F74 JUMP JUMPDEST MLOAD AND PUSH2 0x3505 JUMPI JUMPDEST POP POP POP ADD PUSH2 0x34D4 JUMP JUMPDEST DUP2 DUP1 PUSH2 0x3517 SWAP5 DUP2 SWAP4 PUSH2 0x3237 DUP9 DUP14 PUSH2 0x4F74 JUMP JUMPDEST DUP6 DUP9 CODESIZE PUSH2 0x34FC JUMP JUMPDEST POP DUP3 MLOAD DUP7 SWAP5 POP PUSH1 0x5 DUP4 ADD DUP7 PUSH1 0x1 PUSH1 0x1 PUSH1 0x40 SHL SUB DUP4 GT PUSH2 0x35F0 JUMPI PUSH1 0x1 PUSH1 0x40 SHL DUP4 GT PUSH2 0x35F0 JUMPI DUP2 SLOAD DUP4 DUP4 SSTORE DUP1 DUP5 LT PUSH2 0x35CB JUMPI JUMPDEST POP DUP1 DUP7 ADD SWAP2 DUP8 MSTORE DUP1 DUP8 KECCAK256 SWAP1 DUP8 JUMPDEST DUP5 DUP2 LT PUSH2 0x35B0 JUMPI DUP6 SLOAD PUSH1 0xFF NOT AND PUSH1 0x1 OR DUP7 SSTORE PUSH1 0x5 SLOAD PUSH1 0x4 DUP9 DUP2 ADD DUP3 SWAP1 SSTORE SLOAD PUSH1 0x40 MLOAD DUP12 SWAP3 PUSH32 0xDD1C72FCDA97FCFC2FE124C4AA194986CACA752D3769C00A6495659509D7B19B SWAP3 DUP3 SWAP2 PUSH2 0x8DF SWAP2 DUP15 SWAP1 DUP5 PUSH2 0x5039 JUMP JUMPDEST DUP4 MLOAD PUSH1 0x1 PUSH1 0x1 PUSH1 0xA0 SHL SUB AND DUP4 DUP3 ADD SSTORE SWAP3 DUP2 ADD SWAP3 PUSH1 0x1 ADD PUSH2 0x355D JUMP JUMPDEST DUP3 DUP9 MSTORE DUP4 DUP3 DUP10 KECCAK256 SWAP2 DUP3 ADD SWAP2 ADD JUMPDEST DUP2 DUP2 LT PUSH2 0x35E5 JUMPI POP PUSH2 0x3550 JUMP JUMPDEST DUP9 DUP2 SSTORE PUSH1 0x1 ADD PUSH2 0x35D8 JUMP JUMPDEST PUSH4 0x4E487B71 PUSH1 0xE0 SHL DUP8 MSTORE PUSH1 0x41 PUSH1 0x4 MSTORE PUSH1 0x24 DUP8 REVERT JUMPDEST PUSH1 0x40 MLOAD PUSH3 0x461BCD PUSH1 0xE5 SHL DUP2 MSTORE PUSH1 0x4 DUP2 ADD DUP5 SWAP1 MSTORE PUSH1 0x11 PUSH1 0x24 DUP3 ADD MSTORE PUSH17 0x11D85B59481B9BDD08199A5B9A5CDA1959 PUSH1 0x7A SHL PUSH1 0x44 DUP3 ADD MSTORE PUSH1 0x64 SWAP1 REVERT JUMPDEST PUSH1 0x40 MLOAD PUSH3 0x461BCD PUSH1 0xE5 SHL DUP2 MSTORE PUSH1 0x4 DUP2 ADD DUP5 SWAP1 MSTORE PUSH1 0x16 PUSH1 0x24 DUP3 ADD MSTORE PUSH22 0x11D85B5948185B1C9958591E4818DBDB5C1B195D1959 PUSH1 0x52 SHL PUSH1 0x44 DUP3 ADD MSTORE PUSH1 0x64 SWAP1 REVERT JUMPDEST POP CALLVALUE PUSH2 0x4CD JUMPI PUSH1 0x20 CALLDATASIZE PUSH1 0x3 NOT ADD SLT PUSH2 0x4CD JUMPI PUSH1 0x60 SWAP1 PUSH1 0x5 SLOAD SWAP1 PUSH1 0x4 CALLDATALOAD DUP2 MSTORE PUSH1 0x15 PUSH1 0x20 MSTORE PUSH1 0x40 DUP1 DUP3 KECCAK256 SLOAD SWAP2 PUSH1 0x14 PUSH1 0x20 MSTORE KECCAK256 SLOAD SWAP1 PUSH1 0x40 MLOAD SWAP3 DUP4 MSTORE PUSH1 0x20 DUP4 ADD MSTORE PUSH1 0x40 DUP3 ADD MSTORE RETURN JUMPDEST POP CALLVALUE PUSH2 0x4CD JUMPI DUP1 PUSH1 0x3 NOT CALLDATASIZE ADD SLT PUSH2 0x4CD JUMPI PUSH1 0x20 PUSH1 0x6 SLOAD PUSH1 0x40 MLOAD SWAP1 DUP2 MSTORE RETURN JUMPDEST POP CALLVALUE PUSH2 0x4CD JUMPI PUSH1 0x40 CALLDATASIZE PUSH1 0x3 NOT ADD SLT PUSH2 0x4CD JUMPI PUSH1 0x4 CALLDATALOAD PUSH1 0x1 PUSH1 0x1 PUSH1 0x40 SHL SUB DUP1 DUP3 GT PUSH2 0x2219 JUMPI CALLDATASIZE PUSH1 0x23 DUP4 ADD SLT ISZERO PUSH2 0x2219 JUMPI DUP2 PUSH1 0x4 ADD CALLDATALOAD PUSH2 0x371A DUP2 PUSH2 0x4AB1 JUMP JUMPDEST SWAP3 PUSH2 0x3728 PUSH1 0x40 MLOAD SWAP5 DUP6 PUSH2 0x49CE JUMP JUMPDEST DUP2 DUP5 MSTORE PUSH1 0x24 PUSH1 0x20 DUP6 ADD SWAP3 PUSH1 0x5 SHL DUP3 ADD ADD SWAP1 CALLDATASIZE DUP3 GT PUSH2 0x3A86 JUMPI PUSH1 0x24 ADD SWAP2 JUMPDEST DUP2 DUP4 LT PUSH2 0x3A8A JUMPI POP POP POP PUSH1 0x24 CALLDATALOAD SWAP1 DUP2 GT PUSH2 0x2219 JUMPI CALLDATASIZE PUSH1 0x23 DUP3 ADD SLT ISZERO PUSH2 0x2219 JUMPI DUP1 PUSH1 0x4 ADD CALLDATALOAD SWAP1 PUSH2 0x3773 DUP3 PUSH2 0x4AB1 JUMP JUMPDEST SWAP2 PUSH2 0x3781 PUSH1 0x40 MLOAD SWAP4 DUP5 PUSH2 0x49CE JUMP JUMPDEST DUP1 DUP4 MSTORE PUSH1 0x24 PUSH1 0x20 DUP5 ADD SWAP2 PUSH1 0x5 SHL DUP4 ADD ADD SWAP2 CALLDATASIZE DUP4 GT PUSH2 0x3A86 JUMPI PUSH1 0x24 ADD SWAP1 JUMPDEST DUP3 DUP3 LT PUSH2 0x3A76 JUMPI POP POP POP PUSH1 0x0 DUP1 MLOAD PUSH1 0x20 PUSH2 0x5B71 DUP4 CODECOPY DUP2 MLOAD SWAP2 MSTORE DUP4 MSTORE PUSH1 0x18 PUSH1 0x20 MSTORE PUSH1 0x40 DUP4 KECCAK256 CALLER DUP5 MSTORE PUSH1 0x20 MSTORE PUSH1 0xFF PUSH1 0x40 DUP5 KECCAK256 SLOAD AND DUP1 ISZERO PUSH2 0x3A62 JUMPI JUMPDEST PUSH2 0x37E0 SWAP1 PUSH2 0x4ECA JUMP JUMPDEST PUSH2 0x37E8 PUSH2 0x510B JUMP JUMPDEST DUP2 MLOAD DUP2 MLOAD SUB PUSH2 0x3A25 JUMPI PUSH1 0xA DUP3 MLOAD GT PUSH2 0x39E9 JUMPI NUMBER DUP4 MSTORE PUSH1 0x24 PUSH1 0x20 MSTORE PUSH1 0xFF PUSH1 0x40 DUP5 KECCAK256 SLOAD AND PUSH2 0x39A4 JUMPI NUMBER DUP4 MSTORE PUSH1 0x24 PUSH1 0x20 MSTORE PUSH1 0x40 DUP4 KECCAK256 PUSH1 0x1 PUSH1 0xFF NOT DUP3 SLOAD AND OR SWAP1 SSTORE PUSH1 0x23 PUSH1 0x20 MSTORE PUSH1 0x40 DUP4 KECCAK256 SLOAD PUSH1 0x1 DUP2 ADD DUP1 SWAP2 GT PUSH2 0xEC9 JUMPI NUMBER DUP5 MSTORE PUSH1 0x23 PUSH1 0x20 MSTORE PUSH1 0x40 DUP5 KECCAK256 SSTORE DUP3 SWAP1 DUP4 JUMPDEST DUP4 MLOAD DUP2 LT ISZERO PUSH2 0x3958 JUMPI PUSH1 0x1 PUSH1 0x1 PUSH1 0xA0 SHL SUB DUP1 PUSH2 0x3867 DUP4 DUP8 PUSH2 0x4F74 JUMP JUMPDEST MLOAD AND ISZERO ISZERO DUP1 PUSH2 0x3945 JUMPI JUMPDEST PUSH2 0x387F JUMPI JUMPDEST POP PUSH1 0x1 ADD PUSH2 0x384B JUMP JUMPDEST PUSH2 0x388C DUP3 DUP7 SWAP6 SWAP4 SWAP6 PUSH2 0x4F74 JUMP JUMPDEST MLOAD AND PUSH2 0x3898 DUP5 DUP5 PUSH2 0x4F74 JUMP JUMPDEST MLOAD SWAP1 DUP1 DUP8 MSTORE PUSH1 0x1A PUSH1 0x20 MSTORE PUSH1 0x1 PUSH1 0x40 DUP9 KECCAK256 PUSH2 0x38B3 DUP5 DUP3 SLOAD PUSH2 0x4D47 JUMP JUMPDEST DUP2 SSTORE TIMESTAMP PUSH1 0x3 DUP3 ADD SSTORE ADD DUP1 SLOAD SWAP1 PUSH1 0x1 DUP3 ADD DUP1 SWAP3 GT PUSH2 0x3931 JUMPI SSTORE PUSH1 0x4 SLOAD DUP8 MSTORE PUSH1 0xA PUSH1 0x20 MSTORE PUSH1 0x40 DUP8 KECCAK256 PUSH2 0x38E3 SWAP2 SWAP1 PUSH2 0x4D0C JUMP JUMPDEST PUSH1 0x4 SLOAD DUP1 DUP8 MSTORE PUSH1 0xB PUSH1 0x20 MSTORE PUSH1 0x40 DUP8 KECCAK256 SLOAD SWAP1 PUSH1 0x1 DUP3 ADD DUP3 GT PUSH2 0x29B4 JUMPI PUSH2 0x391B SWAP3 SWAP2 PUSH1 0x1 SWAP2 DUP10 MSTORE PUSH1 0xB PUSH1 0x20 MSTORE ADD PUSH1 0x40 DUP9 KECCAK256 SSTORE PUSH1 0x5 SLOAD PUSH2 0x4D47 JUMP JUMPDEST PUSH1 0x5 SSTORE PUSH1 0x1 DUP2 ADD DUP1 SWAP2 GT PUSH2 0x133D JUMPI SWAP2 PUSH1 0x1 PUSH2 0x3876 JUMP JUMPDEST PUSH4 0x4E487B71 PUSH1 0xE0 SHL DUP10 MSTORE PUSH1 0x11 PUSH1 0x4 MSTORE PUSH1 0x24 DUP10 REVERT JUMPDEST POP PUSH2 0x3950 DUP3 DUP5 PUSH2 0x4F74 JUMP JUMPDEST MLOAD ISZERO ISZERO PUSH2 0x3871 JUMP JUMPDEST POP POP SWAP1 NUMBER DUP4 MSTORE PUSH1 0x24 PUSH1 0x20 MSTORE PUSH1 0x40 DUP4 KECCAK256 PUSH1 0xFF NOT DUP2 SLOAD AND SWAP1 SSTORE MLOAD PUSH1 0x40 MLOAD SWAP2 DUP3 MSTORE PUSH1 0x20 DUP3 ADD MSTORE PUSH32 0xC8A16388AF0851BDC51694269F90C12AF519CFBD71E7AB51D304B3BE25D11184 PUSH1 0x40 NUMBER SWAP3 LOG2 DUP1 RETURN JUMPDEST PUSH1 0x40 MLOAD PUSH3 0x461BCD PUSH1 0xE5 SHL DUP2 MSTORE PUSH1 0x20 PUSH1 0x4 DUP3 ADD MSTORE PUSH1 0x1F PUSH1 0x24 DUP3 ADD MSTORE PUSH32 0x42617463682070726F63657373696E6720616C72656164792061637469766500 PUSH1 0x44 DUP3 ADD MSTORE PUSH1 0x64 SWAP1 REVERT JUMPDEST PUSH1 0x40 MLOAD PUSH3 0x461BCD PUSH1 0xE5 SHL DUP2 MSTORE PUSH1 0x20 PUSH1 0x4 DUP3 ADD MSTORE PUSH1 0x14 PUSH1 0x24 DUP3 ADD MSTORE PUSH20 0x42617463682073697A6520746F6F206C61726765 PUSH1 0x60 SHL PUSH1 0x44 DUP3 ADD MSTORE PUSH1 0x64 SWAP1 REVERT JUMPDEST PUSH1 0x40 MLOAD PUSH3 0x461BCD PUSH1 0xE5 SHL DUP2 MSTORE PUSH1 0x20 PUSH1 0x4 DUP3 ADD MSTORE PUSH1 0x15 PUSH1 0x24 DUP3 ADD MSTORE PUSH21 0x82E4E4C2F240D8CADCCEE8D040DAD2E6DAC2E8C6D PUSH1 0x5B SHL PUSH1 0x44 DUP3 ADD MSTORE PUSH1 0x64 SWAP1 REVERT JUMPDEST POP PUSH1 0x1 SLOAD PUSH1 0x1 PUSH1 0x1 PUSH1 0xA0 SHL SUB AND CALLER EQ PUSH2 0x37D7 JUMP JUMPDEST DUP2 CALLDATALOAD DUP2 MSTORE PUSH1 0x20 SWAP2 DUP3 ADD SWAP2 ADD PUSH2 0x379E JUMP JUMPDEST DUP6 DUP1 REVERT JUMPDEST DUP3 CALLDATALOAD PUSH1 0x1 PUSH1 0x1 PUSH1 0xA0 SHL SUB DUP2 AND DUP2 SUB PUSH2 0x3AAA JUMPI DUP2 MSTORE PUSH1 0x20 SWAP3 DUP4 ADD SWAP3 ADD PUSH2 0x3745 JUMP JUMPDEST DUP7 DUP1 REVERT JUMPDEST POP CALLVALUE PUSH2 0x4CD JUMPI PUSH1 0x20 CALLDATASIZE PUSH1 0x3 NOT ADD SLT PUSH2 0x4CD JUMPI PUSH1 0x20 SWAP1 PUSH1 0x40 SWAP1 PUSH1 0x1 PUSH1 0x1 PUSH1 0xA0 SHL SUB PUSH2 0x3AD6 PUSH2 0x483E JUMP JUMPDEST AND DUP2 MSTORE DUP3 DUP1 MSTORE KECCAK256 SLOAD PUSH1 0x40 MLOAD SWAP1 DUP2 MSTORE RETURN JUMPDEST POP CALLVALUE PUSH2 0x4CD JUMPI PUSH1 0x40 CALLDATASIZE PUSH1 0x3 NOT ADD SLT PUSH2 0x4CD JUMPI PUSH1 0x4 CALLDATALOAD PUSH2 0x3B03 PUSH2 0x4854 JUMP JUMPDEST DUP2 DUP4 MSTORE PUSH1 0x19 PUSH1 0x20 MSTORE PUSH1 0x40 DUP4 KECCAK256 SLOAD PUSH1 0x1 PUSH1 0x1 PUSH1 0xA0 SHL SUB SWAP2 SWAP1 DUP3 AND CALLER EQ DUP1 ISZERO PUSH2 0x3B84 JUMPI JUMPDEST PUSH2 0x3B2E SWAP1 PUSH2 0x4E30 JUMP JUMPDEST AND PUSH2 0x3B3A DUP2 ISZERO ISZERO PUSH2 0x4E8C JUMP JUMPDEST DUP2 DUP4 MSTORE PUSH1 0x18 PUSH1 0x20 MSTORE PUSH1 0x40 DUP4 KECCAK256 DUP2 DUP5 MSTORE PUSH1 0x20 MSTORE PUSH1 0x40 DUP4 KECCAK256 PUSH1 0x1 PUSH1 0xFF NOT DUP3 SLOAD AND OR SWAP1 SSTORE CALLER SWAP2 PUSH32 0x2F8788117E7EFF1D82E926EC794901D17C78024A50270940304540A733656F0D DUP5 DUP1 LOG4 DUP1 RETURN JUMPDEST POP PUSH1 0x1 SLOAD DUP3 AND CALLER EQ PUSH2 0x3B25 JUMP JUMPDEST POP CALLVALUE PUSH2 0x4CD JUMPI DUP1 PUSH1 0x3 NOT CALLDATASIZE ADD SLT PUSH2 0x4CD JUMPI PUSH1 0x20 PUSH1 0x11 SLOAD PUSH1 0x40 MLOAD SWAP1 DUP2 MSTORE RETURN JUMPDEST POP CALLVALUE PUSH2 0x4CD JUMPI DUP1 PUSH1 0x3 NOT CALLDATASIZE ADD SLT PUSH2 0x4CD JUMPI PUSH2 0x3BC8 PUSH2 0x5189 JUMP JUMPDEST PUSH2 0x3BD0 PUSH2 0x510B JUMP JUMPDEST CALLER DUP2 MSTORE PUSH1 0x20 PUSH1 0x1E DUP2 MSTORE PUSH1 0xFF PUSH2 0x3BEC PUSH1 0xFF PUSH1 0x40 DUP6 KECCAK256 SLOAD AND ISZERO PUSH2 0x4D54 JUMP JUMPDEST CALLER DUP4 MSTORE PUSH1 0x1A DUP3 MSTORE PUSH2 0x3C07 PUSH1 0xFF PUSH1 0x6 PUSH1 0x40 DUP7 KECCAK256 ADD SLOAD AND ISZERO PUSH2 0x4D54 JUMP JUMPDEST CALLER DUP4 MSTORE PUSH1 0x1C DUP3 MSTORE PUSH1 0x40 DUP4 KECCAK256 SLOAD PUSH1 0x1 PUSH1 0x1 PUSH1 0xA0 SHL SUB SWAP1 DUP2 AND PUSH2 0x3DEF JUMPI DUP3 PUSH1 0x40 MLOAD PUSH2 0x3C2F DUP2 PUSH2 0x4946 JUMP JUMPDEST PUSH1 0x14 DUP1 DUP3 MSTORE DUP3 DUP3 ADD SWAP5 DUP4 CALLDATASIZE DUP8 CALLDATACOPY DUP8 JUMPDEST DUP3 DUP2 LT PUSH2 0x3D79 JUMPI POP POP POP PUSH2 0x3D6F SWAP3 PUSH1 0x3 PUSH2 0x3CDF PUSH32 0x9ABA81A9970F49ADFCB9191B4663D4A18A3A6236FBBEF5E36C5478A55FD4A03A SWAP7 SWAP5 PUSH2 0x3D5C SWAP5 PUSH2 0x3CCE PUSH1 0x25 PUSH2 0x3C86 TIMESTAMP PUSH2 0x58EF JUMP JUMPDEST SWAP9 PUSH1 0x40 MLOAD SWAP10 DUP11 SWAP2 PUSH2 0x3CAB DUP8 DUP5 ADD SWAP7 PUSH5 0x50495A5A41 PUSH1 0xD8 SHL DUP9 MSTORE MLOAD DUP1 SWAP3 DUP7 DUP7 ADD SWAP1 PUSH2 0x4A72 JUMP JUMPDEST DUP3 ADD PUSH2 0x3CBF DUP3 MLOAD DUP1 SWAP4 DUP10 DUP8 DUP6 ADD SWAP2 ADD PUSH2 0x4A72 JUMP JUMPDEST ADD SUB PUSH1 0x5 DUP2 ADD DUP11 MSTORE ADD DUP9 PUSH2 0x49CE JUMP JUMPDEST PUSH1 0x40 MLOAD DUP1 SWAP4 DUP2 SWAP3 DUP10 MLOAD SWAP3 DUP4 SWAP2 PUSH2 0x4A72 JUMP JUMPDEST DUP2 ADD PUSH1 0x1B DUP2 MSTORE SUB ADD SWAP1 KECCAK256 SWAP2 PUSH1 0x1 PUSH1 0x1 PUSH1 0x60 SHL SUB PUSH1 0xA0 SHL SWAP3 CALLER DUP5 DUP3 SLOAD AND OR SWAP1 SSTORE PUSH1 0x40 MLOAD SWAP3 PUSH2 0x3D0B DUP5 PUSH2 0x48CA JUMP JUMPDEST CALLER DUP5 MSTORE DUP9 DUP5 ADD DUP11 DUP2 MSTORE PUSH1 0x40 DUP6 ADD SWAP2 DUP12 DUP4 MSTORE PUSH1 0x60 DUP7 ADD SWAP4 PUSH1 0x1 DUP6 MSTORE CALLER DUP14 MSTORE PUSH1 0x1C DUP13 MSTORE PUSH1 0x40 DUP14 KECCAK256 SWAP7 MLOAD AND SWAP1 DUP7 SLOAD AND OR DUP6 SSTORE MLOAD PUSH1 0x1 DUP6 ADD SSTORE MLOAD PUSH1 0x2 DUP5 ADD SSTORE MLOAD ISZERO ISZERO SWAP2 ADD SWAP1 PUSH1 0xFF DUP1 NOT DUP4 SLOAD AND SWAP2 ISZERO ISZERO AND OR SWAP1 SSTORE JUMP JUMPDEST PUSH1 0x40 MLOAD SWAP2 DUP3 SWAP2 DUP6 DUP4 MSTORE CALLER SWAP6 DUP4 ADD SWAP1 PUSH2 0x4BA8 JUMP JUMPDEST SUB SWAP1 LOG2 PUSH1 0x1 DUP2 SSTORE DUP1 RETURN JUMPDEST SWAP1 SWAP2 SWAP3 SWAP4 POP PUSH1 0x13 DUP2 DUP2 SUB SWAP1 DUP2 GT PUSH2 0x3931 JUMPI PUSH1 0x3 DUP2 SWAP1 SHL SWAP1 PUSH1 0x1 PUSH1 0x1 PUSH1 0xFD SHL SUB DUP2 AND SUB PUSH2 0x3931 JUMPI DUP3 DUP2 GT PUSH2 0x3931 JUMPI PUSH1 0x1 DUP2 SHL ISZERO PUSH2 0x3DDB JUMPI PUSH1 0x1 SWAP2 SWAP1 CALLER SWAP1 SHR PUSH1 0xF8 SHL PUSH1 0x1 PUSH1 0x1 PUSH1 0xF8 SHL SUB NOT AND DUP10 BYTE PUSH2 0x3DCF DUP3 DUP8 PUSH2 0x560C JUMP JUMPDEST MSTORE8 ADD SWAP1 DUP7 SWAP4 SWAP3 SWAP2 PUSH2 0x3C3E JUMP JUMPDEST PUSH4 0x4E487B71 PUSH1 0xE0 SHL DUP10 MSTORE PUSH1 0x12 PUSH1 0x4 MSTORE PUSH1 0x24 DUP10 REVERT JUMPDEST PUSH1 0x40 MLOAD PUSH3 0x461BCD PUSH1 0xE5 SHL DUP2 MSTORE PUSH1 0x4 DUP2 ADD DUP5 SWAP1 MSTORE PUSH1 0x1C PUSH1 0x24 DUP3 ADD MSTORE PUSH32 0x526566657272616C20636F646520616C72656164792065786973747300000000 PUSH1 0x44 DUP3 ADD MSTORE PUSH1 0x64 SWAP1 REVERT JUMPDEST POP CALLVALUE PUSH2 0x4CD JUMPI PUSH1 0x20 CALLDATASIZE PUSH1 0x3 NOT ADD SLT PUSH2 0x4CD JUMPI PUSH1 0xFF PUSH1 0x40 PUSH1 0x20 SWAP3 PUSH1 0x4 CALLDATALOAD DUP2 MSTORE PUSH1 0x13 DUP5 MSTORE KECCAK256 SLOAD AND PUSH1 0x40 MLOAD SWAP1 ISZERO ISZERO DUP2 MSTORE RETURN JUMPDEST POP CALLVALUE PUSH2 0x4CD JUMPI DUP1 PUSH1 0x3 NOT CALLDATASIZE ADD SLT PUSH2 0x4CD JUMPI PUSH1 0x20 PUSH1 0x26 SLOAD PUSH1 0x40 MLOAD SWAP1 DUP2 MSTORE RETURN JUMPDEST POP CALLVALUE PUSH2 0x4CD JUMPI PUSH1 0x20 PUSH2 0x3E92 CALLDATASIZE PUSH2 0x4A0A JUMP JUMPDEST DUP2 PUSH2 0x3EA6 PUSH1 0x40 MLOAD SWAP3 DUP4 DUP2 MLOAD SWAP4 DUP5 SWAP3 ADD PUSH2 0x4A72 JUMP JUMPDEST PUSH1 0x1B SWAP1 DUP3 ADD SWAP1 DUP2 MSTORE DUP2 SWAP1 SUB DUP3 ADD SWAP1 KECCAK256 SLOAD PUSH1 0x40 MLOAD PUSH1 0x1 PUSH1 0x1 PUSH1 0xA0 SHL SUB SWAP1 SWAP2 AND DUP2 MSTORE RETURN JUMPDEST POP CALLVALUE PUSH2 0x4CD JUMPI DUP1 PUSH1 0x3 NOT CALLDATASIZE ADD SLT PUSH2 0x4CD JUMPI PUSH1 0x3 SLOAD PUSH1 0x40 MLOAD PUSH1 0x1 PUSH1 0x1 PUSH1 0xA0 SHL SUB SWAP1 SWAP2 AND DUP2 MSTORE PUSH1 0x20 SWAP1 RETURN JUMPDEST POP CALLVALUE PUSH2 0x4CD JUMPI PUSH1 0x20 DUP1 PUSH1 0x3 NOT CALLDATASIZE ADD SLT PUSH2 0x1F41 JUMPI PUSH1 0x4 CALLDATALOAD PUSH2 0x3F0F PUSH2 0x5189 JUMP JUMPDEST PUSH2 0x3F17 PUSH2 0x510B JUMP JUMPDEST CALLER DUP4 MSTORE PUSH1 0x1E DUP3 MSTORE PUSH2 0x3F2F PUSH1 0xFF PUSH1 0x40 DUP6 KECCAK256 SLOAD AND ISZERO PUSH2 0x4D54 JUMP JUMPDEST CALLER DUP4 MSTORE PUSH1 0x1A SWAP2 DUP3 DUP2 MSTORE PUSH2 0x3F4C PUSH1 0xFF PUSH1 0x6 PUSH1 0x40 DUP8 KECCAK256 ADD SLOAD AND ISZERO PUSH2 0x4D54 JUMP JUMPDEST CALLER DUP5 MSTORE DUP3 DUP2 MSTORE PUSH1 0xC PUSH1 0x40 DUP6 KECCAK256 ADD SLOAD PUSH3 0x15180 DUP2 ADD DUP1 SWAP2 GT PUSH2 0x133D JUMPI PUSH2 0x3F73 SWAP1 TIMESTAMP LT ISZERO PUSH2 0x4D98 JUMP JUMPDEST CALLER DUP5 MSTORE DUP3 DUP2 MSTORE PUSH2 0x3F8C PUSH1 0x64 PUSH1 0xE PUSH1 0x40 DUP8 KECCAK256 ADD SLOAD LT PUSH2 0x4DE4 JUMP JUMPDEST DUP2 DUP5 MSTORE PUSH1 0x1F DUP2 MSTORE PUSH1 0x40 DUP5 KECCAK256 SWAP3 PUSH1 0xFF PUSH1 0x4 DUP6 ADD SLOAD AND ISZERO PUSH2 0x4164 JUMPI PUSH1 0x5 DUP5 ADD SWAP1 CALLER DUP7 MSTORE DUP2 DUP4 MSTORE PUSH1 0xFF PUSH1 0x40 DUP8 KECCAK256 SLOAD AND PUSH2 0x411F JUMPI PUSH1 0x2 DUP6 ADD SWAP2 DUP3 SLOAD DUP1 ISZERO PUSH2 0x40DA JUMPI PUSH2 0x3E8 DUP2 GT PUSH2 0x4095 JUMPI PUSH2 0x3FDC SWAP1 CALLER PUSH2 0x51AC JUMP JUMPDEST CALLER DUP8 MSTORE DUP4 MSTORE PUSH1 0x40 DUP7 KECCAK256 PUSH1 0x1 PUSH1 0xFF NOT DUP3 SLOAD AND OR SWAP1 SSTORE DUP1 DUP4 MSTORE PUSH1 0xA PUSH1 0x40 DUP8 KECCAK256 ADD SLOAD PUSH1 0x1 DUP2 ADD DUP1 SWAP2 GT PUSH2 0x2385 JUMPI SWAP2 PUSH1 0x0 DUP1 MLOAD PUSH1 0x20 PUSH2 0x5B91 DUP4 CODECOPY DUP2 MLOAD SWAP2 MSTORE SWAP5 SWAP4 SWAP2 PUSH2 0x4037 PUSH1 0x40 SWAP5 CALLER DUP11 MSTORE DUP3 DUP6 MSTORE DUP6 DUP11 KECCAK256 SWAP1 PUSH1 0xA DUP3 ADD SSTORE SLOAD DUP4 SLOAD SWAP1 PUSH2 0x4D47 JUMP JUMPDEST SWAP1 CALLER DUP10 MSTORE DUP4 MSTORE DUP4 DUP9 KECCAK256 SWAP1 DUP2 SSTORE PUSH1 0xC TIMESTAMP SWAP2 ADD SSTORE SLOAD SWAP3 DUP3 MLOAD SWAP1 DUP2 MSTORE DUP4 DUP3 DUP3 ADD MSTORE PUSH32 0x20861823FA14B60D3F02CC6E48B647AC592DD27E39A78F278DF5C918DABB8B2C DUP4 CALLER SWAP3 LOG2 DUP2 MLOAD SWAP3 DUP4 MSTORE DUP3 ADD MSTORE DUP1 PUSH2 0x3D6F CALLER SWAP5 PUSH1 0x1 PUSH1 0x40 DUP5 ADD SWAP2 ADD PUSH2 0x4AEB JUMP JUMPDEST PUSH1 0x40 MLOAD PUSH3 0x461BCD PUSH1 0xE5 SHL DUP2 MSTORE PUSH1 0x4 DUP2 ADD DUP7 SWAP1 MSTORE PUSH1 0x19 PUSH1 0x24 DUP3 ADD MSTORE PUSH32 0x4368616C6C656E67652072657761726420746F6F206869676800000000000000 PUSH1 0x44 DUP3 ADD MSTORE PUSH1 0x64 SWAP1 REVERT JUMPDEST PUSH1 0x40 MLOAD PUSH3 0x461BCD PUSH1 0xE5 SHL DUP2 MSTORE PUSH1 0x4 DUP2 ADD DUP7 SWAP1 MSTORE PUSH1 0x18 PUSH1 0x24 DUP3 ADD MSTORE PUSH32 0x496E76616C6964206368616C6C656E6765207265776172640000000000000000 PUSH1 0x44 DUP3 ADD MSTORE PUSH1 0x64 SWAP1 REVERT JUMPDEST PUSH1 0x40 MLOAD PUSH3 0x461BCD PUSH1 0xE5 SHL DUP2 MSTORE PUSH1 0x4 DUP2 ADD DUP5 SWAP1 MSTORE PUSH1 0x1B PUSH1 0x24 DUP3 ADD MSTORE PUSH32 0x4368616C6C656E676520616C726561647920636F6D706C657465640000000000 PUSH1 0x44 DUP3 ADD MSTORE PUSH1 0x64 SWAP1 REVERT JUMPDEST PUSH1 0x40 MLOAD PUSH3 0x461BCD PUSH1 0xE5 SHL DUP2 MSTORE PUSH1 0x4 DUP2 ADD DUP4 SWAP1 MSTORE PUSH1 0x14 PUSH1 0x24 DUP3 ADD MSTORE PUSH20 0x4368616C6C656E6765206E6F7420616374697665 PUSH1 0x60 SHL PUSH1 0x44 DUP3 ADD MSTORE PUSH1 0x64 SWAP1 REVERT JUMPDEST POP CALLVALUE PUSH2 0x4CD JUMPI DUP1 PUSH1 0x3 NOT CALLDATASIZE ADD SLT PUSH2 0x4CD JUMPI PUSH2 0x41B9 PUSH2 0x5189 JUMP JUMPDEST PUSH2 0x41C1 PUSH2 0x510B JUMP JUMPDEST CALLER DUP2 MSTORE PUSH1 0x20 PUSH1 0x1E DUP2 MSTORE PUSH2 0x41DB PUSH1 0xFF PUSH1 0x40 DUP5 KECCAK256 SLOAD AND ISZERO PUSH2 0x4D54 JUMP JUMPDEST CALLER DUP3 MSTORE PUSH1 0x1A DUP1 DUP3 MSTORE PUSH2 0x41F7 PUSH1 0xFF PUSH1 0x6 PUSH1 0x40 DUP7 KECCAK256 ADD SLOAD AND ISZERO PUSH2 0x4D54 JUMP JUMPDEST CALLER DUP4 MSTORE DUP1 DUP3 MSTORE PUSH1 0xC PUSH1 0x40 DUP5 KECCAK256 ADD SLOAD PUSH3 0x15180 SWAP1 DUP2 DUP2 ADD DUP1 SWAP2 GT PUSH2 0x133D JUMPI PUSH2 0x4220 SWAP1 TIMESTAMP LT ISZERO PUSH2 0x4D98 JUMP JUMPDEST CALLER DUP5 MSTORE DUP2 DUP4 MSTORE PUSH2 0x4239 PUSH1 0x64 PUSH1 0xE PUSH1 0x40 DUP8 KECCAK256 ADD SLOAD LT PUSH2 0x4DE4 JUMP JUMPDEST CALLER DUP5 MSTORE DUP2 DUP4 MSTORE PUSH1 0x7 PUSH1 0x4 PUSH1 0x40 DUP7 KECCAK256 ADD SLOAD LT PUSH2 0x4379 JUMPI CALLER DUP5 MSTORE DUP2 DUP4 MSTORE PUSH1 0x5 PUSH1 0x40 DUP6 KECCAK256 ADD SLOAD SWAP1 DUP2 ADD DUP1 SWAP2 GT PUSH2 0xEC9 JUMPI TIMESTAMP LT PUSH2 0x4329 JUMPI CALLER DUP4 MSTORE DUP2 DUP1 MSTORE PUSH1 0x40 DUP4 KECCAK256 SLOAD PUSH1 0x3 DUP2 ADD DUP1 SWAP2 GT PUSH2 0xEC9 JUMPI PUSH1 0x64 DUP2 GT PUSH2 0xEF3 JUMPI CALLER DUP5 MSTORE DUP3 DUP1 MSTORE PUSH1 0x40 DUP5 KECCAK256 SSTORE DUP1 DUP3 MSTORE PUSH1 0xE PUSH1 0x40 DUP5 KECCAK256 ADD SLOAD PUSH1 0x3 DUP2 ADD DUP1 SWAP2 GT PUSH2 0xEC9 JUMPI CALLER DUP5 MSTORE DUP2 DUP4 MSTORE PUSH1 0x40 DUP5 KECCAK256 SWAP1 PUSH1 0xE DUP3 ADD SSTORE SLOAD SWAP1 PUSH1 0x3 DUP3 ADD DUP1 SWAP3 GT PUSH2 0xEC9 JUMPI CALLER DUP5 MSTORE DUP3 MSTORE PUSH1 0x40 DUP4 KECCAK256 SWAP1 DUP2 SSTORE TIMESTAMP PUSH1 0x5 DUP3 ADD SSTORE PUSH1 0xC TIMESTAMP SWAP2 ADD SSTORE PUSH1 0x40 DUP1 MLOAD SWAP2 PUSH1 0x3 DUP4 MSTORE DUP3 ADD MSTORE PUSH1 0x12 PUSH1 0x40 DUP3 ADD MSTORE PUSH18 0x372D6461792073747265616B20626F6E7573 PUSH1 0x70 SHL PUSH1 0x60 DUP3 ADD MSTORE PUSH1 0x0 DUP1 MLOAD PUSH1 0x20 PUSH2 0x5B91 DUP4 CODECOPY DUP2 MLOAD SWAP2 MSTORE PUSH1 0x80 CALLER SWAP3 LOG2 PUSH1 0x1 DUP2 SSTORE DUP1 RETURN JUMPDEST PUSH1 0x40 MLOAD PUSH3 0x461BCD PUSH1 0xE5 SHL DUP2 MSTORE PUSH1 0x4 DUP2 ADD DUP4 SWAP1 MSTORE PUSH1 0x22 PUSH1 0x24 DUP3 ADD MSTORE PUSH32 0x53747265616B20626F6E757320616C726561647920636C61696D656420746F64 PUSH1 0x44 DUP3 ADD MSTORE PUSH2 0x6179 PUSH1 0xF0 SHL PUSH1 0x64 DUP3 ADD MSTORE PUSH1 0x84 SWAP1 REVERT JUMPDEST PUSH1 0x40 MLOAD PUSH3 0x461BCD PUSH1 0xE5 SHL DUP2 MSTORE PUSH1 0x4 DUP2 ADD DUP5 SWAP1 MSTORE PUSH1 0x18 PUSH1 0x24 DUP3 ADD MSTORE PUSH32 0x372D6461792073747265616B206E6F7420726561636865640000000000000000 PUSH1 0x44 DUP3 ADD MSTORE PUSH1 0x64 SWAP1 REVERT JUMPDEST POP CALLVALUE PUSH2 0x4CD JUMPI PUSH1 0x20 CALLDATASIZE PUSH1 0x3 NOT ADD SLT PUSH2 0x4CD JUMPI PUSH1 0x80 SWAP1 PUSH1 0x40 PUSH2 0x43DD PUSH2 0x483E JUMP JUMPDEST SWAP2 DUP1 PUSH1 0x60 DUP4 MLOAD PUSH2 0x43EC DUP2 PUSH2 0x48CA JUMP JUMPDEST DUP3 DUP2 MSTORE DUP3 PUSH1 0x20 DUP3 ADD MSTORE DUP3 DUP6 DUP3 ADD MSTORE ADD MSTORE PUSH1 0x1 DUP1 PUSH1 0xA0 SHL SUB DUP1 SWAP4 AND DUP2 MSTORE PUSH1 0x1C PUSH1 0x20 MSTORE KECCAK256 SWAP1 PUSH1 0x40 MLOAD SWAP1 PUSH2 0x441C DUP3 PUSH2 0x48CA JUMP JUMPDEST DUP3 SLOAD AND SWAP2 DUP3 DUP3 MSTORE PUSH1 0x1 DUP2 ADD SLOAD PUSH1 0x20 DUP4 ADD SWAP1 DUP2 MSTORE PUSH1 0x60 PUSH1 0xFF PUSH1 0x3 PUSH1 0x2 DUP6 ADD SLOAD SWAP5 PUSH1 0x40 DUP8 ADD SWAP6 DUP7 MSTORE ADD SLOAD AND SWAP4 ADD SWAP3 ISZERO ISZERO DUP4 MSTORE PUSH1 0x40 MLOAD SWAP4 DUP5 MSTORE MLOAD PUSH1 0x20 DUP5 ADD MSTORE MLOAD PUSH1 0x40 DUP4 ADD MSTORE MLOAD ISZERO ISZERO PUSH1 0x60 DUP3 ADD MSTORE RETURN JUMPDEST POP CALLVALUE PUSH2 0x4CD JUMPI DUP1 PUSH1 0x3 NOT CALLDATASIZE ADD SLT PUSH2 0x4CD JUMPI PUSH1 0x20 PUSH1 0x40 MLOAD PUSH32 0xBF233DD2AAFEB4D50879C4AA5C81E96D92F6E6945C906A58F9F2D1C1631B4B26 DUP2 MSTORE RETURN JUMPDEST POP CALLVALUE PUSH2 0x4CD JUMPI DUP1 PUSH1 0x3 NOT CALLDATASIZE ADD SLT PUSH2 0x4CD JUMPI PUSH1 0x40 MLOAD PUSH32 0x0 PUSH1 0x1 PUSH1 0x1 PUSH1 0xA0 SHL SUB AND DUP2 MSTORE PUSH1 0x20 SWAP1 RETURN JUMPDEST POP CALLVALUE PUSH2 0x4CD JUMPI DUP1 PUSH1 0x3 NOT CALLDATASIZE ADD SLT PUSH2 0x4CD JUMPI PUSH1 0x20 PUSH1 0x16 SLOAD PUSH1 0x40 MLOAD SWAP1 DUP2 MSTORE RETURN JUMPDEST POP CALLVALUE PUSH2 0x4CD JUMPI DUP1 PUSH1 0x3 NOT CALLDATASIZE ADD SLT PUSH2 0x4CD JUMPI PUSH1 0x20 PUSH1 0x40 MLOAD PUSH1 0x8 DUP2 MSTORE RETURN JUMPDEST POP CALLVALUE PUSH2 0x4CD JUMPI PUSH1 0x20 DUP1 PUSH1 0x3 NOT CALLDATASIZE ADD SLT PUSH2 0x1F41 JUMPI PUSH1 0x4 CALLDATALOAD SWAP1 PUSH2 0x4541 PUSH2 0x510B JUMP JUMPDEST DUP2 ISZERO PUSH2 0x45FE JUMPI PUSH2 0x4550 CALLER PUSH2 0x512C JUMP JUMPDEST PUSH2 0x45C4 JUMPI PUSH1 0x12 SLOAD DUP4 MSTORE PUSH1 0x10 DUP2 MSTORE PUSH2 0x456A CALLER PUSH1 0x40 DUP6 KECCAK256 PUSH2 0x4D0C JUMP JUMPDEST PUSH1 0x12 SLOAD DUP1 DUP5 MSTORE PUSH1 0xF DUP3 MSTORE PUSH2 0x4582 DUP4 PUSH1 0x40 DUP7 KECCAK256 SLOAD PUSH2 0x4D47 JUMP JUMPDEST SWAP1 DUP5 MSTORE PUSH1 0xF DUP3 MSTORE PUSH1 0x40 DUP5 KECCAK256 SSTORE PUSH1 0x12 SLOAD SWAP1 PUSH1 0x40 MLOAD SWAP3 DUP4 MSTORE DUP3 ADD MSTORE PUSH32 0xEFE539503E4A6BC6D750ABE6F7471EA59543AD95E1757FCD02ECB9A6C212E920 PUSH1 0x40 CALLER SWAP3 LOG2 DUP1 RETURN JUMPDEST PUSH1 0x64 SWAP1 PUSH1 0x40 MLOAD SWAP1 PUSH3 0x461BCD PUSH1 0xE5 SHL DUP3 MSTORE PUSH1 0x4 DUP3 ADD MSTORE PUSH1 0x13 PUSH1 0x24 DUP3 ADD MSTORE PUSH19 0x105B1C9958591E4818DBDB9D1C9A589D5D1959 PUSH1 0x6A SHL PUSH1 0x44 DUP3 ADD MSTORE REVERT JUMPDEST PUSH1 0x64 SWAP1 PUSH1 0x40 MLOAD SWAP1 PUSH3 0x461BCD PUSH1 0xE5 SHL DUP3 MSTORE PUSH1 0x4 DUP3 ADD MSTORE PUSH1 0xF PUSH1 0x24 DUP3 ADD MSTORE PUSH15 0x496E76616C696420656E74726F7079 PUSH1 0x88 SHL PUSH1 0x44 DUP3 ADD MSTORE REVERT JUMPDEST POP CALLVALUE PUSH2 0x4CD JUMPI PUSH1 0x20 CALLDATASIZE PUSH1 0x3 NOT ADD SLT PUSH2 0x4CD JUMPI PUSH1 0x40 PUSH1 0xE0 SWAP2 PUSH1 0x4 CALLDATALOAD DUP2 MSTORE PUSH1 0x1D PUSH1 0x20 MSTORE KECCAK256 DUP1 SLOAD SWAP1 PUSH1 0x1 DUP2 ADD SLOAD SWAP1 PUSH1 0x2 DUP2 ADD SLOAD PUSH1 0x3 DUP3 ADD SLOAD PUSH1 0x4 DUP4 ADD SLOAD SWAP2 PUSH1 0x7 PUSH1 0xFF PUSH1 0x6 DUP7 ADD SLOAD AND SWAP5 ADD SLOAD SWAP5 PUSH1 0x40 MLOAD SWAP7 DUP8 MSTORE PUSH1 0x20 DUP8 ADD MSTORE PUSH1 0x40 DUP7 ADD MSTORE PUSH1 0x60 DUP6 ADD MSTORE PUSH1 0x80 DUP5 ADD MSTORE ISZERO ISZERO PUSH1 0xA0 DUP4 ADD MSTORE PUSH1 0xC0 DUP3 ADD MSTORE RETURN JUMPDEST POP CALLVALUE PUSH2 0x4CD JUMPI PUSH2 0x46B4 CALLDATASIZE PUSH2 0x486A JUMP JUMPDEST SWAP2 SWAP1 DUP2 MSTORE PUSH1 0x10 PUSH1 0x20 MSTORE PUSH1 0x40 DUP2 KECCAK256 SWAP1 DUP2 SLOAD DUP4 LT ISZERO PUSH2 0x4CD JUMPI PUSH1 0x20 PUSH2 0x1DBA DUP5 DUP5 PUSH2 0x4880 JUMP JUMPDEST POP CALLVALUE PUSH2 0x4CD JUMPI DUP1 PUSH1 0x3 NOT CALLDATASIZE ADD SLT PUSH2 0x4CD JUMPI PUSH2 0x46F0 PUSH2 0x50DF JUMP JUMPDEST PUSH2 0x46F8 PUSH2 0x510B JUMP JUMPDEST PUSH1 0x2 SLOAD PUSH1 0x40 MLOAD PUSH4 0xF8413B07 PUSH1 0xE0 SHL DUP2 MSTORE SWAP1 PUSH1 0x20 SWAP1 DUP3 SWAP1 PUSH1 0x4 SWAP1 DUP3 SWAP1 DUP7 SWAP1 PUSH1 0x1 PUSH1 0x1 PUSH1 0xA0 SHL SUB AND GAS CALL SWAP1 DUP2 ISZERO PUSH2 0xBCA JUMPI DUP3 SWAP2 PUSH2 0x4769 JUMPI JUMPDEST POP PUSH1 0x40 DUP2 PUSH32 0x3D94FECEDAA4F90B8BD459797ADB95F5BB11426025C5541390D9CCC1AD1B60A1 SWAP3 PUSH1 0x9 SSTORE PUSH1 0x4 SLOAD SWAP1 DUP3 MLOAD SWAP2 DUP3 MSTORE PUSH1 0x20 DUP3 ADD MSTORE LOG1 DUP1 RETURN JUMPDEST SWAP1 POP PUSH1 0x20 DUP2 RETURNDATASIZE PUSH1 0x20 GT PUSH2 0x4794 JUMPI JUMPDEST DUP2 PUSH2 0x4784 PUSH1 0x20 SWAP4 DUP4 PUSH2 0x49CE JUMP JUMPDEST DUP2 ADD SUB SLT PUSH2 0x1F41 JUMPI MLOAD PUSH1 0x40 PUSH2 0x472E JUMP JUMPDEST RETURNDATASIZE SWAP2 POP PUSH2 0x4777 JUMP JUMPDEST POP CALLVALUE PUSH2 0x4CD JUMPI DUP1 PUSH1 0x3 NOT CALLDATASIZE ADD SLT PUSH2 0x4CD JUMPI PUSH1 0x3 SLOAD PUSH1 0x40 MLOAD PUSH4 0xD73EBB5 PUSH1 0xE0 SHL DUP2 MSTORE SWAP1 PUSH1 0x20 SWAP1 DUP3 SWAP1 PUSH1 0x4 SWAP1 DUP3 SWAP1 PUSH1 0x1 PUSH1 0x1 PUSH1 0xA0 SHL SUB AND GAS STATICCALL SWAP1 DUP2 ISZERO PUSH2 0xBCA JUMPI DUP3 SWAP2 PUSH2 0x1F13 JUMPI PUSH1 0x20 DUP3 PUSH1 0x40 MLOAD SWAP1 DUP2 MSTORE RETURN JUMPDEST POP CALLVALUE PUSH2 0x4CD JUMPI DUP1 PUSH1 0x3 NOT CALLDATASIZE ADD SLT PUSH2 0x4CD JUMPI PUSH1 0x20 PUSH1 0x40 MLOAD PUSH2 0x12C DUP2 MSTORE RETURN JUMPDEST SWAP1 POP CALLVALUE PUSH2 0x1F41 JUMPI PUSH1 0x20 CALLDATASIZE PUSH1 0x3 NOT ADD SLT PUSH2 0x1F41 JUMPI PUSH1 0x20 SWAP2 PUSH1 0x40 SWAP1 PUSH1 0x1 PUSH1 0x1 PUSH1 0xA0 SHL SUB PUSH2 0x4831 PUSH2 0x483E JUMP JUMPDEST AND DUP2 MSTORE PUSH1 0x21 DUP5 MSTORE KECCAK256 SLOAD DUP2 MSTORE RETURN JUMPDEST PUSH1 0x4 CALLDATALOAD SWAP1 PUSH1 0x1 PUSH1 0x1 PUSH1 0xA0 SHL SUB DUP3 AND DUP3 SUB PUSH2 0xA7C JUMPI JUMP JUMPDEST PUSH1 0x24 CALLDATALOAD SWAP1 PUSH1 0x1 PUSH1 0x1 PUSH1 0xA0 SHL SUB DUP3 AND DUP3 SUB PUSH2 0xA7C JUMPI JUMP JUMPDEST PUSH1 0x40 SWAP1 PUSH1 0x3 NOT ADD SLT PUSH2 0xA7C JUMPI PUSH1 0x4 CALLDATALOAD SWAP1 PUSH1 0x24 CALLDATALOAD SWAP1 JUMP JUMPDEST DUP1 SLOAD DUP3 LT ISZERO PUSH2 0x4898 JUMPI PUSH1 0x0 MSTORE PUSH1 0x20 PUSH1 0x0 KECCAK256 ADD SWAP1 PUSH1 0x0 SWAP1 JUMP JUMPDEST PUSH4 0x4E487B71 PUSH1 0xE0 SHL PUSH1 0x0 MSTORE PUSH1 0x32 PUSH1 0x4 MSTORE PUSH1 0x24 PUSH1 0x0 REVERT JUMPDEST CALLVALUE PUSH2 0xA7C JUMPI PUSH1 0x0 CALLDATASIZE PUSH1 0x3 NOT ADD SLT PUSH2 0xA7C JUMPI PUSH1 0x20 PUSH1 0x40 MLOAD PUSH1 0xA DUP2 MSTORE RETURN JUMPDEST PUSH1 0x80 DUP2 ADD SWAP1 DUP2 LT PUSH1 0x1 PUSH1 0x1 PUSH1 0x40 SHL SUB DUP3 GT OR PUSH2 0x48E5 JUMPI PUSH1 0x40 MSTORE JUMP JUMPDEST PUSH4 0x4E487B71 PUSH1 0xE0 SHL PUSH1 0x0 MSTORE PUSH1 0x41 PUSH1 0x4 MSTORE PUSH1 0x24 PUSH1 0x0 REVERT JUMPDEST PUSH2 0x220 DUP2 ADD SWAP1 DUP2 LT PUSH1 0x1 PUSH1 0x1 PUSH1 0x40 SHL SUB DUP3 GT OR PUSH2 0x48E5 JUMPI PUSH1 0x40 MSTORE JUMP JUMPDEST PUSH2 0x100 DUP2 ADD SWAP1 DUP2 LT PUSH1 0x1 PUSH1 0x1 PUSH1 0x40 SHL SUB DUP3 GT OR PUSH2 0x48E5 JUMPI PUSH1 0x40 MSTORE JUMP JUMPDEST PUSH1 0x1 PUSH1 0x1 PUSH1 0x40 SHL SUB DUP2 GT PUSH2 0x48E5 JUMPI PUSH1 0x40 MSTORE JUMP JUMPDEST PUSH1 0x40 DUP2 ADD SWAP1 DUP2 LT PUSH1 0x1 PUSH1 0x1 PUSH1 0x40 SHL SUB DUP3 GT OR PUSH2 0x48E5 JUMPI PUSH1 0x40 MSTORE JUMP JUMPDEST PUSH1 0x20 DUP2 ADD SWAP1 DUP2 LT PUSH1 0x1 PUSH1 0x1 PUSH1 0x40 SHL SUB DUP3 GT OR PUSH2 0x48E5 JUMPI PUSH1 0x40 MSTORE JUMP JUMPDEST PUSH1 0x60 DUP2 ADD SWAP1 DUP2 LT PUSH1 0x1 PUSH1 0x1 PUSH1 0x40 SHL SUB DUP3 GT OR PUSH2 0x48E5 JUMPI PUSH1 0x40 MSTORE JUMP JUMPDEST PUSH1 0xC0 DUP2 ADD SWAP1 DUP2 LT PUSH1 0x1 PUSH1 0x1 PUSH1 0x40 SHL SUB DUP3 GT OR PUSH2 0x48E5 JUMPI PUSH1 0x40 MSTORE JUMP JUMPDEST PUSH2 0x120 DUP2 ADD SWAP1 DUP2 LT PUSH1 0x1 PUSH1 0x1 PUSH1 0x40 SHL SUB DUP3 GT OR PUSH2 0x48E5 JUMPI PUSH1 0x40 MSTORE JUMP JUMPDEST SWAP1 PUSH1 0x1F DUP1 NOT SWAP2 ADD AND DUP2 ADD SWAP1 DUP2 LT PUSH1 0x1 PUSH1 0x1 PUSH1 0x40 SHL SUB DUP3 GT OR PUSH2 0x48E5 JUMPI PUSH1 0x40 MSTORE JUMP JUMPDEST PUSH1 0x1 PUSH1 0x1 PUSH1 0x40 SHL SUB DUP2 GT PUSH2 0x48E5 JUMPI PUSH1 0x1F ADD PUSH1 0x1F NOT AND PUSH1 0x20 ADD SWAP1 JUMP JUMPDEST PUSH1 0x20 PUSH1 0x3 NOT DUP3 ADD SLT PUSH2 0xA7C JUMPI PUSH1 0x4 CALLDATALOAD PUSH1 0x1 PUSH1 0x1 PUSH1 0x40 SHL SUB DUP2 GT PUSH2 0xA7C JUMPI DUP2 PUSH1 0x23 DUP3 ADD SLT ISZERO PUSH2 0xA7C JUMPI DUP1 PUSH1 0x4 ADD CALLDATALOAD SWAP1 PUSH2 0x4A41 DUP3 PUSH2 0x49EF JUMP JUMPDEST SWAP3 PUSH2 0x4A4F PUSH1 0x40 MLOAD SWAP5 DUP6 PUSH2 0x49CE JUMP JUMPDEST DUP3 DUP5 MSTORE PUSH1 0x24 DUP4 DUP4 ADD ADD GT PUSH2 0xA7C JUMPI DUP2 PUSH1 0x0 SWAP3 PUSH1 0x24 PUSH1 0x20 SWAP4 ADD DUP4 DUP7 ADD CALLDATACOPY DUP4 ADD ADD MSTORE SWAP1 JUMP JUMPDEST PUSH1 0x0 JUMPDEST DUP4 DUP2 LT PUSH2 0x4A85 JUMPI POP POP PUSH1 0x0 SWAP2 ADD MSTORE JUMP JUMPDEST DUP2 DUP2 ADD MLOAD DUP4 DUP3 ADD MSTORE PUSH1 0x20 ADD PUSH2 0x4A75 JUMP JUMPDEST CALLVALUE PUSH2 0xA7C JUMPI PUSH1 0x0 CALLDATASIZE PUSH1 0x3 NOT ADD SLT PUSH2 0xA7C JUMPI PUSH1 0x20 PUSH1 0x40 MLOAD PUSH1 0x64 DUP2 MSTORE RETURN JUMPDEST PUSH1 0x1 PUSH1 0x1 PUSH1 0x40 SHL SUB DUP2 GT PUSH2 0x48E5 JUMPI PUSH1 0x5 SHL PUSH1 0x20 ADD SWAP1 JUMP JUMPDEST CALLVALUE PUSH2 0xA7C JUMPI PUSH1 0x0 CALLDATASIZE PUSH1 0x3 NOT ADD SLT PUSH2 0xA7C JUMPI PUSH1 0x20 PUSH1 0x40 MLOAD PUSH8 0xDE0B6B3A7640000 DUP2 MSTORE RETURN JUMPDEST DUP1 SLOAD PUSH1 0x0 SWAP4 SWAP3 PUSH1 0x1 DUP1 DUP4 AND SWAP4 DUP4 DUP3 SHR SWAP4 DUP6 ISZERO PUSH2 0x4B9E JUMPI JUMPDEST PUSH1 0x20 SWAP6 DUP7 DUP7 LT DUP2 EQ PUSH2 0x4B88 JUMPI DUP6 DUP6 MSTORE SWAP1 DUP2 ISZERO PUSH2 0x4B69 JUMPI POP PUSH1 0x1 EQ PUSH2 0x4B28 JUMPI JUMPDEST POP POP POP POP POP JUMP JUMPDEST SWAP1 SWAP4 SWAP5 SWAP6 POP PUSH1 0x0 SWAP3 SWAP2 SWAP3 MSTORE DUP4 PUSH1 0x0 KECCAK256 SWAP3 DUP5 PUSH1 0x0 SWAP5 JUMPDEST DUP4 DUP7 LT PUSH2 0x4B55 JUMPI POP POP POP POP ADD ADD SWAP1 CODESIZE DUP1 DUP1 DUP1 DUP1 PUSH2 0x4B21 JUMP JUMPDEST DUP1 SLOAD DUP6 DUP8 ADD DUP4 ADD MSTORE SWAP5 ADD SWAP4 DUP6 SWAP1 DUP3 ADD PUSH2 0x4B3D JUMP JUMPDEST PUSH1 0xFF NOT AND DUP7 DUP6 ADD MSTORE POP POP POP SWAP1 ISZERO ISZERO PUSH1 0x5 SHL ADD ADD SWAP2 POP CODESIZE DUP1 DUP1 DUP1 DUP1 PUSH2 0x4B21 JUMP JUMPDEST PUSH4 0x4E487B71 PUSH1 0xE0 SHL PUSH1 0x0 MSTORE PUSH1 0x22 PUSH1 0x4 MSTORE PUSH1 0x24 PUSH1 0x0 REVERT JUMPDEST SWAP4 PUSH1 0x7F AND SWAP4 PUSH2 0x4B02 JUMP JUMPDEST SWAP1 PUSH1 0x20 SWAP2 PUSH2 0x4BC1 DUP2 MLOAD DUP1 SWAP3 DUP2 DUP6 MSTORE DUP6 DUP1 DUP7 ADD SWAP2 ADD PUSH2 0x4A72 JUMP JUMPDEST PUSH1 0x1F ADD PUSH1 0x1F NOT AND ADD ADD SWAP1 JUMP JUMPDEST PUSH1 0x60 SWAP1 PUSH1 0x3 NOT ADD SLT PUSH2 0xA7C JUMPI PUSH1 0x4 CALLDATALOAD SWAP1 PUSH1 0x24 CALLDATALOAD SWAP1 PUSH1 0x44 CALLDATALOAD SWAP1 JUMP JUMPDEST CALLVALUE PUSH2 0xA7C JUMPI PUSH1 0x0 CALLDATASIZE PUSH1 0x3 NOT ADD SLT PUSH2 0xA7C JUMPI PUSH1 0x20 PUSH1 0x40 MLOAD PUSH1 0x2 DUP2 MSTORE RETURN JUMPDEST CALLVALUE PUSH2 0xA7C JUMPI PUSH1 0x0 CALLDATASIZE PUSH1 0x3 NOT ADD SLT PUSH2 0xA7C JUMPI PUSH1 0x20 PUSH1 0x40 MLOAD PUSH1 0x1 DUP2 MSTORE RETURN JUMPDEST PUSH1 0x20 SWAP2 DUP3 DUP3 MSTORE PUSH2 0x120 DUP3 ADD SWAP1 DUP1 MLOAD DUP5 DUP5 ADD MSTORE DUP4 DUP2 ADD MLOAD PUSH1 0x40 DUP5 ADD MSTORE PUSH1 0x40 DUP2 ADD MLOAD PUSH1 0x60 DUP5 ADD MSTORE PUSH1 0x60 DUP2 ADD MLOAD PUSH1 0x80 DUP5 ADD MSTORE PUSH1 0x80 DUP2 ADD MLOAD PUSH1 0xA0 DUP5 ADD MSTORE PUSH1 0xA0 DUP2 ADD MLOAD SWAP4 PUSH2 0x100 SWAP3 DUP4 PUSH1 0xC0 DUP7 ADD MSTORE DUP6 MLOAD DUP1 SWAP2 MSTORE DUP2 PUSH2 0x140 DUP7 ADD SWAP7 ADD SWAP2 PUSH1 0x0 JUMPDEST DUP3 DUP2 LT PUSH2 0x4C9A JUMPI POP POP POP POP DUP1 PUSH1 0xC0 PUSH1 0xE0 SWAP3 ADD MLOAD ISZERO ISZERO DUP3 DUP6 ADD MSTORE ADD MLOAD SWAP2 ADD MSTORE SWAP1 JUMP JUMPDEST DUP4 MLOAD PUSH1 0x1 PUSH1 0x1 PUSH1 0xA0 SHL SUB AND DUP9 MSTORE SWAP7 DUP2 ADD SWAP7 SWAP3 DUP2 ADD SWAP3 PUSH1 0x1 ADD PUSH2 0x4C79 JUMP JUMPDEST CALLVALUE PUSH2 0xA7C JUMPI PUSH1 0x0 CALLDATASIZE PUSH1 0x3 NOT ADD SLT PUSH2 0xA7C JUMPI PUSH1 0x20 PUSH1 0x40 MLOAD PUSH1 0x32 DUP2 MSTORE RETURN JUMPDEST CALLVALUE PUSH2 0xA7C JUMPI PUSH1 0x0 CALLDATASIZE PUSH1 0x3 NOT ADD SLT PUSH2 0xA7C JUMPI PUSH1 0x20 PUSH1 0x40 MLOAD PUSH2 0xE10 DUP2 MSTORE RETURN JUMPDEST CALLVALUE PUSH2 0xA7C JUMPI PUSH1 0x0 CALLDATASIZE PUSH1 0x3 NOT ADD SLT PUSH2 0xA7C JUMPI PUSH1 0x20 PUSH1 0x40 MLOAD PUSH1 0x3 DUP2 MSTORE RETURN JUMPDEST DUP1 SLOAD PUSH1 0x1 PUSH1 0x40 SHL DUP2 LT ISZERO PUSH2 0x48E5 JUMPI PUSH2 0x4D29 SWAP2 PUSH1 0x1 DUP3 ADD DUP2 SSTORE PUSH2 0x4880 JUMP JUMPDEST PUSH1 0x1 DUP1 PUSH1 0xA0 SWAP5 SWAP4 SWAP5 SHL SUB DUP1 DUP5 SLOAD SWAP3 PUSH1 0x3 SHL SWAP4 AND DUP4 SHL SWAP3 SHL NOT AND OR SWAP1 SSTORE JUMP JUMPDEST SWAP2 SWAP1 DUP3 ADD DUP1 SWAP3 GT PUSH2 0xEDD JUMPI JUMP JUMPDEST ISZERO PUSH2 0x4D5B JUMPI JUMP JUMPDEST PUSH1 0x40 MLOAD PUSH3 0x461BCD PUSH1 0xE5 SHL DUP2 MSTORE PUSH1 0x20 PUSH1 0x4 DUP3 ADD MSTORE PUSH1 0x15 PUSH1 0x24 DUP3 ADD MSTORE PUSH21 0x141B185E595C881A5CC8189B1858DADB1A5CDD1959 PUSH1 0x5A SHL PUSH1 0x44 DUP3 ADD MSTORE PUSH1 0x64 SWAP1 REVERT JUMPDEST ISZERO PUSH2 0x4D9F JUMPI JUMP JUMPDEST PUSH1 0x40 MLOAD PUSH3 0x461BCD PUSH1 0xE5 SHL DUP2 MSTORE PUSH1 0x20 PUSH1 0x4 DUP3 ADD MSTORE PUSH1 0x1C PUSH1 0x24 DUP3 ADD MSTORE PUSH32 0x52657761726420616C726561647920636C61696D656420746F64617900000000 PUSH1 0x44 DUP3 ADD MSTORE PUSH1 0x64 SWAP1 REVERT JUMPDEST ISZERO PUSH2 0x4DEB JUMPI JUMP JUMPDEST PUSH1 0x40 MLOAD PUSH3 0x461BCD PUSH1 0xE5 SHL DUP2 MSTORE PUSH1 0x20 PUSH1 0x4 DUP3 ADD MSTORE PUSH1 0x1A PUSH1 0x24 DUP3 ADD MSTORE PUSH32 0x4461696C7920726577617264206C696D69742072656163686564000000000000 PUSH1 0x44 DUP3 ADD MSTORE PUSH1 0x64 SWAP1 REVERT JUMPDEST ISZERO PUSH2 0x4E37 JUMPI JUMP JUMPDEST PUSH1 0x40 MLOAD PUSH3 0x461BCD PUSH1 0xE5 SHL DUP2 MSTORE PUSH1 0x20 PUSH1 0x4 DUP3 ADD MSTORE PUSH1 0x27 PUSH1 0x24 DUP3 ADD MSTORE PUSH32 0x416363657373436F6E74726F6C3A2063616C6C6572206973206E6F7420726F6C PUSH1 0x44 DUP3 ADD MSTORE PUSH7 0x329030B236B4B7 PUSH1 0xC9 SHL PUSH1 0x64 DUP3 ADD MSTORE PUSH1 0x84 SWAP1 REVERT JUMPDEST ISZERO PUSH2 0x4E93 JUMPI JUMP JUMPDEST PUSH1 0x40 MLOAD PUSH3 0x461BCD PUSH1 0xE5 SHL DUP2 MSTORE PUSH1 0x20 PUSH1 0x4 DUP3 ADD MSTORE PUSH1 0xF PUSH1 0x24 DUP3 ADD MSTORE PUSH15 0x496E76616C69642061646472657373 PUSH1 0x88 SHL PUSH1 0x44 DUP3 ADD MSTORE PUSH1 0x64 SWAP1 REVERT JUMPDEST ISZERO PUSH2 0x4ED1 JUMPI JUMP JUMPDEST PUSH1 0x40 MLOAD PUSH3 0x461BCD PUSH1 0xE5 SHL DUP2 MSTORE PUSH1 0x20 PUSH1 0x4 DUP3 ADD MSTORE PUSH1 0x28 PUSH1 0x24 DUP3 ADD MSTORE PUSH32 0x416363657373436F6E74726F6C3A2063616C6C657220646F6573206E6F742068 PUSH1 0x44 DUP3 ADD MSTORE PUSH8 0x61766520726F6C65 PUSH1 0xC0 SHL PUSH1 0x64 DUP3 ADD MSTORE PUSH1 0x84 SWAP1 REVERT JUMPDEST DUP1 MLOAD ISZERO PUSH2 0x4898 JUMPI PUSH1 0x20 ADD SWAP1 JUMP JUMPDEST DUP1 MLOAD PUSH1 0x1 LT ISZERO PUSH2 0x4898 JUMPI PUSH1 0x40 ADD SWAP1 JUMP JUMPDEST DUP1 MLOAD PUSH1 0x2 LT ISZERO PUSH2 0x4898 JUMPI PUSH1 0x60 ADD SWAP1 JUMP JUMPDEST DUP1 MLOAD PUSH1 0x3 LT ISZERO PUSH2 0x4898 JUMPI PUSH1 0x80 ADD SWAP1 JUMP JUMPDEST DUP1 MLOAD PUSH1 0x4 LT ISZERO PUSH2 0x4898 JUMPI PUSH1 0xA0 ADD SWAP1 JUMP JUMPDEST DUP1 MLOAD DUP3 LT ISZERO PUSH2 0x4898 JUMPI PUSH1 0x20 SWAP2 PUSH1 0x5 SHL ADD ADD SWAP1 JUMP JUMPDEST RETURNDATASIZE ISZERO PUSH2 0x4FB3 JUMPI RETURNDATASIZE SWAP1 PUSH2 0x4F99 DUP3 PUSH2 0x49EF JUMP JUMPDEST SWAP2 PUSH2 0x4FA7 PUSH1 0x40 MLOAD SWAP4 DUP5 PUSH2 0x49CE JUMP JUMPDEST DUP3 MSTORE RETURNDATASIZE PUSH1 0x0 PUSH1 0x20 DUP5 ADD RETURNDATACOPY JUMP JUMPDEST PUSH1 0x60 SWAP1 JUMP JUMPDEST ISZERO PUSH2 0x4FBF JUMPI JUMP JUMPDEST PUSH1 0x40 MLOAD PUSH3 0x461BCD PUSH1 0xE5 SHL DUP2 MSTORE PUSH1 0x20 PUSH1 0x4 DUP3 ADD MSTORE PUSH1 0x15 PUSH1 0x24 DUP3 ADD MSTORE PUSH21 0x141C9A5E99481D1C985B9CD9995C8819985A5B1959 PUSH1 0x5A SHL PUSH1 0x44 DUP3 ADD MSTORE PUSH1 0x64 SWAP1 REVERT JUMPDEST SWAP1 DUP2 MLOAD DUP1 DUP3 MSTORE PUSH1 0x20 DUP1 DUP1 SWAP4 ADD SWAP4 ADD SWAP2 PUSH1 0x0 JUMPDEST DUP3 DUP2 LT PUSH2 0x501C JUMPI POP POP POP POP SWAP1 JUMP JUMPDEST DUP4 MLOAD PUSH1 0x1 PUSH1 0x1 PUSH1 0xA0 SHL SUB AND DUP6 MSTORE SWAP4 DUP2 ADD SWAP4 SWAP3 DUP2 ADD SWAP3 PUSH1 0x1 ADD PUSH2 0x500E JUMP JUMPDEST SWAP4 SWAP3 SWAP2 PUSH2 0x5056 SWAP1 PUSH1 0x40 SWAP3 DUP7 MSTORE PUSH1 0x60 PUSH1 0x20 DUP8 ADD MSTORE PUSH1 0x60 DUP7 ADD SWAP1 PUSH2 0x4FFC JUMP JUMPDEST SWAP4 ADD MSTORE JUMP JUMPDEST SWAP2 SWAP1 DUP3 SUB SWAP2 DUP3 GT PUSH2 0xEDD JUMPI JUMP JUMPDEST PUSH1 0x40 MLOAD SWAP1 PUSH2 0x5075 DUP3 PUSH2 0x4917 JUMP JUMPDEST DUP2 PUSH1 0xE0 PUSH1 0x0 SWAP2 DUP3 DUP2 MSTORE DUP3 PUSH1 0x20 DUP3 ADD MSTORE DUP3 PUSH1 0x40 DUP3 ADD MSTORE DUP3 PUSH1 0x60 DUP3 ADD MSTORE DUP3 PUSH1 0x80 DUP3 ADD MSTORE PUSH1 0x60 PUSH1 0xA0 DUP3 ADD MSTORE DUP3 PUSH1 0xC0 DUP3 ADD MSTORE ADD MSTORE JUMP JUMPDEST DUP2 ISZERO PUSH2 0x50B1 JUMPI MOD SWAP1 JUMP JUMPDEST PUSH4 0x4E487B71 PUSH1 0xE0 SHL PUSH1 0x0 MSTORE PUSH1 0x12 PUSH1 0x4 MSTORE PUSH1 0x24 PUSH1 0x0 REVERT JUMPDEST SWAP1 DUP2 PUSH1 0x20 SWAP2 SUB SLT PUSH2 0xA7C JUMPI MLOAD DUP1 ISZERO ISZERO DUP2 SUB PUSH2 0xA7C JUMPI SWAP1 JUMP JUMPDEST PUSH1 0x1 SLOAD PUSH1 0x1 PUSH1 0x1 PUSH1 0xA0 SHL SUB AND CALLER SUB PUSH2 0x50F3 JUMPI JUMP JUMPDEST PUSH1 0x40 MLOAD PUSH4 0x118CDAA7 PUSH1 0xE0 SHL DUP2 MSTORE CALLER PUSH1 0x4 DUP3 ADD MSTORE PUSH1 0x24 SWAP1 REVERT JUMPDEST PUSH1 0xFF PUSH1 0x1 SLOAD PUSH1 0xA0 SHR AND PUSH2 0x511A JUMPI JUMP JUMPDEST PUSH1 0x40 MLOAD PUSH4 0xD93C0665 PUSH1 0xE0 SHL DUP2 MSTORE PUSH1 0x4 SWAP1 REVERT JUMPDEST PUSH1 0x12 SLOAD SWAP1 PUSH1 0x0 JUMPDEST DUP3 PUSH1 0x0 MSTORE PUSH1 0x10 PUSH1 0x20 MSTORE PUSH1 0x40 PUSH1 0x0 KECCAK256 DUP1 SLOAD DUP3 LT ISZERO PUSH2 0x5180 JUMPI DUP2 PUSH2 0x5154 SWAP2 PUSH2 0x4880 JUMP JUMPDEST SWAP1 SLOAD PUSH1 0x3 SWAP2 SWAP1 SWAP2 SHL SHR PUSH1 0x1 PUSH1 0x1 PUSH1 0xA0 SHL SUB SWAP1 DUP2 AND SWAP1 DUP4 AND EQ PUSH2 0x5178 JUMPI PUSH1 0x1 ADD PUSH2 0x5133 JUMP JUMPDEST POP POP POP PUSH1 0x1 SWAP1 JUMP JUMPDEST POP POP POP POP PUSH1 0x0 SWAP1 JUMP JUMPDEST PUSH1 0x2 PUSH1 0x0 SLOAD EQ PUSH2 0x519A JUMPI PUSH1 0x2 PUSH1 0x0 SSTORE JUMP JUMPDEST PUSH1 0x40 MLOAD PUSH4 0x3EE5AEB5 PUSH1 0xE0 SHL DUP2 MSTORE PUSH1 0x4 SWAP1 REVERT JUMPDEST DUP2 ISZERO PUSH2 0x5252 JUMPI PUSH2 0x3E8 DUP3 GT PUSH2 0x5214 JUMPI PUSH1 0x1 DUP1 PUSH1 0xA0 SHL SUB AND SWAP1 PUSH1 0x0 SWAP1 DUP3 DUP3 MSTORE PUSH1 0x20 SWAP1 DUP2 DUP1 MSTORE PUSH2 0x51DE DUP2 PUSH1 0x40 DUP6 KECCAK256 SLOAD PUSH2 0x4D47 JUMP JUMPDEST PUSH1 0x64 DUP2 GT PUSH2 0xEF3 JUMPI PUSH1 0x40 SWAP3 PUSH2 0x520B DUP6 SWAP4 PUSH1 0x1A SWAP4 DUP9 PUSH1 0xE SWAP9 MSTORE DUP4 DUP1 MSTORE DUP7 DUP7 KECCAK256 SSTORE DUP4 DUP4 MSTORE DUP7 DUP7 DUP7 KECCAK256 ADD SLOAD PUSH2 0x4D47 JUMP JUMPDEST SWAP6 DUP4 MSTORE MSTORE KECCAK256 ADD SSTORE JUMP JUMPDEST PUSH1 0x40 MLOAD PUSH3 0x461BCD PUSH1 0xE5 SHL DUP2 MSTORE PUSH1 0x20 PUSH1 0x4 DUP3 ADD MSTORE PUSH1 0x16 PUSH1 0x24 DUP3 ADD MSTORE PUSH22 0xA4CAEEC2E4C840C2DADEEADCE840E8DEDE40D0D2CED PUSH1 0x53 SHL PUSH1 0x44 DUP3 ADD MSTORE PUSH1 0x64 SWAP1 REVERT JUMPDEST PUSH1 0x40 MLOAD PUSH3 0x461BCD PUSH1 0xE5 SHL DUP2 MSTORE PUSH1 0x20 PUSH1 0x4 DUP3 ADD MSTORE PUSH1 0x1E PUSH1 0x24 DUP3 ADD MSTORE PUSH32 0x52657761726420616D6F756E74206D75737420626520706F7369746976650000 PUSH1 0x44 DUP3 ADD MSTORE PUSH1 0x64 SWAP1 REVERT JUMPDEST PUSH1 0x0 NOT DUP2 EQ PUSH2 0xEDD JUMPI PUSH1 0x1 ADD SWAP1 JUMP JUMPDEST SWAP1 PUSH1 0x40 SWAP1 DUP2 MLOAD SWAP1 PUSH2 0x52B6 DUP3 PUSH2 0x49B2 JUMP JUMPDEST PUSH1 0x8 SWAP3 PUSH1 0x8 DUP4 MSTORE PUSH1 0x20 SWAP1 PUSH2 0x100 CALLDATASIZE DUP4 DUP7 ADD CALLDATACOPY PUSH1 0x0 SWAP2 DUP7 DUP4 MSTORE PUSH1 0x1D DUP2 MSTORE PUSH1 0x7 DUP3 DUP5 KECCAK256 ADD SLOAD SWAP2 DUP3 ISZERO PUSH2 0x53F5 JUMPI PUSH1 0x2 SLOAD DUP2 MLOAD PUSH4 0x1DAAF1B1 PUSH1 0xE1 SHL DUP2 MSTORE PUSH1 0x4 DUP2 ADD SWAP5 SWAP1 SWAP5 MSTORE PUSH1 0x1 PUSH1 0x1 PUSH1 0xA0 SHL SUB SWAP9 SWAP1 DUP4 SWAP1 DUP6 SWAP1 PUSH1 0x24 SWAP1 DUP3 SWAP1 DUP14 AND GAS STATICCALL SWAP4 DUP5 ISZERO PUSH2 0x53EB JUMPI DUP6 SWAP5 PUSH2 0x53B8 JUMPI JUMPDEST POP DUP4 ISZERO PUSH2 0x53AC JUMPI DUP5 MSTORE PUSH1 0xA DUP3 MSTORE DUP1 DUP5 KECCAK256 SWAP5 DUP6 SLOAD SWAP5 DUP6 ISZERO PUSH2 0x5396 JUMPI JUMPDEST DUP9 DUP2 LT DUP1 PUSH2 0x53A3 JUMPI JUMPDEST ISZERO PUSH2 0x5396 JUMPI PUSH2 0x5391 SWAP1 DUP11 PUSH2 0x5379 PUSH2 0x5373 DUP10 DUP8 MLOAD DUP10 DUP2 ADD SWAP1 DUP12 DUP3 MSTORE DUP7 DUP11 DUP3 ADD MSTORE DUP10 DUP2 MSTORE PUSH2 0x536B DUP2 PUSH2 0x497C JUMP JUMPDEST MLOAD SWAP1 KECCAK256 PUSH2 0x50A7 JUMP JUMPDEST DUP11 PUSH2 0x4880 JUMP JUMPDEST SWAP1 SLOAD SWAP1 PUSH1 0x3 SHL SHR AND PUSH2 0x538B DUP3 DUP12 PUSH2 0x4F74 JUMP JUMPDEST MSTORE PUSH2 0x5297 JUMP JUMPDEST PUSH2 0x5337 JUMP JUMPDEST POP SWAP8 POP POP POP POP POP POP SWAP1 POP SWAP1 JUMP JUMPDEST POP DUP6 DUP2 LT PUSH2 0x5340 JUMP JUMPDEST POP POP POP POP POP SWAP3 POP SWAP1 POP SWAP1 JUMP JUMPDEST SWAP1 SWAP4 POP DUP3 DUP2 DUP2 RETURNDATASIZE DUP4 GT PUSH2 0x53E4 JUMPI JUMPDEST PUSH2 0x53D0 DUP2 DUP4 PUSH2 0x49CE JUMP JUMPDEST DUP2 ADD SUB SLT PUSH2 0x53E0 JUMPI MLOAD SWAP3 CODESIZE PUSH2 0x531C JUMP JUMPDEST DUP5 DUP1 REVERT JUMPDEST POP RETURNDATASIZE PUSH2 0x53C6 JUMP JUMPDEST DUP3 MLOAD RETURNDATASIZE DUP8 DUP3 RETURNDATACOPY RETURNDATASIZE SWAP1 REVERT JUMPDEST POP POP POP POP SWAP3 POP SWAP1 POP SWAP1 JUMP JUMPDEST PUSH1 0x4 PUSH2 0x540C DUP2 SLOAD PUSH2 0x5297 JUMP JUMPDEST DUP1 DUP3 SSTORE PUSH3 0x15180 TIMESTAMP ADD DUP1 TIMESTAMP GT PUSH2 0x5567 JUMPI PUSH1 0x40 MLOAD SWAP3 PUSH2 0x5429 DUP5 PUSH2 0x4961 JUMP JUMPDEST PUSH1 0x0 SWAP1 DUP2 DUP6 MSTORE PUSH1 0x40 MLOAD SWAP5 PUSH2 0x543C DUP7 PUSH2 0x4917 JUMP JUMPDEST DUP5 DUP7 MSTORE PUSH1 0x20 SWAP3 DUP4 DUP8 ADD SWAP4 TIMESTAMP DUP6 MSTORE PUSH1 0x40 DUP9 ADD SWAP6 DUP7 MSTORE PUSH1 0x60 DUP9 ADD DUP3 DUP2 MSTORE PUSH1 0x80 DUP10 ADD SWAP1 DUP4 DUP3 MSTORE PUSH1 0xA0 DUP11 ADD SWAP5 DUP6 MSTORE PUSH1 0xC0 DUP11 ADD SWAP8 DUP5 DUP10 MSTORE PUSH1 0xE0 DUP12 ADD SWAP10 DUP6 DUP12 MSTORE DUP6 MSTORE PUSH1 0x1D DUP5 MSTORE PUSH1 0x40 DUP6 KECCAK256 SWAP11 MLOAD DUP12 SSTORE PUSH1 0x1 SWAP8 MLOAD PUSH1 0x1 DUP13 ADD SSTORE MLOAD PUSH1 0x2 DUP12 ADD SSTORE MLOAD PUSH1 0x3 DUP11 ADD SSTORE MLOAD DUP5 DUP10 ADD SSTORE PUSH1 0x5 DUP9 ADD SWAP3 MLOAD DUP1 MLOAD SWAP5 PUSH1 0x1 PUSH1 0x1 PUSH1 0x40 SHL SUB DUP7 GT PUSH2 0x5554 JUMPI PUSH1 0x1 PUSH1 0x40 SHL DUP7 GT PUSH2 0x5554 JUMPI POP DUP2 SWAP1 DUP5 SLOAD DUP7 DUP7 SSTORE DUP1 DUP8 LT PUSH2 0x552A JUMPI JUMPDEST POP ADD SWAP3 DUP3 MSTORE DUP1 DUP3 KECCAK256 SWAP2 JUMPDEST DUP5 DUP2 LT PUSH2 0x5510 JUMPI POP POP POP POP POP POP SWAP1 PUSH2 0x5506 PUSH1 0x7 SWAP3 MLOAD ISZERO ISZERO PUSH1 0x6 DUP6 ADD SWAP1 PUSH1 0xFF DUP1 NOT DUP4 SLOAD AND SWAP2 ISZERO ISZERO AND OR SWAP1 SSTORE JUMP JUMPDEST MLOAD SWAP2 ADD SSTORE TIMESTAMP PUSH1 0x7 SSTORE JUMP JUMPDEST DUP4 MLOAD PUSH1 0x1 PUSH1 0x1 PUSH1 0xA0 SHL SUB AND DUP4 DUP3 ADD SSTORE SWAP3 DUP2 ADD SWAP3 DUP6 ADD PUSH2 0x54DA JUMP JUMPDEST DUP6 DUP6 MSTORE DUP8 DUP8 DUP5 DUP8 KECCAK256 SWAP3 DUP4 ADD SWAP3 ADD JUMPDEST DUP3 DUP2 LT PUSH2 0x5546 JUMPI POP POP PUSH2 0x54D0 JUMP JUMPDEST DUP7 DUP2 SSTORE DUP6 SWAP5 POP DUP10 SWAP2 ADD PUSH2 0x5538 JUMP JUMPDEST PUSH4 0x4E487B71 PUSH1 0xE0 SHL DUP5 MSTORE PUSH1 0x41 SWAP1 MSTORE PUSH1 0x24 DUP4 REVERT JUMPDEST PUSH1 0x11 DUP4 PUSH4 0x4E487B71 PUSH1 0xE0 SHL PUSH1 0x0 MSTORE MSTORE PUSH1 0x24 PUSH1 0x0 REVERT JUMPDEST PUSH1 0x1 DUP1 PUSH1 0xA0 SHL SUB AND PUSH1 0x0 SWAP1 DUP1 DUP3 MSTORE PUSH1 0x22 PUSH1 0x20 MSTORE PUSH1 0x1E PUSH2 0x559F PUSH1 0x40 DUP5 KECCAK256 SLOAD TIMESTAMP PUSH2 0x505B JUMP JUMPDEST LT PUSH2 0x55D3 JUMPI DUP2 MSTORE PUSH1 0x1A PUSH1 0x20 MSTORE PUSH1 0xA PUSH1 0x1 PUSH1 0x40 DUP4 KECCAK256 ADD SLOAD GT PUSH2 0x55CD JUMPI PUSH1 0x20 DUP1 MSTORE PUSH1 0x64 PUSH1 0x40 DUP3 KECCAK256 SLOAD GT PUSH2 0x55CD JUMPI SWAP1 JUMP JUMPDEST POP PUSH1 0x1 SWAP1 JUMP JUMPDEST POP POP PUSH1 0x1 SWAP1 JUMP JUMPDEST SWAP1 PUSH2 0x55E4 DUP3 PUSH2 0x49EF JUMP JUMPDEST PUSH2 0x55F1 PUSH1 0x40 MLOAD SWAP2 DUP3 PUSH2 0x49CE JUMP JUMPDEST DUP3 DUP2 MSTORE DUP1 SWAP3 PUSH2 0x5602 PUSH1 0x1F NOT SWAP2 PUSH2 0x49EF JUMP JUMPDEST ADD SWAP1 PUSH1 0x20 CALLDATASIZE SWAP2 ADD CALLDATACOPY JUMP JUMPDEST SWAP1 DUP2 MLOAD DUP2 LT ISZERO PUSH2 0x4898 JUMPI ADD PUSH1 0x20 ADD SWAP1 JUMP JUMPDEST DUP1 MLOAD PUSH1 0x3 DUP2 LT SWAP1 DUP2 ISZERO PUSH2 0x5825 JUMPI JUMPDEST POP PUSH2 0x581F JUMPI PUSH1 0x0 JUMPDEST DUP2 MLOAD DUP2 LT ISZERO PUSH2 0x56EF JUMPI PUSH1 0x1 PUSH1 0x1 PUSH1 0xF8 SHL SUB NOT PUSH2 0x564F DUP3 DUP5 PUSH2 0x560C JUMP JUMPDEST MLOAD AND PUSH1 0x3 PUSH1 0xFC SHL DUP2 LT ISZERO SWAP1 DUP2 PUSH2 0x56E0 JUMPI JUMPDEST DUP2 ISZERO PUSH2 0x56BC JUMPI JUMPDEST DUP2 ISZERO PUSH2 0x5698 JUMPI JUMPDEST DUP2 ISZERO PUSH2 0x568A JUMPI JUMPDEST POP ISZERO PUSH2 0x5683 JUMPI PUSH1 0x1 ADD PUSH2 0x5633 JUMP JUMPDEST POP POP PUSH1 0x0 SWAP1 JUMP JUMPDEST PUSH1 0x5F PUSH1 0xF8 SHL EQ SWAP1 POP CODESIZE PUSH2 0x5675 JUMP JUMPDEST SWAP1 POP PUSH1 0x61 PUSH1 0xF8 SHL DUP2 LT ISZERO DUP1 PUSH2 0x56AE JUMPI JUMPDEST SWAP1 PUSH2 0x566E JUMP JUMPDEST POP PUSH1 0x3D PUSH1 0xF9 SHL DUP2 GT ISZERO PUSH2 0x56A8 JUMP JUMPDEST SWAP1 POP PUSH1 0x41 PUSH1 0xF8 SHL DUP2 LT ISZERO DUP1 PUSH2 0x56D2 JUMPI JUMPDEST SWAP1 PUSH2 0x5667 JUMP JUMPDEST POP PUSH1 0x2D PUSH1 0xF9 SHL DUP2 GT ISZERO PUSH2 0x56CC JUMP JUMPDEST PUSH1 0x39 PUSH1 0xF8 SHL DUP2 GT ISZERO SWAP2 POP PUSH2 0x5660 JUMP JUMPDEST POP PUSH1 0x1 JUMPDEST DUP2 MLOAD DUP2 LT ISZERO PUSH2 0x5751 JUMPI PUSH1 0x1 PUSH1 0x1 PUSH1 0xF8 SHL SUB NOT PUSH1 0x5F PUSH1 0xF8 SHL DUP1 DUP3 PUSH2 0x5716 DUP6 DUP8 PUSH2 0x560C JUMP JUMPDEST MLOAD AND EQ SWAP2 DUP3 PUSH2 0x572E JUMPI JUMPDEST POP POP PUSH2 0x5683 JUMPI PUSH1 0x1 ADD PUSH2 0x56F3 JUMP JUMPDEST SWAP1 SWAP2 POP PUSH1 0x0 NOT DUP4 ADD DUP4 DUP2 GT PUSH2 0xEDD JUMPI PUSH2 0x5747 SWAP1 DUP6 PUSH2 0x560C JUMP JUMPDEST MLOAD AND EQ CODESIZE DUP1 PUSH2 0x5720 JUMP JUMPDEST POP SWAP1 PUSH2 0x575D DUP3 MLOAD PUSH2 0x55DA JUMP JUMPDEST PUSH1 0x0 JUMPDEST DUP4 MLOAD DUP2 LT ISZERO PUSH2 0x5805 JUMPI PUSH1 0x1 PUSH1 0x1 PUSH1 0xF8 SHL SUB NOT SWAP1 PUSH1 0x61 PUSH1 0xF8 SHL DUP3 PUSH2 0x5783 DUP4 DUP9 PUSH2 0x560C JUMP JUMPDEST MLOAD AND LT ISZERO DUP1 PUSH2 0x57EB JUMPI JUMPDEST ISZERO PUSH2 0x57C9 JUMPI PUSH2 0x579C DUP2 DUP7 PUSH2 0x560C JUMP JUMPDEST MLOAD PUSH1 0xF8 SWAP3 SWAP1 DUP4 SHR PUSH1 0x1F NOT ADD PUSH1 0xFF DUP2 GT PUSH2 0xEDD JUMPI PUSH1 0x1 SWAP4 SHL AND PUSH1 0x0 BYTE PUSH2 0x57C1 DUP3 DUP6 PUSH2 0x560C JUMP JUMPDEST MSTORE8 JUMPDEST ADD PUSH2 0x5760 JUMP JUMPDEST PUSH1 0x1 SWAP2 PUSH2 0x57D6 DUP3 DUP8 PUSH2 0x560C JUMP JUMPDEST MLOAD AND PUSH1 0x0 BYTE PUSH2 0x57E5 DUP3 DUP6 PUSH2 0x560C JUMP JUMPDEST MSTORE8 PUSH2 0x57C3 JUMP JUMPDEST POP PUSH1 0x3D PUSH1 0xF9 SHL DUP3 PUSH2 0x57FC DUP4 DUP9 PUSH2 0x560C JUMP JUMPDEST MLOAD AND GT ISZERO PUSH2 0x578D JUMP JUMPDEST POP PUSH2 0x5811 SWAP2 SWAP3 POP PUSH2 0x598D JUMP JUMPDEST PUSH2 0x581A JUMPI PUSH1 0x1 SWAP1 JUMP JUMPDEST PUSH1 0x0 SWAP1 JUMP JUMPDEST POP PUSH1 0x0 SWAP1 JUMP JUMPDEST PUSH1 0x32 SWAP2 POP GT CODESIZE PUSH2 0x562B JUMP JUMPDEST SWAP1 PUSH1 0x40 SWAP2 PUSH1 0x40 MLOAD SWAP3 PUSH2 0x5841 DUP5 PUSH2 0x49B2 JUMP JUMPDEST PUSH1 0x8 SWAP3 PUSH1 0x8 DUP6 MSTORE PUSH1 0x20 PUSH2 0x100 CALLDATASIZE PUSH1 0x20 DUP9 ADD CALLDATACOPY PUSH1 0x0 SWAP2 DUP5 PUSH1 0x0 MSTORE PUSH1 0xB PUSH1 0x20 MSTORE PUSH1 0x40 PUSH1 0x0 KECCAK256 SLOAD SWAP1 DUP2 ISZERO PUSH2 0x58E5 JUMPI PUSH1 0x0 JUMPDEST DUP8 DUP2 LT PUSH2 0x5881 JUMPI POP POP POP POP POP POP POP POP SWAP1 JUMP JUMPDEST PUSH1 0x1 SWAP1 PUSH2 0x58C6 PUSH2 0x58B7 DUP6 DUP10 MLOAD DUP9 DUP2 ADD SWAP1 DUP8 DUP3 MSTORE DUP6 DUP13 DUP3 ADD MSTORE TIMESTAMP PUSH1 0x60 DUP3 ADD MSTORE PREVRANDAO PUSH1 0x80 DUP3 ADD MSTORE PUSH1 0xA0 DUP14 DUP2 DUP4 ADD MSTORE DUP2 MSTORE PUSH2 0x536B DUP2 PUSH2 0x4997 JUMP JUMPDEST DUP10 DUP9 MSTORE PUSH1 0xA DUP8 MSTORE DUP9 DUP9 KECCAK256 PUSH2 0x4880 JUMP JUMPDEST DUP4 DUP1 PUSH1 0xA0 SHL SUB SWAP2 SLOAD SWAP1 PUSH1 0x3 SHL SHR AND PUSH2 0x58DE DUP3 DUP13 PUSH2 0x4F74 JUMP JUMPDEST MSTORE ADD PUSH2 0x586F JUMP JUMPDEST POP POP POP POP POP POP POP SWAP1 JUMP JUMPDEST DUP1 ISZERO PUSH2 0x596F JUMPI DUP1 PUSH1 0x0 DUP2 DUP1 JUMPDEST PUSH2 0x5957 JUMPI POP PUSH2 0x5909 DUP2 PUSH2 0x55DA JUMP JUMPDEST SWAP3 JUMPDEST PUSH2 0x5914 JUMPI POP POP SWAP1 JUMP JUMPDEST PUSH1 0x0 NOT DUP2 ADD SWAP1 DUP2 GT PUSH2 0xEDD JUMPI DUP1 SWAP2 PUSH1 0xA SWAP2 PUSH1 0x30 DUP4 DUP4 MOD DUP2 ADD DUP1 SWAP2 GT PUSH2 0xEDD JUMPI PUSH1 0xF8 SHL PUSH1 0x1 PUSH1 0x1 PUSH1 0xF8 SHL SUB NOT AND PUSH1 0x0 BYTE SWAP1 PUSH2 0x594E SWAP1 DUP7 PUSH2 0x560C JUMP JUMPDEST MSTORE8 DIV SWAP1 DUP2 PUSH2 0x590B JUMP JUMPDEST SWAP2 POP PUSH2 0x5964 PUSH1 0xA SWAP2 PUSH2 0x5297 JUMP JUMPDEST SWAP2 DIV DUP1 DUP4 SWAP3 SWAP2 PUSH2 0x58FB JUMP JUMPDEST POP PUSH1 0x40 MLOAD PUSH2 0x597C DUP2 PUSH2 0x4946 JUMP JUMPDEST PUSH1 0x1 DUP2 MSTORE PUSH1 0x3 PUSH1 0xFC SHL PUSH1 0x20 DUP3 ADD MSTORE SWAP1 JUMP JUMPDEST PUSH1 0x40 DUP1 MLOAD SWAP1 PUSH2 0x599B DUP3 PUSH2 0x4997 JUMP JUMPDEST PUSH1 0x5 DUP3 MSTORE PUSH1 0x0 JUMPDEST PUSH1 0xA0 DUP2 LT PUSH2 0x5AD2 JUMPI POP DUP1 MLOAD PUSH2 0x59B6 DUP2 PUSH2 0x4946 JUMP JUMPDEST PUSH1 0x5 DUP2 MSTORE PUSH5 0x20A226A4A7 PUSH1 0xD9 SHL PUSH1 0x20 DUP3 ADD MSTORE PUSH2 0x59D1 DUP4 PUSH2 0x4F27 JUMP JUMPDEST MSTORE PUSH2 0x59DB DUP3 PUSH2 0x4F27 JUMP JUMPDEST POP DUP1 MLOAD PUSH2 0x59E7 DUP2 PUSH2 0x4946 JUMP JUMPDEST PUSH1 0x5 DUP2 MSTORE PUSH5 0x27ABA722A9 PUSH1 0xD9 SHL PUSH1 0x20 DUP3 ADD MSTORE PUSH2 0x5A02 DUP4 PUSH2 0x4F34 JUMP JUMPDEST MSTORE PUSH2 0x5A0C DUP3 PUSH2 0x4F34 JUMP JUMPDEST POP DUP1 MLOAD PUSH2 0x5A18 DUP2 PUSH2 0x4946 JUMP JUMPDEST PUSH1 0x6 DUP2 MSTORE PUSH6 0x53595354454D PUSH1 0xD0 SHL PUSH1 0x20 DUP3 ADD MSTORE PUSH2 0x5A34 DUP4 PUSH2 0x4F44 JUMP JUMPDEST MSTORE PUSH2 0x5A3E DUP3 PUSH2 0x4F44 JUMP JUMPDEST POP DUP1 MLOAD PUSH2 0x5A4A DUP2 PUSH2 0x4946 JUMP JUMPDEST PUSH1 0x4 DUP2 MSTORE PUSH4 0x13955313 PUSH1 0xE2 SHL PUSH1 0x20 DUP3 ADD MSTORE PUSH2 0x5A64 DUP4 PUSH2 0x4F54 JUMP JUMPDEST MSTORE PUSH2 0x5A6E DUP3 PUSH2 0x4F54 JUMP JUMPDEST POP MLOAD PUSH2 0x5A79 DUP2 PUSH2 0x4946 JUMP JUMPDEST PUSH1 0x4 DUP2 MSTORE PUSH4 0x151154D5 PUSH1 0xE2 SHL PUSH1 0x20 DUP3 ADD MSTORE PUSH2 0x5A93 DUP3 PUSH2 0x4F64 JUMP JUMPDEST MSTORE PUSH2 0x5A9D DUP2 PUSH2 0x4F64 JUMP JUMPDEST POP PUSH1 0x0 JUMPDEST DUP2 MLOAD DUP2 LT ISZERO PUSH2 0x5ACA JUMPI PUSH2 0x5ABE PUSH2 0x5AB7 DUP3 DUP5 PUSH2 0x4F74 JUMP JUMPDEST MLOAD DUP5 PUSH2 0x5AE3 JUMP JUMPDEST PUSH2 0x5178 JUMPI PUSH1 0x1 ADD PUSH2 0x5AA1 JUMP JUMPDEST POP POP POP PUSH1 0x0 SWAP1 JUMP JUMPDEST DUP1 PUSH1 0x60 PUSH1 0x20 DUP1 SWAP4 DUP7 ADD ADD MSTORE ADD PUSH2 0x59A2 JUMP JUMPDEST SWAP1 DUP1 MLOAD DUP3 MLOAD LT PUSH2 0x5683 JUMPI PUSH1 0x0 SWAP1 JUMPDEST PUSH2 0x5AFE DUP4 MLOAD DUP3 MLOAD SWAP1 PUSH2 0x505B JUMP JUMPDEST DUP3 GT PUSH2 0x5ACA JUMPI PUSH1 0x1 SWAP3 PUSH1 0x0 JUMPDEST DUP3 MLOAD DUP2 LT ISZERO PUSH2 0x5B66 JUMPI PUSH1 0x1 PUSH1 0x1 PUSH1 0xF8 SHL SUB NOT DUP1 PUSH2 0x5B30 PUSH2 0x5B2A DUP5 DUP9 PUSH2 0x4D47 JUMP JUMPDEST DUP6 PUSH2 0x560C JUMP JUMPDEST MLOAD AND SWAP1 PUSH2 0x5B3D DUP4 DUP7 PUSH2 0x560C JUMP JUMPDEST MLOAD AND SUB PUSH2 0x5B4C JUMPI PUSH1 0x1 ADD PUSH2 0x5B0A JUMP JUMPDEST POP SWAP3 POP SWAP1 PUSH1 0x0 JUMPDEST PUSH2 0x5178 JUMPI PUSH2 0x5B60 SWAP1 PUSH2 0x5297 JUMP JUMPDEST SWAP1 PUSH2 0x5AF1 JUMP JUMPDEST POP SWAP3 SWAP2 SWAP1 SWAP2 PUSH2 0x5B53 JUMP INVALID SWAP8 PUSH7 0x7070C54EF182B0 CREATE2 DUP6 DUP12 SUB 0x4B 0xEA 0xC1 0xB6 RETURN ADDMOD SWAP11 LOG2 0xD3 XOR DUP12 0xB1 0xE8 SWAP3 SWAP16 0x4F 0xA9 0xB9 0x29 NOT MLOAD DUP9 0xE7 0xE2 0xA9 0xC9 CHAINID 0xC9 SGT OR SWAP5 PUSH1 0x30 BLOBHASH 0xC EXTCODESIZE LOG4 DUP11 JUMPDEST PUSH32 0x867101928826FA4CC609C5A2646970667358221220FC425B506C5F22DED419FA INVALID GAS ADDRESS BLOBBASEFEE SIGNEXTEND RETURN 0xD9 SWAP16 PUSH32 0x1B4EF730DEA272D33FB00AE64736F6C63430008180033000000000000000000 "},"methodIdentifiers":{"ADMIN_ROLE()":"75b238fc","AUDITOR_ROLE()":"6e1d616e","BASE_SEPOLIA_HOLDING_REWARD()":"8c267e0d","BATCH_SIZE()":"49faa4d4","DAILY_PLAY_REWARD()":"dd23b9cb","DAILY_WINNERS_COUNT()":"16fa1086","DOLLAR_ENTRY_FEE()":"c5d32157","EMERGENCY_ROLE()":"20df4359","ENTRY_COOLDOWN()":"a9b8b451","FIRST_ORDER_REWARD()":"69396e88","GAS_OPTIMIZATION_INTERVAL()":"a37c1572","JACKPOT_ENTRY_COST()":"4b75344e","JACKPOT_MULTIPLIER()":"7a7eb1f4","LOYALTY_POINTS_PER_DOLLAR()":"f8172fe3","MAX_DAILY_ENTRIES()":"bbc3ced7","MAX_DAILY_REWARDS()":"d136a94d","MAX_JACKPOT_ENTRIES()":"39d8ea42","MAX_PRICE_DEVIATION()":"96f277b7","MAX_REFERRAL_CODE_LENGTH()":"9b95f1fc","MAX_REWARD_AMOUNT()":"a04f6b4b","MIN_BASE_SEPOLIA_HOLDING()":"9b5a139a","MIN_REFERRAL_CODE_LENGTH()":"e443e279","OPERATOR_ROLE()":"f5b541a6","PRICE_UPDATE_THRESHOLD()":"098655d9","REFERRAL_REWARD()":"84a3a0f3","STREAK_BONUS()":"bcf64475","WEEKLY_WINNERS_COUNT()":"0d9f92ca","addJackpotEntry()":"b87fc22d","awardBaseSepoliaHoldingsToppings()":"d5fa40e3","awardLoyaltyPoints()":"74631fd7","awardStreakBonus()":"25b7f388","batchProcessingActive(uint256)":"bf757624","batchProcessingNonce(uint256)":"79675127","blacklistedAddresses(address)":"d5749d42","claimFirstOrderReward()":"e22cb9c9","claimWeeklyChallengeReward(uint256)":"2618cafd","contributeEntropy(bytes32)":"1472cbe3","createReferralCode()":"2e108d1c","currentDailyJackpot()":"e3d440a7","currentRandomnessRound()":"bb6bf0f0","currentWeeklyJackpot()":"3bb4f638","dailyPlayerCount(uint256)":"ffc39504","dailyPlayers(uint256,uint256)":"4eb692a5","drawDailyWinners()":"3fb83a54","drawWeeklyWinners()":"52861f7f","emergencyPause(bool)":"e8f6940e","emergencyUnlockGame(uint256)":"e82aefc7","emergencyWithdraw()":"db2e21bc","enterDailyGame(string)":"5c27b2e4","entropyContributions(uint256)":"cf376677","entropyContributors(uint256,uint256)":"0c89d127","entropyRoundId()":"59db6fe6","gameStateLocked(uint256)":"2a243f19","games(uint256)":"117a5b90","gasOptimizationThreshold()":"ee892e64","generateSecureRandomness()":"cb955e6b","getCurrentEntryFee()":"0aa01695","getCurrentGame()":"968d901b","getCurrentVMFPrice()":"786a78c6","getGame(uint256)":"a2f77bcc","getGasUsageStats()":"aea664a5","getJackpotState(uint256)":"3f781412","getPlayerInfo(address)":"59328401","getReferralInfo(address)":"21874ae2","grantRole(bytes32,address)":"2f2ff15d","hasEnteredToday(address)":"ba53ba24","hasRole(bytes32,address)":"91d14854","jackpotStateHash(uint256)":"67cafabb","jackpotUpdateCooldown()":"b8caead6","jackpotUpdateNonce(uint256)":"d2111791","lastDailyDraw()":"7550b84f","lastEntropyUpdate()":"2ee8b778","lastGasOptimization()":"28100aca","lastJackpotUpdate()":"19bf155d","lastWeeklyDraw()":"c14e1e05","optimizeGasUsage()":"59a9867e","owner()":"8da5cb5b","paused()":"5c975abb","players(address)":"e2eb41ff","priceOracle()":"2630c12f","processBatchPlayers(address[],uint256[])":"3a65126a","randomnessContract()":"41fe39ec","randomnessSeeds(uint256)":"a88066f7","referralCodes(string)":"2655e840","referrals(address)":"9ca423b3","renounceOwnership()":"715018a6","requestDailyRandomness()":"0b00a5db","revealRandomness(uint256,uint256,bytes32)":"a154fc6b","revokeRole(bytes32,address)":"d547741f","roleAdmins(bytes32)":"8543210d","roles(bytes32,address)":"f8fc08b9","selectDailyWinners()":"eb0fb2c8","setJackpotUpdateCooldown(uint256)":"6ce497b2","setPlayerBlacklist(address,bool)":"43f2a080","setRoleAdmin(bytes32,address)":"ad763192","submitRandomnessCommitment(uint256,bytes32)":"e3505b14","transferOwnership(address)":"f2fde38b","updateJackpotAtomic(uint256,uint256,bytes32)":"71e4206d","userDailyRewards(address)":"2ff7a52d","userLastActivity(address)":"77ce2992","userRateLimitEnd(address)":"03fa2c63","vmfToken()":"2086eefa","weeklyChallenges(uint256)":"4f55e8ad","weeklyPlayerCount(uint256)":"d61b86bb","weeklyPlayers(uint256,uint256)":"920736e5"}}}}}