{"contracts/PizzaPartyWeeklyChallenges.sol":{"PizzaPartyWeeklyChallenges":{"abi":[{"inputs":[{"internalType":"address","name":"_vmfToken","type":"address"}],"stateMutability":"nonpayable","type":"constructor"},{"inputs":[],"name":"EnforcedPause","type":"error"},{"inputs":[],"name":"ExpectedPause","type":"error"},{"inputs":[{"internalType":"address","name":"owner","type":"address"}],"name":"OwnableInvalidOwner","type":"error"},{"inputs":[{"internalType":"address","name":"account","type":"address"}],"name":"OwnableUnauthorizedAccount","type":"error"},{"inputs":[],"name":"ReentrancyGuardReentrantCall","type":"error"},{"anonymous":false,"inputs":[{"indexed":false,"internalType":"string","name":"category","type":"string"}],"name":"CategoryCreated","type":"event"},{"anonymous":false,"inputs":[{"indexed":true,"internalType":"uint256","name":"challengeId","type":"uint256"},{"indexed":true,"internalType":"address","name":"player","type":"address"},{"indexed":false,"internalType":"uint256","name":"rewardAmount","type":"uint256"},{"indexed":false,"internalType":"uint256","name":"completionTime","type":"uint256"}],"name":"ChallengeCompleted","type":"event"},{"anonymous":false,"inputs":[{"indexed":true,"internalType":"uint256","name":"challengeId","type":"uint256"},{"indexed":false,"internalType":"string","name":"title","type":"string"},{"indexed":false,"internalType":"string","name":"category","type":"string"},{"indexed":false,"internalType":"uint256","name":"rewardAmount","type":"uint256"},{"indexed":false,"internalType":"uint256","name":"difficulty","type":"uint256"},{"indexed":false,"internalType":"uint256","name":"startTime","type":"uint256"},{"indexed":false,"internalType":"uint256","name":"endTime","type":"uint256"}],"name":"ChallengeCreated","type":"event"},{"anonymous":false,"inputs":[{"indexed":true,"internalType":"uint256","name":"challengeId","type":"uint256"},{"indexed":true,"internalType":"address","name":"player","type":"address"},{"indexed":false,"internalType":"uint256","name":"timestamp","type":"uint256"}],"name":"ChallengeJoined","type":"event"},{"anonymous":false,"inputs":[{"indexed":true,"internalType":"address","name":"previousOwner","type":"address"},{"indexed":true,"internalType":"address","name":"newOwner","type":"address"}],"name":"OwnershipTransferred","type":"event"},{"anonymous":false,"inputs":[{"indexed":false,"internalType":"address","name":"account","type":"address"}],"name":"Paused","type":"event"},{"anonymous":false,"inputs":[{"indexed":true,"internalType":"address","name":"player","type":"address"},{"indexed":false,"internalType":"uint256","name":"oldStreak","type":"uint256"},{"indexed":false,"internalType":"uint256","name":"newStreak","type":"uint256"},{"indexed":false,"internalType":"uint256","name":"bonusAmount","type":"uint256"}],"name":"StreakUpdated","type":"event"},{"anonymous":false,"inputs":[{"indexed":false,"internalType":"address","name":"account","type":"address"}],"name":"Unpaused","type":"event"},{"anonymous":false,"inputs":[{"indexed":true,"internalType":"address","name":"user","type":"address"},{"indexed":false,"internalType":"bool","name":"blacklisted","type":"bool"}],"name":"UserBlacklisted","type":"event"},{"anonymous":false,"inputs":[{"indexed":true,"internalType":"address","name":"player","type":"address"},{"indexed":false,"internalType":"uint256","name":"challengeId","type":"uint256"},{"indexed":false,"internalType":"uint256","name":"reward","type":"uint256"},{"indexed":false,"internalType":"uint256","name":"streak","type":"uint256"}],"name":"WeeklyChallengeCompleted","type":"event"},{"inputs":[],"name":"CHALLENGE_DURATION","outputs":[{"internalType":"uint256","name":"","type":"uint256"}],"stateMutability":"view","type":"function"},{"inputs":[],"name":"MAX_PARTICIPANTS","outputs":[{"internalType":"uint256","name":"","type":"uint256"}],"stateMutability":"view","type":"function"},{"inputs":[],"name":"MAX_REWARD_AMOUNT","outputs":[{"internalType":"uint256","name":"","type":"uint256"}],"stateMutability":"view","type":"function"},{"inputs":[],"name":"MIN_REWARD_AMOUNT","outputs":[{"internalType":"uint256","name":"","type":"uint256"}],"stateMutability":"view","type":"function"},{"inputs":[],"name":"STREAK_BONUS_MULTIPLIER","outputs":[{"internalType":"uint256","name":"","type":"uint256"}],"stateMutability":"view","type":"function"},{"inputs":[],"name":"activeUsers","outputs":[{"internalType":"uint256","name":"","type":"uint256"}],"stateMutability":"view","type":"function"},{"inputs":[{"internalType":"address","name":"","type":"address"}],"name":"blacklistedUsers","outputs":[{"internalType":"bool","name":"","type":"bool"}],"stateMutability":"view","type":"function"},{"inputs":[{"internalType":"string","name":"","type":"string"}],"name":"categoryChallengeCount","outputs":[{"internalType":"uint256","name":"","type":"uint256"}],"stateMutability":"view","type":"function"},{"inputs":[{"internalType":"uint256","name":"","type":"uint256"}],"name":"challengeCategories","outputs":[{"internalType":"string","name":"","type":"string"}],"stateMutability":"view","type":"function"},{"inputs":[{"internalType":"uint256","name":"","type":"uint256"}],"name":"challenges","outputs":[{"internalType":"uint256","name":"challengeId","type":"uint256"},{"internalType":"string","name":"title","type":"string"},{"internalType":"string","name":"description","type":"string"},{"internalType":"uint256","name":"rewardAmount","type":"uint256"},{"internalType":"uint256","name":"difficulty","type":"uint256"},{"internalType":"uint256","name":"startTime","type":"uint256"},{"internalType":"uint256","name":"endTime","type":"uint256"},{"internalType":"uint256","name":"maxParticipants","type":"uint256"},{"internalType":"uint256","name":"currentParticipants","type":"uint256"},{"internalType":"bool","name":"isActive","type":"bool"},{"internalType":"bool","name":"isCompleted","type":"bool"},{"internalType":"string","name":"category","type":"string"}],"stateMutability":"view","type":"function"},{"inputs":[{"internalType":"uint256","name":"challengeId","type":"uint256"},{"internalType":"string","name":"proof","type":"string"}],"name":"completeChallenge","outputs":[],"stateMutability":"nonpayable","type":"function"},{"inputs":[{"internalType":"string","name":"title","type":"string"},{"internalType":"string","name":"description","type":"string"},{"internalType":"uint256","name":"rewardAmount","type":"uint256"},{"internalType":"uint256","name":"difficulty","type":"uint256"},{"internalType":"string","name":"category","type":"string"},{"internalType":"uint256","name":"maxParticipants","type":"uint256"}],"name":"createChallenge","outputs":[],"stateMutability":"nonpayable","type":"function"},{"inputs":[],"name":"currentChallengeId","outputs":[{"internalType":"uint256","name":"","type":"uint256"}],"stateMutability":"view","type":"function"},{"inputs":[{"internalType":"bool","name":"pause","type":"bool"}],"name":"emergencyPause","outputs":[],"stateMutability":"nonpayable","type":"function"},{"inputs":[],"name":"emergencyWithdraw","outputs":[],"stateMutability":"nonpayable","type":"function"},{"inputs":[],"name":"getChallengeCategories","outputs":[{"internalType":"string[]","name":"","type":"string[]"}],"stateMutability":"view","type":"function"},{"inputs":[{"internalType":"uint256","name":"challengeId","type":"uint256"}],"name":"getChallengeInfo","outputs":[{"internalType":"string","name":"title","type":"string"},{"internalType":"string","name":"description","type":"string"},{"internalType":"uint256","name":"rewardAmount","type":"uint256"},{"internalType":"uint256","name":"difficulty","type":"uint256"},{"internalType":"uint256","name":"startTime","type":"uint256"},{"internalType":"uint256","name":"endTime","type":"uint256"},{"internalType":"uint256","name":"maxParticipants","type":"uint256"},{"internalType":"uint256","name":"currentParticipants","type":"uint256"},{"internalType":"bool","name":"isActive","type":"bool"},{"internalType":"bool","name":"isCompleted","type":"bool"},{"internalType":"string","name":"category","type":"string"}],"stateMutability":"view","type":"function"},{"inputs":[{"internalType":"uint256","name":"challengeId","type":"uint256"}],"name":"getChallengeParticipants","outputs":[{"internalType":"address[]","name":"","type":"address[]"}],"stateMutability":"view","type":"function"},{"inputs":[{"internalType":"address","name":"user","type":"address"}],"name":"getUserChallengeData","outputs":[{"components":[{"internalType":"uint256","name":"totalChallengesCompleted","type":"uint256"},{"internalType":"uint256","name":"totalRewardsEarned","type":"uint256"},{"internalType":"uint256","name":"currentStreak","type":"uint256"},{"internalType":"uint256","name":"longestStreak","type":"uint256"},{"internalType":"uint256","name":"lastCompletionTime","type":"uint256"},{"internalType":"uint256","name":"reputation","type":"uint256"},{"internalType":"bool","name":"isActive","type":"bool"}],"internalType":"struct PizzaPartyWeeklyChallenges.UserChallengeData","name":"","type":"tuple"}],"stateMutability":"view","type":"function"},{"inputs":[{"internalType":"address","name":"user","type":"address"},{"internalType":"uint256","name":"startIndex","type":"uint256"},{"internalType":"uint256","name":"count","type":"uint256"}],"name":"getUserCompletions","outputs":[{"components":[{"internalType":"uint256","name":"challengeId","type":"uint256"},{"internalType":"address","name":"player","type":"address"},{"internalType":"uint256","name":"completionTime","type":"uint256"},{"internalType":"uint256","name":"rewardAmount","type":"uint256"},{"internalType":"string","name":"proof","type":"string"},{"internalType":"bool","name":"isVerified","type":"bool"}],"internalType":"struct PizzaPartyWeeklyChallenges.ChallengeCompletion[]","name":"","type":"tuple[]"}],"stateMutability":"view","type":"function"},{"inputs":[{"internalType":"uint256","name":"challengeId","type":"uint256"}],"name":"joinChallenge","outputs":[],"stateMutability":"nonpayable","type":"function"},{"inputs":[],"name":"owner","outputs":[{"internalType":"address","name":"","type":"address"}],"stateMutability":"view","type":"function"},{"inputs":[],"name":"paused","outputs":[{"internalType":"bool","name":"","type":"bool"}],"stateMutability":"view","type":"function"},{"inputs":[],"name":"renounceOwnership","outputs":[],"stateMutability":"nonpayable","type":"function"},{"inputs":[{"internalType":"address","name":"user","type":"address"},{"internalType":"bool","name":"blacklisted","type":"bool"}],"name":"setUserBlacklist","outputs":[],"stateMutability":"nonpayable","type":"function"},{"inputs":[],"name":"totalChallenges","outputs":[{"internalType":"uint256","name":"","type":"uint256"}],"stateMutability":"view","type":"function"},{"inputs":[],"name":"totalChallengesCompleted","outputs":[{"internalType":"uint256","name":"","type":"uint256"}],"stateMutability":"view","type":"function"},{"inputs":[],"name":"totalParticipants","outputs":[{"internalType":"uint256","name":"","type":"uint256"}],"stateMutability":"view","type":"function"},{"inputs":[],"name":"totalRewardsDistributed","outputs":[{"internalType":"uint256","name":"","type":"uint256"}],"stateMutability":"view","type":"function"},{"inputs":[{"internalType":"address","name":"newOwner","type":"address"}],"name":"transferOwnership","outputs":[],"stateMutability":"nonpayable","type":"function"},{"inputs":[{"internalType":"uint256","name":"challengeId","type":"uint256"},{"internalType":"bool","name":"isActive","type":"bool"}],"name":"updateChallengeStatus","outputs":[],"stateMutability":"nonpayable","type":"function"},{"inputs":[{"internalType":"address","name":"","type":"address"}],"name":"userChallengeData","outputs":[{"internalType":"uint256","name":"totalChallengesCompleted","type":"uint256"},{"internalType":"uint256","name":"totalRewardsEarned","type":"uint256"},{"internalType":"uint256","name":"currentStreak","type":"uint256"},{"internalType":"uint256","name":"longestStreak","type":"uint256"},{"internalType":"uint256","name":"lastCompletionTime","type":"uint256"},{"internalType":"uint256","name":"reputation","type":"uint256"},{"internalType":"bool","name":"isActive","type":"bool"}],"stateMutability":"view","type":"function"},{"inputs":[{"internalType":"address","name":"","type":"address"},{"internalType":"uint256","name":"","type":"uint256"}],"name":"userCompletions","outputs":[{"internalType":"uint256","name":"challengeId","type":"uint256"},{"internalType":"address","name":"player","type":"address"},{"internalType":"uint256","name":"completionTime","type":"uint256"},{"internalType":"uint256","name":"rewardAmount","type":"uint256"},{"internalType":"string","name":"proof","type":"string"},{"internalType":"bool","name":"isVerified","type":"bool"}],"stateMutability":"view","type":"function"},{"inputs":[],"name":"vmfToken","outputs":[{"internalType":"contract IERC20","name":"","type":"address"}],"stateMutability":"view","type":"function"}],"evm":{"bytecode":{"linkReferences":{},"object":"60a0346200046257601f6200271238819003918201601f19168301916001600160401b038311848410176200046757808492604094855283396020938491810103126200046257516001600160a01b039283821691829003620004625760019160009483865533156200044a578354336001600160a01b03198216811786558651929091167f8be0079c531659141344cd1fd0a4f28419497f9722a3daafe3b4186f6b6457e08880a381156200040857506080528160035560049380855560098054680100000000000000009081811015620003f5578086620000e5920184556200047d565b620003e35762000101620000fa8254620004af565b82620004ec565b600a644461696c7960d81b019055815481811015620003f55780866200012a920184556200047d565b620003e3576200013f620000fa8254620004af565b600c655765656b6c7960d01b019055815481811015620003f557808662000169920184556200047d565b620003e3576200017e620000fa8254620004af565b600c6514dbd8da585b60d21b019055815481811015620003f5578086620001a8920184556200047d565b620003e357620001bd620000fa8254620004af565b600e6654726164696e6760c81b019055815490811015620003d0578085620001e8920183556200047d565b620003be5784965062000200620000fa8254620004af565b601268436f6d6d756e69747960b81b01905581955b62000241575b84516121c9908162000529823960805181818161069a01528181610b1d01526116dd0152f35b8054861015620003b8578162000257876200047d565b508487519183908054906200026c82620004af565b91858b821691826000146200039f57505060011462000366575b505080600884925203019020556200029e866200047d565b508551908482528390805490620002b582620004af565b91828886015288811690816000146200033a5750600114620002f8575b505096600080516020620026f2833981519152828798999388940390a101959462000215565b85528585208592505b8183106200032657505081018601600080516020620026f283398151915282620002d2565b80548484018a015291860191870162000301565b60ff1916858b01525050151560051b820187019050600080516020620026f283398151915282620002d2565b90915084528184208885915b83831062000387575050508201823862000286565b8054868401528896508994909201918a910162000372565b925093505060ff19168252801515028101903862000286565b6200021b565b634e487b7160e01b8352828752602483fd5b634e487b7160e01b835260418752602483fd5b634e487b7160e01b8452838852602484fd5b634e487b7160e01b845260418852602484fd5b62461bcd60e51b815260048101839052601960248201527f496e76616c696420564d4620746f6b656e2061646472657373000000000000006044820152606490fd5b8451631e4fbdf760e01b815260048101879052602490fd5b600080fd5b634e487b7160e01b600052604160045260246000fd5b6009548110156200049957600960005260206000200190600090565b634e487b7160e01b600052603260045260246000fd5b90600182811c92168015620004e1575b6020831014620004cb57565b634e487b7160e01b600052602260045260246000fd5b91607f1691620004bf565b601f8211620004f9575050565b600090600052601f6020600020920160051c8201915b8281106200051c57505050565b8181556001016200050f56fe6040608081526004908136101561001557600080fd5b600091823560e01c908163023bf95814611a4457816303769cae146119625781631376f1e41461170c5781632086eefa146116c857816320dedd07146116a957816321a26ca9146112a657816322c0aec71461126857816324b5c0341461120757816331b9a1461461118b57816335058ec51461116f5781635c975abb146111485781635f29ac37146110ec57816367ab845b146110ce578163702261f6146110af578163715018a61461106457816374aa34de1461104557816385a9943314610f5a578163866c5cbd14610f115781638da5cb5b14610ee85781638f1d377614610df9578163959c23ad14610d0e578163a04f6b4b14610cea578163a26dbf2614610ccb578163c18dcd6714610892578163ccddf0b01461081e578163d17defcb14610800578163db2e21bc14610660578163e448ee26146103eb578163e8f6940e1461031e578163ee172546146102ff578163f09547b814610256578163f2fde38b146101da57508063f3baf070146101be5763f6ef85cd1461019957600080fd5b346101ba57816003193601126101ba5760209051678ac7230489e800008152f35b5080fd5b50346101ba57816003193601126101ba57602090516103e88152f35b905034610252576020366003190112610252576101f5611b4e565b906101fe612038565b6001600160a01b0391821692831561023c575050600180546001600160a01b031981168417909155166000805160206121748339815191528380a380f35b51631e4fbdf760e01b8152908101849052602490fd5b8280fd5b8383346101ba57806003193601126101ba57610270611b4e565b6001600160a01b039081168352600660205281832080549193602435928310156102fc57506102f0916102a291611d4d565b5080549360018201541694600282015460ff60056102c66003860154948601611c99565b9401541694805197889788526020880152860152606085015260c0608085015260c0840190611b29565b90151560a08301520390f35b80fd5b5050346101ba57816003193601126101ba57602090600b549051908152f35b90503461025257602036600319011261025257803580151581036103e757610344612038565b15610391575060207f62e78cea01bee320cd4e420270b5ea74000d11b0c9f74754ebdbfc544b05a25891610376612064565b6001805460ff60a01b1916600160a01b17905551338152a180f35b6001549060ff8260a01c16156103d9575060ff60a01b1916600155513381527f5db9ee0a495bf2e6ff9c91a7834c1ba4fdd244a5e8aa4e537bd38aeae4b073aa90602090a180f35b8251638dfc202b60e01b8152fd5b8380fd5b8383346101ba57602090816003193601126102525783359061040b612085565b610413612064565b6104208554831115611d69565b8184526002835261043960ff6009838720015416611f3d565b8184526002835261045260058286200154421015611f83565b8184526002835261046b60068286200154421115611fc7565b81845260028352600b81852001338552835260ff8185205416610627573384526007835260ff81852054166105ef5781845260028352808420600881018054600783015411156105bb57338652600b82018552828620805460ff19908116600117909155600d909201805490600160401b8210156105a857600182018082558210156105955787528587200180546001600160a01b031916331790558054959650939492937f44c4b6abb371768de3a7756bdb12fd74800a75207fae3d12f5bcd7a7bc4fcee99361053b90611f2e565b9055338652600585526006828720019081549060ff82161561056a575b50505051924284523393a36001815580f35b6001911617905561057c600c54611f2e565b600c5561058a600d54611f2e565b600d55858080610558565b634e487b7160e01b885260328952602488fd5b634e487b7160e01b885260418952602488fd5b825162461bcd60e51b8152808801869052600e60248201526d10da185b1b195b99d948199d5b1b60921b6044820152606490fd5b5162461bcd60e51b81528085018390526013602482015272155cd95c881a5cc8189b1858dadb1a5cdd1959606a1b6044820152606490fd5b5162461bcd60e51b81528085018390526014602482015273105b1c9958591e481c185c9d1a58da5c185d195960621b6044820152606490fd5b9190503461025257826003193601126102525761067b612038565b80516370a0823160e01b81523083820152602091906001600160a01b037f00000000000000000000000000000000000000000000000000000000000000008116908483602481855afa9283156107f65787936107c3575b508215610787579184916106ff936001541688865180968195829463a9059cbb60e01b84528c840161201d565b03925af190811561077d578591610750575b501561071b578380f35b5162461bcd60e51b815291820152601160248201527015da5d1a191c985dd85b0819985a5b1959607a1b604482015260649150fd5b6107709150833d8511610776575b6107688183611bb5565b810190612005565b38610711565b503d61075e565b82513d87823e3d90fd5b835162461bcd60e51b815280870186905260166024820152754e6f2062616c616e636520746f20776974686472617760501b6044820152606490fd5b9092508481813d83116107ef575b6107db8183611bb5565b810103126107eb575191386106d2565b8680fd5b503d6107d1565b84513d89823e3d90fd5b90503461025257826003193601126102525760209250549051908152f35b5050346101ba57806003193601126101ba577f5b7ef9d8e7fd7ff1dae13005391bc3aa7cc048c7ba41af348e5da4dcbe7323e0602061085b611b4e565b610863611d3e565b9061086c612038565b60018060a01b0316938486526007835261088882828820611f1d565b519015158152a280f35b919050346102525780600319360112610252578135906024356001600160401b038111610cc7576108c69036908501611bd8565b906108cf612085565b6108d7612064565b6108e48454841115611d69565b82855260029160209280845261090260ff6009858a20015416611f3d565b84875280845261091a60058489200154421015611f83565b84875280845261093260068489200154421115611fc7565b848752808452600c83882001338852845260ff8388205416610c9057848752808452600b83882001338852845260ff838820541615610c5957848752808452828720338852600c81018552838820966001978860ff198254161790556109a5600383015461099f336120a8565b90611dc7565b93338a526005875281868b20936109bc8554611f2e565b85558a85016109cc888254611dc7565b9055428286015501546109e460058501918254611dc7565b9055338a5260058752858a20828101908a8662093a80610a05855442611dea565b11610c505760039150820191610a1b8354611f2e565b8093550180548211610c48575b50505b429055610a39600a54611f2e565b600a55610a4885600b54611dc7565b600b558551610a5681611b69565b8881528988820192338452898d8a80860191428352600660608801948d86526080890196875260a089019788523383525220805490600160401b821015610c33578f82018155610aa69190611d4d565b959095610c205751855594518d850180546001600160a01b0319166001600160a01b0392831617905594518885015551600384015551610afa9291600591610af090878501611e0b565b5115159101611f1d565b868651809263a9059cbb60e01b8252818d81610b198b338a840161201d565b03927f0000000000000000000000000000000000000000000000000000000000000000165af1908115610c16578a91610bf9575b5015610bbd575083518381524286820152867f939953dc28f51d09c4cc5eab0df34092ba75f794e37ca4b7b2b55dfa4b2422ce863393a301549282519485528401528201527f185500f72f8dea2f2eed1700236c8f0e33fa790bb722d7633340d13cc0f3202e60603392a2815580f35b845162461bcd60e51b8152908101869052601660248201527514995dd85c99081d1c985b9cd9995c8819985a5b195960521b6044820152606490fd5b610c109150873d8911610776576107688183611bb5565b38610b4d565b86513d8c823e3d90fd5b50634e487b7160e01b8f528e875260248ffd5b5050634e487b7160e01b8f526041875260248ffd5b553880610a28565b90910155610a2b565b825162461bcd60e51b815280870185905260116024820152704e6f742070617274696369706174696e6760781b6044820152606490fd5b825162461bcd60e51b81528087018590526011602482015270105b1c9958591e4818dbdb5c1b195d1959607a1b6044820152606490fd5b8480fd5b5050346101ba57816003193601126101ba57602090600c549051908152f35b5050346101ba57816003193601126101ba5760209051683635c9adc5dea000008152f35b91905034610252576020366003190112610252578060e093610d2e611b4e565b8160c08451610d3c81611b9a565b82815282602082015282868201528260608201528260808201528260a0820152015260018060a01b03168152600560205220815191610d7a83611b9a565b81549384845260018301549160208501928352600284015481860190815260038501549260608701938452850154936080870194855260c060ff600660058901549860a08b01998a5201541697019615158752825197885251602088015251908601525160608501525160808401525160a083015251151560c0820152f35b905082346102fc5760203660031901126102fc578290823581526002602052209182549160018401610e2a90611c99565b93610e3760028201611c99565b6003820154928201546005830154600684015490600785015492600886015494600987015496600a01610e6990611c99565b9880519b8c809c6101809182918152602001528c01610e8791611b29565b908b8203908c0152610e9891611b29565b9660608a0152608089015260a088015260c087015260e086015261010085015260ff8116151561012085015260081c60ff161515610140840152828103610160840152610ee491611b29565b0390f35b5050346101ba57816003193601126101ba5760015490516001600160a01b039091168152602090f35b9050346102525781600319360112610252576009610f57928235610f48610f36611d3e565b94610f3f612038565b54821115611d69565b85526002602052842001611f1d565b80f35b8284346102fc5760203660031901126102fc57819083358454811115610f7f90611d69565b8152600260205220916003830154908301549160058401546006850154600786015460088701549160098801549360018901610fba90611c99565b97610fc760028b01611c99565b99600a01610fd490611c99565b9787519a8b9a610160808d528c01610feb91611b29565b8b810360208d0152610ffc91611b29565b978a01526060890152608088015260a087015260c086015260e085015260ff8116151561010085015260081c60ff161515610120840152828103610140840152610ee491611b29565b5050346101ba57816003193601126101ba57602090600d549051908152f35b83346102fc57806003193601126102fc5761107d612038565b600180546001600160a01b0319811690915581906001600160a01b03166000805160206121748339815191528280a380f35b5050346101ba57816003193601126101ba576020906003549051908152f35b5050346101ba57816003193601126101ba576020905162093a808152f35b8284346102fc5760203660031901126102fc578235906001600160401b0382116102fc57506020611124819461113693369101611bd8565b81845193828580945193849201611b06565b81016008815203019020549051908152f35b5050346101ba57816003193601126101ba5760209060ff60015460a01c1690519015158152f35b5050346101ba57816003193601126101ba5760209051600a8152f35b9050346102525760203660031901126102525760e09282906001600160a01b036111b3611b4e565b16815260056020522080549260018201549260028301546003840154918401549260ff600660058701549601541695815197885260208801528601526060850152608084015260a0830152151560c0820152f35b8284346102fc5760203660031901126102fc5782356009548110156101ba5761122f90611c2e565b93909361125657610ee48361124386611c99565b9051918291602083526020830190611b29565b634e487b7160e01b8252819052602490fd5b5050346101ba5760203660031901126101ba5760209160ff9082906001600160a01b03611293611b4e565b1681526007855220541690519015158152f35b919050346102525760c0366003190112610252576001600160401b03908235828111610cc7576112d99036908501611bd8565b9160249081358181116107eb576112f39036908701611bd8565b916044958635916064918235946084359081116116a5576113179036908301611bd8565b9260a43599611324612038565b61132c612064565b89511561166f5787511561163357678ac7230489e80000861061160457683635c9adc5dea0000086116115d4576001871015806115c9575b15611596578a15158061158a575b156115515750506003549862093a8042019687421161153f57600a8b6113f4936113bc8f946113b38f8f88878e9a5260026020522095865560018601611e0b565b60028401611e0b565b88600383015589868301554260058301558a600683015560078201558d600882015560098101600161ffff1982541617905501611e0b565b6113ff600354611f2e565b60035561140c8154611f2e565b815586519183519260208181870195611426818389611b06565b8101600881520301902054156114bb575b5050916114a186949261146a60206000805160206121548339815191529a98966114939a51809381928651928391611b06565b8101600881520301902061147e8154611f2e565b9055855197889760c0895260c0890190611b29565b908782036020890152611b29565b93850152606084015242608084015260a08301520390a280f35b600954600160401b81101561152d578060016114da9201600955611c2e565b92909261151d5750508261146a60206000805160206121548339815191529a98969461150e6114939b99976114a196611e0b565b9496989a505050929496611437565b634e487b7160e01b8c528b90528afd5b50634e487b7160e01b8b52604182528afd5b634e487b7160e01b8c5260118352838cfd5b601877496e76616c6964206d6178207061727469636970616e747360401b929460208b519562461bcd60e51b8752860152840152820152fd5b506103e88b1115611372565b601271496e76616c696420646966666963756c747960701b929460208b519562461bcd60e51b8752860152840152820152fd5b506005871115611364565b600f6e0a4caeec2e4c840e8dede40d0d2ced608b1b929460208b519562461bcd60e51b8752860152840152820152fd5b600e6d52657761726420746f6f206c6f7760901b929460208b519562461bcd60e51b8752860152840152820152fd5b601b7a4465736372697074696f6e2063616e6e6f7420626520656d70747960281b929460208b519562461bcd60e51b8752860152840152820152fd5b6015745469746c652063616e6e6f7420626520656d70747960581b929460208b519562461bcd60e51b8752860152840152820152fd5b8a80fd5b5050346101ba57816003193601126101ba57602090600a549051908152f35b5050346101ba57816003193601126101ba57517f00000000000000000000000000000000000000000000000000000000000000006001600160a01b03168152602090f35b8284346102fc57606092836003193601126101ba57611729611b4e565b906024359260018060a01b0380931681526020916006835285822094855491828210156119295761175c60443583611dc7565b92808411611921575b5061177582849996959799611dea565b9661179761178289611db0565b9861178f88519a8b611bb5565b808a52611db0565b601f1901875b8b8282106118e057505050825b8a858210611854575050505050508151948186019282875285518094528087019183828660051b8a0101970195985b858a106117e65788880389f35b909192939495968580600192603f198c82030188528a519061183560c08351835288858501511685840152898401518a8401528784015188840152608090808286015192850152830190611b29565b9160a080910151151591015299019501990198929190959493956117d9565b906118d4888c6118cd8a9b9e9c9a8e60ff60058c60019a6118806118788c8f611d4d565b50928c611dea565b98899681519961188f8b611b69565b84548b528e85015416908a01526002830154908901526003820154908801526118b98d8201611c99565b6080880152015416151560a0850152611df7565b528b611df7565b500198959496986117aa565b90888a899a9d9b9993818351936118f685611b69565b81855281878601528401528201528d60808201528860a082015282828d01015201999695979961179d565b925089611765565b875162461bcd60e51b81529081018590526013602482015272092dcecc2d8d2c840e6e8c2e4e840d2dcc8caf606b1b6044820152606490fd5b8284346102fc57806003193601126102fc5760095461198081611db0565b9161198d84519384611bb5565b8183526009815260209283810192827f6e1540171b6c0c960b71a7020d9f60077f6af931a8bbf590da0223dacf75c7af855b838310611a2057505050508451938085019181865251809252858501958260051b8601019392955b8287106119f45785850386f35b909192938280611a10600193603f198a82030186528851611b29565b96019201960195929190926119e7565b6001888192611a32859b98999b611c99565b815201920192019190969493966119bf565b905082346102fc57602091826003193601126101ba57611a6c81949394359154821115611d69565b815260028352600d82822001908251808584549182815201908194845286842090845b818110611ae95750505081611aa5910382611bb5565b83519485948186019282875251809352850193925b828110611ac957505050500390f35b83516001600160a01b031685528695509381019392810192600101611aba565b82546001600160a01b031684529288019260019283019201611a8f565b60005b838110611b195750506000910152565b8181015183820152602001611b09565b90602091611b4281518092818552858086019101611b06565b601f01601f1916010190565b600435906001600160a01b0382168203611b6457565b600080fd5b60c081019081106001600160401b03821117611b8457604052565b634e487b7160e01b600052604160045260246000fd5b60e081019081106001600160401b03821117611b8457604052565b601f909101601f19168101906001600160401b03821190821017611b8457604052565b81601f82011215611b64578035906001600160401b038211611b845760405192611c0c601f8401601f191660200185611bb5565b82845260208383010111611b6457816000926020809301838601378301015290565b600954811015611c4957600960005260206000200190600090565b634e487b7160e01b600052603260045260246000fd5b90600182811c92168015611c8f575b6020831014611c7957565b634e487b7160e01b600052602260045260246000fd5b91607f1691611c6e565b90604051918260008254611cac81611c5f565b90818452602094600191600181169081600014611d1c5750600114611cdd575b505050611cdb92500383611bb5565b565b600090815285812095935091905b818310611d04575050611cdb9350820101388080611ccc565b85548884018501529485019487945091830191611ceb565b92505050611cdb94925060ff191682840152151560051b820101388080611ccc565b602435908115158203611b6457565b8054821015611c49576000526006602060002091020190600090565b15611d7057565b60405162461bcd60e51b815260206004820152601860248201527710da185b1b195b99d948191bd95cc81b9bdd08195e1a5cdd60421b6044820152606490fd5b6001600160401b038111611b845760051b60200190565b91908201809211611dd457565b634e487b7160e01b600052601160045260246000fd5b91908203918211611dd457565b8051821015611c495760209160051b010190565b81519192916001600160401b038111611b8457611e288254611c5f565b601f8111611ed3575b50602080601f8311600114611e6e575081929394600092611e63575b50508160011b916000199060031b1c1916179055565b015190503880611e4d565b90601f19831695846000526020600020926000905b888210611ebb57505083600195969710611ea2575b505050811b019055565b015160001960f88460031b161c19169055388080611e98565b80600185968294968601518155019501930190611e83565b6000836000526020600020601f840160051c81019260208510611f13575b601f0160051c01915b828110611f08575050611e31565b818155600101611efa565b9092508290611ef1565b9060ff801983541691151516179055565b6000198114611dd45760010190565b15611f4457565b60405162461bcd60e51b81526020600482015260176024820152764368616c6c656e6765206973206e6f742061637469766560481b6044820152606490fd5b15611f8a57565b60405162461bcd60e51b815260206004820152601560248201527410da185b1b195b99d9481b9bdd081cdd185c9d1959605a1b6044820152606490fd5b15611fce57565b60405162461bcd60e51b815260206004820152600f60248201526e10da185b1b195b99d948195b991959608a1b6044820152606490fd5b90816020910312611b6457518015158103611b645790565b6001600160a01b039091168152602081019190915260400190565b6001546001600160a01b0316330361204c57565b60405163118cdaa760e01b8152336004820152602490fd5b60ff60015460a01c1661207357565b60405163d93c066560e01b8152600490fd5b600260005414612096576002600055565b604051633ee5aeb560e01b8152600490fd5b6001600160a01b031660009081526005602052604081206002015490811561214e57600a820291808304600a0361213a5760035460001981019081116121265782526002602052600a60036040842001549182020292818404149015171561211257506064900490565b634e487b7160e01b81526011600452602490fd5b634e487b7160e01b83526011600452602483fd5b634e487b7160e01b82526011600452602482fd5b90509056fedb8469a3623f9a13612e6532589a59dd1422d4a88f7e749c97d770e56248e9068be0079c531659141344cd1fd0a4f28419497f9722a3daafe3b4186f6b6457e0a2646970667358221220ae72a88698bfd803924db7c76015b61db8821eb0aae447547e18e72d9448ed7364736f6c6343000818003383c0d2e1f23741433c1b43ceae1ebc1f26593a1aaab67366bd3ed29491ae1d8d","opcodes":"PUSH1 0xA0 CALLVALUE PUSH3 0x462 JUMPI PUSH1 0x1F PUSH3 0x2712 CODESIZE DUP2 SWAP1 SUB SWAP2 DUP3 ADD PUSH1 0x1F NOT AND DUP4 ADD SWAP2 PUSH1 0x1 PUSH1 0x1 PUSH1 0x40 SHL SUB DUP4 GT DUP5 DUP5 LT OR PUSH3 0x467 JUMPI DUP1 DUP5 SWAP3 PUSH1 0x40 SWAP5 DUP6 MSTORE DUP4 CODECOPY PUSH1 0x20 SWAP4 DUP5 SWAP2 DUP2 ADD SUB SLT PUSH3 0x462 JUMPI MLOAD PUSH1 0x1 PUSH1 0x1 PUSH1 0xA0 SHL SUB SWAP3 DUP4 DUP3 AND SWAP2 DUP3 SWAP1 SUB PUSH3 0x462 JUMPI PUSH1 0x1 SWAP2 PUSH1 0x0 SWAP5 DUP4 DUP7 SSTORE CALLER ISZERO PUSH3 0x44A JUMPI DUP4 SLOAD CALLER PUSH1 0x1 PUSH1 0x1 PUSH1 0xA0 SHL SUB NOT DUP3 AND DUP2 OR DUP7 SSTORE DUP7 MLOAD SWAP3 SWAP1 SWAP2 AND PUSH32 0x8BE0079C531659141344CD1FD0A4F28419497F9722A3DAAFE3B4186F6B6457E0 DUP9 DUP1 LOG3 DUP2 ISZERO PUSH3 0x408 JUMPI POP PUSH1 0x80 MSTORE DUP2 PUSH1 0x3 SSTORE PUSH1 0x4 SWAP4 DUP1 DUP6 SSTORE PUSH1 0x9 DUP1 SLOAD PUSH9 0x10000000000000000 SWAP1 DUP2 DUP2 LT ISZERO PUSH3 0x3F5 JUMPI DUP1 DUP7 PUSH3 0xE5 SWAP3 ADD DUP5 SSTORE PUSH3 0x47D JUMP JUMPDEST PUSH3 0x3E3 JUMPI PUSH3 0x101 PUSH3 0xFA DUP3 SLOAD PUSH3 0x4AF JUMP JUMPDEST DUP3 PUSH3 0x4EC JUMP JUMPDEST PUSH1 0xA PUSH5 0x4461696C79 PUSH1 0xD8 SHL ADD SWAP1 SSTORE DUP2 SLOAD DUP2 DUP2 LT ISZERO PUSH3 0x3F5 JUMPI DUP1 DUP7 PUSH3 0x12A SWAP3 ADD DUP5 SSTORE PUSH3 0x47D JUMP JUMPDEST PUSH3 0x3E3 JUMPI PUSH3 0x13F PUSH3 0xFA DUP3 SLOAD PUSH3 0x4AF JUMP JUMPDEST PUSH1 0xC PUSH6 0x5765656B6C79 PUSH1 0xD0 SHL ADD SWAP1 SSTORE DUP2 SLOAD DUP2 DUP2 LT ISZERO PUSH3 0x3F5 JUMPI DUP1 DUP7 PUSH3 0x169 SWAP3 ADD DUP5 SSTORE PUSH3 0x47D JUMP JUMPDEST PUSH3 0x3E3 JUMPI PUSH3 0x17E PUSH3 0xFA DUP3 SLOAD PUSH3 0x4AF JUMP JUMPDEST PUSH1 0xC PUSH6 0x14DBD8DA585B PUSH1 0xD2 SHL ADD SWAP1 SSTORE DUP2 SLOAD DUP2 DUP2 LT ISZERO PUSH3 0x3F5 JUMPI DUP1 DUP7 PUSH3 0x1A8 SWAP3 ADD DUP5 SSTORE PUSH3 0x47D JUMP JUMPDEST PUSH3 0x3E3 JUMPI PUSH3 0x1BD PUSH3 0xFA DUP3 SLOAD PUSH3 0x4AF JUMP JUMPDEST PUSH1 0xE PUSH7 0x54726164696E67 PUSH1 0xC8 SHL ADD SWAP1 SSTORE DUP2 SLOAD SWAP1 DUP2 LT ISZERO PUSH3 0x3D0 JUMPI DUP1 DUP6 PUSH3 0x1E8 SWAP3 ADD DUP4 SSTORE PUSH3 0x47D JUMP JUMPDEST PUSH3 0x3BE JUMPI DUP5 SWAP7 POP PUSH3 0x200 PUSH3 0xFA DUP3 SLOAD PUSH3 0x4AF JUMP JUMPDEST PUSH1 0x12 PUSH9 0x436F6D6D756E697479 PUSH1 0xB8 SHL ADD SWAP1 SSTORE DUP2 SWAP6 JUMPDEST PUSH3 0x241 JUMPI JUMPDEST DUP5 MLOAD PUSH2 0x21C9 SWAP1 DUP2 PUSH3 0x529 DUP3 CODECOPY PUSH1 0x80 MLOAD DUP2 DUP2 DUP2 PUSH2 0x69A ADD MSTORE DUP2 DUP2 PUSH2 0xB1D ADD MSTORE PUSH2 0x16DD ADD MSTORE RETURN JUMPDEST DUP1 SLOAD DUP7 LT ISZERO PUSH3 0x3B8 JUMPI DUP2 PUSH3 0x257 DUP8 PUSH3 0x47D JUMP JUMPDEST POP DUP5 DUP8 MLOAD SWAP2 DUP4 SWAP1 DUP1 SLOAD SWAP1 PUSH3 0x26C DUP3 PUSH3 0x4AF JUMP JUMPDEST SWAP2 DUP6 DUP12 DUP3 AND SWAP2 DUP3 PUSH1 0x0 EQ PUSH3 0x39F JUMPI POP POP PUSH1 0x1 EQ PUSH3 0x366 JUMPI JUMPDEST POP POP DUP1 PUSH1 0x8 DUP5 SWAP3 MSTORE SUB ADD SWAP1 KECCAK256 SSTORE PUSH3 0x29E DUP7 PUSH3 0x47D JUMP JUMPDEST POP DUP6 MLOAD SWAP1 DUP5 DUP3 MSTORE DUP4 SWAP1 DUP1 SLOAD SWAP1 PUSH3 0x2B5 DUP3 PUSH3 0x4AF JUMP JUMPDEST SWAP2 DUP3 DUP9 DUP7 ADD MSTORE DUP9 DUP2 AND SWAP1 DUP2 PUSH1 0x0 EQ PUSH3 0x33A JUMPI POP PUSH1 0x1 EQ PUSH3 0x2F8 JUMPI JUMPDEST POP POP SWAP7 PUSH1 0x0 DUP1 MLOAD PUSH1 0x20 PUSH3 0x26F2 DUP4 CODECOPY DUP2 MLOAD SWAP2 MSTORE DUP3 DUP8 SWAP9 SWAP10 SWAP4 DUP9 SWAP5 SUB SWAP1 LOG1 ADD SWAP6 SWAP5 PUSH3 0x215 JUMP JUMPDEST DUP6 MSTORE DUP6 DUP6 KECCAK256 DUP6 SWAP3 POP JUMPDEST DUP2 DUP4 LT PUSH3 0x326 JUMPI POP POP DUP2 ADD DUP7 ADD PUSH1 0x0 DUP1 MLOAD PUSH1 0x20 PUSH3 0x26F2 DUP4 CODECOPY DUP2 MLOAD SWAP2 MSTORE DUP3 PUSH3 0x2D2 JUMP JUMPDEST DUP1 SLOAD DUP5 DUP5 ADD DUP11 ADD MSTORE SWAP2 DUP7 ADD SWAP2 DUP8 ADD PUSH3 0x301 JUMP JUMPDEST PUSH1 0xFF NOT AND DUP6 DUP12 ADD MSTORE POP POP ISZERO ISZERO PUSH1 0x5 SHL DUP3 ADD DUP8 ADD SWAP1 POP PUSH1 0x0 DUP1 MLOAD PUSH1 0x20 PUSH3 0x26F2 DUP4 CODECOPY DUP2 MLOAD SWAP2 MSTORE DUP3 PUSH3 0x2D2 JUMP JUMPDEST SWAP1 SWAP2 POP DUP5 MSTORE DUP2 DUP5 KECCAK256 DUP9 DUP6 SWAP2 JUMPDEST DUP4 DUP4 LT PUSH3 0x387 JUMPI POP POP POP DUP3 ADD DUP3 CODESIZE PUSH3 0x286 JUMP JUMPDEST DUP1 SLOAD DUP7 DUP5 ADD MSTORE DUP9 SWAP7 POP DUP10 SWAP5 SWAP1 SWAP3 ADD SWAP2 DUP11 SWAP2 ADD PUSH3 0x372 JUMP JUMPDEST SWAP3 POP SWAP4 POP POP PUSH1 0xFF NOT AND DUP3 MSTORE DUP1 ISZERO ISZERO MUL DUP2 ADD SWAP1 CODESIZE PUSH3 0x286 JUMP JUMPDEST PUSH3 0x21B JUMP JUMPDEST PUSH4 0x4E487B71 PUSH1 0xE0 SHL DUP4 MSTORE DUP3 DUP8 MSTORE PUSH1 0x24 DUP4 REVERT JUMPDEST PUSH4 0x4E487B71 PUSH1 0xE0 SHL DUP4 MSTORE PUSH1 0x41 DUP8 MSTORE PUSH1 0x24 DUP4 REVERT JUMPDEST PUSH4 0x4E487B71 PUSH1 0xE0 SHL DUP5 MSTORE DUP4 DUP9 MSTORE PUSH1 0x24 DUP5 REVERT JUMPDEST PUSH4 0x4E487B71 PUSH1 0xE0 SHL DUP5 MSTORE PUSH1 0x41 DUP9 MSTORE PUSH1 0x24 DUP5 REVERT JUMPDEST PUSH3 0x461BCD PUSH1 0xE5 SHL DUP2 MSTORE PUSH1 0x4 DUP2 ADD DUP4 SWAP1 MSTORE PUSH1 0x19 PUSH1 0x24 DUP3 ADD MSTORE PUSH32 0x496E76616C696420564D4620746F6B656E206164647265737300000000000000 PUSH1 0x44 DUP3 ADD MSTORE PUSH1 0x64 SWAP1 REVERT JUMPDEST DUP5 MLOAD PUSH4 0x1E4FBDF7 PUSH1 0xE0 SHL DUP2 MSTORE PUSH1 0x4 DUP2 ADD DUP8 SWAP1 MSTORE PUSH1 0x24 SWAP1 REVERT JUMPDEST PUSH1 0x0 DUP1 REVERT JUMPDEST PUSH4 0x4E487B71 PUSH1 0xE0 SHL PUSH1 0x0 MSTORE PUSH1 0x41 PUSH1 0x4 MSTORE PUSH1 0x24 PUSH1 0x0 REVERT JUMPDEST PUSH1 0x9 SLOAD DUP2 LT ISZERO PUSH3 0x499 JUMPI PUSH1 0x9 PUSH1 0x0 MSTORE PUSH1 0x20 PUSH1 0x0 KECCAK256 ADD SWAP1 PUSH1 0x0 SWAP1 JUMP JUMPDEST PUSH4 0x4E487B71 PUSH1 0xE0 SHL PUSH1 0x0 MSTORE PUSH1 0x32 PUSH1 0x4 MSTORE PUSH1 0x24 PUSH1 0x0 REVERT JUMPDEST SWAP1 PUSH1 0x1 DUP3 DUP2 SHR SWAP3 AND DUP1 ISZERO PUSH3 0x4E1 JUMPI JUMPDEST PUSH1 0x20 DUP4 LT EQ PUSH3 0x4CB JUMPI JUMP JUMPDEST PUSH4 0x4E487B71 PUSH1 0xE0 SHL PUSH1 0x0 MSTORE PUSH1 0x22 PUSH1 0x4 MSTORE PUSH1 0x24 PUSH1 0x0 REVERT JUMPDEST SWAP2 PUSH1 0x7F AND SWAP2 PUSH3 0x4BF JUMP JUMPDEST PUSH1 0x1F DUP3 GT PUSH3 0x4F9 JUMPI POP POP JUMP JUMPDEST PUSH1 0x0 SWAP1 PUSH1 0x0 MSTORE PUSH1 0x1F PUSH1 0x20 PUSH1 0x0 KECCAK256 SWAP3 ADD PUSH1 0x5 SHR DUP3 ADD SWAP2 JUMPDEST DUP3 DUP2 LT PUSH3 0x51C JUMPI POP POP POP JUMP JUMPDEST DUP2 DUP2 SSTORE PUSH1 0x1 ADD PUSH3 0x50F JUMP INVALID PUSH1 0x40 PUSH1 0x80 DUP2 MSTORE PUSH1 0x4 SWAP1 DUP2 CALLDATASIZE LT ISZERO PUSH2 0x15 JUMPI PUSH1 0x0 DUP1 REVERT JUMPDEST PUSH1 0x0 SWAP2 DUP3 CALLDATALOAD PUSH1 0xE0 SHR SWAP1 DUP2 PUSH4 0x23BF958 EQ PUSH2 0x1A44 JUMPI DUP2 PUSH4 0x3769CAE EQ PUSH2 0x1962 JUMPI DUP2 PUSH4 0x1376F1E4 EQ PUSH2 0x170C JUMPI DUP2 PUSH4 0x2086EEFA EQ PUSH2 0x16C8 JUMPI DUP2 PUSH4 0x20DEDD07 EQ PUSH2 0x16A9 JUMPI DUP2 PUSH4 0x21A26CA9 EQ PUSH2 0x12A6 JUMPI DUP2 PUSH4 0x22C0AEC7 EQ PUSH2 0x1268 JUMPI DUP2 PUSH4 0x24B5C034 EQ PUSH2 0x1207 JUMPI DUP2 PUSH4 0x31B9A146 EQ PUSH2 0x118B JUMPI DUP2 PUSH4 0x35058EC5 EQ PUSH2 0x116F JUMPI DUP2 PUSH4 0x5C975ABB EQ PUSH2 0x1148 JUMPI DUP2 PUSH4 0x5F29AC37 EQ PUSH2 0x10EC JUMPI DUP2 PUSH4 0x67AB845B EQ PUSH2 0x10CE JUMPI DUP2 PUSH4 0x702261F6 EQ PUSH2 0x10AF JUMPI DUP2 PUSH4 0x715018A6 EQ PUSH2 0x1064 JUMPI DUP2 PUSH4 0x74AA34DE EQ PUSH2 0x1045 JUMPI DUP2 PUSH4 0x85A99433 EQ PUSH2 0xF5A JUMPI DUP2 PUSH4 0x866C5CBD EQ PUSH2 0xF11 JUMPI DUP2 PUSH4 0x8DA5CB5B EQ PUSH2 0xEE8 JUMPI DUP2 PUSH4 0x8F1D3776 EQ PUSH2 0xDF9 JUMPI DUP2 PUSH4 0x959C23AD EQ PUSH2 0xD0E JUMPI DUP2 PUSH4 0xA04F6B4B EQ PUSH2 0xCEA JUMPI DUP2 PUSH4 0xA26DBF26 EQ PUSH2 0xCCB JUMPI DUP2 PUSH4 0xC18DCD67 EQ PUSH2 0x892 JUMPI DUP2 PUSH4 0xCCDDF0B0 EQ PUSH2 0x81E JUMPI DUP2 PUSH4 0xD17DEFCB EQ PUSH2 0x800 JUMPI DUP2 PUSH4 0xDB2E21BC EQ PUSH2 0x660 JUMPI DUP2 PUSH4 0xE448EE26 EQ PUSH2 0x3EB JUMPI DUP2 PUSH4 0xE8F6940E EQ PUSH2 0x31E JUMPI DUP2 PUSH4 0xEE172546 EQ PUSH2 0x2FF JUMPI DUP2 PUSH4 0xF09547B8 EQ PUSH2 0x256 JUMPI DUP2 PUSH4 0xF2FDE38B EQ PUSH2 0x1DA JUMPI POP DUP1 PUSH4 0xF3BAF070 EQ PUSH2 0x1BE JUMPI PUSH4 0xF6EF85CD EQ PUSH2 0x199 JUMPI PUSH1 0x0 DUP1 REVERT JUMPDEST CALLVALUE PUSH2 0x1BA JUMPI DUP2 PUSH1 0x3 NOT CALLDATASIZE ADD SLT PUSH2 0x1BA JUMPI PUSH1 0x20 SWAP1 MLOAD PUSH8 0x8AC7230489E80000 DUP2 MSTORE RETURN JUMPDEST POP DUP1 REVERT JUMPDEST POP CALLVALUE PUSH2 0x1BA JUMPI DUP2 PUSH1 0x3 NOT CALLDATASIZE ADD SLT PUSH2 0x1BA JUMPI PUSH1 0x20 SWAP1 MLOAD PUSH2 0x3E8 DUP2 MSTORE RETURN JUMPDEST SWAP1 POP CALLVALUE PUSH2 0x252 JUMPI PUSH1 0x20 CALLDATASIZE PUSH1 0x3 NOT ADD SLT PUSH2 0x252 JUMPI PUSH2 0x1F5 PUSH2 0x1B4E JUMP JUMPDEST SWAP1 PUSH2 0x1FE PUSH2 0x2038 JUMP JUMPDEST PUSH1 0x1 PUSH1 0x1 PUSH1 0xA0 SHL SUB SWAP2 DUP3 AND SWAP3 DUP4 ISZERO PUSH2 0x23C JUMPI POP POP PUSH1 0x1 DUP1 SLOAD PUSH1 0x1 PUSH1 0x1 PUSH1 0xA0 SHL SUB NOT DUP2 AND DUP5 OR SWAP1 SWAP2 SSTORE AND PUSH1 0x0 DUP1 MLOAD PUSH1 0x20 PUSH2 0x2174 DUP4 CODECOPY DUP2 MLOAD SWAP2 MSTORE DUP4 DUP1 LOG3 DUP1 RETURN JUMPDEST MLOAD PUSH4 0x1E4FBDF7 PUSH1 0xE0 SHL DUP2 MSTORE SWAP1 DUP2 ADD DUP5 SWAP1 MSTORE PUSH1 0x24 SWAP1 REVERT JUMPDEST DUP3 DUP1 REVERT JUMPDEST DUP4 DUP4 CALLVALUE PUSH2 0x1BA JUMPI DUP1 PUSH1 0x3 NOT CALLDATASIZE ADD SLT PUSH2 0x1BA JUMPI PUSH2 0x270 PUSH2 0x1B4E JUMP JUMPDEST PUSH1 0x1 PUSH1 0x1 PUSH1 0xA0 SHL SUB SWAP1 DUP2 AND DUP4 MSTORE PUSH1 0x6 PUSH1 0x20 MSTORE DUP2 DUP4 KECCAK256 DUP1 SLOAD SWAP2 SWAP4 PUSH1 0x24 CALLDATALOAD SWAP3 DUP4 LT ISZERO PUSH2 0x2FC JUMPI POP PUSH2 0x2F0 SWAP2 PUSH2 0x2A2 SWAP2 PUSH2 0x1D4D JUMP JUMPDEST POP DUP1 SLOAD SWAP4 PUSH1 0x1 DUP3 ADD SLOAD AND SWAP5 PUSH1 0x2 DUP3 ADD SLOAD PUSH1 0xFF PUSH1 0x5 PUSH2 0x2C6 PUSH1 0x3 DUP7 ADD SLOAD SWAP5 DUP7 ADD PUSH2 0x1C99 JUMP JUMPDEST SWAP5 ADD SLOAD AND SWAP5 DUP1 MLOAD SWAP8 DUP9 SWAP8 DUP9 MSTORE PUSH1 0x20 DUP9 ADD MSTORE DUP7 ADD MSTORE PUSH1 0x60 DUP6 ADD MSTORE PUSH1 0xC0 PUSH1 0x80 DUP6 ADD MSTORE PUSH1 0xC0 DUP5 ADD SWAP1 PUSH2 0x1B29 JUMP JUMPDEST SWAP1 ISZERO ISZERO PUSH1 0xA0 DUP4 ADD MSTORE SUB SWAP1 RETURN JUMPDEST DUP1 REVERT JUMPDEST POP POP CALLVALUE PUSH2 0x1BA JUMPI DUP2 PUSH1 0x3 NOT CALLDATASIZE ADD SLT PUSH2 0x1BA JUMPI PUSH1 0x20 SWAP1 PUSH1 0xB SLOAD SWAP1 MLOAD SWAP1 DUP2 MSTORE RETURN JUMPDEST SWAP1 POP CALLVALUE PUSH2 0x252 JUMPI PUSH1 0x20 CALLDATASIZE PUSH1 0x3 NOT ADD SLT PUSH2 0x252 JUMPI DUP1 CALLDATALOAD DUP1 ISZERO ISZERO DUP2 SUB PUSH2 0x3E7 JUMPI PUSH2 0x344 PUSH2 0x2038 JUMP JUMPDEST ISZERO PUSH2 0x391 JUMPI POP PUSH1 0x20 PUSH32 0x62E78CEA01BEE320CD4E420270B5EA74000D11B0C9F74754EBDBFC544B05A258 SWAP2 PUSH2 0x376 PUSH2 0x2064 JUMP JUMPDEST PUSH1 0x1 DUP1 SLOAD PUSH1 0xFF PUSH1 0xA0 SHL NOT AND PUSH1 0x1 PUSH1 0xA0 SHL OR SWAP1 SSTORE MLOAD CALLER DUP2 MSTORE LOG1 DUP1 RETURN JUMPDEST PUSH1 0x1 SLOAD SWAP1 PUSH1 0xFF DUP3 PUSH1 0xA0 SHR AND ISZERO PUSH2 0x3D9 JUMPI POP PUSH1 0xFF PUSH1 0xA0 SHL NOT AND PUSH1 0x1 SSTORE MLOAD CALLER DUP2 MSTORE PUSH32 0x5DB9EE0A495BF2E6FF9C91A7834C1BA4FDD244A5E8AA4E537BD38AEAE4B073AA SWAP1 PUSH1 0x20 SWAP1 LOG1 DUP1 RETURN JUMPDEST DUP3 MLOAD PUSH4 0x8DFC202B PUSH1 0xE0 SHL DUP2 MSTORE REVERT JUMPDEST DUP4 DUP1 REVERT JUMPDEST DUP4 DUP4 CALLVALUE PUSH2 0x1BA JUMPI PUSH1 0x20 SWAP1 DUP2 PUSH1 0x3 NOT CALLDATASIZE ADD SLT PUSH2 0x252 JUMPI DUP4 CALLDATALOAD SWAP1 PUSH2 0x40B PUSH2 0x2085 JUMP JUMPDEST PUSH2 0x413 PUSH2 0x2064 JUMP JUMPDEST PUSH2 0x420 DUP6 SLOAD DUP4 GT ISZERO PUSH2 0x1D69 JUMP JUMPDEST DUP2 DUP5 MSTORE PUSH1 0x2 DUP4 MSTORE PUSH2 0x439 PUSH1 0xFF PUSH1 0x9 DUP4 DUP8 KECCAK256 ADD SLOAD AND PUSH2 0x1F3D JUMP JUMPDEST DUP2 DUP5 MSTORE PUSH1 0x2 DUP4 MSTORE PUSH2 0x452 PUSH1 0x5 DUP3 DUP7 KECCAK256 ADD SLOAD TIMESTAMP LT ISZERO PUSH2 0x1F83 JUMP JUMPDEST DUP2 DUP5 MSTORE PUSH1 0x2 DUP4 MSTORE PUSH2 0x46B PUSH1 0x6 DUP3 DUP7 KECCAK256 ADD SLOAD TIMESTAMP GT ISZERO PUSH2 0x1FC7 JUMP JUMPDEST DUP2 DUP5 MSTORE PUSH1 0x2 DUP4 MSTORE PUSH1 0xB DUP2 DUP6 KECCAK256 ADD CALLER DUP6 MSTORE DUP4 MSTORE PUSH1 0xFF DUP2 DUP6 KECCAK256 SLOAD AND PUSH2 0x627 JUMPI CALLER DUP5 MSTORE PUSH1 0x7 DUP4 MSTORE PUSH1 0xFF DUP2 DUP6 KECCAK256 SLOAD AND PUSH2 0x5EF JUMPI DUP2 DUP5 MSTORE PUSH1 0x2 DUP4 MSTORE DUP1 DUP5 KECCAK256 PUSH1 0x8 DUP2 ADD DUP1 SLOAD PUSH1 0x7 DUP4 ADD SLOAD GT ISZERO PUSH2 0x5BB JUMPI CALLER DUP7 MSTORE PUSH1 0xB DUP3 ADD DUP6 MSTORE DUP3 DUP7 KECCAK256 DUP1 SLOAD PUSH1 0xFF NOT SWAP1 DUP2 AND PUSH1 0x1 OR SWAP1 SWAP2 SSTORE PUSH1 0xD SWAP1 SWAP3 ADD DUP1 SLOAD SWAP1 PUSH1 0x1 PUSH1 0x40 SHL DUP3 LT ISZERO PUSH2 0x5A8 JUMPI PUSH1 0x1 DUP3 ADD DUP1 DUP3 SSTORE DUP3 LT ISZERO PUSH2 0x595 JUMPI DUP8 MSTORE DUP6 DUP8 KECCAK256 ADD DUP1 SLOAD PUSH1 0x1 PUSH1 0x1 PUSH1 0xA0 SHL SUB NOT AND CALLER OR SWAP1 SSTORE DUP1 SLOAD SWAP6 SWAP7 POP SWAP4 SWAP5 SWAP3 SWAP4 PUSH32 0x44C4B6ABB371768DE3A7756BDB12FD74800A75207FAE3D12F5BCD7A7BC4FCEE9 SWAP4 PUSH2 0x53B SWAP1 PUSH2 0x1F2E JUMP JUMPDEST SWAP1 SSTORE CALLER DUP7 MSTORE PUSH1 0x5 DUP6 MSTORE PUSH1 0x6 DUP3 DUP8 KECCAK256 ADD SWAP1 DUP2 SLOAD SWAP1 PUSH1 0xFF DUP3 AND ISZERO PUSH2 0x56A JUMPI JUMPDEST POP POP POP MLOAD SWAP3 TIMESTAMP DUP5 MSTORE CALLER SWAP4 LOG3 PUSH1 0x1 DUP2 SSTORE DUP1 RETURN JUMPDEST PUSH1 0x1 SWAP2 AND OR SWAP1 SSTORE PUSH2 0x57C PUSH1 0xC SLOAD PUSH2 0x1F2E JUMP JUMPDEST PUSH1 0xC SSTORE PUSH2 0x58A PUSH1 0xD SLOAD PUSH2 0x1F2E JUMP JUMPDEST PUSH1 0xD SSTORE DUP6 DUP1 DUP1 PUSH2 0x558 JUMP JUMPDEST PUSH4 0x4E487B71 PUSH1 0xE0 SHL DUP9 MSTORE PUSH1 0x32 DUP10 MSTORE PUSH1 0x24 DUP9 REVERT JUMPDEST PUSH4 0x4E487B71 PUSH1 0xE0 SHL DUP9 MSTORE PUSH1 0x41 DUP10 MSTORE PUSH1 0x24 DUP9 REVERT JUMPDEST DUP3 MLOAD PUSH3 0x461BCD PUSH1 0xE5 SHL DUP2 MSTORE DUP1 DUP9 ADD DUP7 SWAP1 MSTORE PUSH1 0xE PUSH1 0x24 DUP3 ADD MSTORE PUSH14 0x10DA185B1B195B99D948199D5B1B PUSH1 0x92 SHL PUSH1 0x44 DUP3 ADD MSTORE PUSH1 0x64 SWAP1 REVERT JUMPDEST MLOAD PUSH3 0x461BCD PUSH1 0xE5 SHL DUP2 MSTORE DUP1 DUP6 ADD DUP4 SWAP1 MSTORE PUSH1 0x13 PUSH1 0x24 DUP3 ADD MSTORE PUSH19 0x155CD95C881A5CC8189B1858DADB1A5CDD1959 PUSH1 0x6A SHL PUSH1 0x44 DUP3 ADD MSTORE PUSH1 0x64 SWAP1 REVERT JUMPDEST MLOAD PUSH3 0x461BCD PUSH1 0xE5 SHL DUP2 MSTORE DUP1 DUP6 ADD DUP4 SWAP1 MSTORE PUSH1 0x14 PUSH1 0x24 DUP3 ADD MSTORE PUSH20 0x105B1C9958591E481C185C9D1A58DA5C185D1959 PUSH1 0x62 SHL PUSH1 0x44 DUP3 ADD MSTORE PUSH1 0x64 SWAP1 REVERT JUMPDEST SWAP2 SWAP1 POP CALLVALUE PUSH2 0x252 JUMPI DUP3 PUSH1 0x3 NOT CALLDATASIZE ADD SLT PUSH2 0x252 JUMPI PUSH2 0x67B PUSH2 0x2038 JUMP JUMPDEST DUP1 MLOAD PUSH4 0x70A08231 PUSH1 0xE0 SHL DUP2 MSTORE ADDRESS DUP4 DUP3 ADD MSTORE PUSH1 0x20 SWAP2 SWAP1 PUSH1 0x1 PUSH1 0x1 PUSH1 0xA0 SHL SUB PUSH32 0x0 DUP2 AND SWAP1 DUP5 DUP4 PUSH1 0x24 DUP2 DUP6 GAS STATICCALL SWAP3 DUP4 ISZERO PUSH2 0x7F6 JUMPI DUP8 SWAP4 PUSH2 0x7C3 JUMPI JUMPDEST POP DUP3 ISZERO PUSH2 0x787 JUMPI SWAP2 DUP5 SWAP2 PUSH2 0x6FF SWAP4 PUSH1 0x1 SLOAD AND DUP9 DUP7 MLOAD DUP1 SWAP7 DUP2 SWAP6 DUP3 SWAP5 PUSH4 0xA9059CBB PUSH1 0xE0 SHL DUP5 MSTORE DUP13 DUP5 ADD PUSH2 0x201D JUMP JUMPDEST SUB SWAP3 GAS CALL SWAP1 DUP2 ISZERO PUSH2 0x77D JUMPI DUP6 SWAP2 PUSH2 0x750 JUMPI JUMPDEST POP ISZERO PUSH2 0x71B JUMPI DUP4 DUP1 RETURN JUMPDEST MLOAD PUSH3 0x461BCD PUSH1 0xE5 SHL DUP2 MSTORE SWAP2 DUP3 ADD MSTORE PUSH1 0x11 PUSH1 0x24 DUP3 ADD MSTORE PUSH17 0x15DA5D1A191C985DD85B0819985A5B1959 PUSH1 0x7A SHL PUSH1 0x44 DUP3 ADD MSTORE PUSH1 0x64 SWAP2 POP REVERT JUMPDEST PUSH2 0x770 SWAP2 POP DUP4 RETURNDATASIZE DUP6 GT PUSH2 0x776 JUMPI JUMPDEST PUSH2 0x768 DUP2 DUP4 PUSH2 0x1BB5 JUMP JUMPDEST DUP2 ADD SWAP1 PUSH2 0x2005 JUMP JUMPDEST CODESIZE PUSH2 0x711 JUMP JUMPDEST POP RETURNDATASIZE PUSH2 0x75E JUMP JUMPDEST DUP3 MLOAD RETURNDATASIZE DUP8 DUP3 RETURNDATACOPY RETURNDATASIZE SWAP1 REVERT JUMPDEST DUP4 MLOAD PUSH3 0x461BCD PUSH1 0xE5 SHL DUP2 MSTORE DUP1 DUP8 ADD DUP7 SWAP1 MSTORE PUSH1 0x16 PUSH1 0x24 DUP3 ADD MSTORE PUSH22 0x4E6F2062616C616E636520746F207769746864726177 PUSH1 0x50 SHL PUSH1 0x44 DUP3 ADD MSTORE PUSH1 0x64 SWAP1 REVERT JUMPDEST SWAP1 SWAP3 POP DUP5 DUP2 DUP2 RETURNDATASIZE DUP4 GT PUSH2 0x7EF JUMPI JUMPDEST PUSH2 0x7DB DUP2 DUP4 PUSH2 0x1BB5 JUMP JUMPDEST DUP2 ADD SUB SLT PUSH2 0x7EB JUMPI MLOAD SWAP2 CODESIZE PUSH2 0x6D2 JUMP JUMPDEST DUP7 DUP1 REVERT JUMPDEST POP RETURNDATASIZE PUSH2 0x7D1 JUMP JUMPDEST DUP5 MLOAD RETURNDATASIZE DUP10 DUP3 RETURNDATACOPY RETURNDATASIZE SWAP1 REVERT JUMPDEST SWAP1 POP CALLVALUE PUSH2 0x252 JUMPI DUP3 PUSH1 0x3 NOT CALLDATASIZE ADD SLT PUSH2 0x252 JUMPI PUSH1 0x20 SWAP3 POP SLOAD SWAP1 MLOAD SWAP1 DUP2 MSTORE RETURN JUMPDEST POP POP CALLVALUE PUSH2 0x1BA JUMPI DUP1 PUSH1 0x3 NOT CALLDATASIZE ADD SLT PUSH2 0x1BA JUMPI PUSH32 0x5B7EF9D8E7FD7FF1DAE13005391BC3AA7CC048C7BA41AF348E5DA4DCBE7323E0 PUSH1 0x20 PUSH2 0x85B PUSH2 0x1B4E JUMP JUMPDEST PUSH2 0x863 PUSH2 0x1D3E JUMP JUMPDEST SWAP1 PUSH2 0x86C PUSH2 0x2038 JUMP JUMPDEST PUSH1 0x1 DUP1 PUSH1 0xA0 SHL SUB AND SWAP4 DUP5 DUP7 MSTORE PUSH1 0x7 DUP4 MSTORE PUSH2 0x888 DUP3 DUP3 DUP9 KECCAK256 PUSH2 0x1F1D JUMP JUMPDEST MLOAD SWAP1 ISZERO ISZERO DUP2 MSTORE LOG2 DUP1 RETURN JUMPDEST SWAP2 SWAP1 POP CALLVALUE PUSH2 0x252 JUMPI DUP1 PUSH1 0x3 NOT CALLDATASIZE ADD SLT PUSH2 0x252 JUMPI DUP2 CALLDATALOAD SWAP1 PUSH1 0x24 CALLDATALOAD PUSH1 0x1 PUSH1 0x1 PUSH1 0x40 SHL SUB DUP2 GT PUSH2 0xCC7 JUMPI PUSH2 0x8C6 SWAP1 CALLDATASIZE SWAP1 DUP6 ADD PUSH2 0x1BD8 JUMP JUMPDEST SWAP1 PUSH2 0x8CF PUSH2 0x2085 JUMP JUMPDEST PUSH2 0x8D7 PUSH2 0x2064 JUMP JUMPDEST PUSH2 0x8E4 DUP5 SLOAD DUP5 GT ISZERO PUSH2 0x1D69 JUMP JUMPDEST DUP3 DUP6 MSTORE PUSH1 0x2 SWAP2 PUSH1 0x20 SWAP3 DUP1 DUP5 MSTORE PUSH2 0x902 PUSH1 0xFF PUSH1 0x9 DUP6 DUP11 KECCAK256 ADD SLOAD AND PUSH2 0x1F3D JUMP JUMPDEST DUP5 DUP8 MSTORE DUP1 DUP5 MSTORE PUSH2 0x91A PUSH1 0x5 DUP5 DUP10 KECCAK256 ADD SLOAD TIMESTAMP LT ISZERO PUSH2 0x1F83 JUMP JUMPDEST DUP5 DUP8 MSTORE DUP1 DUP5 MSTORE PUSH2 0x932 PUSH1 0x6 DUP5 DUP10 KECCAK256 ADD SLOAD TIMESTAMP GT ISZERO PUSH2 0x1FC7 JUMP JUMPDEST DUP5 DUP8 MSTORE DUP1 DUP5 MSTORE PUSH1 0xC DUP4 DUP9 KECCAK256 ADD CALLER DUP9 MSTORE DUP5 MSTORE PUSH1 0xFF DUP4 DUP9 KECCAK256 SLOAD AND PUSH2 0xC90 JUMPI DUP5 DUP8 MSTORE DUP1 DUP5 MSTORE PUSH1 0xB DUP4 DUP9 KECCAK256 ADD CALLER DUP9 MSTORE DUP5 MSTORE PUSH1 0xFF DUP4 DUP9 KECCAK256 SLOAD AND ISZERO PUSH2 0xC59 JUMPI DUP5 DUP8 MSTORE DUP1 DUP5 MSTORE DUP3 DUP8 KECCAK256 CALLER DUP9 MSTORE PUSH1 0xC DUP2 ADD DUP6 MSTORE DUP4 DUP9 KECCAK256 SWAP7 PUSH1 0x1 SWAP8 DUP9 PUSH1 0xFF NOT DUP3 SLOAD AND OR SWAP1 SSTORE PUSH2 0x9A5 PUSH1 0x3 DUP4 ADD SLOAD PUSH2 0x99F CALLER PUSH2 0x20A8 JUMP JUMPDEST SWAP1 PUSH2 0x1DC7 JUMP JUMPDEST SWAP4 CALLER DUP11 MSTORE PUSH1 0x5 DUP8 MSTORE DUP2 DUP7 DUP12 KECCAK256 SWAP4 PUSH2 0x9BC DUP6 SLOAD PUSH2 0x1F2E JUMP JUMPDEST DUP6 SSTORE DUP11 DUP6 ADD PUSH2 0x9CC DUP9 DUP3 SLOAD PUSH2 0x1DC7 JUMP JUMPDEST SWAP1 SSTORE TIMESTAMP DUP3 DUP7 ADD SSTORE ADD SLOAD PUSH2 0x9E4 PUSH1 0x5 DUP6 ADD SWAP2 DUP3 SLOAD PUSH2 0x1DC7 JUMP JUMPDEST SWAP1 SSTORE CALLER DUP11 MSTORE PUSH1 0x5 DUP8 MSTORE DUP6 DUP11 KECCAK256 DUP3 DUP2 ADD SWAP1 DUP11 DUP7 PUSH3 0x93A80 PUSH2 0xA05 DUP6 SLOAD TIMESTAMP PUSH2 0x1DEA JUMP JUMPDEST GT PUSH2 0xC50 JUMPI PUSH1 0x3 SWAP2 POP DUP3 ADD SWAP2 PUSH2 0xA1B DUP4 SLOAD PUSH2 0x1F2E JUMP JUMPDEST DUP1 SWAP4 SSTORE ADD DUP1 SLOAD DUP3 GT PUSH2 0xC48 JUMPI JUMPDEST POP POP JUMPDEST TIMESTAMP SWAP1 SSTORE PUSH2 0xA39 PUSH1 0xA SLOAD PUSH2 0x1F2E JUMP JUMPDEST PUSH1 0xA SSTORE PUSH2 0xA48 DUP6 PUSH1 0xB SLOAD PUSH2 0x1DC7 JUMP JUMPDEST PUSH1 0xB SSTORE DUP6 MLOAD PUSH2 0xA56 DUP2 PUSH2 0x1B69 JUMP JUMPDEST DUP9 DUP2 MSTORE DUP10 DUP9 DUP3 ADD SWAP3 CALLER DUP5 MSTORE DUP10 DUP14 DUP11 DUP1 DUP7 ADD SWAP2 TIMESTAMP DUP4 MSTORE PUSH1 0x6 PUSH1 0x60 DUP9 ADD SWAP5 DUP14 DUP7 MSTORE PUSH1 0x80 DUP10 ADD SWAP7 DUP8 MSTORE PUSH1 0xA0 DUP10 ADD SWAP8 DUP9 MSTORE CALLER DUP4 MSTORE MSTORE KECCAK256 DUP1 SLOAD SWAP1 PUSH1 0x1 PUSH1 0x40 SHL DUP3 LT ISZERO PUSH2 0xC33 JUMPI DUP16 DUP3 ADD DUP2 SSTORE PUSH2 0xAA6 SWAP2 SWAP1 PUSH2 0x1D4D JUMP JUMPDEST SWAP6 SWAP1 SWAP6 PUSH2 0xC20 JUMPI MLOAD DUP6 SSTORE SWAP5 MLOAD DUP14 DUP6 ADD DUP1 SLOAD PUSH1 0x1 PUSH1 0x1 PUSH1 0xA0 SHL SUB NOT AND PUSH1 0x1 PUSH1 0x1 PUSH1 0xA0 SHL SUB SWAP3 DUP4 AND OR SWAP1 SSTORE SWAP5 MLOAD DUP9 DUP6 ADD SSTORE MLOAD PUSH1 0x3 DUP5 ADD SSTORE MLOAD PUSH2 0xAFA SWAP3 SWAP2 PUSH1 0x5 SWAP2 PUSH2 0xAF0 SWAP1 DUP8 DUP6 ADD PUSH2 0x1E0B JUMP JUMPDEST MLOAD ISZERO ISZERO SWAP2 ADD PUSH2 0x1F1D JUMP JUMPDEST DUP7 DUP7 MLOAD DUP1 SWAP3 PUSH4 0xA9059CBB PUSH1 0xE0 SHL DUP3 MSTORE DUP2 DUP14 DUP2 PUSH2 0xB19 DUP12 CALLER DUP11 DUP5 ADD PUSH2 0x201D JUMP JUMPDEST SUB SWAP3 PUSH32 0x0 AND GAS CALL SWAP1 DUP2 ISZERO PUSH2 0xC16 JUMPI DUP11 SWAP2 PUSH2 0xBF9 JUMPI JUMPDEST POP ISZERO PUSH2 0xBBD JUMPI POP DUP4 MLOAD DUP4 DUP2 MSTORE TIMESTAMP DUP7 DUP3 ADD MSTORE DUP7 PUSH32 0x939953DC28F51D09C4CC5EAB0DF34092BA75F794E37CA4B7B2B55DFA4B2422CE DUP7 CALLER SWAP4 LOG3 ADD SLOAD SWAP3 DUP3 MLOAD SWAP5 DUP6 MSTORE DUP5 ADD MSTORE DUP3 ADD MSTORE PUSH32 0x185500F72F8DEA2F2EED1700236C8F0E33FA790BB722D7633340D13CC0F3202E PUSH1 0x60 CALLER SWAP3 LOG2 DUP2 SSTORE DUP1 RETURN JUMPDEST DUP5 MLOAD PUSH3 0x461BCD PUSH1 0xE5 SHL DUP2 MSTORE SWAP1 DUP2 ADD DUP7 SWAP1 MSTORE PUSH1 0x16 PUSH1 0x24 DUP3 ADD MSTORE PUSH22 0x14995DD85C99081D1C985B9CD9995C8819985A5B1959 PUSH1 0x52 SHL PUSH1 0x44 DUP3 ADD MSTORE PUSH1 0x64 SWAP1 REVERT JUMPDEST PUSH2 0xC10 SWAP2 POP DUP8 RETURNDATASIZE DUP10 GT PUSH2 0x776 JUMPI PUSH2 0x768 DUP2 DUP4 PUSH2 0x1BB5 JUMP JUMPDEST CODESIZE PUSH2 0xB4D JUMP JUMPDEST DUP7 MLOAD RETURNDATASIZE DUP13 DUP3 RETURNDATACOPY RETURNDATASIZE SWAP1 REVERT JUMPDEST POP PUSH4 0x4E487B71 PUSH1 0xE0 SHL DUP16 MSTORE DUP15 DUP8 MSTORE PUSH1 0x24 DUP16 REVERT JUMPDEST POP POP PUSH4 0x4E487B71 PUSH1 0xE0 SHL DUP16 MSTORE PUSH1 0x41 DUP8 MSTORE PUSH1 0x24 DUP16 REVERT JUMPDEST SSTORE CODESIZE DUP1 PUSH2 0xA28 JUMP JUMPDEST SWAP1 SWAP2 ADD SSTORE PUSH2 0xA2B JUMP JUMPDEST DUP3 MLOAD PUSH3 0x461BCD PUSH1 0xE5 SHL DUP2 MSTORE DUP1 DUP8 ADD DUP6 SWAP1 MSTORE PUSH1 0x11 PUSH1 0x24 DUP3 ADD MSTORE PUSH17 0x4E6F742070617274696369706174696E67 PUSH1 0x78 SHL PUSH1 0x44 DUP3 ADD MSTORE PUSH1 0x64 SWAP1 REVERT JUMPDEST DUP3 MLOAD PUSH3 0x461BCD PUSH1 0xE5 SHL DUP2 MSTORE DUP1 DUP8 ADD DUP6 SWAP1 MSTORE PUSH1 0x11 PUSH1 0x24 DUP3 ADD MSTORE PUSH17 0x105B1C9958591E4818DBDB5C1B195D1959 PUSH1 0x7A SHL PUSH1 0x44 DUP3 ADD MSTORE PUSH1 0x64 SWAP1 REVERT JUMPDEST DUP5 DUP1 REVERT JUMPDEST POP POP CALLVALUE PUSH2 0x1BA JUMPI DUP2 PUSH1 0x3 NOT CALLDATASIZE ADD SLT PUSH2 0x1BA JUMPI PUSH1 0x20 SWAP1 PUSH1 0xC SLOAD SWAP1 MLOAD SWAP1 DUP2 MSTORE RETURN JUMPDEST POP POP CALLVALUE PUSH2 0x1BA JUMPI DUP2 PUSH1 0x3 NOT CALLDATASIZE ADD SLT PUSH2 0x1BA JUMPI PUSH1 0x20 SWAP1 MLOAD PUSH9 0x3635C9ADC5DEA00000 DUP2 MSTORE RETURN JUMPDEST SWAP2 SWAP1 POP CALLVALUE PUSH2 0x252 JUMPI PUSH1 0x20 CALLDATASIZE PUSH1 0x3 NOT ADD SLT PUSH2 0x252 JUMPI DUP1 PUSH1 0xE0 SWAP4 PUSH2 0xD2E PUSH2 0x1B4E JUMP JUMPDEST DUP2 PUSH1 0xC0 DUP5 MLOAD PUSH2 0xD3C DUP2 PUSH2 0x1B9A JUMP JUMPDEST DUP3 DUP2 MSTORE DUP3 PUSH1 0x20 DUP3 ADD MSTORE DUP3 DUP7 DUP3 ADD MSTORE DUP3 PUSH1 0x60 DUP3 ADD MSTORE DUP3 PUSH1 0x80 DUP3 ADD MSTORE DUP3 PUSH1 0xA0 DUP3 ADD MSTORE ADD MSTORE PUSH1 0x1 DUP1 PUSH1 0xA0 SHL SUB AND DUP2 MSTORE PUSH1 0x5 PUSH1 0x20 MSTORE KECCAK256 DUP2 MLOAD SWAP2 PUSH2 0xD7A DUP4 PUSH2 0x1B9A JUMP JUMPDEST DUP2 SLOAD SWAP4 DUP5 DUP5 MSTORE PUSH1 0x1 DUP4 ADD SLOAD SWAP2 PUSH1 0x20 DUP6 ADD SWAP3 DUP4 MSTORE PUSH1 0x2 DUP5 ADD SLOAD DUP2 DUP7 ADD SWAP1 DUP2 MSTORE PUSH1 0x3 DUP6 ADD SLOAD SWAP3 PUSH1 0x60 DUP8 ADD SWAP4 DUP5 MSTORE DUP6 ADD SLOAD SWAP4 PUSH1 0x80 DUP8 ADD SWAP5 DUP6 MSTORE PUSH1 0xC0 PUSH1 0xFF PUSH1 0x6 PUSH1 0x5 DUP10 ADD SLOAD SWAP9 PUSH1 0xA0 DUP12 ADD SWAP10 DUP11 MSTORE ADD SLOAD AND SWAP8 ADD SWAP7 ISZERO ISZERO DUP8 MSTORE DUP3 MLOAD SWAP8 DUP9 MSTORE MLOAD PUSH1 0x20 DUP9 ADD MSTORE MLOAD SWAP1 DUP7 ADD MSTORE MLOAD PUSH1 0x60 DUP6 ADD MSTORE MLOAD PUSH1 0x80 DUP5 ADD MSTORE MLOAD PUSH1 0xA0 DUP4 ADD MSTORE MLOAD ISZERO ISZERO PUSH1 0xC0 DUP3 ADD MSTORE RETURN JUMPDEST SWAP1 POP DUP3 CALLVALUE PUSH2 0x2FC JUMPI PUSH1 0x20 CALLDATASIZE PUSH1 0x3 NOT ADD SLT PUSH2 0x2FC JUMPI DUP3 SWAP1 DUP3 CALLDATALOAD DUP2 MSTORE PUSH1 0x2 PUSH1 0x20 MSTORE KECCAK256 SWAP2 DUP3 SLOAD SWAP2 PUSH1 0x1 DUP5 ADD PUSH2 0xE2A SWAP1 PUSH2 0x1C99 JUMP JUMPDEST SWAP4 PUSH2 0xE37 PUSH1 0x2 DUP3 ADD PUSH2 0x1C99 JUMP JUMPDEST PUSH1 0x3 DUP3 ADD SLOAD SWAP3 DUP3 ADD SLOAD PUSH1 0x5 DUP4 ADD SLOAD PUSH1 0x6 DUP5 ADD SLOAD SWAP1 PUSH1 0x7 DUP6 ADD SLOAD SWAP3 PUSH1 0x8 DUP7 ADD SLOAD SWAP5 PUSH1 0x9 DUP8 ADD SLOAD SWAP7 PUSH1 0xA ADD PUSH2 0xE69 SWAP1 PUSH2 0x1C99 JUMP JUMPDEST SWAP9 DUP1 MLOAD SWAP12 DUP13 DUP1 SWAP13 PUSH2 0x180 SWAP2 DUP3 SWAP2 DUP2 MSTORE PUSH1 0x20 ADD MSTORE DUP13 ADD PUSH2 0xE87 SWAP2 PUSH2 0x1B29 JUMP JUMPDEST SWAP1 DUP12 DUP3 SUB SWAP1 DUP13 ADD MSTORE PUSH2 0xE98 SWAP2 PUSH2 0x1B29 JUMP JUMPDEST SWAP7 PUSH1 0x60 DUP11 ADD MSTORE PUSH1 0x80 DUP10 ADD MSTORE PUSH1 0xA0 DUP9 ADD MSTORE PUSH1 0xC0 DUP8 ADD MSTORE PUSH1 0xE0 DUP7 ADD MSTORE PUSH2 0x100 DUP6 ADD MSTORE PUSH1 0xFF DUP2 AND ISZERO ISZERO PUSH2 0x120 DUP6 ADD MSTORE PUSH1 0x8 SHR PUSH1 0xFF AND ISZERO ISZERO PUSH2 0x140 DUP5 ADD MSTORE DUP3 DUP2 SUB PUSH2 0x160 DUP5 ADD MSTORE PUSH2 0xEE4 SWAP2 PUSH2 0x1B29 JUMP JUMPDEST SUB SWAP1 RETURN JUMPDEST POP POP CALLVALUE PUSH2 0x1BA JUMPI DUP2 PUSH1 0x3 NOT CALLDATASIZE ADD SLT PUSH2 0x1BA JUMPI PUSH1 0x1 SLOAD SWAP1 MLOAD PUSH1 0x1 PUSH1 0x1 PUSH1 0xA0 SHL SUB SWAP1 SWAP2 AND DUP2 MSTORE PUSH1 0x20 SWAP1 RETURN JUMPDEST SWAP1 POP CALLVALUE PUSH2 0x252 JUMPI DUP2 PUSH1 0x3 NOT CALLDATASIZE ADD SLT PUSH2 0x252 JUMPI PUSH1 0x9 PUSH2 0xF57 SWAP3 DUP3 CALLDATALOAD PUSH2 0xF48 PUSH2 0xF36 PUSH2 0x1D3E JUMP JUMPDEST SWAP5 PUSH2 0xF3F PUSH2 0x2038 JUMP JUMPDEST SLOAD DUP3 GT ISZERO PUSH2 0x1D69 JUMP JUMPDEST DUP6 MSTORE PUSH1 0x2 PUSH1 0x20 MSTORE DUP5 KECCAK256 ADD PUSH2 0x1F1D JUMP JUMPDEST DUP1 RETURN JUMPDEST DUP3 DUP5 CALLVALUE PUSH2 0x2FC JUMPI PUSH1 0x20 CALLDATASIZE PUSH1 0x3 NOT ADD SLT PUSH2 0x2FC JUMPI DUP2 SWAP1 DUP4 CALLDATALOAD DUP5 SLOAD DUP2 GT ISZERO PUSH2 0xF7F SWAP1 PUSH2 0x1D69 JUMP JUMPDEST DUP2 MSTORE PUSH1 0x2 PUSH1 0x20 MSTORE KECCAK256 SWAP2 PUSH1 0x3 DUP4 ADD SLOAD SWAP1 DUP4 ADD SLOAD SWAP2 PUSH1 0x5 DUP5 ADD SLOAD PUSH1 0x6 DUP6 ADD SLOAD PUSH1 0x7 DUP7 ADD SLOAD PUSH1 0x8 DUP8 ADD SLOAD SWAP2 PUSH1 0x9 DUP9 ADD SLOAD SWAP4 PUSH1 0x1 DUP10 ADD PUSH2 0xFBA SWAP1 PUSH2 0x1C99 JUMP JUMPDEST SWAP8 PUSH2 0xFC7 PUSH1 0x2 DUP12 ADD PUSH2 0x1C99 JUMP JUMPDEST SWAP10 PUSH1 0xA ADD PUSH2 0xFD4 SWAP1 PUSH2 0x1C99 JUMP JUMPDEST SWAP8 DUP8 MLOAD SWAP11 DUP12 SWAP11 PUSH2 0x160 DUP1 DUP14 MSTORE DUP13 ADD PUSH2 0xFEB SWAP2 PUSH2 0x1B29 JUMP JUMPDEST DUP12 DUP2 SUB PUSH1 0x20 DUP14 ADD MSTORE PUSH2 0xFFC SWAP2 PUSH2 0x1B29 JUMP JUMPDEST SWAP8 DUP11 ADD MSTORE PUSH1 0x60 DUP10 ADD MSTORE PUSH1 0x80 DUP9 ADD MSTORE PUSH1 0xA0 DUP8 ADD MSTORE PUSH1 0xC0 DUP7 ADD MSTORE PUSH1 0xE0 DUP6 ADD MSTORE PUSH1 0xFF DUP2 AND ISZERO ISZERO PUSH2 0x100 DUP6 ADD MSTORE PUSH1 0x8 SHR PUSH1 0xFF AND ISZERO ISZERO PUSH2 0x120 DUP5 ADD MSTORE DUP3 DUP2 SUB PUSH2 0x140 DUP5 ADD MSTORE PUSH2 0xEE4 SWAP2 PUSH2 0x1B29 JUMP JUMPDEST POP POP CALLVALUE PUSH2 0x1BA JUMPI DUP2 PUSH1 0x3 NOT CALLDATASIZE ADD SLT PUSH2 0x1BA JUMPI PUSH1 0x20 SWAP1 PUSH1 0xD SLOAD SWAP1 MLOAD SWAP1 DUP2 MSTORE RETURN JUMPDEST DUP4 CALLVALUE PUSH2 0x2FC JUMPI DUP1 PUSH1 0x3 NOT CALLDATASIZE ADD SLT PUSH2 0x2FC JUMPI PUSH2 0x107D PUSH2 0x2038 JUMP JUMPDEST PUSH1 0x1 DUP1 SLOAD PUSH1 0x1 PUSH1 0x1 PUSH1 0xA0 SHL SUB NOT DUP2 AND SWAP1 SWAP2 SSTORE DUP2 SWAP1 PUSH1 0x1 PUSH1 0x1 PUSH1 0xA0 SHL SUB AND PUSH1 0x0 DUP1 MLOAD PUSH1 0x20 PUSH2 0x2174 DUP4 CODECOPY DUP2 MLOAD SWAP2 MSTORE DUP3 DUP1 LOG3 DUP1 RETURN JUMPDEST POP POP CALLVALUE PUSH2 0x1BA JUMPI DUP2 PUSH1 0x3 NOT CALLDATASIZE ADD SLT PUSH2 0x1BA JUMPI PUSH1 0x20 SWAP1 PUSH1 0x3 SLOAD SWAP1 MLOAD SWAP1 DUP2 MSTORE RETURN JUMPDEST POP POP CALLVALUE PUSH2 0x1BA JUMPI DUP2 PUSH1 0x3 NOT CALLDATASIZE ADD SLT PUSH2 0x1BA JUMPI PUSH1 0x20 SWAP1 MLOAD PUSH3 0x93A80 DUP2 MSTORE RETURN JUMPDEST DUP3 DUP5 CALLVALUE PUSH2 0x2FC JUMPI PUSH1 0x20 CALLDATASIZE PUSH1 0x3 NOT ADD SLT PUSH2 0x2FC JUMPI DUP3 CALLDATALOAD SWAP1 PUSH1 0x1 PUSH1 0x1 PUSH1 0x40 SHL SUB DUP3 GT PUSH2 0x2FC JUMPI POP PUSH1 0x20 PUSH2 0x1124 DUP2 SWAP5 PUSH2 0x1136 SWAP4 CALLDATASIZE SWAP2 ADD PUSH2 0x1BD8 JUMP JUMPDEST DUP2 DUP5 MLOAD SWAP4 DUP3 DUP6 DUP1 SWAP5 MLOAD SWAP4 DUP5 SWAP3 ADD PUSH2 0x1B06 JUMP JUMPDEST DUP2 ADD PUSH1 0x8 DUP2 MSTORE SUB ADD SWAP1 KECCAK256 SLOAD SWAP1 MLOAD SWAP1 DUP2 MSTORE RETURN JUMPDEST POP POP CALLVALUE PUSH2 0x1BA JUMPI DUP2 PUSH1 0x3 NOT CALLDATASIZE ADD SLT PUSH2 0x1BA JUMPI PUSH1 0x20 SWAP1 PUSH1 0xFF PUSH1 0x1 SLOAD PUSH1 0xA0 SHR AND SWAP1 MLOAD SWAP1 ISZERO ISZERO DUP2 MSTORE RETURN JUMPDEST POP POP CALLVALUE PUSH2 0x1BA JUMPI DUP2 PUSH1 0x3 NOT CALLDATASIZE ADD SLT PUSH2 0x1BA JUMPI PUSH1 0x20 SWAP1 MLOAD PUSH1 0xA DUP2 MSTORE RETURN JUMPDEST SWAP1 POP CALLVALUE PUSH2 0x252 JUMPI PUSH1 0x20 CALLDATASIZE PUSH1 0x3 NOT ADD SLT PUSH2 0x252 JUMPI PUSH1 0xE0 SWAP3 DUP3 SWAP1 PUSH1 0x1 PUSH1 0x1 PUSH1 0xA0 SHL SUB PUSH2 0x11B3 PUSH2 0x1B4E JUMP JUMPDEST AND DUP2 MSTORE PUSH1 0x5 PUSH1 0x20 MSTORE KECCAK256 DUP1 SLOAD SWAP3 PUSH1 0x1 DUP3 ADD SLOAD SWAP3 PUSH1 0x2 DUP4 ADD SLOAD PUSH1 0x3 DUP5 ADD SLOAD SWAP2 DUP5 ADD SLOAD SWAP3 PUSH1 0xFF PUSH1 0x6 PUSH1 0x5 DUP8 ADD SLOAD SWAP7 ADD SLOAD AND SWAP6 DUP2 MLOAD SWAP8 DUP9 MSTORE PUSH1 0x20 DUP9 ADD MSTORE DUP7 ADD MSTORE PUSH1 0x60 DUP6 ADD MSTORE PUSH1 0x80 DUP5 ADD MSTORE PUSH1 0xA0 DUP4 ADD MSTORE ISZERO ISZERO PUSH1 0xC0 DUP3 ADD MSTORE RETURN JUMPDEST DUP3 DUP5 CALLVALUE PUSH2 0x2FC JUMPI PUSH1 0x20 CALLDATASIZE PUSH1 0x3 NOT ADD SLT PUSH2 0x2FC JUMPI DUP3 CALLDATALOAD PUSH1 0x9 SLOAD DUP2 LT ISZERO PUSH2 0x1BA JUMPI PUSH2 0x122F SWAP1 PUSH2 0x1C2E JUMP JUMPDEST SWAP4 SWAP1 SWAP4 PUSH2 0x1256 JUMPI PUSH2 0xEE4 DUP4 PUSH2 0x1243 DUP7 PUSH2 0x1C99 JUMP JUMPDEST SWAP1 MLOAD SWAP2 DUP3 SWAP2 PUSH1 0x20 DUP4 MSTORE PUSH1 0x20 DUP4 ADD SWAP1 PUSH2 0x1B29 JUMP JUMPDEST PUSH4 0x4E487B71 PUSH1 0xE0 SHL DUP3 MSTORE DUP2 SWAP1 MSTORE PUSH1 0x24 SWAP1 REVERT JUMPDEST POP POP CALLVALUE PUSH2 0x1BA JUMPI PUSH1 0x20 CALLDATASIZE PUSH1 0x3 NOT ADD SLT PUSH2 0x1BA JUMPI PUSH1 0x20 SWAP2 PUSH1 0xFF SWAP1 DUP3 SWAP1 PUSH1 0x1 PUSH1 0x1 PUSH1 0xA0 SHL SUB PUSH2 0x1293 PUSH2 0x1B4E JUMP JUMPDEST AND DUP2 MSTORE PUSH1 0x7 DUP6 MSTORE KECCAK256 SLOAD AND SWAP1 MLOAD SWAP1 ISZERO ISZERO DUP2 MSTORE RETURN JUMPDEST SWAP2 SWAP1 POP CALLVALUE PUSH2 0x252 JUMPI PUSH1 0xC0 CALLDATASIZE PUSH1 0x3 NOT ADD SLT PUSH2 0x252 JUMPI PUSH1 0x1 PUSH1 0x1 PUSH1 0x40 SHL SUB SWAP1 DUP3 CALLDATALOAD DUP3 DUP2 GT PUSH2 0xCC7 JUMPI PUSH2 0x12D9 SWAP1 CALLDATASIZE SWAP1 DUP6 ADD PUSH2 0x1BD8 JUMP JUMPDEST SWAP2 PUSH1 0x24 SWAP1 DUP2 CALLDATALOAD DUP2 DUP2 GT PUSH2 0x7EB JUMPI PUSH2 0x12F3 SWAP1 CALLDATASIZE SWAP1 DUP8 ADD PUSH2 0x1BD8 JUMP JUMPDEST SWAP2 PUSH1 0x44 SWAP6 DUP7 CALLDATALOAD SWAP2 PUSH1 0x64 SWAP2 DUP3 CALLDATALOAD SWAP5 PUSH1 0x84 CALLDATALOAD SWAP1 DUP2 GT PUSH2 0x16A5 JUMPI PUSH2 0x1317 SWAP1 CALLDATASIZE SWAP1 DUP4 ADD PUSH2 0x1BD8 JUMP JUMPDEST SWAP3 PUSH1 0xA4 CALLDATALOAD SWAP10 PUSH2 0x1324 PUSH2 0x2038 JUMP JUMPDEST PUSH2 0x132C PUSH2 0x2064 JUMP JUMPDEST DUP10 MLOAD ISZERO PUSH2 0x166F JUMPI DUP8 MLOAD ISZERO PUSH2 0x1633 JUMPI PUSH8 0x8AC7230489E80000 DUP7 LT PUSH2 0x1604 JUMPI PUSH9 0x3635C9ADC5DEA00000 DUP7 GT PUSH2 0x15D4 JUMPI PUSH1 0x1 DUP8 LT ISZERO DUP1 PUSH2 0x15C9 JUMPI JUMPDEST ISZERO PUSH2 0x1596 JUMPI DUP11 ISZERO ISZERO DUP1 PUSH2 0x158A JUMPI JUMPDEST ISZERO PUSH2 0x1551 JUMPI POP POP PUSH1 0x3 SLOAD SWAP9 PUSH3 0x93A80 TIMESTAMP ADD SWAP7 DUP8 TIMESTAMP GT PUSH2 0x153F JUMPI PUSH1 0xA DUP12 PUSH2 0x13F4 SWAP4 PUSH2 0x13BC DUP16 SWAP5 PUSH2 0x13B3 DUP16 DUP16 DUP9 DUP8 DUP15 SWAP11 MSTORE PUSH1 0x2 PUSH1 0x20 MSTORE KECCAK256 SWAP6 DUP7 SSTORE PUSH1 0x1 DUP7 ADD PUSH2 0x1E0B JUMP JUMPDEST PUSH1 0x2 DUP5 ADD PUSH2 0x1E0B JUMP JUMPDEST DUP9 PUSH1 0x3 DUP4 ADD SSTORE DUP10 DUP7 DUP4 ADD SSTORE TIMESTAMP PUSH1 0x5 DUP4 ADD SSTORE DUP11 PUSH1 0x6 DUP4 ADD SSTORE PUSH1 0x7 DUP3 ADD SSTORE DUP14 PUSH1 0x8 DUP3 ADD SSTORE PUSH1 0x9 DUP2 ADD PUSH1 0x1 PUSH2 0xFFFF NOT DUP3 SLOAD AND OR SWAP1 SSTORE ADD PUSH2 0x1E0B JUMP JUMPDEST PUSH2 0x13FF PUSH1 0x3 SLOAD PUSH2 0x1F2E JUMP JUMPDEST PUSH1 0x3 SSTORE PUSH2 0x140C DUP2 SLOAD PUSH2 0x1F2E JUMP JUMPDEST DUP2 SSTORE DUP7 MLOAD SWAP2 DUP4 MLOAD SWAP3 PUSH1 0x20 DUP2 DUP2 DUP8 ADD SWAP6 PUSH2 0x1426 DUP2 DUP4 DUP10 PUSH2 0x1B06 JUMP JUMPDEST DUP2 ADD PUSH1 0x8 DUP2 MSTORE SUB ADD SWAP1 KECCAK256 SLOAD ISZERO PUSH2 0x14BB JUMPI JUMPDEST POP POP SWAP2 PUSH2 0x14A1 DUP7 SWAP5 SWAP3 PUSH2 0x146A PUSH1 0x20 PUSH1 0x0 DUP1 MLOAD PUSH1 0x20 PUSH2 0x2154 DUP4 CODECOPY DUP2 MLOAD SWAP2 MSTORE SWAP11 SWAP9 SWAP7 PUSH2 0x1493 SWAP11 MLOAD DUP1 SWAP4 DUP2 SWAP3 DUP7 MLOAD SWAP3 DUP4 SWAP2 PUSH2 0x1B06 JUMP JUMPDEST DUP2 ADD PUSH1 0x8 DUP2 MSTORE SUB ADD SWAP1 KECCAK256 PUSH2 0x147E DUP2 SLOAD PUSH2 0x1F2E JUMP JUMPDEST SWAP1 SSTORE DUP6 MLOAD SWAP8 DUP9 SWAP8 PUSH1 0xC0 DUP10 MSTORE PUSH1 0xC0 DUP10 ADD SWAP1 PUSH2 0x1B29 JUMP JUMPDEST SWAP1 DUP8 DUP3 SUB PUSH1 0x20 DUP10 ADD MSTORE PUSH2 0x1B29 JUMP JUMPDEST SWAP4 DUP6 ADD MSTORE PUSH1 0x60 DUP5 ADD MSTORE TIMESTAMP PUSH1 0x80 DUP5 ADD MSTORE PUSH1 0xA0 DUP4 ADD MSTORE SUB SWAP1 LOG2 DUP1 RETURN JUMPDEST PUSH1 0x9 SLOAD PUSH1 0x1 PUSH1 0x40 SHL DUP2 LT ISZERO PUSH2 0x152D JUMPI DUP1 PUSH1 0x1 PUSH2 0x14DA SWAP3 ADD PUSH1 0x9 SSTORE PUSH2 0x1C2E JUMP JUMPDEST SWAP3 SWAP1 SWAP3 PUSH2 0x151D JUMPI POP POP DUP3 PUSH2 0x146A PUSH1 0x20 PUSH1 0x0 DUP1 MLOAD PUSH1 0x20 PUSH2 0x2154 DUP4 CODECOPY DUP2 MLOAD SWAP2 MSTORE SWAP11 SWAP9 SWAP7 SWAP5 PUSH2 0x150E PUSH2 0x1493 SWAP12 SWAP10 SWAP8 PUSH2 0x14A1 SWAP7 PUSH2 0x1E0B JUMP JUMPDEST SWAP5 SWAP7 SWAP9 SWAP11 POP POP POP SWAP3 SWAP5 SWAP7 PUSH2 0x1437 JUMP JUMPDEST PUSH4 0x4E487B71 PUSH1 0xE0 SHL DUP13 MSTORE DUP12 SWAP1 MSTORE DUP11 REVERT JUMPDEST POP PUSH4 0x4E487B71 PUSH1 0xE0 SHL DUP12 MSTORE PUSH1 0x41 DUP3 MSTORE DUP11 REVERT JUMPDEST PUSH4 0x4E487B71 PUSH1 0xE0 SHL DUP13 MSTORE PUSH1 0x11 DUP4 MSTORE DUP4 DUP13 REVERT JUMPDEST PUSH1 0x18 PUSH24 0x496E76616C6964206D6178207061727469636970616E7473 PUSH1 0x40 SHL SWAP3 SWAP5 PUSH1 0x20 DUP12 MLOAD SWAP6 PUSH3 0x461BCD PUSH1 0xE5 SHL DUP8 MSTORE DUP7 ADD MSTORE DUP5 ADD MSTORE DUP3 ADD MSTORE REVERT JUMPDEST POP PUSH2 0x3E8 DUP12 GT ISZERO PUSH2 0x1372 JUMP JUMPDEST PUSH1 0x12 PUSH18 0x496E76616C696420646966666963756C7479 PUSH1 0x70 SHL SWAP3 SWAP5 PUSH1 0x20 DUP12 MLOAD SWAP6 PUSH3 0x461BCD PUSH1 0xE5 SHL DUP8 MSTORE DUP7 ADD MSTORE DUP5 ADD MSTORE DUP3 ADD MSTORE REVERT JUMPDEST POP PUSH1 0x5 DUP8 GT ISZERO PUSH2 0x1364 JUMP JUMPDEST PUSH1 0xF PUSH15 0xA4CAEEC2E4C840E8DEDE40D0D2CED PUSH1 0x8B SHL SWAP3 SWAP5 PUSH1 0x20 DUP12 MLOAD SWAP6 PUSH3 0x461BCD PUSH1 0xE5 SHL DUP8 MSTORE DUP7 ADD MSTORE DUP5 ADD MSTORE DUP3 ADD MSTORE REVERT JUMPDEST PUSH1 0xE PUSH14 0x52657761726420746F6F206C6F77 PUSH1 0x90 SHL SWAP3 SWAP5 PUSH1 0x20 DUP12 MLOAD SWAP6 PUSH3 0x461BCD PUSH1 0xE5 SHL DUP8 MSTORE DUP7 ADD MSTORE DUP5 ADD MSTORE DUP3 ADD MSTORE REVERT JUMPDEST PUSH1 0x1B PUSH27 0x4465736372697074696F6E2063616E6E6F7420626520656D707479 PUSH1 0x28 SHL SWAP3 SWAP5 PUSH1 0x20 DUP12 MLOAD SWAP6 PUSH3 0x461BCD PUSH1 0xE5 SHL DUP8 MSTORE DUP7 ADD MSTORE DUP5 ADD MSTORE DUP3 ADD MSTORE REVERT JUMPDEST PUSH1 0x15 PUSH21 0x5469746C652063616E6E6F7420626520656D707479 PUSH1 0x58 SHL SWAP3 SWAP5 PUSH1 0x20 DUP12 MLOAD SWAP6 PUSH3 0x461BCD PUSH1 0xE5 SHL DUP8 MSTORE DUP7 ADD MSTORE DUP5 ADD MSTORE DUP3 ADD MSTORE REVERT JUMPDEST DUP11 DUP1 REVERT JUMPDEST POP POP CALLVALUE PUSH2 0x1BA JUMPI DUP2 PUSH1 0x3 NOT CALLDATASIZE ADD SLT PUSH2 0x1BA JUMPI PUSH1 0x20 SWAP1 PUSH1 0xA SLOAD SWAP1 MLOAD SWAP1 DUP2 MSTORE RETURN JUMPDEST POP POP CALLVALUE PUSH2 0x1BA JUMPI DUP2 PUSH1 0x3 NOT CALLDATASIZE ADD SLT PUSH2 0x1BA JUMPI MLOAD PUSH32 0x0 PUSH1 0x1 PUSH1 0x1 PUSH1 0xA0 SHL SUB AND DUP2 MSTORE PUSH1 0x20 SWAP1 RETURN JUMPDEST DUP3 DUP5 CALLVALUE PUSH2 0x2FC JUMPI PUSH1 0x60 SWAP3 DUP4 PUSH1 0x3 NOT CALLDATASIZE ADD SLT PUSH2 0x1BA JUMPI PUSH2 0x1729 PUSH2 0x1B4E JUMP JUMPDEST SWAP1 PUSH1 0x24 CALLDATALOAD SWAP3 PUSH1 0x1 DUP1 PUSH1 0xA0 SHL SUB DUP1 SWAP4 AND DUP2 MSTORE PUSH1 0x20 SWAP2 PUSH1 0x6 DUP4 MSTORE DUP6 DUP3 KECCAK256 SWAP5 DUP6 SLOAD SWAP2 DUP3 DUP3 LT ISZERO PUSH2 0x1929 JUMPI PUSH2 0x175C PUSH1 0x44 CALLDATALOAD DUP4 PUSH2 0x1DC7 JUMP JUMPDEST SWAP3 DUP1 DUP5 GT PUSH2 0x1921 JUMPI JUMPDEST POP PUSH2 0x1775 DUP3 DUP5 SWAP10 SWAP7 SWAP6 SWAP8 SWAP10 PUSH2 0x1DEA JUMP JUMPDEST SWAP7 PUSH2 0x1797 PUSH2 0x1782 DUP10 PUSH2 0x1DB0 JUMP JUMPDEST SWAP9 PUSH2 0x178F DUP9 MLOAD SWAP11 DUP12 PUSH2 0x1BB5 JUMP JUMPDEST DUP1 DUP11 MSTORE PUSH2 0x1DB0 JUMP JUMPDEST PUSH1 0x1F NOT ADD DUP8 JUMPDEST DUP12 DUP3 DUP3 LT PUSH2 0x18E0 JUMPI POP POP POP DUP3 JUMPDEST DUP11 DUP6 DUP3 LT PUSH2 0x1854 JUMPI POP POP POP POP POP POP DUP2 MLOAD SWAP5 DUP2 DUP7 ADD SWAP3 DUP3 DUP8 MSTORE DUP6 MLOAD DUP1 SWAP5 MSTORE DUP1 DUP8 ADD SWAP2 DUP4 DUP3 DUP7 PUSH1 0x5 SHL DUP11 ADD ADD SWAP8 ADD SWAP6 SWAP9 JUMPDEST DUP6 DUP11 LT PUSH2 0x17E6 JUMPI DUP9 DUP9 SUB DUP10 RETURN JUMPDEST SWAP1 SWAP2 SWAP3 SWAP4 SWAP5 SWAP6 SWAP7 DUP6 DUP1 PUSH1 0x1 SWAP3 PUSH1 0x3F NOT DUP13 DUP3 SUB ADD DUP9 MSTORE DUP11 MLOAD SWAP1 PUSH2 0x1835 PUSH1 0xC0 DUP4 MLOAD DUP4 MSTORE DUP9 DUP6 DUP6 ADD MLOAD AND DUP6 DUP5 ADD MSTORE DUP10 DUP5 ADD MLOAD DUP11 DUP5 ADD MSTORE DUP8 DUP5 ADD MLOAD DUP9 DUP5 ADD MSTORE PUSH1 0x80 SWAP1 DUP1 DUP3 DUP7 ADD MLOAD SWAP3 DUP6 ADD MSTORE DUP4 ADD SWAP1 PUSH2 0x1B29 JUMP JUMPDEST SWAP2 PUSH1 0xA0 DUP1 SWAP2 ADD MLOAD ISZERO ISZERO SWAP2 ADD MSTORE SWAP10 ADD SWAP6 ADD SWAP10 ADD SWAP9 SWAP3 SWAP2 SWAP1 SWAP6 SWAP5 SWAP4 SWAP6 PUSH2 0x17D9 JUMP JUMPDEST SWAP1 PUSH2 0x18D4 DUP9 DUP13 PUSH2 0x18CD DUP11 SWAP12 SWAP15 SWAP13 SWAP11 DUP15 PUSH1 0xFF PUSH1 0x5 DUP13 PUSH1 0x1 SWAP11 PUSH2 0x1880 PUSH2 0x1878 DUP13 DUP16 PUSH2 0x1D4D JUMP JUMPDEST POP SWAP3 DUP13 PUSH2 0x1DEA JUMP JUMPDEST SWAP9 DUP10 SWAP7 DUP2 MLOAD SWAP10 PUSH2 0x188F DUP12 PUSH2 0x1B69 JUMP JUMPDEST DUP5 SLOAD DUP12 MSTORE DUP15 DUP6 ADD SLOAD AND SWAP1 DUP11 ADD MSTORE PUSH1 0x2 DUP4 ADD SLOAD SWAP1 DUP10 ADD MSTORE PUSH1 0x3 DUP3 ADD SLOAD SWAP1 DUP9 ADD MSTORE PUSH2 0x18B9 DUP14 DUP3 ADD PUSH2 0x1C99 JUMP JUMPDEST PUSH1 0x80 DUP9 ADD MSTORE ADD SLOAD AND ISZERO ISZERO PUSH1 0xA0 DUP6 ADD MSTORE PUSH2 0x1DF7 JUMP JUMPDEST MSTORE DUP12 PUSH2 0x1DF7 JUMP JUMPDEST POP ADD SWAP9 SWAP6 SWAP5 SWAP7 SWAP9 PUSH2 0x17AA JUMP JUMPDEST SWAP1 DUP9 DUP11 DUP10 SWAP11 SWAP14 SWAP12 SWAP10 SWAP4 DUP2 DUP4 MLOAD SWAP4 PUSH2 0x18F6 DUP6 PUSH2 0x1B69 JUMP JUMPDEST DUP2 DUP6 MSTORE DUP2 DUP8 DUP7 ADD MSTORE DUP5 ADD MSTORE DUP3 ADD MSTORE DUP14 PUSH1 0x80 DUP3 ADD MSTORE DUP9 PUSH1 0xA0 DUP3 ADD MSTORE DUP3 DUP3 DUP14 ADD ADD MSTORE ADD SWAP10 SWAP7 SWAP6 SWAP8 SWAP10 PUSH2 0x179D JUMP JUMPDEST SWAP3 POP DUP10 PUSH2 0x1765 JUMP JUMPDEST DUP8 MLOAD PUSH3 0x461BCD PUSH1 0xE5 SHL DUP2 MSTORE SWAP1 DUP2 ADD DUP6 SWAP1 MSTORE PUSH1 0x13 PUSH1 0x24 DUP3 ADD MSTORE PUSH19 0x92DCECC2D8D2C840E6E8C2E4E840D2DCC8CAF PUSH1 0x6B SHL PUSH1 0x44 DUP3 ADD MSTORE PUSH1 0x64 SWAP1 REVERT JUMPDEST DUP3 DUP5 CALLVALUE PUSH2 0x2FC JUMPI DUP1 PUSH1 0x3 NOT CALLDATASIZE ADD SLT PUSH2 0x2FC JUMPI PUSH1 0x9 SLOAD PUSH2 0x1980 DUP2 PUSH2 0x1DB0 JUMP JUMPDEST SWAP2 PUSH2 0x198D DUP5 MLOAD SWAP4 DUP5 PUSH2 0x1BB5 JUMP JUMPDEST DUP2 DUP4 MSTORE PUSH1 0x9 DUP2 MSTORE PUSH1 0x20 SWAP3 DUP4 DUP2 ADD SWAP3 DUP3 PUSH32 0x6E1540171B6C0C960B71A7020D9F60077F6AF931A8BBF590DA0223DACF75C7AF DUP6 JUMPDEST DUP4 DUP4 LT PUSH2 0x1A20 JUMPI POP POP POP POP DUP5 MLOAD SWAP4 DUP1 DUP6 ADD SWAP2 DUP2 DUP7 MSTORE MLOAD DUP1 SWAP3 MSTORE DUP6 DUP6 ADD SWAP6 DUP3 PUSH1 0x5 SHL DUP7 ADD ADD SWAP4 SWAP3 SWAP6 JUMPDEST DUP3 DUP8 LT PUSH2 0x19F4 JUMPI DUP6 DUP6 SUB DUP7 RETURN JUMPDEST SWAP1 SWAP2 SWAP3 SWAP4 DUP3 DUP1 PUSH2 0x1A10 PUSH1 0x1 SWAP4 PUSH1 0x3F NOT DUP11 DUP3 SUB ADD DUP7 MSTORE DUP9 MLOAD PUSH2 0x1B29 JUMP JUMPDEST SWAP7 ADD SWAP3 ADD SWAP7 ADD SWAP6 SWAP3 SWAP2 SWAP1 SWAP3 PUSH2 0x19E7 JUMP JUMPDEST PUSH1 0x1 DUP9 DUP2 SWAP3 PUSH2 0x1A32 DUP6 SWAP12 SWAP9 SWAP10 SWAP12 PUSH2 0x1C99 JUMP JUMPDEST DUP2 MSTORE ADD SWAP3 ADD SWAP3 ADD SWAP2 SWAP1 SWAP7 SWAP5 SWAP4 SWAP7 PUSH2 0x19BF JUMP JUMPDEST SWAP1 POP DUP3 CALLVALUE PUSH2 0x2FC JUMPI PUSH1 0x20 SWAP2 DUP3 PUSH1 0x3 NOT CALLDATASIZE ADD SLT PUSH2 0x1BA JUMPI PUSH2 0x1A6C DUP2 SWAP5 SWAP4 SWAP5 CALLDATALOAD SWAP2 SLOAD DUP3 GT ISZERO PUSH2 0x1D69 JUMP JUMPDEST DUP2 MSTORE PUSH1 0x2 DUP4 MSTORE PUSH1 0xD DUP3 DUP3 KECCAK256 ADD SWAP1 DUP3 MLOAD DUP1 DUP6 DUP5 SLOAD SWAP2 DUP3 DUP2 MSTORE ADD SWAP1 DUP2 SWAP5 DUP5 MSTORE DUP7 DUP5 KECCAK256 SWAP1 DUP5 JUMPDEST DUP2 DUP2 LT PUSH2 0x1AE9 JUMPI POP POP POP DUP2 PUSH2 0x1AA5 SWAP2 SUB DUP3 PUSH2 0x1BB5 JUMP JUMPDEST DUP4 MLOAD SWAP5 DUP6 SWAP5 DUP2 DUP7 ADD SWAP3 DUP3 DUP8 MSTORE MLOAD DUP1 SWAP4 MSTORE DUP6 ADD SWAP4 SWAP3 JUMPDEST DUP3 DUP2 LT PUSH2 0x1AC9 JUMPI POP POP POP POP SUB SWAP1 RETURN JUMPDEST DUP4 MLOAD PUSH1 0x1 PUSH1 0x1 PUSH1 0xA0 SHL SUB AND DUP6 MSTORE DUP7 SWAP6 POP SWAP4 DUP2 ADD SWAP4 SWAP3 DUP2 ADD SWAP3 PUSH1 0x1 ADD PUSH2 0x1ABA JUMP JUMPDEST DUP3 SLOAD PUSH1 0x1 PUSH1 0x1 PUSH1 0xA0 SHL SUB AND DUP5 MSTORE SWAP3 DUP9 ADD SWAP3 PUSH1 0x1 SWAP3 DUP4 ADD SWAP3 ADD PUSH2 0x1A8F JUMP JUMPDEST PUSH1 0x0 JUMPDEST DUP4 DUP2 LT PUSH2 0x1B19 JUMPI POP POP PUSH1 0x0 SWAP2 ADD MSTORE JUMP JUMPDEST DUP2 DUP2 ADD MLOAD DUP4 DUP3 ADD MSTORE PUSH1 0x20 ADD PUSH2 0x1B09 JUMP JUMPDEST SWAP1 PUSH1 0x20 SWAP2 PUSH2 0x1B42 DUP2 MLOAD DUP1 SWAP3 DUP2 DUP6 MSTORE DUP6 DUP1 DUP7 ADD SWAP2 ADD PUSH2 0x1B06 JUMP JUMPDEST PUSH1 0x1F ADD PUSH1 0x1F NOT AND ADD ADD SWAP1 JUMP JUMPDEST PUSH1 0x4 CALLDATALOAD SWAP1 PUSH1 0x1 PUSH1 0x1 PUSH1 0xA0 SHL SUB DUP3 AND DUP3 SUB PUSH2 0x1B64 JUMPI JUMP JUMPDEST PUSH1 0x0 DUP1 REVERT JUMPDEST PUSH1 0xC0 DUP2 ADD SWAP1 DUP2 LT PUSH1 0x1 PUSH1 0x1 PUSH1 0x40 SHL SUB DUP3 GT OR PUSH2 0x1B84 JUMPI PUSH1 0x40 MSTORE JUMP JUMPDEST PUSH4 0x4E487B71 PUSH1 0xE0 SHL PUSH1 0x0 MSTORE PUSH1 0x41 PUSH1 0x4 MSTORE PUSH1 0x24 PUSH1 0x0 REVERT JUMPDEST PUSH1 0xE0 DUP2 ADD SWAP1 DUP2 LT PUSH1 0x1 PUSH1 0x1 PUSH1 0x40 SHL SUB DUP3 GT OR PUSH2 0x1B84 JUMPI PUSH1 0x40 MSTORE JUMP JUMPDEST PUSH1 0x1F SWAP1 SWAP2 ADD PUSH1 0x1F NOT AND DUP2 ADD SWAP1 PUSH1 0x1 PUSH1 0x1 PUSH1 0x40 SHL SUB DUP3 GT SWAP1 DUP3 LT OR PUSH2 0x1B84 JUMPI PUSH1 0x40 MSTORE JUMP JUMPDEST DUP2 PUSH1 0x1F DUP3 ADD SLT ISZERO PUSH2 0x1B64 JUMPI DUP1 CALLDATALOAD SWAP1 PUSH1 0x1 PUSH1 0x1 PUSH1 0x40 SHL SUB DUP3 GT PUSH2 0x1B84 JUMPI PUSH1 0x40 MLOAD SWAP3 PUSH2 0x1C0C PUSH1 0x1F DUP5 ADD PUSH1 0x1F NOT AND PUSH1 0x20 ADD DUP6 PUSH2 0x1BB5 JUMP JUMPDEST DUP3 DUP5 MSTORE PUSH1 0x20 DUP4 DUP4 ADD ADD GT PUSH2 0x1B64 JUMPI DUP2 PUSH1 0x0 SWAP3 PUSH1 0x20 DUP1 SWAP4 ADD DUP4 DUP7 ADD CALLDATACOPY DUP4 ADD ADD MSTORE SWAP1 JUMP JUMPDEST PUSH1 0x9 SLOAD DUP2 LT ISZERO PUSH2 0x1C49 JUMPI PUSH1 0x9 PUSH1 0x0 MSTORE PUSH1 0x20 PUSH1 0x0 KECCAK256 ADD SWAP1 PUSH1 0x0 SWAP1 JUMP JUMPDEST PUSH4 0x4E487B71 PUSH1 0xE0 SHL PUSH1 0x0 MSTORE PUSH1 0x32 PUSH1 0x4 MSTORE PUSH1 0x24 PUSH1 0x0 REVERT JUMPDEST SWAP1 PUSH1 0x1 DUP3 DUP2 SHR SWAP3 AND DUP1 ISZERO PUSH2 0x1C8F JUMPI JUMPDEST PUSH1 0x20 DUP4 LT EQ PUSH2 0x1C79 JUMPI JUMP JUMPDEST PUSH4 0x4E487B71 PUSH1 0xE0 SHL PUSH1 0x0 MSTORE PUSH1 0x22 PUSH1 0x4 MSTORE PUSH1 0x24 PUSH1 0x0 REVERT JUMPDEST SWAP2 PUSH1 0x7F AND SWAP2 PUSH2 0x1C6E JUMP JUMPDEST SWAP1 PUSH1 0x40 MLOAD SWAP2 DUP3 PUSH1 0x0 DUP3 SLOAD PUSH2 0x1CAC DUP2 PUSH2 0x1C5F JUMP JUMPDEST SWAP1 DUP2 DUP5 MSTORE PUSH1 0x20 SWAP5 PUSH1 0x1 SWAP2 PUSH1 0x1 DUP2 AND SWAP1 DUP2 PUSH1 0x0 EQ PUSH2 0x1D1C JUMPI POP PUSH1 0x1 EQ PUSH2 0x1CDD JUMPI JUMPDEST POP POP POP PUSH2 0x1CDB SWAP3 POP SUB DUP4 PUSH2 0x1BB5 JUMP JUMPDEST JUMP JUMPDEST PUSH1 0x0 SWAP1 DUP2 MSTORE DUP6 DUP2 KECCAK256 SWAP6 SWAP4 POP SWAP2 SWAP1 JUMPDEST DUP2 DUP4 LT PUSH2 0x1D04 JUMPI POP POP PUSH2 0x1CDB SWAP4 POP DUP3 ADD ADD CODESIZE DUP1 DUP1 PUSH2 0x1CCC JUMP JUMPDEST DUP6 SLOAD DUP9 DUP5 ADD DUP6 ADD MSTORE SWAP5 DUP6 ADD SWAP5 DUP8 SWAP5 POP SWAP2 DUP4 ADD SWAP2 PUSH2 0x1CEB JUMP JUMPDEST SWAP3 POP POP POP PUSH2 0x1CDB SWAP5 SWAP3 POP PUSH1 0xFF NOT AND DUP3 DUP5 ADD MSTORE ISZERO ISZERO PUSH1 0x5 SHL DUP3 ADD ADD CODESIZE DUP1 DUP1 PUSH2 0x1CCC JUMP JUMPDEST PUSH1 0x24 CALLDATALOAD SWAP1 DUP2 ISZERO ISZERO DUP3 SUB PUSH2 0x1B64 JUMPI JUMP JUMPDEST DUP1 SLOAD DUP3 LT ISZERO PUSH2 0x1C49 JUMPI PUSH1 0x0 MSTORE PUSH1 0x6 PUSH1 0x20 PUSH1 0x0 KECCAK256 SWAP2 MUL ADD SWAP1 PUSH1 0x0 SWAP1 JUMP JUMPDEST ISZERO PUSH2 0x1D70 JUMPI JUMP JUMPDEST PUSH1 0x40 MLOAD PUSH3 0x461BCD PUSH1 0xE5 SHL DUP2 MSTORE PUSH1 0x20 PUSH1 0x4 DUP3 ADD MSTORE PUSH1 0x18 PUSH1 0x24 DUP3 ADD MSTORE PUSH24 0x10DA185B1B195B99D948191BD95CC81B9BDD08195E1A5CDD PUSH1 0x42 SHL PUSH1 0x44 DUP3 ADD MSTORE PUSH1 0x64 SWAP1 REVERT JUMPDEST PUSH1 0x1 PUSH1 0x1 PUSH1 0x40 SHL SUB DUP2 GT PUSH2 0x1B84 JUMPI PUSH1 0x5 SHL PUSH1 0x20 ADD SWAP1 JUMP JUMPDEST SWAP2 SWAP1 DUP3 ADD DUP1 SWAP3 GT PUSH2 0x1DD4 JUMPI JUMP JUMPDEST PUSH4 0x4E487B71 PUSH1 0xE0 SHL PUSH1 0x0 MSTORE PUSH1 0x11 PUSH1 0x4 MSTORE PUSH1 0x24 PUSH1 0x0 REVERT JUMPDEST SWAP2 SWAP1 DUP3 SUB SWAP2 DUP3 GT PUSH2 0x1DD4 JUMPI JUMP JUMPDEST DUP1 MLOAD DUP3 LT ISZERO PUSH2 0x1C49 JUMPI PUSH1 0x20 SWAP2 PUSH1 0x5 SHL ADD ADD SWAP1 JUMP JUMPDEST DUP2 MLOAD SWAP2 SWAP3 SWAP2 PUSH1 0x1 PUSH1 0x1 PUSH1 0x40 SHL SUB DUP2 GT PUSH2 0x1B84 JUMPI PUSH2 0x1E28 DUP3 SLOAD PUSH2 0x1C5F JUMP JUMPDEST PUSH1 0x1F DUP2 GT PUSH2 0x1ED3 JUMPI JUMPDEST POP PUSH1 0x20 DUP1 PUSH1 0x1F DUP4 GT PUSH1 0x1 EQ PUSH2 0x1E6E JUMPI POP DUP2 SWAP3 SWAP4 SWAP5 PUSH1 0x0 SWAP3 PUSH2 0x1E63 JUMPI JUMPDEST POP POP DUP2 PUSH1 0x1 SHL SWAP2 PUSH1 0x0 NOT SWAP1 PUSH1 0x3 SHL SHR NOT AND OR SWAP1 SSTORE JUMP JUMPDEST ADD MLOAD SWAP1 POP CODESIZE DUP1 PUSH2 0x1E4D JUMP JUMPDEST SWAP1 PUSH1 0x1F NOT DUP4 AND SWAP6 DUP5 PUSH1 0x0 MSTORE PUSH1 0x20 PUSH1 0x0 KECCAK256 SWAP3 PUSH1 0x0 SWAP1 JUMPDEST DUP9 DUP3 LT PUSH2 0x1EBB JUMPI POP POP DUP4 PUSH1 0x1 SWAP6 SWAP7 SWAP8 LT PUSH2 0x1EA2 JUMPI JUMPDEST POP POP POP DUP2 SHL ADD SWAP1 SSTORE JUMP JUMPDEST ADD MLOAD PUSH1 0x0 NOT PUSH1 0xF8 DUP5 PUSH1 0x3 SHL AND SHR NOT AND SWAP1 SSTORE CODESIZE DUP1 DUP1 PUSH2 0x1E98 JUMP JUMPDEST DUP1 PUSH1 0x1 DUP6 SWAP7 DUP3 SWAP5 SWAP7 DUP7 ADD MLOAD DUP2 SSTORE ADD SWAP6 ADD SWAP4 ADD SWAP1 PUSH2 0x1E83 JUMP JUMPDEST PUSH1 0x0 DUP4 PUSH1 0x0 MSTORE PUSH1 0x20 PUSH1 0x0 KECCAK256 PUSH1 0x1F DUP5 ADD PUSH1 0x5 SHR DUP2 ADD SWAP3 PUSH1 0x20 DUP6 LT PUSH2 0x1F13 JUMPI JUMPDEST PUSH1 0x1F ADD PUSH1 0x5 SHR ADD SWAP2 JUMPDEST DUP3 DUP2 LT PUSH2 0x1F08 JUMPI POP POP PUSH2 0x1E31 JUMP JUMPDEST DUP2 DUP2 SSTORE PUSH1 0x1 ADD PUSH2 0x1EFA JUMP JUMPDEST SWAP1 SWAP3 POP DUP3 SWAP1 PUSH2 0x1EF1 JUMP JUMPDEST SWAP1 PUSH1 0xFF DUP1 NOT DUP4 SLOAD AND SWAP2 ISZERO ISZERO AND OR SWAP1 SSTORE JUMP JUMPDEST PUSH1 0x0 NOT DUP2 EQ PUSH2 0x1DD4 JUMPI PUSH1 0x1 ADD SWAP1 JUMP JUMPDEST ISZERO PUSH2 0x1F44 JUMPI JUMP JUMPDEST PUSH1 0x40 MLOAD PUSH3 0x461BCD PUSH1 0xE5 SHL DUP2 MSTORE PUSH1 0x20 PUSH1 0x4 DUP3 ADD MSTORE PUSH1 0x17 PUSH1 0x24 DUP3 ADD MSTORE PUSH23 0x4368616C6C656E6765206973206E6F7420616374697665 PUSH1 0x48 SHL PUSH1 0x44 DUP3 ADD MSTORE PUSH1 0x64 SWAP1 REVERT JUMPDEST ISZERO PUSH2 0x1F8A JUMPI JUMP JUMPDEST PUSH1 0x40 MLOAD PUSH3 0x461BCD PUSH1 0xE5 SHL DUP2 MSTORE PUSH1 0x20 PUSH1 0x4 DUP3 ADD MSTORE PUSH1 0x15 PUSH1 0x24 DUP3 ADD MSTORE PUSH21 0x10DA185B1B195B99D9481B9BDD081CDD185C9D1959 PUSH1 0x5A SHL PUSH1 0x44 DUP3 ADD MSTORE PUSH1 0x64 SWAP1 REVERT JUMPDEST ISZERO PUSH2 0x1FCE JUMPI JUMP JUMPDEST PUSH1 0x40 MLOAD PUSH3 0x461BCD PUSH1 0xE5 SHL DUP2 MSTORE PUSH1 0x20 PUSH1 0x4 DUP3 ADD MSTORE PUSH1 0xF PUSH1 0x24 DUP3 ADD MSTORE PUSH15 0x10DA185B1B195B99D948195B991959 PUSH1 0x8A SHL PUSH1 0x44 DUP3 ADD MSTORE PUSH1 0x64 SWAP1 REVERT JUMPDEST SWAP1 DUP2 PUSH1 0x20 SWAP2 SUB SLT PUSH2 0x1B64 JUMPI MLOAD DUP1 ISZERO ISZERO DUP2 SUB PUSH2 0x1B64 JUMPI SWAP1 JUMP JUMPDEST PUSH1 0x1 PUSH1 0x1 PUSH1 0xA0 SHL SUB SWAP1 SWAP2 AND DUP2 MSTORE PUSH1 0x20 DUP2 ADD SWAP2 SWAP1 SWAP2 MSTORE PUSH1 0x40 ADD SWAP1 JUMP JUMPDEST PUSH1 0x1 SLOAD PUSH1 0x1 PUSH1 0x1 PUSH1 0xA0 SHL SUB AND CALLER SUB PUSH2 0x204C JUMPI JUMP JUMPDEST PUSH1 0x40 MLOAD PUSH4 0x118CDAA7 PUSH1 0xE0 SHL DUP2 MSTORE CALLER PUSH1 0x4 DUP3 ADD MSTORE PUSH1 0x24 SWAP1 REVERT JUMPDEST PUSH1 0xFF PUSH1 0x1 SLOAD PUSH1 0xA0 SHR AND PUSH2 0x2073 JUMPI JUMP JUMPDEST PUSH1 0x40 MLOAD PUSH4 0xD93C0665 PUSH1 0xE0 SHL DUP2 MSTORE PUSH1 0x4 SWAP1 REVERT JUMPDEST PUSH1 0x2 PUSH1 0x0 SLOAD EQ PUSH2 0x2096 JUMPI PUSH1 0x2 PUSH1 0x0 SSTORE JUMP JUMPDEST PUSH1 0x40 MLOAD PUSH4 0x3EE5AEB5 PUSH1 0xE0 SHL DUP2 MSTORE PUSH1 0x4 SWAP1 REVERT JUMPDEST PUSH1 0x1 PUSH1 0x1 PUSH1 0xA0 SHL SUB AND PUSH1 0x0 SWAP1 DUP2 MSTORE PUSH1 0x5 PUSH1 0x20 MSTORE PUSH1 0x40 DUP2 KECCAK256 PUSH1 0x2 ADD SLOAD SWAP1 DUP2 ISZERO PUSH2 0x214E JUMPI PUSH1 0xA DUP3 MUL SWAP2 DUP1 DUP4 DIV PUSH1 0xA SUB PUSH2 0x213A JUMPI PUSH1 0x3 SLOAD PUSH1 0x0 NOT DUP2 ADD SWAP1 DUP2 GT PUSH2 0x2126 JUMPI DUP3 MSTORE PUSH1 0x2 PUSH1 0x20 MSTORE PUSH1 0xA PUSH1 0x3 PUSH1 0x40 DUP5 KECCAK256 ADD SLOAD SWAP2 DUP3 MUL MUL SWAP3 DUP2 DUP5 DIV EQ SWAP1 ISZERO OR ISZERO PUSH2 0x2112 JUMPI POP PUSH1 0x64 SWAP1 DIV SWAP1 JUMP JUMPDEST PUSH4 0x4E487B71 PUSH1 0xE0 SHL DUP2 MSTORE PUSH1 0x11 PUSH1 0x4 MSTORE PUSH1 0x24 SWAP1 REVERT JUMPDEST PUSH4 0x4E487B71 PUSH1 0xE0 SHL DUP4 MSTORE PUSH1 0x11 PUSH1 0x4 MSTORE PUSH1 0x24 DUP4 REVERT JUMPDEST PUSH4 0x4E487B71 PUSH1 0xE0 SHL DUP3 MSTORE PUSH1 0x11 PUSH1 0x4 MSTORE PUSH1 0x24 DUP3 REVERT JUMPDEST SWAP1 POP SWAP1 JUMP INVALID 0xDB DUP5 PUSH10 0xA3623F9A13612E653258 SWAP11 MSIZE 0xDD EQ 0x22 0xD4 0xA8 DUP16 PUSH31 0x749C97D770E56248E9068BE0079C531659141344CD1FD0A4F28419497F9722 LOG3 0xDA 0xAF 0xE3 0xB4 XOR PUSH16 0x6B6457E0A2646970667358221220AE72 0xA8 DUP7 SWAP9 0xBF 0xD8 SUB SWAP3 0x4D 0xB7 0xC7 PUSH1 0x15 0xB6 SAR 0xB8 DUP3 0x1E 0xB0 0xAA 0xE4 SELFBALANCE SLOAD PUSH31 0x18E72D9448ED7364736F6C6343000818003383C0D2E1F23741433C1B43CEAE 0x1E 0xBC 0x1F 0x26 MSIZE GASPRICE BYTE 0xAA 0xB6 PUSH20 0x66BD3ED29491AE1D8D0000000000000000000000 "},"methodIdentifiers":{"CHALLENGE_DURATION()":"67ab845b","MAX_PARTICIPANTS()":"f3baf070","MAX_REWARD_AMOUNT()":"a04f6b4b","MIN_REWARD_AMOUNT()":"f6ef85cd","STREAK_BONUS_MULTIPLIER()":"35058ec5","activeUsers()":"74aa34de","blacklistedUsers(address)":"22c0aec7","categoryChallengeCount(string)":"5f29ac37","challengeCategories(uint256)":"24b5c034","challenges(uint256)":"8f1d3776","completeChallenge(uint256,string)":"c18dcd67","createChallenge(string,string,uint256,uint256,string,uint256)":"21a26ca9","currentChallengeId()":"702261f6","emergencyPause(bool)":"e8f6940e","emergencyWithdraw()":"db2e21bc","getChallengeCategories()":"03769cae","getChallengeInfo(uint256)":"85a99433","getChallengeParticipants(uint256)":"023bf958","getUserChallengeData(address)":"959c23ad","getUserCompletions(address,uint256,uint256)":"1376f1e4","joinChallenge(uint256)":"e448ee26","owner()":"8da5cb5b","paused()":"5c975abb","renounceOwnership()":"715018a6","setUserBlacklist(address,bool)":"ccddf0b0","totalChallenges()":"d17defcb","totalChallengesCompleted()":"20dedd07","totalParticipants()":"a26dbf26","totalRewardsDistributed()":"ee172546","transferOwnership(address)":"f2fde38b","updateChallengeStatus(uint256,bool)":"866c5cbd","userChallengeData(address)":"31b9a146","userCompletions(address,uint256)":"f09547b8","vmfToken()":"2086eefa"}}}}}