{"contracts/PizzaPartyAnalytics.sol":{"PizzaPartyAnalytics":{"abi":[{"inputs":[{"internalType":"address","name":"_vmfToken","type":"address"}],"stateMutability":"nonpayable","type":"constructor"},{"inputs":[],"name":"EnforcedPause","type":"error"},{"inputs":[],"name":"ExpectedPause","type":"error"},{"inputs":[{"internalType":"address","name":"owner","type":"address"}],"name":"OwnableInvalidOwner","type":"error"},{"inputs":[{"internalType":"address","name":"account","type":"address"}],"name":"OwnableUnauthorizedAccount","type":"error"},{"inputs":[],"name":"ReentrancyGuardReentrantCall","type":"error"},{"anonymous":false,"inputs":[{"indexed":true,"internalType":"uint256","name":"analyticsId","type":"uint256"},{"indexed":false,"internalType":"uint256","name":"totalPlayers","type":"uint256"},{"indexed":false,"internalType":"uint256","name":"activePlayers","type":"uint256"},{"indexed":false,"internalType":"uint256","name":"totalEntries","type":"uint256"},{"indexed":false,"internalType":"uint256","name":"totalRewards","type":"uint256"},{"indexed":false,"internalType":"uint256","name":"gasUsed","type":"uint256"}],"name":"AnalyticsUpdated","type":"event"},{"anonymous":false,"inputs":[{"indexed":true,"internalType":"uint256","name":"batchId","type":"uint256"},{"indexed":false,"internalType":"address[]","name":"players","type":"address[]"},{"indexed":false,"internalType":"uint256","name":"totalEntries","type":"uint256"},{"indexed":false,"internalType":"uint256","name":"totalRewards","type":"uint256"},{"indexed":false,"internalType":"uint256","name":"gasUsed","type":"uint256"}],"name":"BatchProcessed","type":"event"},{"anonymous":false,"inputs":[{"indexed":false,"internalType":"uint256","name":"oldSize","type":"uint256"},{"indexed":false,"internalType":"uint256","name":"newSize","type":"uint256"}],"name":"BatchSizeUpdated","type":"event"},{"anonymous":false,"inputs":[{"indexed":false,"internalType":"uint256","name":"timestamp","type":"uint256"},{"indexed":false,"internalType":"uint256","name":"gasSaved","type":"uint256"},{"indexed":false,"internalType":"uint256","name":"optimizationThreshold","type":"uint256"}],"name":"GasOptimizationCompleted","type":"event"},{"anonymous":false,"inputs":[{"indexed":false,"internalType":"uint256","name":"oldThreshold","type":"uint256"},{"indexed":false,"internalType":"uint256","name":"newThreshold","type":"uint256"}],"name":"GasThresholdUpdated","type":"event"},{"anonymous":false,"inputs":[{"indexed":true,"internalType":"address","name":"previousOwner","type":"address"},{"indexed":true,"internalType":"address","name":"newOwner","type":"address"}],"name":"OwnershipTransferred","type":"event"},{"anonymous":false,"inputs":[{"indexed":false,"internalType":"address","name":"account","type":"address"}],"name":"Paused","type":"event"},{"anonymous":false,"inputs":[{"indexed":true,"internalType":"address","name":"player","type":"address"},{"indexed":false,"internalType":"uint256","name":"entryCount","type":"uint256"},{"indexed":false,"internalType":"uint256","name":"rewardAmount","type":"uint256"},{"indexed":false,"internalType":"uint256","name":"timestamp","type":"uint256"}],"name":"PlayerActivityRecorded","type":"event"},{"anonymous":false,"inputs":[{"indexed":false,"internalType":"address","name":"account","type":"address"}],"name":"Unpaused","type":"event"},{"inputs":[],"name":"batchSize","outputs":[{"internalType":"uint256","name":"","type":"uint256"}],"stateMutability":"view","type":"function"},{"inputs":[],"name":"calculateOptimalBatchSize","outputs":[{"internalType":"uint256","name":"","type":"uint256"}],"stateMutability":"view","type":"function"},{"inputs":[],"name":"currentBatchId","outputs":[{"internalType":"uint256","name":"","type":"uint256"}],"stateMutability":"view","type":"function"},{"inputs":[{"internalType":"bool","name":"pause","type":"bool"}],"name":"emergencyPause","outputs":[],"stateMutability":"nonpayable","type":"function"},{"inputs":[{"internalType":"uint256","name":"","type":"uint256"}],"name":"gameAnalytics","outputs":[{"internalType":"uint256","name":"totalPlayers","type":"uint256"},{"internalType":"uint256","name":"activePlayers","type":"uint256"},{"internalType":"uint256","name":"totalEntries","type":"uint256"},{"internalType":"uint256","name":"totalRewards","type":"uint256"},{"internalType":"uint256","name":"averageEntryFee","type":"uint256"},{"internalType":"uint256","name":"gasUsed","type":"uint256"},{"internalType":"uint256","name":"timestamp","type":"uint256"},{"internalType":"uint256","name":"blockNumber","type":"uint256"}],"stateMutability":"view","type":"function"},{"inputs":[],"name":"gasOptimizationThreshold","outputs":[{"internalType":"uint256","name":"","type":"uint256"}],"stateMutability":"view","type":"function"},{"inputs":[],"name":"getAnalyticsSummary","outputs":[{"internalType":"uint256","name":"_totalPlayersProcessed","type":"uint256"},{"internalType":"uint256","name":"_totalBatches","type":"uint256"},{"internalType":"uint256","name":"_totalGasOptimized","type":"uint256"},{"internalType":"uint256","name":"_lastAnalyticsUpdate","type":"uint256"},{"internalType":"uint256","name":"_currentBatchId","type":"uint256"}],"stateMutability":"view","type":"function"},{"inputs":[{"internalType":"uint256","name":"batchId","type":"uint256"}],"name":"getBatchInfo","outputs":[{"internalType":"address[]","name":"players","type":"address[]"},{"internalType":"uint256[]","name":"entryCounts","type":"uint256[]"},{"internalType":"uint256[]","name":"rewardAmounts","type":"uint256[]"},{"internalType":"uint256","name":"timestamp","type":"uint256"},{"internalType":"bool","name":"isProcessed","type":"bool"}],"stateMutability":"view","type":"function"},{"inputs":[],"name":"getPerformanceMetrics","outputs":[{"components":[{"internalType":"uint256","name":"totalGasUsed","type":"uint256"},{"internalType":"uint256","name":"averageGasPerTransaction","type":"uint256"},{"internalType":"uint256","name":"totalTransactions","type":"uint256"},{"internalType":"uint256","name":"optimizationSavings","type":"uint256"},{"internalType":"uint256","name":"lastOptimization","type":"uint256"}],"internalType":"struct PizzaPartyAnalytics.PerformanceMetrics","name":"","type":"tuple"}],"stateMutability":"view","type":"function"},{"inputs":[{"internalType":"address","name":"player","type":"address"}],"name":"getPlayerAnalytics","outputs":[{"internalType":"uint256","name":"lastActivity","type":"uint256"},{"internalType":"uint256","name":"totalEntries","type":"uint256"},{"internalType":"uint256","name":"totalRewards","type":"uint256"}],"stateMutability":"view","type":"function"},{"inputs":[],"name":"lastAnalyticsUpdate","outputs":[{"internalType":"uint256","name":"","type":"uint256"}],"stateMutability":"view","type":"function"},{"inputs":[],"name":"owner","outputs":[{"internalType":"address","name":"","type":"address"}],"stateMutability":"view","type":"function"},{"inputs":[],"name":"paused","outputs":[{"internalType":"bool","name":"","type":"bool"}],"stateMutability":"view","type":"function"},{"inputs":[],"name":"performanceMetrics","outputs":[{"internalType":"uint256","name":"totalGasUsed","type":"uint256"},{"internalType":"uint256","name":"averageGasPerTransaction","type":"uint256"},{"internalType":"uint256","name":"totalTransactions","type":"uint256"},{"internalType":"uint256","name":"optimizationSavings","type":"uint256"},{"internalType":"uint256","name":"lastOptimization","type":"uint256"}],"stateMutability":"view","type":"function"},{"inputs":[{"internalType":"uint256","name":"","type":"uint256"}],"name":"playerBatches","outputs":[{"internalType":"uint256","name":"timestamp","type":"uint256"},{"internalType":"bool","name":"isProcessed","type":"bool"}],"stateMutability":"view","type":"function"},{"inputs":[{"internalType":"address","name":"","type":"address"}],"name":"playerLastActivity","outputs":[{"internalType":"uint256","name":"","type":"uint256"}],"stateMutability":"view","type":"function"},{"inputs":[{"internalType":"address","name":"","type":"address"}],"name":"playerTotalEntries","outputs":[{"internalType":"uint256","name":"","type":"uint256"}],"stateMutability":"view","type":"function"},{"inputs":[{"internalType":"address","name":"","type":"address"}],"name":"playerTotalRewards","outputs":[{"internalType":"uint256","name":"","type":"uint256"}],"stateMutability":"view","type":"function"},{"inputs":[{"internalType":"address[]","name":"players","type":"address[]"},{"internalType":"uint256[]","name":"entryCounts","type":"uint256[]"},{"internalType":"uint256[]","name":"rewardAmounts","type":"uint256[]"}],"name":"processPlayerBatch","outputs":[],"stateMutability":"nonpayable","type":"function"},{"inputs":[{"internalType":"address","name":"player","type":"address"},{"internalType":"uint256","name":"entryCount","type":"uint256"},{"internalType":"uint256","name":"rewardAmount","type":"uint256"}],"name":"recordPlayerActivity","outputs":[],"stateMutability":"nonpayable","type":"function"},{"inputs":[],"name":"renounceOwnership","outputs":[],"stateMutability":"nonpayable","type":"function"},{"inputs":[],"name":"totalBatches","outputs":[{"internalType":"uint256","name":"","type":"uint256"}],"stateMutability":"view","type":"function"},{"inputs":[],"name":"totalGasOptimized","outputs":[{"internalType":"uint256","name":"","type":"uint256"}],"stateMutability":"view","type":"function"},{"inputs":[],"name":"totalPlayersProcessed","outputs":[{"internalType":"uint256","name":"","type":"uint256"}],"stateMutability":"view","type":"function"},{"inputs":[{"internalType":"address","name":"newOwner","type":"address"}],"name":"transferOwnership","outputs":[],"stateMutability":"nonpayable","type":"function"},{"inputs":[{"internalType":"uint256","name":"newBatchSize","type":"uint256"}],"name":"updateBatchSize","outputs":[],"stateMutability":"nonpayable","type":"function"},{"inputs":[{"internalType":"uint256","name":"totalPlayers","type":"uint256"},{"internalType":"uint256","name":"activePlayers","type":"uint256"},{"internalType":"uint256","name":"totalEntries","type":"uint256"},{"internalType":"uint256","name":"totalRewards","type":"uint256"},{"internalType":"uint256","name":"averageEntryFee","type":"uint256"}],"name":"updateGameAnalytics","outputs":[],"stateMutability":"nonpayable","type":"function"},{"inputs":[{"internalType":"uint256","name":"newThreshold","type":"uint256"}],"name":"updateGasThreshold","outputs":[],"stateMutability":"nonpayable","type":"function"},{"inputs":[],"name":"vmfToken","outputs":[{"internalType":"contract IERC20","name":"","type":"address"}],"stateMutability":"view","type":"function"}],"evm":{"bytecode":{"linkReferences":{},"object":"60a03461012f57601f6114db38819003918201601f19168301916001600160401b038311848410176101345780849260209460405283398101031261012f57516001600160a01b038082169182900361012f57600160005533156101165760018054336001600160a01b03198216811790925560405192167f8be0079c531659141344cd1fd0a4f28419497f9722a3daafe3b4186f6b6457e0600080a381156100d457506080526032600e55620f4240600f556001600c556000600d55604051611390908161014b823960805181610e6f0152f35b62461bcd60e51b815260206004820152601960248201527f496e76616c696420564d4620746f6b656e2061646472657373000000000000006044820152606490fd5b604051631e4fbdf760e01b815260006004820152602490fd5b600080fd5b634e487b7160e01b600052604160045260246000fdfe608080604052600436101561001357600080fd5b60003560e01c908163033ad94f1461102c5750806308da3ceb1461100e5780630a763da114610ff05780631a0058f514610e9e5780632086eefa14610e5957806325bc02a714610e365780633270520314610d53578063426e27bf1461094757806346dde72d146109295780635c975abb1461090357806362563dc41461076457806369ff6abb146107465780636c4e7dde1461070c578063715018a6146106c15780638da5cb5b146106985780638db99701146106675780639863b3cc1461062a578063a05a1150146105d4578063a2037266146104ed578063b9753657146104b8578063c7158e921461043f578063d31d83fe146103eb578063e8f6940e1461031f578063e91ef37e146102e5578063ee892e64146102c7578063f2fde38b14610251578063f4daaba114610233578063ff083a971461019d5763ff19e6f81461015e57600080fd5b34610198576020366003190112610198576001600160a01b0361017f6110ab565b1660005260066020526020604060002054604051908152f35b600080fd5b3461019857600036600319011261019857600060806040516101be816110fb565b828152826020820152826040820152826060820152015260a06040516101e3816110fb565b600754908181526008546020820190815260095460408301908152600a5491606084019283526080600b549401938452604051948552516020850152516040840152516060830152516080820152f35b34610198576000366003190112610198576020600e54604051908152f35b346101985760203660031901126101985761026a6110ab565b6102726112ca565b6001600160a01b039081169081156102ae57600180546001600160a01b0319811684179091551660008051602061133b833981519152600080a3005b604051631e4fbdf760e01b815260006004820152602490fd5b34610198576000366003190112610198576020600f54604051908152f35b34610198576020366003190112610198576001600160a01b036103066110ab565b1660005260046020526020604060002054604051908152f35b34610198576020366003190112610198576004358015158103610198576103446112ca565b1561039257610351611319565b6001805460ff60a01b1916600160a01b1790556040513381527f62e78cea01bee320cd4e420270b5ea74000d11b0c9f74754ebdbfc544b05a25890602090a1005b60015460ff8160a01c16156103d95760ff60a01b19166001556040513381527f5db9ee0a495bf2e6ff9c91a7834c1ba4fdd244a5e8aa4e537bd38aeae4b073aa90602090a1005b604051638dfc202b60e01b8152600490fd5b34610198576020366003190112610198577f4e34f97df9d751802aca56beb51e7018c483c7a50940c3d6088eebab0ea30c0b604060043561042a6112ca565b600f549080600f5582519182526020820152a1005b346101985760203660031901126101985760043560005260026020526101006040600020805490600181015490600281015460038201546004830154906005840154926007600686015495015495604051978852602088015260408701526060860152608085015260a084015260c083015260e0820152f35b3461019857600036600319011261019857600754600854906104e9600954600a54600b5491604051958695866110c1565b0390f35b346101985760a0366003190112610198576064356044356024356004356105126112ca565b61051a6112f6565b610522611319565b60125493600185018095116105be577f7b3e2e0c966b1c4cf5d6b6170514120397440cebeb493f580ef6cc650250e619936105b4915a87600052600260205261058e60406000209186835587600184015584600284015583600384015560843560048401555a906112bd565b9060058101918255426006820155600743910155876012555491604051958695866110c1565b0390a26001600055005b634e487b7160e01b600052601160045260246000fd5b34610198576020366003190112610198576001600160a01b036105f56110ab565b16600052600460205260406000205460056020526040600020549060066020526104e9604060002054604051938493846110e5565b3461019857602036600319011261019857600435600052600360205260408060002060ff6004600383015492015416825191825215156020820152f35b3461019857600036600319011261019857601054600d54906104e9601154601254600c5491604051958695866110c1565b34610198576000366003190112610198576001546040516001600160a01b039091168152602090f35b34610198576000366003190112610198576106da6112ca565b600180546001600160a01b031981169091556000906001600160a01b031660008051602061133b8339815191528280a3005b34610198576020366003190112610198576001600160a01b0361072d6110ab565b1660005260056020526020604060002054604051908152f35b34610198576000366003190112610198576020600d54604051908152f35b346101985760603660031901126101985761077d6110ab565b602435906044359061078d6112ca565b6107956112f6565b61079d611319565b6001600160a01b03169182156108c5577f8dbf11fda585bf060b80a2c1434b31f913d37581ba3181ffdef3e0a150b36f529183600052600460205242604060002055600560205260406000206107f48382546112a1565b9055836000526006602052604060002061080f8282546112a1565b905561081c6010546112ae565b6010556108306040519283924291846110e5565b0390a25a600f54809110610846575b6001600055005b61085a6108545a5a906112bd565b826112bd565b9081610867575b5061083f565b816108957fcb57f0fab46f9f05b0dffcd4c0196537cd990c3f08bc8f4e9d9f2a9f2a1624f5936011546112a1565b6011556108a481600a546112a1565b600a5542600b556108bb60405192839242846110e5565b0390a18080610861565b60405162461bcd60e51b8152602060048201526016602482015275496e76616c696420706c61796572206164647265737360501b6044820152606490fd5b3461019857600036600319011261019857602060ff60015460a01c166040519015158152f35b34610198576000366003190112610198576020601154604051908152f35b34610198576060366003190112610198576004356001600160401b0381116101985761097790369060040161107b565b6024356001600160401b0381116101985761099690369060040161107b565b92906044356001600160401b038111610198576109b790369060040161107b565b90916109c16112ca565b6109c96112f6565b6109d1611319565b8415610d20576109e28686146111ed565b6109ed8286146111ed565b600e548511610ce957600c54955a60008881526003602052604090209092906001600160401b038811610ca457600160401b8811610ca457610a3488825481845583611231565b868160005260206000209060005b8a8110610cce5750506001600160401b0384119050610ca457600160401b8311610ca457600181018054848255610a7b91859190611231565b816001820160005260206000209060005b858110610cba57505050600281016001600160401b038611610ca457600160401b8611610ca457610ac7868298979594985481845583611231565b859060005260206000209060005b858110610c9057505042600383015550600401805460ff19166001179055600094859485935b8989818710610bf5578c92508989610b3f8a610b19866010546112a1565b601055610b27600d546112ae565b600d55610b35600c546112ae565b600c555a906112bd565b91610b68610b4f846007546112a1565b80600755610b5e6009546112ae565b908160095561118c565b600855604051948060808701608088525260a0860194906000905b808210610bcb57887f3dee9011858aa7cc304fd9babd8bd007e4f6500fa94c7a60ea149aabec39721389808a8a8a8a6020850152604084015260608301520390a26001600055005b90919586359060018060a01b03821680920361019857602081600193829352019701920190610b83565b98610c7f610c17610c1289610c859560019798999a9b9d9e61127b565b611267565b91610c238b8a8a61127b565b3590610c308c888a61127b565b3593868060a01b03168060005260046020524260406000205560056020526040600020610c5e8482546112a1565b905560005260066020526040600020610c788582546112a1565b90556112a1565b996112a1565b960193929190610afb565b813581840155602090910190600101610ad5565b634e487b7160e01b600052604160045260246000fd5b600190602083359301928185015501610a8c565b6001906020610cdc84611267565b9301928185015501610a42565b60405162461bcd60e51b815260206004820152600f60248201526e426174636820746f6f206c6172676560881b6044820152606490fd5b60405162461bcd60e51b815260206004820152600b60248201526a08adae0e8f240c4c2e8c6d60ab1b6044820152606490fd5b3461019857602036600319011261019857600435610d6f6112ca565b8015610df3576103e88111610db75760407fa61d74b0872c6c49d515f7af99ead08fbe5259a59c479f6d943b97359829ff9e91600e549080600e5582519182526020820152a1005b60405162461bcd60e51b815260206004820152601460248201527342617463682073697a6520746f6f206c6172676560601b6044820152606490fd5b60405162461bcd60e51b815260206004820152601b60248201527a42617463682073697a65206d75737420626520706f73697469766560281b6044820152606490fd5b34610198576000366003190112610198576020610e516111ac565b604051908152f35b34610198576000366003190112610198576040517f00000000000000000000000000000000000000000000000000000000000000006001600160a01b03168152602090f35b346101985760208060031936011261019857600435600d548111610fb85760005260038152604060002060019060038101549060ff600482015416906040519081958082549384815201809383600052826000209060005b818110610f9c5750505087610f0c910388611116565b610f246002610f1d60018501611139565b9301611139565b966040519660a088019160a089525180925260c08801949160005b818110610f80575050505082869792610f619288610f6f960390890152611047565b908582036040870152611047565b916060840152151560808301520390f35b83516001600160a01b0316875295840195928401928201610f3f565b82546001600160a01b0316845292840192918901918901610ef6565b60405162461bcd60e51b815260048101839052601060248201526f125b9d985b1a590818985d18da08125160821b6044820152606490fd5b34610198576000366003190112610198576020600c54604051908152f35b34610198576000366003190112610198576020601054604051908152f35b34610198576000366003190112610198576020906012548152f35b90815180825260208080930193019160005b828110611067575050505090565b835185529381019392810192600101611059565b9181601f84011215610198578235916001600160401b038311610198576020808501948460051b01011161019857565b600435906001600160a01b038216820361019857565b9192608093969594919660a084019784526020840152604083015260608201520152565b6040919493926060820195825260208201520152565b60a081019081106001600160401b03821117610ca457604052565b601f909101601f19168101906001600160401b03821190821017610ca457604052565b90604051918281549182825260209260208301916000526020600020936000905b8282106111725750505061117092500383611116565b565b85548452600195860195889550938101939091019061115a565b8115611196570490565b634e487b7160e01b600052601260045260246000fd5b600954156111e7576111c36008544560011c61118c565b600a81106111df575b6103e88082116111da575090565b905090565b50600a6111cc565b600e5490565b156111f457565b60405162461bcd60e51b8152602060048201526015602482015274082e4e4c2f240d8cadccee8d040dad2e6dac2e8c6d605b1b6044820152606490fd5b909182811061123f57505050565b600091600052602060002092830192015b82811061125c57505050565b818155600101611250565b356001600160a01b03811681036101985790565b919081101561128b5760051b0190565b634e487b7160e01b600052603260045260246000fd5b919082018092116105be57565b60001981146105be5760010190565b919082039182116105be57565b6001546001600160a01b031633036112de57565b60405163118cdaa760e01b8152336004820152602490fd5b600260005414611307576002600055565b604051633ee5aeb560e01b8152600490fd5b60ff60015460a01c1661132857565b60405163d93c066560e01b8152600490fdfe8be0079c531659141344cd1fd0a4f28419497f9722a3daafe3b4186f6b6457e0a2646970667358221220c13eb7432217d58b30bb2d270b056c210a7fc8d6cbd53f6d39419295a69dc15464736f6c63430008180033","opcodes":"PUSH1 0xA0 CALLVALUE PUSH2 0x12F JUMPI PUSH1 0x1F PUSH2 0x14DB CODESIZE DUP2 SWAP1 SUB SWAP2 DUP3 ADD PUSH1 0x1F NOT AND DUP4 ADD SWAP2 PUSH1 0x1 PUSH1 0x1 PUSH1 0x40 SHL SUB DUP4 GT DUP5 DUP5 LT OR PUSH2 0x134 JUMPI DUP1 DUP5 SWAP3 PUSH1 0x20 SWAP5 PUSH1 0x40 MSTORE DUP4 CODECOPY DUP2 ADD SUB SLT PUSH2 0x12F JUMPI MLOAD PUSH1 0x1 PUSH1 0x1 PUSH1 0xA0 SHL SUB DUP1 DUP3 AND SWAP2 DUP3 SWAP1 SUB PUSH2 0x12F JUMPI PUSH1 0x1 PUSH1 0x0 SSTORE CALLER ISZERO PUSH2 0x116 JUMPI PUSH1 0x1 DUP1 SLOAD CALLER PUSH1 0x1 PUSH1 0x1 PUSH1 0xA0 SHL SUB NOT DUP3 AND DUP2 OR SWAP1 SWAP3 SSTORE PUSH1 0x40 MLOAD SWAP3 AND PUSH32 0x8BE0079C531659141344CD1FD0A4F28419497F9722A3DAAFE3B4186F6B6457E0 PUSH1 0x0 DUP1 LOG3 DUP2 ISZERO PUSH2 0xD4 JUMPI POP PUSH1 0x80 MSTORE PUSH1 0x32 PUSH1 0xE SSTORE PUSH3 0xF4240 PUSH1 0xF SSTORE PUSH1 0x1 PUSH1 0xC SSTORE PUSH1 0x0 PUSH1 0xD SSTORE PUSH1 0x40 MLOAD PUSH2 0x1390 SWAP1 DUP2 PUSH2 0x14B DUP3 CODECOPY PUSH1 0x80 MLOAD DUP2 PUSH2 0xE6F ADD MSTORE RETURN JUMPDEST PUSH3 0x461BCD PUSH1 0xE5 SHL DUP2 MSTORE PUSH1 0x20 PUSH1 0x4 DUP3 ADD MSTORE PUSH1 0x19 PUSH1 0x24 DUP3 ADD MSTORE PUSH32 0x496E76616C696420564D4620746F6B656E206164647265737300000000000000 PUSH1 0x44 DUP3 ADD MSTORE PUSH1 0x64 SWAP1 REVERT JUMPDEST PUSH1 0x40 MLOAD PUSH4 0x1E4FBDF7 PUSH1 0xE0 SHL DUP2 MSTORE PUSH1 0x0 PUSH1 0x4 DUP3 ADD MSTORE PUSH1 0x24 SWAP1 REVERT JUMPDEST PUSH1 0x0 DUP1 REVERT JUMPDEST PUSH4 0x4E487B71 PUSH1 0xE0 SHL PUSH1 0x0 MSTORE PUSH1 0x41 PUSH1 0x4 MSTORE PUSH1 0x24 PUSH1 0x0 REVERT INVALID PUSH1 0x80 DUP1 PUSH1 0x40 MSTORE PUSH1 0x4 CALLDATASIZE LT ISZERO PUSH2 0x13 JUMPI PUSH1 0x0 DUP1 REVERT JUMPDEST PUSH1 0x0 CALLDATALOAD PUSH1 0xE0 SHR SWAP1 DUP2 PUSH4 0x33AD94F EQ PUSH2 0x102C JUMPI POP DUP1 PUSH4 0x8DA3CEB EQ PUSH2 0x100E JUMPI DUP1 PUSH4 0xA763DA1 EQ PUSH2 0xFF0 JUMPI DUP1 PUSH4 0x1A0058F5 EQ PUSH2 0xE9E JUMPI DUP1 PUSH4 0x2086EEFA EQ PUSH2 0xE59 JUMPI DUP1 PUSH4 0x25BC02A7 EQ PUSH2 0xE36 JUMPI DUP1 PUSH4 0x32705203 EQ PUSH2 0xD53 JUMPI DUP1 PUSH4 0x426E27BF EQ PUSH2 0x947 JUMPI DUP1 PUSH4 0x46DDE72D EQ PUSH2 0x929 JUMPI DUP1 PUSH4 0x5C975ABB EQ PUSH2 0x903 JUMPI DUP1 PUSH4 0x62563DC4 EQ PUSH2 0x764 JUMPI DUP1 PUSH4 0x69FF6ABB EQ PUSH2 0x746 JUMPI DUP1 PUSH4 0x6C4E7DDE EQ PUSH2 0x70C JUMPI DUP1 PUSH4 0x715018A6 EQ PUSH2 0x6C1 JUMPI DUP1 PUSH4 0x8DA5CB5B EQ PUSH2 0x698 JUMPI DUP1 PUSH4 0x8DB99701 EQ PUSH2 0x667 JUMPI DUP1 PUSH4 0x9863B3CC EQ PUSH2 0x62A JUMPI DUP1 PUSH4 0xA05A1150 EQ PUSH2 0x5D4 JUMPI DUP1 PUSH4 0xA2037266 EQ PUSH2 0x4ED JUMPI DUP1 PUSH4 0xB9753657 EQ PUSH2 0x4B8 JUMPI DUP1 PUSH4 0xC7158E92 EQ PUSH2 0x43F JUMPI DUP1 PUSH4 0xD31D83FE EQ PUSH2 0x3EB JUMPI DUP1 PUSH4 0xE8F6940E EQ PUSH2 0x31F JUMPI DUP1 PUSH4 0xE91EF37E EQ PUSH2 0x2E5 JUMPI DUP1 PUSH4 0xEE892E64 EQ PUSH2 0x2C7 JUMPI DUP1 PUSH4 0xF2FDE38B EQ PUSH2 0x251 JUMPI DUP1 PUSH4 0xF4DAABA1 EQ PUSH2 0x233 JUMPI DUP1 PUSH4 0xFF083A97 EQ PUSH2 0x19D JUMPI PUSH4 0xFF19E6F8 EQ PUSH2 0x15E JUMPI PUSH1 0x0 DUP1 REVERT JUMPDEST CALLVALUE PUSH2 0x198 JUMPI PUSH1 0x20 CALLDATASIZE PUSH1 0x3 NOT ADD SLT PUSH2 0x198 JUMPI PUSH1 0x1 PUSH1 0x1 PUSH1 0xA0 SHL SUB PUSH2 0x17F PUSH2 0x10AB JUMP JUMPDEST AND PUSH1 0x0 MSTORE PUSH1 0x6 PUSH1 0x20 MSTORE PUSH1 0x20 PUSH1 0x40 PUSH1 0x0 KECCAK256 SLOAD PUSH1 0x40 MLOAD SWAP1 DUP2 MSTORE RETURN JUMPDEST PUSH1 0x0 DUP1 REVERT JUMPDEST CALLVALUE PUSH2 0x198 JUMPI PUSH1 0x0 CALLDATASIZE PUSH1 0x3 NOT ADD SLT PUSH2 0x198 JUMPI PUSH1 0x0 PUSH1 0x80 PUSH1 0x40 MLOAD PUSH2 0x1BE DUP2 PUSH2 0x10FB JUMP JUMPDEST DUP3 DUP2 MSTORE DUP3 PUSH1 0x20 DUP3 ADD MSTORE DUP3 PUSH1 0x40 DUP3 ADD MSTORE DUP3 PUSH1 0x60 DUP3 ADD MSTORE ADD MSTORE PUSH1 0xA0 PUSH1 0x40 MLOAD PUSH2 0x1E3 DUP2 PUSH2 0x10FB JUMP JUMPDEST PUSH1 0x7 SLOAD SWAP1 DUP2 DUP2 MSTORE PUSH1 0x8 SLOAD PUSH1 0x20 DUP3 ADD SWAP1 DUP2 MSTORE PUSH1 0x9 SLOAD PUSH1 0x40 DUP4 ADD SWAP1 DUP2 MSTORE PUSH1 0xA SLOAD SWAP2 PUSH1 0x60 DUP5 ADD SWAP3 DUP4 MSTORE PUSH1 0x80 PUSH1 0xB SLOAD SWAP5 ADD SWAP4 DUP5 MSTORE PUSH1 0x40 MLOAD SWAP5 DUP6 MSTORE MLOAD PUSH1 0x20 DUP6 ADD MSTORE MLOAD PUSH1 0x40 DUP5 ADD MSTORE MLOAD PUSH1 0x60 DUP4 ADD MSTORE MLOAD PUSH1 0x80 DUP3 ADD MSTORE RETURN JUMPDEST CALLVALUE PUSH2 0x198 JUMPI PUSH1 0x0 CALLDATASIZE PUSH1 0x3 NOT ADD SLT PUSH2 0x198 JUMPI PUSH1 0x20 PUSH1 0xE SLOAD PUSH1 0x40 MLOAD SWAP1 DUP2 MSTORE RETURN JUMPDEST CALLVALUE PUSH2 0x198 JUMPI PUSH1 0x20 CALLDATASIZE PUSH1 0x3 NOT ADD SLT PUSH2 0x198 JUMPI PUSH2 0x26A PUSH2 0x10AB JUMP JUMPDEST PUSH2 0x272 PUSH2 0x12CA JUMP JUMPDEST PUSH1 0x1 PUSH1 0x1 PUSH1 0xA0 SHL SUB SWAP1 DUP2 AND SWAP1 DUP2 ISZERO PUSH2 0x2AE JUMPI PUSH1 0x1 DUP1 SLOAD PUSH1 0x1 PUSH1 0x1 PUSH1 0xA0 SHL SUB NOT DUP2 AND DUP5 OR SWAP1 SWAP2 SSTORE AND PUSH1 0x0 DUP1 MLOAD PUSH1 0x20 PUSH2 0x133B DUP4 CODECOPY DUP2 MLOAD SWAP2 MSTORE PUSH1 0x0 DUP1 LOG3 STOP JUMPDEST PUSH1 0x40 MLOAD PUSH4 0x1E4FBDF7 PUSH1 0xE0 SHL DUP2 MSTORE PUSH1 0x0 PUSH1 0x4 DUP3 ADD MSTORE PUSH1 0x24 SWAP1 REVERT JUMPDEST CALLVALUE PUSH2 0x198 JUMPI PUSH1 0x0 CALLDATASIZE PUSH1 0x3 NOT ADD SLT PUSH2 0x198 JUMPI PUSH1 0x20 PUSH1 0xF SLOAD PUSH1 0x40 MLOAD SWAP1 DUP2 MSTORE RETURN JUMPDEST CALLVALUE PUSH2 0x198 JUMPI PUSH1 0x20 CALLDATASIZE PUSH1 0x3 NOT ADD SLT PUSH2 0x198 JUMPI PUSH1 0x1 PUSH1 0x1 PUSH1 0xA0 SHL SUB PUSH2 0x306 PUSH2 0x10AB JUMP JUMPDEST AND PUSH1 0x0 MSTORE PUSH1 0x4 PUSH1 0x20 MSTORE PUSH1 0x20 PUSH1 0x40 PUSH1 0x0 KECCAK256 SLOAD PUSH1 0x40 MLOAD SWAP1 DUP2 MSTORE RETURN JUMPDEST CALLVALUE PUSH2 0x198 JUMPI PUSH1 0x20 CALLDATASIZE PUSH1 0x3 NOT ADD SLT PUSH2 0x198 JUMPI PUSH1 0x4 CALLDATALOAD DUP1 ISZERO ISZERO DUP2 SUB PUSH2 0x198 JUMPI PUSH2 0x344 PUSH2 0x12CA JUMP JUMPDEST ISZERO PUSH2 0x392 JUMPI PUSH2 0x351 PUSH2 0x1319 JUMP JUMPDEST PUSH1 0x1 DUP1 SLOAD PUSH1 0xFF PUSH1 0xA0 SHL NOT AND PUSH1 0x1 PUSH1 0xA0 SHL OR SWAP1 SSTORE PUSH1 0x40 MLOAD CALLER DUP2 MSTORE PUSH32 0x62E78CEA01BEE320CD4E420270B5EA74000D11B0C9F74754EBDBFC544B05A258 SWAP1 PUSH1 0x20 SWAP1 LOG1 STOP JUMPDEST PUSH1 0x1 SLOAD PUSH1 0xFF DUP2 PUSH1 0xA0 SHR AND ISZERO PUSH2 0x3D9 JUMPI PUSH1 0xFF PUSH1 0xA0 SHL NOT AND PUSH1 0x1 SSTORE PUSH1 0x40 MLOAD CALLER DUP2 MSTORE PUSH32 0x5DB9EE0A495BF2E6FF9C91A7834C1BA4FDD244A5E8AA4E537BD38AEAE4B073AA SWAP1 PUSH1 0x20 SWAP1 LOG1 STOP JUMPDEST PUSH1 0x40 MLOAD PUSH4 0x8DFC202B PUSH1 0xE0 SHL DUP2 MSTORE PUSH1 0x4 SWAP1 REVERT JUMPDEST CALLVALUE PUSH2 0x198 JUMPI PUSH1 0x20 CALLDATASIZE PUSH1 0x3 NOT ADD SLT PUSH2 0x198 JUMPI PUSH32 0x4E34F97DF9D751802ACA56BEB51E7018C483C7A50940C3D6088EEBAB0EA30C0B PUSH1 0x40 PUSH1 0x4 CALLDATALOAD PUSH2 0x42A PUSH2 0x12CA JUMP JUMPDEST PUSH1 0xF SLOAD SWAP1 DUP1 PUSH1 0xF SSTORE DUP3 MLOAD SWAP2 DUP3 MSTORE PUSH1 0x20 DUP3 ADD MSTORE LOG1 STOP JUMPDEST CALLVALUE PUSH2 0x198 JUMPI PUSH1 0x20 CALLDATASIZE PUSH1 0x3 NOT ADD SLT PUSH2 0x198 JUMPI PUSH1 0x4 CALLDATALOAD PUSH1 0x0 MSTORE PUSH1 0x2 PUSH1 0x20 MSTORE PUSH2 0x100 PUSH1 0x40 PUSH1 0x0 KECCAK256 DUP1 SLOAD SWAP1 PUSH1 0x1 DUP2 ADD SLOAD SWAP1 PUSH1 0x2 DUP2 ADD SLOAD PUSH1 0x3 DUP3 ADD SLOAD PUSH1 0x4 DUP4 ADD SLOAD SWAP1 PUSH1 0x5 DUP5 ADD SLOAD SWAP3 PUSH1 0x7 PUSH1 0x6 DUP7 ADD SLOAD SWAP6 ADD SLOAD SWAP6 PUSH1 0x40 MLOAD SWAP8 DUP9 MSTORE PUSH1 0x20 DUP9 ADD MSTORE PUSH1 0x40 DUP8 ADD MSTORE PUSH1 0x60 DUP7 ADD MSTORE PUSH1 0x80 DUP6 ADD MSTORE PUSH1 0xA0 DUP5 ADD MSTORE PUSH1 0xC0 DUP4 ADD MSTORE PUSH1 0xE0 DUP3 ADD MSTORE RETURN JUMPDEST CALLVALUE PUSH2 0x198 JUMPI PUSH1 0x0 CALLDATASIZE PUSH1 0x3 NOT ADD SLT PUSH2 0x198 JUMPI PUSH1 0x7 SLOAD PUSH1 0x8 SLOAD SWAP1 PUSH2 0x4E9 PUSH1 0x9 SLOAD PUSH1 0xA SLOAD PUSH1 0xB SLOAD SWAP2 PUSH1 0x40 MLOAD SWAP6 DUP7 SWAP6 DUP7 PUSH2 0x10C1 JUMP JUMPDEST SUB SWAP1 RETURN JUMPDEST CALLVALUE PUSH2 0x198 JUMPI PUSH1 0xA0 CALLDATASIZE PUSH1 0x3 NOT ADD SLT PUSH2 0x198 JUMPI PUSH1 0x64 CALLDATALOAD PUSH1 0x44 CALLDATALOAD PUSH1 0x24 CALLDATALOAD PUSH1 0x4 CALLDATALOAD PUSH2 0x512 PUSH2 0x12CA JUMP JUMPDEST PUSH2 0x51A PUSH2 0x12F6 JUMP JUMPDEST PUSH2 0x522 PUSH2 0x1319 JUMP JUMPDEST PUSH1 0x12 SLOAD SWAP4 PUSH1 0x1 DUP6 ADD DUP1 SWAP6 GT PUSH2 0x5BE JUMPI PUSH32 0x7B3E2E0C966B1C4CF5D6B6170514120397440CEBEB493F580EF6CC650250E619 SWAP4 PUSH2 0x5B4 SWAP2 GAS DUP8 PUSH1 0x0 MSTORE PUSH1 0x2 PUSH1 0x20 MSTORE PUSH2 0x58E PUSH1 0x40 PUSH1 0x0 KECCAK256 SWAP2 DUP7 DUP4 SSTORE DUP8 PUSH1 0x1 DUP5 ADD SSTORE DUP5 PUSH1 0x2 DUP5 ADD SSTORE DUP4 PUSH1 0x3 DUP5 ADD SSTORE PUSH1 0x84 CALLDATALOAD PUSH1 0x4 DUP5 ADD SSTORE GAS SWAP1 PUSH2 0x12BD JUMP JUMPDEST SWAP1 PUSH1 0x5 DUP2 ADD SWAP2 DUP3 SSTORE TIMESTAMP PUSH1 0x6 DUP3 ADD SSTORE PUSH1 0x7 NUMBER SWAP2 ADD SSTORE DUP8 PUSH1 0x12 SSTORE SLOAD SWAP2 PUSH1 0x40 MLOAD SWAP6 DUP7 SWAP6 DUP7 PUSH2 0x10C1 JUMP JUMPDEST SUB SWAP1 LOG2 PUSH1 0x1 PUSH1 0x0 SSTORE STOP JUMPDEST PUSH4 0x4E487B71 PUSH1 0xE0 SHL PUSH1 0x0 MSTORE PUSH1 0x11 PUSH1 0x4 MSTORE PUSH1 0x24 PUSH1 0x0 REVERT JUMPDEST CALLVALUE PUSH2 0x198 JUMPI PUSH1 0x20 CALLDATASIZE PUSH1 0x3 NOT ADD SLT PUSH2 0x198 JUMPI PUSH1 0x1 PUSH1 0x1 PUSH1 0xA0 SHL SUB PUSH2 0x5F5 PUSH2 0x10AB JUMP JUMPDEST AND PUSH1 0x0 MSTORE PUSH1 0x4 PUSH1 0x20 MSTORE PUSH1 0x40 PUSH1 0x0 KECCAK256 SLOAD PUSH1 0x5 PUSH1 0x20 MSTORE PUSH1 0x40 PUSH1 0x0 KECCAK256 SLOAD SWAP1 PUSH1 0x6 PUSH1 0x20 MSTORE PUSH2 0x4E9 PUSH1 0x40 PUSH1 0x0 KECCAK256 SLOAD PUSH1 0x40 MLOAD SWAP4 DUP5 SWAP4 DUP5 PUSH2 0x10E5 JUMP JUMPDEST CALLVALUE PUSH2 0x198 JUMPI PUSH1 0x20 CALLDATASIZE PUSH1 0x3 NOT ADD SLT PUSH2 0x198 JUMPI PUSH1 0x4 CALLDATALOAD PUSH1 0x0 MSTORE PUSH1 0x3 PUSH1 0x20 MSTORE PUSH1 0x40 DUP1 PUSH1 0x0 KECCAK256 PUSH1 0xFF PUSH1 0x4 PUSH1 0x3 DUP4 ADD SLOAD SWAP3 ADD SLOAD AND DUP3 MLOAD SWAP2 DUP3 MSTORE ISZERO ISZERO PUSH1 0x20 DUP3 ADD MSTORE RETURN JUMPDEST CALLVALUE PUSH2 0x198 JUMPI PUSH1 0x0 CALLDATASIZE PUSH1 0x3 NOT ADD SLT PUSH2 0x198 JUMPI PUSH1 0x10 SLOAD PUSH1 0xD SLOAD SWAP1 PUSH2 0x4E9 PUSH1 0x11 SLOAD PUSH1 0x12 SLOAD PUSH1 0xC SLOAD SWAP2 PUSH1 0x40 MLOAD SWAP6 DUP7 SWAP6 DUP7 PUSH2 0x10C1 JUMP JUMPDEST CALLVALUE PUSH2 0x198 JUMPI PUSH1 0x0 CALLDATASIZE PUSH1 0x3 NOT ADD SLT PUSH2 0x198 JUMPI PUSH1 0x1 SLOAD PUSH1 0x40 MLOAD PUSH1 0x1 PUSH1 0x1 PUSH1 0xA0 SHL SUB SWAP1 SWAP2 AND DUP2 MSTORE PUSH1 0x20 SWAP1 RETURN JUMPDEST CALLVALUE PUSH2 0x198 JUMPI PUSH1 0x0 CALLDATASIZE PUSH1 0x3 NOT ADD SLT PUSH2 0x198 JUMPI PUSH2 0x6DA PUSH2 0x12CA JUMP JUMPDEST PUSH1 0x1 DUP1 SLOAD PUSH1 0x1 PUSH1 0x1 PUSH1 0xA0 SHL SUB NOT DUP2 AND SWAP1 SWAP2 SSTORE PUSH1 0x0 SWAP1 PUSH1 0x1 PUSH1 0x1 PUSH1 0xA0 SHL SUB AND PUSH1 0x0 DUP1 MLOAD PUSH1 0x20 PUSH2 0x133B DUP4 CODECOPY DUP2 MLOAD SWAP2 MSTORE DUP3 DUP1 LOG3 STOP JUMPDEST CALLVALUE PUSH2 0x198 JUMPI PUSH1 0x20 CALLDATASIZE PUSH1 0x3 NOT ADD SLT PUSH2 0x198 JUMPI PUSH1 0x1 PUSH1 0x1 PUSH1 0xA0 SHL SUB PUSH2 0x72D PUSH2 0x10AB JUMP JUMPDEST AND PUSH1 0x0 MSTORE PUSH1 0x5 PUSH1 0x20 MSTORE PUSH1 0x20 PUSH1 0x40 PUSH1 0x0 KECCAK256 SLOAD PUSH1 0x40 MLOAD SWAP1 DUP2 MSTORE RETURN JUMPDEST CALLVALUE PUSH2 0x198 JUMPI PUSH1 0x0 CALLDATASIZE PUSH1 0x3 NOT ADD SLT PUSH2 0x198 JUMPI PUSH1 0x20 PUSH1 0xD SLOAD PUSH1 0x40 MLOAD SWAP1 DUP2 MSTORE RETURN JUMPDEST CALLVALUE PUSH2 0x198 JUMPI PUSH1 0x60 CALLDATASIZE PUSH1 0x3 NOT ADD SLT PUSH2 0x198 JUMPI PUSH2 0x77D PUSH2 0x10AB JUMP JUMPDEST PUSH1 0x24 CALLDATALOAD SWAP1 PUSH1 0x44 CALLDATALOAD SWAP1 PUSH2 0x78D PUSH2 0x12CA JUMP JUMPDEST PUSH2 0x795 PUSH2 0x12F6 JUMP JUMPDEST PUSH2 0x79D PUSH2 0x1319 JUMP JUMPDEST PUSH1 0x1 PUSH1 0x1 PUSH1 0xA0 SHL SUB AND SWAP2 DUP3 ISZERO PUSH2 0x8C5 JUMPI PUSH32 0x8DBF11FDA585BF060B80A2C1434B31F913D37581BA3181FFDEF3E0A150B36F52 SWAP2 DUP4 PUSH1 0x0 MSTORE PUSH1 0x4 PUSH1 0x20 MSTORE TIMESTAMP PUSH1 0x40 PUSH1 0x0 KECCAK256 SSTORE PUSH1 0x5 PUSH1 0x20 MSTORE PUSH1 0x40 PUSH1 0x0 KECCAK256 PUSH2 0x7F4 DUP4 DUP3 SLOAD PUSH2 0x12A1 JUMP JUMPDEST SWAP1 SSTORE DUP4 PUSH1 0x0 MSTORE PUSH1 0x6 PUSH1 0x20 MSTORE PUSH1 0x40 PUSH1 0x0 KECCAK256 PUSH2 0x80F DUP3 DUP3 SLOAD PUSH2 0x12A1 JUMP JUMPDEST SWAP1 SSTORE PUSH2 0x81C PUSH1 0x10 SLOAD PUSH2 0x12AE JUMP JUMPDEST PUSH1 0x10 SSTORE PUSH2 0x830 PUSH1 0x40 MLOAD SWAP3 DUP4 SWAP3 TIMESTAMP SWAP2 DUP5 PUSH2 0x10E5 JUMP JUMPDEST SUB SWAP1 LOG2 GAS PUSH1 0xF SLOAD DUP1 SWAP2 LT PUSH2 0x846 JUMPI JUMPDEST PUSH1 0x1 PUSH1 0x0 SSTORE STOP JUMPDEST PUSH2 0x85A PUSH2 0x854 GAS GAS SWAP1 PUSH2 0x12BD JUMP JUMPDEST DUP3 PUSH2 0x12BD JUMP JUMPDEST SWAP1 DUP2 PUSH2 0x867 JUMPI JUMPDEST POP PUSH2 0x83F JUMP JUMPDEST DUP2 PUSH2 0x895 PUSH32 0xCB57F0FAB46F9F05B0DFFCD4C0196537CD990C3F08BC8F4E9D9F2A9F2A1624F5 SWAP4 PUSH1 0x11 SLOAD PUSH2 0x12A1 JUMP JUMPDEST PUSH1 0x11 SSTORE PUSH2 0x8A4 DUP2 PUSH1 0xA SLOAD PUSH2 0x12A1 JUMP JUMPDEST PUSH1 0xA SSTORE TIMESTAMP PUSH1 0xB SSTORE PUSH2 0x8BB PUSH1 0x40 MLOAD SWAP3 DUP4 SWAP3 TIMESTAMP DUP5 PUSH2 0x10E5 JUMP JUMPDEST SUB SWAP1 LOG1 DUP1 DUP1 PUSH2 0x861 JUMP JUMPDEST PUSH1 0x40 MLOAD PUSH3 0x461BCD PUSH1 0xE5 SHL DUP2 MSTORE PUSH1 0x20 PUSH1 0x4 DUP3 ADD MSTORE PUSH1 0x16 PUSH1 0x24 DUP3 ADD MSTORE PUSH22 0x496E76616C696420706C617965722061646472657373 PUSH1 0x50 SHL PUSH1 0x44 DUP3 ADD MSTORE PUSH1 0x64 SWAP1 REVERT JUMPDEST CALLVALUE PUSH2 0x198 JUMPI PUSH1 0x0 CALLDATASIZE PUSH1 0x3 NOT ADD SLT PUSH2 0x198 JUMPI PUSH1 0x20 PUSH1 0xFF PUSH1 0x1 SLOAD PUSH1 0xA0 SHR AND PUSH1 0x40 MLOAD SWAP1 ISZERO ISZERO DUP2 MSTORE RETURN JUMPDEST CALLVALUE PUSH2 0x198 JUMPI PUSH1 0x0 CALLDATASIZE PUSH1 0x3 NOT ADD SLT PUSH2 0x198 JUMPI PUSH1 0x20 PUSH1 0x11 SLOAD PUSH1 0x40 MLOAD SWAP1 DUP2 MSTORE RETURN JUMPDEST CALLVALUE PUSH2 0x198 JUMPI PUSH1 0x60 CALLDATASIZE PUSH1 0x3 NOT ADD SLT PUSH2 0x198 JUMPI PUSH1 0x4 CALLDATALOAD PUSH1 0x1 PUSH1 0x1 PUSH1 0x40 SHL SUB DUP2 GT PUSH2 0x198 JUMPI PUSH2 0x977 SWAP1 CALLDATASIZE SWAP1 PUSH1 0x4 ADD PUSH2 0x107B JUMP JUMPDEST PUSH1 0x24 CALLDATALOAD PUSH1 0x1 PUSH1 0x1 PUSH1 0x40 SHL SUB DUP2 GT PUSH2 0x198 JUMPI PUSH2 0x996 SWAP1 CALLDATASIZE SWAP1 PUSH1 0x4 ADD PUSH2 0x107B JUMP JUMPDEST SWAP3 SWAP1 PUSH1 0x44 CALLDATALOAD PUSH1 0x1 PUSH1 0x1 PUSH1 0x40 SHL SUB DUP2 GT PUSH2 0x198 JUMPI PUSH2 0x9B7 SWAP1 CALLDATASIZE SWAP1 PUSH1 0x4 ADD PUSH2 0x107B JUMP JUMPDEST SWAP1 SWAP2 PUSH2 0x9C1 PUSH2 0x12CA JUMP JUMPDEST PUSH2 0x9C9 PUSH2 0x12F6 JUMP JUMPDEST PUSH2 0x9D1 PUSH2 0x1319 JUMP JUMPDEST DUP5 ISZERO PUSH2 0xD20 JUMPI PUSH2 0x9E2 DUP7 DUP7 EQ PUSH2 0x11ED JUMP JUMPDEST PUSH2 0x9ED DUP3 DUP7 EQ PUSH2 0x11ED JUMP JUMPDEST PUSH1 0xE SLOAD DUP6 GT PUSH2 0xCE9 JUMPI PUSH1 0xC SLOAD SWAP6 GAS PUSH1 0x0 DUP9 DUP2 MSTORE PUSH1 0x3 PUSH1 0x20 MSTORE PUSH1 0x40 SWAP1 KECCAK256 SWAP1 SWAP3 SWAP1 PUSH1 0x1 PUSH1 0x1 PUSH1 0x40 SHL SUB DUP9 GT PUSH2 0xCA4 JUMPI PUSH1 0x1 PUSH1 0x40 SHL DUP9 GT PUSH2 0xCA4 JUMPI PUSH2 0xA34 DUP9 DUP3 SLOAD DUP2 DUP5 SSTORE DUP4 PUSH2 0x1231 JUMP JUMPDEST DUP7 DUP2 PUSH1 0x0 MSTORE PUSH1 0x20 PUSH1 0x0 KECCAK256 SWAP1 PUSH1 0x0 JUMPDEST DUP11 DUP2 LT PUSH2 0xCCE JUMPI POP POP PUSH1 0x1 PUSH1 0x1 PUSH1 0x40 SHL SUB DUP5 GT SWAP1 POP PUSH2 0xCA4 JUMPI PUSH1 0x1 PUSH1 0x40 SHL DUP4 GT PUSH2 0xCA4 JUMPI PUSH1 0x1 DUP2 ADD DUP1 SLOAD DUP5 DUP3 SSTORE PUSH2 0xA7B SWAP2 DUP6 SWAP2 SWAP1 PUSH2 0x1231 JUMP JUMPDEST DUP2 PUSH1 0x1 DUP3 ADD PUSH1 0x0 MSTORE PUSH1 0x20 PUSH1 0x0 KECCAK256 SWAP1 PUSH1 0x0 JUMPDEST DUP6 DUP2 LT PUSH2 0xCBA JUMPI POP POP POP PUSH1 0x2 DUP2 ADD PUSH1 0x1 PUSH1 0x1 PUSH1 0x40 SHL SUB DUP7 GT PUSH2 0xCA4 JUMPI PUSH1 0x1 PUSH1 0x40 SHL DUP7 GT PUSH2 0xCA4 JUMPI PUSH2 0xAC7 DUP7 DUP3 SWAP9 SWAP8 SWAP6 SWAP5 SWAP9 SLOAD DUP2 DUP5 SSTORE DUP4 PUSH2 0x1231 JUMP JUMPDEST DUP6 SWAP1 PUSH1 0x0 MSTORE PUSH1 0x20 PUSH1 0x0 KECCAK256 SWAP1 PUSH1 0x0 JUMPDEST DUP6 DUP2 LT PUSH2 0xC90 JUMPI POP POP TIMESTAMP PUSH1 0x3 DUP4 ADD SSTORE POP PUSH1 0x4 ADD DUP1 SLOAD PUSH1 0xFF NOT AND PUSH1 0x1 OR SWAP1 SSTORE PUSH1 0x0 SWAP5 DUP6 SWAP5 DUP6 SWAP4 JUMPDEST DUP10 DUP10 DUP2 DUP8 LT PUSH2 0xBF5 JUMPI DUP13 SWAP3 POP DUP10 DUP10 PUSH2 0xB3F DUP11 PUSH2 0xB19 DUP7 PUSH1 0x10 SLOAD PUSH2 0x12A1 JUMP JUMPDEST PUSH1 0x10 SSTORE PUSH2 0xB27 PUSH1 0xD SLOAD PUSH2 0x12AE JUMP JUMPDEST PUSH1 0xD SSTORE PUSH2 0xB35 PUSH1 0xC SLOAD PUSH2 0x12AE JUMP JUMPDEST PUSH1 0xC SSTORE GAS SWAP1 PUSH2 0x12BD JUMP JUMPDEST SWAP2 PUSH2 0xB68 PUSH2 0xB4F DUP5 PUSH1 0x7 SLOAD PUSH2 0x12A1 JUMP JUMPDEST DUP1 PUSH1 0x7 SSTORE PUSH2 0xB5E PUSH1 0x9 SLOAD PUSH2 0x12AE JUMP JUMPDEST SWAP1 DUP2 PUSH1 0x9 SSTORE PUSH2 0x118C JUMP JUMPDEST PUSH1 0x8 SSTORE PUSH1 0x40 MLOAD SWAP5 DUP1 PUSH1 0x80 DUP8 ADD PUSH1 0x80 DUP9 MSTORE MSTORE PUSH1 0xA0 DUP7 ADD SWAP5 SWAP1 PUSH1 0x0 SWAP1 JUMPDEST DUP1 DUP3 LT PUSH2 0xBCB JUMPI DUP9 PUSH32 0x3DEE9011858AA7CC304FD9BABD8BD007E4F6500FA94C7A60EA149AABEC397213 DUP10 DUP1 DUP11 DUP11 DUP11 DUP11 PUSH1 0x20 DUP6 ADD MSTORE PUSH1 0x40 DUP5 ADD MSTORE PUSH1 0x60 DUP4 ADD MSTORE SUB SWAP1 LOG2 PUSH1 0x1 PUSH1 0x0 SSTORE STOP JUMPDEST SWAP1 SWAP2 SWAP6 DUP7 CALLDATALOAD SWAP1 PUSH1 0x1 DUP1 PUSH1 0xA0 SHL SUB DUP3 AND DUP1 SWAP3 SUB PUSH2 0x198 JUMPI PUSH1 0x20 DUP2 PUSH1 0x1 SWAP4 DUP3 SWAP4 MSTORE ADD SWAP8 ADD SWAP3 ADD SWAP1 PUSH2 0xB83 JUMP JUMPDEST SWAP9 PUSH2 0xC7F PUSH2 0xC17 PUSH2 0xC12 DUP10 PUSH2 0xC85 SWAP6 PUSH1 0x1 SWAP8 SWAP9 SWAP10 SWAP11 SWAP12 SWAP14 SWAP15 PUSH2 0x127B JUMP JUMPDEST PUSH2 0x1267 JUMP JUMPDEST SWAP2 PUSH2 0xC23 DUP12 DUP11 DUP11 PUSH2 0x127B JUMP JUMPDEST CALLDATALOAD SWAP1 PUSH2 0xC30 DUP13 DUP9 DUP11 PUSH2 0x127B JUMP JUMPDEST CALLDATALOAD SWAP4 DUP7 DUP1 PUSH1 0xA0 SHL SUB AND DUP1 PUSH1 0x0 MSTORE PUSH1 0x4 PUSH1 0x20 MSTORE TIMESTAMP PUSH1 0x40 PUSH1 0x0 KECCAK256 SSTORE PUSH1 0x5 PUSH1 0x20 MSTORE PUSH1 0x40 PUSH1 0x0 KECCAK256 PUSH2 0xC5E DUP5 DUP3 SLOAD PUSH2 0x12A1 JUMP JUMPDEST SWAP1 SSTORE PUSH1 0x0 MSTORE PUSH1 0x6 PUSH1 0x20 MSTORE PUSH1 0x40 PUSH1 0x0 KECCAK256 PUSH2 0xC78 DUP6 DUP3 SLOAD PUSH2 0x12A1 JUMP JUMPDEST SWAP1 SSTORE PUSH2 0x12A1 JUMP JUMPDEST SWAP10 PUSH2 0x12A1 JUMP JUMPDEST SWAP7 ADD SWAP4 SWAP3 SWAP2 SWAP1 PUSH2 0xAFB JUMP JUMPDEST DUP2 CALLDATALOAD DUP2 DUP5 ADD SSTORE PUSH1 0x20 SWAP1 SWAP2 ADD SWAP1 PUSH1 0x1 ADD PUSH2 0xAD5 JUMP JUMPDEST PUSH4 0x4E487B71 PUSH1 0xE0 SHL PUSH1 0x0 MSTORE PUSH1 0x41 PUSH1 0x4 MSTORE PUSH1 0x24 PUSH1 0x0 REVERT JUMPDEST PUSH1 0x1 SWAP1 PUSH1 0x20 DUP4 CALLDATALOAD SWAP4 ADD SWAP3 DUP2 DUP6 ADD SSTORE ADD PUSH2 0xA8C JUMP JUMPDEST PUSH1 0x1 SWAP1 PUSH1 0x20 PUSH2 0xCDC DUP5 PUSH2 0x1267 JUMP JUMPDEST SWAP4 ADD SWAP3 DUP2 DUP6 ADD SSTORE ADD PUSH2 0xA42 JUMP JUMPDEST PUSH1 0x40 MLOAD PUSH3 0x461BCD PUSH1 0xE5 SHL DUP2 MSTORE PUSH1 0x20 PUSH1 0x4 DUP3 ADD MSTORE PUSH1 0xF PUSH1 0x24 DUP3 ADD MSTORE PUSH15 0x426174636820746F6F206C61726765 PUSH1 0x88 SHL PUSH1 0x44 DUP3 ADD MSTORE PUSH1 0x64 SWAP1 REVERT JUMPDEST PUSH1 0x40 MLOAD PUSH3 0x461BCD PUSH1 0xE5 SHL DUP2 MSTORE PUSH1 0x20 PUSH1 0x4 DUP3 ADD MSTORE PUSH1 0xB PUSH1 0x24 DUP3 ADD MSTORE PUSH11 0x8ADAE0E8F240C4C2E8C6D PUSH1 0xAB SHL PUSH1 0x44 DUP3 ADD MSTORE PUSH1 0x64 SWAP1 REVERT JUMPDEST CALLVALUE PUSH2 0x198 JUMPI PUSH1 0x20 CALLDATASIZE PUSH1 0x3 NOT ADD SLT PUSH2 0x198 JUMPI PUSH1 0x4 CALLDATALOAD PUSH2 0xD6F PUSH2 0x12CA JUMP JUMPDEST DUP1 ISZERO PUSH2 0xDF3 JUMPI PUSH2 0x3E8 DUP2 GT PUSH2 0xDB7 JUMPI PUSH1 0x40 PUSH32 0xA61D74B0872C6C49D515F7AF99EAD08FBE5259A59C479F6D943B97359829FF9E SWAP2 PUSH1 0xE SLOAD SWAP1 DUP1 PUSH1 0xE SSTORE DUP3 MLOAD SWAP2 DUP3 MSTORE PUSH1 0x20 DUP3 ADD MSTORE LOG1 STOP JUMPDEST PUSH1 0x40 MLOAD PUSH3 0x461BCD PUSH1 0xE5 SHL DUP2 MSTORE PUSH1 0x20 PUSH1 0x4 DUP3 ADD MSTORE PUSH1 0x14 PUSH1 0x24 DUP3 ADD MSTORE PUSH20 0x42617463682073697A6520746F6F206C61726765 PUSH1 0x60 SHL PUSH1 0x44 DUP3 ADD MSTORE PUSH1 0x64 SWAP1 REVERT JUMPDEST PUSH1 0x40 MLOAD PUSH3 0x461BCD PUSH1 0xE5 SHL DUP2 MSTORE PUSH1 0x20 PUSH1 0x4 DUP3 ADD MSTORE PUSH1 0x1B PUSH1 0x24 DUP3 ADD MSTORE PUSH27 0x42617463682073697A65206D75737420626520706F736974697665 PUSH1 0x28 SHL PUSH1 0x44 DUP3 ADD MSTORE PUSH1 0x64 SWAP1 REVERT JUMPDEST CALLVALUE PUSH2 0x198 JUMPI PUSH1 0x0 CALLDATASIZE PUSH1 0x3 NOT ADD SLT PUSH2 0x198 JUMPI PUSH1 0x20 PUSH2 0xE51 PUSH2 0x11AC JUMP JUMPDEST PUSH1 0x40 MLOAD SWAP1 DUP2 MSTORE RETURN JUMPDEST CALLVALUE PUSH2 0x198 JUMPI PUSH1 0x0 CALLDATASIZE PUSH1 0x3 NOT ADD SLT PUSH2 0x198 JUMPI PUSH1 0x40 MLOAD PUSH32 0x0 PUSH1 0x1 PUSH1 0x1 PUSH1 0xA0 SHL SUB AND DUP2 MSTORE PUSH1 0x20 SWAP1 RETURN JUMPDEST CALLVALUE PUSH2 0x198 JUMPI PUSH1 0x20 DUP1 PUSH1 0x3 NOT CALLDATASIZE ADD SLT PUSH2 0x198 JUMPI PUSH1 0x4 CALLDATALOAD PUSH1 0xD SLOAD DUP2 GT PUSH2 0xFB8 JUMPI PUSH1 0x0 MSTORE PUSH1 0x3 DUP2 MSTORE PUSH1 0x40 PUSH1 0x0 KECCAK256 PUSH1 0x1 SWAP1 PUSH1 0x3 DUP2 ADD SLOAD SWAP1 PUSH1 0xFF PUSH1 0x4 DUP3 ADD SLOAD AND SWAP1 PUSH1 0x40 MLOAD SWAP1 DUP2 SWAP6 DUP1 DUP3 SLOAD SWAP4 DUP5 DUP2 MSTORE ADD DUP1 SWAP4 DUP4 PUSH1 0x0 MSTORE DUP3 PUSH1 0x0 KECCAK256 SWAP1 PUSH1 0x0 JUMPDEST DUP2 DUP2 LT PUSH2 0xF9C JUMPI POP POP POP DUP8 PUSH2 0xF0C SWAP2 SUB DUP9 PUSH2 0x1116 JUMP JUMPDEST PUSH2 0xF24 PUSH1 0x2 PUSH2 0xF1D PUSH1 0x1 DUP6 ADD PUSH2 0x1139 JUMP JUMPDEST SWAP4 ADD PUSH2 0x1139 JUMP JUMPDEST SWAP7 PUSH1 0x40 MLOAD SWAP7 PUSH1 0xA0 DUP9 ADD SWAP2 PUSH1 0xA0 DUP10 MSTORE MLOAD DUP1 SWAP3 MSTORE PUSH1 0xC0 DUP9 ADD SWAP5 SWAP2 PUSH1 0x0 JUMPDEST DUP2 DUP2 LT PUSH2 0xF80 JUMPI POP POP POP POP DUP3 DUP7 SWAP8 SWAP3 PUSH2 0xF61 SWAP3 DUP9 PUSH2 0xF6F SWAP7 SUB SWAP1 DUP10 ADD MSTORE PUSH2 0x1047 JUMP JUMPDEST SWAP1 DUP6 DUP3 SUB PUSH1 0x40 DUP8 ADD MSTORE PUSH2 0x1047 JUMP JUMPDEST SWAP2 PUSH1 0x60 DUP5 ADD MSTORE ISZERO ISZERO PUSH1 0x80 DUP4 ADD MSTORE SUB SWAP1 RETURN JUMPDEST DUP4 MLOAD PUSH1 0x1 PUSH1 0x1 PUSH1 0xA0 SHL SUB AND DUP8 MSTORE SWAP6 DUP5 ADD SWAP6 SWAP3 DUP5 ADD SWAP3 DUP3 ADD PUSH2 0xF3F JUMP JUMPDEST DUP3 SLOAD PUSH1 0x1 PUSH1 0x1 PUSH1 0xA0 SHL SUB AND DUP5 MSTORE SWAP3 DUP5 ADD SWAP3 SWAP2 DUP10 ADD SWAP2 DUP10 ADD PUSH2 0xEF6 JUMP JUMPDEST PUSH1 0x40 MLOAD PUSH3 0x461BCD PUSH1 0xE5 SHL DUP2 MSTORE PUSH1 0x4 DUP2 ADD DUP4 SWAP1 MSTORE PUSH1 0x10 PUSH1 0x24 DUP3 ADD MSTORE PUSH16 0x125B9D985B1A590818985D18DA081251 PUSH1 0x82 SHL PUSH1 0x44 DUP3 ADD MSTORE PUSH1 0x64 SWAP1 REVERT JUMPDEST CALLVALUE PUSH2 0x198 JUMPI PUSH1 0x0 CALLDATASIZE PUSH1 0x3 NOT ADD SLT PUSH2 0x198 JUMPI PUSH1 0x20 PUSH1 0xC SLOAD PUSH1 0x40 MLOAD SWAP1 DUP2 MSTORE RETURN JUMPDEST CALLVALUE PUSH2 0x198 JUMPI PUSH1 0x0 CALLDATASIZE PUSH1 0x3 NOT ADD SLT PUSH2 0x198 JUMPI PUSH1 0x20 PUSH1 0x10 SLOAD PUSH1 0x40 MLOAD SWAP1 DUP2 MSTORE RETURN JUMPDEST CALLVALUE PUSH2 0x198 JUMPI PUSH1 0x0 CALLDATASIZE PUSH1 0x3 NOT ADD SLT PUSH2 0x198 JUMPI PUSH1 0x20 SWAP1 PUSH1 0x12 SLOAD DUP2 MSTORE RETURN JUMPDEST SWAP1 DUP2 MLOAD DUP1 DUP3 MSTORE PUSH1 0x20 DUP1 DUP1 SWAP4 ADD SWAP4 ADD SWAP2 PUSH1 0x0 JUMPDEST DUP3 DUP2 LT PUSH2 0x1067 JUMPI POP POP POP POP SWAP1 JUMP JUMPDEST DUP4 MLOAD DUP6 MSTORE SWAP4 DUP2 ADD SWAP4 SWAP3 DUP2 ADD SWAP3 PUSH1 0x1 ADD PUSH2 0x1059 JUMP JUMPDEST SWAP2 DUP2 PUSH1 0x1F DUP5 ADD SLT ISZERO PUSH2 0x198 JUMPI DUP3 CALLDATALOAD SWAP2 PUSH1 0x1 PUSH1 0x1 PUSH1 0x40 SHL SUB DUP4 GT PUSH2 0x198 JUMPI PUSH1 0x20 DUP1 DUP6 ADD SWAP5 DUP5 PUSH1 0x5 SHL ADD ADD GT PUSH2 0x198 JUMPI JUMP JUMPDEST PUSH1 0x4 CALLDATALOAD SWAP1 PUSH1 0x1 PUSH1 0x1 PUSH1 0xA0 SHL SUB DUP3 AND DUP3 SUB PUSH2 0x198 JUMPI JUMP JUMPDEST SWAP2 SWAP3 PUSH1 0x80 SWAP4 SWAP7 SWAP6 SWAP5 SWAP2 SWAP7 PUSH1 0xA0 DUP5 ADD SWAP8 DUP5 MSTORE PUSH1 0x20 DUP5 ADD MSTORE PUSH1 0x40 DUP4 ADD MSTORE PUSH1 0x60 DUP3 ADD MSTORE ADD MSTORE JUMP JUMPDEST PUSH1 0x40 SWAP2 SWAP5 SWAP4 SWAP3 PUSH1 0x60 DUP3 ADD SWAP6 DUP3 MSTORE PUSH1 0x20 DUP3 ADD MSTORE ADD MSTORE JUMP JUMPDEST PUSH1 0xA0 DUP2 ADD SWAP1 DUP2 LT PUSH1 0x1 PUSH1 0x1 PUSH1 0x40 SHL SUB DUP3 GT OR PUSH2 0xCA4 JUMPI PUSH1 0x40 MSTORE JUMP JUMPDEST PUSH1 0x1F SWAP1 SWAP2 ADD PUSH1 0x1F NOT AND DUP2 ADD SWAP1 PUSH1 0x1 PUSH1 0x1 PUSH1 0x40 SHL SUB DUP3 GT SWAP1 DUP3 LT OR PUSH2 0xCA4 JUMPI PUSH1 0x40 MSTORE JUMP JUMPDEST SWAP1 PUSH1 0x40 MLOAD SWAP2 DUP3 DUP2 SLOAD SWAP2 DUP3 DUP3 MSTORE PUSH1 0x20 SWAP3 PUSH1 0x20 DUP4 ADD SWAP2 PUSH1 0x0 MSTORE PUSH1 0x20 PUSH1 0x0 KECCAK256 SWAP4 PUSH1 0x0 SWAP1 JUMPDEST DUP3 DUP3 LT PUSH2 0x1172 JUMPI POP POP POP PUSH2 0x1170 SWAP3 POP SUB DUP4 PUSH2 0x1116 JUMP JUMPDEST JUMP JUMPDEST DUP6 SLOAD DUP5 MSTORE PUSH1 0x1 SWAP6 DUP7 ADD SWAP6 DUP9 SWAP6 POP SWAP4 DUP2 ADD SWAP4 SWAP1 SWAP2 ADD SWAP1 PUSH2 0x115A JUMP JUMPDEST DUP2 ISZERO PUSH2 0x1196 JUMPI DIV SWAP1 JUMP JUMPDEST PUSH4 0x4E487B71 PUSH1 0xE0 SHL PUSH1 0x0 MSTORE PUSH1 0x12 PUSH1 0x4 MSTORE PUSH1 0x24 PUSH1 0x0 REVERT JUMPDEST PUSH1 0x9 SLOAD ISZERO PUSH2 0x11E7 JUMPI PUSH2 0x11C3 PUSH1 0x8 SLOAD GASLIMIT PUSH1 0x1 SHR PUSH2 0x118C JUMP JUMPDEST PUSH1 0xA DUP2 LT PUSH2 0x11DF JUMPI JUMPDEST PUSH2 0x3E8 DUP1 DUP3 GT PUSH2 0x11DA JUMPI POP SWAP1 JUMP JUMPDEST SWAP1 POP SWAP1 JUMP JUMPDEST POP PUSH1 0xA PUSH2 0x11CC JUMP JUMPDEST PUSH1 0xE SLOAD SWAP1 JUMP JUMPDEST ISZERO PUSH2 0x11F4 JUMPI JUMP JUMPDEST PUSH1 0x40 MLOAD PUSH3 0x461BCD PUSH1 0xE5 SHL DUP2 MSTORE PUSH1 0x20 PUSH1 0x4 DUP3 ADD MSTORE PUSH1 0x15 PUSH1 0x24 DUP3 ADD MSTORE PUSH21 0x82E4E4C2F240D8CADCCEE8D040DAD2E6DAC2E8C6D PUSH1 0x5B SHL PUSH1 0x44 DUP3 ADD MSTORE PUSH1 0x64 SWAP1 REVERT JUMPDEST SWAP1 SWAP2 DUP3 DUP2 LT PUSH2 0x123F JUMPI POP POP POP JUMP JUMPDEST PUSH1 0x0 SWAP2 PUSH1 0x0 MSTORE PUSH1 0x20 PUSH1 0x0 KECCAK256 SWAP3 DUP4 ADD SWAP3 ADD JUMPDEST DUP3 DUP2 LT PUSH2 0x125C JUMPI POP POP POP JUMP JUMPDEST DUP2 DUP2 SSTORE PUSH1 0x1 ADD PUSH2 0x1250 JUMP JUMPDEST CALLDATALOAD PUSH1 0x1 PUSH1 0x1 PUSH1 0xA0 SHL SUB DUP2 AND DUP2 SUB PUSH2 0x198 JUMPI SWAP1 JUMP JUMPDEST SWAP2 SWAP1 DUP2 LT ISZERO PUSH2 0x128B JUMPI PUSH1 0x5 SHL ADD SWAP1 JUMP JUMPDEST PUSH4 0x4E487B71 PUSH1 0xE0 SHL PUSH1 0x0 MSTORE PUSH1 0x32 PUSH1 0x4 MSTORE PUSH1 0x24 PUSH1 0x0 REVERT JUMPDEST SWAP2 SWAP1 DUP3 ADD DUP1 SWAP3 GT PUSH2 0x5BE JUMPI JUMP JUMPDEST PUSH1 0x0 NOT DUP2 EQ PUSH2 0x5BE JUMPI PUSH1 0x1 ADD SWAP1 JUMP JUMPDEST SWAP2 SWAP1 DUP3 SUB SWAP2 DUP3 GT PUSH2 0x5BE JUMPI JUMP JUMPDEST PUSH1 0x1 SLOAD PUSH1 0x1 PUSH1 0x1 PUSH1 0xA0 SHL SUB AND CALLER SUB PUSH2 0x12DE JUMPI JUMP JUMPDEST PUSH1 0x40 MLOAD PUSH4 0x118CDAA7 PUSH1 0xE0 SHL DUP2 MSTORE CALLER PUSH1 0x4 DUP3 ADD MSTORE PUSH1 0x24 SWAP1 REVERT JUMPDEST PUSH1 0x2 PUSH1 0x0 SLOAD EQ PUSH2 0x1307 JUMPI PUSH1 0x2 PUSH1 0x0 SSTORE JUMP JUMPDEST PUSH1 0x40 MLOAD PUSH4 0x3EE5AEB5 PUSH1 0xE0 SHL DUP2 MSTORE PUSH1 0x4 SWAP1 REVERT JUMPDEST PUSH1 0xFF PUSH1 0x1 SLOAD PUSH1 0xA0 SHR AND PUSH2 0x1328 JUMPI JUMP JUMPDEST PUSH1 0x40 MLOAD PUSH4 0xD93C0665 PUSH1 0xE0 SHL DUP2 MSTORE PUSH1 0x4 SWAP1 REVERT INVALID DUP12 0xE0 SMOD SWAP13 MSTORE8 AND MSIZE EQ SGT PREVRANDAO 0xCD 0x1F 0xD0 LOG4 CALLCODE DUP5 NOT BLOBHASH PUSH32 0x9722A3DAAFE3B4186F6B6457E0A2646970667358221220C13EB7432217D58B30 0xBB 0x2D 0x27 SIGNEXTEND SDIV PUSH13 0x210A7FC8D6CBD53F6D39419295 0xA6 SWAP14 0xC1 SLOAD PUSH5 0x736F6C6343 STOP ADDMOD XOR STOP CALLER "},"methodIdentifiers":{"batchSize()":"f4daaba1","calculateOptimalBatchSize()":"25bc02a7","currentBatchId()":"0a763da1","emergencyPause(bool)":"e8f6940e","gameAnalytics(uint256)":"c7158e92","gasOptimizationThreshold()":"ee892e64","getAnalyticsSummary()":"8db99701","getBatchInfo(uint256)":"1a0058f5","getPerformanceMetrics()":"ff083a97","getPlayerAnalytics(address)":"a05a1150","lastAnalyticsUpdate()":"033ad94f","owner()":"8da5cb5b","paused()":"5c975abb","performanceMetrics()":"b9753657","playerBatches(uint256)":"9863b3cc","playerLastActivity(address)":"e91ef37e","playerTotalEntries(address)":"6c4e7dde","playerTotalRewards(address)":"ff19e6f8","processPlayerBatch(address[],uint256[],uint256[])":"426e27bf","recordPlayerActivity(address,uint256,uint256)":"62563dc4","renounceOwnership()":"715018a6","totalBatches()":"69ff6abb","totalGasOptimized()":"46dde72d","totalPlayersProcessed()":"08da3ceb","transferOwnership(address)":"f2fde38b","updateBatchSize(uint256)":"32705203","updateGameAnalytics(uint256,uint256,uint256,uint256,uint256)":"a2037266","updateGasThreshold(uint256)":"d31d83fe","vmfToken()":"2086eefa"}}}}}