{"contracts/PizzaPartyDynamicPricing.sol":{"PizzaPartyDynamicPricing":{"abi":[{"inputs":[{"internalType":"address","name":"_vmfToken","type":"address"},{"internalType":"address","name":"_priceOracle","type":"address"}],"stateMutability":"nonpayable","type":"constructor"},{"inputs":[],"name":"EnforcedPause","type":"error"},{"inputs":[],"name":"ExpectedPause","type":"error"},{"inputs":[{"internalType":"address","name":"owner","type":"address"}],"name":"OwnableInvalidOwner","type":"error"},{"inputs":[{"internalType":"address","name":"account","type":"address"}],"name":"OwnableUnauthorizedAccount","type":"error"},{"inputs":[],"name":"ReentrancyGuardReentrantCall","type":"error"},{"anonymous":false,"inputs":[{"indexed":false,"internalType":"uint256","name":"vmfPrice","type":"uint256"},{"indexed":false,"internalType":"uint256","name":"calculatedFee","type":"uint256"},{"indexed":false,"internalType":"uint256","name":"actualFee","type":"uint256"},{"indexed":false,"internalType":"uint256","name":"timestamp","type":"uint256"}],"name":"DynamicFeeCalculated","type":"event"},{"anonymous":false,"inputs":[{"indexed":true,"internalType":"address","name":"user","type":"address"},{"indexed":false,"internalType":"uint256","name":"feeAmount","type":"uint256"},{"indexed":false,"internalType":"uint256","name":"vmfPrice","type":"uint256"},{"indexed":false,"internalType":"uint256","name":"timestamp","type":"uint256"}],"name":"FeeCollected","type":"event"},{"anonymous":false,"inputs":[{"indexed":true,"internalType":"address","name":"previousOwner","type":"address"},{"indexed":true,"internalType":"address","name":"newOwner","type":"address"}],"name":"OwnershipTransferred","type":"event"},{"anonymous":false,"inputs":[{"indexed":false,"internalType":"address","name":"account","type":"address"}],"name":"Paused","type":"event"},{"anonymous":false,"inputs":[{"indexed":true,"internalType":"address","name":"oldOracle","type":"address"},{"indexed":true,"internalType":"address","name":"newOracle","type":"address"}],"name":"PriceOracleUpdated","type":"event"},{"anonymous":false,"inputs":[{"indexed":false,"internalType":"uint256","name":"baseEntryFee","type":"uint256"},{"indexed":false,"internalType":"uint256","name":"maxPriceDeviation","type":"uint256"},{"indexed":false,"internalType":"uint256","name":"priceUpdateThreshold","type":"uint256"},{"indexed":false,"internalType":"uint256","name":"minEntryFee","type":"uint256"},{"indexed":false,"internalType":"uint256","name":"maxEntryFee","type":"uint256"},{"indexed":false,"internalType":"uint256","name":"feeMultiplier","type":"uint256"}],"name":"PricingConfigUpdated","type":"event"},{"anonymous":false,"inputs":[{"indexed":false,"internalType":"address","name":"account","type":"address"}],"name":"Unpaused","type":"event"},{"inputs":[],"name":"calculateDynamicEntryFee","outputs":[{"internalType":"uint256","name":"feeAmount","type":"uint256"},{"internalType":"uint256","name":"vmfPrice","type":"uint256"}],"stateMutability":"view","type":"function"},{"inputs":[{"internalType":"address","name":"user","type":"address"}],"name":"collectEntryFee","outputs":[{"internalType":"uint256","name":"feeAmount","type":"uint256"}],"stateMutability":"nonpayable","type":"function"},{"inputs":[{"internalType":"bool","name":"pause","type":"bool"}],"name":"emergencyPause","outputs":[],"stateMutability":"nonpayable","type":"function"},{"inputs":[{"internalType":"uint256","name":"","type":"uint256"}],"name":"feeHistory","outputs":[{"internalType":"uint256","name":"timestamp","type":"uint256"},{"internalType":"uint256","name":"vmfPrice","type":"uint256"},{"internalType":"uint256","name":"calculatedFee","type":"uint256"},{"internalType":"uint256","name":"actualFee","type":"uint256"},{"internalType":"uint256","name":"blockNumber","type":"uint256"}],"stateMutability":"view","type":"function"},{"inputs":[],"name":"feeHistoryCount","outputs":[{"internalType":"uint256","name":"","type":"uint256"}],"stateMutability":"view","type":"function"},{"inputs":[],"name":"getCurrentEntryFee","outputs":[{"internalType":"uint256","name":"","type":"uint256"}],"stateMutability":"view","type":"function"},{"inputs":[{"internalType":"uint256","name":"startIndex","type":"uint256"},{"internalType":"uint256","name":"count","type":"uint256"}],"name":"getFeeHistory","outputs":[{"components":[{"internalType":"uint256","name":"timestamp","type":"uint256"},{"internalType":"uint256","name":"vmfPrice","type":"uint256"},{"internalType":"uint256","name":"calculatedFee","type":"uint256"},{"internalType":"uint256","name":"actualFee","type":"uint256"},{"internalType":"uint256","name":"blockNumber","type":"uint256"}],"internalType":"struct PizzaPartyDynamicPricing.FeeHistory[]","name":"","type":"tuple[]"}],"stateMutability":"view","type":"function"},{"inputs":[],"name":"getPricingStats","outputs":[{"internalType":"uint256","name":"_totalFeesCollected","type":"uint256"},{"internalType":"uint256","name":"_totalEntries","type":"uint256"},{"internalType":"uint256","name":"_averageFee","type":"uint256"},{"internalType":"uint256","name":"_lastVMFPrice","type":"uint256"},{"internalType":"uint256","name":"_lastPriceUpdate","type":"uint256"}],"stateMutability":"view","type":"function"},{"inputs":[],"name":"getVMFPrice","outputs":[{"internalType":"uint256","name":"","type":"uint256"}],"stateMutability":"view","type":"function"},{"inputs":[],"name":"lastPriceUpdate","outputs":[{"internalType":"uint256","name":"","type":"uint256"}],"stateMutability":"view","type":"function"},{"inputs":[],"name":"lastVMFPrice","outputs":[{"internalType":"uint256","name":"","type":"uint256"}],"stateMutability":"view","type":"function"},{"inputs":[],"name":"owner","outputs":[{"internalType":"address","name":"","type":"address"}],"stateMutability":"view","type":"function"},{"inputs":[],"name":"paused","outputs":[{"internalType":"bool","name":"","type":"bool"}],"stateMutability":"view","type":"function"},{"inputs":[],"name":"priceOracle","outputs":[{"internalType":"contract IPriceOracle","name":"","type":"address"}],"stateMutability":"view","type":"function"},{"inputs":[],"name":"pricingConfig","outputs":[{"internalType":"uint256","name":"baseEntryFee","type":"uint256"},{"internalType":"uint256","name":"maxPriceDeviation","type":"uint256"},{"internalType":"uint256","name":"priceUpdateThreshold","type":"uint256"},{"internalType":"uint256","name":"minEntryFee","type":"uint256"},{"internalType":"uint256","name":"maxEntryFee","type":"uint256"},{"internalType":"uint256","name":"feeMultiplier","type":"uint256"}],"stateMutability":"view","type":"function"},{"inputs":[],"name":"renounceOwnership","outputs":[],"stateMutability":"nonpayable","type":"function"},{"inputs":[],"name":"totalEntries","outputs":[{"internalType":"uint256","name":"","type":"uint256"}],"stateMutability":"view","type":"function"},{"inputs":[],"name":"totalFeesCollected","outputs":[{"internalType":"uint256","name":"","type":"uint256"}],"stateMutability":"view","type":"function"},{"inputs":[{"internalType":"address","name":"newOwner","type":"address"}],"name":"transferOwnership","outputs":[],"stateMutability":"nonpayable","type":"function"},{"inputs":[{"internalType":"address","name":"_newOracle","type":"address"}],"name":"updatePriceOracle","outputs":[],"stateMutability":"nonpayable","type":"function"},{"inputs":[{"internalType":"uint256","name":"_baseEntryFee","type":"uint256"},{"internalType":"uint256","name":"_maxPriceDeviation","type":"uint256"},{"internalType":"uint256","name":"_priceUpdateThreshold","type":"uint256"},{"internalType":"uint256","name":"_minEntryFee","type":"uint256"},{"internalType":"uint256","name":"_maxEntryFee","type":"uint256"},{"internalType":"uint256","name":"_feeMultiplier","type":"uint256"}],"name":"updatePricingConfig","outputs":[],"stateMutability":"nonpayable","type":"function"},{"inputs":[],"name":"vmfToken","outputs":[{"internalType":"contract IERC20","name":"","type":"address"}],"stateMutability":"view","type":"function"},{"inputs":[{"internalType":"address","name":"recipient","type":"address"}],"name":"withdrawFees","outputs":[],"stateMutability":"nonpayable","type":"function"}],"evm":{"bytecode":{"linkReferences":{},"object":"60a0604090808252346200027e57818162001626803803809162000024828562000283565b8339810103126200027e576200003a81620002bd565b620000496020809301620002bd565b600091600183553315620002665760018054336001600160a01b0319808316821790935587519492936001600160a01b03939284929083167f8be0079c531659141344cd1fd0a4f28419497f9722a3daafe3b4186f6b6457e08980a31693841562000224575016918215620001e0576080526002805490911682179055835160c081016001600160401b03811182821017620001cc57918491600494938752670de0b6b3a764000080825260328483015261012c8089840152816060840152606460a0683635c9adc5dea0000094856080820152015281600355603287556005556006556007556064600855855193848092638f09c85760e01b82525afa928315620001c057819362000186575b505050600b5542600c55516113539081620002d3823960805181818161037a01528181610ce50152610d4d0152f35b9091809350813d8311620001b8575b620001a1818362000283565b81010312620001b557505138808062000157565b80fd5b503d62000195565b508351903d90823e3d90fd5b634e487b7160e01b84526041600452602484fd5b855162461bcd60e51b815260048101869052601c60248201527f496e76616c6964207072696365206f7261636c652061646472657373000000006044820152606490fd5b62461bcd60e51b815260048101879052601960248201527f496e76616c696420564d4620746f6b656e2061646472657373000000000000006044820152606490fd5b8451631e4fbdf760e01b815260048101849052602490fd5b600080fd5b601f909101601f19168101906001600160401b03821190821017620002a757604052565b634e487b7160e01b600052604160045260246000fd5b51906001600160a01b03821682036200027e5756fe608060408181526004908136101561001657600080fd5b600092833560e01c9081630aa0169514610ff9575080630d35a16714610fb4578063102f733414610ee4578063164e68de14610d145780632086eefa14610cd05780632630c12f14610ca757806339d1fc8214610b8c57806359dcc36e14610b585780635c975abb14610b3157806360c6d8ae14610b125780636949faeb14610af35780636a6ad6e614610ad45780636b202121146108e6578063715018a61461089b5780637fef036e1461087c5780638da5cb5b146108535780638f09c857146107bb578063a1e2f06b1461079c578063bf1edb77146105de578063caa1ceef146102be578063d64dc32c1461026f578063e8f6940e146101a25763f2fde38b1461012157600080fd5b3461019e57602036600319011261019e576001600160a01b0382358181169391929084900361019a5761015261123c565b8315610184575050600180546001600160a01b031981168417909155166000805160206112fe8339815191528380a380f35b51631e4fbdf760e01b8152908101849052602490fd5b8480fd5b8280fd5b50903461019e57602036600319011261019e578035801515810361026b576101c861123c565b15610215575060207f62e78cea01bee320cd4e420270b5ea74000d11b0c9f74754ebdbfc544b05a258916101fa611268565b6001805460ff60a01b1916600160a01b17905551338152a180f35b6001549060ff8260a01c161561025d575060ff60a01b1916600155513381527f5db9ee0a495bf2e6ff9c91a7834c1ba4fdd244a5e8aa4e537bd38aeae4b073aa90602090a180f35b8251638dfc202b60e01b8152fd5b8380fd5b8382346102ba57816003193601126102ba57600d54600e549290916102b19184156102b5575061029f84846111eb565b600b5490600c54925195869586611055565b0390f35b61029f565b5080fd5b503461019e57602092836003193601126105db5782356001600160a01b038181169182900361019e5760028354146105cb57600283556102fc611268565b61030b81600254161515611110565b610317600c544261118e565b6005541061059757835163040bdccd60e21b81529484868281305afa91821561058d5784968593610558575b5061034d83611289565b1561051a5787859160648851809481936323b872dd60e01b835289888401523060248401528c60448401527f0000000000000000000000000000000000000000000000000000000000000000165af19081156105105785916104e3575b50156104aa57606060019493927f7e4199a81d431b89a16814e8730ae102c7b9b30c1a661bc67be86f4b185b1733926103e589600d5461116b565b600d556103f3600e546111dc565b600e5581600b5542600c5587519061040a826110a1565b4282528a8083018481528a84018c8152868501918d835260096080870194438652600a548d52528c8b2095518655518b86015551600285015551600384015551910155610458600a546111dc565b600a557fbb94e7daf29137b3ac850be0232d39c9fb595478d981aaf0dfe115ffdef5fc81608088518381528a8c8201528a8a8201524285820152a1865190888252898201524287820152a25551908152f35b845162461bcd60e51b81529081018790526013602482015272119959481d1c985b9cd9995c8819985a5b1959606a1b6044820152606490fd5b6105039150883d8a11610509575b6104fb81836110d2565b810190611153565b386103aa565b503d6104f1565b86513d87823e3d90fd5b855162461bcd60e51b815280830189905260186024820152770a0e4d2c6ca40c8caecd2c2e8d2dedc40e8dede40d0d2ced60431b6044820152606490fd5b90925061057c919650853d8711610586575b61057481836110d2565b8101906110f5565b9590959138610343565b503d61056a565b85513d86823e3d90fd5b835162461bcd60e51b8152808601879052600e60248201526d5072696365206973207374616c6560901b6044820152606490fd5b50505051633ee5aeb560e01b8152fd5b80fd5b509190346102ba57826003193601126102ba57803591600a54808410156107635761060b6024358561116b565b9080821161075b575b5061061f848261118e565b9261064161062c8561119b565b94610639885196876110d2565b80865261119b565b60209590601f190186855b82811061072957505050805b8381106106c35750505050835192808401908085528351809252808686019401925b8281106106875785850386f35b83518051865280830151868401528781015188870152606080820151908701526080908101519086015260a0909401939281019260010161067a565b806001918652600988526107228987206106dd858461118e565b90868c51916106eb836110a1565b80548352868101548d84015260028101548e840152600381015460608401520154608082015261071b828b6111b2565b52886111b2565b5001610658565b8951610734816110a1565b8781528783820152878b82015287606082015287608082015282828a01015201879061064c565b905038610614565b845162461bcd60e51b81526020818501526013602482015272092dcecc2d8d2c840e6e8c2e4e840d2dcc8caf606b1b6044820152606490fd5b8382346102ba57816003193601126102ba57602090600a549051908152f35b503461019e578260031936011261019e576002546020906001600160a01b03166107e6811515611110565b8251638f09c85760e01b815293849182905afa918215610849578392610811575b6020838351908152f35b9091506020813d602011610841575b8161082d602093836110d2565b8101031261019e5760209250519038610807565b3d9150610820565b81513d85823e3d90fd5b8382346102ba57816003193601126102ba5760015490516001600160a01b039091168152602090f35b8382346102ba57816003193601126102ba57602090600e549051908152f35b83346105db57806003193601126105db576108b461123c565b600180546001600160a01b0319811690915581906001600160a01b03166000805160206112fe8339815191528280a380f35b509190346102ba5760c03660031901126102ba57803560248035926044356064968735926084359460a4359961091a61123c565b8715610a9457808911610a5557868611610a15578a156109d5575082519060c08201906001600160401b038211838310176109c457506109be9694928b60a086948c947ff3eacac0bfed2d9b72b0274dd10f79e9c51efb67ec7b1050dc3992ad81f3bb989e9f9a98528b8152846020820152868682015287606082015288608082015201528860035555816005558260065583600755846008555196879687611079565b0390a180f35b634e487b7160e01b8b52604184528afd5b92906020601f92519362461bcd60e51b85528401528201527f466565206d756c7469706c696572206d75737420626520706f736974697665006044820152fd5b92906020601d92519362461bcd60e51b85528401528201527f4d696e206665652063616e6e6f7420657863656564206d6178206665650000006044820152fd5b929060208092519362461bcd60e51b85528401528201527f4d617820646576696174696f6e2063616e6e6f742065786365656420313030256044820152fd5b92906020601f92519362461bcd60e51b85528401528201527f4261736520656e74727920666565206d75737420626520706f736974697665006044820152fd5b8382346102ba57816003193601126102ba57602090600b549051908152f35b8382346102ba57816003193601126102ba57602090600c549051908152f35b8382346102ba57816003193601126102ba57602090600d549051908152f35b8382346102ba57816003193601126102ba5760209060ff60015460a01c1690519015158152f35b5091346105db57806003193601126105db57506102b160035491549260055460065460075491600854935196879687611079565b50903461019e5760208060031936011261026b576001600160a01b03823581811694919390859003610ca357610bc061123c565b8415610c6957600280546001600160a01b0319811687179091558251638f09c85760e01b8152909390918190839081895afa928315610c6057508692610c32575b5050600b5542600c55167f56b5f80d8cac1479698aa7d01605fd6111e90b15fc4d2b377417f46034876cbd8380a380f35b90809250813d8311610c59575b610c4981836110d2565b8101031261019a57513880610c01565b503d610c3f565b513d88823e3d90fd5b82606492519162461bcd60e51b83528201526016602482015275496e76616c6964206f7261636c65206164647265737360501b6044820152fd5b8580fd5b8382346102ba57816003193601126102ba5760025490516001600160a01b039091168152602090f35b8382346102ba57816003193601126102ba57517f00000000000000000000000000000000000000000000000000000000000000006001600160a01b03168152602090f35b503461019e576020908160031936011261026b5782356001600160a01b0381811691829003610ca357610d4561123c565b8115610ead577f000000000000000000000000000000000000000000000000000000000000000016908251906370a0823160e01b825230868301528482602481865afa918215610ea3578792610e70575b508115610e37579060448592888651958694859363a9059cbb60e01b85528b85015260248401525af1908115610e2d578591610e10575b5015610dd7578380f35b5162461bcd60e51b8152918201526015602482015274119959481dda5d1a191c985dd85b0819985a5b1959605a1b604482015260649150fd5b610e279150833d8511610509576104fb81836110d2565b38610dcd565b82513d87823e3d90fd5b835162461bcd60e51b815280870186905260136024820152724e6f206665657320746f20776974686472617760681b6044820152606490fd5b9091508481813d8311610e9c575b610e8881836110d2565b81010312610e9857519038610d96565b8680fd5b503d610e7e565b84513d89823e3d90fd5b50505162461bcd60e51b8152918201526011602482015270125b9d985b1a59081c9958da5c1a595b9d607a1b604482015260649150fd5b509190346102ba57816003193601126102ba576002546020906001600160a01b0316610f11811515611110565b8451638f09c85760e01b815292839182905afa918215610fa9578092610f74575b5050610f3d8161120b565b6006549081811015610f585750905b82519182526020820152f35b919050600754808311610f6c575b50610f4c565b915038610f66565b9091506020823d602011610fa1575b81610f90602093836110d2565b810103126105db5750513880610f32565b3d9150610f83565b8351903d90823e3d90fd5b5082346105db5760203660031901126105db57816102b19184358152600960205220918254926001810154946002820154906003830154920154925195869586611055565b9290503461026b578360031936011261026b5763040bdccd60e21b83528190839081305afa9182156108495760209392611035575b5051908152f35b8161104d9293503d84116105865761057481836110d2565b50903861102e565b9192608093969594919660a084019784526020840152604083015260608201520152565b9260a094919796959260c0850198855260208501526040840152606083015260808201520152565b60a081019081106001600160401b038211176110bc57604052565b634e487b7160e01b600052604160045260246000fd5b601f909101601f19168101906001600160401b038211908210176110bc57604052565b919082604091031261110b576020825192015190565b600080fd5b1561111757565b60405162461bcd60e51b8152602060048201526014602482015273141c9a58d9481bdc9858db19481b9bdd081cd95d60621b6044820152606490fd5b9081602091031261110b5751801515810361110b5790565b9190820180921161117857565b634e487b7160e01b600052601160045260246000fd5b9190820391821161117857565b6001600160401b0381116110bc5760051b60200190565b80518210156111c65760209160051b010190565b634e487b7160e01b600052603260045260246000fd5b60001981146111785760010190565b81156111f5570490565b634e487b7160e01b600052601260045260246000fd5b801561123557600354906008549182810292818404149015171561117857611232916111eb565b90565b5060065490565b6001546001600160a01b0316330361125057565b60405163118cdaa760e01b8152336004820152602490fd5b60ff60015460a01c1661127757565b60405163d93c066560e01b8152600490fd5b600b549081156112f65781808211156112ca576112a59161118e565b90606482029180830460641490151715611178576112c2916111eb565b600454101590565b906112d49161118e565b90606482029180830460641490151715611178576112f1916111eb565b6112c2565b505060019056fe8be0079c531659141344cd1fd0a4f28419497f9722a3daafe3b4186f6b6457e0a26469706673582212200c1229e7a3bab3f001ef36f1f7789922ec5145bd1ec66dd889ffad50086025c364736f6c63430008180033","opcodes":"PUSH1 0xA0 PUSH1 0x40 SWAP1 DUP1 DUP3 MSTORE CALLVALUE PUSH3 0x27E JUMPI DUP2 DUP2 PUSH3 0x1626 DUP1 CODESIZE SUB DUP1 SWAP2 PUSH3 0x24 DUP3 DUP6 PUSH3 0x283 JUMP JUMPDEST DUP4 CODECOPY DUP2 ADD SUB SLT PUSH3 0x27E JUMPI PUSH3 0x3A DUP2 PUSH3 0x2BD JUMP JUMPDEST PUSH3 0x49 PUSH1 0x20 DUP1 SWAP4 ADD PUSH3 0x2BD JUMP JUMPDEST PUSH1 0x0 SWAP2 PUSH1 0x1 DUP4 SSTORE CALLER ISZERO PUSH3 0x266 JUMPI PUSH1 0x1 DUP1 SLOAD CALLER PUSH1 0x1 PUSH1 0x1 PUSH1 0xA0 SHL SUB NOT DUP1 DUP4 AND DUP3 OR SWAP1 SWAP4 SSTORE DUP8 MLOAD SWAP5 SWAP3 SWAP4 PUSH1 0x1 PUSH1 0x1 PUSH1 0xA0 SHL SUB SWAP4 SWAP3 DUP5 SWAP3 SWAP1 DUP4 AND PUSH32 0x8BE0079C531659141344CD1FD0A4F28419497F9722A3DAAFE3B4186F6B6457E0 DUP10 DUP1 LOG3 AND SWAP4 DUP5 ISZERO PUSH3 0x224 JUMPI POP AND SWAP2 DUP3 ISZERO PUSH3 0x1E0 JUMPI PUSH1 0x80 MSTORE PUSH1 0x2 DUP1 SLOAD SWAP1 SWAP2 AND DUP3 OR SWAP1 SSTORE DUP4 MLOAD PUSH1 0xC0 DUP2 ADD PUSH1 0x1 PUSH1 0x1 PUSH1 0x40 SHL SUB DUP2 GT DUP3 DUP3 LT OR PUSH3 0x1CC JUMPI SWAP2 DUP5 SWAP2 PUSH1 0x4 SWAP5 SWAP4 DUP8 MSTORE PUSH8 0xDE0B6B3A7640000 DUP1 DUP3 MSTORE PUSH1 0x32 DUP5 DUP4 ADD MSTORE PUSH2 0x12C DUP1 DUP10 DUP5 ADD MSTORE DUP2 PUSH1 0x60 DUP5 ADD MSTORE PUSH1 0x64 PUSH1 0xA0 PUSH9 0x3635C9ADC5DEA00000 SWAP5 DUP6 PUSH1 0x80 DUP3 ADD MSTORE ADD MSTORE DUP2 PUSH1 0x3 SSTORE PUSH1 0x32 DUP8 SSTORE PUSH1 0x5 SSTORE PUSH1 0x6 SSTORE PUSH1 0x7 SSTORE PUSH1 0x64 PUSH1 0x8 SSTORE DUP6 MLOAD SWAP4 DUP5 DUP1 SWAP3 PUSH4 0x8F09C857 PUSH1 0xE0 SHL DUP3 MSTORE GAS STATICCALL SWAP3 DUP4 ISZERO PUSH3 0x1C0 JUMPI DUP2 SWAP4 PUSH3 0x186 JUMPI JUMPDEST POP POP POP PUSH1 0xB SSTORE TIMESTAMP PUSH1 0xC SSTORE MLOAD PUSH2 0x1353 SWAP1 DUP2 PUSH3 0x2D3 DUP3 CODECOPY PUSH1 0x80 MLOAD DUP2 DUP2 DUP2 PUSH2 0x37A ADD MSTORE DUP2 DUP2 PUSH2 0xCE5 ADD MSTORE PUSH2 0xD4D ADD MSTORE RETURN JUMPDEST SWAP1 SWAP2 DUP1 SWAP4 POP DUP2 RETURNDATASIZE DUP4 GT PUSH3 0x1B8 JUMPI JUMPDEST PUSH3 0x1A1 DUP2 DUP4 PUSH3 0x283 JUMP JUMPDEST DUP2 ADD SUB SLT PUSH3 0x1B5 JUMPI POP MLOAD CODESIZE DUP1 DUP1 PUSH3 0x157 JUMP JUMPDEST DUP1 REVERT JUMPDEST POP RETURNDATASIZE PUSH3 0x195 JUMP JUMPDEST POP DUP4 MLOAD SWAP1 RETURNDATASIZE SWAP1 DUP3 RETURNDATACOPY RETURNDATASIZE SWAP1 REVERT JUMPDEST PUSH4 0x4E487B71 PUSH1 0xE0 SHL DUP5 MSTORE PUSH1 0x41 PUSH1 0x4 MSTORE PUSH1 0x24 DUP5 REVERT JUMPDEST DUP6 MLOAD PUSH3 0x461BCD PUSH1 0xE5 SHL DUP2 MSTORE PUSH1 0x4 DUP2 ADD DUP7 SWAP1 MSTORE PUSH1 0x1C PUSH1 0x24 DUP3 ADD MSTORE PUSH32 0x496E76616C6964207072696365206F7261636C65206164647265737300000000 PUSH1 0x44 DUP3 ADD MSTORE PUSH1 0x64 SWAP1 REVERT JUMPDEST PUSH3 0x461BCD PUSH1 0xE5 SHL DUP2 MSTORE PUSH1 0x4 DUP2 ADD DUP8 SWAP1 MSTORE PUSH1 0x19 PUSH1 0x24 DUP3 ADD MSTORE PUSH32 0x496E76616C696420564D4620746F6B656E206164647265737300000000000000 PUSH1 0x44 DUP3 ADD MSTORE PUSH1 0x64 SWAP1 REVERT JUMPDEST DUP5 MLOAD PUSH4 0x1E4FBDF7 PUSH1 0xE0 SHL DUP2 MSTORE PUSH1 0x4 DUP2 ADD DUP5 SWAP1 MSTORE PUSH1 0x24 SWAP1 REVERT JUMPDEST PUSH1 0x0 DUP1 REVERT JUMPDEST PUSH1 0x1F SWAP1 SWAP2 ADD PUSH1 0x1F NOT AND DUP2 ADD SWAP1 PUSH1 0x1 PUSH1 0x1 PUSH1 0x40 SHL SUB DUP3 GT SWAP1 DUP3 LT OR PUSH3 0x2A7 JUMPI PUSH1 0x40 MSTORE JUMP JUMPDEST PUSH4 0x4E487B71 PUSH1 0xE0 SHL PUSH1 0x0 MSTORE PUSH1 0x41 PUSH1 0x4 MSTORE PUSH1 0x24 PUSH1 0x0 REVERT JUMPDEST MLOAD SWAP1 PUSH1 0x1 PUSH1 0x1 PUSH1 0xA0 SHL SUB DUP3 AND DUP3 SUB PUSH3 0x27E JUMPI JUMP INVALID PUSH1 0x80 PUSH1 0x40 DUP2 DUP2 MSTORE PUSH1 0x4 SWAP1 DUP2 CALLDATASIZE LT ISZERO PUSH2 0x16 JUMPI PUSH1 0x0 DUP1 REVERT JUMPDEST PUSH1 0x0 SWAP3 DUP4 CALLDATALOAD PUSH1 0xE0 SHR SWAP1 DUP2 PUSH4 0xAA01695 EQ PUSH2 0xFF9 JUMPI POP DUP1 PUSH4 0xD35A167 EQ PUSH2 0xFB4 JUMPI DUP1 PUSH4 0x102F7334 EQ PUSH2 0xEE4 JUMPI DUP1 PUSH4 0x164E68DE EQ PUSH2 0xD14 JUMPI DUP1 PUSH4 0x2086EEFA EQ PUSH2 0xCD0 JUMPI DUP1 PUSH4 0x2630C12F EQ PUSH2 0xCA7 JUMPI DUP1 PUSH4 0x39D1FC82 EQ PUSH2 0xB8C JUMPI DUP1 PUSH4 0x59DCC36E EQ PUSH2 0xB58 JUMPI DUP1 PUSH4 0x5C975ABB EQ PUSH2 0xB31 JUMPI DUP1 PUSH4 0x60C6D8AE EQ PUSH2 0xB12 JUMPI DUP1 PUSH4 0x6949FAEB EQ PUSH2 0xAF3 JUMPI DUP1 PUSH4 0x6A6AD6E6 EQ PUSH2 0xAD4 JUMPI DUP1 PUSH4 0x6B202121 EQ PUSH2 0x8E6 JUMPI DUP1 PUSH4 0x715018A6 EQ PUSH2 0x89B JUMPI DUP1 PUSH4 0x7FEF036E EQ PUSH2 0x87C JUMPI DUP1 PUSH4 0x8DA5CB5B EQ PUSH2 0x853 JUMPI DUP1 PUSH4 0x8F09C857 EQ PUSH2 0x7BB JUMPI DUP1 PUSH4 0xA1E2F06B EQ PUSH2 0x79C JUMPI DUP1 PUSH4 0xBF1EDB77 EQ PUSH2 0x5DE JUMPI DUP1 PUSH4 0xCAA1CEEF EQ PUSH2 0x2BE JUMPI DUP1 PUSH4 0xD64DC32C EQ PUSH2 0x26F JUMPI DUP1 PUSH4 0xE8F6940E EQ PUSH2 0x1A2 JUMPI PUSH4 0xF2FDE38B EQ PUSH2 0x121 JUMPI PUSH1 0x0 DUP1 REVERT JUMPDEST CALLVALUE PUSH2 0x19E JUMPI PUSH1 0x20 CALLDATASIZE PUSH1 0x3 NOT ADD SLT PUSH2 0x19E JUMPI PUSH1 0x1 PUSH1 0x1 PUSH1 0xA0 SHL SUB DUP3 CALLDATALOAD DUP2 DUP2 AND SWAP4 SWAP2 SWAP3 SWAP1 DUP5 SWAP1 SUB PUSH2 0x19A JUMPI PUSH2 0x152 PUSH2 0x123C JUMP JUMPDEST DUP4 ISZERO PUSH2 0x184 JUMPI POP POP PUSH1 0x1 DUP1 SLOAD PUSH1 0x1 PUSH1 0x1 PUSH1 0xA0 SHL SUB NOT DUP2 AND DUP5 OR SWAP1 SWAP2 SSTORE AND PUSH1 0x0 DUP1 MLOAD PUSH1 0x20 PUSH2 0x12FE DUP4 CODECOPY DUP2 MLOAD SWAP2 MSTORE DUP4 DUP1 LOG3 DUP1 RETURN JUMPDEST MLOAD PUSH4 0x1E4FBDF7 PUSH1 0xE0 SHL DUP2 MSTORE SWAP1 DUP2 ADD DUP5 SWAP1 MSTORE PUSH1 0x24 SWAP1 REVERT JUMPDEST DUP5 DUP1 REVERT JUMPDEST DUP3 DUP1 REVERT JUMPDEST POP SWAP1 CALLVALUE PUSH2 0x19E JUMPI PUSH1 0x20 CALLDATASIZE PUSH1 0x3 NOT ADD SLT PUSH2 0x19E JUMPI DUP1 CALLDATALOAD DUP1 ISZERO ISZERO DUP2 SUB PUSH2 0x26B JUMPI PUSH2 0x1C8 PUSH2 0x123C JUMP JUMPDEST ISZERO PUSH2 0x215 JUMPI POP PUSH1 0x20 PUSH32 0x62E78CEA01BEE320CD4E420270B5EA74000D11B0C9F74754EBDBFC544B05A258 SWAP2 PUSH2 0x1FA PUSH2 0x1268 JUMP JUMPDEST PUSH1 0x1 DUP1 SLOAD PUSH1 0xFF PUSH1 0xA0 SHL NOT AND PUSH1 0x1 PUSH1 0xA0 SHL OR SWAP1 SSTORE MLOAD CALLER DUP2 MSTORE LOG1 DUP1 RETURN JUMPDEST PUSH1 0x1 SLOAD SWAP1 PUSH1 0xFF DUP3 PUSH1 0xA0 SHR AND ISZERO PUSH2 0x25D JUMPI POP PUSH1 0xFF PUSH1 0xA0 SHL NOT AND PUSH1 0x1 SSTORE MLOAD CALLER DUP2 MSTORE PUSH32 0x5DB9EE0A495BF2E6FF9C91A7834C1BA4FDD244A5E8AA4E537BD38AEAE4B073AA SWAP1 PUSH1 0x20 SWAP1 LOG1 DUP1 RETURN JUMPDEST DUP3 MLOAD PUSH4 0x8DFC202B PUSH1 0xE0 SHL DUP2 MSTORE REVERT JUMPDEST DUP4 DUP1 REVERT JUMPDEST DUP4 DUP3 CALLVALUE PUSH2 0x2BA JUMPI DUP2 PUSH1 0x3 NOT CALLDATASIZE ADD SLT PUSH2 0x2BA JUMPI PUSH1 0xD SLOAD PUSH1 0xE SLOAD SWAP3 SWAP1 SWAP2 PUSH2 0x2B1 SWAP2 DUP5 ISZERO PUSH2 0x2B5 JUMPI POP PUSH2 0x29F DUP5 DUP5 PUSH2 0x11EB JUMP JUMPDEST PUSH1 0xB SLOAD SWAP1 PUSH1 0xC SLOAD SWAP3 MLOAD SWAP6 DUP7 SWAP6 DUP7 PUSH2 0x1055 JUMP JUMPDEST SUB SWAP1 RETURN JUMPDEST PUSH2 0x29F JUMP JUMPDEST POP DUP1 REVERT JUMPDEST POP CALLVALUE PUSH2 0x19E JUMPI PUSH1 0x20 SWAP3 DUP4 PUSH1 0x3 NOT CALLDATASIZE ADD SLT PUSH2 0x5DB JUMPI DUP3 CALLDATALOAD PUSH1 0x1 PUSH1 0x1 PUSH1 0xA0 SHL SUB DUP2 DUP2 AND SWAP2 DUP3 SWAP1 SUB PUSH2 0x19E JUMPI PUSH1 0x2 DUP4 SLOAD EQ PUSH2 0x5CB JUMPI PUSH1 0x2 DUP4 SSTORE PUSH2 0x2FC PUSH2 0x1268 JUMP JUMPDEST PUSH2 0x30B DUP2 PUSH1 0x2 SLOAD AND ISZERO ISZERO PUSH2 0x1110 JUMP JUMPDEST PUSH2 0x317 PUSH1 0xC SLOAD TIMESTAMP PUSH2 0x118E JUMP JUMPDEST PUSH1 0x5 SLOAD LT PUSH2 0x597 JUMPI DUP4 MLOAD PUSH4 0x40BDCCD PUSH1 0xE2 SHL DUP2 MSTORE SWAP5 DUP5 DUP7 DUP3 DUP2 ADDRESS GAS STATICCALL SWAP2 DUP3 ISZERO PUSH2 0x58D JUMPI DUP5 SWAP7 DUP6 SWAP4 PUSH2 0x558 JUMPI JUMPDEST POP PUSH2 0x34D DUP4 PUSH2 0x1289 JUMP JUMPDEST ISZERO PUSH2 0x51A JUMPI DUP8 DUP6 SWAP2 PUSH1 0x64 DUP9 MLOAD DUP1 SWAP5 DUP2 SWAP4 PUSH4 0x23B872DD PUSH1 0xE0 SHL DUP4 MSTORE DUP10 DUP9 DUP5 ADD MSTORE ADDRESS PUSH1 0x24 DUP5 ADD MSTORE DUP13 PUSH1 0x44 DUP5 ADD MSTORE PUSH32 0x0 AND GAS CALL SWAP1 DUP2 ISZERO PUSH2 0x510 JUMPI DUP6 SWAP2 PUSH2 0x4E3 JUMPI JUMPDEST POP ISZERO PUSH2 0x4AA JUMPI PUSH1 0x60 PUSH1 0x1 SWAP5 SWAP4 SWAP3 PUSH32 0x7E4199A81D431B89A16814E8730AE102C7B9B30C1A661BC67BE86F4B185B1733 SWAP3 PUSH2 0x3E5 DUP10 PUSH1 0xD SLOAD PUSH2 0x116B JUMP JUMPDEST PUSH1 0xD SSTORE PUSH2 0x3F3 PUSH1 0xE SLOAD PUSH2 0x11DC JUMP JUMPDEST PUSH1 0xE SSTORE DUP2 PUSH1 0xB SSTORE TIMESTAMP PUSH1 0xC SSTORE DUP8 MLOAD SWAP1 PUSH2 0x40A DUP3 PUSH2 0x10A1 JUMP JUMPDEST TIMESTAMP DUP3 MSTORE DUP11 DUP1 DUP4 ADD DUP5 DUP2 MSTORE DUP11 DUP5 ADD DUP13 DUP2 MSTORE DUP7 DUP6 ADD SWAP2 DUP14 DUP4 MSTORE PUSH1 0x9 PUSH1 0x80 DUP8 ADD SWAP5 NUMBER DUP7 MSTORE PUSH1 0xA SLOAD DUP14 MSTORE MSTORE DUP13 DUP12 KECCAK256 SWAP6 MLOAD DUP7 SSTORE MLOAD DUP12 DUP7 ADD SSTORE MLOAD PUSH1 0x2 DUP6 ADD SSTORE MLOAD PUSH1 0x3 DUP5 ADD SSTORE MLOAD SWAP2 ADD SSTORE PUSH2 0x458 PUSH1 0xA SLOAD PUSH2 0x11DC JUMP JUMPDEST PUSH1 0xA SSTORE PUSH32 0xBB94E7DAF29137B3AC850BE0232D39C9FB595478D981AAF0DFE115FFDEF5FC81 PUSH1 0x80 DUP9 MLOAD DUP4 DUP2 MSTORE DUP11 DUP13 DUP3 ADD MSTORE DUP11 DUP11 DUP3 ADD MSTORE TIMESTAMP DUP6 DUP3 ADD MSTORE LOG1 DUP7 MLOAD SWAP1 DUP9 DUP3 MSTORE DUP10 DUP3 ADD MSTORE TIMESTAMP DUP8 DUP3 ADD MSTORE LOG2 SSTORE MLOAD SWAP1 DUP2 MSTORE RETURN JUMPDEST DUP5 MLOAD PUSH3 0x461BCD PUSH1 0xE5 SHL DUP2 MSTORE SWAP1 DUP2 ADD DUP8 SWAP1 MSTORE PUSH1 0x13 PUSH1 0x24 DUP3 ADD MSTORE PUSH19 0x119959481D1C985B9CD9995C8819985A5B1959 PUSH1 0x6A SHL PUSH1 0x44 DUP3 ADD MSTORE PUSH1 0x64 SWAP1 REVERT JUMPDEST PUSH2 0x503 SWAP2 POP DUP9 RETURNDATASIZE DUP11 GT PUSH2 0x509 JUMPI JUMPDEST PUSH2 0x4FB DUP2 DUP4 PUSH2 0x10D2 JUMP JUMPDEST DUP2 ADD SWAP1 PUSH2 0x1153 JUMP JUMPDEST CODESIZE PUSH2 0x3AA JUMP JUMPDEST POP RETURNDATASIZE PUSH2 0x4F1 JUMP JUMPDEST DUP7 MLOAD RETURNDATASIZE DUP8 DUP3 RETURNDATACOPY RETURNDATASIZE SWAP1 REVERT JUMPDEST DUP6 MLOAD PUSH3 0x461BCD PUSH1 0xE5 SHL DUP2 MSTORE DUP1 DUP4 ADD DUP10 SWAP1 MSTORE PUSH1 0x18 PUSH1 0x24 DUP3 ADD MSTORE PUSH24 0xA0E4D2C6CA40C8CAECD2C2E8D2DEDC40E8DEDE40D0D2CED PUSH1 0x43 SHL PUSH1 0x44 DUP3 ADD MSTORE PUSH1 0x64 SWAP1 REVERT JUMPDEST SWAP1 SWAP3 POP PUSH2 0x57C SWAP2 SWAP7 POP DUP6 RETURNDATASIZE DUP8 GT PUSH2 0x586 JUMPI JUMPDEST PUSH2 0x574 DUP2 DUP4 PUSH2 0x10D2 JUMP JUMPDEST DUP2 ADD SWAP1 PUSH2 0x10F5 JUMP JUMPDEST SWAP6 SWAP1 SWAP6 SWAP2 CODESIZE PUSH2 0x343 JUMP JUMPDEST POP RETURNDATASIZE PUSH2 0x56A JUMP JUMPDEST DUP6 MLOAD RETURNDATASIZE DUP7 DUP3 RETURNDATACOPY RETURNDATASIZE SWAP1 REVERT JUMPDEST DUP4 MLOAD PUSH3 0x461BCD PUSH1 0xE5 SHL DUP2 MSTORE DUP1 DUP7 ADD DUP8 SWAP1 MSTORE PUSH1 0xE PUSH1 0x24 DUP3 ADD MSTORE PUSH14 0x5072696365206973207374616C65 PUSH1 0x90 SHL PUSH1 0x44 DUP3 ADD MSTORE PUSH1 0x64 SWAP1 REVERT JUMPDEST POP POP POP MLOAD PUSH4 0x3EE5AEB5 PUSH1 0xE0 SHL DUP2 MSTORE REVERT JUMPDEST DUP1 REVERT JUMPDEST POP SWAP2 SWAP1 CALLVALUE PUSH2 0x2BA JUMPI DUP3 PUSH1 0x3 NOT CALLDATASIZE ADD SLT PUSH2 0x2BA JUMPI DUP1 CALLDATALOAD SWAP2 PUSH1 0xA SLOAD DUP1 DUP5 LT ISZERO PUSH2 0x763 JUMPI PUSH2 0x60B PUSH1 0x24 CALLDATALOAD DUP6 PUSH2 0x116B JUMP JUMPDEST SWAP1 DUP1 DUP3 GT PUSH2 0x75B JUMPI JUMPDEST POP PUSH2 0x61F DUP5 DUP3 PUSH2 0x118E JUMP JUMPDEST SWAP3 PUSH2 0x641 PUSH2 0x62C DUP6 PUSH2 0x119B JUMP JUMPDEST SWAP5 PUSH2 0x639 DUP9 MLOAD SWAP7 DUP8 PUSH2 0x10D2 JUMP JUMPDEST DUP1 DUP7 MSTORE PUSH2 0x119B JUMP JUMPDEST PUSH1 0x20 SWAP6 SWAP1 PUSH1 0x1F NOT ADD DUP7 DUP6 JUMPDEST DUP3 DUP2 LT PUSH2 0x729 JUMPI POP POP POP DUP1 JUMPDEST DUP4 DUP2 LT PUSH2 0x6C3 JUMPI POP POP POP POP DUP4 MLOAD SWAP3 DUP1 DUP5 ADD SWAP1 DUP1 DUP6 MSTORE DUP4 MLOAD DUP1 SWAP3 MSTORE DUP1 DUP7 DUP7 ADD SWAP5 ADD SWAP3 JUMPDEST DUP3 DUP2 LT PUSH2 0x687 JUMPI DUP6 DUP6 SUB DUP7 RETURN JUMPDEST DUP4 MLOAD DUP1 MLOAD DUP7 MSTORE DUP1 DUP4 ADD MLOAD DUP7 DUP5 ADD MSTORE DUP8 DUP2 ADD MLOAD DUP9 DUP8 ADD MSTORE PUSH1 0x60 DUP1 DUP3 ADD MLOAD SWAP1 DUP8 ADD MSTORE PUSH1 0x80 SWAP1 DUP2 ADD MLOAD SWAP1 DUP7 ADD MSTORE PUSH1 0xA0 SWAP1 SWAP5 ADD SWAP4 SWAP3 DUP2 ADD SWAP3 PUSH1 0x1 ADD PUSH2 0x67A JUMP JUMPDEST DUP1 PUSH1 0x1 SWAP2 DUP7 MSTORE PUSH1 0x9 DUP9 MSTORE PUSH2 0x722 DUP10 DUP8 KECCAK256 PUSH2 0x6DD DUP6 DUP5 PUSH2 0x118E JUMP JUMPDEST SWAP1 DUP7 DUP13 MLOAD SWAP2 PUSH2 0x6EB DUP4 PUSH2 0x10A1 JUMP JUMPDEST DUP1 SLOAD DUP4 MSTORE DUP7 DUP2 ADD SLOAD DUP14 DUP5 ADD MSTORE PUSH1 0x2 DUP2 ADD SLOAD DUP15 DUP5 ADD MSTORE PUSH1 0x3 DUP2 ADD SLOAD PUSH1 0x60 DUP5 ADD MSTORE ADD SLOAD PUSH1 0x80 DUP3 ADD MSTORE PUSH2 0x71B DUP3 DUP12 PUSH2 0x11B2 JUMP JUMPDEST MSTORE DUP9 PUSH2 0x11B2 JUMP JUMPDEST POP ADD PUSH2 0x658 JUMP JUMPDEST DUP10 MLOAD PUSH2 0x734 DUP2 PUSH2 0x10A1 JUMP JUMPDEST DUP8 DUP2 MSTORE DUP8 DUP4 DUP3 ADD MSTORE DUP8 DUP12 DUP3 ADD MSTORE DUP8 PUSH1 0x60 DUP3 ADD MSTORE DUP8 PUSH1 0x80 DUP3 ADD MSTORE DUP3 DUP3 DUP11 ADD ADD MSTORE ADD DUP8 SWAP1 PUSH2 0x64C JUMP JUMPDEST SWAP1 POP CODESIZE PUSH2 0x614 JUMP JUMPDEST DUP5 MLOAD PUSH3 0x461BCD PUSH1 0xE5 SHL DUP2 MSTORE PUSH1 0x20 DUP2 DUP6 ADD MSTORE PUSH1 0x13 PUSH1 0x24 DUP3 ADD MSTORE PUSH19 0x92DCECC2D8D2C840E6E8C2E4E840D2DCC8CAF PUSH1 0x6B SHL PUSH1 0x44 DUP3 ADD MSTORE PUSH1 0x64 SWAP1 REVERT JUMPDEST DUP4 DUP3 CALLVALUE PUSH2 0x2BA JUMPI DUP2 PUSH1 0x3 NOT CALLDATASIZE ADD SLT PUSH2 0x2BA JUMPI PUSH1 0x20 SWAP1 PUSH1 0xA SLOAD SWAP1 MLOAD SWAP1 DUP2 MSTORE RETURN JUMPDEST POP CALLVALUE PUSH2 0x19E JUMPI DUP3 PUSH1 0x3 NOT CALLDATASIZE ADD SLT PUSH2 0x19E JUMPI PUSH1 0x2 SLOAD PUSH1 0x20 SWAP1 PUSH1 0x1 PUSH1 0x1 PUSH1 0xA0 SHL SUB AND PUSH2 0x7E6 DUP2 ISZERO ISZERO PUSH2 0x1110 JUMP JUMPDEST DUP3 MLOAD PUSH4 0x8F09C857 PUSH1 0xE0 SHL DUP2 MSTORE SWAP4 DUP5 SWAP2 DUP3 SWAP1 GAS STATICCALL SWAP2 DUP3 ISZERO PUSH2 0x849 JUMPI DUP4 SWAP3 PUSH2 0x811 JUMPI JUMPDEST PUSH1 0x20 DUP4 DUP4 MLOAD SWAP1 DUP2 MSTORE RETURN JUMPDEST SWAP1 SWAP2 POP PUSH1 0x20 DUP2 RETURNDATASIZE PUSH1 0x20 GT PUSH2 0x841 JUMPI JUMPDEST DUP2 PUSH2 0x82D PUSH1 0x20 SWAP4 DUP4 PUSH2 0x10D2 JUMP JUMPDEST DUP2 ADD SUB SLT PUSH2 0x19E JUMPI PUSH1 0x20 SWAP3 POP MLOAD SWAP1 CODESIZE PUSH2 0x807 JUMP JUMPDEST RETURNDATASIZE SWAP2 POP PUSH2 0x820 JUMP JUMPDEST DUP2 MLOAD RETURNDATASIZE DUP6 DUP3 RETURNDATACOPY RETURNDATASIZE SWAP1 REVERT JUMPDEST DUP4 DUP3 CALLVALUE PUSH2 0x2BA JUMPI DUP2 PUSH1 0x3 NOT CALLDATASIZE ADD SLT PUSH2 0x2BA JUMPI PUSH1 0x1 SLOAD SWAP1 MLOAD PUSH1 0x1 PUSH1 0x1 PUSH1 0xA0 SHL SUB SWAP1 SWAP2 AND DUP2 MSTORE PUSH1 0x20 SWAP1 RETURN JUMPDEST DUP4 DUP3 CALLVALUE PUSH2 0x2BA JUMPI DUP2 PUSH1 0x3 NOT CALLDATASIZE ADD SLT PUSH2 0x2BA JUMPI PUSH1 0x20 SWAP1 PUSH1 0xE SLOAD SWAP1 MLOAD SWAP1 DUP2 MSTORE RETURN JUMPDEST DUP4 CALLVALUE PUSH2 0x5DB JUMPI DUP1 PUSH1 0x3 NOT CALLDATASIZE ADD SLT PUSH2 0x5DB JUMPI PUSH2 0x8B4 PUSH2 0x123C JUMP JUMPDEST PUSH1 0x1 DUP1 SLOAD PUSH1 0x1 PUSH1 0x1 PUSH1 0xA0 SHL SUB NOT DUP2 AND SWAP1 SWAP2 SSTORE DUP2 SWAP1 PUSH1 0x1 PUSH1 0x1 PUSH1 0xA0 SHL SUB AND PUSH1 0x0 DUP1 MLOAD PUSH1 0x20 PUSH2 0x12FE DUP4 CODECOPY DUP2 MLOAD SWAP2 MSTORE DUP3 DUP1 LOG3 DUP1 RETURN JUMPDEST POP SWAP2 SWAP1 CALLVALUE PUSH2 0x2BA JUMPI PUSH1 0xC0 CALLDATASIZE PUSH1 0x3 NOT ADD SLT PUSH2 0x2BA JUMPI DUP1 CALLDATALOAD PUSH1 0x24 DUP1 CALLDATALOAD SWAP3 PUSH1 0x44 CALLDATALOAD PUSH1 0x64 SWAP7 DUP8 CALLDATALOAD SWAP3 PUSH1 0x84 CALLDATALOAD SWAP5 PUSH1 0xA4 CALLDATALOAD SWAP10 PUSH2 0x91A PUSH2 0x123C JUMP JUMPDEST DUP8 ISZERO PUSH2 0xA94 JUMPI DUP1 DUP10 GT PUSH2 0xA55 JUMPI DUP7 DUP7 GT PUSH2 0xA15 JUMPI DUP11 ISZERO PUSH2 0x9D5 JUMPI POP DUP3 MLOAD SWAP1 PUSH1 0xC0 DUP3 ADD SWAP1 PUSH1 0x1 PUSH1 0x1 PUSH1 0x40 SHL SUB DUP3 GT DUP4 DUP4 LT OR PUSH2 0x9C4 JUMPI POP PUSH2 0x9BE SWAP7 SWAP5 SWAP3 DUP12 PUSH1 0xA0 DUP7 SWAP5 DUP13 SWAP5 PUSH32 0xF3EACAC0BFED2D9B72B0274DD10F79E9C51EFB67EC7B1050DC3992AD81F3BB98 SWAP15 SWAP16 SWAP11 SWAP9 MSTORE DUP12 DUP2 MSTORE DUP5 PUSH1 0x20 DUP3 ADD MSTORE DUP7 DUP7 DUP3 ADD MSTORE DUP8 PUSH1 0x60 DUP3 ADD MSTORE DUP9 PUSH1 0x80 DUP3 ADD MSTORE ADD MSTORE DUP9 PUSH1 0x3 SSTORE SSTORE DUP2 PUSH1 0x5 SSTORE DUP3 PUSH1 0x6 SSTORE DUP4 PUSH1 0x7 SSTORE DUP5 PUSH1 0x8 SSTORE MLOAD SWAP7 DUP8 SWAP7 DUP8 PUSH2 0x1079 JUMP JUMPDEST SUB SWAP1 LOG1 DUP1 RETURN JUMPDEST PUSH4 0x4E487B71 PUSH1 0xE0 SHL DUP12 MSTORE PUSH1 0x41 DUP5 MSTORE DUP11 REVERT JUMPDEST SWAP3 SWAP1 PUSH1 0x20 PUSH1 0x1F SWAP3 MLOAD SWAP4 PUSH3 0x461BCD PUSH1 0xE5 SHL DUP6 MSTORE DUP5 ADD MSTORE DUP3 ADD MSTORE PUSH32 0x466565206D756C7469706C696572206D75737420626520706F73697469766500 PUSH1 0x44 DUP3 ADD MSTORE REVERT JUMPDEST SWAP3 SWAP1 PUSH1 0x20 PUSH1 0x1D SWAP3 MLOAD SWAP4 PUSH3 0x461BCD PUSH1 0xE5 SHL DUP6 MSTORE DUP5 ADD MSTORE DUP3 ADD MSTORE PUSH32 0x4D696E206665652063616E6E6F7420657863656564206D617820666565000000 PUSH1 0x44 DUP3 ADD MSTORE REVERT JUMPDEST SWAP3 SWAP1 PUSH1 0x20 DUP1 SWAP3 MLOAD SWAP4 PUSH3 0x461BCD PUSH1 0xE5 SHL DUP6 MSTORE DUP5 ADD MSTORE DUP3 ADD MSTORE PUSH32 0x4D617820646576696174696F6E2063616E6E6F74206578636565642031303025 PUSH1 0x44 DUP3 ADD MSTORE REVERT JUMPDEST SWAP3 SWAP1 PUSH1 0x20 PUSH1 0x1F SWAP3 MLOAD SWAP4 PUSH3 0x461BCD PUSH1 0xE5 SHL DUP6 MSTORE DUP5 ADD MSTORE DUP3 ADD MSTORE PUSH32 0x4261736520656E74727920666565206D75737420626520706F73697469766500 PUSH1 0x44 DUP3 ADD MSTORE REVERT JUMPDEST DUP4 DUP3 CALLVALUE PUSH2 0x2BA JUMPI DUP2 PUSH1 0x3 NOT CALLDATASIZE ADD SLT PUSH2 0x2BA JUMPI PUSH1 0x20 SWAP1 PUSH1 0xB SLOAD SWAP1 MLOAD SWAP1 DUP2 MSTORE RETURN JUMPDEST DUP4 DUP3 CALLVALUE PUSH2 0x2BA JUMPI DUP2 PUSH1 0x3 NOT CALLDATASIZE ADD SLT PUSH2 0x2BA JUMPI PUSH1 0x20 SWAP1 PUSH1 0xC SLOAD SWAP1 MLOAD SWAP1 DUP2 MSTORE RETURN JUMPDEST DUP4 DUP3 CALLVALUE PUSH2 0x2BA JUMPI DUP2 PUSH1 0x3 NOT CALLDATASIZE ADD SLT PUSH2 0x2BA JUMPI PUSH1 0x20 SWAP1 PUSH1 0xD SLOAD SWAP1 MLOAD SWAP1 DUP2 MSTORE RETURN JUMPDEST DUP4 DUP3 CALLVALUE PUSH2 0x2BA JUMPI DUP2 PUSH1 0x3 NOT CALLDATASIZE ADD SLT PUSH2 0x2BA JUMPI PUSH1 0x20 SWAP1 PUSH1 0xFF PUSH1 0x1 SLOAD PUSH1 0xA0 SHR AND SWAP1 MLOAD SWAP1 ISZERO ISZERO DUP2 MSTORE RETURN JUMPDEST POP SWAP2 CALLVALUE PUSH2 0x5DB JUMPI DUP1 PUSH1 0x3 NOT CALLDATASIZE ADD SLT PUSH2 0x5DB JUMPI POP PUSH2 0x2B1 PUSH1 0x3 SLOAD SWAP2 SLOAD SWAP3 PUSH1 0x5 SLOAD PUSH1 0x6 SLOAD PUSH1 0x7 SLOAD SWAP2 PUSH1 0x8 SLOAD SWAP4 MLOAD SWAP7 DUP8 SWAP7 DUP8 PUSH2 0x1079 JUMP JUMPDEST POP SWAP1 CALLVALUE PUSH2 0x19E JUMPI PUSH1 0x20 DUP1 PUSH1 0x3 NOT CALLDATASIZE ADD SLT PUSH2 0x26B JUMPI PUSH1 0x1 PUSH1 0x1 PUSH1 0xA0 SHL SUB DUP3 CALLDATALOAD DUP2 DUP2 AND SWAP5 SWAP2 SWAP4 SWAP1 DUP6 SWAP1 SUB PUSH2 0xCA3 JUMPI PUSH2 0xBC0 PUSH2 0x123C JUMP JUMPDEST DUP5 ISZERO PUSH2 0xC69 JUMPI PUSH1 0x2 DUP1 SLOAD PUSH1 0x1 PUSH1 0x1 PUSH1 0xA0 SHL SUB NOT DUP2 AND DUP8 OR SWAP1 SWAP2 SSTORE DUP3 MLOAD PUSH4 0x8F09C857 PUSH1 0xE0 SHL DUP2 MSTORE SWAP1 SWAP4 SWAP1 SWAP2 DUP2 SWAP1 DUP4 SWAP1 DUP2 DUP10 GAS STATICCALL SWAP3 DUP4 ISZERO PUSH2 0xC60 JUMPI POP DUP7 SWAP3 PUSH2 0xC32 JUMPI JUMPDEST POP POP PUSH1 0xB SSTORE TIMESTAMP PUSH1 0xC SSTORE AND PUSH32 0x56B5F80D8CAC1479698AA7D01605FD6111E90B15FC4D2B377417F46034876CBD DUP4 DUP1 LOG3 DUP1 RETURN JUMPDEST SWAP1 DUP1 SWAP3 POP DUP2 RETURNDATASIZE DUP4 GT PUSH2 0xC59 JUMPI JUMPDEST PUSH2 0xC49 DUP2 DUP4 PUSH2 0x10D2 JUMP JUMPDEST DUP2 ADD SUB SLT PUSH2 0x19A JUMPI MLOAD CODESIZE DUP1 PUSH2 0xC01 JUMP JUMPDEST POP RETURNDATASIZE PUSH2 0xC3F JUMP JUMPDEST MLOAD RETURNDATASIZE DUP9 DUP3 RETURNDATACOPY RETURNDATASIZE SWAP1 REVERT JUMPDEST DUP3 PUSH1 0x64 SWAP3 MLOAD SWAP2 PUSH3 0x461BCD PUSH1 0xE5 SHL DUP4 MSTORE DUP3 ADD MSTORE PUSH1 0x16 PUSH1 0x24 DUP3 ADD MSTORE PUSH22 0x496E76616C6964206F7261636C652061646472657373 PUSH1 0x50 SHL PUSH1 0x44 DUP3 ADD MSTORE REVERT JUMPDEST DUP6 DUP1 REVERT JUMPDEST DUP4 DUP3 CALLVALUE PUSH2 0x2BA JUMPI DUP2 PUSH1 0x3 NOT CALLDATASIZE ADD SLT PUSH2 0x2BA JUMPI PUSH1 0x2 SLOAD SWAP1 MLOAD PUSH1 0x1 PUSH1 0x1 PUSH1 0xA0 SHL SUB SWAP1 SWAP2 AND DUP2 MSTORE PUSH1 0x20 SWAP1 RETURN JUMPDEST DUP4 DUP3 CALLVALUE PUSH2 0x2BA JUMPI DUP2 PUSH1 0x3 NOT CALLDATASIZE ADD SLT PUSH2 0x2BA JUMPI MLOAD PUSH32 0x0 PUSH1 0x1 PUSH1 0x1 PUSH1 0xA0 SHL SUB AND DUP2 MSTORE PUSH1 0x20 SWAP1 RETURN JUMPDEST POP CALLVALUE PUSH2 0x19E JUMPI PUSH1 0x20 SWAP1 DUP2 PUSH1 0x3 NOT CALLDATASIZE ADD SLT PUSH2 0x26B JUMPI DUP3 CALLDATALOAD PUSH1 0x1 PUSH1 0x1 PUSH1 0xA0 SHL SUB DUP2 DUP2 AND SWAP2 DUP3 SWAP1 SUB PUSH2 0xCA3 JUMPI PUSH2 0xD45 PUSH2 0x123C JUMP JUMPDEST DUP2 ISZERO PUSH2 0xEAD JUMPI PUSH32 0x0 AND SWAP1 DUP3 MLOAD SWAP1 PUSH4 0x70A08231 PUSH1 0xE0 SHL DUP3 MSTORE ADDRESS DUP7 DUP4 ADD MSTORE DUP5 DUP3 PUSH1 0x24 DUP2 DUP7 GAS STATICCALL SWAP2 DUP3 ISZERO PUSH2 0xEA3 JUMPI DUP8 SWAP3 PUSH2 0xE70 JUMPI JUMPDEST POP DUP2 ISZERO PUSH2 0xE37 JUMPI SWAP1 PUSH1 0x44 DUP6 SWAP3 DUP9 DUP7 MLOAD SWAP6 DUP7 SWAP5 DUP6 SWAP4 PUSH4 0xA9059CBB PUSH1 0xE0 SHL DUP6 MSTORE DUP12 DUP6 ADD MSTORE PUSH1 0x24 DUP5 ADD MSTORE GAS CALL SWAP1 DUP2 ISZERO PUSH2 0xE2D JUMPI DUP6 SWAP2 PUSH2 0xE10 JUMPI JUMPDEST POP ISZERO PUSH2 0xDD7 JUMPI DUP4 DUP1 RETURN JUMPDEST MLOAD PUSH3 0x461BCD PUSH1 0xE5 SHL DUP2 MSTORE SWAP2 DUP3 ADD MSTORE PUSH1 0x15 PUSH1 0x24 DUP3 ADD MSTORE PUSH21 0x119959481DDA5D1A191C985DD85B0819985A5B1959 PUSH1 0x5A SHL PUSH1 0x44 DUP3 ADD MSTORE PUSH1 0x64 SWAP2 POP REVERT JUMPDEST PUSH2 0xE27 SWAP2 POP DUP4 RETURNDATASIZE DUP6 GT PUSH2 0x509 JUMPI PUSH2 0x4FB DUP2 DUP4 PUSH2 0x10D2 JUMP JUMPDEST CODESIZE PUSH2 0xDCD JUMP JUMPDEST DUP3 MLOAD RETURNDATASIZE DUP8 DUP3 RETURNDATACOPY RETURNDATASIZE SWAP1 REVERT JUMPDEST DUP4 MLOAD PUSH3 0x461BCD PUSH1 0xE5 SHL DUP2 MSTORE DUP1 DUP8 ADD DUP7 SWAP1 MSTORE PUSH1 0x13 PUSH1 0x24 DUP3 ADD MSTORE PUSH19 0x4E6F206665657320746F207769746864726177 PUSH1 0x68 SHL PUSH1 0x44 DUP3 ADD MSTORE PUSH1 0x64 SWAP1 REVERT JUMPDEST SWAP1 SWAP2 POP DUP5 DUP2 DUP2 RETURNDATASIZE DUP4 GT PUSH2 0xE9C JUMPI JUMPDEST PUSH2 0xE88 DUP2 DUP4 PUSH2 0x10D2 JUMP JUMPDEST DUP2 ADD SUB SLT PUSH2 0xE98 JUMPI MLOAD SWAP1 CODESIZE PUSH2 0xD96 JUMP JUMPDEST DUP7 DUP1 REVERT JUMPDEST POP RETURNDATASIZE PUSH2 0xE7E JUMP JUMPDEST DUP5 MLOAD RETURNDATASIZE DUP10 DUP3 RETURNDATACOPY RETURNDATASIZE SWAP1 REVERT JUMPDEST POP POP MLOAD PUSH3 0x461BCD PUSH1 0xE5 SHL DUP2 MSTORE SWAP2 DUP3 ADD MSTORE PUSH1 0x11 PUSH1 0x24 DUP3 ADD MSTORE PUSH17 0x125B9D985B1A59081C9958DA5C1A595B9D PUSH1 0x7A SHL PUSH1 0x44 DUP3 ADD MSTORE PUSH1 0x64 SWAP2 POP REVERT JUMPDEST POP SWAP2 SWAP1 CALLVALUE PUSH2 0x2BA JUMPI DUP2 PUSH1 0x3 NOT CALLDATASIZE ADD SLT PUSH2 0x2BA JUMPI PUSH1 0x2 SLOAD PUSH1 0x20 SWAP1 PUSH1 0x1 PUSH1 0x1 PUSH1 0xA0 SHL SUB AND PUSH2 0xF11 DUP2 ISZERO ISZERO PUSH2 0x1110 JUMP JUMPDEST DUP5 MLOAD PUSH4 0x8F09C857 PUSH1 0xE0 SHL DUP2 MSTORE SWAP3 DUP4 SWAP2 DUP3 SWAP1 GAS STATICCALL SWAP2 DUP3 ISZERO PUSH2 0xFA9 JUMPI DUP1 SWAP3 PUSH2 0xF74 JUMPI JUMPDEST POP POP PUSH2 0xF3D DUP2 PUSH2 0x120B JUMP JUMPDEST PUSH1 0x6 SLOAD SWAP1 DUP2 DUP2 LT ISZERO PUSH2 0xF58 JUMPI POP SWAP1 JUMPDEST DUP3 MLOAD SWAP2 DUP3 MSTORE PUSH1 0x20 DUP3 ADD MSTORE RETURN JUMPDEST SWAP2 SWAP1 POP PUSH1 0x7 SLOAD DUP1 DUP4 GT PUSH2 0xF6C JUMPI JUMPDEST POP PUSH2 0xF4C JUMP JUMPDEST SWAP2 POP CODESIZE PUSH2 0xF66 JUMP JUMPDEST SWAP1 SWAP2 POP PUSH1 0x20 DUP3 RETURNDATASIZE PUSH1 0x20 GT PUSH2 0xFA1 JUMPI JUMPDEST DUP2 PUSH2 0xF90 PUSH1 0x20 SWAP4 DUP4 PUSH2 0x10D2 JUMP JUMPDEST DUP2 ADD SUB SLT PUSH2 0x5DB JUMPI POP MLOAD CODESIZE DUP1 PUSH2 0xF32 JUMP JUMPDEST RETURNDATASIZE SWAP2 POP PUSH2 0xF83 JUMP JUMPDEST DUP4 MLOAD SWAP1 RETURNDATASIZE SWAP1 DUP3 RETURNDATACOPY RETURNDATASIZE SWAP1 REVERT JUMPDEST POP DUP3 CALLVALUE PUSH2 0x5DB JUMPI PUSH1 0x20 CALLDATASIZE PUSH1 0x3 NOT ADD SLT PUSH2 0x5DB JUMPI DUP2 PUSH2 0x2B1 SWAP2 DUP5 CALLDATALOAD DUP2 MSTORE PUSH1 0x9 PUSH1 0x20 MSTORE KECCAK256 SWAP2 DUP3 SLOAD SWAP3 PUSH1 0x1 DUP2 ADD SLOAD SWAP5 PUSH1 0x2 DUP3 ADD SLOAD SWAP1 PUSH1 0x3 DUP4 ADD SLOAD SWAP3 ADD SLOAD SWAP3 MLOAD SWAP6 DUP7 SWAP6 DUP7 PUSH2 0x1055 JUMP JUMPDEST SWAP3 SWAP1 POP CALLVALUE PUSH2 0x26B JUMPI DUP4 PUSH1 0x3 NOT CALLDATASIZE ADD SLT PUSH2 0x26B JUMPI PUSH4 0x40BDCCD PUSH1 0xE2 SHL DUP4 MSTORE DUP2 SWAP1 DUP4 SWAP1 DUP2 ADDRESS GAS STATICCALL SWAP2 DUP3 ISZERO PUSH2 0x849 JUMPI PUSH1 0x20 SWAP4 SWAP3 PUSH2 0x1035 JUMPI JUMPDEST POP MLOAD SWAP1 DUP2 MSTORE RETURN JUMPDEST DUP2 PUSH2 0x104D SWAP3 SWAP4 POP RETURNDATASIZE DUP5 GT PUSH2 0x586 JUMPI PUSH2 0x574 DUP2 DUP4 PUSH2 0x10D2 JUMP JUMPDEST POP SWAP1 CODESIZE PUSH2 0x102E JUMP JUMPDEST SWAP2 SWAP3 PUSH1 0x80 SWAP4 SWAP7 SWAP6 SWAP5 SWAP2 SWAP7 PUSH1 0xA0 DUP5 ADD SWAP8 DUP5 MSTORE PUSH1 0x20 DUP5 ADD MSTORE PUSH1 0x40 DUP4 ADD MSTORE PUSH1 0x60 DUP3 ADD MSTORE ADD MSTORE JUMP JUMPDEST SWAP3 PUSH1 0xA0 SWAP5 SWAP2 SWAP8 SWAP7 SWAP6 SWAP3 PUSH1 0xC0 DUP6 ADD SWAP9 DUP6 MSTORE PUSH1 0x20 DUP6 ADD MSTORE PUSH1 0x40 DUP5 ADD MSTORE PUSH1 0x60 DUP4 ADD MSTORE PUSH1 0x80 DUP3 ADD MSTORE ADD MSTORE JUMP JUMPDEST PUSH1 0xA0 DUP2 ADD SWAP1 DUP2 LT PUSH1 0x1 PUSH1 0x1 PUSH1 0x40 SHL SUB DUP3 GT OR PUSH2 0x10BC JUMPI PUSH1 0x40 MSTORE JUMP JUMPDEST PUSH4 0x4E487B71 PUSH1 0xE0 SHL PUSH1 0x0 MSTORE PUSH1 0x41 PUSH1 0x4 MSTORE PUSH1 0x24 PUSH1 0x0 REVERT JUMPDEST PUSH1 0x1F SWAP1 SWAP2 ADD PUSH1 0x1F NOT AND DUP2 ADD SWAP1 PUSH1 0x1 PUSH1 0x1 PUSH1 0x40 SHL SUB DUP3 GT SWAP1 DUP3 LT OR PUSH2 0x10BC JUMPI PUSH1 0x40 MSTORE JUMP JUMPDEST SWAP2 SWAP1 DUP3 PUSH1 0x40 SWAP2 SUB SLT PUSH2 0x110B JUMPI PUSH1 0x20 DUP3 MLOAD SWAP3 ADD MLOAD SWAP1 JUMP JUMPDEST PUSH1 0x0 DUP1 REVERT JUMPDEST ISZERO PUSH2 0x1117 JUMPI JUMP JUMPDEST PUSH1 0x40 MLOAD PUSH3 0x461BCD PUSH1 0xE5 SHL DUP2 MSTORE PUSH1 0x20 PUSH1 0x4 DUP3 ADD MSTORE PUSH1 0x14 PUSH1 0x24 DUP3 ADD MSTORE PUSH20 0x141C9A58D9481BDC9858DB19481B9BDD081CD95D PUSH1 0x62 SHL PUSH1 0x44 DUP3 ADD MSTORE PUSH1 0x64 SWAP1 REVERT JUMPDEST SWAP1 DUP2 PUSH1 0x20 SWAP2 SUB SLT PUSH2 0x110B JUMPI MLOAD DUP1 ISZERO ISZERO DUP2 SUB PUSH2 0x110B JUMPI SWAP1 JUMP JUMPDEST SWAP2 SWAP1 DUP3 ADD DUP1 SWAP3 GT PUSH2 0x1178 JUMPI JUMP JUMPDEST PUSH4 0x4E487B71 PUSH1 0xE0 SHL PUSH1 0x0 MSTORE PUSH1 0x11 PUSH1 0x4 MSTORE PUSH1 0x24 PUSH1 0x0 REVERT JUMPDEST SWAP2 SWAP1 DUP3 SUB SWAP2 DUP3 GT PUSH2 0x1178 JUMPI JUMP JUMPDEST PUSH1 0x1 PUSH1 0x1 PUSH1 0x40 SHL SUB DUP2 GT PUSH2 0x10BC JUMPI PUSH1 0x5 SHL PUSH1 0x20 ADD SWAP1 JUMP JUMPDEST DUP1 MLOAD DUP3 LT ISZERO PUSH2 0x11C6 JUMPI PUSH1 0x20 SWAP2 PUSH1 0x5 SHL ADD ADD SWAP1 JUMP JUMPDEST PUSH4 0x4E487B71 PUSH1 0xE0 SHL PUSH1 0x0 MSTORE PUSH1 0x32 PUSH1 0x4 MSTORE PUSH1 0x24 PUSH1 0x0 REVERT JUMPDEST PUSH1 0x0 NOT DUP2 EQ PUSH2 0x1178 JUMPI PUSH1 0x1 ADD SWAP1 JUMP JUMPDEST DUP2 ISZERO PUSH2 0x11F5 JUMPI DIV SWAP1 JUMP JUMPDEST PUSH4 0x4E487B71 PUSH1 0xE0 SHL PUSH1 0x0 MSTORE PUSH1 0x12 PUSH1 0x4 MSTORE PUSH1 0x24 PUSH1 0x0 REVERT JUMPDEST DUP1 ISZERO PUSH2 0x1235 JUMPI PUSH1 0x3 SLOAD SWAP1 PUSH1 0x8 SLOAD SWAP2 DUP3 DUP2 MUL SWAP3 DUP2 DUP5 DIV EQ SWAP1 ISZERO OR ISZERO PUSH2 0x1178 JUMPI PUSH2 0x1232 SWAP2 PUSH2 0x11EB JUMP JUMPDEST SWAP1 JUMP JUMPDEST POP PUSH1 0x6 SLOAD SWAP1 JUMP JUMPDEST PUSH1 0x1 SLOAD PUSH1 0x1 PUSH1 0x1 PUSH1 0xA0 SHL SUB AND CALLER SUB PUSH2 0x1250 JUMPI JUMP JUMPDEST PUSH1 0x40 MLOAD PUSH4 0x118CDAA7 PUSH1 0xE0 SHL DUP2 MSTORE CALLER PUSH1 0x4 DUP3 ADD MSTORE PUSH1 0x24 SWAP1 REVERT JUMPDEST PUSH1 0xFF PUSH1 0x1 SLOAD PUSH1 0xA0 SHR AND PUSH2 0x1277 JUMPI JUMP JUMPDEST PUSH1 0x40 MLOAD PUSH4 0xD93C0665 PUSH1 0xE0 SHL DUP2 MSTORE PUSH1 0x4 SWAP1 REVERT JUMPDEST PUSH1 0xB SLOAD SWAP1 DUP2 ISZERO PUSH2 0x12F6 JUMPI DUP2 DUP1 DUP3 GT ISZERO PUSH2 0x12CA JUMPI PUSH2 0x12A5 SWAP2 PUSH2 0x118E JUMP JUMPDEST SWAP1 PUSH1 0x64 DUP3 MUL SWAP2 DUP1 DUP4 DIV PUSH1 0x64 EQ SWAP1 ISZERO OR ISZERO PUSH2 0x1178 JUMPI PUSH2 0x12C2 SWAP2 PUSH2 0x11EB JUMP JUMPDEST PUSH1 0x4 SLOAD LT ISZERO SWAP1 JUMP JUMPDEST SWAP1 PUSH2 0x12D4 SWAP2 PUSH2 0x118E JUMP JUMPDEST SWAP1 PUSH1 0x64 DUP3 MUL SWAP2 DUP1 DUP4 DIV PUSH1 0x64 EQ SWAP1 ISZERO OR ISZERO PUSH2 0x1178 JUMPI PUSH2 0x12F1 SWAP2 PUSH2 0x11EB JUMP JUMPDEST PUSH2 0x12C2 JUMP JUMPDEST POP POP PUSH1 0x1 SWAP1 JUMP INVALID DUP12 0xE0 SMOD SWAP13 MSTORE8 AND MSIZE EQ SGT PREVRANDAO 0xCD 0x1F 0xD0 LOG4 CALLCODE DUP5 NOT BLOBHASH PUSH32 0x9722A3DAAFE3B4186F6B6457E0A26469706673582212200C1229E7A3BAB3F001 0xEF CALLDATASIZE CALL 0xF7 PUSH25 0x9922EC5145BD1EC66DD889FFAD50086025C364736F6C634300 ADDMOD XOR STOP CALLER "},"methodIdentifiers":{"calculateDynamicEntryFee()":"102f7334","collectEntryFee(address)":"caa1ceef","emergencyPause(bool)":"e8f6940e","feeHistory(uint256)":"0d35a167","feeHistoryCount()":"a1e2f06b","getCurrentEntryFee()":"0aa01695","getFeeHistory(uint256,uint256)":"bf1edb77","getPricingStats()":"d64dc32c","getVMFPrice()":"8f09c857","lastPriceUpdate()":"6949faeb","lastVMFPrice()":"6a6ad6e6","owner()":"8da5cb5b","paused()":"5c975abb","priceOracle()":"2630c12f","pricingConfig()":"59dcc36e","renounceOwnership()":"715018a6","totalEntries()":"7fef036e","totalFeesCollected()":"60c6d8ae","transferOwnership(address)":"f2fde38b","updatePriceOracle(address)":"39d1fc82","updatePricingConfig(uint256,uint256,uint256,uint256,uint256,uint256)":"6b202121","vmfToken()":"2086eefa","withdrawFees(address)":"164e68de"}}}}}