{"contracts/PizzaPartyAdvancedRandomness.sol":{"PizzaPartyAdvancedRandomness":{"abi":[{"inputs":[],"stateMutability":"nonpayable","type":"constructor"},{"inputs":[],"name":"EnforcedPause","type":"error"},{"inputs":[],"name":"ExpectedPause","type":"error"},{"inputs":[{"internalType":"address","name":"owner","type":"address"}],"name":"OwnableInvalidOwner","type":"error"},{"inputs":[{"internalType":"address","name":"account","type":"address"}],"name":"OwnableUnauthorizedAccount","type":"error"},{"inputs":[],"name":"ReentrancyGuardReentrantCall","type":"error"},{"anonymous":false,"inputs":[{"indexed":true,"internalType":"address","name":"contributor","type":"address"},{"indexed":false,"internalType":"bool","name":"blacklisted","type":"bool"}],"name":"ContributorBlacklisted","type":"event"},{"anonymous":false,"inputs":[{"indexed":true,"internalType":"uint256","name":"roundId","type":"uint256"},{"indexed":true,"internalType":"address","name":"contributor","type":"address"},{"indexed":false,"internalType":"bytes32","name":"commitment","type":"bytes32"},{"indexed":false,"internalType":"uint256","name":"timestamp","type":"uint256"}],"name":"EntropyCommitted","type":"event"},{"anonymous":false,"inputs":[{"indexed":true,"internalType":"uint256","name":"roundId","type":"uint256"},{"indexed":true,"internalType":"address","name":"contributor","type":"address"},{"indexed":false,"internalType":"bytes32","name":"entropy","type":"bytes32"},{"indexed":false,"internalType":"uint256","name":"timestamp","type":"uint256"}],"name":"EntropyRevealed","type":"event"},{"anonymous":false,"inputs":[{"indexed":true,"internalType":"address","name":"previousOwner","type":"address"},{"indexed":true,"internalType":"address","name":"newOwner","type":"address"}],"name":"OwnershipTransferred","type":"event"},{"anonymous":false,"inputs":[{"indexed":false,"internalType":"address","name":"account","type":"address"}],"name":"Paused","type":"event"},{"anonymous":false,"inputs":[{"indexed":true,"internalType":"address","name":"contributor","type":"address"},{"indexed":false,"internalType":"uint256","name":"oldReputation","type":"uint256"},{"indexed":false,"internalType":"uint256","name":"newReputation","type":"uint256"}],"name":"ReputationUpdated","type":"event"},{"anonymous":false,"inputs":[{"indexed":true,"internalType":"uint256","name":"roundId","type":"uint256"},{"indexed":false,"internalType":"bytes32","name":"finalSeed","type":"bytes32"},{"indexed":false,"internalType":"uint256","name":"totalContributors","type":"uint256"},{"indexed":false,"internalType":"uint256","name":"totalEntropy","type":"uint256"},{"indexed":false,"internalType":"uint256","name":"timestamp","type":"uint256"}],"name":"RoundCompleted","type":"event"},{"anonymous":false,"inputs":[{"indexed":true,"internalType":"uint256","name":"roundId","type":"uint256"},{"indexed":false,"internalType":"uint256","name":"startTime","type":"uint256"},{"indexed":false,"internalType":"uint256","name":"commitPhaseEnd","type":"uint256"},{"indexed":false,"internalType":"uint256","name":"revealPhaseEnd","type":"uint256"}],"name":"RoundStarted","type":"event"},{"anonymous":false,"inputs":[{"indexed":false,"internalType":"address","name":"account","type":"address"}],"name":"Unpaused","type":"event"},{"inputs":[],"name":"COMMIT_PHASE_DURATION","outputs":[{"internalType":"uint256","name":"","type":"uint256"}],"stateMutability":"view","type":"function"},{"inputs":[],"name":"MAX_CONTRIBUTORS","outputs":[{"internalType":"uint256","name":"","type":"uint256"}],"stateMutability":"view","type":"function"},{"inputs":[],"name":"MIN_CONTRIBUTORS","outputs":[{"internalType":"uint256","name":"","type":"uint256"}],"stateMutability":"view","type":"function"},{"inputs":[],"name":"MIN_ENTROPY_BITS","outputs":[{"internalType":"uint256","name":"","type":"uint256"}],"stateMutability":"view","type":"function"},{"inputs":[],"name":"REPUTATION_THRESHOLD","outputs":[{"internalType":"uint256","name":"","type":"uint256"}],"stateMutability":"view","type":"function"},{"inputs":[],"name":"REVEAL_PHASE_DURATION","outputs":[{"internalType":"uint256","name":"","type":"uint256"}],"stateMutability":"view","type":"function"},{"inputs":[],"name":"activeContributors","outputs":[{"internalType":"uint256","name":"","type":"uint256"}],"stateMutability":"view","type":"function"},{"inputs":[{"internalType":"address","name":"","type":"address"}],"name":"blacklistedContributors","outputs":[{"internalType":"bool","name":"","type":"bool"}],"stateMutability":"view","type":"function"},{"inputs":[{"internalType":"bytes32","name":"commitment","type":"bytes32"}],"name":"commitEntropy","outputs":[],"stateMutability":"nonpayable","type":"function"},{"inputs":[{"internalType":"uint256","name":"roundId","type":"uint256"}],"name":"completeRound","outputs":[],"stateMutability":"nonpayable","type":"function"},{"inputs":[{"internalType":"address","name":"","type":"address"}],"name":"contributorData","outputs":[{"internalType":"uint256","name":"totalContributions","type":"uint256"},{"internalType":"uint256","name":"successfulReveals","type":"uint256"},{"internalType":"uint256","name":"failedReveals","type":"uint256"},{"internalType":"uint256","name":"lastContribution","type":"uint256"},{"internalType":"bool","name":"isBlacklisted","type":"bool"},{"internalType":"uint256","name":"reputation","type":"uint256"}],"stateMutability":"view","type":"function"},{"inputs":[],"name":"currentRoundId","outputs":[{"internalType":"uint256","name":"","type":"uint256"}],"stateMutability":"view","type":"function"},{"inputs":[{"internalType":"bool","name":"pause","type":"bool"}],"name":"emergencyPause","outputs":[],"stateMutability":"nonpayable","type":"function"},{"inputs":[{"internalType":"bytes32","name":"seed","type":"bytes32"},{"internalType":"uint256","name":"maxValue","type":"uint256"}],"name":"generateRandomNumber","outputs":[{"internalType":"uint256","name":"","type":"uint256"}],"stateMutability":"view","type":"function"},{"inputs":[{"internalType":"address","name":"contributor","type":"address"}],"name":"getContributorData","outputs":[{"components":[{"internalType":"uint256","name":"totalContributions","type":"uint256"},{"internalType":"uint256","name":"successfulReveals","type":"uint256"},{"internalType":"uint256","name":"failedReveals","type":"uint256"},{"internalType":"uint256","name":"lastContribution","type":"uint256"},{"internalType":"bool","name":"isBlacklisted","type":"bool"},{"internalType":"uint256","name":"reputation","type":"uint256"}],"internalType":"struct PizzaPartyAdvancedRandomness.ContributorData","name":"","type":"tuple"}],"stateMutability":"view","type":"function"},{"inputs":[],"name":"getCurrentRoundInfo","outputs":[{"internalType":"uint256","name":"roundId","type":"uint256"},{"internalType":"uint256","name":"startTime","type":"uint256"},{"internalType":"uint256","name":"commitPhaseEnd","type":"uint256"},{"internalType":"uint256","name":"revealPhaseEnd","type":"uint256"},{"internalType":"bool","name":"isCompleted","type":"bool"},{"internalType":"uint256","name":"_totalContributors","type":"uint256"},{"internalType":"uint256","name":"totalEntropy","type":"uint256"}],"stateMutability":"view","type":"function"},{"inputs":[{"internalType":"uint256","name":"roundId","type":"uint256"}],"name":"getFinalSeed","outputs":[{"internalType":"bytes32","name":"","type":"bytes32"}],"stateMutability":"view","type":"function"},{"inputs":[{"internalType":"uint256","name":"roundId","type":"uint256"}],"name":"getRoundContributors","outputs":[{"internalType":"address[]","name":"","type":"address[]"}],"stateMutability":"view","type":"function"},{"inputs":[],"name":"owner","outputs":[{"internalType":"address","name":"","type":"address"}],"stateMutability":"view","type":"function"},{"inputs":[],"name":"paused","outputs":[{"internalType":"bool","name":"","type":"bool"}],"stateMutability":"view","type":"function"},{"inputs":[{"internalType":"uint256","name":"","type":"uint256"}],"name":"randomnessRounds","outputs":[{"internalType":"uint256","name":"roundId","type":"uint256"},{"internalType":"uint256","name":"startTime","type":"uint256"},{"internalType":"uint256","name":"endTime","type":"uint256"},{"internalType":"uint256","name":"commitPhaseEnd","type":"uint256"},{"internalType":"uint256","name":"revealPhaseEnd","type":"uint256"},{"internalType":"bytes32","name":"finalSeed","type":"bytes32"},{"internalType":"bool","name":"isCompleted","type":"bool"},{"internalType":"uint256","name":"totalContributors","type":"uint256"},{"internalType":"uint256","name":"totalEntropy","type":"uint256"}],"stateMutability":"view","type":"function"},{"inputs":[],"name":"renounceOwnership","outputs":[],"stateMutability":"nonpayable","type":"function"},{"inputs":[{"internalType":"bytes32","name":"entropy","type":"bytes32"},{"internalType":"bytes32","name":"salt","type":"bytes32"}],"name":"revealEntropy","outputs":[],"stateMutability":"nonpayable","type":"function"},{"inputs":[{"internalType":"address","name":"contributor","type":"address"},{"internalType":"bool","name":"blacklisted","type":"bool"}],"name":"setContributorBlacklist","outputs":[],"stateMutability":"nonpayable","type":"function"},{"inputs":[],"name":"startNewRound","outputs":[],"stateMutability":"nonpayable","type":"function"},{"inputs":[],"name":"totalContributors","outputs":[{"internalType":"uint256","name":"","type":"uint256"}],"stateMutability":"view","type":"function"},{"inputs":[],"name":"totalEntropyGenerated","outputs":[{"internalType":"uint256","name":"","type":"uint256"}],"stateMutability":"view","type":"function"},{"inputs":[],"name":"totalRounds","outputs":[{"internalType":"uint256","name":"","type":"uint256"}],"stateMutability":"view","type":"function"},{"inputs":[{"internalType":"address","name":"newOwner","type":"address"}],"name":"transferOwnership","outputs":[],"stateMutability":"nonpayable","type":"function"},{"inputs":[{"internalType":"address","name":"contributor","type":"address"},{"internalType":"uint256","name":"newReputation","type":"uint256"}],"name":"updateReputation","outputs":[],"stateMutability":"nonpayable","type":"function"}],"evm":{"bytecode":{"linkReferences":{},"object":"6080806040523461008957600160005533156100735760018054336001600160a01b03198216811790925560405191906001600160a01b03167f8be0079c531659141344cd1fd0a4f28419497f9722a3daafe3b4186f6b6457e0600080a3600160035560006004556114a0908161008f8239f35b631e4fbdf760e01b815260006004820152602490fd5b600080fdfe6040608081526004908136101561001557600080fd5b600091823560e01c9081630652cb6f14610ed6578163081d463914610e335781630d3c15cc14610e16578163128f173314610df757816314d510d314610d8457816321f932e914610d6857816335c8c2c014610d4c57816342296a1414610d30578163530d58c814610ca45781635c975abb14610c7d578163625b818614610bf2578163715018a614610ba4578163747dff4214610b37578163837b407914610a4d5781638a56829914610a2f5781638da5cb5b14610a065781639cbe5efd146109e75781639f4bca26146109cb578163a789e29c146108fa578163a80d49841461084f578163a978237714610598578163aceb5dc71461055a578163bd85948c1461040a578163c988fb26146103ed578163dd03c6f214610368578163e8f6940e1461029b578163f251fc8c1461027c578163f2fde38b1461020057508063f5c91a081461018e5763f985f3631461016d57600080fd5b3461018a578160031936011261018a576020906007549051908152f35b5080fd5b503461018a578060031936011261018a577f5b88a2e3fc1a53234357ab78c104df11c33ccfa79886793654565ad70b8afb6e6101c861118f565b91602435926101d561141e565b60018060a01b031692838552600560205260058286200190808254925582519182526020820152a280f35b9050346102785760203660031901126102785761021b61118f565b9061022461141e565b6001600160a01b03918216928315610262575050600180546001600160a01b0319811684179091551660008051602061144b8339815191528380a380f35b51631e4fbdf760e01b8152908101849052602490fd5b8280fd5b50503461018a578160031936011261018a576020906008549051908152f35b9050346102785760203660031901126102785780358015158103610364576102c161141e565b1561030e575060207f62e78cea01bee320cd4e420270b5ea74000d11b0c9f74754ebdbfc544b05a258916102f361130b565b6001805460ff60a01b1916600160a01b17905551338152a180f35b6001549060ff8260a01c1615610356575060ff60a01b1916600155513381527f5db9ee0a495bf2e6ff9c91a7834c1ba4fdd244a5e8aa4e537bd38aeae4b073aa90602090a180f35b8251638dfc202b60e01b8152fd5b8380fd5b905034610278576020366003190112610278578161012093823581526002602052208054926001820154926002830154906003840154908401549060058501549260ff6006870154169460086007880154970154978151998a5260208a01528801526060870152608086015260a0850152151560c084015260e0830152610100820152f35b50503461018a578160031936011261018a57602090516107088152f35b83833461018a578160031936011261018a5761042461141e565b61042c61130b565b8254158015610540575b156105005760035490610e104201908142116104ed576115184201908183116104da57916060917ffd9d17e5565deea3d25918d95fc398673b9445ef0a96d12eaf3ab2b198756c659387868852600260205287600883822089815542600182015585600282015586600382015585848201556006810160ff19815416905582600782015501556104c68154611237565b90558051924284526020840152820152a280f35b634e487b7160e01b855260118652602485fd5b634e487b7160e01b845260118552602484fd5b5162461bcd60e51b8152602081840152601b60248201527a10dd5c9c995b9d081c9bdd5b99081b9bdd0818dbdb5c1b195d1959602a1b6044820152606490fd5b506003548252600260205260ff6006828420015416610436565b50503461018a57602036600319011261018a5760209160ff9082906001600160a01b0361058561118f565b1681526006855220541690519015158152f35b83833461018a57602080600319360112610278578335916105b76112e8565b6105bf61130b565b600354808552600283526105dc60ff6006848820015416156111aa565b808552600283526003828620015442116108175780855260028352600b82862001338652835260ff82862054166107e0573385526006835261062460ff83872054161561129f565b3385526005835261063d60ff878488200154161561129f565b83156107a857845260028252808420600781019060328254101561076a57338652600981018452828620859055600b81018452828620805460ff19166001179055600c01805490600160401b82101561075757600182018082558210156107445786528386200180546001600160a01b0319163317905580547fe489bb09566f694041dc6d2fe02042b827d96af1aa4d6e6f51d3105c6da8ca779291906106e390611237565b90553385526005835260018186206106fb8154611237565b9081815560034291015514610723575b60035492815194855242908501523393a36001815580f35b61072e600854611237565b60085561073c600954611237565b60095561070b565b634e487b7160e01b875260328852602487fd5b634e487b7160e01b875260418852602487fd5b825162461bcd60e51b8152808801859052601860248201527713585e0818dbdb9d1c9a589d5d1bdc9cc81c995858da195960421b6044820152606490fd5b815162461bcd60e51b81528087018490526012602482015271125b9d985b1a590818dbdb5b5a5d1b595b9d60721b6044820152606490fd5b815162461bcd60e51b81528087018490526011602482015270105b1c9958591e4818dbdb5b5a5d1d1959607a1b6044820152606490fd5b815162461bcd60e51b8152808701849052601260248201527110dbdb5b5a5d081c1a185cd948195b99195960721b6044820152606490fd5b83833461018a578060031936011261018a576024359081156108bb578051843560208201908152428284015282825260608201949092906001600160401b038611838710176108a8575060209550849052519020068152f35b634e487b7160e01b815260418752602490fd5b5162461bcd60e51b8152602081850152601a6024820152794d61782076616c7565206d75737420626520706f73697469766560301b6044820152606490fd5b905034610278576020366003190112610278578160c09361091961118f565b8160a08451610927816111eb565b8281528260208201528286820152826060820152826080820152015260018060a01b0316815260056020522082519161095f836111eb565b81549384845260018301546020850190815260028401549082860191825260a0600560ff60038801549660608a019788528801541696608089019715158852015496019586528251968752516020870152519085015251606084015251151560808301525160a0820152f35b50503461018a578160031936011261018a576020905160328152f35b50503461018a578160031936011261018a576020906003549051908152f35b50503461018a578160031936011261018a5760015490516001600160a01b039091168152602090f35b90503461027857826003193601126102785760209250549051908152f35b83833461018a57602080600319360112610278578335610a70855482111561125c565b835260028152600c8284200192825192838386549182815201908196845284842090845b86828210610b1a5750505050849003601f01601f19168401956001600160401b03871185881017610b07575085815282865292518583018190528594938501939290915b828110610ae757505050500390f35b83516001600160a01b031685528695509381019392810192600101610ad8565b634e487b7160e01b835260419052602482fd5b83546001600160a01b031685529093019260019283019201610a94565b9050346102785782600319360112610278578160e09360035481526002602052208054926001820154926003830154908301549060ff6006850154169260086007860154950154958151978852602088015286015260608501521515608084015260a083015260c0820152f35b8334610bef5780600319360112610bef57610bbd61141e565b600180546001600160a01b0319811690915581906001600160a01b031660008051602061144b8339815191528280a380f35b80fd5b90503461027857602036600319011261027857803591610c1061141e565b610c1d825484111561125c565b828452600260205260ff6006828620015416610c405783610c3d8461132c565b80f35b906020606492519162461bcd60e51b83528201526017602482015276149bdd5b9908185b1c9958591e4818dbdb5c1b195d1959604a1b6044820152fd5b50503461018a578160031936011261018a5760209060ff60015460a01c1690519015158152f35b8391503461018a57602036600319011261018a57803590610cc8815483111561125c565b818352600260205260ff600685852001541615610cf75760208460058186868152600285522001549051908152f35b606490602085519162461bcd60e51b83528201526013602482015272149bdd5b99081b9bdd0818dbdb5c1b195d1959606a1b6044820152fd5b50503461018a578160031936011261018a5760209051600a8152f35b50503461018a578160031936011261018a576020905160808152f35b50503461018a578160031936011261018a576020905160038152f35b919050346102785760203660031901126102785760c09281906001600160a01b03610dad61118f565b168152600560205220805492600182015492600283015490600560ff60038601549486015416940154948151968752602087015285015260608401521515608083015260a0820152f35b50503461018a578160031936011261018a576020906009549051908152f35b50503461018a578160031936011261018a5760209051610e108152f35b91905034610278578060031936011261027857610e4e61118f565b906024359081151590818303610ed257610eca6020937f221f4ac876a79567d1bc0437c204759623decaff06f75e6db6b2abdc7e9f5e7095610e8e61141e565b6001600160a01b031680895260068652838920805460ff191660ff841515161790559660058652838920019060ff801983541691151516179055565b51908152a280f35b8580fd5b90503461027857816003193601126102785780356024610ef46112e8565b610efc61130b565b60035492838652600291602092808452610f1f60ff6006898b20015416156111aa565b85885280845286882083600382015442119182611181575b50501561114a57858852808452600a87892001338952845260ff878920541661111657858852808452600b87892001338952845260ff8789205416156110df578651958487018681528335898901523360601b9788606082015260548152610f9e8161121c565b519020818a528286526009898b2001338b528652888a2054036110a3578852835285872094338852600a86018452868820600160ff198254161790556008860190815490885190868201928352878a8301526060820152605481526110028161121c565b5190209055338752600583526005868820600181016110218154611237565b9055019081549260018401809411611092575050916007939160039593557f4d05967e1b3f93b340034dd64c424dcbf5cd3dd08e82e5902648cd6df87f7c218554968792815194855242908501523393a301541015611083575b506001815580f35b61108c9061132c565b3861107b565b634e487b7160e01b89526011905287fd5b875162461bcd60e51b815280850186905260178185015276125b9d985b1a5908195b9d1c9bdc1e481bdc881cd85b1d604a1b6044820152606490fd5b5060139060649387519362461bcd60e51b855284015282015272139bc818dbdb5b5a5d1b595b9d08199bdd5b99606a1b6044820152fd5b5060109060649387519362461bcd60e51b85528401528201526f105b1c9958591e481c995d99585b195960821b6044820152fd5b5060139060649387519362461bcd60e51b8552840152820152724e6f7420696e2072657665616c20706861736560681b6044820152fd5b015442111590508338610f37565b600435906001600160a01b03821682036111a557565b600080fd5b156111b157565b60405162461bcd60e51b8152602060048201526012602482015271149bdd5b99081a5cc818dbdb5c1b195d195960721b6044820152606490fd5b60c081019081106001600160401b0382111761120657604052565b634e487b7160e01b600052604160045260246000fd5b608081019081106001600160401b0382111761120657604052565b60001981146112465760010190565b634e487b7160e01b600052601160045260246000fd5b1561126357565b60405162461bcd60e51b8152602060048201526014602482015273149bdd5b9908191bd95cc81b9bdd08195e1a5cdd60621b6044820152606490fd5b156112a657565b60405162461bcd60e51b815260206004820152601a60248201527910dbdb9d1c9a589d5d1bdc881a5cc8189b1858dadb1a5cdd195960321b6044820152606490fd5b6002600054146112f9576002600055565b604051633ee5aeb560e01b8152600490fd5b60ff60015460a01c1661131a57565b60405163d93c066560e01b8152600490fd5b6000818152600260205260408082209060088201918254815483516020810191838352858201524260608201524460808201526080815260a0810181811060018060401b0382111761140a5785525190209485600584015560068301600160ff198254161790556007549182018092116113f65750916007608094927fe6a0abe27726603963c9e6523ef0c878b5fed15353882eee70bba62c6f069577969482556113d8600354611237565b600355015491549181519384526020840152820152426060820152a2565b634e487b7160e01b81526011600452602490fd5b634e487b7160e01b88526041600452602488fd5b6001546001600160a01b0316330361143257565b60405163118cdaa760e01b8152336004820152602490fdfe8be0079c531659141344cd1fd0a4f28419497f9722a3daafe3b4186f6b6457e0a2646970667358221220f8df381daf774808a174cfad129d12cc014d3d439411695c128d557855402dc664736f6c63430008180033","opcodes":"PUSH1 0x80 DUP1 PUSH1 0x40 MSTORE CALLVALUE PUSH2 0x89 JUMPI PUSH1 0x1 PUSH1 0x0 SSTORE CALLER ISZERO PUSH2 0x73 JUMPI PUSH1 0x1 DUP1 SLOAD CALLER PUSH1 0x1 PUSH1 0x1 PUSH1 0xA0 SHL SUB NOT DUP3 AND DUP2 OR SWAP1 SWAP3 SSTORE PUSH1 0x40 MLOAD SWAP2 SWAP1 PUSH1 0x1 PUSH1 0x1 PUSH1 0xA0 SHL SUB AND PUSH32 0x8BE0079C531659141344CD1FD0A4F28419497F9722A3DAAFE3B4186F6B6457E0 PUSH1 0x0 DUP1 LOG3 PUSH1 0x1 PUSH1 0x3 SSTORE PUSH1 0x0 PUSH1 0x4 SSTORE PUSH2 0x14A0 SWAP1 DUP2 PUSH2 0x8F DUP3 CODECOPY RETURN JUMPDEST PUSH4 0x1E4FBDF7 PUSH1 0xE0 SHL DUP2 MSTORE PUSH1 0x0 PUSH1 0x4 DUP3 ADD MSTORE PUSH1 0x24 SWAP1 REVERT JUMPDEST PUSH1 0x0 DUP1 REVERT INVALID PUSH1 0x40 PUSH1 0x80 DUP2 MSTORE PUSH1 0x4 SWAP1 DUP2 CALLDATASIZE LT ISZERO PUSH2 0x15 JUMPI PUSH1 0x0 DUP1 REVERT JUMPDEST PUSH1 0x0 SWAP2 DUP3 CALLDATALOAD PUSH1 0xE0 SHR SWAP1 DUP2 PUSH4 0x652CB6F EQ PUSH2 0xED6 JUMPI DUP2 PUSH4 0x81D4639 EQ PUSH2 0xE33 JUMPI DUP2 PUSH4 0xD3C15CC EQ PUSH2 0xE16 JUMPI DUP2 PUSH4 0x128F1733 EQ PUSH2 0xDF7 JUMPI DUP2 PUSH4 0x14D510D3 EQ PUSH2 0xD84 JUMPI DUP2 PUSH4 0x21F932E9 EQ PUSH2 0xD68 JUMPI DUP2 PUSH4 0x35C8C2C0 EQ PUSH2 0xD4C JUMPI DUP2 PUSH4 0x42296A14 EQ PUSH2 0xD30 JUMPI DUP2 PUSH4 0x530D58C8 EQ PUSH2 0xCA4 JUMPI DUP2 PUSH4 0x5C975ABB EQ PUSH2 0xC7D JUMPI DUP2 PUSH4 0x625B8186 EQ PUSH2 0xBF2 JUMPI DUP2 PUSH4 0x715018A6 EQ PUSH2 0xBA4 JUMPI DUP2 PUSH4 0x747DFF42 EQ PUSH2 0xB37 JUMPI DUP2 PUSH4 0x837B4079 EQ PUSH2 0xA4D JUMPI DUP2 PUSH4 0x8A568299 EQ PUSH2 0xA2F JUMPI DUP2 PUSH4 0x8DA5CB5B EQ PUSH2 0xA06 JUMPI DUP2 PUSH4 0x9CBE5EFD EQ PUSH2 0x9E7 JUMPI DUP2 PUSH4 0x9F4BCA26 EQ PUSH2 0x9CB JUMPI DUP2 PUSH4 0xA789E29C EQ PUSH2 0x8FA JUMPI DUP2 PUSH4 0xA80D4984 EQ PUSH2 0x84F JUMPI DUP2 PUSH4 0xA9782377 EQ PUSH2 0x598 JUMPI DUP2 PUSH4 0xACEB5DC7 EQ PUSH2 0x55A JUMPI DUP2 PUSH4 0xBD85948C EQ PUSH2 0x40A JUMPI DUP2 PUSH4 0xC988FB26 EQ PUSH2 0x3ED JUMPI DUP2 PUSH4 0xDD03C6F2 EQ PUSH2 0x368 JUMPI DUP2 PUSH4 0xE8F6940E EQ PUSH2 0x29B JUMPI DUP2 PUSH4 0xF251FC8C EQ PUSH2 0x27C JUMPI DUP2 PUSH4 0xF2FDE38B EQ PUSH2 0x200 JUMPI POP DUP1 PUSH4 0xF5C91A08 EQ PUSH2 0x18E JUMPI PUSH4 0xF985F363 EQ PUSH2 0x16D JUMPI PUSH1 0x0 DUP1 REVERT JUMPDEST CALLVALUE PUSH2 0x18A JUMPI DUP2 PUSH1 0x3 NOT CALLDATASIZE ADD SLT PUSH2 0x18A JUMPI PUSH1 0x20 SWAP1 PUSH1 0x7 SLOAD SWAP1 MLOAD SWAP1 DUP2 MSTORE RETURN JUMPDEST POP DUP1 REVERT JUMPDEST POP CALLVALUE PUSH2 0x18A JUMPI DUP1 PUSH1 0x3 NOT CALLDATASIZE ADD SLT PUSH2 0x18A JUMPI PUSH32 0x5B88A2E3FC1A53234357AB78C104DF11C33CCFA79886793654565AD70B8AFB6E PUSH2 0x1C8 PUSH2 0x118F JUMP JUMPDEST SWAP2 PUSH1 0x24 CALLDATALOAD SWAP3 PUSH2 0x1D5 PUSH2 0x141E JUMP JUMPDEST PUSH1 0x1 DUP1 PUSH1 0xA0 SHL SUB AND SWAP3 DUP4 DUP6 MSTORE PUSH1 0x5 PUSH1 0x20 MSTORE PUSH1 0x5 DUP3 DUP7 KECCAK256 ADD SWAP1 DUP1 DUP3 SLOAD SWAP3 SSTORE DUP3 MLOAD SWAP2 DUP3 MSTORE PUSH1 0x20 DUP3 ADD MSTORE LOG2 DUP1 RETURN JUMPDEST SWAP1 POP CALLVALUE PUSH2 0x278 JUMPI PUSH1 0x20 CALLDATASIZE PUSH1 0x3 NOT ADD SLT PUSH2 0x278 JUMPI PUSH2 0x21B PUSH2 0x118F JUMP JUMPDEST SWAP1 PUSH2 0x224 PUSH2 0x141E JUMP JUMPDEST PUSH1 0x1 PUSH1 0x1 PUSH1 0xA0 SHL SUB SWAP2 DUP3 AND SWAP3 DUP4 ISZERO PUSH2 0x262 JUMPI POP POP PUSH1 0x1 DUP1 SLOAD PUSH1 0x1 PUSH1 0x1 PUSH1 0xA0 SHL SUB NOT DUP2 AND DUP5 OR SWAP1 SWAP2 SSTORE AND PUSH1 0x0 DUP1 MLOAD PUSH1 0x20 PUSH2 0x144B DUP4 CODECOPY DUP2 MLOAD SWAP2 MSTORE DUP4 DUP1 LOG3 DUP1 RETURN JUMPDEST MLOAD PUSH4 0x1E4FBDF7 PUSH1 0xE0 SHL DUP2 MSTORE SWAP1 DUP2 ADD DUP5 SWAP1 MSTORE PUSH1 0x24 SWAP1 REVERT JUMPDEST DUP3 DUP1 REVERT JUMPDEST POP POP CALLVALUE PUSH2 0x18A JUMPI DUP2 PUSH1 0x3 NOT CALLDATASIZE ADD SLT PUSH2 0x18A JUMPI PUSH1 0x20 SWAP1 PUSH1 0x8 SLOAD SWAP1 MLOAD SWAP1 DUP2 MSTORE RETURN JUMPDEST SWAP1 POP CALLVALUE PUSH2 0x278 JUMPI PUSH1 0x20 CALLDATASIZE PUSH1 0x3 NOT ADD SLT PUSH2 0x278 JUMPI DUP1 CALLDATALOAD DUP1 ISZERO ISZERO DUP2 SUB PUSH2 0x364 JUMPI PUSH2 0x2C1 PUSH2 0x141E JUMP JUMPDEST ISZERO PUSH2 0x30E JUMPI POP PUSH1 0x20 PUSH32 0x62E78CEA01BEE320CD4E420270B5EA74000D11B0C9F74754EBDBFC544B05A258 SWAP2 PUSH2 0x2F3 PUSH2 0x130B JUMP JUMPDEST PUSH1 0x1 DUP1 SLOAD PUSH1 0xFF PUSH1 0xA0 SHL NOT AND PUSH1 0x1 PUSH1 0xA0 SHL OR SWAP1 SSTORE MLOAD CALLER DUP2 MSTORE LOG1 DUP1 RETURN JUMPDEST PUSH1 0x1 SLOAD SWAP1 PUSH1 0xFF DUP3 PUSH1 0xA0 SHR AND ISZERO PUSH2 0x356 JUMPI POP PUSH1 0xFF PUSH1 0xA0 SHL NOT AND PUSH1 0x1 SSTORE MLOAD CALLER DUP2 MSTORE PUSH32 0x5DB9EE0A495BF2E6FF9C91A7834C1BA4FDD244A5E8AA4E537BD38AEAE4B073AA SWAP1 PUSH1 0x20 SWAP1 LOG1 DUP1 RETURN JUMPDEST DUP3 MLOAD PUSH4 0x8DFC202B PUSH1 0xE0 SHL DUP2 MSTORE REVERT JUMPDEST DUP4 DUP1 REVERT JUMPDEST SWAP1 POP CALLVALUE PUSH2 0x278 JUMPI PUSH1 0x20 CALLDATASIZE PUSH1 0x3 NOT ADD SLT PUSH2 0x278 JUMPI DUP2 PUSH2 0x120 SWAP4 DUP3 CALLDATALOAD DUP2 MSTORE PUSH1 0x2 PUSH1 0x20 MSTORE KECCAK256 DUP1 SLOAD SWAP3 PUSH1 0x1 DUP3 ADD SLOAD SWAP3 PUSH1 0x2 DUP4 ADD SLOAD SWAP1 PUSH1 0x3 DUP5 ADD SLOAD SWAP1 DUP5 ADD SLOAD SWAP1 PUSH1 0x5 DUP6 ADD SLOAD SWAP3 PUSH1 0xFF PUSH1 0x6 DUP8 ADD SLOAD AND SWAP5 PUSH1 0x8 PUSH1 0x7 DUP9 ADD SLOAD SWAP8 ADD SLOAD SWAP8 DUP2 MLOAD SWAP10 DUP11 MSTORE PUSH1 0x20 DUP11 ADD MSTORE DUP9 ADD MSTORE PUSH1 0x60 DUP8 ADD MSTORE PUSH1 0x80 DUP7 ADD MSTORE PUSH1 0xA0 DUP6 ADD MSTORE ISZERO ISZERO PUSH1 0xC0 DUP5 ADD MSTORE PUSH1 0xE0 DUP4 ADD MSTORE PUSH2 0x100 DUP3 ADD MSTORE RETURN JUMPDEST POP POP CALLVALUE PUSH2 0x18A JUMPI DUP2 PUSH1 0x3 NOT CALLDATASIZE ADD SLT PUSH2 0x18A JUMPI PUSH1 0x20 SWAP1 MLOAD PUSH2 0x708 DUP2 MSTORE RETURN JUMPDEST DUP4 DUP4 CALLVALUE PUSH2 0x18A JUMPI DUP2 PUSH1 0x3 NOT CALLDATASIZE ADD SLT PUSH2 0x18A JUMPI PUSH2 0x424 PUSH2 0x141E JUMP JUMPDEST PUSH2 0x42C PUSH2 0x130B JUMP JUMPDEST DUP3 SLOAD ISZERO DUP1 ISZERO PUSH2 0x540 JUMPI JUMPDEST ISZERO PUSH2 0x500 JUMPI PUSH1 0x3 SLOAD SWAP1 PUSH2 0xE10 TIMESTAMP ADD SWAP1 DUP2 TIMESTAMP GT PUSH2 0x4ED JUMPI PUSH2 0x1518 TIMESTAMP ADD SWAP1 DUP2 DUP4 GT PUSH2 0x4DA JUMPI SWAP2 PUSH1 0x60 SWAP2 PUSH32 0xFD9D17E5565DEEA3D25918D95FC398673B9445EF0A96D12EAF3AB2B198756C65 SWAP4 DUP8 DUP7 DUP9 MSTORE PUSH1 0x2 PUSH1 0x20 MSTORE DUP8 PUSH1 0x8 DUP4 DUP3 KECCAK256 DUP10 DUP2 SSTORE TIMESTAMP PUSH1 0x1 DUP3 ADD SSTORE DUP6 PUSH1 0x2 DUP3 ADD SSTORE DUP7 PUSH1 0x3 DUP3 ADD SSTORE DUP6 DUP5 DUP3 ADD SSTORE PUSH1 0x6 DUP2 ADD PUSH1 0xFF NOT DUP2 SLOAD AND SWAP1 SSTORE DUP3 PUSH1 0x7 DUP3 ADD SSTORE ADD SSTORE PUSH2 0x4C6 DUP2 SLOAD PUSH2 0x1237 JUMP JUMPDEST SWAP1 SSTORE DUP1 MLOAD SWAP3 TIMESTAMP DUP5 MSTORE PUSH1 0x20 DUP5 ADD MSTORE DUP3 ADD MSTORE LOG2 DUP1 RETURN JUMPDEST PUSH4 0x4E487B71 PUSH1 0xE0 SHL DUP6 MSTORE PUSH1 0x11 DUP7 MSTORE PUSH1 0x24 DUP6 REVERT JUMPDEST PUSH4 0x4E487B71 PUSH1 0xE0 SHL DUP5 MSTORE PUSH1 0x11 DUP6 MSTORE PUSH1 0x24 DUP5 REVERT JUMPDEST MLOAD PUSH3 0x461BCD PUSH1 0xE5 SHL DUP2 MSTORE PUSH1 0x20 DUP2 DUP5 ADD MSTORE PUSH1 0x1B PUSH1 0x24 DUP3 ADD MSTORE PUSH27 0x10DD5C9C995B9D081C9BDD5B99081B9BDD0818DBDB5C1B195D1959 PUSH1 0x2A SHL PUSH1 0x44 DUP3 ADD MSTORE PUSH1 0x64 SWAP1 REVERT JUMPDEST POP PUSH1 0x3 SLOAD DUP3 MSTORE PUSH1 0x2 PUSH1 0x20 MSTORE PUSH1 0xFF PUSH1 0x6 DUP3 DUP5 KECCAK256 ADD SLOAD AND PUSH2 0x436 JUMP JUMPDEST POP POP CALLVALUE PUSH2 0x18A JUMPI PUSH1 0x20 CALLDATASIZE PUSH1 0x3 NOT ADD SLT PUSH2 0x18A JUMPI PUSH1 0x20 SWAP2 PUSH1 0xFF SWAP1 DUP3 SWAP1 PUSH1 0x1 PUSH1 0x1 PUSH1 0xA0 SHL SUB PUSH2 0x585 PUSH2 0x118F JUMP JUMPDEST AND DUP2 MSTORE PUSH1 0x6 DUP6 MSTORE KECCAK256 SLOAD AND SWAP1 MLOAD SWAP1 ISZERO ISZERO DUP2 MSTORE RETURN JUMPDEST DUP4 DUP4 CALLVALUE PUSH2 0x18A JUMPI PUSH1 0x20 DUP1 PUSH1 0x3 NOT CALLDATASIZE ADD SLT PUSH2 0x278 JUMPI DUP4 CALLDATALOAD SWAP2 PUSH2 0x5B7 PUSH2 0x12E8 JUMP JUMPDEST PUSH2 0x5BF PUSH2 0x130B JUMP JUMPDEST PUSH1 0x3 SLOAD DUP1 DUP6 MSTORE PUSH1 0x2 DUP4 MSTORE PUSH2 0x5DC PUSH1 0xFF PUSH1 0x6 DUP5 DUP9 KECCAK256 ADD SLOAD AND ISZERO PUSH2 0x11AA JUMP JUMPDEST DUP1 DUP6 MSTORE PUSH1 0x2 DUP4 MSTORE PUSH1 0x3 DUP3 DUP7 KECCAK256 ADD SLOAD TIMESTAMP GT PUSH2 0x817 JUMPI DUP1 DUP6 MSTORE PUSH1 0x2 DUP4 MSTORE PUSH1 0xB DUP3 DUP7 KECCAK256 ADD CALLER DUP7 MSTORE DUP4 MSTORE PUSH1 0xFF DUP3 DUP7 KECCAK256 SLOAD AND PUSH2 0x7E0 JUMPI CALLER DUP6 MSTORE PUSH1 0x6 DUP4 MSTORE PUSH2 0x624 PUSH1 0xFF DUP4 DUP8 KECCAK256 SLOAD AND ISZERO PUSH2 0x129F JUMP JUMPDEST CALLER DUP6 MSTORE PUSH1 0x5 DUP4 MSTORE PUSH2 0x63D PUSH1 0xFF DUP8 DUP5 DUP9 KECCAK256 ADD SLOAD AND ISZERO PUSH2 0x129F JUMP JUMPDEST DUP4 ISZERO PUSH2 0x7A8 JUMPI DUP5 MSTORE PUSH1 0x2 DUP3 MSTORE DUP1 DUP5 KECCAK256 PUSH1 0x7 DUP2 ADD SWAP1 PUSH1 0x32 DUP3 SLOAD LT ISZERO PUSH2 0x76A JUMPI CALLER DUP7 MSTORE PUSH1 0x9 DUP2 ADD DUP5 MSTORE DUP3 DUP7 KECCAK256 DUP6 SWAP1 SSTORE PUSH1 0xB DUP2 ADD DUP5 MSTORE DUP3 DUP7 KECCAK256 DUP1 SLOAD PUSH1 0xFF NOT AND PUSH1 0x1 OR SWAP1 SSTORE PUSH1 0xC ADD DUP1 SLOAD SWAP1 PUSH1 0x1 PUSH1 0x40 SHL DUP3 LT ISZERO PUSH2 0x757 JUMPI PUSH1 0x1 DUP3 ADD DUP1 DUP3 SSTORE DUP3 LT ISZERO PUSH2 0x744 JUMPI DUP7 MSTORE DUP4 DUP7 KECCAK256 ADD DUP1 SLOAD PUSH1 0x1 PUSH1 0x1 PUSH1 0xA0 SHL SUB NOT AND CALLER OR SWAP1 SSTORE DUP1 SLOAD PUSH32 0xE489BB09566F694041DC6D2FE02042B827D96AF1AA4D6E6F51D3105C6DA8CA77 SWAP3 SWAP2 SWAP1 PUSH2 0x6E3 SWAP1 PUSH2 0x1237 JUMP JUMPDEST SWAP1 SSTORE CALLER DUP6 MSTORE PUSH1 0x5 DUP4 MSTORE PUSH1 0x1 DUP2 DUP7 KECCAK256 PUSH2 0x6FB DUP2 SLOAD PUSH2 0x1237 JUMP JUMPDEST SWAP1 DUP2 DUP2 SSTORE PUSH1 0x3 TIMESTAMP SWAP2 ADD SSTORE EQ PUSH2 0x723 JUMPI JUMPDEST PUSH1 0x3 SLOAD SWAP3 DUP2 MLOAD SWAP5 DUP6 MSTORE TIMESTAMP SWAP1 DUP6 ADD MSTORE CALLER SWAP4 LOG3 PUSH1 0x1 DUP2 SSTORE DUP1 RETURN JUMPDEST PUSH2 0x72E PUSH1 0x8 SLOAD PUSH2 0x1237 JUMP JUMPDEST PUSH1 0x8 SSTORE PUSH2 0x73C PUSH1 0x9 SLOAD PUSH2 0x1237 JUMP JUMPDEST PUSH1 0x9 SSTORE PUSH2 0x70B JUMP JUMPDEST PUSH4 0x4E487B71 PUSH1 0xE0 SHL DUP8 MSTORE PUSH1 0x32 DUP9 MSTORE PUSH1 0x24 DUP8 REVERT JUMPDEST PUSH4 0x4E487B71 PUSH1 0xE0 SHL DUP8 MSTORE PUSH1 0x41 DUP9 MSTORE PUSH1 0x24 DUP8 REVERT JUMPDEST DUP3 MLOAD PUSH3 0x461BCD PUSH1 0xE5 SHL DUP2 MSTORE DUP1 DUP9 ADD DUP6 SWAP1 MSTORE PUSH1 0x18 PUSH1 0x24 DUP3 ADD MSTORE PUSH24 0x13585E0818DBDB9D1C9A589D5D1BDC9CC81C995858DA1959 PUSH1 0x42 SHL PUSH1 0x44 DUP3 ADD MSTORE PUSH1 0x64 SWAP1 REVERT JUMPDEST DUP2 MLOAD PUSH3 0x461BCD PUSH1 0xE5 SHL DUP2 MSTORE DUP1 DUP8 ADD DUP5 SWAP1 MSTORE PUSH1 0x12 PUSH1 0x24 DUP3 ADD MSTORE PUSH18 0x125B9D985B1A590818DBDB5B5A5D1B595B9D PUSH1 0x72 SHL PUSH1 0x44 DUP3 ADD MSTORE PUSH1 0x64 SWAP1 REVERT JUMPDEST DUP2 MLOAD PUSH3 0x461BCD PUSH1 0xE5 SHL DUP2 MSTORE DUP1 DUP8 ADD DUP5 SWAP1 MSTORE PUSH1 0x11 PUSH1 0x24 DUP3 ADD MSTORE PUSH17 0x105B1C9958591E4818DBDB5B5A5D1D1959 PUSH1 0x7A SHL PUSH1 0x44 DUP3 ADD MSTORE PUSH1 0x64 SWAP1 REVERT JUMPDEST DUP2 MLOAD PUSH3 0x461BCD PUSH1 0xE5 SHL DUP2 MSTORE DUP1 DUP8 ADD DUP5 SWAP1 MSTORE PUSH1 0x12 PUSH1 0x24 DUP3 ADD MSTORE PUSH18 0x10DBDB5B5A5D081C1A185CD948195B991959 PUSH1 0x72 SHL PUSH1 0x44 DUP3 ADD MSTORE PUSH1 0x64 SWAP1 REVERT JUMPDEST DUP4 DUP4 CALLVALUE PUSH2 0x18A JUMPI DUP1 PUSH1 0x3 NOT CALLDATASIZE ADD SLT PUSH2 0x18A JUMPI PUSH1 0x24 CALLDATALOAD SWAP1 DUP2 ISZERO PUSH2 0x8BB JUMPI DUP1 MLOAD DUP5 CALLDATALOAD PUSH1 0x20 DUP3 ADD SWAP1 DUP2 MSTORE TIMESTAMP DUP3 DUP5 ADD MSTORE DUP3 DUP3 MSTORE PUSH1 0x60 DUP3 ADD SWAP5 SWAP1 SWAP3 SWAP1 PUSH1 0x1 PUSH1 0x1 PUSH1 0x40 SHL SUB DUP7 GT DUP4 DUP8 LT OR PUSH2 0x8A8 JUMPI POP PUSH1 0x20 SWAP6 POP DUP5 SWAP1 MSTORE MLOAD SWAP1 KECCAK256 MOD DUP2 MSTORE RETURN JUMPDEST PUSH4 0x4E487B71 PUSH1 0xE0 SHL DUP2 MSTORE PUSH1 0x41 DUP8 MSTORE PUSH1 0x24 SWAP1 REVERT JUMPDEST MLOAD PUSH3 0x461BCD PUSH1 0xE5 SHL DUP2 MSTORE PUSH1 0x20 DUP2 DUP6 ADD MSTORE PUSH1 0x1A PUSH1 0x24 DUP3 ADD MSTORE PUSH26 0x4D61782076616C7565206D75737420626520706F736974697665 PUSH1 0x30 SHL PUSH1 0x44 DUP3 ADD MSTORE PUSH1 0x64 SWAP1 REVERT JUMPDEST SWAP1 POP CALLVALUE PUSH2 0x278 JUMPI PUSH1 0x20 CALLDATASIZE PUSH1 0x3 NOT ADD SLT PUSH2 0x278 JUMPI DUP2 PUSH1 0xC0 SWAP4 PUSH2 0x919 PUSH2 0x118F JUMP JUMPDEST DUP2 PUSH1 0xA0 DUP5 MLOAD PUSH2 0x927 DUP2 PUSH2 0x11EB JUMP JUMPDEST DUP3 DUP2 MSTORE DUP3 PUSH1 0x20 DUP3 ADD MSTORE DUP3 DUP7 DUP3 ADD MSTORE DUP3 PUSH1 0x60 DUP3 ADD MSTORE DUP3 PUSH1 0x80 DUP3 ADD MSTORE ADD MSTORE PUSH1 0x1 DUP1 PUSH1 0xA0 SHL SUB AND DUP2 MSTORE PUSH1 0x5 PUSH1 0x20 MSTORE KECCAK256 DUP3 MLOAD SWAP2 PUSH2 0x95F DUP4 PUSH2 0x11EB JUMP JUMPDEST DUP2 SLOAD SWAP4 DUP5 DUP5 MSTORE PUSH1 0x1 DUP4 ADD SLOAD PUSH1 0x20 DUP6 ADD SWAP1 DUP2 MSTORE PUSH1 0x2 DUP5 ADD SLOAD SWAP1 DUP3 DUP7 ADD SWAP2 DUP3 MSTORE PUSH1 0xA0 PUSH1 0x5 PUSH1 0xFF PUSH1 0x3 DUP9 ADD SLOAD SWAP7 PUSH1 0x60 DUP11 ADD SWAP8 DUP9 MSTORE DUP9 ADD SLOAD AND SWAP7 PUSH1 0x80 DUP10 ADD SWAP8 ISZERO ISZERO DUP9 MSTORE ADD SLOAD SWAP7 ADD SWAP6 DUP7 MSTORE DUP3 MLOAD SWAP7 DUP8 MSTORE MLOAD PUSH1 0x20 DUP8 ADD MSTORE MLOAD SWAP1 DUP6 ADD MSTORE MLOAD PUSH1 0x60 DUP5 ADD MSTORE MLOAD ISZERO ISZERO PUSH1 0x80 DUP4 ADD MSTORE MLOAD PUSH1 0xA0 DUP3 ADD MSTORE RETURN JUMPDEST POP POP CALLVALUE PUSH2 0x18A JUMPI DUP2 PUSH1 0x3 NOT CALLDATASIZE ADD SLT PUSH2 0x18A JUMPI PUSH1 0x20 SWAP1 MLOAD PUSH1 0x32 DUP2 MSTORE RETURN JUMPDEST POP POP CALLVALUE PUSH2 0x18A JUMPI DUP2 PUSH1 0x3 NOT CALLDATASIZE ADD SLT PUSH2 0x18A JUMPI PUSH1 0x20 SWAP1 PUSH1 0x3 SLOAD SWAP1 MLOAD SWAP1 DUP2 MSTORE RETURN JUMPDEST POP POP CALLVALUE PUSH2 0x18A JUMPI DUP2 PUSH1 0x3 NOT CALLDATASIZE ADD SLT PUSH2 0x18A JUMPI PUSH1 0x1 SLOAD SWAP1 MLOAD PUSH1 0x1 PUSH1 0x1 PUSH1 0xA0 SHL SUB SWAP1 SWAP2 AND DUP2 MSTORE PUSH1 0x20 SWAP1 RETURN JUMPDEST SWAP1 POP CALLVALUE PUSH2 0x278 JUMPI DUP3 PUSH1 0x3 NOT CALLDATASIZE ADD SLT PUSH2 0x278 JUMPI PUSH1 0x20 SWAP3 POP SLOAD SWAP1 MLOAD SWAP1 DUP2 MSTORE RETURN JUMPDEST DUP4 DUP4 CALLVALUE PUSH2 0x18A JUMPI PUSH1 0x20 DUP1 PUSH1 0x3 NOT CALLDATASIZE ADD SLT PUSH2 0x278 JUMPI DUP4 CALLDATALOAD PUSH2 0xA70 DUP6 SLOAD DUP3 GT ISZERO PUSH2 0x125C JUMP JUMPDEST DUP4 MSTORE PUSH1 0x2 DUP2 MSTORE PUSH1 0xC DUP3 DUP5 KECCAK256 ADD SWAP3 DUP3 MLOAD SWAP3 DUP4 DUP4 DUP7 SLOAD SWAP2 DUP3 DUP2 MSTORE ADD SWAP1 DUP2 SWAP7 DUP5 MSTORE DUP5 DUP5 KECCAK256 SWAP1 DUP5 JUMPDEST DUP7 DUP3 DUP3 LT PUSH2 0xB1A JUMPI POP POP POP POP DUP5 SWAP1 SUB PUSH1 0x1F ADD PUSH1 0x1F NOT AND DUP5 ADD SWAP6 PUSH1 0x1 PUSH1 0x1 PUSH1 0x40 SHL SUB DUP8 GT DUP6 DUP9 LT OR PUSH2 0xB07 JUMPI POP DUP6 DUP2 MSTORE DUP3 DUP7 MSTORE SWAP3 MLOAD DUP6 DUP4 ADD DUP2 SWAP1 MSTORE DUP6 SWAP5 SWAP4 DUP6 ADD SWAP4 SWAP3 SWAP1 SWAP2 JUMPDEST DUP3 DUP2 LT PUSH2 0xAE7 JUMPI POP POP POP POP SUB SWAP1 RETURN JUMPDEST DUP4 MLOAD PUSH1 0x1 PUSH1 0x1 PUSH1 0xA0 SHL SUB AND DUP6 MSTORE DUP7 SWAP6 POP SWAP4 DUP2 ADD SWAP4 SWAP3 DUP2 ADD SWAP3 PUSH1 0x1 ADD PUSH2 0xAD8 JUMP JUMPDEST PUSH4 0x4E487B71 PUSH1 0xE0 SHL DUP4 MSTORE PUSH1 0x41 SWAP1 MSTORE PUSH1 0x24 DUP3 REVERT JUMPDEST DUP4 SLOAD PUSH1 0x1 PUSH1 0x1 PUSH1 0xA0 SHL SUB AND DUP6 MSTORE SWAP1 SWAP4 ADD SWAP3 PUSH1 0x1 SWAP3 DUP4 ADD SWAP3 ADD PUSH2 0xA94 JUMP JUMPDEST SWAP1 POP CALLVALUE PUSH2 0x278 JUMPI DUP3 PUSH1 0x3 NOT CALLDATASIZE ADD SLT PUSH2 0x278 JUMPI DUP2 PUSH1 0xE0 SWAP4 PUSH1 0x3 SLOAD DUP2 MSTORE PUSH1 0x2 PUSH1 0x20 MSTORE KECCAK256 DUP1 SLOAD SWAP3 PUSH1 0x1 DUP3 ADD SLOAD SWAP3 PUSH1 0x3 DUP4 ADD SLOAD SWAP1 DUP4 ADD SLOAD SWAP1 PUSH1 0xFF PUSH1 0x6 DUP6 ADD SLOAD AND SWAP3 PUSH1 0x8 PUSH1 0x7 DUP7 ADD SLOAD SWAP6 ADD SLOAD SWAP6 DUP2 MLOAD SWAP8 DUP9 MSTORE PUSH1 0x20 DUP9 ADD MSTORE DUP7 ADD MSTORE PUSH1 0x60 DUP6 ADD MSTORE ISZERO ISZERO PUSH1 0x80 DUP5 ADD MSTORE PUSH1 0xA0 DUP4 ADD MSTORE PUSH1 0xC0 DUP3 ADD MSTORE RETURN JUMPDEST DUP4 CALLVALUE PUSH2 0xBEF JUMPI DUP1 PUSH1 0x3 NOT CALLDATASIZE ADD SLT PUSH2 0xBEF JUMPI PUSH2 0xBBD PUSH2 0x141E JUMP JUMPDEST PUSH1 0x1 DUP1 SLOAD PUSH1 0x1 PUSH1 0x1 PUSH1 0xA0 SHL SUB NOT DUP2 AND SWAP1 SWAP2 SSTORE DUP2 SWAP1 PUSH1 0x1 PUSH1 0x1 PUSH1 0xA0 SHL SUB AND PUSH1 0x0 DUP1 MLOAD PUSH1 0x20 PUSH2 0x144B DUP4 CODECOPY DUP2 MLOAD SWAP2 MSTORE DUP3 DUP1 LOG3 DUP1 RETURN JUMPDEST DUP1 REVERT JUMPDEST SWAP1 POP CALLVALUE PUSH2 0x278 JUMPI PUSH1 0x20 CALLDATASIZE PUSH1 0x3 NOT ADD SLT PUSH2 0x278 JUMPI DUP1 CALLDATALOAD SWAP2 PUSH2 0xC10 PUSH2 0x141E JUMP JUMPDEST PUSH2 0xC1D DUP3 SLOAD DUP5 GT ISZERO PUSH2 0x125C JUMP JUMPDEST DUP3 DUP5 MSTORE PUSH1 0x2 PUSH1 0x20 MSTORE PUSH1 0xFF PUSH1 0x6 DUP3 DUP7 KECCAK256 ADD SLOAD AND PUSH2 0xC40 JUMPI DUP4 PUSH2 0xC3D DUP5 PUSH2 0x132C JUMP JUMPDEST DUP1 RETURN JUMPDEST SWAP1 PUSH1 0x20 PUSH1 0x64 SWAP3 MLOAD SWAP2 PUSH3 0x461BCD PUSH1 0xE5 SHL DUP4 MSTORE DUP3 ADD MSTORE PUSH1 0x17 PUSH1 0x24 DUP3 ADD MSTORE PUSH23 0x149BDD5B9908185B1C9958591E4818DBDB5C1B195D1959 PUSH1 0x4A SHL PUSH1 0x44 DUP3 ADD MSTORE REVERT JUMPDEST POP POP CALLVALUE PUSH2 0x18A JUMPI DUP2 PUSH1 0x3 NOT CALLDATASIZE ADD SLT PUSH2 0x18A JUMPI PUSH1 0x20 SWAP1 PUSH1 0xFF PUSH1 0x1 SLOAD PUSH1 0xA0 SHR AND SWAP1 MLOAD SWAP1 ISZERO ISZERO DUP2 MSTORE RETURN JUMPDEST DUP4 SWAP2 POP CALLVALUE PUSH2 0x18A JUMPI PUSH1 0x20 CALLDATASIZE PUSH1 0x3 NOT ADD SLT PUSH2 0x18A JUMPI DUP1 CALLDATALOAD SWAP1 PUSH2 0xCC8 DUP2 SLOAD DUP4 GT ISZERO PUSH2 0x125C JUMP JUMPDEST DUP2 DUP4 MSTORE PUSH1 0x2 PUSH1 0x20 MSTORE PUSH1 0xFF PUSH1 0x6 DUP6 DUP6 KECCAK256 ADD SLOAD AND ISZERO PUSH2 0xCF7 JUMPI PUSH1 0x20 DUP5 PUSH1 0x5 DUP2 DUP7 DUP7 DUP2 MSTORE PUSH1 0x2 DUP6 MSTORE KECCAK256 ADD SLOAD SWAP1 MLOAD SWAP1 DUP2 MSTORE RETURN JUMPDEST PUSH1 0x64 SWAP1 PUSH1 0x20 DUP6 MLOAD SWAP2 PUSH3 0x461BCD PUSH1 0xE5 SHL DUP4 MSTORE DUP3 ADD MSTORE PUSH1 0x13 PUSH1 0x24 DUP3 ADD MSTORE PUSH19 0x149BDD5B99081B9BDD0818DBDB5C1B195D1959 PUSH1 0x6A SHL PUSH1 0x44 DUP3 ADD MSTORE REVERT JUMPDEST POP POP CALLVALUE PUSH2 0x18A JUMPI DUP2 PUSH1 0x3 NOT CALLDATASIZE ADD SLT PUSH2 0x18A JUMPI PUSH1 0x20 SWAP1 MLOAD PUSH1 0xA DUP2 MSTORE RETURN JUMPDEST POP POP CALLVALUE PUSH2 0x18A JUMPI DUP2 PUSH1 0x3 NOT CALLDATASIZE ADD SLT PUSH2 0x18A JUMPI PUSH1 0x20 SWAP1 MLOAD PUSH1 0x80 DUP2 MSTORE RETURN JUMPDEST POP POP CALLVALUE PUSH2 0x18A JUMPI DUP2 PUSH1 0x3 NOT CALLDATASIZE ADD SLT PUSH2 0x18A JUMPI PUSH1 0x20 SWAP1 MLOAD PUSH1 0x3 DUP2 MSTORE RETURN JUMPDEST SWAP2 SWAP1 POP CALLVALUE PUSH2 0x278 JUMPI PUSH1 0x20 CALLDATASIZE PUSH1 0x3 NOT ADD SLT PUSH2 0x278 JUMPI PUSH1 0xC0 SWAP3 DUP2 SWAP1 PUSH1 0x1 PUSH1 0x1 PUSH1 0xA0 SHL SUB PUSH2 0xDAD PUSH2 0x118F JUMP JUMPDEST AND DUP2 MSTORE PUSH1 0x5 PUSH1 0x20 MSTORE KECCAK256 DUP1 SLOAD SWAP3 PUSH1 0x1 DUP3 ADD SLOAD SWAP3 PUSH1 0x2 DUP4 ADD SLOAD SWAP1 PUSH1 0x5 PUSH1 0xFF PUSH1 0x3 DUP7 ADD SLOAD SWAP5 DUP7 ADD SLOAD AND SWAP5 ADD SLOAD SWAP5 DUP2 MLOAD SWAP7 DUP8 MSTORE PUSH1 0x20 DUP8 ADD MSTORE DUP6 ADD MSTORE PUSH1 0x60 DUP5 ADD MSTORE ISZERO ISZERO PUSH1 0x80 DUP4 ADD MSTORE PUSH1 0xA0 DUP3 ADD MSTORE RETURN JUMPDEST POP POP CALLVALUE PUSH2 0x18A JUMPI DUP2 PUSH1 0x3 NOT CALLDATASIZE ADD SLT PUSH2 0x18A JUMPI PUSH1 0x20 SWAP1 PUSH1 0x9 SLOAD SWAP1 MLOAD SWAP1 DUP2 MSTORE RETURN JUMPDEST POP POP CALLVALUE PUSH2 0x18A JUMPI DUP2 PUSH1 0x3 NOT CALLDATASIZE ADD SLT PUSH2 0x18A JUMPI PUSH1 0x20 SWAP1 MLOAD PUSH2 0xE10 DUP2 MSTORE RETURN JUMPDEST SWAP2 SWAP1 POP CALLVALUE PUSH2 0x278 JUMPI DUP1 PUSH1 0x3 NOT CALLDATASIZE ADD SLT PUSH2 0x278 JUMPI PUSH2 0xE4E PUSH2 0x118F JUMP JUMPDEST SWAP1 PUSH1 0x24 CALLDATALOAD SWAP1 DUP2 ISZERO ISZERO SWAP1 DUP2 DUP4 SUB PUSH2 0xED2 JUMPI PUSH2 0xECA PUSH1 0x20 SWAP4 PUSH32 0x221F4AC876A79567D1BC0437C204759623DECAFF06F75E6DB6B2ABDC7E9F5E70 SWAP6 PUSH2 0xE8E PUSH2 0x141E JUMP JUMPDEST PUSH1 0x1 PUSH1 0x1 PUSH1 0xA0 SHL SUB AND DUP1 DUP10 MSTORE PUSH1 0x6 DUP7 MSTORE DUP4 DUP10 KECCAK256 DUP1 SLOAD PUSH1 0xFF NOT AND PUSH1 0xFF DUP5 ISZERO ISZERO AND OR SWAP1 SSTORE SWAP7 PUSH1 0x5 DUP7 MSTORE DUP4 DUP10 KECCAK256 ADD SWAP1 PUSH1 0xFF DUP1 NOT DUP4 SLOAD AND SWAP2 ISZERO ISZERO AND OR SWAP1 SSTORE JUMP JUMPDEST MLOAD SWAP1 DUP2 MSTORE LOG2 DUP1 RETURN JUMPDEST DUP6 DUP1 REVERT JUMPDEST SWAP1 POP CALLVALUE PUSH2 0x278 JUMPI DUP2 PUSH1 0x3 NOT CALLDATASIZE ADD SLT PUSH2 0x278 JUMPI DUP1 CALLDATALOAD PUSH1 0x24 PUSH2 0xEF4 PUSH2 0x12E8 JUMP JUMPDEST PUSH2 0xEFC PUSH2 0x130B JUMP JUMPDEST PUSH1 0x3 SLOAD SWAP3 DUP4 DUP7 MSTORE PUSH1 0x2 SWAP2 PUSH1 0x20 SWAP3 DUP1 DUP5 MSTORE PUSH2 0xF1F PUSH1 0xFF PUSH1 0x6 DUP10 DUP12 KECCAK256 ADD SLOAD AND ISZERO PUSH2 0x11AA JUMP JUMPDEST DUP6 DUP9 MSTORE DUP1 DUP5 MSTORE DUP7 DUP9 KECCAK256 DUP4 PUSH1 0x3 DUP3 ADD SLOAD TIMESTAMP GT SWAP2 DUP3 PUSH2 0x1181 JUMPI JUMPDEST POP POP ISZERO PUSH2 0x114A JUMPI DUP6 DUP9 MSTORE DUP1 DUP5 MSTORE PUSH1 0xA DUP8 DUP10 KECCAK256 ADD CALLER DUP10 MSTORE DUP5 MSTORE PUSH1 0xFF DUP8 DUP10 KECCAK256 SLOAD AND PUSH2 0x1116 JUMPI DUP6 DUP9 MSTORE DUP1 DUP5 MSTORE PUSH1 0xB DUP8 DUP10 KECCAK256 ADD CALLER DUP10 MSTORE DUP5 MSTORE PUSH1 0xFF DUP8 DUP10 KECCAK256 SLOAD AND ISZERO PUSH2 0x10DF JUMPI DUP7 MLOAD SWAP6 DUP5 DUP8 ADD DUP7 DUP2 MSTORE DUP4 CALLDATALOAD DUP10 DUP10 ADD MSTORE CALLER PUSH1 0x60 SHL SWAP8 DUP9 PUSH1 0x60 DUP3 ADD MSTORE PUSH1 0x54 DUP2 MSTORE PUSH2 0xF9E DUP2 PUSH2 0x121C JUMP JUMPDEST MLOAD SWAP1 KECCAK256 DUP2 DUP11 MSTORE DUP3 DUP7 MSTORE PUSH1 0x9 DUP10 DUP12 KECCAK256 ADD CALLER DUP12 MSTORE DUP7 MSTORE DUP9 DUP11 KECCAK256 SLOAD SUB PUSH2 0x10A3 JUMPI DUP9 MSTORE DUP4 MSTORE DUP6 DUP8 KECCAK256 SWAP5 CALLER DUP9 MSTORE PUSH1 0xA DUP7 ADD DUP5 MSTORE DUP7 DUP9 KECCAK256 PUSH1 0x1 PUSH1 0xFF NOT DUP3 SLOAD AND OR SWAP1 SSTORE PUSH1 0x8 DUP7 ADD SWAP1 DUP2 SLOAD SWAP1 DUP9 MLOAD SWAP1 DUP7 DUP3 ADD SWAP3 DUP4 MSTORE DUP8 DUP11 DUP4 ADD MSTORE PUSH1 0x60 DUP3 ADD MSTORE PUSH1 0x54 DUP2 MSTORE PUSH2 0x1002 DUP2 PUSH2 0x121C JUMP JUMPDEST MLOAD SWAP1 KECCAK256 SWAP1 SSTORE CALLER DUP8 MSTORE PUSH1 0x5 DUP4 MSTORE PUSH1 0x5 DUP7 DUP9 KECCAK256 PUSH1 0x1 DUP2 ADD PUSH2 0x1021 DUP2 SLOAD PUSH2 0x1237 JUMP JUMPDEST SWAP1 SSTORE ADD SWAP1 DUP2 SLOAD SWAP3 PUSH1 0x1 DUP5 ADD DUP1 SWAP5 GT PUSH2 0x1092 JUMPI POP POP SWAP2 PUSH1 0x7 SWAP4 SWAP2 PUSH1 0x3 SWAP6 SWAP4 SSTORE PUSH32 0x4D05967E1B3F93B340034DD64C424DCBF5CD3DD08E82E5902648CD6DF87F7C21 DUP6 SLOAD SWAP7 DUP8 SWAP3 DUP2 MLOAD SWAP5 DUP6 MSTORE TIMESTAMP SWAP1 DUP6 ADD MSTORE CALLER SWAP4 LOG3 ADD SLOAD LT ISZERO PUSH2 0x1083 JUMPI JUMPDEST POP PUSH1 0x1 DUP2 SSTORE DUP1 RETURN JUMPDEST PUSH2 0x108C SWAP1 PUSH2 0x132C JUMP JUMPDEST CODESIZE PUSH2 0x107B JUMP JUMPDEST PUSH4 0x4E487B71 PUSH1 0xE0 SHL DUP10 MSTORE PUSH1 0x11 SWAP1 MSTORE DUP8 REVERT JUMPDEST DUP8 MLOAD PUSH3 0x461BCD PUSH1 0xE5 SHL DUP2 MSTORE DUP1 DUP6 ADD DUP7 SWAP1 MSTORE PUSH1 0x17 DUP2 DUP6 ADD MSTORE PUSH23 0x125B9D985B1A5908195B9D1C9BDC1E481BDC881CD85B1D PUSH1 0x4A SHL PUSH1 0x44 DUP3 ADD MSTORE PUSH1 0x64 SWAP1 REVERT JUMPDEST POP PUSH1 0x13 SWAP1 PUSH1 0x64 SWAP4 DUP8 MLOAD SWAP4 PUSH3 0x461BCD PUSH1 0xE5 SHL DUP6 MSTORE DUP5 ADD MSTORE DUP3 ADD MSTORE PUSH19 0x139BC818DBDB5B5A5D1B595B9D08199BDD5B99 PUSH1 0x6A SHL PUSH1 0x44 DUP3 ADD MSTORE REVERT JUMPDEST POP PUSH1 0x10 SWAP1 PUSH1 0x64 SWAP4 DUP8 MLOAD SWAP4 PUSH3 0x461BCD PUSH1 0xE5 SHL DUP6 MSTORE DUP5 ADD MSTORE DUP3 ADD MSTORE PUSH16 0x105B1C9958591E481C995D99585B1959 PUSH1 0x82 SHL PUSH1 0x44 DUP3 ADD MSTORE REVERT JUMPDEST POP PUSH1 0x13 SWAP1 PUSH1 0x64 SWAP4 DUP8 MLOAD SWAP4 PUSH3 0x461BCD PUSH1 0xE5 SHL DUP6 MSTORE DUP5 ADD MSTORE DUP3 ADD MSTORE PUSH19 0x4E6F7420696E2072657665616C207068617365 PUSH1 0x68 SHL PUSH1 0x44 DUP3 ADD MSTORE REVERT JUMPDEST ADD SLOAD TIMESTAMP GT ISZERO SWAP1 POP DUP4 CODESIZE PUSH2 0xF37 JUMP JUMPDEST PUSH1 0x4 CALLDATALOAD SWAP1 PUSH1 0x1 PUSH1 0x1 PUSH1 0xA0 SHL SUB DUP3 AND DUP3 SUB PUSH2 0x11A5 JUMPI JUMP JUMPDEST PUSH1 0x0 DUP1 REVERT JUMPDEST ISZERO PUSH2 0x11B1 JUMPI JUMP JUMPDEST PUSH1 0x40 MLOAD PUSH3 0x461BCD PUSH1 0xE5 SHL DUP2 MSTORE PUSH1 0x20 PUSH1 0x4 DUP3 ADD MSTORE PUSH1 0x12 PUSH1 0x24 DUP3 ADD MSTORE PUSH18 0x149BDD5B99081A5CC818DBDB5C1B195D1959 PUSH1 0x72 SHL PUSH1 0x44 DUP3 ADD MSTORE PUSH1 0x64 SWAP1 REVERT JUMPDEST PUSH1 0xC0 DUP2 ADD SWAP1 DUP2 LT PUSH1 0x1 PUSH1 0x1 PUSH1 0x40 SHL SUB DUP3 GT OR PUSH2 0x1206 JUMPI PUSH1 0x40 MSTORE JUMP JUMPDEST PUSH4 0x4E487B71 PUSH1 0xE0 SHL PUSH1 0x0 MSTORE PUSH1 0x41 PUSH1 0x4 MSTORE PUSH1 0x24 PUSH1 0x0 REVERT JUMPDEST PUSH1 0x80 DUP2 ADD SWAP1 DUP2 LT PUSH1 0x1 PUSH1 0x1 PUSH1 0x40 SHL SUB DUP3 GT OR PUSH2 0x1206 JUMPI PUSH1 0x40 MSTORE JUMP JUMPDEST PUSH1 0x0 NOT DUP2 EQ PUSH2 0x1246 JUMPI PUSH1 0x1 ADD SWAP1 JUMP JUMPDEST PUSH4 0x4E487B71 PUSH1 0xE0 SHL PUSH1 0x0 MSTORE PUSH1 0x11 PUSH1 0x4 MSTORE PUSH1 0x24 PUSH1 0x0 REVERT JUMPDEST ISZERO PUSH2 0x1263 JUMPI JUMP JUMPDEST PUSH1 0x40 MLOAD PUSH3 0x461BCD PUSH1 0xE5 SHL DUP2 MSTORE PUSH1 0x20 PUSH1 0x4 DUP3 ADD MSTORE PUSH1 0x14 PUSH1 0x24 DUP3 ADD MSTORE PUSH20 0x149BDD5B9908191BD95CC81B9BDD08195E1A5CDD PUSH1 0x62 SHL PUSH1 0x44 DUP3 ADD MSTORE PUSH1 0x64 SWAP1 REVERT JUMPDEST ISZERO PUSH2 0x12A6 JUMPI JUMP JUMPDEST PUSH1 0x40 MLOAD PUSH3 0x461BCD PUSH1 0xE5 SHL DUP2 MSTORE PUSH1 0x20 PUSH1 0x4 DUP3 ADD MSTORE PUSH1 0x1A PUSH1 0x24 DUP3 ADD MSTORE PUSH26 0x10DBDB9D1C9A589D5D1BDC881A5CC8189B1858DADB1A5CDD1959 PUSH1 0x32 SHL PUSH1 0x44 DUP3 ADD MSTORE PUSH1 0x64 SWAP1 REVERT JUMPDEST PUSH1 0x2 PUSH1 0x0 SLOAD EQ PUSH2 0x12F9 JUMPI PUSH1 0x2 PUSH1 0x0 SSTORE JUMP JUMPDEST PUSH1 0x40 MLOAD PUSH4 0x3EE5AEB5 PUSH1 0xE0 SHL DUP2 MSTORE PUSH1 0x4 SWAP1 REVERT JUMPDEST PUSH1 0xFF PUSH1 0x1 SLOAD PUSH1 0xA0 SHR AND PUSH2 0x131A JUMPI JUMP JUMPDEST PUSH1 0x40 MLOAD PUSH4 0xD93C0665 PUSH1 0xE0 SHL DUP2 MSTORE PUSH1 0x4 SWAP1 REVERT JUMPDEST PUSH1 0x0 DUP2 DUP2 MSTORE PUSH1 0x2 PUSH1 0x20 MSTORE PUSH1 0x40 DUP1 DUP3 KECCAK256 SWAP1 PUSH1 0x8 DUP3 ADD SWAP2 DUP3 SLOAD DUP2 SLOAD DUP4 MLOAD PUSH1 0x20 DUP2 ADD SWAP2 DUP4 DUP4 MSTORE DUP6 DUP3 ADD MSTORE TIMESTAMP PUSH1 0x60 DUP3 ADD MSTORE PREVRANDAO PUSH1 0x80 DUP3 ADD MSTORE PUSH1 0x80 DUP2 MSTORE PUSH1 0xA0 DUP2 ADD DUP2 DUP2 LT PUSH1 0x1 DUP1 PUSH1 0x40 SHL SUB DUP3 GT OR PUSH2 0x140A JUMPI DUP6 MSTORE MLOAD SWAP1 KECCAK256 SWAP5 DUP6 PUSH1 0x5 DUP5 ADD SSTORE PUSH1 0x6 DUP4 ADD PUSH1 0x1 PUSH1 0xFF NOT DUP3 SLOAD AND OR SWAP1 SSTORE PUSH1 0x7 SLOAD SWAP2 DUP3 ADD DUP1 SWAP3 GT PUSH2 0x13F6 JUMPI POP SWAP2 PUSH1 0x7 PUSH1 0x80 SWAP5 SWAP3 PUSH32 0xE6A0ABE27726603963C9E6523EF0C878B5FED15353882EEE70BBA62C6F069577 SWAP7 SWAP5 DUP3 SSTORE PUSH2 0x13D8 PUSH1 0x3 SLOAD PUSH2 0x1237 JUMP JUMPDEST PUSH1 0x3 SSTORE ADD SLOAD SWAP2 SLOAD SWAP2 DUP2 MLOAD SWAP4 DUP5 MSTORE PUSH1 0x20 DUP5 ADD MSTORE DUP3 ADD MSTORE TIMESTAMP PUSH1 0x60 DUP3 ADD MSTORE LOG2 JUMP JUMPDEST PUSH4 0x4E487B71 PUSH1 0xE0 SHL DUP2 MSTORE PUSH1 0x11 PUSH1 0x4 MSTORE PUSH1 0x24 SWAP1 REVERT JUMPDEST PUSH4 0x4E487B71 PUSH1 0xE0 SHL DUP9 MSTORE PUSH1 0x41 PUSH1 0x4 MSTORE PUSH1 0x24 DUP9 REVERT JUMPDEST PUSH1 0x1 SLOAD PUSH1 0x1 PUSH1 0x1 PUSH1 0xA0 SHL SUB AND CALLER SUB PUSH2 0x1432 JUMPI JUMP JUMPDEST PUSH1 0x40 MLOAD PUSH4 0x118CDAA7 PUSH1 0xE0 SHL DUP2 MSTORE CALLER PUSH1 0x4 DUP3 ADD MSTORE PUSH1 0x24 SWAP1 REVERT INVALID DUP12 0xE0 SMOD SWAP13 MSTORE8 AND MSIZE EQ SGT PREVRANDAO 0xCD 0x1F 0xD0 LOG4 CALLCODE DUP5 NOT BLOBHASH PUSH32 0x9722A3DAAFE3B4186F6B6457E0A2646970667358221220F8DF381DAF774808A1 PUSH21 0xCFAD129D12CC014D3D439411695C128D557855402D 0xC6 PUSH5 0x736F6C6343 STOP ADDMOD XOR STOP CALLER "},"methodIdentifiers":{"COMMIT_PHASE_DURATION()":"0d3c15cc","MAX_CONTRIBUTORS()":"9f4bca26","MIN_CONTRIBUTORS()":"21f932e9","MIN_ENTROPY_BITS()":"35c8c2c0","REPUTATION_THRESHOLD()":"42296a14","REVEAL_PHASE_DURATION()":"c988fb26","activeContributors()":"128f1733","blacklistedContributors(address)":"aceb5dc7","commitEntropy(bytes32)":"a9782377","completeRound(uint256)":"625b8186","contributorData(address)":"14d510d3","currentRoundId()":"9cbe5efd","emergencyPause(bool)":"e8f6940e","generateRandomNumber(bytes32,uint256)":"a80d4984","getContributorData(address)":"a789e29c","getCurrentRoundInfo()":"747dff42","getFinalSeed(uint256)":"530d58c8","getRoundContributors(uint256)":"837b4079","owner()":"8da5cb5b","paused()":"5c975abb","randomnessRounds(uint256)":"dd03c6f2","renounceOwnership()":"715018a6","revealEntropy(bytes32,bytes32)":"0652cb6f","setContributorBlacklist(address,bool)":"081d4639","startNewRound()":"bd85948c","totalContributors()":"f251fc8c","totalEntropyGenerated()":"f985f363","totalRounds()":"8a568299","transferOwnership(address)":"f2fde38b","updateReputation(address,uint256)":"f5c91a08"}}}}}