{"contracts/PizzaPartyLoyalty.sol":{"PizzaPartyLoyalty":{"abi":[{"inputs":[{"internalType":"address","name":"_vmfToken","type":"address"}],"stateMutability":"nonpayable","type":"constructor"},{"inputs":[],"name":"EnforcedPause","type":"error"},{"inputs":[],"name":"ExpectedPause","type":"error"},{"inputs":[{"internalType":"address","name":"owner","type":"address"}],"name":"OwnableInvalidOwner","type":"error"},{"inputs":[{"internalType":"address","name":"account","type":"address"}],"name":"OwnableUnauthorizedAccount","type":"error"},{"inputs":[],"name":"ReentrancyGuardReentrantCall","type":"error"},{"anonymous":false,"inputs":[{"indexed":true,"internalType":"address","name":"user","type":"address"},{"indexed":false,"internalType":"uint256","name":"oldTier","type":"uint256"},{"indexed":false,"internalType":"uint256","name":"newTier","type":"uint256"},{"indexed":false,"internalType":"string","name":"tierName","type":"string"}],"name":"LoyaltyTierUpdated","type":"event"},{"anonymous":false,"inputs":[{"indexed":true,"internalType":"address","name":"previousOwner","type":"address"},{"indexed":true,"internalType":"address","name":"newOwner","type":"address"}],"name":"OwnershipTransferred","type":"event"},{"anonymous":false,"inputs":[{"indexed":false,"internalType":"address","name":"account","type":"address"}],"name":"Paused","type":"event"},{"anonymous":false,"inputs":[{"indexed":true,"internalType":"address","name":"user","type":"address"},{"indexed":false,"internalType":"uint256","name":"points","type":"uint256"},{"indexed":false,"internalType":"string","name":"reason","type":"string"},{"indexed":false,"internalType":"uint256","name":"newTotal","type":"uint256"},{"indexed":false,"internalType":"uint256","name":"tier","type":"uint256"}],"name":"PointsEarned","type":"event"},{"anonymous":false,"inputs":[{"indexed":true,"internalType":"address","name":"user","type":"address"},{"indexed":false,"internalType":"uint256","name":"points","type":"uint256"},{"indexed":false,"internalType":"uint256","name":"rewardAmount","type":"uint256"},{"indexed":false,"internalType":"uint256","name":"newTotal","type":"uint256"}],"name":"PointsRedeemed","type":"event"},{"anonymous":false,"inputs":[{"indexed":true,"internalType":"address","name":"user","type":"address"},{"indexed":false,"internalType":"uint256","name":"oldStreak","type":"uint256"},{"indexed":false,"internalType":"uint256","name":"newStreak","type":"uint256"},{"indexed":false,"internalType":"uint256","name":"bonusPoints","type":"uint256"}],"name":"StreakUpdated","type":"event"},{"anonymous":false,"inputs":[{"indexed":false,"internalType":"uint256","name":"tierId","type":"uint256"},{"indexed":false,"internalType":"string","name":"name","type":"string"},{"indexed":false,"internalType":"uint256","name":"minPoints","type":"uint256"},{"indexed":false,"internalType":"uint256","name":"maxPoints","type":"uint256"},{"indexed":false,"internalType":"uint256","name":"rewardMultiplier","type":"uint256"}],"name":"TierCreated","type":"event"},{"anonymous":false,"inputs":[{"indexed":false,"internalType":"address","name":"account","type":"address"}],"name":"Unpaused","type":"event"},{"anonymous":false,"inputs":[{"indexed":true,"internalType":"address","name":"user","type":"address"},{"indexed":false,"internalType":"bool","name":"blacklisted","type":"bool"}],"name":"UserBlacklisted","type":"event"},{"inputs":[],"name":"MAX_STREAK_DAYS","outputs":[{"internalType":"uint256","name":"","type":"uint256"}],"stateMutability":"view","type":"function"},{"inputs":[],"name":"POINTS_PER_DOLLAR","outputs":[{"internalType":"uint256","name":"","type":"uint256"}],"stateMutability":"view","type":"function"},{"inputs":[],"name":"POINTS_PER_ENTRY","outputs":[{"internalType":"uint256","name":"","type":"uint256"}],"stateMutability":"view","type":"function"},{"inputs":[],"name":"POINT_EXPIRY_DAYS","outputs":[{"internalType":"uint256","name":"","type":"uint256"}],"stateMutability":"view","type":"function"},{"inputs":[],"name":"STREAK_BONUS","outputs":[{"internalType":"uint256","name":"","type":"uint256"}],"stateMutability":"view","type":"function"},{"inputs":[],"name":"activeUsers","outputs":[{"internalType":"uint256","name":"","type":"uint256"}],"stateMutability":"view","type":"function"},{"inputs":[{"internalType":"address","name":"user","type":"address"}],"name":"awardEntryPoints","outputs":[],"stateMutability":"nonpayable","type":"function"},{"inputs":[{"internalType":"address","name":"user","type":"address"},{"internalType":"uint256","name":"points","type":"uint256"},{"internalType":"string","name":"reason","type":"string"}],"name":"awardLoyaltyPoints","outputs":[],"stateMutability":"nonpayable","type":"function"},{"inputs":[{"internalType":"address","name":"user","type":"address"},{"internalType":"uint256","name":"vmfAmount","type":"uint256"},{"internalType":"uint256","name":"vmfPrice","type":"uint256"}],"name":"awardSpendingPoints","outputs":[],"stateMutability":"nonpayable","type":"function"},{"inputs":[{"internalType":"address","name":"","type":"address"}],"name":"blacklistedUsers","outputs":[{"internalType":"bool","name":"","type":"bool"}],"stateMutability":"view","type":"function"},{"inputs":[{"internalType":"address","name":"user","type":"address"},{"internalType":"uint256","name":"points","type":"uint256"}],"name":"calculateRewardAmount","outputs":[{"internalType":"uint256","name":"","type":"uint256"}],"stateMutability":"view","type":"function"},{"inputs":[{"internalType":"string","name":"name","type":"string"},{"internalType":"uint256","name":"minPoints","type":"uint256"},{"internalType":"uint256","name":"maxPoints","type":"uint256"},{"internalType":"uint256","name":"rewardMultiplier","type":"uint256"},{"internalType":"uint256","name":"bonusRewards","type":"uint256"}],"name":"createLoyaltyTier","outputs":[],"stateMutability":"nonpayable","type":"function"},{"inputs":[{"internalType":"bool","name":"pause","type":"bool"}],"name":"emergencyPause","outputs":[],"stateMutability":"nonpayable","type":"function"},{"inputs":[],"name":"emergencyWithdraw","outputs":[],"stateMutability":"nonpayable","type":"function"},{"inputs":[{"internalType":"uint256","name":"tierId","type":"uint256"}],"name":"getLoyaltyTier","outputs":[{"components":[{"internalType":"string","name":"name","type":"string"},{"internalType":"uint256","name":"minPoints","type":"uint256"},{"internalType":"uint256","name":"maxPoints","type":"uint256"},{"internalType":"uint256","name":"rewardMultiplier","type":"uint256"},{"internalType":"uint256","name":"bonusRewards","type":"uint256"},{"internalType":"bool","name":"isActive","type":"bool"}],"internalType":"struct PizzaPartyLoyalty.LoyaltyTier","name":"","type":"tuple"}],"stateMutability":"view","type":"function"},{"inputs":[{"internalType":"address","name":"user","type":"address"}],"name":"getUserLoyaltyData","outputs":[{"components":[{"internalType":"uint256","name":"totalPoints","type":"uint256"},{"internalType":"uint256","name":"currentTier","type":"uint256"},{"internalType":"uint256","name":"pointsEarned","type":"uint256"},{"internalType":"uint256","name":"pointsRedeemed","type":"uint256"},{"internalType":"uint256","name":"lastActivity","type":"uint256"},{"internalType":"uint256","name":"streakDays","type":"uint256"},{"internalType":"uint256","name":"totalRewards","type":"uint256"},{"internalType":"bool","name":"isActive","type":"bool"}],"internalType":"struct PizzaPartyLoyalty.UserLoyaltyData","name":"","type":"tuple"}],"stateMutability":"view","type":"function"},{"inputs":[{"internalType":"address","name":"user","type":"address"},{"internalType":"uint256","name":"startIndex","type":"uint256"},{"internalType":"uint256","name":"count","type":"uint256"}],"name":"getUserTransactions","outputs":[{"components":[{"internalType":"uint256","name":"timestamp","type":"uint256"},{"internalType":"uint256","name":"points","type":"uint256"},{"internalType":"string","name":"reason","type":"string"},{"internalType":"bool","name":"isEarned","type":"bool"},{"internalType":"uint256","name":"tierAtTime","type":"uint256"}],"internalType":"struct PizzaPartyLoyalty.PointTransaction[]","name":"","type":"tuple[]"}],"stateMutability":"view","type":"function"},{"inputs":[{"internalType":"uint256","name":"","type":"uint256"}],"name":"loyaltyTiers","outputs":[{"internalType":"string","name":"name","type":"string"},{"internalType":"uint256","name":"minPoints","type":"uint256"},{"internalType":"uint256","name":"maxPoints","type":"uint256"},{"internalType":"uint256","name":"rewardMultiplier","type":"uint256"},{"internalType":"uint256","name":"bonusRewards","type":"uint256"},{"internalType":"bool","name":"isActive","type":"bool"}],"stateMutability":"view","type":"function"},{"inputs":[],"name":"owner","outputs":[{"internalType":"address","name":"","type":"address"}],"stateMutability":"view","type":"function"},{"inputs":[],"name":"paused","outputs":[{"internalType":"bool","name":"","type":"bool"}],"stateMutability":"view","type":"function"},{"inputs":[{"internalType":"uint256","name":"points","type":"uint256"}],"name":"redeemPoints","outputs":[],"stateMutability":"nonpayable","type":"function"},{"inputs":[],"name":"renounceOwnership","outputs":[],"stateMutability":"nonpayable","type":"function"},{"inputs":[{"internalType":"address","name":"user","type":"address"},{"internalType":"bool","name":"blacklisted","type":"bool"}],"name":"setUserBlacklist","outputs":[],"stateMutability":"nonpayable","type":"function"},{"inputs":[],"name":"tierCount","outputs":[{"internalType":"uint256","name":"","type":"uint256"}],"stateMutability":"view","type":"function"},{"inputs":[],"name":"totalPointsIssued","outputs":[{"internalType":"uint256","name":"","type":"uint256"}],"stateMutability":"view","type":"function"},{"inputs":[],"name":"totalPointsRedeemed","outputs":[{"internalType":"uint256","name":"","type":"uint256"}],"stateMutability":"view","type":"function"},{"inputs":[],"name":"totalUsers","outputs":[{"internalType":"uint256","name":"","type":"uint256"}],"stateMutability":"view","type":"function"},{"inputs":[{"internalType":"address","name":"newOwner","type":"address"}],"name":"transferOwnership","outputs":[],"stateMutability":"nonpayable","type":"function"},{"inputs":[{"internalType":"uint256","name":"tierId","type":"uint256"},{"internalType":"string","name":"name","type":"string"},{"internalType":"uint256","name":"minPoints","type":"uint256"},{"internalType":"uint256","name":"maxPoints","type":"uint256"},{"internalType":"uint256","name":"rewardMultiplier","type":"uint256"},{"internalType":"uint256","name":"bonusRewards","type":"uint256"},{"internalType":"bool","name":"isActive","type":"bool"}],"name":"updateLoyaltyTier","outputs":[],"stateMutability":"nonpayable","type":"function"},{"inputs":[{"internalType":"address","name":"","type":"address"}],"name":"userLoyaltyData","outputs":[{"internalType":"uint256","name":"totalPoints","type":"uint256"},{"internalType":"uint256","name":"currentTier","type":"uint256"},{"internalType":"uint256","name":"pointsEarned","type":"uint256"},{"internalType":"uint256","name":"pointsRedeemed","type":"uint256"},{"internalType":"uint256","name":"lastActivity","type":"uint256"},{"internalType":"uint256","name":"streakDays","type":"uint256"},{"internalType":"uint256","name":"totalRewards","type":"uint256"},{"internalType":"bool","name":"isActive","type":"bool"}],"stateMutability":"view","type":"function"},{"inputs":[{"internalType":"address","name":"","type":"address"},{"internalType":"uint256","name":"","type":"uint256"}],"name":"userTransactions","outputs":[{"internalType":"uint256","name":"timestamp","type":"uint256"},{"internalType":"uint256","name":"points","type":"uint256"},{"internalType":"string","name":"reason","type":"string"},{"internalType":"bool","name":"isEarned","type":"bool"},{"internalType":"uint256","name":"tierAtTime","type":"uint256"}],"stateMutability":"view","type":"function"},{"inputs":[],"name":"vmfToken","outputs":[{"internalType":"contract IERC20","name":"","type":"address"}],"stateMutability":"view","type":"function"}],"evm":{"bytecode":{"linkReferences":{},"object":"60a034620008e657601f62002d6938819003918201601f19168301916001600160401b03831184841017620005f957808492602094604052833981010312620008e657516001600160a01b0380821691829003620008e65760016000553315620008cd5760018054336001600160a01b03198216811790925560405192167f8be0079c531659141344cd1fd0a4f28419497f9722a3daafe3b4186f6b6457e0600080a381156200088b5750608052620000b7620008eb565b620000c16200090b565b600681526542726f6e7a6560d01b60208201528152600060208201526103e760408201526064606082015260006080820152600160a08201526000805260026020526040600020815180519060018060401b038211620005f9578254600181811c9116801562000880575b6020821014620005d857601f811162000837575b50602090601f8311600114620007c357918060a09492600594600092620007b7575b50508160011b916000199060031b1c19161781555b6020840151600182015560408401516002820155606084015160038201556080840151600482015501910151151560ff80198354169116179055620001bb620008eb565b620001c56200090b565b600681526529b4b63b32b960d11b602082015281526103e86020820152611387604082015260786060820152600a6080820152600160a0820152600160005260026020526040600020815180519060018060401b038211620005f9578254600181811c91168015620007ac575b6020821014620005d857601f811162000763575b50602090601f8311600114620006ef57918060a09492600594600092620006e3575b50508160011b916000199060031b1c19161781555b6020840151600182015560408401516002820155606084015160038201556080840151600482015501910151151560ff80198354169116179055620002c1620008eb565b620002cb6200090b565b600481526311dbdb1960e21b602082015281526113886020820152614e1f60408201526096606082015260196080820152600160a0820152600260005260026020526040600020815180519060018060401b038211620005f9578254600181811c91168015620006d8575b6020821014620005d857601f81116200068f575b50602090601f83116001146200061b57918060a094926005946000926200060f575b50508160011b916000199060031b1c19161781555b6020840151600182015560408401516002820155606084015160038201556080840151600482015501910151151560ff80198354169116179055620003c5620008eb565b620003cf6200090b565b6008815267506c6174696e756d60c01b602080830191909152908252614e2082820152600019604083015260c8606083015260326080830152600160a0830152600360005260029052805180517f88601476d11616a71c5be67555bd1dff4b1cbf21533d2669b768b61518cfe1c3916001600160401b038211620005f9578254600181811c91168015620005ee575b6020821014620005d857601f81116200058f575b50602090601f83116001146200051b57918060a094926005946000926200050f575b50508160011b916000199060031b1c19161781555b6020840151600182015560408401516002820155606084015160038201556080840151600482015501910151151560ff80198354169116179055600460035560405161243d90816200092c823960805181818161080901528181610cfd0152611c1d0152f35b01519050388062000494565b908360005260206000209160005b601f19851681106200057657509260a0949260019260059583601f198116106200055c575b505050811b018155620004a9565b015160001960f88460031b161c191690553880806200054e565b9192602060018192868501518155019401920162000529565b836000526020600020601f840160051c810160208510620005d0575b601f830160051c82018110620005c357505062000472565b60008155600101620005ab565b5080620005ab565b634e487b7160e01b600052602260045260246000fd5b90607f16906200045e565b634e487b7160e01b600052604160045260246000fd5b0151905038806200036c565b908360005260206000209160005b601f19851681106200067657509260a0949260019260059583601f198116106200065c575b505050811b01815562000381565b015160001960f88460031b161c191690553880806200064e565b9192602060018192868501518155019401920162000629565b836000526020600020601f840160051c810160208510620006d0575b601f830160051c82018110620006c35750506200034a565b60008155600101620006ab565b5080620006ab565b90607f169062000336565b01519050388062000268565b908360005260206000209160005b601f19851681106200074a57509260a0949260019260059583601f1981161062000730575b505050811b0181556200027d565b015160001960f88460031b161c1916905538808062000722565b91926020600181928685015181550194019201620006fd565b836000526020600020601f840160051c810160208510620007a4575b601f830160051c820181106200079757505062000246565b600081556001016200077f565b50806200077f565b90607f169062000232565b01519050388062000162565b908360005260206000209160005b601f19851681106200081e57509260a0949260019260059583601f1981161062000804575b505050811b01815562000177565b015160001960f88460031b161c19169055388080620007f6565b91926020600181928685015181550194019201620007d1565b836000526020600020601f840160051c81016020851062000878575b601f830160051c820181106200086b57505062000140565b6000815560010162000853565b508062000853565b90607f16906200012c565b62461bcd60e51b815260206004820152601960248201527f496e76616c696420564d4620746f6b656e2061646472657373000000000000006044820152606490fd5b604051631e4fbdf760e01b815260006004820152602490fd5b600080fd5b6040519060c082016001600160401b03811183821017620005f957604052565b60408051919082016001600160401b03811183821017620005f95760405256fe608080604052600436101561001357600080fd5b60009060e08235811c9182630ddd02a114611d525750816319a39d3a14611c4c5781632086eefa14611c0757816322c0aec714611bc857816327de4ba814611bac57816337526fca1461198b5781634a59b40d1461177d578163541ff9f7146116335781635c975abb1461160d5781635f996501146115f0578163715018a6146115a457816374aa34de146115865781637677477a1461140f5781638da5cb5b146113e657816396b55f7d146113c85781639a0921f714611093578163b698e17d14611004578163b842ec4414610f61578163bcf6447514610f45578163bf92ee8814610f15578163bff1f9e114610ef7578163ccddf0b014610e78578163d968f51b14610e5c578163db2e21bc14610cc4578163e06ef5f414610c37578163e8f6940e14610b63578163e92e92e714610720578163f2fde38b146106a8578163f9a6dcfa1461058857508063fa5bd4d2146101c1578063fa690beb146101a35763fd1c88111461018357600080fd5b346101a057806003193601126101a0576020600754604051908152f35b80fd5b50346101a057806003193601126101a0576020600854604051908152f35b50346101a05760603660031901126101a0576101db611d6d565b6044356001600160401b038111610584576101fa903690600401611e75565b906102036121f7565b61020b6122f7565b61021361231a565b6001600160a01b0381168352600660205260408320546102369060ff1615612150565b6102436024351515612192565b6102576001600160a01b03821615156120b8565b60018060a01b0381168352600460205260408320916102796024358454611fcd565b83556002830161028c6024358254611fcd565b905542600484015560078301805460ff811615610557575b505060018301908154936102b8815461233b565b8093556102c9602435600754611fcd565b6007556040516102d881611e09565b42815260243560208201528260408201526001606082015283608082015260018060a01b038516600052600560205260406000208054600160401b81101561052b5761032991600182018155611f9b565b91909161054157805182556020810151600183015560408101518051906001600160401b03821161052b576103616002850154611ecb565b601f81116104e4575b50602090601f831160011461045e5792826004936080936000805160206123c8833981519152989796600092610453575b50508160011b916000199060031b1c19161760028501555b6103c660608201511515600386016120a7565b015191015554916103ea604051916024358352608060208401526080830190611dad565b9260408201528360608201528060018060a01b038616930390a2808303610414575b836001815580f35b6000805160206123a88339815191529181855260026020526104486040862060405193849360018060a01b031696846121d8565b0390a238808061040c565b01519050388061039b565b906002850160005260206000209160005b601f19851681106104cc5750836080936000805160206123c883398151915298979693600193600497601f198116106104b3575b505050811b0160028501556103b3565b015160001960f88460031b161c191690553880806104a3565b9192602060018192868501518155019401920161046f565b600285016000526020600020601f840160051c810160208510610524575b601f830160051c8201811061051857505061036a565b60008155600101610502565b5080610502565b634e487b7160e01b600052604160045260246000fd5b634e487b7160e01b600052600060045260246000fd5b60ff1916600117905560095461056c9061210e565b60095561057a600a5461210e565b600a5538806102a4565b8280fd5b9050346106a45760208060031936011261058457604060c0936004358160a084516105b281611e24565b606081528287820152828682015282606082015282608082015201526105db6003548210612028565b808252600284526105f460ff6005858520015416612066565b81526002835220916040519261060984611e24565b6040516106218161061a8185611f05565b0382611e52565b845260018101549280850193845260028201546040860190815261067f6003840154926060880193845260ff600560048701549660808b019788520154169560a089019615158752604051998a99838b5251928a0152880190611dad565b945160408701525160608601525160808501525160a084015251151560c08301520390f35b5080fd5b82346101a05760203660031901126101a0576106c2611d6d565b6106ca6121f7565b6001600160a01b0390811690811561070757600180546001600160a01b031981168417909155166000805160206123e8833981519152600080a380f35b604051631e4fbdf760e01b815260048101849052602490fd5b82346101a05760203660031901126101a05761073a6122f7565b61074261231a565b338152600660205261075b60ff60408320541615612150565b6107686004351515612192565b3381526004602052604081208054906004358210610b285761079961078f60043533612223565b9260043590611ff0565b91828255600382016107ae6004358254611fcd565b9055600682016107bf828254611fcd565b905560018201916107d183549461233b565b8093556107e2600435600854611fcd565b60085560405163a9059cbb60e01b815260208180610804863360048401612135565b0381897f00000000000000000000000000000000000000000000000000000000000000006001600160a01b03165af1908115610b1d578691610aee575b5015610ab057604080519081016001600160401b0381118282101761052b5760405260118152702837b4b73a39902932b232b6b83a34b7b760791b60208201526040519061088e82611e09565b428252600435602083015260408201526000606082015283608082015233600052600560205260406000208054600160401b81101561052b576108d691600182018155611f9b565b91909161054157805182556020810151600183015560408101518051906001600160401b03821161052b5761090e6002850154611ecb565b601f8111610a69575b50602090601f83116001146109f4579180600494926080946000926109e9575b50508160011b916000199060031b1c19161760028501555b61096260608201511515600386016120a7565b015191015554604051916004358352602083015260408201527f90138e15f43ce1520bd445151b279c8047b276f6dc4d41f9fae44cd7ecfe4e7e60603392a28082036109b1575b826001815580f35b806000805160206123a8833981519152918452600260205260408420906109df6040519283923396846121d8565b0390a281806109a9565b015190508b80610937565b906002850160005260206000209160005b601f1985168110610a515750926004949260019260809583601f19811610610a38575b505050811b01600285015561094f565b015160001960f88460031b161c191690558b8080610a28565b91926020600181928685015181550194019201610a05565b600285016000526020600020601f840160051c810160208510610aa9575b601f830160051c82018110610a9d575050610917565b60008155600101610a87565b5080610a87565b60405162461bcd60e51b815260206004820152601660248201527514995dd85c99081d1c985b9cd9995c8819985a5b195960521b6044820152606490fd5b610b10915060203d602011610b16575b610b088183611e52565b81019061211d565b86610841565b503d610afe565b6040513d88823e3d90fd5b60405162461bcd60e51b8152602060048201526013602482015272496e73756666696369656e7420706f696e747360681b6044820152606490fd5b82346101a05760203660031901126101a0576004358015158103610c3257610b896121f7565b15610bd857610b9661231a565b6001805460ff60a01b1916600160a01b1790556040513381527f62e78cea01bee320cd4e420270b5ea74000d11b0c9f74754ebdbfc544b05a25890602090a180f35b60015460ff8160a01c1615610c205760ff60a01b19166001556040513381527f5db9ee0a495bf2e6ff9c91a7834c1ba4fdd244a5e8aa4e537bd38aeae4b073aa90602090a180f35b604051638dfc202b60e01b8152600490fd5b600080fd5b9050346106a45760203660031901126106a457610100916040906001600160a01b03610c61611d6d565b168152600460205220908154916001810154906002810154600382015460048301549060058401549260ff600760068701549601541695604051988952602089015260408801526060870152608086015260a085015260c0840152151590820152f35b82346101a057806003193601126101a057610cdd6121f7565b6040516370a0823160e01b81523060048201526020906001600160a01b037f00000000000000000000000000000000000000000000000000000000000000008116908383602481855afa928315610e51578593610e1e575b508215610de057918391610d6493600154168660405180968195829463a9059cbb60e01b845260048401612135565b03925af1908115610dd5578391610db8575b5015610d80575080f35b6064906040519062461bcd60e51b82526004820152601160248201527015da5d1a191c985dd85b0819985a5b1959607a1b6044820152fd5b610dcf9150823d8411610b1657610b088183611e52565b83610d76565b6040513d85823e3d90fd5b60405162461bcd60e51b81526004810185905260166024820152754e6f2062616c616e636520746f20776974686472617760501b6044820152606490fd5b9092508381813d8311610e4a575b610e368183611e52565b81010312610e4657519185610d35565b8480fd5b503d610e2c565b6040513d87823e3d90fd5b82346101a057806003193601126101a057602060405160058152f35b82346101a05760403660031901126101a057610e92611d6d565b6024359081151590818303610c32577f5b7ef9d8e7fd7ff1dae13005391bc3aa7cc048c7ba41af348e5da4dcbe7323e091610eed602092610ed16121f7565b6001600160a01b031680875260068452604087209095906120a7565b604051908152a280f35b82346101a057806003193601126101a0576020600954604051908152f35b82346101a05760403660031901126101a0576020610f3d610f34611d6d565b60243590612223565b604051908152f35b82346101a057806003193601126101a057602060405160028152f35b82346101a05760403660031901126101a057610f7b611d6d565b6001600160a01b031681526005602052604081208054602435919082101561058457610fa79250611f9b565b508054600182015491604051610fc48161061a8160028601611f05565b610ff3600460ff600385015416930154916040519586958652602086015260a0604086015260a0850190611dad565b911515606084015260808301520390f35b82346101a05760203660031901126101a057604061107391600435815260026020522060405190611040826110398184611f05565b0383611e52565b600181015490600281015490600381015460ff60056004840154930154169260405196879660c0885260c0880190611dad565b946020870152604086015260608501526080840152151560a08301520390f35b82346101a05760a03660031901126101a0576004356001600160401b0381116106a4576110c4903690600401611e75565b6110cc6121f7565b80511561138757604435602435101561134c57606435156112fc576040516110f381611e24565b8181526024356020820152604435604082015260643560608201526084356080820152600160a0820152600354835260026020526040832090805180519060018060401b0382116112e8576111488454611ecb565b601f81116112a7575b50602090601f8311600114611233576111c0938361122297969460059460a0948b92611228575b50508160011b916000199060031b1c19161784555b602081015160018501556040810151600285015560608101516003850155608081015160048501550151151591016120a7565b7f6a11b609fa46ee9a457a505fdbab82d52b066e85506e8bcfb821f88df01e30a86112026003549260405191829185835260a0602084015260a0830190611dad565b6024356040830152604435606083015260643560808301520390a161210e565b60035580f35b015190508a80611178565b908487526020872091875b601f198516811061128f57509360018460059460a0946111c0986112229b9a98601f19811610611276575b505050811b01845561118d565b015160001960f88460031b161c191690558a8080611269565b9192602060018192868501518155019401920161123e565b84875260208720601f840160051c8101602085106112e1575b601f830160051c820181106112d6575050611151565b8881556001016112c0565b50806112c0565b634e487b7160e01b86526041600452602486fd5b60405162461bcd60e51b815260206004820152602260248201527f526577617264206d756c7469706c696572206d75737420626520706f73697469604482015261766560f01b6064820152608490fd5b60405162461bcd60e51b8152602060048201526013602482015272496e76616c696420706f696e742072616e676560681b6044820152606490fd5b60405162461bcd60e51b815260206004820152601960248201527854696572206e616d652063616e6e6f7420626520656d70747960381b6044820152606490fd5b82346101a057806003193601126101a0576020600354604051908152f35b82346101a057806003193601126101a0576001546040516001600160a01b039091168152602090f35b82346101a05761141e36611d83565b92916114286121f7565b6001600160a01b03169061143d8215156120b8565b80156115475783156115095761145d670de0b6b3a76400009485926120fb565b0492600a840293808504600a14901517156114f5578293048061147e575050f35b303b156114f15760405191637d2dea6960e11b83526004830152602482015260606044820152600c60648201526b564d46205370656e64696e6760a01b6084820152818160a48183305af180156114e6576114d65750f35b6114df90611e3f565b6101a05780f35b6040513d84823e3d90fd5b5050fd5b634e487b7160e01b83526011600452602483fd5b60405162461bcd60e51b81526020600482015260166024820152755072696365206d75737420626520706f73697469766560501b6044820152606490fd5b60405162461bcd60e51b8152602060048201526017602482015276416d6f756e74206d75737420626520706f73697469766560481b6044820152606490fd5b82346101a057806003193601126101a0576020600a54604051908152f35b82346101a057806003193601126101a0576115bd6121f7565b600180546001600160a01b031981169091556000906001600160a01b03166000805160206123e88339815191528280a380f35b82346101a057806003193601126101a057602060405161016d8152f35b82346101a057806003193601126101a057602060ff60015460a01c166040519015158152f35b82346101a05760203660031901126101a05761164d611d6d565b6116556121f7565b6001600160a01b03169061166a8215156120b8565b81815260046020526005604082200154601e8111611775575b8060011b9080820460021490151715611761576005018060051161176157303b156106a45760405190637d2dea6960e11b8252836004830152602482015260606044820152600a60648201526947616d6520456e74727960b01b6084820152818160a48183305af180156114e657611752575b50908152600460205260408120600481019062015180611717835442611ff0565b1161174657600501601e61172b825461210e565b8083551161173c575b505b42905580f35b601e905582611734565b60056001910155611736565b61175b90611e3f565b826116f6565b634e487b7160e01b82526011600452602482fd5b50601e611683565b9050346106a4573660031901126101a0576004356001600160401b03602435818111611987576117b1903690600401611e75565b9160c43591821515809303610e46576117c86121f7565b6117d56003548310612028565b818552602090600282526117f260ff600560408920015416612066565b604051946117ff86611e24565b855281850160443581526040860191606435835260608701936084358552608088019560a435875260a0890197885289526002815260408920975180519283116119735761184d8954611ecb565b601f8111611930575b5081601f84116001146118bf575091806118b1999896949260059896948c926118b4575b50508160011b916000199060031b1c19161787555b51600187015551600286015551600385015551600484015551151591016120a7565b80f35b01519050388061187a565b9190601f1984168a8c52838c20938c905b82821061191857505092600192859260059a98966118b19d9c9a9896106118ff575b505050811b01875561188f565b015160001960f88460031b161c191690553880806118f2565b806001869782949787015181550196019401906118d0565b898b52828b20601f850160051c810191848610611969575b601f0160051c01905b81811061195e5750611856565b8b8155600101611951565b9091508190611948565b634e487b7160e01b8a52604160045260248afd5b8380fd5b82346101a05761199a36611d83565b9160018060a01b0316835260209160058352604084209182549182821015611b71576119c69082611fcd565b91808311611b69575b506119dd8183969596611ff0565b92611a006119ea85611ffd565b946119f86040519687611e52565b808652611ffd565b601f1901855b818110611b30575050815b838110611aac575050505060405191838301848452825180915260408401948060408360051b870101940192955b828710611a4c5785850386f35b909192938280600192603f19898203018552875190611a8660a0835183528484015185840152604084015190806040850152830190611dad565b916060808201511515908301526080809101519101529601920196019592919092611a3f565b80611b26611abf600193859a999a611f9b565b50611aca8684611ff0565b90600460405191611ada83611e09565b80548352868101548c840152604051611afa8161061a8160028601611f05565b604084015260ff6003820154161515606084015201546080820152611b1f828a612014565b5287612014565b5001959495611a11565b96809697604051611b4081611e09565b898152898382015289606080604084015282015289608082015282828901015201969596611a06565b9150856119cf565b60405162461bcd60e51b8152600481018690526013602482015272092dcecc2d8d2c840e6e8c2e4e840d2dcc8caf606b1b6044820152606490fd5b82346101a057806003193601126101a0576020604051601e8152f35b82346101a05760203660031901126101a05760209060ff906040906001600160a01b03611bf3611d6d565b168152600684522054166040519015158152f35b82346101a057806003193601126101a0576040517f00000000000000000000000000000000000000000000000000000000000000006001600160a01b03168152602090f35b9050346106a45760203660031901126106a457604061010092611c6d611d6d565b81848451611c7a81611ded565b82815282602082015282868201528260608201528260808201528260a08201528260c0820152015260018060a01b0316815260046020522090604051611cbf81611ded565b8254928382526001810154602083019081526002820154604084019081526003830154606085019081526004840154916080860192835260058501549360a087019485528760ff600760068901549860c08b01998a52015416970196151587526040519889525160208901525160408801525160608701525160808601525160a08501525160c084015251151590820152f35b8390346106a457816003193601126106a45780600a60209252f35b600435906001600160a01b0382168203610c3257565b6060906003190112610c32576004356001600160a01b0381168103610c3257906024359060443590565b919082519283825260005b848110611dd9575050826000602080949584010152601f8019910116010190565b602081830181015184830182015201611db8565b61010081019081106001600160401b0382111761052b57604052565b60a081019081106001600160401b0382111761052b57604052565b60c081019081106001600160401b0382111761052b57604052565b6001600160401b03811161052b57604052565b601f909101601f19168101906001600160401b0382119082101761052b57604052565b81601f82011215610c32578035906001600160401b03821161052b5760405192611ea9601f8401601f191660200185611e52565b82845260208383010111610c3257816000926020809301838601378301015290565b90600182811c92168015611efb575b6020831014611ee557565b634e487b7160e01b600052602260045260246000fd5b91607f1691611eda565b805460009392611f1482611ecb565b91828252602093600191600181169081600014611f7c5750600114611f3b575b5050505050565b90939495506000929192528360002092846000945b838610611f6857505050500101903880808080611f34565b805485870183015294019385908201611f50565b60ff19168685015250505090151560051b010191503880808080611f34565b8054821015611fb7576000526005602060002091020190600090565b634e487b7160e01b600052603260045260246000fd5b91908201809211611fda57565b634e487b7160e01b600052601160045260246000fd5b91908203918211611fda57565b6001600160401b03811161052b5760051b60200190565b8051821015611fb75760209160051b010190565b1561202f57565b60405162461bcd60e51b815260206004820152600f60248201526e125b9d985b1a59081d1a595c881251608a1b6044820152606490fd5b1561206d57565b60405162461bcd60e51b815260206004820152601260248201527154696572206973206e6f742061637469766560701b6044820152606490fd5b9060ff801983541691151516179055565b156120bf57565b60405162461bcd60e51b8152602060048201526014602482015273496e76616c69642075736572206164647265737360601b6044820152606490fd5b81810292918115918404141715611fda57565b6000198114611fda5760010190565b90816020910312610c3257518015158103610c325790565b6001600160a01b039091168152602081019190915260400190565b1561215757565b60405162461bcd60e51b8152602060048201526013602482015272155cd95c881a5cc8189b1858dadb1a5cdd1959606a1b6044820152606490fd5b1561219957565b60405162461bcd60e51b8152602060048201526017602482015276506f696e7473206d75737420626520706f73697469766560481b6044820152606490fd5b6121f49392606092825260208201528160408201520190611f05565b90565b6001546001600160a01b0316330361220b57565b60405163118cdaa760e01b8152336004820152602490fd5b6001600160a01b03166000908152600460205260408120600101546003549193929181108015906122dd575b6122d6575b8352600260205260408320670de0b6b3a764000091828102908082048414901517156122c257606461228f60049282600386015491046120fb565b049101548281029281840414901517156122ae576121f4929350611fcd565b634e487b7160e01b84526011600452602484fd5b634e487b7160e01b85526011600452602485fd5b5082612254565b50808452600260205260ff6005604086200154161561224f565b600260005414612308576002600055565b604051633ee5aeb560e01b8152600490fd5b60ff60015460a01c1661232957565b60405163d93c066560e01b8152600490fd5b6003549060005b82811061235157505050600090565b8060005260028060205260406000209060ff6005830154169182612398575b8261238a575b505061238457600101612342565b91505090565b015483111590503880612376565b6001810154851015925061237056fe5f2aaefdbf8c253e7a8a9f91ed407fe3afc0c188192d314fc5791519222526a9d2079cbd2ae204cb11e67beabb9f61b660239894de98ac292f27bfc385a81f208be0079c531659141344cd1fd0a4f28419497f9722a3daafe3b4186f6b6457e0a26469706673582212209910240130b9d7911c0c040f8b15c3b58def04beeaf7b95ae40039d35e676e2364736f6c63430008180033","opcodes":"PUSH1 0xA0 CALLVALUE PUSH3 0x8E6 JUMPI PUSH1 0x1F PUSH3 0x2D69 CODESIZE DUP2 SWAP1 SUB SWAP2 DUP3 ADD PUSH1 0x1F NOT AND DUP4 ADD SWAP2 PUSH1 0x1 PUSH1 0x1 PUSH1 0x40 SHL SUB DUP4 GT DUP5 DUP5 LT OR PUSH3 0x5F9 JUMPI DUP1 DUP5 SWAP3 PUSH1 0x20 SWAP5 PUSH1 0x40 MSTORE DUP4 CODECOPY DUP2 ADD SUB SLT PUSH3 0x8E6 JUMPI MLOAD PUSH1 0x1 PUSH1 0x1 PUSH1 0xA0 SHL SUB DUP1 DUP3 AND SWAP2 DUP3 SWAP1 SUB PUSH3 0x8E6 JUMPI PUSH1 0x1 PUSH1 0x0 SSTORE CALLER ISZERO PUSH3 0x8CD JUMPI PUSH1 0x1 DUP1 SLOAD CALLER PUSH1 0x1 PUSH1 0x1 PUSH1 0xA0 SHL SUB NOT DUP3 AND DUP2 OR SWAP1 SWAP3 SSTORE PUSH1 0x40 MLOAD SWAP3 AND PUSH32 0x8BE0079C531659141344CD1FD0A4F28419497F9722A3DAAFE3B4186F6B6457E0 PUSH1 0x0 DUP1 LOG3 DUP2 ISZERO PUSH3 0x88B JUMPI POP PUSH1 0x80 MSTORE PUSH3 0xB7 PUSH3 0x8EB JUMP JUMPDEST PUSH3 0xC1 PUSH3 0x90B JUMP JUMPDEST PUSH1 0x6 DUP2 MSTORE PUSH6 0x42726F6E7A65 PUSH1 0xD0 SHL PUSH1 0x20 DUP3 ADD MSTORE DUP2 MSTORE PUSH1 0x0 PUSH1 0x20 DUP3 ADD MSTORE PUSH2 0x3E7 PUSH1 0x40 DUP3 ADD MSTORE PUSH1 0x64 PUSH1 0x60 DUP3 ADD MSTORE PUSH1 0x0 PUSH1 0x80 DUP3 ADD MSTORE PUSH1 0x1 PUSH1 0xA0 DUP3 ADD MSTORE PUSH1 0x0 DUP1 MSTORE PUSH1 0x2 PUSH1 0x20 MSTORE PUSH1 0x40 PUSH1 0x0 KECCAK256 DUP2 MLOAD DUP1 MLOAD SWAP1 PUSH1 0x1 DUP1 PUSH1 0x40 SHL SUB DUP3 GT PUSH3 0x5F9 JUMPI DUP3 SLOAD PUSH1 0x1 DUP2 DUP2 SHR SWAP2 AND DUP1 ISZERO PUSH3 0x880 JUMPI JUMPDEST PUSH1 0x20 DUP3 LT EQ PUSH3 0x5D8 JUMPI PUSH1 0x1F DUP2 GT PUSH3 0x837 JUMPI JUMPDEST POP PUSH1 0x20 SWAP1 PUSH1 0x1F DUP4 GT PUSH1 0x1 EQ PUSH3 0x7C3 JUMPI SWAP2 DUP1 PUSH1 0xA0 SWAP5 SWAP3 PUSH1 0x5 SWAP5 PUSH1 0x0 SWAP3 PUSH3 0x7B7 JUMPI JUMPDEST POP POP DUP2 PUSH1 0x1 SHL SWAP2 PUSH1 0x0 NOT SWAP1 PUSH1 0x3 SHL SHR NOT AND OR DUP2 SSTORE JUMPDEST PUSH1 0x20 DUP5 ADD MLOAD PUSH1 0x1 DUP3 ADD SSTORE PUSH1 0x40 DUP5 ADD MLOAD PUSH1 0x2 DUP3 ADD SSTORE PUSH1 0x60 DUP5 ADD MLOAD PUSH1 0x3 DUP3 ADD SSTORE PUSH1 0x80 DUP5 ADD MLOAD PUSH1 0x4 DUP3 ADD SSTORE ADD SWAP2 ADD MLOAD ISZERO ISZERO PUSH1 0xFF DUP1 NOT DUP4 SLOAD AND SWAP2 AND OR SWAP1 SSTORE PUSH3 0x1BB PUSH3 0x8EB JUMP JUMPDEST PUSH3 0x1C5 PUSH3 0x90B JUMP JUMPDEST PUSH1 0x6 DUP2 MSTORE PUSH6 0x29B4B63B32B9 PUSH1 0xD1 SHL PUSH1 0x20 DUP3 ADD MSTORE DUP2 MSTORE PUSH2 0x3E8 PUSH1 0x20 DUP3 ADD MSTORE PUSH2 0x1387 PUSH1 0x40 DUP3 ADD MSTORE PUSH1 0x78 PUSH1 0x60 DUP3 ADD MSTORE PUSH1 0xA PUSH1 0x80 DUP3 ADD MSTORE PUSH1 0x1 PUSH1 0xA0 DUP3 ADD MSTORE PUSH1 0x1 PUSH1 0x0 MSTORE PUSH1 0x2 PUSH1 0x20 MSTORE PUSH1 0x40 PUSH1 0x0 KECCAK256 DUP2 MLOAD DUP1 MLOAD SWAP1 PUSH1 0x1 DUP1 PUSH1 0x40 SHL SUB DUP3 GT PUSH3 0x5F9 JUMPI DUP3 SLOAD PUSH1 0x1 DUP2 DUP2 SHR SWAP2 AND DUP1 ISZERO PUSH3 0x7AC JUMPI JUMPDEST PUSH1 0x20 DUP3 LT EQ PUSH3 0x5D8 JUMPI PUSH1 0x1F DUP2 GT PUSH3 0x763 JUMPI JUMPDEST POP PUSH1 0x20 SWAP1 PUSH1 0x1F DUP4 GT PUSH1 0x1 EQ PUSH3 0x6EF JUMPI SWAP2 DUP1 PUSH1 0xA0 SWAP5 SWAP3 PUSH1 0x5 SWAP5 PUSH1 0x0 SWAP3 PUSH3 0x6E3 JUMPI JUMPDEST POP POP DUP2 PUSH1 0x1 SHL SWAP2 PUSH1 0x0 NOT SWAP1 PUSH1 0x3 SHL SHR NOT AND OR DUP2 SSTORE JUMPDEST PUSH1 0x20 DUP5 ADD MLOAD PUSH1 0x1 DUP3 ADD SSTORE PUSH1 0x40 DUP5 ADD MLOAD PUSH1 0x2 DUP3 ADD SSTORE PUSH1 0x60 DUP5 ADD MLOAD PUSH1 0x3 DUP3 ADD SSTORE PUSH1 0x80 DUP5 ADD MLOAD PUSH1 0x4 DUP3 ADD SSTORE ADD SWAP2 ADD MLOAD ISZERO ISZERO PUSH1 0xFF DUP1 NOT DUP4 SLOAD AND SWAP2 AND OR SWAP1 SSTORE PUSH3 0x2C1 PUSH3 0x8EB JUMP JUMPDEST PUSH3 0x2CB PUSH3 0x90B JUMP JUMPDEST PUSH1 0x4 DUP2 MSTORE PUSH4 0x11DBDB19 PUSH1 0xE2 SHL PUSH1 0x20 DUP3 ADD MSTORE DUP2 MSTORE PUSH2 0x1388 PUSH1 0x20 DUP3 ADD MSTORE PUSH2 0x4E1F PUSH1 0x40 DUP3 ADD MSTORE PUSH1 0x96 PUSH1 0x60 DUP3 ADD MSTORE PUSH1 0x19 PUSH1 0x80 DUP3 ADD MSTORE PUSH1 0x1 PUSH1 0xA0 DUP3 ADD MSTORE PUSH1 0x2 PUSH1 0x0 MSTORE PUSH1 0x2 PUSH1 0x20 MSTORE PUSH1 0x40 PUSH1 0x0 KECCAK256 DUP2 MLOAD DUP1 MLOAD SWAP1 PUSH1 0x1 DUP1 PUSH1 0x40 SHL SUB DUP3 GT PUSH3 0x5F9 JUMPI DUP3 SLOAD PUSH1 0x1 DUP2 DUP2 SHR SWAP2 AND DUP1 ISZERO PUSH3 0x6D8 JUMPI JUMPDEST PUSH1 0x20 DUP3 LT EQ PUSH3 0x5D8 JUMPI PUSH1 0x1F DUP2 GT PUSH3 0x68F JUMPI JUMPDEST POP PUSH1 0x20 SWAP1 PUSH1 0x1F DUP4 GT PUSH1 0x1 EQ PUSH3 0x61B JUMPI SWAP2 DUP1 PUSH1 0xA0 SWAP5 SWAP3 PUSH1 0x5 SWAP5 PUSH1 0x0 SWAP3 PUSH3 0x60F JUMPI JUMPDEST POP POP DUP2 PUSH1 0x1 SHL SWAP2 PUSH1 0x0 NOT SWAP1 PUSH1 0x3 SHL SHR NOT AND OR DUP2 SSTORE JUMPDEST PUSH1 0x20 DUP5 ADD MLOAD PUSH1 0x1 DUP3 ADD SSTORE PUSH1 0x40 DUP5 ADD MLOAD PUSH1 0x2 DUP3 ADD SSTORE PUSH1 0x60 DUP5 ADD MLOAD PUSH1 0x3 DUP3 ADD SSTORE PUSH1 0x80 DUP5 ADD MLOAD PUSH1 0x4 DUP3 ADD SSTORE ADD SWAP2 ADD MLOAD ISZERO ISZERO PUSH1 0xFF DUP1 NOT DUP4 SLOAD AND SWAP2 AND OR SWAP1 SSTORE PUSH3 0x3C5 PUSH3 0x8EB JUMP JUMPDEST PUSH3 0x3CF PUSH3 0x90B JUMP JUMPDEST PUSH1 0x8 DUP2 MSTORE PUSH8 0x506C6174696E756D PUSH1 0xC0 SHL PUSH1 0x20 DUP1 DUP4 ADD SWAP2 SWAP1 SWAP2 MSTORE SWAP1 DUP3 MSTORE PUSH2 0x4E20 DUP3 DUP3 ADD MSTORE PUSH1 0x0 NOT PUSH1 0x40 DUP4 ADD MSTORE PUSH1 0xC8 PUSH1 0x60 DUP4 ADD MSTORE PUSH1 0x32 PUSH1 0x80 DUP4 ADD MSTORE PUSH1 0x1 PUSH1 0xA0 DUP4 ADD MSTORE PUSH1 0x3 PUSH1 0x0 MSTORE PUSH1 0x2 SWAP1 MSTORE DUP1 MLOAD DUP1 MLOAD PUSH32 0x88601476D11616A71C5BE67555BD1DFF4B1CBF21533D2669B768B61518CFE1C3 SWAP2 PUSH1 0x1 PUSH1 0x1 PUSH1 0x40 SHL SUB DUP3 GT PUSH3 0x5F9 JUMPI DUP3 SLOAD PUSH1 0x1 DUP2 DUP2 SHR SWAP2 AND DUP1 ISZERO PUSH3 0x5EE JUMPI JUMPDEST PUSH1 0x20 DUP3 LT EQ PUSH3 0x5D8 JUMPI PUSH1 0x1F DUP2 GT PUSH3 0x58F JUMPI JUMPDEST POP PUSH1 0x20 SWAP1 PUSH1 0x1F DUP4 GT PUSH1 0x1 EQ PUSH3 0x51B JUMPI SWAP2 DUP1 PUSH1 0xA0 SWAP5 SWAP3 PUSH1 0x5 SWAP5 PUSH1 0x0 SWAP3 PUSH3 0x50F JUMPI JUMPDEST POP POP DUP2 PUSH1 0x1 SHL SWAP2 PUSH1 0x0 NOT SWAP1 PUSH1 0x3 SHL SHR NOT AND OR DUP2 SSTORE JUMPDEST PUSH1 0x20 DUP5 ADD MLOAD PUSH1 0x1 DUP3 ADD SSTORE PUSH1 0x40 DUP5 ADD MLOAD PUSH1 0x2 DUP3 ADD SSTORE PUSH1 0x60 DUP5 ADD MLOAD PUSH1 0x3 DUP3 ADD SSTORE PUSH1 0x80 DUP5 ADD MLOAD PUSH1 0x4 DUP3 ADD SSTORE ADD SWAP2 ADD MLOAD ISZERO ISZERO PUSH1 0xFF DUP1 NOT DUP4 SLOAD AND SWAP2 AND OR SWAP1 SSTORE PUSH1 0x4 PUSH1 0x3 SSTORE PUSH1 0x40 MLOAD PUSH2 0x243D SWAP1 DUP2 PUSH3 0x92C DUP3 CODECOPY PUSH1 0x80 MLOAD DUP2 DUP2 DUP2 PUSH2 0x809 ADD MSTORE DUP2 DUP2 PUSH2 0xCFD ADD MSTORE PUSH2 0x1C1D ADD MSTORE RETURN JUMPDEST ADD MLOAD SWAP1 POP CODESIZE DUP1 PUSH3 0x494 JUMP JUMPDEST SWAP1 DUP4 PUSH1 0x0 MSTORE PUSH1 0x20 PUSH1 0x0 KECCAK256 SWAP2 PUSH1 0x0 JUMPDEST PUSH1 0x1F NOT DUP6 AND DUP2 LT PUSH3 0x576 JUMPI POP SWAP3 PUSH1 0xA0 SWAP5 SWAP3 PUSH1 0x1 SWAP3 PUSH1 0x5 SWAP6 DUP4 PUSH1 0x1F NOT DUP2 AND LT PUSH3 0x55C JUMPI JUMPDEST POP POP POP DUP2 SHL ADD DUP2 SSTORE PUSH3 0x4A9 JUMP JUMPDEST ADD MLOAD PUSH1 0x0 NOT PUSH1 0xF8 DUP5 PUSH1 0x3 SHL AND SHR NOT AND SWAP1 SSTORE CODESIZE DUP1 DUP1 PUSH3 0x54E JUMP JUMPDEST SWAP2 SWAP3 PUSH1 0x20 PUSH1 0x1 DUP2 SWAP3 DUP7 DUP6 ADD MLOAD DUP2 SSTORE ADD SWAP5 ADD SWAP3 ADD PUSH3 0x529 JUMP JUMPDEST DUP4 PUSH1 0x0 MSTORE PUSH1 0x20 PUSH1 0x0 KECCAK256 PUSH1 0x1F DUP5 ADD PUSH1 0x5 SHR DUP2 ADD PUSH1 0x20 DUP6 LT PUSH3 0x5D0 JUMPI JUMPDEST PUSH1 0x1F DUP4 ADD PUSH1 0x5 SHR DUP3 ADD DUP2 LT PUSH3 0x5C3 JUMPI POP POP PUSH3 0x472 JUMP JUMPDEST PUSH1 0x0 DUP2 SSTORE PUSH1 0x1 ADD PUSH3 0x5AB JUMP JUMPDEST POP DUP1 PUSH3 0x5AB JUMP JUMPDEST PUSH4 0x4E487B71 PUSH1 0xE0 SHL PUSH1 0x0 MSTORE PUSH1 0x22 PUSH1 0x4 MSTORE PUSH1 0x24 PUSH1 0x0 REVERT JUMPDEST SWAP1 PUSH1 0x7F AND SWAP1 PUSH3 0x45E JUMP JUMPDEST PUSH4 0x4E487B71 PUSH1 0xE0 SHL PUSH1 0x0 MSTORE PUSH1 0x41 PUSH1 0x4 MSTORE PUSH1 0x24 PUSH1 0x0 REVERT JUMPDEST ADD MLOAD SWAP1 POP CODESIZE DUP1 PUSH3 0x36C JUMP JUMPDEST SWAP1 DUP4 PUSH1 0x0 MSTORE PUSH1 0x20 PUSH1 0x0 KECCAK256 SWAP2 PUSH1 0x0 JUMPDEST PUSH1 0x1F NOT DUP6 AND DUP2 LT PUSH3 0x676 JUMPI POP SWAP3 PUSH1 0xA0 SWAP5 SWAP3 PUSH1 0x1 SWAP3 PUSH1 0x5 SWAP6 DUP4 PUSH1 0x1F NOT DUP2 AND LT PUSH3 0x65C JUMPI JUMPDEST POP POP POP DUP2 SHL ADD DUP2 SSTORE PUSH3 0x381 JUMP JUMPDEST ADD MLOAD PUSH1 0x0 NOT PUSH1 0xF8 DUP5 PUSH1 0x3 SHL AND SHR NOT AND SWAP1 SSTORE CODESIZE DUP1 DUP1 PUSH3 0x64E JUMP JUMPDEST SWAP2 SWAP3 PUSH1 0x20 PUSH1 0x1 DUP2 SWAP3 DUP7 DUP6 ADD MLOAD DUP2 SSTORE ADD SWAP5 ADD SWAP3 ADD PUSH3 0x629 JUMP JUMPDEST DUP4 PUSH1 0x0 MSTORE PUSH1 0x20 PUSH1 0x0 KECCAK256 PUSH1 0x1F DUP5 ADD PUSH1 0x5 SHR DUP2 ADD PUSH1 0x20 DUP6 LT PUSH3 0x6D0 JUMPI JUMPDEST PUSH1 0x1F DUP4 ADD PUSH1 0x5 SHR DUP3 ADD DUP2 LT PUSH3 0x6C3 JUMPI POP POP PUSH3 0x34A JUMP JUMPDEST PUSH1 0x0 DUP2 SSTORE PUSH1 0x1 ADD PUSH3 0x6AB JUMP JUMPDEST POP DUP1 PUSH3 0x6AB JUMP JUMPDEST SWAP1 PUSH1 0x7F AND SWAP1 PUSH3 0x336 JUMP JUMPDEST ADD MLOAD SWAP1 POP CODESIZE DUP1 PUSH3 0x268 JUMP JUMPDEST SWAP1 DUP4 PUSH1 0x0 MSTORE PUSH1 0x20 PUSH1 0x0 KECCAK256 SWAP2 PUSH1 0x0 JUMPDEST PUSH1 0x1F NOT DUP6 AND DUP2 LT PUSH3 0x74A JUMPI POP SWAP3 PUSH1 0xA0 SWAP5 SWAP3 PUSH1 0x1 SWAP3 PUSH1 0x5 SWAP6 DUP4 PUSH1 0x1F NOT DUP2 AND LT PUSH3 0x730 JUMPI JUMPDEST POP POP POP DUP2 SHL ADD DUP2 SSTORE PUSH3 0x27D JUMP JUMPDEST ADD MLOAD PUSH1 0x0 NOT PUSH1 0xF8 DUP5 PUSH1 0x3 SHL AND SHR NOT AND SWAP1 SSTORE CODESIZE DUP1 DUP1 PUSH3 0x722 JUMP JUMPDEST SWAP2 SWAP3 PUSH1 0x20 PUSH1 0x1 DUP2 SWAP3 DUP7 DUP6 ADD MLOAD DUP2 SSTORE ADD SWAP5 ADD SWAP3 ADD PUSH3 0x6FD JUMP JUMPDEST DUP4 PUSH1 0x0 MSTORE PUSH1 0x20 PUSH1 0x0 KECCAK256 PUSH1 0x1F DUP5 ADD PUSH1 0x5 SHR DUP2 ADD PUSH1 0x20 DUP6 LT PUSH3 0x7A4 JUMPI JUMPDEST PUSH1 0x1F DUP4 ADD PUSH1 0x5 SHR DUP3 ADD DUP2 LT PUSH3 0x797 JUMPI POP POP PUSH3 0x246 JUMP JUMPDEST PUSH1 0x0 DUP2 SSTORE PUSH1 0x1 ADD PUSH3 0x77F JUMP JUMPDEST POP DUP1 PUSH3 0x77F JUMP JUMPDEST SWAP1 PUSH1 0x7F AND SWAP1 PUSH3 0x232 JUMP JUMPDEST ADD MLOAD SWAP1 POP CODESIZE DUP1 PUSH3 0x162 JUMP JUMPDEST SWAP1 DUP4 PUSH1 0x0 MSTORE PUSH1 0x20 PUSH1 0x0 KECCAK256 SWAP2 PUSH1 0x0 JUMPDEST PUSH1 0x1F NOT DUP6 AND DUP2 LT PUSH3 0x81E JUMPI POP SWAP3 PUSH1 0xA0 SWAP5 SWAP3 PUSH1 0x1 SWAP3 PUSH1 0x5 SWAP6 DUP4 PUSH1 0x1F NOT DUP2 AND LT PUSH3 0x804 JUMPI JUMPDEST POP POP POP DUP2 SHL ADD DUP2 SSTORE PUSH3 0x177 JUMP JUMPDEST ADD MLOAD PUSH1 0x0 NOT PUSH1 0xF8 DUP5 PUSH1 0x3 SHL AND SHR NOT AND SWAP1 SSTORE CODESIZE DUP1 DUP1 PUSH3 0x7F6 JUMP JUMPDEST SWAP2 SWAP3 PUSH1 0x20 PUSH1 0x1 DUP2 SWAP3 DUP7 DUP6 ADD MLOAD DUP2 SSTORE ADD SWAP5 ADD SWAP3 ADD PUSH3 0x7D1 JUMP JUMPDEST DUP4 PUSH1 0x0 MSTORE PUSH1 0x20 PUSH1 0x0 KECCAK256 PUSH1 0x1F DUP5 ADD PUSH1 0x5 SHR DUP2 ADD PUSH1 0x20 DUP6 LT PUSH3 0x878 JUMPI JUMPDEST PUSH1 0x1F DUP4 ADD PUSH1 0x5 SHR DUP3 ADD DUP2 LT PUSH3 0x86B JUMPI POP POP PUSH3 0x140 JUMP JUMPDEST PUSH1 0x0 DUP2 SSTORE PUSH1 0x1 ADD PUSH3 0x853 JUMP JUMPDEST POP DUP1 PUSH3 0x853 JUMP JUMPDEST SWAP1 PUSH1 0x7F AND SWAP1 PUSH3 0x12C JUMP JUMPDEST PUSH3 0x461BCD PUSH1 0xE5 SHL DUP2 MSTORE PUSH1 0x20 PUSH1 0x4 DUP3 ADD MSTORE PUSH1 0x19 PUSH1 0x24 DUP3 ADD MSTORE PUSH32 0x496E76616C696420564D4620746F6B656E206164647265737300000000000000 PUSH1 0x44 DUP3 ADD MSTORE PUSH1 0x64 SWAP1 REVERT JUMPDEST PUSH1 0x40 MLOAD PUSH4 0x1E4FBDF7 PUSH1 0xE0 SHL DUP2 MSTORE PUSH1 0x0 PUSH1 0x4 DUP3 ADD MSTORE PUSH1 0x24 SWAP1 REVERT JUMPDEST PUSH1 0x0 DUP1 REVERT JUMPDEST PUSH1 0x40 MLOAD SWAP1 PUSH1 0xC0 DUP3 ADD PUSH1 0x1 PUSH1 0x1 PUSH1 0x40 SHL SUB DUP2 GT DUP4 DUP3 LT OR PUSH3 0x5F9 JUMPI PUSH1 0x40 MSTORE JUMP JUMPDEST PUSH1 0x40 DUP1 MLOAD SWAP2 SWAP1 DUP3 ADD PUSH1 0x1 PUSH1 0x1 PUSH1 0x40 SHL SUB DUP2 GT DUP4 DUP3 LT OR PUSH3 0x5F9 JUMPI PUSH1 0x40 MSTORE JUMP INVALID PUSH1 0x80 DUP1 PUSH1 0x40 MSTORE PUSH1 0x4 CALLDATASIZE LT ISZERO PUSH2 0x13 JUMPI PUSH1 0x0 DUP1 REVERT JUMPDEST PUSH1 0x0 SWAP1 PUSH1 0xE0 DUP3 CALLDATALOAD DUP2 SHR SWAP2 DUP3 PUSH4 0xDDD02A1 EQ PUSH2 0x1D52 JUMPI POP DUP2 PUSH4 0x19A39D3A EQ PUSH2 0x1C4C JUMPI DUP2 PUSH4 0x2086EEFA EQ PUSH2 0x1C07 JUMPI DUP2 PUSH4 0x22C0AEC7 EQ PUSH2 0x1BC8 JUMPI DUP2 PUSH4 0x27DE4BA8 EQ PUSH2 0x1BAC JUMPI DUP2 PUSH4 0x37526FCA EQ PUSH2 0x198B JUMPI DUP2 PUSH4 0x4A59B40D EQ PUSH2 0x177D JUMPI DUP2 PUSH4 0x541FF9F7 EQ PUSH2 0x1633 JUMPI DUP2 PUSH4 0x5C975ABB EQ PUSH2 0x160D JUMPI DUP2 PUSH4 0x5F996501 EQ PUSH2 0x15F0 JUMPI DUP2 PUSH4 0x715018A6 EQ PUSH2 0x15A4 JUMPI DUP2 PUSH4 0x74AA34DE EQ PUSH2 0x1586 JUMPI DUP2 PUSH4 0x7677477A EQ PUSH2 0x140F JUMPI DUP2 PUSH4 0x8DA5CB5B EQ PUSH2 0x13E6 JUMPI DUP2 PUSH4 0x96B55F7D EQ PUSH2 0x13C8 JUMPI DUP2 PUSH4 0x9A0921F7 EQ PUSH2 0x1093 JUMPI DUP2 PUSH4 0xB698E17D EQ PUSH2 0x1004 JUMPI DUP2 PUSH4 0xB842EC44 EQ PUSH2 0xF61 JUMPI DUP2 PUSH4 0xBCF64475 EQ PUSH2 0xF45 JUMPI DUP2 PUSH4 0xBF92EE88 EQ PUSH2 0xF15 JUMPI DUP2 PUSH4 0xBFF1F9E1 EQ PUSH2 0xEF7 JUMPI DUP2 PUSH4 0xCCDDF0B0 EQ PUSH2 0xE78 JUMPI DUP2 PUSH4 0xD968F51B EQ PUSH2 0xE5C JUMPI DUP2 PUSH4 0xDB2E21BC EQ PUSH2 0xCC4 JUMPI DUP2 PUSH4 0xE06EF5F4 EQ PUSH2 0xC37 JUMPI DUP2 PUSH4 0xE8F6940E EQ PUSH2 0xB63 JUMPI DUP2 PUSH4 0xE92E92E7 EQ PUSH2 0x720 JUMPI DUP2 PUSH4 0xF2FDE38B EQ PUSH2 0x6A8 JUMPI DUP2 PUSH4 0xF9A6DCFA EQ PUSH2 0x588 JUMPI POP DUP1 PUSH4 0xFA5BD4D2 EQ PUSH2 0x1C1 JUMPI DUP1 PUSH4 0xFA690BEB EQ PUSH2 0x1A3 JUMPI PUSH4 0xFD1C8811 EQ PUSH2 0x183 JUMPI PUSH1 0x0 DUP1 REVERT JUMPDEST CALLVALUE PUSH2 0x1A0 JUMPI DUP1 PUSH1 0x3 NOT CALLDATASIZE ADD SLT PUSH2 0x1A0 JUMPI PUSH1 0x20 PUSH1 0x7 SLOAD PUSH1 0x40 MLOAD SWAP1 DUP2 MSTORE RETURN JUMPDEST DUP1 REVERT JUMPDEST POP CALLVALUE PUSH2 0x1A0 JUMPI DUP1 PUSH1 0x3 NOT CALLDATASIZE ADD SLT PUSH2 0x1A0 JUMPI PUSH1 0x20 PUSH1 0x8 SLOAD PUSH1 0x40 MLOAD SWAP1 DUP2 MSTORE RETURN JUMPDEST POP CALLVALUE PUSH2 0x1A0 JUMPI PUSH1 0x60 CALLDATASIZE PUSH1 0x3 NOT ADD SLT PUSH2 0x1A0 JUMPI PUSH2 0x1DB PUSH2 0x1D6D JUMP JUMPDEST PUSH1 0x44 CALLDATALOAD PUSH1 0x1 PUSH1 0x1 PUSH1 0x40 SHL SUB DUP2 GT PUSH2 0x584 JUMPI PUSH2 0x1FA SWAP1 CALLDATASIZE SWAP1 PUSH1 0x4 ADD PUSH2 0x1E75 JUMP JUMPDEST SWAP1 PUSH2 0x203 PUSH2 0x21F7 JUMP JUMPDEST PUSH2 0x20B PUSH2 0x22F7 JUMP JUMPDEST PUSH2 0x213 PUSH2 0x231A JUMP JUMPDEST PUSH1 0x1 PUSH1 0x1 PUSH1 0xA0 SHL SUB DUP2 AND DUP4 MSTORE PUSH1 0x6 PUSH1 0x20 MSTORE PUSH1 0x40 DUP4 KECCAK256 SLOAD PUSH2 0x236 SWAP1 PUSH1 0xFF AND ISZERO PUSH2 0x2150 JUMP JUMPDEST PUSH2 0x243 PUSH1 0x24 CALLDATALOAD ISZERO ISZERO PUSH2 0x2192 JUMP JUMPDEST PUSH2 0x257 PUSH1 0x1 PUSH1 0x1 PUSH1 0xA0 SHL SUB DUP3 AND ISZERO ISZERO PUSH2 0x20B8 JUMP JUMPDEST PUSH1 0x1 DUP1 PUSH1 0xA0 SHL SUB DUP2 AND DUP4 MSTORE PUSH1 0x4 PUSH1 0x20 MSTORE PUSH1 0x40 DUP4 KECCAK256 SWAP2 PUSH2 0x279 PUSH1 0x24 CALLDATALOAD DUP5 SLOAD PUSH2 0x1FCD JUMP JUMPDEST DUP4 SSTORE PUSH1 0x2 DUP4 ADD PUSH2 0x28C PUSH1 0x24 CALLDATALOAD DUP3 SLOAD PUSH2 0x1FCD JUMP JUMPDEST SWAP1 SSTORE TIMESTAMP PUSH1 0x4 DUP5 ADD SSTORE PUSH1 0x7 DUP4 ADD DUP1 SLOAD PUSH1 0xFF DUP2 AND ISZERO PUSH2 0x557 JUMPI JUMPDEST POP POP PUSH1 0x1 DUP4 ADD SWAP1 DUP2 SLOAD SWAP4 PUSH2 0x2B8 DUP2 SLOAD PUSH2 0x233B JUMP JUMPDEST DUP1 SWAP4 SSTORE PUSH2 0x2C9 PUSH1 0x24 CALLDATALOAD PUSH1 0x7 SLOAD PUSH2 0x1FCD JUMP JUMPDEST PUSH1 0x7 SSTORE PUSH1 0x40 MLOAD PUSH2 0x2D8 DUP2 PUSH2 0x1E09 JUMP JUMPDEST TIMESTAMP DUP2 MSTORE PUSH1 0x24 CALLDATALOAD PUSH1 0x20 DUP3 ADD MSTORE DUP3 PUSH1 0x40 DUP3 ADD MSTORE PUSH1 0x1 PUSH1 0x60 DUP3 ADD MSTORE DUP4 PUSH1 0x80 DUP3 ADD MSTORE PUSH1 0x1 DUP1 PUSH1 0xA0 SHL SUB DUP6 AND PUSH1 0x0 MSTORE PUSH1 0x5 PUSH1 0x20 MSTORE PUSH1 0x40 PUSH1 0x0 KECCAK256 DUP1 SLOAD PUSH1 0x1 PUSH1 0x40 SHL DUP2 LT ISZERO PUSH2 0x52B JUMPI PUSH2 0x329 SWAP2 PUSH1 0x1 DUP3 ADD DUP2 SSTORE PUSH2 0x1F9B JUMP JUMPDEST SWAP2 SWAP1 SWAP2 PUSH2 0x541 JUMPI DUP1 MLOAD DUP3 SSTORE PUSH1 0x20 DUP2 ADD MLOAD PUSH1 0x1 DUP4 ADD SSTORE PUSH1 0x40 DUP2 ADD MLOAD DUP1 MLOAD SWAP1 PUSH1 0x1 PUSH1 0x1 PUSH1 0x40 SHL SUB DUP3 GT PUSH2 0x52B JUMPI PUSH2 0x361 PUSH1 0x2 DUP6 ADD SLOAD PUSH2 0x1ECB JUMP JUMPDEST PUSH1 0x1F DUP2 GT PUSH2 0x4E4 JUMPI JUMPDEST POP PUSH1 0x20 SWAP1 PUSH1 0x1F DUP4 GT PUSH1 0x1 EQ PUSH2 0x45E JUMPI SWAP3 DUP3 PUSH1 0x4 SWAP4 PUSH1 0x80 SWAP4 PUSH1 0x0 DUP1 MLOAD PUSH1 0x20 PUSH2 0x23C8 DUP4 CODECOPY DUP2 MLOAD SWAP2 MSTORE SWAP9 SWAP8 SWAP7 PUSH1 0x0 SWAP3 PUSH2 0x453 JUMPI JUMPDEST POP POP DUP2 PUSH1 0x1 SHL SWAP2 PUSH1 0x0 NOT SWAP1 PUSH1 0x3 SHL SHR NOT AND OR PUSH1 0x2 DUP6 ADD SSTORE JUMPDEST PUSH2 0x3C6 PUSH1 0x60 DUP3 ADD MLOAD ISZERO ISZERO PUSH1 0x3 DUP7 ADD PUSH2 0x20A7 JUMP JUMPDEST ADD MLOAD SWAP2 ADD SSTORE SLOAD SWAP2 PUSH2 0x3EA PUSH1 0x40 MLOAD SWAP2 PUSH1 0x24 CALLDATALOAD DUP4 MSTORE PUSH1 0x80 PUSH1 0x20 DUP5 ADD MSTORE PUSH1 0x80 DUP4 ADD SWAP1 PUSH2 0x1DAD JUMP JUMPDEST SWAP3 PUSH1 0x40 DUP3 ADD MSTORE DUP4 PUSH1 0x60 DUP3 ADD MSTORE DUP1 PUSH1 0x1 DUP1 PUSH1 0xA0 SHL SUB DUP7 AND SWAP4 SUB SWAP1 LOG2 DUP1 DUP4 SUB PUSH2 0x414 JUMPI JUMPDEST DUP4 PUSH1 0x1 DUP2 SSTORE DUP1 RETURN JUMPDEST PUSH1 0x0 DUP1 MLOAD PUSH1 0x20 PUSH2 0x23A8 DUP4 CODECOPY DUP2 MLOAD SWAP2 MSTORE SWAP2 DUP2 DUP6 MSTORE PUSH1 0x2 PUSH1 0x20 MSTORE PUSH2 0x448 PUSH1 0x40 DUP7 KECCAK256 PUSH1 0x40 MLOAD SWAP4 DUP5 SWAP4 PUSH1 0x1 DUP1 PUSH1 0xA0 SHL SUB AND SWAP7 DUP5 PUSH2 0x21D8 JUMP JUMPDEST SUB SWAP1 LOG2 CODESIZE DUP1 DUP1 PUSH2 0x40C JUMP JUMPDEST ADD MLOAD SWAP1 POP CODESIZE DUP1 PUSH2 0x39B JUMP JUMPDEST SWAP1 PUSH1 0x2 DUP6 ADD PUSH1 0x0 MSTORE PUSH1 0x20 PUSH1 0x0 KECCAK256 SWAP2 PUSH1 0x0 JUMPDEST PUSH1 0x1F NOT DUP6 AND DUP2 LT PUSH2 0x4CC JUMPI POP DUP4 PUSH1 0x80 SWAP4 PUSH1 0x0 DUP1 MLOAD PUSH1 0x20 PUSH2 0x23C8 DUP4 CODECOPY DUP2 MLOAD SWAP2 MSTORE SWAP9 SWAP8 SWAP7 SWAP4 PUSH1 0x1 SWAP4 PUSH1 0x4 SWAP8 PUSH1 0x1F NOT DUP2 AND LT PUSH2 0x4B3 JUMPI JUMPDEST POP POP POP DUP2 SHL ADD PUSH1 0x2 DUP6 ADD SSTORE PUSH2 0x3B3 JUMP JUMPDEST ADD MLOAD PUSH1 0x0 NOT PUSH1 0xF8 DUP5 PUSH1 0x3 SHL AND SHR NOT AND SWAP1 SSTORE CODESIZE DUP1 DUP1 PUSH2 0x4A3 JUMP JUMPDEST SWAP2 SWAP3 PUSH1 0x20 PUSH1 0x1 DUP2 SWAP3 DUP7 DUP6 ADD MLOAD DUP2 SSTORE ADD SWAP5 ADD SWAP3 ADD PUSH2 0x46F JUMP JUMPDEST PUSH1 0x2 DUP6 ADD PUSH1 0x0 MSTORE PUSH1 0x20 PUSH1 0x0 KECCAK256 PUSH1 0x1F DUP5 ADD PUSH1 0x5 SHR DUP2 ADD PUSH1 0x20 DUP6 LT PUSH2 0x524 JUMPI JUMPDEST PUSH1 0x1F DUP4 ADD PUSH1 0x5 SHR DUP3 ADD DUP2 LT PUSH2 0x518 JUMPI POP POP PUSH2 0x36A JUMP JUMPDEST PUSH1 0x0 DUP2 SSTORE PUSH1 0x1 ADD PUSH2 0x502 JUMP JUMPDEST POP DUP1 PUSH2 0x502 JUMP JUMPDEST PUSH4 0x4E487B71 PUSH1 0xE0 SHL PUSH1 0x0 MSTORE PUSH1 0x41 PUSH1 0x4 MSTORE PUSH1 0x24 PUSH1 0x0 REVERT JUMPDEST PUSH4 0x4E487B71 PUSH1 0xE0 SHL PUSH1 0x0 MSTORE PUSH1 0x0 PUSH1 0x4 MSTORE PUSH1 0x24 PUSH1 0x0 REVERT JUMPDEST PUSH1 0xFF NOT AND PUSH1 0x1 OR SWAP1 SSTORE PUSH1 0x9 SLOAD PUSH2 0x56C SWAP1 PUSH2 0x210E JUMP JUMPDEST PUSH1 0x9 SSTORE PUSH2 0x57A PUSH1 0xA SLOAD PUSH2 0x210E JUMP JUMPDEST PUSH1 0xA SSTORE CODESIZE DUP1 PUSH2 0x2A4 JUMP JUMPDEST DUP3 DUP1 REVERT JUMPDEST SWAP1 POP CALLVALUE PUSH2 0x6A4 JUMPI PUSH1 0x20 DUP1 PUSH1 0x3 NOT CALLDATASIZE ADD SLT PUSH2 0x584 JUMPI PUSH1 0x40 PUSH1 0xC0 SWAP4 PUSH1 0x4 CALLDATALOAD DUP2 PUSH1 0xA0 DUP5 MLOAD PUSH2 0x5B2 DUP2 PUSH2 0x1E24 JUMP JUMPDEST PUSH1 0x60 DUP2 MSTORE DUP3 DUP8 DUP3 ADD MSTORE DUP3 DUP7 DUP3 ADD MSTORE DUP3 PUSH1 0x60 DUP3 ADD MSTORE DUP3 PUSH1 0x80 DUP3 ADD MSTORE ADD MSTORE PUSH2 0x5DB PUSH1 0x3 SLOAD DUP3 LT PUSH2 0x2028 JUMP JUMPDEST DUP1 DUP3 MSTORE PUSH1 0x2 DUP5 MSTORE PUSH2 0x5F4 PUSH1 0xFF PUSH1 0x5 DUP6 DUP6 KECCAK256 ADD SLOAD AND PUSH2 0x2066 JUMP JUMPDEST DUP2 MSTORE PUSH1 0x2 DUP4 MSTORE KECCAK256 SWAP2 PUSH1 0x40 MLOAD SWAP3 PUSH2 0x609 DUP5 PUSH2 0x1E24 JUMP JUMPDEST PUSH1 0x40 MLOAD PUSH2 0x621 DUP2 PUSH2 0x61A DUP2 DUP6 PUSH2 0x1F05 JUMP JUMPDEST SUB DUP3 PUSH2 0x1E52 JUMP JUMPDEST DUP5 MSTORE PUSH1 0x1 DUP2 ADD SLOAD SWAP3 DUP1 DUP6 ADD SWAP4 DUP5 MSTORE PUSH1 0x2 DUP3 ADD SLOAD PUSH1 0x40 DUP7 ADD SWAP1 DUP2 MSTORE PUSH2 0x67F PUSH1 0x3 DUP5 ADD SLOAD SWAP3 PUSH1 0x60 DUP9 ADD SWAP4 DUP5 MSTORE PUSH1 0xFF PUSH1 0x5 PUSH1 0x4 DUP8 ADD SLOAD SWAP7 PUSH1 0x80 DUP12 ADD SWAP8 DUP9 MSTORE ADD SLOAD AND SWAP6 PUSH1 0xA0 DUP10 ADD SWAP7 ISZERO ISZERO DUP8 MSTORE PUSH1 0x40 MLOAD SWAP10 DUP11 SWAP10 DUP4 DUP12 MSTORE MLOAD SWAP3 DUP11 ADD MSTORE DUP9 ADD SWAP1 PUSH2 0x1DAD JUMP JUMPDEST SWAP5 MLOAD PUSH1 0x40 DUP8 ADD MSTORE MLOAD PUSH1 0x60 DUP7 ADD MSTORE MLOAD PUSH1 0x80 DUP6 ADD MSTORE MLOAD PUSH1 0xA0 DUP5 ADD MSTORE MLOAD ISZERO ISZERO PUSH1 0xC0 DUP4 ADD MSTORE SUB SWAP1 RETURN JUMPDEST POP DUP1 REVERT JUMPDEST DUP3 CALLVALUE PUSH2 0x1A0 JUMPI PUSH1 0x20 CALLDATASIZE PUSH1 0x3 NOT ADD SLT PUSH2 0x1A0 JUMPI PUSH2 0x6C2 PUSH2 0x1D6D JUMP JUMPDEST PUSH2 0x6CA PUSH2 0x21F7 JUMP JUMPDEST PUSH1 0x1 PUSH1 0x1 PUSH1 0xA0 SHL SUB SWAP1 DUP2 AND SWAP1 DUP2 ISZERO PUSH2 0x707 JUMPI PUSH1 0x1 DUP1 SLOAD PUSH1 0x1 PUSH1 0x1 PUSH1 0xA0 SHL SUB NOT DUP2 AND DUP5 OR SWAP1 SWAP2 SSTORE AND PUSH1 0x0 DUP1 MLOAD PUSH1 0x20 PUSH2 0x23E8 DUP4 CODECOPY DUP2 MLOAD SWAP2 MSTORE PUSH1 0x0 DUP1 LOG3 DUP1 RETURN JUMPDEST PUSH1 0x40 MLOAD PUSH4 0x1E4FBDF7 PUSH1 0xE0 SHL DUP2 MSTORE PUSH1 0x4 DUP2 ADD DUP5 SWAP1 MSTORE PUSH1 0x24 SWAP1 REVERT JUMPDEST DUP3 CALLVALUE PUSH2 0x1A0 JUMPI PUSH1 0x20 CALLDATASIZE PUSH1 0x3 NOT ADD SLT PUSH2 0x1A0 JUMPI PUSH2 0x73A PUSH2 0x22F7 JUMP JUMPDEST PUSH2 0x742 PUSH2 0x231A JUMP JUMPDEST CALLER DUP2 MSTORE PUSH1 0x6 PUSH1 0x20 MSTORE PUSH2 0x75B PUSH1 0xFF PUSH1 0x40 DUP4 KECCAK256 SLOAD AND ISZERO PUSH2 0x2150 JUMP JUMPDEST PUSH2 0x768 PUSH1 0x4 CALLDATALOAD ISZERO ISZERO PUSH2 0x2192 JUMP JUMPDEST CALLER DUP2 MSTORE PUSH1 0x4 PUSH1 0x20 MSTORE PUSH1 0x40 DUP2 KECCAK256 DUP1 SLOAD SWAP1 PUSH1 0x4 CALLDATALOAD DUP3 LT PUSH2 0xB28 JUMPI PUSH2 0x799 PUSH2 0x78F PUSH1 0x4 CALLDATALOAD CALLER PUSH2 0x2223 JUMP JUMPDEST SWAP3 PUSH1 0x4 CALLDATALOAD SWAP1 PUSH2 0x1FF0 JUMP JUMPDEST SWAP2 DUP3 DUP3 SSTORE PUSH1 0x3 DUP3 ADD PUSH2 0x7AE PUSH1 0x4 CALLDATALOAD DUP3 SLOAD PUSH2 0x1FCD JUMP JUMPDEST SWAP1 SSTORE PUSH1 0x6 DUP3 ADD PUSH2 0x7BF DUP3 DUP3 SLOAD PUSH2 0x1FCD JUMP JUMPDEST SWAP1 SSTORE PUSH1 0x1 DUP3 ADD SWAP2 PUSH2 0x7D1 DUP4 SLOAD SWAP5 PUSH2 0x233B JUMP JUMPDEST DUP1 SWAP4 SSTORE PUSH2 0x7E2 PUSH1 0x4 CALLDATALOAD PUSH1 0x8 SLOAD PUSH2 0x1FCD JUMP JUMPDEST PUSH1 0x8 SSTORE PUSH1 0x40 MLOAD PUSH4 0xA9059CBB PUSH1 0xE0 SHL DUP2 MSTORE PUSH1 0x20 DUP2 DUP1 PUSH2 0x804 DUP7 CALLER PUSH1 0x4 DUP5 ADD PUSH2 0x2135 JUMP JUMPDEST SUB DUP2 DUP10 PUSH32 0x0 PUSH1 0x1 PUSH1 0x1 PUSH1 0xA0 SHL SUB AND GAS CALL SWAP1 DUP2 ISZERO PUSH2 0xB1D JUMPI DUP7 SWAP2 PUSH2 0xAEE JUMPI JUMPDEST POP ISZERO PUSH2 0xAB0 JUMPI PUSH1 0x40 DUP1 MLOAD SWAP1 DUP2 ADD PUSH1 0x1 PUSH1 0x1 PUSH1 0x40 SHL SUB DUP2 GT DUP3 DUP3 LT OR PUSH2 0x52B JUMPI PUSH1 0x40 MSTORE PUSH1 0x11 DUP2 MSTORE PUSH17 0x2837B4B73A39902932B232B6B83A34B7B7 PUSH1 0x79 SHL PUSH1 0x20 DUP3 ADD MSTORE PUSH1 0x40 MLOAD SWAP1 PUSH2 0x88E DUP3 PUSH2 0x1E09 JUMP JUMPDEST TIMESTAMP DUP3 MSTORE PUSH1 0x4 CALLDATALOAD PUSH1 0x20 DUP4 ADD MSTORE PUSH1 0x40 DUP3 ADD MSTORE PUSH1 0x0 PUSH1 0x60 DUP3 ADD MSTORE DUP4 PUSH1 0x80 DUP3 ADD MSTORE CALLER PUSH1 0x0 MSTORE PUSH1 0x5 PUSH1 0x20 MSTORE PUSH1 0x40 PUSH1 0x0 KECCAK256 DUP1 SLOAD PUSH1 0x1 PUSH1 0x40 SHL DUP2 LT ISZERO PUSH2 0x52B JUMPI PUSH2 0x8D6 SWAP2 PUSH1 0x1 DUP3 ADD DUP2 SSTORE PUSH2 0x1F9B JUMP JUMPDEST SWAP2 SWAP1 SWAP2 PUSH2 0x541 JUMPI DUP1 MLOAD DUP3 SSTORE PUSH1 0x20 DUP2 ADD MLOAD PUSH1 0x1 DUP4 ADD SSTORE PUSH1 0x40 DUP2 ADD MLOAD DUP1 MLOAD SWAP1 PUSH1 0x1 PUSH1 0x1 PUSH1 0x40 SHL SUB DUP3 GT PUSH2 0x52B JUMPI PUSH2 0x90E PUSH1 0x2 DUP6 ADD SLOAD PUSH2 0x1ECB JUMP JUMPDEST PUSH1 0x1F DUP2 GT PUSH2 0xA69 JUMPI JUMPDEST POP PUSH1 0x20 SWAP1 PUSH1 0x1F DUP4 GT PUSH1 0x1 EQ PUSH2 0x9F4 JUMPI SWAP2 DUP1 PUSH1 0x4 SWAP5 SWAP3 PUSH1 0x80 SWAP5 PUSH1 0x0 SWAP3 PUSH2 0x9E9 JUMPI JUMPDEST POP POP DUP2 PUSH1 0x1 SHL SWAP2 PUSH1 0x0 NOT SWAP1 PUSH1 0x3 SHL SHR NOT AND OR PUSH1 0x2 DUP6 ADD SSTORE JUMPDEST PUSH2 0x962 PUSH1 0x60 DUP3 ADD MLOAD ISZERO ISZERO PUSH1 0x3 DUP7 ADD PUSH2 0x20A7 JUMP JUMPDEST ADD MLOAD SWAP2 ADD SSTORE SLOAD PUSH1 0x40 MLOAD SWAP2 PUSH1 0x4 CALLDATALOAD DUP4 MSTORE PUSH1 0x20 DUP4 ADD MSTORE PUSH1 0x40 DUP3 ADD MSTORE PUSH32 0x90138E15F43CE1520BD445151B279C8047B276F6DC4D41F9FAE44CD7ECFE4E7E PUSH1 0x60 CALLER SWAP3 LOG2 DUP1 DUP3 SUB PUSH2 0x9B1 JUMPI JUMPDEST DUP3 PUSH1 0x1 DUP2 SSTORE DUP1 RETURN JUMPDEST DUP1 PUSH1 0x0 DUP1 MLOAD PUSH1 0x20 PUSH2 0x23A8 DUP4 CODECOPY DUP2 MLOAD SWAP2 MSTORE SWAP2 DUP5 MSTORE PUSH1 0x2 PUSH1 0x20 MSTORE PUSH1 0x40 DUP5 KECCAK256 SWAP1 PUSH2 0x9DF PUSH1 0x40 MLOAD SWAP3 DUP4 SWAP3 CALLER SWAP7 DUP5 PUSH2 0x21D8 JUMP JUMPDEST SUB SWAP1 LOG2 DUP2 DUP1 PUSH2 0x9A9 JUMP JUMPDEST ADD MLOAD SWAP1 POP DUP12 DUP1 PUSH2 0x937 JUMP JUMPDEST SWAP1 PUSH1 0x2 DUP6 ADD PUSH1 0x0 MSTORE PUSH1 0x20 PUSH1 0x0 KECCAK256 SWAP2 PUSH1 0x0 JUMPDEST PUSH1 0x1F NOT DUP6 AND DUP2 LT PUSH2 0xA51 JUMPI POP SWAP3 PUSH1 0x4 SWAP5 SWAP3 PUSH1 0x1 SWAP3 PUSH1 0x80 SWAP6 DUP4 PUSH1 0x1F NOT DUP2 AND LT PUSH2 0xA38 JUMPI JUMPDEST POP POP POP DUP2 SHL ADD PUSH1 0x2 DUP6 ADD SSTORE PUSH2 0x94F JUMP JUMPDEST ADD MLOAD PUSH1 0x0 NOT PUSH1 0xF8 DUP5 PUSH1 0x3 SHL AND SHR NOT AND SWAP1 SSTORE DUP12 DUP1 DUP1 PUSH2 0xA28 JUMP JUMPDEST SWAP2 SWAP3 PUSH1 0x20 PUSH1 0x1 DUP2 SWAP3 DUP7 DUP6 ADD MLOAD DUP2 SSTORE ADD SWAP5 ADD SWAP3 ADD PUSH2 0xA05 JUMP JUMPDEST PUSH1 0x2 DUP6 ADD PUSH1 0x0 MSTORE PUSH1 0x20 PUSH1 0x0 KECCAK256 PUSH1 0x1F DUP5 ADD PUSH1 0x5 SHR DUP2 ADD PUSH1 0x20 DUP6 LT PUSH2 0xAA9 JUMPI JUMPDEST PUSH1 0x1F DUP4 ADD PUSH1 0x5 SHR DUP3 ADD DUP2 LT PUSH2 0xA9D JUMPI POP POP PUSH2 0x917 JUMP JUMPDEST PUSH1 0x0 DUP2 SSTORE PUSH1 0x1 ADD PUSH2 0xA87 JUMP JUMPDEST POP DUP1 PUSH2 0xA87 JUMP JUMPDEST PUSH1 0x40 MLOAD PUSH3 0x461BCD PUSH1 0xE5 SHL DUP2 MSTORE PUSH1 0x20 PUSH1 0x4 DUP3 ADD MSTORE PUSH1 0x16 PUSH1 0x24 DUP3 ADD MSTORE PUSH22 0x14995DD85C99081D1C985B9CD9995C8819985A5B1959 PUSH1 0x52 SHL PUSH1 0x44 DUP3 ADD MSTORE PUSH1 0x64 SWAP1 REVERT JUMPDEST PUSH2 0xB10 SWAP2 POP PUSH1 0x20 RETURNDATASIZE PUSH1 0x20 GT PUSH2 0xB16 JUMPI JUMPDEST PUSH2 0xB08 DUP2 DUP4 PUSH2 0x1E52 JUMP JUMPDEST DUP2 ADD SWAP1 PUSH2 0x211D JUMP JUMPDEST DUP7 PUSH2 0x841 JUMP JUMPDEST POP RETURNDATASIZE PUSH2 0xAFE JUMP JUMPDEST PUSH1 0x40 MLOAD RETURNDATASIZE DUP9 DUP3 RETURNDATACOPY RETURNDATASIZE SWAP1 REVERT JUMPDEST PUSH1 0x40 MLOAD PUSH3 0x461BCD PUSH1 0xE5 SHL DUP2 MSTORE PUSH1 0x20 PUSH1 0x4 DUP3 ADD MSTORE PUSH1 0x13 PUSH1 0x24 DUP3 ADD MSTORE PUSH19 0x496E73756666696369656E7420706F696E7473 PUSH1 0x68 SHL PUSH1 0x44 DUP3 ADD MSTORE PUSH1 0x64 SWAP1 REVERT JUMPDEST DUP3 CALLVALUE PUSH2 0x1A0 JUMPI PUSH1 0x20 CALLDATASIZE PUSH1 0x3 NOT ADD SLT PUSH2 0x1A0 JUMPI PUSH1 0x4 CALLDATALOAD DUP1 ISZERO ISZERO DUP2 SUB PUSH2 0xC32 JUMPI PUSH2 0xB89 PUSH2 0x21F7 JUMP JUMPDEST ISZERO PUSH2 0xBD8 JUMPI PUSH2 0xB96 PUSH2 0x231A JUMP JUMPDEST PUSH1 0x1 DUP1 SLOAD PUSH1 0xFF PUSH1 0xA0 SHL NOT AND PUSH1 0x1 PUSH1 0xA0 SHL OR SWAP1 SSTORE PUSH1 0x40 MLOAD CALLER DUP2 MSTORE PUSH32 0x62E78CEA01BEE320CD4E420270B5EA74000D11B0C9F74754EBDBFC544B05A258 SWAP1 PUSH1 0x20 SWAP1 LOG1 DUP1 RETURN JUMPDEST PUSH1 0x1 SLOAD PUSH1 0xFF DUP2 PUSH1 0xA0 SHR AND ISZERO PUSH2 0xC20 JUMPI PUSH1 0xFF PUSH1 0xA0 SHL NOT AND PUSH1 0x1 SSTORE PUSH1 0x40 MLOAD CALLER DUP2 MSTORE PUSH32 0x5DB9EE0A495BF2E6FF9C91A7834C1BA4FDD244A5E8AA4E537BD38AEAE4B073AA SWAP1 PUSH1 0x20 SWAP1 LOG1 DUP1 RETURN JUMPDEST PUSH1 0x40 MLOAD PUSH4 0x8DFC202B PUSH1 0xE0 SHL DUP2 MSTORE PUSH1 0x4 SWAP1 REVERT JUMPDEST PUSH1 0x0 DUP1 REVERT JUMPDEST SWAP1 POP CALLVALUE PUSH2 0x6A4 JUMPI PUSH1 0x20 CALLDATASIZE PUSH1 0x3 NOT ADD SLT PUSH2 0x6A4 JUMPI PUSH2 0x100 SWAP2 PUSH1 0x40 SWAP1 PUSH1 0x1 PUSH1 0x1 PUSH1 0xA0 SHL SUB PUSH2 0xC61 PUSH2 0x1D6D JUMP JUMPDEST AND DUP2 MSTORE PUSH1 0x4 PUSH1 0x20 MSTORE KECCAK256 SWAP1 DUP2 SLOAD SWAP2 PUSH1 0x1 DUP2 ADD SLOAD SWAP1 PUSH1 0x2 DUP2 ADD SLOAD PUSH1 0x3 DUP3 ADD SLOAD PUSH1 0x4 DUP4 ADD SLOAD SWAP1 PUSH1 0x5 DUP5 ADD SLOAD SWAP3 PUSH1 0xFF PUSH1 0x7 PUSH1 0x6 DUP8 ADD SLOAD SWAP7 ADD SLOAD AND SWAP6 PUSH1 0x40 MLOAD SWAP9 DUP10 MSTORE PUSH1 0x20 DUP10 ADD MSTORE PUSH1 0x40 DUP9 ADD MSTORE PUSH1 0x60 DUP8 ADD MSTORE PUSH1 0x80 DUP7 ADD MSTORE PUSH1 0xA0 DUP6 ADD MSTORE PUSH1 0xC0 DUP5 ADD MSTORE ISZERO ISZERO SWAP1 DUP3 ADD MSTORE RETURN JUMPDEST DUP3 CALLVALUE PUSH2 0x1A0 JUMPI DUP1 PUSH1 0x3 NOT CALLDATASIZE ADD SLT PUSH2 0x1A0 JUMPI PUSH2 0xCDD PUSH2 0x21F7 JUMP JUMPDEST PUSH1 0x40 MLOAD PUSH4 0x70A08231 PUSH1 0xE0 SHL DUP2 MSTORE ADDRESS PUSH1 0x4 DUP3 ADD MSTORE PUSH1 0x20 SWAP1 PUSH1 0x1 PUSH1 0x1 PUSH1 0xA0 SHL SUB PUSH32 0x0 DUP2 AND SWAP1 DUP4 DUP4 PUSH1 0x24 DUP2 DUP6 GAS STATICCALL SWAP3 DUP4 ISZERO PUSH2 0xE51 JUMPI DUP6 SWAP4 PUSH2 0xE1E JUMPI JUMPDEST POP DUP3 ISZERO PUSH2 0xDE0 JUMPI SWAP2 DUP4 SWAP2 PUSH2 0xD64 SWAP4 PUSH1 0x1 SLOAD AND DUP7 PUSH1 0x40 MLOAD DUP1 SWAP7 DUP2 SWAP6 DUP3 SWAP5 PUSH4 0xA9059CBB PUSH1 0xE0 SHL DUP5 MSTORE PUSH1 0x4 DUP5 ADD PUSH2 0x2135 JUMP JUMPDEST SUB SWAP3 GAS CALL SWAP1 DUP2 ISZERO PUSH2 0xDD5 JUMPI DUP4 SWAP2 PUSH2 0xDB8 JUMPI JUMPDEST POP ISZERO PUSH2 0xD80 JUMPI POP DUP1 RETURN JUMPDEST PUSH1 0x64 SWAP1 PUSH1 0x40 MLOAD SWAP1 PUSH3 0x461BCD PUSH1 0xE5 SHL DUP3 MSTORE PUSH1 0x4 DUP3 ADD MSTORE PUSH1 0x11 PUSH1 0x24 DUP3 ADD MSTORE PUSH17 0x15DA5D1A191C985DD85B0819985A5B1959 PUSH1 0x7A SHL PUSH1 0x44 DUP3 ADD MSTORE REVERT JUMPDEST PUSH2 0xDCF SWAP2 POP DUP3 RETURNDATASIZE DUP5 GT PUSH2 0xB16 JUMPI PUSH2 0xB08 DUP2 DUP4 PUSH2 0x1E52 JUMP JUMPDEST DUP4 PUSH2 0xD76 JUMP JUMPDEST PUSH1 0x40 MLOAD RETURNDATASIZE DUP6 DUP3 RETURNDATACOPY RETURNDATASIZE SWAP1 REVERT JUMPDEST PUSH1 0x40 MLOAD PUSH3 0x461BCD PUSH1 0xE5 SHL DUP2 MSTORE PUSH1 0x4 DUP2 ADD DUP6 SWAP1 MSTORE PUSH1 0x16 PUSH1 0x24 DUP3 ADD MSTORE PUSH22 0x4E6F2062616C616E636520746F207769746864726177 PUSH1 0x50 SHL PUSH1 0x44 DUP3 ADD MSTORE PUSH1 0x64 SWAP1 REVERT JUMPDEST SWAP1 SWAP3 POP DUP4 DUP2 DUP2 RETURNDATASIZE DUP4 GT PUSH2 0xE4A JUMPI JUMPDEST PUSH2 0xE36 DUP2 DUP4 PUSH2 0x1E52 JUMP JUMPDEST DUP2 ADD SUB SLT PUSH2 0xE46 JUMPI MLOAD SWAP2 DUP6 PUSH2 0xD35 JUMP JUMPDEST DUP5 DUP1 REVERT JUMPDEST POP RETURNDATASIZE PUSH2 0xE2C JUMP JUMPDEST PUSH1 0x40 MLOAD RETURNDATASIZE DUP8 DUP3 RETURNDATACOPY RETURNDATASIZE SWAP1 REVERT JUMPDEST DUP3 CALLVALUE PUSH2 0x1A0 JUMPI DUP1 PUSH1 0x3 NOT CALLDATASIZE ADD SLT PUSH2 0x1A0 JUMPI PUSH1 0x20 PUSH1 0x40 MLOAD PUSH1 0x5 DUP2 MSTORE RETURN JUMPDEST DUP3 CALLVALUE PUSH2 0x1A0 JUMPI PUSH1 0x40 CALLDATASIZE PUSH1 0x3 NOT ADD SLT PUSH2 0x1A0 JUMPI PUSH2 0xE92 PUSH2 0x1D6D JUMP JUMPDEST PUSH1 0x24 CALLDATALOAD SWAP1 DUP2 ISZERO ISZERO SWAP1 DUP2 DUP4 SUB PUSH2 0xC32 JUMPI PUSH32 0x5B7EF9D8E7FD7FF1DAE13005391BC3AA7CC048C7BA41AF348E5DA4DCBE7323E0 SWAP2 PUSH2 0xEED PUSH1 0x20 SWAP3 PUSH2 0xED1 PUSH2 0x21F7 JUMP JUMPDEST PUSH1 0x1 PUSH1 0x1 PUSH1 0xA0 SHL SUB AND DUP1 DUP8 MSTORE PUSH1 0x6 DUP5 MSTORE PUSH1 0x40 DUP8 KECCAK256 SWAP1 SWAP6 SWAP1 PUSH2 0x20A7 JUMP JUMPDEST PUSH1 0x40 MLOAD SWAP1 DUP2 MSTORE LOG2 DUP1 RETURN JUMPDEST DUP3 CALLVALUE PUSH2 0x1A0 JUMPI DUP1 PUSH1 0x3 NOT CALLDATASIZE ADD SLT PUSH2 0x1A0 JUMPI PUSH1 0x20 PUSH1 0x9 SLOAD PUSH1 0x40 MLOAD SWAP1 DUP2 MSTORE RETURN JUMPDEST DUP3 CALLVALUE PUSH2 0x1A0 JUMPI PUSH1 0x40 CALLDATASIZE PUSH1 0x3 NOT ADD SLT PUSH2 0x1A0 JUMPI PUSH1 0x20 PUSH2 0xF3D PUSH2 0xF34 PUSH2 0x1D6D JUMP JUMPDEST PUSH1 0x24 CALLDATALOAD SWAP1 PUSH2 0x2223 JUMP JUMPDEST PUSH1 0x40 MLOAD SWAP1 DUP2 MSTORE RETURN JUMPDEST DUP3 CALLVALUE PUSH2 0x1A0 JUMPI DUP1 PUSH1 0x3 NOT CALLDATASIZE ADD SLT PUSH2 0x1A0 JUMPI PUSH1 0x20 PUSH1 0x40 MLOAD PUSH1 0x2 DUP2 MSTORE RETURN JUMPDEST DUP3 CALLVALUE PUSH2 0x1A0 JUMPI PUSH1 0x40 CALLDATASIZE PUSH1 0x3 NOT ADD SLT PUSH2 0x1A0 JUMPI PUSH2 0xF7B PUSH2 0x1D6D JUMP JUMPDEST PUSH1 0x1 PUSH1 0x1 PUSH1 0xA0 SHL SUB AND DUP2 MSTORE PUSH1 0x5 PUSH1 0x20 MSTORE PUSH1 0x40 DUP2 KECCAK256 DUP1 SLOAD PUSH1 0x24 CALLDATALOAD SWAP2 SWAP1 DUP3 LT ISZERO PUSH2 0x584 JUMPI PUSH2 0xFA7 SWAP3 POP PUSH2 0x1F9B JUMP JUMPDEST POP DUP1 SLOAD PUSH1 0x1 DUP3 ADD SLOAD SWAP2 PUSH1 0x40 MLOAD PUSH2 0xFC4 DUP2 PUSH2 0x61A DUP2 PUSH1 0x2 DUP7 ADD PUSH2 0x1F05 JUMP JUMPDEST PUSH2 0xFF3 PUSH1 0x4 PUSH1 0xFF PUSH1 0x3 DUP6 ADD SLOAD AND SWAP4 ADD SLOAD SWAP2 PUSH1 0x40 MLOAD SWAP6 DUP7 SWAP6 DUP7 MSTORE PUSH1 0x20 DUP7 ADD MSTORE PUSH1 0xA0 PUSH1 0x40 DUP7 ADD MSTORE PUSH1 0xA0 DUP6 ADD SWAP1 PUSH2 0x1DAD JUMP JUMPDEST SWAP2 ISZERO ISZERO PUSH1 0x60 DUP5 ADD MSTORE PUSH1 0x80 DUP4 ADD MSTORE SUB SWAP1 RETURN JUMPDEST DUP3 CALLVALUE PUSH2 0x1A0 JUMPI PUSH1 0x20 CALLDATASIZE PUSH1 0x3 NOT ADD SLT PUSH2 0x1A0 JUMPI PUSH1 0x40 PUSH2 0x1073 SWAP2 PUSH1 0x4 CALLDATALOAD DUP2 MSTORE PUSH1 0x2 PUSH1 0x20 MSTORE KECCAK256 PUSH1 0x40 MLOAD SWAP1 PUSH2 0x1040 DUP3 PUSH2 0x1039 DUP2 DUP5 PUSH2 0x1F05 JUMP JUMPDEST SUB DUP4 PUSH2 0x1E52 JUMP JUMPDEST PUSH1 0x1 DUP2 ADD SLOAD SWAP1 PUSH1 0x2 DUP2 ADD SLOAD SWAP1 PUSH1 0x3 DUP2 ADD SLOAD PUSH1 0xFF PUSH1 0x5 PUSH1 0x4 DUP5 ADD SLOAD SWAP4 ADD SLOAD AND SWAP3 PUSH1 0x40 MLOAD SWAP7 DUP8 SWAP7 PUSH1 0xC0 DUP9 MSTORE PUSH1 0xC0 DUP9 ADD SWAP1 PUSH2 0x1DAD JUMP JUMPDEST SWAP5 PUSH1 0x20 DUP8 ADD MSTORE PUSH1 0x40 DUP7 ADD MSTORE PUSH1 0x60 DUP6 ADD MSTORE PUSH1 0x80 DUP5 ADD MSTORE ISZERO ISZERO PUSH1 0xA0 DUP4 ADD MSTORE SUB SWAP1 RETURN JUMPDEST DUP3 CALLVALUE PUSH2 0x1A0 JUMPI PUSH1 0xA0 CALLDATASIZE PUSH1 0x3 NOT ADD SLT PUSH2 0x1A0 JUMPI PUSH1 0x4 CALLDATALOAD PUSH1 0x1 PUSH1 0x1 PUSH1 0x40 SHL SUB DUP2 GT PUSH2 0x6A4 JUMPI PUSH2 0x10C4 SWAP1 CALLDATASIZE SWAP1 PUSH1 0x4 ADD PUSH2 0x1E75 JUMP JUMPDEST PUSH2 0x10CC PUSH2 0x21F7 JUMP JUMPDEST DUP1 MLOAD ISZERO PUSH2 0x1387 JUMPI PUSH1 0x44 CALLDATALOAD PUSH1 0x24 CALLDATALOAD LT ISZERO PUSH2 0x134C JUMPI PUSH1 0x64 CALLDATALOAD ISZERO PUSH2 0x12FC JUMPI PUSH1 0x40 MLOAD PUSH2 0x10F3 DUP2 PUSH2 0x1E24 JUMP JUMPDEST DUP2 DUP2 MSTORE PUSH1 0x24 CALLDATALOAD PUSH1 0x20 DUP3 ADD MSTORE PUSH1 0x44 CALLDATALOAD PUSH1 0x40 DUP3 ADD MSTORE PUSH1 0x64 CALLDATALOAD PUSH1 0x60 DUP3 ADD MSTORE PUSH1 0x84 CALLDATALOAD PUSH1 0x80 DUP3 ADD MSTORE PUSH1 0x1 PUSH1 0xA0 DUP3 ADD MSTORE PUSH1 0x3 SLOAD DUP4 MSTORE PUSH1 0x2 PUSH1 0x20 MSTORE PUSH1 0x40 DUP4 KECCAK256 SWAP1 DUP1 MLOAD DUP1 MLOAD SWAP1 PUSH1 0x1 DUP1 PUSH1 0x40 SHL SUB DUP3 GT PUSH2 0x12E8 JUMPI PUSH2 0x1148 DUP5 SLOAD PUSH2 0x1ECB JUMP JUMPDEST PUSH1 0x1F DUP2 GT PUSH2 0x12A7 JUMPI JUMPDEST POP PUSH1 0x20 SWAP1 PUSH1 0x1F DUP4 GT PUSH1 0x1 EQ PUSH2 0x1233 JUMPI PUSH2 0x11C0 SWAP4 DUP4 PUSH2 0x1222 SWAP8 SWAP7 SWAP5 PUSH1 0x5 SWAP5 PUSH1 0xA0 SWAP5 DUP12 SWAP3 PUSH2 0x1228 JUMPI JUMPDEST POP POP DUP2 PUSH1 0x1 SHL SWAP2 PUSH1 0x0 NOT SWAP1 PUSH1 0x3 SHL SHR NOT AND OR DUP5 SSTORE JUMPDEST PUSH1 0x20 DUP2 ADD MLOAD PUSH1 0x1 DUP6 ADD SSTORE PUSH1 0x40 DUP2 ADD MLOAD PUSH1 0x2 DUP6 ADD SSTORE PUSH1 0x60 DUP2 ADD MLOAD PUSH1 0x3 DUP6 ADD SSTORE PUSH1 0x80 DUP2 ADD MLOAD PUSH1 0x4 DUP6 ADD SSTORE ADD MLOAD ISZERO ISZERO SWAP2 ADD PUSH2 0x20A7 JUMP JUMPDEST PUSH32 0x6A11B609FA46EE9A457A505FDBAB82D52B066E85506E8BCFB821F88DF01E30A8 PUSH2 0x1202 PUSH1 0x3 SLOAD SWAP3 PUSH1 0x40 MLOAD SWAP2 DUP3 SWAP2 DUP6 DUP4 MSTORE PUSH1 0xA0 PUSH1 0x20 DUP5 ADD MSTORE PUSH1 0xA0 DUP4 ADD SWAP1 PUSH2 0x1DAD JUMP JUMPDEST PUSH1 0x24 CALLDATALOAD PUSH1 0x40 DUP4 ADD MSTORE PUSH1 0x44 CALLDATALOAD PUSH1 0x60 DUP4 ADD MSTORE PUSH1 0x64 CALLDATALOAD PUSH1 0x80 DUP4 ADD MSTORE SUB SWAP1 LOG1 PUSH2 0x210E JUMP JUMPDEST PUSH1 0x3 SSTORE DUP1 RETURN JUMPDEST ADD MLOAD SWAP1 POP DUP11 DUP1 PUSH2 0x1178 JUMP JUMPDEST SWAP1 DUP5 DUP8 MSTORE PUSH1 0x20 DUP8 KECCAK256 SWAP2 DUP8 JUMPDEST PUSH1 0x1F NOT DUP6 AND DUP2 LT PUSH2 0x128F JUMPI POP SWAP4 PUSH1 0x1 DUP5 PUSH1 0x5 SWAP5 PUSH1 0xA0 SWAP5 PUSH2 0x11C0 SWAP9 PUSH2 0x1222 SWAP12 SWAP11 SWAP9 PUSH1 0x1F NOT DUP2 AND LT PUSH2 0x1276 JUMPI JUMPDEST POP POP POP DUP2 SHL ADD DUP5 SSTORE PUSH2 0x118D JUMP JUMPDEST ADD MLOAD PUSH1 0x0 NOT PUSH1 0xF8 DUP5 PUSH1 0x3 SHL AND SHR NOT AND SWAP1 SSTORE DUP11 DUP1 DUP1 PUSH2 0x1269 JUMP JUMPDEST SWAP2 SWAP3 PUSH1 0x20 PUSH1 0x1 DUP2 SWAP3 DUP7 DUP6 ADD MLOAD DUP2 SSTORE ADD SWAP5 ADD SWAP3 ADD PUSH2 0x123E JUMP JUMPDEST DUP5 DUP8 MSTORE PUSH1 0x20 DUP8 KECCAK256 PUSH1 0x1F DUP5 ADD PUSH1 0x5 SHR DUP2 ADD PUSH1 0x20 DUP6 LT PUSH2 0x12E1 JUMPI JUMPDEST PUSH1 0x1F DUP4 ADD PUSH1 0x5 SHR DUP3 ADD DUP2 LT PUSH2 0x12D6 JUMPI POP POP PUSH2 0x1151 JUMP JUMPDEST DUP9 DUP2 SSTORE PUSH1 0x1 ADD PUSH2 0x12C0 JUMP JUMPDEST POP DUP1 PUSH2 0x12C0 JUMP JUMPDEST PUSH4 0x4E487B71 PUSH1 0xE0 SHL DUP7 MSTORE PUSH1 0x41 PUSH1 0x4 MSTORE PUSH1 0x24 DUP7 REVERT JUMPDEST PUSH1 0x40 MLOAD PUSH3 0x461BCD PUSH1 0xE5 SHL DUP2 MSTORE PUSH1 0x20 PUSH1 0x4 DUP3 ADD MSTORE PUSH1 0x22 PUSH1 0x24 DUP3 ADD MSTORE PUSH32 0x526577617264206D756C7469706C696572206D75737420626520706F73697469 PUSH1 0x44 DUP3 ADD MSTORE PUSH2 0x7665 PUSH1 0xF0 SHL PUSH1 0x64 DUP3 ADD MSTORE PUSH1 0x84 SWAP1 REVERT JUMPDEST PUSH1 0x40 MLOAD PUSH3 0x461BCD PUSH1 0xE5 SHL DUP2 MSTORE PUSH1 0x20 PUSH1 0x4 DUP3 ADD MSTORE PUSH1 0x13 PUSH1 0x24 DUP3 ADD MSTORE PUSH19 0x496E76616C696420706F696E742072616E6765 PUSH1 0x68 SHL PUSH1 0x44 DUP3 ADD MSTORE PUSH1 0x64 SWAP1 REVERT JUMPDEST PUSH1 0x40 MLOAD PUSH3 0x461BCD PUSH1 0xE5 SHL DUP2 MSTORE PUSH1 0x20 PUSH1 0x4 DUP3 ADD MSTORE PUSH1 0x19 PUSH1 0x24 DUP3 ADD MSTORE PUSH25 0x54696572206E616D652063616E6E6F7420626520656D707479 PUSH1 0x38 SHL PUSH1 0x44 DUP3 ADD MSTORE PUSH1 0x64 SWAP1 REVERT JUMPDEST DUP3 CALLVALUE PUSH2 0x1A0 JUMPI DUP1 PUSH1 0x3 NOT CALLDATASIZE ADD SLT PUSH2 0x1A0 JUMPI PUSH1 0x20 PUSH1 0x3 SLOAD PUSH1 0x40 MLOAD SWAP1 DUP2 MSTORE RETURN JUMPDEST DUP3 CALLVALUE PUSH2 0x1A0 JUMPI DUP1 PUSH1 0x3 NOT CALLDATASIZE ADD SLT PUSH2 0x1A0 JUMPI PUSH1 0x1 SLOAD PUSH1 0x40 MLOAD PUSH1 0x1 PUSH1 0x1 PUSH1 0xA0 SHL SUB SWAP1 SWAP2 AND DUP2 MSTORE PUSH1 0x20 SWAP1 RETURN JUMPDEST DUP3 CALLVALUE PUSH2 0x1A0 JUMPI PUSH2 0x141E CALLDATASIZE PUSH2 0x1D83 JUMP JUMPDEST SWAP3 SWAP2 PUSH2 0x1428 PUSH2 0x21F7 JUMP JUMPDEST PUSH1 0x1 PUSH1 0x1 PUSH1 0xA0 SHL SUB AND SWAP1 PUSH2 0x143D DUP3 ISZERO ISZERO PUSH2 0x20B8 JUMP JUMPDEST DUP1 ISZERO PUSH2 0x1547 JUMPI DUP4 ISZERO PUSH2 0x1509 JUMPI PUSH2 0x145D PUSH8 0xDE0B6B3A7640000 SWAP5 DUP6 SWAP3 PUSH2 0x20FB JUMP JUMPDEST DIV SWAP3 PUSH1 0xA DUP5 MUL SWAP4 DUP1 DUP6 DIV PUSH1 0xA EQ SWAP1 ISZERO OR ISZERO PUSH2 0x14F5 JUMPI DUP3 SWAP4 DIV DUP1 PUSH2 0x147E JUMPI POP POP RETURN JUMPDEST ADDRESS EXTCODESIZE ISZERO PUSH2 0x14F1 JUMPI PUSH1 0x40 MLOAD SWAP2 PUSH4 0x7D2DEA69 PUSH1 0xE1 SHL DUP4 MSTORE PUSH1 0x4 DUP4 ADD MSTORE PUSH1 0x24 DUP3 ADD MSTORE PUSH1 0x60 PUSH1 0x44 DUP3 ADD MSTORE PUSH1 0xC PUSH1 0x64 DUP3 ADD MSTORE PUSH12 0x564D46205370656E64696E67 PUSH1 0xA0 SHL PUSH1 0x84 DUP3 ADD MSTORE DUP2 DUP2 PUSH1 0xA4 DUP2 DUP4 ADDRESS GAS CALL DUP1 ISZERO PUSH2 0x14E6 JUMPI PUSH2 0x14D6 JUMPI POP RETURN JUMPDEST PUSH2 0x14DF SWAP1 PUSH2 0x1E3F JUMP JUMPDEST PUSH2 0x1A0 JUMPI DUP1 RETURN JUMPDEST PUSH1 0x40 MLOAD RETURNDATASIZE DUP5 DUP3 RETURNDATACOPY RETURNDATASIZE SWAP1 REVERT JUMPDEST POP POP REVERT JUMPDEST PUSH4 0x4E487B71 PUSH1 0xE0 SHL DUP4 MSTORE PUSH1 0x11 PUSH1 0x4 MSTORE PUSH1 0x24 DUP4 REVERT JUMPDEST PUSH1 0x40 MLOAD PUSH3 0x461BCD PUSH1 0xE5 SHL DUP2 MSTORE PUSH1 0x20 PUSH1 0x4 DUP3 ADD MSTORE PUSH1 0x16 PUSH1 0x24 DUP3 ADD MSTORE PUSH22 0x5072696365206D75737420626520706F736974697665 PUSH1 0x50 SHL PUSH1 0x44 DUP3 ADD MSTORE PUSH1 0x64 SWAP1 REVERT JUMPDEST PUSH1 0x40 MLOAD PUSH3 0x461BCD PUSH1 0xE5 SHL DUP2 MSTORE PUSH1 0x20 PUSH1 0x4 DUP3 ADD MSTORE PUSH1 0x17 PUSH1 0x24 DUP3 ADD MSTORE PUSH23 0x416D6F756E74206D75737420626520706F736974697665 PUSH1 0x48 SHL PUSH1 0x44 DUP3 ADD MSTORE PUSH1 0x64 SWAP1 REVERT JUMPDEST DUP3 CALLVALUE PUSH2 0x1A0 JUMPI DUP1 PUSH1 0x3 NOT CALLDATASIZE ADD SLT PUSH2 0x1A0 JUMPI PUSH1 0x20 PUSH1 0xA SLOAD PUSH1 0x40 MLOAD SWAP1 DUP2 MSTORE RETURN JUMPDEST DUP3 CALLVALUE PUSH2 0x1A0 JUMPI DUP1 PUSH1 0x3 NOT CALLDATASIZE ADD SLT PUSH2 0x1A0 JUMPI PUSH2 0x15BD PUSH2 0x21F7 JUMP JUMPDEST PUSH1 0x1 DUP1 SLOAD PUSH1 0x1 PUSH1 0x1 PUSH1 0xA0 SHL SUB NOT DUP2 AND SWAP1 SWAP2 SSTORE PUSH1 0x0 SWAP1 PUSH1 0x1 PUSH1 0x1 PUSH1 0xA0 SHL SUB AND PUSH1 0x0 DUP1 MLOAD PUSH1 0x20 PUSH2 0x23E8 DUP4 CODECOPY DUP2 MLOAD SWAP2 MSTORE DUP3 DUP1 LOG3 DUP1 RETURN JUMPDEST DUP3 CALLVALUE PUSH2 0x1A0 JUMPI DUP1 PUSH1 0x3 NOT CALLDATASIZE ADD SLT PUSH2 0x1A0 JUMPI PUSH1 0x20 PUSH1 0x40 MLOAD PUSH2 0x16D DUP2 MSTORE RETURN JUMPDEST DUP3 CALLVALUE PUSH2 0x1A0 JUMPI DUP1 PUSH1 0x3 NOT CALLDATASIZE ADD SLT PUSH2 0x1A0 JUMPI PUSH1 0x20 PUSH1 0xFF PUSH1 0x1 SLOAD PUSH1 0xA0 SHR AND PUSH1 0x40 MLOAD SWAP1 ISZERO ISZERO DUP2 MSTORE RETURN JUMPDEST DUP3 CALLVALUE PUSH2 0x1A0 JUMPI PUSH1 0x20 CALLDATASIZE PUSH1 0x3 NOT ADD SLT PUSH2 0x1A0 JUMPI PUSH2 0x164D PUSH2 0x1D6D JUMP JUMPDEST PUSH2 0x1655 PUSH2 0x21F7 JUMP JUMPDEST PUSH1 0x1 PUSH1 0x1 PUSH1 0xA0 SHL SUB AND SWAP1 PUSH2 0x166A DUP3 ISZERO ISZERO PUSH2 0x20B8 JUMP JUMPDEST DUP2 DUP2 MSTORE PUSH1 0x4 PUSH1 0x20 MSTORE PUSH1 0x5 PUSH1 0x40 DUP3 KECCAK256 ADD SLOAD PUSH1 0x1E DUP2 GT PUSH2 0x1775 JUMPI JUMPDEST DUP1 PUSH1 0x1 SHL SWAP1 DUP1 DUP3 DIV PUSH1 0x2 EQ SWAP1 ISZERO OR ISZERO PUSH2 0x1761 JUMPI PUSH1 0x5 ADD DUP1 PUSH1 0x5 GT PUSH2 0x1761 JUMPI ADDRESS EXTCODESIZE ISZERO PUSH2 0x6A4 JUMPI PUSH1 0x40 MLOAD SWAP1 PUSH4 0x7D2DEA69 PUSH1 0xE1 SHL DUP3 MSTORE DUP4 PUSH1 0x4 DUP4 ADD MSTORE PUSH1 0x24 DUP3 ADD MSTORE PUSH1 0x60 PUSH1 0x44 DUP3 ADD MSTORE PUSH1 0xA PUSH1 0x64 DUP3 ADD MSTORE PUSH10 0x47616D6520456E747279 PUSH1 0xB0 SHL PUSH1 0x84 DUP3 ADD MSTORE DUP2 DUP2 PUSH1 0xA4 DUP2 DUP4 ADDRESS GAS CALL DUP1 ISZERO PUSH2 0x14E6 JUMPI PUSH2 0x1752 JUMPI JUMPDEST POP SWAP1 DUP2 MSTORE PUSH1 0x4 PUSH1 0x20 MSTORE PUSH1 0x40 DUP2 KECCAK256 PUSH1 0x4 DUP2 ADD SWAP1 PUSH3 0x15180 PUSH2 0x1717 DUP4 SLOAD TIMESTAMP PUSH2 0x1FF0 JUMP JUMPDEST GT PUSH2 0x1746 JUMPI PUSH1 0x5 ADD PUSH1 0x1E PUSH2 0x172B DUP3 SLOAD PUSH2 0x210E JUMP JUMPDEST DUP1 DUP4 SSTORE GT PUSH2 0x173C JUMPI JUMPDEST POP JUMPDEST TIMESTAMP SWAP1 SSTORE DUP1 RETURN JUMPDEST PUSH1 0x1E SWAP1 SSTORE DUP3 PUSH2 0x1734 JUMP JUMPDEST PUSH1 0x5 PUSH1 0x1 SWAP2 ADD SSTORE PUSH2 0x1736 JUMP JUMPDEST PUSH2 0x175B SWAP1 PUSH2 0x1E3F JUMP JUMPDEST DUP3 PUSH2 0x16F6 JUMP JUMPDEST PUSH4 0x4E487B71 PUSH1 0xE0 SHL DUP3 MSTORE PUSH1 0x11 PUSH1 0x4 MSTORE PUSH1 0x24 DUP3 REVERT JUMPDEST POP PUSH1 0x1E PUSH2 0x1683 JUMP JUMPDEST SWAP1 POP CALLVALUE PUSH2 0x6A4 JUMPI CALLDATASIZE PUSH1 0x3 NOT ADD SLT PUSH2 0x1A0 JUMPI PUSH1 0x4 CALLDATALOAD PUSH1 0x1 PUSH1 0x1 PUSH1 0x40 SHL SUB PUSH1 0x24 CALLDATALOAD DUP2 DUP2 GT PUSH2 0x1987 JUMPI PUSH2 0x17B1 SWAP1 CALLDATASIZE SWAP1 PUSH1 0x4 ADD PUSH2 0x1E75 JUMP JUMPDEST SWAP2 PUSH1 0xC4 CALLDATALOAD SWAP2 DUP3 ISZERO ISZERO DUP1 SWAP4 SUB PUSH2 0xE46 JUMPI PUSH2 0x17C8 PUSH2 0x21F7 JUMP JUMPDEST PUSH2 0x17D5 PUSH1 0x3 SLOAD DUP4 LT PUSH2 0x2028 JUMP JUMPDEST DUP2 DUP6 MSTORE PUSH1 0x20 SWAP1 PUSH1 0x2 DUP3 MSTORE PUSH2 0x17F2 PUSH1 0xFF PUSH1 0x5 PUSH1 0x40 DUP10 KECCAK256 ADD SLOAD AND PUSH2 0x2066 JUMP JUMPDEST PUSH1 0x40 MLOAD SWAP5 PUSH2 0x17FF DUP7 PUSH2 0x1E24 JUMP JUMPDEST DUP6 MSTORE DUP2 DUP6 ADD PUSH1 0x44 CALLDATALOAD DUP2 MSTORE PUSH1 0x40 DUP7 ADD SWAP2 PUSH1 0x64 CALLDATALOAD DUP4 MSTORE PUSH1 0x60 DUP8 ADD SWAP4 PUSH1 0x84 CALLDATALOAD DUP6 MSTORE PUSH1 0x80 DUP9 ADD SWAP6 PUSH1 0xA4 CALLDATALOAD DUP8 MSTORE PUSH1 0xA0 DUP10 ADD SWAP8 DUP9 MSTORE DUP10 MSTORE PUSH1 0x2 DUP2 MSTORE PUSH1 0x40 DUP10 KECCAK256 SWAP8 MLOAD DUP1 MLOAD SWAP3 DUP4 GT PUSH2 0x1973 JUMPI PUSH2 0x184D DUP10 SLOAD PUSH2 0x1ECB JUMP JUMPDEST PUSH1 0x1F DUP2 GT PUSH2 0x1930 JUMPI JUMPDEST POP DUP2 PUSH1 0x1F DUP5 GT PUSH1 0x1 EQ PUSH2 0x18BF JUMPI POP SWAP2 DUP1 PUSH2 0x18B1 SWAP10 SWAP9 SWAP7 SWAP5 SWAP3 PUSH1 0x5 SWAP9 SWAP7 SWAP5 DUP13 SWAP3 PUSH2 0x18B4 JUMPI JUMPDEST POP POP DUP2 PUSH1 0x1 SHL SWAP2 PUSH1 0x0 NOT SWAP1 PUSH1 0x3 SHL SHR NOT AND OR DUP8 SSTORE JUMPDEST MLOAD PUSH1 0x1 DUP8 ADD SSTORE MLOAD PUSH1 0x2 DUP7 ADD SSTORE MLOAD PUSH1 0x3 DUP6 ADD SSTORE MLOAD PUSH1 0x4 DUP5 ADD SSTORE MLOAD ISZERO ISZERO SWAP2 ADD PUSH2 0x20A7 JUMP JUMPDEST DUP1 RETURN JUMPDEST ADD MLOAD SWAP1 POP CODESIZE DUP1 PUSH2 0x187A JUMP JUMPDEST SWAP2 SWAP1 PUSH1 0x1F NOT DUP5 AND DUP11 DUP13 MSTORE DUP4 DUP13 KECCAK256 SWAP4 DUP13 SWAP1 JUMPDEST DUP3 DUP3 LT PUSH2 0x1918 JUMPI POP POP SWAP3 PUSH1 0x1 SWAP3 DUP6 SWAP3 PUSH1 0x5 SWAP11 SWAP9 SWAP7 PUSH2 0x18B1 SWAP14 SWAP13 SWAP11 SWAP9 SWAP7 LT PUSH2 0x18FF JUMPI JUMPDEST POP POP POP DUP2 SHL ADD DUP8 SSTORE PUSH2 0x188F JUMP JUMPDEST ADD MLOAD PUSH1 0x0 NOT PUSH1 0xF8 DUP5 PUSH1 0x3 SHL AND SHR NOT AND SWAP1 SSTORE CODESIZE DUP1 DUP1 PUSH2 0x18F2 JUMP JUMPDEST DUP1 PUSH1 0x1 DUP7 SWAP8 DUP3 SWAP5 SWAP8 DUP8 ADD MLOAD DUP2 SSTORE ADD SWAP7 ADD SWAP5 ADD SWAP1 PUSH2 0x18D0 JUMP JUMPDEST DUP10 DUP12 MSTORE DUP3 DUP12 KECCAK256 PUSH1 0x1F DUP6 ADD PUSH1 0x5 SHR DUP2 ADD SWAP2 DUP5 DUP7 LT PUSH2 0x1969 JUMPI JUMPDEST PUSH1 0x1F ADD PUSH1 0x5 SHR ADD SWAP1 JUMPDEST DUP2 DUP2 LT PUSH2 0x195E JUMPI POP PUSH2 0x1856 JUMP JUMPDEST DUP12 DUP2 SSTORE PUSH1 0x1 ADD PUSH2 0x1951 JUMP JUMPDEST SWAP1 SWAP2 POP DUP2 SWAP1 PUSH2 0x1948 JUMP JUMPDEST PUSH4 0x4E487B71 PUSH1 0xE0 SHL DUP11 MSTORE PUSH1 0x41 PUSH1 0x4 MSTORE PUSH1 0x24 DUP11 REVERT JUMPDEST DUP4 DUP1 REVERT JUMPDEST DUP3 CALLVALUE PUSH2 0x1A0 JUMPI PUSH2 0x199A CALLDATASIZE PUSH2 0x1D83 JUMP JUMPDEST SWAP2 PUSH1 0x1 DUP1 PUSH1 0xA0 SHL SUB AND DUP4 MSTORE PUSH1 0x20 SWAP2 PUSH1 0x5 DUP4 MSTORE PUSH1 0x40 DUP5 KECCAK256 SWAP2 DUP3 SLOAD SWAP2 DUP3 DUP3 LT ISZERO PUSH2 0x1B71 JUMPI PUSH2 0x19C6 SWAP1 DUP3 PUSH2 0x1FCD JUMP JUMPDEST SWAP2 DUP1 DUP4 GT PUSH2 0x1B69 JUMPI JUMPDEST POP PUSH2 0x19DD DUP2 DUP4 SWAP7 SWAP6 SWAP7 PUSH2 0x1FF0 JUMP JUMPDEST SWAP3 PUSH2 0x1A00 PUSH2 0x19EA DUP6 PUSH2 0x1FFD JUMP JUMPDEST SWAP5 PUSH2 0x19F8 PUSH1 0x40 MLOAD SWAP7 DUP8 PUSH2 0x1E52 JUMP JUMPDEST DUP1 DUP7 MSTORE PUSH2 0x1FFD JUMP JUMPDEST PUSH1 0x1F NOT ADD DUP6 JUMPDEST DUP2 DUP2 LT PUSH2 0x1B30 JUMPI POP POP DUP2 JUMPDEST DUP4 DUP2 LT PUSH2 0x1AAC JUMPI POP POP POP POP PUSH1 0x40 MLOAD SWAP2 DUP4 DUP4 ADD DUP5 DUP5 MSTORE DUP3 MLOAD DUP1 SWAP2 MSTORE PUSH1 0x40 DUP5 ADD SWAP5 DUP1 PUSH1 0x40 DUP4 PUSH1 0x5 SHL DUP8 ADD ADD SWAP5 ADD SWAP3 SWAP6 JUMPDEST DUP3 DUP8 LT PUSH2 0x1A4C JUMPI DUP6 DUP6 SUB DUP7 RETURN JUMPDEST SWAP1 SWAP2 SWAP3 SWAP4 DUP3 DUP1 PUSH1 0x1 SWAP3 PUSH1 0x3F NOT DUP10 DUP3 SUB ADD DUP6 MSTORE DUP8 MLOAD SWAP1 PUSH2 0x1A86 PUSH1 0xA0 DUP4 MLOAD DUP4 MSTORE DUP5 DUP5 ADD MLOAD DUP6 DUP5 ADD MSTORE PUSH1 0x40 DUP5 ADD MLOAD SWAP1 DUP1 PUSH1 0x40 DUP6 ADD MSTORE DUP4 ADD SWAP1 PUSH2 0x1DAD JUMP JUMPDEST SWAP2 PUSH1 0x60 DUP1 DUP3 ADD MLOAD ISZERO ISZERO SWAP1 DUP4 ADD MSTORE PUSH1 0x80 DUP1 SWAP2 ADD MLOAD SWAP2 ADD MSTORE SWAP7 ADD SWAP3 ADD SWAP7 ADD SWAP6 SWAP3 SWAP2 SWAP1 SWAP3 PUSH2 0x1A3F JUMP JUMPDEST DUP1 PUSH2 0x1B26 PUSH2 0x1ABF PUSH1 0x1 SWAP4 DUP6 SWAP11 SWAP10 SWAP11 PUSH2 0x1F9B JUMP JUMPDEST POP PUSH2 0x1ACA DUP7 DUP5 PUSH2 0x1FF0 JUMP JUMPDEST SWAP1 PUSH1 0x4 PUSH1 0x40 MLOAD SWAP2 PUSH2 0x1ADA DUP4 PUSH2 0x1E09 JUMP JUMPDEST DUP1 SLOAD DUP4 MSTORE DUP7 DUP2 ADD SLOAD DUP13 DUP5 ADD MSTORE PUSH1 0x40 MLOAD PUSH2 0x1AFA DUP2 PUSH2 0x61A DUP2 PUSH1 0x2 DUP7 ADD PUSH2 0x1F05 JUMP JUMPDEST PUSH1 0x40 DUP5 ADD MSTORE PUSH1 0xFF PUSH1 0x3 DUP3 ADD SLOAD AND ISZERO ISZERO PUSH1 0x60 DUP5 ADD MSTORE ADD SLOAD PUSH1 0x80 DUP3 ADD MSTORE PUSH2 0x1B1F DUP3 DUP11 PUSH2 0x2014 JUMP JUMPDEST MSTORE DUP8 PUSH2 0x2014 JUMP JUMPDEST POP ADD SWAP6 SWAP5 SWAP6 PUSH2 0x1A11 JUMP JUMPDEST SWAP7 DUP1 SWAP7 SWAP8 PUSH1 0x40 MLOAD PUSH2 0x1B40 DUP2 PUSH2 0x1E09 JUMP JUMPDEST DUP10 DUP2 MSTORE DUP10 DUP4 DUP3 ADD MSTORE DUP10 PUSH1 0x60 DUP1 PUSH1 0x40 DUP5 ADD MSTORE DUP3 ADD MSTORE DUP10 PUSH1 0x80 DUP3 ADD MSTORE DUP3 DUP3 DUP10 ADD ADD MSTORE ADD SWAP7 SWAP6 SWAP7 PUSH2 0x1A06 JUMP JUMPDEST SWAP2 POP DUP6 PUSH2 0x19CF JUMP JUMPDEST PUSH1 0x40 MLOAD PUSH3 0x461BCD PUSH1 0xE5 SHL DUP2 MSTORE PUSH1 0x4 DUP2 ADD DUP7 SWAP1 MSTORE PUSH1 0x13 PUSH1 0x24 DUP3 ADD MSTORE PUSH19 0x92DCECC2D8D2C840E6E8C2E4E840D2DCC8CAF PUSH1 0x6B SHL PUSH1 0x44 DUP3 ADD MSTORE PUSH1 0x64 SWAP1 REVERT JUMPDEST DUP3 CALLVALUE PUSH2 0x1A0 JUMPI DUP1 PUSH1 0x3 NOT CALLDATASIZE ADD SLT PUSH2 0x1A0 JUMPI PUSH1 0x20 PUSH1 0x40 MLOAD PUSH1 0x1E DUP2 MSTORE RETURN JUMPDEST DUP3 CALLVALUE PUSH2 0x1A0 JUMPI PUSH1 0x20 CALLDATASIZE PUSH1 0x3 NOT ADD SLT PUSH2 0x1A0 JUMPI PUSH1 0x20 SWAP1 PUSH1 0xFF SWAP1 PUSH1 0x40 SWAP1 PUSH1 0x1 PUSH1 0x1 PUSH1 0xA0 SHL SUB PUSH2 0x1BF3 PUSH2 0x1D6D JUMP JUMPDEST AND DUP2 MSTORE PUSH1 0x6 DUP5 MSTORE KECCAK256 SLOAD AND PUSH1 0x40 MLOAD SWAP1 ISZERO ISZERO DUP2 MSTORE RETURN JUMPDEST DUP3 CALLVALUE PUSH2 0x1A0 JUMPI DUP1 PUSH1 0x3 NOT CALLDATASIZE ADD SLT PUSH2 0x1A0 JUMPI PUSH1 0x40 MLOAD PUSH32 0x0 PUSH1 0x1 PUSH1 0x1 PUSH1 0xA0 SHL SUB AND DUP2 MSTORE PUSH1 0x20 SWAP1 RETURN JUMPDEST SWAP1 POP CALLVALUE PUSH2 0x6A4 JUMPI PUSH1 0x20 CALLDATASIZE PUSH1 0x3 NOT ADD SLT PUSH2 0x6A4 JUMPI PUSH1 0x40 PUSH2 0x100 SWAP3 PUSH2 0x1C6D PUSH2 0x1D6D JUMP JUMPDEST DUP2 DUP5 DUP5 MLOAD PUSH2 0x1C7A DUP2 PUSH2 0x1DED JUMP JUMPDEST DUP3 DUP2 MSTORE DUP3 PUSH1 0x20 DUP3 ADD MSTORE DUP3 DUP7 DUP3 ADD MSTORE DUP3 PUSH1 0x60 DUP3 ADD MSTORE DUP3 PUSH1 0x80 DUP3 ADD MSTORE DUP3 PUSH1 0xA0 DUP3 ADD MSTORE DUP3 PUSH1 0xC0 DUP3 ADD MSTORE ADD MSTORE PUSH1 0x1 DUP1 PUSH1 0xA0 SHL SUB AND DUP2 MSTORE PUSH1 0x4 PUSH1 0x20 MSTORE KECCAK256 SWAP1 PUSH1 0x40 MLOAD PUSH2 0x1CBF DUP2 PUSH2 0x1DED JUMP JUMPDEST DUP3 SLOAD SWAP3 DUP4 DUP3 MSTORE PUSH1 0x1 DUP2 ADD SLOAD PUSH1 0x20 DUP4 ADD SWAP1 DUP2 MSTORE PUSH1 0x2 DUP3 ADD SLOAD PUSH1 0x40 DUP5 ADD SWAP1 DUP2 MSTORE PUSH1 0x3 DUP4 ADD SLOAD PUSH1 0x60 DUP6 ADD SWAP1 DUP2 MSTORE PUSH1 0x4 DUP5 ADD SLOAD SWAP2 PUSH1 0x80 DUP7 ADD SWAP3 DUP4 MSTORE PUSH1 0x5 DUP6 ADD SLOAD SWAP4 PUSH1 0xA0 DUP8 ADD SWAP5 DUP6 MSTORE DUP8 PUSH1 0xFF PUSH1 0x7 PUSH1 0x6 DUP10 ADD SLOAD SWAP9 PUSH1 0xC0 DUP12 ADD SWAP10 DUP11 MSTORE ADD SLOAD AND SWAP8 ADD SWAP7 ISZERO ISZERO DUP8 MSTORE PUSH1 0x40 MLOAD SWAP9 DUP10 MSTORE MLOAD PUSH1 0x20 DUP10 ADD MSTORE MLOAD PUSH1 0x40 DUP9 ADD MSTORE MLOAD PUSH1 0x60 DUP8 ADD MSTORE MLOAD PUSH1 0x80 DUP7 ADD MSTORE MLOAD PUSH1 0xA0 DUP6 ADD MSTORE MLOAD PUSH1 0xC0 DUP5 ADD MSTORE MLOAD ISZERO ISZERO SWAP1 DUP3 ADD MSTORE RETURN JUMPDEST DUP4 SWAP1 CALLVALUE PUSH2 0x6A4 JUMPI DUP2 PUSH1 0x3 NOT CALLDATASIZE ADD SLT PUSH2 0x6A4 JUMPI DUP1 PUSH1 0xA PUSH1 0x20 SWAP3 MSTORE RETURN JUMPDEST PUSH1 0x4 CALLDATALOAD SWAP1 PUSH1 0x1 PUSH1 0x1 PUSH1 0xA0 SHL SUB DUP3 AND DUP3 SUB PUSH2 0xC32 JUMPI JUMP JUMPDEST PUSH1 0x60 SWAP1 PUSH1 0x3 NOT ADD SLT PUSH2 0xC32 JUMPI PUSH1 0x4 CALLDATALOAD PUSH1 0x1 PUSH1 0x1 PUSH1 0xA0 SHL SUB DUP2 AND DUP2 SUB PUSH2 0xC32 JUMPI SWAP1 PUSH1 0x24 CALLDATALOAD SWAP1 PUSH1 0x44 CALLDATALOAD SWAP1 JUMP JUMPDEST SWAP2 SWAP1 DUP3 MLOAD SWAP3 DUP4 DUP3 MSTORE PUSH1 0x0 JUMPDEST DUP5 DUP2 LT PUSH2 0x1DD9 JUMPI POP POP DUP3 PUSH1 0x0 PUSH1 0x20 DUP1 SWAP5 SWAP6 DUP5 ADD ADD MSTORE PUSH1 0x1F DUP1 NOT SWAP2 ADD AND ADD ADD SWAP1 JUMP JUMPDEST PUSH1 0x20 DUP2 DUP4 ADD DUP2 ADD MLOAD DUP5 DUP4 ADD DUP3 ADD MSTORE ADD PUSH2 0x1DB8 JUMP JUMPDEST PUSH2 0x100 DUP2 ADD SWAP1 DUP2 LT PUSH1 0x1 PUSH1 0x1 PUSH1 0x40 SHL SUB DUP3 GT OR PUSH2 0x52B JUMPI PUSH1 0x40 MSTORE JUMP JUMPDEST PUSH1 0xA0 DUP2 ADD SWAP1 DUP2 LT PUSH1 0x1 PUSH1 0x1 PUSH1 0x40 SHL SUB DUP3 GT OR PUSH2 0x52B JUMPI PUSH1 0x40 MSTORE JUMP JUMPDEST PUSH1 0xC0 DUP2 ADD SWAP1 DUP2 LT PUSH1 0x1 PUSH1 0x1 PUSH1 0x40 SHL SUB DUP3 GT OR PUSH2 0x52B JUMPI PUSH1 0x40 MSTORE JUMP JUMPDEST PUSH1 0x1 PUSH1 0x1 PUSH1 0x40 SHL SUB DUP2 GT PUSH2 0x52B JUMPI PUSH1 0x40 MSTORE JUMP JUMPDEST PUSH1 0x1F SWAP1 SWAP2 ADD PUSH1 0x1F NOT AND DUP2 ADD SWAP1 PUSH1 0x1 PUSH1 0x1 PUSH1 0x40 SHL SUB DUP3 GT SWAP1 DUP3 LT OR PUSH2 0x52B JUMPI PUSH1 0x40 MSTORE JUMP JUMPDEST DUP2 PUSH1 0x1F DUP3 ADD SLT ISZERO PUSH2 0xC32 JUMPI DUP1 CALLDATALOAD SWAP1 PUSH1 0x1 PUSH1 0x1 PUSH1 0x40 SHL SUB DUP3 GT PUSH2 0x52B JUMPI PUSH1 0x40 MLOAD SWAP3 PUSH2 0x1EA9 PUSH1 0x1F DUP5 ADD PUSH1 0x1F NOT AND PUSH1 0x20 ADD DUP6 PUSH2 0x1E52 JUMP JUMPDEST DUP3 DUP5 MSTORE PUSH1 0x20 DUP4 DUP4 ADD ADD GT PUSH2 0xC32 JUMPI DUP2 PUSH1 0x0 SWAP3 PUSH1 0x20 DUP1 SWAP4 ADD DUP4 DUP7 ADD CALLDATACOPY DUP4 ADD ADD MSTORE SWAP1 JUMP JUMPDEST SWAP1 PUSH1 0x1 DUP3 DUP2 SHR SWAP3 AND DUP1 ISZERO PUSH2 0x1EFB JUMPI JUMPDEST PUSH1 0x20 DUP4 LT EQ PUSH2 0x1EE5 JUMPI JUMP JUMPDEST PUSH4 0x4E487B71 PUSH1 0xE0 SHL PUSH1 0x0 MSTORE PUSH1 0x22 PUSH1 0x4 MSTORE PUSH1 0x24 PUSH1 0x0 REVERT JUMPDEST SWAP2 PUSH1 0x7F AND SWAP2 PUSH2 0x1EDA JUMP JUMPDEST DUP1 SLOAD PUSH1 0x0 SWAP4 SWAP3 PUSH2 0x1F14 DUP3 PUSH2 0x1ECB JUMP JUMPDEST SWAP2 DUP3 DUP3 MSTORE PUSH1 0x20 SWAP4 PUSH1 0x1 SWAP2 PUSH1 0x1 DUP2 AND SWAP1 DUP2 PUSH1 0x0 EQ PUSH2 0x1F7C JUMPI POP PUSH1 0x1 EQ PUSH2 0x1F3B JUMPI JUMPDEST POP POP POP POP POP JUMP JUMPDEST SWAP1 SWAP4 SWAP5 SWAP6 POP PUSH1 0x0 SWAP3 SWAP2 SWAP3 MSTORE DUP4 PUSH1 0x0 KECCAK256 SWAP3 DUP5 PUSH1 0x0 SWAP5 JUMPDEST DUP4 DUP7 LT PUSH2 0x1F68 JUMPI POP POP POP POP ADD ADD SWAP1 CODESIZE DUP1 DUP1 DUP1 DUP1 PUSH2 0x1F34 JUMP JUMPDEST DUP1 SLOAD DUP6 DUP8 ADD DUP4 ADD MSTORE SWAP5 ADD SWAP4 DUP6 SWAP1 DUP3 ADD PUSH2 0x1F50 JUMP JUMPDEST PUSH1 0xFF NOT AND DUP7 DUP6 ADD MSTORE POP POP POP SWAP1 ISZERO ISZERO PUSH1 0x5 SHL ADD ADD SWAP2 POP CODESIZE DUP1 DUP1 DUP1 DUP1 PUSH2 0x1F34 JUMP JUMPDEST DUP1 SLOAD DUP3 LT ISZERO PUSH2 0x1FB7 JUMPI PUSH1 0x0 MSTORE PUSH1 0x5 PUSH1 0x20 PUSH1 0x0 KECCAK256 SWAP2 MUL ADD SWAP1 PUSH1 0x0 SWAP1 JUMP JUMPDEST PUSH4 0x4E487B71 PUSH1 0xE0 SHL PUSH1 0x0 MSTORE PUSH1 0x32 PUSH1 0x4 MSTORE PUSH1 0x24 PUSH1 0x0 REVERT JUMPDEST SWAP2 SWAP1 DUP3 ADD DUP1 SWAP3 GT PUSH2 0x1FDA JUMPI JUMP JUMPDEST PUSH4 0x4E487B71 PUSH1 0xE0 SHL PUSH1 0x0 MSTORE PUSH1 0x11 PUSH1 0x4 MSTORE PUSH1 0x24 PUSH1 0x0 REVERT JUMPDEST SWAP2 SWAP1 DUP3 SUB SWAP2 DUP3 GT PUSH2 0x1FDA JUMPI JUMP JUMPDEST PUSH1 0x1 PUSH1 0x1 PUSH1 0x40 SHL SUB DUP2 GT PUSH2 0x52B JUMPI PUSH1 0x5 SHL PUSH1 0x20 ADD SWAP1 JUMP JUMPDEST DUP1 MLOAD DUP3 LT ISZERO PUSH2 0x1FB7 JUMPI PUSH1 0x20 SWAP2 PUSH1 0x5 SHL ADD ADD SWAP1 JUMP JUMPDEST ISZERO PUSH2 0x202F JUMPI JUMP JUMPDEST PUSH1 0x40 MLOAD PUSH3 0x461BCD PUSH1 0xE5 SHL DUP2 MSTORE PUSH1 0x20 PUSH1 0x4 DUP3 ADD MSTORE PUSH1 0xF PUSH1 0x24 DUP3 ADD MSTORE PUSH15 0x125B9D985B1A59081D1A595C881251 PUSH1 0x8A SHL PUSH1 0x44 DUP3 ADD MSTORE PUSH1 0x64 SWAP1 REVERT JUMPDEST ISZERO PUSH2 0x206D JUMPI JUMP JUMPDEST PUSH1 0x40 MLOAD PUSH3 0x461BCD PUSH1 0xE5 SHL DUP2 MSTORE PUSH1 0x20 PUSH1 0x4 DUP3 ADD MSTORE PUSH1 0x12 PUSH1 0x24 DUP3 ADD MSTORE PUSH18 0x54696572206973206E6F7420616374697665 PUSH1 0x70 SHL PUSH1 0x44 DUP3 ADD MSTORE PUSH1 0x64 SWAP1 REVERT JUMPDEST SWAP1 PUSH1 0xFF DUP1 NOT DUP4 SLOAD AND SWAP2 ISZERO ISZERO AND OR SWAP1 SSTORE JUMP JUMPDEST ISZERO PUSH2 0x20BF JUMPI JUMP JUMPDEST PUSH1 0x40 MLOAD PUSH3 0x461BCD PUSH1 0xE5 SHL DUP2 MSTORE PUSH1 0x20 PUSH1 0x4 DUP3 ADD MSTORE PUSH1 0x14 PUSH1 0x24 DUP3 ADD MSTORE PUSH20 0x496E76616C696420757365722061646472657373 PUSH1 0x60 SHL PUSH1 0x44 DUP3 ADD MSTORE PUSH1 0x64 SWAP1 REVERT JUMPDEST DUP2 DUP2 MUL SWAP3 SWAP2 DUP2 ISZERO SWAP2 DUP5 DIV EQ OR ISZERO PUSH2 0x1FDA JUMPI JUMP JUMPDEST PUSH1 0x0 NOT DUP2 EQ PUSH2 0x1FDA JUMPI PUSH1 0x1 ADD SWAP1 JUMP JUMPDEST SWAP1 DUP2 PUSH1 0x20 SWAP2 SUB SLT PUSH2 0xC32 JUMPI MLOAD DUP1 ISZERO ISZERO DUP2 SUB PUSH2 0xC32 JUMPI SWAP1 JUMP JUMPDEST PUSH1 0x1 PUSH1 0x1 PUSH1 0xA0 SHL SUB SWAP1 SWAP2 AND DUP2 MSTORE PUSH1 0x20 DUP2 ADD SWAP2 SWAP1 SWAP2 MSTORE PUSH1 0x40 ADD SWAP1 JUMP JUMPDEST ISZERO PUSH2 0x2157 JUMPI JUMP JUMPDEST PUSH1 0x40 MLOAD PUSH3 0x461BCD PUSH1 0xE5 SHL DUP2 MSTORE PUSH1 0x20 PUSH1 0x4 DUP3 ADD MSTORE PUSH1 0x13 PUSH1 0x24 DUP3 ADD MSTORE PUSH19 0x155CD95C881A5CC8189B1858DADB1A5CDD1959 PUSH1 0x6A SHL PUSH1 0x44 DUP3 ADD MSTORE PUSH1 0x64 SWAP1 REVERT JUMPDEST ISZERO PUSH2 0x2199 JUMPI JUMP JUMPDEST PUSH1 0x40 MLOAD PUSH3 0x461BCD PUSH1 0xE5 SHL DUP2 MSTORE PUSH1 0x20 PUSH1 0x4 DUP3 ADD MSTORE PUSH1 0x17 PUSH1 0x24 DUP3 ADD MSTORE PUSH23 0x506F696E7473206D75737420626520706F736974697665 PUSH1 0x48 SHL PUSH1 0x44 DUP3 ADD MSTORE PUSH1 0x64 SWAP1 REVERT JUMPDEST PUSH2 0x21F4 SWAP4 SWAP3 PUSH1 0x60 SWAP3 DUP3 MSTORE PUSH1 0x20 DUP3 ADD MSTORE DUP2 PUSH1 0x40 DUP3 ADD MSTORE ADD SWAP1 PUSH2 0x1F05 JUMP JUMPDEST SWAP1 JUMP JUMPDEST PUSH1 0x1 SLOAD PUSH1 0x1 PUSH1 0x1 PUSH1 0xA0 SHL SUB AND CALLER SUB PUSH2 0x220B JUMPI JUMP JUMPDEST PUSH1 0x40 MLOAD PUSH4 0x118CDAA7 PUSH1 0xE0 SHL DUP2 MSTORE CALLER PUSH1 0x4 DUP3 ADD MSTORE PUSH1 0x24 SWAP1 REVERT JUMPDEST PUSH1 0x1 PUSH1 0x1 PUSH1 0xA0 SHL SUB AND PUSH1 0x0 SWAP1 DUP2 MSTORE PUSH1 0x4 PUSH1 0x20 MSTORE PUSH1 0x40 DUP2 KECCAK256 PUSH1 0x1 ADD SLOAD PUSH1 0x3 SLOAD SWAP2 SWAP4 SWAP3 SWAP2 DUP2 LT DUP1 ISZERO SWAP1 PUSH2 0x22DD JUMPI JUMPDEST PUSH2 0x22D6 JUMPI JUMPDEST DUP4 MSTORE PUSH1 0x2 PUSH1 0x20 MSTORE PUSH1 0x40 DUP4 KECCAK256 PUSH8 0xDE0B6B3A7640000 SWAP2 DUP3 DUP2 MUL SWAP1 DUP1 DUP3 DIV DUP5 EQ SWAP1 ISZERO OR ISZERO PUSH2 0x22C2 JUMPI PUSH1 0x64 PUSH2 0x228F PUSH1 0x4 SWAP3 DUP3 PUSH1 0x3 DUP7 ADD SLOAD SWAP2 DIV PUSH2 0x20FB JUMP JUMPDEST DIV SWAP2 ADD SLOAD DUP3 DUP2 MUL SWAP3 DUP2 DUP5 DIV EQ SWAP1 ISZERO OR ISZERO PUSH2 0x22AE JUMPI PUSH2 0x21F4 SWAP3 SWAP4 POP PUSH2 0x1FCD JUMP JUMPDEST PUSH4 0x4E487B71 PUSH1 0xE0 SHL DUP5 MSTORE PUSH1 0x11 PUSH1 0x4 MSTORE PUSH1 0x24 DUP5 REVERT JUMPDEST PUSH4 0x4E487B71 PUSH1 0xE0 SHL DUP6 MSTORE PUSH1 0x11 PUSH1 0x4 MSTORE PUSH1 0x24 DUP6 REVERT JUMPDEST POP DUP3 PUSH2 0x2254 JUMP JUMPDEST POP DUP1 DUP5 MSTORE PUSH1 0x2 PUSH1 0x20 MSTORE PUSH1 0xFF PUSH1 0x5 PUSH1 0x40 DUP7 KECCAK256 ADD SLOAD AND ISZERO PUSH2 0x224F JUMP JUMPDEST PUSH1 0x2 PUSH1 0x0 SLOAD EQ PUSH2 0x2308 JUMPI PUSH1 0x2 PUSH1 0x0 SSTORE JUMP JUMPDEST PUSH1 0x40 MLOAD PUSH4 0x3EE5AEB5 PUSH1 0xE0 SHL DUP2 MSTORE PUSH1 0x4 SWAP1 REVERT JUMPDEST PUSH1 0xFF PUSH1 0x1 SLOAD PUSH1 0xA0 SHR AND PUSH2 0x2329 JUMPI JUMP JUMPDEST PUSH1 0x40 MLOAD PUSH4 0xD93C0665 PUSH1 0xE0 SHL DUP2 MSTORE PUSH1 0x4 SWAP1 REVERT JUMPDEST PUSH1 0x3 SLOAD SWAP1 PUSH1 0x0 JUMPDEST DUP3 DUP2 LT PUSH2 0x2351 JUMPI POP POP POP PUSH1 0x0 SWAP1 JUMP JUMPDEST DUP1 PUSH1 0x0 MSTORE PUSH1 0x2 DUP1 PUSH1 0x20 MSTORE PUSH1 0x40 PUSH1 0x0 KECCAK256 SWAP1 PUSH1 0xFF PUSH1 0x5 DUP4 ADD SLOAD AND SWAP2 DUP3 PUSH2 0x2398 JUMPI JUMPDEST DUP3 PUSH2 0x238A JUMPI JUMPDEST POP POP PUSH2 0x2384 JUMPI PUSH1 0x1 ADD PUSH2 0x2342 JUMP JUMPDEST SWAP2 POP POP SWAP1 JUMP JUMPDEST ADD SLOAD DUP4 GT ISZERO SWAP1 POP CODESIZE DUP1 PUSH2 0x2376 JUMP JUMPDEST PUSH1 0x1 DUP2 ADD SLOAD DUP6 LT ISZERO SWAP3 POP PUSH2 0x2370 JUMP INVALID PUSH0 0x2A 0xAE REVERT 0xBF DUP13 0x25 RETURNDATACOPY PUSH27 0x8A9F91ED407FE3AFC0C188192D314FC5791519222526A9D2079CBD 0x2A 0xE2 DIV 0xCB GT 0xE6 PUSH28 0xEABB9F61B660239894DE98AC292F27BFC385A81F208BE0079C531659 EQ SGT PREVRANDAO 0xCD 0x1F 0xD0 LOG4 CALLCODE DUP5 NOT BLOBHASH PUSH32 0x9722A3DAAFE3B4186F6B6457E0A26469706673582212209910240130B9D7911C 0xC DIV 0xF DUP12 ISZERO 0xC3 0xB5 DUP14 0xEF DIV 0xBE 0xEA 0xF7 0xB9 GAS 0xE4 STOP CODECOPY 0xD3 MCOPY PUSH8 0x6E2364736F6C6343 STOP ADDMOD XOR STOP CALLER "},"methodIdentifiers":{"MAX_STREAK_DAYS()":"27de4ba8","POINTS_PER_DOLLAR()":"0ddd02a1","POINTS_PER_ENTRY()":"d968f51b","POINT_EXPIRY_DAYS()":"5f996501","STREAK_BONUS()":"bcf64475","activeUsers()":"74aa34de","awardEntryPoints(address)":"541ff9f7","awardLoyaltyPoints(address,uint256,string)":"fa5bd4d2","awardSpendingPoints(address,uint256,uint256)":"7677477a","blacklistedUsers(address)":"22c0aec7","calculateRewardAmount(address,uint256)":"bf92ee88","createLoyaltyTier(string,uint256,uint256,uint256,uint256)":"9a0921f7","emergencyPause(bool)":"e8f6940e","emergencyWithdraw()":"db2e21bc","getLoyaltyTier(uint256)":"f9a6dcfa","getUserLoyaltyData(address)":"19a39d3a","getUserTransactions(address,uint256,uint256)":"37526fca","loyaltyTiers(uint256)":"b698e17d","owner()":"8da5cb5b","paused()":"5c975abb","redeemPoints(uint256)":"e92e92e7","renounceOwnership()":"715018a6","setUserBlacklist(address,bool)":"ccddf0b0","tierCount()":"96b55f7d","totalPointsIssued()":"fd1c8811","totalPointsRedeemed()":"fa690beb","totalUsers()":"bff1f9e1","transferOwnership(address)":"f2fde38b","updateLoyaltyTier(uint256,string,uint256,uint256,uint256,uint256,bool)":"4a59b40d","userLoyaltyData(address)":"e06ef5f4","userTransactions(address,uint256)":"b842ec44","vmfToken()":"2086eefa"}}}}}