{"contracts/PizzaPartyReferral.sol":{"PizzaPartyReferral":{"abi":[{"inputs":[{"internalType":"address","name":"_vmfToken","type":"address"}],"stateMutability":"nonpayable","type":"constructor"},{"inputs":[],"name":"EnforcedPause","type":"error"},{"inputs":[],"name":"ExpectedPause","type":"error"},{"inputs":[{"internalType":"address","name":"owner","type":"address"}],"name":"OwnableInvalidOwner","type":"error"},{"inputs":[{"internalType":"address","name":"account","type":"address"}],"name":"OwnableUnauthorizedAccount","type":"error"},{"inputs":[],"name":"ReentrancyGuardReentrantCall","type":"error"},{"anonymous":false,"inputs":[{"indexed":true,"internalType":"address","name":"previousOwner","type":"address"},{"indexed":true,"internalType":"address","name":"newOwner","type":"address"}],"name":"OwnershipTransferred","type":"event"},{"anonymous":false,"inputs":[{"indexed":false,"internalType":"address","name":"account","type":"address"}],"name":"Paused","type":"event"},{"anonymous":false,"inputs":[{"indexed":true,"internalType":"bytes32","name":"codeHash","type":"bytes32"},{"indexed":true,"internalType":"address","name":"claimer","type":"address"},{"indexed":false,"internalType":"uint256","name":"rewardAmount","type":"uint256"},{"indexed":false,"internalType":"uint256","name":"claimTime","type":"uint256"}],"name":"ReferralCodeClaimed","type":"event"},{"anonymous":false,"inputs":[{"indexed":true,"internalType":"bytes32","name":"codeHash","type":"bytes32"},{"indexed":true,"internalType":"address","name":"creator","type":"address"},{"indexed":false,"internalType":"string","name":"codeString","type":"string"},{"indexed":false,"internalType":"uint256","name":"expiry","type":"uint256"},{"indexed":false,"internalType":"uint256","name":"maxClaims","type":"uint256"},{"indexed":false,"internalType":"uint256","name":"rewardAmount","type":"uint256"}],"name":"ReferralCodeGenerated","type":"event"},{"anonymous":false,"inputs":[{"indexed":true,"internalType":"address","name":"referrer","type":"address"},{"indexed":true,"internalType":"address","name":"referee","type":"address"},{"indexed":false,"internalType":"uint256","name":"rewardAmount","type":"uint256"}],"name":"ReferralRewardDistributed","type":"event"},{"anonymous":false,"inputs":[{"indexed":false,"internalType":"address","name":"account","type":"address"}],"name":"Unpaused","type":"event"},{"anonymous":false,"inputs":[{"indexed":true,"internalType":"address","name":"user","type":"address"},{"indexed":false,"internalType":"bool","name":"blacklisted","type":"bool"}],"name":"UserBlacklisted","type":"event"},{"inputs":[],"name":"BONUS_REWARD_AMOUNT","outputs":[{"internalType":"uint256","name":"","type":"uint256"}],"stateMutability":"view","type":"function"},{"inputs":[],"name":"CLAIM_COOLDOWN","outputs":[{"internalType":"uint256","name":"","type":"uint256"}],"stateMutability":"view","type":"function"},{"inputs":[],"name":"CODE_EXPIRY_DURATION","outputs":[{"internalType":"uint256","name":"","type":"uint256"}],"stateMutability":"view","type":"function"},{"inputs":[],"name":"DEFAULT_REWARD_AMOUNT","outputs":[{"internalType":"uint256","name":"","type":"uint256"}],"stateMutability":"view","type":"function"},{"inputs":[],"name":"GENERATION_COOLDOWN","outputs":[{"internalType":"uint256","name":"","type":"uint256"}],"stateMutability":"view","type":"function"},{"inputs":[],"name":"MAX_CLAIMS_PER_CODE","outputs":[{"internalType":"uint256","name":"","type":"uint256"}],"stateMutability":"view","type":"function"},{"inputs":[],"name":"MAX_CODES_PER_USER","outputs":[{"internalType":"uint256","name":"","type":"uint256"}],"stateMutability":"view","type":"function"},{"inputs":[],"name":"MAX_CODE_LENGTH","outputs":[{"internalType":"uint256","name":"","type":"uint256"}],"stateMutability":"view","type":"function"},{"inputs":[],"name":"MIN_CODE_LENGTH","outputs":[{"internalType":"uint256","name":"","type":"uint256"}],"stateMutability":"view","type":"function"},{"inputs":[{"internalType":"address","name":"","type":"address"}],"name":"blacklistedAddresses","outputs":[{"internalType":"bool","name":"","type":"bool"}],"stateMutability":"view","type":"function"},{"inputs":[{"internalType":"bytes32","name":"","type":"bytes32"},{"internalType":"uint256","name":"","type":"uint256"}],"name":"codeClaims","outputs":[{"internalType":"address","name":"claimer","type":"address"},{"internalType":"uint256","name":"claimTime","type":"uint256"},{"internalType":"uint256","name":"rewardAmount","type":"uint256"},{"internalType":"bool","name":"isProcessed","type":"bool"}],"stateMutability":"view","type":"function"},{"inputs":[],"name":"createReferralCode","outputs":[],"stateMutability":"nonpayable","type":"function"},{"inputs":[{"internalType":"bool","name":"pause","type":"bool"}],"name":"emergencyPause","outputs":[],"stateMutability":"nonpayable","type":"function"},{"inputs":[],"name":"emergencyWithdraw","outputs":[],"stateMutability":"nonpayable","type":"function"},{"inputs":[{"internalType":"string","name":"code","type":"string"}],"name":"getReferralClaims","outputs":[{"components":[{"internalType":"address","name":"claimer","type":"address"},{"internalType":"uint256","name":"claimTime","type":"uint256"},{"internalType":"uint256","name":"rewardAmount","type":"uint256"},{"internalType":"bool","name":"isProcessed","type":"bool"}],"internalType":"struct PizzaPartyReferral.ReferralClaim[]","name":"","type":"tuple[]"}],"stateMutability":"view","type":"function"},{"inputs":[{"internalType":"string","name":"code","type":"string"}],"name":"getReferralCodeInfo","outputs":[{"components":[{"internalType":"bytes32","name":"codeHash","type":"bytes32"},{"internalType":"address","name":"creator","type":"address"},{"internalType":"uint256","name":"expiry","type":"uint256"},{"internalType":"bool","name":"claimed","type":"bool"},{"internalType":"uint256","name":"claimCount","type":"uint256"},{"internalType":"uint256","name":"maxClaims","type":"uint256"},{"internalType":"uint256","name":"rewardAmount","type":"uint256"},{"internalType":"string","name":"codeString","type":"string"},{"internalType":"bool","name":"isActive","type":"bool"}],"internalType":"struct PizzaPartyReferral.ReferralCode","name":"","type":"tuple"}],"stateMutability":"view","type":"function"},{"inputs":[{"internalType":"address","name":"user","type":"address"}],"name":"getUserReferralData","outputs":[{"components":[{"internalType":"uint256","name":"totalCodesCreated","type":"uint256"},{"internalType":"uint256","name":"totalCodesClaimed","type":"uint256"},{"internalType":"uint256","name":"totalRewardsEarned","type":"uint256"},{"internalType":"uint256","name":"lastCodeGeneration","type":"uint256"},{"internalType":"bool","name":"isBlacklisted","type":"bool"},{"internalType":"uint256","name":"cooldownEndTime","type":"uint256"}],"internalType":"struct PizzaPartyReferral.UserReferralData","name":"","type":"tuple"}],"stateMutability":"view","type":"function"},{"inputs":[],"name":"owner","outputs":[{"internalType":"address","name":"","type":"address"}],"stateMutability":"view","type":"function"},{"inputs":[],"name":"paused","outputs":[{"internalType":"bool","name":"","type":"bool"}],"stateMutability":"view","type":"function"},{"inputs":[{"internalType":"string","name":"code","type":"string"},{"internalType":"address","name":"user","type":"address"}],"name":"processReferralCode","outputs":[],"stateMutability":"nonpayable","type":"function"},{"inputs":[{"internalType":"bytes32","name":"","type":"bytes32"}],"name":"referralCodes","outputs":[{"internalType":"bytes32","name":"codeHash","type":"bytes32"},{"internalType":"address","name":"creator","type":"address"},{"internalType":"uint256","name":"expiry","type":"uint256"},{"internalType":"bool","name":"claimed","type":"bool"},{"internalType":"uint256","name":"claimCount","type":"uint256"},{"internalType":"uint256","name":"maxClaims","type":"uint256"},{"internalType":"uint256","name":"rewardAmount","type":"uint256"},{"internalType":"string","name":"codeString","type":"string"},{"internalType":"bool","name":"isActive","type":"bool"}],"stateMutability":"view","type":"function"},{"inputs":[],"name":"renounceOwnership","outputs":[],"stateMutability":"nonpayable","type":"function"},{"inputs":[{"internalType":"address","name":"user","type":"address"},{"internalType":"bool","name":"blacklisted","type":"bool"}],"name":"setUserBlacklist","outputs":[],"stateMutability":"nonpayable","type":"function"},{"inputs":[],"name":"totalCodesClaimed","outputs":[{"internalType":"uint256","name":"","type":"uint256"}],"stateMutability":"view","type":"function"},{"inputs":[],"name":"totalCodesGenerated","outputs":[{"internalType":"uint256","name":"","type":"uint256"}],"stateMutability":"view","type":"function"},{"inputs":[],"name":"totalRewardsDistributed","outputs":[{"internalType":"uint256","name":"","type":"uint256"}],"stateMutability":"view","type":"function"},{"inputs":[{"internalType":"address","name":"newOwner","type":"address"}],"name":"transferOwnership","outputs":[],"stateMutability":"nonpayable","type":"function"},{"inputs":[{"internalType":"address","name":"","type":"address"}],"name":"userClaimCount","outputs":[{"internalType":"uint256","name":"","type":"uint256"}],"stateMutability":"view","type":"function"},{"inputs":[{"internalType":"address","name":"","type":"address"}],"name":"userReferralData","outputs":[{"internalType":"uint256","name":"totalCodesCreated","type":"uint256"},{"internalType":"uint256","name":"totalCodesClaimed","type":"uint256"},{"internalType":"uint256","name":"totalRewardsEarned","type":"uint256"},{"internalType":"uint256","name":"lastCodeGeneration","type":"uint256"},{"internalType":"bool","name":"isBlacklisted","type":"bool"},{"internalType":"uint256","name":"cooldownEndTime","type":"uint256"}],"stateMutability":"view","type":"function"},{"inputs":[],"name":"vmfToken","outputs":[{"internalType":"contract IERC20","name":"","type":"address"}],"stateMutability":"view","type":"function"}],"evm":{"bytecode":{"linkReferences":{},"object":"60a03461013557601f61205d38819003918201601f19168301916001600160401b0383118484101761013a5780849260209460405283398101031261013557516001600160a01b0380821691829003610135576001600055331561011c5760018054336001600160a01b03198216811790925560405192167f8be0079c531659141344cd1fd0a4f28419497f9722a3daafe3b4186f6b6457e0600080a381156100da5750608052604051611f0c908161015182396080518181816103e201528181610a2801528181610b5301528181610bcb01526117b00152f35b62461bcd60e51b815260206004820152601960248201527f496e76616c696420564d4620746f6b656e2061646472657373000000000000006044820152606490fd5b604051631e4fbdf760e01b815260006004820152602490fd5b600080fd5b634e487b7160e01b600052604160045260246000fdfe608080604052600436101561001357600080fd5b60e0600035811c9182630b66e167146119d0575081630eaeaa5a146119b25781630ee9995d1461199457816312020225146117df5781632086eefa1461179a5781632e108d1c1461127957816333b5951f1461125b57816337c909ec1461123e578163443d2336146112225781634ad82c0e146110b55781635c975abb1461108f5781635e30acb41461107257816361676534146110565781636d7ce1b91461103a578163715018a614610fef5781637daf903614610fb55781637e64454714610f05575080638da5cb5b14610edc57806391be6f7614610e6a57806397051077146106c25780639be403b91461064c578063b57da7c514610630578063ccddf0b01461059f578063d5749d4214610560578063d83123c714610544578063db2e21bc146103a9578063e1c8e976146102d0578063e8f6940e14610204578063ee172546146101e65763f2fde38b1461016b57600080fd5b346101e15760203660031901126101e157610184611afd565b61018c611e8a565b6001600160a01b039081169081156101c857600180546001600160a01b03198116841790915516600080516020611eb7833981519152600080a3005b604051631e4fbdf760e01b815260006004820152602490fd5b600080fd5b346101e15760003660031901126101e1576020600954604051908152f35b346101e15760203660031901126101e15760043580151581036101e157610229611e8a565b1561027757610236611e69565b6001805460ff60a01b1916600160a01b1790556040513381527f62e78cea01bee320cd4e420270b5ea74000d11b0c9f74754ebdbfc544b05a25890602090a1005b60015460ff8160a01c16156102be5760ff60a01b19166001556040513381527f5db9ee0a495bf2e6ff9c91a7834c1ba4fdd244a5e8aa4e537bd38aeae4b073aa90602090a1005b604051638dfc202b60e01b8152600490fd5b346101e15760203660031901126101e1576102e9611afd565b600060a06040516102f981611a21565b828152826020820152826040820152826060820152826080820152015260018060a01b0316600052600360205260c0604060002060405161033981611a21565b8154918282526001810154602083019081526002820154604084019081526003830154916060850192835260a0600560ff600487015416956080880196151587520154950194855260405195865251602086015251604085015251606084015251151560808301525160a0820152f35b346101e15760003660031901126101e1576103c2611e8a565b6040516370a0823160e01b81523060048201526020906001600160a01b037f00000000000000000000000000000000000000000000000000000000000000008116908383602481855afa9283156104cb57600093610515575b5082156104d75791839161044b9360015416600060405180968195829463a9059cbb60e01b845260048401611d91565b03925af19081156104cb5760009161049e575b501561046657005b6064906040519062461bcd60e51b82526004820152601160248201527015da5d1a191c985dd85b0819985a5b1959607a1b6044820152fd5b6104be9150823d84116104c4575b6104b68183611a3c565b810190611d79565b8261045e565b503d6104ac565b6040513d6000823e3d90fd5b60405162461bcd60e51b81526004810185905260166024820152754e6f2062616c616e636520746f20776974686472617760501b6044820152606490fd5b9092508381813d831161053d575b61052d8183611a3c565b810103126101e15751918461041b565b503d610523565b346101e15760003660031901126101e157602060405160648152f35b346101e15760203660031901126101e1576001600160a01b03610581611afd565b166000526004602052602060ff604060002054166040519015158152f35b346101e15760403660031901126101e1576105b8611afd565b60243590811515908183036101e1577f5b7ef9d8e7fd7ff1dae13005391bc3aa7cc048c7ba41af348e5da4dcbe7323e0916106276020926105f7611e8a565b60018060a01b0316948560005260048452610616816040600020611d18565b600384526004604060002001611d18565b604051908152a2005b346101e15760003660031901126101e157602060405160068152f35b346101e15760203660031901126101e1576001600160a01b0361066d611afd565b16600052600360205260c060406000208054906001810154906002810154600382015490600560ff600485015416930154936040519586526020860152604085015260608401521515608083015260a0820152f35b346101e15760403660031901126101e1576004356001600160401b0381116101e1576106f2903690600401611a5f565b6024356001600160a01b03811690036101e15761070d611e46565b610715611e69565b610723600682511015611c0e565b610731603282511115611c4b565b61074261073d82611dbd565b611c87565b604051602081019061076c602082855161075f8187858a01611ab5565b8101038084520182611a3c565b519020600052600260205260ff6008604060002001541615610e265760405160208101906107a5602082855161075f8187858a01611ab5565b5190206000526002602052600260406000200154421015610de95760405160208101906107dd602082855161075f8187858a01611ab5565b519020600052600260205260ff60036040600020015416610dad5760018060a01b0360243516600052600660205261081c606460406000205410611d38565b6024356001600160a01b03166000908152600460205260409020546108449060ff1615611cc9565b6024356001600160a01b031660009081526003602052604090206004015461086f9060ff1615611cc9565b604051602081019061088c602082855161075f8187858a01611ab5565b5190209081600052600260205260406000209060018060a01b036024351660005260066020526108c6604060002054600584015411611d38565b6040516108e36020828161075f8183019687815193849201611ab5565b519020908160005260026020526040600020916006830154906040519161090983611a06565b60018060a01b03602435168352426020840152604083015260006060830152600052600560205260406000208054600160401b811015610d975761095291600182018155611bf2565b610d8157815181546001600160a01b0319166001600160a01b039190911617815560208201516001820155604082015160028201556060919091015161099e9190151590600301611d18565b6024356001600160a01b031660009081526003602052604090206001810180546109c790611d29565b90556109dd600260068501549201918254611d0b565b905560018201546001600160a01b0316600090815260036020526040902060020180546005810191908210610c8057556040516370a0823160e01b81523060048201526020816024817f00000000000000000000000000000000000000000000000000000000000000006001600160a01b03165afa9081156104cb57600091610d4f575b506006830154906005820190818311610c80571015610b2a575b506006915060018060a01b0360243516600052816020526040600020610aa18154611d29565b905560048101610ab18154611d29565b80915560058201541115610b16575b610acb600854611d29565b6008550154604080519182524260208301526024356001600160a01b031692917f136520a105c1a1979c4fbb277861e0a822e8d2e7b4175fb22e41ae00213546a19190a36001600055005b60038101805460ff19166001179055610ac0565b6020610b4d916040518093819263a9059cbb60e01b835260243560048401611d91565b038160007f00000000000000000000000000000000000000000000000000000000000000006001600160a01b03165af19081156104cb57600091610d30575b5015610cf257600182015460405163a9059cbb60e01b81526001600160a01b0391821660048201526005602482015290602090829060449082906000907f0000000000000000000000000000000000000000000000000000000000000000165af19081156104cb57600091610cd3575b5015610c9657600682015460058101809111610c8057610c1e90600954611d0b565b600955600660018060a01b0360018401541692015460058101809111610c80576040519081526006926024356001600160a01b0316917f0450fd72b95c2cc72aad60acb0244cb42cfc00acc98cf56397d22a3ad18ff54e90602090a383610a7b565b634e487b7160e01b600052601160045260246000fd5b60405162461bcd60e51b8152602060048201526015602482015274109bdb9d5cc81d1c985b9cd9995c8819985a5b1959605a1b6044820152606490fd5b610cec915060203d6020116104c4576104b68183611a3c565b84610bfc565b60405162461bcd60e51b815260206004820152601660248201527514995dd85c99081d1c985b9cd9995c8819985a5b195960521b6044820152606490fd5b610d49915060203d6020116104c4576104b68183611a3c565b84610b8c565b90506020813d602011610d79575b81610d6a60209383611a3c565b810103126101e1575184610a61565b3d9150610d5d565b634e487b7160e01b600052600060045260246000fd5b634e487b7160e01b600052604160045260246000fd5b60405162461bcd60e51b815260206004820152601460248201527310dbd91948185b1c9958591e4818db185a5b595960621b6044820152606490fd5b60405162461bcd60e51b8152602060048201526015602482015274149959995c9c985b0818dbd91948195e1c1a5c9959605a1b6044820152606490fd5b60405162461bcd60e51b815260206004820152601c60248201527b149959995c9c985b0818dbd91948191bd95cc81b9bdd08195e1a5cdd60221b6044820152606490fd5b346101e15760403660031901126101e1576024356004356000526005602052604060002080548210156101e157608091610ea391611bf2565b5060018060a01b038154169060018101549060ff6003600283015492015416916040519384526020840152604083015215156060820152f35b346101e15760003660031901126101e1576001546040516001600160a01b039091168152602090f35b346101e15760203660031901126101e15760043560005260026020526040600020805491610fa860018060a01b036001840154169260028101549360ff60038301541695600483015494600584015460068501549060ff6008610f6a60078901611b4d565b97015416976040519a8b9a6101209788978d5260208d015260408c0152151560608b015260808a015260a089015260c0880152860152840190611ad8565b9015156101008301520390f35b346101e15760203660031901126101e1576001600160a01b03610fd6611afd565b1660005260066020526020604060002054604051908152f35b346101e15760003660031901126101e157611008611e8a565b600180546001600160a01b031981169091556000906001600160a01b0316600080516020611eb78339815191528280a3005b346101e15760003660031901126101e157602060405160028152f35b346101e15760003660031901126101e157602060405160058152f35b346101e15760003660031901126101e1576020604051610e108152f35b346101e15760003660031901126101e157602060ff60015460a01c166040519015158152f35b346101e1576020806003193601126101e1576001600160401b03906004358281116101e1576110e8903690600401611a5f565b6110f6600682511015611c0e565b611104603282511115611c4b565b61111061073d82611dbd565b60405161112c83828161075f8183019687815193849201611ab5565b519020600052600581526040600020918254908111610d975760405190611158838260051b0183611a3c565b8082528282018094600052836000206000915b8383106111d65760408051878152865181890181905289928201908960005b8281106111975784840385f35b855180516001600160a01b031685528083015185840152604080820151908601526060908101511515908501529481019460809093019260010161118a565b6004866001926040516111e881611a06565b848060a01b03865416815284860154838201526002860154604082015260ff6003870154161515606082015281520192019201919061116b565b346101e15760003660031901126101e1576020604051600a8152f35b346101e15760003660031901126101e15760206040516107088152f35b346101e15760003660031901126101e1576020600754604051908152f35b346101e15760003660031901126101e157611292611e46565b61129a611e69565b3360005260046020526112b560ff6040600020541615611cc9565b3360005260036020526112d360ff6004604060002001541615611cc9565b3360005260036020526040600020906005820154421061175c57600a825410156117235760405160208101903360601b82524260348201524460548201526054815261131e81611a06565b519020604051909290606081016001600160401b03811182821017610d97576040908152602482527f4142434445464748494a4b4c4d4e4f505152535455565758595a3031323334356020830152633637383960e01b828201528051949085016001600160401b03811186821017610d975760405260068086526020860192602036853760005b8281106116b4575050505061075f906113ce602060405180938282019586918a51928391611ab5565b5190209182600052600260205260ff600860406000200154166116795762278d0042014211610c8057604051611403816119ea565b83815233602082015262278d00420160408201526000606082015260006080820152606460a0820152600260c082015284828201526001610100820152836000526002602052604060002091815183556001830160018060a01b0360208401511660018060a01b03198254161790556040820151600284015561148f6060830151151560038501611d18565b6080820151600484015560a0820151600584015560c082015160068401558101518051906001600160401b038211610d97576114ce6007850154611b13565b601f8111611632575b50602090601f83116001146115b85792826008936101009361151f97966000926115ad575b50508160011b916000199060031b1c19161760078501555b015115159101611d18565b6115298154611d29565b8155426003820155610e10420190814211610c80576005015561154d600754611d29565b6007557f4cf69375003d889c234c9a613476b035b94511c5ce2ee48603a6aab1070313b961158660405193608085526080850190611ad8565b9262278d004201602082015260646040820152600260608201528033940390a36001600055005b015190508a806114fc565b906007850160005260206000209160005b601f198516811061161a5750836101009361151f979693600193600897601f19811610611601575b505050811b016007850155611514565b015160001960f88460031b161c191690558a80806115f1565b919260206001819286850151815501940192016115c9565b600785016000526020600020601f840160051c810160208510611672575b601f830160051c820181106116665750506114d7565b60008155600101611650565b5080611650565b60405162461bcd60e51b8152602060048201526013602482015272436f646520616c72656164792065786973747360681b6044820152606490fd5b602081101561170d5781519081156116f7576001916001600160f81b0319906116e19087841a0685611dac565b511660001a6116f0828b611dac565b53016113a5565b634e487b7160e01b600052601260045260246000fd5b634e487b7160e01b600052603260045260246000fd5b60405162461bcd60e51b815260206004820152601160248201527013585e0818dbd9195cc81c995858da1959607a1b6044820152606490fd5b60405162461bcd60e51b8152602060048201526016602482015275436f6f6c646f776e20706572696f642061637469766560501b6044820152606490fd5b346101e15760003660031901126101e1576040517f00000000000000000000000000000000000000000000000000000000000000006001600160a01b03168152602090f35b346101e157602090816003193601126101e1576004356001600160401b0381116101e157611811903690600401611a5f565b6040519061181e826119ea565b60008252600084830152600060408301526000606083015260006080830152600060a0830152600060c0830152606083830152600061010080930152611868600682511015611c0e565b611876603282511115611c4b565b61188261073d82611dbd565b60405161189e85828161075f8183019687815193849201611ab5565b5190206000526002835260406000209061198860405180946118bf826119ea565b8454825260018060a01b0394856001820154169588840196875260028201546040850190815260ff6003840154166060860190151581526004840154916080870192835260058501549360a0880194855260ff600860068801549760c08b019889528961192e60078301611b4d565b9b019a8b520154169a8a8d019b15158c526040518e819f9e829f835251910152511660408c01525160608b015251151560808a01525160a08901525160c08801525190860152516101208093860152610140850190611ad8565b91511515908301520390f35b346101e15760003660031901126101e157602060405162278d008152f35b346101e15760003660031901126101e1576020600854604051908152f35b346101e15760003660031901126101e15780603260209252f35b61012081019081106001600160401b03821117610d9757604052565b608081019081106001600160401b03821117610d9757604052565b60c081019081106001600160401b03821117610d9757604052565b601f909101601f19168101906001600160401b03821190821017610d9757604052565b81601f820112156101e1578035906001600160401b038211610d975760405192611a93601f8401601f191660200185611a3c565b828452602083830101116101e157816000926020809301838601378301015290565b60005b838110611ac85750506000910152565b8181015183820152602001611ab8565b90602091611af181518092818552858086019101611ab5565b601f01601f1916010190565b600435906001600160a01b03821682036101e157565b90600182811c92168015611b43575b6020831014611b2d57565b634e487b7160e01b600052602260045260246000fd5b91607f1691611b22565b90604051918260008254611b6081611b13565b90818452602094600191600181169081600014611bd05750600114611b91575b505050611b8f92500383611a3c565b565b600090815285812095935091905b818310611bb8575050611b8f9350820101388080611b80565b85548884018501529485019487945091830191611b9f565b92505050611b8f94925060ff191682840152151560051b820101388080611b80565b805482101561170d5760005260206000209060021b0190600090565b15611c1557565b60405162461bcd60e51b815260206004820152600e60248201526d10dbd919481d1bdbc81cda1bdc9d60921b6044820152606490fd5b15611c5257565b60405162461bcd60e51b815260206004820152600d60248201526c436f646520746f6f206c6f6e6760981b6044820152606490fd5b15611c8e57565b60405162461bcd60e51b8152602060048201526013602482015272125b9d985b1a590818dbd91948199bdc9b585d606a1b6044820152606490fd5b15611cd057565b60405162461bcd60e51b8152602060048201526013602482015272155cd95c881a5cc8189b1858dadb1a5cdd1959606a1b6044820152606490fd5b91908201809211610c8057565b9060ff801983541691151516179055565b6000198114610c805760010190565b15611d3f57565b60405162461bcd60e51b815260206004820152601260248201527113585e0818db185a5b5cc81c995858da195960721b6044820152606490fd5b908160209103126101e1575180151581036101e15790565b6001600160a01b039091168152602081019190915260400190565b90815181101561170d570160200190565b6000805b8251811015611e3e576001600160f81b0319611ddd8285611dac565b5116604160f81b8110159081611e2f575b8115611e09575b5015611e0357600101611dc1565b50905090565b600360fc1b811015915081611e20575b5038611df5565b603960f81b1015905038611e19565b602d60f91b8111159150611dee565b505050600190565b600260005414611e57576002600055565b604051633ee5aeb560e01b8152600490fd5b60ff60015460a01c16611e7857565b60405163d93c066560e01b8152600490fd5b6001546001600160a01b03163303611e9e57565b60405163118cdaa760e01b8152336004820152602490fdfe8be0079c531659141344cd1fd0a4f28419497f9722a3daafe3b4186f6b6457e0a2646970667358221220ffbb29f66a9468df943f3c86249e854351233953ec25384e95a90777376808f964736f6c63430008180033","opcodes":"PUSH1 0xA0 CALLVALUE PUSH2 0x135 JUMPI PUSH1 0x1F PUSH2 0x205D CODESIZE DUP2 SWAP1 SUB SWAP2 DUP3 ADD PUSH1 0x1F NOT AND DUP4 ADD SWAP2 PUSH1 0x1 PUSH1 0x1 PUSH1 0x40 SHL SUB DUP4 GT DUP5 DUP5 LT OR PUSH2 0x13A JUMPI DUP1 DUP5 SWAP3 PUSH1 0x20 SWAP5 PUSH1 0x40 MSTORE DUP4 CODECOPY DUP2 ADD SUB SLT PUSH2 0x135 JUMPI MLOAD PUSH1 0x1 PUSH1 0x1 PUSH1 0xA0 SHL SUB DUP1 DUP3 AND SWAP2 DUP3 SWAP1 SUB PUSH2 0x135 JUMPI PUSH1 0x1 PUSH1 0x0 SSTORE CALLER ISZERO PUSH2 0x11C JUMPI PUSH1 0x1 DUP1 SLOAD CALLER PUSH1 0x1 PUSH1 0x1 PUSH1 0xA0 SHL SUB NOT DUP3 AND DUP2 OR SWAP1 SWAP3 SSTORE PUSH1 0x40 MLOAD SWAP3 AND PUSH32 0x8BE0079C531659141344CD1FD0A4F28419497F9722A3DAAFE3B4186F6B6457E0 PUSH1 0x0 DUP1 LOG3 DUP2 ISZERO PUSH2 0xDA JUMPI POP PUSH1 0x80 MSTORE PUSH1 0x40 MLOAD PUSH2 0x1F0C SWAP1 DUP2 PUSH2 0x151 DUP3 CODECOPY PUSH1 0x80 MLOAD DUP2 DUP2 DUP2 PUSH2 0x3E2 ADD MSTORE DUP2 DUP2 PUSH2 0xA28 ADD MSTORE DUP2 DUP2 PUSH2 0xB53 ADD MSTORE DUP2 DUP2 PUSH2 0xBCB ADD MSTORE PUSH2 0x17B0 ADD MSTORE RETURN JUMPDEST PUSH3 0x461BCD PUSH1 0xE5 SHL DUP2 MSTORE PUSH1 0x20 PUSH1 0x4 DUP3 ADD MSTORE PUSH1 0x19 PUSH1 0x24 DUP3 ADD MSTORE PUSH32 0x496E76616C696420564D4620746F6B656E206164647265737300000000000000 PUSH1 0x44 DUP3 ADD MSTORE PUSH1 0x64 SWAP1 REVERT JUMPDEST PUSH1 0x40 MLOAD PUSH4 0x1E4FBDF7 PUSH1 0xE0 SHL DUP2 MSTORE PUSH1 0x0 PUSH1 0x4 DUP3 ADD MSTORE PUSH1 0x24 SWAP1 REVERT JUMPDEST PUSH1 0x0 DUP1 REVERT JUMPDEST PUSH4 0x4E487B71 PUSH1 0xE0 SHL PUSH1 0x0 MSTORE PUSH1 0x41 PUSH1 0x4 MSTORE PUSH1 0x24 PUSH1 0x0 REVERT INVALID PUSH1 0x80 DUP1 PUSH1 0x40 MSTORE PUSH1 0x4 CALLDATASIZE LT ISZERO PUSH2 0x13 JUMPI PUSH1 0x0 DUP1 REVERT JUMPDEST PUSH1 0xE0 PUSH1 0x0 CALLDATALOAD DUP2 SHR SWAP2 DUP3 PUSH4 0xB66E167 EQ PUSH2 0x19D0 JUMPI POP DUP2 PUSH4 0xEAEAA5A EQ PUSH2 0x19B2 JUMPI DUP2 PUSH4 0xEE9995D EQ PUSH2 0x1994 JUMPI DUP2 PUSH4 0x12020225 EQ PUSH2 0x17DF JUMPI DUP2 PUSH4 0x2086EEFA EQ PUSH2 0x179A JUMPI DUP2 PUSH4 0x2E108D1C EQ PUSH2 0x1279 JUMPI DUP2 PUSH4 0x33B5951F EQ PUSH2 0x125B JUMPI DUP2 PUSH4 0x37C909EC EQ PUSH2 0x123E JUMPI DUP2 PUSH4 0x443D2336 EQ PUSH2 0x1222 JUMPI DUP2 PUSH4 0x4AD82C0E EQ PUSH2 0x10B5 JUMPI DUP2 PUSH4 0x5C975ABB EQ PUSH2 0x108F JUMPI DUP2 PUSH4 0x5E30ACB4 EQ PUSH2 0x1072 JUMPI DUP2 PUSH4 0x61676534 EQ PUSH2 0x1056 JUMPI DUP2 PUSH4 0x6D7CE1B9 EQ PUSH2 0x103A JUMPI DUP2 PUSH4 0x715018A6 EQ PUSH2 0xFEF JUMPI DUP2 PUSH4 0x7DAF9036 EQ PUSH2 0xFB5 JUMPI DUP2 PUSH4 0x7E644547 EQ PUSH2 0xF05 JUMPI POP DUP1 PUSH4 0x8DA5CB5B EQ PUSH2 0xEDC JUMPI DUP1 PUSH4 0x91BE6F76 EQ PUSH2 0xE6A JUMPI DUP1 PUSH4 0x97051077 EQ PUSH2 0x6C2 JUMPI DUP1 PUSH4 0x9BE403B9 EQ PUSH2 0x64C JUMPI DUP1 PUSH4 0xB57DA7C5 EQ PUSH2 0x630 JUMPI DUP1 PUSH4 0xCCDDF0B0 EQ PUSH2 0x59F JUMPI DUP1 PUSH4 0xD5749D42 EQ PUSH2 0x560 JUMPI DUP1 PUSH4 0xD83123C7 EQ PUSH2 0x544 JUMPI DUP1 PUSH4 0xDB2E21BC EQ PUSH2 0x3A9 JUMPI DUP1 PUSH4 0xE1C8E976 EQ PUSH2 0x2D0 JUMPI DUP1 PUSH4 0xE8F6940E EQ PUSH2 0x204 JUMPI DUP1 PUSH4 0xEE172546 EQ PUSH2 0x1E6 JUMPI PUSH4 0xF2FDE38B EQ PUSH2 0x16B JUMPI PUSH1 0x0 DUP1 REVERT JUMPDEST CALLVALUE PUSH2 0x1E1 JUMPI PUSH1 0x20 CALLDATASIZE PUSH1 0x3 NOT ADD SLT PUSH2 0x1E1 JUMPI PUSH2 0x184 PUSH2 0x1AFD JUMP JUMPDEST PUSH2 0x18C PUSH2 0x1E8A JUMP JUMPDEST PUSH1 0x1 PUSH1 0x1 PUSH1 0xA0 SHL SUB SWAP1 DUP2 AND SWAP1 DUP2 ISZERO PUSH2 0x1C8 JUMPI PUSH1 0x1 DUP1 SLOAD PUSH1 0x1 PUSH1 0x1 PUSH1 0xA0 SHL SUB NOT DUP2 AND DUP5 OR SWAP1 SWAP2 SSTORE AND PUSH1 0x0 DUP1 MLOAD PUSH1 0x20 PUSH2 0x1EB7 DUP4 CODECOPY DUP2 MLOAD SWAP2 MSTORE PUSH1 0x0 DUP1 LOG3 STOP JUMPDEST PUSH1 0x40 MLOAD PUSH4 0x1E4FBDF7 PUSH1 0xE0 SHL DUP2 MSTORE PUSH1 0x0 PUSH1 0x4 DUP3 ADD MSTORE PUSH1 0x24 SWAP1 REVERT JUMPDEST PUSH1 0x0 DUP1 REVERT JUMPDEST CALLVALUE PUSH2 0x1E1 JUMPI PUSH1 0x0 CALLDATASIZE PUSH1 0x3 NOT ADD SLT PUSH2 0x1E1 JUMPI PUSH1 0x20 PUSH1 0x9 SLOAD PUSH1 0x40 MLOAD SWAP1 DUP2 MSTORE RETURN JUMPDEST CALLVALUE PUSH2 0x1E1 JUMPI PUSH1 0x20 CALLDATASIZE PUSH1 0x3 NOT ADD SLT PUSH2 0x1E1 JUMPI PUSH1 0x4 CALLDATALOAD DUP1 ISZERO ISZERO DUP2 SUB PUSH2 0x1E1 JUMPI PUSH2 0x229 PUSH2 0x1E8A JUMP JUMPDEST ISZERO PUSH2 0x277 JUMPI PUSH2 0x236 PUSH2 0x1E69 JUMP JUMPDEST PUSH1 0x1 DUP1 SLOAD PUSH1 0xFF PUSH1 0xA0 SHL NOT AND PUSH1 0x1 PUSH1 0xA0 SHL OR SWAP1 SSTORE PUSH1 0x40 MLOAD CALLER DUP2 MSTORE PUSH32 0x62E78CEA01BEE320CD4E420270B5EA74000D11B0C9F74754EBDBFC544B05A258 SWAP1 PUSH1 0x20 SWAP1 LOG1 STOP JUMPDEST PUSH1 0x1 SLOAD PUSH1 0xFF DUP2 PUSH1 0xA0 SHR AND ISZERO PUSH2 0x2BE JUMPI PUSH1 0xFF PUSH1 0xA0 SHL NOT AND PUSH1 0x1 SSTORE PUSH1 0x40 MLOAD CALLER DUP2 MSTORE PUSH32 0x5DB9EE0A495BF2E6FF9C91A7834C1BA4FDD244A5E8AA4E537BD38AEAE4B073AA SWAP1 PUSH1 0x20 SWAP1 LOG1 STOP JUMPDEST PUSH1 0x40 MLOAD PUSH4 0x8DFC202B PUSH1 0xE0 SHL DUP2 MSTORE PUSH1 0x4 SWAP1 REVERT JUMPDEST CALLVALUE PUSH2 0x1E1 JUMPI PUSH1 0x20 CALLDATASIZE PUSH1 0x3 NOT ADD SLT PUSH2 0x1E1 JUMPI PUSH2 0x2E9 PUSH2 0x1AFD JUMP JUMPDEST PUSH1 0x0 PUSH1 0xA0 PUSH1 0x40 MLOAD PUSH2 0x2F9 DUP2 PUSH2 0x1A21 JUMP JUMPDEST DUP3 DUP2 MSTORE DUP3 PUSH1 0x20 DUP3 ADD MSTORE DUP3 PUSH1 0x40 DUP3 ADD MSTORE DUP3 PUSH1 0x60 DUP3 ADD MSTORE DUP3 PUSH1 0x80 DUP3 ADD MSTORE ADD MSTORE PUSH1 0x1 DUP1 PUSH1 0xA0 SHL SUB AND PUSH1 0x0 MSTORE PUSH1 0x3 PUSH1 0x20 MSTORE PUSH1 0xC0 PUSH1 0x40 PUSH1 0x0 KECCAK256 PUSH1 0x40 MLOAD PUSH2 0x339 DUP2 PUSH2 0x1A21 JUMP JUMPDEST DUP2 SLOAD SWAP2 DUP3 DUP3 MSTORE PUSH1 0x1 DUP2 ADD SLOAD PUSH1 0x20 DUP4 ADD SWAP1 DUP2 MSTORE PUSH1 0x2 DUP3 ADD SLOAD PUSH1 0x40 DUP5 ADD SWAP1 DUP2 MSTORE PUSH1 0x3 DUP4 ADD SLOAD SWAP2 PUSH1 0x60 DUP6 ADD SWAP3 DUP4 MSTORE PUSH1 0xA0 PUSH1 0x5 PUSH1 0xFF PUSH1 0x4 DUP8 ADD SLOAD AND SWAP6 PUSH1 0x80 DUP9 ADD SWAP7 ISZERO ISZERO DUP8 MSTORE ADD SLOAD SWAP6 ADD SWAP5 DUP6 MSTORE PUSH1 0x40 MLOAD SWAP6 DUP7 MSTORE MLOAD PUSH1 0x20 DUP7 ADD MSTORE MLOAD PUSH1 0x40 DUP6 ADD MSTORE MLOAD PUSH1 0x60 DUP5 ADD MSTORE MLOAD ISZERO ISZERO PUSH1 0x80 DUP4 ADD MSTORE MLOAD PUSH1 0xA0 DUP3 ADD MSTORE RETURN JUMPDEST CALLVALUE PUSH2 0x1E1 JUMPI PUSH1 0x0 CALLDATASIZE PUSH1 0x3 NOT ADD SLT PUSH2 0x1E1 JUMPI PUSH2 0x3C2 PUSH2 0x1E8A JUMP JUMPDEST PUSH1 0x40 MLOAD PUSH4 0x70A08231 PUSH1 0xE0 SHL DUP2 MSTORE ADDRESS PUSH1 0x4 DUP3 ADD MSTORE PUSH1 0x20 SWAP1 PUSH1 0x1 PUSH1 0x1 PUSH1 0xA0 SHL SUB PUSH32 0x0 DUP2 AND SWAP1 DUP4 DUP4 PUSH1 0x24 DUP2 DUP6 GAS STATICCALL SWAP3 DUP4 ISZERO PUSH2 0x4CB JUMPI PUSH1 0x0 SWAP4 PUSH2 0x515 JUMPI JUMPDEST POP DUP3 ISZERO PUSH2 0x4D7 JUMPI SWAP2 DUP4 SWAP2 PUSH2 0x44B SWAP4 PUSH1 0x1 SLOAD AND PUSH1 0x0 PUSH1 0x40 MLOAD DUP1 SWAP7 DUP2 SWAP6 DUP3 SWAP5 PUSH4 0xA9059CBB PUSH1 0xE0 SHL DUP5 MSTORE PUSH1 0x4 DUP5 ADD PUSH2 0x1D91 JUMP JUMPDEST SUB SWAP3 GAS CALL SWAP1 DUP2 ISZERO PUSH2 0x4CB JUMPI PUSH1 0x0 SWAP2 PUSH2 0x49E JUMPI JUMPDEST POP ISZERO PUSH2 0x466 JUMPI STOP JUMPDEST PUSH1 0x64 SWAP1 PUSH1 0x40 MLOAD SWAP1 PUSH3 0x461BCD PUSH1 0xE5 SHL DUP3 MSTORE PUSH1 0x4 DUP3 ADD MSTORE PUSH1 0x11 PUSH1 0x24 DUP3 ADD MSTORE PUSH17 0x15DA5D1A191C985DD85B0819985A5B1959 PUSH1 0x7A SHL PUSH1 0x44 DUP3 ADD MSTORE REVERT JUMPDEST PUSH2 0x4BE SWAP2 POP DUP3 RETURNDATASIZE DUP5 GT PUSH2 0x4C4 JUMPI JUMPDEST PUSH2 0x4B6 DUP2 DUP4 PUSH2 0x1A3C JUMP JUMPDEST DUP2 ADD SWAP1 PUSH2 0x1D79 JUMP JUMPDEST DUP3 PUSH2 0x45E JUMP JUMPDEST POP RETURNDATASIZE PUSH2 0x4AC JUMP JUMPDEST PUSH1 0x40 MLOAD RETURNDATASIZE PUSH1 0x0 DUP3 RETURNDATACOPY RETURNDATASIZE SWAP1 REVERT JUMPDEST PUSH1 0x40 MLOAD PUSH3 0x461BCD PUSH1 0xE5 SHL DUP2 MSTORE PUSH1 0x4 DUP2 ADD DUP6 SWAP1 MSTORE PUSH1 0x16 PUSH1 0x24 DUP3 ADD MSTORE PUSH22 0x4E6F2062616C616E636520746F207769746864726177 PUSH1 0x50 SHL PUSH1 0x44 DUP3 ADD MSTORE PUSH1 0x64 SWAP1 REVERT JUMPDEST SWAP1 SWAP3 POP DUP4 DUP2 DUP2 RETURNDATASIZE DUP4 GT PUSH2 0x53D JUMPI JUMPDEST PUSH2 0x52D DUP2 DUP4 PUSH2 0x1A3C JUMP JUMPDEST DUP2 ADD SUB SLT PUSH2 0x1E1 JUMPI MLOAD SWAP2 DUP5 PUSH2 0x41B JUMP JUMPDEST POP RETURNDATASIZE PUSH2 0x523 JUMP JUMPDEST CALLVALUE PUSH2 0x1E1 JUMPI PUSH1 0x0 CALLDATASIZE PUSH1 0x3 NOT ADD SLT PUSH2 0x1E1 JUMPI PUSH1 0x20 PUSH1 0x40 MLOAD PUSH1 0x64 DUP2 MSTORE RETURN JUMPDEST CALLVALUE PUSH2 0x1E1 JUMPI PUSH1 0x20 CALLDATASIZE PUSH1 0x3 NOT ADD SLT PUSH2 0x1E1 JUMPI PUSH1 0x1 PUSH1 0x1 PUSH1 0xA0 SHL SUB PUSH2 0x581 PUSH2 0x1AFD JUMP JUMPDEST AND PUSH1 0x0 MSTORE PUSH1 0x4 PUSH1 0x20 MSTORE PUSH1 0x20 PUSH1 0xFF PUSH1 0x40 PUSH1 0x0 KECCAK256 SLOAD AND PUSH1 0x40 MLOAD SWAP1 ISZERO ISZERO DUP2 MSTORE RETURN JUMPDEST CALLVALUE PUSH2 0x1E1 JUMPI PUSH1 0x40 CALLDATASIZE PUSH1 0x3 NOT ADD SLT PUSH2 0x1E1 JUMPI PUSH2 0x5B8 PUSH2 0x1AFD JUMP JUMPDEST PUSH1 0x24 CALLDATALOAD SWAP1 DUP2 ISZERO ISZERO SWAP1 DUP2 DUP4 SUB PUSH2 0x1E1 JUMPI PUSH32 0x5B7EF9D8E7FD7FF1DAE13005391BC3AA7CC048C7BA41AF348E5DA4DCBE7323E0 SWAP2 PUSH2 0x627 PUSH1 0x20 SWAP3 PUSH2 0x5F7 PUSH2 0x1E8A JUMP JUMPDEST PUSH1 0x1 DUP1 PUSH1 0xA0 SHL SUB AND SWAP5 DUP6 PUSH1 0x0 MSTORE PUSH1 0x4 DUP5 MSTORE PUSH2 0x616 DUP2 PUSH1 0x40 PUSH1 0x0 KECCAK256 PUSH2 0x1D18 JUMP JUMPDEST PUSH1 0x3 DUP5 MSTORE PUSH1 0x4 PUSH1 0x40 PUSH1 0x0 KECCAK256 ADD PUSH2 0x1D18 JUMP JUMPDEST PUSH1 0x40 MLOAD SWAP1 DUP2 MSTORE LOG2 STOP JUMPDEST CALLVALUE PUSH2 0x1E1 JUMPI PUSH1 0x0 CALLDATASIZE PUSH1 0x3 NOT ADD SLT PUSH2 0x1E1 JUMPI PUSH1 0x20 PUSH1 0x40 MLOAD PUSH1 0x6 DUP2 MSTORE RETURN JUMPDEST CALLVALUE PUSH2 0x1E1 JUMPI PUSH1 0x20 CALLDATASIZE PUSH1 0x3 NOT ADD SLT PUSH2 0x1E1 JUMPI PUSH1 0x1 PUSH1 0x1 PUSH1 0xA0 SHL SUB PUSH2 0x66D PUSH2 0x1AFD JUMP JUMPDEST AND PUSH1 0x0 MSTORE PUSH1 0x3 PUSH1 0x20 MSTORE PUSH1 0xC0 PUSH1 0x40 PUSH1 0x0 KECCAK256 DUP1 SLOAD SWAP1 PUSH1 0x1 DUP2 ADD SLOAD SWAP1 PUSH1 0x2 DUP2 ADD SLOAD PUSH1 0x3 DUP3 ADD SLOAD SWAP1 PUSH1 0x5 PUSH1 0xFF PUSH1 0x4 DUP6 ADD SLOAD AND SWAP4 ADD SLOAD SWAP4 PUSH1 0x40 MLOAD SWAP6 DUP7 MSTORE PUSH1 0x20 DUP7 ADD MSTORE PUSH1 0x40 DUP6 ADD MSTORE PUSH1 0x60 DUP5 ADD MSTORE ISZERO ISZERO PUSH1 0x80 DUP4 ADD MSTORE PUSH1 0xA0 DUP3 ADD MSTORE RETURN JUMPDEST CALLVALUE PUSH2 0x1E1 JUMPI PUSH1 0x40 CALLDATASIZE PUSH1 0x3 NOT ADD SLT PUSH2 0x1E1 JUMPI PUSH1 0x4 CALLDATALOAD PUSH1 0x1 PUSH1 0x1 PUSH1 0x40 SHL SUB DUP2 GT PUSH2 0x1E1 JUMPI PUSH2 0x6F2 SWAP1 CALLDATASIZE SWAP1 PUSH1 0x4 ADD PUSH2 0x1A5F JUMP JUMPDEST PUSH1 0x24 CALLDATALOAD PUSH1 0x1 PUSH1 0x1 PUSH1 0xA0 SHL SUB DUP2 AND SWAP1 SUB PUSH2 0x1E1 JUMPI PUSH2 0x70D PUSH2 0x1E46 JUMP JUMPDEST PUSH2 0x715 PUSH2 0x1E69 JUMP JUMPDEST PUSH2 0x723 PUSH1 0x6 DUP3 MLOAD LT ISZERO PUSH2 0x1C0E JUMP JUMPDEST PUSH2 0x731 PUSH1 0x32 DUP3 MLOAD GT ISZERO PUSH2 0x1C4B JUMP JUMPDEST PUSH2 0x742 PUSH2 0x73D DUP3 PUSH2 0x1DBD JUMP JUMPDEST PUSH2 0x1C87 JUMP JUMPDEST PUSH1 0x40 MLOAD PUSH1 0x20 DUP2 ADD SWAP1 PUSH2 0x76C PUSH1 0x20 DUP3 DUP6 MLOAD PUSH2 0x75F DUP2 DUP8 DUP6 DUP11 ADD PUSH2 0x1AB5 JUMP JUMPDEST DUP2 ADD SUB DUP1 DUP5 MSTORE ADD DUP3 PUSH2 0x1A3C JUMP JUMPDEST MLOAD SWAP1 KECCAK256 PUSH1 0x0 MSTORE PUSH1 0x2 PUSH1 0x20 MSTORE PUSH1 0xFF PUSH1 0x8 PUSH1 0x40 PUSH1 0x0 KECCAK256 ADD SLOAD AND ISZERO PUSH2 0xE26 JUMPI PUSH1 0x40 MLOAD PUSH1 0x20 DUP2 ADD SWAP1 PUSH2 0x7A5 PUSH1 0x20 DUP3 DUP6 MLOAD PUSH2 0x75F DUP2 DUP8 DUP6 DUP11 ADD PUSH2 0x1AB5 JUMP JUMPDEST MLOAD SWAP1 KECCAK256 PUSH1 0x0 MSTORE PUSH1 0x2 PUSH1 0x20 MSTORE PUSH1 0x2 PUSH1 0x40 PUSH1 0x0 KECCAK256 ADD SLOAD TIMESTAMP LT ISZERO PUSH2 0xDE9 JUMPI PUSH1 0x40 MLOAD PUSH1 0x20 DUP2 ADD SWAP1 PUSH2 0x7DD PUSH1 0x20 DUP3 DUP6 MLOAD PUSH2 0x75F DUP2 DUP8 DUP6 DUP11 ADD PUSH2 0x1AB5 JUMP JUMPDEST MLOAD SWAP1 KECCAK256 PUSH1 0x0 MSTORE PUSH1 0x2 PUSH1 0x20 MSTORE PUSH1 0xFF PUSH1 0x3 PUSH1 0x40 PUSH1 0x0 KECCAK256 ADD SLOAD AND PUSH2 0xDAD JUMPI PUSH1 0x1 DUP1 PUSH1 0xA0 SHL SUB PUSH1 0x24 CALLDATALOAD AND PUSH1 0x0 MSTORE PUSH1 0x6 PUSH1 0x20 MSTORE PUSH2 0x81C PUSH1 0x64 PUSH1 0x40 PUSH1 0x0 KECCAK256 SLOAD LT PUSH2 0x1D38 JUMP JUMPDEST PUSH1 0x24 CALLDATALOAD PUSH1 0x1 PUSH1 0x1 PUSH1 0xA0 SHL SUB AND PUSH1 0x0 SWAP1 DUP2 MSTORE PUSH1 0x4 PUSH1 0x20 MSTORE PUSH1 0x40 SWAP1 KECCAK256 SLOAD PUSH2 0x844 SWAP1 PUSH1 0xFF AND ISZERO PUSH2 0x1CC9 JUMP JUMPDEST PUSH1 0x24 CALLDATALOAD PUSH1 0x1 PUSH1 0x1 PUSH1 0xA0 SHL SUB AND PUSH1 0x0 SWAP1 DUP2 MSTORE PUSH1 0x3 PUSH1 0x20 MSTORE PUSH1 0x40 SWAP1 KECCAK256 PUSH1 0x4 ADD SLOAD PUSH2 0x86F SWAP1 PUSH1 0xFF AND ISZERO PUSH2 0x1CC9 JUMP JUMPDEST PUSH1 0x40 MLOAD PUSH1 0x20 DUP2 ADD SWAP1 PUSH2 0x88C PUSH1 0x20 DUP3 DUP6 MLOAD PUSH2 0x75F DUP2 DUP8 DUP6 DUP11 ADD PUSH2 0x1AB5 JUMP JUMPDEST MLOAD SWAP1 KECCAK256 SWAP1 DUP2 PUSH1 0x0 MSTORE PUSH1 0x2 PUSH1 0x20 MSTORE PUSH1 0x40 PUSH1 0x0 KECCAK256 SWAP1 PUSH1 0x1 DUP1 PUSH1 0xA0 SHL SUB PUSH1 0x24 CALLDATALOAD AND PUSH1 0x0 MSTORE PUSH1 0x6 PUSH1 0x20 MSTORE PUSH2 0x8C6 PUSH1 0x40 PUSH1 0x0 KECCAK256 SLOAD PUSH1 0x5 DUP5 ADD SLOAD GT PUSH2 0x1D38 JUMP JUMPDEST PUSH1 0x40 MLOAD PUSH2 0x8E3 PUSH1 0x20 DUP3 DUP2 PUSH2 0x75F DUP2 DUP4 ADD SWAP7 DUP8 DUP2 MLOAD SWAP4 DUP5 SWAP3 ADD PUSH2 0x1AB5 JUMP JUMPDEST MLOAD SWAP1 KECCAK256 SWAP1 DUP2 PUSH1 0x0 MSTORE PUSH1 0x2 PUSH1 0x20 MSTORE PUSH1 0x40 PUSH1 0x0 KECCAK256 SWAP2 PUSH1 0x6 DUP4 ADD SLOAD SWAP1 PUSH1 0x40 MLOAD SWAP2 PUSH2 0x909 DUP4 PUSH2 0x1A06 JUMP JUMPDEST PUSH1 0x1 DUP1 PUSH1 0xA0 SHL SUB PUSH1 0x24 CALLDATALOAD AND DUP4 MSTORE TIMESTAMP PUSH1 0x20 DUP5 ADD MSTORE PUSH1 0x40 DUP4 ADD MSTORE PUSH1 0x0 PUSH1 0x60 DUP4 ADD MSTORE PUSH1 0x0 MSTORE PUSH1 0x5 PUSH1 0x20 MSTORE PUSH1 0x40 PUSH1 0x0 KECCAK256 DUP1 SLOAD PUSH1 0x1 PUSH1 0x40 SHL DUP2 LT ISZERO PUSH2 0xD97 JUMPI PUSH2 0x952 SWAP2 PUSH1 0x1 DUP3 ADD DUP2 SSTORE PUSH2 0x1BF2 JUMP JUMPDEST PUSH2 0xD81 JUMPI DUP2 MLOAD DUP2 SLOAD PUSH1 0x1 PUSH1 0x1 PUSH1 0xA0 SHL SUB NOT AND PUSH1 0x1 PUSH1 0x1 PUSH1 0xA0 SHL SUB SWAP2 SWAP1 SWAP2 AND OR DUP2 SSTORE PUSH1 0x20 DUP3 ADD MLOAD PUSH1 0x1 DUP3 ADD SSTORE PUSH1 0x40 DUP3 ADD MLOAD PUSH1 0x2 DUP3 ADD SSTORE PUSH1 0x60 SWAP2 SWAP1 SWAP2 ADD MLOAD PUSH2 0x99E SWAP2 SWAP1 ISZERO ISZERO SWAP1 PUSH1 0x3 ADD PUSH2 0x1D18 JUMP JUMPDEST PUSH1 0x24 CALLDATALOAD PUSH1 0x1 PUSH1 0x1 PUSH1 0xA0 SHL SUB AND PUSH1 0x0 SWAP1 DUP2 MSTORE PUSH1 0x3 PUSH1 0x20 MSTORE PUSH1 0x40 SWAP1 KECCAK256 PUSH1 0x1 DUP2 ADD DUP1 SLOAD PUSH2 0x9C7 SWAP1 PUSH2 0x1D29 JUMP JUMPDEST SWAP1 SSTORE PUSH2 0x9DD PUSH1 0x2 PUSH1 0x6 DUP6 ADD SLOAD SWAP3 ADD SWAP2 DUP3 SLOAD PUSH2 0x1D0B JUMP JUMPDEST SWAP1 SSTORE PUSH1 0x1 DUP3 ADD SLOAD PUSH1 0x1 PUSH1 0x1 PUSH1 0xA0 SHL SUB AND PUSH1 0x0 SWAP1 DUP2 MSTORE PUSH1 0x3 PUSH1 0x20 MSTORE PUSH1 0x40 SWAP1 KECCAK256 PUSH1 0x2 ADD DUP1 SLOAD PUSH1 0x5 DUP2 ADD SWAP2 SWAP1 DUP3 LT PUSH2 0xC80 JUMPI SSTORE PUSH1 0x40 MLOAD PUSH4 0x70A08231 PUSH1 0xE0 SHL DUP2 MSTORE ADDRESS PUSH1 0x4 DUP3 ADD MSTORE PUSH1 0x20 DUP2 PUSH1 0x24 DUP2 PUSH32 0x0 PUSH1 0x1 PUSH1 0x1 PUSH1 0xA0 SHL SUB AND GAS STATICCALL SWAP1 DUP2 ISZERO PUSH2 0x4CB JUMPI PUSH1 0x0 SWAP2 PUSH2 0xD4F JUMPI JUMPDEST POP PUSH1 0x6 DUP4 ADD SLOAD SWAP1 PUSH1 0x5 DUP3 ADD SWAP1 DUP2 DUP4 GT PUSH2 0xC80 JUMPI LT ISZERO PUSH2 0xB2A JUMPI JUMPDEST POP PUSH1 0x6 SWAP2 POP PUSH1 0x1 DUP1 PUSH1 0xA0 SHL SUB PUSH1 0x24 CALLDATALOAD AND PUSH1 0x0 MSTORE DUP2 PUSH1 0x20 MSTORE PUSH1 0x40 PUSH1 0x0 KECCAK256 PUSH2 0xAA1 DUP2 SLOAD PUSH2 0x1D29 JUMP JUMPDEST SWAP1 SSTORE PUSH1 0x4 DUP2 ADD PUSH2 0xAB1 DUP2 SLOAD PUSH2 0x1D29 JUMP JUMPDEST DUP1 SWAP2 SSTORE PUSH1 0x5 DUP3 ADD SLOAD GT ISZERO PUSH2 0xB16 JUMPI JUMPDEST PUSH2 0xACB PUSH1 0x8 SLOAD PUSH2 0x1D29 JUMP JUMPDEST PUSH1 0x8 SSTORE ADD SLOAD PUSH1 0x40 DUP1 MLOAD SWAP2 DUP3 MSTORE TIMESTAMP PUSH1 0x20 DUP4 ADD MSTORE PUSH1 0x24 CALLDATALOAD PUSH1 0x1 PUSH1 0x1 PUSH1 0xA0 SHL SUB AND SWAP3 SWAP2 PUSH32 0x136520A105C1A1979C4FBB277861E0A822E8D2E7B4175FB22E41AE00213546A1 SWAP2 SWAP1 LOG3 PUSH1 0x1 PUSH1 0x0 SSTORE STOP JUMPDEST PUSH1 0x3 DUP2 ADD DUP1 SLOAD PUSH1 0xFF NOT AND PUSH1 0x1 OR SWAP1 SSTORE PUSH2 0xAC0 JUMP JUMPDEST PUSH1 0x20 PUSH2 0xB4D SWAP2 PUSH1 0x40 MLOAD DUP1 SWAP4 DUP2 SWAP3 PUSH4 0xA9059CBB PUSH1 0xE0 SHL DUP4 MSTORE PUSH1 0x24 CALLDATALOAD PUSH1 0x4 DUP5 ADD PUSH2 0x1D91 JUMP JUMPDEST SUB DUP2 PUSH1 0x0 PUSH32 0x0 PUSH1 0x1 PUSH1 0x1 PUSH1 0xA0 SHL SUB AND GAS CALL SWAP1 DUP2 ISZERO PUSH2 0x4CB JUMPI PUSH1 0x0 SWAP2 PUSH2 0xD30 JUMPI JUMPDEST POP ISZERO PUSH2 0xCF2 JUMPI PUSH1 0x1 DUP3 ADD SLOAD PUSH1 0x40 MLOAD PUSH4 0xA9059CBB PUSH1 0xE0 SHL DUP2 MSTORE PUSH1 0x1 PUSH1 0x1 PUSH1 0xA0 SHL SUB SWAP2 DUP3 AND PUSH1 0x4 DUP3 ADD MSTORE PUSH1 0x5 PUSH1 0x24 DUP3 ADD MSTORE SWAP1 PUSH1 0x20 SWAP1 DUP3 SWAP1 PUSH1 0x44 SWAP1 DUP3 SWAP1 PUSH1 0x0 SWAP1 PUSH32 0x0 AND GAS CALL SWAP1 DUP2 ISZERO PUSH2 0x4CB JUMPI PUSH1 0x0 SWAP2 PUSH2 0xCD3 JUMPI JUMPDEST POP ISZERO PUSH2 0xC96 JUMPI PUSH1 0x6 DUP3 ADD SLOAD PUSH1 0x5 DUP2 ADD DUP1 SWAP2 GT PUSH2 0xC80 JUMPI PUSH2 0xC1E SWAP1 PUSH1 0x9 SLOAD PUSH2 0x1D0B JUMP JUMPDEST PUSH1 0x9 SSTORE PUSH1 0x6 PUSH1 0x1 DUP1 PUSH1 0xA0 SHL SUB PUSH1 0x1 DUP5 ADD SLOAD AND SWAP3 ADD SLOAD PUSH1 0x5 DUP2 ADD DUP1 SWAP2 GT PUSH2 0xC80 JUMPI PUSH1 0x40 MLOAD SWAP1 DUP2 MSTORE PUSH1 0x6 SWAP3 PUSH1 0x24 CALLDATALOAD PUSH1 0x1 PUSH1 0x1 PUSH1 0xA0 SHL SUB AND SWAP2 PUSH32 0x450FD72B95C2CC72AAD60ACB0244CB42CFC00ACC98CF56397D22A3AD18FF54E SWAP1 PUSH1 0x20 SWAP1 LOG3 DUP4 PUSH2 0xA7B JUMP JUMPDEST PUSH4 0x4E487B71 PUSH1 0xE0 SHL PUSH1 0x0 MSTORE PUSH1 0x11 PUSH1 0x4 MSTORE PUSH1 0x24 PUSH1 0x0 REVERT JUMPDEST PUSH1 0x40 MLOAD PUSH3 0x461BCD PUSH1 0xE5 SHL DUP2 MSTORE PUSH1 0x20 PUSH1 0x4 DUP3 ADD MSTORE PUSH1 0x15 PUSH1 0x24 DUP3 ADD MSTORE PUSH21 0x109BDB9D5CC81D1C985B9CD9995C8819985A5B1959 PUSH1 0x5A SHL PUSH1 0x44 DUP3 ADD MSTORE PUSH1 0x64 SWAP1 REVERT JUMPDEST PUSH2 0xCEC SWAP2 POP PUSH1 0x20 RETURNDATASIZE PUSH1 0x20 GT PUSH2 0x4C4 JUMPI PUSH2 0x4B6 DUP2 DUP4 PUSH2 0x1A3C JUMP JUMPDEST DUP5 PUSH2 0xBFC JUMP JUMPDEST PUSH1 0x40 MLOAD PUSH3 0x461BCD PUSH1 0xE5 SHL DUP2 MSTORE PUSH1 0x20 PUSH1 0x4 DUP3 ADD MSTORE PUSH1 0x16 PUSH1 0x24 DUP3 ADD MSTORE PUSH22 0x14995DD85C99081D1C985B9CD9995C8819985A5B1959 PUSH1 0x52 SHL PUSH1 0x44 DUP3 ADD MSTORE PUSH1 0x64 SWAP1 REVERT JUMPDEST PUSH2 0xD49 SWAP2 POP PUSH1 0x20 RETURNDATASIZE PUSH1 0x20 GT PUSH2 0x4C4 JUMPI PUSH2 0x4B6 DUP2 DUP4 PUSH2 0x1A3C JUMP JUMPDEST DUP5 PUSH2 0xB8C JUMP JUMPDEST SWAP1 POP PUSH1 0x20 DUP2 RETURNDATASIZE PUSH1 0x20 GT PUSH2 0xD79 JUMPI JUMPDEST DUP2 PUSH2 0xD6A PUSH1 0x20 SWAP4 DUP4 PUSH2 0x1A3C JUMP JUMPDEST DUP2 ADD SUB SLT PUSH2 0x1E1 JUMPI MLOAD DUP5 PUSH2 0xA61 JUMP JUMPDEST RETURNDATASIZE SWAP2 POP PUSH2 0xD5D JUMP JUMPDEST PUSH4 0x4E487B71 PUSH1 0xE0 SHL PUSH1 0x0 MSTORE PUSH1 0x0 PUSH1 0x4 MSTORE PUSH1 0x24 PUSH1 0x0 REVERT JUMPDEST PUSH4 0x4E487B71 PUSH1 0xE0 SHL PUSH1 0x0 MSTORE PUSH1 0x41 PUSH1 0x4 MSTORE PUSH1 0x24 PUSH1 0x0 REVERT JUMPDEST PUSH1 0x40 MLOAD PUSH3 0x461BCD PUSH1 0xE5 SHL DUP2 MSTORE PUSH1 0x20 PUSH1 0x4 DUP3 ADD MSTORE PUSH1 0x14 PUSH1 0x24 DUP3 ADD MSTORE PUSH20 0x10DBD91948185B1C9958591E4818DB185A5B5959 PUSH1 0x62 SHL PUSH1 0x44 DUP3 ADD MSTORE PUSH1 0x64 SWAP1 REVERT JUMPDEST PUSH1 0x40 MLOAD PUSH3 0x461BCD PUSH1 0xE5 SHL DUP2 MSTORE PUSH1 0x20 PUSH1 0x4 DUP3 ADD MSTORE PUSH1 0x15 PUSH1 0x24 DUP3 ADD MSTORE PUSH21 0x149959995C9C985B0818DBD91948195E1C1A5C9959 PUSH1 0x5A SHL PUSH1 0x44 DUP3 ADD MSTORE PUSH1 0x64 SWAP1 REVERT JUMPDEST PUSH1 0x40 MLOAD PUSH3 0x461BCD PUSH1 0xE5 SHL DUP2 MSTORE PUSH1 0x20 PUSH1 0x4 DUP3 ADD MSTORE PUSH1 0x1C PUSH1 0x24 DUP3 ADD MSTORE PUSH28 0x149959995C9C985B0818DBD91948191BD95CC81B9BDD08195E1A5CDD PUSH1 0x22 SHL PUSH1 0x44 DUP3 ADD MSTORE PUSH1 0x64 SWAP1 REVERT JUMPDEST CALLVALUE PUSH2 0x1E1 JUMPI PUSH1 0x40 CALLDATASIZE PUSH1 0x3 NOT ADD SLT PUSH2 0x1E1 JUMPI PUSH1 0x24 CALLDATALOAD PUSH1 0x4 CALLDATALOAD PUSH1 0x0 MSTORE PUSH1 0x5 PUSH1 0x20 MSTORE PUSH1 0x40 PUSH1 0x0 KECCAK256 DUP1 SLOAD DUP3 LT ISZERO PUSH2 0x1E1 JUMPI PUSH1 0x80 SWAP2 PUSH2 0xEA3 SWAP2 PUSH2 0x1BF2 JUMP JUMPDEST POP PUSH1 0x1 DUP1 PUSH1 0xA0 SHL SUB DUP2 SLOAD AND SWAP1 PUSH1 0x1 DUP2 ADD SLOAD SWAP1 PUSH1 0xFF PUSH1 0x3 PUSH1 0x2 DUP4 ADD SLOAD SWAP3 ADD SLOAD AND SWAP2 PUSH1 0x40 MLOAD SWAP4 DUP5 MSTORE PUSH1 0x20 DUP5 ADD MSTORE PUSH1 0x40 DUP4 ADD MSTORE ISZERO ISZERO PUSH1 0x60 DUP3 ADD MSTORE RETURN JUMPDEST CALLVALUE PUSH2 0x1E1 JUMPI PUSH1 0x0 CALLDATASIZE PUSH1 0x3 NOT ADD SLT PUSH2 0x1E1 JUMPI PUSH1 0x1 SLOAD PUSH1 0x40 MLOAD PUSH1 0x1 PUSH1 0x1 PUSH1 0xA0 SHL SUB SWAP1 SWAP2 AND DUP2 MSTORE PUSH1 0x20 SWAP1 RETURN JUMPDEST CALLVALUE PUSH2 0x1E1 JUMPI PUSH1 0x20 CALLDATASIZE PUSH1 0x3 NOT ADD SLT PUSH2 0x1E1 JUMPI PUSH1 0x4 CALLDATALOAD PUSH1 0x0 MSTORE PUSH1 0x2 PUSH1 0x20 MSTORE PUSH1 0x40 PUSH1 0x0 KECCAK256 DUP1 SLOAD SWAP2 PUSH2 0xFA8 PUSH1 0x1 DUP1 PUSH1 0xA0 SHL SUB PUSH1 0x1 DUP5 ADD SLOAD AND SWAP3 PUSH1 0x2 DUP2 ADD SLOAD SWAP4 PUSH1 0xFF PUSH1 0x3 DUP4 ADD SLOAD AND SWAP6 PUSH1 0x4 DUP4 ADD SLOAD SWAP5 PUSH1 0x5 DUP5 ADD SLOAD PUSH1 0x6 DUP6 ADD SLOAD SWAP1 PUSH1 0xFF PUSH1 0x8 PUSH2 0xF6A PUSH1 0x7 DUP10 ADD PUSH2 0x1B4D JUMP JUMPDEST SWAP8 ADD SLOAD AND SWAP8 PUSH1 0x40 MLOAD SWAP11 DUP12 SWAP11 PUSH2 0x120 SWAP8 DUP9 SWAP8 DUP14 MSTORE PUSH1 0x20 DUP14 ADD MSTORE PUSH1 0x40 DUP13 ADD MSTORE ISZERO ISZERO PUSH1 0x60 DUP12 ADD MSTORE PUSH1 0x80 DUP11 ADD MSTORE PUSH1 0xA0 DUP10 ADD MSTORE PUSH1 0xC0 DUP9 ADD MSTORE DUP7 ADD MSTORE DUP5 ADD SWAP1 PUSH2 0x1AD8 JUMP JUMPDEST SWAP1 ISZERO ISZERO PUSH2 0x100 DUP4 ADD MSTORE SUB SWAP1 RETURN JUMPDEST CALLVALUE PUSH2 0x1E1 JUMPI PUSH1 0x20 CALLDATASIZE PUSH1 0x3 NOT ADD SLT PUSH2 0x1E1 JUMPI PUSH1 0x1 PUSH1 0x1 PUSH1 0xA0 SHL SUB PUSH2 0xFD6 PUSH2 0x1AFD JUMP JUMPDEST AND PUSH1 0x0 MSTORE PUSH1 0x6 PUSH1 0x20 MSTORE PUSH1 0x20 PUSH1 0x40 PUSH1 0x0 KECCAK256 SLOAD PUSH1 0x40 MLOAD SWAP1 DUP2 MSTORE RETURN JUMPDEST CALLVALUE PUSH2 0x1E1 JUMPI PUSH1 0x0 CALLDATASIZE PUSH1 0x3 NOT ADD SLT PUSH2 0x1E1 JUMPI PUSH2 0x1008 PUSH2 0x1E8A JUMP JUMPDEST PUSH1 0x1 DUP1 SLOAD PUSH1 0x1 PUSH1 0x1 PUSH1 0xA0 SHL SUB NOT DUP2 AND SWAP1 SWAP2 SSTORE PUSH1 0x0 SWAP1 PUSH1 0x1 PUSH1 0x1 PUSH1 0xA0 SHL SUB AND PUSH1 0x0 DUP1 MLOAD PUSH1 0x20 PUSH2 0x1EB7 DUP4 CODECOPY DUP2 MLOAD SWAP2 MSTORE DUP3 DUP1 LOG3 STOP JUMPDEST CALLVALUE PUSH2 0x1E1 JUMPI PUSH1 0x0 CALLDATASIZE PUSH1 0x3 NOT ADD SLT PUSH2 0x1E1 JUMPI PUSH1 0x20 PUSH1 0x40 MLOAD PUSH1 0x2 DUP2 MSTORE RETURN JUMPDEST CALLVALUE PUSH2 0x1E1 JUMPI PUSH1 0x0 CALLDATASIZE PUSH1 0x3 NOT ADD SLT PUSH2 0x1E1 JUMPI PUSH1 0x20 PUSH1 0x40 MLOAD PUSH1 0x5 DUP2 MSTORE RETURN JUMPDEST CALLVALUE PUSH2 0x1E1 JUMPI PUSH1 0x0 CALLDATASIZE PUSH1 0x3 NOT ADD SLT PUSH2 0x1E1 JUMPI PUSH1 0x20 PUSH1 0x40 MLOAD PUSH2 0xE10 DUP2 MSTORE RETURN JUMPDEST CALLVALUE PUSH2 0x1E1 JUMPI PUSH1 0x0 CALLDATASIZE PUSH1 0x3 NOT ADD SLT PUSH2 0x1E1 JUMPI PUSH1 0x20 PUSH1 0xFF PUSH1 0x1 SLOAD PUSH1 0xA0 SHR AND PUSH1 0x40 MLOAD SWAP1 ISZERO ISZERO DUP2 MSTORE RETURN JUMPDEST CALLVALUE PUSH2 0x1E1 JUMPI PUSH1 0x20 DUP1 PUSH1 0x3 NOT CALLDATASIZE ADD SLT PUSH2 0x1E1 JUMPI PUSH1 0x1 PUSH1 0x1 PUSH1 0x40 SHL SUB SWAP1 PUSH1 0x4 CALLDATALOAD DUP3 DUP2 GT PUSH2 0x1E1 JUMPI PUSH2 0x10E8 SWAP1 CALLDATASIZE SWAP1 PUSH1 0x4 ADD PUSH2 0x1A5F JUMP JUMPDEST PUSH2 0x10F6 PUSH1 0x6 DUP3 MLOAD LT ISZERO PUSH2 0x1C0E JUMP JUMPDEST PUSH2 0x1104 PUSH1 0x32 DUP3 MLOAD GT ISZERO PUSH2 0x1C4B JUMP JUMPDEST PUSH2 0x1110 PUSH2 0x73D DUP3 PUSH2 0x1DBD JUMP JUMPDEST PUSH1 0x40 MLOAD PUSH2 0x112C DUP4 DUP3 DUP2 PUSH2 0x75F DUP2 DUP4 ADD SWAP7 DUP8 DUP2 MLOAD SWAP4 DUP5 SWAP3 ADD PUSH2 0x1AB5 JUMP JUMPDEST MLOAD SWAP1 KECCAK256 PUSH1 0x0 MSTORE PUSH1 0x5 DUP2 MSTORE PUSH1 0x40 PUSH1 0x0 KECCAK256 SWAP2 DUP3 SLOAD SWAP1 DUP2 GT PUSH2 0xD97 JUMPI PUSH1 0x40 MLOAD SWAP1 PUSH2 0x1158 DUP4 DUP3 PUSH1 0x5 SHL ADD DUP4 PUSH2 0x1A3C JUMP JUMPDEST DUP1 DUP3 MSTORE DUP3 DUP3 ADD DUP1 SWAP5 PUSH1 0x0 MSTORE DUP4 PUSH1 0x0 KECCAK256 PUSH1 0x0 SWAP2 JUMPDEST DUP4 DUP4 LT PUSH2 0x11D6 JUMPI PUSH1 0x40 DUP1 MLOAD DUP8 DUP2 MSTORE DUP7 MLOAD DUP2 DUP10 ADD DUP2 SWAP1 MSTORE DUP10 SWAP3 DUP3 ADD SWAP1 DUP10 PUSH1 0x0 JUMPDEST DUP3 DUP2 LT PUSH2 0x1197 JUMPI DUP5 DUP5 SUB DUP6 RETURN JUMPDEST DUP6 MLOAD DUP1 MLOAD PUSH1 0x1 PUSH1 0x1 PUSH1 0xA0 SHL SUB AND DUP6 MSTORE DUP1 DUP4 ADD MLOAD DUP6 DUP5 ADD MSTORE PUSH1 0x40 DUP1 DUP3 ADD MLOAD SWAP1 DUP7 ADD MSTORE PUSH1 0x60 SWAP1 DUP2 ADD MLOAD ISZERO ISZERO SWAP1 DUP6 ADD MSTORE SWAP5 DUP2 ADD SWAP5 PUSH1 0x80 SWAP1 SWAP4 ADD SWAP3 PUSH1 0x1 ADD PUSH2 0x118A JUMP JUMPDEST PUSH1 0x4 DUP7 PUSH1 0x1 SWAP3 PUSH1 0x40 MLOAD PUSH2 0x11E8 DUP2 PUSH2 0x1A06 JUMP JUMPDEST DUP5 DUP1 PUSH1 0xA0 SHL SUB DUP7 SLOAD AND DUP2 MSTORE DUP5 DUP7 ADD SLOAD DUP4 DUP3 ADD MSTORE PUSH1 0x2 DUP7 ADD SLOAD PUSH1 0x40 DUP3 ADD MSTORE PUSH1 0xFF PUSH1 0x3 DUP8 ADD SLOAD AND ISZERO ISZERO PUSH1 0x60 DUP3 ADD MSTORE DUP2 MSTORE ADD SWAP3 ADD SWAP3 ADD SWAP2 SWAP1 PUSH2 0x116B JUMP JUMPDEST CALLVALUE PUSH2 0x1E1 JUMPI PUSH1 0x0 CALLDATASIZE PUSH1 0x3 NOT ADD SLT PUSH2 0x1E1 JUMPI PUSH1 0x20 PUSH1 0x40 MLOAD PUSH1 0xA DUP2 MSTORE RETURN JUMPDEST CALLVALUE PUSH2 0x1E1 JUMPI PUSH1 0x0 CALLDATASIZE PUSH1 0x3 NOT ADD SLT PUSH2 0x1E1 JUMPI PUSH1 0x20 PUSH1 0x40 MLOAD PUSH2 0x708 DUP2 MSTORE RETURN JUMPDEST CALLVALUE PUSH2 0x1E1 JUMPI PUSH1 0x0 CALLDATASIZE PUSH1 0x3 NOT ADD SLT PUSH2 0x1E1 JUMPI PUSH1 0x20 PUSH1 0x7 SLOAD PUSH1 0x40 MLOAD SWAP1 DUP2 MSTORE RETURN JUMPDEST CALLVALUE PUSH2 0x1E1 JUMPI PUSH1 0x0 CALLDATASIZE PUSH1 0x3 NOT ADD SLT PUSH2 0x1E1 JUMPI PUSH2 0x1292 PUSH2 0x1E46 JUMP JUMPDEST PUSH2 0x129A PUSH2 0x1E69 JUMP JUMPDEST CALLER PUSH1 0x0 MSTORE PUSH1 0x4 PUSH1 0x20 MSTORE PUSH2 0x12B5 PUSH1 0xFF PUSH1 0x40 PUSH1 0x0 KECCAK256 SLOAD AND ISZERO PUSH2 0x1CC9 JUMP JUMPDEST CALLER PUSH1 0x0 MSTORE PUSH1 0x3 PUSH1 0x20 MSTORE PUSH2 0x12D3 PUSH1 0xFF PUSH1 0x4 PUSH1 0x40 PUSH1 0x0 KECCAK256 ADD SLOAD AND ISZERO PUSH2 0x1CC9 JUMP JUMPDEST CALLER PUSH1 0x0 MSTORE PUSH1 0x3 PUSH1 0x20 MSTORE PUSH1 0x40 PUSH1 0x0 KECCAK256 SWAP1 PUSH1 0x5 DUP3 ADD SLOAD TIMESTAMP LT PUSH2 0x175C JUMPI PUSH1 0xA DUP3 SLOAD LT ISZERO PUSH2 0x1723 JUMPI PUSH1 0x40 MLOAD PUSH1 0x20 DUP2 ADD SWAP1 CALLER PUSH1 0x60 SHL DUP3 MSTORE TIMESTAMP PUSH1 0x34 DUP3 ADD MSTORE PREVRANDAO PUSH1 0x54 DUP3 ADD MSTORE PUSH1 0x54 DUP2 MSTORE PUSH2 0x131E DUP2 PUSH2 0x1A06 JUMP JUMPDEST MLOAD SWAP1 KECCAK256 PUSH1 0x40 MLOAD SWAP1 SWAP3 SWAP1 PUSH1 0x60 DUP2 ADD PUSH1 0x1 PUSH1 0x1 PUSH1 0x40 SHL SUB DUP2 GT DUP3 DUP3 LT OR PUSH2 0xD97 JUMPI PUSH1 0x40 SWAP1 DUP2 MSTORE PUSH1 0x24 DUP3 MSTORE PUSH32 0x4142434445464748494A4B4C4D4E4F505152535455565758595A303132333435 PUSH1 0x20 DUP4 ADD MSTORE PUSH4 0x36373839 PUSH1 0xE0 SHL DUP3 DUP3 ADD MSTORE DUP1 MLOAD SWAP5 SWAP1 DUP6 ADD PUSH1 0x1 PUSH1 0x1 PUSH1 0x40 SHL SUB DUP2 GT DUP7 DUP3 LT OR PUSH2 0xD97 JUMPI PUSH1 0x40 MSTORE PUSH1 0x6 DUP1 DUP7 MSTORE PUSH1 0x20 DUP7 ADD SWAP3 PUSH1 0x20 CALLDATASIZE DUP6 CALLDATACOPY PUSH1 0x0 JUMPDEST DUP3 DUP2 LT PUSH2 0x16B4 JUMPI POP POP POP POP PUSH2 0x75F SWAP1 PUSH2 0x13CE PUSH1 0x20 PUSH1 0x40 MLOAD DUP1 SWAP4 DUP3 DUP3 ADD SWAP6 DUP7 SWAP2 DUP11 MLOAD SWAP3 DUP4 SWAP2 PUSH2 0x1AB5 JUMP JUMPDEST MLOAD SWAP1 KECCAK256 SWAP2 DUP3 PUSH1 0x0 MSTORE PUSH1 0x2 PUSH1 0x20 MSTORE PUSH1 0xFF PUSH1 0x8 PUSH1 0x40 PUSH1 0x0 KECCAK256 ADD SLOAD AND PUSH2 0x1679 JUMPI PUSH3 0x278D00 TIMESTAMP ADD TIMESTAMP GT PUSH2 0xC80 JUMPI PUSH1 0x40 MLOAD PUSH2 0x1403 DUP2 PUSH2 0x19EA JUMP JUMPDEST DUP4 DUP2 MSTORE CALLER PUSH1 0x20 DUP3 ADD MSTORE PUSH3 0x278D00 TIMESTAMP ADD PUSH1 0x40 DUP3 ADD MSTORE PUSH1 0x0 PUSH1 0x60 DUP3 ADD MSTORE PUSH1 0x0 PUSH1 0x80 DUP3 ADD MSTORE PUSH1 0x64 PUSH1 0xA0 DUP3 ADD MSTORE PUSH1 0x2 PUSH1 0xC0 DUP3 ADD MSTORE DUP5 DUP3 DUP3 ADD MSTORE PUSH1 0x1 PUSH2 0x100 DUP3 ADD MSTORE DUP4 PUSH1 0x0 MSTORE PUSH1 0x2 PUSH1 0x20 MSTORE PUSH1 0x40 PUSH1 0x0 KECCAK256 SWAP2 DUP2 MLOAD DUP4 SSTORE PUSH1 0x1 DUP4 ADD PUSH1 0x1 DUP1 PUSH1 0xA0 SHL SUB PUSH1 0x20 DUP5 ADD MLOAD AND PUSH1 0x1 DUP1 PUSH1 0xA0 SHL SUB NOT DUP3 SLOAD AND OR SWAP1 SSTORE PUSH1 0x40 DUP3 ADD MLOAD PUSH1 0x2 DUP5 ADD SSTORE PUSH2 0x148F PUSH1 0x60 DUP4 ADD MLOAD ISZERO ISZERO PUSH1 0x3 DUP6 ADD PUSH2 0x1D18 JUMP JUMPDEST PUSH1 0x80 DUP3 ADD MLOAD PUSH1 0x4 DUP5 ADD SSTORE PUSH1 0xA0 DUP3 ADD MLOAD PUSH1 0x5 DUP5 ADD SSTORE PUSH1 0xC0 DUP3 ADD MLOAD PUSH1 0x6 DUP5 ADD SSTORE DUP2 ADD MLOAD DUP1 MLOAD SWAP1 PUSH1 0x1 PUSH1 0x1 PUSH1 0x40 SHL SUB DUP3 GT PUSH2 0xD97 JUMPI PUSH2 0x14CE PUSH1 0x7 DUP6 ADD SLOAD PUSH2 0x1B13 JUMP JUMPDEST PUSH1 0x1F DUP2 GT PUSH2 0x1632 JUMPI JUMPDEST POP PUSH1 0x20 SWAP1 PUSH1 0x1F DUP4 GT PUSH1 0x1 EQ PUSH2 0x15B8 JUMPI SWAP3 DUP3 PUSH1 0x8 SWAP4 PUSH2 0x100 SWAP4 PUSH2 0x151F SWAP8 SWAP7 PUSH1 0x0 SWAP3 PUSH2 0x15AD JUMPI JUMPDEST POP POP DUP2 PUSH1 0x1 SHL SWAP2 PUSH1 0x0 NOT SWAP1 PUSH1 0x3 SHL SHR NOT AND OR PUSH1 0x7 DUP6 ADD SSTORE JUMPDEST ADD MLOAD ISZERO ISZERO SWAP2 ADD PUSH2 0x1D18 JUMP JUMPDEST PUSH2 0x1529 DUP2 SLOAD PUSH2 0x1D29 JUMP JUMPDEST DUP2 SSTORE TIMESTAMP PUSH1 0x3 DUP3 ADD SSTORE PUSH2 0xE10 TIMESTAMP ADD SWAP1 DUP2 TIMESTAMP GT PUSH2 0xC80 JUMPI PUSH1 0x5 ADD SSTORE PUSH2 0x154D PUSH1 0x7 SLOAD PUSH2 0x1D29 JUMP JUMPDEST PUSH1 0x7 SSTORE PUSH32 0x4CF69375003D889C234C9A613476B035B94511C5CE2EE48603A6AAB1070313B9 PUSH2 0x1586 PUSH1 0x40 MLOAD SWAP4 PUSH1 0x80 DUP6 MSTORE PUSH1 0x80 DUP6 ADD SWAP1 PUSH2 0x1AD8 JUMP JUMPDEST SWAP3 PUSH3 0x278D00 TIMESTAMP ADD PUSH1 0x20 DUP3 ADD MSTORE PUSH1 0x64 PUSH1 0x40 DUP3 ADD MSTORE PUSH1 0x2 PUSH1 0x60 DUP3 ADD MSTORE DUP1 CALLER SWAP5 SUB SWAP1 LOG3 PUSH1 0x1 PUSH1 0x0 SSTORE STOP JUMPDEST ADD MLOAD SWAP1 POP DUP11 DUP1 PUSH2 0x14FC JUMP JUMPDEST SWAP1 PUSH1 0x7 DUP6 ADD PUSH1 0x0 MSTORE PUSH1 0x20 PUSH1 0x0 KECCAK256 SWAP2 PUSH1 0x0 JUMPDEST PUSH1 0x1F NOT DUP6 AND DUP2 LT PUSH2 0x161A JUMPI POP DUP4 PUSH2 0x100 SWAP4 PUSH2 0x151F SWAP8 SWAP7 SWAP4 PUSH1 0x1 SWAP4 PUSH1 0x8 SWAP8 PUSH1 0x1F NOT DUP2 AND LT PUSH2 0x1601 JUMPI JUMPDEST POP POP POP DUP2 SHL ADD PUSH1 0x7 DUP6 ADD SSTORE PUSH2 0x1514 JUMP JUMPDEST ADD MLOAD PUSH1 0x0 NOT PUSH1 0xF8 DUP5 PUSH1 0x3 SHL AND SHR NOT AND SWAP1 SSTORE DUP11 DUP1 DUP1 PUSH2 0x15F1 JUMP JUMPDEST SWAP2 SWAP3 PUSH1 0x20 PUSH1 0x1 DUP2 SWAP3 DUP7 DUP6 ADD MLOAD DUP2 SSTORE ADD SWAP5 ADD SWAP3 ADD PUSH2 0x15C9 JUMP JUMPDEST PUSH1 0x7 DUP6 ADD PUSH1 0x0 MSTORE PUSH1 0x20 PUSH1 0x0 KECCAK256 PUSH1 0x1F DUP5 ADD PUSH1 0x5 SHR DUP2 ADD PUSH1 0x20 DUP6 LT PUSH2 0x1672 JUMPI JUMPDEST PUSH1 0x1F DUP4 ADD PUSH1 0x5 SHR DUP3 ADD DUP2 LT PUSH2 0x1666 JUMPI POP POP PUSH2 0x14D7 JUMP JUMPDEST PUSH1 0x0 DUP2 SSTORE PUSH1 0x1 ADD PUSH2 0x1650 JUMP JUMPDEST POP DUP1 PUSH2 0x1650 JUMP JUMPDEST PUSH1 0x40 MLOAD PUSH3 0x461BCD PUSH1 0xE5 SHL DUP2 MSTORE PUSH1 0x20 PUSH1 0x4 DUP3 ADD MSTORE PUSH1 0x13 PUSH1 0x24 DUP3 ADD MSTORE PUSH19 0x436F646520616C726561647920657869737473 PUSH1 0x68 SHL PUSH1 0x44 DUP3 ADD MSTORE PUSH1 0x64 SWAP1 REVERT JUMPDEST PUSH1 0x20 DUP2 LT ISZERO PUSH2 0x170D JUMPI DUP2 MLOAD SWAP1 DUP2 ISZERO PUSH2 0x16F7 JUMPI PUSH1 0x1 SWAP2 PUSH1 0x1 PUSH1 0x1 PUSH1 0xF8 SHL SUB NOT SWAP1 PUSH2 0x16E1 SWAP1 DUP8 DUP5 BYTE MOD DUP6 PUSH2 0x1DAC JUMP JUMPDEST MLOAD AND PUSH1 0x0 BYTE PUSH2 0x16F0 DUP3 DUP12 PUSH2 0x1DAC JUMP JUMPDEST MSTORE8 ADD PUSH2 0x13A5 JUMP JUMPDEST PUSH4 0x4E487B71 PUSH1 0xE0 SHL PUSH1 0x0 MSTORE PUSH1 0x12 PUSH1 0x4 MSTORE PUSH1 0x24 PUSH1 0x0 REVERT JUMPDEST PUSH4 0x4E487B71 PUSH1 0xE0 SHL PUSH1 0x0 MSTORE PUSH1 0x32 PUSH1 0x4 MSTORE PUSH1 0x24 PUSH1 0x0 REVERT JUMPDEST PUSH1 0x40 MLOAD PUSH3 0x461BCD PUSH1 0xE5 SHL DUP2 MSTORE PUSH1 0x20 PUSH1 0x4 DUP3 ADD MSTORE PUSH1 0x11 PUSH1 0x24 DUP3 ADD MSTORE PUSH17 0x13585E0818DBD9195CC81C995858DA1959 PUSH1 0x7A SHL PUSH1 0x44 DUP3 ADD MSTORE PUSH1 0x64 SWAP1 REVERT JUMPDEST PUSH1 0x40 MLOAD PUSH3 0x461BCD PUSH1 0xE5 SHL DUP2 MSTORE PUSH1 0x20 PUSH1 0x4 DUP3 ADD MSTORE PUSH1 0x16 PUSH1 0x24 DUP3 ADD MSTORE PUSH22 0x436F6F6C646F776E20706572696F6420616374697665 PUSH1 0x50 SHL PUSH1 0x44 DUP3 ADD MSTORE PUSH1 0x64 SWAP1 REVERT JUMPDEST CALLVALUE PUSH2 0x1E1 JUMPI PUSH1 0x0 CALLDATASIZE PUSH1 0x3 NOT ADD SLT PUSH2 0x1E1 JUMPI PUSH1 0x40 MLOAD PUSH32 0x0 PUSH1 0x1 PUSH1 0x1 PUSH1 0xA0 SHL SUB AND DUP2 MSTORE PUSH1 0x20 SWAP1 RETURN JUMPDEST CALLVALUE PUSH2 0x1E1 JUMPI PUSH1 0x20 SWAP1 DUP2 PUSH1 0x3 NOT CALLDATASIZE ADD SLT PUSH2 0x1E1 JUMPI PUSH1 0x4 CALLDATALOAD PUSH1 0x1 PUSH1 0x1 PUSH1 0x40 SHL SUB DUP2 GT PUSH2 0x1E1 JUMPI PUSH2 0x1811 SWAP1 CALLDATASIZE SWAP1 PUSH1 0x4 ADD PUSH2 0x1A5F JUMP JUMPDEST PUSH1 0x40 MLOAD SWAP1 PUSH2 0x181E DUP3 PUSH2 0x19EA JUMP JUMPDEST PUSH1 0x0 DUP3 MSTORE PUSH1 0x0 DUP5 DUP4 ADD MSTORE PUSH1 0x0 PUSH1 0x40 DUP4 ADD MSTORE PUSH1 0x0 PUSH1 0x60 DUP4 ADD MSTORE PUSH1 0x0 PUSH1 0x80 DUP4 ADD MSTORE PUSH1 0x0 PUSH1 0xA0 DUP4 ADD MSTORE PUSH1 0x0 PUSH1 0xC0 DUP4 ADD MSTORE PUSH1 0x60 DUP4 DUP4 ADD MSTORE PUSH1 0x0 PUSH2 0x100 DUP1 SWAP4 ADD MSTORE PUSH2 0x1868 PUSH1 0x6 DUP3 MLOAD LT ISZERO PUSH2 0x1C0E JUMP JUMPDEST PUSH2 0x1876 PUSH1 0x32 DUP3 MLOAD GT ISZERO PUSH2 0x1C4B JUMP JUMPDEST PUSH2 0x1882 PUSH2 0x73D DUP3 PUSH2 0x1DBD JUMP JUMPDEST PUSH1 0x40 MLOAD PUSH2 0x189E DUP6 DUP3 DUP2 PUSH2 0x75F DUP2 DUP4 ADD SWAP7 DUP8 DUP2 MLOAD SWAP4 DUP5 SWAP3 ADD PUSH2 0x1AB5 JUMP JUMPDEST MLOAD SWAP1 KECCAK256 PUSH1 0x0 MSTORE PUSH1 0x2 DUP4 MSTORE PUSH1 0x40 PUSH1 0x0 KECCAK256 SWAP1 PUSH2 0x1988 PUSH1 0x40 MLOAD DUP1 SWAP5 PUSH2 0x18BF DUP3 PUSH2 0x19EA JUMP JUMPDEST DUP5 SLOAD DUP3 MSTORE PUSH1 0x1 DUP1 PUSH1 0xA0 SHL SUB SWAP5 DUP6 PUSH1 0x1 DUP3 ADD SLOAD AND SWAP6 DUP9 DUP5 ADD SWAP7 DUP8 MSTORE PUSH1 0x2 DUP3 ADD SLOAD PUSH1 0x40 DUP6 ADD SWAP1 DUP2 MSTORE PUSH1 0xFF PUSH1 0x3 DUP5 ADD SLOAD AND PUSH1 0x60 DUP7 ADD SWAP1 ISZERO ISZERO DUP2 MSTORE PUSH1 0x4 DUP5 ADD SLOAD SWAP2 PUSH1 0x80 DUP8 ADD SWAP3 DUP4 MSTORE PUSH1 0x5 DUP6 ADD SLOAD SWAP4 PUSH1 0xA0 DUP9 ADD SWAP5 DUP6 MSTORE PUSH1 0xFF PUSH1 0x8 PUSH1 0x6 DUP9 ADD SLOAD SWAP8 PUSH1 0xC0 DUP12 ADD SWAP9 DUP10 MSTORE DUP10 PUSH2 0x192E PUSH1 0x7 DUP4 ADD PUSH2 0x1B4D JUMP JUMPDEST SWAP12 ADD SWAP11 DUP12 MSTORE ADD SLOAD AND SWAP11 DUP11 DUP14 ADD SWAP12 ISZERO ISZERO DUP13 MSTORE PUSH1 0x40 MLOAD DUP15 DUP2 SWAP16 SWAP15 DUP3 SWAP16 DUP4 MSTORE MLOAD SWAP2 ADD MSTORE MLOAD AND PUSH1 0x40 DUP13 ADD MSTORE MLOAD PUSH1 0x60 DUP12 ADD MSTORE MLOAD ISZERO ISZERO PUSH1 0x80 DUP11 ADD MSTORE MLOAD PUSH1 0xA0 DUP10 ADD MSTORE MLOAD PUSH1 0xC0 DUP9 ADD MSTORE MLOAD SWAP1 DUP7 ADD MSTORE MLOAD PUSH2 0x120 DUP1 SWAP4 DUP7 ADD MSTORE PUSH2 0x140 DUP6 ADD SWAP1 PUSH2 0x1AD8 JUMP JUMPDEST SWAP2 MLOAD ISZERO ISZERO SWAP1 DUP4 ADD MSTORE SUB SWAP1 RETURN JUMPDEST CALLVALUE PUSH2 0x1E1 JUMPI PUSH1 0x0 CALLDATASIZE PUSH1 0x3 NOT ADD SLT PUSH2 0x1E1 JUMPI PUSH1 0x20 PUSH1 0x40 MLOAD PUSH3 0x278D00 DUP2 MSTORE RETURN JUMPDEST CALLVALUE PUSH2 0x1E1 JUMPI PUSH1 0x0 CALLDATASIZE PUSH1 0x3 NOT ADD SLT PUSH2 0x1E1 JUMPI PUSH1 0x20 PUSH1 0x8 SLOAD PUSH1 0x40 MLOAD SWAP1 DUP2 MSTORE RETURN JUMPDEST CALLVALUE PUSH2 0x1E1 JUMPI PUSH1 0x0 CALLDATASIZE PUSH1 0x3 NOT ADD SLT PUSH2 0x1E1 JUMPI DUP1 PUSH1 0x32 PUSH1 0x20 SWAP3 MSTORE RETURN JUMPDEST PUSH2 0x120 DUP2 ADD SWAP1 DUP2 LT PUSH1 0x1 PUSH1 0x1 PUSH1 0x40 SHL SUB DUP3 GT OR PUSH2 0xD97 JUMPI PUSH1 0x40 MSTORE JUMP JUMPDEST PUSH1 0x80 DUP2 ADD SWAP1 DUP2 LT PUSH1 0x1 PUSH1 0x1 PUSH1 0x40 SHL SUB DUP3 GT OR PUSH2 0xD97 JUMPI PUSH1 0x40 MSTORE JUMP JUMPDEST PUSH1 0xC0 DUP2 ADD SWAP1 DUP2 LT PUSH1 0x1 PUSH1 0x1 PUSH1 0x40 SHL SUB DUP3 GT OR PUSH2 0xD97 JUMPI PUSH1 0x40 MSTORE JUMP JUMPDEST PUSH1 0x1F SWAP1 SWAP2 ADD PUSH1 0x1F NOT AND DUP2 ADD SWAP1 PUSH1 0x1 PUSH1 0x1 PUSH1 0x40 SHL SUB DUP3 GT SWAP1 DUP3 LT OR PUSH2 0xD97 JUMPI PUSH1 0x40 MSTORE JUMP JUMPDEST DUP2 PUSH1 0x1F DUP3 ADD SLT ISZERO PUSH2 0x1E1 JUMPI DUP1 CALLDATALOAD SWAP1 PUSH1 0x1 PUSH1 0x1 PUSH1 0x40 SHL SUB DUP3 GT PUSH2 0xD97 JUMPI PUSH1 0x40 MLOAD SWAP3 PUSH2 0x1A93 PUSH1 0x1F DUP5 ADD PUSH1 0x1F NOT AND PUSH1 0x20 ADD DUP6 PUSH2 0x1A3C JUMP JUMPDEST DUP3 DUP5 MSTORE PUSH1 0x20 DUP4 DUP4 ADD ADD GT PUSH2 0x1E1 JUMPI DUP2 PUSH1 0x0 SWAP3 PUSH1 0x20 DUP1 SWAP4 ADD DUP4 DUP7 ADD CALLDATACOPY DUP4 ADD ADD MSTORE SWAP1 JUMP JUMPDEST PUSH1 0x0 JUMPDEST DUP4 DUP2 LT PUSH2 0x1AC8 JUMPI POP POP PUSH1 0x0 SWAP2 ADD MSTORE JUMP JUMPDEST DUP2 DUP2 ADD MLOAD DUP4 DUP3 ADD MSTORE PUSH1 0x20 ADD PUSH2 0x1AB8 JUMP JUMPDEST SWAP1 PUSH1 0x20 SWAP2 PUSH2 0x1AF1 DUP2 MLOAD DUP1 SWAP3 DUP2 DUP6 MSTORE DUP6 DUP1 DUP7 ADD SWAP2 ADD PUSH2 0x1AB5 JUMP JUMPDEST PUSH1 0x1F ADD PUSH1 0x1F NOT AND ADD ADD SWAP1 JUMP JUMPDEST PUSH1 0x4 CALLDATALOAD SWAP1 PUSH1 0x1 PUSH1 0x1 PUSH1 0xA0 SHL SUB DUP3 AND DUP3 SUB PUSH2 0x1E1 JUMPI JUMP JUMPDEST SWAP1 PUSH1 0x1 DUP3 DUP2 SHR SWAP3 AND DUP1 ISZERO PUSH2 0x1B43 JUMPI JUMPDEST PUSH1 0x20 DUP4 LT EQ PUSH2 0x1B2D JUMPI JUMP JUMPDEST PUSH4 0x4E487B71 PUSH1 0xE0 SHL PUSH1 0x0 MSTORE PUSH1 0x22 PUSH1 0x4 MSTORE PUSH1 0x24 PUSH1 0x0 REVERT JUMPDEST SWAP2 PUSH1 0x7F AND SWAP2 PUSH2 0x1B22 JUMP JUMPDEST SWAP1 PUSH1 0x40 MLOAD SWAP2 DUP3 PUSH1 0x0 DUP3 SLOAD PUSH2 0x1B60 DUP2 PUSH2 0x1B13 JUMP JUMPDEST SWAP1 DUP2 DUP5 MSTORE PUSH1 0x20 SWAP5 PUSH1 0x1 SWAP2 PUSH1 0x1 DUP2 AND SWAP1 DUP2 PUSH1 0x0 EQ PUSH2 0x1BD0 JUMPI POP PUSH1 0x1 EQ PUSH2 0x1B91 JUMPI JUMPDEST POP POP POP PUSH2 0x1B8F SWAP3 POP SUB DUP4 PUSH2 0x1A3C JUMP JUMPDEST JUMP JUMPDEST PUSH1 0x0 SWAP1 DUP2 MSTORE DUP6 DUP2 KECCAK256 SWAP6 SWAP4 POP SWAP2 SWAP1 JUMPDEST DUP2 DUP4 LT PUSH2 0x1BB8 JUMPI POP POP PUSH2 0x1B8F SWAP4 POP DUP3 ADD ADD CODESIZE DUP1 DUP1 PUSH2 0x1B80 JUMP JUMPDEST DUP6 SLOAD DUP9 DUP5 ADD DUP6 ADD MSTORE SWAP5 DUP6 ADD SWAP5 DUP8 SWAP5 POP SWAP2 DUP4 ADD SWAP2 PUSH2 0x1B9F JUMP JUMPDEST SWAP3 POP POP POP PUSH2 0x1B8F SWAP5 SWAP3 POP PUSH1 0xFF NOT AND DUP3 DUP5 ADD MSTORE ISZERO ISZERO PUSH1 0x5 SHL DUP3 ADD ADD CODESIZE DUP1 DUP1 PUSH2 0x1B80 JUMP JUMPDEST DUP1 SLOAD DUP3 LT ISZERO PUSH2 0x170D JUMPI PUSH1 0x0 MSTORE PUSH1 0x20 PUSH1 0x0 KECCAK256 SWAP1 PUSH1 0x2 SHL ADD SWAP1 PUSH1 0x0 SWAP1 JUMP JUMPDEST ISZERO PUSH2 0x1C15 JUMPI JUMP JUMPDEST PUSH1 0x40 MLOAD PUSH3 0x461BCD PUSH1 0xE5 SHL DUP2 MSTORE PUSH1 0x20 PUSH1 0x4 DUP3 ADD MSTORE PUSH1 0xE PUSH1 0x24 DUP3 ADD MSTORE PUSH14 0x10DBD919481D1BDBC81CDA1BDC9D PUSH1 0x92 SHL PUSH1 0x44 DUP3 ADD MSTORE PUSH1 0x64 SWAP1 REVERT JUMPDEST ISZERO PUSH2 0x1C52 JUMPI JUMP JUMPDEST PUSH1 0x40 MLOAD PUSH3 0x461BCD PUSH1 0xE5 SHL DUP2 MSTORE PUSH1 0x20 PUSH1 0x4 DUP3 ADD MSTORE PUSH1 0xD PUSH1 0x24 DUP3 ADD MSTORE PUSH13 0x436F646520746F6F206C6F6E67 PUSH1 0x98 SHL PUSH1 0x44 DUP3 ADD MSTORE PUSH1 0x64 SWAP1 REVERT JUMPDEST ISZERO PUSH2 0x1C8E JUMPI JUMP JUMPDEST PUSH1 0x40 MLOAD PUSH3 0x461BCD PUSH1 0xE5 SHL DUP2 MSTORE PUSH1 0x20 PUSH1 0x4 DUP3 ADD MSTORE PUSH1 0x13 PUSH1 0x24 DUP3 ADD MSTORE PUSH19 0x125B9D985B1A590818DBD91948199BDC9B585D PUSH1 0x6A SHL PUSH1 0x44 DUP3 ADD MSTORE PUSH1 0x64 SWAP1 REVERT JUMPDEST ISZERO PUSH2 0x1CD0 JUMPI JUMP JUMPDEST PUSH1 0x40 MLOAD PUSH3 0x461BCD PUSH1 0xE5 SHL DUP2 MSTORE PUSH1 0x20 PUSH1 0x4 DUP3 ADD MSTORE PUSH1 0x13 PUSH1 0x24 DUP3 ADD MSTORE PUSH19 0x155CD95C881A5CC8189B1858DADB1A5CDD1959 PUSH1 0x6A SHL PUSH1 0x44 DUP3 ADD MSTORE PUSH1 0x64 SWAP1 REVERT JUMPDEST SWAP2 SWAP1 DUP3 ADD DUP1 SWAP3 GT PUSH2 0xC80 JUMPI JUMP JUMPDEST SWAP1 PUSH1 0xFF DUP1 NOT DUP4 SLOAD AND SWAP2 ISZERO ISZERO AND OR SWAP1 SSTORE JUMP JUMPDEST PUSH1 0x0 NOT DUP2 EQ PUSH2 0xC80 JUMPI PUSH1 0x1 ADD SWAP1 JUMP JUMPDEST ISZERO PUSH2 0x1D3F JUMPI JUMP JUMPDEST PUSH1 0x40 MLOAD PUSH3 0x461BCD PUSH1 0xE5 SHL DUP2 MSTORE PUSH1 0x20 PUSH1 0x4 DUP3 ADD MSTORE PUSH1 0x12 PUSH1 0x24 DUP3 ADD MSTORE PUSH18 0x13585E0818DB185A5B5CC81C995858DA1959 PUSH1 0x72 SHL PUSH1 0x44 DUP3 ADD MSTORE PUSH1 0x64 SWAP1 REVERT JUMPDEST SWAP1 DUP2 PUSH1 0x20 SWAP2 SUB SLT PUSH2 0x1E1 JUMPI MLOAD DUP1 ISZERO ISZERO DUP2 SUB PUSH2 0x1E1 JUMPI SWAP1 JUMP JUMPDEST PUSH1 0x1 PUSH1 0x1 PUSH1 0xA0 SHL SUB SWAP1 SWAP2 AND DUP2 MSTORE PUSH1 0x20 DUP2 ADD SWAP2 SWAP1 SWAP2 MSTORE PUSH1 0x40 ADD SWAP1 JUMP JUMPDEST SWAP1 DUP2 MLOAD DUP2 LT ISZERO PUSH2 0x170D JUMPI ADD PUSH1 0x20 ADD SWAP1 JUMP JUMPDEST PUSH1 0x0 DUP1 JUMPDEST DUP3 MLOAD DUP2 LT ISZERO PUSH2 0x1E3E JUMPI PUSH1 0x1 PUSH1 0x1 PUSH1 0xF8 SHL SUB NOT PUSH2 0x1DDD DUP3 DUP6 PUSH2 0x1DAC JUMP JUMPDEST MLOAD AND PUSH1 0x41 PUSH1 0xF8 SHL DUP2 LT ISZERO SWAP1 DUP2 PUSH2 0x1E2F JUMPI JUMPDEST DUP2 ISZERO PUSH2 0x1E09 JUMPI JUMPDEST POP ISZERO PUSH2 0x1E03 JUMPI PUSH1 0x1 ADD PUSH2 0x1DC1 JUMP JUMPDEST POP SWAP1 POP SWAP1 JUMP JUMPDEST PUSH1 0x3 PUSH1 0xFC SHL DUP2 LT ISZERO SWAP2 POP DUP2 PUSH2 0x1E20 JUMPI JUMPDEST POP CODESIZE PUSH2 0x1DF5 JUMP JUMPDEST PUSH1 0x39 PUSH1 0xF8 SHL LT ISZERO SWAP1 POP CODESIZE PUSH2 0x1E19 JUMP JUMPDEST PUSH1 0x2D PUSH1 0xF9 SHL DUP2 GT ISZERO SWAP2 POP PUSH2 0x1DEE JUMP JUMPDEST POP POP POP PUSH1 0x1 SWAP1 JUMP JUMPDEST PUSH1 0x2 PUSH1 0x0 SLOAD EQ PUSH2 0x1E57 JUMPI PUSH1 0x2 PUSH1 0x0 SSTORE JUMP JUMPDEST PUSH1 0x40 MLOAD PUSH4 0x3EE5AEB5 PUSH1 0xE0 SHL DUP2 MSTORE PUSH1 0x4 SWAP1 REVERT JUMPDEST PUSH1 0xFF PUSH1 0x1 SLOAD PUSH1 0xA0 SHR AND PUSH2 0x1E78 JUMPI JUMP JUMPDEST PUSH1 0x40 MLOAD PUSH4 0xD93C0665 PUSH1 0xE0 SHL DUP2 MSTORE PUSH1 0x4 SWAP1 REVERT JUMPDEST PUSH1 0x1 SLOAD PUSH1 0x1 PUSH1 0x1 PUSH1 0xA0 SHL SUB AND CALLER SUB PUSH2 0x1E9E JUMPI JUMP JUMPDEST PUSH1 0x40 MLOAD PUSH4 0x118CDAA7 PUSH1 0xE0 SHL DUP2 MSTORE CALLER PUSH1 0x4 DUP3 ADD MSTORE PUSH1 0x24 SWAP1 REVERT INVALID DUP12 0xE0 SMOD SWAP13 MSTORE8 AND MSIZE EQ SGT PREVRANDAO 0xCD 0x1F 0xD0 LOG4 CALLCODE DUP5 NOT BLOBHASH PUSH32 0x9722A3DAAFE3B4186F6B6457E0A2646970667358221220FFBB29F66A9468DF94 EXTCODEHASH EXTCODECOPY DUP7 0x24 SWAP15 DUP6 NUMBER MLOAD 0x23 CODECOPY MSTORE8 0xEC 0x25 CODESIZE 0x4E SWAP6 0xA9 SMOD PUSH24 0x376808F964736F6C63430008180033000000000000000000 "},"methodIdentifiers":{"BONUS_REWARD_AMOUNT()":"61676534","CLAIM_COOLDOWN()":"37c909ec","CODE_EXPIRY_DURATION()":"0ee9995d","DEFAULT_REWARD_AMOUNT()":"6d7ce1b9","GENERATION_COOLDOWN()":"5e30acb4","MAX_CLAIMS_PER_CODE()":"d83123c7","MAX_CODES_PER_USER()":"443d2336","MAX_CODE_LENGTH()":"0b66e167","MIN_CODE_LENGTH()":"b57da7c5","blacklistedAddresses(address)":"d5749d42","codeClaims(bytes32,uint256)":"91be6f76","createReferralCode()":"2e108d1c","emergencyPause(bool)":"e8f6940e","emergencyWithdraw()":"db2e21bc","getReferralClaims(string)":"4ad82c0e","getReferralCodeInfo(string)":"12020225","getUserReferralData(address)":"e1c8e976","owner()":"8da5cb5b","paused()":"5c975abb","processReferralCode(string,address)":"97051077","referralCodes(bytes32)":"7e644547","renounceOwnership()":"715018a6","setUserBlacklist(address,bool)":"ccddf0b0","totalCodesClaimed()":"0eaeaa5a","totalCodesGenerated()":"33b5951f","totalRewardsDistributed()":"ee172546","transferOwnership(address)":"f2fde38b","userClaimCount(address)":"7daf9036","userReferralData(address)":"9be403b9","vmfToken()":"2086eefa"}}}}}