{"contracts/ChainlinkVRF.sol":{"ChainlinkVRF":{"abi":[{"inputs":[{"internalType":"address","name":"_vrfCoordinator","type":"address"},{"internalType":"uint64","name":"_subscriptionId","type":"uint64"},{"internalType":"bytes32","name":"_keyHash","type":"bytes32"},{"internalType":"uint32","name":"_callbackGasLimit","type":"uint32"},{"internalType":"uint16","name":"_requestConfirmations","type":"uint16"},{"internalType":"uint32","name":"_numWords","type":"uint32"}],"stateMutability":"nonpayable","type":"constructor"},{"inputs":[{"internalType":"address","name":"have","type":"address"},{"internalType":"address","name":"want","type":"address"}],"name":"OnlyCoordinatorCanFulfill","type":"error"},{"inputs":[{"internalType":"address","name":"owner","type":"address"}],"name":"OwnableInvalidOwner","type":"error"},{"inputs":[{"internalType":"address","name":"account","type":"address"}],"name":"OwnableUnauthorizedAccount","type":"error"},{"inputs":[],"name":"ReentrancyGuardReentrantCall","type":"error"},{"anonymous":false,"inputs":[{"indexed":true,"internalType":"address","name":"owner","type":"address"},{"indexed":false,"internalType":"uint256","name":"amount","type":"uint256"}],"name":"EmergencyWithdraw","type":"event"},{"anonymous":false,"inputs":[{"indexed":true,"internalType":"address","name":"previousOwner","type":"address"},{"indexed":true,"internalType":"address","name":"newOwner","type":"address"}],"name":"OwnershipTransferred","type":"event"},{"anonymous":false,"inputs":[{"indexed":true,"internalType":"uint256","name":"requestId","type":"uint256"},{"indexed":true,"internalType":"uint256","name":"gameId","type":"uint256"},{"indexed":false,"internalType":"string","name":"gameType","type":"string"}],"name":"RandomnessRequested","type":"event"},{"anonymous":false,"inputs":[{"indexed":false,"internalType":"uint64","name":"subscriptionId","type":"uint64"},{"indexed":false,"internalType":"uint256","name":"amount","type":"uint256"}],"name":"SubscriptionFunded","type":"event"},{"anonymous":false,"inputs":[{"indexed":true,"internalType":"uint256","name":"gameId","type":"uint256"},{"indexed":false,"internalType":"string","name":"gameType","type":"string"},{"indexed":false,"internalType":"address[]","name":"winners","type":"address[]"},{"indexed":false,"internalType":"uint256[]","name":"randomWords","type":"uint256[]"}],"name":"WinnersSelected","type":"event"},{"inputs":[],"name":"DAILY_WINNERS_COUNT","outputs":[{"internalType":"uint256","name":"","type":"uint256"}],"stateMutability":"view","type":"function"},{"inputs":[],"name":"WEEKLY_WINNERS_COUNT","outputs":[{"internalType":"uint256","name":"","type":"uint256"}],"stateMutability":"view","type":"function"},{"inputs":[{"internalType":"address","name":"token","type":"address"},{"internalType":"uint256","name":"amount","type":"uint256"}],"name":"emergencyWithdraw","outputs":[],"stateMutability":"nonpayable","type":"function"},{"inputs":[{"internalType":"uint256","name":"amount","type":"uint256"}],"name":"fundSubscription","outputs":[],"stateMutability":"nonpayable","type":"function"},{"inputs":[{"internalType":"uint256","name":"requestId","type":"uint256"}],"name":"getRequest","outputs":[{"components":[{"internalType":"uint256","name":"gameId","type":"uint256"},{"internalType":"string","name":"gameType","type":"string"},{"internalType":"bool","name":"fulfilled","type":"bool"},{"internalType":"uint256[]","name":"randomWords","type":"uint256[]"},{"internalType":"address[]","name":"eligiblePlayers","type":"address[]"}],"internalType":"struct ChainlinkVRF.RandomnessRequest","name":"request","type":"tuple"}],"stateMutability":"view","type":"function"},{"inputs":[],"name":"getVRFConfig","outputs":[{"internalType":"address","name":"coordinator","type":"address"},{"internalType":"uint64","name":"subId","type":"uint64"},{"internalType":"bytes32","name":"keyHash","type":"bytes32"},{"internalType":"uint32","name":"gasLimit","type":"uint32"},{"internalType":"uint16","name":"confirmations","type":"uint16"},{"internalType":"uint32","name":"words","type":"uint32"}],"stateMutability":"view","type":"function"},{"inputs":[{"internalType":"uint256","name":"requestId","type":"uint256"}],"name":"isRequestFulfilled","outputs":[{"internalType":"bool","name":"fulfilled","type":"bool"}],"stateMutability":"view","type":"function"},{"inputs":[],"name":"owner","outputs":[{"internalType":"address","name":"","type":"address"}],"stateMutability":"view","type":"function"},{"inputs":[],"name":"pizzaPartyContract","outputs":[{"internalType":"contract IPizzaParty","name":"","type":"address"}],"stateMutability":"view","type":"function"},{"inputs":[{"internalType":"uint256","name":"","type":"uint256"}],"name":"randomnessRequests","outputs":[{"internalType":"uint256","name":"gameId","type":"uint256"},{"internalType":"string","name":"gameType","type":"string"},{"internalType":"bool","name":"fulfilled","type":"bool"}],"stateMutability":"view","type":"function"},{"inputs":[{"internalType":"uint256","name":"requestId","type":"uint256"},{"internalType":"uint256[]","name":"randomWords","type":"uint256[]"}],"name":"rawFulfillRandomWords","outputs":[],"stateMutability":"nonpayable","type":"function"},{"inputs":[],"name":"renounceOwnership","outputs":[],"stateMutability":"nonpayable","type":"function"},{"inputs":[],"name":"requestCounter","outputs":[{"internalType":"uint256","name":"","type":"uint256"}],"stateMutability":"view","type":"function"},{"inputs":[{"internalType":"uint256","name":"gameId","type":"uint256"},{"internalType":"address[]","name":"eligiblePlayers","type":"address[]"}],"name":"requestDailyRandomness","outputs":[{"internalType":"uint256","name":"requestId","type":"uint256"}],"stateMutability":"nonpayable","type":"function"},{"inputs":[{"internalType":"uint256","name":"gameId","type":"uint256"},{"internalType":"address[]","name":"eligiblePlayers","type":"address[]"}],"name":"requestWeeklyRandomness","outputs":[{"internalType":"uint256","name":"requestId","type":"uint256"}],"stateMutability":"nonpayable","type":"function"},{"inputs":[{"internalType":"address","name":"_pizzaPartyContract","type":"address"}],"name":"setPizzaPartyContract","outputs":[],"stateMutability":"nonpayable","type":"function"},{"inputs":[{"internalType":"address","name":"newOwner","type":"address"}],"name":"transferOwnership","outputs":[],"stateMutability":"nonpayable","type":"function"},{"stateMutability":"payable","type":"receive"}],"evm":{"bytecode":{"linkReferences":{},"object":"61016034620001bd576001600160401b0390601f62001d3e38819003918201601f191683019184831184841017620001c25780849260c094604052833981010312620001bd5780516001600160a01b0380821693909290848303620001bd5760208201519081168103620001bd576040820151906200008160608401620001d8565b9560808401519361ffff85168503620001bd5760a0620000a29101620001d8565b946080523315620001a4576000543360018060a01b0319821617600055604051963391167f8be0079c531659141344cd1fd0a4f28419497f9722a3daafe3b4186f6b6457e0600080a36001805560a05260c05260e052610100938452610120908152610140918252611b539384620001eb85396080518461104a015260a051848181610285015281816108010152610bc8015260c051848181610237015281816107860152818161082d0152610b7a015260e0518481816102580152610b9b0152518381816101f5015281816108600152610b380152518281816102160152818161088b0152610b590152518181816101d4015281816108b20152610b170152f35b604051631e4fbdf760e01b815260006004820152602490fd5b600080fd5b634e487b7160e01b600052604160045260246000fd5b519063ffffffff82168203620001bd5756fe608080604052600436101561001d575b50361561001b57600080fd5b005b600090813560e01c9081630d9f92ca146114825750806316fa1086146114665780631fe543e314610fd4578063580dc76814610f3b5780635cb6dfff14610edd5780636e55033c14610ac5578063715018a614610a7d5780638da5cb5b14610a5657806395ccea67146108fa578063973a814e146108dc5780639a5ea6a0146107e2578063ad44777b146107b1578063c106065314610730578063c58343ef146105ef578063cff47cb114610182578063efe77a37146101595763f2fde38b0361000f5734610156576020366003190112610156576100fa61153b565b610102611972565b6001600160a01b0390811690811561013d576000548260018060a01b031982161760005516600080516020611ade833981519152600080a380f35b604051631e4fbdf760e01b815260048101849052602490fd5b80fd5b50346101565780600319360112610156576004546040516001600160a01b039091168152602090f35b50346101565761019136611678565b926101aa60018060a09594951b03600454163314611739565b6101b261199e565b6101bd841515611795565b6040516305d3b1d360e41b815292602084806102807f00000000000000000000000000000000000000000000000000000000000000007f00000000000000000000000000000000000000000000000000000000000000007f00000000000000000000000000000000000000000000000000000000000000007f00000000000000000000000000000000000000000000000000000000000000007f0000000000000000000000000000000000000000000000000000000000000000600487016117d7565b0381857f00000000000000000000000000000000000000000000000000000000000000006001600160a01b03165af19384156105e45782946105ab575b50610319604051916102ce836114e6565b838352604051966102de886114b0565b858852604051936102ee856114cb565b60058552646461696c7960d81b6020860152602089019485528560408a01526060890152369161180f565b60808601528382526002602052604082208551815590518051906001600160401b0382116105975781906103506001850154611551565b601f8111610559575b50602090601f83116001146104ea5785926104df575b50508160011b916000199060031b1c19161760018201555b6103a660408601511515600283019060ff801983541691151516179055565b606085015180519060038301906001600160401b0383116104cb57600160401b83116104cb576020906103de84845481865585611884565b0190845260208420845b8381106104b757505050506004608091019401519081519160018060401b0383116104a357600160401b83116104a35760209061042a848854818a5589611884565b0194815260208120905b828110610486576020858561044a6003546118a7565b60035581600080516020611abe8339815191526060604051868152600587820152646461696c7960d81b6040820152a360018055604051908152f35b85516001600160a01b031681830155602090950194600101610434565b634e487b7160e01b82526041600452602482fd5b6001906020845194019381840155016103e8565b634e487b7160e01b85526041600452602485fd5b01519050388061036f565b9250600184018552602085209085935b601f198416851061053e576001945083601f19811610610525575b505050811b016001820155610387565b015160001960f88460031b161c19169055388080610515565b818101518355602094850194600190930192909101906104fa565b6105879060018601875260208720601f850160051c8101916020861061058d575b601f0160051c019061186d565b38610359565b909150819061057a565b634e487b7160e01b84526041600452602484fd5b9093506020813d6020116105dc575b816105c760209383611501565b810103126105d7575192386102bd565b600080fd5b3d91506105ba565b6040513d84823e3d90fd5b5034610156576020908160031936011261015657608090604051610612816114b0565b8181526060928184868194015283604082015282808201520152600435815260028352604081209060405192610647846114b0565b8254845260019061065a6001850161158b565b9386860194855260ff60028201541693604087019415158552600382019060405194858a845491828152019383528a8320925b8b82821061071d578b6107198c8c6107088d8d6106eb6106c38f8f906106b7866004930387611501565b848b0195865201611918565b9560808901968752604051998a99818b5251908a01525160a060408a015260c0890190611653565b93511515908701525191601f1992838783030160808801526116c8565b9151908483030160a08501526116fc565b0390f35b845486529094019392820192820161068d565b5034610156576020366003190112610156577fec9fc337416200b4fe605d1610ff1da46669abf941eefa67f2a0e70af1c531ac6040600435610770611972565b61077b8115156118cc565b815190600180841b037f00000000000000000000000000000000000000000000000000000000000000001682526020820152a180f35b50346101565760203660031901126101565760ff600260406020936004358152828552200154166040519015158152f35b5034610156578060031936011261015657604080516001600160a01b037f00000000000000000000000000000000000000000000000000000000000000001681526001600160401b037f00000000000000000000000000000000000000000000000000000000000000001660208201529081019190915263ffffffff7f00000000000000000000000000000000000000000000000000000000000000008116606083015261ffff7f00000000000000000000000000000000000000000000000000000000000000001660808301527f00000000000000000000000000000000000000000000000000000000000000001660a082015260c090f35b50346101565780600319360112610156576020600354604051908152f35b50346101565760403660031901126101565761091461153b565b60243590610920611972565b61092b8215156118cc565b6001600160a01b03908116610a3f578147106109ff578280808085858254165af13d156109fa573d6001600160401b0381116109e45760405190610979601f8201601f191660200183611501565b81528460203d92013e5b156109a9576020600080516020611afe833981519152915b84541692604051908152a280f35b60405162461bcd60e51b8152602060048201526013602482015272115512081d1c985b9cd9995c8819985a5b1959606a1b6044820152606490fd5b634e487b7160e01b600052604160045260246000fd5b610983565b60405162461bcd60e51b8152602060048201526018602482015277496e73756666696369656e74204554482062616c616e636560401b6044820152606490fd5b6020600080516020611afe8339815191529161099b565b5034610156578060031936011261015657546040516001600160a01b039091168152602090f35b5034610156578060031936011261015657610a96611972565b600080546001600160a01b0319811682556001600160a01b0316600080516020611ade8339815191528280a380f35b503461015657610ad436611678565b92610aed60018060a09594951b03600454163314611739565b610af561199e565b610b00841515611795565b6040516305d3b1d360e41b81529260208480610bc37f00000000000000000000000000000000000000000000000000000000000000007f00000000000000000000000000000000000000000000000000000000000000007f00000000000000000000000000000000000000000000000000000000000000007f00000000000000000000000000000000000000000000000000000000000000007f0000000000000000000000000000000000000000000000000000000000000000600487016117d7565b0381857f00000000000000000000000000000000000000000000000000000000000000006001600160a01b03165af19384156105e4578294610ea9575b50610c5d60405191610c11836114e6565b83835260405196610c21886114b0565b85885260405193610c31856114cb565b60068552657765656b6c7960d01b6020860152602089019485528560408a01526060890152369161180f565b60808601528382526002602052604082208551815590518051906001600160401b038211610597578190610c946001850154611551565b601f8111610e76575b50602090601f8311600114610e07578592610dfc575b50508160011b916000199060031b1c19161760018201555b610cea60408601511515600283019060ff801983541691151516179055565b606085015180519060038301906001600160401b0383116104cb57600160401b83116104cb57602090610d2284845481865585611884565b0190845260208420845b838110610de857505050506004608091019401519081519160018060401b0383116104a357600160401b83116104a357602090610d6e848854818a5589611884565b0194815260208120905b828110610dcb5760208585610d8e6003546118a7565b60035581600080516020611abe8339815191526060604051868152600687820152657765656b6c7960d01b6040820152a360018055604051908152f35b85516001600160a01b031681830155602090950194600101610d78565b600190602084519401938184015501610d2c565b015190503880610cb3565b9250600184018552602085209085935b601f1984168510610e5b576001945083601f19811610610e42575b505050811b016001820155610ccb565b015160001960f88460031b161c19169055388080610e32565b81810151835560209485019460019093019290910190610e17565b610ea39060018601875260208720601f850160051c8101916020861061058d57601f0160051c019061186d565b38610c9d565b9093506020813d602011610ed5575b81610ec560209383611501565b810103126105d757519238610c00565b3d9150610eb8565b5034610156576020366003190112610156576040906004358152600260205220805460ff6002610f0f6001850161158b565b93015416610f2f6040519384938452606060208501526060840190611653565b90151560408301520390f35b503461015657602036600319011261015657610f5561153b565b610f5d611972565b6001600160a01b03168015610f8357600480546001600160a01b03191691909117905580f35b60405162461bcd60e51b8152602060048201526024808201527f496e76616c69642050697a7a6120506172747920636f6e7472616374206164646044820152637265737360e01b6064820152608490fd5b5034610156576040366003190112610156576001600160401b039060243582811161146257366023820112156114625780600401359261101384611524565b916110216040519384611501565b848352602083016024819660051b8301019136831161145e57602401905b82821061144e5750507f00000000000000000000000000000000000000000000000000000000000000006001600160a01b0316905033819003611430575060043583526002602052604083209360028501805460ff81166113ef5760ff1916600117905582519160038601919083116104cb57600160401b83116104cb576110cc83835481855584611884565b90845260208420845b8381106113db5750505050604051908291600185015492816110f685611551565b916001861680156113be5760011461137d575b61111c925003601f198101835282611501565b602081519101206040516020810190646461696c7960d81b825260058152611143816114cb565b519020036113735761116360085b8261115e60048801611918565b611a0b565b918454916040519160608352859061117a81611551565b908160608601526001811690816000146113515750600114611318575b5095837f6d0c7ec9588d04561ccce599685bc50934f29b4cfcee336567d14ae1a51ddc7484806111e76001966111d98d6111f09a8e9f0360208601528c6116fc565b9083820360408501526116c8565b0390a20161158b565b60405161121a6020828161120d8183019687815193849201611630565b8101038084520182611501565b5190206040516020810190646461696c7960d81b82526005815261123d816114cb565b519020036112b1576004546001600160a01b031691823b156112ac5761128992849283604051809681958294634f4f202b60e11b845260048401526040602484015260448301906116fc565b03925af180156105e45761129c57505080f35b6112a59061149d565b6101565780f35b505050fd5b600454909291906001600160a01b0316803b15611314576112f69383604051809681958294632b3b45af60e11b845260048401526040602484015260448301906116fc565b03925af180156105e457611308575080f35b6113119061149d565b80f35b8280fd5b600188018752602087208792505b81831061133a575050820160800183611197565b805460808487010152602090920191600101611326565b60ff191660808087019190915291151560051b85019091019150849050611197565b611163600a611151565b5050600186018552816020862086905b8382106113a4575050602061111c92820101611109565b60209192508060019154838588010152019101839161138d565b5050602061111c9260ff1987168284015280151502820101611109565b6001906020845194019381840155016110d5565b60405162461bcd60e51b815260206004820152601960248201527814995c5d595cdd08185b1c9958591e48199d5b199a5b1b1959603a1b6044820152606490fd5b6044906040519063073e64fd60e21b82523360048301526024820152fd5b813581526020918201910161103f565b8580fd5b5080fd5b5034610156578060031936011261015657602060405160088152f35b90503461146257816003193601126114625780600a60209252f35b6001600160401b0381116109e457604052565b60a081019081106001600160401b038211176109e457604052565b604081019081106001600160401b038211176109e457604052565b602081019081106001600160401b038211176109e457604052565b601f909101601f19168101906001600160401b038211908210176109e457604052565b6001600160401b0381116109e45760051b60200190565b600435906001600160a01b03821682036105d757565b90600182811c92168015611581575b602083101461156b57565b634e487b7160e01b600052602260045260246000fd5b91607f1691611560565b9060405191826000825461159e81611551565b9081845260209460019160018116908160001461160e57506001146115cf575b5050506115cd92500383611501565b565b600090815285812095935091905b8183106115f65750506115cd93508201013880806115be565b855488840185015294850194879450918301916115dd565b925050506115cd94925060ff191682840152151560051b8201013880806115be565b60005b8381106116435750506000910152565b8181015183820152602001611633565b9060209161166c81518092818552858086019101611630565b601f01601f1916010190565b60406003198201126105d757600435916001600160401b0391602435908382116105d757806023830112156105d75781600401359384116105d75760248460051b830101116105d7576024019190565b90815180825260208080930193019160005b8281106116e8575050505090565b8351855293810193928101926001016116da565b90815180825260208080930193019160005b82811061171c575050505090565b83516001600160a01b03168552938101939281019260010161170e565b1561174057565b60405162461bcd60e51b815260206004820152602760248201527f4f6e6c792050697a7a6120506172747920636f6e74726163742063616e2063616044820152666c6c207468697360c81b6064820152608490fd5b1561179c57565b60405162461bcd60e51b81526020600482015260136024820152724e6f20656c696769626c6520706c617965727360681b6044820152606490fd5b9081526001600160401b03909116602082015261ffff909116604082015263ffffffff91821660608201529116608082015260a00190565b929161181a82611524565b916118286040519384611501565b829481845260208094019160051b81019283116105d757905b82821061184e5750505050565b81356001600160a01b03811681036105d7578152908301908301611841565b818110611878575050565b6000815560010161186d565b9181811061189157505050565b6115cd926000526020600020918201910161186d565b60001981146118b65760010190565b634e487b7160e01b600052601160045260246000fd5b156118d357565b60405162461bcd60e51b815260206004820152601d60248201527f416d6f756e74206d7573742062652067726561746572207468616e20300000006044820152606490fd5b90604051918281549182825260209260208301916000526020600020936000905b82821061194f575050506115cd92500383611501565b85546001600160a01b031684526001958601958895509381019390910190611939565b6000546001600160a01b0316330361198657565b60405163118cdaa760e01b8152336004820152602490fd5b6002600154146119af576002600155565b604051633ee5aeb560e01b8152600490fd5b81156119cb570690565b634e487b7160e01b600052601260045260246000fd5b80518210156119f55760209160051b010190565b634e487b7160e01b600052603260045260246000fd5b9290611a1683611524565b91611a246040519384611501565b838352601f19611a3385611524565b0136602085013782855115611ab5575060005b84811080611aab575b15611aa257611a9d90611a6c611a668551836119c1565b856119e1565b5187516001600160a01b0391611a8b91611a85916119c1565b896119e1565b5116611a9782876119e1565b526118a7565b611a46565b50935050905090565b5085518110611a4f565b94509250505056fecf7db36b02e99ff75f887c79ebb5612e527ae7d7086dc5f8e273b94fa0a72eed8be0079c531659141344cd1fd0a4f28419497f9722a3daafe3b4186f6b6457e05fafa99d0643513820be26656b45130b01e1c03062e1266bf36f88cbd3bd9695a26469706673582212205e8f542062b2b1432d3457480f02d395de9585930f0f5af5e6771d3b3c29d2f864736f6c63430008180033","opcodes":"PUSH2 0x160 CALLVALUE PUSH3 0x1BD JUMPI PUSH1 0x1 PUSH1 0x1 PUSH1 0x40 SHL SUB SWAP1 PUSH1 0x1F PUSH3 0x1D3E CODESIZE DUP2 SWAP1 SUB SWAP2 DUP3 ADD PUSH1 0x1F NOT AND DUP4 ADD SWAP2 DUP5 DUP4 GT DUP5 DUP5 LT OR PUSH3 0x1C2 JUMPI DUP1 DUP5 SWAP3 PUSH1 0xC0 SWAP5 PUSH1 0x40 MSTORE DUP4 CODECOPY DUP2 ADD SUB SLT PUSH3 0x1BD JUMPI DUP1 MLOAD PUSH1 0x1 PUSH1 0x1 PUSH1 0xA0 SHL SUB DUP1 DUP3 AND SWAP4 SWAP1 SWAP3 SWAP1 DUP5 DUP4 SUB PUSH3 0x1BD JUMPI PUSH1 0x20 DUP3 ADD MLOAD SWAP1 DUP2 AND DUP2 SUB PUSH3 0x1BD JUMPI PUSH1 0x40 DUP3 ADD MLOAD SWAP1 PUSH3 0x81 PUSH1 0x60 DUP5 ADD PUSH3 0x1D8 JUMP JUMPDEST SWAP6 PUSH1 0x80 DUP5 ADD MLOAD SWAP4 PUSH2 0xFFFF DUP6 AND DUP6 SUB PUSH3 0x1BD JUMPI PUSH1 0xA0 PUSH3 0xA2 SWAP2 ADD PUSH3 0x1D8 JUMP JUMPDEST SWAP5 PUSH1 0x80 MSTORE CALLER ISZERO PUSH3 0x1A4 JUMPI PUSH1 0x0 SLOAD CALLER PUSH1 0x1 DUP1 PUSH1 0xA0 SHL SUB NOT DUP3 AND OR PUSH1 0x0 SSTORE PUSH1 0x40 MLOAD SWAP7 CALLER SWAP2 AND PUSH32 0x8BE0079C531659141344CD1FD0A4F28419497F9722A3DAAFE3B4186F6B6457E0 PUSH1 0x0 DUP1 LOG3 PUSH1 0x1 DUP1 SSTORE PUSH1 0xA0 MSTORE PUSH1 0xC0 MSTORE PUSH1 0xE0 MSTORE PUSH2 0x100 SWAP4 DUP5 MSTORE PUSH2 0x120 SWAP1 DUP2 MSTORE PUSH2 0x140 SWAP2 DUP3 MSTORE PUSH2 0x1B53 SWAP4 DUP5 PUSH3 0x1EB DUP6 CODECOPY PUSH1 0x80 MLOAD DUP5 PUSH2 0x104A ADD MSTORE PUSH1 0xA0 MLOAD DUP5 DUP2 DUP2 PUSH2 0x285 ADD MSTORE DUP2 DUP2 PUSH2 0x801 ADD MSTORE PUSH2 0xBC8 ADD MSTORE PUSH1 0xC0 MLOAD DUP5 DUP2 DUP2 PUSH2 0x237 ADD MSTORE DUP2 DUP2 PUSH2 0x786 ADD MSTORE DUP2 DUP2 PUSH2 0x82D ADD MSTORE PUSH2 0xB7A ADD MSTORE PUSH1 0xE0 MLOAD DUP5 DUP2 DUP2 PUSH2 0x258 ADD MSTORE PUSH2 0xB9B ADD MSTORE MLOAD DUP4 DUP2 DUP2 PUSH2 0x1F5 ADD MSTORE DUP2 DUP2 PUSH2 0x860 ADD MSTORE PUSH2 0xB38 ADD MSTORE MLOAD DUP3 DUP2 DUP2 PUSH2 0x216 ADD MSTORE DUP2 DUP2 PUSH2 0x88B ADD MSTORE PUSH2 0xB59 ADD MSTORE MLOAD DUP2 DUP2 DUP2 PUSH2 0x1D4 ADD MSTORE DUP2 DUP2 PUSH2 0x8B2 ADD MSTORE PUSH2 0xB17 ADD MSTORE RETURN JUMPDEST PUSH1 0x40 MLOAD PUSH4 0x1E4FBDF7 PUSH1 0xE0 SHL DUP2 MSTORE PUSH1 0x0 PUSH1 0x4 DUP3 ADD MSTORE PUSH1 0x24 SWAP1 REVERT JUMPDEST PUSH1 0x0 DUP1 REVERT JUMPDEST PUSH4 0x4E487B71 PUSH1 0xE0 SHL PUSH1 0x0 MSTORE PUSH1 0x41 PUSH1 0x4 MSTORE PUSH1 0x24 PUSH1 0x0 REVERT JUMPDEST MLOAD SWAP1 PUSH4 0xFFFFFFFF DUP3 AND DUP3 SUB PUSH3 0x1BD JUMPI JUMP INVALID PUSH1 0x80 DUP1 PUSH1 0x40 MSTORE PUSH1 0x4 CALLDATASIZE LT ISZERO PUSH2 0x1D JUMPI JUMPDEST POP CALLDATASIZE ISZERO PUSH2 0x1B JUMPI PUSH1 0x0 DUP1 REVERT JUMPDEST STOP JUMPDEST PUSH1 0x0 SWAP1 DUP2 CALLDATALOAD PUSH1 0xE0 SHR SWAP1 DUP2 PUSH4 0xD9F92CA EQ PUSH2 0x1482 JUMPI POP DUP1 PUSH4 0x16FA1086 EQ PUSH2 0x1466 JUMPI DUP1 PUSH4 0x1FE543E3 EQ PUSH2 0xFD4 JUMPI DUP1 PUSH4 0x580DC768 EQ PUSH2 0xF3B JUMPI DUP1 PUSH4 0x5CB6DFFF EQ PUSH2 0xEDD JUMPI DUP1 PUSH4 0x6E55033C EQ PUSH2 0xAC5 JUMPI DUP1 PUSH4 0x715018A6 EQ PUSH2 0xA7D JUMPI DUP1 PUSH4 0x8DA5CB5B EQ PUSH2 0xA56 JUMPI DUP1 PUSH4 0x95CCEA67 EQ PUSH2 0x8FA JUMPI DUP1 PUSH4 0x973A814E EQ PUSH2 0x8DC JUMPI DUP1 PUSH4 0x9A5EA6A0 EQ PUSH2 0x7E2 JUMPI DUP1 PUSH4 0xAD44777B EQ PUSH2 0x7B1 JUMPI DUP1 PUSH4 0xC1060653 EQ PUSH2 0x730 JUMPI DUP1 PUSH4 0xC58343EF EQ PUSH2 0x5EF JUMPI DUP1 PUSH4 0xCFF47CB1 EQ PUSH2 0x182 JUMPI DUP1 PUSH4 0xEFE77A37 EQ PUSH2 0x159 JUMPI PUSH4 0xF2FDE38B SUB PUSH2 0xF JUMPI CALLVALUE PUSH2 0x156 JUMPI PUSH1 0x20 CALLDATASIZE PUSH1 0x3 NOT ADD SLT PUSH2 0x156 JUMPI PUSH2 0xFA PUSH2 0x153B JUMP JUMPDEST PUSH2 0x102 PUSH2 0x1972 JUMP JUMPDEST PUSH1 0x1 PUSH1 0x1 PUSH1 0xA0 SHL SUB SWAP1 DUP2 AND SWAP1 DUP2 ISZERO PUSH2 0x13D JUMPI PUSH1 0x0 SLOAD DUP3 PUSH1 0x1 DUP1 PUSH1 0xA0 SHL SUB NOT DUP3 AND OR PUSH1 0x0 SSTORE AND PUSH1 0x0 DUP1 MLOAD PUSH1 0x20 PUSH2 0x1ADE DUP4 CODECOPY DUP2 MLOAD SWAP2 MSTORE PUSH1 0x0 DUP1 LOG3 DUP1 RETURN JUMPDEST PUSH1 0x40 MLOAD PUSH4 0x1E4FBDF7 PUSH1 0xE0 SHL DUP2 MSTORE PUSH1 0x4 DUP2 ADD DUP5 SWAP1 MSTORE PUSH1 0x24 SWAP1 REVERT JUMPDEST DUP1 REVERT JUMPDEST POP CALLVALUE PUSH2 0x156 JUMPI DUP1 PUSH1 0x3 NOT CALLDATASIZE ADD SLT PUSH2 0x156 JUMPI PUSH1 0x4 SLOAD PUSH1 0x40 MLOAD PUSH1 0x1 PUSH1 0x1 PUSH1 0xA0 SHL SUB SWAP1 SWAP2 AND DUP2 MSTORE PUSH1 0x20 SWAP1 RETURN JUMPDEST POP CALLVALUE PUSH2 0x156 JUMPI PUSH2 0x191 CALLDATASIZE PUSH2 0x1678 JUMP JUMPDEST SWAP3 PUSH2 0x1AA PUSH1 0x1 DUP1 PUSH1 0xA0 SWAP6 SWAP5 SWAP6 SHL SUB PUSH1 0x4 SLOAD AND CALLER EQ PUSH2 0x1739 JUMP JUMPDEST PUSH2 0x1B2 PUSH2 0x199E JUMP JUMPDEST PUSH2 0x1BD DUP5 ISZERO ISZERO PUSH2 0x1795 JUMP JUMPDEST PUSH1 0x40 MLOAD PUSH4 0x5D3B1D3 PUSH1 0xE4 SHL DUP2 MSTORE SWAP3 PUSH1 0x20 DUP5 DUP1 PUSH2 0x280 PUSH32 0x0 PUSH32 0x0 PUSH32 0x0 PUSH32 0x0 PUSH32 0x0 PUSH1 0x4 DUP8 ADD PUSH2 0x17D7 JUMP JUMPDEST SUB DUP2 DUP6 PUSH32 0x0 PUSH1 0x1 PUSH1 0x1 PUSH1 0xA0 SHL SUB AND GAS CALL SWAP4 DUP5 ISZERO PUSH2 0x5E4 JUMPI DUP3 SWAP5 PUSH2 0x5AB JUMPI JUMPDEST POP PUSH2 0x319 PUSH1 0x40 MLOAD SWAP2 PUSH2 0x2CE DUP4 PUSH2 0x14E6 JUMP JUMPDEST DUP4 DUP4 MSTORE PUSH1 0x40 MLOAD SWAP7 PUSH2 0x2DE DUP9 PUSH2 0x14B0 JUMP JUMPDEST DUP6 DUP9 MSTORE PUSH1 0x40 MLOAD SWAP4 PUSH2 0x2EE DUP6 PUSH2 0x14CB JUMP JUMPDEST PUSH1 0x5 DUP6 MSTORE PUSH5 0x6461696C79 PUSH1 0xD8 SHL PUSH1 0x20 DUP7 ADD MSTORE PUSH1 0x20 DUP10 ADD SWAP5 DUP6 MSTORE DUP6 PUSH1 0x40 DUP11 ADD MSTORE PUSH1 0x60 DUP10 ADD MSTORE CALLDATASIZE SWAP2 PUSH2 0x180F JUMP JUMPDEST PUSH1 0x80 DUP7 ADD MSTORE DUP4 DUP3 MSTORE PUSH1 0x2 PUSH1 0x20 MSTORE PUSH1 0x40 DUP3 KECCAK256 DUP6 MLOAD DUP2 SSTORE SWAP1 MLOAD DUP1 MLOAD SWAP1 PUSH1 0x1 PUSH1 0x1 PUSH1 0x40 SHL SUB DUP3 GT PUSH2 0x597 JUMPI DUP2 SWAP1 PUSH2 0x350 PUSH1 0x1 DUP6 ADD SLOAD PUSH2 0x1551 JUMP JUMPDEST PUSH1 0x1F DUP2 GT PUSH2 0x559 JUMPI JUMPDEST POP PUSH1 0x20 SWAP1 PUSH1 0x1F DUP4 GT PUSH1 0x1 EQ PUSH2 0x4EA JUMPI DUP6 SWAP3 PUSH2 0x4DF JUMPI JUMPDEST POP POP DUP2 PUSH1 0x1 SHL SWAP2 PUSH1 0x0 NOT SWAP1 PUSH1 0x3 SHL SHR NOT AND OR PUSH1 0x1 DUP3 ADD SSTORE JUMPDEST PUSH2 0x3A6 PUSH1 0x40 DUP7 ADD MLOAD ISZERO ISZERO PUSH1 0x2 DUP4 ADD SWAP1 PUSH1 0xFF DUP1 NOT DUP4 SLOAD AND SWAP2 ISZERO ISZERO AND OR SWAP1 SSTORE JUMP JUMPDEST PUSH1 0x60 DUP6 ADD MLOAD DUP1 MLOAD SWAP1 PUSH1 0x3 DUP4 ADD SWAP1 PUSH1 0x1 PUSH1 0x1 PUSH1 0x40 SHL SUB DUP4 GT PUSH2 0x4CB JUMPI PUSH1 0x1 PUSH1 0x40 SHL DUP4 GT PUSH2 0x4CB JUMPI PUSH1 0x20 SWAP1 PUSH2 0x3DE DUP5 DUP5 SLOAD DUP2 DUP7 SSTORE DUP6 PUSH2 0x1884 JUMP JUMPDEST ADD SWAP1 DUP5 MSTORE PUSH1 0x20 DUP5 KECCAK256 DUP5 JUMPDEST DUP4 DUP2 LT PUSH2 0x4B7 JUMPI POP POP POP POP PUSH1 0x4 PUSH1 0x80 SWAP2 ADD SWAP5 ADD MLOAD SWAP1 DUP2 MLOAD SWAP2 PUSH1 0x1 DUP1 PUSH1 0x40 SHL SUB DUP4 GT PUSH2 0x4A3 JUMPI PUSH1 0x1 PUSH1 0x40 SHL DUP4 GT PUSH2 0x4A3 JUMPI PUSH1 0x20 SWAP1 PUSH2 0x42A DUP5 DUP9 SLOAD DUP2 DUP11 SSTORE DUP10 PUSH2 0x1884 JUMP JUMPDEST ADD SWAP5 DUP2 MSTORE PUSH1 0x20 DUP2 KECCAK256 SWAP1 JUMPDEST DUP3 DUP2 LT PUSH2 0x486 JUMPI PUSH1 0x20 DUP6 DUP6 PUSH2 0x44A PUSH1 0x3 SLOAD PUSH2 0x18A7 JUMP JUMPDEST PUSH1 0x3 SSTORE DUP2 PUSH1 0x0 DUP1 MLOAD PUSH1 0x20 PUSH2 0x1ABE DUP4 CODECOPY DUP2 MLOAD SWAP2 MSTORE PUSH1 0x60 PUSH1 0x40 MLOAD DUP7 DUP2 MSTORE PUSH1 0x5 DUP8 DUP3 ADD MSTORE PUSH5 0x6461696C79 PUSH1 0xD8 SHL PUSH1 0x40 DUP3 ADD MSTORE LOG3 PUSH1 0x1 DUP1 SSTORE PUSH1 0x40 MLOAD SWAP1 DUP2 MSTORE RETURN JUMPDEST DUP6 MLOAD PUSH1 0x1 PUSH1 0x1 PUSH1 0xA0 SHL SUB AND DUP2 DUP4 ADD SSTORE PUSH1 0x20 SWAP1 SWAP6 ADD SWAP5 PUSH1 0x1 ADD PUSH2 0x434 JUMP JUMPDEST PUSH4 0x4E487B71 PUSH1 0xE0 SHL DUP3 MSTORE PUSH1 0x41 PUSH1 0x4 MSTORE PUSH1 0x24 DUP3 REVERT JUMPDEST PUSH1 0x1 SWAP1 PUSH1 0x20 DUP5 MLOAD SWAP5 ADD SWAP4 DUP2 DUP5 ADD SSTORE ADD PUSH2 0x3E8 JUMP JUMPDEST PUSH4 0x4E487B71 PUSH1 0xE0 SHL DUP6 MSTORE PUSH1 0x41 PUSH1 0x4 MSTORE PUSH1 0x24 DUP6 REVERT JUMPDEST ADD MLOAD SWAP1 POP CODESIZE DUP1 PUSH2 0x36F JUMP JUMPDEST SWAP3 POP PUSH1 0x1 DUP5 ADD DUP6 MSTORE PUSH1 0x20 DUP6 KECCAK256 SWAP1 DUP6 SWAP4 JUMPDEST PUSH1 0x1F NOT DUP5 AND DUP6 LT PUSH2 0x53E JUMPI PUSH1 0x1 SWAP5 POP DUP4 PUSH1 0x1F NOT DUP2 AND LT PUSH2 0x525 JUMPI JUMPDEST POP POP POP DUP2 SHL ADD PUSH1 0x1 DUP3 ADD SSTORE PUSH2 0x387 JUMP JUMPDEST ADD MLOAD PUSH1 0x0 NOT PUSH1 0xF8 DUP5 PUSH1 0x3 SHL AND SHR NOT AND SWAP1 SSTORE CODESIZE DUP1 DUP1 PUSH2 0x515 JUMP JUMPDEST DUP2 DUP2 ADD MLOAD DUP4 SSTORE PUSH1 0x20 SWAP5 DUP6 ADD SWAP5 PUSH1 0x1 SWAP1 SWAP4 ADD SWAP3 SWAP1 SWAP2 ADD SWAP1 PUSH2 0x4FA JUMP JUMPDEST PUSH2 0x587 SWAP1 PUSH1 0x1 DUP7 ADD DUP8 MSTORE PUSH1 0x20 DUP8 KECCAK256 PUSH1 0x1F DUP6 ADD PUSH1 0x5 SHR DUP2 ADD SWAP2 PUSH1 0x20 DUP7 LT PUSH2 0x58D JUMPI JUMPDEST PUSH1 0x1F ADD PUSH1 0x5 SHR ADD SWAP1 PUSH2 0x186D JUMP JUMPDEST CODESIZE PUSH2 0x359 JUMP JUMPDEST SWAP1 SWAP2 POP DUP2 SWAP1 PUSH2 0x57A JUMP JUMPDEST PUSH4 0x4E487B71 PUSH1 0xE0 SHL DUP5 MSTORE PUSH1 0x41 PUSH1 0x4 MSTORE PUSH1 0x24 DUP5 REVERT JUMPDEST SWAP1 SWAP4 POP PUSH1 0x20 DUP2 RETURNDATASIZE PUSH1 0x20 GT PUSH2 0x5DC JUMPI JUMPDEST DUP2 PUSH2 0x5C7 PUSH1 0x20 SWAP4 DUP4 PUSH2 0x1501 JUMP JUMPDEST DUP2 ADD SUB SLT PUSH2 0x5D7 JUMPI MLOAD SWAP3 CODESIZE PUSH2 0x2BD JUMP JUMPDEST PUSH1 0x0 DUP1 REVERT JUMPDEST RETURNDATASIZE SWAP2 POP PUSH2 0x5BA JUMP JUMPDEST PUSH1 0x40 MLOAD RETURNDATASIZE DUP5 DUP3 RETURNDATACOPY RETURNDATASIZE SWAP1 REVERT JUMPDEST POP CALLVALUE PUSH2 0x156 JUMPI PUSH1 0x20 SWAP1 DUP2 PUSH1 0x3 NOT CALLDATASIZE ADD SLT PUSH2 0x156 JUMPI PUSH1 0x80 SWAP1 PUSH1 0x40 MLOAD PUSH2 0x612 DUP2 PUSH2 0x14B0 JUMP JUMPDEST DUP2 DUP2 MSTORE PUSH1 0x60 SWAP3 DUP2 DUP5 DUP7 DUP2 SWAP5 ADD MSTORE DUP4 PUSH1 0x40 DUP3 ADD MSTORE DUP3 DUP1 DUP3 ADD MSTORE ADD MSTORE PUSH1 0x4 CALLDATALOAD DUP2 MSTORE PUSH1 0x2 DUP4 MSTORE PUSH1 0x40 DUP2 KECCAK256 SWAP1 PUSH1 0x40 MLOAD SWAP3 PUSH2 0x647 DUP5 PUSH2 0x14B0 JUMP JUMPDEST DUP3 SLOAD DUP5 MSTORE PUSH1 0x1 SWAP1 PUSH2 0x65A PUSH1 0x1 DUP6 ADD PUSH2 0x158B JUMP JUMPDEST SWAP4 DUP7 DUP7 ADD SWAP5 DUP6 MSTORE PUSH1 0xFF PUSH1 0x2 DUP3 ADD SLOAD AND SWAP4 PUSH1 0x40 DUP8 ADD SWAP5 ISZERO ISZERO DUP6 MSTORE PUSH1 0x3 DUP3 ADD SWAP1 PUSH1 0x40 MLOAD SWAP5 DUP6 DUP11 DUP5 SLOAD SWAP2 DUP3 DUP2 MSTORE ADD SWAP4 DUP4 MSTORE DUP11 DUP4 KECCAK256 SWAP3 JUMPDEST DUP12 DUP3 DUP3 LT PUSH2 0x71D JUMPI DUP12 PUSH2 0x719 DUP13 DUP13 PUSH2 0x708 DUP14 DUP14 PUSH2 0x6EB PUSH2 0x6C3 DUP16 DUP16 SWAP1 PUSH2 0x6B7 DUP7 PUSH1 0x4 SWAP4 SUB DUP8 PUSH2 0x1501 JUMP JUMPDEST DUP5 DUP12 ADD SWAP6 DUP7 MSTORE ADD PUSH2 0x1918 JUMP JUMPDEST SWAP6 PUSH1 0x80 DUP10 ADD SWAP7 DUP8 MSTORE PUSH1 0x40 MLOAD SWAP10 DUP11 SWAP10 DUP2 DUP12 MSTORE MLOAD SWAP1 DUP11 ADD MSTORE MLOAD PUSH1 0xA0 PUSH1 0x40 DUP11 ADD MSTORE PUSH1 0xC0 DUP10 ADD SWAP1 PUSH2 0x1653 JUMP JUMPDEST SWAP4 MLOAD ISZERO ISZERO SWAP1 DUP8 ADD MSTORE MLOAD SWAP2 PUSH1 0x1F NOT SWAP3 DUP4 DUP8 DUP4 SUB ADD PUSH1 0x80 DUP9 ADD MSTORE PUSH2 0x16C8 JUMP JUMPDEST SWAP2 MLOAD SWAP1 DUP5 DUP4 SUB ADD PUSH1 0xA0 DUP6 ADD MSTORE PUSH2 0x16FC JUMP JUMPDEST SUB SWAP1 RETURN JUMPDEST DUP5 SLOAD DUP7 MSTORE SWAP1 SWAP5 ADD SWAP4 SWAP3 DUP3 ADD SWAP3 DUP3 ADD PUSH2 0x68D JUMP JUMPDEST POP CALLVALUE PUSH2 0x156 JUMPI PUSH1 0x20 CALLDATASIZE PUSH1 0x3 NOT ADD SLT PUSH2 0x156 JUMPI PUSH32 0xEC9FC337416200B4FE605D1610FF1DA46669ABF941EEFA67F2A0E70AF1C531AC PUSH1 0x40 PUSH1 0x4 CALLDATALOAD PUSH2 0x770 PUSH2 0x1972 JUMP JUMPDEST PUSH2 0x77B DUP2 ISZERO ISZERO PUSH2 0x18CC JUMP JUMPDEST DUP2 MLOAD SWAP1 PUSH1 0x1 DUP1 DUP5 SHL SUB PUSH32 0x0 AND DUP3 MSTORE PUSH1 0x20 DUP3 ADD MSTORE LOG1 DUP1 RETURN JUMPDEST POP CALLVALUE PUSH2 0x156 JUMPI PUSH1 0x20 CALLDATASIZE PUSH1 0x3 NOT ADD SLT PUSH2 0x156 JUMPI PUSH1 0xFF PUSH1 0x2 PUSH1 0x40 PUSH1 0x20 SWAP4 PUSH1 0x4 CALLDATALOAD DUP2 MSTORE DUP3 DUP6 MSTORE KECCAK256 ADD SLOAD AND PUSH1 0x40 MLOAD SWAP1 ISZERO ISZERO DUP2 MSTORE RETURN JUMPDEST POP CALLVALUE PUSH2 0x156 JUMPI DUP1 PUSH1 0x3 NOT CALLDATASIZE ADD SLT PUSH2 0x156 JUMPI PUSH1 0x40 DUP1 MLOAD PUSH1 0x1 PUSH1 0x1 PUSH1 0xA0 SHL SUB PUSH32 0x0 AND DUP2 MSTORE PUSH1 0x1 PUSH1 0x1 PUSH1 0x40 SHL SUB PUSH32 0x0 AND PUSH1 0x20 DUP3 ADD MSTORE SWAP1 DUP2 ADD SWAP2 SWAP1 SWAP2 MSTORE PUSH4 0xFFFFFFFF PUSH32 0x0 DUP2 AND PUSH1 0x60 DUP4 ADD MSTORE PUSH2 0xFFFF PUSH32 0x0 AND PUSH1 0x80 DUP4 ADD MSTORE PUSH32 0x0 AND PUSH1 0xA0 DUP3 ADD MSTORE PUSH1 0xC0 SWAP1 RETURN JUMPDEST POP CALLVALUE PUSH2 0x156 JUMPI DUP1 PUSH1 0x3 NOT CALLDATASIZE ADD SLT PUSH2 0x156 JUMPI PUSH1 0x20 PUSH1 0x3 SLOAD PUSH1 0x40 MLOAD SWAP1 DUP2 MSTORE RETURN JUMPDEST POP CALLVALUE PUSH2 0x156 JUMPI PUSH1 0x40 CALLDATASIZE PUSH1 0x3 NOT ADD SLT PUSH2 0x156 JUMPI PUSH2 0x914 PUSH2 0x153B JUMP JUMPDEST PUSH1 0x24 CALLDATALOAD SWAP1 PUSH2 0x920 PUSH2 0x1972 JUMP JUMPDEST PUSH2 0x92B DUP3 ISZERO ISZERO PUSH2 0x18CC JUMP JUMPDEST PUSH1 0x1 PUSH1 0x1 PUSH1 0xA0 SHL SUB SWAP1 DUP2 AND PUSH2 0xA3F JUMPI DUP2 SELFBALANCE LT PUSH2 0x9FF JUMPI DUP3 DUP1 DUP1 DUP1 DUP6 DUP6 DUP3 SLOAD AND GAS CALL RETURNDATASIZE ISZERO PUSH2 0x9FA JUMPI RETURNDATASIZE PUSH1 0x1 PUSH1 0x1 PUSH1 0x40 SHL SUB DUP2 GT PUSH2 0x9E4 JUMPI PUSH1 0x40 MLOAD SWAP1 PUSH2 0x979 PUSH1 0x1F DUP3 ADD PUSH1 0x1F NOT AND PUSH1 0x20 ADD DUP4 PUSH2 0x1501 JUMP JUMPDEST DUP2 MSTORE DUP5 PUSH1 0x20 RETURNDATASIZE SWAP3 ADD RETURNDATACOPY JUMPDEST ISZERO PUSH2 0x9A9 JUMPI PUSH1 0x20 PUSH1 0x0 DUP1 MLOAD PUSH1 0x20 PUSH2 0x1AFE DUP4 CODECOPY DUP2 MLOAD SWAP2 MSTORE SWAP2 JUMPDEST DUP5 SLOAD AND SWAP3 PUSH1 0x40 MLOAD SWAP1 DUP2 MSTORE LOG2 DUP1 RETURN JUMPDEST PUSH1 0x40 MLOAD PUSH3 0x461BCD PUSH1 0xE5 SHL DUP2 MSTORE PUSH1 0x20 PUSH1 0x4 DUP3 ADD MSTORE PUSH1 0x13 PUSH1 0x24 DUP3 ADD MSTORE PUSH19 0x115512081D1C985B9CD9995C8819985A5B1959 PUSH1 0x6A SHL PUSH1 0x44 DUP3 ADD MSTORE PUSH1 0x64 SWAP1 REVERT JUMPDEST PUSH4 0x4E487B71 PUSH1 0xE0 SHL PUSH1 0x0 MSTORE PUSH1 0x41 PUSH1 0x4 MSTORE PUSH1 0x24 PUSH1 0x0 REVERT JUMPDEST PUSH2 0x983 JUMP JUMPDEST PUSH1 0x40 MLOAD PUSH3 0x461BCD PUSH1 0xE5 SHL DUP2 MSTORE PUSH1 0x20 PUSH1 0x4 DUP3 ADD MSTORE PUSH1 0x18 PUSH1 0x24 DUP3 ADD MSTORE PUSH24 0x496E73756666696369656E74204554482062616C616E6365 PUSH1 0x40 SHL PUSH1 0x44 DUP3 ADD MSTORE PUSH1 0x64 SWAP1 REVERT JUMPDEST PUSH1 0x20 PUSH1 0x0 DUP1 MLOAD PUSH1 0x20 PUSH2 0x1AFE DUP4 CODECOPY DUP2 MLOAD SWAP2 MSTORE SWAP2 PUSH2 0x99B JUMP JUMPDEST POP CALLVALUE PUSH2 0x156 JUMPI DUP1 PUSH1 0x3 NOT CALLDATASIZE ADD SLT PUSH2 0x156 JUMPI SLOAD PUSH1 0x40 MLOAD PUSH1 0x1 PUSH1 0x1 PUSH1 0xA0 SHL SUB SWAP1 SWAP2 AND DUP2 MSTORE PUSH1 0x20 SWAP1 RETURN JUMPDEST POP CALLVALUE PUSH2 0x156 JUMPI DUP1 PUSH1 0x3 NOT CALLDATASIZE ADD SLT PUSH2 0x156 JUMPI PUSH2 0xA96 PUSH2 0x1972 JUMP JUMPDEST PUSH1 0x0 DUP1 SLOAD PUSH1 0x1 PUSH1 0x1 PUSH1 0xA0 SHL SUB NOT DUP2 AND DUP3 SSTORE PUSH1 0x1 PUSH1 0x1 PUSH1 0xA0 SHL SUB AND PUSH1 0x0 DUP1 MLOAD PUSH1 0x20 PUSH2 0x1ADE DUP4 CODECOPY DUP2 MLOAD SWAP2 MSTORE DUP3 DUP1 LOG3 DUP1 RETURN JUMPDEST POP CALLVALUE PUSH2 0x156 JUMPI PUSH2 0xAD4 CALLDATASIZE PUSH2 0x1678 JUMP JUMPDEST SWAP3 PUSH2 0xAED PUSH1 0x1 DUP1 PUSH1 0xA0 SWAP6 SWAP5 SWAP6 SHL SUB PUSH1 0x4 SLOAD AND CALLER EQ PUSH2 0x1739 JUMP JUMPDEST PUSH2 0xAF5 PUSH2 0x199E JUMP JUMPDEST PUSH2 0xB00 DUP5 ISZERO ISZERO PUSH2 0x1795 JUMP JUMPDEST PUSH1 0x40 MLOAD PUSH4 0x5D3B1D3 PUSH1 0xE4 SHL DUP2 MSTORE SWAP3 PUSH1 0x20 DUP5 DUP1 PUSH2 0xBC3 PUSH32 0x0 PUSH32 0x0 PUSH32 0x0 PUSH32 0x0 PUSH32 0x0 PUSH1 0x4 DUP8 ADD PUSH2 0x17D7 JUMP JUMPDEST SUB DUP2 DUP6 PUSH32 0x0 PUSH1 0x1 PUSH1 0x1 PUSH1 0xA0 SHL SUB AND GAS CALL SWAP4 DUP5 ISZERO PUSH2 0x5E4 JUMPI DUP3 SWAP5 PUSH2 0xEA9 JUMPI JUMPDEST POP PUSH2 0xC5D PUSH1 0x40 MLOAD SWAP2 PUSH2 0xC11 DUP4 PUSH2 0x14E6 JUMP JUMPDEST DUP4 DUP4 MSTORE PUSH1 0x40 MLOAD SWAP7 PUSH2 0xC21 DUP9 PUSH2 0x14B0 JUMP JUMPDEST DUP6 DUP9 MSTORE PUSH1 0x40 MLOAD SWAP4 PUSH2 0xC31 DUP6 PUSH2 0x14CB JUMP JUMPDEST PUSH1 0x6 DUP6 MSTORE PUSH6 0x7765656B6C79 PUSH1 0xD0 SHL PUSH1 0x20 DUP7 ADD MSTORE PUSH1 0x20 DUP10 ADD SWAP5 DUP6 MSTORE DUP6 PUSH1 0x40 DUP11 ADD MSTORE PUSH1 0x60 DUP10 ADD MSTORE CALLDATASIZE SWAP2 PUSH2 0x180F JUMP JUMPDEST PUSH1 0x80 DUP7 ADD MSTORE DUP4 DUP3 MSTORE PUSH1 0x2 PUSH1 0x20 MSTORE PUSH1 0x40 DUP3 KECCAK256 DUP6 MLOAD DUP2 SSTORE SWAP1 MLOAD DUP1 MLOAD SWAP1 PUSH1 0x1 PUSH1 0x1 PUSH1 0x40 SHL SUB DUP3 GT PUSH2 0x597 JUMPI DUP2 SWAP1 PUSH2 0xC94 PUSH1 0x1 DUP6 ADD SLOAD PUSH2 0x1551 JUMP JUMPDEST PUSH1 0x1F DUP2 GT PUSH2 0xE76 JUMPI JUMPDEST POP PUSH1 0x20 SWAP1 PUSH1 0x1F DUP4 GT PUSH1 0x1 EQ PUSH2 0xE07 JUMPI DUP6 SWAP3 PUSH2 0xDFC JUMPI JUMPDEST POP POP DUP2 PUSH1 0x1 SHL SWAP2 PUSH1 0x0 NOT SWAP1 PUSH1 0x3 SHL SHR NOT AND OR PUSH1 0x1 DUP3 ADD SSTORE JUMPDEST PUSH2 0xCEA PUSH1 0x40 DUP7 ADD MLOAD ISZERO ISZERO PUSH1 0x2 DUP4 ADD SWAP1 PUSH1 0xFF DUP1 NOT DUP4 SLOAD AND SWAP2 ISZERO ISZERO AND OR SWAP1 SSTORE JUMP JUMPDEST PUSH1 0x60 DUP6 ADD MLOAD DUP1 MLOAD SWAP1 PUSH1 0x3 DUP4 ADD SWAP1 PUSH1 0x1 PUSH1 0x1 PUSH1 0x40 SHL SUB DUP4 GT PUSH2 0x4CB JUMPI PUSH1 0x1 PUSH1 0x40 SHL DUP4 GT PUSH2 0x4CB JUMPI PUSH1 0x20 SWAP1 PUSH2 0xD22 DUP5 DUP5 SLOAD DUP2 DUP7 SSTORE DUP6 PUSH2 0x1884 JUMP JUMPDEST ADD SWAP1 DUP5 MSTORE PUSH1 0x20 DUP5 KECCAK256 DUP5 JUMPDEST DUP4 DUP2 LT PUSH2 0xDE8 JUMPI POP POP POP POP PUSH1 0x4 PUSH1 0x80 SWAP2 ADD SWAP5 ADD MLOAD SWAP1 DUP2 MLOAD SWAP2 PUSH1 0x1 DUP1 PUSH1 0x40 SHL SUB DUP4 GT PUSH2 0x4A3 JUMPI PUSH1 0x1 PUSH1 0x40 SHL DUP4 GT PUSH2 0x4A3 JUMPI PUSH1 0x20 SWAP1 PUSH2 0xD6E DUP5 DUP9 SLOAD DUP2 DUP11 SSTORE DUP10 PUSH2 0x1884 JUMP JUMPDEST ADD SWAP5 DUP2 MSTORE PUSH1 0x20 DUP2 KECCAK256 SWAP1 JUMPDEST DUP3 DUP2 LT PUSH2 0xDCB JUMPI PUSH1 0x20 DUP6 DUP6 PUSH2 0xD8E PUSH1 0x3 SLOAD PUSH2 0x18A7 JUMP JUMPDEST PUSH1 0x3 SSTORE DUP2 PUSH1 0x0 DUP1 MLOAD PUSH1 0x20 PUSH2 0x1ABE DUP4 CODECOPY DUP2 MLOAD SWAP2 MSTORE PUSH1 0x60 PUSH1 0x40 MLOAD DUP7 DUP2 MSTORE PUSH1 0x6 DUP8 DUP3 ADD MSTORE PUSH6 0x7765656B6C79 PUSH1 0xD0 SHL PUSH1 0x40 DUP3 ADD MSTORE LOG3 PUSH1 0x1 DUP1 SSTORE PUSH1 0x40 MLOAD SWAP1 DUP2 MSTORE RETURN JUMPDEST DUP6 MLOAD PUSH1 0x1 PUSH1 0x1 PUSH1 0xA0 SHL SUB AND DUP2 DUP4 ADD SSTORE PUSH1 0x20 SWAP1 SWAP6 ADD SWAP5 PUSH1 0x1 ADD PUSH2 0xD78 JUMP JUMPDEST PUSH1 0x1 SWAP1 PUSH1 0x20 DUP5 MLOAD SWAP5 ADD SWAP4 DUP2 DUP5 ADD SSTORE ADD PUSH2 0xD2C JUMP JUMPDEST ADD MLOAD SWAP1 POP CODESIZE DUP1 PUSH2 0xCB3 JUMP JUMPDEST SWAP3 POP PUSH1 0x1 DUP5 ADD DUP6 MSTORE PUSH1 0x20 DUP6 KECCAK256 SWAP1 DUP6 SWAP4 JUMPDEST PUSH1 0x1F NOT DUP5 AND DUP6 LT PUSH2 0xE5B JUMPI PUSH1 0x1 SWAP5 POP DUP4 PUSH1 0x1F NOT DUP2 AND LT PUSH2 0xE42 JUMPI JUMPDEST POP POP POP DUP2 SHL ADD PUSH1 0x1 DUP3 ADD SSTORE PUSH2 0xCCB JUMP JUMPDEST ADD MLOAD PUSH1 0x0 NOT PUSH1 0xF8 DUP5 PUSH1 0x3 SHL AND SHR NOT AND SWAP1 SSTORE CODESIZE DUP1 DUP1 PUSH2 0xE32 JUMP JUMPDEST DUP2 DUP2 ADD MLOAD DUP4 SSTORE PUSH1 0x20 SWAP5 DUP6 ADD SWAP5 PUSH1 0x1 SWAP1 SWAP4 ADD SWAP3 SWAP1 SWAP2 ADD SWAP1 PUSH2 0xE17 JUMP JUMPDEST PUSH2 0xEA3 SWAP1 PUSH1 0x1 DUP7 ADD DUP8 MSTORE PUSH1 0x20 DUP8 KECCAK256 PUSH1 0x1F DUP6 ADD PUSH1 0x5 SHR DUP2 ADD SWAP2 PUSH1 0x20 DUP7 LT PUSH2 0x58D JUMPI PUSH1 0x1F ADD PUSH1 0x5 SHR ADD SWAP1 PUSH2 0x186D JUMP JUMPDEST CODESIZE PUSH2 0xC9D JUMP JUMPDEST SWAP1 SWAP4 POP PUSH1 0x20 DUP2 RETURNDATASIZE PUSH1 0x20 GT PUSH2 0xED5 JUMPI JUMPDEST DUP2 PUSH2 0xEC5 PUSH1 0x20 SWAP4 DUP4 PUSH2 0x1501 JUMP JUMPDEST DUP2 ADD SUB SLT PUSH2 0x5D7 JUMPI MLOAD SWAP3 CODESIZE PUSH2 0xC00 JUMP JUMPDEST RETURNDATASIZE SWAP2 POP PUSH2 0xEB8 JUMP JUMPDEST POP CALLVALUE PUSH2 0x156 JUMPI PUSH1 0x20 CALLDATASIZE PUSH1 0x3 NOT ADD SLT PUSH2 0x156 JUMPI PUSH1 0x40 SWAP1 PUSH1 0x4 CALLDATALOAD DUP2 MSTORE PUSH1 0x2 PUSH1 0x20 MSTORE KECCAK256 DUP1 SLOAD PUSH1 0xFF PUSH1 0x2 PUSH2 0xF0F PUSH1 0x1 DUP6 ADD PUSH2 0x158B JUMP JUMPDEST SWAP4 ADD SLOAD AND PUSH2 0xF2F PUSH1 0x40 MLOAD SWAP4 DUP5 SWAP4 DUP5 MSTORE PUSH1 0x60 PUSH1 0x20 DUP6 ADD MSTORE PUSH1 0x60 DUP5 ADD SWAP1 PUSH2 0x1653 JUMP JUMPDEST SWAP1 ISZERO ISZERO PUSH1 0x40 DUP4 ADD MSTORE SUB SWAP1 RETURN JUMPDEST POP CALLVALUE PUSH2 0x156 JUMPI PUSH1 0x20 CALLDATASIZE PUSH1 0x3 NOT ADD SLT PUSH2 0x156 JUMPI PUSH2 0xF55 PUSH2 0x153B JUMP JUMPDEST PUSH2 0xF5D PUSH2 0x1972 JUMP JUMPDEST PUSH1 0x1 PUSH1 0x1 PUSH1 0xA0 SHL SUB AND DUP1 ISZERO PUSH2 0xF83 JUMPI PUSH1 0x4 DUP1 SLOAD PUSH1 0x1 PUSH1 0x1 PUSH1 0xA0 SHL SUB NOT AND SWAP2 SWAP1 SWAP2 OR SWAP1 SSTORE DUP1 RETURN JUMPDEST PUSH1 0x40 MLOAD PUSH3 0x461BCD PUSH1 0xE5 SHL DUP2 MSTORE PUSH1 0x20 PUSH1 0x4 DUP3 ADD MSTORE PUSH1 0x24 DUP1 DUP3 ADD MSTORE PUSH32 0x496E76616C69642050697A7A6120506172747920636F6E747261637420616464 PUSH1 0x44 DUP3 ADD MSTORE PUSH4 0x72657373 PUSH1 0xE0 SHL PUSH1 0x64 DUP3 ADD MSTORE PUSH1 0x84 SWAP1 REVERT JUMPDEST POP CALLVALUE PUSH2 0x156 JUMPI PUSH1 0x40 CALLDATASIZE PUSH1 0x3 NOT ADD SLT PUSH2 0x156 JUMPI PUSH1 0x1 PUSH1 0x1 PUSH1 0x40 SHL SUB SWAP1 PUSH1 0x24 CALLDATALOAD DUP3 DUP2 GT PUSH2 0x1462 JUMPI CALLDATASIZE PUSH1 0x23 DUP3 ADD SLT ISZERO PUSH2 0x1462 JUMPI DUP1 PUSH1 0x4 ADD CALLDATALOAD SWAP3 PUSH2 0x1013 DUP5 PUSH2 0x1524 JUMP JUMPDEST SWAP2 PUSH2 0x1021 PUSH1 0x40 MLOAD SWAP4 DUP5 PUSH2 0x1501 JUMP JUMPDEST DUP5 DUP4 MSTORE PUSH1 0x20 DUP4 ADD PUSH1 0x24 DUP2 SWAP7 PUSH1 0x5 SHL DUP4 ADD ADD SWAP2 CALLDATASIZE DUP4 GT PUSH2 0x145E JUMPI PUSH1 0x24 ADD SWAP1 JUMPDEST DUP3 DUP3 LT PUSH2 0x144E JUMPI POP POP PUSH32 0x0 PUSH1 0x1 PUSH1 0x1 PUSH1 0xA0 SHL SUB AND SWAP1 POP CALLER DUP2 SWAP1 SUB PUSH2 0x1430 JUMPI POP PUSH1 0x4 CALLDATALOAD DUP4 MSTORE PUSH1 0x2 PUSH1 0x20 MSTORE PUSH1 0x40 DUP4 KECCAK256 SWAP4 PUSH1 0x2 DUP6 ADD DUP1 SLOAD PUSH1 0xFF DUP2 AND PUSH2 0x13EF JUMPI PUSH1 0xFF NOT AND PUSH1 0x1 OR SWAP1 SSTORE DUP3 MLOAD SWAP2 PUSH1 0x3 DUP7 ADD SWAP2 SWAP1 DUP4 GT PUSH2 0x4CB JUMPI PUSH1 0x1 PUSH1 0x40 SHL DUP4 GT PUSH2 0x4CB JUMPI PUSH2 0x10CC DUP4 DUP4 SLOAD DUP2 DUP6 SSTORE DUP5 PUSH2 0x1884 JUMP JUMPDEST SWAP1 DUP5 MSTORE PUSH1 0x20 DUP5 KECCAK256 DUP5 JUMPDEST DUP4 DUP2 LT PUSH2 0x13DB JUMPI POP POP POP POP PUSH1 0x40 MLOAD SWAP1 DUP3 SWAP2 PUSH1 0x1 DUP6 ADD SLOAD SWAP3 DUP2 PUSH2 0x10F6 DUP6 PUSH2 0x1551 JUMP JUMPDEST SWAP2 PUSH1 0x1 DUP7 AND DUP1 ISZERO PUSH2 0x13BE JUMPI PUSH1 0x1 EQ PUSH2 0x137D JUMPI JUMPDEST PUSH2 0x111C SWAP3 POP SUB PUSH1 0x1F NOT DUP2 ADD DUP4 MSTORE DUP3 PUSH2 0x1501 JUMP JUMPDEST PUSH1 0x20 DUP2 MLOAD SWAP2 ADD KECCAK256 PUSH1 0x40 MLOAD PUSH1 0x20 DUP2 ADD SWAP1 PUSH5 0x6461696C79 PUSH1 0xD8 SHL DUP3 MSTORE PUSH1 0x5 DUP2 MSTORE PUSH2 0x1143 DUP2 PUSH2 0x14CB JUMP JUMPDEST MLOAD SWAP1 KECCAK256 SUB PUSH2 0x1373 JUMPI PUSH2 0x1163 PUSH1 0x8 JUMPDEST DUP3 PUSH2 0x115E PUSH1 0x4 DUP9 ADD PUSH2 0x1918 JUMP JUMPDEST PUSH2 0x1A0B JUMP JUMPDEST SWAP2 DUP5 SLOAD SWAP2 PUSH1 0x40 MLOAD SWAP2 PUSH1 0x60 DUP4 MSTORE DUP6 SWAP1 PUSH2 0x117A DUP2 PUSH2 0x1551 JUMP JUMPDEST SWAP1 DUP2 PUSH1 0x60 DUP7 ADD MSTORE PUSH1 0x1 DUP2 AND SWAP1 DUP2 PUSH1 0x0 EQ PUSH2 0x1351 JUMPI POP PUSH1 0x1 EQ PUSH2 0x1318 JUMPI JUMPDEST POP SWAP6 DUP4 PUSH32 0x6D0C7EC9588D04561CCCE599685BC50934F29B4CFCEE336567D14AE1A51DDC74 DUP5 DUP1 PUSH2 0x11E7 PUSH1 0x1 SWAP7 PUSH2 0x11D9 DUP14 PUSH2 0x11F0 SWAP11 DUP15 SWAP16 SUB PUSH1 0x20 DUP7 ADD MSTORE DUP13 PUSH2 0x16FC JUMP JUMPDEST SWAP1 DUP4 DUP3 SUB PUSH1 0x40 DUP6 ADD MSTORE PUSH2 0x16C8 JUMP JUMPDEST SUB SWAP1 LOG2 ADD PUSH2 0x158B JUMP JUMPDEST PUSH1 0x40 MLOAD PUSH2 0x121A PUSH1 0x20 DUP3 DUP2 PUSH2 0x120D DUP2 DUP4 ADD SWAP7 DUP8 DUP2 MLOAD SWAP4 DUP5 SWAP3 ADD PUSH2 0x1630 JUMP JUMPDEST DUP2 ADD SUB DUP1 DUP5 MSTORE ADD DUP3 PUSH2 0x1501 JUMP JUMPDEST MLOAD SWAP1 KECCAK256 PUSH1 0x40 MLOAD PUSH1 0x20 DUP2 ADD SWAP1 PUSH5 0x6461696C79 PUSH1 0xD8 SHL DUP3 MSTORE PUSH1 0x5 DUP2 MSTORE PUSH2 0x123D DUP2 PUSH2 0x14CB JUMP JUMPDEST MLOAD SWAP1 KECCAK256 SUB PUSH2 0x12B1 JUMPI PUSH1 0x4 SLOAD PUSH1 0x1 PUSH1 0x1 PUSH1 0xA0 SHL SUB AND SWAP2 DUP3 EXTCODESIZE ISZERO PUSH2 0x12AC JUMPI PUSH2 0x1289 SWAP3 DUP5 SWAP3 DUP4 PUSH1 0x40 MLOAD DUP1 SWAP7 DUP2 SWAP6 DUP3 SWAP5 PUSH4 0x4F4F202B PUSH1 0xE1 SHL DUP5 MSTORE PUSH1 0x4 DUP5 ADD MSTORE PUSH1 0x40 PUSH1 0x24 DUP5 ADD MSTORE PUSH1 0x44 DUP4 ADD SWAP1 PUSH2 0x16FC JUMP JUMPDEST SUB SWAP3 GAS CALL DUP1 ISZERO PUSH2 0x5E4 JUMPI PUSH2 0x129C JUMPI POP POP DUP1 RETURN JUMPDEST PUSH2 0x12A5 SWAP1 PUSH2 0x149D JUMP JUMPDEST PUSH2 0x156 JUMPI DUP1 RETURN JUMPDEST POP POP POP REVERT JUMPDEST PUSH1 0x4 SLOAD SWAP1 SWAP3 SWAP2 SWAP1 PUSH1 0x1 PUSH1 0x1 PUSH1 0xA0 SHL SUB AND DUP1 EXTCODESIZE ISZERO PUSH2 0x1314 JUMPI PUSH2 0x12F6 SWAP4 DUP4 PUSH1 0x40 MLOAD DUP1 SWAP7 DUP2 SWAP6 DUP3 SWAP5 PUSH4 0x2B3B45AF PUSH1 0xE1 SHL DUP5 MSTORE PUSH1 0x4 DUP5 ADD MSTORE PUSH1 0x40 PUSH1 0x24 DUP5 ADD MSTORE PUSH1 0x44 DUP4 ADD SWAP1 PUSH2 0x16FC JUMP JUMPDEST SUB SWAP3 GAS CALL DUP1 ISZERO PUSH2 0x5E4 JUMPI PUSH2 0x1308 JUMPI POP DUP1 RETURN JUMPDEST PUSH2 0x1311 SWAP1 PUSH2 0x149D JUMP JUMPDEST DUP1 RETURN JUMPDEST DUP3 DUP1 REVERT JUMPDEST PUSH1 0x1 DUP9 ADD DUP8 MSTORE PUSH1 0x20 DUP8 KECCAK256 DUP8 SWAP3 POP JUMPDEST DUP2 DUP4 LT PUSH2 0x133A JUMPI POP POP DUP3 ADD PUSH1 0x80 ADD DUP4 PUSH2 0x1197 JUMP JUMPDEST DUP1 SLOAD PUSH1 0x80 DUP5 DUP8 ADD ADD MSTORE PUSH1 0x20 SWAP1 SWAP3 ADD SWAP2 PUSH1 0x1 ADD PUSH2 0x1326 JUMP JUMPDEST PUSH1 0xFF NOT AND PUSH1 0x80 DUP1 DUP8 ADD SWAP2 SWAP1 SWAP2 MSTORE SWAP2 ISZERO ISZERO PUSH1 0x5 SHL DUP6 ADD SWAP1 SWAP2 ADD SWAP2 POP DUP5 SWAP1 POP PUSH2 0x1197 JUMP JUMPDEST PUSH2 0x1163 PUSH1 0xA PUSH2 0x1151 JUMP JUMPDEST POP POP PUSH1 0x1 DUP7 ADD DUP6 MSTORE DUP2 PUSH1 0x20 DUP7 KECCAK256 DUP7 SWAP1 JUMPDEST DUP4 DUP3 LT PUSH2 0x13A4 JUMPI POP POP PUSH1 0x20 PUSH2 0x111C SWAP3 DUP3 ADD ADD PUSH2 0x1109 JUMP JUMPDEST PUSH1 0x20 SWAP2 SWAP3 POP DUP1 PUSH1 0x1 SWAP2 SLOAD DUP4 DUP6 DUP9 ADD ADD MSTORE ADD SWAP2 ADD DUP4 SWAP2 PUSH2 0x138D JUMP JUMPDEST POP POP PUSH1 0x20 PUSH2 0x111C SWAP3 PUSH1 0xFF NOT DUP8 AND DUP3 DUP5 ADD MSTORE DUP1 ISZERO ISZERO MUL DUP3 ADD ADD PUSH2 0x1109 JUMP JUMPDEST PUSH1 0x1 SWAP1 PUSH1 0x20 DUP5 MLOAD SWAP5 ADD SWAP4 DUP2 DUP5 ADD SSTORE ADD PUSH2 0x10D5 JUMP JUMPDEST PUSH1 0x40 MLOAD PUSH3 0x461BCD PUSH1 0xE5 SHL DUP2 MSTORE PUSH1 0x20 PUSH1 0x4 DUP3 ADD MSTORE PUSH1 0x19 PUSH1 0x24 DUP3 ADD MSTORE PUSH25 0x14995C5D595CDD08185B1C9958591E48199D5B199A5B1B1959 PUSH1 0x3A SHL PUSH1 0x44 DUP3 ADD MSTORE PUSH1 0x64 SWAP1 REVERT JUMPDEST PUSH1 0x44 SWAP1 PUSH1 0x40 MLOAD SWAP1 PUSH4 0x73E64FD PUSH1 0xE2 SHL DUP3 MSTORE CALLER PUSH1 0x4 DUP4 ADD MSTORE PUSH1 0x24 DUP3 ADD MSTORE REVERT JUMPDEST DUP2 CALLDATALOAD DUP2 MSTORE PUSH1 0x20 SWAP2 DUP3 ADD SWAP2 ADD PUSH2 0x103F JUMP JUMPDEST DUP6 DUP1 REVERT JUMPDEST POP DUP1 REVERT JUMPDEST POP CALLVALUE PUSH2 0x156 JUMPI DUP1 PUSH1 0x3 NOT CALLDATASIZE ADD SLT PUSH2 0x156 JUMPI PUSH1 0x20 PUSH1 0x40 MLOAD PUSH1 0x8 DUP2 MSTORE RETURN JUMPDEST SWAP1 POP CALLVALUE PUSH2 0x1462 JUMPI DUP2 PUSH1 0x3 NOT CALLDATASIZE ADD SLT PUSH2 0x1462 JUMPI DUP1 PUSH1 0xA PUSH1 0x20 SWAP3 MSTORE RETURN JUMPDEST PUSH1 0x1 PUSH1 0x1 PUSH1 0x40 SHL SUB DUP2 GT PUSH2 0x9E4 JUMPI PUSH1 0x40 MSTORE JUMP JUMPDEST PUSH1 0xA0 DUP2 ADD SWAP1 DUP2 LT PUSH1 0x1 PUSH1 0x1 PUSH1 0x40 SHL SUB DUP3 GT OR PUSH2 0x9E4 JUMPI PUSH1 0x40 MSTORE JUMP JUMPDEST PUSH1 0x40 DUP2 ADD SWAP1 DUP2 LT PUSH1 0x1 PUSH1 0x1 PUSH1 0x40 SHL SUB DUP3 GT OR PUSH2 0x9E4 JUMPI PUSH1 0x40 MSTORE JUMP JUMPDEST PUSH1 0x20 DUP2 ADD SWAP1 DUP2 LT PUSH1 0x1 PUSH1 0x1 PUSH1 0x40 SHL SUB DUP3 GT OR PUSH2 0x9E4 JUMPI PUSH1 0x40 MSTORE JUMP JUMPDEST PUSH1 0x1F SWAP1 SWAP2 ADD PUSH1 0x1F NOT AND DUP2 ADD SWAP1 PUSH1 0x1 PUSH1 0x1 PUSH1 0x40 SHL SUB DUP3 GT SWAP1 DUP3 LT OR PUSH2 0x9E4 JUMPI PUSH1 0x40 MSTORE JUMP JUMPDEST PUSH1 0x1 PUSH1 0x1 PUSH1 0x40 SHL SUB DUP2 GT PUSH2 0x9E4 JUMPI PUSH1 0x5 SHL PUSH1 0x20 ADD SWAP1 JUMP JUMPDEST PUSH1 0x4 CALLDATALOAD SWAP1 PUSH1 0x1 PUSH1 0x1 PUSH1 0xA0 SHL SUB DUP3 AND DUP3 SUB PUSH2 0x5D7 JUMPI JUMP JUMPDEST SWAP1 PUSH1 0x1 DUP3 DUP2 SHR SWAP3 AND DUP1 ISZERO PUSH2 0x1581 JUMPI JUMPDEST PUSH1 0x20 DUP4 LT EQ PUSH2 0x156B JUMPI JUMP JUMPDEST PUSH4 0x4E487B71 PUSH1 0xE0 SHL PUSH1 0x0 MSTORE PUSH1 0x22 PUSH1 0x4 MSTORE PUSH1 0x24 PUSH1 0x0 REVERT JUMPDEST SWAP2 PUSH1 0x7F AND SWAP2 PUSH2 0x1560 JUMP JUMPDEST SWAP1 PUSH1 0x40 MLOAD SWAP2 DUP3 PUSH1 0x0 DUP3 SLOAD PUSH2 0x159E DUP2 PUSH2 0x1551 JUMP JUMPDEST SWAP1 DUP2 DUP5 MSTORE PUSH1 0x20 SWAP5 PUSH1 0x1 SWAP2 PUSH1 0x1 DUP2 AND SWAP1 DUP2 PUSH1 0x0 EQ PUSH2 0x160E JUMPI POP PUSH1 0x1 EQ PUSH2 0x15CF JUMPI JUMPDEST POP POP POP PUSH2 0x15CD SWAP3 POP SUB DUP4 PUSH2 0x1501 JUMP JUMPDEST JUMP JUMPDEST PUSH1 0x0 SWAP1 DUP2 MSTORE DUP6 DUP2 KECCAK256 SWAP6 SWAP4 POP SWAP2 SWAP1 JUMPDEST DUP2 DUP4 LT PUSH2 0x15F6 JUMPI POP POP PUSH2 0x15CD SWAP4 POP DUP3 ADD ADD CODESIZE DUP1 DUP1 PUSH2 0x15BE JUMP JUMPDEST DUP6 SLOAD DUP9 DUP5 ADD DUP6 ADD MSTORE SWAP5 DUP6 ADD SWAP5 DUP8 SWAP5 POP SWAP2 DUP4 ADD SWAP2 PUSH2 0x15DD JUMP JUMPDEST SWAP3 POP POP POP PUSH2 0x15CD SWAP5 SWAP3 POP PUSH1 0xFF NOT AND DUP3 DUP5 ADD MSTORE ISZERO ISZERO PUSH1 0x5 SHL DUP3 ADD ADD CODESIZE DUP1 DUP1 PUSH2 0x15BE JUMP JUMPDEST PUSH1 0x0 JUMPDEST DUP4 DUP2 LT PUSH2 0x1643 JUMPI POP POP PUSH1 0x0 SWAP2 ADD MSTORE JUMP JUMPDEST DUP2 DUP2 ADD MLOAD DUP4 DUP3 ADD MSTORE PUSH1 0x20 ADD PUSH2 0x1633 JUMP JUMPDEST SWAP1 PUSH1 0x20 SWAP2 PUSH2 0x166C DUP2 MLOAD DUP1 SWAP3 DUP2 DUP6 MSTORE DUP6 DUP1 DUP7 ADD SWAP2 ADD PUSH2 0x1630 JUMP JUMPDEST PUSH1 0x1F ADD PUSH1 0x1F NOT AND ADD ADD SWAP1 JUMP JUMPDEST PUSH1 0x40 PUSH1 0x3 NOT DUP3 ADD SLT PUSH2 0x5D7 JUMPI PUSH1 0x4 CALLDATALOAD SWAP2 PUSH1 0x1 PUSH1 0x1 PUSH1 0x40 SHL SUB SWAP2 PUSH1 0x24 CALLDATALOAD SWAP1 DUP4 DUP3 GT PUSH2 0x5D7 JUMPI DUP1 PUSH1 0x23 DUP4 ADD SLT ISZERO PUSH2 0x5D7 JUMPI DUP2 PUSH1 0x4 ADD CALLDATALOAD SWAP4 DUP5 GT PUSH2 0x5D7 JUMPI PUSH1 0x24 DUP5 PUSH1 0x5 SHL DUP4 ADD ADD GT PUSH2 0x5D7 JUMPI PUSH1 0x24 ADD SWAP2 SWAP1 JUMP JUMPDEST SWAP1 DUP2 MLOAD DUP1 DUP3 MSTORE PUSH1 0x20 DUP1 DUP1 SWAP4 ADD SWAP4 ADD SWAP2 PUSH1 0x0 JUMPDEST DUP3 DUP2 LT PUSH2 0x16E8 JUMPI POP POP POP POP SWAP1 JUMP JUMPDEST DUP4 MLOAD DUP6 MSTORE SWAP4 DUP2 ADD SWAP4 SWAP3 DUP2 ADD SWAP3 PUSH1 0x1 ADD PUSH2 0x16DA JUMP JUMPDEST SWAP1 DUP2 MLOAD DUP1 DUP3 MSTORE PUSH1 0x20 DUP1 DUP1 SWAP4 ADD SWAP4 ADD SWAP2 PUSH1 0x0 JUMPDEST DUP3 DUP2 LT PUSH2 0x171C JUMPI POP POP POP POP SWAP1 JUMP JUMPDEST DUP4 MLOAD PUSH1 0x1 PUSH1 0x1 PUSH1 0xA0 SHL SUB AND DUP6 MSTORE SWAP4 DUP2 ADD SWAP4 SWAP3 DUP2 ADD SWAP3 PUSH1 0x1 ADD PUSH2 0x170E JUMP JUMPDEST ISZERO PUSH2 0x1740 JUMPI JUMP JUMPDEST PUSH1 0x40 MLOAD PUSH3 0x461BCD PUSH1 0xE5 SHL DUP2 MSTORE PUSH1 0x20 PUSH1 0x4 DUP3 ADD MSTORE PUSH1 0x27 PUSH1 0x24 DUP3 ADD MSTORE PUSH32 0x4F6E6C792050697A7A6120506172747920636F6E74726163742063616E206361 PUSH1 0x44 DUP3 ADD MSTORE PUSH7 0x6C6C2074686973 PUSH1 0xC8 SHL PUSH1 0x64 DUP3 ADD MSTORE PUSH1 0x84 SWAP1 REVERT JUMPDEST ISZERO PUSH2 0x179C JUMPI JUMP JUMPDEST PUSH1 0x40 MLOAD PUSH3 0x461BCD PUSH1 0xE5 SHL DUP2 MSTORE PUSH1 0x20 PUSH1 0x4 DUP3 ADD MSTORE PUSH1 0x13 PUSH1 0x24 DUP3 ADD MSTORE PUSH19 0x4E6F20656C696769626C6520706C6179657273 PUSH1 0x68 SHL PUSH1 0x44 DUP3 ADD MSTORE PUSH1 0x64 SWAP1 REVERT JUMPDEST SWAP1 DUP2 MSTORE PUSH1 0x1 PUSH1 0x1 PUSH1 0x40 SHL SUB SWAP1 SWAP2 AND PUSH1 0x20 DUP3 ADD MSTORE PUSH2 0xFFFF SWAP1 SWAP2 AND PUSH1 0x40 DUP3 ADD MSTORE PUSH4 0xFFFFFFFF SWAP2 DUP3 AND PUSH1 0x60 DUP3 ADD MSTORE SWAP2 AND PUSH1 0x80 DUP3 ADD MSTORE PUSH1 0xA0 ADD SWAP1 JUMP JUMPDEST SWAP3 SWAP2 PUSH2 0x181A DUP3 PUSH2 0x1524 JUMP JUMPDEST SWAP2 PUSH2 0x1828 PUSH1 0x40 MLOAD SWAP4 DUP5 PUSH2 0x1501 JUMP JUMPDEST DUP3 SWAP5 DUP2 DUP5 MSTORE PUSH1 0x20 DUP1 SWAP5 ADD SWAP2 PUSH1 0x5 SHL DUP2 ADD SWAP3 DUP4 GT PUSH2 0x5D7 JUMPI SWAP1 JUMPDEST DUP3 DUP3 LT PUSH2 0x184E JUMPI POP POP POP POP JUMP JUMPDEST DUP2 CALLDATALOAD PUSH1 0x1 PUSH1 0x1 PUSH1 0xA0 SHL SUB DUP2 AND DUP2 SUB PUSH2 0x5D7 JUMPI DUP2 MSTORE SWAP1 DUP4 ADD SWAP1 DUP4 ADD PUSH2 0x1841 JUMP JUMPDEST DUP2 DUP2 LT PUSH2 0x1878 JUMPI POP POP JUMP JUMPDEST PUSH1 0x0 DUP2 SSTORE PUSH1 0x1 ADD PUSH2 0x186D JUMP JUMPDEST SWAP2 DUP2 DUP2 LT PUSH2 0x1891 JUMPI POP POP POP JUMP JUMPDEST PUSH2 0x15CD SWAP3 PUSH1 0x0 MSTORE PUSH1 0x20 PUSH1 0x0 KECCAK256 SWAP2 DUP3 ADD SWAP2 ADD PUSH2 0x186D JUMP JUMPDEST PUSH1 0x0 NOT DUP2 EQ PUSH2 0x18B6 JUMPI PUSH1 0x1 ADD SWAP1 JUMP JUMPDEST PUSH4 0x4E487B71 PUSH1 0xE0 SHL PUSH1 0x0 MSTORE PUSH1 0x11 PUSH1 0x4 MSTORE PUSH1 0x24 PUSH1 0x0 REVERT JUMPDEST ISZERO PUSH2 0x18D3 JUMPI JUMP JUMPDEST PUSH1 0x40 MLOAD PUSH3 0x461BCD PUSH1 0xE5 SHL DUP2 MSTORE PUSH1 0x20 PUSH1 0x4 DUP3 ADD MSTORE PUSH1 0x1D PUSH1 0x24 DUP3 ADD MSTORE PUSH32 0x416D6F756E74206D7573742062652067726561746572207468616E2030000000 PUSH1 0x44 DUP3 ADD MSTORE PUSH1 0x64 SWAP1 REVERT JUMPDEST SWAP1 PUSH1 0x40 MLOAD SWAP2 DUP3 DUP2 SLOAD SWAP2 DUP3 DUP3 MSTORE PUSH1 0x20 SWAP3 PUSH1 0x20 DUP4 ADD SWAP2 PUSH1 0x0 MSTORE PUSH1 0x20 PUSH1 0x0 KECCAK256 SWAP4 PUSH1 0x0 SWAP1 JUMPDEST DUP3 DUP3 LT PUSH2 0x194F JUMPI POP POP POP PUSH2 0x15CD SWAP3 POP SUB DUP4 PUSH2 0x1501 JUMP JUMPDEST DUP6 SLOAD PUSH1 0x1 PUSH1 0x1 PUSH1 0xA0 SHL SUB AND DUP5 MSTORE PUSH1 0x1 SWAP6 DUP7 ADD SWAP6 DUP9 SWAP6 POP SWAP4 DUP2 ADD SWAP4 SWAP1 SWAP2 ADD SWAP1 PUSH2 0x1939 JUMP JUMPDEST PUSH1 0x0 SLOAD PUSH1 0x1 PUSH1 0x1 PUSH1 0xA0 SHL SUB AND CALLER SUB PUSH2 0x1986 JUMPI JUMP JUMPDEST PUSH1 0x40 MLOAD PUSH4 0x118CDAA7 PUSH1 0xE0 SHL DUP2 MSTORE CALLER PUSH1 0x4 DUP3 ADD MSTORE PUSH1 0x24 SWAP1 REVERT JUMPDEST PUSH1 0x2 PUSH1 0x1 SLOAD EQ PUSH2 0x19AF JUMPI PUSH1 0x2 PUSH1 0x1 SSTORE JUMP JUMPDEST PUSH1 0x40 MLOAD PUSH4 0x3EE5AEB5 PUSH1 0xE0 SHL DUP2 MSTORE PUSH1 0x4 SWAP1 REVERT JUMPDEST DUP2 ISZERO PUSH2 0x19CB JUMPI MOD SWAP1 JUMP JUMPDEST PUSH4 0x4E487B71 PUSH1 0xE0 SHL PUSH1 0x0 MSTORE PUSH1 0x12 PUSH1 0x4 MSTORE PUSH1 0x24 PUSH1 0x0 REVERT JUMPDEST DUP1 MLOAD DUP3 LT ISZERO PUSH2 0x19F5 JUMPI PUSH1 0x20 SWAP2 PUSH1 0x5 SHL ADD ADD SWAP1 JUMP JUMPDEST PUSH4 0x4E487B71 PUSH1 0xE0 SHL PUSH1 0x0 MSTORE PUSH1 0x32 PUSH1 0x4 MSTORE PUSH1 0x24 PUSH1 0x0 REVERT JUMPDEST SWAP3 SWAP1 PUSH2 0x1A16 DUP4 PUSH2 0x1524 JUMP JUMPDEST SWAP2 PUSH2 0x1A24 PUSH1 0x40 MLOAD SWAP4 DUP5 PUSH2 0x1501 JUMP JUMPDEST DUP4 DUP4 MSTORE PUSH1 0x1F NOT PUSH2 0x1A33 DUP6 PUSH2 0x1524 JUMP JUMPDEST ADD CALLDATASIZE PUSH1 0x20 DUP6 ADD CALLDATACOPY DUP3 DUP6 MLOAD ISZERO PUSH2 0x1AB5 JUMPI POP PUSH1 0x0 JUMPDEST DUP5 DUP2 LT DUP1 PUSH2 0x1AAB JUMPI JUMPDEST ISZERO PUSH2 0x1AA2 JUMPI PUSH2 0x1A9D SWAP1 PUSH2 0x1A6C PUSH2 0x1A66 DUP6 MLOAD DUP4 PUSH2 0x19C1 JUMP JUMPDEST DUP6 PUSH2 0x19E1 JUMP JUMPDEST MLOAD DUP8 MLOAD PUSH1 0x1 PUSH1 0x1 PUSH1 0xA0 SHL SUB SWAP2 PUSH2 0x1A8B SWAP2 PUSH2 0x1A85 SWAP2 PUSH2 0x19C1 JUMP JUMPDEST DUP10 PUSH2 0x19E1 JUMP JUMPDEST MLOAD AND PUSH2 0x1A97 DUP3 DUP8 PUSH2 0x19E1 JUMP JUMPDEST MSTORE PUSH2 0x18A7 JUMP JUMPDEST PUSH2 0x1A46 JUMP JUMPDEST POP SWAP4 POP POP SWAP1 POP SWAP1 JUMP JUMPDEST POP DUP6 MLOAD DUP2 LT PUSH2 0x1A4F JUMP JUMPDEST SWAP5 POP SWAP3 POP POP POP JUMP INVALID 0xCF PUSH30 0xB36B02E99FF75F887C79EBB5612E527AE7D7086DC5F8E273B94FA0A72EED DUP12 0xE0 SMOD SWAP13 MSTORE8 AND MSIZE EQ SGT PREVRANDAO 0xCD 0x1F 0xD0 LOG4 CALLCODE DUP5 NOT BLOBHASH PUSH32 0x9722A3DAAFE3B4186F6B6457E05FAFA99D0643513820BE26656B45130B01E1C0 ADDRESS PUSH3 0xE1266B RETURN PUSH16 0x88CBD3BD9695A2646970667358221220 MCOPY DUP16 SLOAD KECCAK256 PUSH3 0xB2B143 0x2D CALLVALUE JUMPI BASEFEE 0xF MUL 0xD3 SWAP6 0xDE SWAP6 DUP6 SWAP4 0xF 0xF GAS CREATE2 0xE6 PUSH24 0x1D3B3C29D2F864736F6C6343000818003300000000000000 "},"methodIdentifiers":{"DAILY_WINNERS_COUNT()":"16fa1086","WEEKLY_WINNERS_COUNT()":"0d9f92ca","emergencyWithdraw(address,uint256)":"95ccea67","fundSubscription(uint256)":"c1060653","getRequest(uint256)":"c58343ef","getVRFConfig()":"9a5ea6a0","isRequestFulfilled(uint256)":"ad44777b","owner()":"8da5cb5b","pizzaPartyContract()":"efe77a37","randomnessRequests(uint256)":"5cb6dfff","rawFulfillRandomWords(uint256,uint256[])":"1fe543e3","renounceOwnership()":"715018a6","requestCounter()":"973a814e","requestDailyRandomness(uint256,address[])":"cff47cb1","requestWeeklyRandomness(uint256,address[])":"6e55033c","setPizzaPartyContract(address)":"580dc768","transferOwnership(address)":"f2fde38b"}}}}}