{"contracts/FreePriceOracle.sol":{"FreePriceOracle":{"abi":[{"inputs":[],"stateMutability":"nonpayable","type":"constructor"},{"inputs":[{"internalType":"address","name":"owner","type":"address"}],"name":"OwnableInvalidOwner","type":"error"},{"inputs":[{"internalType":"address","name":"account","type":"address"}],"name":"OwnableUnauthorizedAccount","type":"error"},{"anonymous":false,"inputs":[{"indexed":false,"internalType":"uint256","name":"price","type":"uint256"},{"indexed":false,"internalType":"address","name":"setter","type":"address"}],"name":"EmergencyPriceSet","type":"event"},{"anonymous":false,"inputs":[{"indexed":true,"internalType":"address","name":"previousOwner","type":"address"},{"indexed":true,"internalType":"address","name":"newOwner","type":"address"}],"name":"OwnershipTransferred","type":"event"},{"anonymous":false,"inputs":[{"indexed":false,"internalType":"uint256","name":"price","type":"uint256"},{"indexed":false,"internalType":"uint256","name":"timestamp","type":"uint256"},{"indexed":false,"internalType":"uint256","name":"sources","type":"uint256"}],"name":"PriceAggregated","type":"event"},{"anonymous":false,"inputs":[{"indexed":false,"internalType":"address","name":"source","type":"address"},{"indexed":false,"internalType":"uint256","name":"weight","type":"uint256"}],"name":"PriceSourceAdded","type":"event"},{"anonymous":false,"inputs":[{"indexed":false,"internalType":"address","name":"source","type":"address"},{"indexed":false,"internalType":"uint256","name":"price","type":"uint256"},{"indexed":false,"internalType":"uint256","name":"timestamp","type":"uint256"}],"name":"PriceSourceUpdated","type":"event"},{"inputs":[],"name":"MAX_PRICE_DEVIATION","outputs":[{"internalType":"uint256","name":"","type":"uint256"}],"stateMutability":"view","type":"function"},{"inputs":[],"name":"PRICE_PRECISION","outputs":[{"internalType":"uint256","name":"","type":"uint256"}],"stateMutability":"view","type":"function"},{"inputs":[],"name":"UPDATE_THRESHOLD","outputs":[{"internalType":"uint256","name":"","type":"uint256"}],"stateMutability":"view","type":"function"},{"inputs":[{"internalType":"uint256","name":"","type":"uint256"}],"name":"activeSources","outputs":[{"internalType":"address","name":"","type":"address"}],"stateMutability":"view","type":"function"},{"inputs":[{"internalType":"address","name":"source","type":"address"},{"internalType":"uint256","name":"weight","type":"uint256"}],"name":"addPriceSource","outputs":[],"stateMutability":"nonpayable","type":"function"},{"inputs":[],"name":"currentPrice","outputs":[{"internalType":"uint256","name":"aggregatedPrice","type":"uint256"},{"internalType":"uint256","name":"lastUpdate","type":"uint256"},{"internalType":"uint256","name":"totalSources","type":"uint256"},{"internalType":"bool","name":"isValid","type":"bool"}],"stateMutability":"view","type":"function"},{"inputs":[{"internalType":"address","name":"source","type":"address"}],"name":"deactivateSource","outputs":[],"stateMutability":"nonpayable","type":"function"},{"inputs":[],"name":"getActiveSources","outputs":[{"internalType":"address[]","name":"","type":"address[]"}],"stateMutability":"view","type":"function"},{"inputs":[],"name":"getRequiredVMFForDollar","outputs":[{"internalType":"uint256","name":"","type":"uint256"}],"stateMutability":"view","type":"function"},{"inputs":[{"internalType":"address","name":"source","type":"address"}],"name":"getSourceData","outputs":[{"internalType":"uint256","name":"price","type":"uint256"},{"internalType":"uint256","name":"timestamp","type":"uint256"},{"internalType":"bool","name":"isActive","type":"bool"},{"internalType":"uint256","name":"weight","type":"uint256"}],"stateMutability":"view","type":"function"},{"inputs":[],"name":"getVMFPrice","outputs":[{"internalType":"uint256","name":"","type":"uint256"}],"stateMutability":"view","type":"function"},{"inputs":[],"name":"owner","outputs":[{"internalType":"address","name":"","type":"address"}],"stateMutability":"view","type":"function"},{"inputs":[{"internalType":"address","name":"","type":"address"}],"name":"priceSources","outputs":[{"internalType":"address","name":"source","type":"address"},{"internalType":"uint256","name":"price","type":"uint256"},{"internalType":"uint256","name":"timestamp","type":"uint256"},{"internalType":"bool","name":"isActive","type":"bool"},{"internalType":"uint256","name":"weight","type":"uint256"}],"stateMutability":"view","type":"function"},{"inputs":[],"name":"renounceOwnership","outputs":[],"stateMutability":"nonpayable","type":"function"},{"inputs":[{"internalType":"uint256","name":"_price","type":"uint256"}],"name":"setEmergencyPrice","outputs":[],"stateMutability":"nonpayable","type":"function"},{"inputs":[{"internalType":"address","name":"newOwner","type":"address"}],"name":"transferOwnership","outputs":[],"stateMutability":"nonpayable","type":"function"},{"inputs":[{"internalType":"address","name":"source","type":"address"},{"internalType":"uint256","name":"price","type":"uint256"}],"name":"updatePriceFromSource","outputs":[],"stateMutability":"nonpayable","type":"function"}],"evm":{"bytecode":{"linkReferences":{},"object":"608080604052346100e25733156100cc5760008054336001600160a01b031982168117835560405192916001600160a01b03167f8be0079c531659141344cd1fd0a4f28419497f9722a3daafe3b4186f6b6457e08380a360808201906001600160401b038211838310176100b8575060405260016060670de0b6b3a7640000928381524260208201528260408201520152600355426004556001600555600160ff196006541617600655604051610d9390816100e88239f35b634e487b7160e01b81526041600452602490fd5b631e4fbdf760e01b815260006004820152602490fd5b600080fdfe608060408181526004908136101561001657600080fd5b600092833560e01c9081630d4d47ea1461087a575080630d73ebb51461082a5780632e17b8d6146107c0578063383830281461077f578063715018a61461073757806378e23d3c146106ac5780638da5cb5b146106845780638f09c8571461066057806392551c6a1461058c57806395082d251461056957806396f277b71461054d57806399f91f4f146105305780639d1b464a146104f4578063cfa4817414610366578063d6c8d141146101df578063f2fde38b1461016a5763f3038e74146100df57600080fd5b3461016657602036600319011261016657817fb0e99c124a03b374a88ef4b1e43ee72321daf2b9d6a80175cb987054d12db1d292359061011d610bba565b6002549060016060855161013081610ab8565b8581524260208201528487820152015282600355429055600555600160ff1960065416176006558151908152336020820152a180f35b8280fd5b50903461016657602036600319011261016657610185610a4c565b9061018e610bba565b6001600160a01b039182169283156101c957505082546001600160a01b031981168317845516600080516020610d3e8339815191528380a380f35b51631e4fbdf760e01b8152908101849052602490fd5b50919034610362576020366003190112610362576101fb610a4c565b90610204610bba565b60018060a01b0380921690818452600192600160205260039260ff600388882001541615610325578086526001602052958520600301805460ff1916905593949385845b610250578680f35b600280548083101561031f57878461026785610a67565b905490891b1c161461027d575050840184610248565b939294965094506000199283810190811161030c57906102b0856102a36102ce94610a67565b9054908a1b1c1691610a67565b90919060018060a01b038084549260031b9316831b921b1916179055565b83549081156102f9575001926102e384610a67565b81939154921b1b19169055553880808080808680f35b634e487b7160e01b875260319052602486fd5b634e487b7160e01b885260118352602488fd5b50508680f35b865162461bcd60e51b81526020818501526017602482015276536f7572636520616c726561647920696e61637469766560481b6044820152606490fd5b5080fd5b50829034610362578060031936011261036257610381610a4c565b60243561038c610bba565b6001600160a01b03828116929083156104b857821561047b57868551916103b283610ae9565b858352602083018881528784018981526060850191600183526080860193888552898c5260016020528a8c2096511660018060a01b0319875416178655516001860155516002850155600384019051151560ff8019835416911617905551910155600254600160401b811015610468577f3983bec53b05d9b1bbb58e41433b2efbdcc63d017e67a5403de9a6c6330cdaed959650906102b082600161045a9401600255610a67565b82519182526020820152a180f35b634e487b7160e01b865260418752602486fd5b845162461bcd60e51b81526020818901526017602482015276576569676874206d75737420626520706f73697469766560481b6044820152606490fd5b845162461bcd60e51b81526020818901526016602482015275496e76616c696420736f75726365206164647265737360501b6044820152606490fd5b5034610166578260031936011261016657608092506003549154906005549060ff60065416928151948552602085015283015215156060820152f35b8382346103625781600319360112610362576020905161012c8152f35b8382346103625781600319360112610362576020905160328152f35b83823461036257816003193601126103625760209051670de0b6b3a76400008152f35b50823461065d578060031936011261065d578151809160025493848352602080930180956002845284842090845b868282106106405750505050849003601f01601f19168401956001600160401b0387118588101761062d575085815282865292518583018190528594938501939290915b82811061060d57505050500390f35b83516001600160a01b0316855286955093810193928101926001016105fe565b634e487b7160e01b835260419052602482fd5b83546001600160a01b0316855290930192600192830192016105ba565b80fd5b83823461036257816003193601126103625760209061067d610b27565b9051908152f35b838234610362578160031936011261036257905490516001600160a01b039091168152602090f35b5034610166576020366003190112610166576080926001600160a01b0392849290918190856106d9610a4c565b168152600160205220918151946106ef86610ae9565b8354168552600183015494856020820152600284015491828483015260ff60038601541615159485606084015201549485910152815194855260208501528301526060820152f35b833461065d578060031936011261065d57610750610bba565b80546001600160a01b03198116825581906001600160a01b0316600080516020610d3e8339815191528280a380f35b50903461016657602036600319011261016657359160025483101561065d57506107aa602092610a67565b905491519160018060a01b039160031b1c168152f35b50346101665760203660031901126101665760a0926001600160a01b03908290826107e9610a4c565b168152600160205220908154169260018201549260028301549160ff6003850154169301549381519586526020860152840152151560608301526080820152f35b50829034610362578160031936011261036257610845610b27565b9182156108675781516a0c097ce7bc90715b34b9f160241b8490048152602090f35b634e487b7160e01b815260128452602490fd5b9050839134610166578060031936011261016657610896610a4c565b6001600160a01b0316808452600160209081528285206003015490936024359160ff1615610a17575080156109e45760ff60065416610992575b6060927f49f162bd762594346b701cfd5aa346562d454ccb224357be2ecd5ee7f4b26bc6848489947f7e9fd81f4a416989279df6f85d21e1ced31d67d4cb93ff83c2b9e07e8900ffe598968a5260018752848a208160018201556002429101558451918252868201524284820152a1610947610be6565b9260025492600186845161095a81610ab8565b8781524285820152868682015201528460035542905582600555600160ff19600654161760065581519384524290840152820152a180f35b60326109a060035483610b6c565b11156108d057825162461bcd60e51b815280870185905260186024820152770a0e4d2c6ca40c8caecd2c2e8d2dedc40e8dede40d0d2ced60431b6044820152606490fd5b825162461bcd60e51b8152808701859052600d60248201526c496e76616c696420707269636560981b6044820152606490fd5b62461bcd60e51b81528681018590526011602482015270536f75726365206e6f742061637469766560781b6044820152606490fd5b600435906001600160a01b0382168203610a6257565b600080fd5b600254811015610a8257600260005260206000200190600090565b634e487b7160e01b600052603260045260246000fd5b8115610aa2570490565b634e487b7160e01b600052601260045260246000fd5b608081019081106001600160401b03821117610ad357604052565b634e487b7160e01b600052604160045260246000fd5b60a081019081106001600160401b03821117610ad357604052565b91908201809211610b1157565b634e487b7160e01b600052601160045260246000fd5b60ff6006541680610b48575b610b4257610b3f610be6565b90565b60035490565b5060045461012c8101809111610b11574210610b33565b91908203918211610b1157565b818114610bb3578180821115610ba357610b8591610b5f565b905b606482029180830460641490151715610b1157610b3f91610a98565b90610bad91610b5f565b90610b87565b5050600090565b6000546001600160a01b03163303610bce57565b60405163118cdaa760e01b8152336004820152602490fd5b60028054908115610c125760009182918391845b818110610c1a5750505015610c1257610b3f91610a98565b505060035490565b610c2381610a67565b60018060a01b03809254600392831b1c1660005260016020818152604060ff8160002094825196610c5388610ae9565b865416875284860154938701938452898601548093880152850154161515908160608701526080600480960154960195865281610d12575b50610c9d575b50505050600101610bfa565b9890939692989791975190895191828102928184041490151715610cfd57610cd19291610cc991610b04565b985190610b04565b956000198214610ce8575001926001388080610c91565b601190634e487b7160e01b6000525260246000fd5b601189634e487b7160e01b6000525260246000fd5b905061012c8101809111610d2857421038610c8b565b601184634e487b7160e01b6000525260246000fdfe8be0079c531659141344cd1fd0a4f28419497f9722a3daafe3b4186f6b6457e0a26469706673582212200757fc4ddb7f5558d4048dad431bf92152162e9ff7b74ff8917a3a58ad70386464736f6c63430008180033","opcodes":"PUSH1 0x80 DUP1 PUSH1 0x40 MSTORE CALLVALUE PUSH2 0xE2 JUMPI CALLER ISZERO PUSH2 0xCC JUMPI PUSH1 0x0 DUP1 SLOAD CALLER PUSH1 0x1 PUSH1 0x1 PUSH1 0xA0 SHL SUB NOT DUP3 AND DUP2 OR DUP4 SSTORE PUSH1 0x40 MLOAD SWAP3 SWAP2 PUSH1 0x1 PUSH1 0x1 PUSH1 0xA0 SHL SUB AND PUSH32 0x8BE0079C531659141344CD1FD0A4F28419497F9722A3DAAFE3B4186F6B6457E0 DUP4 DUP1 LOG3 PUSH1 0x80 DUP3 ADD SWAP1 PUSH1 0x1 PUSH1 0x1 PUSH1 0x40 SHL SUB DUP3 GT DUP4 DUP4 LT OR PUSH2 0xB8 JUMPI POP PUSH1 0x40 MSTORE PUSH1 0x1 PUSH1 0x60 PUSH8 0xDE0B6B3A7640000 SWAP3 DUP4 DUP2 MSTORE TIMESTAMP PUSH1 0x20 DUP3 ADD MSTORE DUP3 PUSH1 0x40 DUP3 ADD MSTORE ADD MSTORE PUSH1 0x3 SSTORE TIMESTAMP PUSH1 0x4 SSTORE PUSH1 0x1 PUSH1 0x5 SSTORE PUSH1 0x1 PUSH1 0xFF NOT PUSH1 0x6 SLOAD AND OR PUSH1 0x6 SSTORE PUSH1 0x40 MLOAD PUSH2 0xD93 SWAP1 DUP2 PUSH2 0xE8 DUP3 CODECOPY RETURN JUMPDEST PUSH4 0x4E487B71 PUSH1 0xE0 SHL DUP2 MSTORE PUSH1 0x41 PUSH1 0x4 MSTORE PUSH1 0x24 SWAP1 REVERT JUMPDEST PUSH4 0x1E4FBDF7 PUSH1 0xE0 SHL DUP2 MSTORE PUSH1 0x0 PUSH1 0x4 DUP3 ADD MSTORE PUSH1 0x24 SWAP1 REVERT JUMPDEST PUSH1 0x0 DUP1 REVERT INVALID PUSH1 0x80 PUSH1 0x40 DUP2 DUP2 MSTORE PUSH1 0x4 SWAP1 DUP2 CALLDATASIZE LT ISZERO PUSH2 0x16 JUMPI PUSH1 0x0 DUP1 REVERT JUMPDEST PUSH1 0x0 SWAP3 DUP4 CALLDATALOAD PUSH1 0xE0 SHR SWAP1 DUP2 PUSH4 0xD4D47EA EQ PUSH2 0x87A JUMPI POP DUP1 PUSH4 0xD73EBB5 EQ PUSH2 0x82A JUMPI DUP1 PUSH4 0x2E17B8D6 EQ PUSH2 0x7C0 JUMPI DUP1 PUSH4 0x38383028 EQ PUSH2 0x77F JUMPI DUP1 PUSH4 0x715018A6 EQ PUSH2 0x737 JUMPI DUP1 PUSH4 0x78E23D3C EQ PUSH2 0x6AC JUMPI DUP1 PUSH4 0x8DA5CB5B EQ PUSH2 0x684 JUMPI DUP1 PUSH4 0x8F09C857 EQ PUSH2 0x660 JUMPI DUP1 PUSH4 0x92551C6A EQ PUSH2 0x58C JUMPI DUP1 PUSH4 0x95082D25 EQ PUSH2 0x569 JUMPI DUP1 PUSH4 0x96F277B7 EQ PUSH2 0x54D JUMPI DUP1 PUSH4 0x99F91F4F EQ PUSH2 0x530 JUMPI DUP1 PUSH4 0x9D1B464A EQ PUSH2 0x4F4 JUMPI DUP1 PUSH4 0xCFA48174 EQ PUSH2 0x366 JUMPI DUP1 PUSH4 0xD6C8D141 EQ PUSH2 0x1DF JUMPI DUP1 PUSH4 0xF2FDE38B EQ PUSH2 0x16A JUMPI PUSH4 0xF3038E74 EQ PUSH2 0xDF JUMPI PUSH1 0x0 DUP1 REVERT JUMPDEST CALLVALUE PUSH2 0x166 JUMPI PUSH1 0x20 CALLDATASIZE PUSH1 0x3 NOT ADD SLT PUSH2 0x166 JUMPI DUP2 PUSH32 0xB0E99C124A03B374A88EF4B1E43EE72321DAF2B9D6A80175CB987054D12DB1D2 SWAP3 CALLDATALOAD SWAP1 PUSH2 0x11D PUSH2 0xBBA JUMP JUMPDEST PUSH1 0x2 SLOAD SWAP1 PUSH1 0x1 PUSH1 0x60 DUP6 MLOAD PUSH2 0x130 DUP2 PUSH2 0xAB8 JUMP JUMPDEST DUP6 DUP2 MSTORE TIMESTAMP PUSH1 0x20 DUP3 ADD MSTORE DUP5 DUP8 DUP3 ADD MSTORE ADD MSTORE DUP3 PUSH1 0x3 SSTORE TIMESTAMP SWAP1 SSTORE PUSH1 0x5 SSTORE PUSH1 0x1 PUSH1 0xFF NOT PUSH1 0x6 SLOAD AND OR PUSH1 0x6 SSTORE DUP2 MLOAD SWAP1 DUP2 MSTORE CALLER PUSH1 0x20 DUP3 ADD MSTORE LOG1 DUP1 RETURN JUMPDEST DUP3 DUP1 REVERT JUMPDEST POP SWAP1 CALLVALUE PUSH2 0x166 JUMPI PUSH1 0x20 CALLDATASIZE PUSH1 0x3 NOT ADD SLT PUSH2 0x166 JUMPI PUSH2 0x185 PUSH2 0xA4C JUMP JUMPDEST SWAP1 PUSH2 0x18E PUSH2 0xBBA JUMP JUMPDEST PUSH1 0x1 PUSH1 0x1 PUSH1 0xA0 SHL SUB SWAP2 DUP3 AND SWAP3 DUP4 ISZERO PUSH2 0x1C9 JUMPI POP POP DUP3 SLOAD PUSH1 0x1 PUSH1 0x1 PUSH1 0xA0 SHL SUB NOT DUP2 AND DUP4 OR DUP5 SSTORE AND PUSH1 0x0 DUP1 MLOAD PUSH1 0x20 PUSH2 0xD3E DUP4 CODECOPY DUP2 MLOAD SWAP2 MSTORE DUP4 DUP1 LOG3 DUP1 RETURN JUMPDEST MLOAD PUSH4 0x1E4FBDF7 PUSH1 0xE0 SHL DUP2 MSTORE SWAP1 DUP2 ADD DUP5 SWAP1 MSTORE PUSH1 0x24 SWAP1 REVERT JUMPDEST POP SWAP2 SWAP1 CALLVALUE PUSH2 0x362 JUMPI PUSH1 0x20 CALLDATASIZE PUSH1 0x3 NOT ADD SLT PUSH2 0x362 JUMPI PUSH2 0x1FB PUSH2 0xA4C JUMP JUMPDEST SWAP1 PUSH2 0x204 PUSH2 0xBBA JUMP JUMPDEST PUSH1 0x1 DUP1 PUSH1 0xA0 SHL SUB DUP1 SWAP3 AND SWAP1 DUP2 DUP5 MSTORE PUSH1 0x1 SWAP3 PUSH1 0x1 PUSH1 0x20 MSTORE PUSH1 0x3 SWAP3 PUSH1 0xFF PUSH1 0x3 DUP9 DUP9 KECCAK256 ADD SLOAD AND ISZERO PUSH2 0x325 JUMPI DUP1 DUP7 MSTORE PUSH1 0x1 PUSH1 0x20 MSTORE SWAP6 DUP6 KECCAK256 PUSH1 0x3 ADD DUP1 SLOAD PUSH1 0xFF NOT AND SWAP1 SSTORE SWAP4 SWAP5 SWAP4 DUP6 DUP5 JUMPDEST PUSH2 0x250 JUMPI DUP7 DUP1 RETURN JUMPDEST PUSH1 0x2 DUP1 SLOAD DUP1 DUP4 LT ISZERO PUSH2 0x31F JUMPI DUP8 DUP5 PUSH2 0x267 DUP6 PUSH2 0xA67 JUMP JUMPDEST SWAP1 SLOAD SWAP1 DUP10 SHL SHR AND EQ PUSH2 0x27D JUMPI POP POP DUP5 ADD DUP5 PUSH2 0x248 JUMP JUMPDEST SWAP4 SWAP3 SWAP5 SWAP7 POP SWAP5 POP PUSH1 0x0 NOT SWAP3 DUP4 DUP2 ADD SWAP1 DUP2 GT PUSH2 0x30C JUMPI SWAP1 PUSH2 0x2B0 DUP6 PUSH2 0x2A3 PUSH2 0x2CE SWAP5 PUSH2 0xA67 JUMP JUMPDEST SWAP1 SLOAD SWAP1 DUP11 SHL SHR AND SWAP2 PUSH2 0xA67 JUMP JUMPDEST SWAP1 SWAP2 SWAP1 PUSH1 0x1 DUP1 PUSH1 0xA0 SHL SUB DUP1 DUP5 SLOAD SWAP3 PUSH1 0x3 SHL SWAP4 AND DUP4 SHL SWAP3 SHL NOT AND OR SWAP1 SSTORE JUMP JUMPDEST DUP4 SLOAD SWAP1 DUP2 ISZERO PUSH2 0x2F9 JUMPI POP ADD SWAP3 PUSH2 0x2E3 DUP5 PUSH2 0xA67 JUMP JUMPDEST DUP2 SWAP4 SWAP2 SLOAD SWAP3 SHL SHL NOT AND SWAP1 SSTORE SSTORE CODESIZE DUP1 DUP1 DUP1 DUP1 DUP1 DUP7 DUP1 RETURN JUMPDEST PUSH4 0x4E487B71 PUSH1 0xE0 SHL DUP8 MSTORE PUSH1 0x31 SWAP1 MSTORE PUSH1 0x24 DUP7 REVERT JUMPDEST PUSH4 0x4E487B71 PUSH1 0xE0 SHL DUP9 MSTORE PUSH1 0x11 DUP4 MSTORE PUSH1 0x24 DUP9 REVERT JUMPDEST POP POP DUP7 DUP1 RETURN JUMPDEST DUP7 MLOAD PUSH3 0x461BCD PUSH1 0xE5 SHL DUP2 MSTORE PUSH1 0x20 DUP2 DUP6 ADD MSTORE PUSH1 0x17 PUSH1 0x24 DUP3 ADD MSTORE PUSH23 0x536F7572636520616C726561647920696E616374697665 PUSH1 0x48 SHL PUSH1 0x44 DUP3 ADD MSTORE PUSH1 0x64 SWAP1 REVERT JUMPDEST POP DUP1 REVERT JUMPDEST POP DUP3 SWAP1 CALLVALUE PUSH2 0x362 JUMPI DUP1 PUSH1 0x3 NOT CALLDATASIZE ADD SLT PUSH2 0x362 JUMPI PUSH2 0x381 PUSH2 0xA4C JUMP JUMPDEST PUSH1 0x24 CALLDATALOAD PUSH2 0x38C PUSH2 0xBBA JUMP JUMPDEST PUSH1 0x1 PUSH1 0x1 PUSH1 0xA0 SHL SUB DUP3 DUP2 AND SWAP3 SWAP1 DUP4 ISZERO PUSH2 0x4B8 JUMPI DUP3 ISZERO PUSH2 0x47B JUMPI DUP7 DUP6 MLOAD SWAP2 PUSH2 0x3B2 DUP4 PUSH2 0xAE9 JUMP JUMPDEST DUP6 DUP4 MSTORE PUSH1 0x20 DUP4 ADD DUP9 DUP2 MSTORE DUP8 DUP5 ADD DUP10 DUP2 MSTORE PUSH1 0x60 DUP6 ADD SWAP2 PUSH1 0x1 DUP4 MSTORE PUSH1 0x80 DUP7 ADD SWAP4 DUP9 DUP6 MSTORE DUP10 DUP13 MSTORE PUSH1 0x1 PUSH1 0x20 MSTORE DUP11 DUP13 KECCAK256 SWAP7 MLOAD AND PUSH1 0x1 DUP1 PUSH1 0xA0 SHL SUB NOT DUP8 SLOAD AND OR DUP7 SSTORE MLOAD PUSH1 0x1 DUP7 ADD SSTORE MLOAD PUSH1 0x2 DUP6 ADD SSTORE PUSH1 0x3 DUP5 ADD SWAP1 MLOAD ISZERO ISZERO PUSH1 0xFF DUP1 NOT DUP4 SLOAD AND SWAP2 AND OR SWAP1 SSTORE MLOAD SWAP2 ADD SSTORE PUSH1 0x2 SLOAD PUSH1 0x1 PUSH1 0x40 SHL DUP2 LT ISZERO PUSH2 0x468 JUMPI PUSH32 0x3983BEC53B05D9B1BBB58E41433B2EFBDCC63D017E67A5403DE9A6C6330CDAED SWAP6 SWAP7 POP SWAP1 PUSH2 0x2B0 DUP3 PUSH1 0x1 PUSH2 0x45A SWAP5 ADD PUSH1 0x2 SSTORE PUSH2 0xA67 JUMP JUMPDEST DUP3 MLOAD SWAP2 DUP3 MSTORE PUSH1 0x20 DUP3 ADD MSTORE LOG1 DUP1 RETURN JUMPDEST PUSH4 0x4E487B71 PUSH1 0xE0 SHL DUP7 MSTORE PUSH1 0x41 DUP8 MSTORE PUSH1 0x24 DUP7 REVERT JUMPDEST DUP5 MLOAD PUSH3 0x461BCD PUSH1 0xE5 SHL DUP2 MSTORE PUSH1 0x20 DUP2 DUP10 ADD MSTORE PUSH1 0x17 PUSH1 0x24 DUP3 ADD MSTORE PUSH23 0x576569676874206D75737420626520706F736974697665 PUSH1 0x48 SHL PUSH1 0x44 DUP3 ADD MSTORE PUSH1 0x64 SWAP1 REVERT JUMPDEST DUP5 MLOAD PUSH3 0x461BCD PUSH1 0xE5 SHL DUP2 MSTORE PUSH1 0x20 DUP2 DUP10 ADD MSTORE PUSH1 0x16 PUSH1 0x24 DUP3 ADD MSTORE PUSH22 0x496E76616C696420736F757263652061646472657373 PUSH1 0x50 SHL PUSH1 0x44 DUP3 ADD MSTORE PUSH1 0x64 SWAP1 REVERT JUMPDEST POP CALLVALUE PUSH2 0x166 JUMPI DUP3 PUSH1 0x3 NOT CALLDATASIZE ADD SLT PUSH2 0x166 JUMPI PUSH1 0x80 SWAP3 POP PUSH1 0x3 SLOAD SWAP2 SLOAD SWAP1 PUSH1 0x5 SLOAD SWAP1 PUSH1 0xFF PUSH1 0x6 SLOAD AND SWAP3 DUP2 MLOAD SWAP5 DUP6 MSTORE PUSH1 0x20 DUP6 ADD MSTORE DUP4 ADD MSTORE ISZERO ISZERO PUSH1 0x60 DUP3 ADD MSTORE RETURN JUMPDEST DUP4 DUP3 CALLVALUE PUSH2 0x362 JUMPI DUP2 PUSH1 0x3 NOT CALLDATASIZE ADD SLT PUSH2 0x362 JUMPI PUSH1 0x20 SWAP1 MLOAD PUSH2 0x12C DUP2 MSTORE RETURN JUMPDEST DUP4 DUP3 CALLVALUE PUSH2 0x362 JUMPI DUP2 PUSH1 0x3 NOT CALLDATASIZE ADD SLT PUSH2 0x362 JUMPI PUSH1 0x20 SWAP1 MLOAD PUSH1 0x32 DUP2 MSTORE RETURN JUMPDEST DUP4 DUP3 CALLVALUE PUSH2 0x362 JUMPI DUP2 PUSH1 0x3 NOT CALLDATASIZE ADD SLT PUSH2 0x362 JUMPI PUSH1 0x20 SWAP1 MLOAD PUSH8 0xDE0B6B3A7640000 DUP2 MSTORE RETURN JUMPDEST POP DUP3 CALLVALUE PUSH2 0x65D JUMPI DUP1 PUSH1 0x3 NOT CALLDATASIZE ADD SLT PUSH2 0x65D JUMPI DUP2 MLOAD DUP1 SWAP2 PUSH1 0x2 SLOAD SWAP4 DUP5 DUP4 MSTORE PUSH1 0x20 DUP1 SWAP4 ADD DUP1 SWAP6 PUSH1 0x2 DUP5 MSTORE DUP5 DUP5 KECCAK256 SWAP1 DUP5 JUMPDEST DUP7 DUP3 DUP3 LT PUSH2 0x640 JUMPI POP POP POP POP DUP5 SWAP1 SUB PUSH1 0x1F ADD PUSH1 0x1F NOT AND DUP5 ADD SWAP6 PUSH1 0x1 PUSH1 0x1 PUSH1 0x40 SHL SUB DUP8 GT DUP6 DUP9 LT OR PUSH2 0x62D JUMPI POP DUP6 DUP2 MSTORE DUP3 DUP7 MSTORE SWAP3 MLOAD DUP6 DUP4 ADD DUP2 SWAP1 MSTORE DUP6 SWAP5 SWAP4 DUP6 ADD SWAP4 SWAP3 SWAP1 SWAP2 JUMPDEST DUP3 DUP2 LT PUSH2 0x60D JUMPI POP POP POP POP SUB SWAP1 RETURN JUMPDEST DUP4 MLOAD PUSH1 0x1 PUSH1 0x1 PUSH1 0xA0 SHL SUB AND DUP6 MSTORE DUP7 SWAP6 POP SWAP4 DUP2 ADD SWAP4 SWAP3 DUP2 ADD SWAP3 PUSH1 0x1 ADD PUSH2 0x5FE JUMP JUMPDEST PUSH4 0x4E487B71 PUSH1 0xE0 SHL DUP4 MSTORE PUSH1 0x41 SWAP1 MSTORE PUSH1 0x24 DUP3 REVERT JUMPDEST DUP4 SLOAD PUSH1 0x1 PUSH1 0x1 PUSH1 0xA0 SHL SUB AND DUP6 MSTORE SWAP1 SWAP4 ADD SWAP3 PUSH1 0x1 SWAP3 DUP4 ADD SWAP3 ADD PUSH2 0x5BA JUMP JUMPDEST DUP1 REVERT JUMPDEST DUP4 DUP3 CALLVALUE PUSH2 0x362 JUMPI DUP2 PUSH1 0x3 NOT CALLDATASIZE ADD SLT PUSH2 0x362 JUMPI PUSH1 0x20 SWAP1 PUSH2 0x67D PUSH2 0xB27 JUMP JUMPDEST SWAP1 MLOAD SWAP1 DUP2 MSTORE RETURN JUMPDEST DUP4 DUP3 CALLVALUE PUSH2 0x362 JUMPI DUP2 PUSH1 0x3 NOT CALLDATASIZE ADD SLT PUSH2 0x362 JUMPI SWAP1 SLOAD SWAP1 MLOAD PUSH1 0x1 PUSH1 0x1 PUSH1 0xA0 SHL SUB SWAP1 SWAP2 AND DUP2 MSTORE PUSH1 0x20 SWAP1 RETURN JUMPDEST POP CALLVALUE PUSH2 0x166 JUMPI PUSH1 0x20 CALLDATASIZE PUSH1 0x3 NOT ADD SLT PUSH2 0x166 JUMPI PUSH1 0x80 SWAP3 PUSH1 0x1 PUSH1 0x1 PUSH1 0xA0 SHL SUB SWAP3 DUP5 SWAP3 SWAP1 SWAP2 DUP2 SWAP1 DUP6 PUSH2 0x6D9 PUSH2 0xA4C JUMP JUMPDEST AND DUP2 MSTORE PUSH1 0x1 PUSH1 0x20 MSTORE KECCAK256 SWAP2 DUP2 MLOAD SWAP5 PUSH2 0x6EF DUP7 PUSH2 0xAE9 JUMP JUMPDEST DUP4 SLOAD AND DUP6 MSTORE PUSH1 0x1 DUP4 ADD SLOAD SWAP5 DUP6 PUSH1 0x20 DUP3 ADD MSTORE PUSH1 0x2 DUP5 ADD SLOAD SWAP2 DUP3 DUP5 DUP4 ADD MSTORE PUSH1 0xFF PUSH1 0x3 DUP7 ADD SLOAD AND ISZERO ISZERO SWAP5 DUP6 PUSH1 0x60 DUP5 ADD MSTORE ADD SLOAD SWAP5 DUP6 SWAP2 ADD MSTORE DUP2 MLOAD SWAP5 DUP6 MSTORE PUSH1 0x20 DUP6 ADD MSTORE DUP4 ADD MSTORE PUSH1 0x60 DUP3 ADD MSTORE RETURN JUMPDEST DUP4 CALLVALUE PUSH2 0x65D JUMPI DUP1 PUSH1 0x3 NOT CALLDATASIZE ADD SLT PUSH2 0x65D JUMPI PUSH2 0x750 PUSH2 0xBBA JUMP JUMPDEST DUP1 SLOAD PUSH1 0x1 PUSH1 0x1 PUSH1 0xA0 SHL SUB NOT DUP2 AND DUP3 SSTORE DUP2 SWAP1 PUSH1 0x1 PUSH1 0x1 PUSH1 0xA0 SHL SUB AND PUSH1 0x0 DUP1 MLOAD PUSH1 0x20 PUSH2 0xD3E DUP4 CODECOPY DUP2 MLOAD SWAP2 MSTORE DUP3 DUP1 LOG3 DUP1 RETURN JUMPDEST POP SWAP1 CALLVALUE PUSH2 0x166 JUMPI PUSH1 0x20 CALLDATASIZE PUSH1 0x3 NOT ADD SLT PUSH2 0x166 JUMPI CALLDATALOAD SWAP2 PUSH1 0x2 SLOAD DUP4 LT ISZERO PUSH2 0x65D JUMPI POP PUSH2 0x7AA PUSH1 0x20 SWAP3 PUSH2 0xA67 JUMP JUMPDEST SWAP1 SLOAD SWAP2 MLOAD SWAP2 PUSH1 0x1 DUP1 PUSH1 0xA0 SHL SUB SWAP2 PUSH1 0x3 SHL SHR AND DUP2 MSTORE RETURN JUMPDEST POP CALLVALUE PUSH2 0x166 JUMPI PUSH1 0x20 CALLDATASIZE PUSH1 0x3 NOT ADD SLT PUSH2 0x166 JUMPI PUSH1 0xA0 SWAP3 PUSH1 0x1 PUSH1 0x1 PUSH1 0xA0 SHL SUB SWAP1 DUP3 SWAP1 DUP3 PUSH2 0x7E9 PUSH2 0xA4C JUMP JUMPDEST AND DUP2 MSTORE PUSH1 0x1 PUSH1 0x20 MSTORE KECCAK256 SWAP1 DUP2 SLOAD AND SWAP3 PUSH1 0x1 DUP3 ADD SLOAD SWAP3 PUSH1 0x2 DUP4 ADD SLOAD SWAP2 PUSH1 0xFF PUSH1 0x3 DUP6 ADD SLOAD AND SWAP4 ADD SLOAD SWAP4 DUP2 MLOAD SWAP6 DUP7 MSTORE PUSH1 0x20 DUP7 ADD MSTORE DUP5 ADD MSTORE ISZERO ISZERO PUSH1 0x60 DUP4 ADD MSTORE PUSH1 0x80 DUP3 ADD MSTORE RETURN JUMPDEST POP DUP3 SWAP1 CALLVALUE PUSH2 0x362 JUMPI DUP2 PUSH1 0x3 NOT CALLDATASIZE ADD SLT PUSH2 0x362 JUMPI PUSH2 0x845 PUSH2 0xB27 JUMP JUMPDEST SWAP2 DUP3 ISZERO PUSH2 0x867 JUMPI DUP2 MLOAD PUSH11 0xC097CE7BC90715B34B9F1 PUSH1 0x24 SHL DUP5 SWAP1 DIV DUP2 MSTORE PUSH1 0x20 SWAP1 RETURN JUMPDEST PUSH4 0x4E487B71 PUSH1 0xE0 SHL DUP2 MSTORE PUSH1 0x12 DUP5 MSTORE PUSH1 0x24 SWAP1 REVERT JUMPDEST SWAP1 POP DUP4 SWAP2 CALLVALUE PUSH2 0x166 JUMPI DUP1 PUSH1 0x3 NOT CALLDATASIZE ADD SLT PUSH2 0x166 JUMPI PUSH2 0x896 PUSH2 0xA4C JUMP JUMPDEST PUSH1 0x1 PUSH1 0x1 PUSH1 0xA0 SHL SUB AND DUP1 DUP5 MSTORE PUSH1 0x1 PUSH1 0x20 SWAP1 DUP2 MSTORE DUP3 DUP6 KECCAK256 PUSH1 0x3 ADD SLOAD SWAP1 SWAP4 PUSH1 0x24 CALLDATALOAD SWAP2 PUSH1 0xFF AND ISZERO PUSH2 0xA17 JUMPI POP DUP1 ISZERO PUSH2 0x9E4 JUMPI PUSH1 0xFF PUSH1 0x6 SLOAD AND PUSH2 0x992 JUMPI JUMPDEST PUSH1 0x60 SWAP3 PUSH32 0x49F162BD762594346B701CFD5AA346562D454CCB224357BE2ECD5EE7F4B26BC6 DUP5 DUP5 DUP10 SWAP5 PUSH32 0x7E9FD81F4A416989279DF6F85D21E1CED31D67D4CB93FF83C2B9E07E8900FFE5 SWAP9 SWAP7 DUP11 MSTORE PUSH1 0x1 DUP8 MSTORE DUP5 DUP11 KECCAK256 DUP2 PUSH1 0x1 DUP3 ADD SSTORE PUSH1 0x2 TIMESTAMP SWAP2 ADD SSTORE DUP5 MLOAD SWAP2 DUP3 MSTORE DUP7 DUP3 ADD MSTORE TIMESTAMP DUP5 DUP3 ADD MSTORE LOG1 PUSH2 0x947 PUSH2 0xBE6 JUMP JUMPDEST SWAP3 PUSH1 0x2 SLOAD SWAP3 PUSH1 0x1 DUP7 DUP5 MLOAD PUSH2 0x95A DUP2 PUSH2 0xAB8 JUMP JUMPDEST DUP8 DUP2 MSTORE TIMESTAMP DUP6 DUP3 ADD MSTORE DUP7 DUP7 DUP3 ADD MSTORE ADD MSTORE DUP5 PUSH1 0x3 SSTORE TIMESTAMP SWAP1 SSTORE DUP3 PUSH1 0x5 SSTORE PUSH1 0x1 PUSH1 0xFF NOT PUSH1 0x6 SLOAD AND OR PUSH1 0x6 SSTORE DUP2 MLOAD SWAP4 DUP5 MSTORE TIMESTAMP SWAP1 DUP5 ADD MSTORE DUP3 ADD MSTORE LOG1 DUP1 RETURN JUMPDEST PUSH1 0x32 PUSH2 0x9A0 PUSH1 0x3 SLOAD DUP4 PUSH2 0xB6C JUMP JUMPDEST GT ISZERO PUSH2 0x8D0 JUMPI DUP3 MLOAD PUSH3 0x461BCD PUSH1 0xE5 SHL DUP2 MSTORE DUP1 DUP8 ADD DUP6 SWAP1 MSTORE PUSH1 0x18 PUSH1 0x24 DUP3 ADD MSTORE PUSH24 0xA0E4D2C6CA40C8CAECD2C2E8D2DEDC40E8DEDE40D0D2CED PUSH1 0x43 SHL PUSH1 0x44 DUP3 ADD MSTORE PUSH1 0x64 SWAP1 REVERT JUMPDEST DUP3 MLOAD PUSH3 0x461BCD PUSH1 0xE5 SHL DUP2 MSTORE DUP1 DUP8 ADD DUP6 SWAP1 MSTORE PUSH1 0xD PUSH1 0x24 DUP3 ADD MSTORE PUSH13 0x496E76616C6964207072696365 PUSH1 0x98 SHL PUSH1 0x44 DUP3 ADD MSTORE PUSH1 0x64 SWAP1 REVERT JUMPDEST PUSH3 0x461BCD PUSH1 0xE5 SHL DUP2 MSTORE DUP7 DUP2 ADD DUP6 SWAP1 MSTORE PUSH1 0x11 PUSH1 0x24 DUP3 ADD MSTORE PUSH17 0x536F75726365206E6F7420616374697665 PUSH1 0x78 SHL PUSH1 0x44 DUP3 ADD MSTORE PUSH1 0x64 SWAP1 REVERT JUMPDEST PUSH1 0x4 CALLDATALOAD SWAP1 PUSH1 0x1 PUSH1 0x1 PUSH1 0xA0 SHL SUB DUP3 AND DUP3 SUB PUSH2 0xA62 JUMPI JUMP JUMPDEST PUSH1 0x0 DUP1 REVERT JUMPDEST PUSH1 0x2 SLOAD DUP2 LT ISZERO PUSH2 0xA82 JUMPI PUSH1 0x2 PUSH1 0x0 MSTORE PUSH1 0x20 PUSH1 0x0 KECCAK256 ADD SWAP1 PUSH1 0x0 SWAP1 JUMP JUMPDEST PUSH4 0x4E487B71 PUSH1 0xE0 SHL PUSH1 0x0 MSTORE PUSH1 0x32 PUSH1 0x4 MSTORE PUSH1 0x24 PUSH1 0x0 REVERT JUMPDEST DUP2 ISZERO PUSH2 0xAA2 JUMPI DIV SWAP1 JUMP JUMPDEST PUSH4 0x4E487B71 PUSH1 0xE0 SHL PUSH1 0x0 MSTORE PUSH1 0x12 PUSH1 0x4 MSTORE PUSH1 0x24 PUSH1 0x0 REVERT JUMPDEST PUSH1 0x80 DUP2 ADD SWAP1 DUP2 LT PUSH1 0x1 PUSH1 0x1 PUSH1 0x40 SHL SUB DUP3 GT OR PUSH2 0xAD3 JUMPI PUSH1 0x40 MSTORE JUMP JUMPDEST PUSH4 0x4E487B71 PUSH1 0xE0 SHL PUSH1 0x0 MSTORE PUSH1 0x41 PUSH1 0x4 MSTORE PUSH1 0x24 PUSH1 0x0 REVERT JUMPDEST PUSH1 0xA0 DUP2 ADD SWAP1 DUP2 LT PUSH1 0x1 PUSH1 0x1 PUSH1 0x40 SHL SUB DUP3 GT OR PUSH2 0xAD3 JUMPI PUSH1 0x40 MSTORE JUMP JUMPDEST SWAP2 SWAP1 DUP3 ADD DUP1 SWAP3 GT PUSH2 0xB11 JUMPI JUMP JUMPDEST PUSH4 0x4E487B71 PUSH1 0xE0 SHL PUSH1 0x0 MSTORE PUSH1 0x11 PUSH1 0x4 MSTORE PUSH1 0x24 PUSH1 0x0 REVERT JUMPDEST PUSH1 0xFF PUSH1 0x6 SLOAD AND DUP1 PUSH2 0xB48 JUMPI JUMPDEST PUSH2 0xB42 JUMPI PUSH2 0xB3F PUSH2 0xBE6 JUMP JUMPDEST SWAP1 JUMP JUMPDEST PUSH1 0x3 SLOAD SWAP1 JUMP JUMPDEST POP PUSH1 0x4 SLOAD PUSH2 0x12C DUP2 ADD DUP1 SWAP2 GT PUSH2 0xB11 JUMPI TIMESTAMP LT PUSH2 0xB33 JUMP JUMPDEST SWAP2 SWAP1 DUP3 SUB SWAP2 DUP3 GT PUSH2 0xB11 JUMPI JUMP JUMPDEST DUP2 DUP2 EQ PUSH2 0xBB3 JUMPI DUP2 DUP1 DUP3 GT ISZERO PUSH2 0xBA3 JUMPI PUSH2 0xB85 SWAP2 PUSH2 0xB5F JUMP JUMPDEST SWAP1 JUMPDEST PUSH1 0x64 DUP3 MUL SWAP2 DUP1 DUP4 DIV PUSH1 0x64 EQ SWAP1 ISZERO OR ISZERO PUSH2 0xB11 JUMPI PUSH2 0xB3F SWAP2 PUSH2 0xA98 JUMP JUMPDEST SWAP1 PUSH2 0xBAD SWAP2 PUSH2 0xB5F JUMP JUMPDEST SWAP1 PUSH2 0xB87 JUMP JUMPDEST POP POP PUSH1 0x0 SWAP1 JUMP JUMPDEST PUSH1 0x0 SLOAD PUSH1 0x1 PUSH1 0x1 PUSH1 0xA0 SHL SUB AND CALLER SUB PUSH2 0xBCE JUMPI JUMP JUMPDEST PUSH1 0x40 MLOAD PUSH4 0x118CDAA7 PUSH1 0xE0 SHL DUP2 MSTORE CALLER PUSH1 0x4 DUP3 ADD MSTORE PUSH1 0x24 SWAP1 REVERT JUMPDEST PUSH1 0x2 DUP1 SLOAD SWAP1 DUP2 ISZERO PUSH2 0xC12 JUMPI PUSH1 0x0 SWAP2 DUP3 SWAP2 DUP4 SWAP2 DUP5 JUMPDEST DUP2 DUP2 LT PUSH2 0xC1A JUMPI POP POP POP ISZERO PUSH2 0xC12 JUMPI PUSH2 0xB3F SWAP2 PUSH2 0xA98 JUMP JUMPDEST POP POP PUSH1 0x3 SLOAD SWAP1 JUMP JUMPDEST PUSH2 0xC23 DUP2 PUSH2 0xA67 JUMP JUMPDEST PUSH1 0x1 DUP1 PUSH1 0xA0 SHL SUB DUP1 SWAP3 SLOAD PUSH1 0x3 SWAP3 DUP4 SHL SHR AND PUSH1 0x0 MSTORE PUSH1 0x1 PUSH1 0x20 DUP2 DUP2 MSTORE PUSH1 0x40 PUSH1 0xFF DUP2 PUSH1 0x0 KECCAK256 SWAP5 DUP3 MLOAD SWAP7 PUSH2 0xC53 DUP9 PUSH2 0xAE9 JUMP JUMPDEST DUP7 SLOAD AND DUP8 MSTORE DUP5 DUP7 ADD SLOAD SWAP4 DUP8 ADD SWAP4 DUP5 MSTORE DUP10 DUP7 ADD SLOAD DUP1 SWAP4 DUP9 ADD MSTORE DUP6 ADD SLOAD AND ISZERO ISZERO SWAP1 DUP2 PUSH1 0x60 DUP8 ADD MSTORE PUSH1 0x80 PUSH1 0x4 DUP1 SWAP7 ADD SLOAD SWAP7 ADD SWAP6 DUP7 MSTORE DUP2 PUSH2 0xD12 JUMPI JUMPDEST POP PUSH2 0xC9D JUMPI JUMPDEST POP POP POP POP PUSH1 0x1 ADD PUSH2 0xBFA JUMP JUMPDEST SWAP9 SWAP1 SWAP4 SWAP7 SWAP3 SWAP9 SWAP8 SWAP2 SWAP8 MLOAD SWAP1 DUP10 MLOAD SWAP2 DUP3 DUP2 MUL SWAP3 DUP2 DUP5 DIV EQ SWAP1 ISZERO OR ISZERO PUSH2 0xCFD JUMPI PUSH2 0xCD1 SWAP3 SWAP2 PUSH2 0xCC9 SWAP2 PUSH2 0xB04 JUMP JUMPDEST SWAP9 MLOAD SWAP1 PUSH2 0xB04 JUMP JUMPDEST SWAP6 PUSH1 0x0 NOT DUP3 EQ PUSH2 0xCE8 JUMPI POP ADD SWAP3 PUSH1 0x1 CODESIZE DUP1 DUP1 PUSH2 0xC91 JUMP JUMPDEST PUSH1 0x11 SWAP1 PUSH4 0x4E487B71 PUSH1 0xE0 SHL PUSH1 0x0 MSTORE MSTORE PUSH1 0x24 PUSH1 0x0 REVERT JUMPDEST PUSH1 0x11 DUP10 PUSH4 0x4E487B71 PUSH1 0xE0 SHL PUSH1 0x0 MSTORE MSTORE PUSH1 0x24 PUSH1 0x0 REVERT JUMPDEST SWAP1 POP PUSH2 0x12C DUP2 ADD DUP1 SWAP2 GT PUSH2 0xD28 JUMPI TIMESTAMP LT CODESIZE PUSH2 0xC8B JUMP JUMPDEST PUSH1 0x11 DUP5 PUSH4 0x4E487B71 PUSH1 0xE0 SHL PUSH1 0x0 MSTORE MSTORE PUSH1 0x24 PUSH1 0x0 REVERT INVALID DUP12 0xE0 SMOD SWAP13 MSTORE8 AND MSIZE EQ SGT PREVRANDAO 0xCD 0x1F 0xD0 LOG4 CALLCODE DUP5 NOT BLOBHASH PUSH32 0x9722A3DAAFE3B4186F6B6457E0A26469706673582212200757FC4DDB7F5558D4 DIV DUP14 0xAD NUMBER SHL 0xF9 0x21 MSTORE AND 0x2E SWAP16 0xF7 0xB7 0x4F 0xF8 SWAP2 PUSH27 0x3A58AD70386464736F6C6343000818003300000000000000000000 "},"methodIdentifiers":{"MAX_PRICE_DEVIATION()":"96f277b7","PRICE_PRECISION()":"95082d25","UPDATE_THRESHOLD()":"99f91f4f","activeSources(uint256)":"38383028","addPriceSource(address,uint256)":"cfa48174","currentPrice()":"9d1b464a","deactivateSource(address)":"d6c8d141","getActiveSources()":"92551c6a","getRequiredVMFForDollar()":"0d73ebb5","getSourceData(address)":"78e23d3c","getVMFPrice()":"8f09c857","owner()":"8da5cb5b","priceSources(address)":"2e17b8d6","renounceOwnership()":"715018a6","setEmergencyPrice(uint256)":"f3038e74","transferOwnership(address)":"f2fde38b","updatePriceFromSource(address,uint256)":"0d4d47ea"}}}}}