{"contracts/FreeRandomness.sol":{"FreeRandomness":{"abi":[{"inputs":[],"stateMutability":"nonpayable","type":"constructor"},{"inputs":[{"internalType":"address","name":"owner","type":"address"}],"name":"OwnableInvalidOwner","type":"error"},{"inputs":[{"internalType":"address","name":"account","type":"address"}],"name":"OwnableUnauthorizedAccount","type":"error"},{"inputs":[],"name":"ReentrancyGuardReentrantCall","type":"error"},{"anonymous":false,"inputs":[{"indexed":true,"internalType":"uint256","name":"roundId","type":"uint256"},{"indexed":true,"internalType":"address","name":"contributor","type":"address"},{"indexed":false,"internalType":"bytes32","name":"commitment","type":"bytes32"}],"name":"CommitmentSubmitted","type":"event"},{"anonymous":false,"inputs":[{"indexed":true,"internalType":"uint256","name":"roundId","type":"uint256"},{"components":[{"internalType":"uint256","name":"blockNumber","type":"uint256"},{"internalType":"uint256","name":"timestamp","type":"uint256"},{"internalType":"uint256","name":"difficulty","type":"uint256"},{"internalType":"uint256","name":"gasLimit","type":"uint256"},{"internalType":"uint256","name":"gasUsed","type":"uint256"},{"internalType":"uint256","name":"baseFee","type":"uint256"},{"internalType":"address","name":"miner","type":"address"}],"indexed":false,"internalType":"struct FreeRandomness.EntropySource","name":"entropy","type":"tuple"}],"name":"EntropyCollected","type":"event"},{"anonymous":false,"inputs":[{"indexed":true,"internalType":"address","name":"previousOwner","type":"address"},{"indexed":true,"internalType":"address","name":"newOwner","type":"address"}],"name":"OwnershipTransferred","type":"event"},{"anonymous":false,"inputs":[{"indexed":true,"internalType":"uint256","name":"roundId","type":"uint256"},{"indexed":false,"internalType":"uint256","name":"finalRandomNumber","type":"uint256"},{"indexed":false,"internalType":"uint256","name":"totalContributors","type":"uint256"}],"name":"RandomnessFinalized","type":"event"},{"anonymous":false,"inputs":[{"indexed":true,"internalType":"uint256","name":"roundId","type":"uint256"},{"indexed":true,"internalType":"address","name":"requester","type":"address"}],"name":"RandomnessRequested","type":"event"},{"anonymous":false,"inputs":[{"indexed":true,"internalType":"uint256","name":"roundId","type":"uint256"},{"indexed":true,"internalType":"address","name":"contributor","type":"address"},{"indexed":false,"internalType":"uint256","name":"randomValue","type":"uint256"}],"name":"RandomnessRevealed","type":"event"},{"inputs":[],"name":"commitPhaseDuration","outputs":[{"internalType":"uint256","name":"","type":"uint256"}],"stateMutability":"view","type":"function"},{"inputs":[{"internalType":"address","name":"","type":"address"}],"name":"commits","outputs":[{"internalType":"bytes32","name":"commitment","type":"bytes32"},{"internalType":"uint256","name":"timestamp","type":"uint256"},{"internalType":"bool","name":"revealed","type":"bool"},{"internalType":"uint256","name":"randomValue","type":"uint256"}],"stateMutability":"view","type":"function"},{"inputs":[],"name":"currentRoundId","outputs":[{"internalType":"uint256","name":"","type":"uint256"}],"stateMutability":"view","type":"function"},{"inputs":[{"internalType":"uint256","name":"roundId","type":"uint256"}],"name":"forceFinalize","outputs":[],"stateMutability":"nonpayable","type":"function"},{"inputs":[],"name":"getCurrentRandomnessRound","outputs":[{"internalType":"uint256","name":"","type":"uint256"}],"stateMutability":"view","type":"function"},{"inputs":[{"internalType":"uint256","name":"roundId","type":"uint256"}],"name":"getFinalRandomNumber","outputs":[{"internalType":"uint256","name":"","type":"uint256"}],"stateMutability":"view","type":"function"},{"inputs":[{"internalType":"uint256","name":"roundId","type":"uint256"}],"name":"getRoundContributors","outputs":[{"internalType":"address[]","name":"","type":"address[]"}],"stateMutability":"view","type":"function"},{"inputs":[{"internalType":"uint256","name":"roundId","type":"uint256"}],"name":"getRoundInfo","outputs":[{"internalType":"uint256","name":"totalContributors","type":"uint256"},{"internalType":"uint256","name":"totalEntropy","type":"uint256"},{"internalType":"uint256","name":"finalRandomNumber","type":"uint256"},{"internalType":"bool","name":"isComplete","type":"bool"},{"internalType":"uint256","name":"deadline","type":"uint256"}],"stateMutability":"view","type":"function"},{"inputs":[],"name":"maxContributors","outputs":[{"internalType":"uint256","name":"","type":"uint256"}],"stateMutability":"view","type":"function"},{"inputs":[],"name":"minContributors","outputs":[{"internalType":"uint256","name":"","type":"uint256"}],"stateMutability":"view","type":"function"},{"inputs":[],"name":"owner","outputs":[{"internalType":"address","name":"","type":"address"}],"stateMutability":"view","type":"function"},{"inputs":[{"internalType":"uint256","name":"","type":"uint256"}],"name":"randomnessRounds","outputs":[{"internalType":"uint256","name":"roundId","type":"uint256"},{"internalType":"uint256","name":"totalContributors","type":"uint256"},{"internalType":"uint256","name":"totalEntropy","type":"uint256"},{"internalType":"uint256","name":"finalRandomNumber","type":"uint256"},{"internalType":"bool","name":"isComplete","type":"bool"},{"internalType":"uint256","name":"deadline","type":"uint256"}],"stateMutability":"view","type":"function"},{"inputs":[],"name":"renounceOwnership","outputs":[],"stateMutability":"nonpayable","type":"function"},{"inputs":[],"name":"requestRandomness","outputs":[{"internalType":"uint256","name":"roundId","type":"uint256"}],"stateMutability":"nonpayable","type":"function"},{"inputs":[],"name":"revealPhaseDuration","outputs":[{"internalType":"uint256","name":"","type":"uint256"}],"stateMutability":"view","type":"function"},{"inputs":[{"internalType":"uint256","name":"roundId","type":"uint256"},{"internalType":"uint256","name":"randomValue","type":"uint256"},{"internalType":"bytes32","name":"salt","type":"bytes32"}],"name":"revealRandomness","outputs":[],"stateMutability":"nonpayable","type":"function"},{"inputs":[{"internalType":"uint256","name":"","type":"uint256"},{"internalType":"uint256","name":"","type":"uint256"}],"name":"roundContributors","outputs":[{"internalType":"address","name":"","type":"address"}],"stateMutability":"view","type":"function"},{"inputs":[{"internalType":"uint256","name":"roundId","type":"uint256"},{"internalType":"bytes32","name":"commitment","type":"bytes32"}],"name":"submitCommitment","outputs":[],"stateMutability":"nonpayable","type":"function"},{"inputs":[{"internalType":"address","name":"newOwner","type":"address"}],"name":"transferOwnership","outputs":[],"stateMutability":"nonpayable","type":"function"},{"inputs":[{"internalType":"uint256","name":"_commitPhaseDuration","type":"uint256"},{"internalType":"uint256","name":"_revealPhaseDuration","type":"uint256"},{"internalType":"uint256","name":"_minContributors","type":"uint256"},{"internalType":"uint256","name":"_maxContributors","type":"uint256"}],"name":"updateRoundParameters","outputs":[],"stateMutability":"nonpayable","type":"function"},{"inputs":[{"internalType":"uint256","name":"","type":"uint256"},{"internalType":"address","name":"","type":"address"}],"name":"userContributions","outputs":[{"internalType":"uint256","name":"","type":"uint256"}],"stateMutability":"view","type":"function"}],"evm":{"bytecode":{"linkReferences":{},"object":"6080806040523461009a57600160005533156100845760018054336001600160a01b03198216811790925560405191906001600160a01b03167f8be0079c531659141344cd1fd0a4f28419497f9722a3daafe3b4186f6b6457e0600080a3610e1060075561070860085560036009556064600a55600160065561108790816100a08239f35b631e4fbdf760e01b815260006004820152602490fd5b600080fdfe60806040908082526004918236101561001757600080fd5b600091823560e01c9081632bae823614610bf2575080633b55e36214610b7d578063483b403914610b5f5780636ca804a714610b2b578063715018a614610ae05780637b43a8e614610a82578063837b4079146109a957806386fa50631461098b57806388c3ffb0146109305780638da5cb5b146109085780639cbe5efd14610679578063a154fc6b14610697578063c142e49514610679578063c59051cd1461062b578063dd03c6f2146105c8578063dfc75372146105aa578063e6a3d9dc14610306578063e7b6ecff1461026d578063ed54890d14610224578063f2fde38b146101a85763f8413b071461010c57600080fd5b346101a457816003193601126101a457610124610d5d565b600654906000198214610191576001906020948284016006558385526003865281852084815561015660075442610c88565b600582015501805460ff19169055519233837f28f521cf7abd0044cba5bb040c5217ff69a4e5865f5262905018698e68fe7d008380a3558152f35b634e487b7160e01b835260118452602483fd5b5080fd5b508234610220576020366003190112610220576101c3610c0e565b906101cc610d31565b6001600160a01b0391821692831561020a575050600180546001600160a01b031981168417909155166000805160206110328339815191528380a380f35b51631e4fbdf760e01b8152908101849052602490fd5b8280fd5b5082346102205781600319360112610220576024356001600160a01b038116919082900361026957928291846020953583528552828220908252845220549051908152f35b8380fd5b5082346102205760203660031901126102205780359161028b610d31565b82845260036020526102b660058286206102ab60ff868301541615610cf1565b015460085490610c88565b4211156102ca57836102c784610d80565b80f35b906020606492519162461bcd60e51b8352820152601660248201527514995d99585b081c1a185cd9481b9bdd08195b99195960521b6044820152fd5b5090346105a757816003193601126105a757823592602493843591610329610d5d565b81845260039460209160038352818620600597600582015442116105705761035760ff848401541615610cab565b8588526005855283882054600a5411156105335787885b878a528a8752858a208054821015610522578161038a91610c29565b905490841b1c6001600160a01b031633146103a75760010161036e565b505050909192939495965060015b6104d75784875260058452828720805490600160401b8210156104c557816103e4916001809594018155610c29565b81549060031b9033821b91858060a01b03901b191617905501805490600182018092116104b3575581519060808201906001600160401b038211838310176104a157509082917f6459ffc8e2e6aea1e7a6161f54ca96e0b0c83db7191f26ccf5c33e14f7f178c5949352858152600383820142815283830189815260608401918a8352338b5260028752858b2094518555516001850155600284019051151560ff8019835416911617905551910155519384523393a36001815580f35b634e487b7160e01b8852604190528787fd5b634e487b7160e01b8852601183528888fd5b634e487b7160e01b8952604184528989fd5b5060218784608494519362461bcd60e51b85528401528201527f416c726561647920636f6e747269627574656420746f207468697320726f756e6044820152601960fa1b6064820152fd5b5050919293949596979850506103b5565b835162461bcd60e51b81528084018690526018818c01527713585e0818dbdb9d1c9a589d5d1bdc9cc81c995858da195960421b6044820152606490fd5b835162461bcd60e51b81528084018690526012818c01527110dbdb5b5a5d081c1a185cd948195b99195960721b6044820152606490fd5b80fd5b50346101a457816003193601126101a4576020906008549051908152f35b50829034610220576020366003190112610220578060c09383358152600360205220805492600182015492600283015490600560ff60038601549486015416940154948151968752602087015285015260608401521515608083015260a0820152f35b5090346105a757816003193601126105a7576024359235815260056020528181209081548410156105a7575060209261066391610c29565b905491519160018060a01b039160031b1c168152f35b50346101a457816003193601126101a4576020906006549051908152f35b50346101a45760603660031901126101a4578235906024908135906106ba610d5d565b83855260209560038752818620936005850154804211156108cb576008546106e191610c88565b4211610896576106f760ff838701541615610cab565b33875260028852828720908154801561085e57600283019182549160ff8316610829578651908c8201898152604435898401523360601b606084015260548352608083019383851060018060401b03861117610818575083895282519020036107e257505092856003899a9b9460019a97948b7f1b350cf204124e01b4dd0942b876ec748f97c4df686b0a6ab178dbe11f2f4b009860ff19161790550155600287016107a4878254610c88565b9055848a528252808920338a52825284818a2055519384523393a3015460095411156107d3575b506001815580f35b6107dc90610d80565b386107cb565b9071125b9d985b1a590818dbdb5b5a5d1b595b9d60721b60c46064938e62461bcd60e51b85526084820152601260a48201520152fd5b634e487b7160e01b8e52604189528dfd5b865162461bcd60e51b81528087018d90526010818401526f105b1c9958591e481c995d99585b195960821b6044820152606490fd5b845162461bcd60e51b81528085018b905260138184015272139bc818dbdb5b5a5d1b595b9d08199bdd5b99606a1b6044820152606490fd5b60129088606494519362461bcd60e51b85528401528201527114995d99585b081c1a185cd948195b99195960721b6044820152fd5b5060199088606494519362461bcd60e51b855284015282015278436f6d6d6974207068617365207374696c6c2061637469766560381b6044820152fd5b50346101a457816003193601126101a45760015490516001600160a01b039091168152602090f35b50829034610220576020366003190112610220578060a09383358152600360205220600181015492600282015492600560ff600385015493850154169301549381519586526020860152840152151560608301526080820152f35b50346101a457816003193601126101a457602090600a549051908152f35b50346101a45760208060031936011261022057833583526005815281832092825192838386549182815201908196845284842090845b86828210610a655750505050849003601f01601f19168401956001600160401b03871185881017610a52575085815282865292518583018190528594938501939290915b828110610a3257505050500390f35b83516001600160a01b031685528695509381019392810192600101610a23565b634e487b7160e01b835260419052602482fd5b83546001600160a01b0316855290930192600192830192016109df565b50346101a45760203660031901126101a45760809181906001600160a01b03610aa9610c0e565b168152600260205220805491600182015491600360ff60028301541691015492825194855260208501521515908301526060820152f35b82346105a757806003193601126105a757610af9610d31565b600180546001600160a01b0319811690915581906001600160a01b03166000805160206110328339815191528280a380f35b8284346101a45760803660031901126101a457610b46610d31565b35600755602435600855604435600955606435600a5580f35b50346101a457816003193601126101a4576020906007549051908152f35b509190346105a75760203660031901126105a7578290823581526003602052209060ff818301541615610bb95760208360038401549051908152f35b606490602084519162461bcd60e51b83528201526013602482015272149bdd5b99081b9bdd08199a5b985b1a5e9959606a1b6044820152fd5b8390346101a457816003193601126101a4576020906009548152f35b600435906001600160a01b0382168203610c2457565b600080fd5b8054821015610c415760005260206000200190600090565b634e487b7160e01b600052603260045260246000fd5b60e081019081106001600160401b03821117610c7257604052565b634e487b7160e01b600052604160045260246000fd5b91908201809211610c9557565b634e487b7160e01b600052601160045260246000fd5b15610cb257565b60405162461bcd60e51b8152602060048201526017602482015276149bdd5b9908185b1c9958591e4818dbdb5c1b195d1959604a1b6044820152606490fd5b15610cf857565b60405162461bcd60e51b8152602060048201526011602482015270105b1c9958591e48199a5b985b1a5e9959607a1b6044820152606490fd5b6001546001600160a01b03163303610d4557565b60405163118cdaa760e01b8152336004820152602490fd5b600260005414610d6e576002600055565b604051633ee5aeb560e01b8152600490fd5b8060005260036020526040600020600481015492610da160ff851615610cf1565b600060c0604051610db181610c57565b8281528260208201528260408201528260608201528260808201528260a0820152015260405190610de182610c57565b4382524260208301524460408301524560608301524560808301524860a08301524160c0830152836000526003602052610e82610e6e610e63610e58610e4d610e42610e37600260406000200154895190610c88565b602089015190610c88565b604088015190610c88565b606087015190610c88565b608086015190610c88565b60a085015190610c88565b60c08401516001600160a01b031690610c88565b926000935b85600052600560205260406000208054861015610ef057600191610ec6610eb188610ee894610c29565b858060a01b0391549060031b1c168092610c88565b9088600052600460205260406000209060005260205260406000205490610c88565b940193610e87565b50610f0c919450610f078691979493974290610c88565b610c88565b926000194301438111610c95576001194301438111610c9557600219430191438311610c9557604051966020880152406040870152406060860152406080850152608084528360a081011060018060401b0360a086011117610c72577fef96d6aec820d450f000adc62090e956f3335bfa69c59c376fcc43cfd6d683f6604060a08660e09660018a96847f8952e36e2a718e16caca6c19548cfb9fa1a6b5afbf9c61b4f140014a91430c029b01865281845160208601209384600384015560ff19161760048201550154908383015260c082015201a260405190805182526020810151602083015260408101516040830152606081015160608301526080810151608083015260a081015160a083015260c060018060a01b039101511660c0820152a256fe8be0079c531659141344cd1fd0a4f28419497f9722a3daafe3b4186f6b6457e0a264697066735822122099cb89417babc0c9e75343f0b5aab13c638f893e0b305640e0beb8692cdd15ad64736f6c63430008180033","opcodes":"PUSH1 0x80 DUP1 PUSH1 0x40 MSTORE CALLVALUE PUSH2 0x9A JUMPI PUSH1 0x1 PUSH1 0x0 SSTORE CALLER ISZERO PUSH2 0x84 JUMPI PUSH1 0x1 DUP1 SLOAD CALLER PUSH1 0x1 PUSH1 0x1 PUSH1 0xA0 SHL SUB NOT DUP3 AND DUP2 OR SWAP1 SWAP3 SSTORE PUSH1 0x40 MLOAD SWAP2 SWAP1 PUSH1 0x1 PUSH1 0x1 PUSH1 0xA0 SHL SUB AND PUSH32 0x8BE0079C531659141344CD1FD0A4F28419497F9722A3DAAFE3B4186F6B6457E0 PUSH1 0x0 DUP1 LOG3 PUSH2 0xE10 PUSH1 0x7 SSTORE PUSH2 0x708 PUSH1 0x8 SSTORE PUSH1 0x3 PUSH1 0x9 SSTORE PUSH1 0x64 PUSH1 0xA SSTORE PUSH1 0x1 PUSH1 0x6 SSTORE PUSH2 0x1087 SWAP1 DUP2 PUSH2 0xA0 DUP3 CODECOPY RETURN JUMPDEST PUSH4 0x1E4FBDF7 PUSH1 0xE0 SHL DUP2 MSTORE PUSH1 0x0 PUSH1 0x4 DUP3 ADD MSTORE PUSH1 0x24 SWAP1 REVERT JUMPDEST PUSH1 0x0 DUP1 REVERT INVALID PUSH1 0x80 PUSH1 0x40 SWAP1 DUP1 DUP3 MSTORE PUSH1 0x4 SWAP2 DUP3 CALLDATASIZE LT ISZERO PUSH2 0x17 JUMPI PUSH1 0x0 DUP1 REVERT JUMPDEST PUSH1 0x0 SWAP2 DUP3 CALLDATALOAD PUSH1 0xE0 SHR SWAP1 DUP2 PUSH4 0x2BAE8236 EQ PUSH2 0xBF2 JUMPI POP DUP1 PUSH4 0x3B55E362 EQ PUSH2 0xB7D JUMPI DUP1 PUSH4 0x483B4039 EQ PUSH2 0xB5F JUMPI DUP1 PUSH4 0x6CA804A7 EQ PUSH2 0xB2B JUMPI DUP1 PUSH4 0x715018A6 EQ PUSH2 0xAE0 JUMPI DUP1 PUSH4 0x7B43A8E6 EQ PUSH2 0xA82 JUMPI DUP1 PUSH4 0x837B4079 EQ PUSH2 0x9A9 JUMPI DUP1 PUSH4 0x86FA5063 EQ PUSH2 0x98B JUMPI DUP1 PUSH4 0x88C3FFB0 EQ PUSH2 0x930 JUMPI DUP1 PUSH4 0x8DA5CB5B EQ PUSH2 0x908 JUMPI DUP1 PUSH4 0x9CBE5EFD EQ PUSH2 0x679 JUMPI DUP1 PUSH4 0xA154FC6B EQ PUSH2 0x697 JUMPI DUP1 PUSH4 0xC142E495 EQ PUSH2 0x679 JUMPI DUP1 PUSH4 0xC59051CD EQ PUSH2 0x62B JUMPI DUP1 PUSH4 0xDD03C6F2 EQ PUSH2 0x5C8 JUMPI DUP1 PUSH4 0xDFC75372 EQ PUSH2 0x5AA JUMPI DUP1 PUSH4 0xE6A3D9DC EQ PUSH2 0x306 JUMPI DUP1 PUSH4 0xE7B6ECFF EQ PUSH2 0x26D JUMPI DUP1 PUSH4 0xED54890D EQ PUSH2 0x224 JUMPI DUP1 PUSH4 0xF2FDE38B EQ PUSH2 0x1A8 JUMPI PUSH4 0xF8413B07 EQ PUSH2 0x10C JUMPI PUSH1 0x0 DUP1 REVERT JUMPDEST CALLVALUE PUSH2 0x1A4 JUMPI DUP2 PUSH1 0x3 NOT CALLDATASIZE ADD SLT PUSH2 0x1A4 JUMPI PUSH2 0x124 PUSH2 0xD5D JUMP JUMPDEST PUSH1 0x6 SLOAD SWAP1 PUSH1 0x0 NOT DUP3 EQ PUSH2 0x191 JUMPI PUSH1 0x1 SWAP1 PUSH1 0x20 SWAP5 DUP3 DUP5 ADD PUSH1 0x6 SSTORE DUP4 DUP6 MSTORE PUSH1 0x3 DUP7 MSTORE DUP2 DUP6 KECCAK256 DUP5 DUP2 SSTORE PUSH2 0x156 PUSH1 0x7 SLOAD TIMESTAMP PUSH2 0xC88 JUMP JUMPDEST PUSH1 0x5 DUP3 ADD SSTORE ADD DUP1 SLOAD PUSH1 0xFF NOT AND SWAP1 SSTORE MLOAD SWAP3 CALLER DUP4 PUSH32 0x28F521CF7ABD0044CBA5BB040C5217FF69A4E5865F5262905018698E68FE7D00 DUP4 DUP1 LOG3 SSTORE DUP2 MSTORE RETURN JUMPDEST PUSH4 0x4E487B71 PUSH1 0xE0 SHL DUP4 MSTORE PUSH1 0x11 DUP5 MSTORE PUSH1 0x24 DUP4 REVERT JUMPDEST POP DUP1 REVERT JUMPDEST POP DUP3 CALLVALUE PUSH2 0x220 JUMPI PUSH1 0x20 CALLDATASIZE PUSH1 0x3 NOT ADD SLT PUSH2 0x220 JUMPI PUSH2 0x1C3 PUSH2 0xC0E JUMP JUMPDEST SWAP1 PUSH2 0x1CC PUSH2 0xD31 JUMP JUMPDEST PUSH1 0x1 PUSH1 0x1 PUSH1 0xA0 SHL SUB SWAP2 DUP3 AND SWAP3 DUP4 ISZERO PUSH2 0x20A JUMPI POP POP PUSH1 0x1 DUP1 SLOAD PUSH1 0x1 PUSH1 0x1 PUSH1 0xA0 SHL SUB NOT DUP2 AND DUP5 OR SWAP1 SWAP2 SSTORE AND PUSH1 0x0 DUP1 MLOAD PUSH1 0x20 PUSH2 0x1032 DUP4 CODECOPY DUP2 MLOAD SWAP2 MSTORE DUP4 DUP1 LOG3 DUP1 RETURN JUMPDEST MLOAD PUSH4 0x1E4FBDF7 PUSH1 0xE0 SHL DUP2 MSTORE SWAP1 DUP2 ADD DUP5 SWAP1 MSTORE PUSH1 0x24 SWAP1 REVERT JUMPDEST DUP3 DUP1 REVERT JUMPDEST POP DUP3 CALLVALUE PUSH2 0x220 JUMPI DUP2 PUSH1 0x3 NOT CALLDATASIZE ADD SLT PUSH2 0x220 JUMPI PUSH1 0x24 CALLDATALOAD PUSH1 0x1 PUSH1 0x1 PUSH1 0xA0 SHL SUB DUP2 AND SWAP2 SWAP1 DUP3 SWAP1 SUB PUSH2 0x269 JUMPI SWAP3 DUP3 SWAP2 DUP5 PUSH1 0x20 SWAP6 CALLDATALOAD DUP4 MSTORE DUP6 MSTORE DUP3 DUP3 KECCAK256 SWAP1 DUP3 MSTORE DUP5 MSTORE KECCAK256 SLOAD SWAP1 MLOAD SWAP1 DUP2 MSTORE RETURN JUMPDEST DUP4 DUP1 REVERT JUMPDEST POP DUP3 CALLVALUE PUSH2 0x220 JUMPI PUSH1 0x20 CALLDATASIZE PUSH1 0x3 NOT ADD SLT PUSH2 0x220 JUMPI DUP1 CALLDATALOAD SWAP2 PUSH2 0x28B PUSH2 0xD31 JUMP JUMPDEST DUP3 DUP5 MSTORE PUSH1 0x3 PUSH1 0x20 MSTORE PUSH2 0x2B6 PUSH1 0x5 DUP3 DUP7 KECCAK256 PUSH2 0x2AB PUSH1 0xFF DUP7 DUP4 ADD SLOAD AND ISZERO PUSH2 0xCF1 JUMP JUMPDEST ADD SLOAD PUSH1 0x8 SLOAD SWAP1 PUSH2 0xC88 JUMP JUMPDEST TIMESTAMP GT ISZERO PUSH2 0x2CA JUMPI DUP4 PUSH2 0x2C7 DUP5 PUSH2 0xD80 JUMP JUMPDEST DUP1 RETURN JUMPDEST SWAP1 PUSH1 0x20 PUSH1 0x64 SWAP3 MLOAD SWAP2 PUSH3 0x461BCD PUSH1 0xE5 SHL DUP4 MSTORE DUP3 ADD MSTORE PUSH1 0x16 PUSH1 0x24 DUP3 ADD MSTORE PUSH22 0x14995D99585B081C1A185CD9481B9BDD08195B991959 PUSH1 0x52 SHL PUSH1 0x44 DUP3 ADD MSTORE REVERT JUMPDEST POP SWAP1 CALLVALUE PUSH2 0x5A7 JUMPI DUP2 PUSH1 0x3 NOT CALLDATASIZE ADD SLT PUSH2 0x5A7 JUMPI DUP3 CALLDATALOAD SWAP3 PUSH1 0x24 SWAP4 DUP5 CALLDATALOAD SWAP2 PUSH2 0x329 PUSH2 0xD5D JUMP JUMPDEST DUP2 DUP5 MSTORE PUSH1 0x3 SWAP5 PUSH1 0x20 SWAP2 PUSH1 0x3 DUP4 MSTORE DUP2 DUP7 KECCAK256 PUSH1 0x5 SWAP8 PUSH1 0x5 DUP3 ADD SLOAD TIMESTAMP GT PUSH2 0x570 JUMPI PUSH2 0x357 PUSH1 0xFF DUP5 DUP5 ADD SLOAD AND ISZERO PUSH2 0xCAB JUMP JUMPDEST DUP6 DUP9 MSTORE PUSH1 0x5 DUP6 MSTORE DUP4 DUP9 KECCAK256 SLOAD PUSH1 0xA SLOAD GT ISZERO PUSH2 0x533 JUMPI DUP8 DUP9 JUMPDEST DUP8 DUP11 MSTORE DUP11 DUP8 MSTORE DUP6 DUP11 KECCAK256 DUP1 SLOAD DUP3 LT ISZERO PUSH2 0x522 JUMPI DUP2 PUSH2 0x38A SWAP2 PUSH2 0xC29 JUMP JUMPDEST SWAP1 SLOAD SWAP1 DUP5 SHL SHR PUSH1 0x1 PUSH1 0x1 PUSH1 0xA0 SHL SUB AND CALLER EQ PUSH2 0x3A7 JUMPI PUSH1 0x1 ADD PUSH2 0x36E JUMP JUMPDEST POP POP POP SWAP1 SWAP2 SWAP3 SWAP4 SWAP5 SWAP6 SWAP7 POP PUSH1 0x1 JUMPDEST PUSH2 0x4D7 JUMPI DUP5 DUP8 MSTORE PUSH1 0x5 DUP5 MSTORE DUP3 DUP8 KECCAK256 DUP1 SLOAD SWAP1 PUSH1 0x1 PUSH1 0x40 SHL DUP3 LT ISZERO PUSH2 0x4C5 JUMPI DUP2 PUSH2 0x3E4 SWAP2 PUSH1 0x1 DUP1 SWAP6 SWAP5 ADD DUP2 SSTORE PUSH2 0xC29 JUMP JUMPDEST DUP2 SLOAD SWAP1 PUSH1 0x3 SHL SWAP1 CALLER DUP3 SHL SWAP2 DUP6 DUP1 PUSH1 0xA0 SHL SUB SWAP1 SHL NOT AND OR SWAP1 SSTORE ADD DUP1 SLOAD SWAP1 PUSH1 0x1 DUP3 ADD DUP1 SWAP3 GT PUSH2 0x4B3 JUMPI SSTORE DUP2 MLOAD SWAP1 PUSH1 0x80 DUP3 ADD SWAP1 PUSH1 0x1 PUSH1 0x1 PUSH1 0x40 SHL SUB DUP3 GT DUP4 DUP4 LT OR PUSH2 0x4A1 JUMPI POP SWAP1 DUP3 SWAP2 PUSH32 0x6459FFC8E2E6AEA1E7A6161F54CA96E0B0C83DB7191F26CCF5C33E14F7F178C5 SWAP5 SWAP4 MSTORE DUP6 DUP2 MSTORE PUSH1 0x3 DUP4 DUP3 ADD TIMESTAMP DUP2 MSTORE DUP4 DUP4 ADD DUP10 DUP2 MSTORE PUSH1 0x60 DUP5 ADD SWAP2 DUP11 DUP4 MSTORE CALLER DUP12 MSTORE PUSH1 0x2 DUP8 MSTORE DUP6 DUP12 KECCAK256 SWAP5 MLOAD DUP6 SSTORE MLOAD PUSH1 0x1 DUP6 ADD SSTORE PUSH1 0x2 DUP5 ADD SWAP1 MLOAD ISZERO ISZERO PUSH1 0xFF DUP1 NOT DUP4 SLOAD AND SWAP2 AND OR SWAP1 SSTORE MLOAD SWAP2 ADD SSTORE MLOAD SWAP4 DUP5 MSTORE CALLER SWAP4 LOG3 PUSH1 0x1 DUP2 SSTORE DUP1 RETURN JUMPDEST PUSH4 0x4E487B71 PUSH1 0xE0 SHL DUP9 MSTORE PUSH1 0x41 SWAP1 MSTORE DUP8 DUP8 REVERT JUMPDEST PUSH4 0x4E487B71 PUSH1 0xE0 SHL DUP9 MSTORE PUSH1 0x11 DUP4 MSTORE DUP9 DUP9 REVERT JUMPDEST PUSH4 0x4E487B71 PUSH1 0xE0 SHL DUP10 MSTORE PUSH1 0x41 DUP5 MSTORE DUP10 DUP10 REVERT JUMPDEST POP PUSH1 0x21 DUP8 DUP5 PUSH1 0x84 SWAP5 MLOAD SWAP4 PUSH3 0x461BCD PUSH1 0xE5 SHL DUP6 MSTORE DUP5 ADD MSTORE DUP3 ADD MSTORE PUSH32 0x416C726561647920636F6E747269627574656420746F207468697320726F756E PUSH1 0x44 DUP3 ADD MSTORE PUSH1 0x19 PUSH1 0xFA SHL PUSH1 0x64 DUP3 ADD MSTORE REVERT JUMPDEST POP POP SWAP2 SWAP3 SWAP4 SWAP5 SWAP6 SWAP7 SWAP8 SWAP9 POP POP PUSH2 0x3B5 JUMP JUMPDEST DUP4 MLOAD PUSH3 0x461BCD PUSH1 0xE5 SHL DUP2 MSTORE DUP1 DUP5 ADD DUP7 SWAP1 MSTORE PUSH1 0x18 DUP2 DUP13 ADD MSTORE PUSH24 0x13585E0818DBDB9D1C9A589D5D1BDC9CC81C995858DA1959 PUSH1 0x42 SHL PUSH1 0x44 DUP3 ADD MSTORE PUSH1 0x64 SWAP1 REVERT JUMPDEST DUP4 MLOAD PUSH3 0x461BCD PUSH1 0xE5 SHL DUP2 MSTORE DUP1 DUP5 ADD DUP7 SWAP1 MSTORE PUSH1 0x12 DUP2 DUP13 ADD MSTORE PUSH18 0x10DBDB5B5A5D081C1A185CD948195B991959 PUSH1 0x72 SHL PUSH1 0x44 DUP3 ADD MSTORE PUSH1 0x64 SWAP1 REVERT JUMPDEST DUP1 REVERT JUMPDEST POP CALLVALUE PUSH2 0x1A4 JUMPI DUP2 PUSH1 0x3 NOT CALLDATASIZE ADD SLT PUSH2 0x1A4 JUMPI PUSH1 0x20 SWAP1 PUSH1 0x8 SLOAD SWAP1 MLOAD SWAP1 DUP2 MSTORE RETURN JUMPDEST POP DUP3 SWAP1 CALLVALUE PUSH2 0x220 JUMPI PUSH1 0x20 CALLDATASIZE PUSH1 0x3 NOT ADD SLT PUSH2 0x220 JUMPI DUP1 PUSH1 0xC0 SWAP4 DUP4 CALLDATALOAD DUP2 MSTORE PUSH1 0x3 PUSH1 0x20 MSTORE KECCAK256 DUP1 SLOAD SWAP3 PUSH1 0x1 DUP3 ADD SLOAD SWAP3 PUSH1 0x2 DUP4 ADD SLOAD SWAP1 PUSH1 0x5 PUSH1 0xFF PUSH1 0x3 DUP7 ADD SLOAD SWAP5 DUP7 ADD SLOAD AND SWAP5 ADD SLOAD SWAP5 DUP2 MLOAD SWAP7 DUP8 MSTORE PUSH1 0x20 DUP8 ADD MSTORE DUP6 ADD MSTORE PUSH1 0x60 DUP5 ADD MSTORE ISZERO ISZERO PUSH1 0x80 DUP4 ADD MSTORE PUSH1 0xA0 DUP3 ADD MSTORE RETURN JUMPDEST POP SWAP1 CALLVALUE PUSH2 0x5A7 JUMPI DUP2 PUSH1 0x3 NOT CALLDATASIZE ADD SLT PUSH2 0x5A7 JUMPI PUSH1 0x24 CALLDATALOAD SWAP3 CALLDATALOAD DUP2 MSTORE PUSH1 0x5 PUSH1 0x20 MSTORE DUP2 DUP2 KECCAK256 SWAP1 DUP2 SLOAD DUP5 LT ISZERO PUSH2 0x5A7 JUMPI POP PUSH1 0x20 SWAP3 PUSH2 0x663 SWAP2 PUSH2 0xC29 JUMP JUMPDEST SWAP1 SLOAD SWAP2 MLOAD SWAP2 PUSH1 0x1 DUP1 PUSH1 0xA0 SHL SUB SWAP2 PUSH1 0x3 SHL SHR AND DUP2 MSTORE RETURN JUMPDEST POP CALLVALUE PUSH2 0x1A4 JUMPI DUP2 PUSH1 0x3 NOT CALLDATASIZE ADD SLT PUSH2 0x1A4 JUMPI PUSH1 0x20 SWAP1 PUSH1 0x6 SLOAD SWAP1 MLOAD SWAP1 DUP2 MSTORE RETURN JUMPDEST POP CALLVALUE PUSH2 0x1A4 JUMPI PUSH1 0x60 CALLDATASIZE PUSH1 0x3 NOT ADD SLT PUSH2 0x1A4 JUMPI DUP3 CALLDATALOAD SWAP1 PUSH1 0x24 SWAP1 DUP2 CALLDATALOAD SWAP1 PUSH2 0x6BA PUSH2 0xD5D JUMP JUMPDEST DUP4 DUP6 MSTORE PUSH1 0x20 SWAP6 PUSH1 0x3 DUP8 MSTORE DUP2 DUP7 KECCAK256 SWAP4 PUSH1 0x5 DUP6 ADD SLOAD DUP1 TIMESTAMP GT ISZERO PUSH2 0x8CB JUMPI PUSH1 0x8 SLOAD PUSH2 0x6E1 SWAP2 PUSH2 0xC88 JUMP JUMPDEST TIMESTAMP GT PUSH2 0x896 JUMPI PUSH2 0x6F7 PUSH1 0xFF DUP4 DUP8 ADD SLOAD AND ISZERO PUSH2 0xCAB JUMP JUMPDEST CALLER DUP8 MSTORE PUSH1 0x2 DUP9 MSTORE DUP3 DUP8 KECCAK256 SWAP1 DUP2 SLOAD DUP1 ISZERO PUSH2 0x85E JUMPI PUSH1 0x2 DUP4 ADD SWAP2 DUP3 SLOAD SWAP2 PUSH1 0xFF DUP4 AND PUSH2 0x829 JUMPI DUP7 MLOAD SWAP1 DUP13 DUP3 ADD DUP10 DUP2 MSTORE PUSH1 0x44 CALLDATALOAD DUP10 DUP5 ADD MSTORE CALLER PUSH1 0x60 SHL PUSH1 0x60 DUP5 ADD MSTORE PUSH1 0x54 DUP4 MSTORE PUSH1 0x80 DUP4 ADD SWAP4 DUP4 DUP6 LT PUSH1 0x1 DUP1 PUSH1 0x40 SHL SUB DUP7 GT OR PUSH2 0x818 JUMPI POP DUP4 DUP10 MSTORE DUP3 MLOAD SWAP1 KECCAK256 SUB PUSH2 0x7E2 JUMPI POP POP SWAP3 DUP6 PUSH1 0x3 DUP10 SWAP11 SWAP12 SWAP5 PUSH1 0x1 SWAP11 SWAP8 SWAP5 DUP12 PUSH32 0x1B350CF204124E01B4DD0942B876EC748F97C4DF686B0A6AB178DBE11F2F4B00 SWAP9 PUSH1 0xFF NOT AND OR SWAP1 SSTORE ADD SSTORE PUSH1 0x2 DUP8 ADD PUSH2 0x7A4 DUP8 DUP3 SLOAD PUSH2 0xC88 JUMP JUMPDEST SWAP1 SSTORE DUP5 DUP11 MSTORE DUP3 MSTORE DUP1 DUP10 KECCAK256 CALLER DUP11 MSTORE DUP3 MSTORE DUP5 DUP2 DUP11 KECCAK256 SSTORE MLOAD SWAP4 DUP5 MSTORE CALLER SWAP4 LOG3 ADD SLOAD PUSH1 0x9 SLOAD GT ISZERO PUSH2 0x7D3 JUMPI JUMPDEST POP PUSH1 0x1 DUP2 SSTORE DUP1 RETURN JUMPDEST PUSH2 0x7DC SWAP1 PUSH2 0xD80 JUMP JUMPDEST CODESIZE PUSH2 0x7CB JUMP JUMPDEST SWAP1 PUSH18 0x125B9D985B1A590818DBDB5B5A5D1B595B9D PUSH1 0x72 SHL PUSH1 0xC4 PUSH1 0x64 SWAP4 DUP15 PUSH3 0x461BCD PUSH1 0xE5 SHL DUP6 MSTORE PUSH1 0x84 DUP3 ADD MSTORE PUSH1 0x12 PUSH1 0xA4 DUP3 ADD MSTORE ADD MSTORE REVERT JUMPDEST PUSH4 0x4E487B71 PUSH1 0xE0 SHL DUP15 MSTORE PUSH1 0x41 DUP10 MSTORE DUP14 REVERT JUMPDEST DUP7 MLOAD PUSH3 0x461BCD PUSH1 0xE5 SHL DUP2 MSTORE DUP1 DUP8 ADD DUP14 SWAP1 MSTORE PUSH1 0x10 DUP2 DUP5 ADD MSTORE PUSH16 0x105B1C9958591E481C995D99585B1959 PUSH1 0x82 SHL PUSH1 0x44 DUP3 ADD MSTORE PUSH1 0x64 SWAP1 REVERT JUMPDEST DUP5 MLOAD PUSH3 0x461BCD PUSH1 0xE5 SHL DUP2 MSTORE DUP1 DUP6 ADD DUP12 SWAP1 MSTORE PUSH1 0x13 DUP2 DUP5 ADD MSTORE PUSH19 0x139BC818DBDB5B5A5D1B595B9D08199BDD5B99 PUSH1 0x6A SHL PUSH1 0x44 DUP3 ADD MSTORE PUSH1 0x64 SWAP1 REVERT JUMPDEST PUSH1 0x12 SWAP1 DUP9 PUSH1 0x64 SWAP5 MLOAD SWAP4 PUSH3 0x461BCD PUSH1 0xE5 SHL DUP6 MSTORE DUP5 ADD MSTORE DUP3 ADD MSTORE PUSH18 0x14995D99585B081C1A185CD948195B991959 PUSH1 0x72 SHL PUSH1 0x44 DUP3 ADD MSTORE REVERT JUMPDEST POP PUSH1 0x19 SWAP1 DUP9 PUSH1 0x64 SWAP5 MLOAD SWAP4 PUSH3 0x461BCD PUSH1 0xE5 SHL DUP6 MSTORE DUP5 ADD MSTORE DUP3 ADD MSTORE PUSH25 0x436F6D6D6974207068617365207374696C6C20616374697665 PUSH1 0x38 SHL PUSH1 0x44 DUP3 ADD MSTORE REVERT JUMPDEST POP CALLVALUE PUSH2 0x1A4 JUMPI DUP2 PUSH1 0x3 NOT CALLDATASIZE ADD SLT PUSH2 0x1A4 JUMPI PUSH1 0x1 SLOAD SWAP1 MLOAD PUSH1 0x1 PUSH1 0x1 PUSH1 0xA0 SHL SUB SWAP1 SWAP2 AND DUP2 MSTORE PUSH1 0x20 SWAP1 RETURN JUMPDEST POP DUP3 SWAP1 CALLVALUE PUSH2 0x220 JUMPI PUSH1 0x20 CALLDATASIZE PUSH1 0x3 NOT ADD SLT PUSH2 0x220 JUMPI DUP1 PUSH1 0xA0 SWAP4 DUP4 CALLDATALOAD DUP2 MSTORE PUSH1 0x3 PUSH1 0x20 MSTORE KECCAK256 PUSH1 0x1 DUP2 ADD SLOAD SWAP3 PUSH1 0x2 DUP3 ADD SLOAD SWAP3 PUSH1 0x5 PUSH1 0xFF PUSH1 0x3 DUP6 ADD SLOAD SWAP4 DUP6 ADD SLOAD AND SWAP4 ADD SLOAD SWAP4 DUP2 MLOAD SWAP6 DUP7 MSTORE PUSH1 0x20 DUP7 ADD MSTORE DUP5 ADD MSTORE ISZERO ISZERO PUSH1 0x60 DUP4 ADD MSTORE PUSH1 0x80 DUP3 ADD MSTORE RETURN JUMPDEST POP CALLVALUE PUSH2 0x1A4 JUMPI DUP2 PUSH1 0x3 NOT CALLDATASIZE ADD SLT PUSH2 0x1A4 JUMPI PUSH1 0x20 SWAP1 PUSH1 0xA SLOAD SWAP1 MLOAD SWAP1 DUP2 MSTORE RETURN JUMPDEST POP CALLVALUE PUSH2 0x1A4 JUMPI PUSH1 0x20 DUP1 PUSH1 0x3 NOT CALLDATASIZE ADD SLT PUSH2 0x220 JUMPI DUP4 CALLDATALOAD DUP4 MSTORE PUSH1 0x5 DUP2 MSTORE DUP2 DUP4 KECCAK256 SWAP3 DUP3 MLOAD SWAP3 DUP4 DUP4 DUP7 SLOAD SWAP2 DUP3 DUP2 MSTORE ADD SWAP1 DUP2 SWAP7 DUP5 MSTORE DUP5 DUP5 KECCAK256 SWAP1 DUP5 JUMPDEST DUP7 DUP3 DUP3 LT PUSH2 0xA65 JUMPI POP POP POP POP DUP5 SWAP1 SUB PUSH1 0x1F ADD PUSH1 0x1F NOT AND DUP5 ADD SWAP6 PUSH1 0x1 PUSH1 0x1 PUSH1 0x40 SHL SUB DUP8 GT DUP6 DUP9 LT OR PUSH2 0xA52 JUMPI POP DUP6 DUP2 MSTORE DUP3 DUP7 MSTORE SWAP3 MLOAD DUP6 DUP4 ADD DUP2 SWAP1 MSTORE DUP6 SWAP5 SWAP4 DUP6 ADD SWAP4 SWAP3 SWAP1 SWAP2 JUMPDEST DUP3 DUP2 LT PUSH2 0xA32 JUMPI POP POP POP POP SUB SWAP1 RETURN JUMPDEST DUP4 MLOAD PUSH1 0x1 PUSH1 0x1 PUSH1 0xA0 SHL SUB AND DUP6 MSTORE DUP7 SWAP6 POP SWAP4 DUP2 ADD SWAP4 SWAP3 DUP2 ADD SWAP3 PUSH1 0x1 ADD PUSH2 0xA23 JUMP JUMPDEST PUSH4 0x4E487B71 PUSH1 0xE0 SHL DUP4 MSTORE PUSH1 0x41 SWAP1 MSTORE PUSH1 0x24 DUP3 REVERT JUMPDEST DUP4 SLOAD PUSH1 0x1 PUSH1 0x1 PUSH1 0xA0 SHL SUB AND DUP6 MSTORE SWAP1 SWAP4 ADD SWAP3 PUSH1 0x1 SWAP3 DUP4 ADD SWAP3 ADD PUSH2 0x9DF JUMP JUMPDEST POP CALLVALUE PUSH2 0x1A4 JUMPI PUSH1 0x20 CALLDATASIZE PUSH1 0x3 NOT ADD SLT PUSH2 0x1A4 JUMPI PUSH1 0x80 SWAP2 DUP2 SWAP1 PUSH1 0x1 PUSH1 0x1 PUSH1 0xA0 SHL SUB PUSH2 0xAA9 PUSH2 0xC0E JUMP JUMPDEST AND DUP2 MSTORE PUSH1 0x2 PUSH1 0x20 MSTORE KECCAK256 DUP1 SLOAD SWAP2 PUSH1 0x1 DUP3 ADD SLOAD SWAP2 PUSH1 0x3 PUSH1 0xFF PUSH1 0x2 DUP4 ADD SLOAD AND SWAP2 ADD SLOAD SWAP3 DUP3 MLOAD SWAP5 DUP6 MSTORE PUSH1 0x20 DUP6 ADD MSTORE ISZERO ISZERO SWAP1 DUP4 ADD MSTORE PUSH1 0x60 DUP3 ADD MSTORE RETURN JUMPDEST DUP3 CALLVALUE PUSH2 0x5A7 JUMPI DUP1 PUSH1 0x3 NOT CALLDATASIZE ADD SLT PUSH2 0x5A7 JUMPI PUSH2 0xAF9 PUSH2 0xD31 JUMP JUMPDEST PUSH1 0x1 DUP1 SLOAD PUSH1 0x1 PUSH1 0x1 PUSH1 0xA0 SHL SUB NOT DUP2 AND SWAP1 SWAP2 SSTORE DUP2 SWAP1 PUSH1 0x1 PUSH1 0x1 PUSH1 0xA0 SHL SUB AND PUSH1 0x0 DUP1 MLOAD PUSH1 0x20 PUSH2 0x1032 DUP4 CODECOPY DUP2 MLOAD SWAP2 MSTORE DUP3 DUP1 LOG3 DUP1 RETURN JUMPDEST DUP3 DUP5 CALLVALUE PUSH2 0x1A4 JUMPI PUSH1 0x80 CALLDATASIZE PUSH1 0x3 NOT ADD SLT PUSH2 0x1A4 JUMPI PUSH2 0xB46 PUSH2 0xD31 JUMP JUMPDEST CALLDATALOAD PUSH1 0x7 SSTORE PUSH1 0x24 CALLDATALOAD PUSH1 0x8 SSTORE PUSH1 0x44 CALLDATALOAD PUSH1 0x9 SSTORE PUSH1 0x64 CALLDATALOAD PUSH1 0xA SSTORE DUP1 RETURN JUMPDEST POP CALLVALUE PUSH2 0x1A4 JUMPI DUP2 PUSH1 0x3 NOT CALLDATASIZE ADD SLT PUSH2 0x1A4 JUMPI PUSH1 0x20 SWAP1 PUSH1 0x7 SLOAD SWAP1 MLOAD SWAP1 DUP2 MSTORE RETURN JUMPDEST POP SWAP2 SWAP1 CALLVALUE PUSH2 0x5A7 JUMPI PUSH1 0x20 CALLDATASIZE PUSH1 0x3 NOT ADD SLT PUSH2 0x5A7 JUMPI DUP3 SWAP1 DUP3 CALLDATALOAD DUP2 MSTORE PUSH1 0x3 PUSH1 0x20 MSTORE KECCAK256 SWAP1 PUSH1 0xFF DUP2 DUP4 ADD SLOAD AND ISZERO PUSH2 0xBB9 JUMPI PUSH1 0x20 DUP4 PUSH1 0x3 DUP5 ADD SLOAD SWAP1 MLOAD SWAP1 DUP2 MSTORE RETURN JUMPDEST PUSH1 0x64 SWAP1 PUSH1 0x20 DUP5 MLOAD SWAP2 PUSH3 0x461BCD PUSH1 0xE5 SHL DUP4 MSTORE DUP3 ADD MSTORE PUSH1 0x13 PUSH1 0x24 DUP3 ADD MSTORE PUSH19 0x149BDD5B99081B9BDD08199A5B985B1A5E9959 PUSH1 0x6A SHL PUSH1 0x44 DUP3 ADD MSTORE REVERT JUMPDEST DUP4 SWAP1 CALLVALUE PUSH2 0x1A4 JUMPI DUP2 PUSH1 0x3 NOT CALLDATASIZE ADD SLT PUSH2 0x1A4 JUMPI PUSH1 0x20 SWAP1 PUSH1 0x9 SLOAD DUP2 MSTORE RETURN JUMPDEST PUSH1 0x4 CALLDATALOAD SWAP1 PUSH1 0x1 PUSH1 0x1 PUSH1 0xA0 SHL SUB DUP3 AND DUP3 SUB PUSH2 0xC24 JUMPI JUMP JUMPDEST PUSH1 0x0 DUP1 REVERT JUMPDEST DUP1 SLOAD DUP3 LT ISZERO PUSH2 0xC41 JUMPI PUSH1 0x0 MSTORE PUSH1 0x20 PUSH1 0x0 KECCAK256 ADD SWAP1 PUSH1 0x0 SWAP1 JUMP JUMPDEST PUSH4 0x4E487B71 PUSH1 0xE0 SHL PUSH1 0x0 MSTORE PUSH1 0x32 PUSH1 0x4 MSTORE PUSH1 0x24 PUSH1 0x0 REVERT JUMPDEST PUSH1 0xE0 DUP2 ADD SWAP1 DUP2 LT PUSH1 0x1 PUSH1 0x1 PUSH1 0x40 SHL SUB DUP3 GT OR PUSH2 0xC72 JUMPI PUSH1 0x40 MSTORE JUMP JUMPDEST PUSH4 0x4E487B71 PUSH1 0xE0 SHL PUSH1 0x0 MSTORE PUSH1 0x41 PUSH1 0x4 MSTORE PUSH1 0x24 PUSH1 0x0 REVERT JUMPDEST SWAP2 SWAP1 DUP3 ADD DUP1 SWAP3 GT PUSH2 0xC95 JUMPI JUMP JUMPDEST PUSH4 0x4E487B71 PUSH1 0xE0 SHL PUSH1 0x0 MSTORE PUSH1 0x11 PUSH1 0x4 MSTORE PUSH1 0x24 PUSH1 0x0 REVERT JUMPDEST ISZERO PUSH2 0xCB2 JUMPI JUMP JUMPDEST PUSH1 0x40 MLOAD PUSH3 0x461BCD PUSH1 0xE5 SHL DUP2 MSTORE PUSH1 0x20 PUSH1 0x4 DUP3 ADD MSTORE PUSH1 0x17 PUSH1 0x24 DUP3 ADD MSTORE PUSH23 0x149BDD5B9908185B1C9958591E4818DBDB5C1B195D1959 PUSH1 0x4A SHL PUSH1 0x44 DUP3 ADD MSTORE PUSH1 0x64 SWAP1 REVERT JUMPDEST ISZERO PUSH2 0xCF8 JUMPI JUMP JUMPDEST PUSH1 0x40 MLOAD PUSH3 0x461BCD PUSH1 0xE5 SHL DUP2 MSTORE PUSH1 0x20 PUSH1 0x4 DUP3 ADD MSTORE PUSH1 0x11 PUSH1 0x24 DUP3 ADD MSTORE PUSH17 0x105B1C9958591E48199A5B985B1A5E9959 PUSH1 0x7A SHL PUSH1 0x44 DUP3 ADD MSTORE PUSH1 0x64 SWAP1 REVERT JUMPDEST PUSH1 0x1 SLOAD PUSH1 0x1 PUSH1 0x1 PUSH1 0xA0 SHL SUB AND CALLER SUB PUSH2 0xD45 JUMPI JUMP JUMPDEST PUSH1 0x40 MLOAD PUSH4 0x118CDAA7 PUSH1 0xE0 SHL DUP2 MSTORE CALLER PUSH1 0x4 DUP3 ADD MSTORE PUSH1 0x24 SWAP1 REVERT JUMPDEST PUSH1 0x2 PUSH1 0x0 SLOAD EQ PUSH2 0xD6E JUMPI PUSH1 0x2 PUSH1 0x0 SSTORE JUMP JUMPDEST PUSH1 0x40 MLOAD PUSH4 0x3EE5AEB5 PUSH1 0xE0 SHL DUP2 MSTORE PUSH1 0x4 SWAP1 REVERT JUMPDEST DUP1 PUSH1 0x0 MSTORE PUSH1 0x3 PUSH1 0x20 MSTORE PUSH1 0x40 PUSH1 0x0 KECCAK256 PUSH1 0x4 DUP2 ADD SLOAD SWAP3 PUSH2 0xDA1 PUSH1 0xFF DUP6 AND ISZERO PUSH2 0xCF1 JUMP JUMPDEST PUSH1 0x0 PUSH1 0xC0 PUSH1 0x40 MLOAD PUSH2 0xDB1 DUP2 PUSH2 0xC57 JUMP JUMPDEST DUP3 DUP2 MSTORE DUP3 PUSH1 0x20 DUP3 ADD MSTORE DUP3 PUSH1 0x40 DUP3 ADD MSTORE DUP3 PUSH1 0x60 DUP3 ADD MSTORE DUP3 PUSH1 0x80 DUP3 ADD MSTORE DUP3 PUSH1 0xA0 DUP3 ADD MSTORE ADD MSTORE PUSH1 0x40 MLOAD SWAP1 PUSH2 0xDE1 DUP3 PUSH2 0xC57 JUMP JUMPDEST NUMBER DUP3 MSTORE TIMESTAMP PUSH1 0x20 DUP4 ADD MSTORE PREVRANDAO PUSH1 0x40 DUP4 ADD MSTORE GASLIMIT PUSH1 0x60 DUP4 ADD MSTORE GASLIMIT PUSH1 0x80 DUP4 ADD MSTORE BASEFEE PUSH1 0xA0 DUP4 ADD MSTORE COINBASE PUSH1 0xC0 DUP4 ADD MSTORE DUP4 PUSH1 0x0 MSTORE PUSH1 0x3 PUSH1 0x20 MSTORE PUSH2 0xE82 PUSH2 0xE6E PUSH2 0xE63 PUSH2 0xE58 PUSH2 0xE4D PUSH2 0xE42 PUSH2 0xE37 PUSH1 0x2 PUSH1 0x40 PUSH1 0x0 KECCAK256 ADD SLOAD DUP10 MLOAD SWAP1 PUSH2 0xC88 JUMP JUMPDEST PUSH1 0x20 DUP10 ADD MLOAD SWAP1 PUSH2 0xC88 JUMP JUMPDEST PUSH1 0x40 DUP9 ADD MLOAD SWAP1 PUSH2 0xC88 JUMP JUMPDEST PUSH1 0x60 DUP8 ADD MLOAD SWAP1 PUSH2 0xC88 JUMP JUMPDEST PUSH1 0x80 DUP7 ADD MLOAD SWAP1 PUSH2 0xC88 JUMP JUMPDEST PUSH1 0xA0 DUP6 ADD MLOAD SWAP1 PUSH2 0xC88 JUMP JUMPDEST PUSH1 0xC0 DUP5 ADD MLOAD PUSH1 0x1 PUSH1 0x1 PUSH1 0xA0 SHL SUB AND SWAP1 PUSH2 0xC88 JUMP JUMPDEST SWAP3 PUSH1 0x0 SWAP4 JUMPDEST DUP6 PUSH1 0x0 MSTORE PUSH1 0x5 PUSH1 0x20 MSTORE PUSH1 0x40 PUSH1 0x0 KECCAK256 DUP1 SLOAD DUP7 LT ISZERO PUSH2 0xEF0 JUMPI PUSH1 0x1 SWAP2 PUSH2 0xEC6 PUSH2 0xEB1 DUP9 PUSH2 0xEE8 SWAP5 PUSH2 0xC29 JUMP JUMPDEST DUP6 DUP1 PUSH1 0xA0 SHL SUB SWAP2 SLOAD SWAP1 PUSH1 0x3 SHL SHR AND DUP1 SWAP3 PUSH2 0xC88 JUMP JUMPDEST SWAP1 DUP9 PUSH1 0x0 MSTORE PUSH1 0x4 PUSH1 0x20 MSTORE PUSH1 0x40 PUSH1 0x0 KECCAK256 SWAP1 PUSH1 0x0 MSTORE PUSH1 0x20 MSTORE PUSH1 0x40 PUSH1 0x0 KECCAK256 SLOAD SWAP1 PUSH2 0xC88 JUMP JUMPDEST SWAP5 ADD SWAP4 PUSH2 0xE87 JUMP JUMPDEST POP PUSH2 0xF0C SWAP2 SWAP5 POP PUSH2 0xF07 DUP7 SWAP2 SWAP8 SWAP5 SWAP4 SWAP8 TIMESTAMP SWAP1 PUSH2 0xC88 JUMP JUMPDEST PUSH2 0xC88 JUMP JUMPDEST SWAP3 PUSH1 0x0 NOT NUMBER ADD NUMBER DUP2 GT PUSH2 0xC95 JUMPI PUSH1 0x1 NOT NUMBER ADD NUMBER DUP2 GT PUSH2 0xC95 JUMPI PUSH1 0x2 NOT NUMBER ADD SWAP2 NUMBER DUP4 GT PUSH2 0xC95 JUMPI PUSH1 0x40 MLOAD SWAP7 PUSH1 0x20 DUP9 ADD MSTORE BLOCKHASH PUSH1 0x40 DUP8 ADD MSTORE BLOCKHASH PUSH1 0x60 DUP7 ADD MSTORE BLOCKHASH PUSH1 0x80 DUP6 ADD MSTORE PUSH1 0x80 DUP5 MSTORE DUP4 PUSH1 0xA0 DUP2 ADD LT PUSH1 0x1 DUP1 PUSH1 0x40 SHL SUB PUSH1 0xA0 DUP7 ADD GT OR PUSH2 0xC72 JUMPI PUSH32 0xEF96D6AEC820D450F000ADC62090E956F3335BFA69C59C376FCC43CFD6D683F6 PUSH1 0x40 PUSH1 0xA0 DUP7 PUSH1 0xE0 SWAP7 PUSH1 0x1 DUP11 SWAP7 DUP5 PUSH32 0x8952E36E2A718E16CACA6C19548CFB9FA1A6B5AFBF9C61B4F140014A91430C02 SWAP12 ADD DUP7 MSTORE DUP2 DUP5 MLOAD PUSH1 0x20 DUP7 ADD KECCAK256 SWAP4 DUP5 PUSH1 0x3 DUP5 ADD SSTORE PUSH1 0xFF NOT AND OR PUSH1 0x4 DUP3 ADD SSTORE ADD SLOAD SWAP1 DUP4 DUP4 ADD MSTORE PUSH1 0xC0 DUP3 ADD MSTORE ADD LOG2 PUSH1 0x40 MLOAD SWAP1 DUP1 MLOAD DUP3 MSTORE PUSH1 0x20 DUP2 ADD MLOAD PUSH1 0x20 DUP4 ADD MSTORE PUSH1 0x40 DUP2 ADD MLOAD PUSH1 0x40 DUP4 ADD MSTORE PUSH1 0x60 DUP2 ADD MLOAD PUSH1 0x60 DUP4 ADD MSTORE PUSH1 0x80 DUP2 ADD MLOAD PUSH1 0x80 DUP4 ADD MSTORE PUSH1 0xA0 DUP2 ADD MLOAD PUSH1 0xA0 DUP4 ADD MSTORE PUSH1 0xC0 PUSH1 0x1 DUP1 PUSH1 0xA0 SHL SUB SWAP2 ADD MLOAD AND PUSH1 0xC0 DUP3 ADD MSTORE LOG2 JUMP INVALID DUP12 0xE0 SMOD SWAP13 MSTORE8 AND MSIZE EQ SGT PREVRANDAO 0xCD 0x1F 0xD0 LOG4 CALLCODE DUP5 NOT BLOBHASH PUSH32 0x9722A3DAAFE3B4186F6B6457E0A264697066735822122099CB89417BABC0C9E7 MSTORE8 NUMBER CREATE 0xB5 0xAA 0xB1 EXTCODECOPY PUSH4 0x8F893E0B ADDRESS JUMP BLOCKHASH 0xE0 0xBE 0xB8 PUSH10 0x2CDD15AD64736F6C6343 STOP ADDMOD XOR STOP CALLER "},"methodIdentifiers":{"commitPhaseDuration()":"483b4039","commits(address)":"7b43a8e6","currentRoundId()":"9cbe5efd","forceFinalize(uint256)":"e7b6ecff","getCurrentRandomnessRound()":"c142e495","getFinalRandomNumber(uint256)":"3b55e362","getRoundContributors(uint256)":"837b4079","getRoundInfo(uint256)":"88c3ffb0","maxContributors()":"86fa5063","minContributors()":"2bae8236","owner()":"8da5cb5b","randomnessRounds(uint256)":"dd03c6f2","renounceOwnership()":"715018a6","requestRandomness()":"f8413b07","revealPhaseDuration()":"dfc75372","revealRandomness(uint256,uint256,bytes32)":"a154fc6b","roundContributors(uint256,uint256)":"c59051cd","submitCommitment(uint256,bytes32)":"e6a3d9dc","transferOwnership(address)":"f2fde38b","updateRoundParameters(uint256,uint256,uint256,uint256)":"6ca804a7","userContributions(uint256,address)":"ed54890d"}}}}}