{"contracts/UniswapPriceOracle.sol":{"UniswapPriceOracle":{"abi":[{"inputs":[],"stateMutability":"nonpayable","type":"constructor"},{"inputs":[{"internalType":"address","name":"owner","type":"address"}],"name":"OwnableInvalidOwner","type":"error"},{"inputs":[{"internalType":"address","name":"account","type":"address"}],"name":"OwnableUnauthorizedAccount","type":"error"},{"anonymous":false,"inputs":[{"indexed":false,"internalType":"uint256","name":"price","type":"uint256"},{"indexed":false,"internalType":"address","name":"setter","type":"address"}],"name":"EmergencyPriceSet","type":"event"},{"anonymous":false,"inputs":[{"indexed":true,"internalType":"address","name":"previousOwner","type":"address"},{"indexed":true,"internalType":"address","name":"newOwner","type":"address"}],"name":"OwnershipTransferred","type":"event"},{"anonymous":false,"inputs":[{"indexed":false,"internalType":"uint256","name":"price","type":"uint256"},{"indexed":false,"internalType":"uint256","name":"timestamp","type":"uint256"}],"name":"PriceUpdated","type":"event"},{"inputs":[],"name":"CACHE_DURATION","outputs":[{"internalType":"uint256","name":"","type":"uint256"}],"stateMutability":"view","type":"function"},{"inputs":[],"name":"POOL_FEE","outputs":[{"internalType":"uint24","name":"","type":"uint24"}],"stateMutability":"view","type":"function"},{"inputs":[],"name":"PRICE_PRECISION","outputs":[{"internalType":"uint256","name":"","type":"uint256"}],"stateMutability":"view","type":"function"},{"inputs":[],"name":"UNISWAP_V3_FACTORY","outputs":[{"internalType":"address","name":"","type":"address"}],"stateMutability":"view","type":"function"},{"inputs":[],"name":"USDC_TOKEN","outputs":[{"internalType":"address","name":"","type":"address"}],"stateMutability":"view","type":"function"},{"inputs":[],"name":"VMF_TOKEN","outputs":[{"internalType":"address","name":"","type":"address"}],"stateMutability":"view","type":"function"},{"inputs":[],"name":"getRequiredVMFForDollar","outputs":[{"internalType":"uint256","name":"","type":"uint256"}],"stateMutability":"view","type":"function"},{"inputs":[],"name":"getVMFPrice","outputs":[{"internalType":"uint256","name":"","type":"uint256"}],"stateMutability":"view","type":"function"},{"inputs":[],"name":"owner","outputs":[{"internalType":"address","name":"","type":"address"}],"stateMutability":"view","type":"function"},{"inputs":[],"name":"priceCache","outputs":[{"internalType":"uint256","name":"price","type":"uint256"},{"internalType":"uint256","name":"timestamp","type":"uint256"},{"internalType":"bool","name":"isValid","type":"bool"}],"stateMutability":"view","type":"function"},{"inputs":[],"name":"renounceOwnership","outputs":[],"stateMutability":"nonpayable","type":"function"},{"inputs":[{"internalType":"uint256","name":"_price","type":"uint256"}],"name":"setEmergencyPrice","outputs":[],"stateMutability":"nonpayable","type":"function"},{"inputs":[{"internalType":"address","name":"newOwner","type":"address"}],"name":"transferOwnership","outputs":[],"stateMutability":"nonpayable","type":"function"},{"inputs":[],"name":"updatePriceCache","outputs":[],"stateMutability":"nonpayable","type":"function"}],"evm":{"bytecode":{"linkReferences":{},"object":"608080604052346100d75733156100c15760008054336001600160a01b031982168117835560405192916001600160a01b03167f8be0079c531659141344cd1fd0a4f28419497f9722a3daafe3b4186f6b6457e08380a360608201906001600160401b038211838310176100ad575060405260016040670de0b6b3a764000092838152426020820152015260015542600255600160ff19600354161760035560405161055990816100dd8239f35b634e487b7160e01b81526041600452602490fd5b631e4fbdf760e01b815260006004820152602490fd5b600080fdfe604060808152600436101561001357600080fd5b600090813560e01c80630d73ebb5146103d7578063715018a61461038c5780638da5cb5b146103655780638f09c8571461034257806395082d2514610320578063baff9667146102a8578063bb5b26e41461027a578063c2dcb6e41461025e578063dd1b9c4a14610242578063ebe638851461020e578063f2fde38b14610194578063f3038e7414610118578063f73e5aab146100ea5763fa569274146100b957600080fd5b346100e657816003193601126100e6576020905173833589fcd6edb6e08f4c7c32d4f71b54bda029138152f35b5080fd5b50346100e657816003193601126100e65760209051731f98431c8ad98523631ae4a59f267346ea31f9848152f35b50346100e65760203660031901126100e6577fb0e99c124a03b374a88ef4b1e43ee72321daf2b9d6a80175cb987054d12db1d2906004356101576104ba565b600182805161016581610489565b83815242602082015201528060015542600255600160ff1960035416176003558151908152336020820152a180f35b50346100e65760203660031901126100e6576001600160a01b03600435818116929083900361020a576101c56104ba565b82156101f3575082546001600160a01b0319811683178455166000805160206105048339815191528380a380f35b51631e4fbdf760e01b815260048101849052602490fd5b8380fd5b50346100e657816003193601126100e6576060906001549060025460ff600354169082519384526020840152151590820152f35b50346100e657816003193601126100e657602090516101f48152f35b50346100e657816003193601126100e6576020905161012c8152f35b50346100e657816003193601126100e65760209051732213414893259b0c48066acd1763e7fba97859e58152f35b50346100e657816003193601126100e6577f945c1c4e99aa89f648fbfe3df471b916f719e16d960fcec0737d4d56bd696838906102e36104e6565b60018280516102f181610489565b83815242602082015201528060015542600255600160ff1960035416176003558151908152426020820152a180f35b50346100e657816003193601126100e65760209051670de0b6b3a76400008152f35b50346100e657816003193601126100e65760209061035e61043b565b9051908152f35b50346100e657816003193601126100e657905490516001600160a01b039091168152602090f35b82346103d457806003193601126103d4576103a56104ba565b80546001600160a01b03198116825581906001600160a01b03166000805160206105048339815191528280a380f35b80fd5b50346100e657816003193601126100e65760209061035e6103f661043b565b670de0b6b3a764000080821461043657508015610420576a0c097ce7bc90715b34b9f160241b0490565b634e487b7160e01b600052601260045260246000fd5b905090565b60ff600354168061045c575b610456576104536104e6565b90565b60015490565b5060025461012c8101809111610473574210610447565b634e487b7160e01b600052601160045260246000fd5b606081019081106001600160401b038211176104a457604052565b634e487b7160e01b600052604160045260246000fd5b6000546001600160a01b031633036104ce57565b60405163118cdaa760e01b8152336004820152602490fd5b60035460ff16156104f75760015490565b670de0b6b3a76400009056fe8be0079c531659141344cd1fd0a4f28419497f9722a3daafe3b4186f6b6457e0a264697066735822122089dab2c8f754f5ff6f16d536c2c978f477f3e01083253621631509853115f51e64736f6c63430008180033","opcodes":"PUSH1 0x80 DUP1 PUSH1 0x40 MSTORE CALLVALUE PUSH2 0xD7 JUMPI CALLER ISZERO PUSH2 0xC1 JUMPI PUSH1 0x0 DUP1 SLOAD CALLER PUSH1 0x1 PUSH1 0x1 PUSH1 0xA0 SHL SUB NOT DUP3 AND DUP2 OR DUP4 SSTORE PUSH1 0x40 MLOAD SWAP3 SWAP2 PUSH1 0x1 PUSH1 0x1 PUSH1 0xA0 SHL SUB AND PUSH32 0x8BE0079C531659141344CD1FD0A4F28419497F9722A3DAAFE3B4186F6B6457E0 DUP4 DUP1 LOG3 PUSH1 0x60 DUP3 ADD SWAP1 PUSH1 0x1 PUSH1 0x1 PUSH1 0x40 SHL SUB DUP3 GT DUP4 DUP4 LT OR PUSH2 0xAD JUMPI POP PUSH1 0x40 MSTORE PUSH1 0x1 PUSH1 0x40 PUSH8 0xDE0B6B3A7640000 SWAP3 DUP4 DUP2 MSTORE TIMESTAMP PUSH1 0x20 DUP3 ADD MSTORE ADD MSTORE PUSH1 0x1 SSTORE TIMESTAMP PUSH1 0x2 SSTORE PUSH1 0x1 PUSH1 0xFF NOT PUSH1 0x3 SLOAD AND OR PUSH1 0x3 SSTORE PUSH1 0x40 MLOAD PUSH2 0x559 SWAP1 DUP2 PUSH2 0xDD DUP3 CODECOPY RETURN JUMPDEST PUSH4 0x4E487B71 PUSH1 0xE0 SHL DUP2 MSTORE PUSH1 0x41 PUSH1 0x4 MSTORE PUSH1 0x24 SWAP1 REVERT JUMPDEST PUSH4 0x1E4FBDF7 PUSH1 0xE0 SHL DUP2 MSTORE PUSH1 0x0 PUSH1 0x4 DUP3 ADD MSTORE PUSH1 0x24 SWAP1 REVERT JUMPDEST PUSH1 0x0 DUP1 REVERT INVALID PUSH1 0x40 PUSH1 0x80 DUP2 MSTORE PUSH1 0x4 CALLDATASIZE LT ISZERO PUSH2 0x13 JUMPI PUSH1 0x0 DUP1 REVERT JUMPDEST PUSH1 0x0 SWAP1 DUP2 CALLDATALOAD PUSH1 0xE0 SHR DUP1 PUSH4 0xD73EBB5 EQ PUSH2 0x3D7 JUMPI DUP1 PUSH4 0x715018A6 EQ PUSH2 0x38C JUMPI DUP1 PUSH4 0x8DA5CB5B EQ PUSH2 0x365 JUMPI DUP1 PUSH4 0x8F09C857 EQ PUSH2 0x342 JUMPI DUP1 PUSH4 0x95082D25 EQ PUSH2 0x320 JUMPI DUP1 PUSH4 0xBAFF9667 EQ PUSH2 0x2A8 JUMPI DUP1 PUSH4 0xBB5B26E4 EQ PUSH2 0x27A JUMPI DUP1 PUSH4 0xC2DCB6E4 EQ PUSH2 0x25E JUMPI DUP1 PUSH4 0xDD1B9C4A EQ PUSH2 0x242 JUMPI DUP1 PUSH4 0xEBE63885 EQ PUSH2 0x20E JUMPI DUP1 PUSH4 0xF2FDE38B EQ PUSH2 0x194 JUMPI DUP1 PUSH4 0xF3038E74 EQ PUSH2 0x118 JUMPI DUP1 PUSH4 0xF73E5AAB EQ PUSH2 0xEA JUMPI PUSH4 0xFA569274 EQ PUSH2 0xB9 JUMPI PUSH1 0x0 DUP1 REVERT JUMPDEST CALLVALUE PUSH2 0xE6 JUMPI DUP2 PUSH1 0x3 NOT CALLDATASIZE ADD SLT PUSH2 0xE6 JUMPI PUSH1 0x20 SWAP1 MLOAD PUSH20 0x833589FCD6EDB6E08F4C7C32D4F71B54BDA02913 DUP2 MSTORE RETURN JUMPDEST POP DUP1 REVERT JUMPDEST POP CALLVALUE PUSH2 0xE6 JUMPI DUP2 PUSH1 0x3 NOT CALLDATASIZE ADD SLT PUSH2 0xE6 JUMPI PUSH1 0x20 SWAP1 MLOAD PUSH20 0x1F98431C8AD98523631AE4A59F267346EA31F984 DUP2 MSTORE RETURN JUMPDEST POP CALLVALUE PUSH2 0xE6 JUMPI PUSH1 0x20 CALLDATASIZE PUSH1 0x3 NOT ADD SLT PUSH2 0xE6 JUMPI PUSH32 0xB0E99C124A03B374A88EF4B1E43EE72321DAF2B9D6A80175CB987054D12DB1D2 SWAP1 PUSH1 0x4 CALLDATALOAD PUSH2 0x157 PUSH2 0x4BA JUMP JUMPDEST PUSH1 0x1 DUP3 DUP1 MLOAD PUSH2 0x165 DUP2 PUSH2 0x489 JUMP JUMPDEST DUP4 DUP2 MSTORE TIMESTAMP PUSH1 0x20 DUP3 ADD MSTORE ADD MSTORE DUP1 PUSH1 0x1 SSTORE TIMESTAMP PUSH1 0x2 SSTORE PUSH1 0x1 PUSH1 0xFF NOT PUSH1 0x3 SLOAD AND OR PUSH1 0x3 SSTORE DUP2 MLOAD SWAP1 DUP2 MSTORE CALLER PUSH1 0x20 DUP3 ADD MSTORE LOG1 DUP1 RETURN JUMPDEST POP CALLVALUE PUSH2 0xE6 JUMPI PUSH1 0x20 CALLDATASIZE PUSH1 0x3 NOT ADD SLT PUSH2 0xE6 JUMPI PUSH1 0x1 PUSH1 0x1 PUSH1 0xA0 SHL SUB PUSH1 0x4 CALLDATALOAD DUP2 DUP2 AND SWAP3 SWAP1 DUP4 SWAP1 SUB PUSH2 0x20A JUMPI PUSH2 0x1C5 PUSH2 0x4BA JUMP JUMPDEST DUP3 ISZERO PUSH2 0x1F3 JUMPI POP DUP3 SLOAD PUSH1 0x1 PUSH1 0x1 PUSH1 0xA0 SHL SUB NOT DUP2 AND DUP4 OR DUP5 SSTORE AND PUSH1 0x0 DUP1 MLOAD PUSH1 0x20 PUSH2 0x504 DUP4 CODECOPY DUP2 MLOAD SWAP2 MSTORE DUP4 DUP1 LOG3 DUP1 RETURN JUMPDEST MLOAD PUSH4 0x1E4FBDF7 PUSH1 0xE0 SHL DUP2 MSTORE PUSH1 0x4 DUP2 ADD DUP5 SWAP1 MSTORE PUSH1 0x24 SWAP1 REVERT JUMPDEST DUP4 DUP1 REVERT JUMPDEST POP CALLVALUE PUSH2 0xE6 JUMPI DUP2 PUSH1 0x3 NOT CALLDATASIZE ADD SLT PUSH2 0xE6 JUMPI PUSH1 0x60 SWAP1 PUSH1 0x1 SLOAD SWAP1 PUSH1 0x2 SLOAD PUSH1 0xFF PUSH1 0x3 SLOAD AND SWAP1 DUP3 MLOAD SWAP4 DUP5 MSTORE PUSH1 0x20 DUP5 ADD MSTORE ISZERO ISZERO SWAP1 DUP3 ADD MSTORE RETURN JUMPDEST POP CALLVALUE PUSH2 0xE6 JUMPI DUP2 PUSH1 0x3 NOT CALLDATASIZE ADD SLT PUSH2 0xE6 JUMPI PUSH1 0x20 SWAP1 MLOAD PUSH2 0x1F4 DUP2 MSTORE RETURN JUMPDEST POP CALLVALUE PUSH2 0xE6 JUMPI DUP2 PUSH1 0x3 NOT CALLDATASIZE ADD SLT PUSH2 0xE6 JUMPI PUSH1 0x20 SWAP1 MLOAD PUSH2 0x12C DUP2 MSTORE RETURN JUMPDEST POP CALLVALUE PUSH2 0xE6 JUMPI DUP2 PUSH1 0x3 NOT CALLDATASIZE ADD SLT PUSH2 0xE6 JUMPI PUSH1 0x20 SWAP1 MLOAD PUSH20 0x2213414893259B0C48066ACD1763E7FBA97859E5 DUP2 MSTORE RETURN JUMPDEST POP CALLVALUE PUSH2 0xE6 JUMPI DUP2 PUSH1 0x3 NOT CALLDATASIZE ADD SLT PUSH2 0xE6 JUMPI PUSH32 0x945C1C4E99AA89F648FBFE3DF471B916F719E16D960FCEC0737D4D56BD696838 SWAP1 PUSH2 0x2E3 PUSH2 0x4E6 JUMP JUMPDEST PUSH1 0x1 DUP3 DUP1 MLOAD PUSH2 0x2F1 DUP2 PUSH2 0x489 JUMP JUMPDEST DUP4 DUP2 MSTORE TIMESTAMP PUSH1 0x20 DUP3 ADD MSTORE ADD MSTORE DUP1 PUSH1 0x1 SSTORE TIMESTAMP PUSH1 0x2 SSTORE PUSH1 0x1 PUSH1 0xFF NOT PUSH1 0x3 SLOAD AND OR PUSH1 0x3 SSTORE DUP2 MLOAD SWAP1 DUP2 MSTORE TIMESTAMP PUSH1 0x20 DUP3 ADD MSTORE LOG1 DUP1 RETURN JUMPDEST POP CALLVALUE PUSH2 0xE6 JUMPI DUP2 PUSH1 0x3 NOT CALLDATASIZE ADD SLT PUSH2 0xE6 JUMPI PUSH1 0x20 SWAP1 MLOAD PUSH8 0xDE0B6B3A7640000 DUP2 MSTORE RETURN JUMPDEST POP CALLVALUE PUSH2 0xE6 JUMPI DUP2 PUSH1 0x3 NOT CALLDATASIZE ADD SLT PUSH2 0xE6 JUMPI PUSH1 0x20 SWAP1 PUSH2 0x35E PUSH2 0x43B JUMP JUMPDEST SWAP1 MLOAD SWAP1 DUP2 MSTORE RETURN JUMPDEST POP CALLVALUE PUSH2 0xE6 JUMPI DUP2 PUSH1 0x3 NOT CALLDATASIZE ADD SLT PUSH2 0xE6 JUMPI SWAP1 SLOAD SWAP1 MLOAD PUSH1 0x1 PUSH1 0x1 PUSH1 0xA0 SHL SUB SWAP1 SWAP2 AND DUP2 MSTORE PUSH1 0x20 SWAP1 RETURN JUMPDEST DUP3 CALLVALUE PUSH2 0x3D4 JUMPI DUP1 PUSH1 0x3 NOT CALLDATASIZE ADD SLT PUSH2 0x3D4 JUMPI PUSH2 0x3A5 PUSH2 0x4BA JUMP JUMPDEST DUP1 SLOAD PUSH1 0x1 PUSH1 0x1 PUSH1 0xA0 SHL SUB NOT DUP2 AND DUP3 SSTORE DUP2 SWAP1 PUSH1 0x1 PUSH1 0x1 PUSH1 0xA0 SHL SUB AND PUSH1 0x0 DUP1 MLOAD PUSH1 0x20 PUSH2 0x504 DUP4 CODECOPY DUP2 MLOAD SWAP2 MSTORE DUP3 DUP1 LOG3 DUP1 RETURN JUMPDEST DUP1 REVERT JUMPDEST POP CALLVALUE PUSH2 0xE6 JUMPI DUP2 PUSH1 0x3 NOT CALLDATASIZE ADD SLT PUSH2 0xE6 JUMPI PUSH1 0x20 SWAP1 PUSH2 0x35E PUSH2 0x3F6 PUSH2 0x43B JUMP JUMPDEST PUSH8 0xDE0B6B3A7640000 DUP1 DUP3 EQ PUSH2 0x436 JUMPI POP DUP1 ISZERO PUSH2 0x420 JUMPI PUSH11 0xC097CE7BC90715B34B9F1 PUSH1 0x24 SHL DIV SWAP1 JUMP JUMPDEST PUSH4 0x4E487B71 PUSH1 0xE0 SHL PUSH1 0x0 MSTORE PUSH1 0x12 PUSH1 0x4 MSTORE PUSH1 0x24 PUSH1 0x0 REVERT JUMPDEST SWAP1 POP SWAP1 JUMP JUMPDEST PUSH1 0xFF PUSH1 0x3 SLOAD AND DUP1 PUSH2 0x45C JUMPI JUMPDEST PUSH2 0x456 JUMPI PUSH2 0x453 PUSH2 0x4E6 JUMP JUMPDEST SWAP1 JUMP JUMPDEST PUSH1 0x1 SLOAD SWAP1 JUMP JUMPDEST POP PUSH1 0x2 SLOAD PUSH2 0x12C DUP2 ADD DUP1 SWAP2 GT PUSH2 0x473 JUMPI TIMESTAMP LT PUSH2 0x447 JUMP JUMPDEST PUSH4 0x4E487B71 PUSH1 0xE0 SHL PUSH1 0x0 MSTORE PUSH1 0x11 PUSH1 0x4 MSTORE PUSH1 0x24 PUSH1 0x0 REVERT JUMPDEST PUSH1 0x60 DUP2 ADD SWAP1 DUP2 LT PUSH1 0x1 PUSH1 0x1 PUSH1 0x40 SHL SUB DUP3 GT OR PUSH2 0x4A4 JUMPI PUSH1 0x40 MSTORE JUMP JUMPDEST PUSH4 0x4E487B71 PUSH1 0xE0 SHL PUSH1 0x0 MSTORE PUSH1 0x41 PUSH1 0x4 MSTORE PUSH1 0x24 PUSH1 0x0 REVERT JUMPDEST PUSH1 0x0 SLOAD PUSH1 0x1 PUSH1 0x1 PUSH1 0xA0 SHL SUB AND CALLER SUB PUSH2 0x4CE JUMPI JUMP JUMPDEST PUSH1 0x40 MLOAD PUSH4 0x118CDAA7 PUSH1 0xE0 SHL DUP2 MSTORE CALLER PUSH1 0x4 DUP3 ADD MSTORE PUSH1 0x24 SWAP1 REVERT JUMPDEST PUSH1 0x3 SLOAD PUSH1 0xFF AND ISZERO PUSH2 0x4F7 JUMPI PUSH1 0x1 SLOAD SWAP1 JUMP JUMPDEST PUSH8 0xDE0B6B3A7640000 SWAP1 JUMP INVALID DUP12 0xE0 SMOD SWAP13 MSTORE8 AND MSIZE EQ SGT PREVRANDAO 0xCD 0x1F 0xD0 LOG4 CALLCODE DUP5 NOT BLOBHASH PUSH32 0x9722A3DAAFE3B4186F6B6457E0A264697066735822122089DAB2C8F754F5FF6F AND 0xD5 CALLDATASIZE 0xC2 0xC9 PUSH25 0xF477F3E01083253621631509853115F51E64736F6C63430008 XOR STOP CALLER "},"methodIdentifiers":{"CACHE_DURATION()":"c2dcb6e4","POOL_FEE()":"dd1b9c4a","PRICE_PRECISION()":"95082d25","UNISWAP_V3_FACTORY()":"f73e5aab","USDC_TOKEN()":"fa569274","VMF_TOKEN()":"bb5b26e4","getRequiredVMFForDollar()":"0d73ebb5","getVMFPrice()":"8f09c857","owner()":"8da5cb5b","priceCache()":"ebe63885","renounceOwnership()":"715018a6","setEmergencyPrice(uint256)":"f3038e74","transferOwnership(address)":"f2fde38b","updatePriceCache()":"baff9667"}}}}}