{"contracts/PizzaParty.sol":{"PizzaParty":{"abi":[{"inputs":[{"internalType":"address","name":"_vmfToken","type":"address"},{"internalType":"address","name":"_randomnessContract","type":"address"},{"internalType":"address","name":"_priceOracle","type":"address"},{"internalType":"address","name":"_vrfContract","type":"address"}],"stateMutability":"nonpayable","type":"constructor"},{"inputs":[],"name":"EnforcedPause","type":"error"},{"inputs":[],"name":"ExpectedPause","type":"error"},{"inputs":[{"internalType":"address","name":"owner","type":"address"}],"name":"OwnableInvalidOwner","type":"error"},{"inputs":[{"internalType":"address","name":"account","type":"address"}],"name":"OwnableUnauthorizedAccount","type":"error"},{"inputs":[],"name":"ReentrancyGuardReentrantCall","type":"error"},{"anonymous":false,"inputs":[{"indexed":true,"internalType":"uint256","name":"blockNumber","type":"uint256"},{"indexed":false,"internalType":"uint256","name":"totalProcessed","type":"uint256"},{"indexed":false,"internalType":"uint256","name":"totalPlayers","type":"uint256"}],"name":"BatchPlayersProcessed","type":"event"},{"anonymous":false,"inputs":[{"indexed":false,"internalType":"uint256","name":"gameId","type":"uint256"},{"indexed":false,"internalType":"address[]","name":"winners","type":"address[]"},{"indexed":false,"internalType":"uint256","name":"jackpot","type":"uint256"}],"name":"DailyWinnersSelected","type":"event"},{"anonymous":false,"inputs":[{"indexed":false,"internalType":"uint256","name":"vmfPrice","type":"uint256"},{"indexed":false,"internalType":"uint256","name":"requiredVMF","type":"uint256"},{"indexed":false,"internalType":"uint256","name":"timestamp","type":"uint256"}],"name":"DynamicEntryFeeCalculated","type":"event"},{"anonymous":false,"inputs":[{"indexed":false,"internalType":"bool","name":"paused","type":"bool"}],"name":"EmergencyPause","type":"event"},{"anonymous":false,"inputs":[{"indexed":true,"internalType":"address","name":"contributor","type":"address"},{"indexed":false,"internalType":"bytes32","name":"entropy","type":"bytes32"},{"indexed":false,"internalType":"uint256","name":"roundId","type":"uint256"}],"name":"EntropyContributed","type":"event"},{"anonymous":false,"inputs":[{"indexed":true,"internalType":"address","name":"player","type":"address"},{"indexed":false,"internalType":"uint256","name":"amount","type":"uint256"}],"name":"FirstOrderRewardClaimed","type":"event"},{"anonymous":false,"inputs":[{"indexed":true,"internalType":"uint256","name":"gameId","type":"uint256"},{"indexed":true,"internalType":"address","name":"sender","type":"address"}],"name":"GameStateUnlocked","type":"event"},{"anonymous":false,"inputs":[{"indexed":false,"internalType":"uint256","name":"timestamp","type":"uint256"},{"indexed":false,"internalType":"uint256","name":"threshold","type":"uint256"}],"name":"GasOptimizationCompleted","type":"event"},{"anonymous":false,"inputs":[{"indexed":true,"internalType":"address","name":"player","type":"address"},{"indexed":false,"internalType":"uint256","name":"amount","type":"uint256"}],"name":"JackpotEntryAdded","type":"event"},{"anonymous":false,"inputs":[{"indexed":false,"internalType":"uint256","name":"cooldown","type":"uint256"}],"name":"JackpotUpdateCooldownSet","type":"event"},{"anonymous":false,"inputs":[{"indexed":false,"internalType":"uint256","name":"dailyJackpot","type":"uint256"},{"indexed":false,"internalType":"uint256","name":"weeklyJackpot","type":"uint256"}],"name":"JackpotUpdated","type":"event"},{"anonymous":false,"inputs":[{"indexed":true,"internalType":"uint256","name":"gameId","type":"uint256"},{"indexed":false,"internalType":"uint256","name":"oldAmount","type":"uint256"},{"indexed":false,"internalType":"uint256","name":"newAmount","type":"uint256"},{"indexed":false,"internalType":"uint256","name":"nonce","type":"uint256"}],"name":"JackpotUpdatedAtomic","type":"event"},{"anonymous":false,"inputs":[{"indexed":true,"internalType":"address","name":"player","type":"address"},{"indexed":false,"internalType":"uint256","name":"points","type":"uint256"},{"indexed":false,"internalType":"string","name":"reason","type":"string"}],"name":"LoyaltyPointsAwarded","type":"event"},{"anonymous":false,"inputs":[{"indexed":true,"internalType":"address","name":"previousOwner","type":"address"},{"indexed":true,"internalType":"address","name":"newOwner","type":"address"}],"name":"OwnershipTransferred","type":"event"},{"anonymous":false,"inputs":[{"indexed":false,"internalType":"address","name":"account","type":"address"}],"name":"Paused","type":"event"},{"anonymous":false,"inputs":[{"indexed":true,"internalType":"address","name":"player","type":"address"},{"indexed":false,"internalType":"bool","name":"blacklisted","type":"bool"}],"name":"PlayerBlacklisted","type":"event"},{"anonymous":false,"inputs":[{"indexed":true,"internalType":"address","name":"player","type":"address"},{"indexed":true,"internalType":"uint256","name":"gameId","type":"uint256"},{"indexed":false,"internalType":"uint256","name":"amount","type":"uint256"}],"name":"PlayerEntered","type":"event"},{"anonymous":false,"inputs":[{"indexed":false,"internalType":"uint256","name":"gameId","type":"uint256"},{"indexed":false,"internalType":"uint256","name":"randomnessRoundId","type":"uint256"}],"name":"RandomnessRequested","type":"event"},{"anonymous":false,"inputs":[{"indexed":true,"internalType":"address","name":"user","type":"address"},{"indexed":false,"internalType":"uint256","name":"cooldownEnd","type":"uint256"}],"name":"RateLimitTriggered","type":"event"},{"anonymous":false,"inputs":[{"indexed":true,"internalType":"address","name":"player","type":"address"},{"indexed":false,"internalType":"string","name":"code","type":"string"}],"name":"ReferralCreated","type":"event"},{"anonymous":false,"inputs":[{"indexed":false,"internalType":"string","name":"code","type":"string"},{"indexed":false,"internalType":"address","name":"player","type":"address"}],"name":"ReferralProcessed","type":"event"},{"anonymous":false,"inputs":[{"indexed":true,"internalType":"bytes32","name":"role","type":"bytes32"},{"indexed":true,"internalType":"address","name":"admin","type":"address"}],"name":"RoleAdminSet","type":"event"},{"anonymous":false,"inputs":[{"indexed":true,"internalType":"bytes32","name":"role","type":"bytes32"},{"indexed":true,"internalType":"address","name":"account","type":"address"},{"indexed":true,"internalType":"address","name":"sender","type":"address"}],"name":"RoleGranted","type":"event"},{"anonymous":false,"inputs":[{"indexed":true,"internalType":"bytes32","name":"role","type":"bytes32"},{"indexed":true,"internalType":"address","name":"account","type":"address"},{"indexed":true,"internalType":"address","name":"sender","type":"address"}],"name":"RoleRevoked","type":"event"},{"anonymous":false,"inputs":[{"indexed":true,"internalType":"uint256","name":"roundId","type":"uint256"},{"indexed":false,"internalType":"bytes32","name":"seed","type":"bytes32"}],"name":"SecureRandomnessGenerated","type":"event"},{"anonymous":false,"inputs":[{"indexed":true,"internalType":"address","name":"player","type":"address"},{"indexed":false,"internalType":"uint256","name":"amount","type":"uint256"},{"indexed":false,"internalType":"string","name":"reason","type":"string"}],"name":"ToppingsAwarded","type":"event"},{"anonymous":false,"inputs":[{"indexed":false,"internalType":"address","name":"account","type":"address"}],"name":"Unpaused","type":"event"},{"anonymous":false,"inputs":[{"indexed":true,"internalType":"uint256","name":"requestId","type":"uint256"},{"indexed":true,"internalType":"uint256","name":"gameId","type":"uint256"},{"indexed":false,"internalType":"string","name":"gameType","type":"string"}],"name":"VRFRequestSubmitted","type":"event"},{"anonymous":false,"inputs":[{"indexed":true,"internalType":"address","name":"player","type":"address"},{"indexed":false,"internalType":"uint256","name":"challengeId","type":"uint256"},{"indexed":false,"internalType":"uint256","name":"reward","type":"uint256"}],"name":"WeeklyChallengeCompleted","type":"event"},{"anonymous":false,"inputs":[{"indexed":false,"internalType":"uint256","name":"gameId","type":"uint256"},{"indexed":false,"internalType":"address[]","name":"winners","type":"address[]"},{"indexed":false,"internalType":"uint256","name":"jackpot","type":"uint256"}],"name":"WeeklyWinnersSelected","type":"event"},{"anonymous":false,"inputs":[{"indexed":false,"internalType":"uint256","name":"gameId","type":"uint256"},{"indexed":false,"internalType":"uint256","name":"randomNumber","type":"uint256"},{"indexed":false,"internalType":"address[]","name":"winners","type":"address[]"}],"name":"WinnersSelectedWithRandomness","type":"event"},{"inputs":[],"name":"ADMIN_ROLE","outputs":[{"internalType":"bytes32","name":"","type":"bytes32"}],"stateMutability":"view","type":"function"},{"inputs":[],"name":"AUDITOR_ROLE","outputs":[{"internalType":"bytes32","name":"","type":"bytes32"}],"stateMutability":"view","type":"function"},{"inputs":[],"name":"BASE_SEPOLIA_HOLDING_REWARD","outputs":[{"internalType":"uint256","name":"","type":"uint256"}],"stateMutability":"view","type":"function"},{"inputs":[],"name":"BATCH_SIZE","outputs":[{"internalType":"uint256","name":"","type":"uint256"}],"stateMutability":"view","type":"function"},{"inputs":[],"name":"DAILY_PLAY_REWARD","outputs":[{"internalType":"uint256","name":"","type":"uint256"}],"stateMutability":"view","type":"function"},{"inputs":[],"name":"DAILY_WINNERS_COUNT","outputs":[{"internalType":"uint256","name":"","type":"uint256"}],"stateMutability":"view","type":"function"},{"inputs":[],"name":"DOLLAR_ENTRY_FEE","outputs":[{"internalType":"uint256","name":"","type":"uint256"}],"stateMutability":"view","type":"function"},{"inputs":[],"name":"EMERGENCY_ROLE","outputs":[{"internalType":"bytes32","name":"","type":"bytes32"}],"stateMutability":"view","type":"function"},{"inputs":[],"name":"ENTRY_COOLDOWN","outputs":[{"internalType":"uint256","name":"","type":"uint256"}],"stateMutability":"view","type":"function"},{"inputs":[],"name":"FIRST_ORDER_REWARD","outputs":[{"internalType":"uint256","name":"","type":"uint256"}],"stateMutability":"view","type":"function"},{"inputs":[],"name":"GAS_OPTIMIZATION_INTERVAL","outputs":[{"internalType":"uint256","name":"","type":"uint256"}],"stateMutability":"view","type":"function"},{"inputs":[],"name":"JACKPOT_ENTRY_COST","outputs":[{"internalType":"uint256","name":"","type":"uint256"}],"stateMutability":"view","type":"function"},{"inputs":[],"name":"JACKPOT_MULTIPLIER","outputs":[{"internalType":"uint256","name":"","type":"uint256"}],"stateMutability":"view","type":"function"},{"inputs":[],"name":"LOYALTY_POINTS_PER_DOLLAR","outputs":[{"internalType":"uint256","name":"","type":"uint256"}],"stateMutability":"view","type":"function"},{"inputs":[],"name":"MAX_DAILY_ENTRIES","outputs":[{"internalType":"uint256","name":"","type":"uint256"}],"stateMutability":"view","type":"function"},{"inputs":[],"name":"MAX_DAILY_REWARDS","outputs":[{"internalType":"uint256","name":"","type":"uint256"}],"stateMutability":"view","type":"function"},{"inputs":[],"name":"MAX_JACKPOT_ENTRIES","outputs":[{"internalType":"uint256","name":"","type":"uint256"}],"stateMutability":"view","type":"function"},{"inputs":[],"name":"MAX_PRICE_DEVIATION","outputs":[{"internalType":"uint256","name":"","type":"uint256"}],"stateMutability":"view","type":"function"},{"inputs":[],"name":"MAX_REFERRAL_CODE_LENGTH","outputs":[{"internalType":"uint256","name":"","type":"uint256"}],"stateMutability":"view","type":"function"},{"inputs":[],"name":"MAX_REWARD_AMOUNT","outputs":[{"internalType":"uint256","name":"","type":"uint256"}],"stateMutability":"view","type":"function"},{"inputs":[],"name":"MIN_BASE_SEPOLIA_HOLDING","outputs":[{"internalType":"uint256","name":"","type":"uint256"}],"stateMutability":"view","type":"function"},{"inputs":[],"name":"MIN_REFERRAL_CODE_LENGTH","outputs":[{"internalType":"uint256","name":"","type":"uint256"}],"stateMutability":"view","type":"function"},{"inputs":[],"name":"OPERATOR_ROLE","outputs":[{"internalType":"bytes32","name":"","type":"bytes32"}],"stateMutability":"view","type":"function"},{"inputs":[],"name":"PRICE_UPDATE_THRESHOLD","outputs":[{"internalType":"uint256","name":"","type":"uint256"}],"stateMutability":"view","type":"function"},{"inputs":[],"name":"REFERRAL_REWARD","outputs":[{"internalType":"uint256","name":"","type":"uint256"}],"stateMutability":"view","type":"function"},{"inputs":[],"name":"STREAK_BONUS","outputs":[{"internalType":"uint256","name":"","type":"uint256"}],"stateMutability":"view","type":"function"},{"inputs":[],"name":"WEEKLY_WINNERS_COUNT","outputs":[{"internalType":"uint256","name":"","type":"uint256"}],"stateMutability":"view","type":"function"},{"inputs":[],"name":"addJackpotEntry","outputs":[],"stateMutability":"nonpayable","type":"function"},{"inputs":[],"name":"awardBaseSepoliaHoldingsToppings","outputs":[],"stateMutability":"nonpayable","type":"function"},{"inputs":[],"name":"awardLoyaltyPoints","outputs":[],"stateMutability":"nonpayable","type":"function"},{"inputs":[],"name":"awardStreakBonus","outputs":[],"stateMutability":"nonpayable","type":"function"},{"inputs":[{"internalType":"uint256","name":"","type":"uint256"}],"name":"batchProcessingActive","outputs":[{"internalType":"bool","name":"","type":"bool"}],"stateMutability":"view","type":"function"},{"inputs":[{"internalType":"uint256","name":"","type":"uint256"}],"name":"batchProcessingNonce","outputs":[{"internalType":"uint256","name":"","type":"uint256"}],"stateMutability":"view","type":"function"},{"inputs":[{"internalType":"address","name":"","type":"address"}],"name":"blacklistedAddresses","outputs":[{"internalType":"bool","name":"","type":"bool"}],"stateMutability":"view","type":"function"},{"inputs":[],"name":"claimFirstOrderReward","outputs":[],"stateMutability":"nonpayable","type":"function"},{"inputs":[{"internalType":"uint256","name":"challengeId","type":"uint256"}],"name":"claimWeeklyChallengeReward","outputs":[],"stateMutability":"nonpayable","type":"function"},{"inputs":[{"internalType":"bytes32","name":"entropy","type":"bytes32"}],"name":"contributeEntropy","outputs":[],"stateMutability":"nonpayable","type":"function"},{"inputs":[],"name":"createReferralCode","outputs":[],"stateMutability":"nonpayable","type":"function"},{"inputs":[],"name":"currentDailyJackpot","outputs":[{"internalType":"uint256","name":"","type":"uint256"}],"stateMutability":"view","type":"function"},{"inputs":[],"name":"currentRandomnessRound","outputs":[{"internalType":"uint256","name":"","type":"uint256"}],"stateMutability":"view","type":"function"},{"inputs":[],"name":"currentWeeklyJackpot","outputs":[{"internalType":"uint256","name":"","type":"uint256"}],"stateMutability":"view","type":"function"},{"inputs":[{"internalType":"uint256","name":"","type":"uint256"}],"name":"dailyPlayerCount","outputs":[{"internalType":"uint256","name":"","type":"uint256"}],"stateMutability":"view","type":"function"},{"inputs":[{"internalType":"uint256","name":"","type":"uint256"},{"internalType":"uint256","name":"","type":"uint256"}],"name":"dailyPlayers","outputs":[{"internalType":"address","name":"","type":"address"}],"stateMutability":"view","type":"function"},{"inputs":[],"name":"drawDailyWinners","outputs":[],"stateMutability":"nonpayable","type":"function"},{"inputs":[],"name":"drawWeeklyWinners","outputs":[],"stateMutability":"nonpayable","type":"function"},{"inputs":[{"internalType":"bool","name":"pause","type":"bool"}],"name":"emergencyPause","outputs":[],"stateMutability":"nonpayable","type":"function"},{"inputs":[{"internalType":"uint256","name":"gameId","type":"uint256"}],"name":"emergencyUnlockGame","outputs":[],"stateMutability":"nonpayable","type":"function"},{"inputs":[],"name":"emergencyWithdraw","outputs":[],"stateMutability":"nonpayable","type":"function"},{"inputs":[{"internalType":"string","name":"referralCode","type":"string"}],"name":"enterDailyGame","outputs":[],"stateMutability":"nonpayable","type":"function"},{"inputs":[{"internalType":"uint256","name":"","type":"uint256"}],"name":"entropyContributions","outputs":[{"internalType":"uint256","name":"","type":"uint256"}],"stateMutability":"view","type":"function"},{"inputs":[{"internalType":"uint256","name":"","type":"uint256"},{"internalType":"uint256","name":"","type":"uint256"}],"name":"entropyContributors","outputs":[{"internalType":"address","name":"","type":"address"}],"stateMutability":"view","type":"function"},{"inputs":[],"name":"entropyRoundId","outputs":[{"internalType":"uint256","name":"","type":"uint256"}],"stateMutability":"view","type":"function"},{"inputs":[{"internalType":"uint256","name":"","type":"uint256"}],"name":"gameStateLocked","outputs":[{"internalType":"bool","name":"","type":"bool"}],"stateMutability":"view","type":"function"},{"inputs":[{"internalType":"uint256","name":"","type":"uint256"}],"name":"games","outputs":[{"internalType":"uint256","name":"gameId","type":"uint256"},{"internalType":"uint256","name":"startTime","type":"uint256"},{"internalType":"uint256","name":"endTime","type":"uint256"},{"internalType":"uint256","name":"totalEntries","type":"uint256"},{"internalType":"uint256","name":"jackpotAmount","type":"uint256"},{"internalType":"bool","name":"isCompleted","type":"bool"},{"internalType":"uint256","name":"randomnessRoundId","type":"uint256"}],"stateMutability":"view","type":"function"},{"inputs":[],"name":"gasOptimizationThreshold","outputs":[{"internalType":"uint256","name":"","type":"uint256"}],"stateMutability":"view","type":"function"},{"inputs":[],"name":"generateSecureRandomness","outputs":[{"internalType":"uint256","name":"","type":"uint256"}],"stateMutability":"nonpayable","type":"function"},{"inputs":[],"name":"getCurrentEntryFee","outputs":[{"internalType":"uint256","name":"","type":"uint256"}],"stateMutability":"view","type":"function"},{"inputs":[],"name":"getCurrentGame","outputs":[{"components":[{"internalType":"uint256","name":"gameId","type":"uint256"},{"internalType":"uint256","name":"startTime","type":"uint256"},{"internalType":"uint256","name":"endTime","type":"uint256"},{"internalType":"uint256","name":"totalEntries","type":"uint256"},{"internalType":"uint256","name":"jackpotAmount","type":"uint256"},{"internalType":"address[]","name":"winners","type":"address[]"},{"internalType":"bool","name":"isCompleted","type":"bool"},{"internalType":"uint256","name":"randomnessRoundId","type":"uint256"}],"internalType":"struct PizzaParty.Game","name":"","type":"tuple"}],"stateMutability":"view","type":"function"},{"inputs":[],"name":"getCurrentGameId","outputs":[{"internalType":"uint256","name":"gameId","type":"uint256"}],"stateMutability":"view","type":"function"},{"inputs":[],"name":"getCurrentVMFPrice","outputs":[{"internalType":"uint256","name":"","type":"uint256"}],"stateMutability":"view","type":"function"},{"inputs":[{"internalType":"uint256","name":"gameId","type":"uint256"}],"name":"getEligibleDailyPlayers","outputs":[{"internalType":"address[]","name":"eligiblePlayers","type":"address[]"}],"stateMutability":"view","type":"function"},{"inputs":[{"internalType":"uint256","name":"gameId","type":"uint256"}],"name":"getEligibleWeeklyPlayers","outputs":[{"internalType":"address[]","name":"eligiblePlayers","type":"address[]"}],"stateMutability":"view","type":"function"},{"inputs":[{"internalType":"uint256","name":"gameId","type":"uint256"}],"name":"getGame","outputs":[{"components":[{"internalType":"uint256","name":"gameId","type":"uint256"},{"internalType":"uint256","name":"startTime","type":"uint256"},{"internalType":"uint256","name":"endTime","type":"uint256"},{"internalType":"uint256","name":"totalEntries","type":"uint256"},{"internalType":"uint256","name":"jackpotAmount","type":"uint256"},{"internalType":"address[]","name":"winners","type":"address[]"},{"internalType":"bool","name":"isCompleted","type":"bool"},{"internalType":"uint256","name":"randomnessRoundId","type":"uint256"}],"internalType":"struct PizzaParty.Game","name":"","type":"tuple"}],"stateMutability":"view","type":"function"},{"inputs":[],"name":"getGasUsageStats","outputs":[{"internalType":"uint256","name":"threshold","type":"uint256"},{"internalType":"uint256","name":"lastOptimization","type":"uint256"},{"internalType":"uint256","name":"batchNonce","type":"uint256"}],"stateMutability":"view","type":"function"},{"inputs":[{"internalType":"uint256","name":"gameId","type":"uint256"}],"name":"getJackpotState","outputs":[{"internalType":"uint256","name":"amount","type":"uint256"},{"internalType":"bytes32","name":"stateHash","type":"bytes32"},{"internalType":"uint256","name":"nonce","type":"uint256"}],"stateMutability":"view","type":"function"},{"inputs":[{"internalType":"address","name":"player","type":"address"}],"name":"getPlayerInfo","outputs":[{"components":[{"internalType":"uint256","name":"totalToppings","type":"uint256"},{"internalType":"uint256","name":"dailyEntries","type":"uint256"},{"internalType":"uint256","name":"weeklyEntries","type":"uint256"},{"internalType":"uint256","name":"lastEntryTime","type":"uint256"},{"internalType":"uint256","name":"streakDays","type":"uint256"},{"internalType":"uint256","name":"lastStreakUpdate","type":"uint256"},{"internalType":"bool","name":"isBlacklisted","type":"bool"},{"internalType":"uint256","name":"lastVMFHoldingsCheck","type":"uint256"},{"internalType":"uint256","name":"loyaltyPoints","type":"uint256"},{"internalType":"uint256","name":"totalOrders","type":"uint256"},{"internalType":"uint256","name":"weeklyChallengesCompleted","type":"uint256"},{"internalType":"uint256","name":"jackpotEntries","type":"uint256"},{"internalType":"uint256","name":"lastRewardClaim","type":"uint256"},{"internalType":"bool","name":"hasCompletedFirstOrder","type":"bool"},{"internalType":"uint256","name":"dailyRewardsClaimed","type":"uint256"},{"internalType":"uint256","name":"lastSecurityCheck","type":"uint256"},{"internalType":"bool","name":"isRateLimited","type":"bool"}],"internalType":"struct PizzaParty.Player","name":"","type":"tuple"}],"stateMutability":"view","type":"function"},{"inputs":[{"internalType":"address","name":"player","type":"address"}],"name":"getReferralInfo","outputs":[{"components":[{"internalType":"address","name":"referrer","type":"address"},{"internalType":"uint256","name":"totalReferrals","type":"uint256"},{"internalType":"uint256","name":"totalRewards","type":"uint256"},{"internalType":"bool","name":"isActive","type":"bool"}],"internalType":"struct PizzaParty.Referral","name":"","type":"tuple"}],"stateMutability":"view","type":"function"},{"inputs":[{"internalType":"bytes32","name":"role","type":"bytes32"},{"internalType":"address","name":"account","type":"address"}],"name":"grantRole","outputs":[],"stateMutability":"nonpayable","type":"function"},{"inputs":[{"internalType":"address","name":"player","type":"address"}],"name":"hasEnteredToday","outputs":[{"internalType":"bool","name":"","type":"bool"}],"stateMutability":"view","type":"function"},{"inputs":[{"internalType":"bytes32","name":"role","type":"bytes32"},{"internalType":"address","name":"account","type":"address"}],"name":"hasRole","outputs":[{"internalType":"bool","name":"","type":"bool"}],"stateMutability":"view","type":"function"},{"inputs":[],"name":"isDailyDrawReady","outputs":[{"internalType":"bool","name":"ready","type":"bool"}],"stateMutability":"view","type":"function"},{"inputs":[],"name":"isWeeklyDrawReady","outputs":[{"internalType":"bool","name":"ready","type":"bool"}],"stateMutability":"view","type":"function"},{"inputs":[{"internalType":"uint256","name":"","type":"uint256"}],"name":"jackpotStateHash","outputs":[{"internalType":"bytes32","name":"","type":"bytes32"}],"stateMutability":"view","type":"function"},{"inputs":[],"name":"jackpotUpdateCooldown","outputs":[{"internalType":"uint256","name":"","type":"uint256"}],"stateMutability":"view","type":"function"},{"inputs":[{"internalType":"uint256","name":"","type":"uint256"}],"name":"jackpotUpdateNonce","outputs":[{"internalType":"uint256","name":"","type":"uint256"}],"stateMutability":"view","type":"function"},{"inputs":[],"name":"lastDailyDraw","outputs":[{"internalType":"uint256","name":"","type":"uint256"}],"stateMutability":"view","type":"function"},{"inputs":[],"name":"lastEntropyUpdate","outputs":[{"internalType":"uint256","name":"","type":"uint256"}],"stateMutability":"view","type":"function"},{"inputs":[],"name":"lastGasOptimization","outputs":[{"internalType":"uint256","name":"","type":"uint256"}],"stateMutability":"view","type":"function"},{"inputs":[],"name":"lastJackpotUpdate","outputs":[{"internalType":"uint256","name":"","type":"uint256"}],"stateMutability":"view","type":"function"},{"inputs":[],"name":"lastWeeklyDraw","outputs":[{"internalType":"uint256","name":"","type":"uint256"}],"stateMutability":"view","type":"function"},{"inputs":[],"name":"optimizeGasUsage","outputs":[],"stateMutability":"nonpayable","type":"function"},{"inputs":[],"name":"owner","outputs":[{"internalType":"address","name":"","type":"address"}],"stateMutability":"view","type":"function"},{"inputs":[],"name":"paused","outputs":[{"internalType":"bool","name":"","type":"bool"}],"stateMutability":"view","type":"function"},{"inputs":[{"internalType":"uint256","name":"","type":"uint256"},{"internalType":"uint256","name":"","type":"uint256"}],"name":"pendingWinners","outputs":[{"internalType":"address","name":"","type":"address"}],"stateMutability":"view","type":"function"},{"inputs":[{"internalType":"address","name":"","type":"address"}],"name":"players","outputs":[{"internalType":"uint256","name":"totalToppings","type":"uint256"},{"internalType":"uint256","name":"dailyEntries","type":"uint256"},{"internalType":"uint256","name":"weeklyEntries","type":"uint256"},{"internalType":"uint256","name":"lastEntryTime","type":"uint256"},{"internalType":"uint256","name":"streakDays","type":"uint256"},{"internalType":"uint256","name":"lastStreakUpdate","type":"uint256"},{"internalType":"bool","name":"isBlacklisted","type":"bool"},{"internalType":"uint256","name":"lastVMFHoldingsCheck","type":"uint256"},{"internalType":"uint256","name":"loyaltyPoints","type":"uint256"},{"internalType":"uint256","name":"totalOrders","type":"uint256"},{"internalType":"uint256","name":"weeklyChallengesCompleted","type":"uint256"},{"internalType":"uint256","name":"jackpotEntries","type":"uint256"},{"internalType":"uint256","name":"lastRewardClaim","type":"uint256"},{"internalType":"bool","name":"hasCompletedFirstOrder","type":"bool"},{"internalType":"uint256","name":"dailyRewardsClaimed","type":"uint256"},{"internalType":"uint256","name":"lastSecurityCheck","type":"uint256"},{"internalType":"bool","name":"isRateLimited","type":"bool"}],"stateMutability":"view","type":"function"},{"inputs":[],"name":"priceOracle","outputs":[{"internalType":"contract FreePriceOracle","name":"","type":"address"}],"stateMutability":"view","type":"function"},{"inputs":[{"internalType":"address[]","name":"players","type":"address[]"},{"internalType":"uint256[]","name":"amounts","type":"uint256[]"}],"name":"processBatchPlayers","outputs":[],"stateMutability":"nonpayable","type":"function"},{"inputs":[{"internalType":"uint256","name":"gameId","type":"uint256"},{"internalType":"address[]","name":"winners","type":"address[]"}],"name":"processDailyWinners","outputs":[],"stateMutability":"nonpayable","type":"function"},{"inputs":[{"internalType":"uint256","name":"gameId","type":"uint256"},{"internalType":"address[]","name":"winners","type":"address[]"}],"name":"processWeeklyWinners","outputs":[],"stateMutability":"nonpayable","type":"function"},{"inputs":[],"name":"randomnessContract","outputs":[{"internalType":"contract FreeRandomness","name":"","type":"address"}],"stateMutability":"view","type":"function"},{"inputs":[{"internalType":"uint256","name":"","type":"uint256"}],"name":"randomnessSeeds","outputs":[{"internalType":"bytes32","name":"","type":"bytes32"}],"stateMutability":"view","type":"function"},{"inputs":[{"internalType":"string","name":"","type":"string"}],"name":"referralCodes","outputs":[{"internalType":"address","name":"","type":"address"}],"stateMutability":"view","type":"function"},{"inputs":[{"internalType":"address","name":"","type":"address"}],"name":"referrals","outputs":[{"internalType":"address","name":"referrer","type":"address"},{"internalType":"uint256","name":"totalReferrals","type":"uint256"},{"internalType":"uint256","name":"totalRewards","type":"uint256"},{"internalType":"bool","name":"isActive","type":"bool"}],"stateMutability":"view","type":"function"},{"inputs":[],"name":"renounceOwnership","outputs":[],"stateMutability":"nonpayable","type":"function"},{"inputs":[],"name":"requestDailyRandomness","outputs":[],"stateMutability":"nonpayable","type":"function"},{"inputs":[],"name":"requestDailyVRF","outputs":[],"stateMutability":"nonpayable","type":"function"},{"inputs":[],"name":"requestWeeklyVRF","outputs":[],"stateMutability":"nonpayable","type":"function"},{"inputs":[{"internalType":"uint256","name":"roundId","type":"uint256"},{"internalType":"uint256","name":"randomValue","type":"uint256"},{"internalType":"bytes32","name":"salt","type":"bytes32"}],"name":"revealRandomness","outputs":[],"stateMutability":"nonpayable","type":"function"},{"inputs":[{"internalType":"bytes32","name":"role","type":"bytes32"},{"internalType":"address","name":"account","type":"address"}],"name":"revokeRole","outputs":[],"stateMutability":"nonpayable","type":"function"},{"inputs":[{"internalType":"bytes32","name":"","type":"bytes32"}],"name":"roleAdmins","outputs":[{"internalType":"address","name":"","type":"address"}],"stateMutability":"view","type":"function"},{"inputs":[{"internalType":"bytes32","name":"","type":"bytes32"},{"internalType":"address","name":"","type":"address"}],"name":"roles","outputs":[{"internalType":"bool","name":"","type":"bool"}],"stateMutability":"view","type":"function"},{"inputs":[],"name":"selectDailyWinners","outputs":[],"stateMutability":"nonpayable","type":"function"},{"inputs":[{"internalType":"uint256","name":"cooldown","type":"uint256"}],"name":"setJackpotUpdateCooldown","outputs":[],"stateMutability":"nonpayable","type":"function"},{"inputs":[{"internalType":"address","name":"player","type":"address"},{"internalType":"bool","name":"blacklisted","type":"bool"}],"name":"setPlayerBlacklist","outputs":[],"stateMutability":"nonpayable","type":"function"},{"inputs":[{"internalType":"bytes32","name":"role","type":"bytes32"},{"internalType":"address","name":"admin","type":"address"}],"name":"setRoleAdmin","outputs":[],"stateMutability":"nonpayable","type":"function"},{"inputs":[{"internalType":"bool","name":"_useVRF","type":"bool"}],"name":"setUseVRF","outputs":[],"stateMutability":"nonpayable","type":"function"},{"inputs":[{"internalType":"address","name":"_vrfContract","type":"address"}],"name":"setVRFContract","outputs":[],"stateMutability":"nonpayable","type":"function"},{"inputs":[{"internalType":"uint256","name":"roundId","type":"uint256"},{"internalType":"bytes32","name":"commitment","type":"bytes32"}],"name":"submitRandomnessCommitment","outputs":[],"stateMutability":"nonpayable","type":"function"},{"inputs":[{"internalType":"address","name":"newOwner","type":"address"}],"name":"transferOwnership","outputs":[],"stateMutability":"nonpayable","type":"function"},{"inputs":[{"internalType":"uint256","name":"gameId","type":"uint256"},{"internalType":"uint256","name":"newAmount","type":"uint256"},{"internalType":"bytes32","name":"expectedStateHash","type":"bytes32"}],"name":"updateJackpotAtomic","outputs":[],"stateMutability":"nonpayable","type":"function"},{"inputs":[],"name":"useVRF","outputs":[{"internalType":"bool","name":"","type":"bool"}],"stateMutability":"view","type":"function"},{"inputs":[{"internalType":"address","name":"","type":"address"}],"name":"userDailyRewards","outputs":[{"internalType":"uint256","name":"","type":"uint256"}],"stateMutability":"view","type":"function"},{"inputs":[{"internalType":"address","name":"","type":"address"}],"name":"userLastActivity","outputs":[{"internalType":"uint256","name":"","type":"uint256"}],"stateMutability":"view","type":"function"},{"inputs":[{"internalType":"address","name":"","type":"address"}],"name":"userRateLimitEnd","outputs":[{"internalType":"uint256","name":"","type":"uint256"}],"stateMutability":"view","type":"function"},{"inputs":[],"name":"vmfToken","outputs":[{"internalType":"contract IERC20","name":"","type":"address"}],"stateMutability":"view","type":"function"},{"inputs":[],"name":"vrfContract","outputs":[{"internalType":"contract ChainlinkVRF","name":"","type":"address"}],"stateMutability":"view","type":"function"},{"inputs":[{"internalType":"uint256","name":"","type":"uint256"}],"name":"vrfRequests","outputs":[{"internalType":"bool","name":"","type":"bool"}],"stateMutability":"view","type":"function"},{"inputs":[{"internalType":"uint256","name":"","type":"uint256"}],"name":"weeklyChallenges","outputs":[{"internalType":"uint256","name":"challengeId","type":"uint256"},{"internalType":"string","name":"challengeName","type":"string"},{"internalType":"uint256","name":"rewardAmount","type":"uint256"},{"internalType":"uint256","name":"completionRequirement","type":"uint256"},{"internalType":"bool","name":"isActive","type":"bool"}],"stateMutability":"view","type":"function"},{"inputs":[{"internalType":"uint256","name":"","type":"uint256"}],"name":"weeklyPlayerCount","outputs":[{"internalType":"uint256","name":"","type":"uint256"}],"stateMutability":"view","type":"function"},{"inputs":[{"internalType":"uint256","name":"","type":"uint256"},{"internalType":"uint256","name":"","type":"uint256"}],"name":"weeklyPlayers","outputs":[{"internalType":"address","name":"","type":"address"}],"stateMutability":"view","type":"function"}],"evm":{"bytecode":{"linkReferences":{},"object":"60a034620005b257601f6200767538819003918201601f1916830191906001600160401b03831184841017620005b7578160809285926040958652833981010312620005b2576200005082620005cd565b6200005e60208401620005cd565b926200007a606062000072858401620005cd565b9201620005cd565b90600160005533156200059a5760018054336001600160a01b031980831682179093558651979295916001600160a01b03167f8be0079c531659141344cd1fd0a4f28419497f9722a3daafe3b4186f6b6457e0600080a36016805460ff191660011790556001600160a01b03168062000590575b506001600160a01b03169485156200054257506001600160a01b0316938415620004fe578260025416176002556004938285541617845560018060a01b031680620004ee575b507fa49807205ce4d355092ef5a8a18f56e8913cf4a201fbe287825b095693c2177580600052601c602052826000203360005260205282600020600160ff198254161790557f97667070c54ef182b0f5858b034beac1b6f3089aa2d3188bb1e8929f4fa9b92980600052601c602052836000203360005260205283600020600160ff198254161790557fbf233dd2aafeb4d50879c4aa5c81e96d92f6e6945c906a58f9f2d1c1631b4b269081600052601c602052846000203360005260205284600020600160ff198254161790557f59a1c48e5837ad7a7f3dcedcbe129bf3249ec4fbf651fd4f5e2600ead39fe2f59384600052601c602052856000203360005260205285600020600160ff1982541617905583600052601d602052856000203382825416179055816000528560002033828254161790558260005285600020338282541617905584600052856000209033908254161790557f2f8788117e7eff1d82e926ec794901d17c78024a50270940304540a733656f0d923390339085600080a43390339084600080a43390339083600080a433913391600080a46002600555620151804201804211620004d957815192602084016001600160401b03811185821017620004c45783526000845282519161010083016001600160401b03811184821017620004af578452600283526020830191428352848401918252606084016000815260808501906000825260a0860197885260c08601936000855260e087019560008752600260005260216020528860002097518855516001880155516002870155516003860155518185015560058401955180519160018060401b0383116200049a576801000000000000000083116200049a575086548288558083106200046e575b506020019560005260206000209560005b828110620004505750505090600791600684019051151560ff801983541691161790555191015542600855516170929081620005e38239608051818181610a5b0152818161126101528181611c00015281816121cb015281816128ff01528181612fc701528181613c3f01528181614cb501528181615a5e0152615dd20152f35b81516001600160a01b031681890155602090910190600101620003cf565b8760005282602060002091820191015b8181106200048d5750620003be565b600081556001016200047e565b604190634e487b7160e01b6000525260246000fd5b604183634e487b7160e01b6000525260246000fd5b604182634e487b7160e01b6000525260246000fd5b601183634e487b7160e01b6000525260246000fd5b8160035416176003553862000134565b835162461bcd60e51b815260206004820152601c60248201527f496e76616c6964207072696365206f7261636c652061646472657373000000006044820152606490fd5b62461bcd60e51b815260206004820152602360248201527f496e76616c69642072616e646f6d6e65737320636f6e7472616374206164647260448201526265737360e81b6064820152608490fd5b60805238620000ee565b8351631e4fbdf760e01b815260006004820152602490fd5b600080fd5b634e487b7160e01b600052604160045260246000fd5b51906001600160a01b0382168203620005b25756fe60e080604052600436101561001357600080fd5b600090813560e01c90816303fa2c6314615055575080630603834114615032578063098655d9146150155780630aa0169514614fc75780630b00a5db14614f025780630c89d12714614ed05780630d9f92ca146105f6578063117a5b9014614e5f5780631472cbe314614d4d57806316fa108614614d3157806319bf155d14614d135780631a1d925214614ce45780632086eefa14614c9f57806320df435914614c7657806321874ae214614bce57806325b7f3881461499e5780632618cafd146146fa5780632630c12f146146d15780632655e8401461468a57806328100aca1461466c5780632a243f191461463d5780632e108d1c146143ca5780632ee8b778146143ac5780632efb53da1461437c5780632f2ff15d146142d15780632ff7a52d1461429857806339d8ea42146117285780633a65126a14613eb35780633bb4f63814613e955780633f78141214613e515780633fb83a5414613e3057806341fe39ec14613e0757806343f2a08014613d7757806349faa4d4146105f65780634b75344e146119dc5780634eb692a514613d455780634f55e8ad14613cc157806352861f7f14613ca057806356768b5e14613b6c578063593284011461394357806359a9867e146137e557806359db6fe6146137c75780635c27b2e414612eb75780635c975abb14612e9157806367cafabb14612e675780636858a3f314612e3e57806369396e8814612e225780636ce497b214612d925780636e1d616e14612d57578063715018a614612d0c57806371e4206d14612adb57806374631fd71461288f5780637550b84f1461287157806375b238fc1461284857806377ce29921461280f578063786a78c61461278a57806379675127146127605780637a7eb1f41461275b57806384a3a0f31461275b578063853b2b88146127165780638543210d146126e35780638c267e0d146112235780638da5cb5b146126ba57806391d1485414612655578063920736e514612623578063968d901b1461256557806396f277b7146123015780639b5a139a146125435780639b6ccde2146123065780639b95f1fc146123015780639ca423b31461229d5780639e9e405614612104578063a04f6b4b146120e7578063a154fc6b14612077578063a263540114612059578063a2f77bcc14611f78578063a37c157214611f49578063a88066f714611f4e578063a9b8b45114611f49578063ad76319214611ed4578063aea664a514611ea1578063b87fc22d14611b5f578063b8caead614611b41578063ba53ba2414611af2578063bacf46f314611a4c578063bb6bf0f014611a2e578063bbc3ced7146105f6578063bcf6447514610da0578063bf757624146119ff578063c14e1e05146119e1578063c5d32157146119dc578063c65a8568146119ac578063cb955e6b14611794578063ccb60e0114611757578063cf3766771461172d578063d136a94d14611728578063d2111791146116fe578063d547741f14611654578063d5749d4214611615578063d5fa40e3146113d0578063d61b86bb146113a6578063db2e21bc14611228578063dd23b9cb14611223578063e22cb9c914610f74578063e2eb41ff14610e45578063e3505b1414610dc3578063e3d440a714610da5578063e443e27914610da0578063e82aefc714610d00578063e8f6940e14610c05578063eb0fb2c814610943578063ecb6159e14610705578063ee892e64146106e7578063f2fde38b1461066f578063f5b541a614610646578063f711dca4146105fb578063f8172fe3146105f6578063f877a8af146105c1578063f8fc08b9146105755763ffc395041461054957600080fd5b346105725760203660031901126105725760406020916004358152600c83522054604051908152f35b80fd5b50346105725760403660031901126105725760406105916150a1565b916004358152601c602052209060018060a01b0316600052602052602060ff604060002054166040519015158152f35b5034610572576020366003190112610572576105db61532b565b6105e3616288565b60ff801960165416911515161760165580f35b61510f565b50346105725761060a366150cb565b9190815260156020526040812090815483101561057257602061062d84846150e1565b905460405160039290921b1c6001600160a01b03168152f35b50346105725780600319360112610572576020604051600080516020616f7d8339815191528152f35b50346105725760203660031901126105725761068961508b565b610691616288565b6001600160a01b039081169081156106ce57600180546001600160a01b03198116841790915516600080516020616f9d833981519152600080a380f35b604051631e4fbdf760e01b815260048101849052602490fd5b50346105725780600319360112610572576020602954604051908152f35b5034610572578060031936011261057257600080516020616f7d83398151915281526020601c81526040822033600052815260ff60406000205416801561092f575b610750906157d0565b6107586162b4565b61076660ff60165416616102565b6003546001600160a01b031661077d811515616140565b60095462093a80810180911161091b5761079990421015615c5a565b60055460405163ccb60e0160e01b81526004810182905291908483602481305afa9283156109105785936108ec575b5082511561089b579183916108019386604051809681958294631b9540cf60e21b845260048401526040602484015260448301906154e1565b03925af190811561089057839161085e575b508083526014825260408320600160ff1982541617905560008051602061703d833981519152606060055493600660405191808352820152657765656b6c7960d01b6040820152a380f35b90508181813d8311610889575b610875818361522f565b81010312610884575138610813565b600080fd5b503d61086b565b6040513d85823e3d90fd5b60405162461bcd60e51b815260048101859052602360248201527f4e6f20656c696769626c6520706c617965727320666f72207765656b6c79206460448201526272617760e81b6064820152608490fd5b6109099193503d8087833e610901818361522f565b810190616183565b91386107c8565b6040513d87823e3d90fd5b634e487b7160e01b84526011600452602484fd5b506001546001600160a01b03163314610747565b5034610572578060031936011261057257600080516020616f7d83398151915281526020601c81526040822033600052815260ff604060002054168015610bf1575b61098e906157d0565b6109966162b4565b600a90600a5415610bad57600019430143811161091b5760135460405190838201924284524460408401524060608301523360601b60808301526094820152609481526109e2816151f8565b519020916109f283600554616b92565b9360065460031c92815b8651811015610b31576001600160a01b0380610a18838a61587a565b5116610a28575b506001016109fc565b610a55838783610a38868d61587a565b5116604051938492839263a9059cbb60e01b8452600484016158f7565b038188867f0000000000000000000000000000000000000000000000000000000000000000165af19081156109105790610a96918691610b04575b5061620c565b80610aa1838a61587a565b51168452601e835260408420805490868201809211610af0575560019190610ac9828a61587a565b5116600080516020616fdd83398151915260405180610ae78161624a565b0390a290610a1f565b634e487b7160e01b86526011600452602486fd5b610b249150853d8711610b2a575b610b1c818361522f565b8101906158df565b38610a90565b503d610b12565b507f9f22d2b65d1e9bef93da4067644e4ead3bd41c9d3fc8568887cc572b482e6cb79085610b9f8860055492600080516020616fbd833981519152610b8060065460405191829186898461589d565b0390a160405194859485528401526060604084015260608301906154e1565b0390a1610baa6165d1565b80f35b6064906040519062461bcd60e51b82526004820152601d60248201527f4e6f2072616e646f6d6e65737320726f756e64207265717565737465640000006044820152fd5b506001546001600160a01b03163314610985565b503461057257602036600319011261057257610c1f61532b565b610c27616288565b8015610c92576020600080516020616f5d83398151915291610c476162b4565b6001805460ff60a01b1916600160a01b1790556040513381527f62e78cea01bee320cd4e420270b5ea74000d11b0c9f74754ebdbfc544b05a258908390a15b6040519015158152a180f35b60015460ff8160a01c1615610cee5760ff60a01b1916600155604051338152600080516020616f5d833981519152916020917f5db9ee0a495bf2e6ff9c91a7834c1ba4fdd244a5e8aa4e537bd38aeae4b073aa908390a1610c86565b604051638dfc202b60e01b8152600490fd5b503461057257602036600319011261057257600435600080516020616f1d8339815191528252601c602052604082203360005260205260ff604060002054168015610d8c575b610d4f906157d0565b808252601760205260408220805460ff1916905533907f6d01469f672cd6cb0434a128cac9b91dc60a83e67a56be9fb5f265c18d29c7c58380a380f35b506001546001600160a01b03163314610d46565b6155d3565b50346105725780600319360112610572576020600654604051908152f35b503461057257604036600319011261057257610ddd6162b4565b60025481906001600160a01b0316803b15610e42578180916044604051809481936339a8f67760e21b8352600435600484015260243560248401525af18015610e3757610e275750f35b610e3090615194565b6105725780f35b6040513d84823e3d90fd5b50fd5b5034610572576020366003190112610572576001600160a01b03610e6761508b565b168152601e6020526040902080808054600182015460c0526002820154600383015460048401546005850154600686015460ff16600787015490600888015492600989015494600a8a015496600b8b015498600c8c01549a600d8d015460ff169c600e01549d600f01549e6010015460ff1660805260405160a05260a0515260c05160a0516020015260a0516040015260a0516060015260a0516080015260a05160a00152151560a05160c0015260a05160e0015260a051610100015260a051610120015260a051610140015260a051610160015260a0516101800152151560a0516101a0015260a0516101c0015260a0516101e00152608051151560a051610200015260a05161022090f35b5034610572578060031936011261057257610f8d616332565b610f956162b4565b338152602060228152610faf60ff6040842054161561564d565b338252601e808252610fcb60ff6006604086200154161561564d565b338352808252600c60408420015462015180810180911161091b57610ff290421015615691565b33835280825261100b6064600e604086200154106156dc565b33835280825260ff600d604085200154166111d357338352808252600160096040852001541061119357336000526024908183526040600020546005810180911161114c57606481116111615733600052828452604060002055808352600e604060002001546005810180911161114c5733600052818452600e6040600020015533845280835260408420600d8101600160ff1982541617905554916005830180931161113a5750338452825260408320908155600c42910155604051600581527f666ff46b6b5a0789c7d628ecfa8a5975b192b7d3541fc30b22da07a9b3d4ddbc823392a26040805191600583528201526012604082015271119a5c9cdd081bdc99195c881c995dd85c9960721b6060820152600080516020616fdd83398151915260803392a26001815580f35b634e487b7160e01b8552601160045284fd5b82634e487b7160e01b60005260116004526000fd5b60405162461bcd60e51b815260048101859052601b81850152600080516020616ffd8339815191526044820152606490fd5b60405162461bcd60e51b8152600481018390526018602482015277139bc8199a5c9cdd081bdc99195c8818dbdb5c1b195d195960421b6044820152606490fd5b60405162461bcd60e51b815260048101839052602260248201527f4669727374206f726465722072657761726420616c726561647920636c61696d604482015261195960f21b6064820152608490fd5b6154c5565b5034610572578060031936011261057257611241616288565b6040516370a0823160e01b81523060048201526020906001600160a01b037f00000000000000000000000000000000000000000000000000000000000000008116908383602481855afa928315610910578593611377575b508215611339579183916112c893600154168660405180968195829463a9059cbb60e01b8452600484016158f7565b03925af190811561089057839161131c575b50156112e4575080f35b6064906040519062461bcd60e51b82526004820152601160248201527015da5d1a191c985dd85b0819985a5b1959607a1b6044820152fd5b6113339150823d8411610b2a57610b1c818361522f565b386112da565b60405162461bcd60e51b81526004810185905260166024820152754e6f2062616c616e636520746f20776974686472617760501b6044820152606490fd5b9092508381813d831161139f575b61138f818361522f565b8101031261088457519138611299565b503d611385565b50346105725760203660031901126105725760406020916004358152600e83522054604051908152f35b50346105725780600319360112610572576113e9616332565b6113f16162b4565b33815260206022815261140b60ff6040842054161561564d565b338252601e9081815261142860ff6006604086200154161561564d565b338352818152600c60408420015462015180908181018091116115715761145190421015615691565b33845282825261146a6064600e604087200154106156dc565b338452828252600760408520015490810180911161091b5742106115d95766038d7ea4c68000333181811061158557049182158380046001148117156115715761153657906040916114bc8433616355565b3385528082526114cf848487205461562a565b903386528252828520908155426007820155600c429101558151928352820152601c60408201527b10985cd94814d95c1bdb1a58481a1bdb191a5b99dcc81c995dd85c9960221b6060820152600080516020616fdd83398151915260803392a26001815580f35b60405162461bcd60e51b81526004810183905260136024820152724e6f2072657761726420617661696c61626c6560681b6044820152606490fd5b634e487b7160e01b85526011600452602485fd5b60405162461bcd60e51b815260048101849052602660248201527f496e73756666696369656e742042617365205365706f6c69612045544820686f6044820152656c64696e677360d01b6064820152608490fd5b6064906040519062461bcd60e51b825260048201526015602482015274416c726561647920636865636b656420746f64617960581b6044820152fd5b50346105725760203660031901126105725760209060ff906040906001600160a01b0361164061508b565b168152602284522054166040519015158152f35b5034610572576040366003190112610572576004356116716150a1565b818352601d60205260408320546001600160a01b0391908216331480156116f1575b61169c90615736565b166116a8811515615792565b818352601c6020526040832081600052602052604060002060ff19815416905533917ff6391f5c32d9c69d2a47ea670b442974b53935d1edc7fd64eb21e047a839171b8480a480f35b5060015482163314611693565b50346105725760203660031901126105725760406020916004358152601883522054604051908152f35b6152f8565b50346105725760203660031901126105725760406020916004358152601083522054604051908152f35b503461057257602036600319011261057257611790604051611778816151c2565b600081526040519182916020835260208301906154e1565b0390f35b50346105725780600319360112610572576117ad6162b4565b601254610e10810180911161195557421061196957600019430190438211611914576001194301914383116119555760135460025460405163c142e49560e01b8152919460209290918390829060049082906001600160a01b03165afa908115610910578591611928575b5060405190838201924284524460408401526060954060608401524060808301523360601b60a08301528660b483015260d482015260d4815261185a81615178565b5190209183925b858552601183526040852080548510156118bb5790611882856001936150e1565b90549060405191868301938452848060601b03199160031b1c851b166040820152603481526118b0816151dd565b519020930192611861565b838287898152600f83528160408220554260125560135490600182019081831161191457506013557f716aeb9158d0411549d0ea0300d76e79332e89ec7eb7b7c475efa863e7b9d00f83604051848152a2604051908152f35b634e487b7160e01b81526011600452602490fd5b90508281813d831161194e575b61193f818361522f565b81010312610884575138611818565b503d611935565b634e487b7160e01b82526011600452602482fd5b60405162461bcd60e51b815260206004820152601b60248201527a115b9d1c9bdc1e481d5c19185d19481d1bdbc8199c995c5d595b9d602a1b6044820152606490fd5b50346105725780600319360112610572576009549062093a80820180921161191457602082604051904210158152f35b61533a565b50346105725780600319360112610572576020600954604051908152f35b50346105725760203660031901126105725760ff60406020926004358152602884522054166040519015158152f35b50346105725780600319360112610572576020600a54604051908152f35b503461057257602080600319360112611aee5760043591828152600c8252604081205490611a7982615314565b93611a87604051958661522f565b828552601f19611a9684615314565b013685870137815b838110611ab85760405185815280611790818801896154e1565b600190828452600b8652611acf81604086206150e1565b838060a01b0391549060031b1c16611ae7828961587a565b5201611a9e565b5080fd5b50346105725760203660031901126105725760209060036040611b1361508b565b92611b2362015180420642615fa8565b6001600160a01b039094168152601e85522001546040519111158152f35b50346105725780600319360112610572576020601b54604051908152f35b5034610572578060031936011261057257611b78616332565b611b806162b4565b338152602060228152611b9a60ff6040842054161561564d565b338252601e8152611bb560ff6006604085200154161561564d565b338252601e81526064600b6040842001541015611e5f57611bd461678c565b908115611e0d57683635c9adc5dea000008211611dcb576040516370a0823160e01b81523360048201527f00000000000000000000000000000000000000000000000000000000000000006001600160a01b0316908281602481855afa80156109105784908690611d9a575b611c4c92501015615fb5565b604051636eb1769f60e11b8152828180611c6a303360048401615ffc565b0381855afa80156109105784908690611d69575b611c8a92501015616016565b8160405180926323b872dd60e01b8252818781611cac8930336004850161605f565b03925af18015611d5e57611cc7918591611d41575b50616081565b338352601e8152600b6040842001546001810180911161091b57338452601e8252600b6040852001556007548260011b90838204600203611571577f6a85014765ce1728a69f3d14127cc749d140ba142c380ef69ca533189dbfa3609291611d2e9161562a565b6007556040519283523392a26001815580f35b611d589150833d8511610b2a57610b1c818361522f565b38611cc1565b6040513d86823e3d90fd5b50508281813d8311611d93575b611d80818361522f565b810103126108845783611c8a9151611c7e565b503d611d76565b50508281813d8311611dc4575b611db1818361522f565b810103126108845783611c4c9151611c40565b503d611da7565b6064906040519062461bcd60e51b82526004820152601b60248201527a094c2c6d6e0dee840cadce8e4f240c6dee6e840e8dede40d0d2ced602b1b6044820152fd5b6084906040519062461bcd60e51b82526004820152602560248201527f496e76616c6964206a61636b706f7420656e74727920636f73742063616c63756044820152641b185d195960da1b6064820152fd5b6064906040519062461bcd60e51b82526004820152601b60248201527a13585e081a9858dadc1bdd08195b9d1c9a595cc81c995858da1959602a1b6044820152fd5b50346105725780600319360112610572576029546117906040602a549343815260276020522054604051938493846155bd565b503461057257604036600319011261057257600435611ef16150a1565b90611efa616288565b808352601d6020526040832080546001600160a01b0319166001600160a01b0390931692831790557fca1453e2085a936ea52e0049e559e235e08fe8678e165a7eb63f4568098706ad8380a380f35b6155a0565b50346105725760203660031901126105725760406020916004358152600f83522054604051908152f35b5034610572576020908160031936011261057257611f946160c3565b50600435815260218252604081209160405191611fb083615178565b8354835260019060018501548385015260028501546040850152600385015460608501526004850154608085015260058501916040518094808554928381520194845280842093905b82821061203b576117908860078b8a612014818c038261522f565b60a084015260ff600682015416151560c0840152015460e08201526040519182918261551e565b84546001600160a01b03168652948501949383019390830190611ff9565b50346105725780600319360112610572576020600554604051908152f35b503461057257806120873661548f565b92916120916162b4565b6002546001600160a01b031690813b156120e35783606492604051968795869463a154fc6b60e01b86526004860152602485015260448401525af18015610e37576120da575080f35b610baa90615194565b8380fd5b503461057257806003193601126105725760206040516103e88152f35b5034610572576121133661543f565b929160018060a01b0361212b81600354163314615e9b565b612136851515615ee7565b612142856006546158bf565b90845b86811061217357505050610b9f600080516020616fbd83398151915293946006549060405194859485615f4d565b81612187612182838a89615f29565b615f39565b16612195575b600101612145565b826121a4612182838a89615f29565b6040519063a9059cbb60e01b825281806121c56020958694600484016158f7565b03818b887f0000000000000000000000000000000000000000000000000000000000000000165af190811561229257601e9291612208918a9161227b575061620c565b83612217612182858c8b615f29565b1688525260408620805490600a8201809211612267575560019082612240612182838b8a615f29565b16600080516020616fdd8339815191526040518061225d8161624a565b0390a2905061218d565b634e487b7160e01b88526011600452602488fd5b610b249150833d8511610b2a57610b1c818361522f565b6040513d8a823e3d90fd5b5034610572576020366003190112610572576080906001600160a01b0390604090826122c761508b565b1681526020805220908154169060018101549060ff6003600283015492015416916040519384526020840152604083015215156060820152f35b615584565b5034610572578060031936011261057257600080516020616f7d83398151915281526020601c815260408220338352815260ff604083205416801561252f575b61234f906157d0565b6123576162b4565b61236560ff60165416616102565b6003546001600160a01b031661237c811515616140565b60085462015180810180911161091b5742106124f35760055460405163bacf46f360e01b81526004810182905291908483602481305afa9283156109105785936124d7575b50825115612487579183916123fa938660405180968195829463cff47cb160e01b845260048401526040602484015260448301906154e1565b03925af1908115610890578391612456575b508083526014825260408320600160ff1982541617905560008051602061703d833981519152606060055493600560405191808352820152646461696c7960d81b6040820152a380f35b90508181813d8311612480575b61246d818361522f565b8101031261247c57513861240c565b8280fd5b503d612463565b60405162461bcd60e51b815260048101859052602260248201527f4e6f20656c696769626c6520706c617965727320666f72206461696c79206472604482015261617760f01b6064820152608490fd5b6124ec9193503d8087833e610901818361522f565b91386123c1565b60405162461bcd60e51b81526004810183905260146024820152734461696c792064726177206e6f7420726561647960601b6044820152606490fd5b506001546001600160a01b03163314612346565b5034610572578060031936011261057257602060405166038d7ea4c680008152f35b503461057257806003193601126105725761257e6160c3565b506005548152602090602160205260408120916040519161259e83615178565b8354835260019060018501546020850152600285015460408501526003850154606085015260048501546080850152600585019160405180946020855492838152019484526020842093905b828210612605576117908860078b8a612014818c038261522f565b84546001600160a01b031686529485019493830193908301906125ea565b503461057257612632366150cb565b91908152600d6020526040812090815483101561057257602061062d84846150e1565b5034610572576040366003190112610572576020906126726150a1565b6004358252601c835260408083206001600160a01b0392831680855290855292205460ff16919082156126ac575b50506040519015158152f35b6001541614905038806126a0565b50346105725780600319360112610572576001546040516001600160a01b039091168152602090f35b5034610572576020366003190112610572576020906004358152601d8252604060018060a01b0391205416604051908152f35b50346105725760203660031901126105725761273061508b565b612738616288565b600380546001600160a01b0319166001600160a01b039290921691909117905580f35b6154a9565b50346105725760203660031901126105725760406020916004358152602783522054604051908152f35b503461057257806003193601126105725760048054604051638f09c85760e01b81529160209183919082906001600160a01b03165afa908115610e375782916127d9575b602082604051908152f35b90506020813d602011612807575b816127f46020938361522f565b81010312611aee576020915051386127ce565b3d91506127e7565b5034610572576020366003190112610572576020906040906001600160a01b0361283761508b565b168152602683522054604051908152f35b5034610572578060031936011261057257602060405160008051602061701d8339815191528152f35b50346105725780600319360112610572576020600854604051908152f35b50346105725780600319360112610572576128a8616332565b6128b06162b4565b3381526020602281526128ca60ff6040842054161561564d565b338252601e81526128e560ff6006604085200154161561564d565b6040516370a0823160e01b815233600482015281816024817f00000000000000000000000000000000000000000000000000000000000000006001600160a01b03165afa908115610890578391612aae575b508015612a7857670de0b6b3a7640000900490600a820291808304600a1490151715612a64578115612a235761271082116129e557604090338452601e8152612986836008848720015461562a565b338552601e8252600883862001558151928352820152600c60408201526b564d4620686f6c64696e677360a01b60608201527fa6064b0de95f7cda15129e7c36146c8accf65abb7a3639d800a445fa55023a1760803392a26001815580f35b6064906040519062461bcd60e51b825260048201526017602482015276098def2c2d8e8f240e0ded2dce8e640e8dede40d0d2ced604b1b6044820152fd5b6064906040519062461bcd60e51b82526004820152601a602482015279139bc81b1bde585b1d1e481c1bda5b9d1cc81d1bc8185dd85c9960321b6044820152fd5b634e487b7160e01b83526011600452602483fd5b60405162461bcd60e51b815260048101839052600e60248201526d4e6f20564d462062616c616e636560901b6044820152606490fd5b90508181813d8311612ad4575b612ac5818361522f565b8101031261247c575138612937565b503d612abb565b503461057257612aea3661548f565b600080516020616f7d8339815191528452602090601c825260408520338652825260ff6040862054168015612cf8575b612b23906157d0565b612b2b6162b4565b8385526017825260ff604086205416612cbc57612b4d601a54601b549061562a565b4210612c795783855260198252604085205403612c3f5782845260178152604084209060ff1991600183825416179055600654918360065560188252604086205460018101809111612c2b57916018917f42d4a2476a82a032f615547e73391179c379c1eb26fb0bd034f43131ae2bc15d9594938789528383528060408a205560405183810191878352604082015242606082015260608152612bef8161512b565b51902087895260198352604089205542601a55601782526040882090815416905552612c256040862054604051938493846155bd565b0390a280f35b634e487b7160e01b87526011600452602487fd5b6064906040519062461bcd60e51b8252600482015260136024820152720a6e8c2e8ca40d0c2e6d040dad2e6dac2e8c6d606b1b6044820152fd5b60405162461bcd60e51b815260048101839052601b60248201527a129858dadc1bdd081d5c19185d19481d1bdbc8199c995c5d595b9d602a1b6044820152606490fd5b60405162461bcd60e51b815260048101839052601460248201527311d85b59481cdd185d19481a5cc81b1bd8dad95960621b6044820152606490fd5b506001546001600160a01b03163314612b1a565b5034610572578060031936011261057257612d25616288565b600180546001600160a01b0319811690915581906001600160a01b0316600080516020616f9d8339815191528280a380f35b503461057257806003193601126105725760206040517f59a1c48e5837ad7a7f3dcedcbe129bf3249ec4fbf651fd4f5e2600ead39fe2f58152f35b5034610572576020366003190112610572577f37aa3048a2b523e3218796793d7c9283cbd45124c62254c97febfc1292524294602060043560008051602061701d8339815191528452601c825260408420338552825260ff6040852054168015612e0e575b612e00906157d0565b80601b55604051908152a180f35b506001546001600160a01b03163314612df7565b5034610572578060031936011261057257602060405160058152f35b50346105725780600319360112610572576003546040516001600160a01b039091168152602090f35b50346105725760203660031901126105725760406020916004358152601983522054604051908152f35b5034610572578060031936011261057257602060ff60015460a01c166040519015158152f35b503461057257612ec63661526d565b612ece616332565b612ed66162b4565b33825260209060228252612ef160ff6040852054161561564d565b338352601e91828152612f0e60ff6006604087200154161561564d565b33845282815260ff60106040862001541661378c573384528281526003604085200154610e1090818101809111610af057421061375157338552602582526040852054421061370f57338552838252600f604086200154818101809111610af05742106136cc573385526026825242604086205583825242600f6040872001556005541561369557612f9f3361672d565b61365157612fab61678c565b93841561360d576040516370a0823160e01b81523360048201527f00000000000000000000000000000000000000000000000000000000000000006001600160a01b0316956024959091858188818b5afa801561336e5783908a906135dc575b61301792501015615fb5565b604051636eb1769f60e11b8152858180613035303360048401615ffc565b03818b5afa801561336e5783908a906135a7575b61305592501015616016565b338852828552600196600a8860408b200154101561356757604051613079816151c2565b898152918051158015613379575b50508560405180926323b872dd60e01b8252818c816130ab8930336004850161605f565b03925af1801561336e576130c5918a916133575750616081565b3388528285528660408920015487810180911161334457338952838652604089209088820155426003820155548781018091116133445733895283865260408920556005548852600b855261311d3360408a206155ef565b600554808952600c8652604089205490888201809211613331578952600c8652604089205561314e8260065461562a565b60065580516132ea575b5033875284845260408720548681018091116132a557606481116132b8573388528585526040882055818452600e6040882001548681018091116132a557338852828552600e604089200155604051868152604085820152601160408201527011185a5b1e481c1b185e481c995dd85c99607a1b6060820152600080516020616fdd83398151915260803392a2600554906040519081527f480a6daea81f2af589e1959da1f1719512392ec551e8966266ee820f1c1f72ea853392a37f404449b42e86f8716dd5ac141731fb164fe1f76d7e4039fdd16c7b3b48f96a4e6040600654600754825191825286820152a13386528252601060408620018460ff1982541617905542019182421161113a57507f2f9a50b0843b7d2d827707c950209b525673c306d684446f6c4b1b748a4ed9ee90338552602581528260408620556040519283523392a2815580f35b634e487b7160e01b885260116004528588fd5b60405162461bcd60e51b815260048101869052601b81880152600080516020616ffd8339815191526044820152606490fd5b6133237f64274d45e838268efe3b4fa5586a29791f42c0f3f9a6422424c424401bf395899160405191829160408352604083019061541a565b33888301520390a138613158565b634e487b7160e01b8a526011600452878afd5b634e487b7160e01b895260116004528689fd5b611d589150873d8911610b2a57610b1c818361522f565b6040513d8b823e3d90fd5b90925061352b5760648251116134f657613393825161693c565b91888a91818c905b613486575b5050508015613443576133b28161693c565b92898b5b83811061341957505050506133ca8261697f565b156133d6573880613087565b60405162461bcd60e51b815260048101879052601c818901527b125b9d985b1a59081c9959995c9c985b0818dbd91948199bdc9b585d60221b6044820152606490fd5b6001600160f81b031961342c828561696e565b51168d1a61343a828861696e565b53018a906133b6565b60405162461bcd60e51b815260048101889052601c818a01527b139bc81d985b1a590818da185c9858dd195c9cc81a5b881a5b9c1d5d60221b6044820152606490fd5b81518110156134f1576001600160f81b03196134a2828461696e565b51168d600160fd1b821015806134e3575b6134c2575b505082018261339b565b946134db918593961a6134d5828a61696e565b5361588e565b93908d6134b8565b50603f60f91b8211156134b3565b6133a0565b60405162461bcd60e51b815260048101879052600e818901526d496e70757420746f6f206c6f6e6760901b6044820152606490fd5b60405162461bcd60e51b81526004810187905260158189015274496e7075742063616e6e6f7420626520656d70747960581b6044820152606490fd5b60405162461bcd60e51b8152600481018790526019818901527813585e0819185a5b1e48195b9d1c9a595cc81c995858da1959603a1b6044820152606490fd5b50508581813d83116135d5575b6135be818361522f565b810103126135d157826130559151613049565b8880fd5b503d6135b4565b50508581813d8311613606575b6135f3818361522f565b810103126135d15782613017915161300b565b503d6135e9565b60405162461bcd60e51b815260048101849052601c60248201527b125b9d985b1a5908195b9d1c9e481999594818d85b18dd5b185d195960221b6044820152606490fd5b60405162461bcd60e51b815260048101839052601c60248201527b14dd5cdc1a58da5bdd5cc81858dd1a5d9a5d1e4819195d1958dd195960221b6044820152606490fd5b60405162461bcd60e51b815260048101839052600f60248201526e125b9d985b1a590819d85b59481251608a1b6044820152606490fd5b60405162461bcd60e51b815260048101839052601b60248201527a14d958dd5c9a5d1e4818da1958dac81d1bdbc8199c995c5d595b9d602a1b6044820152606490fd5b60405162461bcd60e51b815260048101839052601a60248201527952617465206c696d697420636f6f6c646f776e2061637469766560301b6044820152606490fd5b60405162461bcd60e51b815260048101839052601360248201527214985d19481b1a5b5a5d08195e18d959591959606a1b6044820152606490fd5b6064906040519062461bcd60e51b825260048201526014602482015273155cd95c881a5cc81c985d19481b1a5b5a5d195960621b6044820152fd5b50346105725780600319360112610572576020601354604051908152f35b503461057257806003193601126105725760008051602061701d8339815191528152602090601c825260408120338252825260ff9160ff604083205416801561392f575b613832906157d0565b602a54610e108101809111612a645742106138ef57815b6064811061389a575042602a5560295460018101809111612a64577f1b9b06155f0da9bce83c4a8a54dcca59cdf479249ceb43679c0bd7fa67b2f1889181604092602955825191428352820152a180f35b806001914311806138d2575b6138b1575b01613849565b6138bb8143615fa8565b84526028835260408420805460ff191690556138ab565b506138dd8143615fa8565b845260288352846040852054166138a6565b6064906040519062461bcd60e51b82526004820152601960248201527813dc1d1a5b5a5e985d1a5bdb881d1bdbc8199c995c5d595b9d603a1b6044820152fd5b506001546001600160a01b03163314613829565b50346105725760203660031901126105725760406102209161396361508b565b8161020084516139728161515c565b82815282602082015282868201528260608201528260808201528260a08201528260c08201528260e08201528261010082015282610120820152826101408201528261016082015282610180820152826101a0820152826101c0820152826101e0820152015260018060a01b03168152601e602052206102006040516139f78161515c565b60ff601084549485845260018101546020850152600281015460408501526003810154606085015260048101546080850152600581015460a085015282600682015416151560c0850152600781015460e085015260088101546101008501526009810154610120850152600a810154610140850152600b810154610160850152600c81015461018085015282600d8201541615156101a0850152600e8101546101c0850152600f8101546101e08501520154161515828201526040519283526020810151602084015260408101516040840152606081015160608401526080810151608084015260a081015160a084015260c0810151151560c084015260e081015160e08401526101008101516101008401526101208101516101208401526101408101516101408401526101608101516101608401526101808101516101808401526101a081015115156101a08401526101c08101516101c08401526101e08101516101e084015201511515610200820152f35b503461057257613b7b3661543f565b6003546001600160a01b03939190613b969085163314615e9b565b613ba1811515615ee7565b613bad816007546158bf565b855b828110613beb575050600080516020616f3d8339815191529350613bdd906007549060405194859485615f4d565b0390a1806007554260095580f35b85613bfa612182838689615f29565b16613c08575b600101613baf565b613c16612182828588615f29565b90826040519263a9059cbb60e01b84528380613c396020948594600484016158f7565b03818c8c7f0000000000000000000000000000000000000000000000000000000000000000165af1801561336e57600193613c7c928b92613c83575b5050615912565b9050613c00565b613c999250803d10610b2a57610b1c818361522f565b3880613c75565b5034610572578060031936011261057257613cb9616288565b610baa615c9e565b5034610572576020366003190112610572576040906004358152602360205220805460405191613cff83613cf8816001850161535d565b038461522f565b60028101549060ff600460038301549201541690613d2f604051958695865260a0602087015260a086019061541a565b9260408501526060840152151560808301520390f35b503461057257613d54366150cb565b91908152600b6020526040812090815483101561057257602061062d84846150e1565b503461057257604036600319011261057257613d9161508b565b60243590811515908183036120e3577f7c6a5677e7a854a53d06c412e00ebe65535f5343566ca7939ac7c7f6b0b00c1691613dfd602092613dd0616288565b60018060a01b03169485875260228452613ded8160408920615725565b601e845260066040882001615725565b604051908152a280f35b50346105725780600319360112610572576002546040516001600160a01b039091168152602090f35b5034610572578060031936011261057257613e49616288565b610baa61595a565b503461057257602036600319011261057257606090600654906004358152601960205260408082205491601860205220549060405192835260208301526040820152f35b50346105725780600319360112610572576020600754604051908152f35b5034610572576040366003190112610572576001600160401b0360043581811161247c573660238201121561247c578060040135916024613ef384615314565b91613f01604051938461522f565b8483526020938484018360059760051b830101913683116135d15784879101915b8383106142805750505050813590811161427c573660238201121561427c57806004013590613f5082615314565b91613f5e604051938461522f565b808352838684019160051b830101913683116135d15784879101915b83831061426c5750505050600080516020616f7d8339815191528652601c845260408620338752845260ff6040872054168015614258575b613fbb906157d0565b613fc36162b4565b825181510361421c57600a8351116141e1574386526028845260ff60408720541661419d5743865260288452604086209160019160ff1993838582541617905560278652604088205483810180911161418a57438952602787526040892055879687845b614076575b5050505050438552602883526040852090815416905551906040519283528201527fc8a16388af0851bdc51694269f90c12af519cfbd71e7ab51d304b3be25d1118460404392a280f35b8651811015614185576001600160a01b0380614092838a61587a565b5116151580614172575b6140aa575b50840184614027565b6140b782899b939b61587a565b51166140c38a8561587a565b5190808c52601e8a528660408d206140dc84825461562a565b81554260038201550180549088820180921161415f575583548c52600b8a5260408c2061410991906155ef565b8254808c52600c808b5260408d20549188830180931161415f578d528a5260408c2055614139600691825461562a565b905584810180911161414c5797846140a1565b634e487b7160e01b8a526011600452838afd5b634e487b7160e01b8e526011600452878efd5b5061417d828561587a565b51151561409c565b61402c565b634e487b7160e01b895260116004528289fd5b60405162461bcd60e51b815260048101859052601f818401527f42617463682070726f63657373696e6720616c726561647920616374697665006044820152606490fd5b60405162461bcd60e51b8152600481018590526014818401527342617463682073697a6520746f6f206c6172676560601b6044820152606490fd5b60405162461bcd60e51b81526004810185905260158184015274082e4e4c2f240d8cadccee8d040dad2e6dac2e8c6d605b1b6044820152606490fd5b506001546001600160a01b03163314613fb2565b8235815291810191879101613f7a565b8580fd5b819061428b846150b7565b8152019101908690613f22565b5034610572576020366003190112610572576020906040906001600160a01b036142c061508b565b168152602483522054604051908152f35b5034610572576040366003190112610572576004356142ee6150a1565b818352601d60205260408320546001600160a01b03919082163314801561436f575b61431990615736565b16614325811515615792565b818352601c6020526040832081845260205260408320600160ff1982541617905533917f2f8788117e7eff1d82e926ec794901d17c78024a50270940304540a733656f0d8480a480f35b5060015482163314614310565b50346105725780600319360112610572576008549062015180820180921161191457602082604051904210158152f35b50346105725780600319360112610572576020601254604051908152f35b50346105725780600319360112610572576143e3616332565b6143eb6162b4565b33815260206022815260ff61440760ff6040852054161561564d565b338352601e825261442260ff6006604086200154161561564d565b33835281805260408320546001600160a01b039081166145f95782604051614449816151a7565b60148082528282019483368737875b8281106145875750505061457d9260036144f97f9aba81a9970f49adfcb9191b4663d4a18a3a6236fbbef5e36c5478a55fd4a03a969461456a946144e860256144a042616c51565b98604051998a916144c5878401966450495a5a4160d81b8852518092868601906152d5565b82016144d9825180938987850191016152d5565b0103600581018a52018861522f565b6040518093819289519283916152d5565b601f9082019081520301902080546001600160a01b0319908116331790915560405192906145268461512b565b3384528884018a815260408501918b8352606086019360018552338d528b805260408d20965116908654161785555160018501555160028401555115159101615725565b604051918291858352339583019061541a565b0390a26001815580f35b909192935060138181039081116145e557600381901b906001600160fd1b038116036145e5578281116145e557906001916145c98360ff60f81b921b336158bf565b60f81b16891a6145d9828761696e565b53019086939291614458565b634e487b7160e01b89526011600452602489fd5b60405162461bcd60e51b815260048101849052601c60248201527b526566657272616c20636f646520616c72656164792065786973747360201b6044820152606490fd5b50346105725760203660031901126105725760ff60406020926004358152601784522054166040519015158152f35b50346105725780600319360112610572576020602a54604051908152f35b503461057257602061469b3661526d565b816146af60405192838151938492016152d5565b601f90820190815281900382019020546040516001600160a01b039091168152f35b50346105725780600319360112610572576004546040516001600160a01b039091168152602090f35b503461057257602080600319360112611aee57600435614718616332565b6147206162b4565b3383526022825261473860ff6040852054161561564d565b338352601e9182815261475560ff6006604087200154161561564d565b338452828152600c6040852001546201518081018091116115715761477c90421015615691565b3384528281526147956064600e604087200154106156dc565b81845260238152604084209260ff6004850154161561496257600584019033865281835260ff60408720541661491f576002850191825480156148df576103e8811161489e576147e59033616355565b338752835260408620600160ff19825416179055808352600a60408720015460018101809111612c2b5791600080516020616fdd833981519152949391614840604094338a52828552858a2090600a8201555483549061562a565b903389528352838820908155600c429101555492825190815283828201527f20861823fa14b60d3f02cc6e48b647ac592dd27e39a78f278df5c918dabb8b2c833392a281519283528201528061457d3394600160408401910161535d565b60405162461bcd60e51b8152600481018690526019602482015278086d0c2d8d8cadcceca40e4caeec2e4c840e8dede40d0d2ced603b1b6044820152606490fd5b60405162461bcd60e51b8152600481018690526018602482015277125b9d985b1a590818da185b1b195b99d9481c995dd85c9960421b6044820152606490fd5b60405162461bcd60e51b815260048101849052601b60248201527a10da185b1b195b99d948185b1c9958591e4818dbdb5c1b195d1959602a1b6044820152606490fd5b60405162461bcd60e51b81526004810183905260146024820152734368616c6c656e6765206e6f742061637469766560601b6044820152606490fd5b50346105725780600319360112610572576149b7616332565b6149bf6162b4565b3381526020602281526149d960ff6040842054161561564d565b338252601e8082526149f560ff6006604086200154161561564d565b338352808252600c604084200154620151809081810180911161157157614a1e90421015615691565b338452818352614a376064600e604087200154106156dc565b3384528183526007600460408620015410614b8e57338452818352600560408520015490810180911161091b574210614b3e57338352602490818352604084205460038101809111614b2b5760648111611161573385528284526040852055808352600e60408520015460038101809111614b2b573385528184526040852090600e82015554916003830180931161113a5750338452825260408320908155426005820155600c429101556040805191600383528201526012604082015271372d6461792073747265616b20626f6e757360701b6060820152600080516020616fdd83398151915260803392a26001815580f35b634e487b7160e01b855260116004528285fd5b60405162461bcd60e51b815260048101839052602260248201527f53747265616b20626f6e757320616c726561647920636c61696d656420746f64604482015261617960f01b6064820152608490fd5b60405162461bcd60e51b81526004810184905260186024820152770dcb59185e481cdd1c99585ac81b9bdd081c995858da195960421b6044820152606490fd5b503461057257602080600319360112611aee576080916040614bee61508b565b918060608351614bfd8161512b565b82815286810183905284810183905201526001600160a01b0392831681528380522060405191614c2c8361512b565b815416928383526001820154818401908152606060ff6003600286015495604088019687520154169401931515845260405194855251908401525160408301525115156060820152f35b50346105725780600319360112610572576020604051600080516020616f1d8339815191528152f35b50346105725780600319360112610572576040517f00000000000000000000000000000000000000000000000000000000000000006001600160a01b03168152602090f35b50346105725760203660031901126105725760ff60406020926004358152601484522054166040519015158152f35b50346105725780600319360112610572576020601a54604051908152f35b5034610572578060031936011261057257602060405160088152f35b503461057257602080600319360112611aee5760043590614d6c6162b4565b8115614e2957614d7b336162d5565b614def57601354835260118152614d9533604085206155ef565b60135480845260108252614dad83604086205461562a565b908452601082526040842055601354906040519283528201527fefe539503e4a6bc6d750abe6f7471ea59543ad95e1757fcd02ecb9a6c212e92060403392a280f35b6064906040519062461bcd60e51b825260048201526013602482015272105b1c9958591e4818dbdb9d1c9a589d5d1959606a1b6044820152fd5b6064906040519062461bcd60e51b82526004820152600f60248201526e496e76616c696420656e74726f707960881b6044820152fd5b503461057257602036600319011261057257604060e091600435815260216020522080549060018101549060028101546003820154600483015491600760ff600686015416940154946040519687526020870152604086015260608501526080840152151560a083015260c0820152f35b503461057257614edf366150cb565b9190815260116020526040812090815483101561057257602061062d84846150e1565b5034610572578060031936011261057257614f1b616288565b614f236162b4565b60025460405163f8413b0760e01b8152906020908290600490829086906001600160a01b03165af1908115610e37578291614f94575b506040817f3d94fecedaa4f90b8bd459797adb95f5bb11426025c5541390d9ccc1ad1b60a192600a556005549082519182526020820152a180f35b90506020813d602011614fbf575b81614faf6020938361522f565b81010312611aee57516040614f59565b3d9150614fa2565b503461057257806003193601126105725760048054604051630d73ebb560e01b81529160209183919082906001600160a01b03165afa908115610e375782916127d957602082604051908152f35b5034610572578060031936011261057257602060405161012c8152f35b5034610572578060031936011261057257602060ff601654166040519015158152f35b905034611aee576020366003190112611aee576020916040906001600160a01b0361507e61508b565b1681526025845220548152f35b600435906001600160a01b038216820361088457565b602435906001600160a01b038216820361088457565b35906001600160a01b038216820361088457565b6040906003190112610884576004359060243590565b80548210156150f95760005260206000200190600090565b634e487b7160e01b600052603260045260246000fd5b34610884576000366003190112610884576020604051600a8152f35b608081019081106001600160401b0382111761514657604052565b634e487b7160e01b600052604160045260246000fd5b61022081019081106001600160401b0382111761514657604052565b61010081019081106001600160401b0382111761514657604052565b6001600160401b03811161514657604052565b604081019081106001600160401b0382111761514657604052565b602081019081106001600160401b0382111761514657604052565b606081019081106001600160401b0382111761514657604052565b60c081019081106001600160401b0382111761514657604052565b61012081019081106001600160401b0382111761514657604052565b601f909101601f19168101906001600160401b0382119082101761514657604052565b6001600160401b03811161514657601f01601f191660200190565b6020600319820112610884576004356001600160401b0381116108845781602382011215610884578060040135906152a482615252565b926152b2604051948561522f565b828452602483830101116108845781600092602460209301838601378301015290565b60005b8381106152e85750506000910152565b81810151838201526020016152d8565b3461088457600036600319011261088457602060405160648152f35b6001600160401b0381116151465760051b60200190565b60043590811515820361088457565b34610884576000366003190112610884576020604051670de0b6b3a76400008152f35b80546000939260018083169383821c938515615410575b60209586861081146153fa578585529081156153db575060011461539a575b5050505050565b90939495506000929192528360002092846000945b8386106153c757505050500101903880808080615393565b8054858701830152940193859082016153af565b60ff19168685015250505090151560051b010191503880808080615393565b634e487b7160e01b600052602260045260246000fd5b93607f1693615374565b90602091615433815180928185528580860191016152d5565b601f01601f1916010190565b604060031982011261088457600435916001600160401b03916024359083821161088457806023830112156108845781600401359384116108845760248460051b83010111610884576024019190565b606090600319011261088457600435906024359060443590565b3461088457600036600319011261088457602060405160028152f35b3461088457600036600319011261088457602060405160018152f35b90815180825260208080930193019160005b828110615501575050505090565b83516001600160a01b0316855293810193928101926001016154f3565b6020815281516020820152602082015160408201526040820151606082015260608201516080820152608082015160a082015260a082015160e0615570610100928360c08601526101208501906154e1565b9360c0810151151582850152015191015290565b3461088457600036600319011261088457602060405160328152f35b34610884576000366003190112610884576020604051610e108152f35b6040919493926060820195825260208201520152565b3461088457600036600319011261088457602060405160038152f35b8054600160401b8110156151465761560c916001820181556150e1565b60018060a09493941b038084549260031b9316831b921b1916179055565b9190820180921161563757565b634e487b7160e01b600052601160045260246000fd5b1561565457565b60405162461bcd60e51b8152602060048201526015602482015274141b185e595c881a5cc8189b1858dadb1a5cdd1959605a1b6044820152606490fd5b1561569857565b60405162461bcd60e51b815260206004820152601c60248201527b52657761726420616c726561647920636c61696d656420746f64617960201b6044820152606490fd5b156156e357565b60405162461bcd60e51b815260206004820152601a60248201527911185a5b1e481c995dd85c99081b1a5b5a5d081c995858da195960321b6044820152606490fd5b9060ff801983541691151516179055565b1561573d57565b60405162461bcd60e51b815260206004820152602760248201527f416363657373436f6e74726f6c3a2063616c6c6572206973206e6f7420726f6c604482015266329030b236b4b760c91b6064820152608490fd5b1561579957565b60405162461bcd60e51b815260206004820152600f60248201526e496e76616c6964206164647265737360881b6044820152606490fd5b156157d757565b60405162461bcd60e51b815260206004820152602860248201527f416363657373436f6e74726f6c3a2063616c6c657220646f6573206e6f74206860448201526761766520726f6c6560c01b6064820152608490fd5b8051156150f95760200190565b8051600110156150f95760400190565b8051600210156150f95760600190565b8051600310156150f95760800190565b8051600410156150f95760a00190565b80518210156150f95760209160051b010190565b60001981146156375760010190565b9392916158ba9060409286526060602087015260608601906154e1565b930152565b81156158c9570490565b634e487b7160e01b600052601260045260246000fd5b90816020910312610884575180151581036108845790565b6001600160a01b039091168152602081019190915260400190565b1561591957565b60405162461bcd60e51b8152602060048201526019602482015278159351881c1c9a5e99481d1c985b9cd9995c8819985a5b1959603a1b6044820152606490fd5b6005549060009182526020906021825260409081842091600683019081549460ff8616615c1f5760028501544210615be9576159996003860154616477565b938795885b86518110156159dc576001600160a01b036159b9828961587a565b51166159c8575b60010161599e565b966159d460019161588e565b9790506159c0565b50919492959093968115615bb157506159f7906006546158bf565b92875b8351811015615aca576001600160a01b0390868683615a19848961587a565b5116615a2c575b505060019150016159fa565b838394615a3c615a5a958a61587a565b51168d8c5180968195829463a9059cbb60e01b8452600484016158f7565b03927f0000000000000000000000000000000000000000000000000000000000000000165af1908115615ac05760019291615a9c918c91615aa3575b50615912565b8686615a20565b615aba9150893d8b11610b2a57610b1c818361522f565b38615a96565b88513d8c823e3d90fd5b509592509593929093600587019085519260018060401b038411615b9d57600160401b8411615b9d578254848455808510615b78575b50808701928252808220915b848110615b5d5750505050506004600080516020616fbd8339815191529495615b5092600160ff19825416179055600654918291015560055492519384938461589d565b0390a1615b5b6165d1565b565b83516001600160a01b03168382015592810192600101615b0c565b8383528482842091820191015b818110615b925750615b00565b838155600101615b85565b634e487b7160e01b82526041600452602482fd5b915050600080516020616fbd8339815191529592965060019194935060ff1916179055615b506005549160065490519384938461589d565b606491519062461bcd60e51b82526004820152601160248201527011d85b59481b9bdd08199a5b9a5cda1959607a1b6044820152fd5b606491519062461bcd60e51b82526004820152601660248201527511d85b5948185b1c9958591e4818dbdb5c1b195d195960521b6044820152fd5b15615c6157565b60405162461bcd60e51b81526020600482015260156024820152745765656b6c792064726177206e6f7420726561647960581b6044820152606490fd5b60095462093a80810180911161563757615cba90421015615c5a565b60408051916001600160401b039190610160840183811185821017615146578252600a84526020926101403660208701378251617d2081019182118183101761514657617d009184526103e8815260203691013760009160005b8551811015615d52576001600160a01b03615d2f828861587a565b5116615d3e575b600101615d14565b92615d4a60019161588e565b939050615d36565b50919290928015615e7257615d69906007546158bf565b9360005b8151811015615e39576001600160a01b0390838783615d8c848761587a565b5116615d9f575b50506001915001615d6d565b838394615daf615dce958861587a565b51166000895180968195829463a9059cbb60e01b8452600484016158f7565b03927f0000000000000000000000000000000000000000000000000000000000000000165af1908115615e2e5760019291615e1091600091615e175750615912565b8387615d93565b615aba9150863d8811610b2a57610b1c818361522f565b85513d6000823e3d90fd5b50919050600080516020616f3d833981519152929350615e646005549160075490519384938461589d565b0390a1600060075542600955565b505091600080516020616f3d8339815191529192615e646005549160075490519384938461589d565b15615ea257565b60405162461bcd60e51b815260206004820152601f60248201527f4f6e6c792056524620636f6e74726163742063616e2063616c6c2074686973006044820152606490fd5b15615eee57565b60405162461bcd60e51b8152602060048201526013602482015272139bc81dda5b9b995c9cc81c1c9bdd9a591959606a1b6044820152606490fd5b91908110156150f95760051b0190565b356001600160a01b03811681036108845790565b9081526060602080830182905290820184905290949392608086019160005b828110615f7f5750505060409150930152565b9091928280600192838060a01b03615f96896150b7565b16815201950191019392919093615f6c565b9190820391821161563757565b15615fbc57565b60405162461bcd60e51b8152602060048201526018602482015277496e73756666696369656e7420564d462062616c616e636560401b6044820152606490fd5b6001600160a01b0391821681529116602082015260400190565b1561601d57565b60405162461bcd60e51b815260206004820152601a602482015279496e73756666696369656e7420564d4620616c6c6f77616e636560301b6044820152606490fd5b6001600160a01b03918216815291166020820152604081019190915260600190565b1561608857565b60405162461bcd60e51b8152602060048201526013602482015272159351881d1c985b9cd9995c8819985a5b1959606a1b6044820152606490fd5b604051906160d082615178565b8160e0600091828152826020820152826040820152826060820152826080820152606060a08201528260c08201520152565b1561610957565b60405162461bcd60e51b815260206004820152600f60248201526e159491881b9bdd08195b98589b1959608a1b6044820152606490fd5b1561614757565b60405162461bcd60e51b81526020600482015260146024820152731594918818dbdb9d1c9858dd081b9bdd081cd95d60621b6044820152606490fd5b6020908181840312610884578051906001600160401b03821161088457019180601f840112156108845782516161b881615314565b936161c6604051958661522f565b818552838086019260051b820101928311610884578301905b8282106161ed575050505090565b81516001600160a01b03811681036108845781529083019083016161df565b1561621357565b60405162461bcd60e51b815260206004820152600f60248201526e151c985b9cd9995c8819985a5b1959608a1b6044820152606490fd5b608090600a81526040602082015260126040820152714461696c792077696e6e657220626f6e757360701b60608201520190565b81156158c9570690565b6001546001600160a01b0316330361629c57565b60405163118cdaa760e01b8152336004820152602490fd5b60ff60015460a01c166162c357565b60405163d93c066560e01b8152600490fd5b6013549060005b8260005260116020526040600020805482101561632957816162fd916150e1565b905460039190911b1c6001600160a01b0390811690831614616321576001016162dc565b505050600190565b50505050600090565b600260005414616343576002600055565b604051633ee5aeb560e01b8152600490fd5b8115616432576103e882116163f45760018060a01b031690600090828252602460205261638681604084205461562a565b91606483116163c1576163b4604092600e94868452602460205284842055601e60205284848420015461562a565b938152601e602052200155565b60405162461bcd60e51b815260206004820152601b6024820152600080516020616ffd8339815191526044820152606490fd5b60405162461bcd60e51b81526020600482015260166024820152750a4caeec2e4c840c2dadeeadce840e8dede40d0d2ced60531b6044820152606490fd5b60405162461bcd60e51b815260206004820152601e60248201527f52657761726420616d6f756e74206d75737420626520706f73697469766500006044820152606490fd5b9060409081519061648782615213565b60089260088352602090610100368386013760009186835260218152600782842001549182156165c6576002548151631daaf1b160e11b815260048101949094526001600160a01b0398908390859060249082908d165afa9384156165bc578594616589575b50831561657d578452600b8252808420948554948515616567575b88811080616574575b1561656757616562908a61654a616544898751898101908b8252868a82015289815261653c816151dd565b51902061627e565b8a6150e1565b90549060031b1c1661655c828b61587a565b5261588e565b616508565b5097505050505050905090565b50858110616511565b50505050509250905090565b9093508281813d83116165b5575b6165a1818361522f565b810103126165b1575192386164ed565b8480fd5b503d616597565b82513d87823e3d90fd5b505050509250905090565b6165dc60055461588e565b806005556201518042019081421161563757604051916165fb836151c2565b60008084526040519361660d85615178565b838552602090818601924284526040870194855260608701818152608088019082825260a0890193845260c089019683885260e08a0198848a528452602186526040842099518a556001965160018b01555160028a01555160038901555160048801556005870191519283519360018060401b03851161671957600160401b851161671957819084548686558087106166ef575b5001928252808220915b8481106166d557505050505050906166cb60079251151560068501615725565b5191015542600855565b83516001600160a01b0316838201559281019285016166ab565b858552878784872092830192015b82811061670b5750506166a1565b8681558594508991016166fd565b634e487b7160e01b83526041600452602483fd5b60018060a01b03166000908082526026602052601e616750604084205442615fa8565b10616785578152601e602052600a60016040832001541161677f576024602052606460408220541161677f5790565b50600190565b5050600190565b60018060a01b03600454166040805190638f09c85760e01b928383526020908184600481845afa9384156168c85760009461690d575b508251630d73ebb560e01b8152948286600481855afa958615616902576000966168d3575b508290600485518094819382525afa9081156168c85760009161689b575b5080616847575b50507fd275f5de1f47f481706cbb99406816bcc17cd387167d5de15596c1a2fb47ad86916168419151918291854291846155bd565b0390a190565b61685360329185616e45565b1161685e578061680c565b606491519062461bcd60e51b8252600482015260186024820152770a0e4d2c6ca40c8caecd2c2e8d2dedc40e8dede40d0d2ced60431b6044820152fd5b90508181813d83116168c1575b6168b2818361522f565b81010312610884575138616805565b503d6168a8565b83513d6000823e3d90fd5b9095508281813d83116168fb575b6168eb818361522f565b81010312610884575194826167e7565b503d6168e1565b84513d6000823e3d90fd5b9093508181813d8311616935575b616925818361522f565b81010312610884575192386167c2565b503d61691b565b9061694682615252565b616953604051918261522f565b8281528092616964601f1991615252565b0190602036910137565b9081518110156150f9570160200190565b805160038110908115616b87575b50616b815760005b8151811015616a51576001600160f81b03196169b1828461696e565b5116600360fc1b8110159081616a42575b8115616a1e575b81156169fa575b81156169ec575b50156169e557600101616995565b5050600090565b605f60f81b149050386169d7565b9050606160f81b81101580616a10575b906169d0565b50603d60f91b811115616a0a565b9050604160f81b81101580616a34575b906169c9565b50602d60f91b811115616a2e565b603960f81b81111591506169c2565b5060015b8151811015616ab3576001600160f81b0319605f60f81b8082616a78858761696e565b5116149182616a90575b50506169e557600101616a55565b909150600019830183811161563757616aa9908561696e565b5116143880616a82565b5090616abf825161693c565b60005b8351811015616b67576001600160f81b031990606160f81b82616ae5838861696e565b5116101580616b4d575b15616b2b57616afe818661696e565b5160f89290831c601f190160ff8111615637576001931b1660001a616b23828561696e565b535b01616ac2565b600191616b38828761696e565b511660001a616b47828561696e565b53616b25565b50603d60f91b82616b5e838861696e565b51161115616aef565b50616b73919250616cef565b616b7c57600190565b600090565b50600090565b60329150113861698d565b9060409160405192616ba384615213565b60089260088552602061010036602088013760009184600052600c602052604060002054908115616c475760005b878110616be357505050505050505090565b600190616c28616c1985895188810190878252858c82015242606082015244608082015260a08d81830152815261653c816151f8565b898852600b87528888206150e1565b838060a01b0391549060031b1c16616c40828c61587a565b5201616bd1565b5050505050505090565b8015616cd15780600081805b616cb95750616c6b8161693c565b925b616c7657505090565b6000198101908111615637578091600a91603083830681018091116156375760f81b6001600160f81b03191660001a90616cb0908661696e565b53049081616c6d565b9150616cc6600a9161588e565b910480839291616c5d565b50604051616cde816151a7565b60018152600360fc1b602082015290565b6040805190616cfd826151f8565b6005825260005b60a08110616e3457508051616d18816151a7565b600581526420a226a4a760d91b6020820152616d338361582d565b52616d3d8261582d565b508051616d49816151a7565b600581526427aba722a960d91b6020820152616d648361583a565b52616d6e8261583a565b508051616d7a816151a7565b600681526553595354454d60d01b6020820152616d968361584a565b52616da08261584a565b508051616dac816151a7565b60048152631395531360e21b6020820152616dc68361585a565b52616dd08261585a565b5051616ddb816151a7565b6004815263151154d560e21b6020820152616df58261586a565b52616dff8161586a565b5060005b8151811015616e2c57616e20616e19828461587a565b5184616e8f565b61632157600101616e03565b505050600090565b806060602080938601015201616d04565b8181146169e5578180821115616e7f57616e5e91615fa8565b905b60648202918083046064149015171561563757616e7c916158bf565b90565b90616e8991615fa8565b90616e60565b9080518251106169e5576000905b616eaa8351825190615fa8565b8211616e2c5760019260005b8251811015616f12576001600160f81b031980616edc616ed6848861562a565b8561696e565b511690616ee9838661696e565b511603616ef857600101616eb6565b5092509060005b61632157616f0c9061588e565b90616e9d565b5092919091616eff56febf233dd2aafeb4d50879c4aa5c81e96d92f6e6945c906a58f9f2d1c1631b4b26266eab4e9078d52ec3f1266d5b3619a11040584ef2997fdea8afa3c03fa55977b80d1ae5628c2af91424c54c87acfd15016be4bebeef0425b328238702f3483197667070c54ef182b0f5858b034beac1b6f3089aa2d3188bb1e8929f4fa9b9298be0079c531659141344cd1fd0a4f28419497f9722a3daafe3b4186f6b6457e0dd1c72fcda97fcfc2fe124c4aa194986caca752d3769c00a6495659509d7b19b195188e7e2a9c946c91317946030490c3ba48a5b7f867101928826fa4cc609c54461696c7920726577617264206c696d69742065786365656465640000000000a49807205ce4d355092ef5a8a18f56e8913cf4a201fbe287825b095693c217751d1a4959f28ecf85850610491c8f5914a90bd2caa95e91257b24b2511d715f7aa2646970667358221220991b8f2f37cdda32433a3733998479d0a184e0706fde478cba60a356705a914164736f6c63430008180033","opcodes":"PUSH1 0xA0 CALLVALUE PUSH3 0x5B2 JUMPI PUSH1 0x1F PUSH3 0x7675 CODESIZE DUP2 SWAP1 SUB SWAP2 DUP3 ADD PUSH1 0x1F NOT AND DUP4 ADD SWAP2 SWAP1 PUSH1 0x1 PUSH1 0x1 PUSH1 0x40 SHL SUB DUP4 GT DUP5 DUP5 LT OR PUSH3 0x5B7 JUMPI DUP2 PUSH1 0x80 SWAP3 DUP6 SWAP3 PUSH1 0x40 SWAP6 DUP7 MSTORE DUP4 CODECOPY DUP2 ADD SUB SLT PUSH3 0x5B2 JUMPI PUSH3 0x50 DUP3 PUSH3 0x5CD JUMP JUMPDEST PUSH3 0x5E PUSH1 0x20 DUP5 ADD PUSH3 0x5CD JUMP JUMPDEST SWAP3 PUSH3 0x7A PUSH1 0x60 PUSH3 0x72 DUP6 DUP5 ADD PUSH3 0x5CD JUMP JUMPDEST SWAP3 ADD PUSH3 0x5CD JUMP JUMPDEST SWAP1 PUSH1 0x1 PUSH1 0x0 SSTORE CALLER ISZERO PUSH3 0x59A JUMPI PUSH1 0x1 DUP1 SLOAD CALLER PUSH1 0x1 PUSH1 0x1 PUSH1 0xA0 SHL SUB NOT DUP1 DUP4 AND DUP3 OR SWAP1 SWAP4 SSTORE DUP7 MLOAD SWAP8 SWAP3 SWAP6 SWAP2 PUSH1 0x1 PUSH1 0x1 PUSH1 0xA0 SHL SUB AND PUSH32 0x8BE0079C531659141344CD1FD0A4F28419497F9722A3DAAFE3B4186F6B6457E0 PUSH1 0x0 DUP1 LOG3 PUSH1 0x16 DUP1 SLOAD PUSH1 0xFF NOT AND PUSH1 0x1 OR SWAP1 SSTORE PUSH1 0x1 PUSH1 0x1 PUSH1 0xA0 SHL SUB AND DUP1 PUSH3 0x590 JUMPI JUMPDEST POP PUSH1 0x1 PUSH1 0x1 PUSH1 0xA0 SHL SUB AND SWAP5 DUP6 ISZERO PUSH3 0x542 JUMPI POP PUSH1 0x1 PUSH1 0x1 PUSH1 0xA0 SHL SUB AND SWAP4 DUP5 ISZERO PUSH3 0x4FE JUMPI DUP3 PUSH1 0x2 SLOAD AND OR PUSH1 0x2 SSTORE PUSH1 0x4 SWAP4 DUP3 DUP6 SLOAD AND OR DUP5 SSTORE PUSH1 0x1 DUP1 PUSH1 0xA0 SHL SUB AND DUP1 PUSH3 0x4EE JUMPI JUMPDEST POP PUSH32 0xA49807205CE4D355092EF5A8A18F56E8913CF4A201FBE287825B095693C21775 DUP1 PUSH1 0x0 MSTORE PUSH1 0x1C PUSH1 0x20 MSTORE DUP3 PUSH1 0x0 KECCAK256 CALLER PUSH1 0x0 MSTORE PUSH1 0x20 MSTORE DUP3 PUSH1 0x0 KECCAK256 PUSH1 0x1 PUSH1 0xFF NOT DUP3 SLOAD AND OR SWAP1 SSTORE PUSH32 0x97667070C54EF182B0F5858B034BEAC1B6F3089AA2D3188BB1E8929F4FA9B929 DUP1 PUSH1 0x0 MSTORE PUSH1 0x1C PUSH1 0x20 MSTORE DUP4 PUSH1 0x0 KECCAK256 CALLER PUSH1 0x0 MSTORE PUSH1 0x20 MSTORE DUP4 PUSH1 0x0 KECCAK256 PUSH1 0x1 PUSH1 0xFF NOT DUP3 SLOAD AND OR SWAP1 SSTORE PUSH32 0xBF233DD2AAFEB4D50879C4AA5C81E96D92F6E6945C906A58F9F2D1C1631B4B26 SWAP1 DUP2 PUSH1 0x0 MSTORE PUSH1 0x1C PUSH1 0x20 MSTORE DUP5 PUSH1 0x0 KECCAK256 CALLER PUSH1 0x0 MSTORE PUSH1 0x20 MSTORE DUP5 PUSH1 0x0 KECCAK256 PUSH1 0x1 PUSH1 0xFF NOT DUP3 SLOAD AND OR SWAP1 SSTORE PUSH32 0x59A1C48E5837AD7A7F3DCEDCBE129BF3249EC4FBF651FD4F5E2600EAD39FE2F5 SWAP4 DUP5 PUSH1 0x0 MSTORE PUSH1 0x1C PUSH1 0x20 MSTORE DUP6 PUSH1 0x0 KECCAK256 CALLER PUSH1 0x0 MSTORE PUSH1 0x20 MSTORE DUP6 PUSH1 0x0 KECCAK256 PUSH1 0x1 PUSH1 0xFF NOT DUP3 SLOAD AND OR SWAP1 SSTORE DUP4 PUSH1 0x0 MSTORE PUSH1 0x1D PUSH1 0x20 MSTORE DUP6 PUSH1 0x0 KECCAK256 CALLER DUP3 DUP3 SLOAD AND OR SWAP1 SSTORE DUP2 PUSH1 0x0 MSTORE DUP6 PUSH1 0x0 KECCAK256 CALLER DUP3 DUP3 SLOAD AND OR SWAP1 SSTORE DUP3 PUSH1 0x0 MSTORE DUP6 PUSH1 0x0 KECCAK256 CALLER DUP3 DUP3 SLOAD AND OR SWAP1 SSTORE DUP5 PUSH1 0x0 MSTORE DUP6 PUSH1 0x0 KECCAK256 SWAP1 CALLER SWAP1 DUP3 SLOAD AND OR SWAP1 SSTORE PUSH32 0x2F8788117E7EFF1D82E926EC794901D17C78024A50270940304540A733656F0D SWAP3 CALLER SWAP1 CALLER SWAP1 DUP6 PUSH1 0x0 DUP1 LOG4 CALLER SWAP1 CALLER SWAP1 DUP5 PUSH1 0x0 DUP1 LOG4 CALLER SWAP1 CALLER SWAP1 DUP4 PUSH1 0x0 DUP1 LOG4 CALLER SWAP2 CALLER SWAP2 PUSH1 0x0 DUP1 LOG4 PUSH1 0x2 PUSH1 0x5 SSTORE PUSH3 0x15180 TIMESTAMP ADD DUP1 TIMESTAMP GT PUSH3 0x4D9 JUMPI DUP2 MLOAD SWAP3 PUSH1 0x20 DUP5 ADD PUSH1 0x1 PUSH1 0x1 PUSH1 0x40 SHL SUB DUP2 GT DUP6 DUP3 LT OR PUSH3 0x4C4 JUMPI DUP4 MSTORE PUSH1 0x0 DUP5 MSTORE DUP3 MLOAD SWAP2 PUSH2 0x100 DUP4 ADD PUSH1 0x1 PUSH1 0x1 PUSH1 0x40 SHL SUB DUP2 GT DUP5 DUP3 LT OR PUSH3 0x4AF JUMPI DUP5 MSTORE PUSH1 0x2 DUP4 MSTORE PUSH1 0x20 DUP4 ADD SWAP2 TIMESTAMP DUP4 MSTORE DUP5 DUP5 ADD SWAP2 DUP3 MSTORE PUSH1 0x60 DUP5 ADD PUSH1 0x0 DUP2 MSTORE PUSH1 0x80 DUP6 ADD SWAP1 PUSH1 0x0 DUP3 MSTORE PUSH1 0xA0 DUP7 ADD SWAP8 DUP9 MSTORE PUSH1 0xC0 DUP7 ADD SWAP4 PUSH1 0x0 DUP6 MSTORE PUSH1 0xE0 DUP8 ADD SWAP6 PUSH1 0x0 DUP8 MSTORE PUSH1 0x2 PUSH1 0x0 MSTORE PUSH1 0x21 PUSH1 0x20 MSTORE DUP9 PUSH1 0x0 KECCAK256 SWAP8 MLOAD DUP9 SSTORE MLOAD PUSH1 0x1 DUP9 ADD SSTORE MLOAD PUSH1 0x2 DUP8 ADD SSTORE MLOAD PUSH1 0x3 DUP7 ADD SSTORE MLOAD DUP2 DUP6 ADD SSTORE PUSH1 0x5 DUP5 ADD SWAP6 MLOAD DUP1 MLOAD SWAP2 PUSH1 0x1 DUP1 PUSH1 0x40 SHL SUB DUP4 GT PUSH3 0x49A JUMPI PUSH9 0x10000000000000000 DUP4 GT PUSH3 0x49A JUMPI POP DUP7 SLOAD DUP3 DUP9 SSTORE DUP1 DUP4 LT PUSH3 0x46E JUMPI JUMPDEST POP PUSH1 0x20 ADD SWAP6 PUSH1 0x0 MSTORE PUSH1 0x20 PUSH1 0x0 KECCAK256 SWAP6 PUSH1 0x0 JUMPDEST DUP3 DUP2 LT PUSH3 0x450 JUMPI POP POP POP SWAP1 PUSH1 0x7 SWAP2 PUSH1 0x6 DUP5 ADD SWAP1 MLOAD ISZERO ISZERO PUSH1 0xFF DUP1 NOT DUP4 SLOAD AND SWAP2 AND OR SWAP1 SSTORE MLOAD SWAP2 ADD SSTORE TIMESTAMP PUSH1 0x8 SSTORE MLOAD PUSH2 0x7092 SWAP1 DUP2 PUSH3 0x5E3 DUP3 CODECOPY PUSH1 0x80 MLOAD DUP2 DUP2 DUP2 PUSH2 0xA5B ADD MSTORE DUP2 DUP2 PUSH2 0x1261 ADD MSTORE DUP2 DUP2 PUSH2 0x1C00 ADD MSTORE DUP2 DUP2 PUSH2 0x21CB ADD MSTORE DUP2 DUP2 PUSH2 0x28FF ADD MSTORE DUP2 DUP2 PUSH2 0x2FC7 ADD MSTORE DUP2 DUP2 PUSH2 0x3C3F ADD MSTORE DUP2 DUP2 PUSH2 0x4CB5 ADD MSTORE DUP2 DUP2 PUSH2 0x5A5E ADD MSTORE PUSH2 0x5DD2 ADD MSTORE RETURN JUMPDEST DUP2 MLOAD PUSH1 0x1 PUSH1 0x1 PUSH1 0xA0 SHL SUB AND DUP2 DUP10 ADD SSTORE PUSH1 0x20 SWAP1 SWAP2 ADD SWAP1 PUSH1 0x1 ADD PUSH3 0x3CF JUMP JUMPDEST DUP8 PUSH1 0x0 MSTORE DUP3 PUSH1 0x20 PUSH1 0x0 KECCAK256 SWAP2 DUP3 ADD SWAP2 ADD JUMPDEST DUP2 DUP2 LT PUSH3 0x48D JUMPI POP PUSH3 0x3BE JUMP JUMPDEST PUSH1 0x0 DUP2 SSTORE PUSH1 0x1 ADD PUSH3 0x47E JUMP JUMPDEST PUSH1 0x41 SWAP1 PUSH4 0x4E487B71 PUSH1 0xE0 SHL PUSH1 0x0 MSTORE MSTORE PUSH1 0x24 PUSH1 0x0 REVERT JUMPDEST PUSH1 0x41 DUP4 PUSH4 0x4E487B71 PUSH1 0xE0 SHL PUSH1 0x0 MSTORE MSTORE PUSH1 0x24 PUSH1 0x0 REVERT JUMPDEST PUSH1 0x41 DUP3 PUSH4 0x4E487B71 PUSH1 0xE0 SHL PUSH1 0x0 MSTORE MSTORE PUSH1 0x24 PUSH1 0x0 REVERT JUMPDEST PUSH1 0x11 DUP4 PUSH4 0x4E487B71 PUSH1 0xE0 SHL PUSH1 0x0 MSTORE MSTORE PUSH1 0x24 PUSH1 0x0 REVERT JUMPDEST DUP2 PUSH1 0x3 SLOAD AND OR PUSH1 0x3 SSTORE CODESIZE PUSH3 0x134 JUMP JUMPDEST DUP4 MLOAD PUSH3 0x461BCD PUSH1 0xE5 SHL DUP2 MSTORE PUSH1 0x20 PUSH1 0x4 DUP3 ADD MSTORE PUSH1 0x1C PUSH1 0x24 DUP3 ADD MSTORE PUSH32 0x496E76616C6964207072696365206F7261636C65206164647265737300000000 PUSH1 0x44 DUP3 ADD MSTORE PUSH1 0x64 SWAP1 REVERT JUMPDEST PUSH3 0x461BCD PUSH1 0xE5 SHL DUP2 MSTORE PUSH1 0x20 PUSH1 0x4 DUP3 ADD MSTORE PUSH1 0x23 PUSH1 0x24 DUP3 ADD MSTORE PUSH32 0x496E76616C69642072616E646F6D6E65737320636F6E74726163742061646472 PUSH1 0x44 DUP3 ADD MSTORE PUSH3 0x657373 PUSH1 0xE8 SHL PUSH1 0x64 DUP3 ADD MSTORE PUSH1 0x84 SWAP1 REVERT JUMPDEST PUSH1 0x80 MSTORE CODESIZE PUSH3 0xEE JUMP JUMPDEST DUP4 MLOAD PUSH4 0x1E4FBDF7 PUSH1 0xE0 SHL DUP2 MSTORE PUSH1 0x0 PUSH1 0x4 DUP3 ADD MSTORE PUSH1 0x24 SWAP1 REVERT JUMPDEST PUSH1 0x0 DUP1 REVERT JUMPDEST PUSH4 0x4E487B71 PUSH1 0xE0 SHL PUSH1 0x0 MSTORE PUSH1 0x41 PUSH1 0x4 MSTORE PUSH1 0x24 PUSH1 0x0 REVERT JUMPDEST MLOAD SWAP1 PUSH1 0x1 PUSH1 0x1 PUSH1 0xA0 SHL SUB DUP3 AND DUP3 SUB PUSH3 0x5B2 JUMPI JUMP INVALID PUSH1 0xE0 DUP1 PUSH1 0x40 MSTORE PUSH1 0x4 CALLDATASIZE LT ISZERO PUSH2 0x13 JUMPI PUSH1 0x0 DUP1 REVERT JUMPDEST PUSH1 0x0 SWAP1 DUP2 CALLDATALOAD PUSH1 0xE0 SHR SWAP1 DUP2 PUSH4 0x3FA2C63 EQ PUSH2 0x5055 JUMPI POP DUP1 PUSH4 0x6038341 EQ PUSH2 0x5032 JUMPI DUP1 PUSH4 0x98655D9 EQ PUSH2 0x5015 JUMPI DUP1 PUSH4 0xAA01695 EQ PUSH2 0x4FC7 JUMPI DUP1 PUSH4 0xB00A5DB EQ PUSH2 0x4F02 JUMPI DUP1 PUSH4 0xC89D127 EQ PUSH2 0x4ED0 JUMPI DUP1 PUSH4 0xD9F92CA EQ PUSH2 0x5F6 JUMPI DUP1 PUSH4 0x117A5B90 EQ PUSH2 0x4E5F JUMPI DUP1 PUSH4 0x1472CBE3 EQ PUSH2 0x4D4D JUMPI DUP1 PUSH4 0x16FA1086 EQ PUSH2 0x4D31 JUMPI DUP1 PUSH4 0x19BF155D EQ PUSH2 0x4D13 JUMPI DUP1 PUSH4 0x1A1D9252 EQ PUSH2 0x4CE4 JUMPI DUP1 PUSH4 0x2086EEFA EQ PUSH2 0x4C9F JUMPI DUP1 PUSH4 0x20DF4359 EQ PUSH2 0x4C76 JUMPI DUP1 PUSH4 0x21874AE2 EQ PUSH2 0x4BCE JUMPI DUP1 PUSH4 0x25B7F388 EQ PUSH2 0x499E JUMPI DUP1 PUSH4 0x2618CAFD EQ PUSH2 0x46FA JUMPI DUP1 PUSH4 0x2630C12F EQ PUSH2 0x46D1 JUMPI DUP1 PUSH4 0x2655E840 EQ PUSH2 0x468A JUMPI DUP1 PUSH4 0x28100ACA EQ PUSH2 0x466C JUMPI DUP1 PUSH4 0x2A243F19 EQ PUSH2 0x463D JUMPI DUP1 PUSH4 0x2E108D1C EQ PUSH2 0x43CA JUMPI DUP1 PUSH4 0x2EE8B778 EQ PUSH2 0x43AC JUMPI DUP1 PUSH4 0x2EFB53DA EQ PUSH2 0x437C JUMPI DUP1 PUSH4 0x2F2FF15D EQ PUSH2 0x42D1 JUMPI DUP1 PUSH4 0x2FF7A52D EQ PUSH2 0x4298 JUMPI DUP1 PUSH4 0x39D8EA42 EQ PUSH2 0x1728 JUMPI DUP1 PUSH4 0x3A65126A EQ PUSH2 0x3EB3 JUMPI DUP1 PUSH4 0x3BB4F638 EQ PUSH2 0x3E95 JUMPI DUP1 PUSH4 0x3F781412 EQ PUSH2 0x3E51 JUMPI DUP1 PUSH4 0x3FB83A54 EQ PUSH2 0x3E30 JUMPI DUP1 PUSH4 0x41FE39EC EQ PUSH2 0x3E07 JUMPI DUP1 PUSH4 0x43F2A080 EQ PUSH2 0x3D77 JUMPI DUP1 PUSH4 0x49FAA4D4 EQ PUSH2 0x5F6 JUMPI DUP1 PUSH4 0x4B75344E EQ PUSH2 0x19DC JUMPI DUP1 PUSH4 0x4EB692A5 EQ PUSH2 0x3D45 JUMPI DUP1 PUSH4 0x4F55E8AD EQ PUSH2 0x3CC1 JUMPI DUP1 PUSH4 0x52861F7F EQ PUSH2 0x3CA0 JUMPI DUP1 PUSH4 0x56768B5E EQ PUSH2 0x3B6C JUMPI DUP1 PUSH4 0x59328401 EQ PUSH2 0x3943 JUMPI DUP1 PUSH4 0x59A9867E EQ PUSH2 0x37E5 JUMPI DUP1 PUSH4 0x59DB6FE6 EQ PUSH2 0x37C7 JUMPI DUP1 PUSH4 0x5C27B2E4 EQ PUSH2 0x2EB7 JUMPI DUP1 PUSH4 0x5C975ABB EQ PUSH2 0x2E91 JUMPI DUP1 PUSH4 0x67CAFABB EQ PUSH2 0x2E67 JUMPI DUP1 PUSH4 0x6858A3F3 EQ PUSH2 0x2E3E JUMPI DUP1 PUSH4 0x69396E88 EQ PUSH2 0x2E22 JUMPI DUP1 PUSH4 0x6CE497B2 EQ PUSH2 0x2D92 JUMPI DUP1 PUSH4 0x6E1D616E EQ PUSH2 0x2D57 JUMPI DUP1 PUSH4 0x715018A6 EQ PUSH2 0x2D0C JUMPI DUP1 PUSH4 0x71E4206D EQ PUSH2 0x2ADB JUMPI DUP1 PUSH4 0x74631FD7 EQ PUSH2 0x288F JUMPI DUP1 PUSH4 0x7550B84F EQ PUSH2 0x2871 JUMPI DUP1 PUSH4 0x75B238FC EQ PUSH2 0x2848 JUMPI DUP1 PUSH4 0x77CE2992 EQ PUSH2 0x280F JUMPI DUP1 PUSH4 0x786A78C6 EQ PUSH2 0x278A JUMPI DUP1 PUSH4 0x79675127 EQ PUSH2 0x2760 JUMPI DUP1 PUSH4 0x7A7EB1F4 EQ PUSH2 0x275B JUMPI DUP1 PUSH4 0x84A3A0F3 EQ PUSH2 0x275B JUMPI DUP1 PUSH4 0x853B2B88 EQ PUSH2 0x2716 JUMPI DUP1 PUSH4 0x8543210D EQ PUSH2 0x26E3 JUMPI DUP1 PUSH4 0x8C267E0D EQ PUSH2 0x1223 JUMPI DUP1 PUSH4 0x8DA5CB5B EQ PUSH2 0x26BA JUMPI DUP1 PUSH4 0x91D14854 EQ PUSH2 0x2655 JUMPI DUP1 PUSH4 0x920736E5 EQ PUSH2 0x2623 JUMPI DUP1 PUSH4 0x968D901B EQ PUSH2 0x2565 JUMPI DUP1 PUSH4 0x96F277B7 EQ PUSH2 0x2301 JUMPI DUP1 PUSH4 0x9B5A139A EQ PUSH2 0x2543 JUMPI DUP1 PUSH4 0x9B6CCDE2 EQ PUSH2 0x2306 JUMPI DUP1 PUSH4 0x9B95F1FC EQ PUSH2 0x2301 JUMPI DUP1 PUSH4 0x9CA423B3 EQ PUSH2 0x229D JUMPI DUP1 PUSH4 0x9E9E4056 EQ PUSH2 0x2104 JUMPI DUP1 PUSH4 0xA04F6B4B EQ PUSH2 0x20E7 JUMPI DUP1 PUSH4 0xA154FC6B EQ PUSH2 0x2077 JUMPI DUP1 PUSH4 0xA2635401 EQ PUSH2 0x2059 JUMPI DUP1 PUSH4 0xA2F77BCC EQ PUSH2 0x1F78 JUMPI DUP1 PUSH4 0xA37C1572 EQ PUSH2 0x1F49 JUMPI DUP1 PUSH4 0xA88066F7 EQ PUSH2 0x1F4E JUMPI DUP1 PUSH4 0xA9B8B451 EQ PUSH2 0x1F49 JUMPI DUP1 PUSH4 0xAD763192 EQ PUSH2 0x1ED4 JUMPI DUP1 PUSH4 0xAEA664A5 EQ PUSH2 0x1EA1 JUMPI DUP1 PUSH4 0xB87FC22D EQ PUSH2 0x1B5F JUMPI DUP1 PUSH4 0xB8CAEAD6 EQ PUSH2 0x1B41 JUMPI DUP1 PUSH4 0xBA53BA24 EQ PUSH2 0x1AF2 JUMPI DUP1 PUSH4 0xBACF46F3 EQ PUSH2 0x1A4C JUMPI DUP1 PUSH4 0xBB6BF0F0 EQ PUSH2 0x1A2E JUMPI DUP1 PUSH4 0xBBC3CED7 EQ PUSH2 0x5F6 JUMPI DUP1 PUSH4 0xBCF64475 EQ PUSH2 0xDA0 JUMPI DUP1 PUSH4 0xBF757624 EQ PUSH2 0x19FF JUMPI DUP1 PUSH4 0xC14E1E05 EQ PUSH2 0x19E1 JUMPI DUP1 PUSH4 0xC5D32157 EQ PUSH2 0x19DC JUMPI DUP1 PUSH4 0xC65A8568 EQ PUSH2 0x19AC JUMPI DUP1 PUSH4 0xCB955E6B EQ PUSH2 0x1794 JUMPI DUP1 PUSH4 0xCCB60E01 EQ PUSH2 0x1757 JUMPI DUP1 PUSH4 0xCF376677 EQ PUSH2 0x172D JUMPI DUP1 PUSH4 0xD136A94D EQ PUSH2 0x1728 JUMPI DUP1 PUSH4 0xD2111791 EQ PUSH2 0x16FE JUMPI DUP1 PUSH4 0xD547741F EQ PUSH2 0x1654 JUMPI DUP1 PUSH4 0xD5749D42 EQ PUSH2 0x1615 JUMPI DUP1 PUSH4 0xD5FA40E3 EQ PUSH2 0x13D0 JUMPI DUP1 PUSH4 0xD61B86BB EQ PUSH2 0x13A6 JUMPI DUP1 PUSH4 0xDB2E21BC EQ PUSH2 0x1228 JUMPI DUP1 PUSH4 0xDD23B9CB EQ PUSH2 0x1223 JUMPI DUP1 PUSH4 0xE22CB9C9 EQ PUSH2 0xF74 JUMPI DUP1 PUSH4 0xE2EB41FF EQ PUSH2 0xE45 JUMPI DUP1 PUSH4 0xE3505B14 EQ PUSH2 0xDC3 JUMPI DUP1 PUSH4 0xE3D440A7 EQ PUSH2 0xDA5 JUMPI DUP1 PUSH4 0xE443E279 EQ PUSH2 0xDA0 JUMPI DUP1 PUSH4 0xE82AEFC7 EQ PUSH2 0xD00 JUMPI DUP1 PUSH4 0xE8F6940E EQ PUSH2 0xC05 JUMPI DUP1 PUSH4 0xEB0FB2C8 EQ PUSH2 0x943 JUMPI DUP1 PUSH4 0xECB6159E EQ PUSH2 0x705 JUMPI DUP1 PUSH4 0xEE892E64 EQ PUSH2 0x6E7 JUMPI DUP1 PUSH4 0xF2FDE38B EQ PUSH2 0x66F JUMPI DUP1 PUSH4 0xF5B541A6 EQ PUSH2 0x646 JUMPI DUP1 PUSH4 0xF711DCA4 EQ PUSH2 0x5FB JUMPI DUP1 PUSH4 0xF8172FE3 EQ PUSH2 0x5F6 JUMPI DUP1 PUSH4 0xF877A8AF EQ PUSH2 0x5C1 JUMPI DUP1 PUSH4 0xF8FC08B9 EQ PUSH2 0x575 JUMPI PUSH4 0xFFC39504 EQ PUSH2 0x549 JUMPI PUSH1 0x0 DUP1 REVERT JUMPDEST CALLVALUE PUSH2 0x572 JUMPI PUSH1 0x20 CALLDATASIZE PUSH1 0x3 NOT ADD SLT PUSH2 0x572 JUMPI PUSH1 0x40 PUSH1 0x20 SWAP2 PUSH1 0x4 CALLDATALOAD DUP2 MSTORE PUSH1 0xC DUP4 MSTORE KECCAK256 SLOAD PUSH1 0x40 MLOAD SWAP1 DUP2 MSTORE RETURN JUMPDEST DUP1 REVERT JUMPDEST POP CALLVALUE PUSH2 0x572 JUMPI PUSH1 0x40 CALLDATASIZE PUSH1 0x3 NOT ADD SLT PUSH2 0x572 JUMPI PUSH1 0x40 PUSH2 0x591 PUSH2 0x50A1 JUMP JUMPDEST SWAP2 PUSH1 0x4 CALLDATALOAD DUP2 MSTORE PUSH1 0x1C PUSH1 0x20 MSTORE KECCAK256 SWAP1 PUSH1 0x1 DUP1 PUSH1 0xA0 SHL SUB AND PUSH1 0x0 MSTORE PUSH1 0x20 MSTORE PUSH1 0x20 PUSH1 0xFF PUSH1 0x40 PUSH1 0x0 KECCAK256 SLOAD AND PUSH1 0x40 MLOAD SWAP1 ISZERO ISZERO DUP2 MSTORE RETURN JUMPDEST POP CALLVALUE PUSH2 0x572 JUMPI PUSH1 0x20 CALLDATASIZE PUSH1 0x3 NOT ADD SLT PUSH2 0x572 JUMPI PUSH2 0x5DB PUSH2 0x532B JUMP JUMPDEST PUSH2 0x5E3 PUSH2 0x6288 JUMP JUMPDEST PUSH1 0xFF DUP1 NOT PUSH1 0x16 SLOAD AND SWAP2 ISZERO ISZERO AND OR PUSH1 0x16 SSTORE DUP1 RETURN JUMPDEST PUSH2 0x510F JUMP JUMPDEST POP CALLVALUE PUSH2 0x572 JUMPI PUSH2 0x60A CALLDATASIZE PUSH2 0x50CB JUMP JUMPDEST SWAP2 SWAP1 DUP2 MSTORE PUSH1 0x15 PUSH1 0x20 MSTORE PUSH1 0x40 DUP2 KECCAK256 SWAP1 DUP2 SLOAD DUP4 LT ISZERO PUSH2 0x572 JUMPI PUSH1 0x20 PUSH2 0x62D DUP5 DUP5 PUSH2 0x50E1 JUMP JUMPDEST SWAP1 SLOAD PUSH1 0x40 MLOAD PUSH1 0x3 SWAP3 SWAP1 SWAP3 SHL SHR PUSH1 0x1 PUSH1 0x1 PUSH1 0xA0 SHL SUB AND DUP2 MSTORE RETURN JUMPDEST POP CALLVALUE PUSH2 0x572 JUMPI DUP1 PUSH1 0x3 NOT CALLDATASIZE ADD SLT PUSH2 0x572 JUMPI PUSH1 0x20 PUSH1 0x40 MLOAD PUSH1 0x0 DUP1 MLOAD PUSH1 0x20 PUSH2 0x6F7D DUP4 CODECOPY DUP2 MLOAD SWAP2 MSTORE DUP2 MSTORE RETURN JUMPDEST POP CALLVALUE PUSH2 0x572 JUMPI PUSH1 0x20 CALLDATASIZE PUSH1 0x3 NOT ADD SLT PUSH2 0x572 JUMPI PUSH2 0x689 PUSH2 0x508B JUMP JUMPDEST PUSH2 0x691 PUSH2 0x6288 JUMP JUMPDEST PUSH1 0x1 PUSH1 0x1 PUSH1 0xA0 SHL SUB SWAP1 DUP2 AND SWAP1 DUP2 ISZERO PUSH2 0x6CE JUMPI PUSH1 0x1 DUP1 SLOAD PUSH1 0x1 PUSH1 0x1 PUSH1 0xA0 SHL SUB NOT DUP2 AND DUP5 OR SWAP1 SWAP2 SSTORE AND PUSH1 0x0 DUP1 MLOAD PUSH1 0x20 PUSH2 0x6F9D DUP4 CODECOPY DUP2 MLOAD SWAP2 MSTORE PUSH1 0x0 DUP1 LOG3 DUP1 RETURN JUMPDEST PUSH1 0x40 MLOAD PUSH4 0x1E4FBDF7 PUSH1 0xE0 SHL DUP2 MSTORE PUSH1 0x4 DUP2 ADD DUP5 SWAP1 MSTORE PUSH1 0x24 SWAP1 REVERT JUMPDEST POP CALLVALUE PUSH2 0x572 JUMPI DUP1 PUSH1 0x3 NOT CALLDATASIZE ADD SLT PUSH2 0x572 JUMPI PUSH1 0x20 PUSH1 0x29 SLOAD PUSH1 0x40 MLOAD SWAP1 DUP2 MSTORE RETURN JUMPDEST POP CALLVALUE PUSH2 0x572 JUMPI DUP1 PUSH1 0x3 NOT CALLDATASIZE ADD SLT PUSH2 0x572 JUMPI PUSH1 0x0 DUP1 MLOAD PUSH1 0x20 PUSH2 0x6F7D DUP4 CODECOPY DUP2 MLOAD SWAP2 MSTORE DUP2 MSTORE PUSH1 0x20 PUSH1 0x1C DUP2 MSTORE PUSH1 0x40 DUP3 KECCAK256 CALLER PUSH1 0x0 MSTORE DUP2 MSTORE PUSH1 0xFF PUSH1 0x40 PUSH1 0x0 KECCAK256 SLOAD AND DUP1 ISZERO PUSH2 0x92F JUMPI JUMPDEST PUSH2 0x750 SWAP1 PUSH2 0x57D0 JUMP JUMPDEST PUSH2 0x758 PUSH2 0x62B4 JUMP JUMPDEST PUSH2 0x766 PUSH1 0xFF PUSH1 0x16 SLOAD AND PUSH2 0x6102 JUMP JUMPDEST PUSH1 0x3 SLOAD PUSH1 0x1 PUSH1 0x1 PUSH1 0xA0 SHL SUB AND PUSH2 0x77D DUP2 ISZERO ISZERO PUSH2 0x6140 JUMP JUMPDEST PUSH1 0x9 SLOAD PUSH3 0x93A80 DUP2 ADD DUP1 SWAP2 GT PUSH2 0x91B JUMPI PUSH2 0x799 SWAP1 TIMESTAMP LT ISZERO PUSH2 0x5C5A JUMP JUMPDEST PUSH1 0x5 SLOAD PUSH1 0x40 MLOAD PUSH4 0xCCB60E01 PUSH1 0xE0 SHL DUP2 MSTORE PUSH1 0x4 DUP2 ADD DUP3 SWAP1 MSTORE SWAP2 SWAP1 DUP5 DUP4 PUSH1 0x24 DUP2 ADDRESS GAS STATICCALL SWAP3 DUP4 ISZERO PUSH2 0x910 JUMPI DUP6 SWAP4 PUSH2 0x8EC JUMPI JUMPDEST POP DUP3 MLOAD ISZERO PUSH2 0x89B JUMPI SWAP2 DUP4 SWAP2 PUSH2 0x801 SWAP4 DUP7 PUSH1 0x40 MLOAD DUP1 SWAP7 DUP2 SWAP6 DUP3 SWAP5 PUSH4 0x1B9540CF PUSH1 0xE2 SHL DUP5 MSTORE PUSH1 0x4 DUP5 ADD MSTORE PUSH1 0x40 PUSH1 0x24 DUP5 ADD MSTORE PUSH1 0x44 DUP4 ADD SWAP1 PUSH2 0x54E1 JUMP JUMPDEST SUB SWAP3 GAS CALL SWAP1 DUP2 ISZERO PUSH2 0x890 JUMPI DUP4 SWAP2 PUSH2 0x85E JUMPI JUMPDEST POP DUP1 DUP4 MSTORE PUSH1 0x14 DUP3 MSTORE PUSH1 0x40 DUP4 KECCAK256 PUSH1 0x1 PUSH1 0xFF NOT DUP3 SLOAD AND OR SWAP1 SSTORE PUSH1 0x0 DUP1 MLOAD PUSH1 0x20 PUSH2 0x703D DUP4 CODECOPY DUP2 MLOAD SWAP2 MSTORE PUSH1 0x60 PUSH1 0x5 SLOAD SWAP4 PUSH1 0x6 PUSH1 0x40 MLOAD SWAP2 DUP1 DUP4 MSTORE DUP3 ADD MSTORE PUSH6 0x7765656B6C79 PUSH1 0xD0 SHL PUSH1 0x40 DUP3 ADD MSTORE LOG3 DUP1 RETURN JUMPDEST SWAP1 POP DUP2 DUP2 DUP2 RETURNDATASIZE DUP4 GT PUSH2 0x889 JUMPI JUMPDEST PUSH2 0x875 DUP2 DUP4 PUSH2 0x522F JUMP JUMPDEST DUP2 ADD SUB SLT PUSH2 0x884 JUMPI MLOAD CODESIZE PUSH2 0x813 JUMP JUMPDEST PUSH1 0x0 DUP1 REVERT JUMPDEST POP RETURNDATASIZE PUSH2 0x86B JUMP JUMPDEST PUSH1 0x40 MLOAD RETURNDATASIZE DUP6 DUP3 RETURNDATACOPY RETURNDATASIZE SWAP1 REVERT JUMPDEST PUSH1 0x40 MLOAD PUSH3 0x461BCD PUSH1 0xE5 SHL DUP2 MSTORE PUSH1 0x4 DUP2 ADD DUP6 SWAP1 MSTORE PUSH1 0x23 PUSH1 0x24 DUP3 ADD MSTORE PUSH32 0x4E6F20656C696769626C6520706C617965727320666F72207765656B6C792064 PUSH1 0x44 DUP3 ADD MSTORE PUSH3 0x726177 PUSH1 0xE8 SHL PUSH1 0x64 DUP3 ADD MSTORE PUSH1 0x84 SWAP1 REVERT JUMPDEST PUSH2 0x909 SWAP2 SWAP4 POP RETURNDATASIZE DUP1 DUP8 DUP4 RETURNDATACOPY PUSH2 0x901 DUP2 DUP4 PUSH2 0x522F JUMP JUMPDEST DUP2 ADD SWAP1 PUSH2 0x6183 JUMP JUMPDEST SWAP2 CODESIZE PUSH2 0x7C8 JUMP JUMPDEST PUSH1 0x40 MLOAD RETURNDATASIZE DUP8 DUP3 RETURNDATACOPY RETURNDATASIZE SWAP1 REVERT JUMPDEST PUSH4 0x4E487B71 PUSH1 0xE0 SHL DUP5 MSTORE PUSH1 0x11 PUSH1 0x4 MSTORE PUSH1 0x24 DUP5 REVERT JUMPDEST POP PUSH1 0x1 SLOAD PUSH1 0x1 PUSH1 0x1 PUSH1 0xA0 SHL SUB AND CALLER EQ PUSH2 0x747 JUMP JUMPDEST POP CALLVALUE PUSH2 0x572 JUMPI DUP1 PUSH1 0x3 NOT CALLDATASIZE ADD SLT PUSH2 0x572 JUMPI PUSH1 0x0 DUP1 MLOAD PUSH1 0x20 PUSH2 0x6F7D DUP4 CODECOPY DUP2 MLOAD SWAP2 MSTORE DUP2 MSTORE PUSH1 0x20 PUSH1 0x1C DUP2 MSTORE PUSH1 0x40 DUP3 KECCAK256 CALLER PUSH1 0x0 MSTORE DUP2 MSTORE PUSH1 0xFF PUSH1 0x40 PUSH1 0x0 KECCAK256 SLOAD AND DUP1 ISZERO PUSH2 0xBF1 JUMPI JUMPDEST PUSH2 0x98E SWAP1 PUSH2 0x57D0 JUMP JUMPDEST PUSH2 0x996 PUSH2 0x62B4 JUMP JUMPDEST PUSH1 0xA SWAP1 PUSH1 0xA SLOAD ISZERO PUSH2 0xBAD JUMPI PUSH1 0x0 NOT NUMBER ADD NUMBER DUP2 GT PUSH2 0x91B JUMPI PUSH1 0x13 SLOAD PUSH1 0x40 MLOAD SWAP1 DUP4 DUP3 ADD SWAP3 TIMESTAMP DUP5 MSTORE PREVRANDAO PUSH1 0x40 DUP5 ADD MSTORE BLOCKHASH PUSH1 0x60 DUP4 ADD MSTORE CALLER PUSH1 0x60 SHL PUSH1 0x80 DUP4 ADD MSTORE PUSH1 0x94 DUP3 ADD MSTORE PUSH1 0x94 DUP2 MSTORE PUSH2 0x9E2 DUP2 PUSH2 0x51F8 JUMP JUMPDEST MLOAD SWAP1 KECCAK256 SWAP2 PUSH2 0x9F2 DUP4 PUSH1 0x5 SLOAD PUSH2 0x6B92 JUMP JUMPDEST SWAP4 PUSH1 0x6 SLOAD PUSH1 0x3 SHR SWAP3 DUP2 JUMPDEST DUP7 MLOAD DUP2 LT ISZERO PUSH2 0xB31 JUMPI PUSH1 0x1 PUSH1 0x1 PUSH1 0xA0 SHL SUB DUP1 PUSH2 0xA18 DUP4 DUP11 PUSH2 0x587A JUMP JUMPDEST MLOAD AND PUSH2 0xA28 JUMPI JUMPDEST POP PUSH1 0x1 ADD PUSH2 0x9FC JUMP JUMPDEST PUSH2 0xA55 DUP4 DUP8 DUP4 PUSH2 0xA38 DUP7 DUP14 PUSH2 0x587A JUMP JUMPDEST MLOAD AND PUSH1 0x40 MLOAD SWAP4 DUP5 SWAP3 DUP4 SWAP3 PUSH4 0xA9059CBB PUSH1 0xE0 SHL DUP5 MSTORE PUSH1 0x4 DUP5 ADD PUSH2 0x58F7 JUMP JUMPDEST SUB DUP2 DUP9 DUP7 PUSH32 0x0 AND GAS CALL SWAP1 DUP2 ISZERO PUSH2 0x910 JUMPI SWAP1 PUSH2 0xA96 SWAP2 DUP7 SWAP2 PUSH2 0xB04 JUMPI JUMPDEST POP PUSH2 0x620C JUMP JUMPDEST DUP1 PUSH2 0xAA1 DUP4 DUP11 PUSH2 0x587A JUMP JUMPDEST MLOAD AND DUP5 MSTORE PUSH1 0x1E DUP4 MSTORE PUSH1 0x40 DUP5 KECCAK256 DUP1 SLOAD SWAP1 DUP7 DUP3 ADD DUP1 SWAP3 GT PUSH2 0xAF0 JUMPI SSTORE PUSH1 0x1 SWAP2 SWAP1 PUSH2 0xAC9 DUP3 DUP11 PUSH2 0x587A JUMP JUMPDEST MLOAD AND PUSH1 0x0 DUP1 MLOAD PUSH1 0x20 PUSH2 0x6FDD DUP4 CODECOPY DUP2 MLOAD SWAP2 MSTORE PUSH1 0x40 MLOAD DUP1 PUSH2 0xAE7 DUP2 PUSH2 0x624A JUMP JUMPDEST SUB SWAP1 LOG2 SWAP1 PUSH2 0xA1F JUMP JUMPDEST PUSH4 0x4E487B71 PUSH1 0xE0 SHL DUP7 MSTORE PUSH1 0x11 PUSH1 0x4 MSTORE PUSH1 0x24 DUP7 REVERT JUMPDEST PUSH2 0xB24 SWAP2 POP DUP6 RETURNDATASIZE DUP8 GT PUSH2 0xB2A JUMPI JUMPDEST PUSH2 0xB1C DUP2 DUP4 PUSH2 0x522F JUMP JUMPDEST DUP2 ADD SWAP1 PUSH2 0x58DF JUMP JUMPDEST CODESIZE PUSH2 0xA90 JUMP JUMPDEST POP RETURNDATASIZE PUSH2 0xB12 JUMP JUMPDEST POP PUSH32 0x9F22D2B65D1E9BEF93DA4067644E4EAD3BD41C9D3FC8568887CC572B482E6CB7 SWAP1 DUP6 PUSH2 0xB9F DUP9 PUSH1 0x5 SLOAD SWAP3 PUSH1 0x0 DUP1 MLOAD PUSH1 0x20 PUSH2 0x6FBD DUP4 CODECOPY DUP2 MLOAD SWAP2 MSTORE PUSH2 0xB80 PUSH1 0x6 SLOAD PUSH1 0x40 MLOAD SWAP2 DUP3 SWAP2 DUP7 DUP10 DUP5 PUSH2 0x589D JUMP JUMPDEST SUB SWAP1 LOG1 PUSH1 0x40 MLOAD SWAP5 DUP6 SWAP5 DUP6 MSTORE DUP5 ADD MSTORE PUSH1 0x60 PUSH1 0x40 DUP5 ADD MSTORE PUSH1 0x60 DUP4 ADD SWAP1 PUSH2 0x54E1 JUMP JUMPDEST SUB SWAP1 LOG1 PUSH2 0xBAA PUSH2 0x65D1 JUMP JUMPDEST DUP1 RETURN JUMPDEST PUSH1 0x64 SWAP1 PUSH1 0x40 MLOAD SWAP1 PUSH3 0x461BCD PUSH1 0xE5 SHL DUP3 MSTORE PUSH1 0x4 DUP3 ADD MSTORE PUSH1 0x1D PUSH1 0x24 DUP3 ADD MSTORE PUSH32 0x4E6F2072616E646F6D6E65737320726F756E6420726571756573746564000000 PUSH1 0x44 DUP3 ADD MSTORE REVERT JUMPDEST POP PUSH1 0x1 SLOAD PUSH1 0x1 PUSH1 0x1 PUSH1 0xA0 SHL SUB AND CALLER EQ PUSH2 0x985 JUMP JUMPDEST POP CALLVALUE PUSH2 0x572 JUMPI PUSH1 0x20 CALLDATASIZE PUSH1 0x3 NOT ADD SLT PUSH2 0x572 JUMPI PUSH2 0xC1F PUSH2 0x532B JUMP JUMPDEST PUSH2 0xC27 PUSH2 0x6288 JUMP JUMPDEST DUP1 ISZERO PUSH2 0xC92 JUMPI PUSH1 0x20 PUSH1 0x0 DUP1 MLOAD PUSH1 0x20 PUSH2 0x6F5D DUP4 CODECOPY DUP2 MLOAD SWAP2 MSTORE SWAP2 PUSH2 0xC47 PUSH2 0x62B4 JUMP JUMPDEST PUSH1 0x1 DUP1 SLOAD PUSH1 0xFF PUSH1 0xA0 SHL NOT AND PUSH1 0x1 PUSH1 0xA0 SHL OR SWAP1 SSTORE PUSH1 0x40 MLOAD CALLER DUP2 MSTORE PUSH32 0x62E78CEA01BEE320CD4E420270B5EA74000D11B0C9F74754EBDBFC544B05A258 SWAP1 DUP4 SWAP1 LOG1 JUMPDEST PUSH1 0x40 MLOAD SWAP1 ISZERO ISZERO DUP2 MSTORE LOG1 DUP1 RETURN JUMPDEST PUSH1 0x1 SLOAD PUSH1 0xFF DUP2 PUSH1 0xA0 SHR AND ISZERO PUSH2 0xCEE JUMPI PUSH1 0xFF PUSH1 0xA0 SHL NOT AND PUSH1 0x1 SSTORE PUSH1 0x40 MLOAD CALLER DUP2 MSTORE PUSH1 0x0 DUP1 MLOAD PUSH1 0x20 PUSH2 0x6F5D DUP4 CODECOPY DUP2 MLOAD SWAP2 MSTORE SWAP2 PUSH1 0x20 SWAP2 PUSH32 0x5DB9EE0A495BF2E6FF9C91A7834C1BA4FDD244A5E8AA4E537BD38AEAE4B073AA SWAP1 DUP4 SWAP1 LOG1 PUSH2 0xC86 JUMP JUMPDEST PUSH1 0x40 MLOAD PUSH4 0x8DFC202B PUSH1 0xE0 SHL DUP2 MSTORE PUSH1 0x4 SWAP1 REVERT JUMPDEST POP CALLVALUE PUSH2 0x572 JUMPI PUSH1 0x20 CALLDATASIZE PUSH1 0x3 NOT ADD SLT PUSH2 0x572 JUMPI PUSH1 0x4 CALLDATALOAD PUSH1 0x0 DUP1 MLOAD PUSH1 0x20 PUSH2 0x6F1D DUP4 CODECOPY DUP2 MLOAD SWAP2 MSTORE DUP3 MSTORE PUSH1 0x1C PUSH1 0x20 MSTORE PUSH1 0x40 DUP3 KECCAK256 CALLER PUSH1 0x0 MSTORE PUSH1 0x20 MSTORE PUSH1 0xFF PUSH1 0x40 PUSH1 0x0 KECCAK256 SLOAD AND DUP1 ISZERO PUSH2 0xD8C JUMPI JUMPDEST PUSH2 0xD4F SWAP1 PUSH2 0x57D0 JUMP JUMPDEST DUP1 DUP3 MSTORE PUSH1 0x17 PUSH1 0x20 MSTORE PUSH1 0x40 DUP3 KECCAK256 DUP1 SLOAD PUSH1 0xFF NOT AND SWAP1 SSTORE CALLER SWAP1 PUSH32 0x6D01469F672CD6CB0434A128CAC9B91DC60A83E67A56BE9FB5F265C18D29C7C5 DUP4 DUP1 LOG3 DUP1 RETURN JUMPDEST POP PUSH1 0x1 SLOAD PUSH1 0x1 PUSH1 0x1 PUSH1 0xA0 SHL SUB AND CALLER EQ PUSH2 0xD46 JUMP JUMPDEST PUSH2 0x55D3 JUMP JUMPDEST POP CALLVALUE PUSH2 0x572 JUMPI DUP1 PUSH1 0x3 NOT CALLDATASIZE ADD SLT PUSH2 0x572 JUMPI PUSH1 0x20 PUSH1 0x6 SLOAD PUSH1 0x40 MLOAD SWAP1 DUP2 MSTORE RETURN JUMPDEST POP CALLVALUE PUSH2 0x572 JUMPI PUSH1 0x40 CALLDATASIZE PUSH1 0x3 NOT ADD SLT PUSH2 0x572 JUMPI PUSH2 0xDDD PUSH2 0x62B4 JUMP JUMPDEST PUSH1 0x2 SLOAD DUP2 SWAP1 PUSH1 0x1 PUSH1 0x1 PUSH1 0xA0 SHL SUB AND DUP1 EXTCODESIZE ISZERO PUSH2 0xE42 JUMPI DUP2 DUP1 SWAP2 PUSH1 0x44 PUSH1 0x40 MLOAD DUP1 SWAP5 DUP2 SWAP4 PUSH4 0x39A8F677 PUSH1 0xE2 SHL DUP4 MSTORE PUSH1 0x4 CALLDATALOAD PUSH1 0x4 DUP5 ADD MSTORE PUSH1 0x24 CALLDATALOAD PUSH1 0x24 DUP5 ADD MSTORE GAS CALL DUP1 ISZERO PUSH2 0xE37 JUMPI PUSH2 0xE27 JUMPI POP RETURN JUMPDEST PUSH2 0xE30 SWAP1 PUSH2 0x5194 JUMP JUMPDEST PUSH2 0x572 JUMPI DUP1 RETURN JUMPDEST PUSH1 0x40 MLOAD RETURNDATASIZE DUP5 DUP3 RETURNDATACOPY RETURNDATASIZE SWAP1 REVERT JUMPDEST POP REVERT JUMPDEST POP CALLVALUE PUSH2 0x572 JUMPI PUSH1 0x20 CALLDATASIZE PUSH1 0x3 NOT ADD SLT PUSH2 0x572 JUMPI PUSH1 0x1 PUSH1 0x1 PUSH1 0xA0 SHL SUB PUSH2 0xE67 PUSH2 0x508B JUMP JUMPDEST AND DUP2 MSTORE PUSH1 0x1E PUSH1 0x20 MSTORE PUSH1 0x40 SWAP1 KECCAK256 DUP1 DUP1 DUP1 SLOAD PUSH1 0x1 DUP3 ADD SLOAD PUSH1 0xC0 MSTORE PUSH1 0x2 DUP3 ADD SLOAD PUSH1 0x3 DUP4 ADD SLOAD PUSH1 0x4 DUP5 ADD SLOAD PUSH1 0x5 DUP6 ADD SLOAD PUSH1 0x6 DUP7 ADD SLOAD PUSH1 0xFF AND PUSH1 0x7 DUP8 ADD SLOAD SWAP1 PUSH1 0x8 DUP9 ADD SLOAD SWAP3 PUSH1 0x9 DUP10 ADD SLOAD SWAP5 PUSH1 0xA DUP11 ADD SLOAD SWAP7 PUSH1 0xB DUP12 ADD SLOAD SWAP9 PUSH1 0xC DUP13 ADD SLOAD SWAP11 PUSH1 0xD DUP14 ADD SLOAD PUSH1 0xFF AND SWAP13 PUSH1 0xE ADD SLOAD SWAP14 PUSH1 0xF ADD SLOAD SWAP15 PUSH1 0x10 ADD SLOAD PUSH1 0xFF AND PUSH1 0x80 MSTORE PUSH1 0x40 MLOAD PUSH1 0xA0 MSTORE PUSH1 0xA0 MLOAD MSTORE PUSH1 0xC0 MLOAD PUSH1 0xA0 MLOAD PUSH1 0x20 ADD MSTORE PUSH1 0xA0 MLOAD PUSH1 0x40 ADD MSTORE PUSH1 0xA0 MLOAD PUSH1 0x60 ADD MSTORE PUSH1 0xA0 MLOAD PUSH1 0x80 ADD MSTORE PUSH1 0xA0 MLOAD PUSH1 0xA0 ADD MSTORE ISZERO ISZERO PUSH1 0xA0 MLOAD PUSH1 0xC0 ADD MSTORE PUSH1 0xA0 MLOAD PUSH1 0xE0 ADD MSTORE PUSH1 0xA0 MLOAD PUSH2 0x100 ADD MSTORE PUSH1 0xA0 MLOAD PUSH2 0x120 ADD MSTORE PUSH1 0xA0 MLOAD PUSH2 0x140 ADD MSTORE PUSH1 0xA0 MLOAD PUSH2 0x160 ADD MSTORE PUSH1 0xA0 MLOAD PUSH2 0x180 ADD MSTORE ISZERO ISZERO PUSH1 0xA0 MLOAD PUSH2 0x1A0 ADD MSTORE PUSH1 0xA0 MLOAD PUSH2 0x1C0 ADD MSTORE PUSH1 0xA0 MLOAD PUSH2 0x1E0 ADD MSTORE PUSH1 0x80 MLOAD ISZERO ISZERO PUSH1 0xA0 MLOAD PUSH2 0x200 ADD MSTORE PUSH1 0xA0 MLOAD PUSH2 0x220 SWAP1 RETURN JUMPDEST POP CALLVALUE PUSH2 0x572 JUMPI DUP1 PUSH1 0x3 NOT CALLDATASIZE ADD SLT PUSH2 0x572 JUMPI PUSH2 0xF8D PUSH2 0x6332 JUMP JUMPDEST PUSH2 0xF95 PUSH2 0x62B4 JUMP JUMPDEST CALLER DUP2 MSTORE PUSH1 0x20 PUSH1 0x22 DUP2 MSTORE PUSH2 0xFAF PUSH1 0xFF PUSH1 0x40 DUP5 KECCAK256 SLOAD AND ISZERO PUSH2 0x564D JUMP JUMPDEST CALLER DUP3 MSTORE PUSH1 0x1E DUP1 DUP3 MSTORE PUSH2 0xFCB PUSH1 0xFF PUSH1 0x6 PUSH1 0x40 DUP7 KECCAK256 ADD SLOAD AND ISZERO PUSH2 0x564D JUMP JUMPDEST CALLER DUP4 MSTORE DUP1 DUP3 MSTORE PUSH1 0xC PUSH1 0x40 DUP5 KECCAK256 ADD SLOAD PUSH3 0x15180 DUP2 ADD DUP1 SWAP2 GT PUSH2 0x91B JUMPI PUSH2 0xFF2 SWAP1 TIMESTAMP LT ISZERO PUSH2 0x5691 JUMP JUMPDEST CALLER DUP4 MSTORE DUP1 DUP3 MSTORE PUSH2 0x100B PUSH1 0x64 PUSH1 0xE PUSH1 0x40 DUP7 KECCAK256 ADD SLOAD LT PUSH2 0x56DC JUMP JUMPDEST CALLER DUP4 MSTORE DUP1 DUP3 MSTORE PUSH1 0xFF PUSH1 0xD PUSH1 0x40 DUP6 KECCAK256 ADD SLOAD AND PUSH2 0x11D3 JUMPI CALLER DUP4 MSTORE DUP1 DUP3 MSTORE PUSH1 0x1 PUSH1 0x9 PUSH1 0x40 DUP6 KECCAK256 ADD SLOAD LT PUSH2 0x1193 JUMPI CALLER PUSH1 0x0 MSTORE PUSH1 0x24 SWAP1 DUP2 DUP4 MSTORE PUSH1 0x40 PUSH1 0x0 KECCAK256 SLOAD PUSH1 0x5 DUP2 ADD DUP1 SWAP2 GT PUSH2 0x114C JUMPI PUSH1 0x64 DUP2 GT PUSH2 0x1161 JUMPI CALLER PUSH1 0x0 MSTORE DUP3 DUP5 MSTORE PUSH1 0x40 PUSH1 0x0 KECCAK256 SSTORE DUP1 DUP4 MSTORE PUSH1 0xE PUSH1 0x40 PUSH1 0x0 KECCAK256 ADD SLOAD PUSH1 0x5 DUP2 ADD DUP1 SWAP2 GT PUSH2 0x114C JUMPI CALLER PUSH1 0x0 MSTORE DUP2 DUP5 MSTORE PUSH1 0xE PUSH1 0x40 PUSH1 0x0 KECCAK256 ADD SSTORE CALLER DUP5 MSTORE DUP1 DUP4 MSTORE PUSH1 0x40 DUP5 KECCAK256 PUSH1 0xD DUP2 ADD PUSH1 0x1 PUSH1 0xFF NOT DUP3 SLOAD AND OR SWAP1 SSTORE SLOAD SWAP2 PUSH1 0x5 DUP4 ADD DUP1 SWAP4 GT PUSH2 0x113A JUMPI POP CALLER DUP5 MSTORE DUP3 MSTORE PUSH1 0x40 DUP4 KECCAK256 SWAP1 DUP2 SSTORE PUSH1 0xC TIMESTAMP SWAP2 ADD SSTORE PUSH1 0x40 MLOAD PUSH1 0x5 DUP2 MSTORE PUSH32 0x666FF46B6B5A0789C7D628ECFA8A5975B192B7D3541FC30B22DA07A9B3D4DDBC DUP3 CALLER SWAP3 LOG2 PUSH1 0x40 DUP1 MLOAD SWAP2 PUSH1 0x5 DUP4 MSTORE DUP3 ADD MSTORE PUSH1 0x12 PUSH1 0x40 DUP3 ADD MSTORE PUSH18 0x119A5C9CDD081BDC99195C881C995DD85C99 PUSH1 0x72 SHL PUSH1 0x60 DUP3 ADD MSTORE PUSH1 0x0 DUP1 MLOAD PUSH1 0x20 PUSH2 0x6FDD DUP4 CODECOPY DUP2 MLOAD SWAP2 MSTORE PUSH1 0x80 CALLER SWAP3 LOG2 PUSH1 0x1 DUP2 SSTORE DUP1 RETURN JUMPDEST PUSH4 0x4E487B71 PUSH1 0xE0 SHL DUP6 MSTORE PUSH1 0x11 PUSH1 0x4 MSTORE DUP5 REVERT JUMPDEST DUP3 PUSH4 0x4E487B71 PUSH1 0xE0 SHL PUSH1 0x0 MSTORE PUSH1 0x11 PUSH1 0x4 MSTORE PUSH1 0x0 REVERT JUMPDEST PUSH1 0x40 MLOAD PUSH3 0x461BCD PUSH1 0xE5 SHL DUP2 MSTORE PUSH1 0x4 DUP2 ADD DUP6 SWAP1 MSTORE PUSH1 0x1B DUP2 DUP6 ADD MSTORE PUSH1 0x0 DUP1 MLOAD PUSH1 0x20 PUSH2 0x6FFD DUP4 CODECOPY DUP2 MLOAD SWAP2 MSTORE PUSH1 0x44 DUP3 ADD MSTORE PUSH1 0x64 SWAP1 REVERT JUMPDEST PUSH1 0x40 MLOAD PUSH3 0x461BCD PUSH1 0xE5 SHL DUP2 MSTORE PUSH1 0x4 DUP2 ADD DUP4 SWAP1 MSTORE PUSH1 0x18 PUSH1 0x24 DUP3 ADD MSTORE PUSH24 0x139BC8199A5C9CDD081BDC99195C8818DBDB5C1B195D1959 PUSH1 0x42 SHL PUSH1 0x44 DUP3 ADD MSTORE PUSH1 0x64 SWAP1 REVERT JUMPDEST PUSH1 0x40 MLOAD PUSH3 0x461BCD PUSH1 0xE5 SHL DUP2 MSTORE PUSH1 0x4 DUP2 ADD DUP4 SWAP1 MSTORE PUSH1 0x22 PUSH1 0x24 DUP3 ADD MSTORE PUSH32 0x4669727374206F726465722072657761726420616C726561647920636C61696D PUSH1 0x44 DUP3 ADD MSTORE PUSH2 0x1959 PUSH1 0xF2 SHL PUSH1 0x64 DUP3 ADD MSTORE PUSH1 0x84 SWAP1 REVERT JUMPDEST PUSH2 0x54C5 JUMP JUMPDEST POP CALLVALUE PUSH2 0x572 JUMPI DUP1 PUSH1 0x3 NOT CALLDATASIZE ADD SLT PUSH2 0x572 JUMPI PUSH2 0x1241 PUSH2 0x6288 JUMP JUMPDEST PUSH1 0x40 MLOAD PUSH4 0x70A08231 PUSH1 0xE0 SHL DUP2 MSTORE ADDRESS PUSH1 0x4 DUP3 ADD MSTORE PUSH1 0x20 SWAP1 PUSH1 0x1 PUSH1 0x1 PUSH1 0xA0 SHL SUB PUSH32 0x0 DUP2 AND SWAP1 DUP4 DUP4 PUSH1 0x24 DUP2 DUP6 GAS STATICCALL SWAP3 DUP4 ISZERO PUSH2 0x910 JUMPI DUP6 SWAP4 PUSH2 0x1377 JUMPI JUMPDEST POP DUP3 ISZERO PUSH2 0x1339 JUMPI SWAP2 DUP4 SWAP2 PUSH2 0x12C8 SWAP4 PUSH1 0x1 SLOAD AND DUP7 PUSH1 0x40 MLOAD DUP1 SWAP7 DUP2 SWAP6 DUP3 SWAP5 PUSH4 0xA9059CBB PUSH1 0xE0 SHL DUP5 MSTORE PUSH1 0x4 DUP5 ADD PUSH2 0x58F7 JUMP JUMPDEST SUB SWAP3 GAS CALL SWAP1 DUP2 ISZERO PUSH2 0x890 JUMPI DUP4 SWAP2 PUSH2 0x131C JUMPI JUMPDEST POP ISZERO PUSH2 0x12E4 JUMPI POP DUP1 RETURN JUMPDEST PUSH1 0x64 SWAP1 PUSH1 0x40 MLOAD SWAP1 PUSH3 0x461BCD PUSH1 0xE5 SHL DUP3 MSTORE PUSH1 0x4 DUP3 ADD MSTORE PUSH1 0x11 PUSH1 0x24 DUP3 ADD MSTORE PUSH17 0x15DA5D1A191C985DD85B0819985A5B1959 PUSH1 0x7A SHL PUSH1 0x44 DUP3 ADD MSTORE REVERT JUMPDEST PUSH2 0x1333 SWAP2 POP DUP3 RETURNDATASIZE DUP5 GT PUSH2 0xB2A JUMPI PUSH2 0xB1C DUP2 DUP4 PUSH2 0x522F JUMP JUMPDEST CODESIZE PUSH2 0x12DA JUMP JUMPDEST PUSH1 0x40 MLOAD PUSH3 0x461BCD PUSH1 0xE5 SHL DUP2 MSTORE PUSH1 0x4 DUP2 ADD DUP6 SWAP1 MSTORE PUSH1 0x16 PUSH1 0x24 DUP3 ADD MSTORE PUSH22 0x4E6F2062616C616E636520746F207769746864726177 PUSH1 0x50 SHL PUSH1 0x44 DUP3 ADD MSTORE PUSH1 0x64 SWAP1 REVERT JUMPDEST SWAP1 SWAP3 POP DUP4 DUP2 DUP2 RETURNDATASIZE DUP4 GT PUSH2 0x139F JUMPI JUMPDEST PUSH2 0x138F DUP2 DUP4 PUSH2 0x522F JUMP JUMPDEST DUP2 ADD SUB SLT PUSH2 0x884 JUMPI MLOAD SWAP2 CODESIZE PUSH2 0x1299 JUMP JUMPDEST POP RETURNDATASIZE PUSH2 0x1385 JUMP JUMPDEST POP CALLVALUE PUSH2 0x572 JUMPI PUSH1 0x20 CALLDATASIZE PUSH1 0x3 NOT ADD SLT PUSH2 0x572 JUMPI PUSH1 0x40 PUSH1 0x20 SWAP2 PUSH1 0x4 CALLDATALOAD DUP2 MSTORE PUSH1 0xE DUP4 MSTORE KECCAK256 SLOAD PUSH1 0x40 MLOAD SWAP1 DUP2 MSTORE RETURN JUMPDEST POP CALLVALUE PUSH2 0x572 JUMPI DUP1 PUSH1 0x3 NOT CALLDATASIZE ADD SLT PUSH2 0x572 JUMPI PUSH2 0x13E9 PUSH2 0x6332 JUMP JUMPDEST PUSH2 0x13F1 PUSH2 0x62B4 JUMP JUMPDEST CALLER DUP2 MSTORE PUSH1 0x20 PUSH1 0x22 DUP2 MSTORE PUSH2 0x140B PUSH1 0xFF PUSH1 0x40 DUP5 KECCAK256 SLOAD AND ISZERO PUSH2 0x564D JUMP JUMPDEST CALLER DUP3 MSTORE PUSH1 0x1E SWAP1 DUP2 DUP2 MSTORE PUSH2 0x1428 PUSH1 0xFF PUSH1 0x6 PUSH1 0x40 DUP7 KECCAK256 ADD SLOAD AND ISZERO PUSH2 0x564D JUMP JUMPDEST CALLER DUP4 MSTORE DUP2 DUP2 MSTORE PUSH1 0xC PUSH1 0x40 DUP5 KECCAK256 ADD SLOAD PUSH3 0x15180 SWAP1 DUP2 DUP2 ADD DUP1 SWAP2 GT PUSH2 0x1571 JUMPI PUSH2 0x1451 SWAP1 TIMESTAMP LT ISZERO PUSH2 0x5691 JUMP JUMPDEST CALLER DUP5 MSTORE DUP3 DUP3 MSTORE PUSH2 0x146A PUSH1 0x64 PUSH1 0xE PUSH1 0x40 DUP8 KECCAK256 ADD SLOAD LT PUSH2 0x56DC JUMP JUMPDEST CALLER DUP5 MSTORE DUP3 DUP3 MSTORE PUSH1 0x7 PUSH1 0x40 DUP6 KECCAK256 ADD SLOAD SWAP1 DUP2 ADD DUP1 SWAP2 GT PUSH2 0x91B JUMPI TIMESTAMP LT PUSH2 0x15D9 JUMPI PUSH7 0x38D7EA4C68000 CALLER BALANCE DUP2 DUP2 LT PUSH2 0x1585 JUMPI DIV SWAP2 DUP3 ISZERO DUP4 DUP1 DIV PUSH1 0x1 EQ DUP2 OR ISZERO PUSH2 0x1571 JUMPI PUSH2 0x1536 JUMPI SWAP1 PUSH1 0x40 SWAP2 PUSH2 0x14BC DUP5 CALLER PUSH2 0x6355 JUMP JUMPDEST CALLER DUP6 MSTORE DUP1 DUP3 MSTORE PUSH2 0x14CF DUP5 DUP5 DUP8 KECCAK256 SLOAD PUSH2 0x562A JUMP JUMPDEST SWAP1 CALLER DUP7 MSTORE DUP3 MSTORE DUP3 DUP6 KECCAK256 SWAP1 DUP2 SSTORE TIMESTAMP PUSH1 0x7 DUP3 ADD SSTORE PUSH1 0xC TIMESTAMP SWAP2 ADD SSTORE DUP2 MLOAD SWAP3 DUP4 MSTORE DUP3 ADD MSTORE PUSH1 0x1C PUSH1 0x40 DUP3 ADD MSTORE PUSH28 0x10985CD94814D95C1BDB1A58481A1BDB191A5B99DCC81C995DD85C99 PUSH1 0x22 SHL PUSH1 0x60 DUP3 ADD MSTORE PUSH1 0x0 DUP1 MLOAD PUSH1 0x20 PUSH2 0x6FDD DUP4 CODECOPY DUP2 MLOAD SWAP2 MSTORE PUSH1 0x80 CALLER SWAP3 LOG2 PUSH1 0x1 DUP2 SSTORE DUP1 RETURN JUMPDEST PUSH1 0x40 MLOAD PUSH3 0x461BCD PUSH1 0xE5 SHL DUP2 MSTORE PUSH1 0x4 DUP2 ADD DUP4 SWAP1 MSTORE PUSH1 0x13 PUSH1 0x24 DUP3 ADD MSTORE PUSH19 0x4E6F2072657761726420617661696C61626C65 PUSH1 0x68 SHL PUSH1 0x44 DUP3 ADD MSTORE PUSH1 0x64 SWAP1 REVERT JUMPDEST PUSH4 0x4E487B71 PUSH1 0xE0 SHL DUP6 MSTORE PUSH1 0x11 PUSH1 0x4 MSTORE PUSH1 0x24 DUP6 REVERT JUMPDEST PUSH1 0x40 MLOAD PUSH3 0x461BCD PUSH1 0xE5 SHL DUP2 MSTORE PUSH1 0x4 DUP2 ADD DUP5 SWAP1 MSTORE PUSH1 0x26 PUSH1 0x24 DUP3 ADD MSTORE PUSH32 0x496E73756666696369656E742042617365205365706F6C69612045544820686F PUSH1 0x44 DUP3 ADD MSTORE PUSH6 0x6C64696E6773 PUSH1 0xD0 SHL PUSH1 0x64 DUP3 ADD MSTORE PUSH1 0x84 SWAP1 REVERT JUMPDEST PUSH1 0x64 SWAP1 PUSH1 0x40 MLOAD SWAP1 PUSH3 0x461BCD PUSH1 0xE5 SHL DUP3 MSTORE PUSH1 0x4 DUP3 ADD MSTORE PUSH1 0x15 PUSH1 0x24 DUP3 ADD MSTORE PUSH21 0x416C726561647920636865636B656420746F646179 PUSH1 0x58 SHL PUSH1 0x44 DUP3 ADD MSTORE REVERT JUMPDEST POP CALLVALUE PUSH2 0x572 JUMPI PUSH1 0x20 CALLDATASIZE PUSH1 0x3 NOT ADD SLT PUSH2 0x572 JUMPI PUSH1 0x20 SWAP1 PUSH1 0xFF SWAP1 PUSH1 0x40 SWAP1 PUSH1 0x1 PUSH1 0x1 PUSH1 0xA0 SHL SUB PUSH2 0x1640 PUSH2 0x508B JUMP JUMPDEST AND DUP2 MSTORE PUSH1 0x22 DUP5 MSTORE KECCAK256 SLOAD AND PUSH1 0x40 MLOAD SWAP1 ISZERO ISZERO DUP2 MSTORE RETURN JUMPDEST POP CALLVALUE PUSH2 0x572 JUMPI PUSH1 0x40 CALLDATASIZE PUSH1 0x3 NOT ADD SLT PUSH2 0x572 JUMPI PUSH1 0x4 CALLDATALOAD PUSH2 0x1671 PUSH2 0x50A1 JUMP JUMPDEST DUP2 DUP4 MSTORE PUSH1 0x1D PUSH1 0x20 MSTORE PUSH1 0x40 DUP4 KECCAK256 SLOAD PUSH1 0x1 PUSH1 0x1 PUSH1 0xA0 SHL SUB SWAP2 SWAP1 DUP3 AND CALLER EQ DUP1 ISZERO PUSH2 0x16F1 JUMPI JUMPDEST PUSH2 0x169C SWAP1 PUSH2 0x5736 JUMP JUMPDEST AND PUSH2 0x16A8 DUP2 ISZERO ISZERO PUSH2 0x5792 JUMP JUMPDEST DUP2 DUP4 MSTORE PUSH1 0x1C PUSH1 0x20 MSTORE PUSH1 0x40 DUP4 KECCAK256 DUP2 PUSH1 0x0 MSTORE PUSH1 0x20 MSTORE PUSH1 0x40 PUSH1 0x0 KECCAK256 PUSH1 0xFF NOT DUP2 SLOAD AND SWAP1 SSTORE CALLER SWAP2 PUSH32 0xF6391F5C32D9C69D2A47EA670B442974B53935D1EDC7FD64EB21E047A839171B DUP5 DUP1 LOG4 DUP1 RETURN JUMPDEST POP PUSH1 0x1 SLOAD DUP3 AND CALLER EQ PUSH2 0x1693 JUMP JUMPDEST POP CALLVALUE PUSH2 0x572 JUMPI PUSH1 0x20 CALLDATASIZE PUSH1 0x3 NOT ADD SLT PUSH2 0x572 JUMPI PUSH1 0x40 PUSH1 0x20 SWAP2 PUSH1 0x4 CALLDATALOAD DUP2 MSTORE PUSH1 0x18 DUP4 MSTORE KECCAK256 SLOAD PUSH1 0x40 MLOAD SWAP1 DUP2 MSTORE RETURN JUMPDEST PUSH2 0x52F8 JUMP JUMPDEST POP CALLVALUE PUSH2 0x572 JUMPI PUSH1 0x20 CALLDATASIZE PUSH1 0x3 NOT ADD SLT PUSH2 0x572 JUMPI PUSH1 0x40 PUSH1 0x20 SWAP2 PUSH1 0x4 CALLDATALOAD DUP2 MSTORE PUSH1 0x10 DUP4 MSTORE KECCAK256 SLOAD PUSH1 0x40 MLOAD SWAP1 DUP2 MSTORE RETURN JUMPDEST POP CALLVALUE PUSH2 0x572 JUMPI PUSH1 0x20 CALLDATASIZE PUSH1 0x3 NOT ADD SLT PUSH2 0x572 JUMPI PUSH2 0x1790 PUSH1 0x40 MLOAD PUSH2 0x1778 DUP2 PUSH2 0x51C2 JUMP JUMPDEST PUSH1 0x0 DUP2 MSTORE PUSH1 0x40 MLOAD SWAP2 DUP3 SWAP2 PUSH1 0x20 DUP4 MSTORE PUSH1 0x20 DUP4 ADD SWAP1 PUSH2 0x54E1 JUMP JUMPDEST SUB SWAP1 RETURN JUMPDEST POP CALLVALUE PUSH2 0x572 JUMPI DUP1 PUSH1 0x3 NOT CALLDATASIZE ADD SLT PUSH2 0x572 JUMPI PUSH2 0x17AD PUSH2 0x62B4 JUMP JUMPDEST PUSH1 0x12 SLOAD PUSH2 0xE10 DUP2 ADD DUP1 SWAP2 GT PUSH2 0x1955 JUMPI TIMESTAMP LT PUSH2 0x1969 JUMPI PUSH1 0x0 NOT NUMBER ADD SWAP1 NUMBER DUP3 GT PUSH2 0x1914 JUMPI PUSH1 0x1 NOT NUMBER ADD SWAP2 NUMBER DUP4 GT PUSH2 0x1955 JUMPI PUSH1 0x13 SLOAD PUSH1 0x2 SLOAD PUSH1 0x40 MLOAD PUSH4 0xC142E495 PUSH1 0xE0 SHL DUP2 MSTORE SWAP2 SWAP5 PUSH1 0x20 SWAP3 SWAP1 SWAP2 DUP4 SWAP1 DUP3 SWAP1 PUSH1 0x4 SWAP1 DUP3 SWAP1 PUSH1 0x1 PUSH1 0x1 PUSH1 0xA0 SHL SUB AND GAS STATICCALL SWAP1 DUP2 ISZERO PUSH2 0x910 JUMPI DUP6 SWAP2 PUSH2 0x1928 JUMPI JUMPDEST POP PUSH1 0x40 MLOAD SWAP1 DUP4 DUP3 ADD SWAP3 TIMESTAMP DUP5 MSTORE PREVRANDAO PUSH1 0x40 DUP5 ADD MSTORE PUSH1 0x60 SWAP6 BLOCKHASH PUSH1 0x60 DUP5 ADD MSTORE BLOCKHASH PUSH1 0x80 DUP4 ADD MSTORE CALLER PUSH1 0x60 SHL PUSH1 0xA0 DUP4 ADD MSTORE DUP7 PUSH1 0xB4 DUP4 ADD MSTORE PUSH1 0xD4 DUP3 ADD MSTORE PUSH1 0xD4 DUP2 MSTORE PUSH2 0x185A DUP2 PUSH2 0x5178 JUMP JUMPDEST MLOAD SWAP1 KECCAK256 SWAP2 DUP4 SWAP3 JUMPDEST DUP6 DUP6 MSTORE PUSH1 0x11 DUP4 MSTORE PUSH1 0x40 DUP6 KECCAK256 DUP1 SLOAD DUP6 LT ISZERO PUSH2 0x18BB JUMPI SWAP1 PUSH2 0x1882 DUP6 PUSH1 0x1 SWAP4 PUSH2 0x50E1 JUMP JUMPDEST SWAP1 SLOAD SWAP1 PUSH1 0x40 MLOAD SWAP2 DUP7 DUP4 ADD SWAP4 DUP5 MSTORE DUP5 DUP1 PUSH1 0x60 SHL SUB NOT SWAP2 PUSH1 0x3 SHL SHR DUP6 SHL AND PUSH1 0x40 DUP3 ADD MSTORE PUSH1 0x34 DUP2 MSTORE PUSH2 0x18B0 DUP2 PUSH2 0x51DD JUMP JUMPDEST MLOAD SWAP1 KECCAK256 SWAP4 ADD SWAP3 PUSH2 0x1861 JUMP JUMPDEST DUP4 DUP3 DUP8 DUP10 DUP2 MSTORE PUSH1 0xF DUP4 MSTORE DUP2 PUSH1 0x40 DUP3 KECCAK256 SSTORE TIMESTAMP PUSH1 0x12 SSTORE PUSH1 0x13 SLOAD SWAP1 PUSH1 0x1 DUP3 ADD SWAP1 DUP2 DUP4 GT PUSH2 0x1914 JUMPI POP PUSH1 0x13 SSTORE PUSH32 0x716AEB9158D0411549D0EA0300D76E79332E89EC7EB7B7C475EFA863E7B9D00F DUP4 PUSH1 0x40 MLOAD DUP5 DUP2 MSTORE LOG2 PUSH1 0x40 MLOAD SWAP1 DUP2 MSTORE RETURN JUMPDEST PUSH4 0x4E487B71 PUSH1 0xE0 SHL DUP2 MSTORE PUSH1 0x11 PUSH1 0x4 MSTORE PUSH1 0x24 SWAP1 REVERT JUMPDEST SWAP1 POP DUP3 DUP2 DUP2 RETURNDATASIZE DUP4 GT PUSH2 0x194E JUMPI JUMPDEST PUSH2 0x193F DUP2 DUP4 PUSH2 0x522F JUMP JUMPDEST DUP2 ADD SUB SLT PUSH2 0x884 JUMPI MLOAD CODESIZE PUSH2 0x1818 JUMP JUMPDEST POP RETURNDATASIZE PUSH2 0x1935 JUMP JUMPDEST PUSH4 0x4E487B71 PUSH1 0xE0 SHL DUP3 MSTORE PUSH1 0x11 PUSH1 0x4 MSTORE PUSH1 0x24 DUP3 REVERT JUMPDEST PUSH1 0x40 MLOAD PUSH3 0x461BCD PUSH1 0xE5 SHL DUP2 MSTORE PUSH1 0x20 PUSH1 0x4 DUP3 ADD MSTORE PUSH1 0x1B PUSH1 0x24 DUP3 ADD MSTORE PUSH27 0x115B9D1C9BDC1E481D5C19185D19481D1BDBC8199C995C5D595B9D PUSH1 0x2A SHL PUSH1 0x44 DUP3 ADD MSTORE PUSH1 0x64 SWAP1 REVERT JUMPDEST POP CALLVALUE PUSH2 0x572 JUMPI DUP1 PUSH1 0x3 NOT CALLDATASIZE ADD SLT PUSH2 0x572 JUMPI PUSH1 0x9 SLOAD SWAP1 PUSH3 0x93A80 DUP3 ADD DUP1 SWAP3 GT PUSH2 0x1914 JUMPI PUSH1 0x20 DUP3 PUSH1 0x40 MLOAD SWAP1 TIMESTAMP LT ISZERO DUP2 MSTORE RETURN JUMPDEST PUSH2 0x533A JUMP JUMPDEST POP CALLVALUE PUSH2 0x572 JUMPI DUP1 PUSH1 0x3 NOT CALLDATASIZE ADD SLT PUSH2 0x572 JUMPI PUSH1 0x20 PUSH1 0x9 SLOAD PUSH1 0x40 MLOAD SWAP1 DUP2 MSTORE RETURN JUMPDEST POP CALLVALUE PUSH2 0x572 JUMPI PUSH1 0x20 CALLDATASIZE PUSH1 0x3 NOT ADD SLT PUSH2 0x572 JUMPI PUSH1 0xFF PUSH1 0x40 PUSH1 0x20 SWAP3 PUSH1 0x4 CALLDATALOAD DUP2 MSTORE PUSH1 0x28 DUP5 MSTORE KECCAK256 SLOAD AND PUSH1 0x40 MLOAD SWAP1 ISZERO ISZERO DUP2 MSTORE RETURN JUMPDEST POP CALLVALUE PUSH2 0x572 JUMPI DUP1 PUSH1 0x3 NOT CALLDATASIZE ADD SLT PUSH2 0x572 JUMPI PUSH1 0x20 PUSH1 0xA SLOAD PUSH1 0x40 MLOAD SWAP1 DUP2 MSTORE RETURN JUMPDEST POP CALLVALUE PUSH2 0x572 JUMPI PUSH1 0x20 DUP1 PUSH1 0x3 NOT CALLDATASIZE ADD SLT PUSH2 0x1AEE JUMPI PUSH1 0x4 CALLDATALOAD SWAP2 DUP3 DUP2 MSTORE PUSH1 0xC DUP3 MSTORE PUSH1 0x40 DUP2 KECCAK256 SLOAD SWAP1 PUSH2 0x1A79 DUP3 PUSH2 0x5314 JUMP JUMPDEST SWAP4 PUSH2 0x1A87 PUSH1 0x40 MLOAD SWAP6 DUP7 PUSH2 0x522F JUMP JUMPDEST DUP3 DUP6 MSTORE PUSH1 0x1F NOT PUSH2 0x1A96 DUP5 PUSH2 0x5314 JUMP JUMPDEST ADD CALLDATASIZE DUP6 DUP8 ADD CALLDATACOPY DUP2 JUMPDEST DUP4 DUP2 LT PUSH2 0x1AB8 JUMPI PUSH1 0x40 MLOAD DUP6 DUP2 MSTORE DUP1 PUSH2 0x1790 DUP2 DUP9 ADD DUP10 PUSH2 0x54E1 JUMP JUMPDEST PUSH1 0x1 SWAP1 DUP3 DUP5 MSTORE PUSH1 0xB DUP7 MSTORE PUSH2 0x1ACF DUP2 PUSH1 0x40 DUP7 KECCAK256 PUSH2 0x50E1 JUMP JUMPDEST DUP4 DUP1 PUSH1 0xA0 SHL SUB SWAP2 SLOAD SWAP1 PUSH1 0x3 SHL SHR AND PUSH2 0x1AE7 DUP3 DUP10 PUSH2 0x587A JUMP JUMPDEST MSTORE ADD PUSH2 0x1A9E JUMP JUMPDEST POP DUP1 REVERT JUMPDEST POP CALLVALUE PUSH2 0x572 JUMPI PUSH1 0x20 CALLDATASIZE PUSH1 0x3 NOT ADD SLT PUSH2 0x572 JUMPI PUSH1 0x20 SWAP1 PUSH1 0x3 PUSH1 0x40 PUSH2 0x1B13 PUSH2 0x508B JUMP JUMPDEST SWAP3 PUSH2 0x1B23 PUSH3 0x15180 TIMESTAMP MOD TIMESTAMP PUSH2 0x5FA8 JUMP JUMPDEST PUSH1 0x1 PUSH1 0x1 PUSH1 0xA0 SHL SUB SWAP1 SWAP5 AND DUP2 MSTORE PUSH1 0x1E DUP6 MSTORE KECCAK256 ADD SLOAD PUSH1 0x40 MLOAD SWAP2 GT ISZERO DUP2 MSTORE RETURN JUMPDEST POP CALLVALUE PUSH2 0x572 JUMPI DUP1 PUSH1 0x3 NOT CALLDATASIZE ADD SLT PUSH2 0x572 JUMPI PUSH1 0x20 PUSH1 0x1B SLOAD PUSH1 0x40 MLOAD SWAP1 DUP2 MSTORE RETURN JUMPDEST POP CALLVALUE PUSH2 0x572 JUMPI DUP1 PUSH1 0x3 NOT CALLDATASIZE ADD SLT PUSH2 0x572 JUMPI PUSH2 0x1B78 PUSH2 0x6332 JUMP JUMPDEST PUSH2 0x1B80 PUSH2 0x62B4 JUMP JUMPDEST CALLER DUP2 MSTORE PUSH1 0x20 PUSH1 0x22 DUP2 MSTORE PUSH2 0x1B9A PUSH1 0xFF PUSH1 0x40 DUP5 KECCAK256 SLOAD AND ISZERO PUSH2 0x564D JUMP JUMPDEST CALLER DUP3 MSTORE PUSH1 0x1E DUP2 MSTORE PUSH2 0x1BB5 PUSH1 0xFF PUSH1 0x6 PUSH1 0x40 DUP6 KECCAK256 ADD SLOAD AND ISZERO PUSH2 0x564D JUMP JUMPDEST CALLER DUP3 MSTORE PUSH1 0x1E DUP2 MSTORE PUSH1 0x64 PUSH1 0xB PUSH1 0x40 DUP5 KECCAK256 ADD SLOAD LT ISZERO PUSH2 0x1E5F JUMPI PUSH2 0x1BD4 PUSH2 0x678C JUMP JUMPDEST SWAP1 DUP2 ISZERO PUSH2 0x1E0D JUMPI PUSH9 0x3635C9ADC5DEA00000 DUP3 GT PUSH2 0x1DCB JUMPI PUSH1 0x40 MLOAD PUSH4 0x70A08231 PUSH1 0xE0 SHL DUP2 MSTORE CALLER PUSH1 0x4 DUP3 ADD MSTORE PUSH32 0x0 PUSH1 0x1 PUSH1 0x1 PUSH1 0xA0 SHL SUB AND SWAP1 DUP3 DUP2 PUSH1 0x24 DUP2 DUP6 GAS STATICCALL DUP1 ISZERO PUSH2 0x910 JUMPI DUP5 SWAP1 DUP7 SWAP1 PUSH2 0x1D9A JUMPI JUMPDEST PUSH2 0x1C4C SWAP3 POP LT ISZERO PUSH2 0x5FB5 JUMP JUMPDEST PUSH1 0x40 MLOAD PUSH4 0x6EB1769F PUSH1 0xE1 SHL DUP2 MSTORE DUP3 DUP2 DUP1 PUSH2 0x1C6A ADDRESS CALLER PUSH1 0x4 DUP5 ADD PUSH2 0x5FFC JUMP JUMPDEST SUB DUP2 DUP6 GAS STATICCALL DUP1 ISZERO PUSH2 0x910 JUMPI DUP5 SWAP1 DUP7 SWAP1 PUSH2 0x1D69 JUMPI JUMPDEST PUSH2 0x1C8A SWAP3 POP LT ISZERO PUSH2 0x6016 JUMP JUMPDEST DUP2 PUSH1 0x40 MLOAD DUP1 SWAP3 PUSH4 0x23B872DD PUSH1 0xE0 SHL DUP3 MSTORE DUP2 DUP8 DUP2 PUSH2 0x1CAC DUP10 ADDRESS CALLER PUSH1 0x4 DUP6 ADD PUSH2 0x605F JUMP JUMPDEST SUB SWAP3 GAS CALL DUP1 ISZERO PUSH2 0x1D5E JUMPI PUSH2 0x1CC7 SWAP2 DUP6 SWAP2 PUSH2 0x1D41 JUMPI JUMPDEST POP PUSH2 0x6081 JUMP JUMPDEST CALLER DUP4 MSTORE PUSH1 0x1E DUP2 MSTORE PUSH1 0xB PUSH1 0x40 DUP5 KECCAK256 ADD SLOAD PUSH1 0x1 DUP2 ADD DUP1 SWAP2 GT PUSH2 0x91B JUMPI CALLER DUP5 MSTORE PUSH1 0x1E DUP3 MSTORE PUSH1 0xB PUSH1 0x40 DUP6 KECCAK256 ADD SSTORE PUSH1 0x7 SLOAD DUP3 PUSH1 0x1 SHL SWAP1 DUP4 DUP3 DIV PUSH1 0x2 SUB PUSH2 0x1571 JUMPI PUSH32 0x6A85014765CE1728A69F3D14127CC749D140BA142C380EF69CA533189DBFA360 SWAP3 SWAP2 PUSH2 0x1D2E SWAP2 PUSH2 0x562A JUMP JUMPDEST PUSH1 0x7 SSTORE PUSH1 0x40 MLOAD SWAP3 DUP4 MSTORE CALLER SWAP3 LOG2 PUSH1 0x1 DUP2 SSTORE DUP1 RETURN JUMPDEST PUSH2 0x1D58 SWAP2 POP DUP4 RETURNDATASIZE DUP6 GT PUSH2 0xB2A JUMPI PUSH2 0xB1C DUP2 DUP4 PUSH2 0x522F JUMP JUMPDEST CODESIZE PUSH2 0x1CC1 JUMP JUMPDEST PUSH1 0x40 MLOAD RETURNDATASIZE DUP7 DUP3 RETURNDATACOPY RETURNDATASIZE SWAP1 REVERT JUMPDEST POP POP DUP3 DUP2 DUP2 RETURNDATASIZE DUP4 GT PUSH2 0x1D93 JUMPI JUMPDEST PUSH2 0x1D80 DUP2 DUP4 PUSH2 0x522F JUMP JUMPDEST DUP2 ADD SUB SLT PUSH2 0x884 JUMPI DUP4 PUSH2 0x1C8A SWAP2 MLOAD PUSH2 0x1C7E JUMP JUMPDEST POP RETURNDATASIZE PUSH2 0x1D76 JUMP JUMPDEST POP POP DUP3 DUP2 DUP2 RETURNDATASIZE DUP4 GT PUSH2 0x1DC4 JUMPI JUMPDEST PUSH2 0x1DB1 DUP2 DUP4 PUSH2 0x522F JUMP JUMPDEST DUP2 ADD SUB SLT PUSH2 0x884 JUMPI DUP4 PUSH2 0x1C4C SWAP2 MLOAD PUSH2 0x1C40 JUMP JUMPDEST POP RETURNDATASIZE PUSH2 0x1DA7 JUMP JUMPDEST PUSH1 0x64 SWAP1 PUSH1 0x40 MLOAD SWAP1 PUSH3 0x461BCD PUSH1 0xE5 SHL DUP3 MSTORE PUSH1 0x4 DUP3 ADD MSTORE PUSH1 0x1B PUSH1 0x24 DUP3 ADD MSTORE PUSH27 0x94C2C6D6E0DEE840CADCE8E4F240C6DEE6E840E8DEDE40D0D2CED PUSH1 0x2B SHL PUSH1 0x44 DUP3 ADD MSTORE REVERT JUMPDEST PUSH1 0x84 SWAP1 PUSH1 0x40 MLOAD SWAP1 PUSH3 0x461BCD PUSH1 0xE5 SHL DUP3 MSTORE PUSH1 0x4 DUP3 ADD MSTORE PUSH1 0x25 PUSH1 0x24 DUP3 ADD MSTORE PUSH32 0x496E76616C6964206A61636B706F7420656E74727920636F73742063616C6375 PUSH1 0x44 DUP3 ADD MSTORE PUSH5 0x1B185D1959 PUSH1 0xDA SHL PUSH1 0x64 DUP3 ADD MSTORE REVERT JUMPDEST PUSH1 0x64 SWAP1 PUSH1 0x40 MLOAD SWAP1 PUSH3 0x461BCD PUSH1 0xE5 SHL DUP3 MSTORE PUSH1 0x4 DUP3 ADD MSTORE PUSH1 0x1B PUSH1 0x24 DUP3 ADD MSTORE PUSH27 0x13585E081A9858DADC1BDD08195B9D1C9A595CC81C995858DA1959 PUSH1 0x2A SHL PUSH1 0x44 DUP3 ADD MSTORE REVERT JUMPDEST POP CALLVALUE PUSH2 0x572 JUMPI DUP1 PUSH1 0x3 NOT CALLDATASIZE ADD SLT PUSH2 0x572 JUMPI PUSH1 0x29 SLOAD PUSH2 0x1790 PUSH1 0x40 PUSH1 0x2A SLOAD SWAP4 NUMBER DUP2 MSTORE PUSH1 0x27 PUSH1 0x20 MSTORE KECCAK256 SLOAD PUSH1 0x40 MLOAD SWAP4 DUP5 SWAP4 DUP5 PUSH2 0x55BD JUMP JUMPDEST POP CALLVALUE PUSH2 0x572 JUMPI PUSH1 0x40 CALLDATASIZE PUSH1 0x3 NOT ADD SLT PUSH2 0x572 JUMPI PUSH1 0x4 CALLDATALOAD PUSH2 0x1EF1 PUSH2 0x50A1 JUMP JUMPDEST SWAP1 PUSH2 0x1EFA PUSH2 0x6288 JUMP JUMPDEST DUP1 DUP4 MSTORE PUSH1 0x1D PUSH1 0x20 MSTORE PUSH1 0x40 DUP4 KECCAK256 DUP1 SLOAD PUSH1 0x1 PUSH1 0x1 PUSH1 0xA0 SHL SUB NOT AND PUSH1 0x1 PUSH1 0x1 PUSH1 0xA0 SHL SUB SWAP1 SWAP4 AND SWAP3 DUP4 OR SWAP1 SSTORE PUSH32 0xCA1453E2085A936EA52E0049E559E235E08FE8678E165A7EB63F4568098706AD DUP4 DUP1 LOG3 DUP1 RETURN JUMPDEST PUSH2 0x55A0 JUMP JUMPDEST POP CALLVALUE PUSH2 0x572 JUMPI PUSH1 0x20 CALLDATASIZE PUSH1 0x3 NOT ADD SLT PUSH2 0x572 JUMPI PUSH1 0x40 PUSH1 0x20 SWAP2 PUSH1 0x4 CALLDATALOAD DUP2 MSTORE PUSH1 0xF DUP4 MSTORE KECCAK256 SLOAD PUSH1 0x40 MLOAD SWAP1 DUP2 MSTORE RETURN JUMPDEST POP CALLVALUE PUSH2 0x572 JUMPI PUSH1 0x20 SWAP1 DUP2 PUSH1 0x3 NOT CALLDATASIZE ADD SLT PUSH2 0x572 JUMPI PUSH2 0x1F94 PUSH2 0x60C3 JUMP JUMPDEST POP PUSH1 0x4 CALLDATALOAD DUP2 MSTORE PUSH1 0x21 DUP3 MSTORE PUSH1 0x40 DUP2 KECCAK256 SWAP2 PUSH1 0x40 MLOAD SWAP2 PUSH2 0x1FB0 DUP4 PUSH2 0x5178 JUMP JUMPDEST DUP4 SLOAD DUP4 MSTORE PUSH1 0x1 SWAP1 PUSH1 0x1 DUP6 ADD SLOAD DUP4 DUP6 ADD MSTORE PUSH1 0x2 DUP6 ADD SLOAD PUSH1 0x40 DUP6 ADD MSTORE PUSH1 0x3 DUP6 ADD SLOAD PUSH1 0x60 DUP6 ADD MSTORE PUSH1 0x4 DUP6 ADD SLOAD PUSH1 0x80 DUP6 ADD MSTORE PUSH1 0x5 DUP6 ADD SWAP2 PUSH1 0x40 MLOAD DUP1 SWAP5 DUP1 DUP6 SLOAD SWAP3 DUP4 DUP2 MSTORE ADD SWAP5 DUP5 MSTORE DUP1 DUP5 KECCAK256 SWAP4 SWAP1 JUMPDEST DUP3 DUP3 LT PUSH2 0x203B JUMPI PUSH2 0x1790 DUP9 PUSH1 0x7 DUP12 DUP11 PUSH2 0x2014 DUP2 DUP13 SUB DUP3 PUSH2 0x522F JUMP JUMPDEST PUSH1 0xA0 DUP5 ADD MSTORE PUSH1 0xFF PUSH1 0x6 DUP3 ADD SLOAD AND ISZERO ISZERO PUSH1 0xC0 DUP5 ADD MSTORE ADD SLOAD PUSH1 0xE0 DUP3 ADD MSTORE PUSH1 0x40 MLOAD SWAP2 DUP3 SWAP2 DUP3 PUSH2 0x551E JUMP JUMPDEST DUP5 SLOAD PUSH1 0x1 PUSH1 0x1 PUSH1 0xA0 SHL SUB AND DUP7 MSTORE SWAP5 DUP6 ADD SWAP5 SWAP4 DUP4 ADD SWAP4 SWAP1 DUP4 ADD SWAP1 PUSH2 0x1FF9 JUMP JUMPDEST POP CALLVALUE PUSH2 0x572 JUMPI DUP1 PUSH1 0x3 NOT CALLDATASIZE ADD SLT PUSH2 0x572 JUMPI PUSH1 0x20 PUSH1 0x5 SLOAD PUSH1 0x40 MLOAD SWAP1 DUP2 MSTORE RETURN JUMPDEST POP CALLVALUE PUSH2 0x572 JUMPI DUP1 PUSH2 0x2087 CALLDATASIZE PUSH2 0x548F JUMP JUMPDEST SWAP3 SWAP2 PUSH2 0x2091 PUSH2 0x62B4 JUMP JUMPDEST PUSH1 0x2 SLOAD PUSH1 0x1 PUSH1 0x1 PUSH1 0xA0 SHL SUB AND SWAP1 DUP2 EXTCODESIZE ISZERO PUSH2 0x20E3 JUMPI DUP4 PUSH1 0x64 SWAP3 PUSH1 0x40 MLOAD SWAP7 DUP8 SWAP6 DUP7 SWAP5 PUSH4 0xA154FC6B PUSH1 0xE0 SHL DUP7 MSTORE PUSH1 0x4 DUP7 ADD MSTORE PUSH1 0x24 DUP6 ADD MSTORE PUSH1 0x44 DUP5 ADD MSTORE GAS CALL DUP1 ISZERO PUSH2 0xE37 JUMPI PUSH2 0x20DA JUMPI POP DUP1 RETURN JUMPDEST PUSH2 0xBAA SWAP1 PUSH2 0x5194 JUMP JUMPDEST DUP4 DUP1 REVERT JUMPDEST POP CALLVALUE PUSH2 0x572 JUMPI DUP1 PUSH1 0x3 NOT CALLDATASIZE ADD SLT PUSH2 0x572 JUMPI PUSH1 0x20 PUSH1 0x40 MLOAD PUSH2 0x3E8 DUP2 MSTORE RETURN JUMPDEST POP CALLVALUE PUSH2 0x572 JUMPI PUSH2 0x2113 CALLDATASIZE PUSH2 0x543F JUMP JUMPDEST SWAP3 SWAP2 PUSH1 0x1 DUP1 PUSH1 0xA0 SHL SUB PUSH2 0x212B DUP2 PUSH1 0x3 SLOAD AND CALLER EQ PUSH2 0x5E9B JUMP JUMPDEST PUSH2 0x2136 DUP6 ISZERO ISZERO PUSH2 0x5EE7 JUMP JUMPDEST PUSH2 0x2142 DUP6 PUSH1 0x6 SLOAD PUSH2 0x58BF JUMP JUMPDEST SWAP1 DUP5 JUMPDEST DUP7 DUP2 LT PUSH2 0x2173 JUMPI POP POP POP PUSH2 0xB9F PUSH1 0x0 DUP1 MLOAD PUSH1 0x20 PUSH2 0x6FBD DUP4 CODECOPY DUP2 MLOAD SWAP2 MSTORE SWAP4 SWAP5 PUSH1 0x6 SLOAD SWAP1 PUSH1 0x40 MLOAD SWAP5 DUP6 SWAP5 DUP6 PUSH2 0x5F4D JUMP JUMPDEST DUP2 PUSH2 0x2187 PUSH2 0x2182 DUP4 DUP11 DUP10 PUSH2 0x5F29 JUMP JUMPDEST PUSH2 0x5F39 JUMP JUMPDEST AND PUSH2 0x2195 JUMPI JUMPDEST PUSH1 0x1 ADD PUSH2 0x2145 JUMP JUMPDEST DUP3 PUSH2 0x21A4 PUSH2 0x2182 DUP4 DUP11 DUP10 PUSH2 0x5F29 JUMP JUMPDEST PUSH1 0x40 MLOAD SWAP1 PUSH4 0xA9059CBB PUSH1 0xE0 SHL DUP3 MSTORE DUP2 DUP1 PUSH2 0x21C5 PUSH1 0x20 SWAP6 DUP7 SWAP5 PUSH1 0x4 DUP5 ADD PUSH2 0x58F7 JUMP JUMPDEST SUB DUP2 DUP12 DUP9 PUSH32 0x0 AND GAS CALL SWAP1 DUP2 ISZERO PUSH2 0x2292 JUMPI PUSH1 0x1E SWAP3 SWAP2 PUSH2 0x2208 SWAP2 DUP11 SWAP2 PUSH2 0x227B JUMPI POP PUSH2 0x620C JUMP JUMPDEST DUP4 PUSH2 0x2217 PUSH2 0x2182 DUP6 DUP13 DUP12 PUSH2 0x5F29 JUMP JUMPDEST AND DUP9 MSTORE MSTORE PUSH1 0x40 DUP7 KECCAK256 DUP1 SLOAD SWAP1 PUSH1 0xA DUP3 ADD DUP1 SWAP3 GT PUSH2 0x2267 JUMPI SSTORE PUSH1 0x1 SWAP1 DUP3 PUSH2 0x2240 PUSH2 0x2182 DUP4 DUP12 DUP11 PUSH2 0x5F29 JUMP JUMPDEST AND PUSH1 0x0 DUP1 MLOAD PUSH1 0x20 PUSH2 0x6FDD DUP4 CODECOPY DUP2 MLOAD SWAP2 MSTORE PUSH1 0x40 MLOAD DUP1 PUSH2 0x225D DUP2 PUSH2 0x624A JUMP JUMPDEST SUB SWAP1 LOG2 SWAP1 POP PUSH2 0x218D JUMP JUMPDEST PUSH4 0x4E487B71 PUSH1 0xE0 SHL DUP9 MSTORE PUSH1 0x11 PUSH1 0x4 MSTORE PUSH1 0x24 DUP9 REVERT JUMPDEST PUSH2 0xB24 SWAP2 POP DUP4 RETURNDATASIZE DUP6 GT PUSH2 0xB2A JUMPI PUSH2 0xB1C DUP2 DUP4 PUSH2 0x522F JUMP JUMPDEST PUSH1 0x40 MLOAD RETURNDATASIZE DUP11 DUP3 RETURNDATACOPY RETURNDATASIZE SWAP1 REVERT JUMPDEST POP CALLVALUE PUSH2 0x572 JUMPI PUSH1 0x20 CALLDATASIZE PUSH1 0x3 NOT ADD SLT PUSH2 0x572 JUMPI PUSH1 0x80 SWAP1 PUSH1 0x1 PUSH1 0x1 PUSH1 0xA0 SHL SUB SWAP1 PUSH1 0x40 SWAP1 DUP3 PUSH2 0x22C7 PUSH2 0x508B JUMP JUMPDEST AND DUP2 MSTORE PUSH1 0x20 DUP1 MSTORE KECCAK256 SWAP1 DUP2 SLOAD AND SWAP1 PUSH1 0x1 DUP2 ADD SLOAD SWAP1 PUSH1 0xFF PUSH1 0x3 PUSH1 0x2 DUP4 ADD SLOAD SWAP3 ADD SLOAD AND SWAP2 PUSH1 0x40 MLOAD SWAP4 DUP5 MSTORE PUSH1 0x20 DUP5 ADD MSTORE PUSH1 0x40 DUP4 ADD MSTORE ISZERO ISZERO PUSH1 0x60 DUP3 ADD MSTORE RETURN JUMPDEST PUSH2 0x5584 JUMP JUMPDEST POP CALLVALUE PUSH2 0x572 JUMPI DUP1 PUSH1 0x3 NOT CALLDATASIZE ADD SLT PUSH2 0x572 JUMPI PUSH1 0x0 DUP1 MLOAD PUSH1 0x20 PUSH2 0x6F7D DUP4 CODECOPY DUP2 MLOAD SWAP2 MSTORE DUP2 MSTORE PUSH1 0x20 PUSH1 0x1C DUP2 MSTORE PUSH1 0x40 DUP3 KECCAK256 CALLER DUP4 MSTORE DUP2 MSTORE PUSH1 0xFF PUSH1 0x40 DUP4 KECCAK256 SLOAD AND DUP1 ISZERO PUSH2 0x252F JUMPI JUMPDEST PUSH2 0x234F SWAP1 PUSH2 0x57D0 JUMP JUMPDEST PUSH2 0x2357 PUSH2 0x62B4 JUMP JUMPDEST PUSH2 0x2365 PUSH1 0xFF PUSH1 0x16 SLOAD AND PUSH2 0x6102 JUMP JUMPDEST PUSH1 0x3 SLOAD PUSH1 0x1 PUSH1 0x1 PUSH1 0xA0 SHL SUB AND PUSH2 0x237C DUP2 ISZERO ISZERO PUSH2 0x6140 JUMP JUMPDEST PUSH1 0x8 SLOAD PUSH3 0x15180 DUP2 ADD DUP1 SWAP2 GT PUSH2 0x91B JUMPI TIMESTAMP LT PUSH2 0x24F3 JUMPI PUSH1 0x5 SLOAD PUSH1 0x40 MLOAD PUSH4 0xBACF46F3 PUSH1 0xE0 SHL DUP2 MSTORE PUSH1 0x4 DUP2 ADD DUP3 SWAP1 MSTORE SWAP2 SWAP1 DUP5 DUP4 PUSH1 0x24 DUP2 ADDRESS GAS STATICCALL SWAP3 DUP4 ISZERO PUSH2 0x910 JUMPI DUP6 SWAP4 PUSH2 0x24D7 JUMPI JUMPDEST POP DUP3 MLOAD ISZERO PUSH2 0x2487 JUMPI SWAP2 DUP4 SWAP2 PUSH2 0x23FA SWAP4 DUP7 PUSH1 0x40 MLOAD DUP1 SWAP7 DUP2 SWAP6 DUP3 SWAP5 PUSH4 0xCFF47CB1 PUSH1 0xE0 SHL DUP5 MSTORE PUSH1 0x4 DUP5 ADD MSTORE PUSH1 0x40 PUSH1 0x24 DUP5 ADD MSTORE PUSH1 0x44 DUP4 ADD SWAP1 PUSH2 0x54E1 JUMP JUMPDEST SUB SWAP3 GAS CALL SWAP1 DUP2 ISZERO PUSH2 0x890 JUMPI DUP4 SWAP2 PUSH2 0x2456 JUMPI JUMPDEST POP DUP1 DUP4 MSTORE PUSH1 0x14 DUP3 MSTORE PUSH1 0x40 DUP4 KECCAK256 PUSH1 0x1 PUSH1 0xFF NOT DUP3 SLOAD AND OR SWAP1 SSTORE PUSH1 0x0 DUP1 MLOAD PUSH1 0x20 PUSH2 0x703D DUP4 CODECOPY DUP2 MLOAD SWAP2 MSTORE PUSH1 0x60 PUSH1 0x5 SLOAD SWAP4 PUSH1 0x5 PUSH1 0x40 MLOAD SWAP2 DUP1 DUP4 MSTORE DUP3 ADD MSTORE PUSH5 0x6461696C79 PUSH1 0xD8 SHL PUSH1 0x40 DUP3 ADD MSTORE LOG3 DUP1 RETURN JUMPDEST SWAP1 POP DUP2 DUP2 DUP2 RETURNDATASIZE DUP4 GT PUSH2 0x2480 JUMPI JUMPDEST PUSH2 0x246D DUP2 DUP4 PUSH2 0x522F JUMP JUMPDEST DUP2 ADD SUB SLT PUSH2 0x247C JUMPI MLOAD CODESIZE PUSH2 0x240C JUMP JUMPDEST DUP3 DUP1 REVERT JUMPDEST POP RETURNDATASIZE PUSH2 0x2463 JUMP JUMPDEST PUSH1 0x40 MLOAD PUSH3 0x461BCD PUSH1 0xE5 SHL DUP2 MSTORE PUSH1 0x4 DUP2 ADD DUP6 SWAP1 MSTORE PUSH1 0x22 PUSH1 0x24 DUP3 ADD MSTORE PUSH32 0x4E6F20656C696769626C6520706C617965727320666F72206461696C79206472 PUSH1 0x44 DUP3 ADD MSTORE PUSH2 0x6177 PUSH1 0xF0 SHL PUSH1 0x64 DUP3 ADD MSTORE PUSH1 0x84 SWAP1 REVERT JUMPDEST PUSH2 0x24EC SWAP2 SWAP4 POP RETURNDATASIZE DUP1 DUP8 DUP4 RETURNDATACOPY PUSH2 0x901 DUP2 DUP4 PUSH2 0x522F JUMP JUMPDEST SWAP2 CODESIZE PUSH2 0x23C1 JUMP JUMPDEST PUSH1 0x40 MLOAD PUSH3 0x461BCD PUSH1 0xE5 SHL DUP2 MSTORE PUSH1 0x4 DUP2 ADD DUP4 SWAP1 MSTORE PUSH1 0x14 PUSH1 0x24 DUP3 ADD MSTORE PUSH20 0x4461696C792064726177206E6F74207265616479 PUSH1 0x60 SHL PUSH1 0x44 DUP3 ADD MSTORE PUSH1 0x64 SWAP1 REVERT JUMPDEST POP PUSH1 0x1 SLOAD PUSH1 0x1 PUSH1 0x1 PUSH1 0xA0 SHL SUB AND CALLER EQ PUSH2 0x2346 JUMP JUMPDEST POP CALLVALUE PUSH2 0x572 JUMPI DUP1 PUSH1 0x3 NOT CALLDATASIZE ADD SLT PUSH2 0x572 JUMPI PUSH1 0x20 PUSH1 0x40 MLOAD PUSH7 0x38D7EA4C68000 DUP2 MSTORE RETURN JUMPDEST POP CALLVALUE PUSH2 0x572 JUMPI DUP1 PUSH1 0x3 NOT CALLDATASIZE ADD SLT PUSH2 0x572 JUMPI PUSH2 0x257E PUSH2 0x60C3 JUMP JUMPDEST POP PUSH1 0x5 SLOAD DUP2 MSTORE PUSH1 0x20 SWAP1 PUSH1 0x21 PUSH1 0x20 MSTORE PUSH1 0x40 DUP2 KECCAK256 SWAP2 PUSH1 0x40 MLOAD SWAP2 PUSH2 0x259E DUP4 PUSH2 0x5178 JUMP JUMPDEST DUP4 SLOAD DUP4 MSTORE PUSH1 0x1 SWAP1 PUSH1 0x1 DUP6 ADD SLOAD PUSH1 0x20 DUP6 ADD MSTORE PUSH1 0x2 DUP6 ADD SLOAD PUSH1 0x40 DUP6 ADD MSTORE PUSH1 0x3 DUP6 ADD SLOAD PUSH1 0x60 DUP6 ADD MSTORE PUSH1 0x4 DUP6 ADD SLOAD PUSH1 0x80 DUP6 ADD MSTORE PUSH1 0x5 DUP6 ADD SWAP2 PUSH1 0x40 MLOAD DUP1 SWAP5 PUSH1 0x20 DUP6 SLOAD SWAP3 DUP4 DUP2 MSTORE ADD SWAP5 DUP5 MSTORE PUSH1 0x20 DUP5 KECCAK256 SWAP4 SWAP1 JUMPDEST DUP3 DUP3 LT PUSH2 0x2605 JUMPI PUSH2 0x1790 DUP9 PUSH1 0x7 DUP12 DUP11 PUSH2 0x2014 DUP2 DUP13 SUB DUP3 PUSH2 0x522F JUMP JUMPDEST DUP5 SLOAD PUSH1 0x1 PUSH1 0x1 PUSH1 0xA0 SHL SUB AND DUP7 MSTORE SWAP5 DUP6 ADD SWAP5 SWAP4 DUP4 ADD SWAP4 SWAP1 DUP4 ADD SWAP1 PUSH2 0x25EA JUMP JUMPDEST POP CALLVALUE PUSH2 0x572 JUMPI PUSH2 0x2632 CALLDATASIZE PUSH2 0x50CB JUMP JUMPDEST SWAP2 SWAP1 DUP2 MSTORE PUSH1 0xD PUSH1 0x20 MSTORE PUSH1 0x40 DUP2 KECCAK256 SWAP1 DUP2 SLOAD DUP4 LT ISZERO PUSH2 0x572 JUMPI PUSH1 0x20 PUSH2 0x62D DUP5 DUP5 PUSH2 0x50E1 JUMP JUMPDEST POP CALLVALUE PUSH2 0x572 JUMPI PUSH1 0x40 CALLDATASIZE PUSH1 0x3 NOT ADD SLT PUSH2 0x572 JUMPI PUSH1 0x20 SWAP1 PUSH2 0x2672 PUSH2 0x50A1 JUMP JUMPDEST PUSH1 0x4 CALLDATALOAD DUP3 MSTORE PUSH1 0x1C DUP4 MSTORE PUSH1 0x40 DUP1 DUP4 KECCAK256 PUSH1 0x1 PUSH1 0x1 PUSH1 0xA0 SHL SUB SWAP3 DUP4 AND DUP1 DUP6 MSTORE SWAP1 DUP6 MSTORE SWAP3 KECCAK256 SLOAD PUSH1 0xFF AND SWAP2 SWAP1 DUP3 ISZERO PUSH2 0x26AC JUMPI JUMPDEST POP POP PUSH1 0x40 MLOAD SWAP1 ISZERO ISZERO DUP2 MSTORE RETURN JUMPDEST PUSH1 0x1 SLOAD AND EQ SWAP1 POP CODESIZE DUP1 PUSH2 0x26A0 JUMP JUMPDEST POP CALLVALUE PUSH2 0x572 JUMPI DUP1 PUSH1 0x3 NOT CALLDATASIZE ADD SLT PUSH2 0x572 JUMPI PUSH1 0x1 SLOAD PUSH1 0x40 MLOAD PUSH1 0x1 PUSH1 0x1 PUSH1 0xA0 SHL SUB SWAP1 SWAP2 AND DUP2 MSTORE PUSH1 0x20 SWAP1 RETURN JUMPDEST POP CALLVALUE PUSH2 0x572 JUMPI PUSH1 0x20 CALLDATASIZE PUSH1 0x3 NOT ADD SLT PUSH2 0x572 JUMPI PUSH1 0x20 SWAP1 PUSH1 0x4 CALLDATALOAD DUP2 MSTORE PUSH1 0x1D DUP3 MSTORE PUSH1 0x40 PUSH1 0x1 DUP1 PUSH1 0xA0 SHL SUB SWAP2 KECCAK256 SLOAD AND PUSH1 0x40 MLOAD SWAP1 DUP2 MSTORE RETURN JUMPDEST POP CALLVALUE PUSH2 0x572 JUMPI PUSH1 0x20 CALLDATASIZE PUSH1 0x3 NOT ADD SLT PUSH2 0x572 JUMPI PUSH2 0x2730 PUSH2 0x508B JUMP JUMPDEST PUSH2 0x2738 PUSH2 0x6288 JUMP JUMPDEST PUSH1 0x3 DUP1 SLOAD PUSH1 0x1 PUSH1 0x1 PUSH1 0xA0 SHL SUB NOT AND PUSH1 0x1 PUSH1 0x1 PUSH1 0xA0 SHL SUB SWAP3 SWAP1 SWAP3 AND SWAP2 SWAP1 SWAP2 OR SWAP1 SSTORE DUP1 RETURN JUMPDEST PUSH2 0x54A9 JUMP JUMPDEST POP CALLVALUE PUSH2 0x572 JUMPI PUSH1 0x20 CALLDATASIZE PUSH1 0x3 NOT ADD SLT PUSH2 0x572 JUMPI PUSH1 0x40 PUSH1 0x20 SWAP2 PUSH1 0x4 CALLDATALOAD DUP2 MSTORE PUSH1 0x27 DUP4 MSTORE KECCAK256 SLOAD PUSH1 0x40 MLOAD SWAP1 DUP2 MSTORE RETURN JUMPDEST POP CALLVALUE PUSH2 0x572 JUMPI DUP1 PUSH1 0x3 NOT CALLDATASIZE ADD SLT PUSH2 0x572 JUMPI PUSH1 0x4 DUP1 SLOAD PUSH1 0x40 MLOAD PUSH4 0x8F09C857 PUSH1 0xE0 SHL DUP2 MSTORE SWAP2 PUSH1 0x20 SWAP2 DUP4 SWAP2 SWAP1 DUP3 SWAP1 PUSH1 0x1 PUSH1 0x1 PUSH1 0xA0 SHL SUB AND GAS STATICCALL SWAP1 DUP2 ISZERO PUSH2 0xE37 JUMPI DUP3 SWAP2 PUSH2 0x27D9 JUMPI JUMPDEST PUSH1 0x20 DUP3 PUSH1 0x40 MLOAD SWAP1 DUP2 MSTORE RETURN JUMPDEST SWAP1 POP PUSH1 0x20 DUP2 RETURNDATASIZE PUSH1 0x20 GT PUSH2 0x2807 JUMPI JUMPDEST DUP2 PUSH2 0x27F4 PUSH1 0x20 SWAP4 DUP4 PUSH2 0x522F JUMP JUMPDEST DUP2 ADD SUB SLT PUSH2 0x1AEE JUMPI PUSH1 0x20 SWAP2 POP MLOAD CODESIZE PUSH2 0x27CE JUMP JUMPDEST RETURNDATASIZE SWAP2 POP PUSH2 0x27E7 JUMP JUMPDEST POP CALLVALUE PUSH2 0x572 JUMPI PUSH1 0x20 CALLDATASIZE PUSH1 0x3 NOT ADD SLT PUSH2 0x572 JUMPI PUSH1 0x20 SWAP1 PUSH1 0x40 SWAP1 PUSH1 0x1 PUSH1 0x1 PUSH1 0xA0 SHL SUB PUSH2 0x2837 PUSH2 0x508B JUMP JUMPDEST AND DUP2 MSTORE PUSH1 0x26 DUP4 MSTORE KECCAK256 SLOAD PUSH1 0x40 MLOAD SWAP1 DUP2 MSTORE RETURN JUMPDEST POP CALLVALUE PUSH2 0x572 JUMPI DUP1 PUSH1 0x3 NOT CALLDATASIZE ADD SLT PUSH2 0x572 JUMPI PUSH1 0x20 PUSH1 0x40 MLOAD PUSH1 0x0 DUP1 MLOAD PUSH1 0x20 PUSH2 0x701D DUP4 CODECOPY DUP2 MLOAD SWAP2 MSTORE DUP2 MSTORE RETURN JUMPDEST POP CALLVALUE PUSH2 0x572 JUMPI DUP1 PUSH1 0x3 NOT CALLDATASIZE ADD SLT PUSH2 0x572 JUMPI PUSH1 0x20 PUSH1 0x8 SLOAD PUSH1 0x40 MLOAD SWAP1 DUP2 MSTORE RETURN JUMPDEST POP CALLVALUE PUSH2 0x572 JUMPI DUP1 PUSH1 0x3 NOT CALLDATASIZE ADD SLT PUSH2 0x572 JUMPI PUSH2 0x28A8 PUSH2 0x6332 JUMP JUMPDEST PUSH2 0x28B0 PUSH2 0x62B4 JUMP JUMPDEST CALLER DUP2 MSTORE PUSH1 0x20 PUSH1 0x22 DUP2 MSTORE PUSH2 0x28CA PUSH1 0xFF PUSH1 0x40 DUP5 KECCAK256 SLOAD AND ISZERO PUSH2 0x564D JUMP JUMPDEST CALLER DUP3 MSTORE PUSH1 0x1E DUP2 MSTORE PUSH2 0x28E5 PUSH1 0xFF PUSH1 0x6 PUSH1 0x40 DUP6 KECCAK256 ADD SLOAD AND ISZERO PUSH2 0x564D JUMP JUMPDEST PUSH1 0x40 MLOAD PUSH4 0x70A08231 PUSH1 0xE0 SHL DUP2 MSTORE CALLER PUSH1 0x4 DUP3 ADD MSTORE DUP2 DUP2 PUSH1 0x24 DUP2 PUSH32 0x0 PUSH1 0x1 PUSH1 0x1 PUSH1 0xA0 SHL SUB AND GAS STATICCALL SWAP1 DUP2 ISZERO PUSH2 0x890 JUMPI DUP4 SWAP2 PUSH2 0x2AAE JUMPI JUMPDEST POP DUP1 ISZERO PUSH2 0x2A78 JUMPI PUSH8 0xDE0B6B3A7640000 SWAP1 DIV SWAP1 PUSH1 0xA DUP3 MUL SWAP2 DUP1 DUP4 DIV PUSH1 0xA EQ SWAP1 ISZERO OR ISZERO PUSH2 0x2A64 JUMPI DUP2 ISZERO PUSH2 0x2A23 JUMPI PUSH2 0x2710 DUP3 GT PUSH2 0x29E5 JUMPI PUSH1 0x40 SWAP1 CALLER DUP5 MSTORE PUSH1 0x1E DUP2 MSTORE PUSH2 0x2986 DUP4 PUSH1 0x8 DUP5 DUP8 KECCAK256 ADD SLOAD PUSH2 0x562A JUMP JUMPDEST CALLER DUP6 MSTORE PUSH1 0x1E DUP3 MSTORE PUSH1 0x8 DUP4 DUP7 KECCAK256 ADD SSTORE DUP2 MLOAD SWAP3 DUP4 MSTORE DUP3 ADD MSTORE PUSH1 0xC PUSH1 0x40 DUP3 ADD MSTORE PUSH12 0x564D4620686F6C64696E6773 PUSH1 0xA0 SHL PUSH1 0x60 DUP3 ADD MSTORE PUSH32 0xA6064B0DE95F7CDA15129E7C36146C8ACCF65ABB7A3639D800A445FA55023A17 PUSH1 0x80 CALLER SWAP3 LOG2 PUSH1 0x1 DUP2 SSTORE DUP1 RETURN JUMPDEST PUSH1 0x64 SWAP1 PUSH1 0x40 MLOAD SWAP1 PUSH3 0x461BCD PUSH1 0xE5 SHL DUP3 MSTORE PUSH1 0x4 DUP3 ADD MSTORE PUSH1 0x17 PUSH1 0x24 DUP3 ADD MSTORE PUSH23 0x98DEF2C2D8E8F240E0DED2DCE8E640E8DEDE40D0D2CED PUSH1 0x4B SHL PUSH1 0x44 DUP3 ADD MSTORE REVERT JUMPDEST PUSH1 0x64 SWAP1 PUSH1 0x40 MLOAD SWAP1 PUSH3 0x461BCD PUSH1 0xE5 SHL DUP3 MSTORE PUSH1 0x4 DUP3 ADD MSTORE PUSH1 0x1A PUSH1 0x24 DUP3 ADD MSTORE PUSH26 0x139BC81B1BDE585B1D1E481C1BDA5B9D1CC81D1BC8185DD85C99 PUSH1 0x32 SHL PUSH1 0x44 DUP3 ADD MSTORE REVERT JUMPDEST PUSH4 0x4E487B71 PUSH1 0xE0 SHL DUP4 MSTORE PUSH1 0x11 PUSH1 0x4 MSTORE PUSH1 0x24 DUP4 REVERT JUMPDEST PUSH1 0x40 MLOAD PUSH3 0x461BCD PUSH1 0xE5 SHL DUP2 MSTORE PUSH1 0x4 DUP2 ADD DUP4 SWAP1 MSTORE PUSH1 0xE PUSH1 0x24 DUP3 ADD MSTORE PUSH14 0x4E6F20564D462062616C616E6365 PUSH1 0x90 SHL PUSH1 0x44 DUP3 ADD MSTORE PUSH1 0x64 SWAP1 REVERT JUMPDEST SWAP1 POP DUP2 DUP2 DUP2 RETURNDATASIZE DUP4 GT PUSH2 0x2AD4 JUMPI JUMPDEST PUSH2 0x2AC5 DUP2 DUP4 PUSH2 0x522F JUMP JUMPDEST DUP2 ADD SUB SLT PUSH2 0x247C JUMPI MLOAD CODESIZE PUSH2 0x2937 JUMP JUMPDEST POP RETURNDATASIZE PUSH2 0x2ABB JUMP JUMPDEST POP CALLVALUE PUSH2 0x572 JUMPI PUSH2 0x2AEA CALLDATASIZE PUSH2 0x548F JUMP JUMPDEST PUSH1 0x0 DUP1 MLOAD PUSH1 0x20 PUSH2 0x6F7D DUP4 CODECOPY DUP2 MLOAD SWAP2 MSTORE DUP5 MSTORE PUSH1 0x20 SWAP1 PUSH1 0x1C DUP3 MSTORE PUSH1 0x40 DUP6 KECCAK256 CALLER DUP7 MSTORE DUP3 MSTORE PUSH1 0xFF PUSH1 0x40 DUP7 KECCAK256 SLOAD AND DUP1 ISZERO PUSH2 0x2CF8 JUMPI JUMPDEST PUSH2 0x2B23 SWAP1 PUSH2 0x57D0 JUMP JUMPDEST PUSH2 0x2B2B PUSH2 0x62B4 JUMP JUMPDEST DUP4 DUP6 MSTORE PUSH1 0x17 DUP3 MSTORE PUSH1 0xFF PUSH1 0x40 DUP7 KECCAK256 SLOAD AND PUSH2 0x2CBC JUMPI PUSH2 0x2B4D PUSH1 0x1A SLOAD PUSH1 0x1B SLOAD SWAP1 PUSH2 0x562A JUMP JUMPDEST TIMESTAMP LT PUSH2 0x2C79 JUMPI DUP4 DUP6 MSTORE PUSH1 0x19 DUP3 MSTORE PUSH1 0x40 DUP6 KECCAK256 SLOAD SUB PUSH2 0x2C3F JUMPI DUP3 DUP5 MSTORE PUSH1 0x17 DUP2 MSTORE PUSH1 0x40 DUP5 KECCAK256 SWAP1 PUSH1 0xFF NOT SWAP2 PUSH1 0x1 DUP4 DUP3 SLOAD AND OR SWAP1 SSTORE PUSH1 0x6 SLOAD SWAP2 DUP4 PUSH1 0x6 SSTORE PUSH1 0x18 DUP3 MSTORE PUSH1 0x40 DUP7 KECCAK256 SLOAD PUSH1 0x1 DUP2 ADD DUP1 SWAP2 GT PUSH2 0x2C2B JUMPI SWAP2 PUSH1 0x18 SWAP2 PUSH32 0x42D4A2476A82A032F615547E73391179C379C1EB26FB0BD034F43131AE2BC15D SWAP6 SWAP5 SWAP4 DUP8 DUP10 MSTORE DUP4 DUP4 MSTORE DUP1 PUSH1 0x40 DUP11 KECCAK256 SSTORE PUSH1 0x40 MLOAD DUP4 DUP2 ADD SWAP2 DUP8 DUP4 MSTORE PUSH1 0x40 DUP3 ADD MSTORE TIMESTAMP PUSH1 0x60 DUP3 ADD MSTORE PUSH1 0x60 DUP2 MSTORE PUSH2 0x2BEF DUP2 PUSH2 0x512B JUMP JUMPDEST MLOAD SWAP1 KECCAK256 DUP8 DUP10 MSTORE PUSH1 0x19 DUP4 MSTORE PUSH1 0x40 DUP10 KECCAK256 SSTORE TIMESTAMP PUSH1 0x1A SSTORE PUSH1 0x17 DUP3 MSTORE PUSH1 0x40 DUP9 KECCAK256 SWAP1 DUP2 SLOAD AND SWAP1 SSTORE MSTORE PUSH2 0x2C25 PUSH1 0x40 DUP7 KECCAK256 SLOAD PUSH1 0x40 MLOAD SWAP4 DUP5 SWAP4 DUP5 PUSH2 0x55BD JUMP JUMPDEST SUB SWAP1 LOG2 DUP1 RETURN JUMPDEST PUSH4 0x4E487B71 PUSH1 0xE0 SHL DUP8 MSTORE PUSH1 0x11 PUSH1 0x4 MSTORE PUSH1 0x24 DUP8 REVERT JUMPDEST PUSH1 0x64 SWAP1 PUSH1 0x40 MLOAD SWAP1 PUSH3 0x461BCD PUSH1 0xE5 SHL DUP3 MSTORE PUSH1 0x4 DUP3 ADD MSTORE PUSH1 0x13 PUSH1 0x24 DUP3 ADD MSTORE PUSH19 0xA6E8C2E8CA40D0C2E6D040DAD2E6DAC2E8C6D PUSH1 0x6B SHL PUSH1 0x44 DUP3 ADD MSTORE REVERT JUMPDEST PUSH1 0x40 MLOAD PUSH3 0x461BCD PUSH1 0xE5 SHL DUP2 MSTORE PUSH1 0x4 DUP2 ADD DUP4 SWAP1 MSTORE PUSH1 0x1B PUSH1 0x24 DUP3 ADD MSTORE PUSH27 0x129858DADC1BDD081D5C19185D19481D1BDBC8199C995C5D595B9D PUSH1 0x2A SHL PUSH1 0x44 DUP3 ADD MSTORE PUSH1 0x64 SWAP1 REVERT JUMPDEST PUSH1 0x40 MLOAD PUSH3 0x461BCD PUSH1 0xE5 SHL DUP2 MSTORE PUSH1 0x4 DUP2 ADD DUP4 SWAP1 MSTORE PUSH1 0x14 PUSH1 0x24 DUP3 ADD MSTORE PUSH20 0x11D85B59481CDD185D19481A5CC81B1BD8DAD959 PUSH1 0x62 SHL PUSH1 0x44 DUP3 ADD MSTORE PUSH1 0x64 SWAP1 REVERT JUMPDEST POP PUSH1 0x1 SLOAD PUSH1 0x1 PUSH1 0x1 PUSH1 0xA0 SHL SUB AND CALLER EQ PUSH2 0x2B1A JUMP JUMPDEST POP CALLVALUE PUSH2 0x572 JUMPI DUP1 PUSH1 0x3 NOT CALLDATASIZE ADD SLT PUSH2 0x572 JUMPI PUSH2 0x2D25 PUSH2 0x6288 JUMP JUMPDEST PUSH1 0x1 DUP1 SLOAD PUSH1 0x1 PUSH1 0x1 PUSH1 0xA0 SHL SUB NOT DUP2 AND SWAP1 SWAP2 SSTORE DUP2 SWAP1 PUSH1 0x1 PUSH1 0x1 PUSH1 0xA0 SHL SUB AND PUSH1 0x0 DUP1 MLOAD PUSH1 0x20 PUSH2 0x6F9D DUP4 CODECOPY DUP2 MLOAD SWAP2 MSTORE DUP3 DUP1 LOG3 DUP1 RETURN JUMPDEST POP CALLVALUE PUSH2 0x572 JUMPI DUP1 PUSH1 0x3 NOT CALLDATASIZE ADD SLT PUSH2 0x572 JUMPI PUSH1 0x20 PUSH1 0x40 MLOAD PUSH32 0x59A1C48E5837AD7A7F3DCEDCBE129BF3249EC4FBF651FD4F5E2600EAD39FE2F5 DUP2 MSTORE RETURN JUMPDEST POP CALLVALUE PUSH2 0x572 JUMPI PUSH1 0x20 CALLDATASIZE PUSH1 0x3 NOT ADD SLT PUSH2 0x572 JUMPI PUSH32 0x37AA3048A2B523E3218796793D7C9283CBD45124C62254C97FEBFC1292524294 PUSH1 0x20 PUSH1 0x4 CALLDATALOAD PUSH1 0x0 DUP1 MLOAD PUSH1 0x20 PUSH2 0x701D DUP4 CODECOPY DUP2 MLOAD SWAP2 MSTORE DUP5 MSTORE PUSH1 0x1C DUP3 MSTORE PUSH1 0x40 DUP5 KECCAK256 CALLER DUP6 MSTORE DUP3 MSTORE PUSH1 0xFF PUSH1 0x40 DUP6 KECCAK256 SLOAD AND DUP1 ISZERO PUSH2 0x2E0E JUMPI JUMPDEST PUSH2 0x2E00 SWAP1 PUSH2 0x57D0 JUMP JUMPDEST DUP1 PUSH1 0x1B SSTORE PUSH1 0x40 MLOAD SWAP1 DUP2 MSTORE LOG1 DUP1 RETURN JUMPDEST POP PUSH1 0x1 SLOAD PUSH1 0x1 PUSH1 0x1 PUSH1 0xA0 SHL SUB AND CALLER EQ PUSH2 0x2DF7 JUMP JUMPDEST POP CALLVALUE PUSH2 0x572 JUMPI DUP1 PUSH1 0x3 NOT CALLDATASIZE ADD SLT PUSH2 0x572 JUMPI PUSH1 0x20 PUSH1 0x40 MLOAD PUSH1 0x5 DUP2 MSTORE RETURN JUMPDEST POP CALLVALUE PUSH2 0x572 JUMPI DUP1 PUSH1 0x3 NOT CALLDATASIZE ADD SLT PUSH2 0x572 JUMPI PUSH1 0x3 SLOAD PUSH1 0x40 MLOAD PUSH1 0x1 PUSH1 0x1 PUSH1 0xA0 SHL SUB SWAP1 SWAP2 AND DUP2 MSTORE PUSH1 0x20 SWAP1 RETURN JUMPDEST POP CALLVALUE PUSH2 0x572 JUMPI PUSH1 0x20 CALLDATASIZE PUSH1 0x3 NOT ADD SLT PUSH2 0x572 JUMPI PUSH1 0x40 PUSH1 0x20 SWAP2 PUSH1 0x4 CALLDATALOAD DUP2 MSTORE PUSH1 0x19 DUP4 MSTORE KECCAK256 SLOAD PUSH1 0x40 MLOAD SWAP1 DUP2 MSTORE RETURN JUMPDEST POP CALLVALUE PUSH2 0x572 JUMPI DUP1 PUSH1 0x3 NOT CALLDATASIZE ADD SLT PUSH2 0x572 JUMPI PUSH1 0x20 PUSH1 0xFF PUSH1 0x1 SLOAD PUSH1 0xA0 SHR AND PUSH1 0x40 MLOAD SWAP1 ISZERO ISZERO DUP2 MSTORE RETURN JUMPDEST POP CALLVALUE PUSH2 0x572 JUMPI PUSH2 0x2EC6 CALLDATASIZE PUSH2 0x526D JUMP JUMPDEST PUSH2 0x2ECE PUSH2 0x6332 JUMP JUMPDEST PUSH2 0x2ED6 PUSH2 0x62B4 JUMP JUMPDEST CALLER DUP3 MSTORE PUSH1 0x20 SWAP1 PUSH1 0x22 DUP3 MSTORE PUSH2 0x2EF1 PUSH1 0xFF PUSH1 0x40 DUP6 KECCAK256 SLOAD AND ISZERO PUSH2 0x564D JUMP JUMPDEST CALLER DUP4 MSTORE PUSH1 0x1E SWAP2 DUP3 DUP2 MSTORE PUSH2 0x2F0E PUSH1 0xFF PUSH1 0x6 PUSH1 0x40 DUP8 KECCAK256 ADD SLOAD AND ISZERO PUSH2 0x564D JUMP JUMPDEST CALLER DUP5 MSTORE DUP3 DUP2 MSTORE PUSH1 0xFF PUSH1 0x10 PUSH1 0x40 DUP7 KECCAK256 ADD SLOAD AND PUSH2 0x378C JUMPI CALLER DUP5 MSTORE DUP3 DUP2 MSTORE PUSH1 0x3 PUSH1 0x40 DUP6 KECCAK256 ADD SLOAD PUSH2 0xE10 SWAP1 DUP2 DUP2 ADD DUP1 SWAP2 GT PUSH2 0xAF0 JUMPI TIMESTAMP LT PUSH2 0x3751 JUMPI CALLER DUP6 MSTORE PUSH1 0x25 DUP3 MSTORE PUSH1 0x40 DUP6 KECCAK256 SLOAD TIMESTAMP LT PUSH2 0x370F JUMPI CALLER DUP6 MSTORE DUP4 DUP3 MSTORE PUSH1 0xF PUSH1 0x40 DUP7 KECCAK256 ADD SLOAD DUP2 DUP2 ADD DUP1 SWAP2 GT PUSH2 0xAF0 JUMPI TIMESTAMP LT PUSH2 0x36CC JUMPI CALLER DUP6 MSTORE PUSH1 0x26 DUP3 MSTORE TIMESTAMP PUSH1 0x40 DUP7 KECCAK256 SSTORE DUP4 DUP3 MSTORE TIMESTAMP PUSH1 0xF PUSH1 0x40 DUP8 KECCAK256 ADD SSTORE PUSH1 0x5 SLOAD ISZERO PUSH2 0x3695 JUMPI PUSH2 0x2F9F CALLER PUSH2 0x672D JUMP JUMPDEST PUSH2 0x3651 JUMPI PUSH2 0x2FAB PUSH2 0x678C JUMP JUMPDEST SWAP4 DUP5 ISZERO PUSH2 0x360D JUMPI PUSH1 0x40 MLOAD PUSH4 0x70A08231 PUSH1 0xE0 SHL DUP2 MSTORE CALLER PUSH1 0x4 DUP3 ADD MSTORE PUSH32 0x0 PUSH1 0x1 PUSH1 0x1 PUSH1 0xA0 SHL SUB AND SWAP6 PUSH1 0x24 SWAP6 SWAP1 SWAP2 DUP6 DUP2 DUP9 DUP2 DUP12 GAS STATICCALL DUP1 ISZERO PUSH2 0x336E JUMPI DUP4 SWAP1 DUP11 SWAP1 PUSH2 0x35DC JUMPI JUMPDEST PUSH2 0x3017 SWAP3 POP LT ISZERO PUSH2 0x5FB5 JUMP JUMPDEST PUSH1 0x40 MLOAD PUSH4 0x6EB1769F PUSH1 0xE1 SHL DUP2 MSTORE DUP6 DUP2 DUP1 PUSH2 0x3035 ADDRESS CALLER PUSH1 0x4 DUP5 ADD PUSH2 0x5FFC JUMP JUMPDEST SUB DUP2 DUP12 GAS STATICCALL DUP1 ISZERO PUSH2 0x336E JUMPI DUP4 SWAP1 DUP11 SWAP1 PUSH2 0x35A7 JUMPI JUMPDEST PUSH2 0x3055 SWAP3 POP LT ISZERO PUSH2 0x6016 JUMP JUMPDEST CALLER DUP9 MSTORE DUP3 DUP6 MSTORE PUSH1 0x1 SWAP7 PUSH1 0xA DUP9 PUSH1 0x40 DUP12 KECCAK256 ADD SLOAD LT ISZERO PUSH2 0x3567 JUMPI PUSH1 0x40 MLOAD PUSH2 0x3079 DUP2 PUSH2 0x51C2 JUMP JUMPDEST DUP10 DUP2 MSTORE SWAP2 DUP1 MLOAD ISZERO DUP1 ISZERO PUSH2 0x3379 JUMPI JUMPDEST POP POP DUP6 PUSH1 0x40 MLOAD DUP1 SWAP3 PUSH4 0x23B872DD PUSH1 0xE0 SHL DUP3 MSTORE DUP2 DUP13 DUP2 PUSH2 0x30AB DUP10 ADDRESS CALLER PUSH1 0x4 DUP6 ADD PUSH2 0x605F JUMP JUMPDEST SUB SWAP3 GAS CALL DUP1 ISZERO PUSH2 0x336E JUMPI PUSH2 0x30C5 SWAP2 DUP11 SWAP2 PUSH2 0x3357 JUMPI POP PUSH2 0x6081 JUMP JUMPDEST CALLER DUP9 MSTORE DUP3 DUP6 MSTORE DUP7 PUSH1 0x40 DUP10 KECCAK256 ADD SLOAD DUP8 DUP2 ADD DUP1 SWAP2 GT PUSH2 0x3344 JUMPI CALLER DUP10 MSTORE DUP4 DUP7 MSTORE PUSH1 0x40 DUP10 KECCAK256 SWAP1 DUP9 DUP3 ADD SSTORE TIMESTAMP PUSH1 0x3 DUP3 ADD SSTORE SLOAD DUP8 DUP2 ADD DUP1 SWAP2 GT PUSH2 0x3344 JUMPI CALLER DUP10 MSTORE DUP4 DUP7 MSTORE PUSH1 0x40 DUP10 KECCAK256 SSTORE PUSH1 0x5 SLOAD DUP9 MSTORE PUSH1 0xB DUP6 MSTORE PUSH2 0x311D CALLER PUSH1 0x40 DUP11 KECCAK256 PUSH2 0x55EF JUMP JUMPDEST PUSH1 0x5 SLOAD DUP1 DUP10 MSTORE PUSH1 0xC DUP7 MSTORE PUSH1 0x40 DUP10 KECCAK256 SLOAD SWAP1 DUP9 DUP3 ADD DUP1 SWAP3 GT PUSH2 0x3331 JUMPI DUP10 MSTORE PUSH1 0xC DUP7 MSTORE PUSH1 0x40 DUP10 KECCAK256 SSTORE PUSH2 0x314E DUP3 PUSH1 0x6 SLOAD PUSH2 0x562A JUMP JUMPDEST PUSH1 0x6 SSTORE DUP1 MLOAD PUSH2 0x32EA JUMPI JUMPDEST POP CALLER DUP8 MSTORE DUP5 DUP5 MSTORE PUSH1 0x40 DUP8 KECCAK256 SLOAD DUP7 DUP2 ADD DUP1 SWAP2 GT PUSH2 0x32A5 JUMPI PUSH1 0x64 DUP2 GT PUSH2 0x32B8 JUMPI CALLER DUP9 MSTORE DUP6 DUP6 MSTORE PUSH1 0x40 DUP9 KECCAK256 SSTORE DUP2 DUP5 MSTORE PUSH1 0xE PUSH1 0x40 DUP9 KECCAK256 ADD SLOAD DUP7 DUP2 ADD DUP1 SWAP2 GT PUSH2 0x32A5 JUMPI CALLER DUP9 MSTORE DUP3 DUP6 MSTORE PUSH1 0xE PUSH1 0x40 DUP10 KECCAK256 ADD SSTORE PUSH1 0x40 MLOAD DUP7 DUP2 MSTORE PUSH1 0x40 DUP6 DUP3 ADD MSTORE PUSH1 0x11 PUSH1 0x40 DUP3 ADD MSTORE PUSH17 0x11185A5B1E481C1B185E481C995DD85C99 PUSH1 0x7A SHL PUSH1 0x60 DUP3 ADD MSTORE PUSH1 0x0 DUP1 MLOAD PUSH1 0x20 PUSH2 0x6FDD DUP4 CODECOPY DUP2 MLOAD SWAP2 MSTORE PUSH1 0x80 CALLER SWAP3 LOG2 PUSH1 0x5 SLOAD SWAP1 PUSH1 0x40 MLOAD SWAP1 DUP2 MSTORE PUSH32 0x480A6DAEA81F2AF589E1959DA1F1719512392EC551E8966266EE820F1C1F72EA DUP6 CALLER SWAP3 LOG3 PUSH32 0x404449B42E86F8716DD5AC141731FB164FE1F76D7E4039FDD16C7B3B48F96A4E PUSH1 0x40 PUSH1 0x6 SLOAD PUSH1 0x7 SLOAD DUP3 MLOAD SWAP2 DUP3 MSTORE DUP7 DUP3 ADD MSTORE LOG1 CALLER DUP7 MSTORE DUP3 MSTORE PUSH1 0x10 PUSH1 0x40 DUP7 KECCAK256 ADD DUP5 PUSH1 0xFF NOT DUP3 SLOAD AND OR SWAP1 SSTORE TIMESTAMP ADD SWAP2 DUP3 TIMESTAMP GT PUSH2 0x113A JUMPI POP PUSH32 0x2F9A50B0843B7D2D827707C950209B525673C306D684446F6C4B1B748A4ED9EE SWAP1 CALLER DUP6 MSTORE PUSH1 0x25 DUP2 MSTORE DUP3 PUSH1 0x40 DUP7 KECCAK256 SSTORE PUSH1 0x40 MLOAD SWAP3 DUP4 MSTORE CALLER SWAP3 LOG2 DUP2 SSTORE DUP1 RETURN JUMPDEST PUSH4 0x4E487B71 PUSH1 0xE0 SHL DUP9 MSTORE PUSH1 0x11 PUSH1 0x4 MSTORE DUP6 DUP9 REVERT JUMPDEST PUSH1 0x40 MLOAD PUSH3 0x461BCD PUSH1 0xE5 SHL DUP2 MSTORE PUSH1 0x4 DUP2 ADD DUP7 SWAP1 MSTORE PUSH1 0x1B DUP2 DUP9 ADD MSTORE PUSH1 0x0 DUP1 MLOAD PUSH1 0x20 PUSH2 0x6FFD DUP4 CODECOPY DUP2 MLOAD SWAP2 MSTORE PUSH1 0x44 DUP3 ADD MSTORE PUSH1 0x64 SWAP1 REVERT JUMPDEST PUSH2 0x3323 PUSH32 0x64274D45E838268EFE3B4FA5586A29791F42C0F3F9A6422424C424401BF39589 SWAP2 PUSH1 0x40 MLOAD SWAP2 DUP3 SWAP2 PUSH1 0x40 DUP4 MSTORE PUSH1 0x40 DUP4 ADD SWAP1 PUSH2 0x541A JUMP JUMPDEST CALLER DUP9 DUP4 ADD MSTORE SUB SWAP1 LOG1 CODESIZE PUSH2 0x3158 JUMP JUMPDEST PUSH4 0x4E487B71 PUSH1 0xE0 SHL DUP11 MSTORE PUSH1 0x11 PUSH1 0x4 MSTORE DUP8 DUP11 REVERT JUMPDEST PUSH4 0x4E487B71 PUSH1 0xE0 SHL DUP10 MSTORE PUSH1 0x11 PUSH1 0x4 MSTORE DUP7 DUP10 REVERT JUMPDEST PUSH2 0x1D58 SWAP2 POP DUP8 RETURNDATASIZE DUP10 GT PUSH2 0xB2A JUMPI PUSH2 0xB1C DUP2 DUP4 PUSH2 0x522F JUMP JUMPDEST PUSH1 0x40 MLOAD RETURNDATASIZE DUP12 DUP3 RETURNDATACOPY RETURNDATASIZE SWAP1 REVERT JUMPDEST SWAP1 SWAP3 POP PUSH2 0x352B JUMPI PUSH1 0x64 DUP3 MLOAD GT PUSH2 0x34F6 JUMPI PUSH2 0x3393 DUP3 MLOAD PUSH2 0x693C JUMP JUMPDEST SWAP2 DUP9 DUP11 SWAP2 DUP2 DUP13 SWAP1 JUMPDEST PUSH2 0x3486 JUMPI JUMPDEST POP POP POP DUP1 ISZERO PUSH2 0x3443 JUMPI PUSH2 0x33B2 DUP2 PUSH2 0x693C JUMP JUMPDEST SWAP3 DUP10 DUP12 JUMPDEST DUP4 DUP2 LT PUSH2 0x3419 JUMPI POP POP POP POP PUSH2 0x33CA DUP3 PUSH2 0x697F JUMP JUMPDEST ISZERO PUSH2 0x33D6 JUMPI CODESIZE DUP1 PUSH2 0x3087 JUMP JUMPDEST PUSH1 0x40 MLOAD PUSH3 0x461BCD PUSH1 0xE5 SHL DUP2 MSTORE PUSH1 0x4 DUP2 ADD DUP8 SWAP1 MSTORE PUSH1 0x1C DUP2 DUP10 ADD MSTORE PUSH28 0x125B9D985B1A59081C9959995C9C985B0818DBD91948199BDC9B585D PUSH1 0x22 SHL PUSH1 0x44 DUP3 ADD MSTORE PUSH1 0x64 SWAP1 REVERT JUMPDEST PUSH1 0x1 PUSH1 0x1 PUSH1 0xF8 SHL SUB NOT PUSH2 0x342C DUP3 DUP6 PUSH2 0x696E JUMP JUMPDEST MLOAD AND DUP14 BYTE PUSH2 0x343A DUP3 DUP9 PUSH2 0x696E JUMP JUMPDEST MSTORE8 ADD DUP11 SWAP1 PUSH2 0x33B6 JUMP JUMPDEST PUSH1 0x40 MLOAD PUSH3 0x461BCD PUSH1 0xE5 SHL DUP2 MSTORE PUSH1 0x4 DUP2 ADD DUP9 SWAP1 MSTORE PUSH1 0x1C DUP2 DUP11 ADD MSTORE PUSH28 0x139BC81D985B1A590818DA185C9858DD195C9CC81A5B881A5B9C1D5D PUSH1 0x22 SHL PUSH1 0x44 DUP3 ADD MSTORE PUSH1 0x64 SWAP1 REVERT JUMPDEST DUP2 MLOAD DUP2 LT ISZERO PUSH2 0x34F1 JUMPI PUSH1 0x1 PUSH1 0x1 PUSH1 0xF8 SHL SUB NOT PUSH2 0x34A2 DUP3 DUP5 PUSH2 0x696E JUMP JUMPDEST MLOAD AND DUP14 PUSH1 0x1 PUSH1 0xFD SHL DUP3 LT ISZERO DUP1 PUSH2 0x34E3 JUMPI JUMPDEST PUSH2 0x34C2 JUMPI JUMPDEST POP POP DUP3 ADD DUP3 PUSH2 0x339B JUMP JUMPDEST SWAP5 PUSH2 0x34DB SWAP2 DUP6 SWAP4 SWAP7 BYTE PUSH2 0x34D5 DUP3 DUP11 PUSH2 0x696E JUMP JUMPDEST MSTORE8 PUSH2 0x588E JUMP JUMPDEST SWAP4 SWAP1 DUP14 PUSH2 0x34B8 JUMP JUMPDEST POP PUSH1 0x3F PUSH1 0xF9 SHL DUP3 GT ISZERO PUSH2 0x34B3 JUMP JUMPDEST PUSH2 0x33A0 JUMP JUMPDEST PUSH1 0x40 MLOAD PUSH3 0x461BCD PUSH1 0xE5 SHL DUP2 MSTORE PUSH1 0x4 DUP2 ADD DUP8 SWAP1 MSTORE PUSH1 0xE DUP2 DUP10 ADD MSTORE PUSH14 0x496E70757420746F6F206C6F6E67 PUSH1 0x90 SHL PUSH1 0x44 DUP3 ADD MSTORE PUSH1 0x64 SWAP1 REVERT JUMPDEST PUSH1 0x40 MLOAD PUSH3 0x461BCD PUSH1 0xE5 SHL DUP2 MSTORE PUSH1 0x4 DUP2 ADD DUP8 SWAP1 MSTORE PUSH1 0x15 DUP2 DUP10 ADD MSTORE PUSH21 0x496E7075742063616E6E6F7420626520656D707479 PUSH1 0x58 SHL PUSH1 0x44 DUP3 ADD MSTORE PUSH1 0x64 SWAP1 REVERT JUMPDEST PUSH1 0x40 MLOAD PUSH3 0x461BCD PUSH1 0xE5 SHL DUP2 MSTORE PUSH1 0x4 DUP2 ADD DUP8 SWAP1 MSTORE PUSH1 0x19 DUP2 DUP10 ADD MSTORE PUSH25 0x13585E0819185A5B1E48195B9D1C9A595CC81C995858DA1959 PUSH1 0x3A SHL PUSH1 0x44 DUP3 ADD MSTORE PUSH1 0x64 SWAP1 REVERT JUMPDEST POP POP DUP6 DUP2 DUP2 RETURNDATASIZE DUP4 GT PUSH2 0x35D5 JUMPI JUMPDEST PUSH2 0x35BE DUP2 DUP4 PUSH2 0x522F JUMP JUMPDEST DUP2 ADD SUB SLT PUSH2 0x35D1 JUMPI DUP3 PUSH2 0x3055 SWAP2 MLOAD PUSH2 0x3049 JUMP JUMPDEST DUP9 DUP1 REVERT JUMPDEST POP RETURNDATASIZE PUSH2 0x35B4 JUMP JUMPDEST POP POP DUP6 DUP2 DUP2 RETURNDATASIZE DUP4 GT PUSH2 0x3606 JUMPI JUMPDEST PUSH2 0x35F3 DUP2 DUP4 PUSH2 0x522F JUMP JUMPDEST DUP2 ADD SUB SLT PUSH2 0x35D1 JUMPI DUP3 PUSH2 0x3017 SWAP2 MLOAD PUSH2 0x300B JUMP JUMPDEST POP RETURNDATASIZE PUSH2 0x35E9 JUMP JUMPDEST PUSH1 0x40 MLOAD PUSH3 0x461BCD PUSH1 0xE5 SHL DUP2 MSTORE PUSH1 0x4 DUP2 ADD DUP5 SWAP1 MSTORE PUSH1 0x1C PUSH1 0x24 DUP3 ADD MSTORE PUSH28 0x125B9D985B1A5908195B9D1C9E481999594818D85B18DD5B185D1959 PUSH1 0x22 SHL PUSH1 0x44 DUP3 ADD MSTORE PUSH1 0x64 SWAP1 REVERT JUMPDEST PUSH1 0x40 MLOAD PUSH3 0x461BCD PUSH1 0xE5 SHL DUP2 MSTORE PUSH1 0x4 DUP2 ADD DUP4 SWAP1 MSTORE PUSH1 0x1C PUSH1 0x24 DUP3 ADD MSTORE PUSH28 0x14DD5CDC1A58DA5BDD5CC81858DD1A5D9A5D1E4819195D1958DD1959 PUSH1 0x22 SHL PUSH1 0x44 DUP3 ADD MSTORE PUSH1 0x64 SWAP1 REVERT JUMPDEST PUSH1 0x40 MLOAD PUSH3 0x461BCD PUSH1 0xE5 SHL DUP2 MSTORE PUSH1 0x4 DUP2 ADD DUP4 SWAP1 MSTORE PUSH1 0xF PUSH1 0x24 DUP3 ADD MSTORE PUSH15 0x125B9D985B1A590819D85B59481251 PUSH1 0x8A SHL PUSH1 0x44 DUP3 ADD MSTORE PUSH1 0x64 SWAP1 REVERT JUMPDEST PUSH1 0x40 MLOAD PUSH3 0x461BCD PUSH1 0xE5 SHL DUP2 MSTORE PUSH1 0x4 DUP2 ADD DUP4 SWAP1 MSTORE PUSH1 0x1B PUSH1 0x24 DUP3 ADD MSTORE PUSH27 0x14D958DD5C9A5D1E4818DA1958DAC81D1BDBC8199C995C5D595B9D PUSH1 0x2A SHL PUSH1 0x44 DUP3 ADD MSTORE PUSH1 0x64 SWAP1 REVERT JUMPDEST PUSH1 0x40 MLOAD PUSH3 0x461BCD PUSH1 0xE5 SHL DUP2 MSTORE PUSH1 0x4 DUP2 ADD DUP4 SWAP1 MSTORE PUSH1 0x1A PUSH1 0x24 DUP3 ADD MSTORE PUSH26 0x52617465206C696D697420636F6F6C646F776E20616374697665 PUSH1 0x30 SHL PUSH1 0x44 DUP3 ADD MSTORE PUSH1 0x64 SWAP1 REVERT JUMPDEST PUSH1 0x40 MLOAD PUSH3 0x461BCD PUSH1 0xE5 SHL DUP2 MSTORE PUSH1 0x4 DUP2 ADD DUP4 SWAP1 MSTORE PUSH1 0x13 PUSH1 0x24 DUP3 ADD MSTORE PUSH19 0x14985D19481B1A5B5A5D08195E18D959591959 PUSH1 0x6A SHL PUSH1 0x44 DUP3 ADD MSTORE PUSH1 0x64 SWAP1 REVERT JUMPDEST PUSH1 0x64 SWAP1 PUSH1 0x40 MLOAD SWAP1 PUSH3 0x461BCD PUSH1 0xE5 SHL DUP3 MSTORE PUSH1 0x4 DUP3 ADD MSTORE PUSH1 0x14 PUSH1 0x24 DUP3 ADD MSTORE PUSH20 0x155CD95C881A5CC81C985D19481B1A5B5A5D1959 PUSH1 0x62 SHL PUSH1 0x44 DUP3 ADD MSTORE REVERT JUMPDEST POP CALLVALUE PUSH2 0x572 JUMPI DUP1 PUSH1 0x3 NOT CALLDATASIZE ADD SLT PUSH2 0x572 JUMPI PUSH1 0x20 PUSH1 0x13 SLOAD PUSH1 0x40 MLOAD SWAP1 DUP2 MSTORE RETURN JUMPDEST POP CALLVALUE PUSH2 0x572 JUMPI DUP1 PUSH1 0x3 NOT CALLDATASIZE ADD SLT PUSH2 0x572 JUMPI PUSH1 0x0 DUP1 MLOAD PUSH1 0x20 PUSH2 0x701D DUP4 CODECOPY DUP2 MLOAD SWAP2 MSTORE DUP2 MSTORE PUSH1 0x20 SWAP1 PUSH1 0x1C DUP3 MSTORE PUSH1 0x40 DUP2 KECCAK256 CALLER DUP3 MSTORE DUP3 MSTORE PUSH1 0xFF SWAP2 PUSH1 0xFF PUSH1 0x40 DUP4 KECCAK256 SLOAD AND DUP1 ISZERO PUSH2 0x392F JUMPI JUMPDEST PUSH2 0x3832 SWAP1 PUSH2 0x57D0 JUMP JUMPDEST PUSH1 0x2A SLOAD PUSH2 0xE10 DUP2 ADD DUP1 SWAP2 GT PUSH2 0x2A64 JUMPI TIMESTAMP LT PUSH2 0x38EF JUMPI DUP2 JUMPDEST PUSH1 0x64 DUP2 LT PUSH2 0x389A JUMPI POP TIMESTAMP PUSH1 0x2A SSTORE PUSH1 0x29 SLOAD PUSH1 0x1 DUP2 ADD DUP1 SWAP2 GT PUSH2 0x2A64 JUMPI PUSH32 0x1B9B06155F0DA9BCE83C4A8A54DCCA59CDF479249CEB43679C0BD7FA67B2F188 SWAP2 DUP2 PUSH1 0x40 SWAP3 PUSH1 0x29 SSTORE DUP3 MLOAD SWAP2 TIMESTAMP DUP4 MSTORE DUP3 ADD MSTORE LOG1 DUP1 RETURN JUMPDEST DUP1 PUSH1 0x1 SWAP2 NUMBER GT DUP1 PUSH2 0x38D2 JUMPI JUMPDEST PUSH2 0x38B1 JUMPI JUMPDEST ADD PUSH2 0x3849 JUMP JUMPDEST PUSH2 0x38BB DUP2 NUMBER PUSH2 0x5FA8 JUMP JUMPDEST DUP5 MSTORE PUSH1 0x28 DUP4 MSTORE PUSH1 0x40 DUP5 KECCAK256 DUP1 SLOAD PUSH1 0xFF NOT AND SWAP1 SSTORE PUSH2 0x38AB JUMP JUMPDEST POP PUSH2 0x38DD DUP2 NUMBER PUSH2 0x5FA8 JUMP JUMPDEST DUP5 MSTORE PUSH1 0x28 DUP4 MSTORE DUP5 PUSH1 0x40 DUP6 KECCAK256 SLOAD AND PUSH2 0x38A6 JUMP JUMPDEST PUSH1 0x64 SWAP1 PUSH1 0x40 MLOAD SWAP1 PUSH3 0x461BCD PUSH1 0xE5 SHL DUP3 MSTORE PUSH1 0x4 DUP3 ADD MSTORE PUSH1 0x19 PUSH1 0x24 DUP3 ADD MSTORE PUSH25 0x13DC1D1A5B5A5E985D1A5BDB881D1BDBC8199C995C5D595B9D PUSH1 0x3A SHL PUSH1 0x44 DUP3 ADD MSTORE REVERT JUMPDEST POP PUSH1 0x1 SLOAD PUSH1 0x1 PUSH1 0x1 PUSH1 0xA0 SHL SUB AND CALLER EQ PUSH2 0x3829 JUMP JUMPDEST POP CALLVALUE PUSH2 0x572 JUMPI PUSH1 0x20 CALLDATASIZE PUSH1 0x3 NOT ADD SLT PUSH2 0x572 JUMPI PUSH1 0x40 PUSH2 0x220 SWAP2 PUSH2 0x3963 PUSH2 0x508B JUMP JUMPDEST DUP2 PUSH2 0x200 DUP5 MLOAD PUSH2 0x3972 DUP2 PUSH2 0x515C JUMP JUMPDEST DUP3 DUP2 MSTORE DUP3 PUSH1 0x20 DUP3 ADD MSTORE DUP3 DUP7 DUP3 ADD MSTORE DUP3 PUSH1 0x60 DUP3 ADD MSTORE DUP3 PUSH1 0x80 DUP3 ADD MSTORE DUP3 PUSH1 0xA0 DUP3 ADD MSTORE DUP3 PUSH1 0xC0 DUP3 ADD MSTORE DUP3 PUSH1 0xE0 DUP3 ADD MSTORE DUP3 PUSH2 0x100 DUP3 ADD MSTORE DUP3 PUSH2 0x120 DUP3 ADD MSTORE DUP3 PUSH2 0x140 DUP3 ADD MSTORE DUP3 PUSH2 0x160 DUP3 ADD MSTORE DUP3 PUSH2 0x180 DUP3 ADD MSTORE DUP3 PUSH2 0x1A0 DUP3 ADD MSTORE DUP3 PUSH2 0x1C0 DUP3 ADD MSTORE DUP3 PUSH2 0x1E0 DUP3 ADD MSTORE ADD MSTORE PUSH1 0x1 DUP1 PUSH1 0xA0 SHL SUB AND DUP2 MSTORE PUSH1 0x1E PUSH1 0x20 MSTORE KECCAK256 PUSH2 0x200 PUSH1 0x40 MLOAD PUSH2 0x39F7 DUP2 PUSH2 0x515C JUMP JUMPDEST PUSH1 0xFF PUSH1 0x10 DUP5 SLOAD SWAP5 DUP6 DUP5 MSTORE PUSH1 0x1 DUP2 ADD SLOAD PUSH1 0x20 DUP6 ADD MSTORE PUSH1 0x2 DUP2 ADD SLOAD PUSH1 0x40 DUP6 ADD MSTORE PUSH1 0x3 DUP2 ADD SLOAD PUSH1 0x60 DUP6 ADD MSTORE PUSH1 0x4 DUP2 ADD SLOAD PUSH1 0x80 DUP6 ADD MSTORE PUSH1 0x5 DUP2 ADD SLOAD PUSH1 0xA0 DUP6 ADD MSTORE DUP3 PUSH1 0x6 DUP3 ADD SLOAD AND ISZERO ISZERO PUSH1 0xC0 DUP6 ADD MSTORE PUSH1 0x7 DUP2 ADD SLOAD PUSH1 0xE0 DUP6 ADD MSTORE PUSH1 0x8 DUP2 ADD SLOAD PUSH2 0x100 DUP6 ADD MSTORE PUSH1 0x9 DUP2 ADD SLOAD PUSH2 0x120 DUP6 ADD MSTORE PUSH1 0xA DUP2 ADD SLOAD PUSH2 0x140 DUP6 ADD MSTORE PUSH1 0xB DUP2 ADD SLOAD PUSH2 0x160 DUP6 ADD MSTORE PUSH1 0xC DUP2 ADD SLOAD PUSH2 0x180 DUP6 ADD MSTORE DUP3 PUSH1 0xD DUP3 ADD SLOAD AND ISZERO ISZERO PUSH2 0x1A0 DUP6 ADD MSTORE PUSH1 0xE DUP2 ADD SLOAD PUSH2 0x1C0 DUP6 ADD MSTORE PUSH1 0xF DUP2 ADD SLOAD PUSH2 0x1E0 DUP6 ADD MSTORE ADD SLOAD AND ISZERO ISZERO DUP3 DUP3 ADD MSTORE PUSH1 0x40 MLOAD SWAP3 DUP4 MSTORE PUSH1 0x20 DUP2 ADD MLOAD PUSH1 0x20 DUP5 ADD MSTORE PUSH1 0x40 DUP2 ADD MLOAD PUSH1 0x40 DUP5 ADD MSTORE PUSH1 0x60 DUP2 ADD MLOAD PUSH1 0x60 DUP5 ADD MSTORE PUSH1 0x80 DUP2 ADD MLOAD PUSH1 0x80 DUP5 ADD MSTORE PUSH1 0xA0 DUP2 ADD MLOAD PUSH1 0xA0 DUP5 ADD MSTORE PUSH1 0xC0 DUP2 ADD MLOAD ISZERO ISZERO PUSH1 0xC0 DUP5 ADD MSTORE PUSH1 0xE0 DUP2 ADD MLOAD PUSH1 0xE0 DUP5 ADD MSTORE PUSH2 0x100 DUP2 ADD MLOAD PUSH2 0x100 DUP5 ADD MSTORE PUSH2 0x120 DUP2 ADD MLOAD PUSH2 0x120 DUP5 ADD MSTORE PUSH2 0x140 DUP2 ADD MLOAD PUSH2 0x140 DUP5 ADD MSTORE PUSH2 0x160 DUP2 ADD MLOAD PUSH2 0x160 DUP5 ADD MSTORE PUSH2 0x180 DUP2 ADD MLOAD PUSH2 0x180 DUP5 ADD MSTORE PUSH2 0x1A0 DUP2 ADD MLOAD ISZERO ISZERO PUSH2 0x1A0 DUP5 ADD MSTORE PUSH2 0x1C0 DUP2 ADD MLOAD PUSH2 0x1C0 DUP5 ADD MSTORE PUSH2 0x1E0 DUP2 ADD MLOAD PUSH2 0x1E0 DUP5 ADD MSTORE ADD MLOAD ISZERO ISZERO PUSH2 0x200 DUP3 ADD MSTORE RETURN JUMPDEST POP CALLVALUE PUSH2 0x572 JUMPI PUSH2 0x3B7B CALLDATASIZE PUSH2 0x543F JUMP JUMPDEST PUSH1 0x3 SLOAD PUSH1 0x1 PUSH1 0x1 PUSH1 0xA0 SHL SUB SWAP4 SWAP2 SWAP1 PUSH2 0x3B96 SWAP1 DUP6 AND CALLER EQ PUSH2 0x5E9B JUMP JUMPDEST PUSH2 0x3BA1 DUP2 ISZERO ISZERO PUSH2 0x5EE7 JUMP JUMPDEST PUSH2 0x3BAD DUP2 PUSH1 0x7 SLOAD PUSH2 0x58BF JUMP JUMPDEST DUP6 JUMPDEST DUP3 DUP2 LT PUSH2 0x3BEB JUMPI POP POP PUSH1 0x0 DUP1 MLOAD PUSH1 0x20 PUSH2 0x6F3D DUP4 CODECOPY DUP2 MLOAD SWAP2 MSTORE SWAP4 POP PUSH2 0x3BDD SWAP1 PUSH1 0x7 SLOAD SWAP1 PUSH1 0x40 MLOAD SWAP5 DUP6 SWAP5 DUP6 PUSH2 0x5F4D JUMP JUMPDEST SUB SWAP1 LOG1 DUP1 PUSH1 0x7 SSTORE TIMESTAMP PUSH1 0x9 SSTORE DUP1 RETURN JUMPDEST DUP6 PUSH2 0x3BFA PUSH2 0x2182 DUP4 DUP7 DUP10 PUSH2 0x5F29 JUMP JUMPDEST AND PUSH2 0x3C08 JUMPI JUMPDEST PUSH1 0x1 ADD PUSH2 0x3BAF JUMP JUMPDEST PUSH2 0x3C16 PUSH2 0x2182 DUP3 DUP6 DUP9 PUSH2 0x5F29 JUMP JUMPDEST SWAP1 DUP3 PUSH1 0x40 MLOAD SWAP3 PUSH4 0xA9059CBB PUSH1 0xE0 SHL DUP5 MSTORE DUP4 DUP1 PUSH2 0x3C39 PUSH1 0x20 SWAP5 DUP6 SWAP5 PUSH1 0x4 DUP5 ADD PUSH2 0x58F7 JUMP JUMPDEST SUB DUP2 DUP13 DUP13 PUSH32 0x0 AND GAS CALL DUP1 ISZERO PUSH2 0x336E JUMPI PUSH1 0x1 SWAP4 PUSH2 0x3C7C SWAP3 DUP12 SWAP3 PUSH2 0x3C83 JUMPI JUMPDEST POP POP PUSH2 0x5912 JUMP JUMPDEST SWAP1 POP PUSH2 0x3C00 JUMP JUMPDEST PUSH2 0x3C99 SWAP3 POP DUP1 RETURNDATASIZE LT PUSH2 0xB2A JUMPI PUSH2 0xB1C DUP2 DUP4 PUSH2 0x522F JUMP JUMPDEST CODESIZE DUP1 PUSH2 0x3C75 JUMP JUMPDEST POP CALLVALUE PUSH2 0x572 JUMPI DUP1 PUSH1 0x3 NOT CALLDATASIZE ADD SLT PUSH2 0x572 JUMPI PUSH2 0x3CB9 PUSH2 0x6288 JUMP JUMPDEST PUSH2 0xBAA PUSH2 0x5C9E JUMP JUMPDEST POP CALLVALUE PUSH2 0x572 JUMPI PUSH1 0x20 CALLDATASIZE PUSH1 0x3 NOT ADD SLT PUSH2 0x572 JUMPI PUSH1 0x40 SWAP1 PUSH1 0x4 CALLDATALOAD DUP2 MSTORE PUSH1 0x23 PUSH1 0x20 MSTORE KECCAK256 DUP1 SLOAD PUSH1 0x40 MLOAD SWAP2 PUSH2 0x3CFF DUP4 PUSH2 0x3CF8 DUP2 PUSH1 0x1 DUP6 ADD PUSH2 0x535D JUMP JUMPDEST SUB DUP5 PUSH2 0x522F JUMP JUMPDEST PUSH1 0x2 DUP2 ADD SLOAD SWAP1 PUSH1 0xFF PUSH1 0x4 PUSH1 0x3 DUP4 ADD SLOAD SWAP3 ADD SLOAD AND SWAP1 PUSH2 0x3D2F PUSH1 0x40 MLOAD SWAP6 DUP7 SWAP6 DUP7 MSTORE PUSH1 0xA0 PUSH1 0x20 DUP8 ADD MSTORE PUSH1 0xA0 DUP7 ADD SWAP1 PUSH2 0x541A JUMP JUMPDEST SWAP3 PUSH1 0x40 DUP6 ADD MSTORE PUSH1 0x60 DUP5 ADD MSTORE ISZERO ISZERO PUSH1 0x80 DUP4 ADD MSTORE SUB SWAP1 RETURN JUMPDEST POP CALLVALUE PUSH2 0x572 JUMPI PUSH2 0x3D54 CALLDATASIZE PUSH2 0x50CB JUMP JUMPDEST SWAP2 SWAP1 DUP2 MSTORE PUSH1 0xB PUSH1 0x20 MSTORE PUSH1 0x40 DUP2 KECCAK256 SWAP1 DUP2 SLOAD DUP4 LT ISZERO PUSH2 0x572 JUMPI PUSH1 0x20 PUSH2 0x62D DUP5 DUP5 PUSH2 0x50E1 JUMP JUMPDEST POP CALLVALUE PUSH2 0x572 JUMPI PUSH1 0x40 CALLDATASIZE PUSH1 0x3 NOT ADD SLT PUSH2 0x572 JUMPI PUSH2 0x3D91 PUSH2 0x508B JUMP JUMPDEST PUSH1 0x24 CALLDATALOAD SWAP1 DUP2 ISZERO ISZERO SWAP1 DUP2 DUP4 SUB PUSH2 0x20E3 JUMPI PUSH32 0x7C6A5677E7A854A53D06C412E00EBE65535F5343566CA7939AC7C7F6B0B00C16 SWAP2 PUSH2 0x3DFD PUSH1 0x20 SWAP3 PUSH2 0x3DD0 PUSH2 0x6288 JUMP JUMPDEST PUSH1 0x1 DUP1 PUSH1 0xA0 SHL SUB AND SWAP5 DUP6 DUP8 MSTORE PUSH1 0x22 DUP5 MSTORE PUSH2 0x3DED DUP2 PUSH1 0x40 DUP10 KECCAK256 PUSH2 0x5725 JUMP JUMPDEST PUSH1 0x1E DUP5 MSTORE PUSH1 0x6 PUSH1 0x40 DUP9 KECCAK256 ADD PUSH2 0x5725 JUMP JUMPDEST PUSH1 0x40 MLOAD SWAP1 DUP2 MSTORE LOG2 DUP1 RETURN JUMPDEST POP CALLVALUE PUSH2 0x572 JUMPI DUP1 PUSH1 0x3 NOT CALLDATASIZE ADD SLT PUSH2 0x572 JUMPI PUSH1 0x2 SLOAD PUSH1 0x40 MLOAD PUSH1 0x1 PUSH1 0x1 PUSH1 0xA0 SHL SUB SWAP1 SWAP2 AND DUP2 MSTORE PUSH1 0x20 SWAP1 RETURN JUMPDEST POP CALLVALUE PUSH2 0x572 JUMPI DUP1 PUSH1 0x3 NOT CALLDATASIZE ADD SLT PUSH2 0x572 JUMPI PUSH2 0x3E49 PUSH2 0x6288 JUMP JUMPDEST PUSH2 0xBAA PUSH2 0x595A JUMP JUMPDEST POP CALLVALUE PUSH2 0x572 JUMPI PUSH1 0x20 CALLDATASIZE PUSH1 0x3 NOT ADD SLT PUSH2 0x572 JUMPI PUSH1 0x60 SWAP1 PUSH1 0x6 SLOAD SWAP1 PUSH1 0x4 CALLDATALOAD DUP2 MSTORE PUSH1 0x19 PUSH1 0x20 MSTORE PUSH1 0x40 DUP1 DUP3 KECCAK256 SLOAD SWAP2 PUSH1 0x18 PUSH1 0x20 MSTORE KECCAK256 SLOAD SWAP1 PUSH1 0x40 MLOAD SWAP3 DUP4 MSTORE PUSH1 0x20 DUP4 ADD MSTORE PUSH1 0x40 DUP3 ADD MSTORE RETURN JUMPDEST POP CALLVALUE PUSH2 0x572 JUMPI DUP1 PUSH1 0x3 NOT CALLDATASIZE ADD SLT PUSH2 0x572 JUMPI PUSH1 0x20 PUSH1 0x7 SLOAD PUSH1 0x40 MLOAD SWAP1 DUP2 MSTORE RETURN JUMPDEST POP CALLVALUE PUSH2 0x572 JUMPI PUSH1 0x40 CALLDATASIZE PUSH1 0x3 NOT ADD SLT PUSH2 0x572 JUMPI PUSH1 0x1 PUSH1 0x1 PUSH1 0x40 SHL SUB PUSH1 0x4 CALLDATALOAD DUP2 DUP2 GT PUSH2 0x247C JUMPI CALLDATASIZE PUSH1 0x23 DUP3 ADD SLT ISZERO PUSH2 0x247C JUMPI DUP1 PUSH1 0x4 ADD CALLDATALOAD SWAP2 PUSH1 0x24 PUSH2 0x3EF3 DUP5 PUSH2 0x5314 JUMP JUMPDEST SWAP2 PUSH2 0x3F01 PUSH1 0x40 MLOAD SWAP4 DUP5 PUSH2 0x522F JUMP JUMPDEST DUP5 DUP4 MSTORE PUSH1 0x20 SWAP4 DUP5 DUP5 ADD DUP4 PUSH1 0x5 SWAP8 PUSH1 0x5 SHL DUP4 ADD ADD SWAP2 CALLDATASIZE DUP4 GT PUSH2 0x35D1 JUMPI DUP5 DUP8 SWAP2 ADD SWAP2 JUMPDEST DUP4 DUP4 LT PUSH2 0x4280 JUMPI POP POP POP POP DUP2 CALLDATALOAD SWAP1 DUP2 GT PUSH2 0x427C JUMPI CALLDATASIZE PUSH1 0x23 DUP3 ADD SLT ISZERO PUSH2 0x427C JUMPI DUP1 PUSH1 0x4 ADD CALLDATALOAD SWAP1 PUSH2 0x3F50 DUP3 PUSH2 0x5314 JUMP JUMPDEST SWAP2 PUSH2 0x3F5E PUSH1 0x40 MLOAD SWAP4 DUP5 PUSH2 0x522F JUMP JUMPDEST DUP1 DUP4 MSTORE DUP4 DUP7 DUP5 ADD SWAP2 PUSH1 0x5 SHL DUP4 ADD ADD SWAP2 CALLDATASIZE DUP4 GT PUSH2 0x35D1 JUMPI DUP5 DUP8 SWAP2 ADD SWAP2 JUMPDEST DUP4 DUP4 LT PUSH2 0x426C JUMPI POP POP POP POP PUSH1 0x0 DUP1 MLOAD PUSH1 0x20 PUSH2 0x6F7D DUP4 CODECOPY DUP2 MLOAD SWAP2 MSTORE DUP7 MSTORE PUSH1 0x1C DUP5 MSTORE PUSH1 0x40 DUP7 KECCAK256 CALLER DUP8 MSTORE DUP5 MSTORE PUSH1 0xFF PUSH1 0x40 DUP8 KECCAK256 SLOAD AND DUP1 ISZERO PUSH2 0x4258 JUMPI JUMPDEST PUSH2 0x3FBB SWAP1 PUSH2 0x57D0 JUMP JUMPDEST PUSH2 0x3FC3 PUSH2 0x62B4 JUMP JUMPDEST DUP3 MLOAD DUP2 MLOAD SUB PUSH2 0x421C JUMPI PUSH1 0xA DUP4 MLOAD GT PUSH2 0x41E1 JUMPI NUMBER DUP7 MSTORE PUSH1 0x28 DUP5 MSTORE PUSH1 0xFF PUSH1 0x40 DUP8 KECCAK256 SLOAD AND PUSH2 0x419D JUMPI NUMBER DUP7 MSTORE PUSH1 0x28 DUP5 MSTORE PUSH1 0x40 DUP7 KECCAK256 SWAP2 PUSH1 0x1 SWAP2 PUSH1 0xFF NOT SWAP4 DUP4 DUP6 DUP3 SLOAD AND OR SWAP1 SSTORE PUSH1 0x27 DUP7 MSTORE PUSH1 0x40 DUP9 KECCAK256 SLOAD DUP4 DUP2 ADD DUP1 SWAP2 GT PUSH2 0x418A JUMPI NUMBER DUP10 MSTORE PUSH1 0x27 DUP8 MSTORE PUSH1 0x40 DUP10 KECCAK256 SSTORE DUP8 SWAP7 DUP8 DUP5 JUMPDEST PUSH2 0x4076 JUMPI JUMPDEST POP POP POP POP POP NUMBER DUP6 MSTORE PUSH1 0x28 DUP4 MSTORE PUSH1 0x40 DUP6 KECCAK256 SWAP1 DUP2 SLOAD AND SWAP1 SSTORE MLOAD SWAP1 PUSH1 0x40 MLOAD SWAP3 DUP4 MSTORE DUP3 ADD MSTORE PUSH32 0xC8A16388AF0851BDC51694269F90C12AF519CFBD71E7AB51D304B3BE25D11184 PUSH1 0x40 NUMBER SWAP3 LOG2 DUP1 RETURN JUMPDEST DUP7 MLOAD DUP2 LT ISZERO PUSH2 0x4185 JUMPI PUSH1 0x1 PUSH1 0x1 PUSH1 0xA0 SHL SUB DUP1 PUSH2 0x4092 DUP4 DUP11 PUSH2 0x587A JUMP JUMPDEST MLOAD AND ISZERO ISZERO DUP1 PUSH2 0x4172 JUMPI JUMPDEST PUSH2 0x40AA JUMPI JUMPDEST POP DUP5 ADD DUP5 PUSH2 0x4027 JUMP JUMPDEST PUSH2 0x40B7 DUP3 DUP10 SWAP12 SWAP4 SWAP12 PUSH2 0x587A JUMP JUMPDEST MLOAD AND PUSH2 0x40C3 DUP11 DUP6 PUSH2 0x587A JUMP JUMPDEST MLOAD SWAP1 DUP1 DUP13 MSTORE PUSH1 0x1E DUP11 MSTORE DUP7 PUSH1 0x40 DUP14 KECCAK256 PUSH2 0x40DC DUP5 DUP3 SLOAD PUSH2 0x562A JUMP JUMPDEST DUP2 SSTORE TIMESTAMP PUSH1 0x3 DUP3 ADD SSTORE ADD DUP1 SLOAD SWAP1 DUP9 DUP3 ADD DUP1 SWAP3 GT PUSH2 0x415F JUMPI SSTORE DUP4 SLOAD DUP13 MSTORE PUSH1 0xB DUP11 MSTORE PUSH1 0x40 DUP13 KECCAK256 PUSH2 0x4109 SWAP2 SWAP1 PUSH2 0x55EF JUMP JUMPDEST DUP3 SLOAD DUP1 DUP13 MSTORE PUSH1 0xC DUP1 DUP12 MSTORE PUSH1 0x40 DUP14 KECCAK256 SLOAD SWAP2 DUP9 DUP4 ADD DUP1 SWAP4 GT PUSH2 0x415F JUMPI DUP14 MSTORE DUP11 MSTORE PUSH1 0x40 DUP13 KECCAK256 SSTORE PUSH2 0x4139 PUSH1 0x6 SWAP2 DUP3 SLOAD PUSH2 0x562A JUMP JUMPDEST SWAP1 SSTORE DUP5 DUP2 ADD DUP1 SWAP2 GT PUSH2 0x414C JUMPI SWAP8 DUP5 PUSH2 0x40A1 JUMP JUMPDEST PUSH4 0x4E487B71 PUSH1 0xE0 SHL DUP11 MSTORE PUSH1 0x11 PUSH1 0x4 MSTORE DUP4 DUP11 REVERT JUMPDEST PUSH4 0x4E487B71 PUSH1 0xE0 SHL DUP15 MSTORE PUSH1 0x11 PUSH1 0x4 MSTORE DUP8 DUP15 REVERT JUMPDEST POP PUSH2 0x417D DUP3 DUP6 PUSH2 0x587A JUMP JUMPDEST MLOAD ISZERO ISZERO PUSH2 0x409C JUMP JUMPDEST PUSH2 0x402C JUMP JUMPDEST PUSH4 0x4E487B71 PUSH1 0xE0 SHL DUP10 MSTORE PUSH1 0x11 PUSH1 0x4 MSTORE DUP3 DUP10 REVERT JUMPDEST PUSH1 0x40 MLOAD PUSH3 0x461BCD PUSH1 0xE5 SHL DUP2 MSTORE PUSH1 0x4 DUP2 ADD DUP6 SWAP1 MSTORE PUSH1 0x1F DUP2 DUP5 ADD MSTORE PUSH32 0x42617463682070726F63657373696E6720616C72656164792061637469766500 PUSH1 0x44 DUP3 ADD MSTORE PUSH1 0x64 SWAP1 REVERT JUMPDEST PUSH1 0x40 MLOAD PUSH3 0x461BCD PUSH1 0xE5 SHL DUP2 MSTORE PUSH1 0x4 DUP2 ADD DUP6 SWAP1 MSTORE PUSH1 0x14 DUP2 DUP5 ADD MSTORE PUSH20 0x42617463682073697A6520746F6F206C61726765 PUSH1 0x60 SHL PUSH1 0x44 DUP3 ADD MSTORE PUSH1 0x64 SWAP1 REVERT JUMPDEST PUSH1 0x40 MLOAD PUSH3 0x461BCD PUSH1 0xE5 SHL DUP2 MSTORE PUSH1 0x4 DUP2 ADD DUP6 SWAP1 MSTORE PUSH1 0x15 DUP2 DUP5 ADD MSTORE PUSH21 0x82E4E4C2F240D8CADCCEE8D040DAD2E6DAC2E8C6D PUSH1 0x5B SHL PUSH1 0x44 DUP3 ADD MSTORE PUSH1 0x64 SWAP1 REVERT JUMPDEST POP PUSH1 0x1 SLOAD PUSH1 0x1 PUSH1 0x1 PUSH1 0xA0 SHL SUB AND CALLER EQ PUSH2 0x3FB2 JUMP JUMPDEST DUP3 CALLDATALOAD DUP2 MSTORE SWAP2 DUP2 ADD SWAP2 DUP8 SWAP2 ADD PUSH2 0x3F7A JUMP JUMPDEST DUP6 DUP1 REVERT JUMPDEST DUP2 SWAP1 PUSH2 0x428B DUP5 PUSH2 0x50B7 JUMP JUMPDEST DUP2 MSTORE ADD SWAP2 ADD SWAP1 DUP7 SWAP1 PUSH2 0x3F22 JUMP JUMPDEST POP CALLVALUE PUSH2 0x572 JUMPI PUSH1 0x20 CALLDATASIZE PUSH1 0x3 NOT ADD SLT PUSH2 0x572 JUMPI PUSH1 0x20 SWAP1 PUSH1 0x40 SWAP1 PUSH1 0x1 PUSH1 0x1 PUSH1 0xA0 SHL SUB PUSH2 0x42C0 PUSH2 0x508B JUMP JUMPDEST AND DUP2 MSTORE PUSH1 0x24 DUP4 MSTORE KECCAK256 SLOAD PUSH1 0x40 MLOAD SWAP1 DUP2 MSTORE RETURN JUMPDEST POP CALLVALUE PUSH2 0x572 JUMPI PUSH1 0x40 CALLDATASIZE PUSH1 0x3 NOT ADD SLT PUSH2 0x572 JUMPI PUSH1 0x4 CALLDATALOAD PUSH2 0x42EE PUSH2 0x50A1 JUMP JUMPDEST DUP2 DUP4 MSTORE PUSH1 0x1D PUSH1 0x20 MSTORE PUSH1 0x40 DUP4 KECCAK256 SLOAD PUSH1 0x1 PUSH1 0x1 PUSH1 0xA0 SHL SUB SWAP2 SWAP1 DUP3 AND CALLER EQ DUP1 ISZERO PUSH2 0x436F JUMPI JUMPDEST PUSH2 0x4319 SWAP1 PUSH2 0x5736 JUMP JUMPDEST AND PUSH2 0x4325 DUP2 ISZERO ISZERO PUSH2 0x5792 JUMP JUMPDEST DUP2 DUP4 MSTORE PUSH1 0x1C PUSH1 0x20 MSTORE PUSH1 0x40 DUP4 KECCAK256 DUP2 DUP5 MSTORE PUSH1 0x20 MSTORE PUSH1 0x40 DUP4 KECCAK256 PUSH1 0x1 PUSH1 0xFF NOT DUP3 SLOAD AND OR SWAP1 SSTORE CALLER SWAP2 PUSH32 0x2F8788117E7EFF1D82E926EC794901D17C78024A50270940304540A733656F0D DUP5 DUP1 LOG4 DUP1 RETURN JUMPDEST POP PUSH1 0x1 SLOAD DUP3 AND CALLER EQ PUSH2 0x4310 JUMP JUMPDEST POP CALLVALUE PUSH2 0x572 JUMPI DUP1 PUSH1 0x3 NOT CALLDATASIZE ADD SLT PUSH2 0x572 JUMPI PUSH1 0x8 SLOAD SWAP1 PUSH3 0x15180 DUP3 ADD DUP1 SWAP3 GT PUSH2 0x1914 JUMPI PUSH1 0x20 DUP3 PUSH1 0x40 MLOAD SWAP1 TIMESTAMP LT ISZERO DUP2 MSTORE RETURN JUMPDEST POP CALLVALUE PUSH2 0x572 JUMPI DUP1 PUSH1 0x3 NOT CALLDATASIZE ADD SLT PUSH2 0x572 JUMPI PUSH1 0x20 PUSH1 0x12 SLOAD PUSH1 0x40 MLOAD SWAP1 DUP2 MSTORE RETURN JUMPDEST POP CALLVALUE PUSH2 0x572 JUMPI DUP1 PUSH1 0x3 NOT CALLDATASIZE ADD SLT PUSH2 0x572 JUMPI PUSH2 0x43E3 PUSH2 0x6332 JUMP JUMPDEST PUSH2 0x43EB PUSH2 0x62B4 JUMP JUMPDEST CALLER DUP2 MSTORE PUSH1 0x20 PUSH1 0x22 DUP2 MSTORE PUSH1 0xFF PUSH2 0x4407 PUSH1 0xFF PUSH1 0x40 DUP6 KECCAK256 SLOAD AND ISZERO PUSH2 0x564D JUMP JUMPDEST CALLER DUP4 MSTORE PUSH1 0x1E DUP3 MSTORE PUSH2 0x4422 PUSH1 0xFF PUSH1 0x6 PUSH1 0x40 DUP7 KECCAK256 ADD SLOAD AND ISZERO PUSH2 0x564D JUMP JUMPDEST CALLER DUP4 MSTORE DUP2 DUP1 MSTORE PUSH1 0x40 DUP4 KECCAK256 SLOAD PUSH1 0x1 PUSH1 0x1 PUSH1 0xA0 SHL SUB SWAP1 DUP2 AND PUSH2 0x45F9 JUMPI DUP3 PUSH1 0x40 MLOAD PUSH2 0x4449 DUP2 PUSH2 0x51A7 JUMP JUMPDEST PUSH1 0x14 DUP1 DUP3 MSTORE DUP3 DUP3 ADD SWAP5 DUP4 CALLDATASIZE DUP8 CALLDATACOPY DUP8 JUMPDEST DUP3 DUP2 LT PUSH2 0x4587 JUMPI POP POP POP PUSH2 0x457D SWAP3 PUSH1 0x3 PUSH2 0x44F9 PUSH32 0x9ABA81A9970F49ADFCB9191B4663D4A18A3A6236FBBEF5E36C5478A55FD4A03A SWAP7 SWAP5 PUSH2 0x456A SWAP5 PUSH2 0x44E8 PUSH1 0x25 PUSH2 0x44A0 TIMESTAMP PUSH2 0x6C51 JUMP JUMPDEST SWAP9 PUSH1 0x40 MLOAD SWAP10 DUP11 SWAP2 PUSH2 0x44C5 DUP8 DUP5 ADD SWAP7 PUSH5 0x50495A5A41 PUSH1 0xD8 SHL DUP9 MSTORE MLOAD DUP1 SWAP3 DUP7 DUP7 ADD SWAP1 PUSH2 0x52D5 JUMP JUMPDEST DUP3 ADD PUSH2 0x44D9 DUP3 MLOAD DUP1 SWAP4 DUP10 DUP8 DUP6 ADD SWAP2 ADD PUSH2 0x52D5 JUMP JUMPDEST ADD SUB PUSH1 0x5 DUP2 ADD DUP11 MSTORE ADD DUP9 PUSH2 0x522F JUMP JUMPDEST PUSH1 0x40 MLOAD DUP1 SWAP4 DUP2 SWAP3 DUP10 MLOAD SWAP3 DUP4 SWAP2 PUSH2 0x52D5 JUMP JUMPDEST PUSH1 0x1F SWAP1 DUP3 ADD SWAP1 DUP2 MSTORE SUB ADD SWAP1 KECCAK256 DUP1 SLOAD PUSH1 0x1 PUSH1 0x1 PUSH1 0xA0 SHL SUB NOT SWAP1 DUP2 AND CALLER OR SWAP1 SWAP2 SSTORE PUSH1 0x40 MLOAD SWAP3 SWAP1 PUSH2 0x4526 DUP5 PUSH2 0x512B JUMP JUMPDEST CALLER DUP5 MSTORE DUP9 DUP5 ADD DUP11 DUP2 MSTORE PUSH1 0x40 DUP6 ADD SWAP2 DUP12 DUP4 MSTORE PUSH1 0x60 DUP7 ADD SWAP4 PUSH1 0x1 DUP6 MSTORE CALLER DUP14 MSTORE DUP12 DUP1 MSTORE PUSH1 0x40 DUP14 KECCAK256 SWAP7 MLOAD AND SWAP1 DUP7 SLOAD AND OR DUP6 SSTORE MLOAD PUSH1 0x1 DUP6 ADD SSTORE MLOAD PUSH1 0x2 DUP5 ADD SSTORE MLOAD ISZERO ISZERO SWAP2 ADD PUSH2 0x5725 JUMP JUMPDEST PUSH1 0x40 MLOAD SWAP2 DUP3 SWAP2 DUP6 DUP4 MSTORE CALLER SWAP6 DUP4 ADD SWAP1 PUSH2 0x541A JUMP JUMPDEST SUB SWAP1 LOG2 PUSH1 0x1 DUP2 SSTORE DUP1 RETURN JUMPDEST SWAP1 SWAP2 SWAP3 SWAP4 POP PUSH1 0x13 DUP2 DUP2 SUB SWAP1 DUP2 GT PUSH2 0x45E5 JUMPI PUSH1 0x3 DUP2 SWAP1 SHL SWAP1 PUSH1 0x1 PUSH1 0x1 PUSH1 0xFD SHL SUB DUP2 AND SUB PUSH2 0x45E5 JUMPI DUP3 DUP2 GT PUSH2 0x45E5 JUMPI SWAP1 PUSH1 0x1 SWAP2 PUSH2 0x45C9 DUP4 PUSH1 0xFF PUSH1 0xF8 SHL SWAP3 SHL CALLER PUSH2 0x58BF JUMP JUMPDEST PUSH1 0xF8 SHL AND DUP10 BYTE PUSH2 0x45D9 DUP3 DUP8 PUSH2 0x696E JUMP JUMPDEST MSTORE8 ADD SWAP1 DUP7 SWAP4 SWAP3 SWAP2 PUSH2 0x4458 JUMP JUMPDEST PUSH4 0x4E487B71 PUSH1 0xE0 SHL DUP10 MSTORE PUSH1 0x11 PUSH1 0x4 MSTORE PUSH1 0x24 DUP10 REVERT JUMPDEST PUSH1 0x40 MLOAD PUSH3 0x461BCD PUSH1 0xE5 SHL DUP2 MSTORE PUSH1 0x4 DUP2 ADD DUP5 SWAP1 MSTORE PUSH1 0x1C PUSH1 0x24 DUP3 ADD MSTORE PUSH28 0x526566657272616C20636F646520616C726561647920657869737473 PUSH1 0x20 SHL PUSH1 0x44 DUP3 ADD MSTORE PUSH1 0x64 SWAP1 REVERT JUMPDEST POP CALLVALUE PUSH2 0x572 JUMPI PUSH1 0x20 CALLDATASIZE PUSH1 0x3 NOT ADD SLT PUSH2 0x572 JUMPI PUSH1 0xFF PUSH1 0x40 PUSH1 0x20 SWAP3 PUSH1 0x4 CALLDATALOAD DUP2 MSTORE PUSH1 0x17 DUP5 MSTORE KECCAK256 SLOAD AND PUSH1 0x40 MLOAD SWAP1 ISZERO ISZERO DUP2 MSTORE RETURN JUMPDEST POP CALLVALUE PUSH2 0x572 JUMPI DUP1 PUSH1 0x3 NOT CALLDATASIZE ADD SLT PUSH2 0x572 JUMPI PUSH1 0x20 PUSH1 0x2A SLOAD PUSH1 0x40 MLOAD SWAP1 DUP2 MSTORE RETURN JUMPDEST POP CALLVALUE PUSH2 0x572 JUMPI PUSH1 0x20 PUSH2 0x469B CALLDATASIZE PUSH2 0x526D JUMP JUMPDEST DUP2 PUSH2 0x46AF PUSH1 0x40 MLOAD SWAP3 DUP4 DUP2 MLOAD SWAP4 DUP5 SWAP3 ADD PUSH2 0x52D5 JUMP JUMPDEST PUSH1 0x1F SWAP1 DUP3 ADD SWAP1 DUP2 MSTORE DUP2 SWAP1 SUB DUP3 ADD SWAP1 KECCAK256 SLOAD PUSH1 0x40 MLOAD PUSH1 0x1 PUSH1 0x1 PUSH1 0xA0 SHL SUB SWAP1 SWAP2 AND DUP2 MSTORE RETURN JUMPDEST POP CALLVALUE PUSH2 0x572 JUMPI DUP1 PUSH1 0x3 NOT CALLDATASIZE ADD SLT PUSH2 0x572 JUMPI PUSH1 0x4 SLOAD PUSH1 0x40 MLOAD PUSH1 0x1 PUSH1 0x1 PUSH1 0xA0 SHL SUB SWAP1 SWAP2 AND DUP2 MSTORE PUSH1 0x20 SWAP1 RETURN JUMPDEST POP CALLVALUE PUSH2 0x572 JUMPI PUSH1 0x20 DUP1 PUSH1 0x3 NOT CALLDATASIZE ADD SLT PUSH2 0x1AEE JUMPI PUSH1 0x4 CALLDATALOAD PUSH2 0x4718 PUSH2 0x6332 JUMP JUMPDEST PUSH2 0x4720 PUSH2 0x62B4 JUMP JUMPDEST CALLER DUP4 MSTORE PUSH1 0x22 DUP3 MSTORE PUSH2 0x4738 PUSH1 0xFF PUSH1 0x40 DUP6 KECCAK256 SLOAD AND ISZERO PUSH2 0x564D JUMP JUMPDEST CALLER DUP4 MSTORE PUSH1 0x1E SWAP2 DUP3 DUP2 MSTORE PUSH2 0x4755 PUSH1 0xFF PUSH1 0x6 PUSH1 0x40 DUP8 KECCAK256 ADD SLOAD AND ISZERO PUSH2 0x564D JUMP JUMPDEST CALLER DUP5 MSTORE DUP3 DUP2 MSTORE PUSH1 0xC PUSH1 0x40 DUP6 KECCAK256 ADD SLOAD PUSH3 0x15180 DUP2 ADD DUP1 SWAP2 GT PUSH2 0x1571 JUMPI PUSH2 0x477C SWAP1 TIMESTAMP LT ISZERO PUSH2 0x5691 JUMP JUMPDEST CALLER DUP5 MSTORE DUP3 DUP2 MSTORE PUSH2 0x4795 PUSH1 0x64 PUSH1 0xE PUSH1 0x40 DUP8 KECCAK256 ADD SLOAD LT PUSH2 0x56DC JUMP JUMPDEST DUP2 DUP5 MSTORE PUSH1 0x23 DUP2 MSTORE PUSH1 0x40 DUP5 KECCAK256 SWAP3 PUSH1 0xFF PUSH1 0x4 DUP6 ADD SLOAD AND ISZERO PUSH2 0x4962 JUMPI PUSH1 0x5 DUP5 ADD SWAP1 CALLER DUP7 MSTORE DUP2 DUP4 MSTORE PUSH1 0xFF PUSH1 0x40 DUP8 KECCAK256 SLOAD AND PUSH2 0x491F JUMPI PUSH1 0x2 DUP6 ADD SWAP2 DUP3 SLOAD DUP1 ISZERO PUSH2 0x48DF JUMPI PUSH2 0x3E8 DUP2 GT PUSH2 0x489E JUMPI PUSH2 0x47E5 SWAP1 CALLER PUSH2 0x6355 JUMP JUMPDEST CALLER DUP8 MSTORE DUP4 MSTORE PUSH1 0x40 DUP7 KECCAK256 PUSH1 0x1 PUSH1 0xFF NOT DUP3 SLOAD AND OR SWAP1 SSTORE DUP1 DUP4 MSTORE PUSH1 0xA PUSH1 0x40 DUP8 KECCAK256 ADD SLOAD PUSH1 0x1 DUP2 ADD DUP1 SWAP2 GT PUSH2 0x2C2B JUMPI SWAP2 PUSH1 0x0 DUP1 MLOAD PUSH1 0x20 PUSH2 0x6FDD DUP4 CODECOPY DUP2 MLOAD SWAP2 MSTORE SWAP5 SWAP4 SWAP2 PUSH2 0x4840 PUSH1 0x40 SWAP5 CALLER DUP11 MSTORE DUP3 DUP6 MSTORE DUP6 DUP11 KECCAK256 SWAP1 PUSH1 0xA DUP3 ADD SSTORE SLOAD DUP4 SLOAD SWAP1 PUSH2 0x562A JUMP JUMPDEST SWAP1 CALLER DUP10 MSTORE DUP4 MSTORE DUP4 DUP9 KECCAK256 SWAP1 DUP2 SSTORE PUSH1 0xC TIMESTAMP SWAP2 ADD SSTORE SLOAD SWAP3 DUP3 MLOAD SWAP1 DUP2 MSTORE DUP4 DUP3 DUP3 ADD MSTORE PUSH32 0x20861823FA14B60D3F02CC6E48B647AC592DD27E39A78F278DF5C918DABB8B2C DUP4 CALLER SWAP3 LOG2 DUP2 MLOAD SWAP3 DUP4 MSTORE DUP3 ADD MSTORE DUP1 PUSH2 0x457D CALLER SWAP5 PUSH1 0x1 PUSH1 0x40 DUP5 ADD SWAP2 ADD PUSH2 0x535D JUMP JUMPDEST PUSH1 0x40 MLOAD PUSH3 0x461BCD PUSH1 0xE5 SHL DUP2 MSTORE PUSH1 0x4 DUP2 ADD DUP7 SWAP1 MSTORE PUSH1 0x19 PUSH1 0x24 DUP3 ADD MSTORE PUSH25 0x86D0C2D8D8CADCCECA40E4CAEEC2E4C840E8DEDE40D0D2CED PUSH1 0x3B SHL PUSH1 0x44 DUP3 ADD MSTORE PUSH1 0x64 SWAP1 REVERT JUMPDEST PUSH1 0x40 MLOAD PUSH3 0x461BCD PUSH1 0xE5 SHL DUP2 MSTORE PUSH1 0x4 DUP2 ADD DUP7 SWAP1 MSTORE PUSH1 0x18 PUSH1 0x24 DUP3 ADD MSTORE PUSH24 0x125B9D985B1A590818DA185B1B195B99D9481C995DD85C99 PUSH1 0x42 SHL PUSH1 0x44 DUP3 ADD MSTORE PUSH1 0x64 SWAP1 REVERT JUMPDEST PUSH1 0x40 MLOAD PUSH3 0x461BCD PUSH1 0xE5 SHL DUP2 MSTORE PUSH1 0x4 DUP2 ADD DUP5 SWAP1 MSTORE PUSH1 0x1B PUSH1 0x24 DUP3 ADD MSTORE PUSH27 0x10DA185B1B195B99D948185B1C9958591E4818DBDB5C1B195D1959 PUSH1 0x2A SHL PUSH1 0x44 DUP3 ADD MSTORE PUSH1 0x64 SWAP1 REVERT JUMPDEST PUSH1 0x40 MLOAD PUSH3 0x461BCD PUSH1 0xE5 SHL DUP2 MSTORE PUSH1 0x4 DUP2 ADD DUP4 SWAP1 MSTORE PUSH1 0x14 PUSH1 0x24 DUP3 ADD MSTORE PUSH20 0x4368616C6C656E6765206E6F7420616374697665 PUSH1 0x60 SHL PUSH1 0x44 DUP3 ADD MSTORE PUSH1 0x64 SWAP1 REVERT JUMPDEST POP CALLVALUE PUSH2 0x572 JUMPI DUP1 PUSH1 0x3 NOT CALLDATASIZE ADD SLT PUSH2 0x572 JUMPI PUSH2 0x49B7 PUSH2 0x6332 JUMP JUMPDEST PUSH2 0x49BF PUSH2 0x62B4 JUMP JUMPDEST CALLER DUP2 MSTORE PUSH1 0x20 PUSH1 0x22 DUP2 MSTORE PUSH2 0x49D9 PUSH1 0xFF PUSH1 0x40 DUP5 KECCAK256 SLOAD AND ISZERO PUSH2 0x564D JUMP JUMPDEST CALLER DUP3 MSTORE PUSH1 0x1E DUP1 DUP3 MSTORE PUSH2 0x49F5 PUSH1 0xFF PUSH1 0x6 PUSH1 0x40 DUP7 KECCAK256 ADD SLOAD AND ISZERO PUSH2 0x564D JUMP JUMPDEST CALLER DUP4 MSTORE DUP1 DUP3 MSTORE PUSH1 0xC PUSH1 0x40 DUP5 KECCAK256 ADD SLOAD PUSH3 0x15180 SWAP1 DUP2 DUP2 ADD DUP1 SWAP2 GT PUSH2 0x1571 JUMPI PUSH2 0x4A1E SWAP1 TIMESTAMP LT ISZERO PUSH2 0x5691 JUMP JUMPDEST CALLER DUP5 MSTORE DUP2 DUP4 MSTORE PUSH2 0x4A37 PUSH1 0x64 PUSH1 0xE PUSH1 0x40 DUP8 KECCAK256 ADD SLOAD LT PUSH2 0x56DC JUMP JUMPDEST CALLER DUP5 MSTORE DUP2 DUP4 MSTORE PUSH1 0x7 PUSH1 0x4 PUSH1 0x40 DUP7 KECCAK256 ADD SLOAD LT PUSH2 0x4B8E JUMPI CALLER DUP5 MSTORE DUP2 DUP4 MSTORE PUSH1 0x5 PUSH1 0x40 DUP6 KECCAK256 ADD SLOAD SWAP1 DUP2 ADD DUP1 SWAP2 GT PUSH2 0x91B JUMPI TIMESTAMP LT PUSH2 0x4B3E JUMPI CALLER DUP4 MSTORE PUSH1 0x24 SWAP1 DUP2 DUP4 MSTORE PUSH1 0x40 DUP5 KECCAK256 SLOAD PUSH1 0x3 DUP2 ADD DUP1 SWAP2 GT PUSH2 0x4B2B JUMPI PUSH1 0x64 DUP2 GT PUSH2 0x1161 JUMPI CALLER DUP6 MSTORE DUP3 DUP5 MSTORE PUSH1 0x40 DUP6 KECCAK256 SSTORE DUP1 DUP4 MSTORE PUSH1 0xE PUSH1 0x40 DUP6 KECCAK256 ADD SLOAD PUSH1 0x3 DUP2 ADD DUP1 SWAP2 GT PUSH2 0x4B2B JUMPI CALLER DUP6 MSTORE DUP2 DUP5 MSTORE PUSH1 0x40 DUP6 KECCAK256 SWAP1 PUSH1 0xE DUP3 ADD SSTORE SLOAD SWAP2 PUSH1 0x3 DUP4 ADD DUP1 SWAP4 GT PUSH2 0x113A JUMPI POP CALLER DUP5 MSTORE DUP3 MSTORE PUSH1 0x40 DUP4 KECCAK256 SWAP1 DUP2 SSTORE TIMESTAMP PUSH1 0x5 DUP3 ADD SSTORE PUSH1 0xC TIMESTAMP SWAP2 ADD SSTORE PUSH1 0x40 DUP1 MLOAD SWAP2 PUSH1 0x3 DUP4 MSTORE DUP3 ADD MSTORE PUSH1 0x12 PUSH1 0x40 DUP3 ADD MSTORE PUSH18 0x372D6461792073747265616B20626F6E7573 PUSH1 0x70 SHL PUSH1 0x60 DUP3 ADD MSTORE PUSH1 0x0 DUP1 MLOAD PUSH1 0x20 PUSH2 0x6FDD DUP4 CODECOPY DUP2 MLOAD SWAP2 MSTORE PUSH1 0x80 CALLER SWAP3 LOG2 PUSH1 0x1 DUP2 SSTORE DUP1 RETURN JUMPDEST PUSH4 0x4E487B71 PUSH1 0xE0 SHL DUP6 MSTORE PUSH1 0x11 PUSH1 0x4 MSTORE DUP3 DUP6 REVERT JUMPDEST PUSH1 0x40 MLOAD PUSH3 0x461BCD PUSH1 0xE5 SHL DUP2 MSTORE PUSH1 0x4 DUP2 ADD DUP4 SWAP1 MSTORE PUSH1 0x22 PUSH1 0x24 DUP3 ADD MSTORE PUSH32 0x53747265616B20626F6E757320616C726561647920636C61696D656420746F64 PUSH1 0x44 DUP3 ADD MSTORE PUSH2 0x6179 PUSH1 0xF0 SHL PUSH1 0x64 DUP3 ADD MSTORE PUSH1 0x84 SWAP1 REVERT JUMPDEST PUSH1 0x40 MLOAD PUSH3 0x461BCD PUSH1 0xE5 SHL DUP2 MSTORE PUSH1 0x4 DUP2 ADD DUP5 SWAP1 MSTORE PUSH1 0x18 PUSH1 0x24 DUP3 ADD MSTORE PUSH24 0xDCB59185E481CDD1C99585AC81B9BDD081C995858DA1959 PUSH1 0x42 SHL PUSH1 0x44 DUP3 ADD MSTORE PUSH1 0x64 SWAP1 REVERT JUMPDEST POP CALLVALUE PUSH2 0x572 JUMPI PUSH1 0x20 DUP1 PUSH1 0x3 NOT CALLDATASIZE ADD SLT PUSH2 0x1AEE JUMPI PUSH1 0x80 SWAP2 PUSH1 0x40 PUSH2 0x4BEE PUSH2 0x508B JUMP JUMPDEST SWAP2 DUP1 PUSH1 0x60 DUP4 MLOAD PUSH2 0x4BFD DUP2 PUSH2 0x512B JUMP JUMPDEST DUP3 DUP2 MSTORE DUP7 DUP2 ADD DUP4 SWAP1 MSTORE DUP5 DUP2 ADD DUP4 SWAP1 MSTORE ADD MSTORE PUSH1 0x1 PUSH1 0x1 PUSH1 0xA0 SHL SUB SWAP3 DUP4 AND DUP2 MSTORE DUP4 DUP1 MSTORE KECCAK256 PUSH1 0x40 MLOAD SWAP2 PUSH2 0x4C2C DUP4 PUSH2 0x512B JUMP JUMPDEST DUP2 SLOAD AND SWAP3 DUP4 DUP4 MSTORE PUSH1 0x1 DUP3 ADD SLOAD DUP2 DUP5 ADD SWAP1 DUP2 MSTORE PUSH1 0x60 PUSH1 0xFF PUSH1 0x3 PUSH1 0x2 DUP7 ADD SLOAD SWAP6 PUSH1 0x40 DUP9 ADD SWAP7 DUP8 MSTORE ADD SLOAD AND SWAP5 ADD SWAP4 ISZERO ISZERO DUP5 MSTORE PUSH1 0x40 MLOAD SWAP5 DUP6 MSTORE MLOAD SWAP1 DUP5 ADD MSTORE MLOAD PUSH1 0x40 DUP4 ADD MSTORE MLOAD ISZERO ISZERO PUSH1 0x60 DUP3 ADD MSTORE RETURN JUMPDEST POP CALLVALUE PUSH2 0x572 JUMPI DUP1 PUSH1 0x3 NOT CALLDATASIZE ADD SLT PUSH2 0x572 JUMPI PUSH1 0x20 PUSH1 0x40 MLOAD PUSH1 0x0 DUP1 MLOAD PUSH1 0x20 PUSH2 0x6F1D DUP4 CODECOPY DUP2 MLOAD SWAP2 MSTORE DUP2 MSTORE RETURN JUMPDEST POP CALLVALUE PUSH2 0x572 JUMPI DUP1 PUSH1 0x3 NOT CALLDATASIZE ADD SLT PUSH2 0x572 JUMPI PUSH1 0x40 MLOAD PUSH32 0x0 PUSH1 0x1 PUSH1 0x1 PUSH1 0xA0 SHL SUB AND DUP2 MSTORE PUSH1 0x20 SWAP1 RETURN JUMPDEST POP CALLVALUE PUSH2 0x572 JUMPI PUSH1 0x20 CALLDATASIZE PUSH1 0x3 NOT ADD SLT PUSH2 0x572 JUMPI PUSH1 0xFF PUSH1 0x40 PUSH1 0x20 SWAP3 PUSH1 0x4 CALLDATALOAD DUP2 MSTORE PUSH1 0x14 DUP5 MSTORE KECCAK256 SLOAD AND PUSH1 0x40 MLOAD SWAP1 ISZERO ISZERO DUP2 MSTORE RETURN JUMPDEST POP CALLVALUE PUSH2 0x572 JUMPI DUP1 PUSH1 0x3 NOT CALLDATASIZE ADD SLT PUSH2 0x572 JUMPI PUSH1 0x20 PUSH1 0x1A SLOAD PUSH1 0x40 MLOAD SWAP1 DUP2 MSTORE RETURN JUMPDEST POP CALLVALUE PUSH2 0x572 JUMPI DUP1 PUSH1 0x3 NOT CALLDATASIZE ADD SLT PUSH2 0x572 JUMPI PUSH1 0x20 PUSH1 0x40 MLOAD PUSH1 0x8 DUP2 MSTORE RETURN JUMPDEST POP CALLVALUE PUSH2 0x572 JUMPI PUSH1 0x20 DUP1 PUSH1 0x3 NOT CALLDATASIZE ADD SLT PUSH2 0x1AEE JUMPI PUSH1 0x4 CALLDATALOAD SWAP1 PUSH2 0x4D6C PUSH2 0x62B4 JUMP JUMPDEST DUP2 ISZERO PUSH2 0x4E29 JUMPI PUSH2 0x4D7B CALLER PUSH2 0x62D5 JUMP JUMPDEST PUSH2 0x4DEF JUMPI PUSH1 0x13 SLOAD DUP4 MSTORE PUSH1 0x11 DUP2 MSTORE PUSH2 0x4D95 CALLER PUSH1 0x40 DUP6 KECCAK256 PUSH2 0x55EF JUMP JUMPDEST PUSH1 0x13 SLOAD DUP1 DUP5 MSTORE PUSH1 0x10 DUP3 MSTORE PUSH2 0x4DAD DUP4 PUSH1 0x40 DUP7 KECCAK256 SLOAD PUSH2 0x562A JUMP JUMPDEST SWAP1 DUP5 MSTORE PUSH1 0x10 DUP3 MSTORE PUSH1 0x40 DUP5 KECCAK256 SSTORE PUSH1 0x13 SLOAD SWAP1 PUSH1 0x40 MLOAD SWAP3 DUP4 MSTORE DUP3 ADD MSTORE PUSH32 0xEFE539503E4A6BC6D750ABE6F7471EA59543AD95E1757FCD02ECB9A6C212E920 PUSH1 0x40 CALLER SWAP3 LOG2 DUP1 RETURN JUMPDEST PUSH1 0x64 SWAP1 PUSH1 0x40 MLOAD SWAP1 PUSH3 0x461BCD PUSH1 0xE5 SHL DUP3 MSTORE PUSH1 0x4 DUP3 ADD MSTORE PUSH1 0x13 PUSH1 0x24 DUP3 ADD MSTORE PUSH19 0x105B1C9958591E4818DBDB9D1C9A589D5D1959 PUSH1 0x6A SHL PUSH1 0x44 DUP3 ADD MSTORE REVERT JUMPDEST PUSH1 0x64 SWAP1 PUSH1 0x40 MLOAD SWAP1 PUSH3 0x461BCD PUSH1 0xE5 SHL DUP3 MSTORE PUSH1 0x4 DUP3 ADD MSTORE PUSH1 0xF PUSH1 0x24 DUP3 ADD MSTORE PUSH15 0x496E76616C696420656E74726F7079 PUSH1 0x88 SHL PUSH1 0x44 DUP3 ADD MSTORE REVERT JUMPDEST POP CALLVALUE PUSH2 0x572 JUMPI PUSH1 0x20 CALLDATASIZE PUSH1 0x3 NOT ADD SLT PUSH2 0x572 JUMPI PUSH1 0x40 PUSH1 0xE0 SWAP2 PUSH1 0x4 CALLDATALOAD DUP2 MSTORE PUSH1 0x21 PUSH1 0x20 MSTORE KECCAK256 DUP1 SLOAD SWAP1 PUSH1 0x1 DUP2 ADD SLOAD SWAP1 PUSH1 0x2 DUP2 ADD SLOAD PUSH1 0x3 DUP3 ADD SLOAD PUSH1 0x4 DUP4 ADD SLOAD SWAP2 PUSH1 0x7 PUSH1 0xFF PUSH1 0x6 DUP7 ADD SLOAD AND SWAP5 ADD SLOAD SWAP5 PUSH1 0x40 MLOAD SWAP7 DUP8 MSTORE PUSH1 0x20 DUP8 ADD MSTORE PUSH1 0x40 DUP7 ADD MSTORE PUSH1 0x60 DUP6 ADD MSTORE PUSH1 0x80 DUP5 ADD MSTORE ISZERO ISZERO PUSH1 0xA0 DUP4 ADD MSTORE PUSH1 0xC0 DUP3 ADD MSTORE RETURN JUMPDEST POP CALLVALUE PUSH2 0x572 JUMPI PUSH2 0x4EDF CALLDATASIZE PUSH2 0x50CB JUMP JUMPDEST SWAP2 SWAP1 DUP2 MSTORE PUSH1 0x11 PUSH1 0x20 MSTORE PUSH1 0x40 DUP2 KECCAK256 SWAP1 DUP2 SLOAD DUP4 LT ISZERO PUSH2 0x572 JUMPI PUSH1 0x20 PUSH2 0x62D DUP5 DUP5 PUSH2 0x50E1 JUMP JUMPDEST POP CALLVALUE PUSH2 0x572 JUMPI DUP1 PUSH1 0x3 NOT CALLDATASIZE ADD SLT PUSH2 0x572 JUMPI PUSH2 0x4F1B PUSH2 0x6288 JUMP JUMPDEST PUSH2 0x4F23 PUSH2 0x62B4 JUMP JUMPDEST PUSH1 0x2 SLOAD PUSH1 0x40 MLOAD PUSH4 0xF8413B07 PUSH1 0xE0 SHL DUP2 MSTORE SWAP1 PUSH1 0x20 SWAP1 DUP3 SWAP1 PUSH1 0x4 SWAP1 DUP3 SWAP1 DUP7 SWAP1 PUSH1 0x1 PUSH1 0x1 PUSH1 0xA0 SHL SUB AND GAS CALL SWAP1 DUP2 ISZERO PUSH2 0xE37 JUMPI DUP3 SWAP2 PUSH2 0x4F94 JUMPI JUMPDEST POP PUSH1 0x40 DUP2 PUSH32 0x3D94FECEDAA4F90B8BD459797ADB95F5BB11426025C5541390D9CCC1AD1B60A1 SWAP3 PUSH1 0xA SSTORE PUSH1 0x5 SLOAD SWAP1 DUP3 MLOAD SWAP2 DUP3 MSTORE PUSH1 0x20 DUP3 ADD MSTORE LOG1 DUP1 RETURN JUMPDEST SWAP1 POP PUSH1 0x20 DUP2 RETURNDATASIZE PUSH1 0x20 GT PUSH2 0x4FBF JUMPI JUMPDEST DUP2 PUSH2 0x4FAF PUSH1 0x20 SWAP4 DUP4 PUSH2 0x522F JUMP JUMPDEST DUP2 ADD SUB SLT PUSH2 0x1AEE JUMPI MLOAD PUSH1 0x40 PUSH2 0x4F59 JUMP JUMPDEST RETURNDATASIZE SWAP2 POP PUSH2 0x4FA2 JUMP JUMPDEST POP CALLVALUE PUSH2 0x572 JUMPI DUP1 PUSH1 0x3 NOT CALLDATASIZE ADD SLT PUSH2 0x572 JUMPI PUSH1 0x4 DUP1 SLOAD PUSH1 0x40 MLOAD PUSH4 0xD73EBB5 PUSH1 0xE0 SHL DUP2 MSTORE SWAP2 PUSH1 0x20 SWAP2 DUP4 SWAP2 SWAP1 DUP3 SWAP1 PUSH1 0x1 PUSH1 0x1 PUSH1 0xA0 SHL SUB AND GAS STATICCALL SWAP1 DUP2 ISZERO PUSH2 0xE37 JUMPI DUP3 SWAP2 PUSH2 0x27D9 JUMPI PUSH1 0x20 DUP3 PUSH1 0x40 MLOAD SWAP1 DUP2 MSTORE RETURN JUMPDEST POP CALLVALUE PUSH2 0x572 JUMPI DUP1 PUSH1 0x3 NOT CALLDATASIZE ADD SLT PUSH2 0x572 JUMPI PUSH1 0x20 PUSH1 0x40 MLOAD PUSH2 0x12C DUP2 MSTORE RETURN JUMPDEST POP CALLVALUE PUSH2 0x572 JUMPI DUP1 PUSH1 0x3 NOT CALLDATASIZE ADD SLT PUSH2 0x572 JUMPI PUSH1 0x20 PUSH1 0xFF PUSH1 0x16 SLOAD AND PUSH1 0x40 MLOAD SWAP1 ISZERO ISZERO DUP2 MSTORE RETURN JUMPDEST SWAP1 POP CALLVALUE PUSH2 0x1AEE JUMPI PUSH1 0x20 CALLDATASIZE PUSH1 0x3 NOT ADD SLT PUSH2 0x1AEE JUMPI PUSH1 0x20 SWAP2 PUSH1 0x40 SWAP1 PUSH1 0x1 PUSH1 0x1 PUSH1 0xA0 SHL SUB PUSH2 0x507E PUSH2 0x508B JUMP JUMPDEST AND DUP2 MSTORE PUSH1 0x25 DUP5 MSTORE KECCAK256 SLOAD DUP2 MSTORE RETURN JUMPDEST PUSH1 0x4 CALLDATALOAD SWAP1 PUSH1 0x1 PUSH1 0x1 PUSH1 0xA0 SHL SUB DUP3 AND DUP3 SUB PUSH2 0x884 JUMPI JUMP JUMPDEST PUSH1 0x24 CALLDATALOAD SWAP1 PUSH1 0x1 PUSH1 0x1 PUSH1 0xA0 SHL SUB DUP3 AND DUP3 SUB PUSH2 0x884 JUMPI JUMP JUMPDEST CALLDATALOAD SWAP1 PUSH1 0x1 PUSH1 0x1 PUSH1 0xA0 SHL SUB DUP3 AND DUP3 SUB PUSH2 0x884 JUMPI JUMP JUMPDEST PUSH1 0x40 SWAP1 PUSH1 0x3 NOT ADD SLT PUSH2 0x884 JUMPI PUSH1 0x4 CALLDATALOAD SWAP1 PUSH1 0x24 CALLDATALOAD SWAP1 JUMP JUMPDEST DUP1 SLOAD DUP3 LT ISZERO PUSH2 0x50F9 JUMPI PUSH1 0x0 MSTORE PUSH1 0x20 PUSH1 0x0 KECCAK256 ADD SWAP1 PUSH1 0x0 SWAP1 JUMP JUMPDEST PUSH4 0x4E487B71 PUSH1 0xE0 SHL PUSH1 0x0 MSTORE PUSH1 0x32 PUSH1 0x4 MSTORE PUSH1 0x24 PUSH1 0x0 REVERT JUMPDEST CALLVALUE PUSH2 0x884 JUMPI PUSH1 0x0 CALLDATASIZE PUSH1 0x3 NOT ADD SLT PUSH2 0x884 JUMPI PUSH1 0x20 PUSH1 0x40 MLOAD PUSH1 0xA DUP2 MSTORE RETURN JUMPDEST PUSH1 0x80 DUP2 ADD SWAP1 DUP2 LT PUSH1 0x1 PUSH1 0x1 PUSH1 0x40 SHL SUB DUP3 GT OR PUSH2 0x5146 JUMPI PUSH1 0x40 MSTORE JUMP JUMPDEST PUSH4 0x4E487B71 PUSH1 0xE0 SHL PUSH1 0x0 MSTORE PUSH1 0x41 PUSH1 0x4 MSTORE PUSH1 0x24 PUSH1 0x0 REVERT JUMPDEST PUSH2 0x220 DUP2 ADD SWAP1 DUP2 LT PUSH1 0x1 PUSH1 0x1 PUSH1 0x40 SHL SUB DUP3 GT OR PUSH2 0x5146 JUMPI PUSH1 0x40 MSTORE JUMP JUMPDEST PUSH2 0x100 DUP2 ADD SWAP1 DUP2 LT PUSH1 0x1 PUSH1 0x1 PUSH1 0x40 SHL SUB DUP3 GT OR PUSH2 0x5146 JUMPI PUSH1 0x40 MSTORE JUMP JUMPDEST PUSH1 0x1 PUSH1 0x1 PUSH1 0x40 SHL SUB DUP2 GT PUSH2 0x5146 JUMPI PUSH1 0x40 MSTORE JUMP JUMPDEST PUSH1 0x40 DUP2 ADD SWAP1 DUP2 LT PUSH1 0x1 PUSH1 0x1 PUSH1 0x40 SHL SUB DUP3 GT OR PUSH2 0x5146 JUMPI PUSH1 0x40 MSTORE JUMP JUMPDEST PUSH1 0x20 DUP2 ADD SWAP1 DUP2 LT PUSH1 0x1 PUSH1 0x1 PUSH1 0x40 SHL SUB DUP3 GT OR PUSH2 0x5146 JUMPI PUSH1 0x40 MSTORE JUMP JUMPDEST PUSH1 0x60 DUP2 ADD SWAP1 DUP2 LT PUSH1 0x1 PUSH1 0x1 PUSH1 0x40 SHL SUB DUP3 GT OR PUSH2 0x5146 JUMPI PUSH1 0x40 MSTORE JUMP JUMPDEST PUSH1 0xC0 DUP2 ADD SWAP1 DUP2 LT PUSH1 0x1 PUSH1 0x1 PUSH1 0x40 SHL SUB DUP3 GT OR PUSH2 0x5146 JUMPI PUSH1 0x40 MSTORE JUMP JUMPDEST PUSH2 0x120 DUP2 ADD SWAP1 DUP2 LT PUSH1 0x1 PUSH1 0x1 PUSH1 0x40 SHL SUB DUP3 GT OR PUSH2 0x5146 JUMPI PUSH1 0x40 MSTORE JUMP JUMPDEST PUSH1 0x1F SWAP1 SWAP2 ADD PUSH1 0x1F NOT AND DUP2 ADD SWAP1 PUSH1 0x1 PUSH1 0x1 PUSH1 0x40 SHL SUB DUP3 GT SWAP1 DUP3 LT OR PUSH2 0x5146 JUMPI PUSH1 0x40 MSTORE JUMP JUMPDEST PUSH1 0x1 PUSH1 0x1 PUSH1 0x40 SHL SUB DUP2 GT PUSH2 0x5146 JUMPI PUSH1 0x1F ADD PUSH1 0x1F NOT AND PUSH1 0x20 ADD SWAP1 JUMP JUMPDEST PUSH1 0x20 PUSH1 0x3 NOT DUP3 ADD SLT PUSH2 0x884 JUMPI PUSH1 0x4 CALLDATALOAD PUSH1 0x1 PUSH1 0x1 PUSH1 0x40 SHL SUB DUP2 GT PUSH2 0x884 JUMPI DUP2 PUSH1 0x23 DUP3 ADD SLT ISZERO PUSH2 0x884 JUMPI DUP1 PUSH1 0x4 ADD CALLDATALOAD SWAP1 PUSH2 0x52A4 DUP3 PUSH2 0x5252 JUMP JUMPDEST SWAP3 PUSH2 0x52B2 PUSH1 0x40 MLOAD SWAP5 DUP6 PUSH2 0x522F JUMP JUMPDEST DUP3 DUP5 MSTORE PUSH1 0x24 DUP4 DUP4 ADD ADD GT PUSH2 0x884 JUMPI DUP2 PUSH1 0x0 SWAP3 PUSH1 0x24 PUSH1 0x20 SWAP4 ADD DUP4 DUP7 ADD CALLDATACOPY DUP4 ADD ADD MSTORE SWAP1 JUMP JUMPDEST PUSH1 0x0 JUMPDEST DUP4 DUP2 LT PUSH2 0x52E8 JUMPI POP POP PUSH1 0x0 SWAP2 ADD MSTORE JUMP JUMPDEST DUP2 DUP2 ADD MLOAD DUP4 DUP3 ADD MSTORE PUSH1 0x20 ADD PUSH2 0x52D8 JUMP JUMPDEST CALLVALUE PUSH2 0x884 JUMPI PUSH1 0x0 CALLDATASIZE PUSH1 0x3 NOT ADD SLT PUSH2 0x884 JUMPI PUSH1 0x20 PUSH1 0x40 MLOAD PUSH1 0x64 DUP2 MSTORE RETURN JUMPDEST PUSH1 0x1 PUSH1 0x1 PUSH1 0x40 SHL SUB DUP2 GT PUSH2 0x5146 JUMPI PUSH1 0x5 SHL PUSH1 0x20 ADD SWAP1 JUMP JUMPDEST PUSH1 0x4 CALLDATALOAD SWAP1 DUP2 ISZERO ISZERO DUP3 SUB PUSH2 0x884 JUMPI JUMP JUMPDEST CALLVALUE PUSH2 0x884 JUMPI PUSH1 0x0 CALLDATASIZE PUSH1 0x3 NOT ADD SLT PUSH2 0x884 JUMPI PUSH1 0x20 PUSH1 0x40 MLOAD PUSH8 0xDE0B6B3A7640000 DUP2 MSTORE RETURN JUMPDEST DUP1 SLOAD PUSH1 0x0 SWAP4 SWAP3 PUSH1 0x1 DUP1 DUP4 AND SWAP4 DUP4 DUP3 SHR SWAP4 DUP6 ISZERO PUSH2 0x5410 JUMPI JUMPDEST PUSH1 0x20 SWAP6 DUP7 DUP7 LT DUP2 EQ PUSH2 0x53FA JUMPI DUP6 DUP6 MSTORE SWAP1 DUP2 ISZERO PUSH2 0x53DB JUMPI POP PUSH1 0x1 EQ PUSH2 0x539A JUMPI JUMPDEST POP POP POP POP POP JUMP JUMPDEST SWAP1 SWAP4 SWAP5 SWAP6 POP PUSH1 0x0 SWAP3 SWAP2 SWAP3 MSTORE DUP4 PUSH1 0x0 KECCAK256 SWAP3 DUP5 PUSH1 0x0 SWAP5 JUMPDEST DUP4 DUP7 LT PUSH2 0x53C7 JUMPI POP POP POP POP ADD ADD SWAP1 CODESIZE DUP1 DUP1 DUP1 DUP1 PUSH2 0x5393 JUMP JUMPDEST DUP1 SLOAD DUP6 DUP8 ADD DUP4 ADD MSTORE SWAP5 ADD SWAP4 DUP6 SWAP1 DUP3 ADD PUSH2 0x53AF JUMP JUMPDEST PUSH1 0xFF NOT AND DUP7 DUP6 ADD MSTORE POP POP POP SWAP1 ISZERO ISZERO PUSH1 0x5 SHL ADD ADD SWAP2 POP CODESIZE DUP1 DUP1 DUP1 DUP1 PUSH2 0x5393 JUMP JUMPDEST PUSH4 0x4E487B71 PUSH1 0xE0 SHL PUSH1 0x0 MSTORE PUSH1 0x22 PUSH1 0x4 MSTORE PUSH1 0x24 PUSH1 0x0 REVERT JUMPDEST SWAP4 PUSH1 0x7F AND SWAP4 PUSH2 0x5374 JUMP JUMPDEST SWAP1 PUSH1 0x20 SWAP2 PUSH2 0x5433 DUP2 MLOAD DUP1 SWAP3 DUP2 DUP6 MSTORE DUP6 DUP1 DUP7 ADD SWAP2 ADD PUSH2 0x52D5 JUMP JUMPDEST PUSH1 0x1F ADD PUSH1 0x1F NOT AND ADD ADD SWAP1 JUMP JUMPDEST PUSH1 0x40 PUSH1 0x3 NOT DUP3 ADD SLT PUSH2 0x884 JUMPI PUSH1 0x4 CALLDATALOAD SWAP2 PUSH1 0x1 PUSH1 0x1 PUSH1 0x40 SHL SUB SWAP2 PUSH1 0x24 CALLDATALOAD SWAP1 DUP4 DUP3 GT PUSH2 0x884 JUMPI DUP1 PUSH1 0x23 DUP4 ADD SLT ISZERO PUSH2 0x884 JUMPI DUP2 PUSH1 0x4 ADD CALLDATALOAD SWAP4 DUP5 GT PUSH2 0x884 JUMPI PUSH1 0x24 DUP5 PUSH1 0x5 SHL DUP4 ADD ADD GT PUSH2 0x884 JUMPI PUSH1 0x24 ADD SWAP2 SWAP1 JUMP JUMPDEST PUSH1 0x60 SWAP1 PUSH1 0x3 NOT ADD SLT PUSH2 0x884 JUMPI PUSH1 0x4 CALLDATALOAD SWAP1 PUSH1 0x24 CALLDATALOAD SWAP1 PUSH1 0x44 CALLDATALOAD SWAP1 JUMP JUMPDEST CALLVALUE PUSH2 0x884 JUMPI PUSH1 0x0 CALLDATASIZE PUSH1 0x3 NOT ADD SLT PUSH2 0x884 JUMPI PUSH1 0x20 PUSH1 0x40 MLOAD PUSH1 0x2 DUP2 MSTORE RETURN JUMPDEST CALLVALUE PUSH2 0x884 JUMPI PUSH1 0x0 CALLDATASIZE PUSH1 0x3 NOT ADD SLT PUSH2 0x884 JUMPI PUSH1 0x20 PUSH1 0x40 MLOAD PUSH1 0x1 DUP2 MSTORE RETURN JUMPDEST SWAP1 DUP2 MLOAD DUP1 DUP3 MSTORE PUSH1 0x20 DUP1 DUP1 SWAP4 ADD SWAP4 ADD SWAP2 PUSH1 0x0 JUMPDEST DUP3 DUP2 LT PUSH2 0x5501 JUMPI POP POP POP POP SWAP1 JUMP JUMPDEST DUP4 MLOAD PUSH1 0x1 PUSH1 0x1 PUSH1 0xA0 SHL SUB AND DUP6 MSTORE SWAP4 DUP2 ADD SWAP4 SWAP3 DUP2 ADD SWAP3 PUSH1 0x1 ADD PUSH2 0x54F3 JUMP JUMPDEST PUSH1 0x20 DUP2 MSTORE DUP2 MLOAD PUSH1 0x20 DUP3 ADD MSTORE PUSH1 0x20 DUP3 ADD MLOAD PUSH1 0x40 DUP3 ADD MSTORE PUSH1 0x40 DUP3 ADD MLOAD PUSH1 0x60 DUP3 ADD MSTORE PUSH1 0x60 DUP3 ADD MLOAD PUSH1 0x80 DUP3 ADD MSTORE PUSH1 0x80 DUP3 ADD MLOAD PUSH1 0xA0 DUP3 ADD MSTORE PUSH1 0xA0 DUP3 ADD MLOAD PUSH1 0xE0 PUSH2 0x5570 PUSH2 0x100 SWAP3 DUP4 PUSH1 0xC0 DUP7 ADD MSTORE PUSH2 0x120 DUP6 ADD SWAP1 PUSH2 0x54E1 JUMP JUMPDEST SWAP4 PUSH1 0xC0 DUP2 ADD MLOAD ISZERO ISZERO DUP3 DUP6 ADD MSTORE ADD MLOAD SWAP2 ADD MSTORE SWAP1 JUMP JUMPDEST CALLVALUE PUSH2 0x884 JUMPI PUSH1 0x0 CALLDATASIZE PUSH1 0x3 NOT ADD SLT PUSH2 0x884 JUMPI PUSH1 0x20 PUSH1 0x40 MLOAD PUSH1 0x32 DUP2 MSTORE RETURN JUMPDEST CALLVALUE PUSH2 0x884 JUMPI PUSH1 0x0 CALLDATASIZE PUSH1 0x3 NOT ADD SLT PUSH2 0x884 JUMPI PUSH1 0x20 PUSH1 0x40 MLOAD PUSH2 0xE10 DUP2 MSTORE RETURN JUMPDEST PUSH1 0x40 SWAP2 SWAP5 SWAP4 SWAP3 PUSH1 0x60 DUP3 ADD SWAP6 DUP3 MSTORE PUSH1 0x20 DUP3 ADD MSTORE ADD MSTORE JUMP JUMPDEST CALLVALUE PUSH2 0x884 JUMPI PUSH1 0x0 CALLDATASIZE PUSH1 0x3 NOT ADD SLT PUSH2 0x884 JUMPI PUSH1 0x20 PUSH1 0x40 MLOAD PUSH1 0x3 DUP2 MSTORE RETURN JUMPDEST DUP1 SLOAD PUSH1 0x1 PUSH1 0x40 SHL DUP2 LT ISZERO PUSH2 0x5146 JUMPI PUSH2 0x560C SWAP2 PUSH1 0x1 DUP3 ADD DUP2 SSTORE PUSH2 0x50E1 JUMP JUMPDEST PUSH1 0x1 DUP1 PUSH1 0xA0 SWAP5 SWAP4 SWAP5 SHL SUB DUP1 DUP5 SLOAD SWAP3 PUSH1 0x3 SHL SWAP4 AND DUP4 SHL SWAP3 SHL NOT AND OR SWAP1 SSTORE JUMP JUMPDEST SWAP2 SWAP1 DUP3 ADD DUP1 SWAP3 GT PUSH2 0x5637 JUMPI JUMP JUMPDEST PUSH4 0x4E487B71 PUSH1 0xE0 SHL PUSH1 0x0 MSTORE PUSH1 0x11 PUSH1 0x4 MSTORE PUSH1 0x24 PUSH1 0x0 REVERT JUMPDEST ISZERO PUSH2 0x5654 JUMPI JUMP JUMPDEST PUSH1 0x40 MLOAD PUSH3 0x461BCD PUSH1 0xE5 SHL DUP2 MSTORE PUSH1 0x20 PUSH1 0x4 DUP3 ADD MSTORE PUSH1 0x15 PUSH1 0x24 DUP3 ADD MSTORE PUSH21 0x141B185E595C881A5CC8189B1858DADB1A5CDD1959 PUSH1 0x5A SHL PUSH1 0x44 DUP3 ADD MSTORE PUSH1 0x64 SWAP1 REVERT JUMPDEST ISZERO PUSH2 0x5698 JUMPI JUMP JUMPDEST PUSH1 0x40 MLOAD PUSH3 0x461BCD PUSH1 0xE5 SHL DUP2 MSTORE PUSH1 0x20 PUSH1 0x4 DUP3 ADD MSTORE PUSH1 0x1C PUSH1 0x24 DUP3 ADD MSTORE PUSH28 0x52657761726420616C726561647920636C61696D656420746F646179 PUSH1 0x20 SHL PUSH1 0x44 DUP3 ADD MSTORE PUSH1 0x64 SWAP1 REVERT JUMPDEST ISZERO PUSH2 0x56E3 JUMPI JUMP JUMPDEST PUSH1 0x40 MLOAD PUSH3 0x461BCD PUSH1 0xE5 SHL DUP2 MSTORE PUSH1 0x20 PUSH1 0x4 DUP3 ADD MSTORE PUSH1 0x1A PUSH1 0x24 DUP3 ADD MSTORE PUSH26 0x11185A5B1E481C995DD85C99081B1A5B5A5D081C995858DA1959 PUSH1 0x32 SHL PUSH1 0x44 DUP3 ADD MSTORE PUSH1 0x64 SWAP1 REVERT JUMPDEST SWAP1 PUSH1 0xFF DUP1 NOT DUP4 SLOAD AND SWAP2 ISZERO ISZERO AND OR SWAP1 SSTORE JUMP JUMPDEST ISZERO PUSH2 0x573D JUMPI JUMP JUMPDEST PUSH1 0x40 MLOAD PUSH3 0x461BCD PUSH1 0xE5 SHL DUP2 MSTORE PUSH1 0x20 PUSH1 0x4 DUP3 ADD MSTORE PUSH1 0x27 PUSH1 0x24 DUP3 ADD MSTORE PUSH32 0x416363657373436F6E74726F6C3A2063616C6C6572206973206E6F7420726F6C PUSH1 0x44 DUP3 ADD MSTORE PUSH7 0x329030B236B4B7 PUSH1 0xC9 SHL PUSH1 0x64 DUP3 ADD MSTORE PUSH1 0x84 SWAP1 REVERT JUMPDEST ISZERO PUSH2 0x5799 JUMPI JUMP JUMPDEST PUSH1 0x40 MLOAD PUSH3 0x461BCD PUSH1 0xE5 SHL DUP2 MSTORE PUSH1 0x20 PUSH1 0x4 DUP3 ADD MSTORE PUSH1 0xF PUSH1 0x24 DUP3 ADD MSTORE PUSH15 0x496E76616C69642061646472657373 PUSH1 0x88 SHL PUSH1 0x44 DUP3 ADD MSTORE PUSH1 0x64 SWAP1 REVERT JUMPDEST ISZERO PUSH2 0x57D7 JUMPI JUMP JUMPDEST PUSH1 0x40 MLOAD PUSH3 0x461BCD PUSH1 0xE5 SHL DUP2 MSTORE PUSH1 0x20 PUSH1 0x4 DUP3 ADD MSTORE PUSH1 0x28 PUSH1 0x24 DUP3 ADD MSTORE PUSH32 0x416363657373436F6E74726F6C3A2063616C6C657220646F6573206E6F742068 PUSH1 0x44 DUP3 ADD MSTORE PUSH8 0x61766520726F6C65 PUSH1 0xC0 SHL PUSH1 0x64 DUP3 ADD MSTORE PUSH1 0x84 SWAP1 REVERT JUMPDEST DUP1 MLOAD ISZERO PUSH2 0x50F9 JUMPI PUSH1 0x20 ADD SWAP1 JUMP JUMPDEST DUP1 MLOAD PUSH1 0x1 LT ISZERO PUSH2 0x50F9 JUMPI PUSH1 0x40 ADD SWAP1 JUMP JUMPDEST DUP1 MLOAD PUSH1 0x2 LT ISZERO PUSH2 0x50F9 JUMPI PUSH1 0x60 ADD SWAP1 JUMP JUMPDEST DUP1 MLOAD PUSH1 0x3 LT ISZERO PUSH2 0x50F9 JUMPI PUSH1 0x80 ADD SWAP1 JUMP JUMPDEST DUP1 MLOAD PUSH1 0x4 LT ISZERO PUSH2 0x50F9 JUMPI PUSH1 0xA0 ADD SWAP1 JUMP JUMPDEST DUP1 MLOAD DUP3 LT ISZERO PUSH2 0x50F9 JUMPI PUSH1 0x20 SWAP2 PUSH1 0x5 SHL ADD ADD SWAP1 JUMP JUMPDEST PUSH1 0x0 NOT DUP2 EQ PUSH2 0x5637 JUMPI PUSH1 0x1 ADD SWAP1 JUMP JUMPDEST SWAP4 SWAP3 SWAP2 PUSH2 0x58BA SWAP1 PUSH1 0x40 SWAP3 DUP7 MSTORE PUSH1 0x60 PUSH1 0x20 DUP8 ADD MSTORE PUSH1 0x60 DUP7 ADD SWAP1 PUSH2 0x54E1 JUMP JUMPDEST SWAP4 ADD MSTORE JUMP JUMPDEST DUP2 ISZERO PUSH2 0x58C9 JUMPI DIV SWAP1 JUMP JUMPDEST PUSH4 0x4E487B71 PUSH1 0xE0 SHL PUSH1 0x0 MSTORE PUSH1 0x12 PUSH1 0x4 MSTORE PUSH1 0x24 PUSH1 0x0 REVERT JUMPDEST SWAP1 DUP2 PUSH1 0x20 SWAP2 SUB SLT PUSH2 0x884 JUMPI MLOAD DUP1 ISZERO ISZERO DUP2 SUB PUSH2 0x884 JUMPI SWAP1 JUMP JUMPDEST PUSH1 0x1 PUSH1 0x1 PUSH1 0xA0 SHL SUB SWAP1 SWAP2 AND DUP2 MSTORE PUSH1 0x20 DUP2 ADD SWAP2 SWAP1 SWAP2 MSTORE PUSH1 0x40 ADD SWAP1 JUMP JUMPDEST ISZERO PUSH2 0x5919 JUMPI JUMP JUMPDEST PUSH1 0x40 MLOAD PUSH3 0x461BCD PUSH1 0xE5 SHL DUP2 MSTORE PUSH1 0x20 PUSH1 0x4 DUP3 ADD MSTORE PUSH1 0x19 PUSH1 0x24 DUP3 ADD MSTORE PUSH25 0x159351881C1C9A5E99481D1C985B9CD9995C8819985A5B1959 PUSH1 0x3A SHL PUSH1 0x44 DUP3 ADD MSTORE PUSH1 0x64 SWAP1 REVERT JUMPDEST PUSH1 0x5 SLOAD SWAP1 PUSH1 0x0 SWAP2 DUP3 MSTORE PUSH1 0x20 SWAP1 PUSH1 0x21 DUP3 MSTORE PUSH1 0x40 SWAP1 DUP2 DUP5 KECCAK256 SWAP2 PUSH1 0x6 DUP4 ADD SWAP1 DUP2 SLOAD SWAP5 PUSH1 0xFF DUP7 AND PUSH2 0x5C1F JUMPI PUSH1 0x2 DUP6 ADD SLOAD TIMESTAMP LT PUSH2 0x5BE9 JUMPI PUSH2 0x5999 PUSH1 0x3 DUP7 ADD SLOAD PUSH2 0x6477 JUMP JUMPDEST SWAP4 DUP8 SWAP6 DUP9 JUMPDEST DUP7 MLOAD DUP2 LT ISZERO PUSH2 0x59DC JUMPI PUSH1 0x1 PUSH1 0x1 PUSH1 0xA0 SHL SUB PUSH2 0x59B9 DUP3 DUP10 PUSH2 0x587A JUMP JUMPDEST MLOAD AND PUSH2 0x59C8 JUMPI JUMPDEST PUSH1 0x1 ADD PUSH2 0x599E JUMP JUMPDEST SWAP7 PUSH2 0x59D4 PUSH1 0x1 SWAP2 PUSH2 0x588E JUMP JUMPDEST SWAP8 SWAP1 POP PUSH2 0x59C0 JUMP JUMPDEST POP SWAP2 SWAP5 SWAP3 SWAP6 SWAP1 SWAP4 SWAP7 DUP2 ISZERO PUSH2 0x5BB1 JUMPI POP PUSH2 0x59F7 SWAP1 PUSH1 0x6 SLOAD PUSH2 0x58BF JUMP JUMPDEST SWAP3 DUP8 JUMPDEST DUP4 MLOAD DUP2 LT ISZERO PUSH2 0x5ACA JUMPI PUSH1 0x1 PUSH1 0x1 PUSH1 0xA0 SHL SUB SWAP1 DUP7 DUP7 DUP4 PUSH2 0x5A19 DUP5 DUP10 PUSH2 0x587A JUMP JUMPDEST MLOAD AND PUSH2 0x5A2C JUMPI JUMPDEST POP POP PUSH1 0x1 SWAP2 POP ADD PUSH2 0x59FA JUMP JUMPDEST DUP4 DUP4 SWAP5 PUSH2 0x5A3C PUSH2 0x5A5A SWAP6 DUP11 PUSH2 0x587A JUMP JUMPDEST MLOAD AND DUP14 DUP13 MLOAD DUP1 SWAP7 DUP2 SWAP6 DUP3 SWAP5 PUSH4 0xA9059CBB PUSH1 0xE0 SHL DUP5 MSTORE PUSH1 0x4 DUP5 ADD PUSH2 0x58F7 JUMP JUMPDEST SUB SWAP3 PUSH32 0x0 AND GAS CALL SWAP1 DUP2 ISZERO PUSH2 0x5AC0 JUMPI PUSH1 0x1 SWAP3 SWAP2 PUSH2 0x5A9C SWAP2 DUP13 SWAP2 PUSH2 0x5AA3 JUMPI JUMPDEST POP PUSH2 0x5912 JUMP JUMPDEST DUP7 DUP7 PUSH2 0x5A20 JUMP JUMPDEST PUSH2 0x5ABA SWAP2 POP DUP10 RETURNDATASIZE DUP12 GT PUSH2 0xB2A JUMPI PUSH2 0xB1C DUP2 DUP4 PUSH2 0x522F JUMP JUMPDEST CODESIZE PUSH2 0x5A96 JUMP JUMPDEST DUP9 MLOAD RETURNDATASIZE DUP13 DUP3 RETURNDATACOPY RETURNDATASIZE SWAP1 REVERT JUMPDEST POP SWAP6 SWAP3 POP SWAP6 SWAP4 SWAP3 SWAP1 SWAP4 PUSH1 0x5 DUP8 ADD SWAP1 DUP6 MLOAD SWAP3 PUSH1 0x1 DUP1 PUSH1 0x40 SHL SUB DUP5 GT PUSH2 0x5B9D JUMPI PUSH1 0x1 PUSH1 0x40 SHL DUP5 GT PUSH2 0x5B9D JUMPI DUP3 SLOAD DUP5 DUP5 SSTORE DUP1 DUP6 LT PUSH2 0x5B78 JUMPI JUMPDEST POP DUP1 DUP8 ADD SWAP3 DUP3 MSTORE DUP1 DUP3 KECCAK256 SWAP2 JUMPDEST DUP5 DUP2 LT PUSH2 0x5B5D JUMPI POP POP POP POP POP PUSH1 0x4 PUSH1 0x0 DUP1 MLOAD PUSH1 0x20 PUSH2 0x6FBD DUP4 CODECOPY DUP2 MLOAD SWAP2 MSTORE SWAP5 SWAP6 PUSH2 0x5B50 SWAP3 PUSH1 0x1 PUSH1 0xFF NOT DUP3 SLOAD AND OR SWAP1 SSTORE PUSH1 0x6 SLOAD SWAP2 DUP3 SWAP2 ADD SSTORE PUSH1 0x5 SLOAD SWAP3 MLOAD SWAP4 DUP5 SWAP4 DUP5 PUSH2 0x589D JUMP JUMPDEST SUB SWAP1 LOG1 PUSH2 0x5B5B PUSH2 0x65D1 JUMP JUMPDEST JUMP JUMPDEST DUP4 MLOAD PUSH1 0x1 PUSH1 0x1 PUSH1 0xA0 SHL SUB AND DUP4 DUP3 ADD SSTORE SWAP3 DUP2 ADD SWAP3 PUSH1 0x1 ADD PUSH2 0x5B0C JUMP JUMPDEST DUP4 DUP4 MSTORE DUP5 DUP3 DUP5 KECCAK256 SWAP2 DUP3 ADD SWAP2 ADD JUMPDEST DUP2 DUP2 LT PUSH2 0x5B92 JUMPI POP PUSH2 0x5B00 JUMP JUMPDEST DUP4 DUP2 SSTORE PUSH1 0x1 ADD PUSH2 0x5B85 JUMP JUMPDEST PUSH4 0x4E487B71 PUSH1 0xE0 SHL DUP3 MSTORE PUSH1 0x41 PUSH1 0x4 MSTORE PUSH1 0x24 DUP3 REVERT JUMPDEST SWAP2 POP POP PUSH1 0x0 DUP1 MLOAD PUSH1 0x20 PUSH2 0x6FBD DUP4 CODECOPY DUP2 MLOAD SWAP2 MSTORE SWAP6 SWAP3 SWAP7 POP PUSH1 0x1 SWAP2 SWAP5 SWAP4 POP PUSH1 0xFF NOT AND OR SWAP1 SSTORE PUSH2 0x5B50 PUSH1 0x5 SLOAD SWAP2 PUSH1 0x6 SLOAD SWAP1 MLOAD SWAP4 DUP5 SWAP4 DUP5 PUSH2 0x589D JUMP JUMPDEST PUSH1 0x64 SWAP2 MLOAD SWAP1 PUSH3 0x461BCD PUSH1 0xE5 SHL DUP3 MSTORE PUSH1 0x4 DUP3 ADD MSTORE PUSH1 0x11 PUSH1 0x24 DUP3 ADD MSTORE PUSH17 0x11D85B59481B9BDD08199A5B9A5CDA1959 PUSH1 0x7A SHL PUSH1 0x44 DUP3 ADD MSTORE REVERT JUMPDEST PUSH1 0x64 SWAP2 MLOAD SWAP1 PUSH3 0x461BCD PUSH1 0xE5 SHL DUP3 MSTORE PUSH1 0x4 DUP3 ADD MSTORE PUSH1 0x16 PUSH1 0x24 DUP3 ADD MSTORE PUSH22 0x11D85B5948185B1C9958591E4818DBDB5C1B195D1959 PUSH1 0x52 SHL PUSH1 0x44 DUP3 ADD MSTORE REVERT JUMPDEST ISZERO PUSH2 0x5C61 JUMPI JUMP JUMPDEST PUSH1 0x40 MLOAD PUSH3 0x461BCD PUSH1 0xE5 SHL DUP2 MSTORE PUSH1 0x20 PUSH1 0x4 DUP3 ADD MSTORE PUSH1 0x15 PUSH1 0x24 DUP3 ADD MSTORE PUSH21 0x5765656B6C792064726177206E6F74207265616479 PUSH1 0x58 SHL PUSH1 0x44 DUP3 ADD MSTORE PUSH1 0x64 SWAP1 REVERT JUMPDEST PUSH1 0x9 SLOAD PUSH3 0x93A80 DUP2 ADD DUP1 SWAP2 GT PUSH2 0x5637 JUMPI PUSH2 0x5CBA SWAP1 TIMESTAMP LT ISZERO PUSH2 0x5C5A JUMP JUMPDEST PUSH1 0x40 DUP1 MLOAD SWAP2 PUSH1 0x1 PUSH1 0x1 PUSH1 0x40 SHL SUB SWAP2 SWAP1 PUSH2 0x160 DUP5 ADD DUP4 DUP2 GT DUP6 DUP3 LT OR PUSH2 0x5146 JUMPI DUP3 MSTORE PUSH1 0xA DUP5 MSTORE PUSH1 0x20 SWAP3 PUSH2 0x140 CALLDATASIZE PUSH1 0x20 DUP8 ADD CALLDATACOPY DUP3 MLOAD PUSH2 0x7D20 DUP2 ADD SWAP2 DUP3 GT DUP2 DUP4 LT OR PUSH2 0x5146 JUMPI PUSH2 0x7D00 SWAP2 DUP5 MSTORE PUSH2 0x3E8 DUP2 MSTORE PUSH1 0x20 CALLDATASIZE SWAP2 ADD CALLDATACOPY PUSH1 0x0 SWAP2 PUSH1 0x0 JUMPDEST DUP6 MLOAD DUP2 LT ISZERO PUSH2 0x5D52 JUMPI PUSH1 0x1 PUSH1 0x1 PUSH1 0xA0 SHL SUB PUSH2 0x5D2F DUP3 DUP9 PUSH2 0x587A JUMP JUMPDEST MLOAD AND PUSH2 0x5D3E JUMPI JUMPDEST PUSH1 0x1 ADD PUSH2 0x5D14 JUMP JUMPDEST SWAP3 PUSH2 0x5D4A PUSH1 0x1 SWAP2 PUSH2 0x588E JUMP JUMPDEST SWAP4 SWAP1 POP PUSH2 0x5D36 JUMP JUMPDEST POP SWAP2 SWAP3 SWAP1 SWAP3 DUP1 ISZERO PUSH2 0x5E72 JUMPI PUSH2 0x5D69 SWAP1 PUSH1 0x7 SLOAD PUSH2 0x58BF JUMP JUMPDEST SWAP4 PUSH1 0x0 JUMPDEST DUP2 MLOAD DUP2 LT ISZERO PUSH2 0x5E39 JUMPI PUSH1 0x1 PUSH1 0x1 PUSH1 0xA0 SHL SUB SWAP1 DUP4 DUP8 DUP4 PUSH2 0x5D8C DUP5 DUP8 PUSH2 0x587A JUMP JUMPDEST MLOAD AND PUSH2 0x5D9F JUMPI JUMPDEST POP POP PUSH1 0x1 SWAP2 POP ADD PUSH2 0x5D6D JUMP JUMPDEST DUP4 DUP4 SWAP5 PUSH2 0x5DAF PUSH2 0x5DCE SWAP6 DUP9 PUSH2 0x587A JUMP JUMPDEST MLOAD AND PUSH1 0x0 DUP10 MLOAD DUP1 SWAP7 DUP2 SWAP6 DUP3 SWAP5 PUSH4 0xA9059CBB PUSH1 0xE0 SHL DUP5 MSTORE PUSH1 0x4 DUP5 ADD PUSH2 0x58F7 JUMP JUMPDEST SUB SWAP3 PUSH32 0x0 AND GAS CALL SWAP1 DUP2 ISZERO PUSH2 0x5E2E JUMPI PUSH1 0x1 SWAP3 SWAP2 PUSH2 0x5E10 SWAP2 PUSH1 0x0 SWAP2 PUSH2 0x5E17 JUMPI POP PUSH2 0x5912 JUMP JUMPDEST DUP4 DUP8 PUSH2 0x5D93 JUMP JUMPDEST PUSH2 0x5ABA SWAP2 POP DUP7 RETURNDATASIZE DUP9 GT PUSH2 0xB2A JUMPI PUSH2 0xB1C DUP2 DUP4 PUSH2 0x522F JUMP JUMPDEST DUP6 MLOAD RETURNDATASIZE PUSH1 0x0 DUP3 RETURNDATACOPY RETURNDATASIZE SWAP1 REVERT JUMPDEST POP SWAP2 SWAP1 POP PUSH1 0x0 DUP1 MLOAD PUSH1 0x20 PUSH2 0x6F3D DUP4 CODECOPY DUP2 MLOAD SWAP2 MSTORE SWAP3 SWAP4 POP PUSH2 0x5E64 PUSH1 0x5 SLOAD SWAP2 PUSH1 0x7 SLOAD SWAP1 MLOAD SWAP4 DUP5 SWAP4 DUP5 PUSH2 0x589D JUMP JUMPDEST SUB SWAP1 LOG1 PUSH1 0x0 PUSH1 0x7 SSTORE TIMESTAMP PUSH1 0x9 SSTORE JUMP JUMPDEST POP POP SWAP2 PUSH1 0x0 DUP1 MLOAD PUSH1 0x20 PUSH2 0x6F3D DUP4 CODECOPY DUP2 MLOAD SWAP2 MSTORE SWAP2 SWAP3 PUSH2 0x5E64 PUSH1 0x5 SLOAD SWAP2 PUSH1 0x7 SLOAD SWAP1 MLOAD SWAP4 DUP5 SWAP4 DUP5 PUSH2 0x589D JUMP JUMPDEST ISZERO PUSH2 0x5EA2 JUMPI JUMP JUMPDEST PUSH1 0x40 MLOAD PUSH3 0x461BCD PUSH1 0xE5 SHL DUP2 MSTORE PUSH1 0x20 PUSH1 0x4 DUP3 ADD MSTORE PUSH1 0x1F PUSH1 0x24 DUP3 ADD MSTORE PUSH32 0x4F6E6C792056524620636F6E74726163742063616E2063616C6C207468697300 PUSH1 0x44 DUP3 ADD MSTORE PUSH1 0x64 SWAP1 REVERT JUMPDEST ISZERO PUSH2 0x5EEE JUMPI JUMP JUMPDEST PUSH1 0x40 MLOAD PUSH3 0x461BCD PUSH1 0xE5 SHL DUP2 MSTORE PUSH1 0x20 PUSH1 0x4 DUP3 ADD MSTORE PUSH1 0x13 PUSH1 0x24 DUP3 ADD MSTORE PUSH19 0x139BC81DDA5B9B995C9CC81C1C9BDD9A591959 PUSH1 0x6A SHL PUSH1 0x44 DUP3 ADD MSTORE PUSH1 0x64 SWAP1 REVERT JUMPDEST SWAP2 SWAP1 DUP2 LT ISZERO PUSH2 0x50F9 JUMPI PUSH1 0x5 SHL ADD SWAP1 JUMP JUMPDEST CALLDATALOAD PUSH1 0x1 PUSH1 0x1 PUSH1 0xA0 SHL SUB DUP2 AND DUP2 SUB PUSH2 0x884 JUMPI SWAP1 JUMP JUMPDEST SWAP1 DUP2 MSTORE PUSH1 0x60 PUSH1 0x20 DUP1 DUP4 ADD DUP3 SWAP1 MSTORE SWAP1 DUP3 ADD DUP5 SWAP1 MSTORE SWAP1 SWAP5 SWAP4 SWAP3 PUSH1 0x80 DUP7 ADD SWAP2 PUSH1 0x0 JUMPDEST DUP3 DUP2 LT PUSH2 0x5F7F JUMPI POP POP POP PUSH1 0x40 SWAP2 POP SWAP4 ADD MSTORE JUMP JUMPDEST SWAP1 SWAP2 SWAP3 DUP3 DUP1 PUSH1 0x1 SWAP3 DUP4 DUP1 PUSH1 0xA0 SHL SUB PUSH2 0x5F96 DUP10 PUSH2 0x50B7 JUMP JUMPDEST AND DUP2 MSTORE ADD SWAP6 ADD SWAP2 ADD SWAP4 SWAP3 SWAP2 SWAP1 SWAP4 PUSH2 0x5F6C JUMP JUMPDEST SWAP2 SWAP1 DUP3 SUB SWAP2 DUP3 GT PUSH2 0x5637 JUMPI JUMP JUMPDEST ISZERO PUSH2 0x5FBC JUMPI JUMP JUMPDEST PUSH1 0x40 MLOAD PUSH3 0x461BCD PUSH1 0xE5 SHL DUP2 MSTORE PUSH1 0x20 PUSH1 0x4 DUP3 ADD MSTORE PUSH1 0x18 PUSH1 0x24 DUP3 ADD MSTORE PUSH24 0x496E73756666696369656E7420564D462062616C616E6365 PUSH1 0x40 SHL PUSH1 0x44 DUP3 ADD MSTORE PUSH1 0x64 SWAP1 REVERT JUMPDEST PUSH1 0x1 PUSH1 0x1 PUSH1 0xA0 SHL SUB SWAP2 DUP3 AND DUP2 MSTORE SWAP2 AND PUSH1 0x20 DUP3 ADD MSTORE PUSH1 0x40 ADD SWAP1 JUMP JUMPDEST ISZERO PUSH2 0x601D JUMPI JUMP JUMPDEST PUSH1 0x40 MLOAD PUSH3 0x461BCD PUSH1 0xE5 SHL DUP2 MSTORE PUSH1 0x20 PUSH1 0x4 DUP3 ADD MSTORE PUSH1 0x1A PUSH1 0x24 DUP3 ADD MSTORE PUSH26 0x496E73756666696369656E7420564D4620616C6C6F77616E6365 PUSH1 0x30 SHL PUSH1 0x44 DUP3 ADD MSTORE PUSH1 0x64 SWAP1 REVERT JUMPDEST PUSH1 0x1 PUSH1 0x1 PUSH1 0xA0 SHL SUB SWAP2 DUP3 AND DUP2 MSTORE SWAP2 AND PUSH1 0x20 DUP3 ADD MSTORE PUSH1 0x40 DUP2 ADD SWAP2 SWAP1 SWAP2 MSTORE PUSH1 0x60 ADD SWAP1 JUMP JUMPDEST ISZERO PUSH2 0x6088 JUMPI JUMP JUMPDEST PUSH1 0x40 MLOAD PUSH3 0x461BCD PUSH1 0xE5 SHL DUP2 MSTORE PUSH1 0x20 PUSH1 0x4 DUP3 ADD MSTORE PUSH1 0x13 PUSH1 0x24 DUP3 ADD MSTORE PUSH19 0x159351881D1C985B9CD9995C8819985A5B1959 PUSH1 0x6A SHL PUSH1 0x44 DUP3 ADD MSTORE PUSH1 0x64 SWAP1 REVERT JUMPDEST PUSH1 0x40 MLOAD SWAP1 PUSH2 0x60D0 DUP3 PUSH2 0x5178 JUMP JUMPDEST DUP2 PUSH1 0xE0 PUSH1 0x0 SWAP2 DUP3 DUP2 MSTORE DUP3 PUSH1 0x20 DUP3 ADD MSTORE DUP3 PUSH1 0x40 DUP3 ADD MSTORE DUP3 PUSH1 0x60 DUP3 ADD MSTORE DUP3 PUSH1 0x80 DUP3 ADD MSTORE PUSH1 0x60 PUSH1 0xA0 DUP3 ADD MSTORE DUP3 PUSH1 0xC0 DUP3 ADD MSTORE ADD MSTORE JUMP JUMPDEST ISZERO PUSH2 0x6109 JUMPI JUMP JUMPDEST PUSH1 0x40 MLOAD PUSH3 0x461BCD PUSH1 0xE5 SHL DUP2 MSTORE PUSH1 0x20 PUSH1 0x4 DUP3 ADD MSTORE PUSH1 0xF PUSH1 0x24 DUP3 ADD MSTORE PUSH15 0x159491881B9BDD08195B98589B1959 PUSH1 0x8A SHL PUSH1 0x44 DUP3 ADD MSTORE PUSH1 0x64 SWAP1 REVERT JUMPDEST ISZERO PUSH2 0x6147 JUMPI JUMP JUMPDEST PUSH1 0x40 MLOAD PUSH3 0x461BCD PUSH1 0xE5 SHL DUP2 MSTORE PUSH1 0x20 PUSH1 0x4 DUP3 ADD MSTORE PUSH1 0x14 PUSH1 0x24 DUP3 ADD MSTORE PUSH20 0x1594918818DBDB9D1C9858DD081B9BDD081CD95D PUSH1 0x62 SHL PUSH1 0x44 DUP3 ADD MSTORE PUSH1 0x64 SWAP1 REVERT JUMPDEST PUSH1 0x20 SWAP1 DUP2 DUP2 DUP5 SUB SLT PUSH2 0x884 JUMPI DUP1 MLOAD SWAP1 PUSH1 0x1 PUSH1 0x1 PUSH1 0x40 SHL SUB DUP3 GT PUSH2 0x884 JUMPI ADD SWAP2 DUP1 PUSH1 0x1F DUP5 ADD SLT ISZERO PUSH2 0x884 JUMPI DUP3 MLOAD PUSH2 0x61B8 DUP2 PUSH2 0x5314 JUMP JUMPDEST SWAP4 PUSH2 0x61C6 PUSH1 0x40 MLOAD SWAP6 DUP7 PUSH2 0x522F JUMP JUMPDEST DUP2 DUP6 MSTORE DUP4 DUP1 DUP7 ADD SWAP3 PUSH1 0x5 SHL DUP3 ADD ADD SWAP3 DUP4 GT PUSH2 0x884 JUMPI DUP4 ADD SWAP1 JUMPDEST DUP3 DUP3 LT PUSH2 0x61ED JUMPI POP POP POP POP SWAP1 JUMP JUMPDEST DUP2 MLOAD PUSH1 0x1 PUSH1 0x1 PUSH1 0xA0 SHL SUB DUP2 AND DUP2 SUB PUSH2 0x884 JUMPI DUP2 MSTORE SWAP1 DUP4 ADD SWAP1 DUP4 ADD PUSH2 0x61DF JUMP JUMPDEST ISZERO PUSH2 0x6213 JUMPI JUMP JUMPDEST PUSH1 0x40 MLOAD PUSH3 0x461BCD PUSH1 0xE5 SHL DUP2 MSTORE PUSH1 0x20 PUSH1 0x4 DUP3 ADD MSTORE PUSH1 0xF PUSH1 0x24 DUP3 ADD MSTORE PUSH15 0x151C985B9CD9995C8819985A5B1959 PUSH1 0x8A SHL PUSH1 0x44 DUP3 ADD MSTORE PUSH1 0x64 SWAP1 REVERT JUMPDEST PUSH1 0x80 SWAP1 PUSH1 0xA DUP2 MSTORE PUSH1 0x40 PUSH1 0x20 DUP3 ADD MSTORE PUSH1 0x12 PUSH1 0x40 DUP3 ADD MSTORE PUSH18 0x4461696C792077696E6E657220626F6E7573 PUSH1 0x70 SHL PUSH1 0x60 DUP3 ADD MSTORE ADD SWAP1 JUMP JUMPDEST DUP2 ISZERO PUSH2 0x58C9 JUMPI MOD SWAP1 JUMP JUMPDEST PUSH1 0x1 SLOAD PUSH1 0x1 PUSH1 0x1 PUSH1 0xA0 SHL SUB AND CALLER SUB PUSH2 0x629C JUMPI JUMP JUMPDEST PUSH1 0x40 MLOAD PUSH4 0x118CDAA7 PUSH1 0xE0 SHL DUP2 MSTORE CALLER PUSH1 0x4 DUP3 ADD MSTORE PUSH1 0x24 SWAP1 REVERT JUMPDEST PUSH1 0xFF PUSH1 0x1 SLOAD PUSH1 0xA0 SHR AND PUSH2 0x62C3 JUMPI JUMP JUMPDEST PUSH1 0x40 MLOAD PUSH4 0xD93C0665 PUSH1 0xE0 SHL DUP2 MSTORE PUSH1 0x4 SWAP1 REVERT JUMPDEST PUSH1 0x13 SLOAD SWAP1 PUSH1 0x0 JUMPDEST DUP3 PUSH1 0x0 MSTORE PUSH1 0x11 PUSH1 0x20 MSTORE PUSH1 0x40 PUSH1 0x0 KECCAK256 DUP1 SLOAD DUP3 LT ISZERO PUSH2 0x6329 JUMPI DUP2 PUSH2 0x62FD SWAP2 PUSH2 0x50E1 JUMP JUMPDEST SWAP1 SLOAD PUSH1 0x3 SWAP2 SWAP1 SWAP2 SHL SHR PUSH1 0x1 PUSH1 0x1 PUSH1 0xA0 SHL SUB SWAP1 DUP2 AND SWAP1 DUP4 AND EQ PUSH2 0x6321 JUMPI PUSH1 0x1 ADD PUSH2 0x62DC JUMP JUMPDEST POP POP POP PUSH1 0x1 SWAP1 JUMP JUMPDEST POP POP POP POP PUSH1 0x0 SWAP1 JUMP JUMPDEST PUSH1 0x2 PUSH1 0x0 SLOAD EQ PUSH2 0x6343 JUMPI PUSH1 0x2 PUSH1 0x0 SSTORE JUMP JUMPDEST PUSH1 0x40 MLOAD PUSH4 0x3EE5AEB5 PUSH1 0xE0 SHL DUP2 MSTORE PUSH1 0x4 SWAP1 REVERT JUMPDEST DUP2 ISZERO PUSH2 0x6432 JUMPI PUSH2 0x3E8 DUP3 GT PUSH2 0x63F4 JUMPI PUSH1 0x1 DUP1 PUSH1 0xA0 SHL SUB AND SWAP1 PUSH1 0x0 SWAP1 DUP3 DUP3 MSTORE PUSH1 0x24 PUSH1 0x20 MSTORE PUSH2 0x6386 DUP2 PUSH1 0x40 DUP5 KECCAK256 SLOAD PUSH2 0x562A JUMP JUMPDEST SWAP2 PUSH1 0x64 DUP4 GT PUSH2 0x63C1 JUMPI PUSH2 0x63B4 PUSH1 0x40 SWAP3 PUSH1 0xE SWAP5 DUP7 DUP5 MSTORE PUSH1 0x24 PUSH1 0x20 MSTORE DUP5 DUP5 KECCAK256 SSTORE PUSH1 0x1E PUSH1 0x20 MSTORE DUP5 DUP5 DUP5 KECCAK256 ADD SLOAD PUSH2 0x562A JUMP JUMPDEST SWAP4 DUP2 MSTORE PUSH1 0x1E PUSH1 0x20 MSTORE KECCAK256 ADD SSTORE JUMP JUMPDEST PUSH1 0x40 MLOAD PUSH3 0x461BCD PUSH1 0xE5 SHL DUP2 MSTORE PUSH1 0x20 PUSH1 0x4 DUP3 ADD MSTORE PUSH1 0x1B PUSH1 0x24 DUP3 ADD MSTORE PUSH1 0x0 DUP1 MLOAD PUSH1 0x20 PUSH2 0x6FFD DUP4 CODECOPY DUP2 MLOAD SWAP2 MSTORE PUSH1 0x44 DUP3 ADD MSTORE PUSH1 0x64 SWAP1 REVERT JUMPDEST PUSH1 0x40 MLOAD PUSH3 0x461BCD PUSH1 0xE5 SHL DUP2 MSTORE PUSH1 0x20 PUSH1 0x4 DUP3 ADD MSTORE PUSH1 0x16 PUSH1 0x24 DUP3 ADD MSTORE PUSH22 0xA4CAEEC2E4C840C2DADEEADCE840E8DEDE40D0D2CED PUSH1 0x53 SHL PUSH1 0x44 DUP3 ADD MSTORE PUSH1 0x64 SWAP1 REVERT JUMPDEST PUSH1 0x40 MLOAD PUSH3 0x461BCD PUSH1 0xE5 SHL DUP2 MSTORE PUSH1 0x20 PUSH1 0x4 DUP3 ADD MSTORE PUSH1 0x1E PUSH1 0x24 DUP3 ADD MSTORE PUSH32 0x52657761726420616D6F756E74206D75737420626520706F7369746976650000 PUSH1 0x44 DUP3 ADD MSTORE PUSH1 0x64 SWAP1 REVERT JUMPDEST SWAP1 PUSH1 0x40 SWAP1 DUP2 MLOAD SWAP1 PUSH2 0x6487 DUP3 PUSH2 0x5213 JUMP JUMPDEST PUSH1 0x8 SWAP3 PUSH1 0x8 DUP4 MSTORE PUSH1 0x20 SWAP1 PUSH2 0x100 CALLDATASIZE DUP4 DUP7 ADD CALLDATACOPY PUSH1 0x0 SWAP2 DUP7 DUP4 MSTORE PUSH1 0x21 DUP2 MSTORE PUSH1 0x7 DUP3 DUP5 KECCAK256 ADD SLOAD SWAP2 DUP3 ISZERO PUSH2 0x65C6 JUMPI PUSH1 0x2 SLOAD DUP2 MLOAD PUSH4 0x1DAAF1B1 PUSH1 0xE1 SHL DUP2 MSTORE PUSH1 0x4 DUP2 ADD SWAP5 SWAP1 SWAP5 MSTORE PUSH1 0x1 PUSH1 0x1 PUSH1 0xA0 SHL SUB SWAP9 SWAP1 DUP4 SWAP1 DUP6 SWAP1 PUSH1 0x24 SWAP1 DUP3 SWAP1 DUP14 AND GAS STATICCALL SWAP4 DUP5 ISZERO PUSH2 0x65BC JUMPI DUP6 SWAP5 PUSH2 0x6589 JUMPI JUMPDEST POP DUP4 ISZERO PUSH2 0x657D JUMPI DUP5 MSTORE PUSH1 0xB DUP3 MSTORE DUP1 DUP5 KECCAK256 SWAP5 DUP6 SLOAD SWAP5 DUP6 ISZERO PUSH2 0x6567 JUMPI JUMPDEST DUP9 DUP2 LT DUP1 PUSH2 0x6574 JUMPI JUMPDEST ISZERO PUSH2 0x6567 JUMPI PUSH2 0x6562 SWAP1 DUP11 PUSH2 0x654A PUSH2 0x6544 DUP10 DUP8 MLOAD DUP10 DUP2 ADD SWAP1 DUP12 DUP3 MSTORE DUP7 DUP11 DUP3 ADD MSTORE DUP10 DUP2 MSTORE PUSH2 0x653C DUP2 PUSH2 0x51DD JUMP JUMPDEST MLOAD SWAP1 KECCAK256 PUSH2 0x627E JUMP JUMPDEST DUP11 PUSH2 0x50E1 JUMP JUMPDEST SWAP1 SLOAD SWAP1 PUSH1 0x3 SHL SHR AND PUSH2 0x655C DUP3 DUP12 PUSH2 0x587A JUMP JUMPDEST MSTORE PUSH2 0x588E JUMP JUMPDEST PUSH2 0x6508 JUMP JUMPDEST POP SWAP8 POP POP POP POP POP POP SWAP1 POP SWAP1 JUMP JUMPDEST POP DUP6 DUP2 LT PUSH2 0x6511 JUMP JUMPDEST POP POP POP POP POP SWAP3 POP SWAP1 POP SWAP1 JUMP JUMPDEST SWAP1 SWAP4 POP DUP3 DUP2 DUP2 RETURNDATASIZE DUP4 GT PUSH2 0x65B5 JUMPI JUMPDEST PUSH2 0x65A1 DUP2 DUP4 PUSH2 0x522F JUMP JUMPDEST DUP2 ADD SUB SLT PUSH2 0x65B1 JUMPI MLOAD SWAP3 CODESIZE PUSH2 0x64ED JUMP JUMPDEST DUP5 DUP1 REVERT JUMPDEST POP RETURNDATASIZE PUSH2 0x6597 JUMP JUMPDEST DUP3 MLOAD RETURNDATASIZE DUP8 DUP3 RETURNDATACOPY RETURNDATASIZE SWAP1 REVERT JUMPDEST POP POP POP POP SWAP3 POP SWAP1 POP SWAP1 JUMP JUMPDEST PUSH2 0x65DC PUSH1 0x5 SLOAD PUSH2 0x588E JUMP JUMPDEST DUP1 PUSH1 0x5 SSTORE PUSH3 0x15180 TIMESTAMP ADD SWAP1 DUP2 TIMESTAMP GT PUSH2 0x5637 JUMPI PUSH1 0x40 MLOAD SWAP2 PUSH2 0x65FB DUP4 PUSH2 0x51C2 JUMP JUMPDEST PUSH1 0x0 DUP1 DUP5 MSTORE PUSH1 0x40 MLOAD SWAP4 PUSH2 0x660D DUP6 PUSH2 0x5178 JUMP JUMPDEST DUP4 DUP6 MSTORE PUSH1 0x20 SWAP1 DUP2 DUP7 ADD SWAP3 TIMESTAMP DUP5 MSTORE PUSH1 0x40 DUP8 ADD SWAP5 DUP6 MSTORE PUSH1 0x60 DUP8 ADD DUP2 DUP2 MSTORE PUSH1 0x80 DUP9 ADD SWAP1 DUP3 DUP3 MSTORE PUSH1 0xA0 DUP10 ADD SWAP4 DUP5 MSTORE PUSH1 0xC0 DUP10 ADD SWAP7 DUP4 DUP9 MSTORE PUSH1 0xE0 DUP11 ADD SWAP9 DUP5 DUP11 MSTORE DUP5 MSTORE PUSH1 0x21 DUP7 MSTORE PUSH1 0x40 DUP5 KECCAK256 SWAP10 MLOAD DUP11 SSTORE PUSH1 0x1 SWAP7 MLOAD PUSH1 0x1 DUP12 ADD SSTORE MLOAD PUSH1 0x2 DUP11 ADD SSTORE MLOAD PUSH1 0x3 DUP10 ADD SSTORE MLOAD PUSH1 0x4 DUP9 ADD SSTORE PUSH1 0x5 DUP8 ADD SWAP2 MLOAD SWAP3 DUP4 MLOAD SWAP4 PUSH1 0x1 DUP1 PUSH1 0x40 SHL SUB DUP6 GT PUSH2 0x6719 JUMPI PUSH1 0x1 PUSH1 0x40 SHL DUP6 GT PUSH2 0x6719 JUMPI DUP2 SWAP1 DUP5 SLOAD DUP7 DUP7 SSTORE DUP1 DUP8 LT PUSH2 0x66EF JUMPI JUMPDEST POP ADD SWAP3 DUP3 MSTORE DUP1 DUP3 KECCAK256 SWAP2 JUMPDEST DUP5 DUP2 LT PUSH2 0x66D5 JUMPI POP POP POP POP POP POP SWAP1 PUSH2 0x66CB PUSH1 0x7 SWAP3 MLOAD ISZERO ISZERO PUSH1 0x6 DUP6 ADD PUSH2 0x5725 JUMP JUMPDEST MLOAD SWAP2 ADD SSTORE TIMESTAMP PUSH1 0x8 SSTORE JUMP JUMPDEST DUP4 MLOAD PUSH1 0x1 PUSH1 0x1 PUSH1 0xA0 SHL SUB AND DUP4 DUP3 ADD SSTORE SWAP3 DUP2 ADD SWAP3 DUP6 ADD PUSH2 0x66AB JUMP JUMPDEST DUP6 DUP6 MSTORE DUP8 DUP8 DUP5 DUP8 KECCAK256 SWAP3 DUP4 ADD SWAP3 ADD JUMPDEST DUP3 DUP2 LT PUSH2 0x670B JUMPI POP POP PUSH2 0x66A1 JUMP JUMPDEST DUP7 DUP2 SSTORE DUP6 SWAP5 POP DUP10 SWAP2 ADD PUSH2 0x66FD JUMP JUMPDEST PUSH4 0x4E487B71 PUSH1 0xE0 SHL DUP4 MSTORE PUSH1 0x41 PUSH1 0x4 MSTORE PUSH1 0x24 DUP4 REVERT JUMPDEST PUSH1 0x1 DUP1 PUSH1 0xA0 SHL SUB AND PUSH1 0x0 SWAP1 DUP1 DUP3 MSTORE PUSH1 0x26 PUSH1 0x20 MSTORE PUSH1 0x1E PUSH2 0x6750 PUSH1 0x40 DUP5 KECCAK256 SLOAD TIMESTAMP PUSH2 0x5FA8 JUMP JUMPDEST LT PUSH2 0x6785 JUMPI DUP2 MSTORE PUSH1 0x1E PUSH1 0x20 MSTORE PUSH1 0xA PUSH1 0x1 PUSH1 0x40 DUP4 KECCAK256 ADD SLOAD GT PUSH2 0x677F JUMPI PUSH1 0x24 PUSH1 0x20 MSTORE PUSH1 0x64 PUSH1 0x40 DUP3 KECCAK256 SLOAD GT PUSH2 0x677F JUMPI SWAP1 JUMP JUMPDEST POP PUSH1 0x1 SWAP1 JUMP JUMPDEST POP POP PUSH1 0x1 SWAP1 JUMP JUMPDEST PUSH1 0x1 DUP1 PUSH1 0xA0 SHL SUB PUSH1 0x4 SLOAD AND PUSH1 0x40 DUP1 MLOAD SWAP1 PUSH4 0x8F09C857 PUSH1 0xE0 SHL SWAP3 DUP4 DUP4 MSTORE PUSH1 0x20 SWAP1 DUP2 DUP5 PUSH1 0x4 DUP2 DUP5 GAS STATICCALL SWAP4 DUP5 ISZERO PUSH2 0x68C8 JUMPI PUSH1 0x0 SWAP5 PUSH2 0x690D JUMPI JUMPDEST POP DUP3 MLOAD PUSH4 0xD73EBB5 PUSH1 0xE0 SHL DUP2 MSTORE SWAP5 DUP3 DUP7 PUSH1 0x4 DUP2 DUP6 GAS STATICCALL SWAP6 DUP7 ISZERO PUSH2 0x6902 JUMPI PUSH1 0x0 SWAP7 PUSH2 0x68D3 JUMPI JUMPDEST POP DUP3 SWAP1 PUSH1 0x4 DUP6 MLOAD DUP1 SWAP5 DUP2 SWAP4 DUP3 MSTORE GAS STATICCALL SWAP1 DUP2 ISZERO PUSH2 0x68C8 JUMPI PUSH1 0x0 SWAP2 PUSH2 0x689B JUMPI JUMPDEST POP DUP1 PUSH2 0x6847 JUMPI JUMPDEST POP POP PUSH32 0xD275F5DE1F47F481706CBB99406816BCC17CD387167D5DE15596C1A2FB47AD86 SWAP2 PUSH2 0x6841 SWAP2 MLOAD SWAP2 DUP3 SWAP2 DUP6 TIMESTAMP SWAP2 DUP5 PUSH2 0x55BD JUMP JUMPDEST SUB SWAP1 LOG1 SWAP1 JUMP JUMPDEST PUSH2 0x6853 PUSH1 0x32 SWAP2 DUP6 PUSH2 0x6E45 JUMP JUMPDEST GT PUSH2 0x685E JUMPI DUP1 PUSH2 0x680C JUMP JUMPDEST PUSH1 0x64 SWAP2 MLOAD SWAP1 PUSH3 0x461BCD PUSH1 0xE5 SHL DUP3 MSTORE PUSH1 0x4 DUP3 ADD MSTORE PUSH1 0x18 PUSH1 0x24 DUP3 ADD MSTORE PUSH24 0xA0E4D2C6CA40C8CAECD2C2E8D2DEDC40E8DEDE40D0D2CED PUSH1 0x43 SHL PUSH1 0x44 DUP3 ADD MSTORE REVERT JUMPDEST SWAP1 POP DUP2 DUP2 DUP2 RETURNDATASIZE DUP4 GT PUSH2 0x68C1 JUMPI JUMPDEST PUSH2 0x68B2 DUP2 DUP4 PUSH2 0x522F JUMP JUMPDEST DUP2 ADD SUB SLT PUSH2 0x884 JUMPI MLOAD CODESIZE PUSH2 0x6805 JUMP JUMPDEST POP RETURNDATASIZE PUSH2 0x68A8 JUMP JUMPDEST DUP4 MLOAD RETURNDATASIZE PUSH1 0x0 DUP3 RETURNDATACOPY RETURNDATASIZE SWAP1 REVERT JUMPDEST SWAP1 SWAP6 POP DUP3 DUP2 DUP2 RETURNDATASIZE DUP4 GT PUSH2 0x68FB JUMPI JUMPDEST PUSH2 0x68EB DUP2 DUP4 PUSH2 0x522F JUMP JUMPDEST DUP2 ADD SUB SLT PUSH2 0x884 JUMPI MLOAD SWAP5 DUP3 PUSH2 0x67E7 JUMP JUMPDEST POP RETURNDATASIZE PUSH2 0x68E1 JUMP JUMPDEST DUP5 MLOAD RETURNDATASIZE PUSH1 0x0 DUP3 RETURNDATACOPY RETURNDATASIZE SWAP1 REVERT JUMPDEST SWAP1 SWAP4 POP DUP2 DUP2 DUP2 RETURNDATASIZE DUP4 GT PUSH2 0x6935 JUMPI JUMPDEST PUSH2 0x6925 DUP2 DUP4 PUSH2 0x522F JUMP JUMPDEST DUP2 ADD SUB SLT PUSH2 0x884 JUMPI MLOAD SWAP3 CODESIZE PUSH2 0x67C2 JUMP JUMPDEST POP RETURNDATASIZE PUSH2 0x691B JUMP JUMPDEST SWAP1 PUSH2 0x6946 DUP3 PUSH2 0x5252 JUMP JUMPDEST PUSH2 0x6953 PUSH1 0x40 MLOAD SWAP2 DUP3 PUSH2 0x522F JUMP JUMPDEST DUP3 DUP2 MSTORE DUP1 SWAP3 PUSH2 0x6964 PUSH1 0x1F NOT SWAP2 PUSH2 0x5252 JUMP JUMPDEST ADD SWAP1 PUSH1 0x20 CALLDATASIZE SWAP2 ADD CALLDATACOPY JUMP JUMPDEST SWAP1 DUP2 MLOAD DUP2 LT ISZERO PUSH2 0x50F9 JUMPI ADD PUSH1 0x20 ADD SWAP1 JUMP JUMPDEST DUP1 MLOAD PUSH1 0x3 DUP2 LT SWAP1 DUP2 ISZERO PUSH2 0x6B87 JUMPI JUMPDEST POP PUSH2 0x6B81 JUMPI PUSH1 0x0 JUMPDEST DUP2 MLOAD DUP2 LT ISZERO PUSH2 0x6A51 JUMPI PUSH1 0x1 PUSH1 0x1 PUSH1 0xF8 SHL SUB NOT PUSH2 0x69B1 DUP3 DUP5 PUSH2 0x696E JUMP JUMPDEST MLOAD AND PUSH1 0x3 PUSH1 0xFC SHL DUP2 LT ISZERO SWAP1 DUP2 PUSH2 0x6A42 JUMPI JUMPDEST DUP2 ISZERO PUSH2 0x6A1E JUMPI JUMPDEST DUP2 ISZERO PUSH2 0x69FA JUMPI JUMPDEST DUP2 ISZERO PUSH2 0x69EC JUMPI JUMPDEST POP ISZERO PUSH2 0x69E5 JUMPI PUSH1 0x1 ADD PUSH2 0x6995 JUMP JUMPDEST POP POP PUSH1 0x0 SWAP1 JUMP JUMPDEST PUSH1 0x5F PUSH1 0xF8 SHL EQ SWAP1 POP CODESIZE PUSH2 0x69D7 JUMP JUMPDEST SWAP1 POP PUSH1 0x61 PUSH1 0xF8 SHL DUP2 LT ISZERO DUP1 PUSH2 0x6A10 JUMPI JUMPDEST SWAP1 PUSH2 0x69D0 JUMP JUMPDEST POP PUSH1 0x3D PUSH1 0xF9 SHL DUP2 GT ISZERO PUSH2 0x6A0A JUMP JUMPDEST SWAP1 POP PUSH1 0x41 PUSH1 0xF8 SHL DUP2 LT ISZERO DUP1 PUSH2 0x6A34 JUMPI JUMPDEST SWAP1 PUSH2 0x69C9 JUMP JUMPDEST POP PUSH1 0x2D PUSH1 0xF9 SHL DUP2 GT ISZERO PUSH2 0x6A2E JUMP JUMPDEST PUSH1 0x39 PUSH1 0xF8 SHL DUP2 GT ISZERO SWAP2 POP PUSH2 0x69C2 JUMP JUMPDEST POP PUSH1 0x1 JUMPDEST DUP2 MLOAD DUP2 LT ISZERO PUSH2 0x6AB3 JUMPI PUSH1 0x1 PUSH1 0x1 PUSH1 0xF8 SHL SUB NOT PUSH1 0x5F PUSH1 0xF8 SHL DUP1 DUP3 PUSH2 0x6A78 DUP6 DUP8 PUSH2 0x696E JUMP JUMPDEST MLOAD AND EQ SWAP2 DUP3 PUSH2 0x6A90 JUMPI JUMPDEST POP POP PUSH2 0x69E5 JUMPI PUSH1 0x1 ADD PUSH2 0x6A55 JUMP JUMPDEST SWAP1 SWAP2 POP PUSH1 0x0 NOT DUP4 ADD DUP4 DUP2 GT PUSH2 0x5637 JUMPI PUSH2 0x6AA9 SWAP1 DUP6 PUSH2 0x696E JUMP JUMPDEST MLOAD AND EQ CODESIZE DUP1 PUSH2 0x6A82 JUMP JUMPDEST POP SWAP1 PUSH2 0x6ABF DUP3 MLOAD PUSH2 0x693C JUMP JUMPDEST PUSH1 0x0 JUMPDEST DUP4 MLOAD DUP2 LT ISZERO PUSH2 0x6B67 JUMPI PUSH1 0x1 PUSH1 0x1 PUSH1 0xF8 SHL SUB NOT SWAP1 PUSH1 0x61 PUSH1 0xF8 SHL DUP3 PUSH2 0x6AE5 DUP4 DUP9 PUSH2 0x696E JUMP JUMPDEST MLOAD AND LT ISZERO DUP1 PUSH2 0x6B4D JUMPI JUMPDEST ISZERO PUSH2 0x6B2B JUMPI PUSH2 0x6AFE DUP2 DUP7 PUSH2 0x696E JUMP JUMPDEST MLOAD PUSH1 0xF8 SWAP3 SWAP1 DUP4 SHR PUSH1 0x1F NOT ADD PUSH1 0xFF DUP2 GT PUSH2 0x5637 JUMPI PUSH1 0x1 SWAP4 SHL AND PUSH1 0x0 BYTE PUSH2 0x6B23 DUP3 DUP6 PUSH2 0x696E JUMP JUMPDEST MSTORE8 JUMPDEST ADD PUSH2 0x6AC2 JUMP JUMPDEST PUSH1 0x1 SWAP2 PUSH2 0x6B38 DUP3 DUP8 PUSH2 0x696E JUMP JUMPDEST MLOAD AND PUSH1 0x0 BYTE PUSH2 0x6B47 DUP3 DUP6 PUSH2 0x696E JUMP JUMPDEST MSTORE8 PUSH2 0x6B25 JUMP JUMPDEST POP PUSH1 0x3D PUSH1 0xF9 SHL DUP3 PUSH2 0x6B5E DUP4 DUP9 PUSH2 0x696E JUMP JUMPDEST MLOAD AND GT ISZERO PUSH2 0x6AEF JUMP JUMPDEST POP PUSH2 0x6B73 SWAP2 SWAP3 POP PUSH2 0x6CEF JUMP JUMPDEST PUSH2 0x6B7C JUMPI PUSH1 0x1 SWAP1 JUMP JUMPDEST PUSH1 0x0 SWAP1 JUMP JUMPDEST POP PUSH1 0x0 SWAP1 JUMP JUMPDEST PUSH1 0x32 SWAP2 POP GT CODESIZE PUSH2 0x698D JUMP JUMPDEST SWAP1 PUSH1 0x40 SWAP2 PUSH1 0x40 MLOAD SWAP3 PUSH2 0x6BA3 DUP5 PUSH2 0x5213 JUMP JUMPDEST PUSH1 0x8 SWAP3 PUSH1 0x8 DUP6 MSTORE PUSH1 0x20 PUSH2 0x100 CALLDATASIZE PUSH1 0x20 DUP9 ADD CALLDATACOPY PUSH1 0x0 SWAP2 DUP5 PUSH1 0x0 MSTORE PUSH1 0xC PUSH1 0x20 MSTORE PUSH1 0x40 PUSH1 0x0 KECCAK256 SLOAD SWAP1 DUP2 ISZERO PUSH2 0x6C47 JUMPI PUSH1 0x0 JUMPDEST DUP8 DUP2 LT PUSH2 0x6BE3 JUMPI POP POP POP POP POP POP POP POP SWAP1 JUMP JUMPDEST PUSH1 0x1 SWAP1 PUSH2 0x6C28 PUSH2 0x6C19 DUP6 DUP10 MLOAD DUP9 DUP2 ADD SWAP1 DUP8 DUP3 MSTORE DUP6 DUP13 DUP3 ADD MSTORE TIMESTAMP PUSH1 0x60 DUP3 ADD MSTORE PREVRANDAO PUSH1 0x80 DUP3 ADD MSTORE PUSH1 0xA0 DUP14 DUP2 DUP4 ADD MSTORE DUP2 MSTORE PUSH2 0x653C DUP2 PUSH2 0x51F8 JUMP JUMPDEST DUP10 DUP9 MSTORE PUSH1 0xB DUP8 MSTORE DUP9 DUP9 KECCAK256 PUSH2 0x50E1 JUMP JUMPDEST DUP4 DUP1 PUSH1 0xA0 SHL SUB SWAP2 SLOAD SWAP1 PUSH1 0x3 SHL SHR AND PUSH2 0x6C40 DUP3 DUP13 PUSH2 0x587A JUMP JUMPDEST MSTORE ADD PUSH2 0x6BD1 JUMP JUMPDEST POP POP POP POP POP POP POP SWAP1 JUMP JUMPDEST DUP1 ISZERO PUSH2 0x6CD1 JUMPI DUP1 PUSH1 0x0 DUP2 DUP1 JUMPDEST PUSH2 0x6CB9 JUMPI POP PUSH2 0x6C6B DUP2 PUSH2 0x693C JUMP JUMPDEST SWAP3 JUMPDEST PUSH2 0x6C76 JUMPI POP POP SWAP1 JUMP JUMPDEST PUSH1 0x0 NOT DUP2 ADD SWAP1 DUP2 GT PUSH2 0x5637 JUMPI DUP1 SWAP2 PUSH1 0xA SWAP2 PUSH1 0x30 DUP4 DUP4 MOD DUP2 ADD DUP1 SWAP2 GT PUSH2 0x5637 JUMPI PUSH1 0xF8 SHL PUSH1 0x1 PUSH1 0x1 PUSH1 0xF8 SHL SUB NOT AND PUSH1 0x0 BYTE SWAP1 PUSH2 0x6CB0 SWAP1 DUP7 PUSH2 0x696E JUMP JUMPDEST MSTORE8 DIV SWAP1 DUP2 PUSH2 0x6C6D JUMP JUMPDEST SWAP2 POP PUSH2 0x6CC6 PUSH1 0xA SWAP2 PUSH2 0x588E JUMP JUMPDEST SWAP2 DIV DUP1 DUP4 SWAP3 SWAP2 PUSH2 0x6C5D JUMP JUMPDEST POP PUSH1 0x40 MLOAD PUSH2 0x6CDE DUP2 PUSH2 0x51A7 JUMP JUMPDEST PUSH1 0x1 DUP2 MSTORE PUSH1 0x3 PUSH1 0xFC SHL PUSH1 0x20 DUP3 ADD MSTORE SWAP1 JUMP JUMPDEST PUSH1 0x40 DUP1 MLOAD SWAP1 PUSH2 0x6CFD DUP3 PUSH2 0x51F8 JUMP JUMPDEST PUSH1 0x5 DUP3 MSTORE PUSH1 0x0 JUMPDEST PUSH1 0xA0 DUP2 LT PUSH2 0x6E34 JUMPI POP DUP1 MLOAD PUSH2 0x6D18 DUP2 PUSH2 0x51A7 JUMP JUMPDEST PUSH1 0x5 DUP2 MSTORE PUSH5 0x20A226A4A7 PUSH1 0xD9 SHL PUSH1 0x20 DUP3 ADD MSTORE PUSH2 0x6D33 DUP4 PUSH2 0x582D JUMP JUMPDEST MSTORE PUSH2 0x6D3D DUP3 PUSH2 0x582D JUMP JUMPDEST POP DUP1 MLOAD PUSH2 0x6D49 DUP2 PUSH2 0x51A7 JUMP JUMPDEST PUSH1 0x5 DUP2 MSTORE PUSH5 0x27ABA722A9 PUSH1 0xD9 SHL PUSH1 0x20 DUP3 ADD MSTORE PUSH2 0x6D64 DUP4 PUSH2 0x583A JUMP JUMPDEST MSTORE PUSH2 0x6D6E DUP3 PUSH2 0x583A JUMP JUMPDEST POP DUP1 MLOAD PUSH2 0x6D7A DUP2 PUSH2 0x51A7 JUMP JUMPDEST PUSH1 0x6 DUP2 MSTORE PUSH6 0x53595354454D PUSH1 0xD0 SHL PUSH1 0x20 DUP3 ADD MSTORE PUSH2 0x6D96 DUP4 PUSH2 0x584A JUMP JUMPDEST MSTORE PUSH2 0x6DA0 DUP3 PUSH2 0x584A JUMP JUMPDEST POP DUP1 MLOAD PUSH2 0x6DAC DUP2 PUSH2 0x51A7 JUMP JUMPDEST PUSH1 0x4 DUP2 MSTORE PUSH4 0x13955313 PUSH1 0xE2 SHL PUSH1 0x20 DUP3 ADD MSTORE PUSH2 0x6DC6 DUP4 PUSH2 0x585A JUMP JUMPDEST MSTORE PUSH2 0x6DD0 DUP3 PUSH2 0x585A JUMP JUMPDEST POP MLOAD PUSH2 0x6DDB DUP2 PUSH2 0x51A7 JUMP JUMPDEST PUSH1 0x4 DUP2 MSTORE PUSH4 0x151154D5 PUSH1 0xE2 SHL PUSH1 0x20 DUP3 ADD MSTORE PUSH2 0x6DF5 DUP3 PUSH2 0x586A JUMP JUMPDEST MSTORE PUSH2 0x6DFF DUP2 PUSH2 0x586A JUMP JUMPDEST POP PUSH1 0x0 JUMPDEST DUP2 MLOAD DUP2 LT ISZERO PUSH2 0x6E2C JUMPI PUSH2 0x6E20 PUSH2 0x6E19 DUP3 DUP5 PUSH2 0x587A JUMP JUMPDEST MLOAD DUP5 PUSH2 0x6E8F JUMP JUMPDEST PUSH2 0x6321 JUMPI PUSH1 0x1 ADD PUSH2 0x6E03 JUMP JUMPDEST POP POP POP PUSH1 0x0 SWAP1 JUMP JUMPDEST DUP1 PUSH1 0x60 PUSH1 0x20 DUP1 SWAP4 DUP7 ADD ADD MSTORE ADD PUSH2 0x6D04 JUMP JUMPDEST DUP2 DUP2 EQ PUSH2 0x69E5 JUMPI DUP2 DUP1 DUP3 GT ISZERO PUSH2 0x6E7F JUMPI PUSH2 0x6E5E SWAP2 PUSH2 0x5FA8 JUMP JUMPDEST SWAP1 JUMPDEST PUSH1 0x64 DUP3 MUL SWAP2 DUP1 DUP4 DIV PUSH1 0x64 EQ SWAP1 ISZERO OR ISZERO PUSH2 0x5637 JUMPI PUSH2 0x6E7C SWAP2 PUSH2 0x58BF JUMP JUMPDEST SWAP1 JUMP JUMPDEST SWAP1 PUSH2 0x6E89 SWAP2 PUSH2 0x5FA8 JUMP JUMPDEST SWAP1 PUSH2 0x6E60 JUMP JUMPDEST SWAP1 DUP1 MLOAD DUP3 MLOAD LT PUSH2 0x69E5 JUMPI PUSH1 0x0 SWAP1 JUMPDEST PUSH2 0x6EAA DUP4 MLOAD DUP3 MLOAD SWAP1 PUSH2 0x5FA8 JUMP JUMPDEST DUP3 GT PUSH2 0x6E2C JUMPI PUSH1 0x1 SWAP3 PUSH1 0x0 JUMPDEST DUP3 MLOAD DUP2 LT ISZERO PUSH2 0x6F12 JUMPI PUSH1 0x1 PUSH1 0x1 PUSH1 0xF8 SHL SUB NOT DUP1 PUSH2 0x6EDC PUSH2 0x6ED6 DUP5 DUP9 PUSH2 0x562A JUMP JUMPDEST DUP6 PUSH2 0x696E JUMP JUMPDEST MLOAD AND SWAP1 PUSH2 0x6EE9 DUP4 DUP7 PUSH2 0x696E JUMP JUMPDEST MLOAD AND SUB PUSH2 0x6EF8 JUMPI PUSH1 0x1 ADD PUSH2 0x6EB6 JUMP JUMPDEST POP SWAP3 POP SWAP1 PUSH1 0x0 JUMPDEST PUSH2 0x6321 JUMPI PUSH2 0x6F0C SWAP1 PUSH2 0x588E JUMP JUMPDEST SWAP1 PUSH2 0x6E9D JUMP JUMPDEST POP SWAP3 SWAP2 SWAP1 SWAP2 PUSH2 0x6EFF JUMP INVALID 0xBF 0x23 RETURNDATASIZE 0xD2 0xAA INVALID 0xB4 0xD5 ADDMOD PUSH26 0xC4AA5C81E96D92F6E6945C906A58F9F2D1C1631B4B26266EAB4E SWAP1 PUSH25 0xD52EC3F1266D5B3619A11040584EF2997FDEA8AFA3C03FA559 PUSH24 0xB80D1AE5628C2AF91424C54C87ACFD15016BE4BEBEEF0425 0xB3 0x28 0x23 DUP8 MUL RETURN BASEFEE BALANCE SWAP8 PUSH7 0x7070C54EF182B0 CREATE2 DUP6 DUP12 SUB 0x4B 0xEA 0xC1 0xB6 RETURN ADDMOD SWAP11 LOG2 0xD3 XOR DUP12 0xB1 0xE8 SWAP3 SWAP16 0x4F 0xA9 0xB9 0x29 DUP12 0xE0 SMOD SWAP13 MSTORE8 AND MSIZE EQ SGT PREVRANDAO 0xCD 0x1F 0xD0 LOG4 CALLCODE DUP5 NOT BLOBHASH PUSH32 0x9722A3DAAFE3B4186F6B6457E0DD1C72FCDA97FCFC2FE124C4AA194986CACA75 0x2D CALLDATACOPY PUSH10 0xC00A6495659509D7B19B NOT MLOAD DUP9 0xE7 0xE2 0xA9 0xC9 CHAINID 0xC9 SGT OR SWAP5 PUSH1 0x30 BLOBHASH 0xC EXTCODESIZE LOG4 DUP11 JUMPDEST PUSH32 0x867101928826FA4CC609C54461696C7920726577617264206C696D6974206578 PUSH4 0x65656465 PUSH5 0x0 LOG4 SWAP9 SMOD KECCAK256 TLOAD 0xE4 0xD3 SSTORE MULMOD 0x2E CREATE2 0xA8 LOG1 DUP16 JUMP 0xE8 SWAP2 EXTCODECOPY DELEGATECALL LOG2 ADD 0xFB 0xE2 DUP8 DUP3 JUMPDEST MULMOD JUMP SWAP4 0xC2 OR PUSH22 0x1D1A4959F28ECF85850610491C8F5914A90BD2CAA95E SWAP2 0x25 PUSH28 0x24B2511D715F7AA2646970667358221220991B8F2F37CDDA32433A37 CALLER SWAP10 DUP5 PUSH26 0xD0A184E0706FDE478CBA60A356705A914164736F6C6343000818 STOP CALLER "},"methodIdentifiers":{"ADMIN_ROLE()":"75b238fc","AUDITOR_ROLE()":"6e1d616e","BASE_SEPOLIA_HOLDING_REWARD()":"8c267e0d","BATCH_SIZE()":"49faa4d4","DAILY_PLAY_REWARD()":"dd23b9cb","DAILY_WINNERS_COUNT()":"16fa1086","DOLLAR_ENTRY_FEE()":"c5d32157","EMERGENCY_ROLE()":"20df4359","ENTRY_COOLDOWN()":"a9b8b451","FIRST_ORDER_REWARD()":"69396e88","GAS_OPTIMIZATION_INTERVAL()":"a37c1572","JACKPOT_ENTRY_COST()":"4b75344e","JACKPOT_MULTIPLIER()":"7a7eb1f4","LOYALTY_POINTS_PER_DOLLAR()":"f8172fe3","MAX_DAILY_ENTRIES()":"bbc3ced7","MAX_DAILY_REWARDS()":"d136a94d","MAX_JACKPOT_ENTRIES()":"39d8ea42","MAX_PRICE_DEVIATION()":"96f277b7","MAX_REFERRAL_CODE_LENGTH()":"9b95f1fc","MAX_REWARD_AMOUNT()":"a04f6b4b","MIN_BASE_SEPOLIA_HOLDING()":"9b5a139a","MIN_REFERRAL_CODE_LENGTH()":"e443e279","OPERATOR_ROLE()":"f5b541a6","PRICE_UPDATE_THRESHOLD()":"098655d9","REFERRAL_REWARD()":"84a3a0f3","STREAK_BONUS()":"bcf64475","WEEKLY_WINNERS_COUNT()":"0d9f92ca","addJackpotEntry()":"b87fc22d","awardBaseSepoliaHoldingsToppings()":"d5fa40e3","awardLoyaltyPoints()":"74631fd7","awardStreakBonus()":"25b7f388","batchProcessingActive(uint256)":"bf757624","batchProcessingNonce(uint256)":"79675127","blacklistedAddresses(address)":"d5749d42","claimFirstOrderReward()":"e22cb9c9","claimWeeklyChallengeReward(uint256)":"2618cafd","contributeEntropy(bytes32)":"1472cbe3","createReferralCode()":"2e108d1c","currentDailyJackpot()":"e3d440a7","currentRandomnessRound()":"bb6bf0f0","currentWeeklyJackpot()":"3bb4f638","dailyPlayerCount(uint256)":"ffc39504","dailyPlayers(uint256,uint256)":"4eb692a5","drawDailyWinners()":"3fb83a54","drawWeeklyWinners()":"52861f7f","emergencyPause(bool)":"e8f6940e","emergencyUnlockGame(uint256)":"e82aefc7","emergencyWithdraw()":"db2e21bc","enterDailyGame(string)":"5c27b2e4","entropyContributions(uint256)":"cf376677","entropyContributors(uint256,uint256)":"0c89d127","entropyRoundId()":"59db6fe6","gameStateLocked(uint256)":"2a243f19","games(uint256)":"117a5b90","gasOptimizationThreshold()":"ee892e64","generateSecureRandomness()":"cb955e6b","getCurrentEntryFee()":"0aa01695","getCurrentGame()":"968d901b","getCurrentGameId()":"a2635401","getCurrentVMFPrice()":"786a78c6","getEligibleDailyPlayers(uint256)":"bacf46f3","getEligibleWeeklyPlayers(uint256)":"ccb60e01","getGame(uint256)":"a2f77bcc","getGasUsageStats()":"aea664a5","getJackpotState(uint256)":"3f781412","getPlayerInfo(address)":"59328401","getReferralInfo(address)":"21874ae2","grantRole(bytes32,address)":"2f2ff15d","hasEnteredToday(address)":"ba53ba24","hasRole(bytes32,address)":"91d14854","isDailyDrawReady()":"2efb53da","isWeeklyDrawReady()":"c65a8568","jackpotStateHash(uint256)":"67cafabb","jackpotUpdateCooldown()":"b8caead6","jackpotUpdateNonce(uint256)":"d2111791","lastDailyDraw()":"7550b84f","lastEntropyUpdate()":"2ee8b778","lastGasOptimization()":"28100aca","lastJackpotUpdate()":"19bf155d","lastWeeklyDraw()":"c14e1e05","optimizeGasUsage()":"59a9867e","owner()":"8da5cb5b","paused()":"5c975abb","pendingWinners(uint256,uint256)":"f711dca4","players(address)":"e2eb41ff","priceOracle()":"2630c12f","processBatchPlayers(address[],uint256[])":"3a65126a","processDailyWinners(uint256,address[])":"9e9e4056","processWeeklyWinners(uint256,address[])":"56768b5e","randomnessContract()":"41fe39ec","randomnessSeeds(uint256)":"a88066f7","referralCodes(string)":"2655e840","referrals(address)":"9ca423b3","renounceOwnership()":"715018a6","requestDailyRandomness()":"0b00a5db","requestDailyVRF()":"9b6ccde2","requestWeeklyVRF()":"ecb6159e","revealRandomness(uint256,uint256,bytes32)":"a154fc6b","revokeRole(bytes32,address)":"d547741f","roleAdmins(bytes32)":"8543210d","roles(bytes32,address)":"f8fc08b9","selectDailyWinners()":"eb0fb2c8","setJackpotUpdateCooldown(uint256)":"6ce497b2","setPlayerBlacklist(address,bool)":"43f2a080","setRoleAdmin(bytes32,address)":"ad763192","setUseVRF(bool)":"f877a8af","setVRFContract(address)":"853b2b88","submitRandomnessCommitment(uint256,bytes32)":"e3505b14","transferOwnership(address)":"f2fde38b","updateJackpotAtomic(uint256,uint256,bytes32)":"71e4206d","useVRF()":"06038341","userDailyRewards(address)":"2ff7a52d","userLastActivity(address)":"77ce2992","userRateLimitEnd(address)":"03fa2c63","vmfToken()":"2086eefa","vrfContract()":"6858a3f3","vrfRequests(uint256)":"1a1d9252","weeklyChallenges(uint256)":"4f55e8ad","weeklyPlayerCount(uint256)":"d61b86bb","weeklyPlayers(uint256,uint256)":"920736e5"}}}}}