{"contracts/PizzaParty.sol":{"PizzaParty":{"abi":[{"inputs":[{"internalType":"address","name":"_vmfToken","type":"address"},{"internalType":"address","name":"_randomnessContract","type":"address"},{"internalType":"address","name":"_priceOracle","type":"address"}],"stateMutability":"nonpayable","type":"constructor"},{"inputs":[],"name":"EnforcedPause","type":"error"},{"inputs":[],"name":"ExpectedPause","type":"error"},{"inputs":[{"internalType":"address","name":"owner","type":"address"}],"name":"OwnableInvalidOwner","type":"error"},{"inputs":[{"internalType":"address","name":"account","type":"address"}],"name":"OwnableUnauthorizedAccount","type":"error"},{"inputs":[],"name":"ReentrancyGuardReentrantCall","type":"error"},{"anonymous":false,"inputs":[{"indexed":true,"internalType":"uint256","name":"blockNumber","type":"uint256"},{"indexed":false,"internalType":"uint256","name":"totalProcessed","type":"uint256"},{"indexed":false,"internalType":"uint256","name":"totalPlayers","type":"uint256"}],"name":"BatchPlayersProcessed","type":"event"},{"anonymous":false,"inputs":[{"indexed":false,"internalType":"uint256","name":"gameId","type":"uint256"},{"indexed":false,"internalType":"address[]","name":"winners","type":"address[]"},{"indexed":false,"internalType":"uint256","name":"jackpot","type":"uint256"}],"name":"DailyWinnersSelected","type":"event"},{"anonymous":false,"inputs":[{"indexed":false,"internalType":"bool","name":"paused","type":"bool"}],"name":"EmergencyPause","type":"event"},{"anonymous":false,"inputs":[{"indexed":true,"internalType":"address","name":"contributor","type":"address"},{"indexed":false,"internalType":"bytes32","name":"entropy","type":"bytes32"},{"indexed":false,"internalType":"uint256","name":"roundId","type":"uint256"}],"name":"EntropyContributed","type":"event"},{"anonymous":false,"inputs":[{"indexed":true,"internalType":"address","name":"player","type":"address"},{"indexed":false,"internalType":"uint256","name":"amount","type":"uint256"}],"name":"FirstOrderRewardClaimed","type":"event"},{"anonymous":false,"inputs":[{"indexed":true,"internalType":"uint256","name":"gameId","type":"uint256"},{"indexed":true,"internalType":"address","name":"sender","type":"address"}],"name":"GameStateUnlocked","type":"event"},{"anonymous":false,"inputs":[{"indexed":false,"internalType":"uint256","name":"timestamp","type":"uint256"},{"indexed":false,"internalType":"uint256","name":"threshold","type":"uint256"}],"name":"GasOptimizationCompleted","type":"event"},{"anonymous":false,"inputs":[{"indexed":true,"internalType":"address","name":"player","type":"address"},{"indexed":false,"internalType":"uint256","name":"amount","type":"uint256"}],"name":"JackpotEntryAdded","type":"event"},{"anonymous":false,"inputs":[{"indexed":false,"internalType":"uint256","name":"cooldown","type":"uint256"}],"name":"JackpotUpdateCooldownSet","type":"event"},{"anonymous":false,"inputs":[{"indexed":false,"internalType":"uint256","name":"dailyJackpot","type":"uint256"},{"indexed":false,"internalType":"uint256","name":"weeklyJackpot","type":"uint256"}],"name":"JackpotUpdated","type":"event"},{"anonymous":false,"inputs":[{"indexed":true,"internalType":"uint256","name":"gameId","type":"uint256"},{"indexed":false,"internalType":"uint256","name":"oldAmount","type":"uint256"},{"indexed":false,"internalType":"uint256","name":"newAmount","type":"uint256"},{"indexed":false,"internalType":"uint256","name":"nonce","type":"uint256"}],"name":"JackpotUpdatedAtomic","type":"event"},{"anonymous":false,"inputs":[{"indexed":true,"internalType":"address","name":"player","type":"address"},{"indexed":false,"internalType":"uint256","name":"points","type":"uint256"},{"indexed":false,"internalType":"string","name":"reason","type":"string"}],"name":"LoyaltyPointsAwarded","type":"event"},{"anonymous":false,"inputs":[{"indexed":true,"internalType":"address","name":"previousOwner","type":"address"},{"indexed":true,"internalType":"address","name":"newOwner","type":"address"}],"name":"OwnershipTransferred","type":"event"},{"anonymous":false,"inputs":[{"indexed":false,"internalType":"address","name":"account","type":"address"}],"name":"Paused","type":"event"},{"anonymous":false,"inputs":[{"indexed":true,"internalType":"address","name":"player","type":"address"},{"indexed":false,"internalType":"bool","name":"blacklisted","type":"bool"}],"name":"PlayerBlacklisted","type":"event"},{"anonymous":false,"inputs":[{"indexed":true,"internalType":"address","name":"player","type":"address"},{"indexed":true,"internalType":"uint256","name":"gameId","type":"uint256"},{"indexed":false,"internalType":"uint256","name":"amount","type":"uint256"}],"name":"PlayerEntered","type":"event"},{"anonymous":false,"inputs":[{"indexed":false,"internalType":"uint256","name":"gameId","type":"uint256"},{"indexed":false,"internalType":"uint256","name":"randomnessRoundId","type":"uint256"}],"name":"RandomnessRequested","type":"event"},{"anonymous":false,"inputs":[{"indexed":true,"internalType":"address","name":"user","type":"address"},{"indexed":false,"internalType":"uint256","name":"cooldownEnd","type":"uint256"}],"name":"RateLimitTriggered","type":"event"},{"anonymous":false,"inputs":[{"indexed":true,"internalType":"address","name":"player","type":"address"},{"indexed":false,"internalType":"string","name":"code","type":"string"}],"name":"ReferralCreated","type":"event"},{"anonymous":false,"inputs":[{"indexed":false,"internalType":"string","name":"code","type":"string"},{"indexed":false,"internalType":"address","name":"player","type":"address"}],"name":"ReferralProcessed","type":"event"},{"anonymous":false,"inputs":[{"indexed":true,"internalType":"bytes32","name":"role","type":"bytes32"},{"indexed":true,"internalType":"address","name":"admin","type":"address"}],"name":"RoleAdminSet","type":"event"},{"anonymous":false,"inputs":[{"indexed":true,"internalType":"bytes32","name":"role","type":"bytes32"},{"indexed":true,"internalType":"address","name":"account","type":"address"},{"indexed":true,"internalType":"address","name":"sender","type":"address"}],"name":"RoleGranted","type":"event"},{"anonymous":false,"inputs":[{"indexed":true,"internalType":"bytes32","name":"role","type":"bytes32"},{"indexed":true,"internalType":"address","name":"account","type":"address"},{"indexed":true,"internalType":"address","name":"sender","type":"address"}],"name":"RoleRevoked","type":"event"},{"anonymous":false,"inputs":[{"indexed":true,"internalType":"uint256","name":"roundId","type":"uint256"},{"indexed":false,"internalType":"bytes32","name":"seed","type":"bytes32"}],"name":"SecureRandomnessGenerated","type":"event"},{"anonymous":false,"inputs":[{"indexed":true,"internalType":"address","name":"player","type":"address"},{"indexed":false,"internalType":"uint256","name":"amount","type":"uint256"},{"indexed":false,"internalType":"string","name":"reason","type":"string"}],"name":"ToppingsAwarded","type":"event"},{"anonymous":false,"inputs":[{"indexed":false,"internalType":"address","name":"account","type":"address"}],"name":"Unpaused","type":"event"},{"anonymous":false,"inputs":[{"indexed":true,"internalType":"address","name":"player","type":"address"},{"indexed":false,"internalType":"uint256","name":"challengeId","type":"uint256"},{"indexed":false,"internalType":"uint256","name":"reward","type":"uint256"}],"name":"WeeklyChallengeCompleted","type":"event"},{"anonymous":false,"inputs":[{"indexed":false,"internalType":"uint256","name":"gameId","type":"uint256"},{"indexed":false,"internalType":"address[]","name":"winners","type":"address[]"},{"indexed":false,"internalType":"uint256","name":"jackpot","type":"uint256"}],"name":"WeeklyWinnersSelected","type":"event"},{"anonymous":false,"inputs":[{"indexed":false,"internalType":"uint256","name":"gameId","type":"uint256"},{"indexed":false,"internalType":"uint256","name":"randomNumber","type":"uint256"},{"indexed":false,"internalType":"address[]","name":"winners","type":"address[]"}],"name":"WinnersSelectedWithRandomness","type":"event"},{"inputs":[],"name":"ADMIN_ROLE","outputs":[{"internalType":"bytes32","name":"","type":"bytes32"}],"stateMutability":"view","type":"function"},{"inputs":[],"name":"AUDITOR_ROLE","outputs":[{"internalType":"bytes32","name":"","type":"bytes32"}],"stateMutability":"view","type":"function"},{"inputs":[],"name":"BASE_SEPOLIA_HOLDING_REWARD","outputs":[{"internalType":"uint256","name":"","type":"uint256"}],"stateMutability":"view","type":"function"},{"inputs":[],"name":"BATCH_SIZE","outputs":[{"internalType":"uint256","name":"","type":"uint256"}],"stateMutability":"view","type":"function"},{"inputs":[],"name":"DAILY_PLAY_REWARD","outputs":[{"internalType":"uint256","name":"","type":"uint256"}],"stateMutability":"view","type":"function"},{"inputs":[],"name":"DAILY_WINNERS_COUNT","outputs":[{"internalType":"uint256","name":"","type":"uint256"}],"stateMutability":"view","type":"function"},{"inputs":[],"name":"DOLLAR_ENTRY_FEE","outputs":[{"internalType":"uint256","name":"","type":"uint256"}],"stateMutability":"view","type":"function"},{"inputs":[],"name":"EMERGENCY_ROLE","outputs":[{"internalType":"bytes32","name":"","type":"bytes32"}],"stateMutability":"view","type":"function"},{"inputs":[],"name":"ENTRY_COOLDOWN","outputs":[{"internalType":"uint256","name":"","type":"uint256"}],"stateMutability":"view","type":"function"},{"inputs":[],"name":"FIRST_ORDER_REWARD","outputs":[{"internalType":"uint256","name":"","type":"uint256"}],"stateMutability":"view","type":"function"},{"inputs":[],"name":"GAS_OPTIMIZATION_INTERVAL","outputs":[{"internalType":"uint256","name":"","type":"uint256"}],"stateMutability":"view","type":"function"},{"inputs":[],"name":"JACKPOT_ENTRY_COST","outputs":[{"internalType":"uint256","name":"","type":"uint256"}],"stateMutability":"view","type":"function"},{"inputs":[],"name":"JACKPOT_MULTIPLIER","outputs":[{"internalType":"uint256","name":"","type":"uint256"}],"stateMutability":"view","type":"function"},{"inputs":[],"name":"LOYALTY_POINTS_PER_DOLLAR","outputs":[{"internalType":"uint256","name":"","type":"uint256"}],"stateMutability":"view","type":"function"},{"inputs":[],"name":"MAX_DAILY_ENTRIES","outputs":[{"internalType":"uint256","name":"","type":"uint256"}],"stateMutability":"view","type":"function"},{"inputs":[],"name":"MAX_DAILY_REWARDS","outputs":[{"internalType":"uint256","name":"","type":"uint256"}],"stateMutability":"view","type":"function"},{"inputs":[],"name":"MAX_JACKPOT_ENTRIES","outputs":[{"internalType":"uint256","name":"","type":"uint256"}],"stateMutability":"view","type":"function"},{"inputs":[],"name":"MAX_PRICE_DEVIATION","outputs":[{"internalType":"uint256","name":"","type":"uint256"}],"stateMutability":"view","type":"function"},{"inputs":[],"name":"MAX_REFERRAL_CODE_LENGTH","outputs":[{"internalType":"uint256","name":"","type":"uint256"}],"stateMutability":"view","type":"function"},{"inputs":[],"name":"MAX_REWARD_AMOUNT","outputs":[{"internalType":"uint256","name":"","type":"uint256"}],"stateMutability":"view","type":"function"},{"inputs":[],"name":"MIN_BASE_SEPOLIA_HOLDING","outputs":[{"internalType":"uint256","name":"","type":"uint256"}],"stateMutability":"view","type":"function"},{"inputs":[],"name":"MIN_REFERRAL_CODE_LENGTH","outputs":[{"internalType":"uint256","name":"","type":"uint256"}],"stateMutability":"view","type":"function"},{"inputs":[],"name":"OPERATOR_ROLE","outputs":[{"internalType":"bytes32","name":"","type":"bytes32"}],"stateMutability":"view","type":"function"},{"inputs":[],"name":"PRICE_UPDATE_THRESHOLD","outputs":[{"internalType":"uint256","name":"","type":"uint256"}],"stateMutability":"view","type":"function"},{"inputs":[],"name":"REFERRAL_REWARD","outputs":[{"internalType":"uint256","name":"","type":"uint256"}],"stateMutability":"view","type":"function"},{"inputs":[],"name":"STREAK_BONUS","outputs":[{"internalType":"uint256","name":"","type":"uint256"}],"stateMutability":"view","type":"function"},{"inputs":[],"name":"WEEKLY_WINNERS_COUNT","outputs":[{"internalType":"uint256","name":"","type":"uint256"}],"stateMutability":"view","type":"function"},{"inputs":[],"name":"addJackpotEntry","outputs":[],"stateMutability":"payable","type":"function"},{"inputs":[],"name":"awardBaseSepoliaHoldingsToppings","outputs":[],"stateMutability":"nonpayable","type":"function"},{"inputs":[],"name":"awardLoyaltyPoints","outputs":[],"stateMutability":"nonpayable","type":"function"},{"inputs":[],"name":"awardStreakBonus","outputs":[],"stateMutability":"nonpayable","type":"function"},{"inputs":[{"internalType":"uint256","name":"","type":"uint256"}],"name":"batchProcessingActive","outputs":[{"internalType":"bool","name":"","type":"bool"}],"stateMutability":"view","type":"function"},{"inputs":[{"internalType":"uint256","name":"","type":"uint256"}],"name":"batchProcessingNonce","outputs":[{"internalType":"uint256","name":"","type":"uint256"}],"stateMutability":"view","type":"function"},{"inputs":[{"internalType":"address","name":"","type":"address"}],"name":"blacklistedAddresses","outputs":[{"internalType":"bool","name":"","type":"bool"}],"stateMutability":"view","type":"function"},{"inputs":[],"name":"claimFirstOrderReward","outputs":[],"stateMutability":"nonpayable","type":"function"},{"inputs":[{"internalType":"uint256","name":"challengeId","type":"uint256"}],"name":"claimWeeklyChallengeReward","outputs":[],"stateMutability":"nonpayable","type":"function"},{"inputs":[{"internalType":"bytes32","name":"entropy","type":"bytes32"}],"name":"contributeEntropy","outputs":[],"stateMutability":"nonpayable","type":"function"},{"inputs":[],"name":"createReferralCode","outputs":[],"stateMutability":"nonpayable","type":"function"},{"inputs":[],"name":"currentDailyJackpot","outputs":[{"internalType":"uint256","name":"","type":"uint256"}],"stateMutability":"view","type":"function"},{"inputs":[],"name":"currentRandomnessRound","outputs":[{"internalType":"uint256","name":"","type":"uint256"}],"stateMutability":"view","type":"function"},{"inputs":[],"name":"currentWeeklyJackpot","outputs":[{"internalType":"uint256","name":"","type":"uint256"}],"stateMutability":"view","type":"function"},{"inputs":[{"internalType":"uint256","name":"","type":"uint256"}],"name":"dailyPlayerCount","outputs":[{"internalType":"uint256","name":"","type":"uint256"}],"stateMutability":"view","type":"function"},{"inputs":[{"internalType":"uint256","name":"","type":"uint256"},{"internalType":"uint256","name":"","type":"uint256"}],"name":"dailyPlayers","outputs":[{"internalType":"address","name":"","type":"address"}],"stateMutability":"view","type":"function"},{"inputs":[],"name":"drawDailyWinners","outputs":[],"stateMutability":"nonpayable","type":"function"},{"inputs":[],"name":"drawWeeklyWinners","outputs":[],"stateMutability":"nonpayable","type":"function"},{"inputs":[{"internalType":"bool","name":"pause","type":"bool"}],"name":"emergencyPause","outputs":[],"stateMutability":"nonpayable","type":"function"},{"inputs":[{"internalType":"uint256","name":"gameId","type":"uint256"}],"name":"emergencyUnlockGame","outputs":[],"stateMutability":"nonpayable","type":"function"},{"inputs":[],"name":"emergencyWithdraw","outputs":[],"stateMutability":"nonpayable","type":"function"},{"inputs":[{"internalType":"string","name":"referralCode","type":"string"}],"name":"enterDailyGame","outputs":[],"stateMutability":"payable","type":"function"},{"inputs":[{"internalType":"uint256","name":"","type":"uint256"}],"name":"entropyContributions","outputs":[{"internalType":"uint256","name":"","type":"uint256"}],"stateMutability":"view","type":"function"},{"inputs":[{"internalType":"uint256","name":"","type":"uint256"},{"internalType":"uint256","name":"","type":"uint256"}],"name":"entropyContributors","outputs":[{"internalType":"address","name":"","type":"address"}],"stateMutability":"view","type":"function"},{"inputs":[],"name":"entropyRoundId","outputs":[{"internalType":"uint256","name":"","type":"uint256"}],"stateMutability":"view","type":"function"},{"inputs":[{"internalType":"uint256","name":"","type":"uint256"}],"name":"gameStateLocked","outputs":[{"internalType":"bool","name":"","type":"bool"}],"stateMutability":"view","type":"function"},{"inputs":[{"internalType":"uint256","name":"","type":"uint256"}],"name":"games","outputs":[{"internalType":"uint256","name":"gameId","type":"uint256"},{"internalType":"uint256","name":"startTime","type":"uint256"},{"internalType":"uint256","name":"endTime","type":"uint256"},{"internalType":"uint256","name":"totalEntries","type":"uint256"},{"internalType":"uint256","name":"jackpotAmount","type":"uint256"},{"internalType":"bool","name":"isCompleted","type":"bool"},{"internalType":"uint256","name":"randomnessRoundId","type":"uint256"}],"stateMutability":"view","type":"function"},{"inputs":[],"name":"gasOptimizationThreshold","outputs":[{"internalType":"uint256","name":"","type":"uint256"}],"stateMutability":"view","type":"function"},{"inputs":[],"name":"generateSecureRandomness","outputs":[{"internalType":"uint256","name":"","type":"uint256"}],"stateMutability":"nonpayable","type":"function"},{"inputs":[],"name":"getCurrentEntryFee","outputs":[{"internalType":"uint256","name":"","type":"uint256"}],"stateMutability":"view","type":"function"},{"inputs":[],"name":"getCurrentGame","outputs":[{"components":[{"internalType":"uint256","name":"gameId","type":"uint256"},{"internalType":"uint256","name":"startTime","type":"uint256"},{"internalType":"uint256","name":"endTime","type":"uint256"},{"internalType":"uint256","name":"totalEntries","type":"uint256"},{"internalType":"uint256","name":"jackpotAmount","type":"uint256"},{"internalType":"address[]","name":"winners","type":"address[]"},{"internalType":"bool","name":"isCompleted","type":"bool"},{"internalType":"uint256","name":"randomnessRoundId","type":"uint256"}],"internalType":"struct PizzaParty.Game","name":"","type":"tuple"}],"stateMutability":"view","type":"function"},{"inputs":[],"name":"getCurrentVMFPrice","outputs":[{"internalType":"uint256","name":"","type":"uint256"}],"stateMutability":"view","type":"function"},{"inputs":[{"internalType":"uint256","name":"gameId","type":"uint256"}],"name":"getGame","outputs":[{"components":[{"internalType":"uint256","name":"gameId","type":"uint256"},{"internalType":"uint256","name":"startTime","type":"uint256"},{"internalType":"uint256","name":"endTime","type":"uint256"},{"internalType":"uint256","name":"totalEntries","type":"uint256"},{"internalType":"uint256","name":"jackpotAmount","type":"uint256"},{"internalType":"address[]","name":"winners","type":"address[]"},{"internalType":"bool","name":"isCompleted","type":"bool"},{"internalType":"uint256","name":"randomnessRoundId","type":"uint256"}],"internalType":"struct PizzaParty.Game","name":"","type":"tuple"}],"stateMutability":"view","type":"function"},{"inputs":[],"name":"getGasUsageStats","outputs":[{"internalType":"uint256","name":"threshold","type":"uint256"},{"internalType":"uint256","name":"lastOptimization","type":"uint256"},{"internalType":"uint256","name":"batchNonce","type":"uint256"}],"stateMutability":"view","type":"function"},{"inputs":[{"internalType":"uint256","name":"gameId","type":"uint256"}],"name":"getJackpotState","outputs":[{"internalType":"uint256","name":"amount","type":"uint256"},{"internalType":"bytes32","name":"stateHash","type":"bytes32"},{"internalType":"uint256","name":"nonce","type":"uint256"}],"stateMutability":"view","type":"function"},{"inputs":[{"internalType":"address","name":"player","type":"address"}],"name":"getPlayerInfo","outputs":[{"components":[{"internalType":"uint256","name":"totalToppings","type":"uint256"},{"internalType":"uint256","name":"dailyEntries","type":"uint256"},{"internalType":"uint256","name":"weeklyEntries","type":"uint256"},{"internalType":"uint256","name":"lastEntryTime","type":"uint256"},{"internalType":"uint256","name":"streakDays","type":"uint256"},{"internalType":"uint256","name":"lastStreakUpdate","type":"uint256"},{"internalType":"bool","name":"isBlacklisted","type":"bool"},{"internalType":"uint256","name":"lastVMFHoldingsCheck","type":"uint256"},{"internalType":"uint256","name":"loyaltyPoints","type":"uint256"},{"internalType":"uint256","name":"totalOrders","type":"uint256"},{"internalType":"uint256","name":"weeklyChallengesCompleted","type":"uint256"},{"internalType":"uint256","name":"jackpotEntries","type":"uint256"},{"internalType":"uint256","name":"lastRewardClaim","type":"uint256"},{"internalType":"bool","name":"hasCompletedFirstOrder","type":"bool"},{"internalType":"uint256","name":"dailyRewardsClaimed","type":"uint256"},{"internalType":"uint256","name":"lastSecurityCheck","type":"uint256"},{"internalType":"bool","name":"isRateLimited","type":"bool"}],"internalType":"struct PizzaParty.Player","name":"","type":"tuple"}],"stateMutability":"view","type":"function"},{"inputs":[{"internalType":"address","name":"player","type":"address"}],"name":"getReferralInfo","outputs":[{"components":[{"internalType":"address","name":"referrer","type":"address"},{"internalType":"uint256","name":"totalReferrals","type":"uint256"},{"internalType":"uint256","name":"totalRewards","type":"uint256"},{"internalType":"bool","name":"isActive","type":"bool"}],"internalType":"struct PizzaParty.Referral","name":"","type":"tuple"}],"stateMutability":"view","type":"function"},{"inputs":[{"internalType":"bytes32","name":"role","type":"bytes32"},{"internalType":"address","name":"account","type":"address"}],"name":"grantRole","outputs":[],"stateMutability":"nonpayable","type":"function"},{"inputs":[{"internalType":"address","name":"player","type":"address"}],"name":"hasEnteredToday","outputs":[{"internalType":"bool","name":"","type":"bool"}],"stateMutability":"view","type":"function"},{"inputs":[{"internalType":"bytes32","name":"role","type":"bytes32"},{"internalType":"address","name":"account","type":"address"}],"name":"hasRole","outputs":[{"internalType":"bool","name":"","type":"bool"}],"stateMutability":"view","type":"function"},{"inputs":[{"internalType":"uint256","name":"","type":"uint256"}],"name":"jackpotStateHash","outputs":[{"internalType":"bytes32","name":"","type":"bytes32"}],"stateMutability":"view","type":"function"},{"inputs":[],"name":"jackpotUpdateCooldown","outputs":[{"internalType":"uint256","name":"","type":"uint256"}],"stateMutability":"view","type":"function"},{"inputs":[{"internalType":"uint256","name":"","type":"uint256"}],"name":"jackpotUpdateNonce","outputs":[{"internalType":"uint256","name":"","type":"uint256"}],"stateMutability":"view","type":"function"},{"inputs":[],"name":"lastDailyDraw","outputs":[{"internalType":"uint256","name":"","type":"uint256"}],"stateMutability":"view","type":"function"},{"inputs":[],"name":"lastEntropyUpdate","outputs":[{"internalType":"uint256","name":"","type":"uint256"}],"stateMutability":"view","type":"function"},{"inputs":[],"name":"lastGasOptimization","outputs":[{"internalType":"uint256","name":"","type":"uint256"}],"stateMutability":"view","type":"function"},{"inputs":[],"name":"lastJackpotUpdate","outputs":[{"internalType":"uint256","name":"","type":"uint256"}],"stateMutability":"view","type":"function"},{"inputs":[],"name":"lastWeeklyDraw","outputs":[{"internalType":"uint256","name":"","type":"uint256"}],"stateMutability":"view","type":"function"},{"inputs":[],"name":"optimizeGasUsage","outputs":[],"stateMutability":"nonpayable","type":"function"},{"inputs":[],"name":"owner","outputs":[{"internalType":"address","name":"","type":"address"}],"stateMutability":"view","type":"function"},{"inputs":[],"name":"paused","outputs":[{"internalType":"bool","name":"","type":"bool"}],"stateMutability":"view","type":"function"},{"inputs":[{"internalType":"address","name":"","type":"address"}],"name":"players","outputs":[{"internalType":"uint256","name":"totalToppings","type":"uint256"},{"internalType":"uint256","name":"dailyEntries","type":"uint256"},{"internalType":"uint256","name":"weeklyEntries","type":"uint256"},{"internalType":"uint256","name":"lastEntryTime","type":"uint256"},{"internalType":"uint256","name":"streakDays","type":"uint256"},{"internalType":"uint256","name":"lastStreakUpdate","type":"uint256"},{"internalType":"bool","name":"isBlacklisted","type":"bool"},{"internalType":"uint256","name":"lastVMFHoldingsCheck","type":"uint256"},{"internalType":"uint256","name":"loyaltyPoints","type":"uint256"},{"internalType":"uint256","name":"totalOrders","type":"uint256"},{"internalType":"uint256","name":"weeklyChallengesCompleted","type":"uint256"},{"internalType":"uint256","name":"jackpotEntries","type":"uint256"},{"internalType":"uint256","name":"lastRewardClaim","type":"uint256"},{"internalType":"bool","name":"hasCompletedFirstOrder","type":"bool"},{"internalType":"uint256","name":"dailyRewardsClaimed","type":"uint256"},{"internalType":"uint256","name":"lastSecurityCheck","type":"uint256"},{"internalType":"bool","name":"isRateLimited","type":"bool"}],"stateMutability":"view","type":"function"},{"inputs":[],"name":"priceOracle","outputs":[{"internalType":"contract FreePriceOracle","name":"","type":"address"}],"stateMutability":"view","type":"function"},{"inputs":[{"internalType":"address[]","name":"players","type":"address[]"},{"internalType":"uint256[]","name":"amounts","type":"uint256[]"}],"name":"processBatchPlayers","outputs":[],"stateMutability":"nonpayable","type":"function"},{"inputs":[],"name":"randomnessContract","outputs":[{"internalType":"contract FreeRandomness","name":"","type":"address"}],"stateMutability":"view","type":"function"},{"inputs":[{"internalType":"uint256","name":"","type":"uint256"}],"name":"randomnessSeeds","outputs":[{"internalType":"bytes32","name":"","type":"bytes32"}],"stateMutability":"view","type":"function"},{"inputs":[{"internalType":"string","name":"","type":"string"}],"name":"referralCodes","outputs":[{"internalType":"address","name":"","type":"address"}],"stateMutability":"view","type":"function"},{"inputs":[{"internalType":"address","name":"","type":"address"}],"name":"referrals","outputs":[{"internalType":"address","name":"referrer","type":"address"},{"internalType":"uint256","name":"totalReferrals","type":"uint256"},{"internalType":"uint256","name":"totalRewards","type":"uint256"},{"internalType":"bool","name":"isActive","type":"bool"}],"stateMutability":"view","type":"function"},{"inputs":[],"name":"renounceOwnership","outputs":[],"stateMutability":"nonpayable","type":"function"},{"inputs":[],"name":"requestDailyRandomness","outputs":[],"stateMutability":"nonpayable","type":"function"},{"inputs":[{"internalType":"uint256","name":"roundId","type":"uint256"},{"internalType":"uint256","name":"randomValue","type":"uint256"},{"internalType":"bytes32","name":"salt","type":"bytes32"}],"name":"revealRandomness","outputs":[],"stateMutability":"nonpayable","type":"function"},{"inputs":[{"internalType":"bytes32","name":"role","type":"bytes32"},{"internalType":"address","name":"account","type":"address"}],"name":"revokeRole","outputs":[],"stateMutability":"nonpayable","type":"function"},{"inputs":[{"internalType":"bytes32","name":"","type":"bytes32"}],"name":"roleAdmins","outputs":[{"internalType":"address","name":"","type":"address"}],"stateMutability":"view","type":"function"},{"inputs":[{"internalType":"bytes32","name":"","type":"bytes32"},{"internalType":"address","name":"","type":"address"}],"name":"roles","outputs":[{"internalType":"bool","name":"","type":"bool"}],"stateMutability":"view","type":"function"},{"inputs":[],"name":"selectDailyWinners","outputs":[],"stateMutability":"nonpayable","type":"function"},{"inputs":[{"internalType":"uint256","name":"cooldown","type":"uint256"}],"name":"setJackpotUpdateCooldown","outputs":[],"stateMutability":"nonpayable","type":"function"},{"inputs":[{"internalType":"address","name":"player","type":"address"},{"internalType":"bool","name":"blacklisted","type":"bool"}],"name":"setPlayerBlacklist","outputs":[],"stateMutability":"nonpayable","type":"function"},{"inputs":[{"internalType":"bytes32","name":"role","type":"bytes32"},{"internalType":"address","name":"admin","type":"address"}],"name":"setRoleAdmin","outputs":[],"stateMutability":"nonpayable","type":"function"},{"inputs":[{"internalType":"uint256","name":"roundId","type":"uint256"},{"internalType":"bytes32","name":"commitment","type":"bytes32"}],"name":"submitRandomnessCommitment","outputs":[],"stateMutability":"nonpayable","type":"function"},{"inputs":[{"internalType":"address","name":"newOwner","type":"address"}],"name":"transferOwnership","outputs":[],"stateMutability":"nonpayable","type":"function"},{"inputs":[{"internalType":"uint256","name":"gameId","type":"uint256"},{"internalType":"uint256","name":"newAmount","type":"uint256"},{"internalType":"bytes32","name":"expectedStateHash","type":"bytes32"}],"name":"updateJackpotAtomic","outputs":[],"stateMutability":"nonpayable","type":"function"},{"inputs":[{"internalType":"address","name":"","type":"address"}],"name":"userDailyRewards","outputs":[{"internalType":"uint256","name":"","type":"uint256"}],"stateMutability":"view","type":"function"},{"inputs":[{"internalType":"address","name":"","type":"address"}],"name":"userLastActivity","outputs":[{"internalType":"uint256","name":"","type":"uint256"}],"stateMutability":"view","type":"function"},{"inputs":[{"internalType":"address","name":"","type":"address"}],"name":"userRateLimitEnd","outputs":[{"internalType":"uint256","name":"","type":"uint256"}],"stateMutability":"view","type":"function"},{"inputs":[],"name":"vmfToken","outputs":[{"internalType":"contract IERC20","name":"","type":"address"}],"stateMutability":"view","type":"function"},{"inputs":[{"internalType":"uint256","name":"","type":"uint256"}],"name":"weeklyChallenges","outputs":[{"internalType":"uint256","name":"challengeId","type":"uint256"},{"internalType":"string","name":"challengeName","type":"string"},{"internalType":"uint256","name":"rewardAmount","type":"uint256"},{"internalType":"uint256","name":"completionRequirement","type":"uint256"},{"internalType":"bool","name":"isActive","type":"bool"}],"stateMutability":"view","type":"function"},{"inputs":[{"internalType":"uint256","name":"","type":"uint256"}],"name":"weeklyPlayerCount","outputs":[{"internalType":"uint256","name":"","type":"uint256"}],"stateMutability":"view","type":"function"},{"inputs":[{"internalType":"uint256","name":"","type":"uint256"},{"internalType":"uint256","name":"","type":"uint256"}],"name":"weeklyPlayers","outputs":[{"internalType":"address","name":"","type":"address"}],"stateMutability":"view","type":"function"}],"evm":{"bytecode":{"linkReferences":{},"object":"60a0346200056557601f620063bb38819003918201601f191683019291906001600160401b038411838510176200056a5781606092849260409687528339810103126200056557620000518162000580565b906200006d83620000656020840162000580565b920162000580565b600160005533156200054d5760018054336001600160a01b0319808316821790935586519295929492916001600160a01b03167f8be0079c531659141344cd1fd0a4f28419497f9722a3daafe3b4186f6b6457e0600080a36001600160a01b03168062000543575b506001600160a01b0316918215620004f557506001600160a01b0316908115620004b1578260025416176002558160035416176003557fa49807205ce4d355092ef5a8a18f56e8913cf4a201fbe287825b095693c21775806000526018602052826000203360005260205282600020600160ff198254161790557f97667070c54ef182b0f5858b034beac1b6f3089aa2d3188bb1e8929f4fa9b929806000526018602052836000203360005260205283600020600160ff198254161790557fbf233dd2aafeb4d50879c4aa5c81e96d92f6e6945c906a58f9f2d1c1631b4b2690816000526018602052846000203360005260205284600020600160ff198254161790557f59a1c48e5837ad7a7f3dcedcbe129bf3249ec4fbf651fd4f5e2600ead39fe2f593846000526018602052856000203360005260205285600020600160ff19825416179055836000526019602052856000203382825416179055816000528560002033828254161790558260005285600020338282541617905584600052856000209033908254161790557f2f8788117e7eff1d82e926ec794901d17c78024a50270940304540a733656f0d923390339085600080a43390339084600080a43390339083600080a433913391600080a46004600281556201518042018042116200049c578251602081016001600160401b03811182821017620004875784526000815283519161010083016001600160401b03811184821017620004725785526002835242602084015284830152600060608301526000608083015260a0820152600060c0820152600060e08201526002600052601d60205282600020918151835560208201516001840155838201516002840155606082015160038401556080820151818401556005830160a083015180519260018060401b0384116200045d576801000000000000000084116200045d5750815483835580841062000431575b5060200190600052602060002060005b83811062000413578686600760e0886006840160c0820151151560ff8019835416911617905501519101554260075551615e2590816200059682396080518181816107270152818161100b0152818161204f0152818161416e01528181614e4d01526151ad0152f35b82516001600160a01b031681830155602090920191600101620003aa565b8260005283602060002091820191015b8181106200045057506200039a565b6000815560010162000441565b604190634e487b7160e01b6000525260246000fd5b604185634e487b7160e01b6000525260246000fd5b604184634e487b7160e01b6000525260246000fd5b601182634e487b7160e01b6000525260246000fd5b835162461bcd60e51b815260206004820152601c60248201527f496e76616c6964207072696365206f7261636c652061646472657373000000006044820152606490fd5b62461bcd60e51b815260206004820152602360248201527f496e76616c69642072616e646f6d6e65737320636f6e7472616374206164647260448201526265737360e81b6064820152608490fd5b60805238620000d5565b8351631e4fbdf760e01b815260006004820152602490fd5b600080fd5b634e487b7160e01b600052604160045260246000fd5b51906001600160a01b0382168203620005655756fe60e080604052600436101561001357600080fd5b600090813560e01c90816303fa2c63146144bd57508063098655d9146144a05780630aa01695146144515780630b00a5db1461438c5780630c89d1271461435a5780630d9f92ca1461051c578063117a5b90146142e95780631472cbe3146141d757806316fa1086146141bb57806319bf155d1461419d5780632086eefa1461415857806320df43591461411d57806321874ae21461407357806325b7f38814613e555780632618cafd14613ba65780632630c12f14613b7d5780632655e84014613b3657806328100aca14613b185780632a243f1914613ae95780632e108d1c1461387c5780632ee8b7781461385e5780632f2ff15d146137b35780632ff7a52d1461377b57806339d8ea42146114f45780633a65126a146133aa5780633bb4f6381461338c5780633f781412146133485780633fb83a541461332757806341fe39ec146132fe57806343f2a0801461325e57806349faa4d41461051c5780634b75344e1461175e5780634eb692a51461322c5780634f55e8ad146131a857806352861f7f146131875780635932840114612f5e57806359a9867e14612dea57806359db6fe614612dcc5780635c27b2e41461260e5780635c975abb146125e857806367cafabb146125be57806369396e88146125a25780636ce497b2146125005780636e1d616e146124c5578063715018a61461246857806371e4206d1461222457806374631fd714611fdf5780637550b84f14611fc157806375b238fc14611f8657806377ce299214611f4d578063786a78c614611ec35780637967512714611e995780637a7eb1f414611e9457806384a3a0f314611e945780638543210d14611e615780638c267e0d14610fcd5780638da5cb5b14611e3857806391d1485414611dd3578063920736e514611d88578063968d901b14611cca57806396f277b714611ca35780639b5a139a14611ca85780639b95f1fc14611ca35780639ca423b314611c3e578063a04f6b4b14611c21578063a154fc6b14611bb1578063a2f77bcc14611ad0578063a37c157214611aa1578063a88066f714611aa6578063a9b8b45114611aa1578063ad76319214611a2c578063aea664a5146119e4578063b87fc22d1461183b578063b8caead61461181d578063ba53ba24146117ce578063bb6bf0f0146117b0578063bbc3ced71461051c578063bcf6447514610b33578063bf75762414611781578063c14e1e0514611763578063c5d321571461175e578063cb955e6b14611523578063cf376677146114f9578063d136a94d146114f4578063d2111791146114ca578063d547741f14611420578063d5749d42146113e1578063d5fa40e31461119b578063d61b86bb14611171578063db2e21bc14610fd2578063dd23b9cb14610fcd578063e22cb9c914610d07578063e2eb41ff14610bd8578063e3505b1414610b56578063e3d440a714610b38578063e443e27914610b33578063e82aefc714610a81578063e8f6940e1461095a578063eb0fb2c8146105f3578063ee892e64146105d5578063f2fde38b1461054a578063f5b541a614610521578063f8172fe31461051c578063f8fc08b9146104d05763ffc39504146104a457600080fd5b346104cd5760203660031901126104cd5760406020916004358152600b83522054604051908152f35b80fd5b50346104cd5760403660031901126104cd5760406104ec614509565b9160043581526018602052209060018060a01b0316600052602052602060ff604060002054166040519015158152f35b614563565b50346104cd57806003193601126104cd576020604051600080516020615db08339815191528152f35b50346104cd5760203660031901126104cd576105646144f3565b61056c61532d565b6001600160a01b039081169081156105bc57600154826001600160601b0360a01b821617600155167f8be0079c531659141344cd1fd0a4f28419497f9722a3daafe3b4186f6b6457e0600080a380f35b604051631e4fbdf760e01b815260048101849052602490fd5b50346104cd57806003193601126104cd576020602554604051908152f35b50346104cd57806003193601126104cd57600080516020615db08339815191528152602090601882526040812033600052825260ff604060002054168015610946575b61063f90614b7f565b610647615359565b60095415610901576000194301914383116108ed5760129160125493604051838101904282524460408201526060924060608201526080963360601b608083015260948201526094815261069a8161464c565b519020936106aa85600454615a6f565b60055460031c90845b815181101561085f576001600160a01b03806106cf8385614c29565b51166106df575b506001016106b3565b6107218885836106ef8688614c29565b5160405163a9059cbb60e01b815291166001600160a01b03166004820152602481019190915291829081906044820190565b03818b867f0000000000000000000000000000000000000000000000000000000000000000165af1908115610854578891610827575b50156107f057806107688385614c29565b51168752601a885260408720908154600a928382018092116107dc576001949392600080516020615dd0833981519152928e92556107a68588614c29565b51169260405190815260408c820152886040820152714461696c792077696e6e657220626f6e757360701b8a820152a2906106d6565b634e487b7160e01b8a52601160045260248afd5b60405162461bcd60e51b815260048101899052600f60248201526e151c985b9cd9995c8819985a5b1959608a1b6044820152606490fd5b6108479150893d8b1161084d575b61083f8183614683565b810190614ccb565b38610757565b503d610835565b6040513d8a823e3d90fd5b857f9f22d2b65d1e9bef93da4067644e4ead3bd41c9d3fc8568887cc572b482e6cb7888a6108df86600454927fdd1c72fcda97fcfc2fe124c4aa194986caca752d3769c00a6495659509d7b19b6108c0600554604051918291868984614c89565b0390a16040519485948552840152606060408401526060830190614c4c565b0390a16108ea61563f565b80f35b634e487b7160e01b82526011600452602482fd5b60405162461bcd60e51b815260048101839052601d60248201527f4e6f2072616e646f6d6e65737320726f756e64207265717565737465640000006044820152606490fd5b506001546001600160a01b03163314610636565b50346104cd5760203660031901126104cd5760043580151590818103610a7c5761098261532d565b156109fc5760207fb80d1ae5628c2af91424c54c87acfd15016be4bebeef0425b328238702f34831916109b3615359565b6001805460ff60a01b1916600160a01b1790556040513381527f62e78cea01bee320cd4e420270b5ea74000d11b0c9f74754ebdbfc544b05a258908390a15b604051908152a180f35b60015460ff8160a01c1615610a6a5760ff60a01b19166001556040513381527fb80d1ae5628c2af91424c54c87acfd15016be4bebeef0425b328238702f34831916020917f5db9ee0a495bf2e6ff9c91a7834c1ba4fdd244a5e8aa4e537bd38aeae4b073aa908390a16109f2565b604051638dfc202b60e01b8152600490fd5b600080fd5b50346104cd5760203660031901126104cd576004357fbf233dd2aafeb4d50879c4aa5c81e96d92f6e6945c906a58f9f2d1c1631b4b2682526018602052604082203360005260205260ff604060002054168015610b1f575b610ae290614b7f565b808252601360205260408220805460ff1916905533907f6d01469f672cd6cb0434a128cac9b91dc60a83e67a56be9fb5f265c18d29c7c58380a380f35b506001546001600160a01b03163314610ad9565b6149a5565b50346104cd57806003193601126104cd576020600554604051908152f35b50346104cd5760403660031901126104cd57610b70615359565b60025481906001600160a01b0316803b15610bd5578180916044604051809481936339a8f67760e21b8352600435600484015260243560248401525af18015610bca57610bba5750f35b610bc3906145e8565b6104cd5780f35b6040513d84823e3d90fd5b50fd5b50346104cd5760203660031901126104cd576001600160a01b03610bfa6144f3565b168152601a6020526040902080808054600182015460c0526002820154600383015460048401546005850154600686015460ff16600787015490600888015492600989015494600a8a015496600b8b015498600c8c01549a600d8d015460ff169c600e01549d600f01549e6010015460ff1660805260405160a05260a0515260c05160a0516020015260a0516040015260a0516060015260a0516080015260a05160a00152151560a05160c0015260a05160e0015260a051610100015260a051610120015260a051610140015260a051610160015260a0516101800152151560a0516101a0015260a0516101c0015260a0516101e00152608051151560a051610200015260a05161022090f35b50346104cd57806003193601126104cd57610d206153d7565b610d28615359565b3381526020601e8152610d4260ff60408420541615614a09565b338252601a808252610d5e60ff60066040862001541615614a09565b338352808252600c604084200154620151808101809111610ec957610d8590421015614a4d565b338352808252610d9e6064600e60408620015410614a99565b33835280825260ff600d60408520015416610f7d573383528082526001600960408520015410610f38573360005281805260406000205460058101809111610edd5760648111610ef35733600052828052604060002055808252600e6040600020015460058101809111610edd5733600052818352600e6040600020015533835280825260408320600d8101600160ff19825416179055549060058201809211610ec957338452825260408320908155600c42910155604051600581527f666ff46b6b5a0789c7d628ecfa8a5975b192b7d3541fc30b22da07a9b3d4ddbc823392a26040805191600583528201526012604082015271119a5c9cdd081bdc99195c881c995dd85c9960721b6060820152600080516020615dd083398151915260803392a26001815580f35b634e487b7160e01b84526011600452602484fd5b634e487b7160e01b600052601160045260246000fd5b60405162461bcd60e51b815260048101849052601b60248201527f4461696c7920726577617264206c696d697420657863656564656400000000006044820152606490fd5b60405162461bcd60e51b815260048101839052601860248201527f4e6f206669727374206f7264657220636f6d706c6574656400000000000000006044820152606490fd5b60405162461bcd60e51b815260048101839052602260248201527f4669727374206f726465722072657761726420616c726561647920636c61696d604482015261195960f21b6064820152608490fd5b6148b8565b50346104cd57806003193601126104cd57610feb61532d565b6040516370a0823160e01b81523060048201526020906001600160a01b037f00000000000000000000000000000000000000000000000000000000000000008116908383602481855afa928315611166578593611137575b5082156110f95760015460405163a9059cbb60e01b815291166001600160a01b031660048201526024810192909252829082908186816044810103925af19081156110ee5783916110d1575b5015611099575080f35b6064906040519062461bcd60e51b82526004820152601160248201527015da5d1a191c985dd85b0819985a5b1959607a1b6044820152fd5b6110e89150823d841161084d5761083f8183614683565b3861108f565b6040513d85823e3d90fd5b60405162461bcd60e51b81526004810185905260166024820152754e6f2062616c616e636520746f20776974686472617760501b6044820152606490fd5b9092508381813d831161115f575b61114f8183614683565b81010312610a7c57519138611043565b503d611145565b6040513d87823e3d90fd5b50346104cd5760203660031901126104cd5760406020916004358152600d83522054604051908152f35b50346104cd57806003193601126104cd576111b46153d7565b6111bc615359565b3381526020601e81526111d660ff60408420541615614a09565b338252601a908181526111f360ff60066040862001541615614a09565b338352818152600c604084200154620151809081810180911161133d5761121c90421015614a4d565b3384528282526112356064600e60408720015410614a99565b3384528282526007604085200154908101809111610ec95742106113a55766038d7ea4c680003331818110611351570491821583800460011481171561133d57611302579060409161128784336153fa565b33855280825261129a84848720546149fc565b903386528252828520908155426007820155600c429101558151928352820152601c60408201527f42617365205365706f6c696120686f6c64696e677320726577617264000000006060820152600080516020615dd083398151915260803392a26001815580f35b60405162461bcd60e51b81526004810183905260136024820152724e6f2072657761726420617661696c61626c6560681b6044820152606490fd5b634e487b7160e01b85526011600452602485fd5b60405162461bcd60e51b815260048101849052602660248201527f496e73756666696369656e742042617365205365706f6c69612045544820686f6044820152656c64696e677360d01b6064820152608490fd5b6064906040519062461bcd60e51b825260048201526015602482015274416c726561647920636865636b656420746f64617960581b6044820152fd5b50346104cd5760203660031901126104cd5760209060ff906040906001600160a01b0361140c6144f3565b168152601e84522054166040519015158152f35b50346104cd5760403660031901126104cd5760043561143d614509565b818352601960205260408320546001600160a01b0391908216331480156114bd575b61146890614ae5565b16611474811515614b41565b81835260186020526040832081600052602052604060002060ff19815416905533917ff6391f5c32d9c69d2a47ea670b442974b53935d1edc7fd64eb21e047a839171b8480a480f35b506001548216331461145f565b50346104cd5760203660031901126104cd5760406020916004358152601483522054604051908152f35b61474a565b50346104cd5760203660031901126104cd5760406020916004358152600f83522054604051908152f35b50346104cd57806003193601126104cd5761153c615359565b60118054610e10810180911161174a574210611705576000194301914383116116f35760011943014381116116e0576012549360018060a01b036002541691604051809363c142e49560e01b825281600460209687935afa9081156111665785916116b3575b5060405190848201924284524460408401526060944060608401524060808301523360601b60a08301528760b483015260d482015260d481526115e4816145cc565b51902083905b86825260108452604082208054861015611646579061160b86600193614535565b905490604051918783019384526001600160601b03199160031b1c861b1660408201526034815261163b81614631565b5190209401936115ea565b50915084868252600e84528260408320554281556012549160018301918284116116a05750506012557f716aeb9158d0411549d0ea0300d76e79332e89ec7eb7b7c475efa863e7b9d00f83604051848152a2604051908152f35b634e487b7160e01b825260045260249150fd5b90508381813d83116116d9575b6116ca8183614683565b81010312610a7c5751386115a2565b503d6116c0565b50602491634e487b7160e01b8252600452fd5b602491634e487b7160e01b8252600452fd5b60405162461bcd60e51b815260206004820152601b60248201527f456e74726f70792075706461746520746f6f206672657175656e7400000000006044820152606490fd5b634e487b7160e01b83526004829052602483fd5b61477d565b50346104cd57806003193601126104cd576020600854604051908152f35b50346104cd5760203660031901126104cd5760ff60406020926004358152602484522054166040519015158152f35b50346104cd57806003193601126104cd576020600954604051908152f35b50346104cd5760203660031901126104cd57602090600360406117ef6144f3565b926117ff620151804206426152d7565b6001600160a01b039094168152601a85522001546040519111158152f35b50346104cd57806003193601126104cd576020601754604051908152f35b50806003193601126104cd5761184f6153d7565b611857615359565b3381526020601e815261187160ff60408420541615614a09565b338252601a815261188c60ff60066040852001541615614a09565b338252601a81526064600b60408420015410156119a057670de0b6b3a7640000341061194457338252601a8152600b6040832001546001810180911161193057338352601a8252600b6040842001556006543460011b9034820460021434151715610ec957906118fb916149fc565b6006557f6a85014765ce1728a69f3d14127cc749d140ba142c380ef69ca533189dbfa360604051913483523392a26001815580f35b634e487b7160e01b83526011600452602483fd5b6084906040519062461bcd60e51b82526004820152602f60248201527f496e73756666696369656e742042617365205365706f6c69612045544820666f60448201526e72206a61636b706f7420656e74727960881b6064820152fd5b6064906040519062461bcd60e51b82526004820152601b60248201527f4d6178206a61636b706f7420656e7472696573207265616368656400000000006044820152fd5b50346104cd57806003193601126104cd57602554611a2860406026549343815260236020522054604051938493846040919493926060820195825260208201520152565b0390f35b50346104cd5760403660031901126104cd57600435611a49614509565b90611a5261532d565b80835260196020526040832080546001600160a01b0319166001600160a01b0390931692831790557fca1453e2085a936ea52e0049e559e235e08fe8678e165a7eb63f4568098706ad8380a380f35b614988565b50346104cd5760203660031901126104cd5760406020916004358152600e83522054604051908152f35b50346104cd57602090816003193601126104cd57611aec6152e4565b506004358152601d8252604081209160405191611b08836145cc565b8354835260019060018501548385015260028501546040850152600385015460608501526004850154608085015260058501916040518094808554928381520194845280842093905b828210611b9357611a288860078b8a611b6c818c0382614683565b60a084015260ff600682015416151560c0840152015460e0820152604051918291826148d4565b84546001600160a01b03168652948501949383019390830190611b51565b50346104cd5780611bc136614882565b9291611bcb615359565b6002546001600160a01b031690813b15611c1d5783606492604051968795869463a154fc6b60e01b86526004860152602485015260448401525af18015610bca57611c14575080f35b6108ea906145e8565b8380fd5b50346104cd57806003193601126104cd5760206040516103e88152f35b50346104cd5760203660031901126104cd576080906001600160a01b039060409082611c686144f3565b168152601c60205220908154169060018101549060ff6003600283015492015416916040519384526020840152604083015215156060820152f35b61496c565b50346104cd57806003193601126104cd57602060405166038d7ea4c680008152f35b50346104cd57806003193601126104cd57611ce36152e4565b506004548152602090601d602052604081209160405191611d03836145cc565b8354835260019060018501546020850152600285015460408501526003850154606085015260048501546080850152600585019160405180946020855492838152019484526020842093905b828210611d6a57611a288860078b8a611b6c818c0382614683565b84546001600160a01b03168652948501949383019390830190611d4f565b50346104cd57611d973661451f565b91908152600c602052604081209081548310156104cd576020611dba8484614535565b905460405160039290921b1c6001600160a01b03168152f35b50346104cd5760403660031901126104cd57602090611df0614509565b60043582526018835260408083206001600160a01b0392831680855290855292205460ff1691908215611e2a575b50506040519015158152f35b600154161490503880611e1e565b50346104cd57806003193601126104cd576001546040516001600160a01b039091168152602090f35b50346104cd5760203660031901126104cd57602090600435815260198252604060018060a01b0391205416604051908152f35b61489c565b50346104cd5760203660031901126104cd5760406020916004358152602383522054604051908152f35b50346104cd57806003193601126104cd57600354604051638f09c85760e01b815290602090829060049082906001600160a01b03165afa908115610bca578291611f13575b602082604051908152f35b90506020813d602011611f45575b81611f2e60209383614683565b81010312611f4157602091505138611f08565b5080fd5b3d9150611f21565b50346104cd5760203660031901126104cd576020906040906001600160a01b03611f756144f3565b168152602283522054604051908152f35b50346104cd57806003193601126104cd5760206040517fa49807205ce4d355092ef5a8a18f56e8913cf4a201fbe287825b095693c217758152f35b50346104cd57806003193601126104cd576020600754604051908152f35b50346104cd57806003193601126104cd57611ff86153d7565b612000615359565b3381526020601e815261201a60ff60408420541615614a09565b338252601a815261203560ff60066040852001541615614a09565b6040516370a0823160e01b815233600482015281816024817f00000000000000000000000000000000000000000000000000000000000000006001600160a01b03165afa9081156110ee5783916121f3575b5080156121bd57670de0b6b3a7640000900490600a820291808304600a149015171561193057811561217957612710821161213557604090338452601a81526120d683600884872001546149fc565b338552601a8252600883862001558151928352820152600c60408201526b564d4620686f6c64696e677360a01b60608201527fa6064b0de95f7cda15129e7c36146c8accf65abb7a3639d800a445fa55023a1760803392a26001815580f35b6064906040519062461bcd60e51b82526004820152601760248201527f4c6f79616c747920706f696e747320746f6f20686967680000000000000000006044820152fd5b6064906040519062461bcd60e51b82526004820152601a60248201527f4e6f206c6f79616c747920706f696e747320746f2061776172640000000000006044820152fd5b60405162461bcd60e51b815260048101839052600e60248201526d4e6f20564d462062616c616e636560901b6044820152606490fd5b90508181813d831161221d575b61220a8183614683565b81010312612219575138612087565b8280fd5b503d612200565b50346104cd5761223336614882565b600080516020615db083398151915284526020906018825260408520338652825260ff6040862054168015612454575b61226c90614b7f565b612274615359565b8385526013825260ff60408620541661241857612296601654601754906149fc565b42106123d357838552601582526040852054036123995782845260138152604084209060ff199160018382541617905560055491836005556014825260408620546001810180911161238557916014917f42d4a2476a82a032f615547e73391179c379c1eb26fb0bd034f43131ae2bc15d9594938789528383528060408a2055604051838101918783526040820152426060820152606081526123388161457f565b5190208789526015835260408920554260165560138252604088209081541690555261237f6040862054604051938493846040919493926060820195825260208201520152565b0390a280f35b634e487b7160e01b87526011600452602487fd5b6064906040519062461bcd60e51b8252600482015260136024820152720a6e8c2e8ca40d0c2e6d040dad2e6dac2e8c6d606b1b6044820152fd5b60405162461bcd60e51b815260048101839052601b60248201527f4a61636b706f742075706461746520746f6f206672657175656e7400000000006044820152606490fd5b60405162461bcd60e51b815260048101839052601460248201527311d85b59481cdd185d19481a5cc81b1bd8dad95960621b6044820152606490fd5b506001546001600160a01b03163314612263565b50346104cd57806003193601126104cd5761248161532d565b600180546001600160a01b0319811690915581906001600160a01b03167f8be0079c531659141344cd1fd0a4f28419497f9722a3daafe3b4186f6b6457e08280a380f35b50346104cd57806003193601126104cd5760206040517f59a1c48e5837ad7a7f3dcedcbe129bf3249ec4fbf651fd4f5e2600ead39fe2f58152f35b50346104cd5760203660031901126104cd577f37aa3048a2b523e3218796793d7c9283cbd45124c62254c97febfc129252429460206004357fa49807205ce4d355092ef5a8a18f56e8913cf4a201fbe287825b095693c2177584526018825260408420338552825260ff604085205416801561258e575b61258090614b7f565b80601755604051908152a180f35b506001546001600160a01b03163314612577565b50346104cd57806003193601126104cd57602060405160058152f35b50346104cd5760203660031901126104cd5760406020916004358152601583522054604051908152f35b50346104cd57806003193601126104cd57602060ff60015460a01c166040519015158152f35b50612618366146bf565b6126206153d7565b612628615359565b3382526020601e815261264260ff60408520541615614a09565b338352601a80825261265e60ff60066040872001541615614a09565b33845280825260ff601060408620015416612d9057338452808252600360408520015490610e1091828101809111612914574210612d55573385526021835260408520544210612d1257338552808352600f604086200154828101809111612914574210612ccd573385526022835242604086205580835242600f60408720015560045415612c96576126f0336157bb565b612c515766038d7ea4c680003410612bfe57338552808352600193600a856040882001541015612bb95760405161272681614616565b8681529080511580156129c8575b50503386528184528460408720015485810180911161238557338752828552604087209086820155426003820155548581018091116123855733875282855260408720556004548652600a845261278e33604088206149c1565b600454808752600b85526040872054908682018092116129b4578752600b855260408720556127bf346005546149fc565b600555805161296d575b5033855282805260408520548481018091116129145760648111612928573386528380526040862055808352600e60408620015484810180911161291457338652818452600e604087200155604051848152604084820152601160408201527011185a5b1e481c1b185e481c995dd85c99607a1b6060820152600080516020615dd083398151915260803392a26004546040513481527f480a6daea81f2af589e1959da1f1719512392ec551e8966266ee820f1c1f72ea853392a37f404449b42e86f8716dd5ac141731fb164fe1f76d7e4039fdd16c7b3b48f96a4e6040600554600654825191825286820152a13385528252601060408520018360ff19825416179055420190814211610ec9577f2f9a50b0843b7d2d827707c950209b525673c306d684446f6c4b1b748a4ed9ee90338552602181528260408620556040519283523392a2815580f35b634e487b7160e01b86526011600452602486fd5b60405162461bcd60e51b815260048101859052601b60248201527f4461696c7920726577617264206c696d697420657863656564656400000000006044820152606490fd5b6129a67f64274d45e838268efe3b4fa5586a29791f42c0f3f9a6422424c424401bf395899160405191829160408352604083019061485d565b33878301520390a1386127c9565b634e487b7160e01b88526011600452602488fd5b909150612b7c576064815111612b46576129e28151615819565b908587918189905b612ad9575b5050508015612a9457612a0181615819565b9186885b838110612a6a5750505050612a198161585c565b15612a25573880612734565b60405162461bcd60e51b815260048101859052601c60248201527f496e76616c696420726566657272616c20636f646520666f726d6174000000006044820152606490fd5b6001600160f81b0319612a7d828561584b565b51168a1a612a8b828761584b565b53018790612a05565b60405162461bcd60e51b815260048101869052601c60248201527f4e6f2076616c6964206368617261637465727320696e20696e707574000000006044820152606490fd5b8151811015612b41576001600160f81b0319612af5828461584b565b5116600160fd1b81101580612b33575b612b13575b508201826129ea565b839194612b2c918c1a612b26828961584b565b53614c3d565b9390612b0a565b50603f60f91b811115612b05565b6129ef565b60405162461bcd60e51b815260048101859052600e60248201526d496e70757420746f6f206c6f6e6760901b6044820152606490fd5b60405162461bcd60e51b8152600481018590526015602482015274496e7075742063616e6e6f7420626520656d70747960581b6044820152606490fd5b60405162461bcd60e51b815260048101859052601960248201527f4d6178206461696c7920656e74726965732072656163686564000000000000006044820152606490fd5b60405162461bcd60e51b815260048101849052602560248201527f496e73756666696369656e742042617365205365706f6c6961204554482062616044820152646c616e636560d81b6064820152608490fd5b60405162461bcd60e51b815260048101849052601c60248201527f537573706963696f7573206163746976697479206465746563746564000000006044820152606490fd5b60405162461bcd60e51b815260048101849052600f60248201526e125b9d985b1a590819d85b59481251608a1b6044820152606490fd5b60405162461bcd60e51b815260048101849052601b60248201527f536563757269747920636865636b20746f6f206672657175656e7400000000006044820152606490fd5b826064916040519162461bcd60e51b8352600483015260248201527f52617465206c696d697420636f6f6c646f776e206163746976650000000000006044820152fd5b60405162461bcd60e51b815260048101849052601360248201527214985d19481b1a5b5a5d08195e18d959591959606a1b6044820152606490fd5b60405162461bcd60e51b8152600481018390526014602482015273155cd95c881a5cc81c985d19481b1a5b5a5d195960621b6044820152606490fd5b50346104cd57806003193601126104cd576020601254604051908152f35b50346104cd57806003193601126104cd577fa49807205ce4d355092ef5a8a18f56e8913cf4a201fbe287825b095693c2177581526020906018825260408120338252825260ff9160ff6040832054168015612f4a575b612e4990614b7f565b602654610e108101809111611930574210612f0657815b60648110612eb157504260265560255460018101809111611930577f1b9b06155f0da9bce83c4a8a54dcca59cdf479249ceb43679c0bd7fa67b2f1889181604092602555825191428352820152a180f35b80600191431180612ee9575b612ec8575b01612e60565b612ed281436152d7565b84526024835260408420805460ff19169055612ec2565b50612ef481436152d7565b84526024835284604085205416612ebd565b6064906040519062461bcd60e51b82526004820152601960248201527f4f7074696d697a6174696f6e20746f6f206672657175656e74000000000000006044820152fd5b506001546001600160a01b03163314612e40565b50346104cd5760203660031901126104cd57604061022091612f7e6144f3565b816102008451612f8d816145b0565b82815282602082015282868201528260608201528260808201528260a08201528260c08201528260e08201528261010082015282610120820152826101408201528261016082015282610180820152826101a0820152826101c0820152826101e0820152015260018060a01b03168152601a60205220610200604051613012816145b0565b60ff601084549485845260018101546020850152600281015460408501526003810154606085015260048101546080850152600581015460a085015282600682015416151560c0850152600781015460e085015260088101546101008501526009810154610120850152600a810154610140850152600b810154610160850152600c81015461018085015282600d8201541615156101a0850152600e8101546101c0850152600f8101546101e08501520154161515828201526040519283526020810151602084015260408101516040840152606081015160608401526080810151608084015260a081015160a084015260c0810151151560c084015260e081015160e08401526101008101516101008401526101208101516101208401526101408101516101408401526101608101516101608401526101808101516101808401526101a081015115156101a08401526101c08101516101c08401526101e08101516101e084015201511515610200820152f35b50346104cd57806003193601126104cd576131a061532d565b6108ea61506a565b50346104cd5760203660031901126104cd576040906004358152601f602052208054604051916131e6836131df81600185016147a0565b0384614683565b60028101549060ff600460038301549201541690613216604051958695865260a0602087015260a086019061485d565b9260408501526060840152151560808301520390f35b50346104cd5761323b3661451f565b91908152600a602052604081209081548310156104cd576020611dba8484614535565b50346104cd5760403660031901126104cd576132786144f3565b6024359081151590818303611c1d577f7c6a5677e7a854a53d06c412e00ebe65535f5343566ca7939ac7c7f6b0b00c16916132f46020926132b761532d565b6001600160a01b0316808752601e84526040808820805497151560ff1660ff199889168117909155601a8652908820600601805490971617909555565b604051908152a280f35b50346104cd57806003193601126104cd576002546040516001600160a01b039091168152602090f35b50346104cd57806003193601126104cd5761334061532d565b6108ea614d2f565b50346104cd5760203660031901126104cd57606090600554906004358152601560205260408082205491601460205220549060405192835260208301526040820152f35b50346104cd57806003193601126104cd576020600654604051908152f35b50346104cd5760403660031901126104cd576004356001600160401b0380821161221957366023830112156122195781600401356133e781614766565b926133f56040519485614683565b8184526024602085019260051b8201019036821161375357602401915b8183106137575750505060243590811161221957366023820112156122195780600401359061344082614766565b9161344e6040519384614683565b8083526024602084019160051b8301019136831161375357602401905b82821061374357505050600080516020615db0833981519152835260186020526040832033845260205260ff604084205416801561372f575b6134ad90614b7f565b6134b5615359565b81518151036136f257600a8251116136b657438352602460205260ff60408420541661367157438352602460205260408320600160ff198254161790556023602052604083205460018101809111610ec957438452602360205260408420558290835b8351811015613625576001600160a01b03806135348387614c29565b5116151580613612575b61354c575b50600101613518565b6135598286959395614c29565b51166135658484614c29565b5190808752601a6020526001604088206135808482546149fc565b815542600382015501805490600182018092116135fe57556004548752600a602052604087206135b091906149c1565b600454808752600b6020526040872054906001820182116129b4576135e892916001918952600b6020520160408820556005546149fc565b6005556001810180911161133d57916001613543565b634e487b7160e01b89526011600452602489fd5b5061361d8284614c29565b51151561353e565b50509043835260246020526040832060ff1981541690555160405191825260208201527fc8a16388af0851bdc51694269f90c12af519cfbd71e7ab51d304b3be25d1118460404392a280f35b60405162461bcd60e51b815260206004820152601f60248201527f42617463682070726f63657373696e6720616c726561647920616374697665006044820152606490fd5b60405162461bcd60e51b815260206004820152601460248201527342617463682073697a6520746f6f206c6172676560601b6044820152606490fd5b60405162461bcd60e51b8152602060048201526015602482015274082e4e4c2f240d8cadccee8d040dad2e6dac2e8c6d605b1b6044820152606490fd5b506001546001600160a01b031633146134a4565b813581526020918201910161346b565b8580fd5b82356001600160a01b038116810361377757815260209283019201613412565b8680fd5b50346104cd5760203660031901126104cd576020906040906001600160a01b036137a36144f3565b1681528280522054604051908152f35b50346104cd5760403660031901126104cd576004356137d0614509565b818352601960205260408320546001600160a01b039190821633148015613851575b6137fb90614ae5565b16613807811515614b41565b81835260186020526040832081845260205260408320600160ff1982541617905533917f2f8788117e7eff1d82e926ec794901d17c78024a50270940304540a733656f0d8480a480f35b50600154821633146137f2565b50346104cd57806003193601126104cd576020601154604051908152f35b50346104cd57806003193601126104cd576138956153d7565b61389d615359565b3381526020601e815260ff6138b960ff60408520541615614a09565b338352601a82526138d460ff60066040862001541615614a09565b338352601c825260408320546001600160a01b03908116613aa457826040516138fc816145fb565b60148082528282019483368737875b828110613a4657505050613a3c9260036139ac7f9aba81a9970f49adfcb9191b4663d4a18a3a6236fbbef5e36c5478a55fd4a03a9694613a299461399b602561395342615b2e565b98604051998a91613978878401966450495a5a4160d81b885251809286860190614727565b820161398c82518093898785019101614727565b0103600581018a520188614683565b604051809381928951928391614727565b8101601b815203019020916001600160601b0360a01b923384825416179055604051926139d88461457f565b3384528884018a815260408501918b8352606086019360018552338d52601c8c5260408d209651169086541617855551600185015551600284015551151591019060ff801983541691151516179055565b604051918291858352339583019061485d565b0390a26001815580f35b909192935060138181039081116135fe57600381901b906001600160fd1b038116036135fe578281116135fe5790600191613a888360ff60f81b921b33614cab565b60f81b16891a613a98828761584b565b5301908693929161390b565b60405162461bcd60e51b815260048101849052601c60248201527f526566657272616c20636f646520616c726561647920657869737473000000006044820152606490fd5b50346104cd5760203660031901126104cd5760ff60406020926004358152601384522054166040519015158152f35b50346104cd57806003193601126104cd576020602654604051908152f35b50346104cd576020613b47366146bf565b81613b5b6040519283815193849201614727565b601b90820190815281900382019020546040516001600160a01b039091168152f35b50346104cd57806003193601126104cd576003546040516001600160a01b039091168152602090f35b50346104cd57602080600319360112611f4157600435613bc46153d7565b613bcc615359565b338352601e8252613be460ff60408520541615614a09565b338352601a91828152613c0160ff60066040872001541615614a09565b338452828152600c60408520015462015180810180911161133d57613c2890421015614a4d565b338452828152613c416064600e60408720015410614a99565b818452601f8152604084209260ff60048501541615613e1957600584019033865281835260ff604087205416613dd457600285019182548015613d8f576103e88111613d4a57613c9190336153fa565b338752835260408620600160ff19825416179055808352600a604087200154600181018091116123855791600080516020615dd0833981519152949391613cec604094338a52828552858a2090600a820155548354906149fc565b903389528352838820908155600c429101555492825190815283828201527f20861823fa14b60d3f02cc6e48b647ac592dd27e39a78f278df5c918dabb8b2c833392a2815192835282015280613a3c339460016040840191016147a0565b60405162461bcd60e51b815260048101869052601960248201527f4368616c6c656e67652072657761726420746f6f2068696768000000000000006044820152606490fd5b60405162461bcd60e51b815260048101869052601860248201527f496e76616c6964206368616c6c656e67652072657761726400000000000000006044820152606490fd5b60405162461bcd60e51b815260048101849052601b60248201527f4368616c6c656e676520616c726561647920636f6d706c6574656400000000006044820152606490fd5b60405162461bcd60e51b81526004810183905260146024820152734368616c6c656e6765206e6f742061637469766560601b6044820152606490fd5b50346104cd57806003193601126104cd57613e6e6153d7565b613e76615359565b3381526020601e8152613e9060ff60408420541615614a09565b338252601a808252613eac60ff60066040862001541615614a09565b338352808252600c604084200154620151809081810180911161133d57613ed590421015614a4d565b338452818352613eee6064600e60408720015410614a99565b338452818352600760046040862001541061402e573384528183526005604085200154908101809111610ec9574210613fde57338352818052604083205460038101809111610ec95760648111610ef3573384528280526040842055808252600e60408420015460038101809111610ec9573384528183526040842090600e820155549060038201809211610ec957338452825260408320908155426005820155600c429101556040805191600383528201526012604082015271372d6461792073747265616b20626f6e757360701b6060820152600080516020615dd083398151915260803392a26001815580f35b60405162461bcd60e51b815260048101839052602260248201527f53747265616b20626f6e757320616c726561647920636c61696d656420746f64604482015261617960f01b6064820152608490fd5b60405162461bcd60e51b815260048101849052601860248201527f372d6461792073747265616b206e6f74207265616368656400000000000000006044820152606490fd5b50346104cd5760203660031901126104cd5760809060406140926144f3565b9180606083516140a18161457f565b8281528260208201528285820152015260018060a01b038093168152601c6020522090604051906140d18261457f565b82541691828252600181015460208301908152606060ff600360028501549460408701958652015416930192151583526040519384525160208401525160408301525115156060820152f35b50346104cd57806003193601126104cd5760206040517fbf233dd2aafeb4d50879c4aa5c81e96d92f6e6945c906a58f9f2d1c1631b4b268152f35b50346104cd57806003193601126104cd576040517f00000000000000000000000000000000000000000000000000000000000000006001600160a01b03168152602090f35b50346104cd57806003193601126104cd576020601654604051908152f35b50346104cd57806003193601126104cd57602060405160088152f35b50346104cd57602080600319360112611f4157600435906141f6615359565b81156142b3576142053361537a565b6142795760125483526010815261421f33604085206149c1565b601254808452600f82526142378360408620546149fc565b908452600f82526040842055601254906040519283528201527fefe539503e4a6bc6d750abe6f7471ea59543ad95e1757fcd02ecb9a6c212e92060403392a280f35b6064906040519062461bcd60e51b825260048201526013602482015272105b1c9958591e4818dbdb9d1c9a589d5d1959606a1b6044820152fd5b6064906040519062461bcd60e51b82526004820152600f60248201526e496e76616c696420656e74726f707960881b6044820152fd5b50346104cd5760203660031901126104cd57604060e0916004358152601d6020522080549060018101549060028101546003820154600483015491600760ff600686015416940154946040519687526020870152604086015260608501526080840152151560a083015260c0820152f35b50346104cd576143693661451f565b919081526010602052604081209081548310156104cd576020611dba8484614535565b50346104cd57806003193601126104cd576143a561532d565b6143ad615359565b60025460405163f8413b0760e01b8152906020908290600490829086906001600160a01b03165af1908115610bca57829161441e575b506040817f3d94fecedaa4f90b8bd459797adb95f5bb11426025c5541390d9ccc1ad1b60a1926009556004549082519182526020820152a180f35b90506020813d602011614449575b8161443960209383614683565b81010312611f41575160406143e3565b3d915061442c565b50346104cd57806003193601126104cd57600354604051630d73ebb560e01b815290602090829060049082906001600160a01b03165afa908115610bca578291611f1357602082604051908152f35b50346104cd57806003193601126104cd57602060405161012c8152f35b905034611f41576020366003190112611f41576020916040906001600160a01b036144e66144f3565b1681526021845220548152f35b600435906001600160a01b0382168203610a7c57565b602435906001600160a01b0382168203610a7c57565b6040906003190112610a7c576004359060243590565b805482101561454d5760005260206000200190600090565b634e487b7160e01b600052603260045260246000fd5b34610a7c576000366003190112610a7c576020604051600a8152f35b608081019081106001600160401b0382111761459a57604052565b634e487b7160e01b600052604160045260246000fd5b61022081019081106001600160401b0382111761459a57604052565b61010081019081106001600160401b0382111761459a57604052565b6001600160401b03811161459a57604052565b604081019081106001600160401b0382111761459a57604052565b602081019081106001600160401b0382111761459a57604052565b606081019081106001600160401b0382111761459a57604052565b60c081019081106001600160401b0382111761459a57604052565b61012081019081106001600160401b0382111761459a57604052565b90601f801991011681019081106001600160401b0382111761459a57604052565b6001600160401b03811161459a57601f01601f191660200190565b6020600319820112610a7c576004356001600160401b038111610a7c5781602382011215610a7c578060040135906146f6826146a4565b926147046040519485614683565b82845260248383010111610a7c5781600092602460209301838601378301015290565b60005b83811061473a5750506000910152565b818101518382015260200161472a565b34610a7c576000366003190112610a7c57602060405160648152f35b6001600160401b03811161459a5760051b60200190565b34610a7c576000366003190112610a7c576020604051670de0b6b3a76400008152f35b80546000939260018083169383821c938515614853575b602095868610811461483d5785855290811561481e57506001146147dd575b5050505050565b90939495506000929192528360002092846000945b83861061480a575050505001019038808080806147d6565b8054858701830152940193859082016147f2565b60ff19168685015250505090151560051b0101915038808080806147d6565b634e487b7160e01b600052602260045260246000fd5b93607f16936147b7565b9060209161487681518092818552858086019101614727565b601f01601f1916010190565b6060906003190112610a7c57600435906024359060443590565b34610a7c576000366003190112610a7c57602060405160028152f35b34610a7c576000366003190112610a7c57602060405160018152f35b6020918282526101208201908051848401528381015160408401526040810151606084015260608101516080840152608081015160a084015260a081015193610100928360c0860152855180915281610140860196019160005b82811061494f57505050508060c060e0920151151582850152015191015290565b83516001600160a01b03168852968101969281019260010161492e565b34610a7c576000366003190112610a7c57602060405160328152f35b34610a7c576000366003190112610a7c576020604051610e108152f35b34610a7c576000366003190112610a7c57602060405160038152f35b8054600160401b81101561459a576149de91600182018155614535565b60018060a09493941b038084549260031b9316831b921b1916179055565b91908201809211610edd57565b15614a1057565b60405162461bcd60e51b8152602060048201526015602482015274141b185e595c881a5cc8189b1858dadb1a5cdd1959605a1b6044820152606490fd5b15614a5457565b60405162461bcd60e51b815260206004820152601c60248201527f52657761726420616c726561647920636c61696d656420746f646179000000006044820152606490fd5b15614aa057565b60405162461bcd60e51b815260206004820152601a60248201527f4461696c7920726577617264206c696d697420726561636865640000000000006044820152606490fd5b15614aec57565b60405162461bcd60e51b815260206004820152602760248201527f416363657373436f6e74726f6c3a2063616c6c6572206973206e6f7420726f6c604482015266329030b236b4b760c91b6064820152608490fd5b15614b4857565b60405162461bcd60e51b815260206004820152600f60248201526e496e76616c6964206164647265737360881b6044820152606490fd5b15614b8657565b60405162461bcd60e51b815260206004820152602860248201527f416363657373436f6e74726f6c3a2063616c6c657220646f6573206e6f74206860448201526761766520726f6c6560c01b6064820152608490fd5b80511561454d5760200190565b80516001101561454d5760400190565b80516002101561454d5760600190565b80516003101561454d5760800190565b80516004101561454d5760a00190565b805182101561454d5760209160051b010190565b6000198114610edd5760010190565b90815180825260208080930193019160005b828110614c6c575050505090565b83516001600160a01b031685529381019392810192600101614c5e565b939291614ca6906040928652606060208701526060860190614c4c565b930152565b8115614cb5570490565b634e487b7160e01b600052601260045260246000fd5b90816020910312610a7c57518015158103610a7c5790565b15614cea57565b60405162461bcd60e51b815260206004820152601960248201527f564d46207072697a65207472616e73666572206661696c6564000000000000006044820152606490fd5b6004908154916000928352602092601d845260409081812091600683019081549660ff881661502f5760028501544210614ff957614d7060038601546154e5565b948496855b8751811015614db3576001600160a01b03614d90828a614c29565b5116614d9f575b600101614d75565b97614dab600191614c3d565b989050614d97565b50929690949897919593978115614fb05750614dd190600554614cab565b93885b8451811015614eb9576001600160a01b0390878783614df3848a614c29565b5116614e06575b50506001915001614dd4565b838d8495614e17614e49968c614c29565b5116908d5180968195829463a9059cbb60e01b84528d840160209093929193604081019460018060a01b031681520152565b03927f0000000000000000000000000000000000000000000000000000000000000000165af1908115614eaf5760019291614e8b918d91614e92575b50614ce3565b8787614dfa565b614ea991508a3d8c1161084d5761083f8183614683565b38614e85565b89513d8d823e3d90fd5b50935095919493909660058401908651926001600160401b038411614f9d57600160401b8411614f9d578254848455808510614f78575b50808801928252808220915b848110614f5d5750505050509480614f50927fdd1c72fcda97fcfc2fe124c4aa194986caca752d3769c00a6495659509d7b19b9697600160ff19825416179055600554928391015554925193849384614c89565b0390a1614f5b61563f565b565b83516001600160a01b03168382015592810192600101614efc565b8383528482842091820191015b818110614f925750614ef0565b838155600101614f85565b634e487b7160e01b825260418a52602482fd5b60ff1916600117909755905460055495519197507fdd1c72fcda97fcfc2fe124c4aa194986caca752d3769c00a6495659509d7b19b96509094859450614f509350919084614c89565b8590606492519162461bcd60e51b8352820152601160248201527011d85b59481b9bdd08199a5b9a5cda1959607a1b6044820152fd5b8590606492519162461bcd60e51b8352820152601660248201527511d85b5948185b1c9958591e4818dbdb5c1b195d195960521b6044820152fd5b60085462093a808101809111610edd57421061529a5760408051916001600160401b03919061016084018381118582101761459a578252600a84526020926101403660208701378251617d2081019182118183101761459a57617d009184526103e8815260203691013760009160005b8551811015615118576001600160a01b036150f58288614c29565b5116615104575b6001016150da565b92615110600191614c3d565b9390506150fc565b5091929092801561525f5761512f90600654614cab565b9360005b8151811015615214576001600160a01b03908387836151528487614c29565b5116615165575b50506001915001615133565b8383946151756151a99588614c29565b51166000895180968195829463a9059cbb60e01b84526004840160209093929193604081019460018060a01b031681520152565b03927f0000000000000000000000000000000000000000000000000000000000000000165af190811561520957600192916151eb916000916151f25750614ce3565b8387615159565b614ea99150863d881161084d5761083f8183614683565b85513d6000823e3d90fd5b509190507f266eab4e9078d52ec3f1266d5b3619a11040584ef2997fdea8afa3c03fa5597792935061525160045491600654905193849384614c89565b0390a1600060065542600855565b5050917f266eab4e9078d52ec3f1266d5b3619a11040584ef2997fdea8afa3c03fa55977919261525160045491600654905193849384614c89565b60405162461bcd60e51b81526020600482015260156024820152745765656b6c792064726177206e6f7420726561647960581b6044820152606490fd5b91908203918211610edd57565b604051906152f1826145cc565b8160e0600091828152826020820152826040820152826060820152826080820152606060a08201528260c08201520152565b8115614cb5570690565b6001546001600160a01b0316330361534157565b60405163118cdaa760e01b8152336004820152602490fd5b60ff60015460a01c1661536857565b60405163d93c066560e01b8152600490fd5b6012549060005b826000526010602052604060002080548210156153ce57816153a291614535565b905460039190911b1c6001600160a01b03908116908316146153c657600101615381565b505050600190565b50505050600090565b6002600054146153e8576002600055565b604051633ee5aeb560e01b8152600490fd5b81156154a0576103e882116154625760018060a01b03169060009082825260209081805261542c8160408520546149fc565b60648111610ef3576040926154598593601a9388600e9852838052868620558383528686862001546149fc565b95835252200155565b60405162461bcd60e51b81526020600482015260166024820152750a4caeec2e4c840c2dadeeadce840e8dede40d0d2ced60531b6044820152606490fd5b60405162461bcd60e51b815260206004820152601e60248201527f52657761726420616d6f756e74206d75737420626520706f73697469766500006044820152606490fd5b906040908151906154f582614667565b600892600883526020906101003683860137600091868352601d815260078284200154918215615634576002548151631daaf1b160e11b815260048101949094526001600160a01b0398908390859060249082908d165afa93841561562a5785946155f7575b5083156155eb578452600a82528084209485549485156155d5575b888110806155e2575b156155d5576155d0908a6155b86155b2898751898101908b8252868a8201528981526155aa81614631565b519020615323565b8a614535565b90549060031b1c166155ca828b614c29565b52614c3d565b615576565b5097505050505050905090565b5085811061557f565b50505050509250905090565b9093508281813d8311615623575b61560f8183614683565b8101031261561f5751923861555b565b8480fd5b503d615605565b82513d87823e3d90fd5b505050509250905090565b600461564b8154614c3d565b8082556201518042018042116157a6576040519261566884614616565b6000908185526040519461567b866145cc565b848652602092838701934285526040880195865260608801828152608089019083825260a08a0194855260c08a019784895260e08b0199858b528552601d8452604085209a518b556001975160018c01555160028b01555160038a015551848901556005880192518051946001600160401b03861161579357600160401b8611615793575081908454868655808710615769575b5001928252808220915b84811061574f5750505050505090615745600792511515600685019060ff801983541691151516179055565b5191015542600755565b83516001600160a01b031683820155928101928501615719565b858552878784872092830192015b82811061578557505061570f565b868155859450899101615777565b634e487b7160e01b845260419052602483fd5b601183634e487b7160e01b6000525260246000fd5b60018060a01b03166000908082526022602052601e6157de6040842054426152d7565b10615812578152601a602052600a60016040832001541161580c5760208052606460408220541161580c5790565b50600190565b5050600190565b90615823826146a4565b6158306040519182614683565b8281528092615841601f19916146a4565b0190602036910137565b90815181101561454d570160200190565b805160038110908115615a64575b50615a5e5760005b815181101561592e576001600160f81b031961588e828461584b565b5116600360fc1b811015908161591f575b81156158fb575b81156158d7575b81156158c9575b50156158c257600101615872565b5050600090565b605f60f81b149050386158b4565b9050606160f81b811015806158ed575b906158ad565b50603d60f91b8111156158e7565b9050604160f81b81101580615911575b906158a6565b50602d60f91b81111561590b565b603960f81b811115915061589f565b5060015b8151811015615990576001600160f81b0319605f60f81b8082615955858761584b565b511614918261596d575b50506158c257600101615932565b9091506000198301838111610edd57615986908561584b565b511614388061595f565b509061599c8251615819565b60005b8351811015615a44576001600160f81b031990606160f81b826159c2838861584b565b5116101580615a2a575b15615a08576159db818661584b565b5160f89290831c601f190160ff8111610edd576001931b1660001a615a00828561584b565b535b0161599f565b600191615a15828761584b565b511660001a615a24828561584b565b53615a02565b50603d60f91b82615a3b838861584b565b511611156159cc565b50615a50919250615bcc565b615a5957600190565b600090565b50600090565b60329150113861586a565b9060409160405192615a8084614667565b60089260088552602061010036602088013760009184600052600b602052604060002054908115615b245760005b878110615ac057505050505050505090565b600190615b05615af685895188810190878252858c82015242606082015244608082015260a08d8183015281526155aa8161464c565b898852600a8752888820614535565b838060a01b0391549060031b1c16615b1d828c614c29565b5201615aae565b5050505050505090565b8015615bae5780600081805b615b965750615b4881615819565b925b615b5357505090565b6000198101908111610edd578091600a9160308383068101809111610edd5760f81b6001600160f81b03191660001a90615b8d908661584b565b53049081615b4a565b9150615ba3600a91614c3d565b910480839291615b3a565b50604051615bbb816145fb565b60018152600360fc1b602082015290565b6040805190615bda8261464c565b6005825260005b60a08110615d1157508051615bf5816145fb565b600581526420a226a4a760d91b6020820152615c1083614bdc565b52615c1a82614bdc565b508051615c26816145fb565b600581526427aba722a960d91b6020820152615c4183614be9565b52615c4b82614be9565b508051615c57816145fb565b600681526553595354454d60d01b6020820152615c7383614bf9565b52615c7d82614bf9565b508051615c89816145fb565b60048152631395531360e21b6020820152615ca383614c09565b52615cad82614c09565b5051615cb8816145fb565b6004815263151154d560e21b6020820152615cd282614c19565b52615cdc81614c19565b5060005b8151811015615d0957615cfd615cf68284614c29565b5184615d22565b6153c657600101615ce0565b505050600090565b806060602080938601015201615be1565b9080518251106158c2576000905b615d3d83518251906152d7565b8211615d095760019260005b8251811015615da5576001600160f81b031980615d6f615d6984886149fc565b8561584b565b511690615d7c838661584b565b511603615d8b57600101615d49565b5092509060005b6153c657615d9f90614c3d565b90615d30565b5092919091615d9256fe97667070c54ef182b0f5858b034beac1b6f3089aa2d3188bb1e8929f4fa9b929195188e7e2a9c946c91317946030490c3ba48a5b7f867101928826fa4cc609c5a2646970667358221220531353ab3ce8b53f4eafd6ed41d8dacb51181b6acf1236da3e31810f91eab4ec64736f6c63430008180033","opcodes":"PUSH1 0xA0 CALLVALUE PUSH3 0x565 JUMPI PUSH1 0x1F PUSH3 0x63BB CODESIZE DUP2 SWAP1 SUB SWAP2 DUP3 ADD PUSH1 0x1F NOT AND DUP4 ADD SWAP3 SWAP2 SWAP1 PUSH1 0x1 PUSH1 0x1 PUSH1 0x40 SHL SUB DUP5 GT DUP4 DUP6 LT OR PUSH3 0x56A JUMPI DUP2 PUSH1 0x60 SWAP3 DUP5 SWAP3 PUSH1 0x40 SWAP7 DUP8 MSTORE DUP4 CODECOPY DUP2 ADD SUB SLT PUSH3 0x565 JUMPI PUSH3 0x51 DUP2 PUSH3 0x580 JUMP JUMPDEST SWAP1 PUSH3 0x6D DUP4 PUSH3 0x65 PUSH1 0x20 DUP5 ADD PUSH3 0x580 JUMP JUMPDEST SWAP3 ADD PUSH3 0x580 JUMP JUMPDEST PUSH1 0x1 PUSH1 0x0 SSTORE CALLER ISZERO PUSH3 0x54D JUMPI PUSH1 0x1 DUP1 SLOAD CALLER PUSH1 0x1 PUSH1 0x1 PUSH1 0xA0 SHL SUB NOT DUP1 DUP4 AND DUP3 OR SWAP1 SWAP4 SSTORE DUP7 MLOAD SWAP3 SWAP6 SWAP3 SWAP5 SWAP3 SWAP2 PUSH1 0x1 PUSH1 0x1 PUSH1 0xA0 SHL SUB AND PUSH32 0x8BE0079C531659141344CD1FD0A4F28419497F9722A3DAAFE3B4186F6B6457E0 PUSH1 0x0 DUP1 LOG3 PUSH1 0x1 PUSH1 0x1 PUSH1 0xA0 SHL SUB AND DUP1 PUSH3 0x543 JUMPI JUMPDEST POP PUSH1 0x1 PUSH1 0x1 PUSH1 0xA0 SHL SUB AND SWAP2 DUP3 ISZERO PUSH3 0x4F5 JUMPI POP PUSH1 0x1 PUSH1 0x1 PUSH1 0xA0 SHL SUB AND SWAP1 DUP2 ISZERO PUSH3 0x4B1 JUMPI DUP3 PUSH1 0x2 SLOAD AND OR PUSH1 0x2 SSTORE DUP2 PUSH1 0x3 SLOAD AND OR PUSH1 0x3 SSTORE PUSH32 0xA49807205CE4D355092EF5A8A18F56E8913CF4A201FBE287825B095693C21775 DUP1 PUSH1 0x0 MSTORE PUSH1 0x18 PUSH1 0x20 MSTORE DUP3 PUSH1 0x0 KECCAK256 CALLER PUSH1 0x0 MSTORE PUSH1 0x20 MSTORE DUP3 PUSH1 0x0 KECCAK256 PUSH1 0x1 PUSH1 0xFF NOT DUP3 SLOAD AND OR SWAP1 SSTORE PUSH32 0x97667070C54EF182B0F5858B034BEAC1B6F3089AA2D3188BB1E8929F4FA9B929 DUP1 PUSH1 0x0 MSTORE PUSH1 0x18 PUSH1 0x20 MSTORE DUP4 PUSH1 0x0 KECCAK256 CALLER PUSH1 0x0 MSTORE PUSH1 0x20 MSTORE DUP4 PUSH1 0x0 KECCAK256 PUSH1 0x1 PUSH1 0xFF NOT DUP3 SLOAD AND OR SWAP1 SSTORE PUSH32 0xBF233DD2AAFEB4D50879C4AA5C81E96D92F6E6945C906A58F9F2D1C1631B4B26 SWAP1 DUP2 PUSH1 0x0 MSTORE PUSH1 0x18 PUSH1 0x20 MSTORE DUP5 PUSH1 0x0 KECCAK256 CALLER PUSH1 0x0 MSTORE PUSH1 0x20 MSTORE DUP5 PUSH1 0x0 KECCAK256 PUSH1 0x1 PUSH1 0xFF NOT DUP3 SLOAD AND OR SWAP1 SSTORE PUSH32 0x59A1C48E5837AD7A7F3DCEDCBE129BF3249EC4FBF651FD4F5E2600EAD39FE2F5 SWAP4 DUP5 PUSH1 0x0 MSTORE PUSH1 0x18 PUSH1 0x20 MSTORE DUP6 PUSH1 0x0 KECCAK256 CALLER PUSH1 0x0 MSTORE PUSH1 0x20 MSTORE DUP6 PUSH1 0x0 KECCAK256 PUSH1 0x1 PUSH1 0xFF NOT DUP3 SLOAD AND OR SWAP1 SSTORE DUP4 PUSH1 0x0 MSTORE PUSH1 0x19 PUSH1 0x20 MSTORE DUP6 PUSH1 0x0 KECCAK256 CALLER DUP3 DUP3 SLOAD AND OR SWAP1 SSTORE DUP2 PUSH1 0x0 MSTORE DUP6 PUSH1 0x0 KECCAK256 CALLER DUP3 DUP3 SLOAD AND OR SWAP1 SSTORE DUP3 PUSH1 0x0 MSTORE DUP6 PUSH1 0x0 KECCAK256 CALLER DUP3 DUP3 SLOAD AND OR SWAP1 SSTORE DUP5 PUSH1 0x0 MSTORE DUP6 PUSH1 0x0 KECCAK256 SWAP1 CALLER SWAP1 DUP3 SLOAD AND OR SWAP1 SSTORE PUSH32 0x2F8788117E7EFF1D82E926EC794901D17C78024A50270940304540A733656F0D SWAP3 CALLER SWAP1 CALLER SWAP1 DUP6 PUSH1 0x0 DUP1 LOG4 CALLER SWAP1 CALLER SWAP1 DUP5 PUSH1 0x0 DUP1 LOG4 CALLER SWAP1 CALLER SWAP1 DUP4 PUSH1 0x0 DUP1 LOG4 CALLER SWAP2 CALLER SWAP2 PUSH1 0x0 DUP1 LOG4 PUSH1 0x4 PUSH1 0x2 DUP2 SSTORE PUSH3 0x15180 TIMESTAMP ADD DUP1 TIMESTAMP GT PUSH3 0x49C JUMPI DUP3 MLOAD PUSH1 0x20 DUP2 ADD PUSH1 0x1 PUSH1 0x1 PUSH1 0x40 SHL SUB DUP2 GT DUP3 DUP3 LT OR PUSH3 0x487 JUMPI DUP5 MSTORE PUSH1 0x0 DUP2 MSTORE DUP4 MLOAD SWAP2 PUSH2 0x100 DUP4 ADD PUSH1 0x1 PUSH1 0x1 PUSH1 0x40 SHL SUB DUP2 GT DUP5 DUP3 LT OR PUSH3 0x472 JUMPI DUP6 MSTORE PUSH1 0x2 DUP4 MSTORE TIMESTAMP PUSH1 0x20 DUP5 ADD MSTORE DUP5 DUP4 ADD MSTORE PUSH1 0x0 PUSH1 0x60 DUP4 ADD MSTORE PUSH1 0x0 PUSH1 0x80 DUP4 ADD MSTORE PUSH1 0xA0 DUP3 ADD MSTORE PUSH1 0x0 PUSH1 0xC0 DUP3 ADD MSTORE PUSH1 0x0 PUSH1 0xE0 DUP3 ADD MSTORE PUSH1 0x2 PUSH1 0x0 MSTORE PUSH1 0x1D PUSH1 0x20 MSTORE DUP3 PUSH1 0x0 KECCAK256 SWAP2 DUP2 MLOAD DUP4 SSTORE PUSH1 0x20 DUP3 ADD MLOAD PUSH1 0x1 DUP5 ADD SSTORE DUP4 DUP3 ADD MLOAD PUSH1 0x2 DUP5 ADD SSTORE PUSH1 0x60 DUP3 ADD MLOAD PUSH1 0x3 DUP5 ADD SSTORE PUSH1 0x80 DUP3 ADD MLOAD DUP2 DUP5 ADD SSTORE PUSH1 0x5 DUP4 ADD PUSH1 0xA0 DUP4 ADD MLOAD DUP1 MLOAD SWAP3 PUSH1 0x1 DUP1 PUSH1 0x40 SHL SUB DUP5 GT PUSH3 0x45D JUMPI PUSH9 0x10000000000000000 DUP5 GT PUSH3 0x45D JUMPI POP DUP2 SLOAD DUP4 DUP4 SSTORE DUP1 DUP5 LT PUSH3 0x431 JUMPI JUMPDEST POP PUSH1 0x20 ADD SWAP1 PUSH1 0x0 MSTORE PUSH1 0x20 PUSH1 0x0 KECCAK256 PUSH1 0x0 JUMPDEST DUP4 DUP2 LT PUSH3 0x413 JUMPI DUP7 DUP7 PUSH1 0x7 PUSH1 0xE0 DUP9 PUSH1 0x6 DUP5 ADD PUSH1 0xC0 DUP3 ADD MLOAD ISZERO ISZERO PUSH1 0xFF DUP1 NOT DUP4 SLOAD AND SWAP2 AND OR SWAP1 SSTORE ADD MLOAD SWAP2 ADD SSTORE TIMESTAMP PUSH1 0x7 SSTORE MLOAD PUSH2 0x5E25 SWAP1 DUP2 PUSH3 0x596 DUP3 CODECOPY PUSH1 0x80 MLOAD DUP2 DUP2 DUP2 PUSH2 0x727 ADD MSTORE DUP2 DUP2 PUSH2 0x100B ADD MSTORE DUP2 DUP2 PUSH2 0x204F ADD MSTORE DUP2 DUP2 PUSH2 0x416E ADD MSTORE DUP2 DUP2 PUSH2 0x4E4D ADD MSTORE PUSH2 0x51AD ADD MSTORE RETURN JUMPDEST DUP3 MLOAD PUSH1 0x1 PUSH1 0x1 PUSH1 0xA0 SHL SUB AND DUP2 DUP4 ADD SSTORE PUSH1 0x20 SWAP1 SWAP3 ADD SWAP2 PUSH1 0x1 ADD PUSH3 0x3AA JUMP JUMPDEST DUP3 PUSH1 0x0 MSTORE DUP4 PUSH1 0x20 PUSH1 0x0 KECCAK256 SWAP2 DUP3 ADD SWAP2 ADD JUMPDEST DUP2 DUP2 LT PUSH3 0x450 JUMPI POP PUSH3 0x39A JUMP JUMPDEST PUSH1 0x0 DUP2 SSTORE PUSH1 0x1 ADD PUSH3 0x441 JUMP JUMPDEST PUSH1 0x41 SWAP1 PUSH4 0x4E487B71 PUSH1 0xE0 SHL PUSH1 0x0 MSTORE MSTORE PUSH1 0x24 PUSH1 0x0 REVERT JUMPDEST PUSH1 0x41 DUP6 PUSH4 0x4E487B71 PUSH1 0xE0 SHL PUSH1 0x0 MSTORE MSTORE PUSH1 0x24 PUSH1 0x0 REVERT JUMPDEST PUSH1 0x41 DUP5 PUSH4 0x4E487B71 PUSH1 0xE0 SHL PUSH1 0x0 MSTORE MSTORE PUSH1 0x24 PUSH1 0x0 REVERT JUMPDEST PUSH1 0x11 DUP3 PUSH4 0x4E487B71 PUSH1 0xE0 SHL PUSH1 0x0 MSTORE MSTORE PUSH1 0x24 PUSH1 0x0 REVERT JUMPDEST DUP4 MLOAD PUSH3 0x461BCD PUSH1 0xE5 SHL DUP2 MSTORE PUSH1 0x20 PUSH1 0x4 DUP3 ADD MSTORE PUSH1 0x1C PUSH1 0x24 DUP3 ADD MSTORE PUSH32 0x496E76616C6964207072696365206F7261636C65206164647265737300000000 PUSH1 0x44 DUP3 ADD MSTORE PUSH1 0x64 SWAP1 REVERT JUMPDEST PUSH3 0x461BCD PUSH1 0xE5 SHL DUP2 MSTORE PUSH1 0x20 PUSH1 0x4 DUP3 ADD MSTORE PUSH1 0x23 PUSH1 0x24 DUP3 ADD MSTORE PUSH32 0x496E76616C69642072616E646F6D6E65737320636F6E74726163742061646472 PUSH1 0x44 DUP3 ADD MSTORE PUSH3 0x657373 PUSH1 0xE8 SHL PUSH1 0x64 DUP3 ADD MSTORE PUSH1 0x84 SWAP1 REVERT JUMPDEST PUSH1 0x80 MSTORE CODESIZE PUSH3 0xD5 JUMP JUMPDEST DUP4 MLOAD PUSH4 0x1E4FBDF7 PUSH1 0xE0 SHL DUP2 MSTORE PUSH1 0x0 PUSH1 0x4 DUP3 ADD MSTORE PUSH1 0x24 SWAP1 REVERT JUMPDEST PUSH1 0x0 DUP1 REVERT JUMPDEST PUSH4 0x4E487B71 PUSH1 0xE0 SHL PUSH1 0x0 MSTORE PUSH1 0x41 PUSH1 0x4 MSTORE PUSH1 0x24 PUSH1 0x0 REVERT JUMPDEST MLOAD SWAP1 PUSH1 0x1 PUSH1 0x1 PUSH1 0xA0 SHL SUB DUP3 AND DUP3 SUB PUSH3 0x565 JUMPI JUMP INVALID PUSH1 0xE0 DUP1 PUSH1 0x40 MSTORE PUSH1 0x4 CALLDATASIZE LT ISZERO PUSH2 0x13 JUMPI PUSH1 0x0 DUP1 REVERT JUMPDEST PUSH1 0x0 SWAP1 DUP2 CALLDATALOAD PUSH1 0xE0 SHR SWAP1 DUP2 PUSH4 0x3FA2C63 EQ PUSH2 0x44BD JUMPI POP DUP1 PUSH4 0x98655D9 EQ PUSH2 0x44A0 JUMPI DUP1 PUSH4 0xAA01695 EQ PUSH2 0x4451 JUMPI DUP1 PUSH4 0xB00A5DB EQ PUSH2 0x438C JUMPI DUP1 PUSH4 0xC89D127 EQ PUSH2 0x435A JUMPI DUP1 PUSH4 0xD9F92CA EQ PUSH2 0x51C JUMPI DUP1 PUSH4 0x117A5B90 EQ PUSH2 0x42E9 JUMPI DUP1 PUSH4 0x1472CBE3 EQ PUSH2 0x41D7 JUMPI DUP1 PUSH4 0x16FA1086 EQ PUSH2 0x41BB JUMPI DUP1 PUSH4 0x19BF155D EQ PUSH2 0x419D JUMPI DUP1 PUSH4 0x2086EEFA EQ PUSH2 0x4158 JUMPI DUP1 PUSH4 0x20DF4359 EQ PUSH2 0x411D JUMPI DUP1 PUSH4 0x21874AE2 EQ PUSH2 0x4073 JUMPI DUP1 PUSH4 0x25B7F388 EQ PUSH2 0x3E55 JUMPI DUP1 PUSH4 0x2618CAFD EQ PUSH2 0x3BA6 JUMPI DUP1 PUSH4 0x2630C12F EQ PUSH2 0x3B7D JUMPI DUP1 PUSH4 0x2655E840 EQ PUSH2 0x3B36 JUMPI DUP1 PUSH4 0x28100ACA EQ PUSH2 0x3B18 JUMPI DUP1 PUSH4 0x2A243F19 EQ PUSH2 0x3AE9 JUMPI DUP1 PUSH4 0x2E108D1C EQ PUSH2 0x387C JUMPI DUP1 PUSH4 0x2EE8B778 EQ PUSH2 0x385E JUMPI DUP1 PUSH4 0x2F2FF15D EQ PUSH2 0x37B3 JUMPI DUP1 PUSH4 0x2FF7A52D EQ PUSH2 0x377B JUMPI DUP1 PUSH4 0x39D8EA42 EQ PUSH2 0x14F4 JUMPI DUP1 PUSH4 0x3A65126A EQ PUSH2 0x33AA JUMPI DUP1 PUSH4 0x3BB4F638 EQ PUSH2 0x338C JUMPI DUP1 PUSH4 0x3F781412 EQ PUSH2 0x3348 JUMPI DUP1 PUSH4 0x3FB83A54 EQ PUSH2 0x3327 JUMPI DUP1 PUSH4 0x41FE39EC EQ PUSH2 0x32FE JUMPI DUP1 PUSH4 0x43F2A080 EQ PUSH2 0x325E JUMPI DUP1 PUSH4 0x49FAA4D4 EQ PUSH2 0x51C JUMPI DUP1 PUSH4 0x4B75344E EQ PUSH2 0x175E JUMPI DUP1 PUSH4 0x4EB692A5 EQ PUSH2 0x322C JUMPI DUP1 PUSH4 0x4F55E8AD EQ PUSH2 0x31A8 JUMPI DUP1 PUSH4 0x52861F7F EQ PUSH2 0x3187 JUMPI DUP1 PUSH4 0x59328401 EQ PUSH2 0x2F5E JUMPI DUP1 PUSH4 0x59A9867E EQ PUSH2 0x2DEA JUMPI DUP1 PUSH4 0x59DB6FE6 EQ PUSH2 0x2DCC JUMPI DUP1 PUSH4 0x5C27B2E4 EQ PUSH2 0x260E JUMPI DUP1 PUSH4 0x5C975ABB EQ PUSH2 0x25E8 JUMPI DUP1 PUSH4 0x67CAFABB EQ PUSH2 0x25BE JUMPI DUP1 PUSH4 0x69396E88 EQ PUSH2 0x25A2 JUMPI DUP1 PUSH4 0x6CE497B2 EQ PUSH2 0x2500 JUMPI DUP1 PUSH4 0x6E1D616E EQ PUSH2 0x24C5 JUMPI DUP1 PUSH4 0x715018A6 EQ PUSH2 0x2468 JUMPI DUP1 PUSH4 0x71E4206D EQ PUSH2 0x2224 JUMPI DUP1 PUSH4 0x74631FD7 EQ PUSH2 0x1FDF JUMPI DUP1 PUSH4 0x7550B84F EQ PUSH2 0x1FC1 JUMPI DUP1 PUSH4 0x75B238FC EQ PUSH2 0x1F86 JUMPI DUP1 PUSH4 0x77CE2992 EQ PUSH2 0x1F4D JUMPI DUP1 PUSH4 0x786A78C6 EQ PUSH2 0x1EC3 JUMPI DUP1 PUSH4 0x79675127 EQ PUSH2 0x1E99 JUMPI DUP1 PUSH4 0x7A7EB1F4 EQ PUSH2 0x1E94 JUMPI DUP1 PUSH4 0x84A3A0F3 EQ PUSH2 0x1E94 JUMPI DUP1 PUSH4 0x8543210D EQ PUSH2 0x1E61 JUMPI DUP1 PUSH4 0x8C267E0D EQ PUSH2 0xFCD JUMPI DUP1 PUSH4 0x8DA5CB5B EQ PUSH2 0x1E38 JUMPI DUP1 PUSH4 0x91D14854 EQ PUSH2 0x1DD3 JUMPI DUP1 PUSH4 0x920736E5 EQ PUSH2 0x1D88 JUMPI DUP1 PUSH4 0x968D901B EQ PUSH2 0x1CCA JUMPI DUP1 PUSH4 0x96F277B7 EQ PUSH2 0x1CA3 JUMPI DUP1 PUSH4 0x9B5A139A EQ PUSH2 0x1CA8 JUMPI DUP1 PUSH4 0x9B95F1FC EQ PUSH2 0x1CA3 JUMPI DUP1 PUSH4 0x9CA423B3 EQ PUSH2 0x1C3E JUMPI DUP1 PUSH4 0xA04F6B4B EQ PUSH2 0x1C21 JUMPI DUP1 PUSH4 0xA154FC6B EQ PUSH2 0x1BB1 JUMPI DUP1 PUSH4 0xA2F77BCC EQ PUSH2 0x1AD0 JUMPI DUP1 PUSH4 0xA37C1572 EQ PUSH2 0x1AA1 JUMPI DUP1 PUSH4 0xA88066F7 EQ PUSH2 0x1AA6 JUMPI DUP1 PUSH4 0xA9B8B451 EQ PUSH2 0x1AA1 JUMPI DUP1 PUSH4 0xAD763192 EQ PUSH2 0x1A2C JUMPI DUP1 PUSH4 0xAEA664A5 EQ PUSH2 0x19E4 JUMPI DUP1 PUSH4 0xB87FC22D EQ PUSH2 0x183B JUMPI DUP1 PUSH4 0xB8CAEAD6 EQ PUSH2 0x181D JUMPI DUP1 PUSH4 0xBA53BA24 EQ PUSH2 0x17CE JUMPI DUP1 PUSH4 0xBB6BF0F0 EQ PUSH2 0x17B0 JUMPI DUP1 PUSH4 0xBBC3CED7 EQ PUSH2 0x51C JUMPI DUP1 PUSH4 0xBCF64475 EQ PUSH2 0xB33 JUMPI DUP1 PUSH4 0xBF757624 EQ PUSH2 0x1781 JUMPI DUP1 PUSH4 0xC14E1E05 EQ PUSH2 0x1763 JUMPI DUP1 PUSH4 0xC5D32157 EQ PUSH2 0x175E JUMPI DUP1 PUSH4 0xCB955E6B EQ PUSH2 0x1523 JUMPI DUP1 PUSH4 0xCF376677 EQ PUSH2 0x14F9 JUMPI DUP1 PUSH4 0xD136A94D EQ PUSH2 0x14F4 JUMPI DUP1 PUSH4 0xD2111791 EQ PUSH2 0x14CA JUMPI DUP1 PUSH4 0xD547741F EQ PUSH2 0x1420 JUMPI DUP1 PUSH4 0xD5749D42 EQ PUSH2 0x13E1 JUMPI DUP1 PUSH4 0xD5FA40E3 EQ PUSH2 0x119B JUMPI DUP1 PUSH4 0xD61B86BB EQ PUSH2 0x1171 JUMPI DUP1 PUSH4 0xDB2E21BC EQ PUSH2 0xFD2 JUMPI DUP1 PUSH4 0xDD23B9CB EQ PUSH2 0xFCD JUMPI DUP1 PUSH4 0xE22CB9C9 EQ PUSH2 0xD07 JUMPI DUP1 PUSH4 0xE2EB41FF EQ PUSH2 0xBD8 JUMPI DUP1 PUSH4 0xE3505B14 EQ PUSH2 0xB56 JUMPI DUP1 PUSH4 0xE3D440A7 EQ PUSH2 0xB38 JUMPI DUP1 PUSH4 0xE443E279 EQ PUSH2 0xB33 JUMPI DUP1 PUSH4 0xE82AEFC7 EQ PUSH2 0xA81 JUMPI DUP1 PUSH4 0xE8F6940E EQ PUSH2 0x95A JUMPI DUP1 PUSH4 0xEB0FB2C8 EQ PUSH2 0x5F3 JUMPI DUP1 PUSH4 0xEE892E64 EQ PUSH2 0x5D5 JUMPI DUP1 PUSH4 0xF2FDE38B EQ PUSH2 0x54A JUMPI DUP1 PUSH4 0xF5B541A6 EQ PUSH2 0x521 JUMPI DUP1 PUSH4 0xF8172FE3 EQ PUSH2 0x51C JUMPI DUP1 PUSH4 0xF8FC08B9 EQ PUSH2 0x4D0 JUMPI PUSH4 0xFFC39504 EQ PUSH2 0x4A4 JUMPI PUSH1 0x0 DUP1 REVERT JUMPDEST CALLVALUE PUSH2 0x4CD JUMPI PUSH1 0x20 CALLDATASIZE PUSH1 0x3 NOT ADD SLT PUSH2 0x4CD JUMPI PUSH1 0x40 PUSH1 0x20 SWAP2 PUSH1 0x4 CALLDATALOAD DUP2 MSTORE PUSH1 0xB DUP4 MSTORE KECCAK256 SLOAD PUSH1 0x40 MLOAD SWAP1 DUP2 MSTORE RETURN JUMPDEST DUP1 REVERT JUMPDEST POP CALLVALUE PUSH2 0x4CD JUMPI PUSH1 0x40 CALLDATASIZE PUSH1 0x3 NOT ADD SLT PUSH2 0x4CD JUMPI PUSH1 0x40 PUSH2 0x4EC PUSH2 0x4509 JUMP JUMPDEST SWAP2 PUSH1 0x4 CALLDATALOAD DUP2 MSTORE PUSH1 0x18 PUSH1 0x20 MSTORE KECCAK256 SWAP1 PUSH1 0x1 DUP1 PUSH1 0xA0 SHL SUB AND PUSH1 0x0 MSTORE PUSH1 0x20 MSTORE PUSH1 0x20 PUSH1 0xFF PUSH1 0x40 PUSH1 0x0 KECCAK256 SLOAD AND PUSH1 0x40 MLOAD SWAP1 ISZERO ISZERO DUP2 MSTORE RETURN JUMPDEST PUSH2 0x4563 JUMP JUMPDEST POP CALLVALUE PUSH2 0x4CD JUMPI DUP1 PUSH1 0x3 NOT CALLDATASIZE ADD SLT PUSH2 0x4CD JUMPI PUSH1 0x20 PUSH1 0x40 MLOAD PUSH1 0x0 DUP1 MLOAD PUSH1 0x20 PUSH2 0x5DB0 DUP4 CODECOPY DUP2 MLOAD SWAP2 MSTORE DUP2 MSTORE RETURN JUMPDEST POP CALLVALUE PUSH2 0x4CD JUMPI PUSH1 0x20 CALLDATASIZE PUSH1 0x3 NOT ADD SLT PUSH2 0x4CD JUMPI PUSH2 0x564 PUSH2 0x44F3 JUMP JUMPDEST PUSH2 0x56C PUSH2 0x532D JUMP JUMPDEST PUSH1 0x1 PUSH1 0x1 PUSH1 0xA0 SHL SUB SWAP1 DUP2 AND SWAP1 DUP2 ISZERO PUSH2 0x5BC JUMPI PUSH1 0x1 SLOAD DUP3 PUSH1 0x1 PUSH1 0x1 PUSH1 0x60 SHL SUB PUSH1 0xA0 SHL DUP3 AND OR PUSH1 0x1 SSTORE AND PUSH32 0x8BE0079C531659141344CD1FD0A4F28419497F9722A3DAAFE3B4186F6B6457E0 PUSH1 0x0 DUP1 LOG3 DUP1 RETURN JUMPDEST PUSH1 0x40 MLOAD PUSH4 0x1E4FBDF7 PUSH1 0xE0 SHL DUP2 MSTORE PUSH1 0x4 DUP2 ADD DUP5 SWAP1 MSTORE PUSH1 0x24 SWAP1 REVERT JUMPDEST POP CALLVALUE PUSH2 0x4CD JUMPI DUP1 PUSH1 0x3 NOT CALLDATASIZE ADD SLT PUSH2 0x4CD JUMPI PUSH1 0x20 PUSH1 0x25 SLOAD PUSH1 0x40 MLOAD SWAP1 DUP2 MSTORE RETURN JUMPDEST POP CALLVALUE PUSH2 0x4CD JUMPI DUP1 PUSH1 0x3 NOT CALLDATASIZE ADD SLT PUSH2 0x4CD JUMPI PUSH1 0x0 DUP1 MLOAD PUSH1 0x20 PUSH2 0x5DB0 DUP4 CODECOPY DUP2 MLOAD SWAP2 MSTORE DUP2 MSTORE PUSH1 0x20 SWAP1 PUSH1 0x18 DUP3 MSTORE PUSH1 0x40 DUP2 KECCAK256 CALLER PUSH1 0x0 MSTORE DUP3 MSTORE PUSH1 0xFF PUSH1 0x40 PUSH1 0x0 KECCAK256 SLOAD AND DUP1 ISZERO PUSH2 0x946 JUMPI JUMPDEST PUSH2 0x63F SWAP1 PUSH2 0x4B7F JUMP JUMPDEST PUSH2 0x647 PUSH2 0x5359 JUMP JUMPDEST PUSH1 0x9 SLOAD ISZERO PUSH2 0x901 JUMPI PUSH1 0x0 NOT NUMBER ADD SWAP2 NUMBER DUP4 GT PUSH2 0x8ED JUMPI PUSH1 0x12 SWAP2 PUSH1 0x12 SLOAD SWAP4 PUSH1 0x40 MLOAD DUP4 DUP2 ADD SWAP1 TIMESTAMP DUP3 MSTORE PREVRANDAO PUSH1 0x40 DUP3 ADD MSTORE PUSH1 0x60 SWAP3 BLOCKHASH PUSH1 0x60 DUP3 ADD MSTORE PUSH1 0x80 SWAP7 CALLER PUSH1 0x60 SHL PUSH1 0x80 DUP4 ADD MSTORE PUSH1 0x94 DUP3 ADD MSTORE PUSH1 0x94 DUP2 MSTORE PUSH2 0x69A DUP2 PUSH2 0x464C JUMP JUMPDEST MLOAD SWAP1 KECCAK256 SWAP4 PUSH2 0x6AA DUP6 PUSH1 0x4 SLOAD PUSH2 0x5A6F JUMP JUMPDEST PUSH1 0x5 SLOAD PUSH1 0x3 SHR SWAP1 DUP5 JUMPDEST DUP2 MLOAD DUP2 LT ISZERO PUSH2 0x85F JUMPI PUSH1 0x1 PUSH1 0x1 PUSH1 0xA0 SHL SUB DUP1 PUSH2 0x6CF DUP4 DUP6 PUSH2 0x4C29 JUMP JUMPDEST MLOAD AND PUSH2 0x6DF JUMPI JUMPDEST POP PUSH1 0x1 ADD PUSH2 0x6B3 JUMP JUMPDEST PUSH2 0x721 DUP9 DUP6 DUP4 PUSH2 0x6EF DUP7 DUP9 PUSH2 0x4C29 JUMP JUMPDEST MLOAD PUSH1 0x40 MLOAD PUSH4 0xA9059CBB PUSH1 0xE0 SHL DUP2 MSTORE SWAP2 AND PUSH1 0x1 PUSH1 0x1 PUSH1 0xA0 SHL SUB AND PUSH1 0x4 DUP3 ADD MSTORE PUSH1 0x24 DUP2 ADD SWAP2 SWAP1 SWAP2 MSTORE SWAP2 DUP3 SWAP1 DUP2 SWAP1 PUSH1 0x44 DUP3 ADD SWAP1 JUMP JUMPDEST SUB DUP2 DUP12 DUP7 PUSH32 0x0 AND GAS CALL SWAP1 DUP2 ISZERO PUSH2 0x854 JUMPI DUP9 SWAP2 PUSH2 0x827 JUMPI JUMPDEST POP ISZERO PUSH2 0x7F0 JUMPI DUP1 PUSH2 0x768 DUP4 DUP6 PUSH2 0x4C29 JUMP JUMPDEST MLOAD AND DUP8 MSTORE PUSH1 0x1A DUP9 MSTORE PUSH1 0x40 DUP8 KECCAK256 SWAP1 DUP2 SLOAD PUSH1 0xA SWAP3 DUP4 DUP3 ADD DUP1 SWAP3 GT PUSH2 0x7DC JUMPI PUSH1 0x1 SWAP5 SWAP4 SWAP3 PUSH1 0x0 DUP1 MLOAD PUSH1 0x20 PUSH2 0x5DD0 DUP4 CODECOPY DUP2 MLOAD SWAP2 MSTORE SWAP3 DUP15 SWAP3 SSTORE PUSH2 0x7A6 DUP6 DUP9 PUSH2 0x4C29 JUMP JUMPDEST MLOAD AND SWAP3 PUSH1 0x40 MLOAD SWAP1 DUP2 MSTORE PUSH1 0x40 DUP13 DUP3 ADD MSTORE DUP9 PUSH1 0x40 DUP3 ADD MSTORE PUSH18 0x4461696C792077696E6E657220626F6E7573 PUSH1 0x70 SHL DUP11 DUP3 ADD MSTORE LOG2 SWAP1 PUSH2 0x6D6 JUMP JUMPDEST PUSH4 0x4E487B71 PUSH1 0xE0 SHL DUP11 MSTORE PUSH1 0x11 PUSH1 0x4 MSTORE PUSH1 0x24 DUP11 REVERT JUMPDEST PUSH1 0x40 MLOAD PUSH3 0x461BCD PUSH1 0xE5 SHL DUP2 MSTORE PUSH1 0x4 DUP2 ADD DUP10 SWAP1 MSTORE PUSH1 0xF PUSH1 0x24 DUP3 ADD MSTORE PUSH15 0x151C985B9CD9995C8819985A5B1959 PUSH1 0x8A SHL PUSH1 0x44 DUP3 ADD MSTORE PUSH1 0x64 SWAP1 REVERT JUMPDEST PUSH2 0x847 SWAP2 POP DUP10 RETURNDATASIZE DUP12 GT PUSH2 0x84D JUMPI JUMPDEST PUSH2 0x83F DUP2 DUP4 PUSH2 0x4683 JUMP JUMPDEST DUP2 ADD SWAP1 PUSH2 0x4CCB JUMP JUMPDEST CODESIZE PUSH2 0x757 JUMP JUMPDEST POP RETURNDATASIZE PUSH2 0x835 JUMP JUMPDEST PUSH1 0x40 MLOAD RETURNDATASIZE DUP11 DUP3 RETURNDATACOPY RETURNDATASIZE SWAP1 REVERT JUMPDEST DUP6 PUSH32 0x9F22D2B65D1E9BEF93DA4067644E4EAD3BD41C9D3FC8568887CC572B482E6CB7 DUP9 DUP11 PUSH2 0x8DF DUP7 PUSH1 0x4 SLOAD SWAP3 PUSH32 0xDD1C72FCDA97FCFC2FE124C4AA194986CACA752D3769C00A6495659509D7B19B PUSH2 0x8C0 PUSH1 0x5 SLOAD PUSH1 0x40 MLOAD SWAP2 DUP3 SWAP2 DUP7 DUP10 DUP5 PUSH2 0x4C89 JUMP JUMPDEST SUB SWAP1 LOG1 PUSH1 0x40 MLOAD SWAP5 DUP6 SWAP5 DUP6 MSTORE DUP5 ADD MSTORE PUSH1 0x60 PUSH1 0x40 DUP5 ADD MSTORE PUSH1 0x60 DUP4 ADD SWAP1 PUSH2 0x4C4C JUMP JUMPDEST SUB SWAP1 LOG1 PUSH2 0x8EA PUSH2 0x563F JUMP JUMPDEST DUP1 RETURN JUMPDEST PUSH4 0x4E487B71 PUSH1 0xE0 SHL DUP3 MSTORE PUSH1 0x11 PUSH1 0x4 MSTORE PUSH1 0x24 DUP3 REVERT JUMPDEST PUSH1 0x40 MLOAD PUSH3 0x461BCD PUSH1 0xE5 SHL DUP2 MSTORE PUSH1 0x4 DUP2 ADD DUP4 SWAP1 MSTORE PUSH1 0x1D PUSH1 0x24 DUP3 ADD MSTORE PUSH32 0x4E6F2072616E646F6D6E65737320726F756E6420726571756573746564000000 PUSH1 0x44 DUP3 ADD MSTORE PUSH1 0x64 SWAP1 REVERT JUMPDEST POP PUSH1 0x1 SLOAD PUSH1 0x1 PUSH1 0x1 PUSH1 0xA0 SHL SUB AND CALLER EQ PUSH2 0x636 JUMP JUMPDEST POP CALLVALUE PUSH2 0x4CD JUMPI PUSH1 0x20 CALLDATASIZE PUSH1 0x3 NOT ADD SLT PUSH2 0x4CD JUMPI PUSH1 0x4 CALLDATALOAD DUP1 ISZERO ISZERO SWAP1 DUP2 DUP2 SUB PUSH2 0xA7C JUMPI PUSH2 0x982 PUSH2 0x532D JUMP JUMPDEST ISZERO PUSH2 0x9FC JUMPI PUSH1 0x20 PUSH32 0xB80D1AE5628C2AF91424C54C87ACFD15016BE4BEBEEF0425B328238702F34831 SWAP2 PUSH2 0x9B3 PUSH2 0x5359 JUMP JUMPDEST PUSH1 0x1 DUP1 SLOAD PUSH1 0xFF PUSH1 0xA0 SHL NOT AND PUSH1 0x1 PUSH1 0xA0 SHL OR SWAP1 SSTORE PUSH1 0x40 MLOAD CALLER DUP2 MSTORE PUSH32 0x62E78CEA01BEE320CD4E420270B5EA74000D11B0C9F74754EBDBFC544B05A258 SWAP1 DUP4 SWAP1 LOG1 JUMPDEST PUSH1 0x40 MLOAD SWAP1 DUP2 MSTORE LOG1 DUP1 RETURN JUMPDEST PUSH1 0x1 SLOAD PUSH1 0xFF DUP2 PUSH1 0xA0 SHR AND ISZERO PUSH2 0xA6A JUMPI PUSH1 0xFF PUSH1 0xA0 SHL NOT AND PUSH1 0x1 SSTORE PUSH1 0x40 MLOAD CALLER DUP2 MSTORE PUSH32 0xB80D1AE5628C2AF91424C54C87ACFD15016BE4BEBEEF0425B328238702F34831 SWAP2 PUSH1 0x20 SWAP2 PUSH32 0x5DB9EE0A495BF2E6FF9C91A7834C1BA4FDD244A5E8AA4E537BD38AEAE4B073AA SWAP1 DUP4 SWAP1 LOG1 PUSH2 0x9F2 JUMP JUMPDEST PUSH1 0x40 MLOAD PUSH4 0x8DFC202B PUSH1 0xE0 SHL DUP2 MSTORE PUSH1 0x4 SWAP1 REVERT JUMPDEST PUSH1 0x0 DUP1 REVERT JUMPDEST POP CALLVALUE PUSH2 0x4CD JUMPI PUSH1 0x20 CALLDATASIZE PUSH1 0x3 NOT ADD SLT PUSH2 0x4CD JUMPI PUSH1 0x4 CALLDATALOAD PUSH32 0xBF233DD2AAFEB4D50879C4AA5C81E96D92F6E6945C906A58F9F2D1C1631B4B26 DUP3 MSTORE PUSH1 0x18 PUSH1 0x20 MSTORE PUSH1 0x40 DUP3 KECCAK256 CALLER PUSH1 0x0 MSTORE PUSH1 0x20 MSTORE PUSH1 0xFF PUSH1 0x40 PUSH1 0x0 KECCAK256 SLOAD AND DUP1 ISZERO PUSH2 0xB1F JUMPI JUMPDEST PUSH2 0xAE2 SWAP1 PUSH2 0x4B7F JUMP JUMPDEST DUP1 DUP3 MSTORE PUSH1 0x13 PUSH1 0x20 MSTORE PUSH1 0x40 DUP3 KECCAK256 DUP1 SLOAD PUSH1 0xFF NOT AND SWAP1 SSTORE CALLER SWAP1 PUSH32 0x6D01469F672CD6CB0434A128CAC9B91DC60A83E67A56BE9FB5F265C18D29C7C5 DUP4 DUP1 LOG3 DUP1 RETURN JUMPDEST POP PUSH1 0x1 SLOAD PUSH1 0x1 PUSH1 0x1 PUSH1 0xA0 SHL SUB AND CALLER EQ PUSH2 0xAD9 JUMP JUMPDEST PUSH2 0x49A5 JUMP JUMPDEST POP CALLVALUE PUSH2 0x4CD JUMPI DUP1 PUSH1 0x3 NOT CALLDATASIZE ADD SLT PUSH2 0x4CD JUMPI PUSH1 0x20 PUSH1 0x5 SLOAD PUSH1 0x40 MLOAD SWAP1 DUP2 MSTORE RETURN JUMPDEST POP CALLVALUE PUSH2 0x4CD JUMPI PUSH1 0x40 CALLDATASIZE PUSH1 0x3 NOT ADD SLT PUSH2 0x4CD JUMPI PUSH2 0xB70 PUSH2 0x5359 JUMP JUMPDEST PUSH1 0x2 SLOAD DUP2 SWAP1 PUSH1 0x1 PUSH1 0x1 PUSH1 0xA0 SHL SUB AND DUP1 EXTCODESIZE ISZERO PUSH2 0xBD5 JUMPI DUP2 DUP1 SWAP2 PUSH1 0x44 PUSH1 0x40 MLOAD DUP1 SWAP5 DUP2 SWAP4 PUSH4 0x39A8F677 PUSH1 0xE2 SHL DUP4 MSTORE PUSH1 0x4 CALLDATALOAD PUSH1 0x4 DUP5 ADD MSTORE PUSH1 0x24 CALLDATALOAD PUSH1 0x24 DUP5 ADD MSTORE GAS CALL DUP1 ISZERO PUSH2 0xBCA JUMPI PUSH2 0xBBA JUMPI POP RETURN JUMPDEST PUSH2 0xBC3 SWAP1 PUSH2 0x45E8 JUMP JUMPDEST PUSH2 0x4CD JUMPI DUP1 RETURN JUMPDEST PUSH1 0x40 MLOAD RETURNDATASIZE DUP5 DUP3 RETURNDATACOPY RETURNDATASIZE SWAP1 REVERT JUMPDEST POP REVERT JUMPDEST POP CALLVALUE PUSH2 0x4CD JUMPI PUSH1 0x20 CALLDATASIZE PUSH1 0x3 NOT ADD SLT PUSH2 0x4CD JUMPI PUSH1 0x1 PUSH1 0x1 PUSH1 0xA0 SHL SUB PUSH2 0xBFA PUSH2 0x44F3 JUMP JUMPDEST AND DUP2 MSTORE PUSH1 0x1A PUSH1 0x20 MSTORE PUSH1 0x40 SWAP1 KECCAK256 DUP1 DUP1 DUP1 SLOAD PUSH1 0x1 DUP3 ADD SLOAD PUSH1 0xC0 MSTORE PUSH1 0x2 DUP3 ADD SLOAD PUSH1 0x3 DUP4 ADD SLOAD PUSH1 0x4 DUP5 ADD SLOAD PUSH1 0x5 DUP6 ADD SLOAD PUSH1 0x6 DUP7 ADD SLOAD PUSH1 0xFF AND PUSH1 0x7 DUP8 ADD SLOAD SWAP1 PUSH1 0x8 DUP9 ADD SLOAD SWAP3 PUSH1 0x9 DUP10 ADD SLOAD SWAP5 PUSH1 0xA DUP11 ADD SLOAD SWAP7 PUSH1 0xB DUP12 ADD SLOAD SWAP9 PUSH1 0xC DUP13 ADD SLOAD SWAP11 PUSH1 0xD DUP14 ADD SLOAD PUSH1 0xFF AND SWAP13 PUSH1 0xE ADD SLOAD SWAP14 PUSH1 0xF ADD SLOAD SWAP15 PUSH1 0x10 ADD SLOAD PUSH1 0xFF AND PUSH1 0x80 MSTORE PUSH1 0x40 MLOAD PUSH1 0xA0 MSTORE PUSH1 0xA0 MLOAD MSTORE PUSH1 0xC0 MLOAD PUSH1 0xA0 MLOAD PUSH1 0x20 ADD MSTORE PUSH1 0xA0 MLOAD PUSH1 0x40 ADD MSTORE PUSH1 0xA0 MLOAD PUSH1 0x60 ADD MSTORE PUSH1 0xA0 MLOAD PUSH1 0x80 ADD MSTORE PUSH1 0xA0 MLOAD PUSH1 0xA0 ADD MSTORE ISZERO ISZERO PUSH1 0xA0 MLOAD PUSH1 0xC0 ADD MSTORE PUSH1 0xA0 MLOAD PUSH1 0xE0 ADD MSTORE PUSH1 0xA0 MLOAD PUSH2 0x100 ADD MSTORE PUSH1 0xA0 MLOAD PUSH2 0x120 ADD MSTORE PUSH1 0xA0 MLOAD PUSH2 0x140 ADD MSTORE PUSH1 0xA0 MLOAD PUSH2 0x160 ADD MSTORE PUSH1 0xA0 MLOAD PUSH2 0x180 ADD MSTORE ISZERO ISZERO PUSH1 0xA0 MLOAD PUSH2 0x1A0 ADD MSTORE PUSH1 0xA0 MLOAD PUSH2 0x1C0 ADD MSTORE PUSH1 0xA0 MLOAD PUSH2 0x1E0 ADD MSTORE PUSH1 0x80 MLOAD ISZERO ISZERO PUSH1 0xA0 MLOAD PUSH2 0x200 ADD MSTORE PUSH1 0xA0 MLOAD PUSH2 0x220 SWAP1 RETURN JUMPDEST POP CALLVALUE PUSH2 0x4CD JUMPI DUP1 PUSH1 0x3 NOT CALLDATASIZE ADD SLT PUSH2 0x4CD JUMPI PUSH2 0xD20 PUSH2 0x53D7 JUMP JUMPDEST PUSH2 0xD28 PUSH2 0x5359 JUMP JUMPDEST CALLER DUP2 MSTORE PUSH1 0x20 PUSH1 0x1E DUP2 MSTORE PUSH2 0xD42 PUSH1 0xFF PUSH1 0x40 DUP5 KECCAK256 SLOAD AND ISZERO PUSH2 0x4A09 JUMP JUMPDEST CALLER DUP3 MSTORE PUSH1 0x1A DUP1 DUP3 MSTORE PUSH2 0xD5E PUSH1 0xFF PUSH1 0x6 PUSH1 0x40 DUP7 KECCAK256 ADD SLOAD AND ISZERO PUSH2 0x4A09 JUMP JUMPDEST CALLER DUP4 MSTORE DUP1 DUP3 MSTORE PUSH1 0xC PUSH1 0x40 DUP5 KECCAK256 ADD SLOAD PUSH3 0x15180 DUP2 ADD DUP1 SWAP2 GT PUSH2 0xEC9 JUMPI PUSH2 0xD85 SWAP1 TIMESTAMP LT ISZERO PUSH2 0x4A4D JUMP JUMPDEST CALLER DUP4 MSTORE DUP1 DUP3 MSTORE PUSH2 0xD9E PUSH1 0x64 PUSH1 0xE PUSH1 0x40 DUP7 KECCAK256 ADD SLOAD LT PUSH2 0x4A99 JUMP JUMPDEST CALLER DUP4 MSTORE DUP1 DUP3 MSTORE PUSH1 0xFF PUSH1 0xD PUSH1 0x40 DUP6 KECCAK256 ADD SLOAD AND PUSH2 0xF7D JUMPI CALLER DUP4 MSTORE DUP1 DUP3 MSTORE PUSH1 0x1 PUSH1 0x9 PUSH1 0x40 DUP6 KECCAK256 ADD SLOAD LT PUSH2 0xF38 JUMPI CALLER PUSH1 0x0 MSTORE DUP2 DUP1 MSTORE PUSH1 0x40 PUSH1 0x0 KECCAK256 SLOAD PUSH1 0x5 DUP2 ADD DUP1 SWAP2 GT PUSH2 0xEDD JUMPI PUSH1 0x64 DUP2 GT PUSH2 0xEF3 JUMPI CALLER PUSH1 0x0 MSTORE DUP3 DUP1 MSTORE PUSH1 0x40 PUSH1 0x0 KECCAK256 SSTORE DUP1 DUP3 MSTORE PUSH1 0xE PUSH1 0x40 PUSH1 0x0 KECCAK256 ADD SLOAD PUSH1 0x5 DUP2 ADD DUP1 SWAP2 GT PUSH2 0xEDD JUMPI CALLER PUSH1 0x0 MSTORE DUP2 DUP4 MSTORE PUSH1 0xE PUSH1 0x40 PUSH1 0x0 KECCAK256 ADD SSTORE CALLER DUP4 MSTORE DUP1 DUP3 MSTORE PUSH1 0x40 DUP4 KECCAK256 PUSH1 0xD DUP2 ADD PUSH1 0x1 PUSH1 0xFF NOT DUP3 SLOAD AND OR SWAP1 SSTORE SLOAD SWAP1 PUSH1 0x5 DUP3 ADD DUP1 SWAP3 GT PUSH2 0xEC9 JUMPI CALLER DUP5 MSTORE DUP3 MSTORE PUSH1 0x40 DUP4 KECCAK256 SWAP1 DUP2 SSTORE PUSH1 0xC TIMESTAMP SWAP2 ADD SSTORE PUSH1 0x40 MLOAD PUSH1 0x5 DUP2 MSTORE PUSH32 0x666FF46B6B5A0789C7D628ECFA8A5975B192B7D3541FC30B22DA07A9B3D4DDBC DUP3 CALLER SWAP3 LOG2 PUSH1 0x40 DUP1 MLOAD SWAP2 PUSH1 0x5 DUP4 MSTORE DUP3 ADD MSTORE PUSH1 0x12 PUSH1 0x40 DUP3 ADD MSTORE PUSH18 0x119A5C9CDD081BDC99195C881C995DD85C99 PUSH1 0x72 SHL PUSH1 0x60 DUP3 ADD MSTORE PUSH1 0x0 DUP1 MLOAD PUSH1 0x20 PUSH2 0x5DD0 DUP4 CODECOPY DUP2 MLOAD SWAP2 MSTORE PUSH1 0x80 CALLER SWAP3 LOG2 PUSH1 0x1 DUP2 SSTORE DUP1 RETURN JUMPDEST PUSH4 0x4E487B71 PUSH1 0xE0 SHL DUP5 MSTORE PUSH1 0x11 PUSH1 0x4 MSTORE PUSH1 0x24 DUP5 REVERT JUMPDEST PUSH4 0x4E487B71 PUSH1 0xE0 SHL PUSH1 0x0 MSTORE PUSH1 0x11 PUSH1 0x4 MSTORE PUSH1 0x24 PUSH1 0x0 REVERT JUMPDEST PUSH1 0x40 MLOAD PUSH3 0x461BCD PUSH1 0xE5 SHL DUP2 MSTORE PUSH1 0x4 DUP2 ADD DUP5 SWAP1 MSTORE PUSH1 0x1B PUSH1 0x24 DUP3 ADD MSTORE PUSH32 0x4461696C7920726577617264206C696D69742065786365656465640000000000 PUSH1 0x44 DUP3 ADD MSTORE PUSH1 0x64 SWAP1 REVERT JUMPDEST PUSH1 0x40 MLOAD PUSH3 0x461BCD PUSH1 0xE5 SHL DUP2 MSTORE PUSH1 0x4 DUP2 ADD DUP4 SWAP1 MSTORE PUSH1 0x18 PUSH1 0x24 DUP3 ADD MSTORE PUSH32 0x4E6F206669727374206F7264657220636F6D706C657465640000000000000000 PUSH1 0x44 DUP3 ADD MSTORE PUSH1 0x64 SWAP1 REVERT JUMPDEST PUSH1 0x40 MLOAD PUSH3 0x461BCD PUSH1 0xE5 SHL DUP2 MSTORE PUSH1 0x4 DUP2 ADD DUP4 SWAP1 MSTORE PUSH1 0x22 PUSH1 0x24 DUP3 ADD MSTORE PUSH32 0x4669727374206F726465722072657761726420616C726561647920636C61696D PUSH1 0x44 DUP3 ADD MSTORE PUSH2 0x1959 PUSH1 0xF2 SHL PUSH1 0x64 DUP3 ADD MSTORE PUSH1 0x84 SWAP1 REVERT JUMPDEST PUSH2 0x48B8 JUMP JUMPDEST POP CALLVALUE PUSH2 0x4CD JUMPI DUP1 PUSH1 0x3 NOT CALLDATASIZE ADD SLT PUSH2 0x4CD JUMPI PUSH2 0xFEB PUSH2 0x532D JUMP JUMPDEST PUSH1 0x40 MLOAD PUSH4 0x70A08231 PUSH1 0xE0 SHL DUP2 MSTORE ADDRESS PUSH1 0x4 DUP3 ADD MSTORE PUSH1 0x20 SWAP1 PUSH1 0x1 PUSH1 0x1 PUSH1 0xA0 SHL SUB PUSH32 0x0 DUP2 AND SWAP1 DUP4 DUP4 PUSH1 0x24 DUP2 DUP6 GAS STATICCALL SWAP3 DUP4 ISZERO PUSH2 0x1166 JUMPI DUP6 SWAP4 PUSH2 0x1137 JUMPI JUMPDEST POP DUP3 ISZERO PUSH2 0x10F9 JUMPI PUSH1 0x1 SLOAD PUSH1 0x40 MLOAD PUSH4 0xA9059CBB PUSH1 0xE0 SHL DUP2 MSTORE SWAP2 AND PUSH1 0x1 PUSH1 0x1 PUSH1 0xA0 SHL SUB AND PUSH1 0x4 DUP3 ADD MSTORE PUSH1 0x24 DUP2 ADD SWAP3 SWAP1 SWAP3 MSTORE DUP3 SWAP1 DUP3 SWAP1 DUP2 DUP7 DUP2 PUSH1 0x44 DUP2 ADD SUB SWAP3 GAS CALL SWAP1 DUP2 ISZERO PUSH2 0x10EE JUMPI DUP4 SWAP2 PUSH2 0x10D1 JUMPI JUMPDEST POP ISZERO PUSH2 0x1099 JUMPI POP DUP1 RETURN JUMPDEST PUSH1 0x64 SWAP1 PUSH1 0x40 MLOAD SWAP1 PUSH3 0x461BCD PUSH1 0xE5 SHL DUP3 MSTORE PUSH1 0x4 DUP3 ADD MSTORE PUSH1 0x11 PUSH1 0x24 DUP3 ADD MSTORE PUSH17 0x15DA5D1A191C985DD85B0819985A5B1959 PUSH1 0x7A SHL PUSH1 0x44 DUP3 ADD MSTORE REVERT JUMPDEST PUSH2 0x10E8 SWAP2 POP DUP3 RETURNDATASIZE DUP5 GT PUSH2 0x84D JUMPI PUSH2 0x83F DUP2 DUP4 PUSH2 0x4683 JUMP JUMPDEST CODESIZE PUSH2 0x108F JUMP JUMPDEST PUSH1 0x40 MLOAD RETURNDATASIZE DUP6 DUP3 RETURNDATACOPY RETURNDATASIZE SWAP1 REVERT JUMPDEST PUSH1 0x40 MLOAD PUSH3 0x461BCD PUSH1 0xE5 SHL DUP2 MSTORE PUSH1 0x4 DUP2 ADD DUP6 SWAP1 MSTORE PUSH1 0x16 PUSH1 0x24 DUP3 ADD MSTORE PUSH22 0x4E6F2062616C616E636520746F207769746864726177 PUSH1 0x50 SHL PUSH1 0x44 DUP3 ADD MSTORE PUSH1 0x64 SWAP1 REVERT JUMPDEST SWAP1 SWAP3 POP DUP4 DUP2 DUP2 RETURNDATASIZE DUP4 GT PUSH2 0x115F JUMPI JUMPDEST PUSH2 0x114F DUP2 DUP4 PUSH2 0x4683 JUMP JUMPDEST DUP2 ADD SUB SLT PUSH2 0xA7C JUMPI MLOAD SWAP2 CODESIZE PUSH2 0x1043 JUMP JUMPDEST POP RETURNDATASIZE PUSH2 0x1145 JUMP JUMPDEST PUSH1 0x40 MLOAD RETURNDATASIZE DUP8 DUP3 RETURNDATACOPY RETURNDATASIZE SWAP1 REVERT JUMPDEST POP CALLVALUE PUSH2 0x4CD JUMPI PUSH1 0x20 CALLDATASIZE PUSH1 0x3 NOT ADD SLT PUSH2 0x4CD JUMPI PUSH1 0x40 PUSH1 0x20 SWAP2 PUSH1 0x4 CALLDATALOAD DUP2 MSTORE PUSH1 0xD DUP4 MSTORE KECCAK256 SLOAD PUSH1 0x40 MLOAD SWAP1 DUP2 MSTORE RETURN JUMPDEST POP CALLVALUE PUSH2 0x4CD JUMPI DUP1 PUSH1 0x3 NOT CALLDATASIZE ADD SLT PUSH2 0x4CD JUMPI PUSH2 0x11B4 PUSH2 0x53D7 JUMP JUMPDEST PUSH2 0x11BC PUSH2 0x5359 JUMP JUMPDEST CALLER DUP2 MSTORE PUSH1 0x20 PUSH1 0x1E DUP2 MSTORE PUSH2 0x11D6 PUSH1 0xFF PUSH1 0x40 DUP5 KECCAK256 SLOAD AND ISZERO PUSH2 0x4A09 JUMP JUMPDEST CALLER DUP3 MSTORE PUSH1 0x1A SWAP1 DUP2 DUP2 MSTORE PUSH2 0x11F3 PUSH1 0xFF PUSH1 0x6 PUSH1 0x40 DUP7 KECCAK256 ADD SLOAD AND ISZERO PUSH2 0x4A09 JUMP JUMPDEST CALLER DUP4 MSTORE DUP2 DUP2 MSTORE PUSH1 0xC PUSH1 0x40 DUP5 KECCAK256 ADD SLOAD PUSH3 0x15180 SWAP1 DUP2 DUP2 ADD DUP1 SWAP2 GT PUSH2 0x133D JUMPI PUSH2 0x121C SWAP1 TIMESTAMP LT ISZERO PUSH2 0x4A4D JUMP JUMPDEST CALLER DUP5 MSTORE DUP3 DUP3 MSTORE PUSH2 0x1235 PUSH1 0x64 PUSH1 0xE PUSH1 0x40 DUP8 KECCAK256 ADD SLOAD LT PUSH2 0x4A99 JUMP JUMPDEST CALLER DUP5 MSTORE DUP3 DUP3 MSTORE PUSH1 0x7 PUSH1 0x40 DUP6 KECCAK256 ADD SLOAD SWAP1 DUP2 ADD DUP1 SWAP2 GT PUSH2 0xEC9 JUMPI TIMESTAMP LT PUSH2 0x13A5 JUMPI PUSH7 0x38D7EA4C68000 CALLER BALANCE DUP2 DUP2 LT PUSH2 0x1351 JUMPI DIV SWAP2 DUP3 ISZERO DUP4 DUP1 DIV PUSH1 0x1 EQ DUP2 OR ISZERO PUSH2 0x133D JUMPI PUSH2 0x1302 JUMPI SWAP1 PUSH1 0x40 SWAP2 PUSH2 0x1287 DUP5 CALLER PUSH2 0x53FA JUMP JUMPDEST CALLER DUP6 MSTORE DUP1 DUP3 MSTORE PUSH2 0x129A DUP5 DUP5 DUP8 KECCAK256 SLOAD PUSH2 0x49FC JUMP JUMPDEST SWAP1 CALLER DUP7 MSTORE DUP3 MSTORE DUP3 DUP6 KECCAK256 SWAP1 DUP2 SSTORE TIMESTAMP PUSH1 0x7 DUP3 ADD SSTORE PUSH1 0xC TIMESTAMP SWAP2 ADD SSTORE DUP2 MLOAD SWAP3 DUP4 MSTORE DUP3 ADD MSTORE PUSH1 0x1C PUSH1 0x40 DUP3 ADD MSTORE PUSH32 0x42617365205365706F6C696120686F6C64696E67732072657761726400000000 PUSH1 0x60 DUP3 ADD MSTORE PUSH1 0x0 DUP1 MLOAD PUSH1 0x20 PUSH2 0x5DD0 DUP4 CODECOPY DUP2 MLOAD SWAP2 MSTORE PUSH1 0x80 CALLER SWAP3 LOG2 PUSH1 0x1 DUP2 SSTORE DUP1 RETURN JUMPDEST PUSH1 0x40 MLOAD PUSH3 0x461BCD PUSH1 0xE5 SHL DUP2 MSTORE PUSH1 0x4 DUP2 ADD DUP4 SWAP1 MSTORE PUSH1 0x13 PUSH1 0x24 DUP3 ADD MSTORE PUSH19 0x4E6F2072657761726420617661696C61626C65 PUSH1 0x68 SHL PUSH1 0x44 DUP3 ADD MSTORE PUSH1 0x64 SWAP1 REVERT JUMPDEST PUSH4 0x4E487B71 PUSH1 0xE0 SHL DUP6 MSTORE PUSH1 0x11 PUSH1 0x4 MSTORE PUSH1 0x24 DUP6 REVERT JUMPDEST PUSH1 0x40 MLOAD PUSH3 0x461BCD PUSH1 0xE5 SHL DUP2 MSTORE PUSH1 0x4 DUP2 ADD DUP5 SWAP1 MSTORE PUSH1 0x26 PUSH1 0x24 DUP3 ADD MSTORE PUSH32 0x496E73756666696369656E742042617365205365706F6C69612045544820686F PUSH1 0x44 DUP3 ADD MSTORE PUSH6 0x6C64696E6773 PUSH1 0xD0 SHL PUSH1 0x64 DUP3 ADD MSTORE PUSH1 0x84 SWAP1 REVERT JUMPDEST PUSH1 0x64 SWAP1 PUSH1 0x40 MLOAD SWAP1 PUSH3 0x461BCD PUSH1 0xE5 SHL DUP3 MSTORE PUSH1 0x4 DUP3 ADD MSTORE PUSH1 0x15 PUSH1 0x24 DUP3 ADD MSTORE PUSH21 0x416C726561647920636865636B656420746F646179 PUSH1 0x58 SHL PUSH1 0x44 DUP3 ADD MSTORE REVERT JUMPDEST POP CALLVALUE PUSH2 0x4CD JUMPI PUSH1 0x20 CALLDATASIZE PUSH1 0x3 NOT ADD SLT PUSH2 0x4CD JUMPI PUSH1 0x20 SWAP1 PUSH1 0xFF SWAP1 PUSH1 0x40 SWAP1 PUSH1 0x1 PUSH1 0x1 PUSH1 0xA0 SHL SUB PUSH2 0x140C PUSH2 0x44F3 JUMP JUMPDEST AND DUP2 MSTORE PUSH1 0x1E DUP5 MSTORE KECCAK256 SLOAD AND PUSH1 0x40 MLOAD SWAP1 ISZERO ISZERO DUP2 MSTORE RETURN JUMPDEST POP CALLVALUE PUSH2 0x4CD JUMPI PUSH1 0x40 CALLDATASIZE PUSH1 0x3 NOT ADD SLT PUSH2 0x4CD JUMPI PUSH1 0x4 CALLDATALOAD PUSH2 0x143D PUSH2 0x4509 JUMP JUMPDEST DUP2 DUP4 MSTORE PUSH1 0x19 PUSH1 0x20 MSTORE PUSH1 0x40 DUP4 KECCAK256 SLOAD PUSH1 0x1 PUSH1 0x1 PUSH1 0xA0 SHL SUB SWAP2 SWAP1 DUP3 AND CALLER EQ DUP1 ISZERO PUSH2 0x14BD JUMPI JUMPDEST PUSH2 0x1468 SWAP1 PUSH2 0x4AE5 JUMP JUMPDEST AND PUSH2 0x1474 DUP2 ISZERO ISZERO PUSH2 0x4B41 JUMP JUMPDEST DUP2 DUP4 MSTORE PUSH1 0x18 PUSH1 0x20 MSTORE PUSH1 0x40 DUP4 KECCAK256 DUP2 PUSH1 0x0 MSTORE PUSH1 0x20 MSTORE PUSH1 0x40 PUSH1 0x0 KECCAK256 PUSH1 0xFF NOT DUP2 SLOAD AND SWAP1 SSTORE CALLER SWAP2 PUSH32 0xF6391F5C32D9C69D2A47EA670B442974B53935D1EDC7FD64EB21E047A839171B DUP5 DUP1 LOG4 DUP1 RETURN JUMPDEST POP PUSH1 0x1 SLOAD DUP3 AND CALLER EQ PUSH2 0x145F JUMP JUMPDEST POP CALLVALUE PUSH2 0x4CD JUMPI PUSH1 0x20 CALLDATASIZE PUSH1 0x3 NOT ADD SLT PUSH2 0x4CD JUMPI PUSH1 0x40 PUSH1 0x20 SWAP2 PUSH1 0x4 CALLDATALOAD DUP2 MSTORE PUSH1 0x14 DUP4 MSTORE KECCAK256 SLOAD PUSH1 0x40 MLOAD SWAP1 DUP2 MSTORE RETURN JUMPDEST PUSH2 0x474A JUMP JUMPDEST POP CALLVALUE PUSH2 0x4CD JUMPI PUSH1 0x20 CALLDATASIZE PUSH1 0x3 NOT ADD SLT PUSH2 0x4CD JUMPI PUSH1 0x40 PUSH1 0x20 SWAP2 PUSH1 0x4 CALLDATALOAD DUP2 MSTORE PUSH1 0xF DUP4 MSTORE KECCAK256 SLOAD PUSH1 0x40 MLOAD SWAP1 DUP2 MSTORE RETURN JUMPDEST POP CALLVALUE PUSH2 0x4CD JUMPI DUP1 PUSH1 0x3 NOT CALLDATASIZE ADD SLT PUSH2 0x4CD JUMPI PUSH2 0x153C PUSH2 0x5359 JUMP JUMPDEST PUSH1 0x11 DUP1 SLOAD PUSH2 0xE10 DUP2 ADD DUP1 SWAP2 GT PUSH2 0x174A JUMPI TIMESTAMP LT PUSH2 0x1705 JUMPI PUSH1 0x0 NOT NUMBER ADD SWAP2 NUMBER DUP4 GT PUSH2 0x16F3 JUMPI PUSH1 0x1 NOT NUMBER ADD NUMBER DUP2 GT PUSH2 0x16E0 JUMPI PUSH1 0x12 SLOAD SWAP4 PUSH1 0x1 DUP1 PUSH1 0xA0 SHL SUB PUSH1 0x2 SLOAD AND SWAP2 PUSH1 0x40 MLOAD DUP1 SWAP4 PUSH4 0xC142E495 PUSH1 0xE0 SHL DUP3 MSTORE DUP2 PUSH1 0x4 PUSH1 0x20 SWAP7 DUP8 SWAP4 GAS STATICCALL SWAP1 DUP2 ISZERO PUSH2 0x1166 JUMPI DUP6 SWAP2 PUSH2 0x16B3 JUMPI JUMPDEST POP PUSH1 0x40 MLOAD SWAP1 DUP5 DUP3 ADD SWAP3 TIMESTAMP DUP5 MSTORE PREVRANDAO PUSH1 0x40 DUP5 ADD MSTORE PUSH1 0x60 SWAP5 BLOCKHASH PUSH1 0x60 DUP5 ADD MSTORE BLOCKHASH PUSH1 0x80 DUP4 ADD MSTORE CALLER PUSH1 0x60 SHL PUSH1 0xA0 DUP4 ADD MSTORE DUP8 PUSH1 0xB4 DUP4 ADD MSTORE PUSH1 0xD4 DUP3 ADD MSTORE PUSH1 0xD4 DUP2 MSTORE PUSH2 0x15E4 DUP2 PUSH2 0x45CC JUMP JUMPDEST MLOAD SWAP1 KECCAK256 DUP4 SWAP1 JUMPDEST DUP7 DUP3 MSTORE PUSH1 0x10 DUP5 MSTORE PUSH1 0x40 DUP3 KECCAK256 DUP1 SLOAD DUP7 LT ISZERO PUSH2 0x1646 JUMPI SWAP1 PUSH2 0x160B DUP7 PUSH1 0x1 SWAP4 PUSH2 0x4535 JUMP JUMPDEST SWAP1 SLOAD SWAP1 PUSH1 0x40 MLOAD SWAP2 DUP8 DUP4 ADD SWAP4 DUP5 MSTORE PUSH1 0x1 PUSH1 0x1 PUSH1 0x60 SHL SUB NOT SWAP2 PUSH1 0x3 SHL SHR DUP7 SHL AND PUSH1 0x40 DUP3 ADD MSTORE PUSH1 0x34 DUP2 MSTORE PUSH2 0x163B DUP2 PUSH2 0x4631 JUMP JUMPDEST MLOAD SWAP1 KECCAK256 SWAP5 ADD SWAP4 PUSH2 0x15EA JUMP JUMPDEST POP SWAP2 POP DUP5 DUP7 DUP3 MSTORE PUSH1 0xE DUP5 MSTORE DUP3 PUSH1 0x40 DUP4 KECCAK256 SSTORE TIMESTAMP DUP2 SSTORE PUSH1 0x12 SLOAD SWAP2 PUSH1 0x1 DUP4 ADD SWAP2 DUP3 DUP5 GT PUSH2 0x16A0 JUMPI POP POP PUSH1 0x12 SSTORE PUSH32 0x716AEB9158D0411549D0EA0300D76E79332E89EC7EB7B7C475EFA863E7B9D00F DUP4 PUSH1 0x40 MLOAD DUP5 DUP2 MSTORE LOG2 PUSH1 0x40 MLOAD SWAP1 DUP2 MSTORE RETURN JUMPDEST PUSH4 0x4E487B71 PUSH1 0xE0 SHL DUP3 MSTORE PUSH1 0x4 MSTORE PUSH1 0x24 SWAP2 POP REVERT JUMPDEST SWAP1 POP DUP4 DUP2 DUP2 RETURNDATASIZE DUP4 GT PUSH2 0x16D9 JUMPI JUMPDEST PUSH2 0x16CA DUP2 DUP4 PUSH2 0x4683 JUMP JUMPDEST DUP2 ADD SUB SLT PUSH2 0xA7C JUMPI MLOAD CODESIZE PUSH2 0x15A2 JUMP JUMPDEST POP RETURNDATASIZE PUSH2 0x16C0 JUMP JUMPDEST POP PUSH1 0x24 SWAP2 PUSH4 0x4E487B71 PUSH1 0xE0 SHL DUP3 MSTORE PUSH1 0x4 MSTORE REVERT JUMPDEST PUSH1 0x24 SWAP2 PUSH4 0x4E487B71 PUSH1 0xE0 SHL DUP3 MSTORE PUSH1 0x4 MSTORE REVERT JUMPDEST PUSH1 0x40 MLOAD PUSH3 0x461BCD PUSH1 0xE5 SHL DUP2 MSTORE PUSH1 0x20 PUSH1 0x4 DUP3 ADD MSTORE PUSH1 0x1B PUSH1 0x24 DUP3 ADD MSTORE PUSH32 0x456E74726F70792075706461746520746F6F206672657175656E740000000000 PUSH1 0x44 DUP3 ADD MSTORE PUSH1 0x64 SWAP1 REVERT JUMPDEST PUSH4 0x4E487B71 PUSH1 0xE0 SHL DUP4 MSTORE PUSH1 0x4 DUP3 SWAP1 MSTORE PUSH1 0x24 DUP4 REVERT JUMPDEST PUSH2 0x477D JUMP JUMPDEST POP CALLVALUE PUSH2 0x4CD JUMPI DUP1 PUSH1 0x3 NOT CALLDATASIZE ADD SLT PUSH2 0x4CD JUMPI PUSH1 0x20 PUSH1 0x8 SLOAD PUSH1 0x40 MLOAD SWAP1 DUP2 MSTORE RETURN JUMPDEST POP CALLVALUE PUSH2 0x4CD JUMPI PUSH1 0x20 CALLDATASIZE PUSH1 0x3 NOT ADD SLT PUSH2 0x4CD JUMPI PUSH1 0xFF PUSH1 0x40 PUSH1 0x20 SWAP3 PUSH1 0x4 CALLDATALOAD DUP2 MSTORE PUSH1 0x24 DUP5 MSTORE KECCAK256 SLOAD AND PUSH1 0x40 MLOAD SWAP1 ISZERO ISZERO DUP2 MSTORE RETURN JUMPDEST POP CALLVALUE PUSH2 0x4CD JUMPI DUP1 PUSH1 0x3 NOT CALLDATASIZE ADD SLT PUSH2 0x4CD JUMPI PUSH1 0x20 PUSH1 0x9 SLOAD PUSH1 0x40 MLOAD SWAP1 DUP2 MSTORE RETURN JUMPDEST POP CALLVALUE PUSH2 0x4CD JUMPI PUSH1 0x20 CALLDATASIZE PUSH1 0x3 NOT ADD SLT PUSH2 0x4CD JUMPI PUSH1 0x20 SWAP1 PUSH1 0x3 PUSH1 0x40 PUSH2 0x17EF PUSH2 0x44F3 JUMP JUMPDEST SWAP3 PUSH2 0x17FF PUSH3 0x15180 TIMESTAMP MOD TIMESTAMP PUSH2 0x52D7 JUMP JUMPDEST PUSH1 0x1 PUSH1 0x1 PUSH1 0xA0 SHL SUB SWAP1 SWAP5 AND DUP2 MSTORE PUSH1 0x1A DUP6 MSTORE KECCAK256 ADD SLOAD PUSH1 0x40 MLOAD SWAP2 GT ISZERO DUP2 MSTORE RETURN JUMPDEST POP CALLVALUE PUSH2 0x4CD JUMPI DUP1 PUSH1 0x3 NOT CALLDATASIZE ADD SLT PUSH2 0x4CD JUMPI PUSH1 0x20 PUSH1 0x17 SLOAD PUSH1 0x40 MLOAD SWAP1 DUP2 MSTORE RETURN JUMPDEST POP DUP1 PUSH1 0x3 NOT CALLDATASIZE ADD SLT PUSH2 0x4CD JUMPI PUSH2 0x184F PUSH2 0x53D7 JUMP JUMPDEST PUSH2 0x1857 PUSH2 0x5359 JUMP JUMPDEST CALLER DUP2 MSTORE PUSH1 0x20 PUSH1 0x1E DUP2 MSTORE PUSH2 0x1871 PUSH1 0xFF PUSH1 0x40 DUP5 KECCAK256 SLOAD AND ISZERO PUSH2 0x4A09 JUMP JUMPDEST CALLER DUP3 MSTORE PUSH1 0x1A DUP2 MSTORE PUSH2 0x188C PUSH1 0xFF PUSH1 0x6 PUSH1 0x40 DUP6 KECCAK256 ADD SLOAD AND ISZERO PUSH2 0x4A09 JUMP JUMPDEST CALLER DUP3 MSTORE PUSH1 0x1A DUP2 MSTORE PUSH1 0x64 PUSH1 0xB PUSH1 0x40 DUP5 KECCAK256 ADD SLOAD LT ISZERO PUSH2 0x19A0 JUMPI PUSH8 0xDE0B6B3A7640000 CALLVALUE LT PUSH2 0x1944 JUMPI CALLER DUP3 MSTORE PUSH1 0x1A DUP2 MSTORE PUSH1 0xB PUSH1 0x40 DUP4 KECCAK256 ADD SLOAD PUSH1 0x1 DUP2 ADD DUP1 SWAP2 GT PUSH2 0x1930 JUMPI CALLER DUP4 MSTORE PUSH1 0x1A DUP3 MSTORE PUSH1 0xB PUSH1 0x40 DUP5 KECCAK256 ADD SSTORE PUSH1 0x6 SLOAD CALLVALUE PUSH1 0x1 SHL SWAP1 CALLVALUE DUP3 DIV PUSH1 0x2 EQ CALLVALUE ISZERO OR ISZERO PUSH2 0xEC9 JUMPI SWAP1 PUSH2 0x18FB SWAP2 PUSH2 0x49FC JUMP JUMPDEST PUSH1 0x6 SSTORE PUSH32 0x6A85014765CE1728A69F3D14127CC749D140BA142C380EF69CA533189DBFA360 PUSH1 0x40 MLOAD SWAP2 CALLVALUE DUP4 MSTORE CALLER SWAP3 LOG2 PUSH1 0x1 DUP2 SSTORE DUP1 RETURN JUMPDEST PUSH4 0x4E487B71 PUSH1 0xE0 SHL DUP4 MSTORE PUSH1 0x11 PUSH1 0x4 MSTORE PUSH1 0x24 DUP4 REVERT JUMPDEST PUSH1 0x84 SWAP1 PUSH1 0x40 MLOAD SWAP1 PUSH3 0x461BCD PUSH1 0xE5 SHL DUP3 MSTORE PUSH1 0x4 DUP3 ADD MSTORE PUSH1 0x2F PUSH1 0x24 DUP3 ADD MSTORE PUSH32 0x496E73756666696369656E742042617365205365706F6C69612045544820666F PUSH1 0x44 DUP3 ADD MSTORE PUSH15 0x72206A61636B706F7420656E747279 PUSH1 0x88 SHL PUSH1 0x64 DUP3 ADD MSTORE REVERT JUMPDEST PUSH1 0x64 SWAP1 PUSH1 0x40 MLOAD SWAP1 PUSH3 0x461BCD PUSH1 0xE5 SHL DUP3 MSTORE PUSH1 0x4 DUP3 ADD MSTORE PUSH1 0x1B PUSH1 0x24 DUP3 ADD MSTORE PUSH32 0x4D6178206A61636B706F7420656E747269657320726561636865640000000000 PUSH1 0x44 DUP3 ADD MSTORE REVERT JUMPDEST POP CALLVALUE PUSH2 0x4CD JUMPI DUP1 PUSH1 0x3 NOT CALLDATASIZE ADD SLT PUSH2 0x4CD JUMPI PUSH1 0x25 SLOAD PUSH2 0x1A28 PUSH1 0x40 PUSH1 0x26 SLOAD SWAP4 NUMBER DUP2 MSTORE PUSH1 0x23 PUSH1 0x20 MSTORE KECCAK256 SLOAD PUSH1 0x40 MLOAD SWAP4 DUP5 SWAP4 DUP5 PUSH1 0x40 SWAP2 SWAP5 SWAP4 SWAP3 PUSH1 0x60 DUP3 ADD SWAP6 DUP3 MSTORE PUSH1 0x20 DUP3 ADD MSTORE ADD MSTORE JUMP JUMPDEST SUB SWAP1 RETURN JUMPDEST POP CALLVALUE PUSH2 0x4CD JUMPI PUSH1 0x40 CALLDATASIZE PUSH1 0x3 NOT ADD SLT PUSH2 0x4CD JUMPI PUSH1 0x4 CALLDATALOAD PUSH2 0x1A49 PUSH2 0x4509 JUMP JUMPDEST SWAP1 PUSH2 0x1A52 PUSH2 0x532D JUMP JUMPDEST DUP1 DUP4 MSTORE PUSH1 0x19 PUSH1 0x20 MSTORE PUSH1 0x40 DUP4 KECCAK256 DUP1 SLOAD PUSH1 0x1 PUSH1 0x1 PUSH1 0xA0 SHL SUB NOT AND PUSH1 0x1 PUSH1 0x1 PUSH1 0xA0 SHL SUB SWAP1 SWAP4 AND SWAP3 DUP4 OR SWAP1 SSTORE PUSH32 0xCA1453E2085A936EA52E0049E559E235E08FE8678E165A7EB63F4568098706AD DUP4 DUP1 LOG3 DUP1 RETURN JUMPDEST PUSH2 0x4988 JUMP JUMPDEST POP CALLVALUE PUSH2 0x4CD JUMPI PUSH1 0x20 CALLDATASIZE PUSH1 0x3 NOT ADD SLT PUSH2 0x4CD JUMPI PUSH1 0x40 PUSH1 0x20 SWAP2 PUSH1 0x4 CALLDATALOAD DUP2 MSTORE PUSH1 0xE DUP4 MSTORE KECCAK256 SLOAD PUSH1 0x40 MLOAD SWAP1 DUP2 MSTORE RETURN JUMPDEST POP CALLVALUE PUSH2 0x4CD JUMPI PUSH1 0x20 SWAP1 DUP2 PUSH1 0x3 NOT CALLDATASIZE ADD SLT PUSH2 0x4CD JUMPI PUSH2 0x1AEC PUSH2 0x52E4 JUMP JUMPDEST POP PUSH1 0x4 CALLDATALOAD DUP2 MSTORE PUSH1 0x1D DUP3 MSTORE PUSH1 0x40 DUP2 KECCAK256 SWAP2 PUSH1 0x40 MLOAD SWAP2 PUSH2 0x1B08 DUP4 PUSH2 0x45CC JUMP JUMPDEST DUP4 SLOAD DUP4 MSTORE PUSH1 0x1 SWAP1 PUSH1 0x1 DUP6 ADD SLOAD DUP4 DUP6 ADD MSTORE PUSH1 0x2 DUP6 ADD SLOAD PUSH1 0x40 DUP6 ADD MSTORE PUSH1 0x3 DUP6 ADD SLOAD PUSH1 0x60 DUP6 ADD MSTORE PUSH1 0x4 DUP6 ADD SLOAD PUSH1 0x80 DUP6 ADD MSTORE PUSH1 0x5 DUP6 ADD SWAP2 PUSH1 0x40 MLOAD DUP1 SWAP5 DUP1 DUP6 SLOAD SWAP3 DUP4 DUP2 MSTORE ADD SWAP5 DUP5 MSTORE DUP1 DUP5 KECCAK256 SWAP4 SWAP1 JUMPDEST DUP3 DUP3 LT PUSH2 0x1B93 JUMPI PUSH2 0x1A28 DUP9 PUSH1 0x7 DUP12 DUP11 PUSH2 0x1B6C DUP2 DUP13 SUB DUP3 PUSH2 0x4683 JUMP JUMPDEST PUSH1 0xA0 DUP5 ADD MSTORE PUSH1 0xFF PUSH1 0x6 DUP3 ADD SLOAD AND ISZERO ISZERO PUSH1 0xC0 DUP5 ADD MSTORE ADD SLOAD PUSH1 0xE0 DUP3 ADD MSTORE PUSH1 0x40 MLOAD SWAP2 DUP3 SWAP2 DUP3 PUSH2 0x48D4 JUMP JUMPDEST DUP5 SLOAD PUSH1 0x1 PUSH1 0x1 PUSH1 0xA0 SHL SUB AND DUP7 MSTORE SWAP5 DUP6 ADD SWAP5 SWAP4 DUP4 ADD SWAP4 SWAP1 DUP4 ADD SWAP1 PUSH2 0x1B51 JUMP JUMPDEST POP CALLVALUE PUSH2 0x4CD JUMPI DUP1 PUSH2 0x1BC1 CALLDATASIZE PUSH2 0x4882 JUMP JUMPDEST SWAP3 SWAP2 PUSH2 0x1BCB PUSH2 0x5359 JUMP JUMPDEST PUSH1 0x2 SLOAD PUSH1 0x1 PUSH1 0x1 PUSH1 0xA0 SHL SUB AND SWAP1 DUP2 EXTCODESIZE ISZERO PUSH2 0x1C1D JUMPI DUP4 PUSH1 0x64 SWAP3 PUSH1 0x40 MLOAD SWAP7 DUP8 SWAP6 DUP7 SWAP5 PUSH4 0xA154FC6B PUSH1 0xE0 SHL DUP7 MSTORE PUSH1 0x4 DUP7 ADD MSTORE PUSH1 0x24 DUP6 ADD MSTORE PUSH1 0x44 DUP5 ADD MSTORE GAS CALL DUP1 ISZERO PUSH2 0xBCA JUMPI PUSH2 0x1C14 JUMPI POP DUP1 RETURN JUMPDEST PUSH2 0x8EA SWAP1 PUSH2 0x45E8 JUMP JUMPDEST DUP4 DUP1 REVERT JUMPDEST POP CALLVALUE PUSH2 0x4CD JUMPI DUP1 PUSH1 0x3 NOT CALLDATASIZE ADD SLT PUSH2 0x4CD JUMPI PUSH1 0x20 PUSH1 0x40 MLOAD PUSH2 0x3E8 DUP2 MSTORE RETURN JUMPDEST POP CALLVALUE PUSH2 0x4CD JUMPI PUSH1 0x20 CALLDATASIZE PUSH1 0x3 NOT ADD SLT PUSH2 0x4CD JUMPI PUSH1 0x80 SWAP1 PUSH1 0x1 PUSH1 0x1 PUSH1 0xA0 SHL SUB SWAP1 PUSH1 0x40 SWAP1 DUP3 PUSH2 0x1C68 PUSH2 0x44F3 JUMP JUMPDEST AND DUP2 MSTORE PUSH1 0x1C PUSH1 0x20 MSTORE KECCAK256 SWAP1 DUP2 SLOAD AND SWAP1 PUSH1 0x1 DUP2 ADD SLOAD SWAP1 PUSH1 0xFF PUSH1 0x3 PUSH1 0x2 DUP4 ADD SLOAD SWAP3 ADD SLOAD AND SWAP2 PUSH1 0x40 MLOAD SWAP4 DUP5 MSTORE PUSH1 0x20 DUP5 ADD MSTORE PUSH1 0x40 DUP4 ADD MSTORE ISZERO ISZERO PUSH1 0x60 DUP3 ADD MSTORE RETURN JUMPDEST PUSH2 0x496C JUMP JUMPDEST POP CALLVALUE PUSH2 0x4CD JUMPI DUP1 PUSH1 0x3 NOT CALLDATASIZE ADD SLT PUSH2 0x4CD JUMPI PUSH1 0x20 PUSH1 0x40 MLOAD PUSH7 0x38D7EA4C68000 DUP2 MSTORE RETURN JUMPDEST POP CALLVALUE PUSH2 0x4CD JUMPI DUP1 PUSH1 0x3 NOT CALLDATASIZE ADD SLT PUSH2 0x4CD JUMPI PUSH2 0x1CE3 PUSH2 0x52E4 JUMP JUMPDEST POP PUSH1 0x4 SLOAD DUP2 MSTORE PUSH1 0x20 SWAP1 PUSH1 0x1D PUSH1 0x20 MSTORE PUSH1 0x40 DUP2 KECCAK256 SWAP2 PUSH1 0x40 MLOAD SWAP2 PUSH2 0x1D03 DUP4 PUSH2 0x45CC JUMP JUMPDEST DUP4 SLOAD DUP4 MSTORE PUSH1 0x1 SWAP1 PUSH1 0x1 DUP6 ADD SLOAD PUSH1 0x20 DUP6 ADD MSTORE PUSH1 0x2 DUP6 ADD SLOAD PUSH1 0x40 DUP6 ADD MSTORE PUSH1 0x3 DUP6 ADD SLOAD PUSH1 0x60 DUP6 ADD MSTORE PUSH1 0x4 DUP6 ADD SLOAD PUSH1 0x80 DUP6 ADD MSTORE PUSH1 0x5 DUP6 ADD SWAP2 PUSH1 0x40 MLOAD DUP1 SWAP5 PUSH1 0x20 DUP6 SLOAD SWAP3 DUP4 DUP2 MSTORE ADD SWAP5 DUP5 MSTORE PUSH1 0x20 DUP5 KECCAK256 SWAP4 SWAP1 JUMPDEST DUP3 DUP3 LT PUSH2 0x1D6A JUMPI PUSH2 0x1A28 DUP9 PUSH1 0x7 DUP12 DUP11 PUSH2 0x1B6C DUP2 DUP13 SUB DUP3 PUSH2 0x4683 JUMP JUMPDEST DUP5 SLOAD PUSH1 0x1 PUSH1 0x1 PUSH1 0xA0 SHL SUB AND DUP7 MSTORE SWAP5 DUP6 ADD SWAP5 SWAP4 DUP4 ADD SWAP4 SWAP1 DUP4 ADD SWAP1 PUSH2 0x1D4F JUMP JUMPDEST POP CALLVALUE PUSH2 0x4CD JUMPI PUSH2 0x1D97 CALLDATASIZE PUSH2 0x451F JUMP JUMPDEST SWAP2 SWAP1 DUP2 MSTORE PUSH1 0xC PUSH1 0x20 MSTORE PUSH1 0x40 DUP2 KECCAK256 SWAP1 DUP2 SLOAD DUP4 LT ISZERO PUSH2 0x4CD JUMPI PUSH1 0x20 PUSH2 0x1DBA DUP5 DUP5 PUSH2 0x4535 JUMP JUMPDEST SWAP1 SLOAD PUSH1 0x40 MLOAD PUSH1 0x3 SWAP3 SWAP1 SWAP3 SHL SHR PUSH1 0x1 PUSH1 0x1 PUSH1 0xA0 SHL SUB AND DUP2 MSTORE RETURN JUMPDEST POP CALLVALUE PUSH2 0x4CD JUMPI PUSH1 0x40 CALLDATASIZE PUSH1 0x3 NOT ADD SLT PUSH2 0x4CD JUMPI PUSH1 0x20 SWAP1 PUSH2 0x1DF0 PUSH2 0x4509 JUMP JUMPDEST PUSH1 0x4 CALLDATALOAD DUP3 MSTORE PUSH1 0x18 DUP4 MSTORE PUSH1 0x40 DUP1 DUP4 KECCAK256 PUSH1 0x1 PUSH1 0x1 PUSH1 0xA0 SHL SUB SWAP3 DUP4 AND DUP1 DUP6 MSTORE SWAP1 DUP6 MSTORE SWAP3 KECCAK256 SLOAD PUSH1 0xFF AND SWAP2 SWAP1 DUP3 ISZERO PUSH2 0x1E2A JUMPI JUMPDEST POP POP PUSH1 0x40 MLOAD SWAP1 ISZERO ISZERO DUP2 MSTORE RETURN JUMPDEST PUSH1 0x1 SLOAD AND EQ SWAP1 POP CODESIZE DUP1 PUSH2 0x1E1E JUMP JUMPDEST POP CALLVALUE PUSH2 0x4CD JUMPI DUP1 PUSH1 0x3 NOT CALLDATASIZE ADD SLT PUSH2 0x4CD JUMPI PUSH1 0x1 SLOAD PUSH1 0x40 MLOAD PUSH1 0x1 PUSH1 0x1 PUSH1 0xA0 SHL SUB SWAP1 SWAP2 AND DUP2 MSTORE PUSH1 0x20 SWAP1 RETURN JUMPDEST POP CALLVALUE PUSH2 0x4CD JUMPI PUSH1 0x20 CALLDATASIZE PUSH1 0x3 NOT ADD SLT PUSH2 0x4CD JUMPI PUSH1 0x20 SWAP1 PUSH1 0x4 CALLDATALOAD DUP2 MSTORE PUSH1 0x19 DUP3 MSTORE PUSH1 0x40 PUSH1 0x1 DUP1 PUSH1 0xA0 SHL SUB SWAP2 KECCAK256 SLOAD AND PUSH1 0x40 MLOAD SWAP1 DUP2 MSTORE RETURN JUMPDEST PUSH2 0x489C JUMP JUMPDEST POP CALLVALUE PUSH2 0x4CD JUMPI PUSH1 0x20 CALLDATASIZE PUSH1 0x3 NOT ADD SLT PUSH2 0x4CD JUMPI PUSH1 0x40 PUSH1 0x20 SWAP2 PUSH1 0x4 CALLDATALOAD DUP2 MSTORE PUSH1 0x23 DUP4 MSTORE KECCAK256 SLOAD PUSH1 0x40 MLOAD SWAP1 DUP2 MSTORE RETURN JUMPDEST POP CALLVALUE PUSH2 0x4CD JUMPI DUP1 PUSH1 0x3 NOT CALLDATASIZE ADD SLT PUSH2 0x4CD JUMPI PUSH1 0x3 SLOAD PUSH1 0x40 MLOAD PUSH4 0x8F09C857 PUSH1 0xE0 SHL DUP2 MSTORE SWAP1 PUSH1 0x20 SWAP1 DUP3 SWAP1 PUSH1 0x4 SWAP1 DUP3 SWAP1 PUSH1 0x1 PUSH1 0x1 PUSH1 0xA0 SHL SUB AND GAS STATICCALL SWAP1 DUP2 ISZERO PUSH2 0xBCA JUMPI DUP3 SWAP2 PUSH2 0x1F13 JUMPI JUMPDEST PUSH1 0x20 DUP3 PUSH1 0x40 MLOAD SWAP1 DUP2 MSTORE RETURN JUMPDEST SWAP1 POP PUSH1 0x20 DUP2 RETURNDATASIZE PUSH1 0x20 GT PUSH2 0x1F45 JUMPI JUMPDEST DUP2 PUSH2 0x1F2E PUSH1 0x20 SWAP4 DUP4 PUSH2 0x4683 JUMP JUMPDEST DUP2 ADD SUB SLT PUSH2 0x1F41 JUMPI PUSH1 0x20 SWAP2 POP MLOAD CODESIZE PUSH2 0x1F08 JUMP JUMPDEST POP DUP1 REVERT JUMPDEST RETURNDATASIZE SWAP2 POP PUSH2 0x1F21 JUMP JUMPDEST POP CALLVALUE PUSH2 0x4CD JUMPI PUSH1 0x20 CALLDATASIZE PUSH1 0x3 NOT ADD SLT PUSH2 0x4CD JUMPI PUSH1 0x20 SWAP1 PUSH1 0x40 SWAP1 PUSH1 0x1 PUSH1 0x1 PUSH1 0xA0 SHL SUB PUSH2 0x1F75 PUSH2 0x44F3 JUMP JUMPDEST AND DUP2 MSTORE PUSH1 0x22 DUP4 MSTORE KECCAK256 SLOAD PUSH1 0x40 MLOAD SWAP1 DUP2 MSTORE RETURN JUMPDEST POP CALLVALUE PUSH2 0x4CD JUMPI DUP1 PUSH1 0x3 NOT CALLDATASIZE ADD SLT PUSH2 0x4CD JUMPI PUSH1 0x20 PUSH1 0x40 MLOAD PUSH32 0xA49807205CE4D355092EF5A8A18F56E8913CF4A201FBE287825B095693C21775 DUP2 MSTORE RETURN JUMPDEST POP CALLVALUE PUSH2 0x4CD JUMPI DUP1 PUSH1 0x3 NOT CALLDATASIZE ADD SLT PUSH2 0x4CD JUMPI PUSH1 0x20 PUSH1 0x7 SLOAD PUSH1 0x40 MLOAD SWAP1 DUP2 MSTORE RETURN JUMPDEST POP CALLVALUE PUSH2 0x4CD JUMPI DUP1 PUSH1 0x3 NOT CALLDATASIZE ADD SLT PUSH2 0x4CD JUMPI PUSH2 0x1FF8 PUSH2 0x53D7 JUMP JUMPDEST PUSH2 0x2000 PUSH2 0x5359 JUMP JUMPDEST CALLER DUP2 MSTORE PUSH1 0x20 PUSH1 0x1E DUP2 MSTORE PUSH2 0x201A PUSH1 0xFF PUSH1 0x40 DUP5 KECCAK256 SLOAD AND ISZERO PUSH2 0x4A09 JUMP JUMPDEST CALLER DUP3 MSTORE PUSH1 0x1A DUP2 MSTORE PUSH2 0x2035 PUSH1 0xFF PUSH1 0x6 PUSH1 0x40 DUP6 KECCAK256 ADD SLOAD AND ISZERO PUSH2 0x4A09 JUMP JUMPDEST PUSH1 0x40 MLOAD PUSH4 0x70A08231 PUSH1 0xE0 SHL DUP2 MSTORE CALLER PUSH1 0x4 DUP3 ADD MSTORE DUP2 DUP2 PUSH1 0x24 DUP2 PUSH32 0x0 PUSH1 0x1 PUSH1 0x1 PUSH1 0xA0 SHL SUB AND GAS STATICCALL SWAP1 DUP2 ISZERO PUSH2 0x10EE JUMPI DUP4 SWAP2 PUSH2 0x21F3 JUMPI JUMPDEST POP DUP1 ISZERO PUSH2 0x21BD JUMPI PUSH8 0xDE0B6B3A7640000 SWAP1 DIV SWAP1 PUSH1 0xA DUP3 MUL SWAP2 DUP1 DUP4 DIV PUSH1 0xA EQ SWAP1 ISZERO OR ISZERO PUSH2 0x1930 JUMPI DUP2 ISZERO PUSH2 0x2179 JUMPI PUSH2 0x2710 DUP3 GT PUSH2 0x2135 JUMPI PUSH1 0x40 SWAP1 CALLER DUP5 MSTORE PUSH1 0x1A DUP2 MSTORE PUSH2 0x20D6 DUP4 PUSH1 0x8 DUP5 DUP8 KECCAK256 ADD SLOAD PUSH2 0x49FC JUMP JUMPDEST CALLER DUP6 MSTORE PUSH1 0x1A DUP3 MSTORE PUSH1 0x8 DUP4 DUP7 KECCAK256 ADD SSTORE DUP2 MLOAD SWAP3 DUP4 MSTORE DUP3 ADD MSTORE PUSH1 0xC PUSH1 0x40 DUP3 ADD MSTORE PUSH12 0x564D4620686F6C64696E6773 PUSH1 0xA0 SHL PUSH1 0x60 DUP3 ADD MSTORE PUSH32 0xA6064B0DE95F7CDA15129E7C36146C8ACCF65ABB7A3639D800A445FA55023A17 PUSH1 0x80 CALLER SWAP3 LOG2 PUSH1 0x1 DUP2 SSTORE DUP1 RETURN JUMPDEST PUSH1 0x64 SWAP1 PUSH1 0x40 MLOAD SWAP1 PUSH3 0x461BCD PUSH1 0xE5 SHL DUP3 MSTORE PUSH1 0x4 DUP3 ADD MSTORE PUSH1 0x17 PUSH1 0x24 DUP3 ADD MSTORE PUSH32 0x4C6F79616C747920706F696E747320746F6F2068696768000000000000000000 PUSH1 0x44 DUP3 ADD MSTORE REVERT JUMPDEST PUSH1 0x64 SWAP1 PUSH1 0x40 MLOAD SWAP1 PUSH3 0x461BCD PUSH1 0xE5 SHL DUP3 MSTORE PUSH1 0x4 DUP3 ADD MSTORE PUSH1 0x1A PUSH1 0x24 DUP3 ADD MSTORE PUSH32 0x4E6F206C6F79616C747920706F696E747320746F206177617264000000000000 PUSH1 0x44 DUP3 ADD MSTORE REVERT JUMPDEST PUSH1 0x40 MLOAD PUSH3 0x461BCD PUSH1 0xE5 SHL DUP2 MSTORE PUSH1 0x4 DUP2 ADD DUP4 SWAP1 MSTORE PUSH1 0xE PUSH1 0x24 DUP3 ADD MSTORE PUSH14 0x4E6F20564D462062616C616E6365 PUSH1 0x90 SHL PUSH1 0x44 DUP3 ADD MSTORE PUSH1 0x64 SWAP1 REVERT JUMPDEST SWAP1 POP DUP2 DUP2 DUP2 RETURNDATASIZE DUP4 GT PUSH2 0x221D JUMPI JUMPDEST PUSH2 0x220A DUP2 DUP4 PUSH2 0x4683 JUMP JUMPDEST DUP2 ADD SUB SLT PUSH2 0x2219 JUMPI MLOAD CODESIZE PUSH2 0x2087 JUMP JUMPDEST DUP3 DUP1 REVERT JUMPDEST POP RETURNDATASIZE PUSH2 0x2200 JUMP JUMPDEST POP CALLVALUE PUSH2 0x4CD JUMPI PUSH2 0x2233 CALLDATASIZE PUSH2 0x4882 JUMP JUMPDEST PUSH1 0x0 DUP1 MLOAD PUSH1 0x20 PUSH2 0x5DB0 DUP4 CODECOPY DUP2 MLOAD SWAP2 MSTORE DUP5 MSTORE PUSH1 0x20 SWAP1 PUSH1 0x18 DUP3 MSTORE PUSH1 0x40 DUP6 KECCAK256 CALLER DUP7 MSTORE DUP3 MSTORE PUSH1 0xFF PUSH1 0x40 DUP7 KECCAK256 SLOAD AND DUP1 ISZERO PUSH2 0x2454 JUMPI JUMPDEST PUSH2 0x226C SWAP1 PUSH2 0x4B7F JUMP JUMPDEST PUSH2 0x2274 PUSH2 0x5359 JUMP JUMPDEST DUP4 DUP6 MSTORE PUSH1 0x13 DUP3 MSTORE PUSH1 0xFF PUSH1 0x40 DUP7 KECCAK256 SLOAD AND PUSH2 0x2418 JUMPI PUSH2 0x2296 PUSH1 0x16 SLOAD PUSH1 0x17 SLOAD SWAP1 PUSH2 0x49FC JUMP JUMPDEST TIMESTAMP LT PUSH2 0x23D3 JUMPI DUP4 DUP6 MSTORE PUSH1 0x15 DUP3 MSTORE PUSH1 0x40 DUP6 KECCAK256 SLOAD SUB PUSH2 0x2399 JUMPI DUP3 DUP5 MSTORE PUSH1 0x13 DUP2 MSTORE PUSH1 0x40 DUP5 KECCAK256 SWAP1 PUSH1 0xFF NOT SWAP2 PUSH1 0x1 DUP4 DUP3 SLOAD AND OR SWAP1 SSTORE PUSH1 0x5 SLOAD SWAP2 DUP4 PUSH1 0x5 SSTORE PUSH1 0x14 DUP3 MSTORE PUSH1 0x40 DUP7 KECCAK256 SLOAD PUSH1 0x1 DUP2 ADD DUP1 SWAP2 GT PUSH2 0x2385 JUMPI SWAP2 PUSH1 0x14 SWAP2 PUSH32 0x42D4A2476A82A032F615547E73391179C379C1EB26FB0BD034F43131AE2BC15D SWAP6 SWAP5 SWAP4 DUP8 DUP10 MSTORE DUP4 DUP4 MSTORE DUP1 PUSH1 0x40 DUP11 KECCAK256 SSTORE PUSH1 0x40 MLOAD DUP4 DUP2 ADD SWAP2 DUP8 DUP4 MSTORE PUSH1 0x40 DUP3 ADD MSTORE TIMESTAMP PUSH1 0x60 DUP3 ADD MSTORE PUSH1 0x60 DUP2 MSTORE PUSH2 0x2338 DUP2 PUSH2 0x457F JUMP JUMPDEST MLOAD SWAP1 KECCAK256 DUP8 DUP10 MSTORE PUSH1 0x15 DUP4 MSTORE PUSH1 0x40 DUP10 KECCAK256 SSTORE TIMESTAMP PUSH1 0x16 SSTORE PUSH1 0x13 DUP3 MSTORE PUSH1 0x40 DUP9 KECCAK256 SWAP1 DUP2 SLOAD AND SWAP1 SSTORE MSTORE PUSH2 0x237F PUSH1 0x40 DUP7 KECCAK256 SLOAD PUSH1 0x40 MLOAD SWAP4 DUP5 SWAP4 DUP5 PUSH1 0x40 SWAP2 SWAP5 SWAP4 SWAP3 PUSH1 0x60 DUP3 ADD SWAP6 DUP3 MSTORE PUSH1 0x20 DUP3 ADD MSTORE ADD MSTORE JUMP JUMPDEST SUB SWAP1 LOG2 DUP1 RETURN JUMPDEST PUSH4 0x4E487B71 PUSH1 0xE0 SHL DUP8 MSTORE PUSH1 0x11 PUSH1 0x4 MSTORE PUSH1 0x24 DUP8 REVERT JUMPDEST PUSH1 0x64 SWAP1 PUSH1 0x40 MLOAD SWAP1 PUSH3 0x461BCD PUSH1 0xE5 SHL DUP3 MSTORE PUSH1 0x4 DUP3 ADD MSTORE PUSH1 0x13 PUSH1 0x24 DUP3 ADD MSTORE PUSH19 0xA6E8C2E8CA40D0C2E6D040DAD2E6DAC2E8C6D PUSH1 0x6B SHL PUSH1 0x44 DUP3 ADD MSTORE REVERT JUMPDEST PUSH1 0x40 MLOAD PUSH3 0x461BCD PUSH1 0xE5 SHL DUP2 MSTORE PUSH1 0x4 DUP2 ADD DUP4 SWAP1 MSTORE PUSH1 0x1B PUSH1 0x24 DUP3 ADD MSTORE PUSH32 0x4A61636B706F742075706461746520746F6F206672657175656E740000000000 PUSH1 0x44 DUP3 ADD MSTORE PUSH1 0x64 SWAP1 REVERT JUMPDEST PUSH1 0x40 MLOAD PUSH3 0x461BCD PUSH1 0xE5 SHL DUP2 MSTORE PUSH1 0x4 DUP2 ADD DUP4 SWAP1 MSTORE PUSH1 0x14 PUSH1 0x24 DUP3 ADD MSTORE PUSH20 0x11D85B59481CDD185D19481A5CC81B1BD8DAD959 PUSH1 0x62 SHL PUSH1 0x44 DUP3 ADD MSTORE PUSH1 0x64 SWAP1 REVERT JUMPDEST POP PUSH1 0x1 SLOAD PUSH1 0x1 PUSH1 0x1 PUSH1 0xA0 SHL SUB AND CALLER EQ PUSH2 0x2263 JUMP JUMPDEST POP CALLVALUE PUSH2 0x4CD JUMPI DUP1 PUSH1 0x3 NOT CALLDATASIZE ADD SLT PUSH2 0x4CD JUMPI PUSH2 0x2481 PUSH2 0x532D JUMP JUMPDEST PUSH1 0x1 DUP1 SLOAD PUSH1 0x1 PUSH1 0x1 PUSH1 0xA0 SHL SUB NOT DUP2 AND SWAP1 SWAP2 SSTORE DUP2 SWAP1 PUSH1 0x1 PUSH1 0x1 PUSH1 0xA0 SHL SUB AND PUSH32 0x8BE0079C531659141344CD1FD0A4F28419497F9722A3DAAFE3B4186F6B6457E0 DUP3 DUP1 LOG3 DUP1 RETURN JUMPDEST POP CALLVALUE PUSH2 0x4CD JUMPI DUP1 PUSH1 0x3 NOT CALLDATASIZE ADD SLT PUSH2 0x4CD JUMPI PUSH1 0x20 PUSH1 0x40 MLOAD PUSH32 0x59A1C48E5837AD7A7F3DCEDCBE129BF3249EC4FBF651FD4F5E2600EAD39FE2F5 DUP2 MSTORE RETURN JUMPDEST POP CALLVALUE PUSH2 0x4CD JUMPI PUSH1 0x20 CALLDATASIZE PUSH1 0x3 NOT ADD SLT PUSH2 0x4CD JUMPI PUSH32 0x37AA3048A2B523E3218796793D7C9283CBD45124C62254C97FEBFC1292524294 PUSH1 0x20 PUSH1 0x4 CALLDATALOAD PUSH32 0xA49807205CE4D355092EF5A8A18F56E8913CF4A201FBE287825B095693C21775 DUP5 MSTORE PUSH1 0x18 DUP3 MSTORE PUSH1 0x40 DUP5 KECCAK256 CALLER DUP6 MSTORE DUP3 MSTORE PUSH1 0xFF PUSH1 0x40 DUP6 KECCAK256 SLOAD AND DUP1 ISZERO PUSH2 0x258E JUMPI JUMPDEST PUSH2 0x2580 SWAP1 PUSH2 0x4B7F JUMP JUMPDEST DUP1 PUSH1 0x17 SSTORE PUSH1 0x40 MLOAD SWAP1 DUP2 MSTORE LOG1 DUP1 RETURN JUMPDEST POP PUSH1 0x1 SLOAD PUSH1 0x1 PUSH1 0x1 PUSH1 0xA0 SHL SUB AND CALLER EQ PUSH2 0x2577 JUMP JUMPDEST POP CALLVALUE PUSH2 0x4CD JUMPI DUP1 PUSH1 0x3 NOT CALLDATASIZE ADD SLT PUSH2 0x4CD JUMPI PUSH1 0x20 PUSH1 0x40 MLOAD PUSH1 0x5 DUP2 MSTORE RETURN JUMPDEST POP CALLVALUE PUSH2 0x4CD JUMPI PUSH1 0x20 CALLDATASIZE PUSH1 0x3 NOT ADD SLT PUSH2 0x4CD JUMPI PUSH1 0x40 PUSH1 0x20 SWAP2 PUSH1 0x4 CALLDATALOAD DUP2 MSTORE PUSH1 0x15 DUP4 MSTORE KECCAK256 SLOAD PUSH1 0x40 MLOAD SWAP1 DUP2 MSTORE RETURN JUMPDEST POP CALLVALUE PUSH2 0x4CD JUMPI DUP1 PUSH1 0x3 NOT CALLDATASIZE ADD SLT PUSH2 0x4CD JUMPI PUSH1 0x20 PUSH1 0xFF PUSH1 0x1 SLOAD PUSH1 0xA0 SHR AND PUSH1 0x40 MLOAD SWAP1 ISZERO ISZERO DUP2 MSTORE RETURN JUMPDEST POP PUSH2 0x2618 CALLDATASIZE PUSH2 0x46BF JUMP JUMPDEST PUSH2 0x2620 PUSH2 0x53D7 JUMP JUMPDEST PUSH2 0x2628 PUSH2 0x5359 JUMP JUMPDEST CALLER DUP3 MSTORE PUSH1 0x20 PUSH1 0x1E DUP2 MSTORE PUSH2 0x2642 PUSH1 0xFF PUSH1 0x40 DUP6 KECCAK256 SLOAD AND ISZERO PUSH2 0x4A09 JUMP JUMPDEST CALLER DUP4 MSTORE PUSH1 0x1A DUP1 DUP3 MSTORE PUSH2 0x265E PUSH1 0xFF PUSH1 0x6 PUSH1 0x40 DUP8 KECCAK256 ADD SLOAD AND ISZERO PUSH2 0x4A09 JUMP JUMPDEST CALLER DUP5 MSTORE DUP1 DUP3 MSTORE PUSH1 0xFF PUSH1 0x10 PUSH1 0x40 DUP7 KECCAK256 ADD SLOAD AND PUSH2 0x2D90 JUMPI CALLER DUP5 MSTORE DUP1 DUP3 MSTORE PUSH1 0x3 PUSH1 0x40 DUP6 KECCAK256 ADD SLOAD SWAP1 PUSH2 0xE10 SWAP2 DUP3 DUP2 ADD DUP1 SWAP2 GT PUSH2 0x2914 JUMPI TIMESTAMP LT PUSH2 0x2D55 JUMPI CALLER DUP6 MSTORE PUSH1 0x21 DUP4 MSTORE PUSH1 0x40 DUP6 KECCAK256 SLOAD TIMESTAMP LT PUSH2 0x2D12 JUMPI CALLER DUP6 MSTORE DUP1 DUP4 MSTORE PUSH1 0xF PUSH1 0x40 DUP7 KECCAK256 ADD SLOAD DUP3 DUP2 ADD DUP1 SWAP2 GT PUSH2 0x2914 JUMPI TIMESTAMP LT PUSH2 0x2CCD JUMPI CALLER DUP6 MSTORE PUSH1 0x22 DUP4 MSTORE TIMESTAMP PUSH1 0x40 DUP7 KECCAK256 SSTORE DUP1 DUP4 MSTORE TIMESTAMP PUSH1 0xF PUSH1 0x40 DUP8 KECCAK256 ADD SSTORE PUSH1 0x4 SLOAD ISZERO PUSH2 0x2C96 JUMPI PUSH2 0x26F0 CALLER PUSH2 0x57BB JUMP JUMPDEST PUSH2 0x2C51 JUMPI PUSH7 0x38D7EA4C68000 CALLVALUE LT PUSH2 0x2BFE JUMPI CALLER DUP6 MSTORE DUP1 DUP4 MSTORE PUSH1 0x1 SWAP4 PUSH1 0xA DUP6 PUSH1 0x40 DUP9 KECCAK256 ADD SLOAD LT ISZERO PUSH2 0x2BB9 JUMPI PUSH1 0x40 MLOAD PUSH2 0x2726 DUP2 PUSH2 0x4616 JUMP JUMPDEST DUP7 DUP2 MSTORE SWAP1 DUP1 MLOAD ISZERO DUP1 ISZERO PUSH2 0x29C8 JUMPI JUMPDEST POP POP CALLER DUP7 MSTORE DUP2 DUP5 MSTORE DUP5 PUSH1 0x40 DUP8 KECCAK256 ADD SLOAD DUP6 DUP2 ADD DUP1 SWAP2 GT PUSH2 0x2385 JUMPI CALLER DUP8 MSTORE DUP3 DUP6 MSTORE PUSH1 0x40 DUP8 KECCAK256 SWAP1 DUP7 DUP3 ADD SSTORE TIMESTAMP PUSH1 0x3 DUP3 ADD SSTORE SLOAD DUP6 DUP2 ADD DUP1 SWAP2 GT PUSH2 0x2385 JUMPI CALLER DUP8 MSTORE DUP3 DUP6 MSTORE PUSH1 0x40 DUP8 KECCAK256 SSTORE PUSH1 0x4 SLOAD DUP7 MSTORE PUSH1 0xA DUP5 MSTORE PUSH2 0x278E CALLER PUSH1 0x40 DUP9 KECCAK256 PUSH2 0x49C1 JUMP JUMPDEST PUSH1 0x4 SLOAD DUP1 DUP8 MSTORE PUSH1 0xB DUP6 MSTORE PUSH1 0x40 DUP8 KECCAK256 SLOAD SWAP1 DUP7 DUP3 ADD DUP1 SWAP3 GT PUSH2 0x29B4 JUMPI DUP8 MSTORE PUSH1 0xB DUP6 MSTORE PUSH1 0x40 DUP8 KECCAK256 SSTORE PUSH2 0x27BF CALLVALUE PUSH1 0x5 SLOAD PUSH2 0x49FC JUMP JUMPDEST PUSH1 0x5 SSTORE DUP1 MLOAD PUSH2 0x296D JUMPI JUMPDEST POP CALLER DUP6 MSTORE DUP3 DUP1 MSTORE PUSH1 0x40 DUP6 KECCAK256 SLOAD DUP5 DUP2 ADD DUP1 SWAP2 GT PUSH2 0x2914 JUMPI PUSH1 0x64 DUP2 GT PUSH2 0x2928 JUMPI CALLER DUP7 MSTORE DUP4 DUP1 MSTORE PUSH1 0x40 DUP7 KECCAK256 SSTORE DUP1 DUP4 MSTORE PUSH1 0xE PUSH1 0x40 DUP7 KECCAK256 ADD SLOAD DUP5 DUP2 ADD DUP1 SWAP2 GT PUSH2 0x2914 JUMPI CALLER DUP7 MSTORE DUP2 DUP5 MSTORE PUSH1 0xE PUSH1 0x40 DUP8 KECCAK256 ADD SSTORE PUSH1 0x40 MLOAD DUP5 DUP2 MSTORE PUSH1 0x40 DUP5 DUP3 ADD MSTORE PUSH1 0x11 PUSH1 0x40 DUP3 ADD MSTORE PUSH17 0x11185A5B1E481C1B185E481C995DD85C99 PUSH1 0x7A SHL PUSH1 0x60 DUP3 ADD MSTORE PUSH1 0x0 DUP1 MLOAD PUSH1 0x20 PUSH2 0x5DD0 DUP4 CODECOPY DUP2 MLOAD SWAP2 MSTORE PUSH1 0x80 CALLER SWAP3 LOG2 PUSH1 0x4 SLOAD PUSH1 0x40 MLOAD CALLVALUE DUP2 MSTORE PUSH32 0x480A6DAEA81F2AF589E1959DA1F1719512392EC551E8966266EE820F1C1F72EA DUP6 CALLER SWAP3 LOG3 PUSH32 0x404449B42E86F8716DD5AC141731FB164FE1F76D7E4039FDD16C7B3B48F96A4E PUSH1 0x40 PUSH1 0x5 SLOAD PUSH1 0x6 SLOAD DUP3 MLOAD SWAP2 DUP3 MSTORE DUP7 DUP3 ADD MSTORE LOG1 CALLER DUP6 MSTORE DUP3 MSTORE PUSH1 0x10 PUSH1 0x40 DUP6 KECCAK256 ADD DUP4 PUSH1 0xFF NOT DUP3 SLOAD AND OR SWAP1 SSTORE TIMESTAMP ADD SWAP1 DUP2 TIMESTAMP GT PUSH2 0xEC9 JUMPI PUSH32 0x2F9A50B0843B7D2D827707C950209B525673C306D684446F6C4B1B748A4ED9EE SWAP1 CALLER DUP6 MSTORE PUSH1 0x21 DUP2 MSTORE DUP3 PUSH1 0x40 DUP7 KECCAK256 SSTORE PUSH1 0x40 MLOAD SWAP3 DUP4 MSTORE CALLER SWAP3 LOG2 DUP2 SSTORE DUP1 RETURN JUMPDEST PUSH4 0x4E487B71 PUSH1 0xE0 SHL DUP7 MSTORE PUSH1 0x11 PUSH1 0x4 MSTORE PUSH1 0x24 DUP7 REVERT JUMPDEST PUSH1 0x40 MLOAD PUSH3 0x461BCD PUSH1 0xE5 SHL DUP2 MSTORE PUSH1 0x4 DUP2 ADD DUP6 SWAP1 MSTORE PUSH1 0x1B PUSH1 0x24 DUP3 ADD MSTORE PUSH32 0x4461696C7920726577617264206C696D69742065786365656465640000000000 PUSH1 0x44 DUP3 ADD MSTORE PUSH1 0x64 SWAP1 REVERT JUMPDEST PUSH2 0x29A6 PUSH32 0x64274D45E838268EFE3B4FA5586A29791F42C0F3F9A6422424C424401BF39589 SWAP2 PUSH1 0x40 MLOAD SWAP2 DUP3 SWAP2 PUSH1 0x40 DUP4 MSTORE PUSH1 0x40 DUP4 ADD SWAP1 PUSH2 0x485D JUMP JUMPDEST CALLER DUP8 DUP4 ADD MSTORE SUB SWAP1 LOG1 CODESIZE PUSH2 0x27C9 JUMP JUMPDEST PUSH4 0x4E487B71 PUSH1 0xE0 SHL DUP9 MSTORE PUSH1 0x11 PUSH1 0x4 MSTORE PUSH1 0x24 DUP9 REVERT JUMPDEST SWAP1 SWAP2 POP PUSH2 0x2B7C JUMPI PUSH1 0x64 DUP2 MLOAD GT PUSH2 0x2B46 JUMPI PUSH2 0x29E2 DUP2 MLOAD PUSH2 0x5819 JUMP JUMPDEST SWAP1 DUP6 DUP8 SWAP2 DUP2 DUP10 SWAP1 JUMPDEST PUSH2 0x2AD9 JUMPI JUMPDEST POP POP POP DUP1 ISZERO PUSH2 0x2A94 JUMPI PUSH2 0x2A01 DUP2 PUSH2 0x5819 JUMP JUMPDEST SWAP2 DUP7 DUP9 JUMPDEST DUP4 DUP2 LT PUSH2 0x2A6A JUMPI POP POP POP POP PUSH2 0x2A19 DUP2 PUSH2 0x585C JUMP JUMPDEST ISZERO PUSH2 0x2A25 JUMPI CODESIZE DUP1 PUSH2 0x2734 JUMP JUMPDEST PUSH1 0x40 MLOAD PUSH3 0x461BCD PUSH1 0xE5 SHL DUP2 MSTORE PUSH1 0x4 DUP2 ADD DUP6 SWAP1 MSTORE PUSH1 0x1C PUSH1 0x24 DUP3 ADD MSTORE PUSH32 0x496E76616C696420726566657272616C20636F646520666F726D617400000000 PUSH1 0x44 DUP3 ADD MSTORE PUSH1 0x64 SWAP1 REVERT JUMPDEST PUSH1 0x1 PUSH1 0x1 PUSH1 0xF8 SHL SUB NOT PUSH2 0x2A7D DUP3 DUP6 PUSH2 0x584B JUMP JUMPDEST MLOAD AND DUP11 BYTE PUSH2 0x2A8B DUP3 DUP8 PUSH2 0x584B JUMP JUMPDEST MSTORE8 ADD DUP8 SWAP1 PUSH2 0x2A05 JUMP JUMPDEST PUSH1 0x40 MLOAD PUSH3 0x461BCD PUSH1 0xE5 SHL DUP2 MSTORE PUSH1 0x4 DUP2 ADD DUP7 SWAP1 MSTORE PUSH1 0x1C PUSH1 0x24 DUP3 ADD MSTORE PUSH32 0x4E6F2076616C6964206368617261637465727320696E20696E70757400000000 PUSH1 0x44 DUP3 ADD MSTORE PUSH1 0x64 SWAP1 REVERT JUMPDEST DUP2 MLOAD DUP2 LT ISZERO PUSH2 0x2B41 JUMPI PUSH1 0x1 PUSH1 0x1 PUSH1 0xF8 SHL SUB NOT PUSH2 0x2AF5 DUP3 DUP5 PUSH2 0x584B JUMP JUMPDEST MLOAD AND PUSH1 0x1 PUSH1 0xFD SHL DUP2 LT ISZERO DUP1 PUSH2 0x2B33 JUMPI JUMPDEST PUSH2 0x2B13 JUMPI JUMPDEST POP DUP3 ADD DUP3 PUSH2 0x29EA JUMP JUMPDEST DUP4 SWAP2 SWAP5 PUSH2 0x2B2C SWAP2 DUP13 BYTE PUSH2 0x2B26 DUP3 DUP10 PUSH2 0x584B JUMP JUMPDEST MSTORE8 PUSH2 0x4C3D JUMP JUMPDEST SWAP4 SWAP1 PUSH2 0x2B0A JUMP JUMPDEST POP PUSH1 0x3F PUSH1 0xF9 SHL DUP2 GT ISZERO PUSH2 0x2B05 JUMP JUMPDEST PUSH2 0x29EF JUMP JUMPDEST PUSH1 0x40 MLOAD PUSH3 0x461BCD PUSH1 0xE5 SHL DUP2 MSTORE PUSH1 0x4 DUP2 ADD DUP6 SWAP1 MSTORE PUSH1 0xE PUSH1 0x24 DUP3 ADD MSTORE PUSH14 0x496E70757420746F6F206C6F6E67 PUSH1 0x90 SHL PUSH1 0x44 DUP3 ADD MSTORE PUSH1 0x64 SWAP1 REVERT JUMPDEST PUSH1 0x40 MLOAD PUSH3 0x461BCD PUSH1 0xE5 SHL DUP2 MSTORE PUSH1 0x4 DUP2 ADD DUP6 SWAP1 MSTORE PUSH1 0x15 PUSH1 0x24 DUP3 ADD MSTORE PUSH21 0x496E7075742063616E6E6F7420626520656D707479 PUSH1 0x58 SHL PUSH1 0x44 DUP3 ADD MSTORE PUSH1 0x64 SWAP1 REVERT JUMPDEST PUSH1 0x40 MLOAD PUSH3 0x461BCD PUSH1 0xE5 SHL DUP2 MSTORE PUSH1 0x4 DUP2 ADD DUP6 SWAP1 MSTORE PUSH1 0x19 PUSH1 0x24 DUP3 ADD MSTORE PUSH32 0x4D6178206461696C7920656E7472696573207265616368656400000000000000 PUSH1 0x44 DUP3 ADD MSTORE PUSH1 0x64 SWAP1 REVERT JUMPDEST PUSH1 0x40 MLOAD PUSH3 0x461BCD PUSH1 0xE5 SHL DUP2 MSTORE PUSH1 0x4 DUP2 ADD DUP5 SWAP1 MSTORE PUSH1 0x25 PUSH1 0x24 DUP3 ADD MSTORE PUSH32 0x496E73756666696369656E742042617365205365706F6C696120455448206261 PUSH1 0x44 DUP3 ADD MSTORE PUSH5 0x6C616E6365 PUSH1 0xD8 SHL PUSH1 0x64 DUP3 ADD MSTORE PUSH1 0x84 SWAP1 REVERT JUMPDEST PUSH1 0x40 MLOAD PUSH3 0x461BCD PUSH1 0xE5 SHL DUP2 MSTORE PUSH1 0x4 DUP2 ADD DUP5 SWAP1 MSTORE PUSH1 0x1C PUSH1 0x24 DUP3 ADD MSTORE PUSH32 0x537573706963696F757320616374697669747920646574656374656400000000 PUSH1 0x44 DUP3 ADD MSTORE PUSH1 0x64 SWAP1 REVERT JUMPDEST PUSH1 0x40 MLOAD PUSH3 0x461BCD PUSH1 0xE5 SHL DUP2 MSTORE PUSH1 0x4 DUP2 ADD DUP5 SWAP1 MSTORE PUSH1 0xF PUSH1 0x24 DUP3 ADD MSTORE PUSH15 0x125B9D985B1A590819D85B59481251 PUSH1 0x8A SHL PUSH1 0x44 DUP3 ADD MSTORE PUSH1 0x64 SWAP1 REVERT JUMPDEST PUSH1 0x40 MLOAD PUSH3 0x461BCD PUSH1 0xE5 SHL DUP2 MSTORE PUSH1 0x4 DUP2 ADD DUP5 SWAP1 MSTORE PUSH1 0x1B PUSH1 0x24 DUP3 ADD MSTORE PUSH32 0x536563757269747920636865636B20746F6F206672657175656E740000000000 PUSH1 0x44 DUP3 ADD MSTORE PUSH1 0x64 SWAP1 REVERT JUMPDEST DUP3 PUSH1 0x64 SWAP2 PUSH1 0x40 MLOAD SWAP2 PUSH3 0x461BCD PUSH1 0xE5 SHL DUP4 MSTORE PUSH1 0x4 DUP4 ADD MSTORE PUSH1 0x24 DUP3 ADD MSTORE PUSH32 0x52617465206C696D697420636F6F6C646F776E20616374697665000000000000 PUSH1 0x44 DUP3 ADD MSTORE REVERT JUMPDEST PUSH1 0x40 MLOAD PUSH3 0x461BCD PUSH1 0xE5 SHL DUP2 MSTORE PUSH1 0x4 DUP2 ADD DUP5 SWAP1 MSTORE PUSH1 0x13 PUSH1 0x24 DUP3 ADD MSTORE PUSH19 0x14985D19481B1A5B5A5D08195E18D959591959 PUSH1 0x6A SHL PUSH1 0x44 DUP3 ADD MSTORE PUSH1 0x64 SWAP1 REVERT JUMPDEST PUSH1 0x40 MLOAD PUSH3 0x461BCD PUSH1 0xE5 SHL DUP2 MSTORE PUSH1 0x4 DUP2 ADD DUP4 SWAP1 MSTORE PUSH1 0x14 PUSH1 0x24 DUP3 ADD MSTORE PUSH20 0x155CD95C881A5CC81C985D19481B1A5B5A5D1959 PUSH1 0x62 SHL PUSH1 0x44 DUP3 ADD MSTORE PUSH1 0x64 SWAP1 REVERT JUMPDEST POP CALLVALUE PUSH2 0x4CD JUMPI DUP1 PUSH1 0x3 NOT CALLDATASIZE ADD SLT PUSH2 0x4CD JUMPI PUSH1 0x20 PUSH1 0x12 SLOAD PUSH1 0x40 MLOAD SWAP1 DUP2 MSTORE RETURN JUMPDEST POP CALLVALUE PUSH2 0x4CD JUMPI DUP1 PUSH1 0x3 NOT CALLDATASIZE ADD SLT PUSH2 0x4CD JUMPI PUSH32 0xA49807205CE4D355092EF5A8A18F56E8913CF4A201FBE287825B095693C21775 DUP2 MSTORE PUSH1 0x20 SWAP1 PUSH1 0x18 DUP3 MSTORE PUSH1 0x40 DUP2 KECCAK256 CALLER DUP3 MSTORE DUP3 MSTORE PUSH1 0xFF SWAP2 PUSH1 0xFF PUSH1 0x40 DUP4 KECCAK256 SLOAD AND DUP1 ISZERO PUSH2 0x2F4A JUMPI JUMPDEST PUSH2 0x2E49 SWAP1 PUSH2 0x4B7F JUMP JUMPDEST PUSH1 0x26 SLOAD PUSH2 0xE10 DUP2 ADD DUP1 SWAP2 GT PUSH2 0x1930 JUMPI TIMESTAMP LT PUSH2 0x2F06 JUMPI DUP2 JUMPDEST PUSH1 0x64 DUP2 LT PUSH2 0x2EB1 JUMPI POP TIMESTAMP PUSH1 0x26 SSTORE PUSH1 0x25 SLOAD PUSH1 0x1 DUP2 ADD DUP1 SWAP2 GT PUSH2 0x1930 JUMPI PUSH32 0x1B9B06155F0DA9BCE83C4A8A54DCCA59CDF479249CEB43679C0BD7FA67B2F188 SWAP2 DUP2 PUSH1 0x40 SWAP3 PUSH1 0x25 SSTORE DUP3 MLOAD SWAP2 TIMESTAMP DUP4 MSTORE DUP3 ADD MSTORE LOG1 DUP1 RETURN JUMPDEST DUP1 PUSH1 0x1 SWAP2 NUMBER GT DUP1 PUSH2 0x2EE9 JUMPI JUMPDEST PUSH2 0x2EC8 JUMPI JUMPDEST ADD PUSH2 0x2E60 JUMP JUMPDEST PUSH2 0x2ED2 DUP2 NUMBER PUSH2 0x52D7 JUMP JUMPDEST DUP5 MSTORE PUSH1 0x24 DUP4 MSTORE PUSH1 0x40 DUP5 KECCAK256 DUP1 SLOAD PUSH1 0xFF NOT AND SWAP1 SSTORE PUSH2 0x2EC2 JUMP JUMPDEST POP PUSH2 0x2EF4 DUP2 NUMBER PUSH2 0x52D7 JUMP JUMPDEST DUP5 MSTORE PUSH1 0x24 DUP4 MSTORE DUP5 PUSH1 0x40 DUP6 KECCAK256 SLOAD AND PUSH2 0x2EBD JUMP JUMPDEST PUSH1 0x64 SWAP1 PUSH1 0x40 MLOAD SWAP1 PUSH3 0x461BCD PUSH1 0xE5 SHL DUP3 MSTORE PUSH1 0x4 DUP3 ADD MSTORE PUSH1 0x19 PUSH1 0x24 DUP3 ADD MSTORE PUSH32 0x4F7074696D697A6174696F6E20746F6F206672657175656E7400000000000000 PUSH1 0x44 DUP3 ADD MSTORE REVERT JUMPDEST POP PUSH1 0x1 SLOAD PUSH1 0x1 PUSH1 0x1 PUSH1 0xA0 SHL SUB AND CALLER EQ PUSH2 0x2E40 JUMP JUMPDEST POP CALLVALUE PUSH2 0x4CD JUMPI PUSH1 0x20 CALLDATASIZE PUSH1 0x3 NOT ADD SLT PUSH2 0x4CD JUMPI PUSH1 0x40 PUSH2 0x220 SWAP2 PUSH2 0x2F7E PUSH2 0x44F3 JUMP JUMPDEST DUP2 PUSH2 0x200 DUP5 MLOAD PUSH2 0x2F8D DUP2 PUSH2 0x45B0 JUMP JUMPDEST DUP3 DUP2 MSTORE DUP3 PUSH1 0x20 DUP3 ADD MSTORE DUP3 DUP7 DUP3 ADD MSTORE DUP3 PUSH1 0x60 DUP3 ADD MSTORE DUP3 PUSH1 0x80 DUP3 ADD MSTORE DUP3 PUSH1 0xA0 DUP3 ADD MSTORE DUP3 PUSH1 0xC0 DUP3 ADD MSTORE DUP3 PUSH1 0xE0 DUP3 ADD MSTORE DUP3 PUSH2 0x100 DUP3 ADD MSTORE DUP3 PUSH2 0x120 DUP3 ADD MSTORE DUP3 PUSH2 0x140 DUP3 ADD MSTORE DUP3 PUSH2 0x160 DUP3 ADD MSTORE DUP3 PUSH2 0x180 DUP3 ADD MSTORE DUP3 PUSH2 0x1A0 DUP3 ADD MSTORE DUP3 PUSH2 0x1C0 DUP3 ADD MSTORE DUP3 PUSH2 0x1E0 DUP3 ADD MSTORE ADD MSTORE PUSH1 0x1 DUP1 PUSH1 0xA0 SHL SUB AND DUP2 MSTORE PUSH1 0x1A PUSH1 0x20 MSTORE KECCAK256 PUSH2 0x200 PUSH1 0x40 MLOAD PUSH2 0x3012 DUP2 PUSH2 0x45B0 JUMP JUMPDEST PUSH1 0xFF PUSH1 0x10 DUP5 SLOAD SWAP5 DUP6 DUP5 MSTORE PUSH1 0x1 DUP2 ADD SLOAD PUSH1 0x20 DUP6 ADD MSTORE PUSH1 0x2 DUP2 ADD SLOAD PUSH1 0x40 DUP6 ADD MSTORE PUSH1 0x3 DUP2 ADD SLOAD PUSH1 0x60 DUP6 ADD MSTORE PUSH1 0x4 DUP2 ADD SLOAD PUSH1 0x80 DUP6 ADD MSTORE PUSH1 0x5 DUP2 ADD SLOAD PUSH1 0xA0 DUP6 ADD MSTORE DUP3 PUSH1 0x6 DUP3 ADD SLOAD AND ISZERO ISZERO PUSH1 0xC0 DUP6 ADD MSTORE PUSH1 0x7 DUP2 ADD SLOAD PUSH1 0xE0 DUP6 ADD MSTORE PUSH1 0x8 DUP2 ADD SLOAD PUSH2 0x100 DUP6 ADD MSTORE PUSH1 0x9 DUP2 ADD SLOAD PUSH2 0x120 DUP6 ADD MSTORE PUSH1 0xA DUP2 ADD SLOAD PUSH2 0x140 DUP6 ADD MSTORE PUSH1 0xB DUP2 ADD SLOAD PUSH2 0x160 DUP6 ADD MSTORE PUSH1 0xC DUP2 ADD SLOAD PUSH2 0x180 DUP6 ADD MSTORE DUP3 PUSH1 0xD DUP3 ADD SLOAD AND ISZERO ISZERO PUSH2 0x1A0 DUP6 ADD MSTORE PUSH1 0xE DUP2 ADD SLOAD PUSH2 0x1C0 DUP6 ADD MSTORE PUSH1 0xF DUP2 ADD SLOAD PUSH2 0x1E0 DUP6 ADD MSTORE ADD SLOAD AND ISZERO ISZERO DUP3 DUP3 ADD MSTORE PUSH1 0x40 MLOAD SWAP3 DUP4 MSTORE PUSH1 0x20 DUP2 ADD MLOAD PUSH1 0x20 DUP5 ADD MSTORE PUSH1 0x40 DUP2 ADD MLOAD PUSH1 0x40 DUP5 ADD MSTORE PUSH1 0x60 DUP2 ADD MLOAD PUSH1 0x60 DUP5 ADD MSTORE PUSH1 0x80 DUP2 ADD MLOAD PUSH1 0x80 DUP5 ADD MSTORE PUSH1 0xA0 DUP2 ADD MLOAD PUSH1 0xA0 DUP5 ADD MSTORE PUSH1 0xC0 DUP2 ADD MLOAD ISZERO ISZERO PUSH1 0xC0 DUP5 ADD MSTORE PUSH1 0xE0 DUP2 ADD MLOAD PUSH1 0xE0 DUP5 ADD MSTORE PUSH2 0x100 DUP2 ADD MLOAD PUSH2 0x100 DUP5 ADD MSTORE PUSH2 0x120 DUP2 ADD MLOAD PUSH2 0x120 DUP5 ADD MSTORE PUSH2 0x140 DUP2 ADD MLOAD PUSH2 0x140 DUP5 ADD MSTORE PUSH2 0x160 DUP2 ADD MLOAD PUSH2 0x160 DUP5 ADD MSTORE PUSH2 0x180 DUP2 ADD MLOAD PUSH2 0x180 DUP5 ADD MSTORE PUSH2 0x1A0 DUP2 ADD MLOAD ISZERO ISZERO PUSH2 0x1A0 DUP5 ADD MSTORE PUSH2 0x1C0 DUP2 ADD MLOAD PUSH2 0x1C0 DUP5 ADD MSTORE PUSH2 0x1E0 DUP2 ADD MLOAD PUSH2 0x1E0 DUP5 ADD MSTORE ADD MLOAD ISZERO ISZERO PUSH2 0x200 DUP3 ADD MSTORE RETURN JUMPDEST POP CALLVALUE PUSH2 0x4CD JUMPI DUP1 PUSH1 0x3 NOT CALLDATASIZE ADD SLT PUSH2 0x4CD JUMPI PUSH2 0x31A0 PUSH2 0x532D JUMP JUMPDEST PUSH2 0x8EA PUSH2 0x506A JUMP JUMPDEST POP CALLVALUE PUSH2 0x4CD JUMPI PUSH1 0x20 CALLDATASIZE PUSH1 0x3 NOT ADD SLT PUSH2 0x4CD JUMPI PUSH1 0x40 SWAP1 PUSH1 0x4 CALLDATALOAD DUP2 MSTORE PUSH1 0x1F PUSH1 0x20 MSTORE KECCAK256 DUP1 SLOAD PUSH1 0x40 MLOAD SWAP2 PUSH2 0x31E6 DUP4 PUSH2 0x31DF DUP2 PUSH1 0x1 DUP6 ADD PUSH2 0x47A0 JUMP JUMPDEST SUB DUP5 PUSH2 0x4683 JUMP JUMPDEST PUSH1 0x2 DUP2 ADD SLOAD SWAP1 PUSH1 0xFF PUSH1 0x4 PUSH1 0x3 DUP4 ADD SLOAD SWAP3 ADD SLOAD AND SWAP1 PUSH2 0x3216 PUSH1 0x40 MLOAD SWAP6 DUP7 SWAP6 DUP7 MSTORE PUSH1 0xA0 PUSH1 0x20 DUP8 ADD MSTORE PUSH1 0xA0 DUP7 ADD SWAP1 PUSH2 0x485D JUMP JUMPDEST SWAP3 PUSH1 0x40 DUP6 ADD MSTORE PUSH1 0x60 DUP5 ADD MSTORE ISZERO ISZERO PUSH1 0x80 DUP4 ADD MSTORE SUB SWAP1 RETURN JUMPDEST POP CALLVALUE PUSH2 0x4CD JUMPI PUSH2 0x323B CALLDATASIZE PUSH2 0x451F JUMP JUMPDEST SWAP2 SWAP1 DUP2 MSTORE PUSH1 0xA PUSH1 0x20 MSTORE PUSH1 0x40 DUP2 KECCAK256 SWAP1 DUP2 SLOAD DUP4 LT ISZERO PUSH2 0x4CD JUMPI PUSH1 0x20 PUSH2 0x1DBA DUP5 DUP5 PUSH2 0x4535 JUMP JUMPDEST POP CALLVALUE PUSH2 0x4CD JUMPI PUSH1 0x40 CALLDATASIZE PUSH1 0x3 NOT ADD SLT PUSH2 0x4CD JUMPI PUSH2 0x3278 PUSH2 0x44F3 JUMP JUMPDEST PUSH1 0x24 CALLDATALOAD SWAP1 DUP2 ISZERO ISZERO SWAP1 DUP2 DUP4 SUB PUSH2 0x1C1D JUMPI PUSH32 0x7C6A5677E7A854A53D06C412E00EBE65535F5343566CA7939AC7C7F6B0B00C16 SWAP2 PUSH2 0x32F4 PUSH1 0x20 SWAP3 PUSH2 0x32B7 PUSH2 0x532D JUMP JUMPDEST PUSH1 0x1 PUSH1 0x1 PUSH1 0xA0 SHL SUB AND DUP1 DUP8 MSTORE PUSH1 0x1E DUP5 MSTORE PUSH1 0x40 DUP1 DUP9 KECCAK256 DUP1 SLOAD SWAP8 ISZERO ISZERO PUSH1 0xFF AND PUSH1 0xFF NOT SWAP9 DUP10 AND DUP2 OR SWAP1 SWAP2 SSTORE PUSH1 0x1A DUP7 MSTORE SWAP1 DUP9 KECCAK256 PUSH1 0x6 ADD DUP1 SLOAD SWAP1 SWAP8 AND OR SWAP1 SWAP6 SSTORE JUMP JUMPDEST PUSH1 0x40 MLOAD SWAP1 DUP2 MSTORE LOG2 DUP1 RETURN JUMPDEST POP CALLVALUE PUSH2 0x4CD JUMPI DUP1 PUSH1 0x3 NOT CALLDATASIZE ADD SLT PUSH2 0x4CD JUMPI PUSH1 0x2 SLOAD PUSH1 0x40 MLOAD PUSH1 0x1 PUSH1 0x1 PUSH1 0xA0 SHL SUB SWAP1 SWAP2 AND DUP2 MSTORE PUSH1 0x20 SWAP1 RETURN JUMPDEST POP CALLVALUE PUSH2 0x4CD JUMPI DUP1 PUSH1 0x3 NOT CALLDATASIZE ADD SLT PUSH2 0x4CD JUMPI PUSH2 0x3340 PUSH2 0x532D JUMP JUMPDEST PUSH2 0x8EA PUSH2 0x4D2F JUMP JUMPDEST POP CALLVALUE PUSH2 0x4CD JUMPI PUSH1 0x20 CALLDATASIZE PUSH1 0x3 NOT ADD SLT PUSH2 0x4CD JUMPI PUSH1 0x60 SWAP1 PUSH1 0x5 SLOAD SWAP1 PUSH1 0x4 CALLDATALOAD DUP2 MSTORE PUSH1 0x15 PUSH1 0x20 MSTORE PUSH1 0x40 DUP1 DUP3 KECCAK256 SLOAD SWAP2 PUSH1 0x14 PUSH1 0x20 MSTORE KECCAK256 SLOAD SWAP1 PUSH1 0x40 MLOAD SWAP3 DUP4 MSTORE PUSH1 0x20 DUP4 ADD MSTORE PUSH1 0x40 DUP3 ADD MSTORE RETURN JUMPDEST POP CALLVALUE PUSH2 0x4CD JUMPI DUP1 PUSH1 0x3 NOT CALLDATASIZE ADD SLT PUSH2 0x4CD JUMPI PUSH1 0x20 PUSH1 0x6 SLOAD PUSH1 0x40 MLOAD SWAP1 DUP2 MSTORE RETURN JUMPDEST POP CALLVALUE PUSH2 0x4CD JUMPI PUSH1 0x40 CALLDATASIZE PUSH1 0x3 NOT ADD SLT PUSH2 0x4CD JUMPI PUSH1 0x4 CALLDATALOAD PUSH1 0x1 PUSH1 0x1 PUSH1 0x40 SHL SUB DUP1 DUP3 GT PUSH2 0x2219 JUMPI CALLDATASIZE PUSH1 0x23 DUP4 ADD SLT ISZERO PUSH2 0x2219 JUMPI DUP2 PUSH1 0x4 ADD CALLDATALOAD PUSH2 0x33E7 DUP2 PUSH2 0x4766 JUMP JUMPDEST SWAP3 PUSH2 0x33F5 PUSH1 0x40 MLOAD SWAP5 DUP6 PUSH2 0x4683 JUMP JUMPDEST DUP2 DUP5 MSTORE PUSH1 0x24 PUSH1 0x20 DUP6 ADD SWAP3 PUSH1 0x5 SHL DUP3 ADD ADD SWAP1 CALLDATASIZE DUP3 GT PUSH2 0x3753 JUMPI PUSH1 0x24 ADD SWAP2 JUMPDEST DUP2 DUP4 LT PUSH2 0x3757 JUMPI POP POP POP PUSH1 0x24 CALLDATALOAD SWAP1 DUP2 GT PUSH2 0x2219 JUMPI CALLDATASIZE PUSH1 0x23 DUP3 ADD SLT ISZERO PUSH2 0x2219 JUMPI DUP1 PUSH1 0x4 ADD CALLDATALOAD SWAP1 PUSH2 0x3440 DUP3 PUSH2 0x4766 JUMP JUMPDEST SWAP2 PUSH2 0x344E PUSH1 0x40 MLOAD SWAP4 DUP5 PUSH2 0x4683 JUMP JUMPDEST DUP1 DUP4 MSTORE PUSH1 0x24 PUSH1 0x20 DUP5 ADD SWAP2 PUSH1 0x5 SHL DUP4 ADD ADD SWAP2 CALLDATASIZE DUP4 GT PUSH2 0x3753 JUMPI PUSH1 0x24 ADD SWAP1 JUMPDEST DUP3 DUP3 LT PUSH2 0x3743 JUMPI POP POP POP PUSH1 0x0 DUP1 MLOAD PUSH1 0x20 PUSH2 0x5DB0 DUP4 CODECOPY DUP2 MLOAD SWAP2 MSTORE DUP4 MSTORE PUSH1 0x18 PUSH1 0x20 MSTORE PUSH1 0x40 DUP4 KECCAK256 CALLER DUP5 MSTORE PUSH1 0x20 MSTORE PUSH1 0xFF PUSH1 0x40 DUP5 KECCAK256 SLOAD AND DUP1 ISZERO PUSH2 0x372F JUMPI JUMPDEST PUSH2 0x34AD SWAP1 PUSH2 0x4B7F JUMP JUMPDEST PUSH2 0x34B5 PUSH2 0x5359 JUMP JUMPDEST DUP2 MLOAD DUP2 MLOAD SUB PUSH2 0x36F2 JUMPI PUSH1 0xA DUP3 MLOAD GT PUSH2 0x36B6 JUMPI NUMBER DUP4 MSTORE PUSH1 0x24 PUSH1 0x20 MSTORE PUSH1 0xFF PUSH1 0x40 DUP5 KECCAK256 SLOAD AND PUSH2 0x3671 JUMPI NUMBER DUP4 MSTORE PUSH1 0x24 PUSH1 0x20 MSTORE PUSH1 0x40 DUP4 KECCAK256 PUSH1 0x1 PUSH1 0xFF NOT DUP3 SLOAD AND OR SWAP1 SSTORE PUSH1 0x23 PUSH1 0x20 MSTORE PUSH1 0x40 DUP4 KECCAK256 SLOAD PUSH1 0x1 DUP2 ADD DUP1 SWAP2 GT PUSH2 0xEC9 JUMPI NUMBER DUP5 MSTORE PUSH1 0x23 PUSH1 0x20 MSTORE PUSH1 0x40 DUP5 KECCAK256 SSTORE DUP3 SWAP1 DUP4 JUMPDEST DUP4 MLOAD DUP2 LT ISZERO PUSH2 0x3625 JUMPI PUSH1 0x1 PUSH1 0x1 PUSH1 0xA0 SHL SUB DUP1 PUSH2 0x3534 DUP4 DUP8 PUSH2 0x4C29 JUMP JUMPDEST MLOAD AND ISZERO ISZERO DUP1 PUSH2 0x3612 JUMPI JUMPDEST PUSH2 0x354C JUMPI JUMPDEST POP PUSH1 0x1 ADD PUSH2 0x3518 JUMP JUMPDEST PUSH2 0x3559 DUP3 DUP7 SWAP6 SWAP4 SWAP6 PUSH2 0x4C29 JUMP JUMPDEST MLOAD AND PUSH2 0x3565 DUP5 DUP5 PUSH2 0x4C29 JUMP JUMPDEST MLOAD SWAP1 DUP1 DUP8 MSTORE PUSH1 0x1A PUSH1 0x20 MSTORE PUSH1 0x1 PUSH1 0x40 DUP9 KECCAK256 PUSH2 0x3580 DUP5 DUP3 SLOAD PUSH2 0x49FC JUMP JUMPDEST DUP2 SSTORE TIMESTAMP PUSH1 0x3 DUP3 ADD SSTORE ADD DUP1 SLOAD SWAP1 PUSH1 0x1 DUP3 ADD DUP1 SWAP3 GT PUSH2 0x35FE JUMPI SSTORE PUSH1 0x4 SLOAD DUP8 MSTORE PUSH1 0xA PUSH1 0x20 MSTORE PUSH1 0x40 DUP8 KECCAK256 PUSH2 0x35B0 SWAP2 SWAP1 PUSH2 0x49C1 JUMP JUMPDEST PUSH1 0x4 SLOAD DUP1 DUP8 MSTORE PUSH1 0xB PUSH1 0x20 MSTORE PUSH1 0x40 DUP8 KECCAK256 SLOAD SWAP1 PUSH1 0x1 DUP3 ADD DUP3 GT PUSH2 0x29B4 JUMPI PUSH2 0x35E8 SWAP3 SWAP2 PUSH1 0x1 SWAP2 DUP10 MSTORE PUSH1 0xB PUSH1 0x20 MSTORE ADD PUSH1 0x40 DUP9 KECCAK256 SSTORE PUSH1 0x5 SLOAD PUSH2 0x49FC JUMP JUMPDEST PUSH1 0x5 SSTORE PUSH1 0x1 DUP2 ADD DUP1 SWAP2 GT PUSH2 0x133D JUMPI SWAP2 PUSH1 0x1 PUSH2 0x3543 JUMP JUMPDEST PUSH4 0x4E487B71 PUSH1 0xE0 SHL DUP10 MSTORE PUSH1 0x11 PUSH1 0x4 MSTORE PUSH1 0x24 DUP10 REVERT JUMPDEST POP PUSH2 0x361D DUP3 DUP5 PUSH2 0x4C29 JUMP JUMPDEST MLOAD ISZERO ISZERO PUSH2 0x353E JUMP JUMPDEST POP POP SWAP1 NUMBER DUP4 MSTORE PUSH1 0x24 PUSH1 0x20 MSTORE PUSH1 0x40 DUP4 KECCAK256 PUSH1 0xFF NOT DUP2 SLOAD AND SWAP1 SSTORE MLOAD PUSH1 0x40 MLOAD SWAP2 DUP3 MSTORE PUSH1 0x20 DUP3 ADD MSTORE PUSH32 0xC8A16388AF0851BDC51694269F90C12AF519CFBD71E7AB51D304B3BE25D11184 PUSH1 0x40 NUMBER SWAP3 LOG2 DUP1 RETURN JUMPDEST PUSH1 0x40 MLOAD PUSH3 0x461BCD PUSH1 0xE5 SHL DUP2 MSTORE PUSH1 0x20 PUSH1 0x4 DUP3 ADD MSTORE PUSH1 0x1F PUSH1 0x24 DUP3 ADD MSTORE PUSH32 0x42617463682070726F63657373696E6720616C72656164792061637469766500 PUSH1 0x44 DUP3 ADD MSTORE PUSH1 0x64 SWAP1 REVERT JUMPDEST PUSH1 0x40 MLOAD PUSH3 0x461BCD PUSH1 0xE5 SHL DUP2 MSTORE PUSH1 0x20 PUSH1 0x4 DUP3 ADD MSTORE PUSH1 0x14 PUSH1 0x24 DUP3 ADD MSTORE PUSH20 0x42617463682073697A6520746F6F206C61726765 PUSH1 0x60 SHL PUSH1 0x44 DUP3 ADD MSTORE PUSH1 0x64 SWAP1 REVERT JUMPDEST PUSH1 0x40 MLOAD PUSH3 0x461BCD PUSH1 0xE5 SHL DUP2 MSTORE PUSH1 0x20 PUSH1 0x4 DUP3 ADD MSTORE PUSH1 0x15 PUSH1 0x24 DUP3 ADD MSTORE PUSH21 0x82E4E4C2F240D8CADCCEE8D040DAD2E6DAC2E8C6D PUSH1 0x5B SHL PUSH1 0x44 DUP3 ADD MSTORE PUSH1 0x64 SWAP1 REVERT JUMPDEST POP PUSH1 0x1 SLOAD PUSH1 0x1 PUSH1 0x1 PUSH1 0xA0 SHL SUB AND CALLER EQ PUSH2 0x34A4 JUMP JUMPDEST DUP2 CALLDATALOAD DUP2 MSTORE PUSH1 0x20 SWAP2 DUP3 ADD SWAP2 ADD PUSH2 0x346B JUMP JUMPDEST DUP6 DUP1 REVERT JUMPDEST DUP3 CALLDATALOAD PUSH1 0x1 PUSH1 0x1 PUSH1 0xA0 SHL SUB DUP2 AND DUP2 SUB PUSH2 0x3777 JUMPI DUP2 MSTORE PUSH1 0x20 SWAP3 DUP4 ADD SWAP3 ADD PUSH2 0x3412 JUMP JUMPDEST DUP7 DUP1 REVERT JUMPDEST POP CALLVALUE PUSH2 0x4CD JUMPI PUSH1 0x20 CALLDATASIZE PUSH1 0x3 NOT ADD SLT PUSH2 0x4CD JUMPI PUSH1 0x20 SWAP1 PUSH1 0x40 SWAP1 PUSH1 0x1 PUSH1 0x1 PUSH1 0xA0 SHL SUB PUSH2 0x37A3 PUSH2 0x44F3 JUMP JUMPDEST AND DUP2 MSTORE DUP3 DUP1 MSTORE KECCAK256 SLOAD PUSH1 0x40 MLOAD SWAP1 DUP2 MSTORE RETURN JUMPDEST POP CALLVALUE PUSH2 0x4CD JUMPI PUSH1 0x40 CALLDATASIZE PUSH1 0x3 NOT ADD SLT PUSH2 0x4CD JUMPI PUSH1 0x4 CALLDATALOAD PUSH2 0x37D0 PUSH2 0x4509 JUMP JUMPDEST DUP2 DUP4 MSTORE PUSH1 0x19 PUSH1 0x20 MSTORE PUSH1 0x40 DUP4 KECCAK256 SLOAD PUSH1 0x1 PUSH1 0x1 PUSH1 0xA0 SHL SUB SWAP2 SWAP1 DUP3 AND CALLER EQ DUP1 ISZERO PUSH2 0x3851 JUMPI JUMPDEST PUSH2 0x37FB SWAP1 PUSH2 0x4AE5 JUMP JUMPDEST AND PUSH2 0x3807 DUP2 ISZERO ISZERO PUSH2 0x4B41 JUMP JUMPDEST DUP2 DUP4 MSTORE PUSH1 0x18 PUSH1 0x20 MSTORE PUSH1 0x40 DUP4 KECCAK256 DUP2 DUP5 MSTORE PUSH1 0x20 MSTORE PUSH1 0x40 DUP4 KECCAK256 PUSH1 0x1 PUSH1 0xFF NOT DUP3 SLOAD AND OR SWAP1 SSTORE CALLER SWAP2 PUSH32 0x2F8788117E7EFF1D82E926EC794901D17C78024A50270940304540A733656F0D DUP5 DUP1 LOG4 DUP1 RETURN JUMPDEST POP PUSH1 0x1 SLOAD DUP3 AND CALLER EQ PUSH2 0x37F2 JUMP JUMPDEST POP CALLVALUE PUSH2 0x4CD JUMPI DUP1 PUSH1 0x3 NOT CALLDATASIZE ADD SLT PUSH2 0x4CD JUMPI PUSH1 0x20 PUSH1 0x11 SLOAD PUSH1 0x40 MLOAD SWAP1 DUP2 MSTORE RETURN JUMPDEST POP CALLVALUE PUSH2 0x4CD JUMPI DUP1 PUSH1 0x3 NOT CALLDATASIZE ADD SLT PUSH2 0x4CD JUMPI PUSH2 0x3895 PUSH2 0x53D7 JUMP JUMPDEST PUSH2 0x389D PUSH2 0x5359 JUMP JUMPDEST CALLER DUP2 MSTORE PUSH1 0x20 PUSH1 0x1E DUP2 MSTORE PUSH1 0xFF PUSH2 0x38B9 PUSH1 0xFF PUSH1 0x40 DUP6 KECCAK256 SLOAD AND ISZERO PUSH2 0x4A09 JUMP JUMPDEST CALLER DUP4 MSTORE PUSH1 0x1A DUP3 MSTORE PUSH2 0x38D4 PUSH1 0xFF PUSH1 0x6 PUSH1 0x40 DUP7 KECCAK256 ADD SLOAD AND ISZERO PUSH2 0x4A09 JUMP JUMPDEST CALLER DUP4 MSTORE PUSH1 0x1C DUP3 MSTORE PUSH1 0x40 DUP4 KECCAK256 SLOAD PUSH1 0x1 PUSH1 0x1 PUSH1 0xA0 SHL SUB SWAP1 DUP2 AND PUSH2 0x3AA4 JUMPI DUP3 PUSH1 0x40 MLOAD PUSH2 0x38FC DUP2 PUSH2 0x45FB JUMP JUMPDEST PUSH1 0x14 DUP1 DUP3 MSTORE DUP3 DUP3 ADD SWAP5 DUP4 CALLDATASIZE DUP8 CALLDATACOPY DUP8 JUMPDEST DUP3 DUP2 LT PUSH2 0x3A46 JUMPI POP POP POP PUSH2 0x3A3C SWAP3 PUSH1 0x3 PUSH2 0x39AC PUSH32 0x9ABA81A9970F49ADFCB9191B4663D4A18A3A6236FBBEF5E36C5478A55FD4A03A SWAP7 SWAP5 PUSH2 0x3A29 SWAP5 PUSH2 0x399B PUSH1 0x25 PUSH2 0x3953 TIMESTAMP PUSH2 0x5B2E JUMP JUMPDEST SWAP9 PUSH1 0x40 MLOAD SWAP10 DUP11 SWAP2 PUSH2 0x3978 DUP8 DUP5 ADD SWAP7 PUSH5 0x50495A5A41 PUSH1 0xD8 SHL DUP9 MSTORE MLOAD DUP1 SWAP3 DUP7 DUP7 ADD SWAP1 PUSH2 0x4727 JUMP JUMPDEST DUP3 ADD PUSH2 0x398C DUP3 MLOAD DUP1 SWAP4 DUP10 DUP8 DUP6 ADD SWAP2 ADD PUSH2 0x4727 JUMP JUMPDEST ADD SUB PUSH1 0x5 DUP2 ADD DUP11 MSTORE ADD DUP9 PUSH2 0x4683 JUMP JUMPDEST PUSH1 0x40 MLOAD DUP1 SWAP4 DUP2 SWAP3 DUP10 MLOAD SWAP3 DUP4 SWAP2 PUSH2 0x4727 JUMP JUMPDEST DUP2 ADD PUSH1 0x1B DUP2 MSTORE SUB ADD SWAP1 KECCAK256 SWAP2 PUSH1 0x1 PUSH1 0x1 PUSH1 0x60 SHL SUB PUSH1 0xA0 SHL SWAP3 CALLER DUP5 DUP3 SLOAD AND OR SWAP1 SSTORE PUSH1 0x40 MLOAD SWAP3 PUSH2 0x39D8 DUP5 PUSH2 0x457F JUMP JUMPDEST CALLER DUP5 MSTORE DUP9 DUP5 ADD DUP11 DUP2 MSTORE PUSH1 0x40 DUP6 ADD SWAP2 DUP12 DUP4 MSTORE PUSH1 0x60 DUP7 ADD SWAP4 PUSH1 0x1 DUP6 MSTORE CALLER DUP14 MSTORE PUSH1 0x1C DUP13 MSTORE PUSH1 0x40 DUP14 KECCAK256 SWAP7 MLOAD AND SWAP1 DUP7 SLOAD AND OR DUP6 SSTORE MLOAD PUSH1 0x1 DUP6 ADD SSTORE MLOAD PUSH1 0x2 DUP5 ADD SSTORE MLOAD ISZERO ISZERO SWAP2 ADD SWAP1 PUSH1 0xFF DUP1 NOT DUP4 SLOAD AND SWAP2 ISZERO ISZERO AND OR SWAP1 SSTORE JUMP JUMPDEST PUSH1 0x40 MLOAD SWAP2 DUP3 SWAP2 DUP6 DUP4 MSTORE CALLER SWAP6 DUP4 ADD SWAP1 PUSH2 0x485D JUMP JUMPDEST SUB SWAP1 LOG2 PUSH1 0x1 DUP2 SSTORE DUP1 RETURN JUMPDEST SWAP1 SWAP2 SWAP3 SWAP4 POP PUSH1 0x13 DUP2 DUP2 SUB SWAP1 DUP2 GT PUSH2 0x35FE JUMPI PUSH1 0x3 DUP2 SWAP1 SHL SWAP1 PUSH1 0x1 PUSH1 0x1 PUSH1 0xFD SHL SUB DUP2 AND SUB PUSH2 0x35FE JUMPI DUP3 DUP2 GT PUSH2 0x35FE JUMPI SWAP1 PUSH1 0x1 SWAP2 PUSH2 0x3A88 DUP4 PUSH1 0xFF PUSH1 0xF8 SHL SWAP3 SHL CALLER PUSH2 0x4CAB JUMP JUMPDEST PUSH1 0xF8 SHL AND DUP10 BYTE PUSH2 0x3A98 DUP3 DUP8 PUSH2 0x584B JUMP JUMPDEST MSTORE8 ADD SWAP1 DUP7 SWAP4 SWAP3 SWAP2 PUSH2 0x390B JUMP JUMPDEST PUSH1 0x40 MLOAD PUSH3 0x461BCD PUSH1 0xE5 SHL DUP2 MSTORE PUSH1 0x4 DUP2 ADD DUP5 SWAP1 MSTORE PUSH1 0x1C PUSH1 0x24 DUP3 ADD MSTORE PUSH32 0x526566657272616C20636F646520616C72656164792065786973747300000000 PUSH1 0x44 DUP3 ADD MSTORE PUSH1 0x64 SWAP1 REVERT JUMPDEST POP CALLVALUE PUSH2 0x4CD JUMPI PUSH1 0x20 CALLDATASIZE PUSH1 0x3 NOT ADD SLT PUSH2 0x4CD JUMPI PUSH1 0xFF PUSH1 0x40 PUSH1 0x20 SWAP3 PUSH1 0x4 CALLDATALOAD DUP2 MSTORE PUSH1 0x13 DUP5 MSTORE KECCAK256 SLOAD AND PUSH1 0x40 MLOAD SWAP1 ISZERO ISZERO DUP2 MSTORE RETURN JUMPDEST POP CALLVALUE PUSH2 0x4CD JUMPI DUP1 PUSH1 0x3 NOT CALLDATASIZE ADD SLT PUSH2 0x4CD JUMPI PUSH1 0x20 PUSH1 0x26 SLOAD PUSH1 0x40 MLOAD SWAP1 DUP2 MSTORE RETURN JUMPDEST POP CALLVALUE PUSH2 0x4CD JUMPI PUSH1 0x20 PUSH2 0x3B47 CALLDATASIZE PUSH2 0x46BF JUMP JUMPDEST DUP2 PUSH2 0x3B5B PUSH1 0x40 MLOAD SWAP3 DUP4 DUP2 MLOAD SWAP4 DUP5 SWAP3 ADD PUSH2 0x4727 JUMP JUMPDEST PUSH1 0x1B SWAP1 DUP3 ADD SWAP1 DUP2 MSTORE DUP2 SWAP1 SUB DUP3 ADD SWAP1 KECCAK256 SLOAD PUSH1 0x40 MLOAD PUSH1 0x1 PUSH1 0x1 PUSH1 0xA0 SHL SUB SWAP1 SWAP2 AND DUP2 MSTORE RETURN JUMPDEST POP CALLVALUE PUSH2 0x4CD JUMPI DUP1 PUSH1 0x3 NOT CALLDATASIZE ADD SLT PUSH2 0x4CD JUMPI PUSH1 0x3 SLOAD PUSH1 0x40 MLOAD PUSH1 0x1 PUSH1 0x1 PUSH1 0xA0 SHL SUB SWAP1 SWAP2 AND DUP2 MSTORE PUSH1 0x20 SWAP1 RETURN JUMPDEST POP CALLVALUE PUSH2 0x4CD JUMPI PUSH1 0x20 DUP1 PUSH1 0x3 NOT CALLDATASIZE ADD SLT PUSH2 0x1F41 JUMPI PUSH1 0x4 CALLDATALOAD PUSH2 0x3BC4 PUSH2 0x53D7 JUMP JUMPDEST PUSH2 0x3BCC PUSH2 0x5359 JUMP JUMPDEST CALLER DUP4 MSTORE PUSH1 0x1E DUP3 MSTORE PUSH2 0x3BE4 PUSH1 0xFF PUSH1 0x40 DUP6 KECCAK256 SLOAD AND ISZERO PUSH2 0x4A09 JUMP JUMPDEST CALLER DUP4 MSTORE PUSH1 0x1A SWAP2 DUP3 DUP2 MSTORE PUSH2 0x3C01 PUSH1 0xFF PUSH1 0x6 PUSH1 0x40 DUP8 KECCAK256 ADD SLOAD AND ISZERO PUSH2 0x4A09 JUMP JUMPDEST CALLER DUP5 MSTORE DUP3 DUP2 MSTORE PUSH1 0xC PUSH1 0x40 DUP6 KECCAK256 ADD SLOAD PUSH3 0x15180 DUP2 ADD DUP1 SWAP2 GT PUSH2 0x133D JUMPI PUSH2 0x3C28 SWAP1 TIMESTAMP LT ISZERO PUSH2 0x4A4D JUMP JUMPDEST CALLER DUP5 MSTORE DUP3 DUP2 MSTORE PUSH2 0x3C41 PUSH1 0x64 PUSH1 0xE PUSH1 0x40 DUP8 KECCAK256 ADD SLOAD LT PUSH2 0x4A99 JUMP JUMPDEST DUP2 DUP5 MSTORE PUSH1 0x1F DUP2 MSTORE PUSH1 0x40 DUP5 KECCAK256 SWAP3 PUSH1 0xFF PUSH1 0x4 DUP6 ADD SLOAD AND ISZERO PUSH2 0x3E19 JUMPI PUSH1 0x5 DUP5 ADD SWAP1 CALLER DUP7 MSTORE DUP2 DUP4 MSTORE PUSH1 0xFF PUSH1 0x40 DUP8 KECCAK256 SLOAD AND PUSH2 0x3DD4 JUMPI PUSH1 0x2 DUP6 ADD SWAP2 DUP3 SLOAD DUP1 ISZERO PUSH2 0x3D8F JUMPI PUSH2 0x3E8 DUP2 GT PUSH2 0x3D4A JUMPI PUSH2 0x3C91 SWAP1 CALLER PUSH2 0x53FA JUMP JUMPDEST CALLER DUP8 MSTORE DUP4 MSTORE PUSH1 0x40 DUP7 KECCAK256 PUSH1 0x1 PUSH1 0xFF NOT DUP3 SLOAD AND OR SWAP1 SSTORE DUP1 DUP4 MSTORE PUSH1 0xA PUSH1 0x40 DUP8 KECCAK256 ADD SLOAD PUSH1 0x1 DUP2 ADD DUP1 SWAP2 GT PUSH2 0x2385 JUMPI SWAP2 PUSH1 0x0 DUP1 MLOAD PUSH1 0x20 PUSH2 0x5DD0 DUP4 CODECOPY DUP2 MLOAD SWAP2 MSTORE SWAP5 SWAP4 SWAP2 PUSH2 0x3CEC PUSH1 0x40 SWAP5 CALLER DUP11 MSTORE DUP3 DUP6 MSTORE DUP6 DUP11 KECCAK256 SWAP1 PUSH1 0xA DUP3 ADD SSTORE SLOAD DUP4 SLOAD SWAP1 PUSH2 0x49FC JUMP JUMPDEST SWAP1 CALLER DUP10 MSTORE DUP4 MSTORE DUP4 DUP9 KECCAK256 SWAP1 DUP2 SSTORE PUSH1 0xC TIMESTAMP SWAP2 ADD SSTORE SLOAD SWAP3 DUP3 MLOAD SWAP1 DUP2 MSTORE DUP4 DUP3 DUP3 ADD MSTORE PUSH32 0x20861823FA14B60D3F02CC6E48B647AC592DD27E39A78F278DF5C918DABB8B2C DUP4 CALLER SWAP3 LOG2 DUP2 MLOAD SWAP3 DUP4 MSTORE DUP3 ADD MSTORE DUP1 PUSH2 0x3A3C CALLER SWAP5 PUSH1 0x1 PUSH1 0x40 DUP5 ADD SWAP2 ADD PUSH2 0x47A0 JUMP JUMPDEST PUSH1 0x40 MLOAD PUSH3 0x461BCD PUSH1 0xE5 SHL DUP2 MSTORE PUSH1 0x4 DUP2 ADD DUP7 SWAP1 MSTORE PUSH1 0x19 PUSH1 0x24 DUP3 ADD MSTORE PUSH32 0x4368616C6C656E67652072657761726420746F6F206869676800000000000000 PUSH1 0x44 DUP3 ADD MSTORE PUSH1 0x64 SWAP1 REVERT JUMPDEST PUSH1 0x40 MLOAD PUSH3 0x461BCD PUSH1 0xE5 SHL DUP2 MSTORE PUSH1 0x4 DUP2 ADD DUP7 SWAP1 MSTORE PUSH1 0x18 PUSH1 0x24 DUP3 ADD MSTORE PUSH32 0x496E76616C6964206368616C6C656E6765207265776172640000000000000000 PUSH1 0x44 DUP3 ADD MSTORE PUSH1 0x64 SWAP1 REVERT JUMPDEST PUSH1 0x40 MLOAD PUSH3 0x461BCD PUSH1 0xE5 SHL DUP2 MSTORE PUSH1 0x4 DUP2 ADD DUP5 SWAP1 MSTORE PUSH1 0x1B PUSH1 0x24 DUP3 ADD MSTORE PUSH32 0x4368616C6C656E676520616C726561647920636F6D706C657465640000000000 PUSH1 0x44 DUP3 ADD MSTORE PUSH1 0x64 SWAP1 REVERT JUMPDEST PUSH1 0x40 MLOAD PUSH3 0x461BCD PUSH1 0xE5 SHL DUP2 MSTORE PUSH1 0x4 DUP2 ADD DUP4 SWAP1 MSTORE PUSH1 0x14 PUSH1 0x24 DUP3 ADD MSTORE PUSH20 0x4368616C6C656E6765206E6F7420616374697665 PUSH1 0x60 SHL PUSH1 0x44 DUP3 ADD MSTORE PUSH1 0x64 SWAP1 REVERT JUMPDEST POP CALLVALUE PUSH2 0x4CD JUMPI DUP1 PUSH1 0x3 NOT CALLDATASIZE ADD SLT PUSH2 0x4CD JUMPI PUSH2 0x3E6E PUSH2 0x53D7 JUMP JUMPDEST PUSH2 0x3E76 PUSH2 0x5359 JUMP JUMPDEST CALLER DUP2 MSTORE PUSH1 0x20 PUSH1 0x1E DUP2 MSTORE PUSH2 0x3E90 PUSH1 0xFF PUSH1 0x40 DUP5 KECCAK256 SLOAD AND ISZERO PUSH2 0x4A09 JUMP JUMPDEST CALLER DUP3 MSTORE PUSH1 0x1A DUP1 DUP3 MSTORE PUSH2 0x3EAC PUSH1 0xFF PUSH1 0x6 PUSH1 0x40 DUP7 KECCAK256 ADD SLOAD AND ISZERO PUSH2 0x4A09 JUMP JUMPDEST CALLER DUP4 MSTORE DUP1 DUP3 MSTORE PUSH1 0xC PUSH1 0x40 DUP5 KECCAK256 ADD SLOAD PUSH3 0x15180 SWAP1 DUP2 DUP2 ADD DUP1 SWAP2 GT PUSH2 0x133D JUMPI PUSH2 0x3ED5 SWAP1 TIMESTAMP LT ISZERO PUSH2 0x4A4D JUMP JUMPDEST CALLER DUP5 MSTORE DUP2 DUP4 MSTORE PUSH2 0x3EEE PUSH1 0x64 PUSH1 0xE PUSH1 0x40 DUP8 KECCAK256 ADD SLOAD LT PUSH2 0x4A99 JUMP JUMPDEST CALLER DUP5 MSTORE DUP2 DUP4 MSTORE PUSH1 0x7 PUSH1 0x4 PUSH1 0x40 DUP7 KECCAK256 ADD SLOAD LT PUSH2 0x402E JUMPI CALLER DUP5 MSTORE DUP2 DUP4 MSTORE PUSH1 0x5 PUSH1 0x40 DUP6 KECCAK256 ADD SLOAD SWAP1 DUP2 ADD DUP1 SWAP2 GT PUSH2 0xEC9 JUMPI TIMESTAMP LT PUSH2 0x3FDE JUMPI CALLER DUP4 MSTORE DUP2 DUP1 MSTORE PUSH1 0x40 DUP4 KECCAK256 SLOAD PUSH1 0x3 DUP2 ADD DUP1 SWAP2 GT PUSH2 0xEC9 JUMPI PUSH1 0x64 DUP2 GT PUSH2 0xEF3 JUMPI CALLER DUP5 MSTORE DUP3 DUP1 MSTORE PUSH1 0x40 DUP5 KECCAK256 SSTORE DUP1 DUP3 MSTORE PUSH1 0xE PUSH1 0x40 DUP5 KECCAK256 ADD SLOAD PUSH1 0x3 DUP2 ADD DUP1 SWAP2 GT PUSH2 0xEC9 JUMPI CALLER DUP5 MSTORE DUP2 DUP4 MSTORE PUSH1 0x40 DUP5 KECCAK256 SWAP1 PUSH1 0xE DUP3 ADD SSTORE SLOAD SWAP1 PUSH1 0x3 DUP3 ADD DUP1 SWAP3 GT PUSH2 0xEC9 JUMPI CALLER DUP5 MSTORE DUP3 MSTORE PUSH1 0x40 DUP4 KECCAK256 SWAP1 DUP2 SSTORE TIMESTAMP PUSH1 0x5 DUP3 ADD SSTORE PUSH1 0xC TIMESTAMP SWAP2 ADD SSTORE PUSH1 0x40 DUP1 MLOAD SWAP2 PUSH1 0x3 DUP4 MSTORE DUP3 ADD MSTORE PUSH1 0x12 PUSH1 0x40 DUP3 ADD MSTORE PUSH18 0x372D6461792073747265616B20626F6E7573 PUSH1 0x70 SHL PUSH1 0x60 DUP3 ADD MSTORE PUSH1 0x0 DUP1 MLOAD PUSH1 0x20 PUSH2 0x5DD0 DUP4 CODECOPY DUP2 MLOAD SWAP2 MSTORE PUSH1 0x80 CALLER SWAP3 LOG2 PUSH1 0x1 DUP2 SSTORE DUP1 RETURN JUMPDEST PUSH1 0x40 MLOAD PUSH3 0x461BCD PUSH1 0xE5 SHL DUP2 MSTORE PUSH1 0x4 DUP2 ADD DUP4 SWAP1 MSTORE PUSH1 0x22 PUSH1 0x24 DUP3 ADD MSTORE PUSH32 0x53747265616B20626F6E757320616C726561647920636C61696D656420746F64 PUSH1 0x44 DUP3 ADD MSTORE PUSH2 0x6179 PUSH1 0xF0 SHL PUSH1 0x64 DUP3 ADD MSTORE PUSH1 0x84 SWAP1 REVERT JUMPDEST PUSH1 0x40 MLOAD PUSH3 0x461BCD PUSH1 0xE5 SHL DUP2 MSTORE PUSH1 0x4 DUP2 ADD DUP5 SWAP1 MSTORE PUSH1 0x18 PUSH1 0x24 DUP3 ADD MSTORE PUSH32 0x372D6461792073747265616B206E6F7420726561636865640000000000000000 PUSH1 0x44 DUP3 ADD MSTORE PUSH1 0x64 SWAP1 REVERT JUMPDEST POP CALLVALUE PUSH2 0x4CD JUMPI PUSH1 0x20 CALLDATASIZE PUSH1 0x3 NOT ADD SLT PUSH2 0x4CD JUMPI PUSH1 0x80 SWAP1 PUSH1 0x40 PUSH2 0x4092 PUSH2 0x44F3 JUMP JUMPDEST SWAP2 DUP1 PUSH1 0x60 DUP4 MLOAD PUSH2 0x40A1 DUP2 PUSH2 0x457F JUMP JUMPDEST DUP3 DUP2 MSTORE DUP3 PUSH1 0x20 DUP3 ADD MSTORE DUP3 DUP6 DUP3 ADD MSTORE ADD MSTORE PUSH1 0x1 DUP1 PUSH1 0xA0 SHL SUB DUP1 SWAP4 AND DUP2 MSTORE PUSH1 0x1C PUSH1 0x20 MSTORE KECCAK256 SWAP1 PUSH1 0x40 MLOAD SWAP1 PUSH2 0x40D1 DUP3 PUSH2 0x457F JUMP JUMPDEST DUP3 SLOAD AND SWAP2 DUP3 DUP3 MSTORE PUSH1 0x1 DUP2 ADD SLOAD PUSH1 0x20 DUP4 ADD SWAP1 DUP2 MSTORE PUSH1 0x60 PUSH1 0xFF PUSH1 0x3 PUSH1 0x2 DUP6 ADD SLOAD SWAP5 PUSH1 0x40 DUP8 ADD SWAP6 DUP7 MSTORE ADD SLOAD AND SWAP4 ADD SWAP3 ISZERO ISZERO DUP4 MSTORE PUSH1 0x40 MLOAD SWAP4 DUP5 MSTORE MLOAD PUSH1 0x20 DUP5 ADD MSTORE MLOAD PUSH1 0x40 DUP4 ADD MSTORE MLOAD ISZERO ISZERO PUSH1 0x60 DUP3 ADD MSTORE RETURN JUMPDEST POP CALLVALUE PUSH2 0x4CD JUMPI DUP1 PUSH1 0x3 NOT CALLDATASIZE ADD SLT PUSH2 0x4CD JUMPI PUSH1 0x20 PUSH1 0x40 MLOAD PUSH32 0xBF233DD2AAFEB4D50879C4AA5C81E96D92F6E6945C906A58F9F2D1C1631B4B26 DUP2 MSTORE RETURN JUMPDEST POP CALLVALUE PUSH2 0x4CD JUMPI DUP1 PUSH1 0x3 NOT CALLDATASIZE ADD SLT PUSH2 0x4CD JUMPI PUSH1 0x40 MLOAD PUSH32 0x0 PUSH1 0x1 PUSH1 0x1 PUSH1 0xA0 SHL SUB AND DUP2 MSTORE PUSH1 0x20 SWAP1 RETURN JUMPDEST POP CALLVALUE PUSH2 0x4CD JUMPI DUP1 PUSH1 0x3 NOT CALLDATASIZE ADD SLT PUSH2 0x4CD JUMPI PUSH1 0x20 PUSH1 0x16 SLOAD PUSH1 0x40 MLOAD SWAP1 DUP2 MSTORE RETURN JUMPDEST POP CALLVALUE PUSH2 0x4CD JUMPI DUP1 PUSH1 0x3 NOT CALLDATASIZE ADD SLT PUSH2 0x4CD JUMPI PUSH1 0x20 PUSH1 0x40 MLOAD PUSH1 0x8 DUP2 MSTORE RETURN JUMPDEST POP CALLVALUE PUSH2 0x4CD JUMPI PUSH1 0x20 DUP1 PUSH1 0x3 NOT CALLDATASIZE ADD SLT PUSH2 0x1F41 JUMPI PUSH1 0x4 CALLDATALOAD SWAP1 PUSH2 0x41F6 PUSH2 0x5359 JUMP JUMPDEST DUP2 ISZERO PUSH2 0x42B3 JUMPI PUSH2 0x4205 CALLER PUSH2 0x537A JUMP JUMPDEST PUSH2 0x4279 JUMPI PUSH1 0x12 SLOAD DUP4 MSTORE PUSH1 0x10 DUP2 MSTORE PUSH2 0x421F CALLER PUSH1 0x40 DUP6 KECCAK256 PUSH2 0x49C1 JUMP JUMPDEST PUSH1 0x12 SLOAD DUP1 DUP5 MSTORE PUSH1 0xF DUP3 MSTORE PUSH2 0x4237 DUP4 PUSH1 0x40 DUP7 KECCAK256 SLOAD PUSH2 0x49FC JUMP JUMPDEST SWAP1 DUP5 MSTORE PUSH1 0xF DUP3 MSTORE PUSH1 0x40 DUP5 KECCAK256 SSTORE PUSH1 0x12 SLOAD SWAP1 PUSH1 0x40 MLOAD SWAP3 DUP4 MSTORE DUP3 ADD MSTORE PUSH32 0xEFE539503E4A6BC6D750ABE6F7471EA59543AD95E1757FCD02ECB9A6C212E920 PUSH1 0x40 CALLER SWAP3 LOG2 DUP1 RETURN JUMPDEST PUSH1 0x64 SWAP1 PUSH1 0x40 MLOAD SWAP1 PUSH3 0x461BCD PUSH1 0xE5 SHL DUP3 MSTORE PUSH1 0x4 DUP3 ADD MSTORE PUSH1 0x13 PUSH1 0x24 DUP3 ADD MSTORE PUSH19 0x105B1C9958591E4818DBDB9D1C9A589D5D1959 PUSH1 0x6A SHL PUSH1 0x44 DUP3 ADD MSTORE REVERT JUMPDEST PUSH1 0x64 SWAP1 PUSH1 0x40 MLOAD SWAP1 PUSH3 0x461BCD PUSH1 0xE5 SHL DUP3 MSTORE PUSH1 0x4 DUP3 ADD MSTORE PUSH1 0xF PUSH1 0x24 DUP3 ADD MSTORE PUSH15 0x496E76616C696420656E74726F7079 PUSH1 0x88 SHL PUSH1 0x44 DUP3 ADD MSTORE REVERT JUMPDEST POP CALLVALUE PUSH2 0x4CD JUMPI PUSH1 0x20 CALLDATASIZE PUSH1 0x3 NOT ADD SLT PUSH2 0x4CD JUMPI PUSH1 0x40 PUSH1 0xE0 SWAP2 PUSH1 0x4 CALLDATALOAD DUP2 MSTORE PUSH1 0x1D PUSH1 0x20 MSTORE KECCAK256 DUP1 SLOAD SWAP1 PUSH1 0x1 DUP2 ADD SLOAD SWAP1 PUSH1 0x2 DUP2 ADD SLOAD PUSH1 0x3 DUP3 ADD SLOAD PUSH1 0x4 DUP4 ADD SLOAD SWAP2 PUSH1 0x7 PUSH1 0xFF PUSH1 0x6 DUP7 ADD SLOAD AND SWAP5 ADD SLOAD SWAP5 PUSH1 0x40 MLOAD SWAP7 DUP8 MSTORE PUSH1 0x20 DUP8 ADD MSTORE PUSH1 0x40 DUP7 ADD MSTORE PUSH1 0x60 DUP6 ADD MSTORE PUSH1 0x80 DUP5 ADD MSTORE ISZERO ISZERO PUSH1 0xA0 DUP4 ADD MSTORE PUSH1 0xC0 DUP3 ADD MSTORE RETURN JUMPDEST POP CALLVALUE PUSH2 0x4CD JUMPI PUSH2 0x4369 CALLDATASIZE PUSH2 0x451F JUMP JUMPDEST SWAP2 SWAP1 DUP2 MSTORE PUSH1 0x10 PUSH1 0x20 MSTORE PUSH1 0x40 DUP2 KECCAK256 SWAP1 DUP2 SLOAD DUP4 LT ISZERO PUSH2 0x4CD JUMPI PUSH1 0x20 PUSH2 0x1DBA DUP5 DUP5 PUSH2 0x4535 JUMP JUMPDEST POP CALLVALUE PUSH2 0x4CD JUMPI DUP1 PUSH1 0x3 NOT CALLDATASIZE ADD SLT PUSH2 0x4CD JUMPI PUSH2 0x43A5 PUSH2 0x532D JUMP JUMPDEST PUSH2 0x43AD PUSH2 0x5359 JUMP JUMPDEST PUSH1 0x2 SLOAD PUSH1 0x40 MLOAD PUSH4 0xF8413B07 PUSH1 0xE0 SHL DUP2 MSTORE SWAP1 PUSH1 0x20 SWAP1 DUP3 SWAP1 PUSH1 0x4 SWAP1 DUP3 SWAP1 DUP7 SWAP1 PUSH1 0x1 PUSH1 0x1 PUSH1 0xA0 SHL SUB AND GAS CALL SWAP1 DUP2 ISZERO PUSH2 0xBCA JUMPI DUP3 SWAP2 PUSH2 0x441E JUMPI JUMPDEST POP PUSH1 0x40 DUP2 PUSH32 0x3D94FECEDAA4F90B8BD459797ADB95F5BB11426025C5541390D9CCC1AD1B60A1 SWAP3 PUSH1 0x9 SSTORE PUSH1 0x4 SLOAD SWAP1 DUP3 MLOAD SWAP2 DUP3 MSTORE PUSH1 0x20 DUP3 ADD MSTORE LOG1 DUP1 RETURN JUMPDEST SWAP1 POP PUSH1 0x20 DUP2 RETURNDATASIZE PUSH1 0x20 GT PUSH2 0x4449 JUMPI JUMPDEST DUP2 PUSH2 0x4439 PUSH1 0x20 SWAP4 DUP4 PUSH2 0x4683 JUMP JUMPDEST DUP2 ADD SUB SLT PUSH2 0x1F41 JUMPI MLOAD PUSH1 0x40 PUSH2 0x43E3 JUMP JUMPDEST RETURNDATASIZE SWAP2 POP PUSH2 0x442C JUMP JUMPDEST POP CALLVALUE PUSH2 0x4CD JUMPI DUP1 PUSH1 0x3 NOT CALLDATASIZE ADD SLT PUSH2 0x4CD JUMPI PUSH1 0x3 SLOAD PUSH1 0x40 MLOAD PUSH4 0xD73EBB5 PUSH1 0xE0 SHL DUP2 MSTORE SWAP1 PUSH1 0x20 SWAP1 DUP3 SWAP1 PUSH1 0x4 SWAP1 DUP3 SWAP1 PUSH1 0x1 PUSH1 0x1 PUSH1 0xA0 SHL SUB AND GAS STATICCALL SWAP1 DUP2 ISZERO PUSH2 0xBCA JUMPI DUP3 SWAP2 PUSH2 0x1F13 JUMPI PUSH1 0x20 DUP3 PUSH1 0x40 MLOAD SWAP1 DUP2 MSTORE RETURN JUMPDEST POP CALLVALUE PUSH2 0x4CD JUMPI DUP1 PUSH1 0x3 NOT CALLDATASIZE ADD SLT PUSH2 0x4CD JUMPI PUSH1 0x20 PUSH1 0x40 MLOAD PUSH2 0x12C DUP2 MSTORE RETURN JUMPDEST SWAP1 POP CALLVALUE PUSH2 0x1F41 JUMPI PUSH1 0x20 CALLDATASIZE PUSH1 0x3 NOT ADD SLT PUSH2 0x1F41 JUMPI PUSH1 0x20 SWAP2 PUSH1 0x40 SWAP1 PUSH1 0x1 PUSH1 0x1 PUSH1 0xA0 SHL SUB PUSH2 0x44E6 PUSH2 0x44F3 JUMP JUMPDEST AND DUP2 MSTORE PUSH1 0x21 DUP5 MSTORE KECCAK256 SLOAD DUP2 MSTORE RETURN JUMPDEST PUSH1 0x4 CALLDATALOAD SWAP1 PUSH1 0x1 PUSH1 0x1 PUSH1 0xA0 SHL SUB DUP3 AND DUP3 SUB PUSH2 0xA7C JUMPI JUMP JUMPDEST PUSH1 0x24 CALLDATALOAD SWAP1 PUSH1 0x1 PUSH1 0x1 PUSH1 0xA0 SHL SUB DUP3 AND DUP3 SUB PUSH2 0xA7C JUMPI JUMP JUMPDEST PUSH1 0x40 SWAP1 PUSH1 0x3 NOT ADD SLT PUSH2 0xA7C JUMPI PUSH1 0x4 CALLDATALOAD SWAP1 PUSH1 0x24 CALLDATALOAD SWAP1 JUMP JUMPDEST DUP1 SLOAD DUP3 LT ISZERO PUSH2 0x454D JUMPI PUSH1 0x0 MSTORE PUSH1 0x20 PUSH1 0x0 KECCAK256 ADD SWAP1 PUSH1 0x0 SWAP1 JUMP JUMPDEST PUSH4 0x4E487B71 PUSH1 0xE0 SHL PUSH1 0x0 MSTORE PUSH1 0x32 PUSH1 0x4 MSTORE PUSH1 0x24 PUSH1 0x0 REVERT JUMPDEST CALLVALUE PUSH2 0xA7C JUMPI PUSH1 0x0 CALLDATASIZE PUSH1 0x3 NOT ADD SLT PUSH2 0xA7C JUMPI PUSH1 0x20 PUSH1 0x40 MLOAD PUSH1 0xA DUP2 MSTORE RETURN JUMPDEST PUSH1 0x80 DUP2 ADD SWAP1 DUP2 LT PUSH1 0x1 PUSH1 0x1 PUSH1 0x40 SHL SUB DUP3 GT OR PUSH2 0x459A JUMPI PUSH1 0x40 MSTORE JUMP JUMPDEST PUSH4 0x4E487B71 PUSH1 0xE0 SHL PUSH1 0x0 MSTORE PUSH1 0x41 PUSH1 0x4 MSTORE PUSH1 0x24 PUSH1 0x0 REVERT JUMPDEST PUSH2 0x220 DUP2 ADD SWAP1 DUP2 LT PUSH1 0x1 PUSH1 0x1 PUSH1 0x40 SHL SUB DUP3 GT OR PUSH2 0x459A JUMPI PUSH1 0x40 MSTORE JUMP JUMPDEST PUSH2 0x100 DUP2 ADD SWAP1 DUP2 LT PUSH1 0x1 PUSH1 0x1 PUSH1 0x40 SHL SUB DUP3 GT OR PUSH2 0x459A JUMPI PUSH1 0x40 MSTORE JUMP JUMPDEST PUSH1 0x1 PUSH1 0x1 PUSH1 0x40 SHL SUB DUP2 GT PUSH2 0x459A JUMPI PUSH1 0x40 MSTORE JUMP JUMPDEST PUSH1 0x40 DUP2 ADD SWAP1 DUP2 LT PUSH1 0x1 PUSH1 0x1 PUSH1 0x40 SHL SUB DUP3 GT OR PUSH2 0x459A JUMPI PUSH1 0x40 MSTORE JUMP JUMPDEST PUSH1 0x20 DUP2 ADD SWAP1 DUP2 LT PUSH1 0x1 PUSH1 0x1 PUSH1 0x40 SHL SUB DUP3 GT OR PUSH2 0x459A JUMPI PUSH1 0x40 MSTORE JUMP JUMPDEST PUSH1 0x60 DUP2 ADD SWAP1 DUP2 LT PUSH1 0x1 PUSH1 0x1 PUSH1 0x40 SHL SUB DUP3 GT OR PUSH2 0x459A JUMPI PUSH1 0x40 MSTORE JUMP JUMPDEST PUSH1 0xC0 DUP2 ADD SWAP1 DUP2 LT PUSH1 0x1 PUSH1 0x1 PUSH1 0x40 SHL SUB DUP3 GT OR PUSH2 0x459A JUMPI PUSH1 0x40 MSTORE JUMP JUMPDEST PUSH2 0x120 DUP2 ADD SWAP1 DUP2 LT PUSH1 0x1 PUSH1 0x1 PUSH1 0x40 SHL SUB DUP3 GT OR PUSH2 0x459A JUMPI PUSH1 0x40 MSTORE JUMP JUMPDEST SWAP1 PUSH1 0x1F DUP1 NOT SWAP2 ADD AND DUP2 ADD SWAP1 DUP2 LT PUSH1 0x1 PUSH1 0x1 PUSH1 0x40 SHL SUB DUP3 GT OR PUSH2 0x459A JUMPI PUSH1 0x40 MSTORE JUMP JUMPDEST PUSH1 0x1 PUSH1 0x1 PUSH1 0x40 SHL SUB DUP2 GT PUSH2 0x459A JUMPI PUSH1 0x1F ADD PUSH1 0x1F NOT AND PUSH1 0x20 ADD SWAP1 JUMP JUMPDEST PUSH1 0x20 PUSH1 0x3 NOT DUP3 ADD SLT PUSH2 0xA7C JUMPI PUSH1 0x4 CALLDATALOAD PUSH1 0x1 PUSH1 0x1 PUSH1 0x40 SHL SUB DUP2 GT PUSH2 0xA7C JUMPI DUP2 PUSH1 0x23 DUP3 ADD SLT ISZERO PUSH2 0xA7C JUMPI DUP1 PUSH1 0x4 ADD CALLDATALOAD SWAP1 PUSH2 0x46F6 DUP3 PUSH2 0x46A4 JUMP JUMPDEST SWAP3 PUSH2 0x4704 PUSH1 0x40 MLOAD SWAP5 DUP6 PUSH2 0x4683 JUMP JUMPDEST DUP3 DUP5 MSTORE PUSH1 0x24 DUP4 DUP4 ADD ADD GT PUSH2 0xA7C JUMPI DUP2 PUSH1 0x0 SWAP3 PUSH1 0x24 PUSH1 0x20 SWAP4 ADD DUP4 DUP7 ADD CALLDATACOPY DUP4 ADD ADD MSTORE SWAP1 JUMP JUMPDEST PUSH1 0x0 JUMPDEST DUP4 DUP2 LT PUSH2 0x473A JUMPI POP POP PUSH1 0x0 SWAP2 ADD MSTORE JUMP JUMPDEST DUP2 DUP2 ADD MLOAD DUP4 DUP3 ADD MSTORE PUSH1 0x20 ADD PUSH2 0x472A JUMP JUMPDEST CALLVALUE PUSH2 0xA7C JUMPI PUSH1 0x0 CALLDATASIZE PUSH1 0x3 NOT ADD SLT PUSH2 0xA7C JUMPI PUSH1 0x20 PUSH1 0x40 MLOAD PUSH1 0x64 DUP2 MSTORE RETURN JUMPDEST PUSH1 0x1 PUSH1 0x1 PUSH1 0x40 SHL SUB DUP2 GT PUSH2 0x459A JUMPI PUSH1 0x5 SHL PUSH1 0x20 ADD SWAP1 JUMP JUMPDEST CALLVALUE PUSH2 0xA7C JUMPI PUSH1 0x0 CALLDATASIZE PUSH1 0x3 NOT ADD SLT PUSH2 0xA7C JUMPI PUSH1 0x20 PUSH1 0x40 MLOAD PUSH8 0xDE0B6B3A7640000 DUP2 MSTORE RETURN JUMPDEST DUP1 SLOAD PUSH1 0x0 SWAP4 SWAP3 PUSH1 0x1 DUP1 DUP4 AND SWAP4 DUP4 DUP3 SHR SWAP4 DUP6 ISZERO PUSH2 0x4853 JUMPI JUMPDEST PUSH1 0x20 SWAP6 DUP7 DUP7 LT DUP2 EQ PUSH2 0x483D JUMPI DUP6 DUP6 MSTORE SWAP1 DUP2 ISZERO PUSH2 0x481E JUMPI POP PUSH1 0x1 EQ PUSH2 0x47DD JUMPI JUMPDEST POP POP POP POP POP JUMP JUMPDEST SWAP1 SWAP4 SWAP5 SWAP6 POP PUSH1 0x0 SWAP3 SWAP2 SWAP3 MSTORE DUP4 PUSH1 0x0 KECCAK256 SWAP3 DUP5 PUSH1 0x0 SWAP5 JUMPDEST DUP4 DUP7 LT PUSH2 0x480A JUMPI POP POP POP POP ADD ADD SWAP1 CODESIZE DUP1 DUP1 DUP1 DUP1 PUSH2 0x47D6 JUMP JUMPDEST DUP1 SLOAD DUP6 DUP8 ADD DUP4 ADD MSTORE SWAP5 ADD SWAP4 DUP6 SWAP1 DUP3 ADD PUSH2 0x47F2 JUMP JUMPDEST PUSH1 0xFF NOT AND DUP7 DUP6 ADD MSTORE POP POP POP SWAP1 ISZERO ISZERO PUSH1 0x5 SHL ADD ADD SWAP2 POP CODESIZE DUP1 DUP1 DUP1 DUP1 PUSH2 0x47D6 JUMP JUMPDEST PUSH4 0x4E487B71 PUSH1 0xE0 SHL PUSH1 0x0 MSTORE PUSH1 0x22 PUSH1 0x4 MSTORE PUSH1 0x24 PUSH1 0x0 REVERT JUMPDEST SWAP4 PUSH1 0x7F AND SWAP4 PUSH2 0x47B7 JUMP JUMPDEST SWAP1 PUSH1 0x20 SWAP2 PUSH2 0x4876 DUP2 MLOAD DUP1 SWAP3 DUP2 DUP6 MSTORE DUP6 DUP1 DUP7 ADD SWAP2 ADD PUSH2 0x4727 JUMP JUMPDEST PUSH1 0x1F ADD PUSH1 0x1F NOT AND ADD ADD SWAP1 JUMP JUMPDEST PUSH1 0x60 SWAP1 PUSH1 0x3 NOT ADD SLT PUSH2 0xA7C JUMPI PUSH1 0x4 CALLDATALOAD SWAP1 PUSH1 0x24 CALLDATALOAD SWAP1 PUSH1 0x44 CALLDATALOAD SWAP1 JUMP JUMPDEST CALLVALUE PUSH2 0xA7C JUMPI PUSH1 0x0 CALLDATASIZE PUSH1 0x3 NOT ADD SLT PUSH2 0xA7C JUMPI PUSH1 0x20 PUSH1 0x40 MLOAD PUSH1 0x2 DUP2 MSTORE RETURN JUMPDEST CALLVALUE PUSH2 0xA7C JUMPI PUSH1 0x0 CALLDATASIZE PUSH1 0x3 NOT ADD SLT PUSH2 0xA7C JUMPI PUSH1 0x20 PUSH1 0x40 MLOAD PUSH1 0x1 DUP2 MSTORE RETURN JUMPDEST PUSH1 0x20 SWAP2 DUP3 DUP3 MSTORE PUSH2 0x120 DUP3 ADD SWAP1 DUP1 MLOAD DUP5 DUP5 ADD MSTORE DUP4 DUP2 ADD MLOAD PUSH1 0x40 DUP5 ADD MSTORE PUSH1 0x40 DUP2 ADD MLOAD PUSH1 0x60 DUP5 ADD MSTORE PUSH1 0x60 DUP2 ADD MLOAD PUSH1 0x80 DUP5 ADD MSTORE PUSH1 0x80 DUP2 ADD MLOAD PUSH1 0xA0 DUP5 ADD MSTORE PUSH1 0xA0 DUP2 ADD MLOAD SWAP4 PUSH2 0x100 SWAP3 DUP4 PUSH1 0xC0 DUP7 ADD MSTORE DUP6 MLOAD DUP1 SWAP2 MSTORE DUP2 PUSH2 0x140 DUP7 ADD SWAP7 ADD SWAP2 PUSH1 0x0 JUMPDEST DUP3 DUP2 LT PUSH2 0x494F JUMPI POP POP POP POP DUP1 PUSH1 0xC0 PUSH1 0xE0 SWAP3 ADD MLOAD ISZERO ISZERO DUP3 DUP6 ADD MSTORE ADD MLOAD SWAP2 ADD MSTORE SWAP1 JUMP JUMPDEST DUP4 MLOAD PUSH1 0x1 PUSH1 0x1 PUSH1 0xA0 SHL SUB AND DUP9 MSTORE SWAP7 DUP2 ADD SWAP7 SWAP3 DUP2 ADD SWAP3 PUSH1 0x1 ADD PUSH2 0x492E JUMP JUMPDEST CALLVALUE PUSH2 0xA7C JUMPI PUSH1 0x0 CALLDATASIZE PUSH1 0x3 NOT ADD SLT PUSH2 0xA7C JUMPI PUSH1 0x20 PUSH1 0x40 MLOAD PUSH1 0x32 DUP2 MSTORE RETURN JUMPDEST CALLVALUE PUSH2 0xA7C JUMPI PUSH1 0x0 CALLDATASIZE PUSH1 0x3 NOT ADD SLT PUSH2 0xA7C JUMPI PUSH1 0x20 PUSH1 0x40 MLOAD PUSH2 0xE10 DUP2 MSTORE RETURN JUMPDEST CALLVALUE PUSH2 0xA7C JUMPI PUSH1 0x0 CALLDATASIZE PUSH1 0x3 NOT ADD SLT PUSH2 0xA7C JUMPI PUSH1 0x20 PUSH1 0x40 MLOAD PUSH1 0x3 DUP2 MSTORE RETURN JUMPDEST DUP1 SLOAD PUSH1 0x1 PUSH1 0x40 SHL DUP2 LT ISZERO PUSH2 0x459A JUMPI PUSH2 0x49DE SWAP2 PUSH1 0x1 DUP3 ADD DUP2 SSTORE PUSH2 0x4535 JUMP JUMPDEST PUSH1 0x1 DUP1 PUSH1 0xA0 SWAP5 SWAP4 SWAP5 SHL SUB DUP1 DUP5 SLOAD SWAP3 PUSH1 0x3 SHL SWAP4 AND DUP4 SHL SWAP3 SHL NOT AND OR SWAP1 SSTORE JUMP JUMPDEST SWAP2 SWAP1 DUP3 ADD DUP1 SWAP3 GT PUSH2 0xEDD JUMPI JUMP JUMPDEST ISZERO PUSH2 0x4A10 JUMPI JUMP JUMPDEST PUSH1 0x40 MLOAD PUSH3 0x461BCD PUSH1 0xE5 SHL DUP2 MSTORE PUSH1 0x20 PUSH1 0x4 DUP3 ADD MSTORE PUSH1 0x15 PUSH1 0x24 DUP3 ADD MSTORE PUSH21 0x141B185E595C881A5CC8189B1858DADB1A5CDD1959 PUSH1 0x5A SHL PUSH1 0x44 DUP3 ADD MSTORE PUSH1 0x64 SWAP1 REVERT JUMPDEST ISZERO PUSH2 0x4A54 JUMPI JUMP JUMPDEST PUSH1 0x40 MLOAD PUSH3 0x461BCD PUSH1 0xE5 SHL DUP2 MSTORE PUSH1 0x20 PUSH1 0x4 DUP3 ADD MSTORE PUSH1 0x1C PUSH1 0x24 DUP3 ADD MSTORE PUSH32 0x52657761726420616C726561647920636C61696D656420746F64617900000000 PUSH1 0x44 DUP3 ADD MSTORE PUSH1 0x64 SWAP1 REVERT JUMPDEST ISZERO PUSH2 0x4AA0 JUMPI JUMP JUMPDEST PUSH1 0x40 MLOAD PUSH3 0x461BCD PUSH1 0xE5 SHL DUP2 MSTORE PUSH1 0x20 PUSH1 0x4 DUP3 ADD MSTORE PUSH1 0x1A PUSH1 0x24 DUP3 ADD MSTORE PUSH32 0x4461696C7920726577617264206C696D69742072656163686564000000000000 PUSH1 0x44 DUP3 ADD MSTORE PUSH1 0x64 SWAP1 REVERT JUMPDEST ISZERO PUSH2 0x4AEC JUMPI JUMP JUMPDEST PUSH1 0x40 MLOAD PUSH3 0x461BCD PUSH1 0xE5 SHL DUP2 MSTORE PUSH1 0x20 PUSH1 0x4 DUP3 ADD MSTORE PUSH1 0x27 PUSH1 0x24 DUP3 ADD MSTORE PUSH32 0x416363657373436F6E74726F6C3A2063616C6C6572206973206E6F7420726F6C PUSH1 0x44 DUP3 ADD MSTORE PUSH7 0x329030B236B4B7 PUSH1 0xC9 SHL PUSH1 0x64 DUP3 ADD MSTORE PUSH1 0x84 SWAP1 REVERT JUMPDEST ISZERO PUSH2 0x4B48 JUMPI JUMP JUMPDEST PUSH1 0x40 MLOAD PUSH3 0x461BCD PUSH1 0xE5 SHL DUP2 MSTORE PUSH1 0x20 PUSH1 0x4 DUP3 ADD MSTORE PUSH1 0xF PUSH1 0x24 DUP3 ADD MSTORE PUSH15 0x496E76616C69642061646472657373 PUSH1 0x88 SHL PUSH1 0x44 DUP3 ADD MSTORE PUSH1 0x64 SWAP1 REVERT JUMPDEST ISZERO PUSH2 0x4B86 JUMPI JUMP JUMPDEST PUSH1 0x40 MLOAD PUSH3 0x461BCD PUSH1 0xE5 SHL DUP2 MSTORE PUSH1 0x20 PUSH1 0x4 DUP3 ADD MSTORE PUSH1 0x28 PUSH1 0x24 DUP3 ADD MSTORE PUSH32 0x416363657373436F6E74726F6C3A2063616C6C657220646F6573206E6F742068 PUSH1 0x44 DUP3 ADD MSTORE PUSH8 0x61766520726F6C65 PUSH1 0xC0 SHL PUSH1 0x64 DUP3 ADD MSTORE PUSH1 0x84 SWAP1 REVERT JUMPDEST DUP1 MLOAD ISZERO PUSH2 0x454D JUMPI PUSH1 0x20 ADD SWAP1 JUMP JUMPDEST DUP1 MLOAD PUSH1 0x1 LT ISZERO PUSH2 0x454D JUMPI PUSH1 0x40 ADD SWAP1 JUMP JUMPDEST DUP1 MLOAD PUSH1 0x2 LT ISZERO PUSH2 0x454D JUMPI PUSH1 0x60 ADD SWAP1 JUMP JUMPDEST DUP1 MLOAD PUSH1 0x3 LT ISZERO PUSH2 0x454D JUMPI PUSH1 0x80 ADD SWAP1 JUMP JUMPDEST DUP1 MLOAD PUSH1 0x4 LT ISZERO PUSH2 0x454D JUMPI PUSH1 0xA0 ADD SWAP1 JUMP JUMPDEST DUP1 MLOAD DUP3 LT ISZERO PUSH2 0x454D JUMPI PUSH1 0x20 SWAP2 PUSH1 0x5 SHL ADD ADD SWAP1 JUMP JUMPDEST PUSH1 0x0 NOT DUP2 EQ PUSH2 0xEDD JUMPI PUSH1 0x1 ADD SWAP1 JUMP JUMPDEST SWAP1 DUP2 MLOAD DUP1 DUP3 MSTORE PUSH1 0x20 DUP1 DUP1 SWAP4 ADD SWAP4 ADD SWAP2 PUSH1 0x0 JUMPDEST DUP3 DUP2 LT PUSH2 0x4C6C JUMPI POP POP POP POP SWAP1 JUMP JUMPDEST DUP4 MLOAD PUSH1 0x1 PUSH1 0x1 PUSH1 0xA0 SHL SUB AND DUP6 MSTORE SWAP4 DUP2 ADD SWAP4 SWAP3 DUP2 ADD SWAP3 PUSH1 0x1 ADD PUSH2 0x4C5E JUMP JUMPDEST SWAP4 SWAP3 SWAP2 PUSH2 0x4CA6 SWAP1 PUSH1 0x40 SWAP3 DUP7 MSTORE PUSH1 0x60 PUSH1 0x20 DUP8 ADD MSTORE PUSH1 0x60 DUP7 ADD SWAP1 PUSH2 0x4C4C JUMP JUMPDEST SWAP4 ADD MSTORE JUMP JUMPDEST DUP2 ISZERO PUSH2 0x4CB5 JUMPI DIV SWAP1 JUMP JUMPDEST PUSH4 0x4E487B71 PUSH1 0xE0 SHL PUSH1 0x0 MSTORE PUSH1 0x12 PUSH1 0x4 MSTORE PUSH1 0x24 PUSH1 0x0 REVERT JUMPDEST SWAP1 DUP2 PUSH1 0x20 SWAP2 SUB SLT PUSH2 0xA7C JUMPI MLOAD DUP1 ISZERO ISZERO DUP2 SUB PUSH2 0xA7C JUMPI SWAP1 JUMP JUMPDEST ISZERO PUSH2 0x4CEA JUMPI JUMP JUMPDEST PUSH1 0x40 MLOAD PUSH3 0x461BCD PUSH1 0xE5 SHL DUP2 MSTORE PUSH1 0x20 PUSH1 0x4 DUP3 ADD MSTORE PUSH1 0x19 PUSH1 0x24 DUP3 ADD MSTORE PUSH32 0x564D46207072697A65207472616E73666572206661696C656400000000000000 PUSH1 0x44 DUP3 ADD MSTORE PUSH1 0x64 SWAP1 REVERT JUMPDEST PUSH1 0x4 SWAP1 DUP2 SLOAD SWAP2 PUSH1 0x0 SWAP3 DUP4 MSTORE PUSH1 0x20 SWAP3 PUSH1 0x1D DUP5 MSTORE PUSH1 0x40 SWAP1 DUP2 DUP2 KECCAK256 SWAP2 PUSH1 0x6 DUP4 ADD SWAP1 DUP2 SLOAD SWAP7 PUSH1 0xFF DUP9 AND PUSH2 0x502F JUMPI PUSH1 0x2 DUP6 ADD SLOAD TIMESTAMP LT PUSH2 0x4FF9 JUMPI PUSH2 0x4D70 PUSH1 0x3 DUP7 ADD SLOAD PUSH2 0x54E5 JUMP JUMPDEST SWAP5 DUP5 SWAP7 DUP6 JUMPDEST DUP8 MLOAD DUP2 LT ISZERO PUSH2 0x4DB3 JUMPI PUSH1 0x1 PUSH1 0x1 PUSH1 0xA0 SHL SUB PUSH2 0x4D90 DUP3 DUP11 PUSH2 0x4C29 JUMP JUMPDEST MLOAD AND PUSH2 0x4D9F JUMPI JUMPDEST PUSH1 0x1 ADD PUSH2 0x4D75 JUMP JUMPDEST SWAP8 PUSH2 0x4DAB PUSH1 0x1 SWAP2 PUSH2 0x4C3D JUMP JUMPDEST SWAP9 SWAP1 POP PUSH2 0x4D97 JUMP JUMPDEST POP SWAP3 SWAP7 SWAP1 SWAP5 SWAP9 SWAP8 SWAP2 SWAP6 SWAP4 SWAP8 DUP2 ISZERO PUSH2 0x4FB0 JUMPI POP PUSH2 0x4DD1 SWAP1 PUSH1 0x5 SLOAD PUSH2 0x4CAB JUMP JUMPDEST SWAP4 DUP9 JUMPDEST DUP5 MLOAD DUP2 LT ISZERO PUSH2 0x4EB9 JUMPI PUSH1 0x1 PUSH1 0x1 PUSH1 0xA0 SHL SUB SWAP1 DUP8 DUP8 DUP4 PUSH2 0x4DF3 DUP5 DUP11 PUSH2 0x4C29 JUMP JUMPDEST MLOAD AND PUSH2 0x4E06 JUMPI JUMPDEST POP POP PUSH1 0x1 SWAP2 POP ADD PUSH2 0x4DD4 JUMP JUMPDEST DUP4 DUP14 DUP5 SWAP6 PUSH2 0x4E17 PUSH2 0x4E49 SWAP7 DUP13 PUSH2 0x4C29 JUMP JUMPDEST MLOAD AND SWAP1 DUP14 MLOAD DUP1 SWAP7 DUP2 SWAP6 DUP3 SWAP5 PUSH4 0xA9059CBB PUSH1 0xE0 SHL DUP5 MSTORE DUP14 DUP5 ADD PUSH1 0x20 SWAP1 SWAP4 SWAP3 SWAP2 SWAP4 PUSH1 0x40 DUP2 ADD SWAP5 PUSH1 0x1 DUP1 PUSH1 0xA0 SHL SUB AND DUP2 MSTORE ADD MSTORE JUMP JUMPDEST SUB SWAP3 PUSH32 0x0 AND GAS CALL SWAP1 DUP2 ISZERO PUSH2 0x4EAF JUMPI PUSH1 0x1 SWAP3 SWAP2 PUSH2 0x4E8B SWAP2 DUP14 SWAP2 PUSH2 0x4E92 JUMPI JUMPDEST POP PUSH2 0x4CE3 JUMP JUMPDEST DUP8 DUP8 PUSH2 0x4DFA JUMP JUMPDEST PUSH2 0x4EA9 SWAP2 POP DUP11 RETURNDATASIZE DUP13 GT PUSH2 0x84D JUMPI PUSH2 0x83F DUP2 DUP4 PUSH2 0x4683 JUMP JUMPDEST CODESIZE PUSH2 0x4E85 JUMP JUMPDEST DUP10 MLOAD RETURNDATASIZE DUP14 DUP3 RETURNDATACOPY RETURNDATASIZE SWAP1 REVERT JUMPDEST POP SWAP4 POP SWAP6 SWAP2 SWAP5 SWAP4 SWAP1 SWAP7 PUSH1 0x5 DUP5 ADD SWAP1 DUP7 MLOAD SWAP3 PUSH1 0x1 PUSH1 0x1 PUSH1 0x40 SHL SUB DUP5 GT PUSH2 0x4F9D JUMPI PUSH1 0x1 PUSH1 0x40 SHL DUP5 GT PUSH2 0x4F9D JUMPI DUP3 SLOAD DUP5 DUP5 SSTORE DUP1 DUP6 LT PUSH2 0x4F78 JUMPI JUMPDEST POP DUP1 DUP9 ADD SWAP3 DUP3 MSTORE DUP1 DUP3 KECCAK256 SWAP2 JUMPDEST DUP5 DUP2 LT PUSH2 0x4F5D JUMPI POP POP POP POP POP SWAP5 DUP1 PUSH2 0x4F50 SWAP3 PUSH32 0xDD1C72FCDA97FCFC2FE124C4AA194986CACA752D3769C00A6495659509D7B19B SWAP7 SWAP8 PUSH1 0x1 PUSH1 0xFF NOT DUP3 SLOAD AND OR SWAP1 SSTORE PUSH1 0x5 SLOAD SWAP3 DUP4 SWAP2 ADD SSTORE SLOAD SWAP3 MLOAD SWAP4 DUP5 SWAP4 DUP5 PUSH2 0x4C89 JUMP JUMPDEST SUB SWAP1 LOG1 PUSH2 0x4F5B PUSH2 0x563F JUMP JUMPDEST JUMP JUMPDEST DUP4 MLOAD PUSH1 0x1 PUSH1 0x1 PUSH1 0xA0 SHL SUB AND DUP4 DUP3 ADD SSTORE SWAP3 DUP2 ADD SWAP3 PUSH1 0x1 ADD PUSH2 0x4EFC JUMP JUMPDEST DUP4 DUP4 MSTORE DUP5 DUP3 DUP5 KECCAK256 SWAP2 DUP3 ADD SWAP2 ADD JUMPDEST DUP2 DUP2 LT PUSH2 0x4F92 JUMPI POP PUSH2 0x4EF0 JUMP JUMPDEST DUP4 DUP2 SSTORE PUSH1 0x1 ADD PUSH2 0x4F85 JUMP JUMPDEST PUSH4 0x4E487B71 PUSH1 0xE0 SHL DUP3 MSTORE PUSH1 0x41 DUP11 MSTORE PUSH1 0x24 DUP3 REVERT JUMPDEST PUSH1 0xFF NOT AND PUSH1 0x1 OR SWAP1 SWAP8 SSTORE SWAP1 SLOAD PUSH1 0x5 SLOAD SWAP6 MLOAD SWAP2 SWAP8 POP PUSH32 0xDD1C72FCDA97FCFC2FE124C4AA194986CACA752D3769C00A6495659509D7B19B SWAP7 POP SWAP1 SWAP5 DUP6 SWAP5 POP PUSH2 0x4F50 SWAP4 POP SWAP2 SWAP1 DUP5 PUSH2 0x4C89 JUMP JUMPDEST DUP6 SWAP1 PUSH1 0x64 SWAP3 MLOAD SWAP2 PUSH3 0x461BCD PUSH1 0xE5 SHL DUP4 MSTORE DUP3 ADD MSTORE PUSH1 0x11 PUSH1 0x24 DUP3 ADD MSTORE PUSH17 0x11D85B59481B9BDD08199A5B9A5CDA1959 PUSH1 0x7A SHL PUSH1 0x44 DUP3 ADD MSTORE REVERT JUMPDEST DUP6 SWAP1 PUSH1 0x64 SWAP3 MLOAD SWAP2 PUSH3 0x461BCD PUSH1 0xE5 SHL DUP4 MSTORE DUP3 ADD MSTORE PUSH1 0x16 PUSH1 0x24 DUP3 ADD MSTORE PUSH22 0x11D85B5948185B1C9958591E4818DBDB5C1B195D1959 PUSH1 0x52 SHL PUSH1 0x44 DUP3 ADD MSTORE REVERT JUMPDEST PUSH1 0x8 SLOAD PUSH3 0x93A80 DUP2 ADD DUP1 SWAP2 GT PUSH2 0xEDD JUMPI TIMESTAMP LT PUSH2 0x529A JUMPI PUSH1 0x40 DUP1 MLOAD SWAP2 PUSH1 0x1 PUSH1 0x1 PUSH1 0x40 SHL SUB SWAP2 SWAP1 PUSH2 0x160 DUP5 ADD DUP4 DUP2 GT DUP6 DUP3 LT OR PUSH2 0x459A JUMPI DUP3 MSTORE PUSH1 0xA DUP5 MSTORE PUSH1 0x20 SWAP3 PUSH2 0x140 CALLDATASIZE PUSH1 0x20 DUP8 ADD CALLDATACOPY DUP3 MLOAD PUSH2 0x7D20 DUP2 ADD SWAP2 DUP3 GT DUP2 DUP4 LT OR PUSH2 0x459A JUMPI PUSH2 0x7D00 SWAP2 DUP5 MSTORE PUSH2 0x3E8 DUP2 MSTORE PUSH1 0x20 CALLDATASIZE SWAP2 ADD CALLDATACOPY PUSH1 0x0 SWAP2 PUSH1 0x0 JUMPDEST DUP6 MLOAD DUP2 LT ISZERO PUSH2 0x5118 JUMPI PUSH1 0x1 PUSH1 0x1 PUSH1 0xA0 SHL SUB PUSH2 0x50F5 DUP3 DUP9 PUSH2 0x4C29 JUMP JUMPDEST MLOAD AND PUSH2 0x5104 JUMPI JUMPDEST PUSH1 0x1 ADD PUSH2 0x50DA JUMP JUMPDEST SWAP3 PUSH2 0x5110 PUSH1 0x1 SWAP2 PUSH2 0x4C3D JUMP JUMPDEST SWAP4 SWAP1 POP PUSH2 0x50FC JUMP JUMPDEST POP SWAP2 SWAP3 SWAP1 SWAP3 DUP1 ISZERO PUSH2 0x525F JUMPI PUSH2 0x512F SWAP1 PUSH1 0x6 SLOAD PUSH2 0x4CAB JUMP JUMPDEST SWAP4 PUSH1 0x0 JUMPDEST DUP2 MLOAD DUP2 LT ISZERO PUSH2 0x5214 JUMPI PUSH1 0x1 PUSH1 0x1 PUSH1 0xA0 SHL SUB SWAP1 DUP4 DUP8 DUP4 PUSH2 0x5152 DUP5 DUP8 PUSH2 0x4C29 JUMP JUMPDEST MLOAD AND PUSH2 0x5165 JUMPI JUMPDEST POP POP PUSH1 0x1 SWAP2 POP ADD PUSH2 0x5133 JUMP JUMPDEST DUP4 DUP4 SWAP5 PUSH2 0x5175 PUSH2 0x51A9 SWAP6 DUP9 PUSH2 0x4C29 JUMP JUMPDEST MLOAD AND PUSH1 0x0 DUP10 MLOAD DUP1 SWAP7 DUP2 SWAP6 DUP3 SWAP5 PUSH4 0xA9059CBB PUSH1 0xE0 SHL DUP5 MSTORE PUSH1 0x4 DUP5 ADD PUSH1 0x20 SWAP1 SWAP4 SWAP3 SWAP2 SWAP4 PUSH1 0x40 DUP2 ADD SWAP5 PUSH1 0x1 DUP1 PUSH1 0xA0 SHL SUB AND DUP2 MSTORE ADD MSTORE JUMP JUMPDEST SUB SWAP3 PUSH32 0x0 AND GAS CALL SWAP1 DUP2 ISZERO PUSH2 0x5209 JUMPI PUSH1 0x1 SWAP3 SWAP2 PUSH2 0x51EB SWAP2 PUSH1 0x0 SWAP2 PUSH2 0x51F2 JUMPI POP PUSH2 0x4CE3 JUMP JUMPDEST DUP4 DUP8 PUSH2 0x5159 JUMP JUMPDEST PUSH2 0x4EA9 SWAP2 POP DUP7 RETURNDATASIZE DUP9 GT PUSH2 0x84D JUMPI PUSH2 0x83F DUP2 DUP4 PUSH2 0x4683 JUMP JUMPDEST DUP6 MLOAD RETURNDATASIZE PUSH1 0x0 DUP3 RETURNDATACOPY RETURNDATASIZE SWAP1 REVERT JUMPDEST POP SWAP2 SWAP1 POP PUSH32 0x266EAB4E9078D52EC3F1266D5B3619A11040584EF2997FDEA8AFA3C03FA55977 SWAP3 SWAP4 POP PUSH2 0x5251 PUSH1 0x4 SLOAD SWAP2 PUSH1 0x6 SLOAD SWAP1 MLOAD SWAP4 DUP5 SWAP4 DUP5 PUSH2 0x4C89 JUMP JUMPDEST SUB SWAP1 LOG1 PUSH1 0x0 PUSH1 0x6 SSTORE TIMESTAMP PUSH1 0x8 SSTORE JUMP JUMPDEST POP POP SWAP2 PUSH32 0x266EAB4E9078D52EC3F1266D5B3619A11040584EF2997FDEA8AFA3C03FA55977 SWAP2 SWAP3 PUSH2 0x5251 PUSH1 0x4 SLOAD SWAP2 PUSH1 0x6 SLOAD SWAP1 MLOAD SWAP4 DUP5 SWAP4 DUP5 PUSH2 0x4C89 JUMP JUMPDEST PUSH1 0x40 MLOAD PUSH3 0x461BCD PUSH1 0xE5 SHL DUP2 MSTORE PUSH1 0x20 PUSH1 0x4 DUP3 ADD MSTORE PUSH1 0x15 PUSH1 0x24 DUP3 ADD MSTORE PUSH21 0x5765656B6C792064726177206E6F74207265616479 PUSH1 0x58 SHL PUSH1 0x44 DUP3 ADD MSTORE PUSH1 0x64 SWAP1 REVERT JUMPDEST SWAP2 SWAP1 DUP3 SUB SWAP2 DUP3 GT PUSH2 0xEDD JUMPI JUMP JUMPDEST PUSH1 0x40 MLOAD SWAP1 PUSH2 0x52F1 DUP3 PUSH2 0x45CC JUMP JUMPDEST DUP2 PUSH1 0xE0 PUSH1 0x0 SWAP2 DUP3 DUP2 MSTORE DUP3 PUSH1 0x20 DUP3 ADD MSTORE DUP3 PUSH1 0x40 DUP3 ADD MSTORE DUP3 PUSH1 0x60 DUP3 ADD MSTORE DUP3 PUSH1 0x80 DUP3 ADD MSTORE PUSH1 0x60 PUSH1 0xA0 DUP3 ADD MSTORE DUP3 PUSH1 0xC0 DUP3 ADD MSTORE ADD MSTORE JUMP JUMPDEST DUP2 ISZERO PUSH2 0x4CB5 JUMPI MOD SWAP1 JUMP JUMPDEST PUSH1 0x1 SLOAD PUSH1 0x1 PUSH1 0x1 PUSH1 0xA0 SHL SUB AND CALLER SUB PUSH2 0x5341 JUMPI JUMP JUMPDEST PUSH1 0x40 MLOAD PUSH4 0x118CDAA7 PUSH1 0xE0 SHL DUP2 MSTORE CALLER PUSH1 0x4 DUP3 ADD MSTORE PUSH1 0x24 SWAP1 REVERT JUMPDEST PUSH1 0xFF PUSH1 0x1 SLOAD PUSH1 0xA0 SHR AND PUSH2 0x5368 JUMPI JUMP JUMPDEST PUSH1 0x40 MLOAD PUSH4 0xD93C0665 PUSH1 0xE0 SHL DUP2 MSTORE PUSH1 0x4 SWAP1 REVERT JUMPDEST PUSH1 0x12 SLOAD SWAP1 PUSH1 0x0 JUMPDEST DUP3 PUSH1 0x0 MSTORE PUSH1 0x10 PUSH1 0x20 MSTORE PUSH1 0x40 PUSH1 0x0 KECCAK256 DUP1 SLOAD DUP3 LT ISZERO PUSH2 0x53CE JUMPI DUP2 PUSH2 0x53A2 SWAP2 PUSH2 0x4535 JUMP JUMPDEST SWAP1 SLOAD PUSH1 0x3 SWAP2 SWAP1 SWAP2 SHL SHR PUSH1 0x1 PUSH1 0x1 PUSH1 0xA0 SHL SUB SWAP1 DUP2 AND SWAP1 DUP4 AND EQ PUSH2 0x53C6 JUMPI PUSH1 0x1 ADD PUSH2 0x5381 JUMP JUMPDEST POP POP POP PUSH1 0x1 SWAP1 JUMP JUMPDEST POP POP POP POP PUSH1 0x0 SWAP1 JUMP JUMPDEST PUSH1 0x2 PUSH1 0x0 SLOAD EQ PUSH2 0x53E8 JUMPI PUSH1 0x2 PUSH1 0x0 SSTORE JUMP JUMPDEST PUSH1 0x40 MLOAD PUSH4 0x3EE5AEB5 PUSH1 0xE0 SHL DUP2 MSTORE PUSH1 0x4 SWAP1 REVERT JUMPDEST DUP2 ISZERO PUSH2 0x54A0 JUMPI PUSH2 0x3E8 DUP3 GT PUSH2 0x5462 JUMPI PUSH1 0x1 DUP1 PUSH1 0xA0 SHL SUB AND SWAP1 PUSH1 0x0 SWAP1 DUP3 DUP3 MSTORE PUSH1 0x20 SWAP1 DUP2 DUP1 MSTORE PUSH2 0x542C DUP2 PUSH1 0x40 DUP6 KECCAK256 SLOAD PUSH2 0x49FC JUMP JUMPDEST PUSH1 0x64 DUP2 GT PUSH2 0xEF3 JUMPI PUSH1 0x40 SWAP3 PUSH2 0x5459 DUP6 SWAP4 PUSH1 0x1A SWAP4 DUP9 PUSH1 0xE SWAP9 MSTORE DUP4 DUP1 MSTORE DUP7 DUP7 KECCAK256 SSTORE DUP4 DUP4 MSTORE DUP7 DUP7 DUP7 KECCAK256 ADD SLOAD PUSH2 0x49FC JUMP JUMPDEST SWAP6 DUP4 MSTORE MSTORE KECCAK256 ADD SSTORE JUMP JUMPDEST PUSH1 0x40 MLOAD PUSH3 0x461BCD PUSH1 0xE5 SHL DUP2 MSTORE PUSH1 0x20 PUSH1 0x4 DUP3 ADD MSTORE PUSH1 0x16 PUSH1 0x24 DUP3 ADD MSTORE PUSH22 0xA4CAEEC2E4C840C2DADEEADCE840E8DEDE40D0D2CED PUSH1 0x53 SHL PUSH1 0x44 DUP3 ADD MSTORE PUSH1 0x64 SWAP1 REVERT JUMPDEST PUSH1 0x40 MLOAD PUSH3 0x461BCD PUSH1 0xE5 SHL DUP2 MSTORE PUSH1 0x20 PUSH1 0x4 DUP3 ADD MSTORE PUSH1 0x1E PUSH1 0x24 DUP3 ADD MSTORE PUSH32 0x52657761726420616D6F756E74206D75737420626520706F7369746976650000 PUSH1 0x44 DUP3 ADD MSTORE PUSH1 0x64 SWAP1 REVERT JUMPDEST SWAP1 PUSH1 0x40 SWAP1 DUP2 MLOAD SWAP1 PUSH2 0x54F5 DUP3 PUSH2 0x4667 JUMP JUMPDEST PUSH1 0x8 SWAP3 PUSH1 0x8 DUP4 MSTORE PUSH1 0x20 SWAP1 PUSH2 0x100 CALLDATASIZE DUP4 DUP7 ADD CALLDATACOPY PUSH1 0x0 SWAP2 DUP7 DUP4 MSTORE PUSH1 0x1D DUP2 MSTORE PUSH1 0x7 DUP3 DUP5 KECCAK256 ADD SLOAD SWAP2 DUP3 ISZERO PUSH2 0x5634 JUMPI PUSH1 0x2 SLOAD DUP2 MLOAD PUSH4 0x1DAAF1B1 PUSH1 0xE1 SHL DUP2 MSTORE PUSH1 0x4 DUP2 ADD SWAP5 SWAP1 SWAP5 MSTORE PUSH1 0x1 PUSH1 0x1 PUSH1 0xA0 SHL SUB SWAP9 SWAP1 DUP4 SWAP1 DUP6 SWAP1 PUSH1 0x24 SWAP1 DUP3 SWAP1 DUP14 AND GAS STATICCALL SWAP4 DUP5 ISZERO PUSH2 0x562A JUMPI DUP6 SWAP5 PUSH2 0x55F7 JUMPI JUMPDEST POP DUP4 ISZERO PUSH2 0x55EB JUMPI DUP5 MSTORE PUSH1 0xA DUP3 MSTORE DUP1 DUP5 KECCAK256 SWAP5 DUP6 SLOAD SWAP5 DUP6 ISZERO PUSH2 0x55D5 JUMPI JUMPDEST DUP9 DUP2 LT DUP1 PUSH2 0x55E2 JUMPI JUMPDEST ISZERO PUSH2 0x55D5 JUMPI PUSH2 0x55D0 SWAP1 DUP11 PUSH2 0x55B8 PUSH2 0x55B2 DUP10 DUP8 MLOAD DUP10 DUP2 ADD SWAP1 DUP12 DUP3 MSTORE DUP7 DUP11 DUP3 ADD MSTORE DUP10 DUP2 MSTORE PUSH2 0x55AA DUP2 PUSH2 0x4631 JUMP JUMPDEST MLOAD SWAP1 KECCAK256 PUSH2 0x5323 JUMP JUMPDEST DUP11 PUSH2 0x4535 JUMP JUMPDEST SWAP1 SLOAD SWAP1 PUSH1 0x3 SHL SHR AND PUSH2 0x55CA DUP3 DUP12 PUSH2 0x4C29 JUMP JUMPDEST MSTORE PUSH2 0x4C3D JUMP JUMPDEST PUSH2 0x5576 JUMP JUMPDEST POP SWAP8 POP POP POP POP POP POP SWAP1 POP SWAP1 JUMP JUMPDEST POP DUP6 DUP2 LT PUSH2 0x557F JUMP JUMPDEST POP POP POP POP POP SWAP3 POP SWAP1 POP SWAP1 JUMP JUMPDEST SWAP1 SWAP4 POP DUP3 DUP2 DUP2 RETURNDATASIZE DUP4 GT PUSH2 0x5623 JUMPI JUMPDEST PUSH2 0x560F DUP2 DUP4 PUSH2 0x4683 JUMP JUMPDEST DUP2 ADD SUB SLT PUSH2 0x561F JUMPI MLOAD SWAP3 CODESIZE PUSH2 0x555B JUMP JUMPDEST DUP5 DUP1 REVERT JUMPDEST POP RETURNDATASIZE PUSH2 0x5605 JUMP JUMPDEST DUP3 MLOAD RETURNDATASIZE DUP8 DUP3 RETURNDATACOPY RETURNDATASIZE SWAP1 REVERT JUMPDEST POP POP POP POP SWAP3 POP SWAP1 POP SWAP1 JUMP JUMPDEST PUSH1 0x4 PUSH2 0x564B DUP2 SLOAD PUSH2 0x4C3D JUMP JUMPDEST DUP1 DUP3 SSTORE PUSH3 0x15180 TIMESTAMP ADD DUP1 TIMESTAMP GT PUSH2 0x57A6 JUMPI PUSH1 0x40 MLOAD SWAP3 PUSH2 0x5668 DUP5 PUSH2 0x4616 JUMP JUMPDEST PUSH1 0x0 SWAP1 DUP2 DUP6 MSTORE PUSH1 0x40 MLOAD SWAP5 PUSH2 0x567B DUP7 PUSH2 0x45CC JUMP JUMPDEST DUP5 DUP7 MSTORE PUSH1 0x20 SWAP3 DUP4 DUP8 ADD SWAP4 TIMESTAMP DUP6 MSTORE PUSH1 0x40 DUP9 ADD SWAP6 DUP7 MSTORE PUSH1 0x60 DUP9 ADD DUP3 DUP2 MSTORE PUSH1 0x80 DUP10 ADD SWAP1 DUP4 DUP3 MSTORE PUSH1 0xA0 DUP11 ADD SWAP5 DUP6 MSTORE PUSH1 0xC0 DUP11 ADD SWAP8 DUP5 DUP10 MSTORE PUSH1 0xE0 DUP12 ADD SWAP10 DUP6 DUP12 MSTORE DUP6 MSTORE PUSH1 0x1D DUP5 MSTORE PUSH1 0x40 DUP6 KECCAK256 SWAP11 MLOAD DUP12 SSTORE PUSH1 0x1 SWAP8 MLOAD PUSH1 0x1 DUP13 ADD SSTORE MLOAD PUSH1 0x2 DUP12 ADD SSTORE MLOAD PUSH1 0x3 DUP11 ADD SSTORE MLOAD DUP5 DUP10 ADD SSTORE PUSH1 0x5 DUP9 ADD SWAP3 MLOAD DUP1 MLOAD SWAP5 PUSH1 0x1 PUSH1 0x1 PUSH1 0x40 SHL SUB DUP7 GT PUSH2 0x5793 JUMPI PUSH1 0x1 PUSH1 0x40 SHL DUP7 GT PUSH2 0x5793 JUMPI POP DUP2 SWAP1 DUP5 SLOAD DUP7 DUP7 SSTORE DUP1 DUP8 LT PUSH2 0x5769 JUMPI JUMPDEST POP ADD SWAP3 DUP3 MSTORE DUP1 DUP3 KECCAK256 SWAP2 JUMPDEST DUP5 DUP2 LT PUSH2 0x574F JUMPI POP POP POP POP POP POP SWAP1 PUSH2 0x5745 PUSH1 0x7 SWAP3 MLOAD ISZERO ISZERO PUSH1 0x6 DUP6 ADD SWAP1 PUSH1 0xFF DUP1 NOT DUP4 SLOAD AND SWAP2 ISZERO ISZERO AND OR SWAP1 SSTORE JUMP JUMPDEST MLOAD SWAP2 ADD SSTORE TIMESTAMP PUSH1 0x7 SSTORE JUMP JUMPDEST DUP4 MLOAD PUSH1 0x1 PUSH1 0x1 PUSH1 0xA0 SHL SUB AND DUP4 DUP3 ADD SSTORE SWAP3 DUP2 ADD SWAP3 DUP6 ADD PUSH2 0x5719 JUMP JUMPDEST DUP6 DUP6 MSTORE DUP8 DUP8 DUP5 DUP8 KECCAK256 SWAP3 DUP4 ADD SWAP3 ADD JUMPDEST DUP3 DUP2 LT PUSH2 0x5785 JUMPI POP POP PUSH2 0x570F JUMP JUMPDEST DUP7 DUP2 SSTORE DUP6 SWAP5 POP DUP10 SWAP2 ADD PUSH2 0x5777 JUMP JUMPDEST PUSH4 0x4E487B71 PUSH1 0xE0 SHL DUP5 MSTORE PUSH1 0x41 SWAP1 MSTORE PUSH1 0x24 DUP4 REVERT JUMPDEST PUSH1 0x11 DUP4 PUSH4 0x4E487B71 PUSH1 0xE0 SHL PUSH1 0x0 MSTORE MSTORE PUSH1 0x24 PUSH1 0x0 REVERT JUMPDEST PUSH1 0x1 DUP1 PUSH1 0xA0 SHL SUB AND PUSH1 0x0 SWAP1 DUP1 DUP3 MSTORE PUSH1 0x22 PUSH1 0x20 MSTORE PUSH1 0x1E PUSH2 0x57DE PUSH1 0x40 DUP5 KECCAK256 SLOAD TIMESTAMP PUSH2 0x52D7 JUMP JUMPDEST LT PUSH2 0x5812 JUMPI DUP2 MSTORE PUSH1 0x1A PUSH1 0x20 MSTORE PUSH1 0xA PUSH1 0x1 PUSH1 0x40 DUP4 KECCAK256 ADD SLOAD GT PUSH2 0x580C JUMPI PUSH1 0x20 DUP1 MSTORE PUSH1 0x64 PUSH1 0x40 DUP3 KECCAK256 SLOAD GT PUSH2 0x580C JUMPI SWAP1 JUMP JUMPDEST POP PUSH1 0x1 SWAP1 JUMP JUMPDEST POP POP PUSH1 0x1 SWAP1 JUMP JUMPDEST SWAP1 PUSH2 0x5823 DUP3 PUSH2 0x46A4 JUMP JUMPDEST PUSH2 0x5830 PUSH1 0x40 MLOAD SWAP2 DUP3 PUSH2 0x4683 JUMP JUMPDEST DUP3 DUP2 MSTORE DUP1 SWAP3 PUSH2 0x5841 PUSH1 0x1F NOT SWAP2 PUSH2 0x46A4 JUMP JUMPDEST ADD SWAP1 PUSH1 0x20 CALLDATASIZE SWAP2 ADD CALLDATACOPY JUMP JUMPDEST SWAP1 DUP2 MLOAD DUP2 LT ISZERO PUSH2 0x454D JUMPI ADD PUSH1 0x20 ADD SWAP1 JUMP JUMPDEST DUP1 MLOAD PUSH1 0x3 DUP2 LT SWAP1 DUP2 ISZERO PUSH2 0x5A64 JUMPI JUMPDEST POP PUSH2 0x5A5E JUMPI PUSH1 0x0 JUMPDEST DUP2 MLOAD DUP2 LT ISZERO PUSH2 0x592E JUMPI PUSH1 0x1 PUSH1 0x1 PUSH1 0xF8 SHL SUB NOT PUSH2 0x588E DUP3 DUP5 PUSH2 0x584B JUMP JUMPDEST MLOAD AND PUSH1 0x3 PUSH1 0xFC SHL DUP2 LT ISZERO SWAP1 DUP2 PUSH2 0x591F JUMPI JUMPDEST DUP2 ISZERO PUSH2 0x58FB JUMPI JUMPDEST DUP2 ISZERO PUSH2 0x58D7 JUMPI JUMPDEST DUP2 ISZERO PUSH2 0x58C9 JUMPI JUMPDEST POP ISZERO PUSH2 0x58C2 JUMPI PUSH1 0x1 ADD PUSH2 0x5872 JUMP JUMPDEST POP POP PUSH1 0x0 SWAP1 JUMP JUMPDEST PUSH1 0x5F PUSH1 0xF8 SHL EQ SWAP1 POP CODESIZE PUSH2 0x58B4 JUMP JUMPDEST SWAP1 POP PUSH1 0x61 PUSH1 0xF8 SHL DUP2 LT ISZERO DUP1 PUSH2 0x58ED JUMPI JUMPDEST SWAP1 PUSH2 0x58AD JUMP JUMPDEST POP PUSH1 0x3D PUSH1 0xF9 SHL DUP2 GT ISZERO PUSH2 0x58E7 JUMP JUMPDEST SWAP1 POP PUSH1 0x41 PUSH1 0xF8 SHL DUP2 LT ISZERO DUP1 PUSH2 0x5911 JUMPI JUMPDEST SWAP1 PUSH2 0x58A6 JUMP JUMPDEST POP PUSH1 0x2D PUSH1 0xF9 SHL DUP2 GT ISZERO PUSH2 0x590B JUMP JUMPDEST PUSH1 0x39 PUSH1 0xF8 SHL DUP2 GT ISZERO SWAP2 POP PUSH2 0x589F JUMP JUMPDEST POP PUSH1 0x1 JUMPDEST DUP2 MLOAD DUP2 LT ISZERO PUSH2 0x5990 JUMPI PUSH1 0x1 PUSH1 0x1 PUSH1 0xF8 SHL SUB NOT PUSH1 0x5F PUSH1 0xF8 SHL DUP1 DUP3 PUSH2 0x5955 DUP6 DUP8 PUSH2 0x584B JUMP JUMPDEST MLOAD AND EQ SWAP2 DUP3 PUSH2 0x596D JUMPI JUMPDEST POP POP PUSH2 0x58C2 JUMPI PUSH1 0x1 ADD PUSH2 0x5932 JUMP JUMPDEST SWAP1 SWAP2 POP PUSH1 0x0 NOT DUP4 ADD DUP4 DUP2 GT PUSH2 0xEDD JUMPI PUSH2 0x5986 SWAP1 DUP6 PUSH2 0x584B JUMP JUMPDEST MLOAD AND EQ CODESIZE DUP1 PUSH2 0x595F JUMP JUMPDEST POP SWAP1 PUSH2 0x599C DUP3 MLOAD PUSH2 0x5819 JUMP JUMPDEST PUSH1 0x0 JUMPDEST DUP4 MLOAD DUP2 LT ISZERO PUSH2 0x5A44 JUMPI PUSH1 0x1 PUSH1 0x1 PUSH1 0xF8 SHL SUB NOT SWAP1 PUSH1 0x61 PUSH1 0xF8 SHL DUP3 PUSH2 0x59C2 DUP4 DUP9 PUSH2 0x584B JUMP JUMPDEST MLOAD AND LT ISZERO DUP1 PUSH2 0x5A2A JUMPI JUMPDEST ISZERO PUSH2 0x5A08 JUMPI PUSH2 0x59DB DUP2 DUP7 PUSH2 0x584B JUMP JUMPDEST MLOAD PUSH1 0xF8 SWAP3 SWAP1 DUP4 SHR PUSH1 0x1F NOT ADD PUSH1 0xFF DUP2 GT PUSH2 0xEDD JUMPI PUSH1 0x1 SWAP4 SHL AND PUSH1 0x0 BYTE PUSH2 0x5A00 DUP3 DUP6 PUSH2 0x584B JUMP JUMPDEST MSTORE8 JUMPDEST ADD PUSH2 0x599F JUMP JUMPDEST PUSH1 0x1 SWAP2 PUSH2 0x5A15 DUP3 DUP8 PUSH2 0x584B JUMP JUMPDEST MLOAD AND PUSH1 0x0 BYTE PUSH2 0x5A24 DUP3 DUP6 PUSH2 0x584B JUMP JUMPDEST MSTORE8 PUSH2 0x5A02 JUMP JUMPDEST POP PUSH1 0x3D PUSH1 0xF9 SHL DUP3 PUSH2 0x5A3B DUP4 DUP9 PUSH2 0x584B JUMP JUMPDEST MLOAD AND GT ISZERO PUSH2 0x59CC JUMP JUMPDEST POP PUSH2 0x5A50 SWAP2 SWAP3 POP PUSH2 0x5BCC JUMP JUMPDEST PUSH2 0x5A59 JUMPI PUSH1 0x1 SWAP1 JUMP JUMPDEST PUSH1 0x0 SWAP1 JUMP JUMPDEST POP PUSH1 0x0 SWAP1 JUMP JUMPDEST PUSH1 0x32 SWAP2 POP GT CODESIZE PUSH2 0x586A JUMP JUMPDEST SWAP1 PUSH1 0x40 SWAP2 PUSH1 0x40 MLOAD SWAP3 PUSH2 0x5A80 DUP5 PUSH2 0x4667 JUMP JUMPDEST PUSH1 0x8 SWAP3 PUSH1 0x8 DUP6 MSTORE PUSH1 0x20 PUSH2 0x100 CALLDATASIZE PUSH1 0x20 DUP9 ADD CALLDATACOPY PUSH1 0x0 SWAP2 DUP5 PUSH1 0x0 MSTORE PUSH1 0xB PUSH1 0x20 MSTORE PUSH1 0x40 PUSH1 0x0 KECCAK256 SLOAD SWAP1 DUP2 ISZERO PUSH2 0x5B24 JUMPI PUSH1 0x0 JUMPDEST DUP8 DUP2 LT PUSH2 0x5AC0 JUMPI POP POP POP POP POP POP POP POP SWAP1 JUMP JUMPDEST PUSH1 0x1 SWAP1 PUSH2 0x5B05 PUSH2 0x5AF6 DUP6 DUP10 MLOAD DUP9 DUP2 ADD SWAP1 DUP8 DUP3 MSTORE DUP6 DUP13 DUP3 ADD MSTORE TIMESTAMP PUSH1 0x60 DUP3 ADD MSTORE PREVRANDAO PUSH1 0x80 DUP3 ADD MSTORE PUSH1 0xA0 DUP14 DUP2 DUP4 ADD MSTORE DUP2 MSTORE PUSH2 0x55AA DUP2 PUSH2 0x464C JUMP JUMPDEST DUP10 DUP9 MSTORE PUSH1 0xA DUP8 MSTORE DUP9 DUP9 KECCAK256 PUSH2 0x4535 JUMP JUMPDEST DUP4 DUP1 PUSH1 0xA0 SHL SUB SWAP2 SLOAD SWAP1 PUSH1 0x3 SHL SHR AND PUSH2 0x5B1D DUP3 DUP13 PUSH2 0x4C29 JUMP JUMPDEST MSTORE ADD PUSH2 0x5AAE JUMP JUMPDEST POP POP POP POP POP POP POP SWAP1 JUMP JUMPDEST DUP1 ISZERO PUSH2 0x5BAE JUMPI DUP1 PUSH1 0x0 DUP2 DUP1 JUMPDEST PUSH2 0x5B96 JUMPI POP PUSH2 0x5B48 DUP2 PUSH2 0x5819 JUMP JUMPDEST SWAP3 JUMPDEST PUSH2 0x5B53 JUMPI POP POP SWAP1 JUMP JUMPDEST PUSH1 0x0 NOT DUP2 ADD SWAP1 DUP2 GT PUSH2 0xEDD JUMPI DUP1 SWAP2 PUSH1 0xA SWAP2 PUSH1 0x30 DUP4 DUP4 MOD DUP2 ADD DUP1 SWAP2 GT PUSH2 0xEDD JUMPI PUSH1 0xF8 SHL PUSH1 0x1 PUSH1 0x1 PUSH1 0xF8 SHL SUB NOT AND PUSH1 0x0 BYTE SWAP1 PUSH2 0x5B8D SWAP1 DUP7 PUSH2 0x584B JUMP JUMPDEST MSTORE8 DIV SWAP1 DUP2 PUSH2 0x5B4A JUMP JUMPDEST SWAP2 POP PUSH2 0x5BA3 PUSH1 0xA SWAP2 PUSH2 0x4C3D JUMP JUMPDEST SWAP2 DIV DUP1 DUP4 SWAP3 SWAP2 PUSH2 0x5B3A JUMP JUMPDEST POP PUSH1 0x40 MLOAD PUSH2 0x5BBB DUP2 PUSH2 0x45FB JUMP JUMPDEST PUSH1 0x1 DUP2 MSTORE PUSH1 0x3 PUSH1 0xFC SHL PUSH1 0x20 DUP3 ADD MSTORE SWAP1 JUMP JUMPDEST PUSH1 0x40 DUP1 MLOAD SWAP1 PUSH2 0x5BDA DUP3 PUSH2 0x464C JUMP JUMPDEST PUSH1 0x5 DUP3 MSTORE PUSH1 0x0 JUMPDEST PUSH1 0xA0 DUP2 LT PUSH2 0x5D11 JUMPI POP DUP1 MLOAD PUSH2 0x5BF5 DUP2 PUSH2 0x45FB JUMP JUMPDEST PUSH1 0x5 DUP2 MSTORE PUSH5 0x20A226A4A7 PUSH1 0xD9 SHL PUSH1 0x20 DUP3 ADD MSTORE PUSH2 0x5C10 DUP4 PUSH2 0x4BDC JUMP JUMPDEST MSTORE PUSH2 0x5C1A DUP3 PUSH2 0x4BDC JUMP JUMPDEST POP DUP1 MLOAD PUSH2 0x5C26 DUP2 PUSH2 0x45FB JUMP JUMPDEST PUSH1 0x5 DUP2 MSTORE PUSH5 0x27ABA722A9 PUSH1 0xD9 SHL PUSH1 0x20 DUP3 ADD MSTORE PUSH2 0x5C41 DUP4 PUSH2 0x4BE9 JUMP JUMPDEST MSTORE PUSH2 0x5C4B DUP3 PUSH2 0x4BE9 JUMP JUMPDEST POP DUP1 MLOAD PUSH2 0x5C57 DUP2 PUSH2 0x45FB JUMP JUMPDEST PUSH1 0x6 DUP2 MSTORE PUSH6 0x53595354454D PUSH1 0xD0 SHL PUSH1 0x20 DUP3 ADD MSTORE PUSH2 0x5C73 DUP4 PUSH2 0x4BF9 JUMP JUMPDEST MSTORE PUSH2 0x5C7D DUP3 PUSH2 0x4BF9 JUMP JUMPDEST POP DUP1 MLOAD PUSH2 0x5C89 DUP2 PUSH2 0x45FB JUMP JUMPDEST PUSH1 0x4 DUP2 MSTORE PUSH4 0x13955313 PUSH1 0xE2 SHL PUSH1 0x20 DUP3 ADD MSTORE PUSH2 0x5CA3 DUP4 PUSH2 0x4C09 JUMP JUMPDEST MSTORE PUSH2 0x5CAD DUP3 PUSH2 0x4C09 JUMP JUMPDEST POP MLOAD PUSH2 0x5CB8 DUP2 PUSH2 0x45FB JUMP JUMPDEST PUSH1 0x4 DUP2 MSTORE PUSH4 0x151154D5 PUSH1 0xE2 SHL PUSH1 0x20 DUP3 ADD MSTORE PUSH2 0x5CD2 DUP3 PUSH2 0x4C19 JUMP JUMPDEST MSTORE PUSH2 0x5CDC DUP2 PUSH2 0x4C19 JUMP JUMPDEST POP PUSH1 0x0 JUMPDEST DUP2 MLOAD DUP2 LT ISZERO PUSH2 0x5D09 JUMPI PUSH2 0x5CFD PUSH2 0x5CF6 DUP3 DUP5 PUSH2 0x4C29 JUMP JUMPDEST MLOAD DUP5 PUSH2 0x5D22 JUMP JUMPDEST PUSH2 0x53C6 JUMPI PUSH1 0x1 ADD PUSH2 0x5CE0 JUMP JUMPDEST POP POP POP PUSH1 0x0 SWAP1 JUMP JUMPDEST DUP1 PUSH1 0x60 PUSH1 0x20 DUP1 SWAP4 DUP7 ADD ADD MSTORE ADD PUSH2 0x5BE1 JUMP JUMPDEST SWAP1 DUP1 MLOAD DUP3 MLOAD LT PUSH2 0x58C2 JUMPI PUSH1 0x0 SWAP1 JUMPDEST PUSH2 0x5D3D DUP4 MLOAD DUP3 MLOAD SWAP1 PUSH2 0x52D7 JUMP JUMPDEST DUP3 GT PUSH2 0x5D09 JUMPI PUSH1 0x1 SWAP3 PUSH1 0x0 JUMPDEST DUP3 MLOAD DUP2 LT ISZERO PUSH2 0x5DA5 JUMPI PUSH1 0x1 PUSH1 0x1 PUSH1 0xF8 SHL SUB NOT DUP1 PUSH2 0x5D6F PUSH2 0x5D69 DUP5 DUP9 PUSH2 0x49FC JUMP JUMPDEST DUP6 PUSH2 0x584B JUMP JUMPDEST MLOAD AND SWAP1 PUSH2 0x5D7C DUP4 DUP7 PUSH2 0x584B JUMP JUMPDEST MLOAD AND SUB PUSH2 0x5D8B JUMPI PUSH1 0x1 ADD PUSH2 0x5D49 JUMP JUMPDEST POP SWAP3 POP SWAP1 PUSH1 0x0 JUMPDEST PUSH2 0x53C6 JUMPI PUSH2 0x5D9F SWAP1 PUSH2 0x4C3D JUMP JUMPDEST SWAP1 PUSH2 0x5D30 JUMP JUMPDEST POP SWAP3 SWAP2 SWAP1 SWAP2 PUSH2 0x5D92 JUMP INVALID SWAP8 PUSH7 0x7070C54EF182B0 CREATE2 DUP6 DUP12 SUB 0x4B 0xEA 0xC1 0xB6 RETURN ADDMOD SWAP11 LOG2 0xD3 XOR DUP12 0xB1 0xE8 SWAP3 SWAP16 0x4F 0xA9 0xB9 0x29 NOT MLOAD DUP9 0xE7 0xE2 0xA9 0xC9 CHAINID 0xC9 SGT OR SWAP5 PUSH1 0x30 BLOBHASH 0xC EXTCODESIZE LOG4 DUP11 JUMPDEST PUSH32 0x867101928826FA4CC609C5A2646970667358221220531353AB3CE8B53F4EAFD6 0xED COINBASE 0xD8 0xDA 0xCB MLOAD XOR SHL PUSH11 0xCF1236DA3E31810F91EAB4 0xEC PUSH5 0x736F6C6343 STOP ADDMOD XOR STOP CALLER "},"methodIdentifiers":{"ADMIN_ROLE()":"75b238fc","AUDITOR_ROLE()":"6e1d616e","BASE_SEPOLIA_HOLDING_REWARD()":"8c267e0d","BATCH_SIZE()":"49faa4d4","DAILY_PLAY_REWARD()":"dd23b9cb","DAILY_WINNERS_COUNT()":"16fa1086","DOLLAR_ENTRY_FEE()":"c5d32157","EMERGENCY_ROLE()":"20df4359","ENTRY_COOLDOWN()":"a9b8b451","FIRST_ORDER_REWARD()":"69396e88","GAS_OPTIMIZATION_INTERVAL()":"a37c1572","JACKPOT_ENTRY_COST()":"4b75344e","JACKPOT_MULTIPLIER()":"7a7eb1f4","LOYALTY_POINTS_PER_DOLLAR()":"f8172fe3","MAX_DAILY_ENTRIES()":"bbc3ced7","MAX_DAILY_REWARDS()":"d136a94d","MAX_JACKPOT_ENTRIES()":"39d8ea42","MAX_PRICE_DEVIATION()":"96f277b7","MAX_REFERRAL_CODE_LENGTH()":"9b95f1fc","MAX_REWARD_AMOUNT()":"a04f6b4b","MIN_BASE_SEPOLIA_HOLDING()":"9b5a139a","MIN_REFERRAL_CODE_LENGTH()":"e443e279","OPERATOR_ROLE()":"f5b541a6","PRICE_UPDATE_THRESHOLD()":"098655d9","REFERRAL_REWARD()":"84a3a0f3","STREAK_BONUS()":"bcf64475","WEEKLY_WINNERS_COUNT()":"0d9f92ca","addJackpotEntry()":"b87fc22d","awardBaseSepoliaHoldingsToppings()":"d5fa40e3","awardLoyaltyPoints()":"74631fd7","awardStreakBonus()":"25b7f388","batchProcessingActive(uint256)":"bf757624","batchProcessingNonce(uint256)":"79675127","blacklistedAddresses(address)":"d5749d42","claimFirstOrderReward()":"e22cb9c9","claimWeeklyChallengeReward(uint256)":"2618cafd","contributeEntropy(bytes32)":"1472cbe3","createReferralCode()":"2e108d1c","currentDailyJackpot()":"e3d440a7","currentRandomnessRound()":"bb6bf0f0","currentWeeklyJackpot()":"3bb4f638","dailyPlayerCount(uint256)":"ffc39504","dailyPlayers(uint256,uint256)":"4eb692a5","drawDailyWinners()":"3fb83a54","drawWeeklyWinners()":"52861f7f","emergencyPause(bool)":"e8f6940e","emergencyUnlockGame(uint256)":"e82aefc7","emergencyWithdraw()":"db2e21bc","enterDailyGame(string)":"5c27b2e4","entropyContributions(uint256)":"cf376677","entropyContributors(uint256,uint256)":"0c89d127","entropyRoundId()":"59db6fe6","gameStateLocked(uint256)":"2a243f19","games(uint256)":"117a5b90","gasOptimizationThreshold()":"ee892e64","generateSecureRandomness()":"cb955e6b","getCurrentEntryFee()":"0aa01695","getCurrentGame()":"968d901b","getCurrentVMFPrice()":"786a78c6","getGame(uint256)":"a2f77bcc","getGasUsageStats()":"aea664a5","getJackpotState(uint256)":"3f781412","getPlayerInfo(address)":"59328401","getReferralInfo(address)":"21874ae2","grantRole(bytes32,address)":"2f2ff15d","hasEnteredToday(address)":"ba53ba24","hasRole(bytes32,address)":"91d14854","jackpotStateHash(uint256)":"67cafabb","jackpotUpdateCooldown()":"b8caead6","jackpotUpdateNonce(uint256)":"d2111791","lastDailyDraw()":"7550b84f","lastEntropyUpdate()":"2ee8b778","lastGasOptimization()":"28100aca","lastJackpotUpdate()":"19bf155d","lastWeeklyDraw()":"c14e1e05","optimizeGasUsage()":"59a9867e","owner()":"8da5cb5b","paused()":"5c975abb","players(address)":"e2eb41ff","priceOracle()":"2630c12f","processBatchPlayers(address[],uint256[])":"3a65126a","randomnessContract()":"41fe39ec","randomnessSeeds(uint256)":"a88066f7","referralCodes(string)":"2655e840","referrals(address)":"9ca423b3","renounceOwnership()":"715018a6","requestDailyRandomness()":"0b00a5db","revealRandomness(uint256,uint256,bytes32)":"a154fc6b","revokeRole(bytes32,address)":"d547741f","roleAdmins(bytes32)":"8543210d","roles(bytes32,address)":"f8fc08b9","selectDailyWinners()":"eb0fb2c8","setJackpotUpdateCooldown(uint256)":"6ce497b2","setPlayerBlacklist(address,bool)":"43f2a080","setRoleAdmin(bytes32,address)":"ad763192","submitRandomnessCommitment(uint256,bytes32)":"e3505b14","transferOwnership(address)":"f2fde38b","updateJackpotAtomic(uint256,uint256,bytes32)":"71e4206d","userDailyRewards(address)":"2ff7a52d","userLastActivity(address)":"77ce2992","userRateLimitEnd(address)":"03fa2c63","vmfToken()":"2086eefa","weeklyChallenges(uint256)":"4f55e8ad","weeklyPlayerCount(uint256)":"d61b86bb","weeklyPlayers(uint256,uint256)":"920736e5"}}}}}