{"contracts/PizzaPartyCore.sol":{"PizzaPartyCore":{"abi":[{"inputs":[{"internalType":"address","name":"_vmfToken","type":"address"}],"stateMutability":"nonpayable","type":"constructor"},{"inputs":[],"name":"EnforcedPause","type":"error"},{"inputs":[],"name":"ExpectedPause","type":"error"},{"inputs":[{"internalType":"address","name":"owner","type":"address"}],"name":"OwnableInvalidOwner","type":"error"},{"inputs":[{"internalType":"address","name":"account","type":"address"}],"name":"OwnableUnauthorizedAccount","type":"error"},{"inputs":[],"name":"ReentrancyGuardReentrantCall","type":"error"},{"anonymous":false,"inputs":[{"indexed":false,"internalType":"uint256","name":"gameId","type":"uint256"},{"indexed":false,"internalType":"address[]","name":"winners","type":"address[]"},{"indexed":false,"internalType":"uint256","name":"jackpot","type":"uint256"}],"name":"DailyWinnersSelected","type":"event"},{"anonymous":false,"inputs":[{"indexed":false,"internalType":"uint256","name":"dailyJackpot","type":"uint256"},{"indexed":false,"internalType":"uint256","name":"weeklyJackpot","type":"uint256"}],"name":"JackpotUpdated","type":"event"},{"anonymous":false,"inputs":[{"indexed":true,"internalType":"address","name":"previousOwner","type":"address"},{"indexed":true,"internalType":"address","name":"newOwner","type":"address"}],"name":"OwnershipTransferred","type":"event"},{"anonymous":false,"inputs":[{"indexed":false,"internalType":"address","name":"account","type":"address"}],"name":"Paused","type":"event"},{"anonymous":false,"inputs":[{"indexed":true,"internalType":"address","name":"player","type":"address"},{"indexed":false,"internalType":"bool","name":"blacklisted","type":"bool"}],"name":"PlayerBlacklisted","type":"event"},{"anonymous":false,"inputs":[{"indexed":true,"internalType":"address","name":"player","type":"address"},{"indexed":true,"internalType":"uint256","name":"gameId","type":"uint256"},{"indexed":false,"internalType":"uint256","name":"amount","type":"uint256"}],"name":"PlayerEntered","type":"event"},{"anonymous":false,"inputs":[{"indexed":true,"internalType":"address","name":"player","type":"address"},{"indexed":false,"internalType":"uint256","name":"amount","type":"uint256"},{"indexed":false,"internalType":"string","name":"reason","type":"string"}],"name":"ToppingsAwarded","type":"event"},{"anonymous":false,"inputs":[{"indexed":false,"internalType":"address","name":"account","type":"address"}],"name":"Unpaused","type":"event"},{"anonymous":false,"inputs":[{"indexed":false,"internalType":"uint256","name":"gameId","type":"uint256"},{"indexed":false,"internalType":"address[]","name":"winners","type":"address[]"},{"indexed":false,"internalType":"uint256","name":"jackpot","type":"uint256"}],"name":"WeeklyWinnersSelected","type":"event"},{"inputs":[],"name":"DAILY_PLAY_REWARD","outputs":[{"internalType":"uint256","name":"","type":"uint256"}],"stateMutability":"view","type":"function"},{"inputs":[],"name":"DAILY_WINNERS_COUNT","outputs":[{"internalType":"uint256","name":"","type":"uint256"}],"stateMutability":"view","type":"function"},{"inputs":[],"name":"ENTRY_COOLDOWN","outputs":[{"internalType":"uint256","name":"","type":"uint256"}],"stateMutability":"view","type":"function"},{"inputs":[],"name":"MAX_DAILY_ENTRIES","outputs":[{"internalType":"uint256","name":"","type":"uint256"}],"stateMutability":"view","type":"function"},{"inputs":[],"name":"MIN_VMF_REQUIRED","outputs":[{"internalType":"uint256","name":"","type":"uint256"}],"stateMutability":"view","type":"function"},{"inputs":[],"name":"WEEKLY_WINNERS_COUNT","outputs":[{"internalType":"uint256","name":"","type":"uint256"}],"stateMutability":"view","type":"function"},{"inputs":[{"internalType":"uint256","name":"amount","type":"uint256"}],"name":"addToDailyJackpot","outputs":[],"stateMutability":"nonpayable","type":"function"},{"inputs":[{"internalType":"uint256","name":"amount","type":"uint256"}],"name":"addToWeeklyJackpot","outputs":[],"stateMutability":"nonpayable","type":"function"},{"inputs":[{"internalType":"address","name":"","type":"address"}],"name":"blacklistedAddresses","outputs":[{"internalType":"bool","name":"","type":"bool"}],"stateMutability":"view","type":"function"},{"inputs":[],"name":"currentDailyJackpot","outputs":[{"internalType":"uint256","name":"","type":"uint256"}],"stateMutability":"view","type":"function"},{"inputs":[],"name":"currentWeeklyJackpot","outputs":[{"internalType":"uint256","name":"","type":"uint256"}],"stateMutability":"view","type":"function"},{"inputs":[{"internalType":"uint256","name":"","type":"uint256"}],"name":"dailyPlayerCount","outputs":[{"internalType":"uint256","name":"","type":"uint256"}],"stateMutability":"view","type":"function"},{"inputs":[{"internalType":"uint256","name":"","type":"uint256"},{"internalType":"uint256","name":"","type":"uint256"}],"name":"dailyPlayers","outputs":[{"internalType":"address","name":"","type":"address"}],"stateMutability":"view","type":"function"},{"inputs":[{"internalType":"bool","name":"pause","type":"bool"}],"name":"emergencyPause","outputs":[],"stateMutability":"nonpayable","type":"function"},{"inputs":[],"name":"emergencyWithdraw","outputs":[],"stateMutability":"nonpayable","type":"function"},{"inputs":[],"name":"enterDailyGame","outputs":[],"stateMutability":"nonpayable","type":"function"},{"inputs":[],"name":"getCurrentGameId","outputs":[{"internalType":"uint256","name":"gameId","type":"uint256"}],"stateMutability":"view","type":"function"},{"inputs":[],"name":"getDailyJackpot","outputs":[{"internalType":"uint256","name":"","type":"uint256"}],"stateMutability":"view","type":"function"},{"inputs":[{"internalType":"uint256","name":"gameId","type":"uint256"}],"name":"getEligibleDailyPlayers","outputs":[{"internalType":"address[]","name":"eligiblePlayers","type":"address[]"}],"stateMutability":"view","type":"function"},{"inputs":[{"internalType":"uint256","name":"gameId","type":"uint256"}],"name":"getEligibleWeeklyPlayers","outputs":[{"internalType":"address[]","name":"eligiblePlayers","type":"address[]"}],"stateMutability":"view","type":"function"},{"inputs":[],"name":"getMinimumVMFRequired","outputs":[{"internalType":"uint256","name":"","type":"uint256"}],"stateMutability":"view","type":"function"},{"inputs":[{"internalType":"address","name":"player","type":"address"}],"name":"getPlayerInfo","outputs":[{"components":[{"internalType":"uint256","name":"totalToppings","type":"uint256"},{"internalType":"uint256","name":"dailyEntries","type":"uint256"},{"internalType":"uint256","name":"weeklyEntries","type":"uint256"},{"internalType":"uint256","name":"lastEntryTime","type":"uint256"},{"internalType":"uint256","name":"vmfBalance","type":"uint256"},{"internalType":"bool","name":"isBlacklisted","type":"bool"}],"internalType":"struct PizzaPartyCore.Player","name":"","type":"tuple"}],"stateMutability":"view","type":"function"},{"inputs":[{"internalType":"address","name":"player","type":"address"}],"name":"getPlayerToppings","outputs":[{"internalType":"uint256","name":"","type":"uint256"}],"stateMutability":"view","type":"function"},{"inputs":[{"internalType":"address","name":"player","type":"address"}],"name":"getPlayerVMFBalance","outputs":[{"internalType":"uint256","name":"","type":"uint256"}],"stateMutability":"view","type":"function"},{"inputs":[],"name":"getTotalToppingsClaimed","outputs":[{"internalType":"uint256","name":"","type":"uint256"}],"stateMutability":"view","type":"function"},{"inputs":[],"name":"getWeeklyJackpot","outputs":[{"internalType":"uint256","name":"","type":"uint256"}],"stateMutability":"view","type":"function"},{"inputs":[],"name":"isDailyDrawReady","outputs":[{"internalType":"bool","name":"ready","type":"bool"}],"stateMutability":"view","type":"function"},{"inputs":[],"name":"isWeeklyDrawReady","outputs":[{"internalType":"bool","name":"ready","type":"bool"}],"stateMutability":"view","type":"function"},{"inputs":[],"name":"lastDailyDraw","outputs":[{"internalType":"uint256","name":"","type":"uint256"}],"stateMutability":"view","type":"function"},{"inputs":[],"name":"lastWeeklyDraw","outputs":[{"internalType":"uint256","name":"","type":"uint256"}],"stateMutability":"view","type":"function"},{"inputs":[],"name":"owner","outputs":[{"internalType":"address","name":"","type":"address"}],"stateMutability":"view","type":"function"},{"inputs":[],"name":"paused","outputs":[{"internalType":"bool","name":"","type":"bool"}],"stateMutability":"view","type":"function"},{"inputs":[{"internalType":"address","name":"","type":"address"}],"name":"players","outputs":[{"internalType":"uint256","name":"totalToppings","type":"uint256"},{"internalType":"uint256","name":"dailyEntries","type":"uint256"},{"internalType":"uint256","name":"weeklyEntries","type":"uint256"},{"internalType":"uint256","name":"lastEntryTime","type":"uint256"},{"internalType":"uint256","name":"vmfBalance","type":"uint256"},{"internalType":"bool","name":"isBlacklisted","type":"bool"}],"stateMutability":"view","type":"function"},{"inputs":[{"internalType":"uint256","name":"gameId","type":"uint256"},{"internalType":"address[]","name":"winners","type":"address[]"}],"name":"processDailyWinners","outputs":[],"stateMutability":"nonpayable","type":"function"},{"inputs":[{"internalType":"uint256","name":"gameId","type":"uint256"},{"internalType":"address[]","name":"winners","type":"address[]"}],"name":"processWeeklyWinners","outputs":[],"stateMutability":"nonpayable","type":"function"},{"inputs":[],"name":"renounceOwnership","outputs":[],"stateMutability":"nonpayable","type":"function"},{"inputs":[{"internalType":"address","name":"player","type":"address"},{"internalType":"bool","name":"blacklisted","type":"bool"}],"name":"setPlayerBlacklist","outputs":[],"stateMutability":"nonpayable","type":"function"},{"inputs":[{"internalType":"address","name":"newOwner","type":"address"}],"name":"transferOwnership","outputs":[],"stateMutability":"nonpayable","type":"function"},{"inputs":[],"name":"vmfToken","outputs":[{"internalType":"contract IERC20","name":"","type":"address"}],"stateMutability":"view","type":"function"},{"inputs":[{"internalType":"uint256","name":"","type":"uint256"}],"name":"weeklyPlayerCount","outputs":[{"internalType":"uint256","name":"","type":"uint256"}],"stateMutability":"view","type":"function"},{"inputs":[{"internalType":"uint256","name":"","type":"uint256"},{"internalType":"uint256","name":"","type":"uint256"}],"name":"weeklyPlayers","outputs":[{"internalType":"address","name":"","type":"address"}],"stateMutability":"view","type":"function"}],"evm":{"bytecode":{"linkReferences":{},"object":"60a03461013d57601f61192538819003918201601f19168301916001600160401b038311848410176101425780849260209460405283398101031261013d57516001600160a01b038082169182900361013d57600160005533156101245760018054336001600160a01b03198216811790925560405192167f8be0079c531659141344cd1fd0a4f28419497f9722a3daafe3b4186f6b6457e0600080a381156100e2575060805260028055426005556040516117cc908161015982396080518181816104970152818161090d01528181610c55015281816110ff01526112b10152f35b62461bcd60e51b815260206004820152601960248201527f496e76616c696420564d4620746f6b656e2061646472657373000000000000006044820152606490fd5b604051631e4fbdf760e01b815260006004820152602490fd5b600080fd5b634e487b7160e01b600052604160045260246000fdfe6040608081526004908136101561001557600080fd5b600091823560e01c80630d9f92ca146113635780631303b3c81461134857806314e0ebef146112fc57806316fa1086146112e05780632086eefa1461129c5780632efb53da1461126b5780633bb4f63814610b2d57806343f2a080146111cb5780634eb692a51461119857806356768b5e1461101b5780635932840114610f4b5780635c975abb14610f245780635ff6240314610bb4578063715018a614610b695780637550b84f14610b4a57806379f329d914610b2d578063821c27ad14610af55780638b0a234c146102c15780638c5747af14610aa95780638da5cb5b14610a80578063920736e514610a345780639e9e405614610800578063a2635401146107e1578063a9b8b451146107c4578063aab40f31146103b1578063bacf46f314610749578063bbc3ced714610744578063c14e1e0514610725578063c65a8568146106e1578063ccb60e0114610662578063d5749d4214610624578063d61b86bb146105fd578063db2e21bc1461045e578063dd23b9cb14610442578063e2eb41ff146103d0578063e3d440a7146103b1578063e8f6940e146102e5578063eac9f124146102c1578063f2fde38b1461024a578063fc5645141461020e5763ffc39504146101e457600080fd5b3461020a57602036600319011261020a5760209282913581526008845220549051908152f35b8280fd5b5050346102465760203660031901126102465760209181906001600160a01b03610236611384565b168152600b845220549051908152f35b5080fd5b503461020a57602036600319011261020a57610264611384565b9061026d6116e9565b6001600160a01b039182169283156102ab575050600180546001600160a01b031981168417909155166000805160206117578339815191528380a380f35b51631e4fbdf760e01b8152908101849052602490fd5b5050346102465781600319360112610246576020905168056bc75e2d631000008152f35b503461020a57602036600319011261020a57803580151581036103ad5761030a6116e9565b15610357575060207f62e78cea01bee320cd4e420270b5ea74000d11b0c9f74754ebdbfc544b05a2589161033c611715565b6001805460ff60a01b1916600160a01b17905551338152a180f35b6001549060ff8260a01c161561039f575060ff60a01b1916600155513381527f5db9ee0a495bf2e6ff9c91a7834c1ba4fdd244a5e8aa4e537bd38aeae4b073aa90602090a180f35b8251638dfc202b60e01b8152fd5b8380fd5b5050346102465781600319360112610246576020906003549051908152f35b50903461020a57602036600319011261020a5760c09281906001600160a01b036103f8611384565b168152600b6020522080549260018201549260028301549060ff600560038601549486015495015416948151968752602087015285015260608401526080830152151560a0820152f35b5050346102465781600319360112610246576020905160018152f35b50903461020a578260031936011261020a576104786116e9565b80516370a0823160e01b81523083820152602091906001600160a01b037f00000000000000000000000000000000000000000000000000000000000000008116908483602481855afa9283156105f35787936105c0575b508215610584579184916104fc936001541688865180968195829463a9059cbb60e01b84528c84016115cf565b03925af190811561057a57859161054d575b5015610518578380f35b5162461bcd60e51b815291820152601160248201527015da5d1a191c985dd85b0819985a5b1959607a1b604482015260649150fd5b61056d9150833d8511610573575b6105658183611594565b8101906115b7565b3861050e565b503d61055b565b82513d87823e3d90fd5b835162461bcd60e51b815280870186905260166024820152754e6f2062616c616e636520746f20776974686472617760501b6044820152606490fd5b9092508481813d83116105ec575b6105d88183611594565b810103126105e8575191386104cf565b8680fd5b503d6105ce565b84513d89823e3d90fd5b503461020a57602036600319011261020a576020928291358152600a845220549051908152f35b5050346102465760203660031901126102465760209160ff9082906001600160a01b0361064f611384565b168152600c855220541690519015158152f35b5082903461024657602090602060031936011261020a573591828152600a6020528381205491610691836116a3565b93825b8481106106ac578651806106a8888261142e565b0390f35b600190828552600984526106c2818987206113b0565b838060a01b0391549060031b1c166106da82896116d5565b5201610694565b509190346102465781600319360112610246576006549162093a808301809311610712576020838351904210158152f35b634e487b7160e01b815260118452602490fd5b5050346102465781600319360112610246576020906006549051908152f35b611363565b5082903461024657602090602060031936011261020a57359182815260086020528381205491610778836116a3565b93825b84811061078f578651806106a8888261142e565b600190828552600784526107a5818987206113b0565b838060a01b0391549060031b1c166107bd82896116d5565b520161077b565b50503461024657816003193601126102465760209051610e108152f35b5050346102465781600319360112610246576020906002549051908152f35b5091903461024657610811366113de565b600180549294926001600160a01b039061082e9082163314611496565b6108398315156114dd565b6108458360035461151f565b875b8481106108b55789897fdd1c72fcda97fcfc2fe124c4aa194986caca752d3769c00a6495659509d7b19b8a8a6108868b8b6003549151948594856115ea565b0390a160025460001981146108a2576001016002554260055580f35b506011602492634e487b7160e01b835252fd5b80836108cb6108c68794898d61153f565b61154f565b166108d7575b01610847565b90506108e76108c682878b61153f565b865163a9059cbb60e01b81528b818c818061090889602098899784016115cf565b0391897f0000000000000000000000000000000000000000000000000000000000000000165af1908115610a2a578b91610a0d575b50156109d957836109526108c684898d61153f565b168a52600b8152868a208054600a918282018092116109c5578493928a886109948f8c998e6108c692600080516020611777833981519152996080995561153f565b1694815192835282015260128b820152714461696c792077696e6e657220626f6e757360701b6060820152a26108d1565b50634e487b7160e01b8c5260118d5260248cfd5b8a60649188519162461bcd60e51b8352820152600f60248201526e151c985b9cd9995c8819985a5b1959608a1b6044820152fd5b610a249150823d8411610573576105658183611594565b3861093d565b88513d8d823e3d90fd5b50503461024657610a443661139a565b929081526009602052818120908154841015610a7d5750602092610a67916113b0565b905491519160018060a01b039160031b1c168152f35b80fd5b50503461024657816003193601126102465760015490516001600160a01b039091168152602090f35b50903461020a57602036600319011261020a5760008051602061173783398151915291610ad46116e9565b610ae18135600354611473565b90816003555482519182526020820152a180f35b503461020a57602036600319011261020a5760209282906001600160a01b03610b1c611384565b168152600b85522001549051908152f35b503461020a578260031936011261020a5760209250549051908152f35b5050346102465781600319360112610246576020906005549051908152f35b8334610a7d5780600319360112610a7d57610b826116e9565b600180546001600160a01b0319811690915581906001600160a01b03166000805160206117578339815191528280a380f35b508290346102465781600319360112610246576002825414610f165760028255610bdc611715565b338252602092600c8452610bf660ff828520541615611648565b338352600b91828552610c1260ff600584872001541615611648565b33845282855260038285200154610e108101809111610f03574210610ecc5781516370a0823160e01b81523382820152602495906001600160a01b0390828189817f000000000000000000000000000000000000000000000000000000000000000086165afa908115610ec2578791610e95575b5068056bc75e2d631000008110610e5857338752858352600195600a87878a2001541015610e1a57338852808452868689200154878101809111610e085733895281855286892090888201554260038201555490878201809211610e08573389528452858820908155840155600254865260078252838620805490600160401b821015610df65790610d1c9187820181556113b0565b819291549060031b9133831b921b1916179055600254808652600882528386205490858201809211610de4578660008051602061173783398151915296979850526008825283872055825185815283828201526011848201527011185a5b1e481c1b185e481c995dd85c99607a1b606082015260008051602061177783398151915260803392a260025483518781527f480a6daea81f2af589e1959da1f1719512392ec551e8966266ee820f1c1f72ea833392a36003549154908351928352820152a1815580f35b634e487b7160e01b8752601184528787fd5b634e487b7160e01b8852604185528888fd5b634e487b7160e01b8952601186528989fd5b855162461bcd60e51b81528086018590526019818b01527813585e0819185a5b1e48195b9d1c9a595cc81c995858da1959603a1b6044820152606490fd5b845162461bcd60e51b81528085018490526018818a015277496e73756666696369656e7420564d462062616c616e636560401b6044820152606490fd5b90508281813d8311610ebb575b610eac8183611594565b810103126105e8575188610c86565b503d610ea2565b85513d89823e3d90fd5b84606492519162461bcd60e51b8352820152601360248201527214985d19481b1a5b5a5d08195e18d959591959606a1b6044820152fd5b634e487b7160e01b855260118252602485fd5b8251633ee5aeb560e01b8152fd5b50503461024657816003193601126102465760209060ff60015460a01c1690519015158152f35b503461020a57602036600319011261020a578160c093610f69611384565b8160a08451610f7781611563565b8281528260208201528286820152826060820152826080820152015260018060a01b03168152600b60205220825191610faf83611563565b81549384845260018301546020850190815260028401549082860191825260a060ff600560038801549660608a019788528801549760808a01988952015416960195151586528251968752516020870152519085015251606084015251608083015251151560a0820152f35b508290346102465761102c366113de565b60018054939692936001600160a01b039061104a9082163314611496565b6110558315156114dd565b61106083875461151f565b875b8481106110ac578880897f266eab4e9078d52ec3f1266d5b3619a11040584ef2997fdea8afa3c03fa559778a8e6110a18c8c86549151948594856115ea565b0390a1554260065580f35b80836110bd6108c68794898c61153f565b166110c9575b01611062565b90506110d96108c682878a61153f565b865163a9059cbb60e01b815289818c81806110fa89602098899784016115cf565b0391897f0000000000000000000000000000000000000000000000000000000000000000165af1908115610a2a578b9161117b575b501561113d575083906110c3565b8860649188519162461bcd60e51b83528201526019602482015278159351881c1c9a5e99481d1c985b9cd9995c8819985a5b1959603a1b6044820152fd5b6111929150823d8411610573576105658183611594565b8c61112f565b505034610246576111a83661139a565b929081526007602052818120908154841015610a7d5750602092610a67916113b0565b5050346102465780600319360112610246576111e5611384565b9060243591821515808403611267577f7c6a5677e7a854a53d06c412e00ebe65535f5343566ca7939ac7c7f6b0b00c169261125f6020936112246116e9565b6001600160a01b0316808852600c8552828820805497151560ff1660ff199889168117909155600b8652838920600501805490981617909655565b51908152a280f35b8480fd5b5091903461024657816003193601126102465760055491620151808301809311610712576020838351904210158152f35b505034610246578160031936011261024657517f00000000000000000000000000000000000000000000000000000000000000006001600160a01b03168152602090f35b5050346102465781600319360112610246576020905160088152f35b50903461020a57602036600319011261020a57600080516020611737833981519152916113276116e9565b61133381358254611473565b8091556003549082519182526020820152a180f35b50503461024657816003193601126102465751908152602090f35b3461137f57600036600319011261137f576020604051600a8152f35b600080fd5b600435906001600160a01b038216820361137f57565b604090600319011261137f576004359060243590565b80548210156113c85760005260206000200190600090565b634e487b7160e01b600052603260045260246000fd5b604060031982011261137f57600435916001600160401b03916024359083821161137f578060238301121561137f57816004013593841161137f5760248460051b8301011161137f576024019190565b602090602060408183019282815285518094520193019160005b828110611456575050505090565b83516001600160a01b031685529381019392810192600101611448565b9190820180921161148057565b634e487b7160e01b600052601160045260246000fd5b1561149d57565b60405162461bcd60e51b81526020600482015260186024820152774f6e6c79206f776e65722063616e2063616c6c207468697360401b6044820152606490fd5b156114e457565b60405162461bcd60e51b8152602060048201526013602482015272139bc81dda5b9b995c9cc81c1c9bdd9a591959606a1b6044820152606490fd5b8115611529570490565b634e487b7160e01b600052601260045260246000fd5b91908110156113c85760051b0190565b356001600160a01b038116810361137f5790565b60c081019081106001600160401b0382111761157e57604052565b634e487b7160e01b600052604160045260246000fd5b601f909101601f19168101906001600160401b0382119082101761157e57604052565b9081602091031261137f5751801515810361137f5790565b6001600160a01b039091168152602081019190915260400190565b908152606060208083018290529082018490529094939260808601916000805b83821061161e575050505060409150930152565b90919293853560018060a01b03811680910361020a5781529483019483019392916001019061160a565b1561164f57565b60405162461bcd60e51b8152602060048201526015602482015274141b185e595c881a5cc8189b1858dadb1a5cdd1959605a1b6044820152606490fd5b6001600160401b03811161157e5760051b60200190565b906116ad8261168c565b6116ba6040519182611594565b82815280926116cb601f199161168c565b0190602036910137565b80518210156113c85760209160051b010190565b6001546001600160a01b031633036116fd57565b60405163118cdaa760e01b8152336004820152602490fd5b60ff60015460a01c1661172457565b60405163d93c066560e01b8152600490fdfe404449b42e86f8716dd5ac141731fb164fe1f76d7e4039fdd16c7b3b48f96a4e8be0079c531659141344cd1fd0a4f28419497f9722a3daafe3b4186f6b6457e0195188e7e2a9c946c91317946030490c3ba48a5b7f867101928826fa4cc609c5a26469706673582212208da8f93eb59c6527b0b311cd57468851cba3db6fb5bacfb5d599067ac0765e8a64736f6c63430008180033","opcodes":"PUSH1 0xA0 CALLVALUE PUSH2 0x13D JUMPI PUSH1 0x1F PUSH2 0x1925 CODESIZE DUP2 SWAP1 SUB SWAP2 DUP3 ADD PUSH1 0x1F NOT AND DUP4 ADD SWAP2 PUSH1 0x1 PUSH1 0x1 PUSH1 0x40 SHL SUB DUP4 GT DUP5 DUP5 LT OR PUSH2 0x142 JUMPI DUP1 DUP5 SWAP3 PUSH1 0x20 SWAP5 PUSH1 0x40 MSTORE DUP4 CODECOPY DUP2 ADD SUB SLT PUSH2 0x13D JUMPI MLOAD PUSH1 0x1 PUSH1 0x1 PUSH1 0xA0 SHL SUB DUP1 DUP3 AND SWAP2 DUP3 SWAP1 SUB PUSH2 0x13D JUMPI PUSH1 0x1 PUSH1 0x0 SSTORE CALLER ISZERO PUSH2 0x124 JUMPI PUSH1 0x1 DUP1 SLOAD CALLER PUSH1 0x1 PUSH1 0x1 PUSH1 0xA0 SHL SUB NOT DUP3 AND DUP2 OR SWAP1 SWAP3 SSTORE PUSH1 0x40 MLOAD SWAP3 AND PUSH32 0x8BE0079C531659141344CD1FD0A4F28419497F9722A3DAAFE3B4186F6B6457E0 PUSH1 0x0 DUP1 LOG3 DUP2 ISZERO PUSH2 0xE2 JUMPI POP PUSH1 0x80 MSTORE PUSH1 0x2 DUP1 SSTORE TIMESTAMP PUSH1 0x5 SSTORE PUSH1 0x40 MLOAD PUSH2 0x17CC SWAP1 DUP2 PUSH2 0x159 DUP3 CODECOPY PUSH1 0x80 MLOAD DUP2 DUP2 DUP2 PUSH2 0x497 ADD MSTORE DUP2 DUP2 PUSH2 0x90D ADD MSTORE DUP2 DUP2 PUSH2 0xC55 ADD MSTORE DUP2 DUP2 PUSH2 0x10FF ADD MSTORE PUSH2 0x12B1 ADD MSTORE RETURN JUMPDEST PUSH3 0x461BCD PUSH1 0xE5 SHL DUP2 MSTORE PUSH1 0x20 PUSH1 0x4 DUP3 ADD MSTORE PUSH1 0x19 PUSH1 0x24 DUP3 ADD MSTORE PUSH32 0x496E76616C696420564D4620746F6B656E206164647265737300000000000000 PUSH1 0x44 DUP3 ADD MSTORE PUSH1 0x64 SWAP1 REVERT JUMPDEST PUSH1 0x40 MLOAD PUSH4 0x1E4FBDF7 PUSH1 0xE0 SHL DUP2 MSTORE PUSH1 0x0 PUSH1 0x4 DUP3 ADD MSTORE PUSH1 0x24 SWAP1 REVERT JUMPDEST PUSH1 0x0 DUP1 REVERT JUMPDEST PUSH4 0x4E487B71 PUSH1 0xE0 SHL PUSH1 0x0 MSTORE PUSH1 0x41 PUSH1 0x4 MSTORE PUSH1 0x24 PUSH1 0x0 REVERT INVALID PUSH1 0x40 PUSH1 0x80 DUP2 MSTORE PUSH1 0x4 SWAP1 DUP2 CALLDATASIZE LT ISZERO PUSH2 0x15 JUMPI PUSH1 0x0 DUP1 REVERT JUMPDEST PUSH1 0x0 SWAP2 DUP3 CALLDATALOAD PUSH1 0xE0 SHR DUP1 PUSH4 0xD9F92CA EQ PUSH2 0x1363 JUMPI DUP1 PUSH4 0x1303B3C8 EQ PUSH2 0x1348 JUMPI DUP1 PUSH4 0x14E0EBEF EQ PUSH2 0x12FC JUMPI DUP1 PUSH4 0x16FA1086 EQ PUSH2 0x12E0 JUMPI DUP1 PUSH4 0x2086EEFA EQ PUSH2 0x129C JUMPI DUP1 PUSH4 0x2EFB53DA EQ PUSH2 0x126B JUMPI DUP1 PUSH4 0x3BB4F638 EQ PUSH2 0xB2D JUMPI DUP1 PUSH4 0x43F2A080 EQ PUSH2 0x11CB JUMPI DUP1 PUSH4 0x4EB692A5 EQ PUSH2 0x1198 JUMPI DUP1 PUSH4 0x56768B5E EQ PUSH2 0x101B JUMPI DUP1 PUSH4 0x59328401 EQ PUSH2 0xF4B JUMPI DUP1 PUSH4 0x5C975ABB EQ PUSH2 0xF24 JUMPI DUP1 PUSH4 0x5FF62403 EQ PUSH2 0xBB4 JUMPI DUP1 PUSH4 0x715018A6 EQ PUSH2 0xB69 JUMPI DUP1 PUSH4 0x7550B84F EQ PUSH2 0xB4A JUMPI DUP1 PUSH4 0x79F329D9 EQ PUSH2 0xB2D JUMPI DUP1 PUSH4 0x821C27AD EQ PUSH2 0xAF5 JUMPI DUP1 PUSH4 0x8B0A234C EQ PUSH2 0x2C1 JUMPI DUP1 PUSH4 0x8C5747AF EQ PUSH2 0xAA9 JUMPI DUP1 PUSH4 0x8DA5CB5B EQ PUSH2 0xA80 JUMPI DUP1 PUSH4 0x920736E5 EQ PUSH2 0xA34 JUMPI DUP1 PUSH4 0x9E9E4056 EQ PUSH2 0x800 JUMPI DUP1 PUSH4 0xA2635401 EQ PUSH2 0x7E1 JUMPI DUP1 PUSH4 0xA9B8B451 EQ PUSH2 0x7C4 JUMPI DUP1 PUSH4 0xAAB40F31 EQ PUSH2 0x3B1 JUMPI DUP1 PUSH4 0xBACF46F3 EQ PUSH2 0x749 JUMPI DUP1 PUSH4 0xBBC3CED7 EQ PUSH2 0x744 JUMPI DUP1 PUSH4 0xC14E1E05 EQ PUSH2 0x725 JUMPI DUP1 PUSH4 0xC65A8568 EQ PUSH2 0x6E1 JUMPI DUP1 PUSH4 0xCCB60E01 EQ PUSH2 0x662 JUMPI DUP1 PUSH4 0xD5749D42 EQ PUSH2 0x624 JUMPI DUP1 PUSH4 0xD61B86BB EQ PUSH2 0x5FD JUMPI DUP1 PUSH4 0xDB2E21BC EQ PUSH2 0x45E JUMPI DUP1 PUSH4 0xDD23B9CB EQ PUSH2 0x442 JUMPI DUP1 PUSH4 0xE2EB41FF EQ PUSH2 0x3D0 JUMPI DUP1 PUSH4 0xE3D440A7 EQ PUSH2 0x3B1 JUMPI DUP1 PUSH4 0xE8F6940E EQ PUSH2 0x2E5 JUMPI DUP1 PUSH4 0xEAC9F124 EQ PUSH2 0x2C1 JUMPI DUP1 PUSH4 0xF2FDE38B EQ PUSH2 0x24A JUMPI DUP1 PUSH4 0xFC564514 EQ PUSH2 0x20E JUMPI PUSH4 0xFFC39504 EQ PUSH2 0x1E4 JUMPI PUSH1 0x0 DUP1 REVERT JUMPDEST CALLVALUE PUSH2 0x20A JUMPI PUSH1 0x20 CALLDATASIZE PUSH1 0x3 NOT ADD SLT PUSH2 0x20A JUMPI PUSH1 0x20 SWAP3 DUP3 SWAP2 CALLDATALOAD DUP2 MSTORE PUSH1 0x8 DUP5 MSTORE KECCAK256 SLOAD SWAP1 MLOAD SWAP1 DUP2 MSTORE RETURN JUMPDEST DUP3 DUP1 REVERT JUMPDEST POP POP CALLVALUE PUSH2 0x246 JUMPI PUSH1 0x20 CALLDATASIZE PUSH1 0x3 NOT ADD SLT PUSH2 0x246 JUMPI PUSH1 0x20 SWAP2 DUP2 SWAP1 PUSH1 0x1 PUSH1 0x1 PUSH1 0xA0 SHL SUB PUSH2 0x236 PUSH2 0x1384 JUMP JUMPDEST AND DUP2 MSTORE PUSH1 0xB DUP5 MSTORE KECCAK256 SLOAD SWAP1 MLOAD SWAP1 DUP2 MSTORE RETURN JUMPDEST POP DUP1 REVERT JUMPDEST POP CALLVALUE PUSH2 0x20A JUMPI PUSH1 0x20 CALLDATASIZE PUSH1 0x3 NOT ADD SLT PUSH2 0x20A JUMPI PUSH2 0x264 PUSH2 0x1384 JUMP JUMPDEST SWAP1 PUSH2 0x26D PUSH2 0x16E9 JUMP JUMPDEST PUSH1 0x1 PUSH1 0x1 PUSH1 0xA0 SHL SUB SWAP2 DUP3 AND SWAP3 DUP4 ISZERO PUSH2 0x2AB JUMPI POP POP PUSH1 0x1 DUP1 SLOAD PUSH1 0x1 PUSH1 0x1 PUSH1 0xA0 SHL SUB NOT DUP2 AND DUP5 OR SWAP1 SWAP2 SSTORE AND PUSH1 0x0 DUP1 MLOAD PUSH1 0x20 PUSH2 0x1757 DUP4 CODECOPY DUP2 MLOAD SWAP2 MSTORE DUP4 DUP1 LOG3 DUP1 RETURN JUMPDEST MLOAD PUSH4 0x1E4FBDF7 PUSH1 0xE0 SHL DUP2 MSTORE SWAP1 DUP2 ADD DUP5 SWAP1 MSTORE PUSH1 0x24 SWAP1 REVERT JUMPDEST POP POP CALLVALUE PUSH2 0x246 JUMPI DUP2 PUSH1 0x3 NOT CALLDATASIZE ADD SLT PUSH2 0x246 JUMPI PUSH1 0x20 SWAP1 MLOAD PUSH9 0x56BC75E2D63100000 DUP2 MSTORE RETURN JUMPDEST POP CALLVALUE PUSH2 0x20A JUMPI PUSH1 0x20 CALLDATASIZE PUSH1 0x3 NOT ADD SLT PUSH2 0x20A JUMPI DUP1 CALLDATALOAD DUP1 ISZERO ISZERO DUP2 SUB PUSH2 0x3AD JUMPI PUSH2 0x30A PUSH2 0x16E9 JUMP JUMPDEST ISZERO PUSH2 0x357 JUMPI POP PUSH1 0x20 PUSH32 0x62E78CEA01BEE320CD4E420270B5EA74000D11B0C9F74754EBDBFC544B05A258 SWAP2 PUSH2 0x33C PUSH2 0x1715 JUMP JUMPDEST PUSH1 0x1 DUP1 SLOAD PUSH1 0xFF PUSH1 0xA0 SHL NOT AND PUSH1 0x1 PUSH1 0xA0 SHL OR SWAP1 SSTORE MLOAD CALLER DUP2 MSTORE LOG1 DUP1 RETURN JUMPDEST PUSH1 0x1 SLOAD SWAP1 PUSH1 0xFF DUP3 PUSH1 0xA0 SHR AND ISZERO PUSH2 0x39F JUMPI POP PUSH1 0xFF PUSH1 0xA0 SHL NOT AND PUSH1 0x1 SSTORE MLOAD CALLER DUP2 MSTORE PUSH32 0x5DB9EE0A495BF2E6FF9C91A7834C1BA4FDD244A5E8AA4E537BD38AEAE4B073AA SWAP1 PUSH1 0x20 SWAP1 LOG1 DUP1 RETURN JUMPDEST DUP3 MLOAD PUSH4 0x8DFC202B PUSH1 0xE0 SHL DUP2 MSTORE REVERT JUMPDEST DUP4 DUP1 REVERT JUMPDEST POP POP CALLVALUE PUSH2 0x246 JUMPI DUP2 PUSH1 0x3 NOT CALLDATASIZE ADD SLT PUSH2 0x246 JUMPI PUSH1 0x20 SWAP1 PUSH1 0x3 SLOAD SWAP1 MLOAD SWAP1 DUP2 MSTORE RETURN JUMPDEST POP SWAP1 CALLVALUE PUSH2 0x20A JUMPI PUSH1 0x20 CALLDATASIZE PUSH1 0x3 NOT ADD SLT PUSH2 0x20A JUMPI PUSH1 0xC0 SWAP3 DUP2 SWAP1 PUSH1 0x1 PUSH1 0x1 PUSH1 0xA0 SHL SUB PUSH2 0x3F8 PUSH2 0x1384 JUMP JUMPDEST AND DUP2 MSTORE PUSH1 0xB PUSH1 0x20 MSTORE KECCAK256 DUP1 SLOAD SWAP3 PUSH1 0x1 DUP3 ADD SLOAD SWAP3 PUSH1 0x2 DUP4 ADD SLOAD SWAP1 PUSH1 0xFF PUSH1 0x5 PUSH1 0x3 DUP7 ADD SLOAD SWAP5 DUP7 ADD SLOAD SWAP6 ADD SLOAD AND SWAP5 DUP2 MLOAD SWAP7 DUP8 MSTORE PUSH1 0x20 DUP8 ADD MSTORE DUP6 ADD MSTORE PUSH1 0x60 DUP5 ADD MSTORE PUSH1 0x80 DUP4 ADD MSTORE ISZERO ISZERO PUSH1 0xA0 DUP3 ADD MSTORE RETURN JUMPDEST POP POP CALLVALUE PUSH2 0x246 JUMPI DUP2 PUSH1 0x3 NOT CALLDATASIZE ADD SLT PUSH2 0x246 JUMPI PUSH1 0x20 SWAP1 MLOAD PUSH1 0x1 DUP2 MSTORE RETURN JUMPDEST POP SWAP1 CALLVALUE PUSH2 0x20A JUMPI DUP3 PUSH1 0x3 NOT CALLDATASIZE ADD SLT PUSH2 0x20A JUMPI PUSH2 0x478 PUSH2 0x16E9 JUMP JUMPDEST DUP1 MLOAD PUSH4 0x70A08231 PUSH1 0xE0 SHL DUP2 MSTORE ADDRESS DUP4 DUP3 ADD MSTORE PUSH1 0x20 SWAP2 SWAP1 PUSH1 0x1 PUSH1 0x1 PUSH1 0xA0 SHL SUB PUSH32 0x0 DUP2 AND SWAP1 DUP5 DUP4 PUSH1 0x24 DUP2 DUP6 GAS STATICCALL SWAP3 DUP4 ISZERO PUSH2 0x5F3 JUMPI DUP8 SWAP4 PUSH2 0x5C0 JUMPI JUMPDEST POP DUP3 ISZERO PUSH2 0x584 JUMPI SWAP2 DUP5 SWAP2 PUSH2 0x4FC SWAP4 PUSH1 0x1 SLOAD AND DUP9 DUP7 MLOAD DUP1 SWAP7 DUP2 SWAP6 DUP3 SWAP5 PUSH4 0xA9059CBB PUSH1 0xE0 SHL DUP5 MSTORE DUP13 DUP5 ADD PUSH2 0x15CF JUMP JUMPDEST SUB SWAP3 GAS CALL SWAP1 DUP2 ISZERO PUSH2 0x57A JUMPI DUP6 SWAP2 PUSH2 0x54D JUMPI JUMPDEST POP ISZERO PUSH2 0x518 JUMPI DUP4 DUP1 RETURN JUMPDEST MLOAD PUSH3 0x461BCD PUSH1 0xE5 SHL DUP2 MSTORE SWAP2 DUP3 ADD MSTORE PUSH1 0x11 PUSH1 0x24 DUP3 ADD MSTORE PUSH17 0x15DA5D1A191C985DD85B0819985A5B1959 PUSH1 0x7A SHL PUSH1 0x44 DUP3 ADD MSTORE PUSH1 0x64 SWAP2 POP REVERT JUMPDEST PUSH2 0x56D SWAP2 POP DUP4 RETURNDATASIZE DUP6 GT PUSH2 0x573 JUMPI JUMPDEST PUSH2 0x565 DUP2 DUP4 PUSH2 0x1594 JUMP JUMPDEST DUP2 ADD SWAP1 PUSH2 0x15B7 JUMP JUMPDEST CODESIZE PUSH2 0x50E JUMP JUMPDEST POP RETURNDATASIZE PUSH2 0x55B JUMP JUMPDEST DUP3 MLOAD RETURNDATASIZE DUP8 DUP3 RETURNDATACOPY RETURNDATASIZE SWAP1 REVERT JUMPDEST DUP4 MLOAD PUSH3 0x461BCD PUSH1 0xE5 SHL DUP2 MSTORE DUP1 DUP8 ADD DUP7 SWAP1 MSTORE PUSH1 0x16 PUSH1 0x24 DUP3 ADD MSTORE PUSH22 0x4E6F2062616C616E636520746F207769746864726177 PUSH1 0x50 SHL PUSH1 0x44 DUP3 ADD MSTORE PUSH1 0x64 SWAP1 REVERT JUMPDEST SWAP1 SWAP3 POP DUP5 DUP2 DUP2 RETURNDATASIZE DUP4 GT PUSH2 0x5EC JUMPI JUMPDEST PUSH2 0x5D8 DUP2 DUP4 PUSH2 0x1594 JUMP JUMPDEST DUP2 ADD SUB SLT PUSH2 0x5E8 JUMPI MLOAD SWAP2 CODESIZE PUSH2 0x4CF JUMP JUMPDEST DUP7 DUP1 REVERT JUMPDEST POP RETURNDATASIZE PUSH2 0x5CE JUMP JUMPDEST DUP5 MLOAD RETURNDATASIZE DUP10 DUP3 RETURNDATACOPY RETURNDATASIZE SWAP1 REVERT JUMPDEST POP CALLVALUE PUSH2 0x20A JUMPI PUSH1 0x20 CALLDATASIZE PUSH1 0x3 NOT ADD SLT PUSH2 0x20A JUMPI PUSH1 0x20 SWAP3 DUP3 SWAP2 CALLDATALOAD DUP2 MSTORE PUSH1 0xA DUP5 MSTORE KECCAK256 SLOAD SWAP1 MLOAD SWAP1 DUP2 MSTORE RETURN JUMPDEST POP POP CALLVALUE PUSH2 0x246 JUMPI PUSH1 0x20 CALLDATASIZE PUSH1 0x3 NOT ADD SLT PUSH2 0x246 JUMPI PUSH1 0x20 SWAP2 PUSH1 0xFF SWAP1 DUP3 SWAP1 PUSH1 0x1 PUSH1 0x1 PUSH1 0xA0 SHL SUB PUSH2 0x64F PUSH2 0x1384 JUMP JUMPDEST AND DUP2 MSTORE PUSH1 0xC DUP6 MSTORE KECCAK256 SLOAD AND SWAP1 MLOAD SWAP1 ISZERO ISZERO DUP2 MSTORE RETURN JUMPDEST POP DUP3 SWAP1 CALLVALUE PUSH2 0x246 JUMPI PUSH1 0x20 SWAP1 PUSH1 0x20 PUSH1 0x3 NOT CALLDATASIZE ADD SLT PUSH2 0x20A JUMPI CALLDATALOAD SWAP2 DUP3 DUP2 MSTORE PUSH1 0xA PUSH1 0x20 MSTORE DUP4 DUP2 KECCAK256 SLOAD SWAP2 PUSH2 0x691 DUP4 PUSH2 0x16A3 JUMP JUMPDEST SWAP4 DUP3 JUMPDEST DUP5 DUP2 LT PUSH2 0x6AC JUMPI DUP7 MLOAD DUP1 PUSH2 0x6A8 DUP9 DUP3 PUSH2 0x142E JUMP JUMPDEST SUB SWAP1 RETURN JUMPDEST PUSH1 0x1 SWAP1 DUP3 DUP6 MSTORE PUSH1 0x9 DUP5 MSTORE PUSH2 0x6C2 DUP2 DUP10 DUP8 KECCAK256 PUSH2 0x13B0 JUMP JUMPDEST DUP4 DUP1 PUSH1 0xA0 SHL SUB SWAP2 SLOAD SWAP1 PUSH1 0x3 SHL SHR AND PUSH2 0x6DA DUP3 DUP10 PUSH2 0x16D5 JUMP JUMPDEST MSTORE ADD PUSH2 0x694 JUMP JUMPDEST POP SWAP2 SWAP1 CALLVALUE PUSH2 0x246 JUMPI DUP2 PUSH1 0x3 NOT CALLDATASIZE ADD SLT PUSH2 0x246 JUMPI PUSH1 0x6 SLOAD SWAP2 PUSH3 0x93A80 DUP4 ADD DUP1 SWAP4 GT PUSH2 0x712 JUMPI PUSH1 0x20 DUP4 DUP4 MLOAD SWAP1 TIMESTAMP LT ISZERO DUP2 MSTORE RETURN JUMPDEST PUSH4 0x4E487B71 PUSH1 0xE0 SHL DUP2 MSTORE PUSH1 0x11 DUP5 MSTORE PUSH1 0x24 SWAP1 REVERT JUMPDEST POP POP CALLVALUE PUSH2 0x246 JUMPI DUP2 PUSH1 0x3 NOT CALLDATASIZE ADD SLT PUSH2 0x246 JUMPI PUSH1 0x20 SWAP1 PUSH1 0x6 SLOAD SWAP1 MLOAD SWAP1 DUP2 MSTORE RETURN JUMPDEST PUSH2 0x1363 JUMP JUMPDEST POP DUP3 SWAP1 CALLVALUE PUSH2 0x246 JUMPI PUSH1 0x20 SWAP1 PUSH1 0x20 PUSH1 0x3 NOT CALLDATASIZE ADD SLT PUSH2 0x20A JUMPI CALLDATALOAD SWAP2 DUP3 DUP2 MSTORE PUSH1 0x8 PUSH1 0x20 MSTORE DUP4 DUP2 KECCAK256 SLOAD SWAP2 PUSH2 0x778 DUP4 PUSH2 0x16A3 JUMP JUMPDEST SWAP4 DUP3 JUMPDEST DUP5 DUP2 LT PUSH2 0x78F JUMPI DUP7 MLOAD DUP1 PUSH2 0x6A8 DUP9 DUP3 PUSH2 0x142E JUMP JUMPDEST PUSH1 0x1 SWAP1 DUP3 DUP6 MSTORE PUSH1 0x7 DUP5 MSTORE PUSH2 0x7A5 DUP2 DUP10 DUP8 KECCAK256 PUSH2 0x13B0 JUMP JUMPDEST DUP4 DUP1 PUSH1 0xA0 SHL SUB SWAP2 SLOAD SWAP1 PUSH1 0x3 SHL SHR AND PUSH2 0x7BD DUP3 DUP10 PUSH2 0x16D5 JUMP JUMPDEST MSTORE ADD PUSH2 0x77B JUMP JUMPDEST POP POP CALLVALUE PUSH2 0x246 JUMPI DUP2 PUSH1 0x3 NOT CALLDATASIZE ADD SLT PUSH2 0x246 JUMPI PUSH1 0x20 SWAP1 MLOAD PUSH2 0xE10 DUP2 MSTORE RETURN JUMPDEST POP POP CALLVALUE PUSH2 0x246 JUMPI DUP2 PUSH1 0x3 NOT CALLDATASIZE ADD SLT PUSH2 0x246 JUMPI PUSH1 0x20 SWAP1 PUSH1 0x2 SLOAD SWAP1 MLOAD SWAP1 DUP2 MSTORE RETURN JUMPDEST POP SWAP2 SWAP1 CALLVALUE PUSH2 0x246 JUMPI PUSH2 0x811 CALLDATASIZE PUSH2 0x13DE JUMP JUMPDEST PUSH1 0x1 DUP1 SLOAD SWAP3 SWAP5 SWAP3 PUSH1 0x1 PUSH1 0x1 PUSH1 0xA0 SHL SUB SWAP1 PUSH2 0x82E SWAP1 DUP3 AND CALLER EQ PUSH2 0x1496 JUMP JUMPDEST PUSH2 0x839 DUP4 ISZERO ISZERO PUSH2 0x14DD JUMP JUMPDEST PUSH2 0x845 DUP4 PUSH1 0x3 SLOAD PUSH2 0x151F JUMP JUMPDEST DUP8 JUMPDEST DUP5 DUP2 LT PUSH2 0x8B5 JUMPI DUP10 DUP10 PUSH32 0xDD1C72FCDA97FCFC2FE124C4AA194986CACA752D3769C00A6495659509D7B19B DUP11 DUP11 PUSH2 0x886 DUP12 DUP12 PUSH1 0x3 SLOAD SWAP2 MLOAD SWAP5 DUP6 SWAP5 DUP6 PUSH2 0x15EA JUMP JUMPDEST SUB SWAP1 LOG1 PUSH1 0x2 SLOAD PUSH1 0x0 NOT DUP2 EQ PUSH2 0x8A2 JUMPI PUSH1 0x1 ADD PUSH1 0x2 SSTORE TIMESTAMP PUSH1 0x5 SSTORE DUP1 RETURN JUMPDEST POP PUSH1 0x11 PUSH1 0x24 SWAP3 PUSH4 0x4E487B71 PUSH1 0xE0 SHL DUP4 MSTORE MSTORE REVERT JUMPDEST DUP1 DUP4 PUSH2 0x8CB PUSH2 0x8C6 DUP8 SWAP5 DUP10 DUP14 PUSH2 0x153F JUMP JUMPDEST PUSH2 0x154F JUMP JUMPDEST AND PUSH2 0x8D7 JUMPI JUMPDEST ADD PUSH2 0x847 JUMP JUMPDEST SWAP1 POP PUSH2 0x8E7 PUSH2 0x8C6 DUP3 DUP8 DUP12 PUSH2 0x153F JUMP JUMPDEST DUP7 MLOAD PUSH4 0xA9059CBB PUSH1 0xE0 SHL DUP2 MSTORE DUP12 DUP2 DUP13 DUP2 DUP1 PUSH2 0x908 DUP10 PUSH1 0x20 SWAP9 DUP10 SWAP8 DUP5 ADD PUSH2 0x15CF JUMP JUMPDEST SUB SWAP2 DUP10 PUSH32 0x0 AND GAS CALL SWAP1 DUP2 ISZERO PUSH2 0xA2A JUMPI DUP12 SWAP2 PUSH2 0xA0D JUMPI JUMPDEST POP ISZERO PUSH2 0x9D9 JUMPI DUP4 PUSH2 0x952 PUSH2 0x8C6 DUP5 DUP10 DUP14 PUSH2 0x153F JUMP JUMPDEST AND DUP11 MSTORE PUSH1 0xB DUP2 MSTORE DUP7 DUP11 KECCAK256 DUP1 SLOAD PUSH1 0xA SWAP2 DUP3 DUP3 ADD DUP1 SWAP3 GT PUSH2 0x9C5 JUMPI DUP5 SWAP4 SWAP3 DUP11 DUP9 PUSH2 0x994 DUP16 DUP13 SWAP10 DUP15 PUSH2 0x8C6 SWAP3 PUSH1 0x0 DUP1 MLOAD PUSH1 0x20 PUSH2 0x1777 DUP4 CODECOPY DUP2 MLOAD SWAP2 MSTORE SWAP10 PUSH1 0x80 SWAP10 SSTORE PUSH2 0x153F JUMP JUMPDEST AND SWAP5 DUP2 MLOAD SWAP3 DUP4 MSTORE DUP3 ADD MSTORE PUSH1 0x12 DUP12 DUP3 ADD MSTORE PUSH18 0x4461696C792077696E6E657220626F6E7573 PUSH1 0x70 SHL PUSH1 0x60 DUP3 ADD MSTORE LOG2 PUSH2 0x8D1 JUMP JUMPDEST POP PUSH4 0x4E487B71 PUSH1 0xE0 SHL DUP13 MSTORE PUSH1 0x11 DUP14 MSTORE PUSH1 0x24 DUP13 REVERT JUMPDEST DUP11 PUSH1 0x64 SWAP2 DUP9 MLOAD SWAP2 PUSH3 0x461BCD PUSH1 0xE5 SHL DUP4 MSTORE DUP3 ADD MSTORE PUSH1 0xF PUSH1 0x24 DUP3 ADD MSTORE PUSH15 0x151C985B9CD9995C8819985A5B1959 PUSH1 0x8A SHL PUSH1 0x44 DUP3 ADD MSTORE REVERT JUMPDEST PUSH2 0xA24 SWAP2 POP DUP3 RETURNDATASIZE DUP5 GT PUSH2 0x573 JUMPI PUSH2 0x565 DUP2 DUP4 PUSH2 0x1594 JUMP JUMPDEST CODESIZE PUSH2 0x93D JUMP JUMPDEST DUP9 MLOAD RETURNDATASIZE DUP14 DUP3 RETURNDATACOPY RETURNDATASIZE SWAP1 REVERT JUMPDEST POP POP CALLVALUE PUSH2 0x246 JUMPI PUSH2 0xA44 CALLDATASIZE PUSH2 0x139A JUMP JUMPDEST SWAP3 SWAP1 DUP2 MSTORE PUSH1 0x9 PUSH1 0x20 MSTORE DUP2 DUP2 KECCAK256 SWAP1 DUP2 SLOAD DUP5 LT ISZERO PUSH2 0xA7D JUMPI POP PUSH1 0x20 SWAP3 PUSH2 0xA67 SWAP2 PUSH2 0x13B0 JUMP JUMPDEST SWAP1 SLOAD SWAP2 MLOAD SWAP2 PUSH1 0x1 DUP1 PUSH1 0xA0 SHL SUB SWAP2 PUSH1 0x3 SHL SHR AND DUP2 MSTORE RETURN JUMPDEST DUP1 REVERT JUMPDEST POP POP CALLVALUE PUSH2 0x246 JUMPI DUP2 PUSH1 0x3 NOT CALLDATASIZE ADD SLT PUSH2 0x246 JUMPI PUSH1 0x1 SLOAD SWAP1 MLOAD PUSH1 0x1 PUSH1 0x1 PUSH1 0xA0 SHL SUB SWAP1 SWAP2 AND DUP2 MSTORE PUSH1 0x20 SWAP1 RETURN JUMPDEST POP SWAP1 CALLVALUE PUSH2 0x20A JUMPI PUSH1 0x20 CALLDATASIZE PUSH1 0x3 NOT ADD SLT PUSH2 0x20A JUMPI PUSH1 0x0 DUP1 MLOAD PUSH1 0x20 PUSH2 0x1737 DUP4 CODECOPY DUP2 MLOAD SWAP2 MSTORE SWAP2 PUSH2 0xAD4 PUSH2 0x16E9 JUMP JUMPDEST PUSH2 0xAE1 DUP2 CALLDATALOAD PUSH1 0x3 SLOAD PUSH2 0x1473 JUMP JUMPDEST SWAP1 DUP2 PUSH1 0x3 SSTORE SLOAD DUP3 MLOAD SWAP2 DUP3 MSTORE PUSH1 0x20 DUP3 ADD MSTORE LOG1 DUP1 RETURN JUMPDEST POP CALLVALUE PUSH2 0x20A JUMPI PUSH1 0x20 CALLDATASIZE PUSH1 0x3 NOT ADD SLT PUSH2 0x20A JUMPI PUSH1 0x20 SWAP3 DUP3 SWAP1 PUSH1 0x1 PUSH1 0x1 PUSH1 0xA0 SHL SUB PUSH2 0xB1C PUSH2 0x1384 JUMP JUMPDEST AND DUP2 MSTORE PUSH1 0xB DUP6 MSTORE KECCAK256 ADD SLOAD SWAP1 MLOAD SWAP1 DUP2 MSTORE RETURN JUMPDEST POP CALLVALUE PUSH2 0x20A JUMPI DUP3 PUSH1 0x3 NOT CALLDATASIZE ADD SLT PUSH2 0x20A JUMPI PUSH1 0x20 SWAP3 POP SLOAD SWAP1 MLOAD SWAP1 DUP2 MSTORE RETURN JUMPDEST POP POP CALLVALUE PUSH2 0x246 JUMPI DUP2 PUSH1 0x3 NOT CALLDATASIZE ADD SLT PUSH2 0x246 JUMPI PUSH1 0x20 SWAP1 PUSH1 0x5 SLOAD SWAP1 MLOAD SWAP1 DUP2 MSTORE RETURN JUMPDEST DUP4 CALLVALUE PUSH2 0xA7D JUMPI DUP1 PUSH1 0x3 NOT CALLDATASIZE ADD SLT PUSH2 0xA7D JUMPI PUSH2 0xB82 PUSH2 0x16E9 JUMP JUMPDEST PUSH1 0x1 DUP1 SLOAD PUSH1 0x1 PUSH1 0x1 PUSH1 0xA0 SHL SUB NOT DUP2 AND SWAP1 SWAP2 SSTORE DUP2 SWAP1 PUSH1 0x1 PUSH1 0x1 PUSH1 0xA0 SHL SUB AND PUSH1 0x0 DUP1 MLOAD PUSH1 0x20 PUSH2 0x1757 DUP4 CODECOPY DUP2 MLOAD SWAP2 MSTORE DUP3 DUP1 LOG3 DUP1 RETURN JUMPDEST POP DUP3 SWAP1 CALLVALUE PUSH2 0x246 JUMPI DUP2 PUSH1 0x3 NOT CALLDATASIZE ADD SLT PUSH2 0x246 JUMPI PUSH1 0x2 DUP3 SLOAD EQ PUSH2 0xF16 JUMPI PUSH1 0x2 DUP3 SSTORE PUSH2 0xBDC PUSH2 0x1715 JUMP JUMPDEST CALLER DUP3 MSTORE PUSH1 0x20 SWAP3 PUSH1 0xC DUP5 MSTORE PUSH2 0xBF6 PUSH1 0xFF DUP3 DUP6 KECCAK256 SLOAD AND ISZERO PUSH2 0x1648 JUMP JUMPDEST CALLER DUP4 MSTORE PUSH1 0xB SWAP2 DUP3 DUP6 MSTORE PUSH2 0xC12 PUSH1 0xFF PUSH1 0x5 DUP5 DUP8 KECCAK256 ADD SLOAD AND ISZERO PUSH2 0x1648 JUMP JUMPDEST CALLER DUP5 MSTORE DUP3 DUP6 MSTORE PUSH1 0x3 DUP3 DUP6 KECCAK256 ADD SLOAD PUSH2 0xE10 DUP2 ADD DUP1 SWAP2 GT PUSH2 0xF03 JUMPI TIMESTAMP LT PUSH2 0xECC JUMPI DUP2 MLOAD PUSH4 0x70A08231 PUSH1 0xE0 SHL DUP2 MSTORE CALLER DUP3 DUP3 ADD MSTORE PUSH1 0x24 SWAP6 SWAP1 PUSH1 0x1 PUSH1 0x1 PUSH1 0xA0 SHL SUB SWAP1 DUP3 DUP2 DUP10 DUP2 PUSH32 0x0 DUP7 AND GAS STATICCALL SWAP1 DUP2 ISZERO PUSH2 0xEC2 JUMPI DUP8 SWAP2 PUSH2 0xE95 JUMPI JUMPDEST POP PUSH9 0x56BC75E2D63100000 DUP2 LT PUSH2 0xE58 JUMPI CALLER DUP8 MSTORE DUP6 DUP4 MSTORE PUSH1 0x1 SWAP6 PUSH1 0xA DUP8 DUP8 DUP11 KECCAK256 ADD SLOAD LT ISZERO PUSH2 0xE1A JUMPI CALLER DUP9 MSTORE DUP1 DUP5 MSTORE DUP7 DUP7 DUP10 KECCAK256 ADD SLOAD DUP8 DUP2 ADD DUP1 SWAP2 GT PUSH2 0xE08 JUMPI CALLER DUP10 MSTORE DUP2 DUP6 MSTORE DUP7 DUP10 KECCAK256 SWAP1 DUP9 DUP3 ADD SSTORE TIMESTAMP PUSH1 0x3 DUP3 ADD SSTORE SLOAD SWAP1 DUP8 DUP3 ADD DUP1 SWAP3 GT PUSH2 0xE08 JUMPI CALLER DUP10 MSTORE DUP5 MSTORE DUP6 DUP9 KECCAK256 SWAP1 DUP2 SSTORE DUP5 ADD SSTORE PUSH1 0x2 SLOAD DUP7 MSTORE PUSH1 0x7 DUP3 MSTORE DUP4 DUP7 KECCAK256 DUP1 SLOAD SWAP1 PUSH1 0x1 PUSH1 0x40 SHL DUP3 LT ISZERO PUSH2 0xDF6 JUMPI SWAP1 PUSH2 0xD1C SWAP2 DUP8 DUP3 ADD DUP2 SSTORE PUSH2 0x13B0 JUMP JUMPDEST DUP2 SWAP3 SWAP2 SLOAD SWAP1 PUSH1 0x3 SHL SWAP2 CALLER DUP4 SHL SWAP3 SHL NOT AND OR SWAP1 SSTORE PUSH1 0x2 SLOAD DUP1 DUP7 MSTORE PUSH1 0x8 DUP3 MSTORE DUP4 DUP7 KECCAK256 SLOAD SWAP1 DUP6 DUP3 ADD DUP1 SWAP3 GT PUSH2 0xDE4 JUMPI DUP7 PUSH1 0x0 DUP1 MLOAD PUSH1 0x20 PUSH2 0x1737 DUP4 CODECOPY DUP2 MLOAD SWAP2 MSTORE SWAP7 SWAP8 SWAP9 POP MSTORE PUSH1 0x8 DUP3 MSTORE DUP4 DUP8 KECCAK256 SSTORE DUP3 MLOAD DUP6 DUP2 MSTORE DUP4 DUP3 DUP3 ADD MSTORE PUSH1 0x11 DUP5 DUP3 ADD MSTORE PUSH17 0x11185A5B1E481C1B185E481C995DD85C99 PUSH1 0x7A SHL PUSH1 0x60 DUP3 ADD MSTORE PUSH1 0x0 DUP1 MLOAD PUSH1 0x20 PUSH2 0x1777 DUP4 CODECOPY DUP2 MLOAD SWAP2 MSTORE PUSH1 0x80 CALLER SWAP3 LOG2 PUSH1 0x2 SLOAD DUP4 MLOAD DUP8 DUP2 MSTORE PUSH32 0x480A6DAEA81F2AF589E1959DA1F1719512392EC551E8966266EE820F1C1F72EA DUP4 CALLER SWAP3 LOG3 PUSH1 0x3 SLOAD SWAP2 SLOAD SWAP1 DUP4 MLOAD SWAP3 DUP4 MSTORE DUP3 ADD MSTORE LOG1 DUP2 SSTORE DUP1 RETURN JUMPDEST PUSH4 0x4E487B71 PUSH1 0xE0 SHL DUP8 MSTORE PUSH1 0x11 DUP5 MSTORE DUP8 DUP8 REVERT JUMPDEST PUSH4 0x4E487B71 PUSH1 0xE0 SHL DUP9 MSTORE PUSH1 0x41 DUP6 MSTORE DUP9 DUP9 REVERT JUMPDEST PUSH4 0x4E487B71 PUSH1 0xE0 SHL DUP10 MSTORE PUSH1 0x11 DUP7 MSTORE DUP10 DUP10 REVERT JUMPDEST DUP6 MLOAD PUSH3 0x461BCD PUSH1 0xE5 SHL DUP2 MSTORE DUP1 DUP7 ADD DUP6 SWAP1 MSTORE PUSH1 0x19 DUP2 DUP12 ADD MSTORE PUSH25 0x13585E0819185A5B1E48195B9D1C9A595CC81C995858DA1959 PUSH1 0x3A SHL PUSH1 0x44 DUP3 ADD MSTORE PUSH1 0x64 SWAP1 REVERT JUMPDEST DUP5 MLOAD PUSH3 0x461BCD PUSH1 0xE5 SHL DUP2 MSTORE DUP1 DUP6 ADD DUP5 SWAP1 MSTORE PUSH1 0x18 DUP2 DUP11 ADD MSTORE PUSH24 0x496E73756666696369656E7420564D462062616C616E6365 PUSH1 0x40 SHL PUSH1 0x44 DUP3 ADD MSTORE PUSH1 0x64 SWAP1 REVERT JUMPDEST SWAP1 POP DUP3 DUP2 DUP2 RETURNDATASIZE DUP4 GT PUSH2 0xEBB JUMPI JUMPDEST PUSH2 0xEAC DUP2 DUP4 PUSH2 0x1594 JUMP JUMPDEST DUP2 ADD SUB SLT PUSH2 0x5E8 JUMPI MLOAD DUP9 PUSH2 0xC86 JUMP JUMPDEST POP RETURNDATASIZE PUSH2 0xEA2 JUMP JUMPDEST DUP6 MLOAD RETURNDATASIZE DUP10 DUP3 RETURNDATACOPY RETURNDATASIZE SWAP1 REVERT JUMPDEST DUP5 PUSH1 0x64 SWAP3 MLOAD SWAP2 PUSH3 0x461BCD PUSH1 0xE5 SHL DUP4 MSTORE DUP3 ADD MSTORE PUSH1 0x13 PUSH1 0x24 DUP3 ADD MSTORE PUSH19 0x14985D19481B1A5B5A5D08195E18D959591959 PUSH1 0x6A SHL PUSH1 0x44 DUP3 ADD MSTORE REVERT JUMPDEST PUSH4 0x4E487B71 PUSH1 0xE0 SHL DUP6 MSTORE PUSH1 0x11 DUP3 MSTORE PUSH1 0x24 DUP6 REVERT JUMPDEST DUP3 MLOAD PUSH4 0x3EE5AEB5 PUSH1 0xE0 SHL DUP2 MSTORE REVERT JUMPDEST POP POP CALLVALUE PUSH2 0x246 JUMPI DUP2 PUSH1 0x3 NOT CALLDATASIZE ADD SLT PUSH2 0x246 JUMPI PUSH1 0x20 SWAP1 PUSH1 0xFF PUSH1 0x1 SLOAD PUSH1 0xA0 SHR AND SWAP1 MLOAD SWAP1 ISZERO ISZERO DUP2 MSTORE RETURN JUMPDEST POP CALLVALUE PUSH2 0x20A JUMPI PUSH1 0x20 CALLDATASIZE PUSH1 0x3 NOT ADD SLT PUSH2 0x20A JUMPI DUP2 PUSH1 0xC0 SWAP4 PUSH2 0xF69 PUSH2 0x1384 JUMP JUMPDEST DUP2 PUSH1 0xA0 DUP5 MLOAD PUSH2 0xF77 DUP2 PUSH2 0x1563 JUMP JUMPDEST DUP3 DUP2 MSTORE DUP3 PUSH1 0x20 DUP3 ADD MSTORE DUP3 DUP7 DUP3 ADD MSTORE DUP3 PUSH1 0x60 DUP3 ADD MSTORE DUP3 PUSH1 0x80 DUP3 ADD MSTORE ADD MSTORE PUSH1 0x1 DUP1 PUSH1 0xA0 SHL SUB AND DUP2 MSTORE PUSH1 0xB PUSH1 0x20 MSTORE KECCAK256 DUP3 MLOAD SWAP2 PUSH2 0xFAF DUP4 PUSH2 0x1563 JUMP JUMPDEST DUP2 SLOAD SWAP4 DUP5 DUP5 MSTORE PUSH1 0x1 DUP4 ADD SLOAD PUSH1 0x20 DUP6 ADD SWAP1 DUP2 MSTORE PUSH1 0x2 DUP5 ADD SLOAD SWAP1 DUP3 DUP7 ADD SWAP2 DUP3 MSTORE PUSH1 0xA0 PUSH1 0xFF PUSH1 0x5 PUSH1 0x3 DUP9 ADD SLOAD SWAP7 PUSH1 0x60 DUP11 ADD SWAP8 DUP9 MSTORE DUP9 ADD SLOAD SWAP8 PUSH1 0x80 DUP11 ADD SWAP9 DUP10 MSTORE ADD SLOAD AND SWAP7 ADD SWAP6 ISZERO ISZERO DUP7 MSTORE DUP3 MLOAD SWAP7 DUP8 MSTORE MLOAD PUSH1 0x20 DUP8 ADD MSTORE MLOAD SWAP1 DUP6 ADD MSTORE MLOAD PUSH1 0x60 DUP5 ADD MSTORE MLOAD PUSH1 0x80 DUP4 ADD MSTORE MLOAD ISZERO ISZERO PUSH1 0xA0 DUP3 ADD MSTORE RETURN JUMPDEST POP DUP3 SWAP1 CALLVALUE PUSH2 0x246 JUMPI PUSH2 0x102C CALLDATASIZE PUSH2 0x13DE JUMP JUMPDEST PUSH1 0x1 DUP1 SLOAD SWAP4 SWAP7 SWAP3 SWAP4 PUSH1 0x1 PUSH1 0x1 PUSH1 0xA0 SHL SUB SWAP1 PUSH2 0x104A SWAP1 DUP3 AND CALLER EQ PUSH2 0x1496 JUMP JUMPDEST PUSH2 0x1055 DUP4 ISZERO ISZERO PUSH2 0x14DD JUMP JUMPDEST PUSH2 0x1060 DUP4 DUP8 SLOAD PUSH2 0x151F JUMP JUMPDEST DUP8 JUMPDEST DUP5 DUP2 LT PUSH2 0x10AC JUMPI DUP9 DUP1 DUP10 PUSH32 0x266EAB4E9078D52EC3F1266D5B3619A11040584EF2997FDEA8AFA3C03FA55977 DUP11 DUP15 PUSH2 0x10A1 DUP13 DUP13 DUP7 SLOAD SWAP2 MLOAD SWAP5 DUP6 SWAP5 DUP6 PUSH2 0x15EA JUMP JUMPDEST SUB SWAP1 LOG1 SSTORE TIMESTAMP PUSH1 0x6 SSTORE DUP1 RETURN JUMPDEST DUP1 DUP4 PUSH2 0x10BD PUSH2 0x8C6 DUP8 SWAP5 DUP10 DUP13 PUSH2 0x153F JUMP JUMPDEST AND PUSH2 0x10C9 JUMPI JUMPDEST ADD PUSH2 0x1062 JUMP JUMPDEST SWAP1 POP PUSH2 0x10D9 PUSH2 0x8C6 DUP3 DUP8 DUP11 PUSH2 0x153F JUMP JUMPDEST DUP7 MLOAD PUSH4 0xA9059CBB PUSH1 0xE0 SHL DUP2 MSTORE DUP10 DUP2 DUP13 DUP2 DUP1 PUSH2 0x10FA DUP10 PUSH1 0x20 SWAP9 DUP10 SWAP8 DUP5 ADD PUSH2 0x15CF JUMP JUMPDEST SUB SWAP2 DUP10 PUSH32 0x0 AND GAS CALL SWAP1 DUP2 ISZERO PUSH2 0xA2A JUMPI DUP12 SWAP2 PUSH2 0x117B JUMPI JUMPDEST POP ISZERO PUSH2 0x113D JUMPI POP DUP4 SWAP1 PUSH2 0x10C3 JUMP JUMPDEST DUP9 PUSH1 0x64 SWAP2 DUP9 MLOAD SWAP2 PUSH3 0x461BCD PUSH1 0xE5 SHL DUP4 MSTORE DUP3 ADD MSTORE PUSH1 0x19 PUSH1 0x24 DUP3 ADD MSTORE PUSH25 0x159351881C1C9A5E99481D1C985B9CD9995C8819985A5B1959 PUSH1 0x3A SHL PUSH1 0x44 DUP3 ADD MSTORE REVERT JUMPDEST PUSH2 0x1192 SWAP2 POP DUP3 RETURNDATASIZE DUP5 GT PUSH2 0x573 JUMPI PUSH2 0x565 DUP2 DUP4 PUSH2 0x1594 JUMP JUMPDEST DUP13 PUSH2 0x112F JUMP JUMPDEST POP POP CALLVALUE PUSH2 0x246 JUMPI PUSH2 0x11A8 CALLDATASIZE PUSH2 0x139A JUMP JUMPDEST SWAP3 SWAP1 DUP2 MSTORE PUSH1 0x7 PUSH1 0x20 MSTORE DUP2 DUP2 KECCAK256 SWAP1 DUP2 SLOAD DUP5 LT ISZERO PUSH2 0xA7D JUMPI POP PUSH1 0x20 SWAP3 PUSH2 0xA67 SWAP2 PUSH2 0x13B0 JUMP JUMPDEST POP POP CALLVALUE PUSH2 0x246 JUMPI DUP1 PUSH1 0x3 NOT CALLDATASIZE ADD SLT PUSH2 0x246 JUMPI PUSH2 0x11E5 PUSH2 0x1384 JUMP JUMPDEST SWAP1 PUSH1 0x24 CALLDATALOAD SWAP2 DUP3 ISZERO ISZERO DUP1 DUP5 SUB PUSH2 0x1267 JUMPI PUSH32 0x7C6A5677E7A854A53D06C412E00EBE65535F5343566CA7939AC7C7F6B0B00C16 SWAP3 PUSH2 0x125F PUSH1 0x20 SWAP4 PUSH2 0x1224 PUSH2 0x16E9 JUMP JUMPDEST PUSH1 0x1 PUSH1 0x1 PUSH1 0xA0 SHL SUB AND DUP1 DUP9 MSTORE PUSH1 0xC DUP6 MSTORE DUP3 DUP9 KECCAK256 DUP1 SLOAD SWAP8 ISZERO ISZERO PUSH1 0xFF AND PUSH1 0xFF NOT SWAP9 DUP10 AND DUP2 OR SWAP1 SWAP2 SSTORE PUSH1 0xB DUP7 MSTORE DUP4 DUP10 KECCAK256 PUSH1 0x5 ADD DUP1 SLOAD SWAP1 SWAP9 AND OR SWAP1 SWAP7 SSTORE JUMP JUMPDEST MLOAD SWAP1 DUP2 MSTORE LOG2 DUP1 RETURN JUMPDEST DUP5 DUP1 REVERT JUMPDEST POP SWAP2 SWAP1 CALLVALUE PUSH2 0x246 JUMPI DUP2 PUSH1 0x3 NOT CALLDATASIZE ADD SLT PUSH2 0x246 JUMPI PUSH1 0x5 SLOAD SWAP2 PUSH3 0x15180 DUP4 ADD DUP1 SWAP4 GT PUSH2 0x712 JUMPI PUSH1 0x20 DUP4 DUP4 MLOAD SWAP1 TIMESTAMP LT ISZERO DUP2 MSTORE RETURN JUMPDEST POP POP CALLVALUE PUSH2 0x246 JUMPI DUP2 PUSH1 0x3 NOT CALLDATASIZE ADD SLT PUSH2 0x246 JUMPI MLOAD PUSH32 0x0 PUSH1 0x1 PUSH1 0x1 PUSH1 0xA0 SHL SUB AND DUP2 MSTORE PUSH1 0x20 SWAP1 RETURN JUMPDEST POP POP CALLVALUE PUSH2 0x246 JUMPI DUP2 PUSH1 0x3 NOT CALLDATASIZE ADD SLT PUSH2 0x246 JUMPI PUSH1 0x20 SWAP1 MLOAD PUSH1 0x8 DUP2 MSTORE RETURN JUMPDEST POP SWAP1 CALLVALUE PUSH2 0x20A JUMPI PUSH1 0x20 CALLDATASIZE PUSH1 0x3 NOT ADD SLT PUSH2 0x20A JUMPI PUSH1 0x0 DUP1 MLOAD PUSH1 0x20 PUSH2 0x1737 DUP4 CODECOPY DUP2 MLOAD SWAP2 MSTORE SWAP2 PUSH2 0x1327 PUSH2 0x16E9 JUMP JUMPDEST PUSH2 0x1333 DUP2 CALLDATALOAD DUP3 SLOAD PUSH2 0x1473 JUMP JUMPDEST DUP1 SWAP2 SSTORE PUSH1 0x3 SLOAD SWAP1 DUP3 MLOAD SWAP2 DUP3 MSTORE PUSH1 0x20 DUP3 ADD MSTORE LOG1 DUP1 RETURN JUMPDEST POP POP CALLVALUE PUSH2 0x246 JUMPI DUP2 PUSH1 0x3 NOT CALLDATASIZE ADD SLT PUSH2 0x246 JUMPI MLOAD SWAP1 DUP2 MSTORE PUSH1 0x20 SWAP1 RETURN JUMPDEST CALLVALUE PUSH2 0x137F JUMPI PUSH1 0x0 CALLDATASIZE PUSH1 0x3 NOT ADD SLT PUSH2 0x137F JUMPI PUSH1 0x20 PUSH1 0x40 MLOAD PUSH1 0xA DUP2 MSTORE RETURN JUMPDEST PUSH1 0x0 DUP1 REVERT JUMPDEST PUSH1 0x4 CALLDATALOAD SWAP1 PUSH1 0x1 PUSH1 0x1 PUSH1 0xA0 SHL SUB DUP3 AND DUP3 SUB PUSH2 0x137F JUMPI JUMP JUMPDEST PUSH1 0x40 SWAP1 PUSH1 0x3 NOT ADD SLT PUSH2 0x137F JUMPI PUSH1 0x4 CALLDATALOAD SWAP1 PUSH1 0x24 CALLDATALOAD SWAP1 JUMP JUMPDEST DUP1 SLOAD DUP3 LT ISZERO PUSH2 0x13C8 JUMPI PUSH1 0x0 MSTORE PUSH1 0x20 PUSH1 0x0 KECCAK256 ADD SWAP1 PUSH1 0x0 SWAP1 JUMP JUMPDEST PUSH4 0x4E487B71 PUSH1 0xE0 SHL PUSH1 0x0 MSTORE PUSH1 0x32 PUSH1 0x4 MSTORE PUSH1 0x24 PUSH1 0x0 REVERT JUMPDEST PUSH1 0x40 PUSH1 0x3 NOT DUP3 ADD SLT PUSH2 0x137F JUMPI PUSH1 0x4 CALLDATALOAD SWAP2 PUSH1 0x1 PUSH1 0x1 PUSH1 0x40 SHL SUB SWAP2 PUSH1 0x24 CALLDATALOAD SWAP1 DUP4 DUP3 GT PUSH2 0x137F JUMPI DUP1 PUSH1 0x23 DUP4 ADD SLT ISZERO PUSH2 0x137F JUMPI DUP2 PUSH1 0x4 ADD CALLDATALOAD SWAP4 DUP5 GT PUSH2 0x137F JUMPI PUSH1 0x24 DUP5 PUSH1 0x5 SHL DUP4 ADD ADD GT PUSH2 0x137F JUMPI PUSH1 0x24 ADD SWAP2 SWAP1 JUMP JUMPDEST PUSH1 0x20 SWAP1 PUSH1 0x20 PUSH1 0x40 DUP2 DUP4 ADD SWAP3 DUP3 DUP2 MSTORE DUP6 MLOAD DUP1 SWAP5 MSTORE ADD SWAP4 ADD SWAP2 PUSH1 0x0 JUMPDEST DUP3 DUP2 LT PUSH2 0x1456 JUMPI POP POP POP POP SWAP1 JUMP JUMPDEST DUP4 MLOAD PUSH1 0x1 PUSH1 0x1 PUSH1 0xA0 SHL SUB AND DUP6 MSTORE SWAP4 DUP2 ADD SWAP4 SWAP3 DUP2 ADD SWAP3 PUSH1 0x1 ADD PUSH2 0x1448 JUMP JUMPDEST SWAP2 SWAP1 DUP3 ADD DUP1 SWAP3 GT PUSH2 0x1480 JUMPI JUMP JUMPDEST PUSH4 0x4E487B71 PUSH1 0xE0 SHL PUSH1 0x0 MSTORE PUSH1 0x11 PUSH1 0x4 MSTORE PUSH1 0x24 PUSH1 0x0 REVERT JUMPDEST ISZERO PUSH2 0x149D JUMPI JUMP JUMPDEST PUSH1 0x40 MLOAD PUSH3 0x461BCD PUSH1 0xE5 SHL DUP2 MSTORE PUSH1 0x20 PUSH1 0x4 DUP3 ADD MSTORE PUSH1 0x18 PUSH1 0x24 DUP3 ADD MSTORE PUSH24 0x4F6E6C79206F776E65722063616E2063616C6C2074686973 PUSH1 0x40 SHL PUSH1 0x44 DUP3 ADD MSTORE PUSH1 0x64 SWAP1 REVERT JUMPDEST ISZERO PUSH2 0x14E4 JUMPI JUMP JUMPDEST PUSH1 0x40 MLOAD PUSH3 0x461BCD PUSH1 0xE5 SHL DUP2 MSTORE PUSH1 0x20 PUSH1 0x4 DUP3 ADD MSTORE PUSH1 0x13 PUSH1 0x24 DUP3 ADD MSTORE PUSH19 0x139BC81DDA5B9B995C9CC81C1C9BDD9A591959 PUSH1 0x6A SHL PUSH1 0x44 DUP3 ADD MSTORE PUSH1 0x64 SWAP1 REVERT JUMPDEST DUP2 ISZERO PUSH2 0x1529 JUMPI DIV SWAP1 JUMP JUMPDEST PUSH4 0x4E487B71 PUSH1 0xE0 SHL PUSH1 0x0 MSTORE PUSH1 0x12 PUSH1 0x4 MSTORE PUSH1 0x24 PUSH1 0x0 REVERT JUMPDEST SWAP2 SWAP1 DUP2 LT ISZERO PUSH2 0x13C8 JUMPI PUSH1 0x5 SHL ADD SWAP1 JUMP JUMPDEST CALLDATALOAD PUSH1 0x1 PUSH1 0x1 PUSH1 0xA0 SHL SUB DUP2 AND DUP2 SUB PUSH2 0x137F JUMPI SWAP1 JUMP JUMPDEST PUSH1 0xC0 DUP2 ADD SWAP1 DUP2 LT PUSH1 0x1 PUSH1 0x1 PUSH1 0x40 SHL SUB DUP3 GT OR PUSH2 0x157E JUMPI PUSH1 0x40 MSTORE JUMP JUMPDEST PUSH4 0x4E487B71 PUSH1 0xE0 SHL PUSH1 0x0 MSTORE PUSH1 0x41 PUSH1 0x4 MSTORE PUSH1 0x24 PUSH1 0x0 REVERT JUMPDEST PUSH1 0x1F SWAP1 SWAP2 ADD PUSH1 0x1F NOT AND DUP2 ADD SWAP1 PUSH1 0x1 PUSH1 0x1 PUSH1 0x40 SHL SUB DUP3 GT SWAP1 DUP3 LT OR PUSH2 0x157E JUMPI PUSH1 0x40 MSTORE JUMP JUMPDEST SWAP1 DUP2 PUSH1 0x20 SWAP2 SUB SLT PUSH2 0x137F JUMPI MLOAD DUP1 ISZERO ISZERO DUP2 SUB PUSH2 0x137F JUMPI SWAP1 JUMP JUMPDEST PUSH1 0x1 PUSH1 0x1 PUSH1 0xA0 SHL SUB SWAP1 SWAP2 AND DUP2 MSTORE PUSH1 0x20 DUP2 ADD SWAP2 SWAP1 SWAP2 MSTORE PUSH1 0x40 ADD SWAP1 JUMP JUMPDEST SWAP1 DUP2 MSTORE PUSH1 0x60 PUSH1 0x20 DUP1 DUP4 ADD DUP3 SWAP1 MSTORE SWAP1 DUP3 ADD DUP5 SWAP1 MSTORE SWAP1 SWAP5 SWAP4 SWAP3 PUSH1 0x80 DUP7 ADD SWAP2 PUSH1 0x0 DUP1 JUMPDEST DUP4 DUP3 LT PUSH2 0x161E JUMPI POP POP POP POP PUSH1 0x40 SWAP2 POP SWAP4 ADD MSTORE JUMP JUMPDEST SWAP1 SWAP2 SWAP3 SWAP4 DUP6 CALLDATALOAD PUSH1 0x1 DUP1 PUSH1 0xA0 SHL SUB DUP2 AND DUP1 SWAP2 SUB PUSH2 0x20A JUMPI DUP2 MSTORE SWAP5 DUP4 ADD SWAP5 DUP4 ADD SWAP4 SWAP3 SWAP2 PUSH1 0x1 ADD SWAP1 PUSH2 0x160A JUMP JUMPDEST ISZERO PUSH2 0x164F JUMPI JUMP JUMPDEST PUSH1 0x40 MLOAD PUSH3 0x461BCD PUSH1 0xE5 SHL DUP2 MSTORE PUSH1 0x20 PUSH1 0x4 DUP3 ADD MSTORE PUSH1 0x15 PUSH1 0x24 DUP3 ADD MSTORE PUSH21 0x141B185E595C881A5CC8189B1858DADB1A5CDD1959 PUSH1 0x5A SHL PUSH1 0x44 DUP3 ADD MSTORE PUSH1 0x64 SWAP1 REVERT JUMPDEST PUSH1 0x1 PUSH1 0x1 PUSH1 0x40 SHL SUB DUP2 GT PUSH2 0x157E JUMPI PUSH1 0x5 SHL PUSH1 0x20 ADD SWAP1 JUMP JUMPDEST SWAP1 PUSH2 0x16AD DUP3 PUSH2 0x168C JUMP JUMPDEST PUSH2 0x16BA PUSH1 0x40 MLOAD SWAP2 DUP3 PUSH2 0x1594 JUMP JUMPDEST DUP3 DUP2 MSTORE DUP1 SWAP3 PUSH2 0x16CB PUSH1 0x1F NOT SWAP2 PUSH2 0x168C JUMP JUMPDEST ADD SWAP1 PUSH1 0x20 CALLDATASIZE SWAP2 ADD CALLDATACOPY JUMP JUMPDEST DUP1 MLOAD DUP3 LT ISZERO PUSH2 0x13C8 JUMPI PUSH1 0x20 SWAP2 PUSH1 0x5 SHL ADD ADD SWAP1 JUMP JUMPDEST PUSH1 0x1 SLOAD PUSH1 0x1 PUSH1 0x1 PUSH1 0xA0 SHL SUB AND CALLER SUB PUSH2 0x16FD JUMPI JUMP JUMPDEST PUSH1 0x40 MLOAD PUSH4 0x118CDAA7 PUSH1 0xE0 SHL DUP2 MSTORE CALLER PUSH1 0x4 DUP3 ADD MSTORE PUSH1 0x24 SWAP1 REVERT JUMPDEST PUSH1 0xFF PUSH1 0x1 SLOAD PUSH1 0xA0 SHR AND PUSH2 0x1724 JUMPI JUMP JUMPDEST PUSH1 0x40 MLOAD PUSH4 0xD93C0665 PUSH1 0xE0 SHL DUP2 MSTORE PUSH1 0x4 SWAP1 REVERT INVALID BLOCKHASH PREVRANDAO BLOBHASH 0xB4 0x2E DUP7 0xF8 PUSH18 0x6DD5AC141731FB164FE1F76D7E4039FDD16C PUSH28 0x3B48F96A4E8BE0079C531659141344CD1FD0A4F28419497F9722A3DA 0xAF 0xE3 0xB4 XOR PUSH16 0x6B6457E0195188E7E2A9C946C9131794 PUSH1 0x30 BLOBHASH 0xC EXTCODESIZE LOG4 DUP11 JUMPDEST PUSH32 0x867101928826FA4CC609C5A26469706673582212208DA8F93EB59C6527B0B311 0xCD JUMPI CHAINID DUP9 MLOAD 0xCB LOG3 0xDB PUSH16 0xB5BACFB5D599067AC0765E8A64736F6C PUSH4 0x43000818 STOP CALLER "},"methodIdentifiers":{"DAILY_PLAY_REWARD()":"dd23b9cb","DAILY_WINNERS_COUNT()":"16fa1086","ENTRY_COOLDOWN()":"a9b8b451","MAX_DAILY_ENTRIES()":"bbc3ced7","MIN_VMF_REQUIRED()":"eac9f124","WEEKLY_WINNERS_COUNT()":"0d9f92ca","addToDailyJackpot(uint256)":"8c5747af","addToWeeklyJackpot(uint256)":"14e0ebef","blacklistedAddresses(address)":"d5749d42","currentDailyJackpot()":"e3d440a7","currentWeeklyJackpot()":"3bb4f638","dailyPlayerCount(uint256)":"ffc39504","dailyPlayers(uint256,uint256)":"4eb692a5","emergencyPause(bool)":"e8f6940e","emergencyWithdraw()":"db2e21bc","enterDailyGame()":"5ff62403","getCurrentGameId()":"a2635401","getDailyJackpot()":"aab40f31","getEligibleDailyPlayers(uint256)":"bacf46f3","getEligibleWeeklyPlayers(uint256)":"ccb60e01","getMinimumVMFRequired()":"8b0a234c","getPlayerInfo(address)":"59328401","getPlayerToppings(address)":"fc564514","getPlayerVMFBalance(address)":"821c27ad","getTotalToppingsClaimed()":"1303b3c8","getWeeklyJackpot()":"79f329d9","isDailyDrawReady()":"2efb53da","isWeeklyDrawReady()":"c65a8568","lastDailyDraw()":"7550b84f","lastWeeklyDraw()":"c14e1e05","owner()":"8da5cb5b","paused()":"5c975abb","players(address)":"e2eb41ff","processDailyWinners(uint256,address[])":"9e9e4056","processWeeklyWinners(uint256,address[])":"56768b5e","renounceOwnership()":"715018a6","setPlayerBlacklist(address,bool)":"43f2a080","transferOwnership(address)":"f2fde38b","vmfToken()":"2086eefa","weeklyPlayerCount(uint256)":"d61b86bb","weeklyPlayers(uint256,uint256)":"920736e5"}}}}}