{
  "_format": "hh-sol-artifact-1",
  "contractName": "ChainlinkVRF",
  "sourceName": "contracts/ChainlinkVRF.sol",
  "abi": [
    {
      "inputs": [
        {
          "internalType": "address",
          "name": "_vrfCoordinator",
          "type": "address"
        },
        {
          "internalType": "uint64",
          "name": "_subscriptionId",
          "type": "uint64"
        },
        {
          "internalType": "bytes32",
          "name": "_keyHash",
          "type": "bytes32"
        },
        {
          "internalType": "uint32",
          "name": "_callbackGasLimit",
          "type": "uint32"
        },
        {
          "internalType": "uint16",
          "name": "_requestConfirmations",
          "type": "uint16"
        },
        {
          "internalType": "uint32",
          "name": "_numWords",
          "type": "uint32"
        }
      ],
      "stateMutability": "nonpayable",
      "type": "constructor"
    },
    {
      "inputs": [
        {
          "internalType": "address",
          "name": "have",
          "type": "address"
        },
        {
          "internalType": "address",
          "name": "want",
          "type": "address"
        }
      ],
      "name": "OnlyCoordinatorCanFulfill",
      "type": "error"
    },
    {
      "inputs": [
        {
          "internalType": "address",
          "name": "owner",
          "type": "address"
        }
      ],
      "name": "OwnableInvalidOwner",
      "type": "error"
    },
    {
      "inputs": [
        {
          "internalType": "address",
          "name": "account",
          "type": "address"
        }
      ],
      "name": "OwnableUnauthorizedAccount",
      "type": "error"
    },
    {
      "inputs": [],
      "name": "ReentrancyGuardReentrantCall",
      "type": "error"
    },
    {
      "anonymous": false,
      "inputs": [
        {
          "indexed": true,
          "internalType": "address",
          "name": "owner",
          "type": "address"
        },
        {
          "indexed": false,
          "internalType": "uint256",
          "name": "amount",
          "type": "uint256"
        }
      ],
      "name": "EmergencyWithdraw",
      "type": "event"
    },
    {
      "anonymous": false,
      "inputs": [
        {
          "indexed": true,
          "internalType": "address",
          "name": "previousOwner",
          "type": "address"
        },
        {
          "indexed": true,
          "internalType": "address",
          "name": "newOwner",
          "type": "address"
        }
      ],
      "name": "OwnershipTransferred",
      "type": "event"
    },
    {
      "anonymous": false,
      "inputs": [
        {
          "indexed": true,
          "internalType": "uint256",
          "name": "requestId",
          "type": "uint256"
        },
        {
          "indexed": true,
          "internalType": "uint256",
          "name": "gameId",
          "type": "uint256"
        },
        {
          "indexed": false,
          "internalType": "string",
          "name": "gameType",
          "type": "string"
        }
      ],
      "name": "RandomnessRequested",
      "type": "event"
    },
    {
      "anonymous": false,
      "inputs": [
        {
          "indexed": false,
          "internalType": "uint64",
          "name": "subscriptionId",
          "type": "uint64"
        },
        {
          "indexed": false,
          "internalType": "uint256",
          "name": "amount",
          "type": "uint256"
        }
      ],
      "name": "SubscriptionFunded",
      "type": "event"
    },
    {
      "anonymous": false,
      "inputs": [
        {
          "indexed": true,
          "internalType": "uint256",
          "name": "gameId",
          "type": "uint256"
        },
        {
          "indexed": false,
          "internalType": "string",
          "name": "gameType",
          "type": "string"
        },
        {
          "indexed": false,
          "internalType": "address[]",
          "name": "winners",
          "type": "address[]"
        },
        {
          "indexed": false,
          "internalType": "uint256[]",
          "name": "randomWords",
          "type": "uint256[]"
        }
      ],
      "name": "WinnersSelected",
      "type": "event"
    },
    {
      "inputs": [],
      "name": "DAILY_WINNERS_COUNT",
      "outputs": [
        {
          "internalType": "uint256",
          "name": "",
          "type": "uint256"
        }
      ],
      "stateMutability": "view",
      "type": "function"
    },
    {
      "inputs": [],
      "name": "WEEKLY_WINNERS_COUNT",
      "outputs": [
        {
          "internalType": "uint256",
          "name": "",
          "type": "uint256"
        }
      ],
      "stateMutability": "view",
      "type": "function"
    },
    {
      "inputs": [
        {
          "internalType": "address",
          "name": "token",
          "type": "address"
        },
        {
          "internalType": "uint256",
          "name": "amount",
          "type": "uint256"
        }
      ],
      "name": "emergencyWithdraw",
      "outputs": [],
      "stateMutability": "nonpayable",
      "type": "function"
    },
    {
      "inputs": [
        {
          "internalType": "uint256",
          "name": "amount",
          "type": "uint256"
        }
      ],
      "name": "fundSubscription",
      "outputs": [],
      "stateMutability": "nonpayable",
      "type": "function"
    },
    {
      "inputs": [
        {
          "internalType": "uint256",
          "name": "requestId",
          "type": "uint256"
        }
      ],
      "name": "getRequest",
      "outputs": [
        {
          "components": [
            {
              "internalType": "uint256",
              "name": "gameId",
              "type": "uint256"
            },
            {
              "internalType": "string",
              "name": "gameType",
              "type": "string"
            },
            {
              "internalType": "bool",
              "name": "fulfilled",
              "type": "bool"
            },
            {
              "internalType": "uint256[]",
              "name": "randomWords",
              "type": "uint256[]"
            },
            {
              "internalType": "address[]",
              "name": "eligiblePlayers",
              "type": "address[]"
            }
          ],
          "internalType": "struct ChainlinkVRF.RandomnessRequest",
          "name": "request",
          "type": "tuple"
        }
      ],
      "stateMutability": "view",
      "type": "function"
    },
    {
      "inputs": [],
      "name": "getVRFConfig",
      "outputs": [
        {
          "internalType": "address",
          "name": "coordinator",
          "type": "address"
        },
        {
          "internalType": "uint64",
          "name": "subId",
          "type": "uint64"
        },
        {
          "internalType": "bytes32",
          "name": "keyHash",
          "type": "bytes32"
        },
        {
          "internalType": "uint32",
          "name": "gasLimit",
          "type": "uint32"
        },
        {
          "internalType": "uint16",
          "name": "confirmations",
          "type": "uint16"
        },
        {
          "internalType": "uint32",
          "name": "words",
          "type": "uint32"
        }
      ],
      "stateMutability": "view",
      "type": "function"
    },
    {
      "inputs": [
        {
          "internalType": "uint256",
          "name": "requestId",
          "type": "uint256"
        }
      ],
      "name": "isRequestFulfilled",
      "outputs": [
        {
          "internalType": "bool",
          "name": "fulfilled",
          "type": "bool"
        }
      ],
      "stateMutability": "view",
      "type": "function"
    },
    {
      "inputs": [],
      "name": "owner",
      "outputs": [
        {
          "internalType": "address",
          "name": "",
          "type": "address"
        }
      ],
      "stateMutability": "view",
      "type": "function"
    },
    {
      "inputs": [],
      "name": "pizzaPartyContract",
      "outputs": [
        {
          "internalType": "contract IPizzaParty",
          "name": "",
          "type": "address"
        }
      ],
      "stateMutability": "view",
      "type": "function"
    },
    {
      "inputs": [
        {
          "internalType": "uint256",
          "name": "",
          "type": "uint256"
        }
      ],
      "name": "randomnessRequests",
      "outputs": [
        {
          "internalType": "uint256",
          "name": "gameId",
          "type": "uint256"
        },
        {
          "internalType": "string",
          "name": "gameType",
          "type": "string"
        },
        {
          "internalType": "bool",
          "name": "fulfilled",
          "type": "bool"
        }
      ],
      "stateMutability": "view",
      "type": "function"
    },
    {
      "inputs": [
        {
          "internalType": "uint256",
          "name": "requestId",
          "type": "uint256"
        },
        {
          "internalType": "uint256[]",
          "name": "randomWords",
          "type": "uint256[]"
        }
      ],
      "name": "rawFulfillRandomWords",
      "outputs": [],
      "stateMutability": "nonpayable",
      "type": "function"
    },
    {
      "inputs": [],
      "name": "renounceOwnership",
      "outputs": [],
      "stateMutability": "nonpayable",
      "type": "function"
    },
    {
      "inputs": [],
      "name": "requestCounter",
      "outputs": [
        {
          "internalType": "uint256",
          "name": "",
          "type": "uint256"
        }
      ],
      "stateMutability": "view",
      "type": "function"
    },
    {
      "inputs": [
        {
          "internalType": "uint256",
          "name": "gameId",
          "type": "uint256"
        },
        {
          "internalType": "address[]",
          "name": "eligiblePlayers",
          "type": "address[]"
        }
      ],
      "name": "requestDailyRandomness",
      "outputs": [
        {
          "internalType": "uint256",
          "name": "requestId",
          "type": "uint256"
        }
      ],
      "stateMutability": "nonpayable",
      "type": "function"
    },
    {
      "inputs": [
        {
          "internalType": "uint256",
          "name": "gameId",
          "type": "uint256"
        },
        {
          "internalType": "address[]",
          "name": "eligiblePlayers",
          "type": "address[]"
        }
      ],
      "name": "requestWeeklyRandomness",
      "outputs": [
        {
          "internalType": "uint256",
          "name": "requestId",
          "type": "uint256"
        }
      ],
      "stateMutability": "nonpayable",
      "type": "function"
    },
    {
      "inputs": [
        {
          "internalType": "address",
          "name": "_pizzaPartyContract",
          "type": "address"
        }
      ],
      "name": "setPizzaPartyContract",
      "outputs": [],
      "stateMutability": "nonpayable",
      "type": "function"
    },
    {
      "inputs": [
        {
          "internalType": "address",
          "name": "newOwner",
          "type": "address"
        }
      ],
      "name": "transferOwnership",
      "outputs": [],
      "stateMutability": "nonpayable",
      "type": "function"
    },
    {
      "stateMutability": "payable",
      "type": "receive"
    }
  ],
  "bytecode": "0x61016034620001bd576001600160401b0390601f62001d6938819003918201601f191683019184831184841017620001c25780849260c094604052833981010312620001bd5780516001600160a01b0380821693909290848303620001bd5760208201519081168103620001bd576040820151906200008160608401620001d8565b9560808401519361ffff85168503620001bd5760a0620000a29101620001d8565b946080523315620001a4576000543360018060a01b0319821617600055604051963391167f8be0079c531659141344cd1fd0a4f28419497f9722a3daafe3b4186f6b6457e0600080a36001805560a05260c05260e052610100938452610120908152610140918252611b7e9384620001eb85396080518461110c015260a0518481816102c1015281816108540152610c73015260c051848181610214015281816107d7015281816108800152610bc6015260e0518481816101e60152610b9801525183818161026a015281816108b20152610c1c01525182818161023e015281816108dc0152610bf0015251818181610292015281816109030152610c440152f35b604051631e4fbdf760e01b815260006004820152602490fd5b600080fd5b634e487b7160e01b600052604160045260246000fd5b519063ffffffff82168203620001bd5756fe608080604052600436101561001d575b50361561001b57600080fd5b005b600090813560e01c9081630d9f92ca146115485750806316fa10861461152c5780631fe543e314611096578063580dc76814610ff95780635cb6dfff14610f9b5780636e55033c14610b4e578063715018a614610af45780638da5cb5b14610acd57806395ccea6714610948578063973a814e1461092a5780639a5ea6a014610833578063ad44777b14610802578063c10606531461077f578063c58343ef1461063e578063cff47cb11461019c578063efe77a37146101735763f2fde38b0361000f5734610170576020366003190112610170576100fa6115ff565b6101026119fd565b6001600160a01b0390811690811561015757600054826bffffffffffffffffffffffff60a01b821617600055167f8be0079c531659141344cd1fd0a4f28419497f9722a3daafe3b4186f6b6457e0600080a380f35b604051631e4fbdf760e01b815260048101849052602490fd5b80fd5b50346101705780600319360112610170576004546040516001600160a01b039091168152602090f35b5034610170576101ab3661173c565b926101c460018060a09594951b036004541633146117fc565b6101cc611a29565b6101d7841515611858565b6040516305d3b1d360e41b81527f000000000000000000000000000000000000000000000000000000000000000060048201526001600160401b037f000000000000000000000000000000000000000000000000000000000000000016602482015261ffff7f000000000000000000000000000000000000000000000000000000000000000016604482015263ffffffff7f0000000000000000000000000000000000000000000000000000000000000000811660648301527f00000000000000000000000000000000000000000000000000000000000000001660848201529260208460a481857f00000000000000000000000000000000000000000000000000000000000000006001600160a01b03165af19384156106335782946105fa575b506103556040519161030a836115ac565b8383526040519661031a88611576565b8588526040519361032a85611591565b60058552646461696c7960d81b6020860152602089019485528560408a01526060890152369161189a565b60808601528382526002602052604082209085518255518051906001600160401b0382116105e657819061038c6001850154611615565b601f81116105a8575b50602090601f831160011461053957859261052e575b50508160011b916000199060031b1c19161760018201555b6103e260408601511515600283019060ff801983541691151516179055565b600381016060860151908151916001600160401b03831161051a57600160401b831161051a5760209061041a8484548186558561190f565b0190845260208420845b8381106105065750505050600460809101940151908151916001600160401b0383116104f257600160401b83116104f257602090610467848854818a558961190f565b0194815260208120905b8281106104d55760208585610487600354611932565b600355817fcf7db36b02e99ff75f887c79ebb5612e527ae7d7086dc5f8e273b94fa0a72eed6060604051868152600587820152646461696c7960d81b6040820152a360018055604051908152f35b85516001600160a01b031681830155602090950194600101610471565b634e487b7160e01b82526041600452602482fd5b600190602084519401938184015501610424565b634e487b7160e01b85526041600452602485fd5b0151905038806103ab565b9250600184018552602085209085935b601f198416851061058d576001945083601f19811610610574575b505050811b0160018201556103c3565b015160001960f88460031b161c19169055388080610564565b81810151835560209485019460019093019290910190610549565b6105d69060018601875260208720601f850160051c810191602086106105dc575b601f0160051c01906118f8565b38610395565b90915081906105c9565b634e487b7160e01b84526041600452602484fd5b9093506020813d60201161062b575b81610616602093836115c7565b81010312610626575192386102f9565b600080fd5b3d9150610609565b6040513d84823e3d90fd5b503461017057602090816003193601126101705760809060405161066181611576565b818152606092818486819401528360408201528280820152015260043581526002835260408120906040519261069684611576565b825484526001906106a96001850161164f565b9386860194855260ff60028201541693604087019415158552600382019060405194858a845491828152019383528a8320925b8b82821061076c578b6107688c8c6107578d8d61073a6107128f8f906107068660049303876115c7565b848b01958652016119a3565b9560808901968752604051998a99818b5251908a01525160a060408a015260c0890190611717565b93511515908701525191601f19928387830301608088015261178b565b9151908483030160a08501526117bf565b0390f35b84548652909401939282019282016106dc565b5034610170576020366003190112610170577fec9fc337416200b4fe605d1610ff1da46669abf941eefa67f2a0e70af1c531ac60406004356107bf6119fd565b6107ca811515611957565b8151906001600160401b037f00000000000000000000000000000000000000000000000000000000000000001682526020820152a180f35b50346101705760203660031901126101705760ff600260406020936004358152828552200154166040519015158152f35b503461017057806003193601126101705760c0906040519060018060a01b037f00000000000000000000000000000000000000000000000000000000000000001682526001600160401b037f0000000000000000000000000000000000000000000000000000000000000000166020830152604082015263ffffffff807f000000000000000000000000000000000000000000000000000000000000000016606083015261ffff7f00000000000000000000000000000000000000000000000000000000000000001660808301527f00000000000000000000000000000000000000000000000000000000000000001660a0820152f35b50346101705780600319360112610170576020600354604051908152f35b5034610170576040366003190112610170576109626115ff565b6024359061096e6119fd565b610979821515611957565b6001600160a01b03908116610aa457814710610a5f578280808085858254165af13d15610a5a573d6001600160401b038111610a4457604051906109c7601f8201601f1916602001836115c7565b81528460203d92013e5b15610a095760207f5fafa99d0643513820be26656b45130b01e1c03062e1266bf36f88cbd3bd9695915b84541692604051908152a280f35b60405162461bcd60e51b8152602060048201526013602482015272115512081d1c985b9cd9995c8819985a5b1959606a1b6044820152606490fd5b634e487b7160e01b600052604160045260246000fd5b6109d1565b60405162461bcd60e51b815260206004820152601860248201527f496e73756666696369656e74204554482062616c616e636500000000000000006044820152606490fd5b60207f5fafa99d0643513820be26656b45130b01e1c03062e1266bf36f88cbd3bd9695916109fb565b5034610170578060031936011261017057546040516001600160a01b039091168152602090f35b5034610170578060031936011261017057610b0d6119fd565b600080546001600160a01b0319811682556001600160a01b03167f8be0079c531659141344cd1fd0a4f28419497f9722a3daafe3b4186f6b6457e08280a380f35b503461017057610b5d3661173c565b92610b7660018060a09594951b036004541633146117fc565b610b7e611a29565b610b89841515611858565b6040516305d3b1d360e41b81527f000000000000000000000000000000000000000000000000000000000000000060048201526001600160401b037f000000000000000000000000000000000000000000000000000000000000000016602482015261ffff7f000000000000000000000000000000000000000000000000000000000000000016604482015263ffffffff7f0000000000000000000000000000000000000000000000000000000000000000811660648301527f00000000000000000000000000000000000000000000000000000000000000001660848201529260208460a481857f00000000000000000000000000000000000000000000000000000000000000006001600160a01b03165af1938415610633578294610f67575b50610d0860405191610cbc836115ac565b83835260405196610ccc88611576565b85885260405193610cdc85611591565b60068552657765656b6c7960d01b6020860152602089019485528560408a01526060890152369161189a565b60808601528382526002602052604082209085518255518051906001600160401b0382116105e6578190610d3f6001850154611615565b601f8111610f34575b50602090601f8311600114610ec5578592610eba575b50508160011b916000199060031b1c19161760018201555b610d9560408601511515600283019060ff801983541691151516179055565b600381016060860151908151916001600160401b03831161051a57600160401b831161051a57602090610dcd8484548186558561190f565b0190845260208420845b838110610ea65750505050600460809101940151908151916001600160401b0383116104f257600160401b83116104f257602090610e1a848854818a558961190f565b0194815260208120905b828110610e895760208585610e3a600354611932565b600355817fcf7db36b02e99ff75f887c79ebb5612e527ae7d7086dc5f8e273b94fa0a72eed6060604051868152600687820152657765656b6c7960d01b6040820152a360018055604051908152f35b85516001600160a01b031681830155602090950194600101610e24565b600190602084519401938184015501610dd7565b015190503880610d5e565b9250600184018552602085209085935b601f1984168510610f19576001945083601f19811610610f00575b505050811b016001820155610d76565b015160001960f88460031b161c19169055388080610ef0565b81810151835560209485019460019093019290910190610ed5565b610f619060018601875260208720601f850160051c810191602086106105dc57601f0160051c01906118f8565b38610d48565b9093506020813d602011610f93575b81610f83602093836115c7565b8101031261062657519238610cab565b3d9150610f76565b5034610170576020366003190112610170576040906004358152600260205220805460ff6002610fcd6001850161164f565b93015416610fed6040519384938452606060208501526060840190611717565b90151560408301520390f35b5034610170576020366003190112610170576110136115ff565b61101b6119fd565b6001600160a01b03168015611045576bffffffffffffffffffffffff60a01b600454161760045580f35b60405162461bcd60e51b8152602060048201526024808201527f496e76616c69642050697a7a6120506172747920636f6e7472616374206164646044820152637265737360e01b6064820152608490fd5b5034610170576040366003190112610170576001600160401b03906024358281116115285736602382011215611528578060040135926110d5846115e8565b916110e360405193846115c7565b848352602083016024819660051b8301019136831161152457602401905b8282106115145750507f00000000000000000000000000000000000000000000000000000000000000006001600160a01b03169050338190036114f6575060043583526002602052604083209360028501805460ff81166114b15760ff19166001179055825191600386019190831161051a57600160401b831161051a5761118e8383548185558461190f565b90845260208420845b83811061149d5750505050604051908291600185015492816111b885611615565b916001861680156114805760011461143f575b6111de925003601f1981018352826115c7565b602081519101206040516020810190646461696c7960d81b82526005815261120581611591565b519020036114355761122560085b82611220600488016119a3565b611a96565b918454916040519160608352859061123c81611615565b9081606086015260018116908160001461141357506001146113da575b5095837f6d0c7ec9588d04561ccce599685bc50934f29b4cfcee336567d14ae1a51ddc7484806112a960019661129b8d6112b29a8e9f0360208601528c6117bf565b90838203604085015261178b565b0390a20161164f565b6040516112dc602082816112cf81830196878151938492016116f4565b81010380845201826115c7565b5190206040516020810190646461696c7960d81b8252600581526112ff81611591565b51902003611373576004546001600160a01b031691823b1561136e5761134b92849283604051809681958294634f4f202b60e11b845260048401526040602484015260448301906117bf565b03925af180156106335761135e57505080f35b61136790611563565b6101705780f35b505050fd5b600454909291906001600160a01b0316803b156113d6576113b89383604051809681958294632b3b45af60e11b845260048401526040602484015260448301906117bf565b03925af18015610633576113ca575080f35b6113d390611563565b80f35b8280fd5b600188018752602087208792505b8183106113fc575050820160800183611259565b8054608084870101526020909201916001016113e8565b60ff191660808087019190915291151560051b85019091019150849050611259565b611225600a611213565b5050600186018552816020862086905b83821061146657505060206111de928201016111cb565b60209192508060019154838588010152019101839161144f565b505060206111de9260ff19871682840152801515028201016111cb565b600190602084519401938184015501611197565b60405162461bcd60e51b815260206004820152601960248201527f5265717565737420616c72656164792066756c66696c6c6564000000000000006044820152606490fd5b6044906040519063073e64fd60e21b82523360048301526024820152fd5b8135815260209182019101611101565b8580fd5b5080fd5b5034610170578060031936011261017057602060405160088152f35b90503461152857816003193601126115285780600a60209252f35b6001600160401b038111610a4457604052565b60a081019081106001600160401b03821117610a4457604052565b604081019081106001600160401b03821117610a4457604052565b602081019081106001600160401b03821117610a4457604052565b90601f801991011681019081106001600160401b03821117610a4457604052565b6001600160401b038111610a445760051b60200190565b600435906001600160a01b038216820361062657565b90600182811c92168015611645575b602083101461162f57565b634e487b7160e01b600052602260045260246000fd5b91607f1691611624565b9060405191826000825461166281611615565b908184526020946001916001811690816000146116d25750600114611693575b505050611691925003836115c7565b565b600090815285812095935091905b8183106116ba5750506116919350820101388080611682565b855488840185015294850194879450918301916116a1565b9250505061169194925060ff191682840152151560051b820101388080611682565b60005b8381106117075750506000910152565b81810151838201526020016116f7565b90602091611730815180928185528580860191016116f4565b601f01601f1916010190565b604060031982011261062657600435916024356001600160401b039283821161062657806023830112156106265781600401359384116106265760248460051b83010111610626576024019190565b90815180825260208080930193019160005b8281106117ab575050505090565b83518552938101939281019260010161179d565b90815180825260208080930193019160005b8281106117df575050505090565b83516001600160a01b0316855293810193928101926001016117d1565b1561180357565b60405162461bcd60e51b815260206004820152602760248201527f4f6e6c792050697a7a6120506172747920636f6e74726163742063616e2063616044820152666c6c207468697360c81b6064820152608490fd5b1561185f57565b60405162461bcd60e51b81526020600482015260136024820152724e6f20656c696769626c6520706c617965727360681b6044820152606490fd5b92916118a5826115e8565b916118b360405193846115c7565b829481845260208094019160051b810192831161062657905b8282106118d95750505050565b81356001600160a01b03811681036106265781529083019083016118cc565b818110611903575050565b600081556001016118f8565b9181811061191c57505050565b61169192600052602060002091820191016118f8565b60001981146119415760010190565b634e487b7160e01b600052601160045260246000fd5b1561195e57565b60405162461bcd60e51b815260206004820152601d60248201527f416d6f756e74206d7573742062652067726561746572207468616e20300000006044820152606490fd5b90604051918281549182825260209260208301916000526020600020936000905b8282106119da57505050611691925003836115c7565b85546001600160a01b0316845260019586019588955093810193909101906119c4565b6000546001600160a01b03163303611a1157565b60405163118cdaa760e01b8152336004820152602490fd5b600260015414611a3a576002600155565b604051633ee5aeb560e01b8152600490fd5b8115611a56570690565b634e487b7160e01b600052601260045260246000fd5b8051821015611a805760209160051b010190565b634e487b7160e01b600052603260045260246000fd5b9290611aa1836115e8565b91611aaf60405193846115c7565b838352601f19611abe856115e8565b0136602085013782855115611b40575060005b84811080611b36575b15611b2d57611b2890611af7611af1855183611a4c565b85611a6c565b5187516001600160a01b0391611b1691611b1091611a4c565b89611a6c565b5116611b228287611a6c565b52611932565b611ad1565b50935050905090565b5085518110611ada565b94509250505056fea2646970667358221220cc626db6d62fefc1af7a6cc3e5f934614b819fa2af8379d546b9cd39eeda9ac964736f6c63430008180033",
  "linkReferences": {},
  "deployedLinkReferences": {}
}