{
  "_format": "hh-sol-artifact-1",
  "contractName": "FreeRandomness",
  "sourceName": "contracts/FreeRandomness.sol",
  "abi": [
    {
      "inputs": [],
      "stateMutability": "nonpayable",
      "type": "constructor"
    },
    {
      "inputs": [
        {
          "internalType": "address",
          "name": "owner",
          "type": "address"
        }
      ],
      "name": "OwnableInvalidOwner",
      "type": "error"
    },
    {
      "inputs": [
        {
          "internalType": "address",
          "name": "account",
          "type": "address"
        }
      ],
      "name": "OwnableUnauthorizedAccount",
      "type": "error"
    },
    {
      "inputs": [],
      "name": "ReentrancyGuardReentrantCall",
      "type": "error"
    },
    {
      "anonymous": false,
      "inputs": [
        {
          "indexed": true,
          "internalType": "uint256",
          "name": "roundId",
          "type": "uint256"
        },
        {
          "indexed": true,
          "internalType": "address",
          "name": "contributor",
          "type": "address"
        },
        {
          "indexed": false,
          "internalType": "bytes32",
          "name": "commitment",
          "type": "bytes32"
        }
      ],
      "name": "CommitmentSubmitted",
      "type": "event"
    },
    {
      "anonymous": false,
      "inputs": [
        {
          "indexed": true,
          "internalType": "uint256",
          "name": "roundId",
          "type": "uint256"
        },
        {
          "components": [
            {
              "internalType": "uint256",
              "name": "blockNumber",
              "type": "uint256"
            },
            {
              "internalType": "uint256",
              "name": "timestamp",
              "type": "uint256"
            },
            {
              "internalType": "uint256",
              "name": "difficulty",
              "type": "uint256"
            },
            {
              "internalType": "uint256",
              "name": "gasLimit",
              "type": "uint256"
            },
            {
              "internalType": "uint256",
              "name": "gasUsed",
              "type": "uint256"
            },
            {
              "internalType": "uint256",
              "name": "baseFee",
              "type": "uint256"
            },
            {
              "internalType": "address",
              "name": "miner",
              "type": "address"
            }
          ],
          "indexed": false,
          "internalType": "struct FreeRandomness.EntropySource",
          "name": "entropy",
          "type": "tuple"
        }
      ],
      "name": "EntropyCollected",
      "type": "event"
    },
    {
      "anonymous": false,
      "inputs": [
        {
          "indexed": true,
          "internalType": "address",
          "name": "previousOwner",
          "type": "address"
        },
        {
          "indexed": true,
          "internalType": "address",
          "name": "newOwner",
          "type": "address"
        }
      ],
      "name": "OwnershipTransferred",
      "type": "event"
    },
    {
      "anonymous": false,
      "inputs": [
        {
          "indexed": true,
          "internalType": "uint256",
          "name": "roundId",
          "type": "uint256"
        },
        {
          "indexed": false,
          "internalType": "uint256",
          "name": "finalRandomNumber",
          "type": "uint256"
        },
        {
          "indexed": false,
          "internalType": "uint256",
          "name": "totalContributors",
          "type": "uint256"
        }
      ],
      "name": "RandomnessFinalized",
      "type": "event"
    },
    {
      "anonymous": false,
      "inputs": [
        {
          "indexed": true,
          "internalType": "uint256",
          "name": "roundId",
          "type": "uint256"
        },
        {
          "indexed": true,
          "internalType": "address",
          "name": "requester",
          "type": "address"
        }
      ],
      "name": "RandomnessRequested",
      "type": "event"
    },
    {
      "anonymous": false,
      "inputs": [
        {
          "indexed": true,
          "internalType": "uint256",
          "name": "roundId",
          "type": "uint256"
        },
        {
          "indexed": true,
          "internalType": "address",
          "name": "contributor",
          "type": "address"
        },
        {
          "indexed": false,
          "internalType": "uint256",
          "name": "randomValue",
          "type": "uint256"
        }
      ],
      "name": "RandomnessRevealed",
      "type": "event"
    },
    {
      "inputs": [],
      "name": "commitPhaseDuration",
      "outputs": [
        {
          "internalType": "uint256",
          "name": "",
          "type": "uint256"
        }
      ],
      "stateMutability": "view",
      "type": "function"
    },
    {
      "inputs": [
        {
          "internalType": "address",
          "name": "",
          "type": "address"
        }
      ],
      "name": "commits",
      "outputs": [
        {
          "internalType": "bytes32",
          "name": "commitment",
          "type": "bytes32"
        },
        {
          "internalType": "uint256",
          "name": "timestamp",
          "type": "uint256"
        },
        {
          "internalType": "bool",
          "name": "revealed",
          "type": "bool"
        },
        {
          "internalType": "uint256",
          "name": "randomValue",
          "type": "uint256"
        }
      ],
      "stateMutability": "view",
      "type": "function"
    },
    {
      "inputs": [],
      "name": "currentRoundId",
      "outputs": [
        {
          "internalType": "uint256",
          "name": "",
          "type": "uint256"
        }
      ],
      "stateMutability": "view",
      "type": "function"
    },
    {
      "inputs": [
        {
          "internalType": "uint256",
          "name": "roundId",
          "type": "uint256"
        }
      ],
      "name": "forceFinalize",
      "outputs": [],
      "stateMutability": "nonpayable",
      "type": "function"
    },
    {
      "inputs": [],
      "name": "getCurrentRandomnessRound",
      "outputs": [
        {
          "internalType": "uint256",
          "name": "",
          "type": "uint256"
        }
      ],
      "stateMutability": "view",
      "type": "function"
    },
    {
      "inputs": [
        {
          "internalType": "uint256",
          "name": "roundId",
          "type": "uint256"
        }
      ],
      "name": "getFinalRandomNumber",
      "outputs": [
        {
          "internalType": "uint256",
          "name": "",
          "type": "uint256"
        }
      ],
      "stateMutability": "view",
      "type": "function"
    },
    {
      "inputs": [
        {
          "internalType": "uint256",
          "name": "roundId",
          "type": "uint256"
        }
      ],
      "name": "getRoundContributors",
      "outputs": [
        {
          "internalType": "address[]",
          "name": "",
          "type": "address[]"
        }
      ],
      "stateMutability": "view",
      "type": "function"
    },
    {
      "inputs": [
        {
          "internalType": "uint256",
          "name": "roundId",
          "type": "uint256"
        }
      ],
      "name": "getRoundInfo",
      "outputs": [
        {
          "internalType": "uint256",
          "name": "totalContributors",
          "type": "uint256"
        },
        {
          "internalType": "uint256",
          "name": "totalEntropy",
          "type": "uint256"
        },
        {
          "internalType": "uint256",
          "name": "finalRandomNumber",
          "type": "uint256"
        },
        {
          "internalType": "bool",
          "name": "isComplete",
          "type": "bool"
        },
        {
          "internalType": "uint256",
          "name": "deadline",
          "type": "uint256"
        }
      ],
      "stateMutability": "view",
      "type": "function"
    },
    {
      "inputs": [],
      "name": "maxContributors",
      "outputs": [
        {
          "internalType": "uint256",
          "name": "",
          "type": "uint256"
        }
      ],
      "stateMutability": "view",
      "type": "function"
    },
    {
      "inputs": [],
      "name": "minContributors",
      "outputs": [
        {
          "internalType": "uint256",
          "name": "",
          "type": "uint256"
        }
      ],
      "stateMutability": "view",
      "type": "function"
    },
    {
      "inputs": [],
      "name": "owner",
      "outputs": [
        {
          "internalType": "address",
          "name": "",
          "type": "address"
        }
      ],
      "stateMutability": "view",
      "type": "function"
    },
    {
      "inputs": [
        {
          "internalType": "uint256",
          "name": "",
          "type": "uint256"
        }
      ],
      "name": "randomnessRounds",
      "outputs": [
        {
          "internalType": "uint256",
          "name": "roundId",
          "type": "uint256"
        },
        {
          "internalType": "uint256",
          "name": "totalContributors",
          "type": "uint256"
        },
        {
          "internalType": "uint256",
          "name": "totalEntropy",
          "type": "uint256"
        },
        {
          "internalType": "uint256",
          "name": "finalRandomNumber",
          "type": "uint256"
        },
        {
          "internalType": "bool",
          "name": "isComplete",
          "type": "bool"
        },
        {
          "internalType": "uint256",
          "name": "deadline",
          "type": "uint256"
        }
      ],
      "stateMutability": "view",
      "type": "function"
    },
    {
      "inputs": [],
      "name": "renounceOwnership",
      "outputs": [],
      "stateMutability": "nonpayable",
      "type": "function"
    },
    {
      "inputs": [],
      "name": "requestRandomness",
      "outputs": [
        {
          "internalType": "uint256",
          "name": "roundId",
          "type": "uint256"
        }
      ],
      "stateMutability": "nonpayable",
      "type": "function"
    },
    {
      "inputs": [],
      "name": "revealPhaseDuration",
      "outputs": [
        {
          "internalType": "uint256",
          "name": "",
          "type": "uint256"
        }
      ],
      "stateMutability": "view",
      "type": "function"
    },
    {
      "inputs": [
        {
          "internalType": "uint256",
          "name": "roundId",
          "type": "uint256"
        },
        {
          "internalType": "uint256",
          "name": "randomValue",
          "type": "uint256"
        },
        {
          "internalType": "bytes32",
          "name": "salt",
          "type": "bytes32"
        }
      ],
      "name": "revealRandomness",
      "outputs": [],
      "stateMutability": "nonpayable",
      "type": "function"
    },
    {
      "inputs": [
        {
          "internalType": "uint256",
          "name": "",
          "type": "uint256"
        },
        {
          "internalType": "uint256",
          "name": "",
          "type": "uint256"
        }
      ],
      "name": "roundContributors",
      "outputs": [
        {
          "internalType": "address",
          "name": "",
          "type": "address"
        }
      ],
      "stateMutability": "view",
      "type": "function"
    },
    {
      "inputs": [
        {
          "internalType": "uint256",
          "name": "roundId",
          "type": "uint256"
        },
        {
          "internalType": "bytes32",
          "name": "commitment",
          "type": "bytes32"
        }
      ],
      "name": "submitCommitment",
      "outputs": [],
      "stateMutability": "nonpayable",
      "type": "function"
    },
    {
      "inputs": [
        {
          "internalType": "address",
          "name": "newOwner",
          "type": "address"
        }
      ],
      "name": "transferOwnership",
      "outputs": [],
      "stateMutability": "nonpayable",
      "type": "function"
    },
    {
      "inputs": [
        {
          "internalType": "uint256",
          "name": "_commitPhaseDuration",
          "type": "uint256"
        },
        {
          "internalType": "uint256",
          "name": "_revealPhaseDuration",
          "type": "uint256"
        },
        {
          "internalType": "uint256",
          "name": "_minContributors",
          "type": "uint256"
        },
        {
          "internalType": "uint256",
          "name": "_maxContributors",
          "type": "uint256"
        }
      ],
      "name": "updateRoundParameters",
      "outputs": [],
      "stateMutability": "nonpayable",
      "type": "function"
    },
    {
      "inputs": [
        {
          "internalType": "uint256",
          "name": "",
          "type": "uint256"
        },
        {
          "internalType": "address",
          "name": "",
          "type": "address"
        }
      ],
      "name": "userContributions",
      "outputs": [
        {
          "internalType": "uint256",
          "name": "",
          "type": "uint256"
        }
      ],
      "stateMutability": "view",
      "type": "function"
    }
  ],
  "bytecode": "0x6080806040523461009a57600160005533156100845760018054336001600160a01b03198216811790925560405191906001600160a01b03167f8be0079c531659141344cd1fd0a4f28419497f9722a3daafe3b4186f6b6457e0600080a3610e1060075561070860085560036009556064600a5560016006556110ac90816100a08239f35b631e4fbdf760e01b815260006004820152602490fd5b600080fdfe60806040908082526004918236101561001757600080fd5b600091823560e01c9081632bae823614610c2e575080633b55e36214610bb9578063483b403914610b9b5780636ca804a714610b67578063715018a614610b0a5780637b43a8e614610aac578063837b4079146109d257806386fa5063146109b457806388c3ffb0146109595780638da5cb5b146109315780639cbe5efd1461069c578063a154fc6b146106ba578063c142e4951461069c578063c59051cd1461064e578063dd03c6f2146105eb578063dfc75372146105cd578063e6a3d9dc1461031e578063e7b6ecff14610285578063ed54890d1461023c578063f2fde38b146101a85763f8413b071461010c57600080fd5b346101a457816003193601126101a457610124610da0565b600654906000198214610191576001906020948284016006558385526003865281852084815561015660075442610cc5565b600582015501805460ff19169055519233837f28f521cf7abd0044cba5bb040c5217ff69a4e5865f5262905018698e68fe7d008380a3558152f35b634e487b7160e01b835260118452602483fd5b5080fd5b508234610238576020366003190112610238576101c3610c4a565b906101cc610d74565b6001600160a01b03918216928315610222575050600154826bffffffffffffffffffffffff60a01b821617600155167f8be0079c531659141344cd1fd0a4f28419497f9722a3daafe3b4186f6b6457e08380a380f35b51631e4fbdf760e01b8152908101849052602490fd5b8280fd5b5082346102385781600319360112610238576024356001600160a01b038116919082900361028157928291846020953583528552828220908252845220549051908152f35b8380fd5b508234610238576020366003190112610238578035916102a3610d74565b82845260036020526102ce60058286206102c360ff868301541615610d34565b015460085490610cc5565b4211156102e257836102df84610dc3565b80f35b906020606492519162461bcd60e51b8352820152601660248201527514995d99585b081c1a185cd9481b9bdd08195b99195960521b6044820152fd5b5090346105ca57816003193601126105ca57823592602493843591610341610da0565b81845260039460209160038352818620600597600582015442116105935761036f60ff848401541615610ce8565b8588526005855283882054600a5411156105515787885b878a528a8752858a20805482101561054057816103a291610c65565b905490841b1c6001600160a01b031633146103bf57600101610386565b505050909192939495965060015b6104f55784875260058452828720805490680100000000000000008210156104e35781610401916001809594018155610c65565b81549060031b9033821b91858060a01b03901b191617905501805490600182018092116104d15755815190608082019082821067ffffffffffffffff8311176104bf57509082917f6459ffc8e2e6aea1e7a6161f54ca96e0b0c83db7191f26ccf5c33e14f7f178c5949352858152600383820142815283830189815260608401918a8352338b5260028752858b2094518555516001850155600284019051151560ff8019835416911617905551910155519384523393a36001815580f35b634e487b7160e01b8852604190528787fd5b634e487b7160e01b8852601183528888fd5b634e487b7160e01b8952604184528989fd5b5060218784608494519362461bcd60e51b85528401528201527f416c726561647920636f6e747269627574656420746f207468697320726f756e6044820152601960fa1b6064820152fd5b5050919293949596979850506103cd565b835162461bcd60e51b81528084018690526018818c01527f4d617820636f6e7472696275746f7273207265616368656400000000000000006044820152606490fd5b835162461bcd60e51b81528084018690526012818c01527110dbdb5b5a5d081c1a185cd948195b99195960721b6044820152606490fd5b80fd5b50346101a457816003193601126101a4576020906008549051908152f35b50829034610238576020366003190112610238578060c09383358152600360205220805492600182015492600283015490600560ff60038601549486015416940154948151968752602087015285015260608401521515608083015260a0820152f35b5090346105ca57816003193601126105ca576024359235815260056020528181209081548410156105ca575060209261068691610c65565b905491519160018060a01b039160031b1c168152f35b50346101a457816003193601126101a4576020906006549051908152f35b50346101a45760603660031901126101a4578235906024908135906106dd610da0565b83855260209560038752818620936005850154804211156108f05760085461070491610cc5565b42116108bb5761071a60ff838701541615610ce8565b33875260028852828720908154801561088357600283019182549160ff831661084e578651908c8201898152604435898401523360601b606084015260548352608083019383851067ffffffffffffffff86111761083d5750838952825190200361080757505092856003899a9b9460019a97948b7f1b350cf204124e01b4dd0942b876ec748f97c4df686b0a6ab178dbe11f2f4b009860ff19161790550155600287016107c9878254610cc5565b9055848a528252808920338a52825284818a2055519384523393a3015460095411156107f8575b506001815580f35b61080190610dc3565b386107f0565b9071125b9d985b1a590818dbdb5b5a5d1b595b9d60721b60c46064938e62461bcd60e51b85526084820152601260a48201520152fd5b634e487b7160e01b8e52604189528dfd5b865162461bcd60e51b81528087018d90526010818401526f105b1c9958591e481c995d99585b195960821b6044820152606490fd5b845162461bcd60e51b81528085018b905260138184015272139bc818dbdb5b5a5d1b595b9d08199bdd5b99606a1b6044820152606490fd5b60129088606494519362461bcd60e51b85528401528201527114995d99585b081c1a185cd948195b99195960721b6044820152fd5b5060199088606494519362461bcd60e51b85528401528201527f436f6d6d6974207068617365207374696c6c20616374697665000000000000006044820152fd5b50346101a457816003193601126101a45760015490516001600160a01b039091168152602090f35b50829034610238576020366003190112610238578060a09383358152600360205220600181015492600282015492600560ff600385015493850154169301549381519586526020860152840152151560608301526080820152f35b50346101a457816003193601126101a457602090600a549051908152f35b50346101a45760208060031936011261023857833583526005815281832092825192838386549182815201908196845284842090845b86828210610a8f5750505050849003601f01601f191684019567ffffffffffffffff871185881017610a7c575085815282865292518583018190528594938501939290915b828110610a5c57505050500390f35b83516001600160a01b031685528695509381019392810192600101610a4d565b634e487b7160e01b835260419052602482fd5b83546001600160a01b031685529093019260019283019201610a08565b50346101a45760203660031901126101a45760809181906001600160a01b03610ad3610c4a565b168152600260205220805491600182015491600360ff60028301541691015492825194855260208501521515908301526060820152f35b82346105ca57806003193601126105ca57610b23610d74565b600180546001600160a01b0319811690915581906001600160a01b03167f8be0079c531659141344cd1fd0a4f28419497f9722a3daafe3b4186f6b6457e08280a380f35b8284346101a45760803660031901126101a457610b82610d74565b35600755602435600855604435600955606435600a5580f35b50346101a457816003193601126101a4576020906007549051908152f35b509190346105ca5760203660031901126105ca578290823581526003602052209060ff818301541615610bf55760208360038401549051908152f35b606490602084519162461bcd60e51b83528201526013602482015272149bdd5b99081b9bdd08199a5b985b1a5e9959606a1b6044820152fd5b8390346101a457816003193601126101a4576020906009548152f35b600435906001600160a01b0382168203610c6057565b600080fd5b8054821015610c7d5760005260206000200190600090565b634e487b7160e01b600052603260045260246000fd5b60e0810190811067ffffffffffffffff821117610caf57604052565b634e487b7160e01b600052604160045260246000fd5b91908201809211610cd257565b634e487b7160e01b600052601160045260246000fd5b15610cef57565b60405162461bcd60e51b815260206004820152601760248201527f526f756e6420616c726561647920636f6d706c657465640000000000000000006044820152606490fd5b15610d3b57565b60405162461bcd60e51b8152602060048201526011602482015270105b1c9958591e48199a5b985b1a5e9959607a1b6044820152606490fd5b6001546001600160a01b03163303610d8857565b60405163118cdaa760e01b8152336004820152602490fd5b600260005414610db1576002600055565b604051633ee5aeb560e01b8152600490fd5b8060005260036020526040600020600481015492610de460ff851615610d34565b600060c0604051610df481610c93565b8281528260208201528260408201528260608201528260808201528260a0820152015260405190610e2482610c93565b4382524260208301524460408301524560608301524560808301524860a08301524160c0830152836000526003602052610ec5610eb1610ea6610e9b610e90610e85610e7a600260406000200154895190610cc5565b602089015190610cc5565b604088015190610cc5565b606087015190610cc5565b608086015190610cc5565b60a085015190610cc5565b60c08401516001600160a01b031690610cc5565b926000935b85600052600560205260406000208054861015610f3357600191610f09610ef488610f2b94610c65565b858060a01b0391549060031b1c168092610cc5565b9088600052600460205260406000209060005260205260406000205490610cc5565b940193610eca565b50610f4f919450610f4a8691979493974290610cc5565b610cc5565b926000194301438111610cd2576001194301438111610cd257600219430191438311610cd257604051966020880152406040870152406060860152406080850152608084528360a081011067ffffffffffffffff60a086011117610caf577fef96d6aec820d450f000adc62090e956f3335bfa69c59c376fcc43cfd6d683f6604060a08660e09660018a96847f8952e36e2a718e16caca6c19548cfb9fa1a6b5afbf9c61b4f140014a91430c029b01865281845160208601209384600384015560ff19161760048201550154908383015260c082015201a260405190805182526020810151602083015260408101516040830152606081015160608301526080810151608083015260a081015160a083015260c060018060a01b039101511660c0820152a256fea26469706673582212206d66d61fdcb2145e803998abdfc46e7402b9f52e9f811a9dbaa6224ee5b84f3f64736f6c63430008180033",
  "linkReferences": {},
  "deployedLinkReferences": {}
}