{
  "_format": "hh-sol-artifact-1",
  "contractName": "SecureReferralSystem",
  "sourceName": "contracts/SecureReferralSystem.sol",
  "abi": [
    {
      "inputs": [
        {
          "internalType": "address",
          "name": "_randomnessContract",
          "type": "address"
        }
      ],
      "stateMutability": "nonpayable",
      "type": "constructor"
    },
    {
      "inputs": [],
      "name": "EnforcedPause",
      "type": "error"
    },
    {
      "inputs": [],
      "name": "ExpectedPause",
      "type": "error"
    },
    {
      "inputs": [
        {
          "internalType": "address",
          "name": "owner",
          "type": "address"
        }
      ],
      "name": "OwnableInvalidOwner",
      "type": "error"
    },
    {
      "inputs": [
        {
          "internalType": "address",
          "name": "account",
          "type": "address"
        }
      ],
      "name": "OwnableUnauthorizedAccount",
      "type": "error"
    },
    {
      "inputs": [],
      "name": "ReentrancyGuardReentrantCall",
      "type": "error"
    },
    {
      "anonymous": false,
      "inputs": [
        {
          "indexed": true,
          "internalType": "bytes32",
          "name": "codeHash",
          "type": "bytes32"
        },
        {
          "indexed": true,
          "internalType": "address",
          "name": "creator",
          "type": "address"
        },
        {
          "indexed": false,
          "internalType": "uint256",
          "name": "reclaimedAmount",
          "type": "uint256"
        }
      ],
      "name": "CodeReclaimed",
      "type": "event"
    },
    {
      "anonymous": false,
      "inputs": [
        {
          "indexed": true,
          "internalType": "address",
          "name": "previousOwner",
          "type": "address"
        },
        {
          "indexed": true,
          "internalType": "address",
          "name": "newOwner",
          "type": "address"
        }
      ],
      "name": "OwnershipTransferred",
      "type": "event"
    },
    {
      "anonymous": false,
      "inputs": [
        {
          "indexed": false,
          "internalType": "address",
          "name": "account",
          "type": "address"
        }
      ],
      "name": "Paused",
      "type": "event"
    },
    {
      "anonymous": false,
      "inputs": [
        {
          "indexed": true,
          "internalType": "bytes32",
          "name": "codeHash",
          "type": "bytes32"
        },
        {
          "indexed": true,
          "internalType": "address",
          "name": "claimer",
          "type": "address"
        },
        {
          "indexed": true,
          "internalType": "address",
          "name": "creator",
          "type": "address"
        },
        {
          "indexed": false,
          "internalType": "uint256",
          "name": "rewardAmount",
          "type": "uint256"
        },
        {
          "indexed": false,
          "internalType": "uint256",
          "name": "claimTime",
          "type": "uint256"
        }
      ],
      "name": "ReferralCodeClaimed",
      "type": "event"
    },
    {
      "anonymous": false,
      "inputs": [
        {
          "indexed": true,
          "internalType": "bytes32",
          "name": "codeHash",
          "type": "bytes32"
        },
        {
          "indexed": true,
          "internalType": "address",
          "name": "creator",
          "type": "address"
        },
        {
          "indexed": false,
          "internalType": "uint256",
          "name": "expiryTime",
          "type": "uint256"
        }
      ],
      "name": "ReferralCodeExpired",
      "type": "event"
    },
    {
      "anonymous": false,
      "inputs": [
        {
          "indexed": true,
          "internalType": "bytes32",
          "name": "codeHash",
          "type": "bytes32"
        },
        {
          "indexed": true,
          "internalType": "address",
          "name": "creator",
          "type": "address"
        },
        {
          "indexed": false,
          "internalType": "string",
          "name": "codeString",
          "type": "string"
        },
        {
          "indexed": false,
          "internalType": "uint256",
          "name": "expiry",
          "type": "uint256"
        },
        {
          "indexed": false,
          "internalType": "uint256",
          "name": "maxClaims",
          "type": "uint256"
        },
        {
          "indexed": false,
          "internalType": "uint256",
          "name": "rewardAmount",
          "type": "uint256"
        }
      ],
      "name": "ReferralCodeGenerated",
      "type": "event"
    },
    {
      "anonymous": false,
      "inputs": [
        {
          "indexed": true,
          "internalType": "address",
          "name": "user",
          "type": "address"
        },
        {
          "indexed": false,
          "internalType": "uint256",
          "name": "amount",
          "type": "uint256"
        },
        {
          "indexed": false,
          "internalType": "string",
          "name": "reason",
          "type": "string"
        }
      ],
      "name": "RewardDistributed",
      "type": "event"
    },
    {
      "anonymous": false,
      "inputs": [
        {
          "indexed": false,
          "internalType": "address",
          "name": "account",
          "type": "address"
        }
      ],
      "name": "Unpaused",
      "type": "event"
    },
    {
      "anonymous": false,
      "inputs": [
        {
          "indexed": true,
          "internalType": "address",
          "name": "user",
          "type": "address"
        },
        {
          "indexed": false,
          "internalType": "bool",
          "name": "blacklisted",
          "type": "bool"
        },
        {
          "indexed": false,
          "internalType": "string",
          "name": "reason",
          "type": "string"
        }
      ],
      "name": "UserBlacklisted",
      "type": "event"
    },
    {
      "inputs": [],
      "name": "BONUS_REWARD_AMOUNT",
      "outputs": [
        {
          "internalType": "uint256",
          "name": "",
          "type": "uint256"
        }
      ],
      "stateMutability": "view",
      "type": "function"
    },
    {
      "inputs": [],
      "name": "CLAIM_COOLDOWN",
      "outputs": [
        {
          "internalType": "uint256",
          "name": "",
          "type": "uint256"
        }
      ],
      "stateMutability": "view",
      "type": "function"
    },
    {
      "inputs": [],
      "name": "CODE_EXPIRY_DURATION",
      "outputs": [
        {
          "internalType": "uint256",
          "name": "",
          "type": "uint256"
        }
      ],
      "stateMutability": "view",
      "type": "function"
    },
    {
      "inputs": [],
      "name": "DEFAULT_REWARD_AMOUNT",
      "outputs": [
        {
          "internalType": "uint256",
          "name": "",
          "type": "uint256"
        }
      ],
      "stateMutability": "view",
      "type": "function"
    },
    {
      "inputs": [],
      "name": "GENERATION_COOLDOWN",
      "outputs": [
        {
          "internalType": "uint256",
          "name": "",
          "type": "uint256"
        }
      ],
      "stateMutability": "view",
      "type": "function"
    },
    {
      "inputs": [],
      "name": "MAX_CLAIMS_PER_CODE",
      "outputs": [
        {
          "internalType": "uint256",
          "name": "",
          "type": "uint256"
        }
      ],
      "stateMutability": "view",
      "type": "function"
    },
    {
      "inputs": [],
      "name": "MAX_CODES_PER_USER",
      "outputs": [
        {
          "internalType": "uint256",
          "name": "",
          "type": "uint256"
        }
      ],
      "stateMutability": "view",
      "type": "function"
    },
    {
      "inputs": [],
      "name": "MAX_CODE_LENGTH",
      "outputs": [
        {
          "internalType": "uint256",
          "name": "",
          "type": "uint256"
        }
      ],
      "stateMutability": "view",
      "type": "function"
    },
    {
      "inputs": [],
      "name": "MIN_CODE_LENGTH",
      "outputs": [
        {
          "internalType": "uint256",
          "name": "",
          "type": "uint256"
        }
      ],
      "stateMutability": "view",
      "type": "function"
    },
    {
      "inputs": [
        {
          "internalType": "address",
          "name": "",
          "type": "address"
        }
      ],
      "name": "blacklistedAddresses",
      "outputs": [
        {
          "internalType": "bool",
          "name": "",
          "type": "bool"
        }
      ],
      "stateMutability": "view",
      "type": "function"
    },
    {
      "inputs": [
        {
          "internalType": "bytes32",
          "name": "codeHash",
          "type": "bytes32"
        }
      ],
      "name": "claimReferralCode",
      "outputs": [],
      "stateMutability": "nonpayable",
      "type": "function"
    },
    {
      "inputs": [
        {
          "internalType": "bytes32",
          "name": "",
          "type": "bytes32"
        },
        {
          "internalType": "uint256",
          "name": "",
          "type": "uint256"
        }
      ],
      "name": "codeClaims",
      "outputs": [
        {
          "internalType": "address",
          "name": "claimer",
          "type": "address"
        },
        {
          "internalType": "uint256",
          "name": "claimTime",
          "type": "uint256"
        },
        {
          "internalType": "uint256",
          "name": "rewardAmount",
          "type": "uint256"
        },
        {
          "internalType": "bool",
          "name": "isProcessed",
          "type": "bool"
        }
      ],
      "stateMutability": "view",
      "type": "function"
    },
    {
      "inputs": [
        {
          "internalType": "uint256",
          "name": "maxClaims",
          "type": "uint256"
        },
        {
          "internalType": "uint256",
          "name": "rewardAmount",
          "type": "uint256"
        }
      ],
      "name": "generateBlockhashReferralCode",
      "outputs": [],
      "stateMutability": "nonpayable",
      "type": "function"
    },
    {
      "inputs": [
        {
          "internalType": "uint256",
          "name": "requestId",
          "type": "uint256"
        },
        {
          "internalType": "uint256",
          "name": "maxClaims",
          "type": "uint256"
        },
        {
          "internalType": "uint256",
          "name": "rewardAmount",
          "type": "uint256"
        }
      ],
      "name": "generateVRFReferralCode",
      "outputs": [],
      "stateMutability": "nonpayable",
      "type": "function"
    },
    {
      "inputs": [
        {
          "internalType": "bytes32",
          "name": "codeHash",
          "type": "bytes32"
        }
      ],
      "name": "getReferralCode",
      "outputs": [
        {
          "internalType": "address",
          "name": "creator",
          "type": "address"
        },
        {
          "internalType": "uint256",
          "name": "expiry",
          "type": "uint256"
        },
        {
          "internalType": "bool",
          "name": "claimed",
          "type": "bool"
        },
        {
          "internalType": "uint256",
          "name": "claimCount",
          "type": "uint256"
        },
        {
          "internalType": "uint256",
          "name": "maxClaims",
          "type": "uint256"
        },
        {
          "internalType": "uint256",
          "name": "rewardAmount",
          "type": "uint256"
        },
        {
          "internalType": "string",
          "name": "codeString",
          "type": "string"
        },
        {
          "internalType": "bool",
          "name": "isActive",
          "type": "bool"
        }
      ],
      "stateMutability": "view",
      "type": "function"
    },
    {
      "inputs": [],
      "name": "getSystemStats",
      "outputs": [
        {
          "internalType": "uint256",
          "name": "totalCodesGenerated",
          "type": "uint256"
        },
        {
          "internalType": "uint256",
          "name": "totalCodesClaimed",
          "type": "uint256"
        },
        {
          "internalType": "uint256",
          "name": "totalRewardsDistributed",
          "type": "uint256"
        }
      ],
      "stateMutability": "view",
      "type": "function"
    },
    {
      "inputs": [
        {
          "internalType": "address",
          "name": "user",
          "type": "address"
        }
      ],
      "name": "getUserReferralData",
      "outputs": [
        {
          "internalType": "uint256",
          "name": "totalCodesCreated",
          "type": "uint256"
        },
        {
          "internalType": "uint256",
          "name": "totalCodesClaimed",
          "type": "uint256"
        },
        {
          "internalType": "uint256",
          "name": "totalRewardsEarned",
          "type": "uint256"
        },
        {
          "internalType": "uint256",
          "name": "lastCodeGeneration",
          "type": "uint256"
        },
        {
          "internalType": "bool",
          "name": "isBlacklisted",
          "type": "bool"
        },
        {
          "internalType": "uint256",
          "name": "cooldownEndTime",
          "type": "uint256"
        }
      ],
      "stateMutability": "view",
      "type": "function"
    },
    {
      "inputs": [],
      "name": "owner",
      "outputs": [
        {
          "internalType": "address",
          "name": "",
          "type": "address"
        }
      ],
      "stateMutability": "view",
      "type": "function"
    },
    {
      "inputs": [],
      "name": "paused",
      "outputs": [
        {
          "internalType": "bool",
          "name": "",
          "type": "bool"
        }
      ],
      "stateMutability": "view",
      "type": "function"
    },
    {
      "inputs": [],
      "name": "randomnessContract",
      "outputs": [
        {
          "internalType": "contract FreeRandomness",
          "name": "",
          "type": "address"
        }
      ],
      "stateMutability": "view",
      "type": "function"
    },
    {
      "inputs": [
        {
          "internalType": "bytes32",
          "name": "codeHash",
          "type": "bytes32"
        }
      ],
      "name": "reclaimExpiredCode",
      "outputs": [],
      "stateMutability": "nonpayable",
      "type": "function"
    },
    {
      "inputs": [
        {
          "internalType": "bytes32",
          "name": "",
          "type": "bytes32"
        }
      ],
      "name": "referralCodes",
      "outputs": [
        {
          "internalType": "bytes32",
          "name": "codeHash",
          "type": "bytes32"
        },
        {
          "internalType": "address",
          "name": "creator",
          "type": "address"
        },
        {
          "internalType": "uint256",
          "name": "expiry",
          "type": "uint256"
        },
        {
          "internalType": "bool",
          "name": "claimed",
          "type": "bool"
        },
        {
          "internalType": "uint256",
          "name": "claimCount",
          "type": "uint256"
        },
        {
          "internalType": "uint256",
          "name": "maxClaims",
          "type": "uint256"
        },
        {
          "internalType": "uint256",
          "name": "rewardAmount",
          "type": "uint256"
        },
        {
          "internalType": "string",
          "name": "codeString",
          "type": "string"
        },
        {
          "internalType": "bool",
          "name": "isActive",
          "type": "bool"
        }
      ],
      "stateMutability": "view",
      "type": "function"
    },
    {
      "inputs": [],
      "name": "renounceOwnership",
      "outputs": [],
      "stateMutability": "nonpayable",
      "type": "function"
    },
    {
      "inputs": [
        {
          "internalType": "bool",
          "name": "paused",
          "type": "bool"
        }
      ],
      "name": "setPaused",
      "outputs": [],
      "stateMutability": "nonpayable",
      "type": "function"
    },
    {
      "inputs": [
        {
          "internalType": "address",
          "name": "user",
          "type": "address"
        },
        {
          "internalType": "bool",
          "name": "blacklisted",
          "type": "bool"
        },
        {
          "internalType": "string",
          "name": "reason",
          "type": "string"
        }
      ],
      "name": "setUserBlacklisted",
      "outputs": [],
      "stateMutability": "nonpayable",
      "type": "function"
    },
    {
      "inputs": [],
      "name": "totalCodesClaimed",
      "outputs": [
        {
          "internalType": "uint256",
          "name": "",
          "type": "uint256"
        }
      ],
      "stateMutability": "view",
      "type": "function"
    },
    {
      "inputs": [],
      "name": "totalCodesGenerated",
      "outputs": [
        {
          "internalType": "uint256",
          "name": "",
          "type": "uint256"
        }
      ],
      "stateMutability": "view",
      "type": "function"
    },
    {
      "inputs": [],
      "name": "totalRewardsDistributed",
      "outputs": [
        {
          "internalType": "uint256",
          "name": "",
          "type": "uint256"
        }
      ],
      "stateMutability": "view",
      "type": "function"
    },
    {
      "inputs": [
        {
          "internalType": "address",
          "name": "newOwner",
          "type": "address"
        }
      ],
      "name": "transferOwnership",
      "outputs": [],
      "stateMutability": "nonpayable",
      "type": "function"
    },
    {
      "inputs": [
        {
          "internalType": "address",
          "name": "",
          "type": "address"
        }
      ],
      "name": "userClaimCount",
      "outputs": [
        {
          "internalType": "uint256",
          "name": "",
          "type": "uint256"
        }
      ],
      "stateMutability": "view",
      "type": "function"
    },
    {
      "inputs": [
        {
          "internalType": "address",
          "name": "",
          "type": "address"
        }
      ],
      "name": "userReferralData",
      "outputs": [
        {
          "internalType": "uint256",
          "name": "totalCodesCreated",
          "type": "uint256"
        },
        {
          "internalType": "uint256",
          "name": "totalCodesClaimed",
          "type": "uint256"
        },
        {
          "internalType": "uint256",
          "name": "totalRewardsEarned",
          "type": "uint256"
        },
        {
          "internalType": "uint256",
          "name": "lastCodeGeneration",
          "type": "uint256"
        },
        {
          "internalType": "bool",
          "name": "isBlacklisted",
          "type": "bool"
        },
        {
          "internalType": "uint256",
          "name": "cooldownEndTime",
          "type": "uint256"
        }
      ],
      "stateMutability": "view",
      "type": "function"
    }
  ],
  "bytecode": "0x60803461011b57601f6200217438819003918201601f19168301916001600160401b038311848410176101205780849260209460405283398101031261011b57516001600160a01b038082169182900361011b57600160005533156101025760018054336001600160a01b0319808316821790935560405192939091167f8be0079c531659141344cd1fd0a4f28419497f9722a3daafe3b4186f6b6457e0600080a382156100c05750600254161760025560405161203d9081620001378239f35b62461bcd60e51b815260206004820152601b60248201527f496e76616c69642072616e646f6d6e65737320636f6e747261637400000000006044820152606490fd5b604051631e4fbdf760e01b815260006004820152602490fd5b600080fd5b634e487b7160e01b600052604160045260246000fdfe608080604052600436101561001357600080fd5b60e0600035811c9182630b66e16714611a62575081630eaeaa5a14611a445781630ee9995d14611a2657816316c38b3c1461195a578163257e662b1461185c57816333b5951f1461183e57816337c909ec1461182157816341fe39ec146117f8578163443d2336146117dc5781635c975abb146117b65781635e30acb414611799578163616765341461177d5781636d7ce1b914611761578163715018a614611704578163760c4e71146111285781637daf9036146110ee5781637e6445471461103e5781638da5cb5b1461101557816391be6f7614610fa35781639be403b914610f1f578163a043846714610b6c578163b57da7c514610b50578163c6968bd61461071057508063d1ce59a7146106e6578063d5749d42146106a7578063d83123c71461068b578063e1c8e976146105c1578063e75d69d914610398578063ee1725461461037a578063ee34af88146102045763f2fde38b1461017657600080fd5b346101ff5760203660031901126101ff5761018f611ac4565b610197611e2e565b6001600160a01b039081169081156101e657600154826001600160601b0360a01b821617600155167f8be0079c531659141344cd1fd0a4f28419497f9722a3daafe3b4186f6b6457e0600080a3005b604051631e4fbdf760e01b815260006004820152602490fd5b600080fd5b346101ff5760603660031901126101ff5761021d611ac4565b602435908115158083036101ff5760443567ffffffffffffffff928382116101ff57366023830112156101ff578160040135938411610364576020936040519261027086601f19601f8501160185611b69565b81845236602483830101116101ff578160009260248893018387013784010152610298611e2e565b6001600160a01b031693841561032d577fba33a16e1d447fa7b480cfb19ea81a8d6a020c85274203e49036f10a5459faf59392916103126103289287600052600586526102f58160406000209060ff801983541691151516179055565b6004865260046040600020019060ff801983541691151516179055565b6040805194859485528401526040830190611a9f565b0390a2005b60405162461bcd60e51b815260048101859052600f60248201526e496e76616c6964206164647265737360881b6044820152606490fd5b634e487b7160e01b600052604160045260246000fd5b346101ff5760003660031901126101ff576020600a54604051908152f35b346101ff576020806003193601126101ff576004356103b5611e5a565b6103bd611e7d565b600081815260038084526040909120600101546001600160a01b0316330361058957816000528083526002604060002001544210610551578160005280835260ff600860406000200154161561051357816000528083526040600020906004600583015492015491828103928184116104fd578460005282865260066040600020015480850294850414911417156104fd57826000528352600860406000200160ff198154169055336000526004835261047f81600260406000200154611ca4565b336000526004845260026040600020015561049c81600a54611ca4565b600a55604051908152817f48f7cf00ff0fd3ccaeb2b216453d429b0d13fd7c09b8e2adf1598ded04b797e4843393a37f20e379900dcdd0c9be20e3fa80e12cc2a1b877d5c2c967499da1019245d53e3a604051924284523393a36001600055005b634e487b7160e01b600052601160045260246000fd5b60405162461bcd60e51b815260048101849052601660248201527510dbd91948185b1c9958591e481c9958db185a5b595960521b6044820152606490fd5b60405162461bcd60e51b815260048101849052601060248201526f10dbd919481b9bdd08195e1c1a5c995960821b6044820152606490fd5b60405162461bcd60e51b815260048101849052601060248201526f2737ba1031b7b2329031b932b0ba37b960811b6044820152606490fd5b346101ff5760203660031901126101ff576001600160a01b036105e2611ac4565b16600052600460205260406000206040519060c0820182811067ffffffffffffffff8211176103645760405261068760a08254928385526001810154948560208201526002820154806040830152600383015491826060820152600560ff60048601541615159485608084015201549485910152604051968796879260a094919796959260c08501988552602085015260408401526060830152151560808201520152565b0390f35b346101ff5760003660031901126101ff57602060405160648152f35b346101ff5760203660031901126101ff576001600160a01b036106c8611ac4565b166000526005602052602060ff604060002054166040519015158152f35b346101ff5760003660031901126101ff576060604051600081526000602082015260006040820152f35b346101ff5760603660031901126101ff57610729611e5a565b610731611e7d565b33600052600560205261074c60ff6040600020541615611c62565b33600052600460205261076a60ff6004604060002001541615611c62565b336000526004602052610787600560406000200154421015611cb1565b602435151580610b43575b61079b90611cf3565b6107a86044351515611d34565b3360005260046020526107c2600a60406000205410611d78565b60025460405163c142e49560e01b81526001600160a01b03916020908290600490829086165afa908115610b3757600091610b05575b5060405160208101913360601b8352600435603483015242605483015260748201526074815261082781611b31565b51902090816000526003602052610848816001604060002001541615611dc4565b61085182611e9e565b9262278d00420142116104fd576040519061086b82611b14565b83825260208201903382526040830162278d0042018152606084016000815261090160808601916000835260a0870193602435855260c088019560443587528801968b885260016101008a01528a600052600360205260406000209989518b5560018b019151166001600160601b0360a01b825416179055516002890155511515600388019060ff801983541691151516179055565b5160048601555160058501555160068401555180519067ffffffffffffffff8211610364576109336007850154611ada565b601f8111610abe575b50602090601f8311600114610a44579282600893610100936109909796600092610a39575b50508160011b916000199060031b1c19161760078501555b0151151591019060ff801983541691151516179055565b336000526004602052604060002054600181018091116104fd573360005260046020526040600020908155600342910155610e1042018042116104fd57336000526004602052600560406000200155600854600181018091116104fd576008557f4cf69375003d889c234c9a613476b035b94511c5ce2ee48603a6aab1070313b960405180610a2f3395604435906024359062278d0042019085611e06565b0390a36001600055005b015190508980610961565b906007850160005260206000209160005b601f1985168110610aa657508361010093610990979693600193600897601f19811610610a8d575b505050811b016007850155610979565b015160001960f88460031b161c19169055898080610a7d565b91926020600181928685015181550194019201610a55565b600785016000526020600020601f840160051c810160208510610afe575b601f830160051c82018110610af257505061093c565b60008155600101610adc565b5080610adc565b90506020813d602011610b2f575b81610b2060209383611b69565b810103126101ff5751836107f8565b3d9150610b13565b6040513d6000823e3d90fd5b5060646024351115610792565b346101ff5760003660031901126101ff57602060405160068152f35b346101ff5760403660031901126101ff57610b85611e5a565b610b8d611e7d565b336000526005602052610ba860ff6040600020541615611c62565b336000526004602052610bc660ff6004604060002001541615611c62565b336000526004602052610be3600560406000200154421015611cb1565b600435151580610f12575b610bf790611cf3565b610c046024351515611d34565b336000526004602052610c1e600a60406000205410611d78565b60001943014381116104fd5760405160208101913360601b835242603483015244605483015240607482015260748152610c5781611b31565b519020600081815260036020526040902060010154610c7f906001600160a01b031615611dc4565b610c8881611e9e565b9162278d00420142116104fd57604051610ca181611b14565b8281526020810191338352604082019062278d004201825260608301600081526080840160008152610d3f60a0860192600435845260c087019460243586528701958a8752600161010089015289600052600360205260406000209888518a5560018a019060018060a01b039051166001600160601b0360a01b825416179055516002890155511515600388019060ff801983541691151516179055565b5160048601555160058501555160068401555180519067ffffffffffffffff821161036457610d716007850154611ada565b601f8111610ecb575b50602090601f8311600114610e6b57928260089361010093610dcc9796600092610a395750508160011b916000199060031b1c19161760078501550151151591019060ff801983541691151516179055565b336000526004602052604060002054600181018091116104fd573360005260046020526040600020908155600342910155610e1042018042116104fd57336000526004602052600560406000200155600854600181018091116104fd576008557f4cf69375003d889c234c9a613476b035b94511c5ce2ee48603a6aab1070313b960405180610a2f3395602435906004359062278d0042019085611e06565b906007850160005260206000209160005b601f1985168110610eb357508361010093610dcc979693600193600897601f19811610610a8d57505050811b016007850155610979565b91926020600181928685015181550194019201610e7c565b600785016000526020600020601f840160051c810160208510610f0b575b601f830160051c82018110610eff575050610d7a565b60008155600101610ee9565b5080610ee9565b5060646004351115610bee565b346101ff5760203660031901126101ff576001600160a01b03610f40611ac4565b166000526004602052604060002080546106876001830154926002810154906003810154600560ff60048401541692015492604051968796879260a094919796959260c08501988552602085015260408401526060830152151560808201520152565b346101ff5760403660031901126101ff576024356004356000526006602052604060002080548210156101ff57608091610fdc91611c30565b5060018060a01b038154169060018101549060ff6003600283015492015416916040519384526020840152604083015215156060820152f35b346101ff5760003660031901126101ff576001546040516001600160a01b039091168152602090f35b346101ff5760203660031901126101ff57600435600052600360205260406000208054916110e160018060a01b036001840154169260028101549360ff60038301541695600483015494600584015460068501549060ff60086110a360078901611b8b565b97015416976040519a8b9a6101209788978d5260208d015260408c0152151560608b015260808a015260a089015260c0880152860152840190611a9f565b9015156101008301520390f35b346101ff5760203660031901126101ff576001600160a01b0361110f611ac4565b1660005260076020526020604060002054604051908152f35b346101ff5760203660031901126101ff57611141611e5a565b611149611e7d565b33600052600560205261116460ff6040600020541615611c62565b33600052600460205261118260ff6004604060002001541615611c62565b600435600052600360205260ff60086040600020015416156116ca5760043560005260036020526002604060002001544210156116925760043560005260036020526040600020600560048201549101541115611657576004356000908152600360205260409020600101546001600160a01b03163314611612576000805b60043560005260066020526040600020805482101561160b578161122491611c30565b50546001600160a01b0316331461123d57600101611201565b505060015b6115c6573360005260046020526005604060002001544210611581576004356000526003602052604060002060066020526040600020600682015490604051916080830183811067ffffffffffffffff82111761036457604052338352426020840152604083015260016060830152805468010000000000000000811015610364576112d391600182018155611c30565b61156b57600360606113259360018060a01b038151166001600160601b0360a01b85541617845560208101516001850155604081015160028501550151151591019060ff801983541691151516179055565b336000526004602052611345600260406000200154600683015490611ca4565b336000526004602052600260406000200155600181019060018060a01b038254168060005260026040600020015490600582018092116104fd5760005260046020526002604060002001556113a1600a54600683015490611ca4565b90600582018092116104fd57600691600a55015490604051918252604060208301526013604083015272526566657272616c20636f646520636c61696d60681b60608301527f49649141d16971a88c3cfdd73fec34babb1cf163cf8b804c8f537a023c6ce506918260803392a260018060a01b039054169060806040516005815260406020820152601b60408201527f526566657272616c20636f64652063726561746f7220626f6e757300000000006060820152a2336000526004602052600160406000200154600181018091116104fd5733600052600460205260016040600020015561070842018042116104fd573360005260046020526005604060002001556004356000526003602052600460406000200154600181018091116104fd57600435600052600360205260406000209080600483015560058201541115611557575b50600954600181018091116104fd5760095560043560005260036020526040600020600660018060a01b0360018301541691015460405190815242602082015233907f6894183a89eebf39fb35448291da068439ab5c77503a94e4c672d77ddddd69e1604060043592a46001600055005b600301805460ff19166001179055806114e6565b634e487b7160e01b600052600060045260246000fd5b60405162461bcd60e51b815260206004820152601960248201527f436c61696d2072617465206c696d6974206578636565646564000000000000006044820152606490fd5b60405162461bcd60e51b815260206004820152601960248201527f416c726561647920636c61696d6564207468697320636f6465000000000000006044820152606490fd5b5050611242565b60405162461bcd60e51b815260206004820152601a60248201527f43616e6e6f7420636c61696d20796f7572206f776e20636f64650000000000006044820152606490fd5b60405162461bcd60e51b815260206004820152601360248201527210db185a5b481b1a5b5a5d081c995858da1959606a1b6044820152606490fd5b60405162461bcd60e51b815260206004820152601060248201526f10dbd919481a185cc8195e1c1a5c995960821b6044820152606490fd5b60405162461bcd60e51b8152602060048201526012602482015271436f6465206973206e6f742061637469766560701b6044820152606490fd5b346101ff5760003660031901126101ff5761171d611e2e565b600180546001600160a01b031981169091556000906001600160a01b03167f8be0079c531659141344cd1fd0a4f28419497f9722a3daafe3b4186f6b6457e08280a3005b346101ff5760003660031901126101ff57602060405160028152f35b346101ff5760003660031901126101ff57602060405160058152f35b346101ff5760003660031901126101ff576020604051610e108152f35b346101ff5760003660031901126101ff57602060ff60015460a01c166040519015158152f35b346101ff5760003660031901126101ff576020604051600a8152f35b346101ff5760003660031901126101ff576002546040516001600160a01b039091168152602090f35b346101ff5760003660031901126101ff5760206040516107088152f35b346101ff5760003660031901126101ff576020600854604051908152f35b346101ff5760203660031901126101ff57600435600052600360205260406000206040519161188a83611b14565b8154835260018060a01b03926119528460018501541693602083019485526002810154946040840195865260ff6003830154169660608501971515885260048301549060808601918252600584015460a0870190815260068501549160c0880192835260ff60086118fd60078901611b8b565b97888c8c0152015416946101009889961515998a9101525116985199511515925190519151926040519a8b9a8b5260208b015260408a01526060890152608088015260a08701528060c0870152850190611a9f565b918301520390f35b346101ff5760203660031901126101ff5760043580151581036101ff5761197f611e2e565b156119cd5761198c611e7d565b6001805460ff60a01b1916600160a01b1790556040513381527f62e78cea01bee320cd4e420270b5ea74000d11b0c9f74754ebdbfc544b05a25890602090a1005b60015460ff8160a01c1615611a145760ff60a01b19166001556040513381527f5db9ee0a495bf2e6ff9c91a7834c1ba4fdd244a5e8aa4e537bd38aeae4b073aa90602090a1005b604051638dfc202b60e01b8152600490fd5b346101ff5760003660031901126101ff57602060405162278d008152f35b346101ff5760003660031901126101ff576020600954604051908152f35b346101ff5760003660031901126101ff5780603260209252f35b60005b838110611a8f5750506000910152565b8181015183820152602001611a7f565b90602091611ab881518092818552858086019101611a7c565b601f01601f1916010190565b600435906001600160a01b03821682036101ff57565b90600182811c92168015611b0a575b6020831014611af457565b634e487b7160e01b600052602260045260246000fd5b91607f1691611ae9565b610120810190811067ffffffffffffffff82111761036457604052565b60a0810190811067ffffffffffffffff82111761036457604052565b6040810190811067ffffffffffffffff82111761036457604052565b90601f8019910116810190811067ffffffffffffffff82111761036457604052565b90604051918260008254611b9e81611ada565b90818452602094600191600181169081600014611c0e5750600114611bcf575b505050611bcd92500383611b69565b565b600090815285812095935091905b818310611bf6575050611bcd9350820101388080611bbe565b85548884018501529485019487945091830191611bdd565b92505050611bcd94925060ff191682840152151560051b820101388080611bbe565b8054821015611c4c5760005260206000209060021b0190600090565b634e487b7160e01b600052603260045260246000fd5b15611c6957565b60405162461bcd60e51b8152602060048201526013602482015272155cd95c881a5cc8189b1858dadb1a5cdd1959606a1b6044820152606490fd5b919082018092116104fd57565b15611cb857565b60405162461bcd60e51b815260206004820152601360248201527214985d19481b1a5b5a5d08195e18d959591959606a1b6044820152606490fd5b15611cfa57565b60405162461bcd60e51b8152602060048201526012602482015271496e76616c6964206d617820636c61696d7360701b6044820152606490fd5b15611d3b57565b60405162461bcd60e51b8152602060048201526015602482015274125b9d985b1a59081c995dd85c9908185b5bdd5b9d605a1b6044820152606490fd5b15611d7f57565b60405162461bcd60e51b815260206004820152601a60248201527f4d617820636f64657320706572207573657220726561636865640000000000006044820152606490fd5b15611dcb57565b60405162461bcd60e51b8152602060048201526013602482015272436f646520616c72656164792065786973747360681b6044820152606490fd5b9092611e1f606093969594608084526080840190611a9f565b95602083015260408201520152565b6001546001600160a01b03163303611e4257565b60405163118cdaa760e01b8152336004820152602490fd5b600260005414611e6b576002600055565b604051633ee5aeb560e01b8152600490fd5b60ff60015460a01c16611e8c57565b60405163d93c066560e01b8152600490fd5b9060405191611eac83611b4d565b6010835260206f181899199a1a9b1b9c1cb0b131b232b360811b602085015260405191611ed883611b4d565b600883526020830191602036843760005b600480821015611fb25782821015611f9d57600f9084831a906001600160f81b031980611f1a84841c86168d611ff6565b51169360019386851b9587870460021488151715611f8857611f4d92919060001a611f45888e611ff6565b53168c611ff6565b5116918301809311611f73575090611f6c6001939260001a9188611ff6565b5301611ee9565b601190634e487b7160e01b6000525260246000fd5b601185634e487b7160e01b6000525260246000fd5b603290634e487b7160e01b6000525260246000fd5b50505050611fe3929350611ff3916025916040519485926450495a5a4160d81b602085015251809285850190611a7c565b8101036005810184520182611b69565b90565b908151811015611c4c57016020019056fea2646970667358221220c5ee1c8f3bbb1b513fcaac415882d1854fc5b403ddf49b7ec7aadb13b87bf4c964736f6c63430008180033",
  "linkReferences": {},
  "deployedLinkReferences": {}
}