{
  "_format": "hh-sol-artifact-1",
  "contractName": "PizzaParty",
  "sourceName": "contracts/PizzaParty.sol",
  "abi": [
    {
      "inputs": [
        {
          "internalType": "address",
          "name": "_vmfToken",
          "type": "address"
        }
      ],
      "stateMutability": "nonpayable",
      "type": "constructor"
    },
    {
      "inputs": [],
      "name": "EnforcedPause",
      "type": "error"
    },
    {
      "inputs": [],
      "name": "ExpectedPause",
      "type": "error"
    },
    {
      "inputs": [
        {
          "internalType": "address",
          "name": "owner",
          "type": "address"
        }
      ],
      "name": "OwnableInvalidOwner",
      "type": "error"
    },
    {
      "inputs": [
        {
          "internalType": "address",
          "name": "account",
          "type": "address"
        }
      ],
      "name": "OwnableUnauthorizedAccount",
      "type": "error"
    },
    {
      "inputs": [],
      "name": "ReentrancyGuardReentrantCall",
      "type": "error"
    },
    {
      "anonymous": false,
      "inputs": [
        {
          "indexed": false,
          "internalType": "uint256",
          "name": "gameId",
          "type": "uint256"
        },
        {
          "indexed": false,
          "internalType": "address[]",
          "name": "winners",
          "type": "address[]"
        },
        {
          "indexed": false,
          "internalType": "uint256",
          "name": "jackpotAmount",
          "type": "uint256"
        }
      ],
      "name": "DailyWinnersSelected",
      "type": "event"
    },
    {
      "anonymous": false,
      "inputs": [
        {
          "indexed": false,
          "internalType": "bool",
          "name": "paused",
          "type": "bool"
        }
      ],
      "name": "EmergencyPause",
      "type": "event"
    },
    {
      "anonymous": false,
      "inputs": [
        {
          "indexed": false,
          "internalType": "uint256",
          "name": "dailyJackpot",
          "type": "uint256"
        },
        {
          "indexed": false,
          "internalType": "uint256",
          "name": "weeklyJackpot",
          "type": "uint256"
        }
      ],
      "name": "JackpotUpdated",
      "type": "event"
    },
    {
      "anonymous": false,
      "inputs": [
        {
          "indexed": true,
          "internalType": "address",
          "name": "previousOwner",
          "type": "address"
        },
        {
          "indexed": true,
          "internalType": "address",
          "name": "newOwner",
          "type": "address"
        }
      ],
      "name": "OwnershipTransferred",
      "type": "event"
    },
    {
      "anonymous": false,
      "inputs": [
        {
          "indexed": false,
          "internalType": "address",
          "name": "account",
          "type": "address"
        }
      ],
      "name": "Paused",
      "type": "event"
    },
    {
      "anonymous": false,
      "inputs": [
        {
          "indexed": true,
          "internalType": "address",
          "name": "player",
          "type": "address"
        },
        {
          "indexed": false,
          "internalType": "bool",
          "name": "blacklisted",
          "type": "bool"
        }
      ],
      "name": "PlayerBlacklisted",
      "type": "event"
    },
    {
      "anonymous": false,
      "inputs": [
        {
          "indexed": true,
          "internalType": "address",
          "name": "player",
          "type": "address"
        },
        {
          "indexed": false,
          "internalType": "uint256",
          "name": "gameId",
          "type": "uint256"
        },
        {
          "indexed": false,
          "internalType": "uint256",
          "name": "entryFee",
          "type": "uint256"
        }
      ],
      "name": "PlayerEntered",
      "type": "event"
    },
    {
      "anonymous": false,
      "inputs": [
        {
          "indexed": true,
          "internalType": "address",
          "name": "referrer",
          "type": "address"
        },
        {
          "indexed": false,
          "internalType": "string",
          "name": "referralCode",
          "type": "string"
        }
      ],
      "name": "ReferralCreated",
      "type": "event"
    },
    {
      "anonymous": false,
      "inputs": [
        {
          "indexed": true,
          "internalType": "address",
          "name": "referrer",
          "type": "address"
        },
        {
          "indexed": true,
          "internalType": "address",
          "name": "newPlayer",
          "type": "address"
        },
        {
          "indexed": false,
          "internalType": "uint256",
          "name": "reward",
          "type": "uint256"
        }
      ],
      "name": "ReferralUsed",
      "type": "event"
    },
    {
      "anonymous": false,
      "inputs": [
        {
          "indexed": true,
          "internalType": "address",
          "name": "player",
          "type": "address"
        },
        {
          "indexed": false,
          "internalType": "uint256",
          "name": "amount",
          "type": "uint256"
        },
        {
          "indexed": false,
          "internalType": "string",
          "name": "reason",
          "type": "string"
        }
      ],
      "name": "ToppingsAwarded",
      "type": "event"
    },
    {
      "anonymous": false,
      "inputs": [
        {
          "indexed": false,
          "internalType": "address",
          "name": "account",
          "type": "address"
        }
      ],
      "name": "Unpaused",
      "type": "event"
    },
    {
      "anonymous": false,
      "inputs": [
        {
          "indexed": false,
          "internalType": "uint256",
          "name": "gameId",
          "type": "uint256"
        },
        {
          "indexed": false,
          "internalType": "address[]",
          "name": "winners",
          "type": "address[]"
        },
        {
          "indexed": false,
          "internalType": "uint256",
          "name": "jackpotAmount",
          "type": "uint256"
        }
      ],
      "name": "WeeklyWinnersSelected",
      "type": "event"
    },
    {
      "inputs": [],
      "name": "DAILY_ENTRY_FEE",
      "outputs": [
        {
          "internalType": "uint256",
          "name": "",
          "type": "uint256"
        }
      ],
      "stateMutability": "view",
      "type": "function"
    },
    {
      "inputs": [],
      "name": "DAILY_PLAY_REWARD",
      "outputs": [
        {
          "internalType": "uint256",
          "name": "",
          "type": "uint256"
        }
      ],
      "stateMutability": "view",
      "type": "function"
    },
    {
      "inputs": [],
      "name": "DAILY_WINNERS_COUNT",
      "outputs": [
        {
          "internalType": "uint256",
          "name": "",
          "type": "uint256"
        }
      ],
      "stateMutability": "view",
      "type": "function"
    },
    {
      "inputs": [],
      "name": "REFERRAL_REWARD",
      "outputs": [
        {
          "internalType": "uint256",
          "name": "",
          "type": "uint256"
        }
      ],
      "stateMutability": "view",
      "type": "function"
    },
    {
      "inputs": [],
      "name": "STREAK_BONUS",
      "outputs": [
        {
          "internalType": "uint256",
          "name": "",
          "type": "uint256"
        }
      ],
      "stateMutability": "view",
      "type": "function"
    },
    {
      "inputs": [],
      "name": "VMF_HOLDING_REWARD",
      "outputs": [
        {
          "internalType": "uint256",
          "name": "",
          "type": "uint256"
        }
      ],
      "stateMutability": "view",
      "type": "function"
    },
    {
      "inputs": [],
      "name": "WEEKLY_WINNERS_COUNT",
      "outputs": [
        {
          "internalType": "uint256",
          "name": "",
          "type": "uint256"
        }
      ],
      "stateMutability": "view",
      "type": "function"
    },
    {
      "inputs": [],
      "name": "awardVMFHoldingsToppings",
      "outputs": [],
      "stateMutability": "nonpayable",
      "type": "function"
    },
    {
      "inputs": [
        {
          "internalType": "address",
          "name": "",
          "type": "address"
        }
      ],
      "name": "blacklistedAddresses",
      "outputs": [
        {
          "internalType": "bool",
          "name": "",
          "type": "bool"
        }
      ],
      "stateMutability": "view",
      "type": "function"
    },
    {
      "inputs": [],
      "name": "createReferralCode",
      "outputs": [],
      "stateMutability": "nonpayable",
      "type": "function"
    },
    {
      "inputs": [],
      "name": "currentDailyJackpot",
      "outputs": [
        {
          "internalType": "uint256",
          "name": "",
          "type": "uint256"
        }
      ],
      "stateMutability": "view",
      "type": "function"
    },
    {
      "inputs": [],
      "name": "currentWeeklyJackpot",
      "outputs": [
        {
          "internalType": "uint256",
          "name": "",
          "type": "uint256"
        }
      ],
      "stateMutability": "view",
      "type": "function"
    },
    {
      "inputs": [],
      "name": "drawDailyWinners",
      "outputs": [],
      "stateMutability": "nonpayable",
      "type": "function"
    },
    {
      "inputs": [],
      "name": "drawWeeklyWinners",
      "outputs": [],
      "stateMutability": "nonpayable",
      "type": "function"
    },
    {
      "inputs": [
        {
          "internalType": "bool",
          "name": "pause",
          "type": "bool"
        }
      ],
      "name": "emergencyPause",
      "outputs": [],
      "stateMutability": "nonpayable",
      "type": "function"
    },
    {
      "inputs": [],
      "name": "emergencyWithdraw",
      "outputs": [],
      "stateMutability": "nonpayable",
      "type": "function"
    },
    {
      "inputs": [
        {
          "internalType": "string",
          "name": "referralCode",
          "type": "string"
        }
      ],
      "name": "enterDailyGame",
      "outputs": [],
      "stateMutability": "nonpayable",
      "type": "function"
    },
    {
      "inputs": [
        {
          "internalType": "uint256",
          "name": "",
          "type": "uint256"
        }
      ],
      "name": "games",
      "outputs": [
        {
          "internalType": "uint256",
          "name": "gameId",
          "type": "uint256"
        },
        {
          "internalType": "uint256",
          "name": "startTime",
          "type": "uint256"
        },
        {
          "internalType": "uint256",
          "name": "endTime",
          "type": "uint256"
        },
        {
          "internalType": "uint256",
          "name": "totalEntries",
          "type": "uint256"
        },
        {
          "internalType": "uint256",
          "name": "jackpotAmount",
          "type": "uint256"
        },
        {
          "internalType": "bool",
          "name": "isCompleted",
          "type": "bool"
        }
      ],
      "stateMutability": "view",
      "type": "function"
    },
    {
      "inputs": [],
      "name": "getCurrentGame",
      "outputs": [
        {
          "components": [
            {
              "internalType": "uint256",
              "name": "gameId",
              "type": "uint256"
            },
            {
              "internalType": "uint256",
              "name": "startTime",
              "type": "uint256"
            },
            {
              "internalType": "uint256",
              "name": "endTime",
              "type": "uint256"
            },
            {
              "internalType": "uint256",
              "name": "totalEntries",
              "type": "uint256"
            },
            {
              "internalType": "uint256",
              "name": "jackpotAmount",
              "type": "uint256"
            },
            {
              "internalType": "address[]",
              "name": "winners",
              "type": "address[]"
            },
            {
              "internalType": "bool",
              "name": "isCompleted",
              "type": "bool"
            }
          ],
          "internalType": "struct PizzaParty.Game",
          "name": "",
          "type": "tuple"
        }
      ],
      "stateMutability": "view",
      "type": "function"
    },
    {
      "inputs": [
        {
          "internalType": "uint256",
          "name": "gameId",
          "type": "uint256"
        }
      ],
      "name": "getGame",
      "outputs": [
        {
          "components": [
            {
              "internalType": "uint256",
              "name": "gameId",
              "type": "uint256"
            },
            {
              "internalType": "uint256",
              "name": "startTime",
              "type": "uint256"
            },
            {
              "internalType": "uint256",
              "name": "endTime",
              "type": "uint256"
            },
            {
              "internalType": "uint256",
              "name": "totalEntries",
              "type": "uint256"
            },
            {
              "internalType": "uint256",
              "name": "jackpotAmount",
              "type": "uint256"
            },
            {
              "internalType": "address[]",
              "name": "winners",
              "type": "address[]"
            },
            {
              "internalType": "bool",
              "name": "isCompleted",
              "type": "bool"
            }
          ],
          "internalType": "struct PizzaParty.Game",
          "name": "",
          "type": "tuple"
        }
      ],
      "stateMutability": "view",
      "type": "function"
    },
    {
      "inputs": [
        {
          "internalType": "address",
          "name": "player",
          "type": "address"
        }
      ],
      "name": "getPlayerInfo",
      "outputs": [
        {
          "components": [
            {
              "internalType": "uint256",
              "name": "totalToppings",
              "type": "uint256"
            },
            {
              "internalType": "uint256",
              "name": "dailyEntries",
              "type": "uint256"
            },
            {
              "internalType": "uint256",
              "name": "weeklyEntries",
              "type": "uint256"
            },
            {
              "internalType": "uint256",
              "name": "lastEntryTime",
              "type": "uint256"
            },
            {
              "internalType": "uint256",
              "name": "streakDays",
              "type": "uint256"
            },
            {
              "internalType": "uint256",
              "name": "lastStreakUpdate",
              "type": "uint256"
            },
            {
              "internalType": "bool",
              "name": "isBlacklisted",
              "type": "bool"
            }
          ],
          "internalType": "struct PizzaParty.Player",
          "name": "",
          "type": "tuple"
        }
      ],
      "stateMutability": "view",
      "type": "function"
    },
    {
      "inputs": [
        {
          "internalType": "address",
          "name": "player",
          "type": "address"
        }
      ],
      "name": "getReferralInfo",
      "outputs": [
        {
          "components": [
            {
              "internalType": "address",
              "name": "referrer",
              "type": "address"
            },
            {
              "internalType": "uint256",
              "name": "totalReferrals",
              "type": "uint256"
            },
            {
              "internalType": "uint256",
              "name": "totalRewards",
              "type": "uint256"
            },
            {
              "internalType": "bool",
              "name": "isActive",
              "type": "bool"
            }
          ],
          "internalType": "struct PizzaParty.Referral",
          "name": "",
          "type": "tuple"
        }
      ],
      "stateMutability": "view",
      "type": "function"
    },
    {
      "inputs": [
        {
          "internalType": "address",
          "name": "player",
          "type": "address"
        }
      ],
      "name": "hasEnteredToday",
      "outputs": [
        {
          "internalType": "bool",
          "name": "",
          "type": "bool"
        }
      ],
      "stateMutability": "view",
      "type": "function"
    },
    {
      "inputs": [],
      "name": "lastDailyDraw",
      "outputs": [
        {
          "internalType": "uint256",
          "name": "",
          "type": "uint256"
        }
      ],
      "stateMutability": "view",
      "type": "function"
    },
    {
      "inputs": [],
      "name": "lastWeeklyDraw",
      "outputs": [
        {
          "internalType": "uint256",
          "name": "",
          "type": "uint256"
        }
      ],
      "stateMutability": "view",
      "type": "function"
    },
    {
      "inputs": [],
      "name": "owner",
      "outputs": [
        {
          "internalType": "address",
          "name": "",
          "type": "address"
        }
      ],
      "stateMutability": "view",
      "type": "function"
    },
    {
      "inputs": [],
      "name": "paused",
      "outputs": [
        {
          "internalType": "bool",
          "name": "",
          "type": "bool"
        }
      ],
      "stateMutability": "view",
      "type": "function"
    },
    {
      "inputs": [
        {
          "internalType": "address",
          "name": "",
          "type": "address"
        }
      ],
      "name": "players",
      "outputs": [
        {
          "internalType": "uint256",
          "name": "totalToppings",
          "type": "uint256"
        },
        {
          "internalType": "uint256",
          "name": "dailyEntries",
          "type": "uint256"
        },
        {
          "internalType": "uint256",
          "name": "weeklyEntries",
          "type": "uint256"
        },
        {
          "internalType": "uint256",
          "name": "lastEntryTime",
          "type": "uint256"
        },
        {
          "internalType": "uint256",
          "name": "streakDays",
          "type": "uint256"
        },
        {
          "internalType": "uint256",
          "name": "lastStreakUpdate",
          "type": "uint256"
        },
        {
          "internalType": "bool",
          "name": "isBlacklisted",
          "type": "bool"
        }
      ],
      "stateMutability": "view",
      "type": "function"
    },
    {
      "inputs": [
        {
          "internalType": "string",
          "name": "",
          "type": "string"
        }
      ],
      "name": "referralCodes",
      "outputs": [
        {
          "internalType": "address",
          "name": "",
          "type": "address"
        }
      ],
      "stateMutability": "view",
      "type": "function"
    },
    {
      "inputs": [
        {
          "internalType": "address",
          "name": "",
          "type": "address"
        }
      ],
      "name": "referrals",
      "outputs": [
        {
          "internalType": "address",
          "name": "referrer",
          "type": "address"
        },
        {
          "internalType": "uint256",
          "name": "totalReferrals",
          "type": "uint256"
        },
        {
          "internalType": "uint256",
          "name": "totalRewards",
          "type": "uint256"
        },
        {
          "internalType": "bool",
          "name": "isActive",
          "type": "bool"
        }
      ],
      "stateMutability": "view",
      "type": "function"
    },
    {
      "inputs": [],
      "name": "renounceOwnership",
      "outputs": [],
      "stateMutability": "nonpayable",
      "type": "function"
    },
    {
      "inputs": [
        {
          "internalType": "address",
          "name": "player",
          "type": "address"
        },
        {
          "internalType": "bool",
          "name": "blacklisted",
          "type": "bool"
        }
      ],
      "name": "setPlayerBlacklist",
      "outputs": [],
      "stateMutability": "nonpayable",
      "type": "function"
    },
    {
      "inputs": [
        {
          "internalType": "address",
          "name": "newOwner",
          "type": "address"
        }
      ],
      "name": "transferOwnership",
      "outputs": [],
      "stateMutability": "nonpayable",
      "type": "function"
    },
    {
      "inputs": [],
      "name": "vmfToken",
      "outputs": [
        {
          "internalType": "contract IERC20",
          "name": "",
          "type": "address"
        }
      ],
      "stateMutability": "view",
      "type": "function"
    }
  ],
  "bytecode": "0x60a06040523480156200001157600080fd5b5060405162002cca38038062002cca8339810160408190526200003491620002d9565b600160005533806200006157604051631e4fbdf760e01b8152600060048201526024015b60405180910390fd5b6200006c81620000e3565b506001600160a01b038116620000c55760405162461bcd60e51b815260206004820152601960248201527f496e76616c696420564d4620746f6b656e206164647265737300000000000000604482015260640162000058565b6001600160a01b038116608052620000dc62000135565b506200036f565b600180546001600160a01b038381166001600160a01b0319831681179093556040519116919082907f8be0079c531659141344cd1fd0a4f28419497f9722a3daafe3b4186f6b6457e090600090a35050565b60028054906000620001478362000321565b9190505550600060025490506040518060e0016040528082815260200142815260200142620151806200017b91906200033d565b8152602001600081526020016000815260200160006001600160401b03811115620001aa57620001aa62000359565b604051908082528060200260200182016040528015620001d4578160200160208202803683370190505b50815260006020918201819052838152600a825260409081902083518155838301516001820155908301516002820155606083015160038201556080830151600482015560a083015180519192620002359260058501929091019062000258565b5060c091909101516006909101805460ff19169115159190911790555042600555565b828054828255906000526020600020908101928215620002b0579160200282015b82811115620002b057825182546001600160a01b0319166001600160a01b0390911617825560209092019160019091019062000279565b50620002be929150620002c2565b5090565b5b80821115620002be5760008155600101620002c3565b600060208284031215620002ec57600080fd5b81516001600160a01b03811681146200030457600080fd5b9392505050565b634e487b7160e01b600052601160045260246000fd5b6000600182016200033657620003366200030b565b5060010190565b808201808211156200035357620003536200030b565b92915050565b634e487b7160e01b600052604160045260246000fd5b60805161290e620003bc600039600081816102a80152818161097f01528181610c3b01528181610ee30152818161101b015281816112c30152818161164d015261170d015261290e6000f3fe608060405234801561001057600080fd5b50600436106102065760003560e01c806384a3a0f31161011a578063bcf64475116100ad578063dd23b9cb1161007c578063dd23b9cb146105cd578063e2eb41ff146105d5578063e3d440a71461065a578063e8f6940e14610663578063f2fde38b1461067657600080fd5b8063bcf6447514610591578063c14e1e0514610599578063d5749d42146105a2578063db2e21bc146105c557600080fd5b8063968d901b116100e9578063968d901b146104e85780639ca423b3146104fd578063a2f77bcc1461056b578063ba53ba241461057e57600080fd5b806384a3a0f3146104b85780638da5cb5b146104c057806390590979146104d157806390e40687146104e057600080fd5b80633fb83a541161019d5780635c27b2e41161016c5780635c27b2e4146104765780635c975abb14610489578063715018a6146104a75780637550b84f146104af5780637568e826146104b857600080fd5b80633fb83a54146103e857806343f2a080146103f057806352861f7f14610403578063593284011461040b57600080fd5b806321874ae2116101d957806321874ae2146102e25780632655e840146103a15780632e108d1c146103d55780633bb4f638146103df57600080fd5b80630d9f92ca1461020b578063117a5b901461022657806316fa10861461029b5780632086eefa146102a3575b600080fd5b610213600a81565b6040519081526020015b60405180910390f35b61026c61023436600461236c565b600a60205260009081526040902080546001820154600283015460038401546004850154600690950154939492939192909160ff1686565b6040805196875260208701959095529385019290925260608401526080830152151560a082015260c00161021d565b610213600881565b6102ca7f000000000000000000000000000000000000000000000000000000000000000081565b6040516001600160a01b03909116815260200161021d565b6103636102f03660046123a1565b60408051608080820183526000808352602080840182905283850182905260609384018290526001600160a01b0395861682526008815290849020845192830185528054909516825260018501549082015260028401549281019290925260039092015460ff1615159181019190915290565b60405161021d919081516001600160a01b03168152602080830151908201526040808301519082015260609182015115159181019190915260800190565b6102ca6103af3660046123d9565b80516020818301810180516009825292820191909301209152546001600160a01b031681565b6103dd610689565b005b61021360045481565b6103dd610869565b6103dd6103fe366004612498565b610b01565b6103dd610b7c565b61041e6104193660046123a1565b610d95565b60405161021d9190600060e082019050825182526020830151602083015260408301516040830152606083015160608301526080830151608083015260a083015160a083015260c0830151151560c083015292915050565b6103dd6104843660046123d9565b610e48565b600154600160a01b900460ff165b604051901515815260200161021d565b6103dd61121d565b61021360055481565b610213600281565b6001546001600160a01b03166102ca565b610213670de0b6b3a764000081565b6103dd61122f565b6104f06113e0565b60405161021d91906124cf565b61053f61050b3660046123a1565b60086020526000908152604090208054600182015460028301546003909301546001600160a01b0390921692909160ff1684565b604080516001600160a01b0390951685526020850193909352918301521515606082015260800161021d565b6104f061057936600461236c565b6114ec565b61049761058c3660046123a1565b6115eb565b610213600381565b61021360065481565b6104976105b03660046123a1565b600b6020526000908152604090205460ff1681565b6103dd61162d565b610213600181565b6106236105e33660046123a1565b6007602052600090815260409020805460018201546002830154600384015460048501546005860154600690960154949593949293919290919060ff1687565b604080519788526020880196909652948601939093526060850191909152608084015260a0830152151560c082015260e00161021d565b61021360035481565b6103dd61067136600461256e565b6117fd565b6103dd6106843660046123a1565b611858565b610691611893565b6106996118bd565b336000818152600b602052604090205460ff16156106d25760405162461bcd60e51b81526004016106c99061258b565b60405180910390fd5b6001600160a01b03811660009081526007602052604090206006015460ff161561070e5760405162461bcd60e51b81526004016106c99061258b565b336000908152600860205260409020546001600160a01b0316156107745760405162461bcd60e51b815260206004820152601c60248201527f526566657272616c20636f646520616c7265616479206578697374730000000060448201526064016106c9565b600061077f336118e8565b90503360098260405161079291906125de565b90815260408051918290036020908101832080546001600160a01b039586166001600160a01b03199182161790915560808401835233808552600085840181815286860182815260016060890181815285855260089097529287902097518854991698909416979097178655955195850195909555516002840155516003909201805492151560ff1990931692909217909155517f9aba81a9970f49adfcb9191b4663d4a18a3a6236fbbef5e36c5478a55fd4a03a906108539084906125fa565b60405180910390a250506108676001600055565b565b610871611923565b6002546000908152600a60205260409020600681015460ff16156108d05760405162461bcd60e51b815260206004820152601660248201527511d85b5948185b1c9958591e4818dbdb5c1b195d195960521b60448201526064016106c9565b80600201544210156109185760405162461bcd60e51b815260206004820152601160248201527011d85b59481b9bdd08199a5b9a5cda1959607a1b60448201526064016106c9565b600061092960088360030154611950565b90506000600860035461093c9190612659565b905060005b8251811015610a875760006001600160a01b03168382815181106109675761096761266d565b60200260200101516001600160a01b031614610a7f577f00000000000000000000000000000000000000000000000000000000000000006001600160a01b031663a9059cbb8483815181106109be576109be61266d565b6020026020010151846040518363ffffffff1660e01b81526004016109f89291906001600160a01b03929092168252602082015260400190565b6020604051808303816000875af1158015610a17573d6000803e3d6000fd5b505050506040513d601f19601f82011682018060405250810190610a3b9190612683565b610a7f5760405162461bcd60e51b8152602060048201526015602482015274141c9a5e99481d1c985b9cd9995c8819985a5b1959605a1b60448201526064016106c9565b600101610941565b508151610a9d90600585019060208501906122f2565b5060068301805460ff19166001179055600354600484018190556002546040517fdd1c72fcda97fcfc2fe124c4aa194986caca752d3769c00a6495659509d7b19b92610aec92918691906126a0565b60405180910390a1610afc611a2f565b505050565b610b09611923565b6001600160a01b0382166000818152600b60209081526040808320805486151560ff199182168117909255600784529382902060060180549094168117909355519182527f7c6a5677e7a854a53d06c412e00ebe65535f5343566ca7939ac7c7f6b0b00c16910160405180910390a25050565b610b84611923565b600654610b949062093a80612702565b421015610bdb5760405162461bcd60e51b81526020600482015260156024820152745765656b6c792064726177206e6f7420726561647960581b60448201526064016106c9565b6000610be5611b49565b90506000600a600454610bf89190612659565b905060005b8251811015610d435760006001600160a01b0316838281518110610c2357610c2361266d565b60200260200101516001600160a01b031614610d3b577f00000000000000000000000000000000000000000000000000000000000000006001600160a01b031663a9059cbb848381518110610c7a57610c7a61266d565b6020026020010151846040518363ffffffff1660e01b8152600401610cb49291906001600160a01b03929092168252602082015260400190565b6020604051808303816000875af1158015610cd3573d6000803e3d6000fd5b505050506040513d601f19601f82011682018060405250810190610cf79190612683565b610d3b5760405162461bcd60e51b8152602060048201526015602482015274141c9a5e99481d1c985b9cd9995c8819985a5b1959605a1b60448201526064016106c9565b600101610bfd565b507f266eab4e9078d52ec3f1266d5b3619a11040584ef2997fdea8afa3c03fa5597760025483600454604051610d7b939291906126a0565b60405180910390a1610d91600060045542600655565b5050565b610dd76040518060e001604052806000815260200160008152602001600081526020016000815260200160008152602001600081526020016000151581525090565b506001600160a01b0316600090815260076020908152604091829020825160e081018452815481526001820154928101929092526002810154928201929092526003820154606082015260048201546080820152600582015460a082015260069091015460ff16151560c082015290565b610e50611893565b610e586118bd565b336000818152600b602052604090205460ff1615610e885760405162461bcd60e51b81526004016106c99061258b565b6001600160a01b03811660009081526007602052604090206006015460ff1615610ec45760405162461bcd60e51b81526004016106c99061258b565b6040516370a0823160e01b8152336004820152670de0b6b3a7640000907f00000000000000000000000000000000000000000000000000000000000000006001600160a01b0316906370a0823190602401602060405180830381865afa158015610f32573d6000803e3d6000fd5b505050506040513d601f19601f82011682018060405250810190610f569190612715565b1015610fa45760405162461bcd60e51b815260206004820152601860248201527f496e73756666696369656e7420564d462062616c616e6365000000000000000060448201526064016106c9565b610fad336115eb565b15610ff25760405162461bcd60e51b8152602060048201526015602482015274416c726561647920656e746572656420746f64617960581b60448201526064016106c9565b6040516323b872dd60e01b8152336004820152306024820152670de0b6b3a764000060448201527f00000000000000000000000000000000000000000000000000000000000000006001600160a01b0316906323b872dd906064016020604051808303816000875af115801561106c573d6000803e3d6000fd5b505050506040513d601f19601f820116820180604052508101906110909190612683565b6110ce5760405162461bcd60e51b815260206004820152600f60248201526e151c985b9cd9995c8819985a5b1959608a1b60448201526064016106c9565b33600090815260076020526040812060018101805491926110ee8361272e565b90915550504260038201558054600190829060009061110e908490612702565b9091555061111d905033611bb8565b82511561112e5761112e3384611ccc565b6002546000908152600a6020526040812060038101805491926111508361272e565b9190505550670de0b6b3a76400006003600082825461116f9190612702565b909155505060025460408051918252670de0b6b3a7640000602083015233917f480a6daea81f2af589e1959da1f1719512392ec551e8966266ee820f1c1f72ea910160405180910390a2336001600160a01b03166000805160206128b98339815191526001604051611205918152604060208201819052600a90820152694461696c7920706c617960b01b606082015260800190565b60405180910390a250505061121a6001600055565b50565b611225611923565b6108676000612031565b611237611893565b61123f6118bd565b336000818152600b602052604090205460ff161561126f5760405162461bcd60e51b81526004016106c99061258b565b6001600160a01b03811660009081526007602052604090206006015460ff16156112ab5760405162461bcd60e51b81526004016106c99061258b565b6040516370a0823160e01b81523360048201526000907f00000000000000000000000000000000000000000000000000000000000000006001600160a01b0316906370a0823190602401602060405180830381865afa158015611312573d6000803e3d6000fd5b505050506040513d601f19601f820116820180604052508101906113369190612715565b90506000600261134e678ac7230489e8000084612659565b6113589190612747565b905080156113d357336000908152600760205260408120805483929061137f908490612702565b909155505060405133906000805160206128b9833981519152906113ca90848152604060208201819052600c908201526b564d4620686f6c64696e677360a01b606082015260800190565b60405180910390a25b5050506108676001600055565b6114226040518060e001604052806000815260200160008152602001600081526020016000815260200160008152602001606081526020016000151581525090565b600a600060025481526020019081526020016000206040518060e00160405290816000820154815260200160018201548152602001600282015481526020016003820154815260200160048201548152602001600582018054806020026020016040519081016040528092919081815260200182805480156114cd57602002820191906000526020600020905b81546001600160a01b031681526001909101906020018083116114af575b50505091835250506006919091015460ff161515602090910152919050565b61152e6040518060e001604052806000815260200160008152602001600081526020016000815260200160008152602001606081526020016000151581525090565b6000828152600a6020908152604091829020825160e0810184528154815260018201548184015260028201548185015260038201546060820152600482015460808201526005820180548551818602810186019096528086529194929360a086019392908301828280156115cb57602002820191906000526020600020905b81546001600160a01b031681526001909101906020018083116115ad575b50505091835250506006919091015460ff16151560209091015292915050565b6000806115fb620151804261275e565b6116059042612772565b6001600160a01b03909316600090815260076020526040902060030154929092101592915050565b611635611923565b6040516370a0823160e01b81523060048201526000907f00000000000000000000000000000000000000000000000000000000000000006001600160a01b0316906370a0823190602401602060405180830381865afa15801561169c573d6000803e3d6000fd5b505050506040513d601f19601f820116820180604052508101906116c09190612715565b90506000811161170b5760405162461bcd60e51b81526020600482015260166024820152754e6f2062616c616e636520746f20776974686472617760501b60448201526064016106c9565b7f00000000000000000000000000000000000000000000000000000000000000006001600160a01b031663a9059cbb61174c6001546001600160a01b031690565b6040516001600160e01b031960e084901b1681526001600160a01b039091166004820152602481018490526044016020604051808303816000875af1158015611799573d6000803e3d6000fd5b505050506040513d601f19601f820116820180604052508101906117bd9190612683565b61121a5760405162461bcd60e51b815260206004820152601160248201527015da5d1a191c985dd85b0819985a5b1959607a1b60448201526064016106c9565b611805611923565b801561181857611813612083565b611820565b6118206120e3565b60405181151581527fb80d1ae5628c2af91424c54c87acfd15016be4bebeef0425b328238702f348319060200160405180910390a150565b611860611923565b6001600160a01b03811661188a57604051631e4fbdf760e01b8152600060048201526024016106c9565b61121a81612031565b6002600054036118b657604051633ee5aeb560e01b815260040160405180910390fd5b6002600055565b600154600160a01b900460ff16156108675760405163d93c066560e01b815260040160405180910390fd5b60606118f38261211f565b6118fc426121bf565b60405160200161190d929190612785565b6040516020818303038152906040529050919050565b6001546001600160a01b031633146108675760405163118cdaa760e01b81523360048201526024016106c9565b606060008367ffffffffffffffff81111561196d5761196d6123c3565b604051908082528060200260200182016040528015611996578160200160208202803683370190505b509050826000036119a8579050611a29565b60005b84811015611a25576040805142602082015290810182905260009085906060016040516020818303038152906040528051906020012060001c6119ee919061275e565b90506000838381518110611a0457611a0461266d565b6001600160a01b0390921660209283029190910190910152506001016119ab565b5090505b92915050565b60028054906000611a3f8361272e565b9190505550600060025490506040518060e001604052808281526020014281526020014262015180611a719190612702565b81526020016000815260200160008152602001600067ffffffffffffffff811115611a9e57611a9e6123c3565b604051908082528060200260200182016040528015611ac7578160200160208202803683370190505b50815260006020918201819052838152600a825260409081902083518155838301516001820155908301516002820155606083015160038201556080830151600482015560a083015180519192611b26926005850192909101906122f2565b5060c091909101516006909101805460ff19169115159190911790555042600555565b60408051600a808252610160820190925260609160009190602082016101408036833701905050905060005b600a811015611bb2576000828281518110611b9257611b9261266d565b6001600160a01b0390921660209283029190910190910152600101611b75565b50919050565b6001600160a01b038116600090815260076020526040812090611bde620151804261275e565b611be89042612772565b90508082600501541015610afc57611c036201518082612772565b826005015403611cba57600482018054906000611c1f8361272e565b919050555060078260040154611c35919061275e565b600003611cb5576003826000016000828254611c519190612702565b92505081905550826001600160a01b03166000805160206128b98339815191526003604051611cac91815260406020820181905260129082015271372d6461792073747265616b20626f6e757360701b606082015260800190565b60405180910390a25b611cc2565b600160048301555b6005919091015550565b806000815111611d165760405162461bcd60e51b8152602060048201526015602482015274496e76616c696420726566657272616c20636f646560581b60448201526064016106c9565b60006001600160a01b0316600982604051611d3191906125de565b908152604051908190036020019020546001600160a01b031603611d975760405162461bcd60e51b815260206004820152601760248201527f526566657272616c20636f6465206e6f7420666f756e6400000000000000000060448201526064016106c9565b6000600983604051611da991906125de565b908152604051908190036020019020546001600160a01b03908116915084168103611e0e5760405162461bcd60e51b815260206004820152601560248201527421b0b73737ba103932b332b9103cb7bab939b2b63360591b60448201526064016106c9565b6001600160a01b03811660009081526008602052604090206003015460ff16611e6f5760405162461bcd60e51b8152602060048201526013602482015272526566657272616c206e6f742061637469766560681b60448201526064016106c9565b6001600160a01b0381166000908152600760205260408120805460029290611e98908490612702565b90915550506001600160a01b0381166000908152600860205260408120600101805491611ec48361272e565b90915550506001600160a01b03811660009081526008602052604081206002908101805491929091611ef7908490612702565b90915550506001600160a01b0384166000908152600760205260408120805460029290611f25908490612702565b92505081905550836001600160a01b0316816001600160a01b03167f9bdaca2ba7ce1627f2155806b08d043dac82c2ce8300504720fea617e2bf94016002604051611f7291815260200190565b60405180910390a3806001600160a01b03166000805160206128b98339815191526002604051611fcb918152604060208201819052600f908201526e149959995c9c985b081c995dd85c99608a1b606082015260800190565b60405180910390a2836001600160a01b03166000805160206128b98339815191526002604051612023918152604060208201819052600e908201526d526566657272616c20626f6e757360901b606082015260800190565b60405180910390a250505050565b600180546001600160a01b038381166001600160a01b0319831681179093556040519116919082907f8be0079c531659141344cd1fd0a4f28419497f9722a3daafe3b4186f6b6457e090600090a35050565b61208b6118bd565b6001805460ff60a01b1916600160a01b1790557f62e78cea01bee320cd4e420270b5ea74000d11b0c9f74754ebdbfc544b05a2586120c63390565b6040516001600160a01b03909116815260200160405180910390a1565b6120eb6122c8565b6001805460ff60a01b191690557f5db9ee0a495bf2e6ff9c91a7834c1ba4fdd244a5e8aa4e537bd38aeae4b073aa336120c6565b6040805160148082528183019092526060916000919060208201818036833701905050905060005b60148110156121b85761215b816013612772565b612166906008612747565b6121719060026128ac565b612184906001600160a01b038616612659565b60f81b8282815181106121995761219961266d565b60200101906001600160f81b031916908160001a905350600101612147565b5092915050565b6060816000036121e65750506040805180820190915260018152600360fc1b602082015290565b8160005b811561221057806121fa8161272e565b91506122099050600a83612659565b91506121ea565b60008167ffffffffffffffff81111561222b5761222b6123c3565b6040519080825280601f01601f191660200182016040528015612255576020820181803683370190505b5090505b84156122c05761226a600183612772565b9150612277600a8661275e565b612282906030612702565b60f81b8183815181106122975761229761266d565b60200101906001600160f81b031916908160001a9053506122b9600a86612659565b9450612259565b949350505050565b600154600160a01b900460ff1661086757604051638dfc202b60e01b815260040160405180910390fd5b828054828255906000526020600020908101928215612347579160200282015b8281111561234757825182546001600160a01b0319166001600160a01b03909116178255602090920191600190910190612312565b50612353929150612357565b5090565b5b808211156123535760008155600101612358565b60006020828403121561237e57600080fd5b5035919050565b80356001600160a01b038116811461239c57600080fd5b919050565b6000602082840312156123b357600080fd5b6123bc82612385565b9392505050565b634e487b7160e01b600052604160045260246000fd5b6000602082840312156123eb57600080fd5b813567ffffffffffffffff8082111561240357600080fd5b818401915084601f83011261241757600080fd5b813581811115612429576124296123c3565b604051601f8201601f19908116603f01168101908382118183101715612451576124516123c3565b8160405282815287602084870101111561246a57600080fd5b826020860160208301376000928101602001929092525095945050505050565b801515811461121a57600080fd5b600080604083850312156124ab57600080fd5b6124b483612385565b915060208301356124c48161248a565b809150509250929050565b6000602080835261010083018451828501528185015160408501526040850151606085015260608501516080850152608085015160a085015260a085015160e060c0860152818151808452610120870191508483019350600092505b808310156125545783516001600160a01b0316825292840192600192909201919084019061252b565b5060c087015180151560e088015293509695505050505050565b60006020828403121561258057600080fd5b81356123bc8161248a565b602080825260159082015274141b185e595c881a5cc8189b1858dadb1a5cdd1959605a1b604082015260600190565b60005b838110156125d55781810151838201526020016125bd565b50506000910152565b600082516125f08184602087016125ba565b9190910192915050565b60208152600082518060208401526126198160408501602087016125ba565b601f01601f19169190910160400192915050565b634e487b7160e01b600052601260045260246000fd5b634e487b7160e01b600052601160045260246000fd5b6000826126685761266861262d565b500490565b634e487b7160e01b600052603260045260246000fd5b60006020828403121561269557600080fd5b81516123bc8161248a565b60006060820185835260206060602085015281865180845260808601915060208801935060005b818110156126ec5784516001600160a01b0316835293830193918301916001016126c7565b5050809350505050826040830152949350505050565b80820180821115611a2957611a29612643565b60006020828403121561272757600080fd5b5051919050565b60006001820161274057612740612643565b5060010190565b8082028115828204841417611a2957611a29612643565b60008261276d5761276d61262d565b500690565b81810381811115611a2957611a29612643565b6450495a5a4160d81b8152600083516127a58160058501602088016125ba565b8351908301906127bc8160058401602088016125ba565b01600501949350505050565b600181815b808511156128035781600019048211156127e9576127e9612643565b808516156127f657918102915b93841c93908002906127cd565b509250929050565b60008261281a57506001611a29565b8161282757506000611a29565b816001811461283d576002811461284757612863565b6001915050611a29565b60ff84111561285857612858612643565b50506001821b611a29565b5060208310610133831016604e8410600b8410161715612886575081810a611a29565b61289083836127c8565b80600019048211156128a4576128a4612643565b029392505050565b60006123bc838361280b56fe195188e7e2a9c946c91317946030490c3ba48a5b7f867101928826fa4cc609c5a2646970667358221220feaf66e118023eae6f13d3cde3979290cf62ac391514559ad342f278c9e5d24264736f6c63430008180033",
  "linkReferences": {},
  "deployedLinkReferences": {}
}